{
	"data": {
		"bytecode": {
			"linkReferences": {
				"remix_accounts.sol": {
					"TestsAccounts": [
						{
							"length": 20,
							"start": 1366
						},
						{
							"length": 20,
							"start": 2500
						},
						{
							"length": 20,
							"start": 5046
						},
						{
							"length": 20,
							"start": 5470
						},
						{
							"length": 20,
							"start": 6227
						},
						{
							"length": 20,
							"start": 6412
						},
						{
							"length": 20,
							"start": 6597
						}
					]
				},
				"remix_tests.sol": {
					"Assert": [
						{
							"length": 20,
							"start": 1340
						},
						{
							"length": 20,
							"start": 2474
						},
						{
							"length": 20,
							"start": 3024
						},
						{
							"length": 20,
							"start": 3309
						},
						{
							"length": 20,
							"start": 4337
						},
						{
							"length": 20,
							"start": 4679
						},
						{
							"length": 20,
							"start": 5020
						},
						{
							"length": 20,
							"start": 5295
						},
						{
							"length": 20,
							"start": 5444
						},
						{
							"length": 20,
							"start": 5752
						},
						{
							"length": 20,
							"start": 6037
						},
						{
							"length": 20,
							"start": 7291
						},
						{
							"length": 20,
							"start": 7854
						},
						{
							"length": 20,
							"start": 8139
						},
						{
							"length": 20,
							"start": 9045
						}
					]
				}
			},
			"object": "608060405260016007556000600860006101000a81548160ff02191690831515021790555034801561003057600080fd5b5033600160006101000a81548173ffffffffffffffffffffffffffffffffffffffff021916908373ffffffffffffffffffffffffffffffffffffffff160217905550614e5e806100816000396000f3fe608060405234801561001057600080fd5b50600436106101cf5760003560e01c80637fea0d4b11610104578063c9230c5d116100a2578063d94a350511610071578063d94a35051461042a578063dc6b862714610449578063ec5d0ab214610467578063f356733c14610483576101cf565b8063c9230c5d146103c8578063cff29dfd146103e6578063d4f4ed6614610416578063d826f88f14610420576101cf565b8063938626c2116100de578063938626c21461035257806393b2590914610370578063a2ebc6561461037a578063a2fb117514610396576101cf565b80637fea0d4b1461030c5780638d67b51b146103165780638f772f9614610320576101cf565b80634d3312b61161017157806366c85dee1161014b57806366c85dee146102d25780636b64c769146102ee5780636e56a9ec146102f85780637127399a14610302576101cf565b80634d3312b61461027a5780634fa7b507146102845780635ec2c7bf146102b4576101cf565b806335abd160116101ad57806335abd160146102185780633817df4c146102365780633fd486e11461026657806340bd593714610270576101cf565b806308551a53146101d4578063133f3c3c146101f25780631744e03b146101fc575b600080fd5b6101dc61048d565b6040516101e991906130f2565b60405180910390f35b6101fa6104b1565b005b6102166004803603810190610211919061329d565b6105ed565b005b610220610760565b60405161022d91906134a8565b60405180910390f35b610250600480360381019061024b91906134f6565b610907565b60405161025d919061353c565b60405180910390f35b61026e61091f565b005b610278610a5b565b005b610282610b4d565b005b61029e60048036038101906102999190613557565b610d28565b6040516102ab91906130f2565b60405180910390f35b6102bc610d70565b6040516102c991906130f2565b60405180910390f35b6102ec60048036038101906102e7919061329d565b610d96565b005b6102f6610ffa565b005b6103006114b9565b005b61030a6115f5565b005b6103146117d0565b005b61031e611b62565b005b61033a60048036038101906103359190613557565b611cbb565b604051610349939291906135dd565b60405180910390f35b61035a611d9d565b604051610367919061361b565b60405180910390f35b610378611e2b565b005b610394600480360381019061038f919061363d565b612006565b005b6103b060048036038101906103ab9190613557565b61208d565b6040516103bf939291906136b5565b60405180910390f35b6103d061216f565b6040516103dd919061361b565b60405180910390f35b61040060048036038101906103fb9190613557565b6121fd565b60405161040d91906130f2565b60405180910390f35b61041e61223c565b005b610428612395565b005b610432612466565b6040516104409291906136f3565b60405180910390f35b6104516125e3565b60405161045e919061383c565b60405180910390f35b610481600480360381019061047c919061388a565b61278a565b005b61048b612875565b005b60008054906101000a900473ffffffffffffffffffffffffffffffffffffffff1681565b6104b9612875565b73__$acbfb1c35000d78352310b16a054a6b106$__63bfba5dd673__$1068a87eb54ed04c4e435de35b2ebf536f$__63ce88b14560036040518263ffffffff1660e01b815260040161050b91906138fc565b602060405180830381865af4158015610528573d6000803e3d6000fd5b505050506040513d601f19601f8201168201806040525081019061054c919061392c565b600960018154811061056157610560613959565b5b9060005260206000200160009054906101000a900473ffffffffffffffffffffffffffffffffffffffff166040518363ffffffff1660e01b81526004016105a99291906139f4565b602060405180830381865af41580156105c6573d6000803e3d6000fd5b505050506040513d601f19601f820116820180604052508101906105ea9190613a68565b50565b60011515600860009054906101000a900460ff16151514610643576040517f08c379a000000000000000000000000000000000000000000000000000000000815260040161063a90613ae1565b60405180910390fd5b6001151561064f612a02565b151514610691576040517f08c379a000000000000000000000000000000000000000000000000000000000815260040161068890613b73565b60405180910390fd5b600060405180606001604052803373ffffffffffffffffffffffffffffffffffffffff168152602001848152602001838152509050600b81908060018154018082558091505060019003906000526020600020906003020160009091909190915060008201518160000160006101000a81548173ffffffffffffffffffffffffffffffffffffffff021916908373ffffffffffffffffffffffffffffffffffffffff1602179055506020820151816001015560408201518160020190816107589190613d95565b505050505050565b606060011515600860009054906101000a900460ff161515146107b8576040517f08c379a00000000000000000000000000000000000000000000000000000000081526004016107af90613ae1565b60405180910390fd5b600c805480602002602001604051908101604052809291908181526020016000905b828210156108fe5783829060005260206000209060030201604051806060016040529081600082015481526020016001820160009054906101000a900473ffffffffffffffffffffffffffffffffffffffff1673ffffffffffffffffffffffffffffffffffffffff1673ffffffffffffffffffffffffffffffffffffffff16815260200160028201805461086d90613bc2565b80601f016020809104026020016040519081016040528092919081815260200182805461089990613bc2565b80156108e65780601f106108bb576101008083540402835291602001916108e6565b820191906000526020600020905b8154815290600101906020018083116108c957829003601f168201915b505050505081525050815260200190600101906107da565b50505050905090565b600a6020528060005260406000206000915090505481565b610927612875565b73__$acbfb1c35000d78352310b16a054a6b106$__63bfba5dd673__$1068a87eb54ed04c4e435de35b2ebf536f$__63ce88b14560026040518263ffffffff1660e01b81526004016109799190613ea2565b602060405180830381865af4158015610996573d6000803e3d6000fd5b505050506040513d601f19601f820116820180604052508101906109ba919061392c565b60096000815481106109cf576109ce613959565b5b9060005260206000200160009054906101000a900473ffffffffffffffffffffffffffffffffffffffff166040518363ffffffff1660e01b8152600401610a17929190613f09565b602060405180830381865af4158015610a34573d6000803e3d6000fd5b505050506040513d601f19601f82011682018060405250810190610a589190613a68565b50565b6006544211610a9f576040517f08c379a0000000000000000000000000000000000000000000000000000000008152600401610a9690613f91565b60405180910390fd5b60005b600980549050811015610b4a57600060098281548110610ac557610ac4613959565b5b9060005260206000200160009054906101000a900473ffffffffffffffffffffffffffffffffffffffff169050600a60008273ffffffffffffffffffffffffffffffffffffffff1673ffffffffffffffffffffffffffffffffffffffff1681526020019081526020016000206000905550600181610b439190613fe0565b9050610aa2565b50565b73__$acbfb1c35000d78352310b16a054a6b106$__63ea79dd79610bfd60165460178054610b7a90613bc2565b80601f0160208091040260200160405190810160405280929190818152602001828054610ba690613bc2565b8015610bf35780601f10610bc857610100808354040283529160200191610bf3565b820191906000526020600020905b815481529060010190602001808311610bd657829003601f168201915b5050505050612aae565b6018546040518363ffffffff1660e01b8152600401610c1d92919061406f565b602060405180830381865af4158015610c3a573d6000803e3d6000fd5b505050506040513d601f19601f82011682018060405250810190610c5e9190613a68565b50610c6a60185461278a565b73__$acbfb1c35000d78352310b16a054a6b106$__63ea79dd79601854600a60003373ffffffffffffffffffffffffffffffffffffffff1673ffffffffffffffffffffffffffffffffffffffff168152602001908152602001600020546040518363ffffffff1660e01b8152600401610ce492919061411d565b602060405180830381865af4158015610d01573d6000803e3d6000fd5b505050506040513d601f19601f82011682018060405250810190610d259190613a68565b50565b600060098281548110610d3e57610d3d613959565b5b9060005260206000200160009054906101000a900473ffffffffffffffffffffffffffffffffffffffff169050919050565b600160009054906101000a900473ffffffffffffffffffffffffffffffffffffffff1681565b60011515600860009054906101000a900460ff16151514610dec576040517f08c379a0000000000000000000000000000000000000000000000000000000008152600401610de390613ae1565b60405180910390fd5b60011515610df8612a02565b151514610e3a576040517f08c379a0000000000000000000000000000000000000000000000000000000008152600401610e3190613b73565b60405180910390fd5b6000610e468383612aae565b905080600a60003373ffffffffffffffffffffffffffffffffffffffff1673ffffffffffffffffffffffffffffffffffffffff1681526020019081526020016000205414610ec9576040517f08c379a0000000000000000000000000000000000000000000000000000000008152600401610ec0906141cb565b60405180910390fd5b60011515610ed684612b5b565b151514610f18576040517f08c379a0000000000000000000000000000000000000000000000000000000008152600401610f0f90614283565b60405180910390fd5b610f20612bc5565b610f2a8383612bd5565b600060405180606001604052808581526020013373ffffffffffffffffffffffffffffffffffffffff168152602001848152509050600c8190806001815401808255809150506001900390600052602060002090600302016000909190919091506000820151816000015560208201518160010160006101000a81548173ffffffffffffffffffffffffffffffffffffffff021916908373ffffffffffffffffffffffffffffffffffffffff1602179055506040820151816002019081610ff19190613d95565b50505050505050565b61106e6040518060400160405280600581526020017f77617463680000000000000000000000000000000000000000000000000000008152506040518060400160405280600b81526020017f6772656174207761746368000000000000000000000000000000000000000000815250612006565b73__$acbfb1c35000d78352310b16a054a6b106$__6339df137f6002604051602001611099906142fa565b6040516020818303038152906040526040516110b59190614356565b602060405180830381855afa1580156110d2573d6000803e3d6000fd5b5050506040513d601f19601f820116820180604052508101906110f59190614382565b600260036040516020016111099190614432565b6040516020818303038152906040526040516111259190614356565b602060405180830381855afa158015611142573d6000803e3d6000fd5b5050506040513d601f19601f820116820180604052508101906111659190614382565b146040518263ffffffff1660e01b815260040161118291906144ca565b602060405180830381865af415801561119f573d6000803e3d6000fd5b505050506040513d601f19601f820116820180604052508101906111c39190613a68565b5073__$acbfb1c35000d78352310b16a054a6b106$__6339df137f60026040516020016111ef90614544565b60405160208183030381529060405260405161120b9190614356565b602060405180830381855afa158015611228573d6000803e3d6000fd5b5050506040513d601f19601f8201168201806040525081019061124b9190614382565b60028060405160200161125e9190614432565b60405160208183030381529060405260405161127a9190614356565b602060405180830381855afa158015611297573d6000803e3d6000fd5b5050506040513d601f19601f820116820180604052508101906112ba9190614382565b146040518263ffffffff1660e01b81526004016112d791906145cb565b602060405180830381865af41580156112f4573d6000803e3d6000fd5b505050506040513d601f19601f820116820180604052508101906113189190613a68565b5073__$acbfb1c35000d78352310b16a054a6b106$__63bfba5dd673__$1068a87eb54ed04c4e435de35b2ebf536f$__63ce88b14560016040518263ffffffff1660e01b815260040161136b9190614634565b602060405180830381865af4158015611388573d6000803e3d6000fd5b505050506040513d601f19601f820116820180604052508101906113ac919061392c565b60008054906101000a900473ffffffffffffffffffffffffffffffffffffffff166040518363ffffffff1660e01b81526004016113ea92919061469b565b602060405180830381865af4158015611407573d6000803e3d6000fd5b505050506040513d601f19601f8201168201806040525081019061142b9190613a68565b5073__$acbfb1c35000d78352310b16a054a6b106$__63767392b3600860009054906101000a900460ff1660016040518363ffffffff1660e01b8152600401611475929190614723565b602060405180830381865af4158015611492573d6000803e3d6000fd5b505050506040513d601f19601f820116820180604052508101906114b69190613a68565b50565b6114c1612875565b73__$acbfb1c35000d78352310b16a054a6b106$__63bfba5dd673__$1068a87eb54ed04c4e435de35b2ebf536f$__63ce88b14560046040518263ffffffff1660e01b8152600401611513919061479a565b602060405180830381865af4158015611530573d6000803e3d6000fd5b505050506040513d601f19601f82011682018060405250810190611554919061392c565b600960028154811061156957611568613959565b5b9060005260206000200160009054906101000a900473ffffffffffffffffffffffffffffffffffffffff166040518363ffffffff1660e01b81526004016115b1929190614801565b602060405180830381865af41580156115ce573d6000803e3d6000fd5b505050506040513d601f19601f820116820180604052508101906115f29190613a68565b50565b73__$acbfb1c35000d78352310b16a054a6b106$__63ea79dd796116a56012546013805461162290613bc2565b80601f016020809104026020016040519081016040528092919081815260200182805461164e90613bc2565b801561169b5780601f106116705761010080835404028352916020019161169b565b820191906000526020600020905b81548152906001019060200180831161167e57829003601f168201915b5050505050612aae565b6014546040518363ffffffff1660e01b81526004016116c5929190614889565b602060405180830381865af41580156116e2573d6000803e3d6000fd5b505050506040513d601f19601f820116820180604052508101906117069190613a68565b5061171260145461278a565b73__$acbfb1c35000d78352310b16a054a6b106$__63ea79dd79601454600a60003373ffffffffffffffffffffffffffffffffffffffff1673ffffffffffffffffffffffffffffffffffffffff168152602001908152602001600020546040518363ffffffff1660e01b815260040161178c929190614937565b602060405180830381865af41580156117a9573d6000803e3d6000fd5b505050506040513d601f19601f820116820180604052508101906117cd9190613a68565b50565b73__$1068a87eb54ed04c4e435de35b2ebf536f$__63ce88b14560026040518263ffffffff1660e01b81526004016118089190613ea2565b602060405180830381865af4158015611825573d6000803e3d6000fd5b505050506040513d601f19601f82011682018060405250810190611849919061392c565b600d60006101000a81548173ffffffffffffffffffffffffffffffffffffffff021916908373ffffffffffffffffffffffffffffffffffffffff16021790555073__$1068a87eb54ed04c4e435de35b2ebf536f$__63ce88b14560036040518263ffffffff1660e01b81526004016118c191906138fc565b602060405180830381865af41580156118de573d6000803e3d6000fd5b505050506040513d601f19601f82011682018060405250810190611902919061392c565b601160006101000a81548173ffffffffffffffffffffffffffffffffffffffff021916908373ffffffffffffffffffffffffffffffffffffffff16021790555073__$1068a87eb54ed04c4e435de35b2ebf536f$__63ce88b14560046040518263ffffffff1660e01b815260040161197a919061479a565b602060405180830381865af4158015611997573d6000803e3d6000fd5b505050506040513d601f19601f820116820180604052508101906119bb919061392c565b601560006101000a81548173ffffffffffffffffffffffffffffffffffffffff021916908373ffffffffffffffffffffffffffffffffffffffff160217905550600b600e819055506040518060400160405280600481526020017f6269643100000000000000000000000000000000000000000000000000000000815250600f9081611a479190613d95565b507f5647b2fc56179a52d9885e3188a4624e65f45772d1dc4ce067b8380d04a3997760001b60108190555060166012819055506040518060400160405280600481526020017f626964320000000000000000000000000000000000000000000000000000000081525060139081611abe9190613d95565b507f50c3208089b13dbbf91f80db31299cf2b996a7d2e671b5f49c6d513a89f63df160001b60148190555060216016819055506040518060400160405280600481526020017f626964330000000000000000000000000000000000000000000000000000000081525060179081611b359190613d95565b507fcec60b8bf0259b4ebd98f5b55fd70f78622e0623b1fff9f4e88c4cedcdbc0f5f60001b601881905550565b611bf860165460178054611b7590613bc2565b80601f0160208091040260200160405190810160405280929190818152602001828054611ba190613bc2565b8015611bee5780601f10611bc357610100808354040283529160200191611bee565b820191906000526020600020905b815481529060010190602001808311611bd157829003601f168201915b5050505050610d96565b73__$acbfb1c35000d78352310b16a054a6b106$__63bfba5dd633600b600081548110611c2857611c27613959565b5b906000526020600020906003020160000160009054906101000a900473ffffffffffffffffffffffffffffffffffffffff166040518363ffffffff1660e01b8152600401611c779291906149bf565b602060405180830381865af4158015611c94573d6000803e3d6000fd5b505050506040513d601f19601f82011682018060405250810190611cb89190613a68565b50565b600c8181548110611ccb57600080fd5b90600052602060002090600302016000915090508060000154908060010160009054906101000a900473ffffffffffffffffffffffffffffffffffffffff1690806002018054611d1a90613bc2565b80601f0160208091040260200160405190810160405280929190818152602001828054611d4690613bc2565b8015611d935780601f10611d6857610100808354040283529160200191611d93565b820191906000526020600020905b815481529060010190602001808311611d7657829003601f168201915b5050505050905083565b60028054611daa90613bc2565b80601f0160208091040260200160405190810160405280929190818152602001828054611dd690613bc2565b8015611e235780601f10611df857610100808354040283529160200191611e23565b820191906000526020600020905b815481529060010190602001808311611e0657829003601f168201915b505050505081565b73__$acbfb1c35000d78352310b16a054a6b106$__63ea79dd79611edb600e54600f8054611e5890613bc2565b80601f0160208091040260200160405190810160405280929190818152602001828054611e8490613bc2565b8015611ed15780601f10611ea657610100808354040283529160200191611ed1565b820191906000526020600020905b815481529060010190602001808311611eb457829003601f168201915b5050505050612aae565b6010546040518363ffffffff1660e01b8152600401611efb929190614a47565b602060405180830381865af4158015611f18573d6000803e3d6000fd5b505050506040513d601f19601f82011682018060405250810190611f3c9190613a68565b50611f4860105461278a565b73__$acbfb1c35000d78352310b16a054a6b106$__63ea79dd79601054600a60003373ffffffffffffffffffffffffffffffffffffffff1673ffffffffffffffffffffffffffffffffffffffff168152602001908152602001600020546040518363ffffffff1660e01b8152600401611fc2929190614af5565b602060405180830381865af4158015611fdf573d6000803e3d6000fd5b505050506040513d601f19601f820116820180604052508101906120039190613a68565b50565b336000806101000a81548173ffffffffffffffffffffffffffffffffffffffff021916908373ffffffffffffffffffffffffffffffffffffffff16021790555081600390816120559190613d95565b5080600290816120659190613d95565b5061206e612ca4565b6001600860006101000a81548160ff0219169083151502179055505050565b600b818154811061209d57600080fd5b90600052602060002090600302016000915090508060000160009054906101000a900473ffffffffffffffffffffffffffffffffffffffff16908060010154908060020180546120ec90613bc2565b80601f016020809104026020016040519081016040528092919081815260200182805461211890613bc2565b80156121655780601f1061213a57610100808354040283529160200191612165565b820191906000526020600020905b81548152906001019060200180831161214857829003601f168201915b5050505050905083565b6003805461217c90613bc2565b80601f01602080910402602001604051908101604052809291908181526020018280546121a890613bc2565b80156121f55780601f106121ca576101008083540402835291602001916121f5565b820191906000526020600020905b8154815290600101906020018083116121d857829003601f168201915b505050505081565b6009818154811061220d57600080fd5b906000526020600020016000915054906101000a900473ffffffffffffffffffffffffffffffffffffffff1681565b6122d26012546013805461224f90613bc2565b80601f016020809104026020016040519081016040528092919081815260200182805461227b90613bc2565b80156122c85780601f1061229d576101008083540402835291602001916122c8565b820191906000526020600020905b8154815290600101906020018083116122ab57829003601f168201915b50505050506105ed565b73__$acbfb1c35000d78352310b16a054a6b106$__63bfba5dd633600b60008154811061230257612301613959565b5b906000526020600020906003020160000160009054906101000a900473ffffffffffffffffffffffffffffffffffffffff166040518363ffffffff1660e01b8152600401612351929190614ba3565b602060405180830381865af415801561236e573d6000803e3d6000fd5b505050506040513d601f19601f820116820180604052508101906123929190613a68565b50565b60065442116123d9576040517f08c379a00000000000000000000000000000000000000000000000000000000081526004016123d090613f91565b60405180910390fd5b600b60006123e79190612f3f565b60405180602001604052806000815250600290816124059190613d95565b5060405180602001604052806000815250600390816124249190613d95565b5061242d610a5b565b6009600061243b9190612f63565b600c60006124499190612f84565b6000600860006101000a81548160ff021916908315150217905550565b60608060011515600860009054906101000a900460ff161515146124bf576040517f08c379a00000000000000000000000000000000000000000000000000000000081526004016124b690613ae1565b60405180910390fd5b600360028180546124cf90613bc2565b80601f01602080910402602001604051908101604052809291908181526020018280546124fb90613bc2565b80156125485780601f1061251d57610100808354040283529160200191612548565b820191906000526020600020905b81548152906001019060200180831161252b57829003601f168201915b5050505050915080805461255b90613bc2565b80601f016020809104026020016040519081016040528092919081815260200182805461258790613bc2565b80156125d45780601f106125a9576101008083540402835291602001916125d4565b820191906000526020600020905b8154815290600101906020018083116125b757829003601f168201915b50505050509050915091509091565b606060011515600860009054906101000a900460ff1615151461263b576040517f08c379a000000000000000000000000000000000000000000000000000000000815260040161263290613ae1565b60405180910390fd5b600b805480602002602001604051908101604052809291908181526020016000905b8282101561278157838290600052602060002090600302016040518060600160405290816000820160009054906101000a900473ffffffffffffffffffffffffffffffffffffffff1673ffffffffffffffffffffffffffffffffffffffff1673ffffffffffffffffffffffffffffffffffffffff168152602001600182015481526020016002820180546126f090613bc2565b80601f016020809104026020016040519081016040528092919081815260200182805461271c90613bc2565b80156127695780601f1061273e57610100808354040283529160200191612769565b820191906000526020600020905b81548152906001019060200180831161274c57829003601f168201915b5050505050815250508152602001906001019061265d565b50505050905090565b60011515600860009054906101000a900460ff161515146127e0576040517f08c379a00000000000000000000000000000000000000000000000000000000081526004016127d790613ae1565b60405180910390fd5b600115156127ec612a02565b15151461282e576040517f08c379a000000000000000000000000000000000000000000000000000000000815260040161282590613b73565b60405180910390fd5b80600a60003373ffffffffffffffffffffffffffffffffffffffff1673ffffffffffffffffffffffffffffffffffffffff1681526020019081526020016000208190555050565b60011515600860009054906101000a900460ff161515146128cb576040517f08c379a00000000000000000000000000000000000000000000000000000000081526004016128c290613ae1565b60405180910390fd5b60008054906101000a900473ffffffffffffffffffffffffffffffffffffffff1673ffffffffffffffffffffffffffffffffffffffff163373ffffffffffffffffffffffffffffffffffffffff1603612959576040517f08c379a000000000000000000000000000000000000000000000000000000000815260040161295090614c51565b60405180910390fd5b600454421061299d576040517f08c379a000000000000000000000000000000000000000000000000000000000815260040161299490614ce3565b60405180910390fd5b6009339080600181540180825580915050600190039060005260206000200160009091909190916101000a81548173ffffffffffffffffffffffffffffffffffffffff021916908373ffffffffffffffffffffffffffffffffffffffff160217905550565b600080600090505b600980549050811015612aa55760098181548110612a2b57612a2a613959565b5b9060005260206000200160009054906101000a900473ffffffffffffffffffffffffffffffffffffffff1673ffffffffffffffffffffffffffffffffffffffff163373ffffffffffffffffffffffffffffffffffffffff1603612a92576001915050612aab565b8080612a9d90614d03565b915050612a0a565b50600090505b90565b600080612aba84612d1e565b905060008184604051602001612ad1929190614d7c565b6040516020818303038152906040529050600281604051602001612af59190614da0565b604051602081830303815290604052604051612b119190614356565b602060405180830381855afa158015612b2e573d6000803e3d6000fd5b5050506040513d601f19601f82011682018060405250810190612b519190614382565b9250505092915050565b600080600090505b600b80549050811015612bba57600b8181548110612b8457612b83613959565b5b906000526020600020906003020160010154831115612ba7576001915050612bc0565b8080612bb290614d03565b915050612b63565b50600090505b919050565b600b6000612bd39190612f3f565b565b600060405180606001604052803373ffffffffffffffffffffffffffffffffffffffff168152602001848152602001838152509050600b81908060018154018082558091505060019003906000526020600020906003020160009091909190915060008201518160000160006101000a81548173ffffffffffffffffffffffffffffffffffffffff021916908373ffffffffffffffffffffffffffffffffffffffff160217905550602082015181600101556040820151816002019081612c9c9190613d95565b505050505050565b603c600754612cb39190614db7565b42612cbe9190613fe0565b600481905550603c6007546002612cd59190614db7565b612cdf9190614db7565b42612cea9190613fe0565b600581905550603c6007546003612d019190614db7565b612d0b9190614db7565b42612d169190613fe0565b600681905550565b606060006001612d2d84612dec565b01905060008167ffffffffffffffff811115612d4c57612d4b613172565b5b6040519080825280601f01601f191660200182016040528015612d7e5781602001600182028036833780820191505090505b509050600082602001820190505b600115612de1578080600190039150507f3031323334353637383961626364656600000000000000000000000000000000600a86061a8153600a8581612dd557612dd4614df9565b5b04945060008503612d8c575b819350505050919050565b600080600090507a184f03e93ff9f4daa797ed6e38ed64bf6a1f0100000000000000008310612e4a577a184f03e93ff9f4daa797ed6e38ed64bf6a1f0100000000000000008381612e4057612e3f614df9565b5b0492506040810190505b6d04ee2d6d415b85acef81000000008310612e87576d04ee2d6d415b85acef81000000008381612e7d57612e7c614df9565b5b0492506020810190505b662386f26fc100008310612eb657662386f26fc100008381612eac57612eab614df9565b5b0492506010810190505b6305f5e1008310612edf576305f5e1008381612ed557612ed4614df9565b5b0492506008810190505b6127108310612f04576127108381612efa57612ef9614df9565b5b0492506004810190505b60648310612f275760648381612f1d57612f1c614df9565b5b0492506002810190505b600a8310612f36576001810190505b80915050919050565b5080546000825560030290600052602060002090810190612f609190612fa8565b50565b5080546000825590600052602060002090810190612f819190612ffe565b50565b5080546000825560030290600052602060002090810190612fa5919061301b565b50565b5b80821115612ffa57600080820160006101000a81549073ffffffffffffffffffffffffffffffffffffffff02191690556001820160009055600282016000612ff19190613071565b50600301612fa9565b5090565b5b80821115613017576000816000905550600101612fff565b5090565b5b8082111561306d576000808201600090556001820160006101000a81549073ffffffffffffffffffffffffffffffffffffffff02191690556002820160006130649190613071565b5060030161301c565b5090565b50805461307d90613bc2565b6000825580601f1061308f57506130ae565b601f0160209004906000526020600020908101906130ad9190612ffe565b5b50565b600073ffffffffffffffffffffffffffffffffffffffff82169050919050565b60006130dc826130b1565b9050919050565b6130ec816130d1565b82525050565b600060208201905061310760008301846130e3565b92915050565b6000604051905090565b600080fd5b600080fd5b6000819050919050565b61313481613121565b811461313f57600080fd5b50565b6000813590506131518161312b565b92915050565b600080fd5b600080fd5b6000601f19601f8301169050919050565b7f4e487b7100000000000000000000000000000000000000000000000000000000600052604160045260246000fd5b6131aa82613161565b810181811067ffffffffffffffff821117156131c9576131c8613172565b5b80604052505050565b60006131dc61310d565b90506131e882826131a1565b919050565b600067ffffffffffffffff82111561320857613207613172565b5b61321182613161565b9050602081019050919050565b82818337600083830152505050565b600061324061323b846131ed565b6131d2565b90508281526020810184848401111561325c5761325b61315c565b5b61326784828561321e565b509392505050565b600082601f83011261328457613283613157565b5b813561329484826020860161322d565b91505092915050565b600080604083850312156132b4576132b3613117565b5b60006132c285828601613142565b925050602083013567ffffffffffffffff8111156132e3576132e261311c565b5b6132ef8582860161326f565b9150509250929050565b600081519050919050565b600082825260208201905092915050565b6000819050602082019050919050565b61332e81613121565b82525050565b61333d816130d1565b82525050565b600081519050919050565b600082825260208201905092915050565b60005b8381101561337d578082015181840152602081019050613362565b60008484015250505050565b600061339482613343565b61339e818561334e565b93506133ae81856020860161335f565b6133b781613161565b840191505092915050565b60006060830160008301516133da6000860182613325565b5060208301516133ed6020860182613334565b50604083015184820360408601526134058282613389565b9150508091505092915050565b600061341e83836133c2565b905092915050565b6000602082019050919050565b600061343e826132f9565b6134488185613304565b93508360208202850161345a85613315565b8060005b8581101561349657848403895281516134778582613412565b945061348283613426565b925060208a0199505060018101905061345e565b50829750879550505050505092915050565b600060208201905081810360008301526134c28184613433565b905092915050565b6134d3816130d1565b81146134de57600080fd5b50565b6000813590506134f0816134ca565b92915050565b60006020828403121561350c5761350b613117565b5b600061351a848285016134e1565b91505092915050565b6000819050919050565b61353681613523565b82525050565b6000602082019050613551600083018461352d565b92915050565b60006020828403121561356d5761356c613117565b5b600061357b84828501613142565b91505092915050565b61358d81613121565b82525050565b600082825260208201905092915050565b60006135af82613343565b6135b98185613593565b93506135c981856020860161335f565b6135d281613161565b840191505092915050565b60006060820190506135f26000830186613584565b6135ff60208301856130e3565b818103604083015261361181846135a4565b9050949350505050565b6000602082019050818103600083015261363581846135a4565b905092915050565b6000806040838503121561365457613653613117565b5b600083013567ffffffffffffffff8111156136725761367161311c565b5b61367e8582860161326f565b925050602083013567ffffffffffffffff81111561369f5761369e61311c565b5b6136ab8582860161326f565b9150509250929050565b60006060820190506136ca60008301866130e3565b6136d76020830185613584565b81810360408301526136e981846135a4565b9050949350505050565b6000604082019050818103600083015261370d81856135a4565b9050818103602083015261372181846135a4565b90509392505050565b600081519050919050565b600082825260208201905092915050565b6000819050602082019050919050565b600060608301600083015161376e6000860182613334565b5060208301516137816020860182613325565b50604083015184820360408601526137998282613389565b9150508091505092915050565b60006137b28383613756565b905092915050565b6000602082019050919050565b60006137d28261372a565b6137dc8185613735565b9350836020820285016137ee85613746565b8060005b8581101561382a578484038952815161380b85826137a6565b9450613816836137ba565b925060208a019950506001810190506137f2565b50829750879550505050505092915050565b6000602082019050818103600083015261385681846137c7565b905092915050565b61386781613523565b811461387257600080fd5b50565b6000813590506138848161385e565b92915050565b6000602082840312156138a05761389f613117565b5b60006138ae84828501613875565b91505092915050565b6000819050919050565b6000819050919050565b60006138e66138e16138dc846138b7565b6138c1565b613121565b9050919050565b6138f6816138cb565b82525050565b600060208201905061391160008301846138ed565b92915050565b600081519050613926816134ca565b92915050565b60006020828403121561394257613941613117565b5b600061395084828501613917565b91505092915050565b7f4e487b7100000000000000000000000000000000000000000000000000000000600052603260045260246000fd5b613991816130d1565b82525050565b600082825260208201905092915050565b7f6269646465722031206973206e6f7420726567697374657265642e0000000000600082015250565b60006139de601b83613997565b91506139e9826139a8565b602082019050919050565b6000606082019050613a096000830185613988565b613a166020830184613988565b8181036040830152613a27816139d1565b90509392505050565b60008115159050919050565b613a4581613a30565b8114613a5057600080fd5b50565b600081519050613a6281613a3c565b92915050565b600060208284031215613a7e57613a7d613117565b5b6000613a8c84828501613a53565b91505092915050565b7f5468657265206973206e6f20737461727465642061756374696f6e206e6f7700600082015250565b6000613acb601f83613593565b9150613ad682613a95565b602082019050919050565b60006020820190508181036000830152613afa81613abe565b9050919050565b7f4f6e6c7920726567697374657264206269646465722063616e2063616c6c207460008201527f6869732066756e6374696f6e0000000000000000000000000000000000000000602082015250565b6000613b5d602c83613593565b9150613b6882613b01565b604082019050919050565b60006020820190508181036000830152613b8c81613b50565b9050919050565b7f4e487b7100000000000000000000000000000000000000000000000000000000600052602260045260246000fd5b60006002820490506001821680613bda57607f821691505b602082108103613bed57613bec613b93565b5b50919050565b60008190508160005260206000209050919050565b60006020601f8301049050919050565b600082821b905092915050565b600060088302613c557fffffffffffffffffffffffffffffffffffffffffffffffffffffffffffffffff82613c18565b613c5f8683613c18565b95508019841693508086168417925050509392505050565b6000613c92613c8d613c8884613121565b6138c1565b613121565b9050919050565b6000819050919050565b613cac83613c77565b613cc0613cb882613c99565b848454613c25565b825550505050565b600090565b613cd5613cc8565b613ce0818484613ca3565b505050565b5b81811015613d0457613cf9600082613ccd565b600181019050613ce6565b5050565b601f821115613d4957613d1a81613bf3565b613d2384613c08565b81016020851015613d32578190505b613d46613d3e85613c08565b830182613ce5565b50505b505050565b600082821c905092915050565b6000613d6c60001984600802613d4e565b1980831691505092915050565b6000613d858383613d5b565b9150826002028217905092915050565b613d9e82613343565b67ffffffffffffffff811115613db757613db6613172565b5b613dc18254613bc2565b613dcc828285613d08565b600060209050601f831160018114613dff5760008415613ded578287015190505b613df78582613d79565b865550613e5f565b601f198416613e0d86613bf3565b60005b82811015613e3557848901518255600182019150602085019450602081019050613e10565b86831015613e525784890151613e4e601f891682613d5b565b8355505b6001600288020188555050505b505050505050565b6000819050919050565b6000613e8c613e87613e8284613e67565b6138c1565b613121565b9050919050565b613e9c81613e71565b82525050565b6000602082019050613eb76000830184613e93565b92915050565b7f6269646465722030206973206e6f7420726567697374657265642e0000000000600082015250565b6000613ef3601b83613997565b9150613efe82613ebd565b602082019050919050565b6000606082019050613f1e6000830185613988565b613f2b6020830184613988565b8181036040830152613f3c81613ee6565b90509392505050565b7f41756374696f6e206973206e6f7420636f6d706c65746564207965742e000000600082015250565b6000613f7b601d83613593565b9150613f8682613f45565b602082019050919050565b60006020820190508181036000830152613faa81613f6e565b9050919050565b7f4e487b7100000000000000000000000000000000000000000000000000000000600052601160045260246000fd5b6000613feb82613121565b9150613ff683613121565b925082820190508082111561400e5761400d613fb1565b5b92915050565b61401d81613523565b82525050565b7f6861736833206973206e6f7420636f7272656374000000000000000000000000600082015250565b6000614059601483613997565b915061406482614023565b602082019050919050565b60006060820190506140846000830185614014565b6140916020830184614014565b81810360408301526140a28161404c565b90509392505050565b7f6861736833206f66206269646465722033206973206e6f74207375626d69747460008201527f6564000000000000000000000000000000000000000000000000000000000000602082015250565b6000614107602283613997565b9150614112826140ab565b604082019050919050565b60006060820190506141326000830185614014565b61413f6020830184614014565b8181036040830152614150816140fa565b90509392505050565b7f5468652062696420616e64206e6f6e636520796f75207375626d69747465642060008201527f617265206e6f742076616c69642e000000000000000000000000000000000000602082015250565b60006141b5602e83613593565b91506141c082614159565b604082019050919050565b600060208201905081810360008301526141e4816141a8565b9050919050565b7f596f75722064697370757465206973206e6f742076616c69642073696e63652060008201527f6974206973206e6f742067726561746572207468616e206174206c656173742060208201527f6f6e652077696e6e65722e000000000000000000000000000000000000000000604082015250565b600061426d604b83613593565b9150614278826141eb565b606082019050919050565b6000602082019050818103600083015261429c81614260565b9050919050565b600081905092915050565b7f7761746368000000000000000000000000000000000000000000000000000000600082015250565b60006142e46005836142a3565b91506142ef826142ae565b600582019050919050565b6000614305826142d7565b9150819050919050565b600081519050919050565b600081905092915050565b60006143308261430f565b61433a818561431a565b935061434a81856020860161335f565b80840191505092915050565b60006143628284614325565b915081905092915050565b60008151905061437c8161385e565b92915050565b60006020828403121561439857614397613117565b5b60006143a68482850161436d565b91505092915050565b600081546143bc81613bc2565b6143c681866142a3565b945060018216600081146143e157600181146143f657614429565b60ff1983168652811515820286019350614429565b6143ff85613bf3565b60005b8381101561442157815481890152600182019150602081019050614402565b838801955050505b50505092915050565b600061443e82846143af565b915081905092915050565b61445281613a30565b82525050565b7f746865206e616d65206f66206173736574206973206e6f7420636f727265637460008201527f6c792073746f7265640000000000000000000000000000000000000000000000602082015250565b60006144b4602983613997565b91506144bf82614458565b604082019050919050565b60006040820190506144df6000830184614449565b81810360208301526144f0816144a7565b905092915050565b7f6772656174207761746368000000000000000000000000000000000000000000600082015250565b600061452e600b836142a3565b9150614539826144f8565b600b82019050919050565b600061454f82614521565b9150819050919050565b7f746865206465736372697074696f6e206f66206173736574206973206e6f742060008201527f636f72726563746c792073746f72656400000000000000000000000000000000602082015250565b60006145b5603083613997565b91506145c082614559565b604082019050919050565b60006040820190506145e06000830184614449565b81810360208301526145f1816145a8565b905092915050565b6000819050919050565b600061461e614619614614846145f9565b6138c1565b613121565b9050919050565b61462e81614603565b82525050565b60006020820190506146496000830184614625565b92915050565b7f61646472657373206f662073656c6c657220697320696e636f72726563742e00600082015250565b6000614685601f83613997565b91506146908261464f565b602082019050919050565b60006060820190506146b06000830185613988565b6146bd6020830184613988565b81810360408301526146ce81614678565b90509392505050565b7f41756374696f6e2073686f756c64206265207374617274656400000000000000600082015250565b600061470d601983613997565b9150614718826146d7565b602082019050919050565b60006060820190506147386000830185614449565b6147456020830184614449565b818103604083015261475681614700565b90509392505050565b6000819050919050565b600061478461477f61477a8461475f565b6138c1565b613121565b9050919050565b61479481614769565b82525050565b60006020820190506147af600083018461478b565b92915050565b7f6269646465722032206973206e6f7420726567697374657265642e0000000000600082015250565b60006147eb601b83613997565b91506147f6826147b5565b602082019050919050565b60006060820190506148166000830185613988565b6148236020830184613988565b8181036040830152614834816147de565b90509392505050565b7f6861736832206973206e6f7420636f7272656374000000000000000000000000600082015250565b6000614873601483613997565b915061487e8261483d565b602082019050919050565b600060608201905061489e6000830185614014565b6148ab6020830184614014565b81810360408301526148bc81614866565b90509392505050565b7f6861736832206f66206269646465722032206973206e6f74207375626d69747460008201527f6564000000000000000000000000000000000000000000000000000000000000602082015250565b6000614921602283613997565b915061492c826148c5565b604082019050919050565b600060608201905061494c6000830185614014565b6149596020830184614014565b818103604083015261496a81614914565b90509392505050565b7f77696e6e6572206973206e6f74206368616e67656420746f2062696464657233600082015250565b60006149a9602083613997565b91506149b482614973565b602082019050919050565b60006060820190506149d46000830185613988565b6149e16020830184613988565b81810360408301526149f28161499c565b90509392505050565b7f6861736831206973206e6f7420636f7272656374000000000000000000000000600082015250565b6000614a31601483613997565b9150614a3c826149fb565b602082019050919050565b6000606082019050614a5c6000830185614014565b614a696020830184614014565b8181036040830152614a7a81614a24565b90509392505050565b7f6861736831206f66206269646465722031206973206e6f74207375626d69747460008201527f6564000000000000000000000000000000000000000000000000000000000000602082015250565b6000614adf602283613997565b9150614aea82614a83565b604082019050919050565b6000606082019050614b0a6000830185614014565b614b176020830184614014565b8181036040830152614b2881614ad2565b90509392505050565b7f6269646465722032206973206e6f742073657420617320696e636f727265637460008201527f2077696e6e657200000000000000000000000000000000000000000000000000602082015250565b6000614b8d602783613997565b9150614b9882614b31565b604082019050919050565b6000606082019050614bb86000830185613988565b614bc56020830184613988565b8181036040830152614bd681614b80565b90509392505050565b7f53656c6c65722063616e206e6f7420726567697374657220617320626964646560008201527f7200000000000000000000000000000000000000000000000000000000000000602082015250565b6000614c3b602183613593565b9150614c4682614bdf565b604082019050919050565b60006020820190508181036000830152614c6a81614c2e565b9050919050565b7f54696d6520666f72207265676973746572696e6720617320612062696464657260008201527f206973207061737365642e000000000000000000000000000000000000000000602082015250565b6000614ccd602b83613593565b9150614cd882614c71565b604082019050919050565b60006020820190508181036000830152614cfc81614cc0565b9050919050565b6000614d0e82613121565b91507fffffffffffffffffffffffffffffffffffffffffffffffffffffffffffffffff8203614d4057614d3f613fb1565b5b600182019050919050565b6000614d5682613343565b614d6081856142a3565b9350614d7081856020860161335f565b80840191505092915050565b6000614d888285614d4b565b9150614d948284614d4b565b91508190509392505050565b6000614dac8284614d4b565b915081905092915050565b6000614dc282613121565b9150614dcd83613121565b9250828202614ddb81613121565b91508282048414831517614df257614df1613fb1565b5b5092915050565b7f4e487b7100000000000000000000000000000000000000000000000000000000600052601260045260246000fdfea26469706673582212204ab54c98cbde2034c5a56f659e70d61e8a32e0dd7ec5cddb2f49507ba34d772f64736f6c63430008120033",
			"opcodes": "PUSH1 0x80 PUSH1 0x40 MSTORE PUSH1 0x1 PUSH1 0x7 SSTORE PUSH1 0x0 PUSH1 0x8 PUSH1 0x0 PUSH2 0x100 EXP DUP2 SLOAD DUP2 PUSH1 0xFF MUL NOT AND SWAP1 DUP4 ISZERO ISZERO MUL OR SWAP1 SSTORE POP CALLVALUE DUP1 ISZERO PUSH2 0x30 JUMPI PUSH1 0x0 DUP1 REVERT JUMPDEST POP CALLER PUSH1 0x1 PUSH1 0x0 PUSH2 0x100 EXP DUP2 SLOAD DUP2 PUSH20 0xFFFFFFFFFFFFFFFFFFFFFFFFFFFFFFFFFFFFFFFF MUL NOT AND SWAP1 DUP4 PUSH20 0xFFFFFFFFFFFFFFFFFFFFFFFFFFFFFFFFFFFFFFFF AND MUL OR SWAP1 SSTORE POP PUSH2 0x4E5E DUP1 PUSH2 0x81 PUSH1 0x0 CODECOPY PUSH1 0x0 RETURN INVALID PUSH1 0x80 PUSH1 0x40 MSTORE CALLVALUE DUP1 ISZERO PUSH2 0x10 JUMPI PUSH1 0x0 DUP1 REVERT JUMPDEST POP PUSH1 0x4 CALLDATASIZE LT PUSH2 0x1CF JUMPI PUSH1 0x0 CALLDATALOAD PUSH1 0xE0 SHR DUP1 PUSH4 0x7FEA0D4B GT PUSH2 0x104 JUMPI DUP1 PUSH4 0xC9230C5D GT PUSH2 0xA2 JUMPI DUP1 PUSH4 0xD94A3505 GT PUSH2 0x71 JUMPI DUP1 PUSH4 0xD94A3505 EQ PUSH2 0x42A JUMPI DUP1 PUSH4 0xDC6B8627 EQ PUSH2 0x449 JUMPI DUP1 PUSH4 0xEC5D0AB2 EQ PUSH2 0x467 JUMPI DUP1 PUSH4 0xF356733C EQ PUSH2 0x483 JUMPI PUSH2 0x1CF JUMP JUMPDEST DUP1 PUSH4 0xC9230C5D EQ PUSH2 0x3C8 JUMPI DUP1 PUSH4 0xCFF29DFD EQ PUSH2 0x3E6 JUMPI DUP1 PUSH4 0xD4F4ED66 EQ PUSH2 0x416 JUMPI DUP1 PUSH4 0xD826F88F EQ PUSH2 0x420 JUMPI PUSH2 0x1CF JUMP JUMPDEST DUP1 PUSH4 0x938626C2 GT PUSH2 0xDE JUMPI DUP1 PUSH4 0x938626C2 EQ PUSH2 0x352 JUMPI DUP1 PUSH4 0x93B25909 EQ PUSH2 0x370 JUMPI DUP1 PUSH4 0xA2EBC656 EQ PUSH2 0x37A JUMPI DUP1 PUSH4 0xA2FB1175 EQ PUSH2 0x396 JUMPI PUSH2 0x1CF JUMP JUMPDEST DUP1 PUSH4 0x7FEA0D4B EQ PUSH2 0x30C JUMPI DUP1 PUSH4 0x8D67B51B EQ PUSH2 0x316 JUMPI DUP1 PUSH4 0x8F772F96 EQ PUSH2 0x320 JUMPI PUSH2 0x1CF JUMP JUMPDEST DUP1 PUSH4 0x4D3312B6 GT PUSH2 0x171 JUMPI DUP1 PUSH4 0x66C85DEE GT PUSH2 0x14B JUMPI DUP1 PUSH4 0x66C85DEE EQ PUSH2 0x2D2 JUMPI DUP1 PUSH4 0x6B64C769 EQ PUSH2 0x2EE JUMPI DUP1 PUSH4 0x6E56A9EC EQ PUSH2 0x2F8 JUMPI DUP1 PUSH4 0x7127399A EQ PUSH2 0x302 JUMPI PUSH2 0x1CF JUMP JUMPDEST DUP1 PUSH4 0x4D3312B6 EQ PUSH2 0x27A JUMPI DUP1 PUSH4 0x4FA7B507 EQ PUSH2 0x284 JUMPI DUP1 PUSH4 0x5EC2C7BF EQ PUSH2 0x2B4 JUMPI PUSH2 0x1CF JUMP JUMPDEST DUP1 PUSH4 0x35ABD160 GT PUSH2 0x1AD JUMPI DUP1 PUSH4 0x35ABD160 EQ PUSH2 0x218 JUMPI DUP1 PUSH4 0x3817DF4C EQ PUSH2 0x236 JUMPI DUP1 PUSH4 0x3FD486E1 EQ PUSH2 0x266 JUMPI DUP1 PUSH4 0x40BD5937 EQ PUSH2 0x270 JUMPI PUSH2 0x1CF JUMP JUMPDEST DUP1 PUSH4 0x8551A53 EQ PUSH2 0x1D4 JUMPI DUP1 PUSH4 0x133F3C3C EQ PUSH2 0x1F2 JUMPI DUP1 PUSH4 0x1744E03B EQ PUSH2 0x1FC JUMPI JUMPDEST PUSH1 0x0 DUP1 REVERT JUMPDEST PUSH2 0x1DC PUSH2 0x48D JUMP JUMPDEST PUSH1 0x40 MLOAD PUSH2 0x1E9 SWAP2 SWAP1 PUSH2 0x30F2 JUMP JUMPDEST PUSH1 0x40 MLOAD DUP1 SWAP2 SUB SWAP1 RETURN JUMPDEST PUSH2 0x1FA PUSH2 0x4B1 JUMP JUMPDEST STOP JUMPDEST PUSH2 0x216 PUSH1 0x4 DUP1 CALLDATASIZE SUB DUP2 ADD SWAP1 PUSH2 0x211 SWAP2 SWAP1 PUSH2 0x329D JUMP JUMPDEST PUSH2 0x5ED JUMP JUMPDEST STOP JUMPDEST PUSH2 0x220 PUSH2 0x760 JUMP JUMPDEST PUSH1 0x40 MLOAD PUSH2 0x22D SWAP2 SWAP1 PUSH2 0x34A8 JUMP JUMPDEST PUSH1 0x40 MLOAD DUP1 SWAP2 SUB SWAP1 RETURN JUMPDEST PUSH2 0x250 PUSH1 0x4 DUP1 CALLDATASIZE SUB DUP2 ADD SWAP1 PUSH2 0x24B SWAP2 SWAP1 PUSH2 0x34F6 JUMP JUMPDEST PUSH2 0x907 JUMP JUMPDEST PUSH1 0x40 MLOAD PUSH2 0x25D SWAP2 SWAP1 PUSH2 0x353C JUMP JUMPDEST PUSH1 0x40 MLOAD DUP1 SWAP2 SUB SWAP1 RETURN JUMPDEST PUSH2 0x26E PUSH2 0x91F JUMP JUMPDEST STOP JUMPDEST PUSH2 0x278 PUSH2 0xA5B JUMP JUMPDEST STOP JUMPDEST PUSH2 0x282 PUSH2 0xB4D JUMP JUMPDEST STOP JUMPDEST PUSH2 0x29E PUSH1 0x4 DUP1 CALLDATASIZE SUB DUP2 ADD SWAP1 PUSH2 0x299 SWAP2 SWAP1 PUSH2 0x3557 JUMP JUMPDEST PUSH2 0xD28 JUMP JUMPDEST PUSH1 0x40 MLOAD PUSH2 0x2AB SWAP2 SWAP1 PUSH2 0x30F2 JUMP JUMPDEST PUSH1 0x40 MLOAD DUP1 SWAP2 SUB SWAP1 RETURN JUMPDEST PUSH2 0x2BC PUSH2 0xD70 JUMP JUMPDEST PUSH1 0x40 MLOAD PUSH2 0x2C9 SWAP2 SWAP1 PUSH2 0x30F2 JUMP JUMPDEST PUSH1 0x40 MLOAD DUP1 SWAP2 SUB SWAP1 RETURN JUMPDEST PUSH2 0x2EC PUSH1 0x4 DUP1 CALLDATASIZE SUB DUP2 ADD SWAP1 PUSH2 0x2E7 SWAP2 SWAP1 PUSH2 0x329D JUMP JUMPDEST PUSH2 0xD96 JUMP JUMPDEST STOP JUMPDEST PUSH2 0x2F6 PUSH2 0xFFA JUMP JUMPDEST STOP JUMPDEST PUSH2 0x300 PUSH2 0x14B9 JUMP JUMPDEST STOP JUMPDEST PUSH2 0x30A PUSH2 0x15F5 JUMP JUMPDEST STOP JUMPDEST PUSH2 0x314 PUSH2 0x17D0 JUMP JUMPDEST STOP JUMPDEST PUSH2 0x31E PUSH2 0x1B62 JUMP JUMPDEST STOP JUMPDEST PUSH2 0x33A PUSH1 0x4 DUP1 CALLDATASIZE SUB DUP2 ADD SWAP1 PUSH2 0x335 SWAP2 SWAP1 PUSH2 0x3557 JUMP JUMPDEST PUSH2 0x1CBB JUMP JUMPDEST PUSH1 0x40 MLOAD PUSH2 0x349 SWAP4 SWAP3 SWAP2 SWAP1 PUSH2 0x35DD JUMP JUMPDEST PUSH1 0x40 MLOAD DUP1 SWAP2 SUB SWAP1 RETURN JUMPDEST PUSH2 0x35A PUSH2 0x1D9D JUMP JUMPDEST PUSH1 0x40 MLOAD PUSH2 0x367 SWAP2 SWAP1 PUSH2 0x361B JUMP JUMPDEST PUSH1 0x40 MLOAD DUP1 SWAP2 SUB SWAP1 RETURN JUMPDEST PUSH2 0x378 PUSH2 0x1E2B JUMP JUMPDEST STOP JUMPDEST PUSH2 0x394 PUSH1 0x4 DUP1 CALLDATASIZE SUB DUP2 ADD SWAP1 PUSH2 0x38F SWAP2 SWAP1 PUSH2 0x363D JUMP JUMPDEST PUSH2 0x2006 JUMP JUMPDEST STOP JUMPDEST PUSH2 0x3B0 PUSH1 0x4 DUP1 CALLDATASIZE SUB DUP2 ADD SWAP1 PUSH2 0x3AB SWAP2 SWAP1 PUSH2 0x3557 JUMP JUMPDEST PUSH2 0x208D JUMP JUMPDEST PUSH1 0x40 MLOAD PUSH2 0x3BF SWAP4 SWAP3 SWAP2 SWAP1 PUSH2 0x36B5 JUMP JUMPDEST PUSH1 0x40 MLOAD DUP1 SWAP2 SUB SWAP1 RETURN JUMPDEST PUSH2 0x3D0 PUSH2 0x216F JUMP JUMPDEST PUSH1 0x40 MLOAD PUSH2 0x3DD SWAP2 SWAP1 PUSH2 0x361B JUMP JUMPDEST PUSH1 0x40 MLOAD DUP1 SWAP2 SUB SWAP1 RETURN JUMPDEST PUSH2 0x400 PUSH1 0x4 DUP1 CALLDATASIZE SUB DUP2 ADD SWAP1 PUSH2 0x3FB SWAP2 SWAP1 PUSH2 0x3557 JUMP JUMPDEST PUSH2 0x21FD JUMP JUMPDEST PUSH1 0x40 MLOAD PUSH2 0x40D SWAP2 SWAP1 PUSH2 0x30F2 JUMP JUMPDEST PUSH1 0x40 MLOAD DUP1 SWAP2 SUB SWAP1 RETURN JUMPDEST PUSH2 0x41E PUSH2 0x223C JUMP JUMPDEST STOP JUMPDEST PUSH2 0x428 PUSH2 0x2395 JUMP JUMPDEST STOP JUMPDEST PUSH2 0x432 PUSH2 0x2466 JUMP JUMPDEST PUSH1 0x40 MLOAD PUSH2 0x440 SWAP3 SWAP2 SWAP1 PUSH2 0x36F3 JUMP JUMPDEST PUSH1 0x40 MLOAD DUP1 SWAP2 SUB SWAP1 RETURN JUMPDEST PUSH2 0x451 PUSH2 0x25E3 JUMP JUMPDEST PUSH1 0x40 MLOAD PUSH2 0x45E SWAP2 SWAP1 PUSH2 0x383C JUMP JUMPDEST PUSH1 0x40 MLOAD DUP1 SWAP2 SUB SWAP1 RETURN JUMPDEST PUSH2 0x481 PUSH1 0x4 DUP1 CALLDATASIZE SUB DUP2 ADD SWAP1 PUSH2 0x47C SWAP2 SWAP1 PUSH2 0x388A JUMP JUMPDEST PUSH2 0x278A JUMP JUMPDEST STOP JUMPDEST PUSH2 0x48B PUSH2 0x2875 JUMP JUMPDEST STOP JUMPDEST PUSH1 0x0 DUP1 SLOAD SWAP1 PUSH2 0x100 EXP SWAP1 DIV PUSH20 0xFFFFFFFFFFFFFFFFFFFFFFFFFFFFFFFFFFFFFFFF AND DUP2 JUMP JUMPDEST PUSH2 0x4B9 PUSH2 0x2875 JUMP JUMPDEST PUSH20 0x0 PUSH4 0xBFBA5DD6 PUSH20 0x0 PUSH4 0xCE88B145 PUSH1 0x3 PUSH1 0x40 MLOAD DUP3 PUSH4 0xFFFFFFFF AND PUSH1 0xE0 SHL DUP2 MSTORE PUSH1 0x4 ADD PUSH2 0x50B SWAP2 SWAP1 PUSH2 0x38FC JUMP JUMPDEST PUSH1 0x20 PUSH1 0x40 MLOAD DUP1 DUP4 SUB DUP2 DUP7 GAS DELEGATECALL ISZERO DUP1 ISZERO PUSH2 0x528 JUMPI RETURNDATASIZE PUSH1 0x0 DUP1 RETURNDATACOPY RETURNDATASIZE PUSH1 0x0 REVERT JUMPDEST POP POP POP POP PUSH1 0x40 MLOAD RETURNDATASIZE PUSH1 0x1F NOT PUSH1 0x1F DUP3 ADD AND DUP3 ADD DUP1 PUSH1 0x40 MSTORE POP DUP2 ADD SWAP1 PUSH2 0x54C SWAP2 SWAP1 PUSH2 0x392C JUMP JUMPDEST PUSH1 0x9 PUSH1 0x1 DUP2 SLOAD DUP2 LT PUSH2 0x561 JUMPI PUSH2 0x560 PUSH2 0x3959 JUMP JUMPDEST JUMPDEST SWAP1 PUSH1 0x0 MSTORE PUSH1 0x20 PUSH1 0x0 KECCAK256 ADD PUSH1 0x0 SWAP1 SLOAD SWAP1 PUSH2 0x100 EXP SWAP1 DIV PUSH20 0xFFFFFFFFFFFFFFFFFFFFFFFFFFFFFFFFFFFFFFFF AND PUSH1 0x40 MLOAD DUP4 PUSH4 0xFFFFFFFF AND PUSH1 0xE0 SHL DUP2 MSTORE PUSH1 0x4 ADD PUSH2 0x5A9 SWAP3 SWAP2 SWAP1 PUSH2 0x39F4 JUMP JUMPDEST PUSH1 0x20 PUSH1 0x40 MLOAD DUP1 DUP4 SUB DUP2 DUP7 GAS DELEGATECALL ISZERO DUP1 ISZERO PUSH2 0x5C6 JUMPI RETURNDATASIZE PUSH1 0x0 DUP1 RETURNDATACOPY RETURNDATASIZE PUSH1 0x0 REVERT JUMPDEST POP POP POP POP PUSH1 0x40 MLOAD RETURNDATASIZE PUSH1 0x1F NOT PUSH1 0x1F DUP3 ADD AND DUP3 ADD DUP1 PUSH1 0x40 MSTORE POP DUP2 ADD SWAP1 PUSH2 0x5EA SWAP2 SWAP1 PUSH2 0x3A68 JUMP JUMPDEST POP JUMP JUMPDEST PUSH1 0x1 ISZERO ISZERO PUSH1 0x8 PUSH1 0x0 SWAP1 SLOAD SWAP1 PUSH2 0x100 EXP SWAP1 DIV PUSH1 0xFF AND ISZERO ISZERO EQ PUSH2 0x643 JUMPI PUSH1 0x40 MLOAD PUSH32 0x8C379A000000000000000000000000000000000000000000000000000000000 DUP2 MSTORE PUSH1 0x4 ADD PUSH2 0x63A SWAP1 PUSH2 0x3AE1 JUMP JUMPDEST PUSH1 0x40 MLOAD DUP1 SWAP2 SUB SWAP1 REVERT JUMPDEST PUSH1 0x1 ISZERO ISZERO PUSH2 0x64F PUSH2 0x2A02 JUMP JUMPDEST ISZERO ISZERO EQ PUSH2 0x691 JUMPI PUSH1 0x40 MLOAD PUSH32 0x8C379A000000000000000000000000000000000000000000000000000000000 DUP2 MSTORE PUSH1 0x4 ADD PUSH2 0x688 SWAP1 PUSH2 0x3B73 JUMP JUMPDEST PUSH1 0x40 MLOAD DUP1 SWAP2 SUB SWAP1 REVERT JUMPDEST PUSH1 0x0 PUSH1 0x40 MLOAD DUP1 PUSH1 0x60 ADD PUSH1 0x40 MSTORE DUP1 CALLER PUSH20 0xFFFFFFFFFFFFFFFFFFFFFFFFFFFFFFFFFFFFFFFF AND DUP2 MSTORE PUSH1 0x20 ADD DUP5 DUP2 MSTORE PUSH1 0x20 ADD DUP4 DUP2 MSTORE POP SWAP1 POP PUSH1 0xB DUP2 SWAP1 DUP1 PUSH1 0x1 DUP2 SLOAD ADD DUP1 DUP3 SSTORE DUP1 SWAP2 POP POP PUSH1 0x1 SWAP1 SUB SWAP1 PUSH1 0x0 MSTORE PUSH1 0x20 PUSH1 0x0 KECCAK256 SWAP1 PUSH1 0x3 MUL ADD PUSH1 0x0 SWAP1 SWAP2 SWAP1 SWAP2 SWAP1 SWAP2 POP PUSH1 0x0 DUP3 ADD MLOAD DUP2 PUSH1 0x0 ADD PUSH1 0x0 PUSH2 0x100 EXP DUP2 SLOAD DUP2 PUSH20 0xFFFFFFFFFFFFFFFFFFFFFFFFFFFFFFFFFFFFFFFF MUL NOT AND SWAP1 DUP4 PUSH20 0xFFFFFFFFFFFFFFFFFFFFFFFFFFFFFFFFFFFFFFFF AND MUL OR SWAP1 SSTORE POP PUSH1 0x20 DUP3 ADD MLOAD DUP2 PUSH1 0x1 ADD SSTORE PUSH1 0x40 DUP3 ADD MLOAD DUP2 PUSH1 0x2 ADD SWAP1 DUP2 PUSH2 0x758 SWAP2 SWAP1 PUSH2 0x3D95 JUMP JUMPDEST POP POP POP POP POP POP JUMP JUMPDEST PUSH1 0x60 PUSH1 0x1 ISZERO ISZERO PUSH1 0x8 PUSH1 0x0 SWAP1 SLOAD SWAP1 PUSH2 0x100 EXP SWAP1 DIV PUSH1 0xFF AND ISZERO ISZERO EQ PUSH2 0x7B8 JUMPI PUSH1 0x40 MLOAD PUSH32 0x8C379A000000000000000000000000000000000000000000000000000000000 DUP2 MSTORE PUSH1 0x4 ADD PUSH2 0x7AF SWAP1 PUSH2 0x3AE1 JUMP JUMPDEST PUSH1 0x40 MLOAD DUP1 SWAP2 SUB SWAP1 REVERT JUMPDEST PUSH1 0xC DUP1 SLOAD DUP1 PUSH1 0x20 MUL PUSH1 0x20 ADD PUSH1 0x40 MLOAD SWAP1 DUP2 ADD PUSH1 0x40 MSTORE DUP1 SWAP3 SWAP2 SWAP1 DUP2 DUP2 MSTORE PUSH1 0x20 ADD PUSH1 0x0 SWAP1 JUMPDEST DUP3 DUP3 LT ISZERO PUSH2 0x8FE JUMPI DUP4 DUP3 SWAP1 PUSH1 0x0 MSTORE PUSH1 0x20 PUSH1 0x0 KECCAK256 SWAP1 PUSH1 0x3 MUL ADD PUSH1 0x40 MLOAD DUP1 PUSH1 0x60 ADD PUSH1 0x40 MSTORE SWAP1 DUP2 PUSH1 0x0 DUP3 ADD SLOAD DUP2 MSTORE PUSH1 0x20 ADD PUSH1 0x1 DUP3 ADD PUSH1 0x0 SWAP1 SLOAD SWAP1 PUSH2 0x100 EXP SWAP1 DIV PUSH20 0xFFFFFFFFFFFFFFFFFFFFFFFFFFFFFFFFFFFFFFFF AND PUSH20 0xFFFFFFFFFFFFFFFFFFFFFFFFFFFFFFFFFFFFFFFF AND PUSH20 0xFFFFFFFFFFFFFFFFFFFFFFFFFFFFFFFFFFFFFFFF AND DUP2 MSTORE PUSH1 0x20 ADD PUSH1 0x2 DUP3 ADD DUP1 SLOAD PUSH2 0x86D SWAP1 PUSH2 0x3BC2 JUMP JUMPDEST DUP1 PUSH1 0x1F ADD PUSH1 0x20 DUP1 SWAP2 DIV MUL PUSH1 0x20 ADD PUSH1 0x40 MLOAD SWAP1 DUP2 ADD PUSH1 0x40 MSTORE DUP1 SWAP3 SWAP2 SWAP1 DUP2 DUP2 MSTORE PUSH1 0x20 ADD DUP3 DUP1 SLOAD PUSH2 0x899 SWAP1 PUSH2 0x3BC2 JUMP JUMPDEST DUP1 ISZERO PUSH2 0x8E6 JUMPI DUP1 PUSH1 0x1F LT PUSH2 0x8BB JUMPI PUSH2 0x100 DUP1 DUP4 SLOAD DIV MUL DUP4 MSTORE SWAP2 PUSH1 0x20 ADD SWAP2 PUSH2 0x8E6 JUMP JUMPDEST DUP3 ADD SWAP2 SWAP1 PUSH1 0x0 MSTORE PUSH1 0x20 PUSH1 0x0 KECCAK256 SWAP1 JUMPDEST DUP2 SLOAD DUP2 MSTORE SWAP1 PUSH1 0x1 ADD SWAP1 PUSH1 0x20 ADD DUP1 DUP4 GT PUSH2 0x8C9 JUMPI DUP3 SWAP1 SUB PUSH1 0x1F AND DUP3 ADD SWAP2 JUMPDEST POP POP POP POP POP DUP2 MSTORE POP POP DUP2 MSTORE PUSH1 0x20 ADD SWAP1 PUSH1 0x1 ADD SWAP1 PUSH2 0x7DA JUMP JUMPDEST POP POP POP POP SWAP1 POP SWAP1 JUMP JUMPDEST PUSH1 0xA PUSH1 0x20 MSTORE DUP1 PUSH1 0x0 MSTORE PUSH1 0x40 PUSH1 0x0 KECCAK256 PUSH1 0x0 SWAP2 POP SWAP1 POP SLOAD DUP2 JUMP JUMPDEST PUSH2 0x927 PUSH2 0x2875 JUMP JUMPDEST PUSH20 0x0 PUSH4 0xBFBA5DD6 PUSH20 0x0 PUSH4 0xCE88B145 PUSH1 0x2 PUSH1 0x40 MLOAD DUP3 PUSH4 0xFFFFFFFF AND PUSH1 0xE0 SHL DUP2 MSTORE PUSH1 0x4 ADD PUSH2 0x979 SWAP2 SWAP1 PUSH2 0x3EA2 JUMP JUMPDEST PUSH1 0x20 PUSH1 0x40 MLOAD DUP1 DUP4 SUB DUP2 DUP7 GAS DELEGATECALL ISZERO DUP1 ISZERO PUSH2 0x996 JUMPI RETURNDATASIZE PUSH1 0x0 DUP1 RETURNDATACOPY RETURNDATASIZE PUSH1 0x0 REVERT JUMPDEST POP POP POP POP PUSH1 0x40 MLOAD RETURNDATASIZE PUSH1 0x1F NOT PUSH1 0x1F DUP3 ADD AND DUP3 ADD DUP1 PUSH1 0x40 MSTORE POP DUP2 ADD SWAP1 PUSH2 0x9BA SWAP2 SWAP1 PUSH2 0x392C JUMP JUMPDEST PUSH1 0x9 PUSH1 0x0 DUP2 SLOAD DUP2 LT PUSH2 0x9CF JUMPI PUSH2 0x9CE PUSH2 0x3959 JUMP JUMPDEST JUMPDEST SWAP1 PUSH1 0x0 MSTORE PUSH1 0x20 PUSH1 0x0 KECCAK256 ADD PUSH1 0x0 SWAP1 SLOAD SWAP1 PUSH2 0x100 EXP SWAP1 DIV PUSH20 0xFFFFFFFFFFFFFFFFFFFFFFFFFFFFFFFFFFFFFFFF AND PUSH1 0x40 MLOAD DUP4 PUSH4 0xFFFFFFFF AND PUSH1 0xE0 SHL DUP2 MSTORE PUSH1 0x4 ADD PUSH2 0xA17 SWAP3 SWAP2 SWAP1 PUSH2 0x3F09 JUMP JUMPDEST PUSH1 0x20 PUSH1 0x40 MLOAD DUP1 DUP4 SUB DUP2 DUP7 GAS DELEGATECALL ISZERO DUP1 ISZERO PUSH2 0xA34 JUMPI RETURNDATASIZE PUSH1 0x0 DUP1 RETURNDATACOPY RETURNDATASIZE PUSH1 0x0 REVERT JUMPDEST POP POP POP POP PUSH1 0x40 MLOAD RETURNDATASIZE PUSH1 0x1F NOT PUSH1 0x1F DUP3 ADD AND DUP3 ADD DUP1 PUSH1 0x40 MSTORE POP DUP2 ADD SWAP1 PUSH2 0xA58 SWAP2 SWAP1 PUSH2 0x3A68 JUMP JUMPDEST POP JUMP JUMPDEST PUSH1 0x6 SLOAD TIMESTAMP GT PUSH2 0xA9F JUMPI PUSH1 0x40 MLOAD PUSH32 0x8C379A000000000000000000000000000000000000000000000000000000000 DUP2 MSTORE PUSH1 0x4 ADD PUSH2 0xA96 SWAP1 PUSH2 0x3F91 JUMP JUMPDEST PUSH1 0x40 MLOAD DUP1 SWAP2 SUB SWAP1 REVERT JUMPDEST PUSH1 0x0 JUMPDEST PUSH1 0x9 DUP1 SLOAD SWAP1 POP DUP2 LT ISZERO PUSH2 0xB4A JUMPI PUSH1 0x0 PUSH1 0x9 DUP3 DUP2 SLOAD DUP2 LT PUSH2 0xAC5 JUMPI PUSH2 0xAC4 PUSH2 0x3959 JUMP JUMPDEST JUMPDEST SWAP1 PUSH1 0x0 MSTORE PUSH1 0x20 PUSH1 0x0 KECCAK256 ADD PUSH1 0x0 SWAP1 SLOAD SWAP1 PUSH2 0x100 EXP SWAP1 DIV PUSH20 0xFFFFFFFFFFFFFFFFFFFFFFFFFFFFFFFFFFFFFFFF AND SWAP1 POP PUSH1 0xA PUSH1 0x0 DUP3 PUSH20 0xFFFFFFFFFFFFFFFFFFFFFFFFFFFFFFFFFFFFFFFF AND PUSH20 0xFFFFFFFFFFFFFFFFFFFFFFFFFFFFFFFFFFFFFFFF AND DUP2 MSTORE PUSH1 0x20 ADD SWAP1 DUP2 MSTORE PUSH1 0x20 ADD PUSH1 0x0 KECCAK256 PUSH1 0x0 SWAP1 SSTORE POP PUSH1 0x1 DUP2 PUSH2 0xB43 SWAP2 SWAP1 PUSH2 0x3FE0 JUMP JUMPDEST SWAP1 POP PUSH2 0xAA2 JUMP JUMPDEST POP JUMP JUMPDEST PUSH20 0x0 PUSH4 0xEA79DD79 PUSH2 0xBFD PUSH1 0x16 SLOAD PUSH1 0x17 DUP1 SLOAD PUSH2 0xB7A SWAP1 PUSH2 0x3BC2 JUMP JUMPDEST DUP1 PUSH1 0x1F ADD PUSH1 0x20 DUP1 SWAP2 DIV MUL PUSH1 0x20 ADD PUSH1 0x40 MLOAD SWAP1 DUP2 ADD PUSH1 0x40 MSTORE DUP1 SWAP3 SWAP2 SWAP1 DUP2 DUP2 MSTORE PUSH1 0x20 ADD DUP3 DUP1 SLOAD PUSH2 0xBA6 SWAP1 PUSH2 0x3BC2 JUMP JUMPDEST DUP1 ISZERO PUSH2 0xBF3 JUMPI DUP1 PUSH1 0x1F LT PUSH2 0xBC8 JUMPI PUSH2 0x100 DUP1 DUP4 SLOAD DIV MUL DUP4 MSTORE SWAP2 PUSH1 0x20 ADD SWAP2 PUSH2 0xBF3 JUMP JUMPDEST DUP3 ADD SWAP2 SWAP1 PUSH1 0x0 MSTORE PUSH1 0x20 PUSH1 0x0 KECCAK256 SWAP1 JUMPDEST DUP2 SLOAD DUP2 MSTORE SWAP1 PUSH1 0x1 ADD SWAP1 PUSH1 0x20 ADD DUP1 DUP4 GT PUSH2 0xBD6 JUMPI DUP3 SWAP1 SUB PUSH1 0x1F AND DUP3 ADD SWAP2 JUMPDEST POP POP POP POP POP PUSH2 0x2AAE JUMP JUMPDEST PUSH1 0x18 SLOAD PUSH1 0x40 MLOAD DUP4 PUSH4 0xFFFFFFFF AND PUSH1 0xE0 SHL DUP2 MSTORE PUSH1 0x4 ADD PUSH2 0xC1D SWAP3 SWAP2 SWAP1 PUSH2 0x406F JUMP JUMPDEST PUSH1 0x20 PUSH1 0x40 MLOAD DUP1 DUP4 SUB DUP2 DUP7 GAS DELEGATECALL ISZERO DUP1 ISZERO PUSH2 0xC3A JUMPI RETURNDATASIZE PUSH1 0x0 DUP1 RETURNDATACOPY RETURNDATASIZE PUSH1 0x0 REVERT JUMPDEST POP POP POP POP PUSH1 0x40 MLOAD RETURNDATASIZE PUSH1 0x1F NOT PUSH1 0x1F DUP3 ADD AND DUP3 ADD DUP1 PUSH1 0x40 MSTORE POP DUP2 ADD SWAP1 PUSH2 0xC5E SWAP2 SWAP1 PUSH2 0x3A68 JUMP JUMPDEST POP PUSH2 0xC6A PUSH1 0x18 SLOAD PUSH2 0x278A JUMP JUMPDEST PUSH20 0x0 PUSH4 0xEA79DD79 PUSH1 0x18 SLOAD PUSH1 0xA PUSH1 0x0 CALLER PUSH20 0xFFFFFFFFFFFFFFFFFFFFFFFFFFFFFFFFFFFFFFFF AND PUSH20 0xFFFFFFFFFFFFFFFFFFFFFFFFFFFFFFFFFFFFFFFF AND DUP2 MSTORE PUSH1 0x20 ADD SWAP1 DUP2 MSTORE PUSH1 0x20 ADD PUSH1 0x0 KECCAK256 SLOAD PUSH1 0x40 MLOAD DUP4 PUSH4 0xFFFFFFFF AND PUSH1 0xE0 SHL DUP2 MSTORE PUSH1 0x4 ADD PUSH2 0xCE4 SWAP3 SWAP2 SWAP1 PUSH2 0x411D JUMP JUMPDEST PUSH1 0x20 PUSH1 0x40 MLOAD DUP1 DUP4 SUB DUP2 DUP7 GAS DELEGATECALL ISZERO DUP1 ISZERO PUSH2 0xD01 JUMPI RETURNDATASIZE PUSH1 0x0 DUP1 RETURNDATACOPY RETURNDATASIZE PUSH1 0x0 REVERT JUMPDEST POP POP POP POP PUSH1 0x40 MLOAD RETURNDATASIZE PUSH1 0x1F NOT PUSH1 0x1F DUP3 ADD AND DUP3 ADD DUP1 PUSH1 0x40 MSTORE POP DUP2 ADD SWAP1 PUSH2 0xD25 SWAP2 SWAP1 PUSH2 0x3A68 JUMP JUMPDEST POP JUMP JUMPDEST PUSH1 0x0 PUSH1 0x9 DUP3 DUP2 SLOAD DUP2 LT PUSH2 0xD3E JUMPI PUSH2 0xD3D PUSH2 0x3959 JUMP JUMPDEST JUMPDEST SWAP1 PUSH1 0x0 MSTORE PUSH1 0x20 PUSH1 0x0 KECCAK256 ADD PUSH1 0x0 SWAP1 SLOAD SWAP1 PUSH2 0x100 EXP SWAP1 DIV PUSH20 0xFFFFFFFFFFFFFFFFFFFFFFFFFFFFFFFFFFFFFFFF AND SWAP1 POP SWAP2 SWAP1 POP JUMP JUMPDEST PUSH1 0x1 PUSH1 0x0 SWAP1 SLOAD SWAP1 PUSH2 0x100 EXP SWAP1 DIV PUSH20 0xFFFFFFFFFFFFFFFFFFFFFFFFFFFFFFFFFFFFFFFF AND DUP2 JUMP JUMPDEST PUSH1 0x1 ISZERO ISZERO PUSH1 0x8 PUSH1 0x0 SWAP1 SLOAD SWAP1 PUSH2 0x100 EXP SWAP1 DIV PUSH1 0xFF AND ISZERO ISZERO EQ PUSH2 0xDEC JUMPI PUSH1 0x40 MLOAD PUSH32 0x8C379A000000000000000000000000000000000000000000000000000000000 DUP2 MSTORE PUSH1 0x4 ADD PUSH2 0xDE3 SWAP1 PUSH2 0x3AE1 JUMP JUMPDEST PUSH1 0x40 MLOAD DUP1 SWAP2 SUB SWAP1 REVERT JUMPDEST PUSH1 0x1 ISZERO ISZERO PUSH2 0xDF8 PUSH2 0x2A02 JUMP JUMPDEST ISZERO ISZERO EQ PUSH2 0xE3A JUMPI PUSH1 0x40 MLOAD PUSH32 0x8C379A000000000000000000000000000000000000000000000000000000000 DUP2 MSTORE PUSH1 0x4 ADD PUSH2 0xE31 SWAP1 PUSH2 0x3B73 JUMP JUMPDEST PUSH1 0x40 MLOAD DUP1 SWAP2 SUB SWAP1 REVERT JUMPDEST PUSH1 0x0 PUSH2 0xE46 DUP4 DUP4 PUSH2 0x2AAE JUMP JUMPDEST SWAP1 POP DUP1 PUSH1 0xA PUSH1 0x0 CALLER PUSH20 0xFFFFFFFFFFFFFFFFFFFFFFFFFFFFFFFFFFFFFFFF AND PUSH20 0xFFFFFFFFFFFFFFFFFFFFFFFFFFFFFFFFFFFFFFFF AND DUP2 MSTORE PUSH1 0x20 ADD SWAP1 DUP2 MSTORE PUSH1 0x20 ADD PUSH1 0x0 KECCAK256 SLOAD EQ PUSH2 0xEC9 JUMPI PUSH1 0x40 MLOAD PUSH32 0x8C379A000000000000000000000000000000000000000000000000000000000 DUP2 MSTORE PUSH1 0x4 ADD PUSH2 0xEC0 SWAP1 PUSH2 0x41CB JUMP JUMPDEST PUSH1 0x40 MLOAD DUP1 SWAP2 SUB SWAP1 REVERT JUMPDEST PUSH1 0x1 ISZERO ISZERO PUSH2 0xED6 DUP5 PUSH2 0x2B5B JUMP JUMPDEST ISZERO ISZERO EQ PUSH2 0xF18 JUMPI PUSH1 0x40 MLOAD PUSH32 0x8C379A000000000000000000000000000000000000000000000000000000000 DUP2 MSTORE PUSH1 0x4 ADD PUSH2 0xF0F SWAP1 PUSH2 0x4283 JUMP JUMPDEST PUSH1 0x40 MLOAD DUP1 SWAP2 SUB SWAP1 REVERT JUMPDEST PUSH2 0xF20 PUSH2 0x2BC5 JUMP JUMPDEST PUSH2 0xF2A DUP4 DUP4 PUSH2 0x2BD5 JUMP JUMPDEST PUSH1 0x0 PUSH1 0x40 MLOAD DUP1 PUSH1 0x60 ADD PUSH1 0x40 MSTORE DUP1 DUP6 DUP2 MSTORE PUSH1 0x20 ADD CALLER PUSH20 0xFFFFFFFFFFFFFFFFFFFFFFFFFFFFFFFFFFFFFFFF AND DUP2 MSTORE PUSH1 0x20 ADD DUP5 DUP2 MSTORE POP SWAP1 POP PUSH1 0xC DUP2 SWAP1 DUP1 PUSH1 0x1 DUP2 SLOAD ADD DUP1 DUP3 SSTORE DUP1 SWAP2 POP POP PUSH1 0x1 SWAP1 SUB SWAP1 PUSH1 0x0 MSTORE PUSH1 0x20 PUSH1 0x0 KECCAK256 SWAP1 PUSH1 0x3 MUL ADD PUSH1 0x0 SWAP1 SWAP2 SWAP1 SWAP2 SWAP1 SWAP2 POP PUSH1 0x0 DUP3 ADD MLOAD DUP2 PUSH1 0x0 ADD SSTORE PUSH1 0x20 DUP3 ADD MLOAD DUP2 PUSH1 0x1 ADD PUSH1 0x0 PUSH2 0x100 EXP DUP2 SLOAD DUP2 PUSH20 0xFFFFFFFFFFFFFFFFFFFFFFFFFFFFFFFFFFFFFFFF MUL NOT AND SWAP1 DUP4 PUSH20 0xFFFFFFFFFFFFFFFFFFFFFFFFFFFFFFFFFFFFFFFF AND MUL OR SWAP1 SSTORE POP PUSH1 0x40 DUP3 ADD MLOAD DUP2 PUSH1 0x2 ADD SWAP1 DUP2 PUSH2 0xFF1 SWAP2 SWAP1 PUSH2 0x3D95 JUMP JUMPDEST POP POP POP POP POP POP POP JUMP JUMPDEST PUSH2 0x106E PUSH1 0x40 MLOAD DUP1 PUSH1 0x40 ADD PUSH1 0x40 MSTORE DUP1 PUSH1 0x5 DUP2 MSTORE PUSH1 0x20 ADD PUSH32 0x7761746368000000000000000000000000000000000000000000000000000000 DUP2 MSTORE POP PUSH1 0x40 MLOAD DUP1 PUSH1 0x40 ADD PUSH1 0x40 MSTORE DUP1 PUSH1 0xB DUP2 MSTORE PUSH1 0x20 ADD PUSH32 0x6772656174207761746368000000000000000000000000000000000000000000 DUP2 MSTORE POP PUSH2 0x2006 JUMP JUMPDEST PUSH20 0x0 PUSH4 0x39DF137F PUSH1 0x2 PUSH1 0x40 MLOAD PUSH1 0x20 ADD PUSH2 0x1099 SWAP1 PUSH2 0x42FA JUMP JUMPDEST PUSH1 0x40 MLOAD PUSH1 0x20 DUP2 DUP4 SUB SUB DUP2 MSTORE SWAP1 PUSH1 0x40 MSTORE PUSH1 0x40 MLOAD PUSH2 0x10B5 SWAP2 SWAP1 PUSH2 0x4356 JUMP JUMPDEST PUSH1 0x20 PUSH1 0x40 MLOAD DUP1 DUP4 SUB DUP2 DUP6 GAS STATICCALL ISZERO DUP1 ISZERO PUSH2 0x10D2 JUMPI RETURNDATASIZE PUSH1 0x0 DUP1 RETURNDATACOPY RETURNDATASIZE PUSH1 0x0 REVERT JUMPDEST POP POP POP PUSH1 0x40 MLOAD RETURNDATASIZE PUSH1 0x1F NOT PUSH1 0x1F DUP3 ADD AND DUP3 ADD DUP1 PUSH1 0x40 MSTORE POP DUP2 ADD SWAP1 PUSH2 0x10F5 SWAP2 SWAP1 PUSH2 0x4382 JUMP JUMPDEST PUSH1 0x2 PUSH1 0x3 PUSH1 0x40 MLOAD PUSH1 0x20 ADD PUSH2 0x1109 SWAP2 SWAP1 PUSH2 0x4432 JUMP JUMPDEST PUSH1 0x40 MLOAD PUSH1 0x20 DUP2 DUP4 SUB SUB DUP2 MSTORE SWAP1 PUSH1 0x40 MSTORE PUSH1 0x40 MLOAD PUSH2 0x1125 SWAP2 SWAP1 PUSH2 0x4356 JUMP JUMPDEST PUSH1 0x20 PUSH1 0x40 MLOAD DUP1 DUP4 SUB DUP2 DUP6 GAS STATICCALL ISZERO DUP1 ISZERO PUSH2 0x1142 JUMPI RETURNDATASIZE PUSH1 0x0 DUP1 RETURNDATACOPY RETURNDATASIZE PUSH1 0x0 REVERT JUMPDEST POP POP POP PUSH1 0x40 MLOAD RETURNDATASIZE PUSH1 0x1F NOT PUSH1 0x1F DUP3 ADD AND DUP3 ADD DUP1 PUSH1 0x40 MSTORE POP DUP2 ADD SWAP1 PUSH2 0x1165 SWAP2 SWAP1 PUSH2 0x4382 JUMP JUMPDEST EQ PUSH1 0x40 MLOAD DUP3 PUSH4 0xFFFFFFFF AND PUSH1 0xE0 SHL DUP2 MSTORE PUSH1 0x4 ADD PUSH2 0x1182 SWAP2 SWAP1 PUSH2 0x44CA JUMP JUMPDEST PUSH1 0x20 PUSH1 0x40 MLOAD DUP1 DUP4 SUB DUP2 DUP7 GAS DELEGATECALL ISZERO DUP1 ISZERO PUSH2 0x119F JUMPI RETURNDATASIZE PUSH1 0x0 DUP1 RETURNDATACOPY RETURNDATASIZE PUSH1 0x0 REVERT JUMPDEST POP POP POP POP PUSH1 0x40 MLOAD RETURNDATASIZE PUSH1 0x1F NOT PUSH1 0x1F DUP3 ADD AND DUP3 ADD DUP1 PUSH1 0x40 MSTORE POP DUP2 ADD SWAP1 PUSH2 0x11C3 SWAP2 SWAP1 PUSH2 0x3A68 JUMP JUMPDEST POP PUSH20 0x0 PUSH4 0x39DF137F PUSH1 0x2 PUSH1 0x40 MLOAD PUSH1 0x20 ADD PUSH2 0x11EF SWAP1 PUSH2 0x4544 JUMP JUMPDEST PUSH1 0x40 MLOAD PUSH1 0x20 DUP2 DUP4 SUB SUB DUP2 MSTORE SWAP1 PUSH1 0x40 MSTORE PUSH1 0x40 MLOAD PUSH2 0x120B SWAP2 SWAP1 PUSH2 0x4356 JUMP JUMPDEST PUSH1 0x20 PUSH1 0x40 MLOAD DUP1 DUP4 SUB DUP2 DUP6 GAS STATICCALL ISZERO DUP1 ISZERO PUSH2 0x1228 JUMPI RETURNDATASIZE PUSH1 0x0 DUP1 RETURNDATACOPY RETURNDATASIZE PUSH1 0x0 REVERT JUMPDEST POP POP POP PUSH1 0x40 MLOAD RETURNDATASIZE PUSH1 0x1F NOT PUSH1 0x1F DUP3 ADD AND DUP3 ADD DUP1 PUSH1 0x40 MSTORE POP DUP2 ADD SWAP1 PUSH2 0x124B SWAP2 SWAP1 PUSH2 0x4382 JUMP JUMPDEST PUSH1 0x2 DUP1 PUSH1 0x40 MLOAD PUSH1 0x20 ADD PUSH2 0x125E SWAP2 SWAP1 PUSH2 0x4432 JUMP JUMPDEST PUSH1 0x40 MLOAD PUSH1 0x20 DUP2 DUP4 SUB SUB DUP2 MSTORE SWAP1 PUSH1 0x40 MSTORE PUSH1 0x40 MLOAD PUSH2 0x127A SWAP2 SWAP1 PUSH2 0x4356 JUMP JUMPDEST PUSH1 0x20 PUSH1 0x40 MLOAD DUP1 DUP4 SUB DUP2 DUP6 GAS STATICCALL ISZERO DUP1 ISZERO PUSH2 0x1297 JUMPI RETURNDATASIZE PUSH1 0x0 DUP1 RETURNDATACOPY RETURNDATASIZE PUSH1 0x0 REVERT JUMPDEST POP POP POP PUSH1 0x40 MLOAD RETURNDATASIZE PUSH1 0x1F NOT PUSH1 0x1F DUP3 ADD AND DUP3 ADD DUP1 PUSH1 0x40 MSTORE POP DUP2 ADD SWAP1 PUSH2 0x12BA SWAP2 SWAP1 PUSH2 0x4382 JUMP JUMPDEST EQ PUSH1 0x40 MLOAD DUP3 PUSH4 0xFFFFFFFF AND PUSH1 0xE0 SHL DUP2 MSTORE PUSH1 0x4 ADD PUSH2 0x12D7 SWAP2 SWAP1 PUSH2 0x45CB JUMP JUMPDEST PUSH1 0x20 PUSH1 0x40 MLOAD DUP1 DUP4 SUB DUP2 DUP7 GAS DELEGATECALL ISZERO DUP1 ISZERO PUSH2 0x12F4 JUMPI RETURNDATASIZE PUSH1 0x0 DUP1 RETURNDATACOPY RETURNDATASIZE PUSH1 0x0 REVERT JUMPDEST POP POP POP POP PUSH1 0x40 MLOAD RETURNDATASIZE PUSH1 0x1F NOT PUSH1 0x1F DUP3 ADD AND DUP3 ADD DUP1 PUSH1 0x40 MSTORE POP DUP2 ADD SWAP1 PUSH2 0x1318 SWAP2 SWAP1 PUSH2 0x3A68 JUMP JUMPDEST POP PUSH20 0x0 PUSH4 0xBFBA5DD6 PUSH20 0x0 PUSH4 0xCE88B145 PUSH1 0x1 PUSH1 0x40 MLOAD DUP3 PUSH4 0xFFFFFFFF AND PUSH1 0xE0 SHL DUP2 MSTORE PUSH1 0x4 ADD PUSH2 0x136B SWAP2 SWAP1 PUSH2 0x4634 JUMP JUMPDEST PUSH1 0x20 PUSH1 0x40 MLOAD DUP1 DUP4 SUB DUP2 DUP7 GAS DELEGATECALL ISZERO DUP1 ISZERO PUSH2 0x1388 JUMPI RETURNDATASIZE PUSH1 0x0 DUP1 RETURNDATACOPY RETURNDATASIZE PUSH1 0x0 REVERT JUMPDEST POP POP POP POP PUSH1 0x40 MLOAD RETURNDATASIZE PUSH1 0x1F NOT PUSH1 0x1F DUP3 ADD AND DUP3 ADD DUP1 PUSH1 0x40 MSTORE POP DUP2 ADD SWAP1 PUSH2 0x13AC SWAP2 SWAP1 PUSH2 0x392C JUMP JUMPDEST PUSH1 0x0 DUP1 SLOAD SWAP1 PUSH2 0x100 EXP SWAP1 DIV PUSH20 0xFFFFFFFFFFFFFFFFFFFFFFFFFFFFFFFFFFFFFFFF AND PUSH1 0x40 MLOAD DUP4 PUSH4 0xFFFFFFFF AND PUSH1 0xE0 SHL DUP2 MSTORE PUSH1 0x4 ADD PUSH2 0x13EA SWAP3 SWAP2 SWAP1 PUSH2 0x469B JUMP JUMPDEST PUSH1 0x20 PUSH1 0x40 MLOAD DUP1 DUP4 SUB DUP2 DUP7 GAS DELEGATECALL ISZERO DUP1 ISZERO PUSH2 0x1407 JUMPI RETURNDATASIZE PUSH1 0x0 DUP1 RETURNDATACOPY RETURNDATASIZE PUSH1 0x0 REVERT JUMPDEST POP POP POP POP PUSH1 0x40 MLOAD RETURNDATASIZE PUSH1 0x1F NOT PUSH1 0x1F DUP3 ADD AND DUP3 ADD DUP1 PUSH1 0x40 MSTORE POP DUP2 ADD SWAP1 PUSH2 0x142B SWAP2 SWAP1 PUSH2 0x3A68 JUMP JUMPDEST POP PUSH20 0x0 PUSH4 0x767392B3 PUSH1 0x8 PUSH1 0x0 SWAP1 SLOAD SWAP1 PUSH2 0x100 EXP SWAP1 DIV PUSH1 0xFF AND PUSH1 0x1 PUSH1 0x40 MLOAD DUP4 PUSH4 0xFFFFFFFF AND PUSH1 0xE0 SHL DUP2 MSTORE PUSH1 0x4 ADD PUSH2 0x1475 SWAP3 SWAP2 SWAP1 PUSH2 0x4723 JUMP JUMPDEST PUSH1 0x20 PUSH1 0x40 MLOAD DUP1 DUP4 SUB DUP2 DUP7 GAS DELEGATECALL ISZERO DUP1 ISZERO PUSH2 0x1492 JUMPI RETURNDATASIZE PUSH1 0x0 DUP1 RETURNDATACOPY RETURNDATASIZE PUSH1 0x0 REVERT JUMPDEST POP POP POP POP PUSH1 0x40 MLOAD RETURNDATASIZE PUSH1 0x1F NOT PUSH1 0x1F DUP3 ADD AND DUP3 ADD DUP1 PUSH1 0x40 MSTORE POP DUP2 ADD SWAP1 PUSH2 0x14B6 SWAP2 SWAP1 PUSH2 0x3A68 JUMP JUMPDEST POP JUMP JUMPDEST PUSH2 0x14C1 PUSH2 0x2875 JUMP JUMPDEST PUSH20 0x0 PUSH4 0xBFBA5DD6 PUSH20 0x0 PUSH4 0xCE88B145 PUSH1 0x4 PUSH1 0x40 MLOAD DUP3 PUSH4 0xFFFFFFFF AND PUSH1 0xE0 SHL DUP2 MSTORE PUSH1 0x4 ADD PUSH2 0x1513 SWAP2 SWAP1 PUSH2 0x479A JUMP JUMPDEST PUSH1 0x20 PUSH1 0x40 MLOAD DUP1 DUP4 SUB DUP2 DUP7 GAS DELEGATECALL ISZERO DUP1 ISZERO PUSH2 0x1530 JUMPI RETURNDATASIZE PUSH1 0x0 DUP1 RETURNDATACOPY RETURNDATASIZE PUSH1 0x0 REVERT JUMPDEST POP POP POP POP PUSH1 0x40 MLOAD RETURNDATASIZE PUSH1 0x1F NOT PUSH1 0x1F DUP3 ADD AND DUP3 ADD DUP1 PUSH1 0x40 MSTORE POP DUP2 ADD SWAP1 PUSH2 0x1554 SWAP2 SWAP1 PUSH2 0x392C JUMP JUMPDEST PUSH1 0x9 PUSH1 0x2 DUP2 SLOAD DUP2 LT PUSH2 0x1569 JUMPI PUSH2 0x1568 PUSH2 0x3959 JUMP JUMPDEST JUMPDEST SWAP1 PUSH1 0x0 MSTORE PUSH1 0x20 PUSH1 0x0 KECCAK256 ADD PUSH1 0x0 SWAP1 SLOAD SWAP1 PUSH2 0x100 EXP SWAP1 DIV PUSH20 0xFFFFFFFFFFFFFFFFFFFFFFFFFFFFFFFFFFFFFFFF AND PUSH1 0x40 MLOAD DUP4 PUSH4 0xFFFFFFFF AND PUSH1 0xE0 SHL DUP2 MSTORE PUSH1 0x4 ADD PUSH2 0x15B1 SWAP3 SWAP2 SWAP1 PUSH2 0x4801 JUMP JUMPDEST PUSH1 0x20 PUSH1 0x40 MLOAD DUP1 DUP4 SUB DUP2 DUP7 GAS DELEGATECALL ISZERO DUP1 ISZERO PUSH2 0x15CE JUMPI RETURNDATASIZE PUSH1 0x0 DUP1 RETURNDATACOPY RETURNDATASIZE PUSH1 0x0 REVERT JUMPDEST POP POP POP POP PUSH1 0x40 MLOAD RETURNDATASIZE PUSH1 0x1F NOT PUSH1 0x1F DUP3 ADD AND DUP3 ADD DUP1 PUSH1 0x40 MSTORE POP DUP2 ADD SWAP1 PUSH2 0x15F2 SWAP2 SWAP1 PUSH2 0x3A68 JUMP JUMPDEST POP JUMP JUMPDEST PUSH20 0x0 PUSH4 0xEA79DD79 PUSH2 0x16A5 PUSH1 0x12 SLOAD PUSH1 0x13 DUP1 SLOAD PUSH2 0x1622 SWAP1 PUSH2 0x3BC2 JUMP JUMPDEST DUP1 PUSH1 0x1F ADD PUSH1 0x20 DUP1 SWAP2 DIV MUL PUSH1 0x20 ADD PUSH1 0x40 MLOAD SWAP1 DUP2 ADD PUSH1 0x40 MSTORE DUP1 SWAP3 SWAP2 SWAP1 DUP2 DUP2 MSTORE PUSH1 0x20 ADD DUP3 DUP1 SLOAD PUSH2 0x164E SWAP1 PUSH2 0x3BC2 JUMP JUMPDEST DUP1 ISZERO PUSH2 0x169B JUMPI DUP1 PUSH1 0x1F LT PUSH2 0x1670 JUMPI PUSH2 0x100 DUP1 DUP4 SLOAD DIV MUL DUP4 MSTORE SWAP2 PUSH1 0x20 ADD SWAP2 PUSH2 0x169B JUMP JUMPDEST DUP3 ADD SWAP2 SWAP1 PUSH1 0x0 MSTORE PUSH1 0x20 PUSH1 0x0 KECCAK256 SWAP1 JUMPDEST DUP2 SLOAD DUP2 MSTORE SWAP1 PUSH1 0x1 ADD SWAP1 PUSH1 0x20 ADD DUP1 DUP4 GT PUSH2 0x167E JUMPI DUP3 SWAP1 SUB PUSH1 0x1F AND DUP3 ADD SWAP2 JUMPDEST POP POP POP POP POP PUSH2 0x2AAE JUMP JUMPDEST PUSH1 0x14 SLOAD PUSH1 0x40 MLOAD DUP4 PUSH4 0xFFFFFFFF AND PUSH1 0xE0 SHL DUP2 MSTORE PUSH1 0x4 ADD PUSH2 0x16C5 SWAP3 SWAP2 SWAP1 PUSH2 0x4889 JUMP JUMPDEST PUSH1 0x20 PUSH1 0x40 MLOAD DUP1 DUP4 SUB DUP2 DUP7 GAS DELEGATECALL ISZERO DUP1 ISZERO PUSH2 0x16E2 JUMPI RETURNDATASIZE PUSH1 0x0 DUP1 RETURNDATACOPY RETURNDATASIZE PUSH1 0x0 REVERT JUMPDEST POP POP POP POP PUSH1 0x40 MLOAD RETURNDATASIZE PUSH1 0x1F NOT PUSH1 0x1F DUP3 ADD AND DUP3 ADD DUP1 PUSH1 0x40 MSTORE POP DUP2 ADD SWAP1 PUSH2 0x1706 SWAP2 SWAP1 PUSH2 0x3A68 JUMP JUMPDEST POP PUSH2 0x1712 PUSH1 0x14 SLOAD PUSH2 0x278A JUMP JUMPDEST PUSH20 0x0 PUSH4 0xEA79DD79 PUSH1 0x14 SLOAD PUSH1 0xA PUSH1 0x0 CALLER PUSH20 0xFFFFFFFFFFFFFFFFFFFFFFFFFFFFFFFFFFFFFFFF AND PUSH20 0xFFFFFFFFFFFFFFFFFFFFFFFFFFFFFFFFFFFFFFFF AND DUP2 MSTORE PUSH1 0x20 ADD SWAP1 DUP2 MSTORE PUSH1 0x20 ADD PUSH1 0x0 KECCAK256 SLOAD PUSH1 0x40 MLOAD DUP4 PUSH4 0xFFFFFFFF AND PUSH1 0xE0 SHL DUP2 MSTORE PUSH1 0x4 ADD PUSH2 0x178C SWAP3 SWAP2 SWAP1 PUSH2 0x4937 JUMP JUMPDEST PUSH1 0x20 PUSH1 0x40 MLOAD DUP1 DUP4 SUB DUP2 DUP7 GAS DELEGATECALL ISZERO DUP1 ISZERO PUSH2 0x17A9 JUMPI RETURNDATASIZE PUSH1 0x0 DUP1 RETURNDATACOPY RETURNDATASIZE PUSH1 0x0 REVERT JUMPDEST POP POP POP POP PUSH1 0x40 MLOAD RETURNDATASIZE PUSH1 0x1F NOT PUSH1 0x1F DUP3 ADD AND DUP3 ADD DUP1 PUSH1 0x40 MSTORE POP DUP2 ADD SWAP1 PUSH2 0x17CD SWAP2 SWAP1 PUSH2 0x3A68 JUMP JUMPDEST POP JUMP JUMPDEST PUSH20 0x0 PUSH4 0xCE88B145 PUSH1 0x2 PUSH1 0x40 MLOAD DUP3 PUSH4 0xFFFFFFFF AND PUSH1 0xE0 SHL DUP2 MSTORE PUSH1 0x4 ADD PUSH2 0x1808 SWAP2 SWAP1 PUSH2 0x3EA2 JUMP JUMPDEST PUSH1 0x20 PUSH1 0x40 MLOAD DUP1 DUP4 SUB DUP2 DUP7 GAS DELEGATECALL ISZERO DUP1 ISZERO PUSH2 0x1825 JUMPI RETURNDATASIZE PUSH1 0x0 DUP1 RETURNDATACOPY RETURNDATASIZE PUSH1 0x0 REVERT JUMPDEST POP POP POP POP PUSH1 0x40 MLOAD RETURNDATASIZE PUSH1 0x1F NOT PUSH1 0x1F DUP3 ADD AND DUP3 ADD DUP1 PUSH1 0x40 MSTORE POP DUP2 ADD SWAP1 PUSH2 0x1849 SWAP2 SWAP1 PUSH2 0x392C JUMP JUMPDEST PUSH1 0xD PUSH1 0x0 PUSH2 0x100 EXP DUP2 SLOAD DUP2 PUSH20 0xFFFFFFFFFFFFFFFFFFFFFFFFFFFFFFFFFFFFFFFF MUL NOT AND SWAP1 DUP4 PUSH20 0xFFFFFFFFFFFFFFFFFFFFFFFFFFFFFFFFFFFFFFFF AND MUL OR SWAP1 SSTORE POP PUSH20 0x0 PUSH4 0xCE88B145 PUSH1 0x3 PUSH1 0x40 MLOAD DUP3 PUSH4 0xFFFFFFFF AND PUSH1 0xE0 SHL DUP2 MSTORE PUSH1 0x4 ADD PUSH2 0x18C1 SWAP2 SWAP1 PUSH2 0x38FC JUMP JUMPDEST PUSH1 0x20 PUSH1 0x40 MLOAD DUP1 DUP4 SUB DUP2 DUP7 GAS DELEGATECALL ISZERO DUP1 ISZERO PUSH2 0x18DE JUMPI RETURNDATASIZE PUSH1 0x0 DUP1 RETURNDATACOPY RETURNDATASIZE PUSH1 0x0 REVERT JUMPDEST POP POP POP POP PUSH1 0x40 MLOAD RETURNDATASIZE PUSH1 0x1F NOT PUSH1 0x1F DUP3 ADD AND DUP3 ADD DUP1 PUSH1 0x40 MSTORE POP DUP2 ADD SWAP1 PUSH2 0x1902 SWAP2 SWAP1 PUSH2 0x392C JUMP JUMPDEST PUSH1 0x11 PUSH1 0x0 PUSH2 0x100 EXP DUP2 SLOAD DUP2 PUSH20 0xFFFFFFFFFFFFFFFFFFFFFFFFFFFFFFFFFFFFFFFF MUL NOT AND SWAP1 DUP4 PUSH20 0xFFFFFFFFFFFFFFFFFFFFFFFFFFFFFFFFFFFFFFFF AND MUL OR SWAP1 SSTORE POP PUSH20 0x0 PUSH4 0xCE88B145 PUSH1 0x4 PUSH1 0x40 MLOAD DUP3 PUSH4 0xFFFFFFFF AND PUSH1 0xE0 SHL DUP2 MSTORE PUSH1 0x4 ADD PUSH2 0x197A SWAP2 SWAP1 PUSH2 0x479A JUMP JUMPDEST PUSH1 0x20 PUSH1 0x40 MLOAD DUP1 DUP4 SUB DUP2 DUP7 GAS DELEGATECALL ISZERO DUP1 ISZERO PUSH2 0x1997 JUMPI RETURNDATASIZE PUSH1 0x0 DUP1 RETURNDATACOPY RETURNDATASIZE PUSH1 0x0 REVERT JUMPDEST POP POP POP POP PUSH1 0x40 MLOAD RETURNDATASIZE PUSH1 0x1F NOT PUSH1 0x1F DUP3 ADD AND DUP3 ADD DUP1 PUSH1 0x40 MSTORE POP DUP2 ADD SWAP1 PUSH2 0x19BB SWAP2 SWAP1 PUSH2 0x392C JUMP JUMPDEST PUSH1 0x15 PUSH1 0x0 PUSH2 0x100 EXP DUP2 SLOAD DUP2 PUSH20 0xFFFFFFFFFFFFFFFFFFFFFFFFFFFFFFFFFFFFFFFF MUL NOT AND SWAP1 DUP4 PUSH20 0xFFFFFFFFFFFFFFFFFFFFFFFFFFFFFFFFFFFFFFFF AND MUL OR SWAP1 SSTORE POP PUSH1 0xB PUSH1 0xE DUP2 SWAP1 SSTORE POP PUSH1 0x40 MLOAD DUP1 PUSH1 0x40 ADD PUSH1 0x40 MSTORE DUP1 PUSH1 0x4 DUP2 MSTORE PUSH1 0x20 ADD PUSH32 0x6269643100000000000000000000000000000000000000000000000000000000 DUP2 MSTORE POP PUSH1 0xF SWAP1 DUP2 PUSH2 0x1A47 SWAP2 SWAP1 PUSH2 0x3D95 JUMP JUMPDEST POP PUSH32 0x5647B2FC56179A52D9885E3188A4624E65F45772D1DC4CE067B8380D04A39977 PUSH1 0x0 SHL PUSH1 0x10 DUP2 SWAP1 SSTORE POP PUSH1 0x16 PUSH1 0x12 DUP2 SWAP1 SSTORE POP PUSH1 0x40 MLOAD DUP1 PUSH1 0x40 ADD PUSH1 0x40 MSTORE DUP1 PUSH1 0x4 DUP2 MSTORE PUSH1 0x20 ADD PUSH32 0x6269643200000000000000000000000000000000000000000000000000000000 DUP2 MSTORE POP PUSH1 0x13 SWAP1 DUP2 PUSH2 0x1ABE SWAP2 SWAP1 PUSH2 0x3D95 JUMP JUMPDEST POP PUSH32 0x50C3208089B13DBBF91F80DB31299CF2B996A7D2E671B5F49C6D513A89F63DF1 PUSH1 0x0 SHL PUSH1 0x14 DUP2 SWAP1 SSTORE POP PUSH1 0x21 PUSH1 0x16 DUP2 SWAP1 SSTORE POP PUSH1 0x40 MLOAD DUP1 PUSH1 0x40 ADD PUSH1 0x40 MSTORE DUP1 PUSH1 0x4 DUP2 MSTORE PUSH1 0x20 ADD PUSH32 0x6269643300000000000000000000000000000000000000000000000000000000 DUP2 MSTORE POP PUSH1 0x17 SWAP1 DUP2 PUSH2 0x1B35 SWAP2 SWAP1 PUSH2 0x3D95 JUMP JUMPDEST POP PUSH32 0xCEC60B8BF0259B4EBD98F5B55FD70F78622E0623B1FFF9F4E88C4CEDCDBC0F5F PUSH1 0x0 SHL PUSH1 0x18 DUP2 SWAP1 SSTORE POP JUMP JUMPDEST PUSH2 0x1BF8 PUSH1 0x16 SLOAD PUSH1 0x17 DUP1 SLOAD PUSH2 0x1B75 SWAP1 PUSH2 0x3BC2 JUMP JUMPDEST DUP1 PUSH1 0x1F ADD PUSH1 0x20 DUP1 SWAP2 DIV MUL PUSH1 0x20 ADD PUSH1 0x40 MLOAD SWAP1 DUP2 ADD PUSH1 0x40 MSTORE DUP1 SWAP3 SWAP2 SWAP1 DUP2 DUP2 MSTORE PUSH1 0x20 ADD DUP3 DUP1 SLOAD PUSH2 0x1BA1 SWAP1 PUSH2 0x3BC2 JUMP JUMPDEST DUP1 ISZERO PUSH2 0x1BEE JUMPI DUP1 PUSH1 0x1F LT PUSH2 0x1BC3 JUMPI PUSH2 0x100 DUP1 DUP4 SLOAD DIV MUL DUP4 MSTORE SWAP2 PUSH1 0x20 ADD SWAP2 PUSH2 0x1BEE JUMP JUMPDEST DUP3 ADD SWAP2 SWAP1 PUSH1 0x0 MSTORE PUSH1 0x20 PUSH1 0x0 KECCAK256 SWAP1 JUMPDEST DUP2 SLOAD DUP2 MSTORE SWAP1 PUSH1 0x1 ADD SWAP1 PUSH1 0x20 ADD DUP1 DUP4 GT PUSH2 0x1BD1 JUMPI DUP3 SWAP1 SUB PUSH1 0x1F AND DUP3 ADD SWAP2 JUMPDEST POP POP POP POP POP PUSH2 0xD96 JUMP JUMPDEST PUSH20 0x0 PUSH4 0xBFBA5DD6 CALLER PUSH1 0xB PUSH1 0x0 DUP2 SLOAD DUP2 LT PUSH2 0x1C28 JUMPI PUSH2 0x1C27 PUSH2 0x3959 JUMP JUMPDEST JUMPDEST SWAP1 PUSH1 0x0 MSTORE PUSH1 0x20 PUSH1 0x0 KECCAK256 SWAP1 PUSH1 0x3 MUL ADD PUSH1 0x0 ADD PUSH1 0x0 SWAP1 SLOAD SWAP1 PUSH2 0x100 EXP SWAP1 DIV PUSH20 0xFFFFFFFFFFFFFFFFFFFFFFFFFFFFFFFFFFFFFFFF AND PUSH1 0x40 MLOAD DUP4 PUSH4 0xFFFFFFFF AND PUSH1 0xE0 SHL DUP2 MSTORE PUSH1 0x4 ADD PUSH2 0x1C77 SWAP3 SWAP2 SWAP1 PUSH2 0x49BF JUMP JUMPDEST PUSH1 0x20 PUSH1 0x40 MLOAD DUP1 DUP4 SUB DUP2 DUP7 GAS DELEGATECALL ISZERO DUP1 ISZERO PUSH2 0x1C94 JUMPI RETURNDATASIZE PUSH1 0x0 DUP1 RETURNDATACOPY RETURNDATASIZE PUSH1 0x0 REVERT JUMPDEST POP POP POP POP PUSH1 0x40 MLOAD RETURNDATASIZE PUSH1 0x1F NOT PUSH1 0x1F DUP3 ADD AND DUP3 ADD DUP1 PUSH1 0x40 MSTORE POP DUP2 ADD SWAP1 PUSH2 0x1CB8 SWAP2 SWAP1 PUSH2 0x3A68 JUMP JUMPDEST POP JUMP JUMPDEST PUSH1 0xC DUP2 DUP2 SLOAD DUP2 LT PUSH2 0x1CCB JUMPI PUSH1 0x0 DUP1 REVERT JUMPDEST SWAP1 PUSH1 0x0 MSTORE PUSH1 0x20 PUSH1 0x0 KECCAK256 SWAP1 PUSH1 0x3 MUL ADD PUSH1 0x0 SWAP2 POP SWAP1 POP DUP1 PUSH1 0x0 ADD SLOAD SWAP1 DUP1 PUSH1 0x1 ADD PUSH1 0x0 SWAP1 SLOAD SWAP1 PUSH2 0x100 EXP SWAP1 DIV PUSH20 0xFFFFFFFFFFFFFFFFFFFFFFFFFFFFFFFFFFFFFFFF AND SWAP1 DUP1 PUSH1 0x2 ADD DUP1 SLOAD PUSH2 0x1D1A SWAP1 PUSH2 0x3BC2 JUMP JUMPDEST DUP1 PUSH1 0x1F ADD PUSH1 0x20 DUP1 SWAP2 DIV MUL PUSH1 0x20 ADD PUSH1 0x40 MLOAD SWAP1 DUP2 ADD PUSH1 0x40 MSTORE DUP1 SWAP3 SWAP2 SWAP1 DUP2 DUP2 MSTORE PUSH1 0x20 ADD DUP3 DUP1 SLOAD PUSH2 0x1D46 SWAP1 PUSH2 0x3BC2 JUMP JUMPDEST DUP1 ISZERO PUSH2 0x1D93 JUMPI DUP1 PUSH1 0x1F LT PUSH2 0x1D68 JUMPI PUSH2 0x100 DUP1 DUP4 SLOAD DIV MUL DUP4 MSTORE SWAP2 PUSH1 0x20 ADD SWAP2 PUSH2 0x1D93 JUMP JUMPDEST DUP3 ADD SWAP2 SWAP1 PUSH1 0x0 MSTORE PUSH1 0x20 PUSH1 0x0 KECCAK256 SWAP1 JUMPDEST DUP2 SLOAD DUP2 MSTORE SWAP1 PUSH1 0x1 ADD SWAP1 PUSH1 0x20 ADD DUP1 DUP4 GT PUSH2 0x1D76 JUMPI DUP3 SWAP1 SUB PUSH1 0x1F AND DUP3 ADD SWAP2 JUMPDEST POP POP POP POP POP SWAP1 POP DUP4 JUMP JUMPDEST PUSH1 0x2 DUP1 SLOAD PUSH2 0x1DAA SWAP1 PUSH2 0x3BC2 JUMP JUMPDEST DUP1 PUSH1 0x1F ADD PUSH1 0x20 DUP1 SWAP2 DIV MUL PUSH1 0x20 ADD PUSH1 0x40 MLOAD SWAP1 DUP2 ADD PUSH1 0x40 MSTORE DUP1 SWAP3 SWAP2 SWAP1 DUP2 DUP2 MSTORE PUSH1 0x20 ADD DUP3 DUP1 SLOAD PUSH2 0x1DD6 SWAP1 PUSH2 0x3BC2 JUMP JUMPDEST DUP1 ISZERO PUSH2 0x1E23 JUMPI DUP1 PUSH1 0x1F LT PUSH2 0x1DF8 JUMPI PUSH2 0x100 DUP1 DUP4 SLOAD DIV MUL DUP4 MSTORE SWAP2 PUSH1 0x20 ADD SWAP2 PUSH2 0x1E23 JUMP JUMPDEST DUP3 ADD SWAP2 SWAP1 PUSH1 0x0 MSTORE PUSH1 0x20 PUSH1 0x0 KECCAK256 SWAP1 JUMPDEST DUP2 SLOAD DUP2 MSTORE SWAP1 PUSH1 0x1 ADD SWAP1 PUSH1 0x20 ADD DUP1 DUP4 GT PUSH2 0x1E06 JUMPI DUP3 SWAP1 SUB PUSH1 0x1F AND DUP3 ADD SWAP2 JUMPDEST POP POP POP POP POP DUP2 JUMP JUMPDEST PUSH20 0x0 PUSH4 0xEA79DD79 PUSH2 0x1EDB PUSH1 0xE SLOAD PUSH1 0xF DUP1 SLOAD PUSH2 0x1E58 SWAP1 PUSH2 0x3BC2 JUMP JUMPDEST DUP1 PUSH1 0x1F ADD PUSH1 0x20 DUP1 SWAP2 DIV MUL PUSH1 0x20 ADD PUSH1 0x40 MLOAD SWAP1 DUP2 ADD PUSH1 0x40 MSTORE DUP1 SWAP3 SWAP2 SWAP1 DUP2 DUP2 MSTORE PUSH1 0x20 ADD DUP3 DUP1 SLOAD PUSH2 0x1E84 SWAP1 PUSH2 0x3BC2 JUMP JUMPDEST DUP1 ISZERO PUSH2 0x1ED1 JUMPI DUP1 PUSH1 0x1F LT PUSH2 0x1EA6 JUMPI PUSH2 0x100 DUP1 DUP4 SLOAD DIV MUL DUP4 MSTORE SWAP2 PUSH1 0x20 ADD SWAP2 PUSH2 0x1ED1 JUMP JUMPDEST DUP3 ADD SWAP2 SWAP1 PUSH1 0x0 MSTORE PUSH1 0x20 PUSH1 0x0 KECCAK256 SWAP1 JUMPDEST DUP2 SLOAD DUP2 MSTORE SWAP1 PUSH1 0x1 ADD SWAP1 PUSH1 0x20 ADD DUP1 DUP4 GT PUSH2 0x1EB4 JUMPI DUP3 SWAP1 SUB PUSH1 0x1F AND DUP3 ADD SWAP2 JUMPDEST POP POP POP POP POP PUSH2 0x2AAE JUMP JUMPDEST PUSH1 0x10 SLOAD PUSH1 0x40 MLOAD DUP4 PUSH4 0xFFFFFFFF AND PUSH1 0xE0 SHL DUP2 MSTORE PUSH1 0x4 ADD PUSH2 0x1EFB SWAP3 SWAP2 SWAP1 PUSH2 0x4A47 JUMP JUMPDEST PUSH1 0x20 PUSH1 0x40 MLOAD DUP1 DUP4 SUB DUP2 DUP7 GAS DELEGATECALL ISZERO DUP1 ISZERO PUSH2 0x1F18 JUMPI RETURNDATASIZE PUSH1 0x0 DUP1 RETURNDATACOPY RETURNDATASIZE PUSH1 0x0 REVERT JUMPDEST POP POP POP POP PUSH1 0x40 MLOAD RETURNDATASIZE PUSH1 0x1F NOT PUSH1 0x1F DUP3 ADD AND DUP3 ADD DUP1 PUSH1 0x40 MSTORE POP DUP2 ADD SWAP1 PUSH2 0x1F3C SWAP2 SWAP1 PUSH2 0x3A68 JUMP JUMPDEST POP PUSH2 0x1F48 PUSH1 0x10 SLOAD PUSH2 0x278A JUMP JUMPDEST PUSH20 0x0 PUSH4 0xEA79DD79 PUSH1 0x10 SLOAD PUSH1 0xA PUSH1 0x0 CALLER PUSH20 0xFFFFFFFFFFFFFFFFFFFFFFFFFFFFFFFFFFFFFFFF AND PUSH20 0xFFFFFFFFFFFFFFFFFFFFFFFFFFFFFFFFFFFFFFFF AND DUP2 MSTORE PUSH1 0x20 ADD SWAP1 DUP2 MSTORE PUSH1 0x20 ADD PUSH1 0x0 KECCAK256 SLOAD PUSH1 0x40 MLOAD DUP4 PUSH4 0xFFFFFFFF AND PUSH1 0xE0 SHL DUP2 MSTORE PUSH1 0x4 ADD PUSH2 0x1FC2 SWAP3 SWAP2 SWAP1 PUSH2 0x4AF5 JUMP JUMPDEST PUSH1 0x20 PUSH1 0x40 MLOAD DUP1 DUP4 SUB DUP2 DUP7 GAS DELEGATECALL ISZERO DUP1 ISZERO PUSH2 0x1FDF JUMPI RETURNDATASIZE PUSH1 0x0 DUP1 RETURNDATACOPY RETURNDATASIZE PUSH1 0x0 REVERT JUMPDEST POP POP POP POP PUSH1 0x40 MLOAD RETURNDATASIZE PUSH1 0x1F NOT PUSH1 0x1F DUP3 ADD AND DUP3 ADD DUP1 PUSH1 0x40 MSTORE POP DUP2 ADD SWAP1 PUSH2 0x2003 SWAP2 SWAP1 PUSH2 0x3A68 JUMP JUMPDEST POP JUMP JUMPDEST CALLER PUSH1 0x0 DUP1 PUSH2 0x100 EXP DUP2 SLOAD DUP2 PUSH20 0xFFFFFFFFFFFFFFFFFFFFFFFFFFFFFFFFFFFFFFFF MUL NOT AND SWAP1 DUP4 PUSH20 0xFFFFFFFFFFFFFFFFFFFFFFFFFFFFFFFFFFFFFFFF AND MUL OR SWAP1 SSTORE POP DUP2 PUSH1 0x3 SWAP1 DUP2 PUSH2 0x2055 SWAP2 SWAP1 PUSH2 0x3D95 JUMP JUMPDEST POP DUP1 PUSH1 0x2 SWAP1 DUP2 PUSH2 0x2065 SWAP2 SWAP1 PUSH2 0x3D95 JUMP JUMPDEST POP PUSH2 0x206E PUSH2 0x2CA4 JUMP JUMPDEST PUSH1 0x1 PUSH1 0x8 PUSH1 0x0 PUSH2 0x100 EXP DUP2 SLOAD DUP2 PUSH1 0xFF MUL NOT AND SWAP1 DUP4 ISZERO ISZERO MUL OR SWAP1 SSTORE POP POP POP JUMP JUMPDEST PUSH1 0xB DUP2 DUP2 SLOAD DUP2 LT PUSH2 0x209D JUMPI PUSH1 0x0 DUP1 REVERT JUMPDEST SWAP1 PUSH1 0x0 MSTORE PUSH1 0x20 PUSH1 0x0 KECCAK256 SWAP1 PUSH1 0x3 MUL ADD PUSH1 0x0 SWAP2 POP SWAP1 POP DUP1 PUSH1 0x0 ADD PUSH1 0x0 SWAP1 SLOAD SWAP1 PUSH2 0x100 EXP SWAP1 DIV PUSH20 0xFFFFFFFFFFFFFFFFFFFFFFFFFFFFFFFFFFFFFFFF AND SWAP1 DUP1 PUSH1 0x1 ADD SLOAD SWAP1 DUP1 PUSH1 0x2 ADD DUP1 SLOAD PUSH2 0x20EC SWAP1 PUSH2 0x3BC2 JUMP JUMPDEST DUP1 PUSH1 0x1F ADD PUSH1 0x20 DUP1 SWAP2 DIV MUL PUSH1 0x20 ADD PUSH1 0x40 MLOAD SWAP1 DUP2 ADD PUSH1 0x40 MSTORE DUP1 SWAP3 SWAP2 SWAP1 DUP2 DUP2 MSTORE PUSH1 0x20 ADD DUP3 DUP1 SLOAD PUSH2 0x2118 SWAP1 PUSH2 0x3BC2 JUMP JUMPDEST DUP1 ISZERO PUSH2 0x2165 JUMPI DUP1 PUSH1 0x1F LT PUSH2 0x213A JUMPI PUSH2 0x100 DUP1 DUP4 SLOAD DIV MUL DUP4 MSTORE SWAP2 PUSH1 0x20 ADD SWAP2 PUSH2 0x2165 JUMP JUMPDEST DUP3 ADD SWAP2 SWAP1 PUSH1 0x0 MSTORE PUSH1 0x20 PUSH1 0x0 KECCAK256 SWAP1 JUMPDEST DUP2 SLOAD DUP2 MSTORE SWAP1 PUSH1 0x1 ADD SWAP1 PUSH1 0x20 ADD DUP1 DUP4 GT PUSH2 0x2148 JUMPI DUP3 SWAP1 SUB PUSH1 0x1F AND DUP3 ADD SWAP2 JUMPDEST POP POP POP POP POP SWAP1 POP DUP4 JUMP JUMPDEST PUSH1 0x3 DUP1 SLOAD PUSH2 0x217C SWAP1 PUSH2 0x3BC2 JUMP JUMPDEST DUP1 PUSH1 0x1F ADD PUSH1 0x20 DUP1 SWAP2 DIV MUL PUSH1 0x20 ADD PUSH1 0x40 MLOAD SWAP1 DUP2 ADD PUSH1 0x40 MSTORE DUP1 SWAP3 SWAP2 SWAP1 DUP2 DUP2 MSTORE PUSH1 0x20 ADD DUP3 DUP1 SLOAD PUSH2 0x21A8 SWAP1 PUSH2 0x3BC2 JUMP JUMPDEST DUP1 ISZERO PUSH2 0x21F5 JUMPI DUP1 PUSH1 0x1F LT PUSH2 0x21CA JUMPI PUSH2 0x100 DUP1 DUP4 SLOAD DIV MUL DUP4 MSTORE SWAP2 PUSH1 0x20 ADD SWAP2 PUSH2 0x21F5 JUMP JUMPDEST DUP3 ADD SWAP2 SWAP1 PUSH1 0x0 MSTORE PUSH1 0x20 PUSH1 0x0 KECCAK256 SWAP1 JUMPDEST DUP2 SLOAD DUP2 MSTORE SWAP1 PUSH1 0x1 ADD SWAP1 PUSH1 0x20 ADD DUP1 DUP4 GT PUSH2 0x21D8 JUMPI DUP3 SWAP1 SUB PUSH1 0x1F AND DUP3 ADD SWAP2 JUMPDEST POP POP POP POP POP DUP2 JUMP JUMPDEST PUSH1 0x9 DUP2 DUP2 SLOAD DUP2 LT PUSH2 0x220D JUMPI PUSH1 0x0 DUP1 REVERT JUMPDEST SWAP1 PUSH1 0x0 MSTORE PUSH1 0x20 PUSH1 0x0 KECCAK256 ADD PUSH1 0x0 SWAP2 POP SLOAD SWAP1 PUSH2 0x100 EXP SWAP1 DIV PUSH20 0xFFFFFFFFFFFFFFFFFFFFFFFFFFFFFFFFFFFFFFFF AND DUP2 JUMP JUMPDEST PUSH2 0x22D2 PUSH1 0x12 SLOAD PUSH1 0x13 DUP1 SLOAD PUSH2 0x224F SWAP1 PUSH2 0x3BC2 JUMP JUMPDEST DUP1 PUSH1 0x1F ADD PUSH1 0x20 DUP1 SWAP2 DIV MUL PUSH1 0x20 ADD PUSH1 0x40 MLOAD SWAP1 DUP2 ADD PUSH1 0x40 MSTORE DUP1 SWAP3 SWAP2 SWAP1 DUP2 DUP2 MSTORE PUSH1 0x20 ADD DUP3 DUP1 SLOAD PUSH2 0x227B SWAP1 PUSH2 0x3BC2 JUMP JUMPDEST DUP1 ISZERO PUSH2 0x22C8 JUMPI DUP1 PUSH1 0x1F LT PUSH2 0x229D JUMPI PUSH2 0x100 DUP1 DUP4 SLOAD DIV MUL DUP4 MSTORE SWAP2 PUSH1 0x20 ADD SWAP2 PUSH2 0x22C8 JUMP JUMPDEST DUP3 ADD SWAP2 SWAP1 PUSH1 0x0 MSTORE PUSH1 0x20 PUSH1 0x0 KECCAK256 SWAP1 JUMPDEST DUP2 SLOAD DUP2 MSTORE SWAP1 PUSH1 0x1 ADD SWAP1 PUSH1 0x20 ADD DUP1 DUP4 GT PUSH2 0x22AB JUMPI DUP3 SWAP1 SUB PUSH1 0x1F AND DUP3 ADD SWAP2 JUMPDEST POP POP POP POP POP PUSH2 0x5ED JUMP JUMPDEST PUSH20 0x0 PUSH4 0xBFBA5DD6 CALLER PUSH1 0xB PUSH1 0x0 DUP2 SLOAD DUP2 LT PUSH2 0x2302 JUMPI PUSH2 0x2301 PUSH2 0x3959 JUMP JUMPDEST JUMPDEST SWAP1 PUSH1 0x0 MSTORE PUSH1 0x20 PUSH1 0x0 KECCAK256 SWAP1 PUSH1 0x3 MUL ADD PUSH1 0x0 ADD PUSH1 0x0 SWAP1 SLOAD SWAP1 PUSH2 0x100 EXP SWAP1 DIV PUSH20 0xFFFFFFFFFFFFFFFFFFFFFFFFFFFFFFFFFFFFFFFF AND PUSH1 0x40 MLOAD DUP4 PUSH4 0xFFFFFFFF AND PUSH1 0xE0 SHL DUP2 MSTORE PUSH1 0x4 ADD PUSH2 0x2351 SWAP3 SWAP2 SWAP1 PUSH2 0x4BA3 JUMP JUMPDEST PUSH1 0x20 PUSH1 0x40 MLOAD DUP1 DUP4 SUB DUP2 DUP7 GAS DELEGATECALL ISZERO DUP1 ISZERO PUSH2 0x236E JUMPI RETURNDATASIZE PUSH1 0x0 DUP1 RETURNDATACOPY RETURNDATASIZE PUSH1 0x0 REVERT JUMPDEST POP POP POP POP PUSH1 0x40 MLOAD RETURNDATASIZE PUSH1 0x1F NOT PUSH1 0x1F DUP3 ADD AND DUP3 ADD DUP1 PUSH1 0x40 MSTORE POP DUP2 ADD SWAP1 PUSH2 0x2392 SWAP2 SWAP1 PUSH2 0x3A68 JUMP JUMPDEST POP JUMP JUMPDEST PUSH1 0x6 SLOAD TIMESTAMP GT PUSH2 0x23D9 JUMPI PUSH1 0x40 MLOAD PUSH32 0x8C379A000000000000000000000000000000000000000000000000000000000 DUP2 MSTORE PUSH1 0x4 ADD PUSH2 0x23D0 SWAP1 PUSH2 0x3F91 JUMP JUMPDEST PUSH1 0x40 MLOAD DUP1 SWAP2 SUB SWAP1 REVERT JUMPDEST PUSH1 0xB PUSH1 0x0 PUSH2 0x23E7 SWAP2 SWAP1 PUSH2 0x2F3F JUMP JUMPDEST PUSH1 0x40 MLOAD DUP1 PUSH1 0x20 ADD PUSH1 0x40 MSTORE DUP1 PUSH1 0x0 DUP2 MSTORE POP PUSH1 0x2 SWAP1 DUP2 PUSH2 0x2405 SWAP2 SWAP1 PUSH2 0x3D95 JUMP JUMPDEST POP PUSH1 0x40 MLOAD DUP1 PUSH1 0x20 ADD PUSH1 0x40 MSTORE DUP1 PUSH1 0x0 DUP2 MSTORE POP PUSH1 0x3 SWAP1 DUP2 PUSH2 0x2424 SWAP2 SWAP1 PUSH2 0x3D95 JUMP JUMPDEST POP PUSH2 0x242D PUSH2 0xA5B JUMP JUMPDEST PUSH1 0x9 PUSH1 0x0 PUSH2 0x243B SWAP2 SWAP1 PUSH2 0x2F63 JUMP JUMPDEST PUSH1 0xC PUSH1 0x0 PUSH2 0x2449 SWAP2 SWAP1 PUSH2 0x2F84 JUMP JUMPDEST PUSH1 0x0 PUSH1 0x8 PUSH1 0x0 PUSH2 0x100 EXP DUP2 SLOAD DUP2 PUSH1 0xFF MUL NOT AND SWAP1 DUP4 ISZERO ISZERO MUL OR SWAP1 SSTORE POP JUMP JUMPDEST PUSH1 0x60 DUP1 PUSH1 0x1 ISZERO ISZERO PUSH1 0x8 PUSH1 0x0 SWAP1 SLOAD SWAP1 PUSH2 0x100 EXP SWAP1 DIV PUSH1 0xFF AND ISZERO ISZERO EQ PUSH2 0x24BF JUMPI PUSH1 0x40 MLOAD PUSH32 0x8C379A000000000000000000000000000000000000000000000000000000000 DUP2 MSTORE PUSH1 0x4 ADD PUSH2 0x24B6 SWAP1 PUSH2 0x3AE1 JUMP JUMPDEST PUSH1 0x40 MLOAD DUP1 SWAP2 SUB SWAP1 REVERT JUMPDEST PUSH1 0x3 PUSH1 0x2 DUP2 DUP1 SLOAD PUSH2 0x24CF SWAP1 PUSH2 0x3BC2 JUMP JUMPDEST DUP1 PUSH1 0x1F ADD PUSH1 0x20 DUP1 SWAP2 DIV MUL PUSH1 0x20 ADD PUSH1 0x40 MLOAD SWAP1 DUP2 ADD PUSH1 0x40 MSTORE DUP1 SWAP3 SWAP2 SWAP1 DUP2 DUP2 MSTORE PUSH1 0x20 ADD DUP3 DUP1 SLOAD PUSH2 0x24FB SWAP1 PUSH2 0x3BC2 JUMP JUMPDEST DUP1 ISZERO PUSH2 0x2548 JUMPI DUP1 PUSH1 0x1F LT PUSH2 0x251D JUMPI PUSH2 0x100 DUP1 DUP4 SLOAD DIV MUL DUP4 MSTORE SWAP2 PUSH1 0x20 ADD SWAP2 PUSH2 0x2548 JUMP JUMPDEST DUP3 ADD SWAP2 SWAP1 PUSH1 0x0 MSTORE PUSH1 0x20 PUSH1 0x0 KECCAK256 SWAP1 JUMPDEST DUP2 SLOAD DUP2 MSTORE SWAP1 PUSH1 0x1 ADD SWAP1 PUSH1 0x20 ADD DUP1 DUP4 GT PUSH2 0x252B JUMPI DUP3 SWAP1 SUB PUSH1 0x1F AND DUP3 ADD SWAP2 JUMPDEST POP POP POP POP POP SWAP2 POP DUP1 DUP1 SLOAD PUSH2 0x255B SWAP1 PUSH2 0x3BC2 JUMP JUMPDEST DUP1 PUSH1 0x1F ADD PUSH1 0x20 DUP1 SWAP2 DIV MUL PUSH1 0x20 ADD PUSH1 0x40 MLOAD SWAP1 DUP2 ADD PUSH1 0x40 MSTORE DUP1 SWAP3 SWAP2 SWAP1 DUP2 DUP2 MSTORE PUSH1 0x20 ADD DUP3 DUP1 SLOAD PUSH2 0x2587 SWAP1 PUSH2 0x3BC2 JUMP JUMPDEST DUP1 ISZERO PUSH2 0x25D4 JUMPI DUP1 PUSH1 0x1F LT PUSH2 0x25A9 JUMPI PUSH2 0x100 DUP1 DUP4 SLOAD DIV MUL DUP4 MSTORE SWAP2 PUSH1 0x20 ADD SWAP2 PUSH2 0x25D4 JUMP JUMPDEST DUP3 ADD SWAP2 SWAP1 PUSH1 0x0 MSTORE PUSH1 0x20 PUSH1 0x0 KECCAK256 SWAP1 JUMPDEST DUP2 SLOAD DUP2 MSTORE SWAP1 PUSH1 0x1 ADD SWAP1 PUSH1 0x20 ADD DUP1 DUP4 GT PUSH2 0x25B7 JUMPI DUP3 SWAP1 SUB PUSH1 0x1F AND DUP3 ADD SWAP2 JUMPDEST POP POP POP POP POP SWAP1 POP SWAP2 POP SWAP2 POP SWAP1 SWAP2 JUMP JUMPDEST PUSH1 0x60 PUSH1 0x1 ISZERO ISZERO PUSH1 0x8 PUSH1 0x0 SWAP1 SLOAD SWAP1 PUSH2 0x100 EXP SWAP1 DIV PUSH1 0xFF AND ISZERO ISZERO EQ PUSH2 0x263B JUMPI PUSH1 0x40 MLOAD PUSH32 0x8C379A000000000000000000000000000000000000000000000000000000000 DUP2 MSTORE PUSH1 0x4 ADD PUSH2 0x2632 SWAP1 PUSH2 0x3AE1 JUMP JUMPDEST PUSH1 0x40 MLOAD DUP1 SWAP2 SUB SWAP1 REVERT JUMPDEST PUSH1 0xB DUP1 SLOAD DUP1 PUSH1 0x20 MUL PUSH1 0x20 ADD PUSH1 0x40 MLOAD SWAP1 DUP2 ADD PUSH1 0x40 MSTORE DUP1 SWAP3 SWAP2 SWAP1 DUP2 DUP2 MSTORE PUSH1 0x20 ADD PUSH1 0x0 SWAP1 JUMPDEST DUP3 DUP3 LT ISZERO PUSH2 0x2781 JUMPI DUP4 DUP3 SWAP1 PUSH1 0x0 MSTORE PUSH1 0x20 PUSH1 0x0 KECCAK256 SWAP1 PUSH1 0x3 MUL ADD PUSH1 0x40 MLOAD DUP1 PUSH1 0x60 ADD PUSH1 0x40 MSTORE SWAP1 DUP2 PUSH1 0x0 DUP3 ADD PUSH1 0x0 SWAP1 SLOAD SWAP1 PUSH2 0x100 EXP SWAP1 DIV PUSH20 0xFFFFFFFFFFFFFFFFFFFFFFFFFFFFFFFFFFFFFFFF AND PUSH20 0xFFFFFFFFFFFFFFFFFFFFFFFFFFFFFFFFFFFFFFFF AND PUSH20 0xFFFFFFFFFFFFFFFFFFFFFFFFFFFFFFFFFFFFFFFF AND DUP2 MSTORE PUSH1 0x20 ADD PUSH1 0x1 DUP3 ADD SLOAD DUP2 MSTORE PUSH1 0x20 ADD PUSH1 0x2 DUP3 ADD DUP1 SLOAD PUSH2 0x26F0 SWAP1 PUSH2 0x3BC2 JUMP JUMPDEST DUP1 PUSH1 0x1F ADD PUSH1 0x20 DUP1 SWAP2 DIV MUL PUSH1 0x20 ADD PUSH1 0x40 MLOAD SWAP1 DUP2 ADD PUSH1 0x40 MSTORE DUP1 SWAP3 SWAP2 SWAP1 DUP2 DUP2 MSTORE PUSH1 0x20 ADD DUP3 DUP1 SLOAD PUSH2 0x271C SWAP1 PUSH2 0x3BC2 JUMP JUMPDEST DUP1 ISZERO PUSH2 0x2769 JUMPI DUP1 PUSH1 0x1F LT PUSH2 0x273E JUMPI PUSH2 0x100 DUP1 DUP4 SLOAD DIV MUL DUP4 MSTORE SWAP2 PUSH1 0x20 ADD SWAP2 PUSH2 0x2769 JUMP JUMPDEST DUP3 ADD SWAP2 SWAP1 PUSH1 0x0 MSTORE PUSH1 0x20 PUSH1 0x0 KECCAK256 SWAP1 JUMPDEST DUP2 SLOAD DUP2 MSTORE SWAP1 PUSH1 0x1 ADD SWAP1 PUSH1 0x20 ADD DUP1 DUP4 GT PUSH2 0x274C JUMPI DUP3 SWAP1 SUB PUSH1 0x1F AND DUP3 ADD SWAP2 JUMPDEST POP POP POP POP POP DUP2 MSTORE POP POP DUP2 MSTORE PUSH1 0x20 ADD SWAP1 PUSH1 0x1 ADD SWAP1 PUSH2 0x265D JUMP JUMPDEST POP POP POP POP SWAP1 POP SWAP1 JUMP JUMPDEST PUSH1 0x1 ISZERO ISZERO PUSH1 0x8 PUSH1 0x0 SWAP1 SLOAD SWAP1 PUSH2 0x100 EXP SWAP1 DIV PUSH1 0xFF AND ISZERO ISZERO EQ PUSH2 0x27E0 JUMPI PUSH1 0x40 MLOAD PUSH32 0x8C379A000000000000000000000000000000000000000000000000000000000 DUP2 MSTORE PUSH1 0x4 ADD PUSH2 0x27D7 SWAP1 PUSH2 0x3AE1 JUMP JUMPDEST PUSH1 0x40 MLOAD DUP1 SWAP2 SUB SWAP1 REVERT JUMPDEST PUSH1 0x1 ISZERO ISZERO PUSH2 0x27EC PUSH2 0x2A02 JUMP JUMPDEST ISZERO ISZERO EQ PUSH2 0x282E JUMPI PUSH1 0x40 MLOAD PUSH32 0x8C379A000000000000000000000000000000000000000000000000000000000 DUP2 MSTORE PUSH1 0x4 ADD PUSH2 0x2825 SWAP1 PUSH2 0x3B73 JUMP JUMPDEST PUSH1 0x40 MLOAD DUP1 SWAP2 SUB SWAP1 REVERT JUMPDEST DUP1 PUSH1 0xA PUSH1 0x0 CALLER PUSH20 0xFFFFFFFFFFFFFFFFFFFFFFFFFFFFFFFFFFFFFFFF AND PUSH20 0xFFFFFFFFFFFFFFFFFFFFFFFFFFFFFFFFFFFFFFFF AND DUP2 MSTORE PUSH1 0x20 ADD SWAP1 DUP2 MSTORE PUSH1 0x20 ADD PUSH1 0x0 KECCAK256 DUP2 SWAP1 SSTORE POP POP JUMP JUMPDEST PUSH1 0x1 ISZERO ISZERO PUSH1 0x8 PUSH1 0x0 SWAP1 SLOAD SWAP1 PUSH2 0x100 EXP SWAP1 DIV PUSH1 0xFF AND ISZERO ISZERO EQ PUSH2 0x28CB JUMPI PUSH1 0x40 MLOAD PUSH32 0x8C379A000000000000000000000000000000000000000000000000000000000 DUP2 MSTORE PUSH1 0x4 ADD PUSH2 0x28C2 SWAP1 PUSH2 0x3AE1 JUMP JUMPDEST PUSH1 0x40 MLOAD DUP1 SWAP2 SUB SWAP1 REVERT JUMPDEST PUSH1 0x0 DUP1 SLOAD SWAP1 PUSH2 0x100 EXP SWAP1 DIV PUSH20 0xFFFFFFFFFFFFFFFFFFFFFFFFFFFFFFFFFFFFFFFF AND PUSH20 0xFFFFFFFFFFFFFFFFFFFFFFFFFFFFFFFFFFFFFFFF AND CALLER PUSH20 0xFFFFFFFFFFFFFFFFFFFFFFFFFFFFFFFFFFFFFFFF AND SUB PUSH2 0x2959 JUMPI PUSH1 0x40 MLOAD PUSH32 0x8C379A000000000000000000000000000000000000000000000000000000000 DUP2 MSTORE PUSH1 0x4 ADD PUSH2 0x2950 SWAP1 PUSH2 0x4C51 JUMP JUMPDEST PUSH1 0x40 MLOAD DUP1 SWAP2 SUB SWAP1 REVERT JUMPDEST PUSH1 0x4 SLOAD TIMESTAMP LT PUSH2 0x299D JUMPI PUSH1 0x40 MLOAD PUSH32 0x8C379A000000000000000000000000000000000000000000000000000000000 DUP2 MSTORE PUSH1 0x4 ADD PUSH2 0x2994 SWAP1 PUSH2 0x4CE3 JUMP JUMPDEST PUSH1 0x40 MLOAD DUP1 SWAP2 SUB SWAP1 REVERT JUMPDEST PUSH1 0x9 CALLER SWAP1 DUP1 PUSH1 0x1 DUP2 SLOAD ADD DUP1 DUP3 SSTORE DUP1 SWAP2 POP POP PUSH1 0x1 SWAP1 SUB SWAP1 PUSH1 0x0 MSTORE PUSH1 0x20 PUSH1 0x0 KECCAK256 ADD PUSH1 0x0 SWAP1 SWAP2 SWAP1 SWAP2 SWAP1 SWAP2 PUSH2 0x100 EXP DUP2 SLOAD DUP2 PUSH20 0xFFFFFFFFFFFFFFFFFFFFFFFFFFFFFFFFFFFFFFFF MUL NOT AND SWAP1 DUP4 PUSH20 0xFFFFFFFFFFFFFFFFFFFFFFFFFFFFFFFFFFFFFFFF AND MUL OR SWAP1 SSTORE POP JUMP JUMPDEST PUSH1 0x0 DUP1 PUSH1 0x0 SWAP1 POP JUMPDEST PUSH1 0x9 DUP1 SLOAD SWAP1 POP DUP2 LT ISZERO PUSH2 0x2AA5 JUMPI PUSH1 0x9 DUP2 DUP2 SLOAD DUP2 LT PUSH2 0x2A2B JUMPI PUSH2 0x2A2A PUSH2 0x3959 JUMP JUMPDEST JUMPDEST SWAP1 PUSH1 0x0 MSTORE PUSH1 0x20 PUSH1 0x0 KECCAK256 ADD PUSH1 0x0 SWAP1 SLOAD SWAP1 PUSH2 0x100 EXP SWAP1 DIV PUSH20 0xFFFFFFFFFFFFFFFFFFFFFFFFFFFFFFFFFFFFFFFF AND PUSH20 0xFFFFFFFFFFFFFFFFFFFFFFFFFFFFFFFFFFFFFFFF AND CALLER PUSH20 0xFFFFFFFFFFFFFFFFFFFFFFFFFFFFFFFFFFFFFFFF AND SUB PUSH2 0x2A92 JUMPI PUSH1 0x1 SWAP2 POP POP PUSH2 0x2AAB JUMP JUMPDEST DUP1 DUP1 PUSH2 0x2A9D SWAP1 PUSH2 0x4D03 JUMP JUMPDEST SWAP2 POP POP PUSH2 0x2A0A JUMP JUMPDEST POP PUSH1 0x0 SWAP1 POP JUMPDEST SWAP1 JUMP JUMPDEST PUSH1 0x0 DUP1 PUSH2 0x2ABA DUP5 PUSH2 0x2D1E JUMP JUMPDEST SWAP1 POP PUSH1 0x0 DUP2 DUP5 PUSH1 0x40 MLOAD PUSH1 0x20 ADD PUSH2 0x2AD1 SWAP3 SWAP2 SWAP1 PUSH2 0x4D7C JUMP JUMPDEST PUSH1 0x40 MLOAD PUSH1 0x20 DUP2 DUP4 SUB SUB DUP2 MSTORE SWAP1 PUSH1 0x40 MSTORE SWAP1 POP PUSH1 0x2 DUP2 PUSH1 0x40 MLOAD PUSH1 0x20 ADD PUSH2 0x2AF5 SWAP2 SWAP1 PUSH2 0x4DA0 JUMP JUMPDEST PUSH1 0x40 MLOAD PUSH1 0x20 DUP2 DUP4 SUB SUB DUP2 MSTORE SWAP1 PUSH1 0x40 MSTORE PUSH1 0x40 MLOAD PUSH2 0x2B11 SWAP2 SWAP1 PUSH2 0x4356 JUMP JUMPDEST PUSH1 0x20 PUSH1 0x40 MLOAD DUP1 DUP4 SUB DUP2 DUP6 GAS STATICCALL ISZERO DUP1 ISZERO PUSH2 0x2B2E JUMPI RETURNDATASIZE PUSH1 0x0 DUP1 RETURNDATACOPY RETURNDATASIZE PUSH1 0x0 REVERT JUMPDEST POP POP POP PUSH1 0x40 MLOAD RETURNDATASIZE PUSH1 0x1F NOT PUSH1 0x1F DUP3 ADD AND DUP3 ADD DUP1 PUSH1 0x40 MSTORE POP DUP2 ADD SWAP1 PUSH2 0x2B51 SWAP2 SWAP1 PUSH2 0x4382 JUMP JUMPDEST SWAP3 POP POP POP SWAP3 SWAP2 POP POP JUMP JUMPDEST PUSH1 0x0 DUP1 PUSH1 0x0 SWAP1 POP JUMPDEST PUSH1 0xB DUP1 SLOAD SWAP1 POP DUP2 LT ISZERO PUSH2 0x2BBA JUMPI PUSH1 0xB DUP2 DUP2 SLOAD DUP2 LT PUSH2 0x2B84 JUMPI PUSH2 0x2B83 PUSH2 0x3959 JUMP JUMPDEST JUMPDEST SWAP1 PUSH1 0x0 MSTORE PUSH1 0x20 PUSH1 0x0 KECCAK256 SWAP1 PUSH1 0x3 MUL ADD PUSH1 0x1 ADD SLOAD DUP4 GT ISZERO PUSH2 0x2BA7 JUMPI PUSH1 0x1 SWAP2 POP POP PUSH2 0x2BC0 JUMP JUMPDEST DUP1 DUP1 PUSH2 0x2BB2 SWAP1 PUSH2 0x4D03 JUMP JUMPDEST SWAP2 POP POP PUSH2 0x2B63 JUMP JUMPDEST POP PUSH1 0x0 SWAP1 POP JUMPDEST SWAP2 SWAP1 POP JUMP JUMPDEST PUSH1 0xB PUSH1 0x0 PUSH2 0x2BD3 SWAP2 SWAP1 PUSH2 0x2F3F JUMP JUMPDEST JUMP JUMPDEST PUSH1 0x0 PUSH1 0x40 MLOAD DUP1 PUSH1 0x60 ADD PUSH1 0x40 MSTORE DUP1 CALLER PUSH20 0xFFFFFFFFFFFFFFFFFFFFFFFFFFFFFFFFFFFFFFFF AND DUP2 MSTORE PUSH1 0x20 ADD DUP5 DUP2 MSTORE PUSH1 0x20 ADD DUP4 DUP2 MSTORE POP SWAP1 POP PUSH1 0xB DUP2 SWAP1 DUP1 PUSH1 0x1 DUP2 SLOAD ADD DUP1 DUP3 SSTORE DUP1 SWAP2 POP POP PUSH1 0x1 SWAP1 SUB SWAP1 PUSH1 0x0 MSTORE PUSH1 0x20 PUSH1 0x0 KECCAK256 SWAP1 PUSH1 0x3 MUL ADD PUSH1 0x0 SWAP1 SWAP2 SWAP1 SWAP2 SWAP1 SWAP2 POP PUSH1 0x0 DUP3 ADD MLOAD DUP2 PUSH1 0x0 ADD PUSH1 0x0 PUSH2 0x100 EXP DUP2 SLOAD DUP2 PUSH20 0xFFFFFFFFFFFFFFFFFFFFFFFFFFFFFFFFFFFFFFFF MUL NOT AND SWAP1 DUP4 PUSH20 0xFFFFFFFFFFFFFFFFFFFFFFFFFFFFFFFFFFFFFFFF AND MUL OR SWAP1 SSTORE POP PUSH1 0x20 DUP3 ADD MLOAD DUP2 PUSH1 0x1 ADD SSTORE PUSH1 0x40 DUP3 ADD MLOAD DUP2 PUSH1 0x2 ADD SWAP1 DUP2 PUSH2 0x2C9C SWAP2 SWAP1 PUSH2 0x3D95 JUMP JUMPDEST POP POP POP POP POP POP JUMP JUMPDEST PUSH1 0x3C PUSH1 0x7 SLOAD PUSH2 0x2CB3 SWAP2 SWAP1 PUSH2 0x4DB7 JUMP JUMPDEST TIMESTAMP PUSH2 0x2CBE SWAP2 SWAP1 PUSH2 0x3FE0 JUMP JUMPDEST PUSH1 0x4 DUP2 SWAP1 SSTORE POP PUSH1 0x3C PUSH1 0x7 SLOAD PUSH1 0x2 PUSH2 0x2CD5 SWAP2 SWAP1 PUSH2 0x4DB7 JUMP JUMPDEST PUSH2 0x2CDF SWAP2 SWAP1 PUSH2 0x4DB7 JUMP JUMPDEST TIMESTAMP PUSH2 0x2CEA SWAP2 SWAP1 PUSH2 0x3FE0 JUMP JUMPDEST PUSH1 0x5 DUP2 SWAP1 SSTORE POP PUSH1 0x3C PUSH1 0x7 SLOAD PUSH1 0x3 PUSH2 0x2D01 SWAP2 SWAP1 PUSH2 0x4DB7 JUMP JUMPDEST PUSH2 0x2D0B SWAP2 SWAP1 PUSH2 0x4DB7 JUMP JUMPDEST TIMESTAMP PUSH2 0x2D16 SWAP2 SWAP1 PUSH2 0x3FE0 JUMP JUMPDEST PUSH1 0x6 DUP2 SWAP1 SSTORE POP JUMP JUMPDEST PUSH1 0x60 PUSH1 0x0 PUSH1 0x1 PUSH2 0x2D2D DUP5 PUSH2 0x2DEC JUMP JUMPDEST ADD SWAP1 POP PUSH1 0x0 DUP2 PUSH8 0xFFFFFFFFFFFFFFFF DUP2 GT ISZERO PUSH2 0x2D4C JUMPI PUSH2 0x2D4B PUSH2 0x3172 JUMP JUMPDEST JUMPDEST PUSH1 0x40 MLOAD SWAP1 DUP1 DUP3 MSTORE DUP1 PUSH1 0x1F ADD PUSH1 0x1F NOT AND PUSH1 0x20 ADD DUP3 ADD PUSH1 0x40 MSTORE DUP1 ISZERO PUSH2 0x2D7E JUMPI DUP2 PUSH1 0x20 ADD PUSH1 0x1 DUP3 MUL DUP1 CALLDATASIZE DUP4 CALLDATACOPY DUP1 DUP3 ADD SWAP2 POP POP SWAP1 POP JUMPDEST POP SWAP1 POP PUSH1 0x0 DUP3 PUSH1 0x20 ADD DUP3 ADD SWAP1 POP JUMPDEST PUSH1 0x1 ISZERO PUSH2 0x2DE1 JUMPI DUP1 DUP1 PUSH1 0x1 SWAP1 SUB SWAP2 POP POP PUSH32 0x3031323334353637383961626364656600000000000000000000000000000000 PUSH1 0xA DUP7 MOD BYTE DUP2 MSTORE8 PUSH1 0xA DUP6 DUP2 PUSH2 0x2DD5 JUMPI PUSH2 0x2DD4 PUSH2 0x4DF9 JUMP JUMPDEST JUMPDEST DIV SWAP5 POP PUSH1 0x0 DUP6 SUB PUSH2 0x2D8C JUMPI JUMPDEST DUP2 SWAP4 POP POP POP POP SWAP2 SWAP1 POP JUMP JUMPDEST PUSH1 0x0 DUP1 PUSH1 0x0 SWAP1 POP PUSH27 0x184F03E93FF9F4DAA797ED6E38ED64BF6A1F010000000000000000 DUP4 LT PUSH2 0x2E4A JUMPI PUSH27 0x184F03E93FF9F4DAA797ED6E38ED64BF6A1F010000000000000000 DUP4 DUP2 PUSH2 0x2E40 JUMPI PUSH2 0x2E3F PUSH2 0x4DF9 JUMP JUMPDEST JUMPDEST DIV SWAP3 POP PUSH1 0x40 DUP2 ADD SWAP1 POP JUMPDEST PUSH14 0x4EE2D6D415B85ACEF8100000000 DUP4 LT PUSH2 0x2E87 JUMPI PUSH14 0x4EE2D6D415B85ACEF8100000000 DUP4 DUP2 PUSH2 0x2E7D JUMPI PUSH2 0x2E7C PUSH2 0x4DF9 JUMP JUMPDEST JUMPDEST DIV SWAP3 POP PUSH1 0x20 DUP2 ADD SWAP1 POP JUMPDEST PUSH7 0x2386F26FC10000 DUP4 LT PUSH2 0x2EB6 JUMPI PUSH7 0x2386F26FC10000 DUP4 DUP2 PUSH2 0x2EAC JUMPI PUSH2 0x2EAB PUSH2 0x4DF9 JUMP JUMPDEST JUMPDEST DIV SWAP3 POP PUSH1 0x10 DUP2 ADD SWAP1 POP JUMPDEST PUSH4 0x5F5E100 DUP4 LT PUSH2 0x2EDF JUMPI PUSH4 0x5F5E100 DUP4 DUP2 PUSH2 0x2ED5 JUMPI PUSH2 0x2ED4 PUSH2 0x4DF9 JUMP JUMPDEST JUMPDEST DIV SWAP3 POP PUSH1 0x8 DUP2 ADD SWAP1 POP JUMPDEST PUSH2 0x2710 DUP4 LT PUSH2 0x2F04 JUMPI PUSH2 0x2710 DUP4 DUP2 PUSH2 0x2EFA JUMPI PUSH2 0x2EF9 PUSH2 0x4DF9 JUMP JUMPDEST JUMPDEST DIV SWAP3 POP PUSH1 0x4 DUP2 ADD SWAP1 POP JUMPDEST PUSH1 0x64 DUP4 LT PUSH2 0x2F27 JUMPI PUSH1 0x64 DUP4 DUP2 PUSH2 0x2F1D JUMPI PUSH2 0x2F1C PUSH2 0x4DF9 JUMP JUMPDEST JUMPDEST DIV SWAP3 POP PUSH1 0x2 DUP2 ADD SWAP1 POP JUMPDEST PUSH1 0xA DUP4 LT PUSH2 0x2F36 JUMPI PUSH1 0x1 DUP2 ADD SWAP1 POP JUMPDEST DUP1 SWAP2 POP POP SWAP2 SWAP1 POP JUMP JUMPDEST POP DUP1 SLOAD PUSH1 0x0 DUP3 SSTORE PUSH1 0x3 MUL SWAP1 PUSH1 0x0 MSTORE PUSH1 0x20 PUSH1 0x0 KECCAK256 SWAP1 DUP2 ADD SWAP1 PUSH2 0x2F60 SWAP2 SWAP1 PUSH2 0x2FA8 JUMP JUMPDEST POP JUMP JUMPDEST POP DUP1 SLOAD PUSH1 0x0 DUP3 SSTORE SWAP1 PUSH1 0x0 MSTORE PUSH1 0x20 PUSH1 0x0 KECCAK256 SWAP1 DUP2 ADD SWAP1 PUSH2 0x2F81 SWAP2 SWAP1 PUSH2 0x2FFE JUMP JUMPDEST POP JUMP JUMPDEST POP DUP1 SLOAD PUSH1 0x0 DUP3 SSTORE PUSH1 0x3 MUL SWAP1 PUSH1 0x0 MSTORE PUSH1 0x20 PUSH1 0x0 KECCAK256 SWAP1 DUP2 ADD SWAP1 PUSH2 0x2FA5 SWAP2 SWAP1 PUSH2 0x301B JUMP JUMPDEST POP JUMP JUMPDEST JUMPDEST DUP1 DUP3 GT ISZERO PUSH2 0x2FFA JUMPI PUSH1 0x0 DUP1 DUP3 ADD PUSH1 0x0 PUSH2 0x100 EXP DUP2 SLOAD SWAP1 PUSH20 0xFFFFFFFFFFFFFFFFFFFFFFFFFFFFFFFFFFFFFFFF MUL NOT AND SWAP1 SSTORE PUSH1 0x1 DUP3 ADD PUSH1 0x0 SWAP1 SSTORE PUSH1 0x2 DUP3 ADD PUSH1 0x0 PUSH2 0x2FF1 SWAP2 SWAP1 PUSH2 0x3071 JUMP JUMPDEST POP PUSH1 0x3 ADD PUSH2 0x2FA9 JUMP JUMPDEST POP SWAP1 JUMP JUMPDEST JUMPDEST DUP1 DUP3 GT ISZERO PUSH2 0x3017 JUMPI PUSH1 0x0 DUP2 PUSH1 0x0 SWAP1 SSTORE POP PUSH1 0x1 ADD PUSH2 0x2FFF JUMP JUMPDEST POP SWAP1 JUMP JUMPDEST JUMPDEST DUP1 DUP3 GT ISZERO PUSH2 0x306D JUMPI PUSH1 0x0 DUP1 DUP3 ADD PUSH1 0x0 SWAP1 SSTORE PUSH1 0x1 DUP3 ADD PUSH1 0x0 PUSH2 0x100 EXP DUP2 SLOAD SWAP1 PUSH20 0xFFFFFFFFFFFFFFFFFFFFFFFFFFFFFFFFFFFFFFFF MUL NOT AND SWAP1 SSTORE PUSH1 0x2 DUP3 ADD PUSH1 0x0 PUSH2 0x3064 SWAP2 SWAP1 PUSH2 0x3071 JUMP JUMPDEST POP PUSH1 0x3 ADD PUSH2 0x301C JUMP JUMPDEST POP SWAP1 JUMP JUMPDEST POP DUP1 SLOAD PUSH2 0x307D SWAP1 PUSH2 0x3BC2 JUMP JUMPDEST PUSH1 0x0 DUP3 SSTORE DUP1 PUSH1 0x1F LT PUSH2 0x308F JUMPI POP PUSH2 0x30AE JUMP JUMPDEST PUSH1 0x1F ADD PUSH1 0x20 SWAP1 DIV SWAP1 PUSH1 0x0 MSTORE PUSH1 0x20 PUSH1 0x0 KECCAK256 SWAP1 DUP2 ADD SWAP1 PUSH2 0x30AD SWAP2 SWAP1 PUSH2 0x2FFE JUMP JUMPDEST JUMPDEST POP JUMP JUMPDEST PUSH1 0x0 PUSH20 0xFFFFFFFFFFFFFFFFFFFFFFFFFFFFFFFFFFFFFFFF DUP3 AND SWAP1 POP SWAP2 SWAP1 POP JUMP JUMPDEST PUSH1 0x0 PUSH2 0x30DC DUP3 PUSH2 0x30B1 JUMP JUMPDEST SWAP1 POP SWAP2 SWAP1 POP JUMP JUMPDEST PUSH2 0x30EC DUP2 PUSH2 0x30D1 JUMP JUMPDEST DUP3 MSTORE POP POP JUMP JUMPDEST PUSH1 0x0 PUSH1 0x20 DUP3 ADD SWAP1 POP PUSH2 0x3107 PUSH1 0x0 DUP4 ADD DUP5 PUSH2 0x30E3 JUMP JUMPDEST SWAP3 SWAP2 POP POP JUMP JUMPDEST PUSH1 0x0 PUSH1 0x40 MLOAD SWAP1 POP SWAP1 JUMP JUMPDEST PUSH1 0x0 DUP1 REVERT JUMPDEST PUSH1 0x0 DUP1 REVERT JUMPDEST PUSH1 0x0 DUP2 SWAP1 POP SWAP2 SWAP1 POP JUMP JUMPDEST PUSH2 0x3134 DUP2 PUSH2 0x3121 JUMP JUMPDEST DUP2 EQ PUSH2 0x313F JUMPI PUSH1 0x0 DUP1 REVERT JUMPDEST POP JUMP JUMPDEST PUSH1 0x0 DUP2 CALLDATALOAD SWAP1 POP PUSH2 0x3151 DUP2 PUSH2 0x312B JUMP JUMPDEST SWAP3 SWAP2 POP POP JUMP JUMPDEST PUSH1 0x0 DUP1 REVERT JUMPDEST PUSH1 0x0 DUP1 REVERT JUMPDEST PUSH1 0x0 PUSH1 0x1F NOT PUSH1 0x1F DUP4 ADD AND SWAP1 POP SWAP2 SWAP1 POP JUMP JUMPDEST PUSH32 0x4E487B7100000000000000000000000000000000000000000000000000000000 PUSH1 0x0 MSTORE PUSH1 0x41 PUSH1 0x4 MSTORE PUSH1 0x24 PUSH1 0x0 REVERT JUMPDEST PUSH2 0x31AA DUP3 PUSH2 0x3161 JUMP JUMPDEST DUP2 ADD DUP2 DUP2 LT PUSH8 0xFFFFFFFFFFFFFFFF DUP3 GT OR ISZERO PUSH2 0x31C9 JUMPI PUSH2 0x31C8 PUSH2 0x3172 JUMP JUMPDEST JUMPDEST DUP1 PUSH1 0x40 MSTORE POP POP POP JUMP JUMPDEST PUSH1 0x0 PUSH2 0x31DC PUSH2 0x310D JUMP JUMPDEST SWAP1 POP PUSH2 0x31E8 DUP3 DUP3 PUSH2 0x31A1 JUMP JUMPDEST SWAP2 SWAP1 POP JUMP JUMPDEST PUSH1 0x0 PUSH8 0xFFFFFFFFFFFFFFFF DUP3 GT ISZERO PUSH2 0x3208 JUMPI PUSH2 0x3207 PUSH2 0x3172 JUMP JUMPDEST JUMPDEST PUSH2 0x3211 DUP3 PUSH2 0x3161 JUMP JUMPDEST SWAP1 POP PUSH1 0x20 DUP2 ADD SWAP1 POP SWAP2 SWAP1 POP JUMP JUMPDEST DUP3 DUP2 DUP4 CALLDATACOPY PUSH1 0x0 DUP4 DUP4 ADD MSTORE POP POP POP JUMP JUMPDEST PUSH1 0x0 PUSH2 0x3240 PUSH2 0x323B DUP5 PUSH2 0x31ED JUMP JUMPDEST PUSH2 0x31D2 JUMP JUMPDEST SWAP1 POP DUP3 DUP2 MSTORE PUSH1 0x20 DUP2 ADD DUP5 DUP5 DUP5 ADD GT ISZERO PUSH2 0x325C JUMPI PUSH2 0x325B PUSH2 0x315C JUMP JUMPDEST JUMPDEST PUSH2 0x3267 DUP5 DUP3 DUP6 PUSH2 0x321E JUMP JUMPDEST POP SWAP4 SWAP3 POP POP POP JUMP JUMPDEST PUSH1 0x0 DUP3 PUSH1 0x1F DUP4 ADD SLT PUSH2 0x3284 JUMPI PUSH2 0x3283 PUSH2 0x3157 JUMP JUMPDEST JUMPDEST DUP2 CALLDATALOAD PUSH2 0x3294 DUP5 DUP3 PUSH1 0x20 DUP7 ADD PUSH2 0x322D JUMP JUMPDEST SWAP2 POP POP SWAP3 SWAP2 POP POP JUMP JUMPDEST PUSH1 0x0 DUP1 PUSH1 0x40 DUP4 DUP6 SUB SLT ISZERO PUSH2 0x32B4 JUMPI PUSH2 0x32B3 PUSH2 0x3117 JUMP JUMPDEST JUMPDEST PUSH1 0x0 PUSH2 0x32C2 DUP6 DUP3 DUP7 ADD PUSH2 0x3142 JUMP JUMPDEST SWAP3 POP POP PUSH1 0x20 DUP4 ADD CALLDATALOAD PUSH8 0xFFFFFFFFFFFFFFFF DUP2 GT ISZERO PUSH2 0x32E3 JUMPI PUSH2 0x32E2 PUSH2 0x311C JUMP JUMPDEST JUMPDEST PUSH2 0x32EF DUP6 DUP3 DUP7 ADD PUSH2 0x326F JUMP JUMPDEST SWAP2 POP POP SWAP3 POP SWAP3 SWAP1 POP JUMP JUMPDEST PUSH1 0x0 DUP2 MLOAD SWAP1 POP SWAP2 SWAP1 POP JUMP JUMPDEST PUSH1 0x0 DUP3 DUP3 MSTORE PUSH1 0x20 DUP3 ADD SWAP1 POP SWAP3 SWAP2 POP POP JUMP JUMPDEST PUSH1 0x0 DUP2 SWAP1 POP PUSH1 0x20 DUP3 ADD SWAP1 POP SWAP2 SWAP1 POP JUMP JUMPDEST PUSH2 0x332E DUP2 PUSH2 0x3121 JUMP JUMPDEST DUP3 MSTORE POP POP JUMP JUMPDEST PUSH2 0x333D DUP2 PUSH2 0x30D1 JUMP JUMPDEST DUP3 MSTORE POP POP JUMP JUMPDEST PUSH1 0x0 DUP2 MLOAD SWAP1 POP SWAP2 SWAP1 POP JUMP JUMPDEST PUSH1 0x0 DUP3 DUP3 MSTORE PUSH1 0x20 DUP3 ADD SWAP1 POP SWAP3 SWAP2 POP POP JUMP JUMPDEST PUSH1 0x0 JUMPDEST DUP4 DUP2 LT ISZERO PUSH2 0x337D JUMPI DUP1 DUP3 ADD MLOAD DUP2 DUP5 ADD MSTORE PUSH1 0x20 DUP2 ADD SWAP1 POP PUSH2 0x3362 JUMP JUMPDEST PUSH1 0x0 DUP5 DUP5 ADD MSTORE POP POP POP POP JUMP JUMPDEST PUSH1 0x0 PUSH2 0x3394 DUP3 PUSH2 0x3343 JUMP JUMPDEST PUSH2 0x339E DUP2 DUP6 PUSH2 0x334E JUMP JUMPDEST SWAP4 POP PUSH2 0x33AE DUP2 DUP6 PUSH1 0x20 DUP7 ADD PUSH2 0x335F JUMP JUMPDEST PUSH2 0x33B7 DUP2 PUSH2 0x3161 JUMP JUMPDEST DUP5 ADD SWAP2 POP POP SWAP3 SWAP2 POP POP JUMP JUMPDEST PUSH1 0x0 PUSH1 0x60 DUP4 ADD PUSH1 0x0 DUP4 ADD MLOAD PUSH2 0x33DA PUSH1 0x0 DUP7 ADD DUP3 PUSH2 0x3325 JUMP JUMPDEST POP PUSH1 0x20 DUP4 ADD MLOAD PUSH2 0x33ED PUSH1 0x20 DUP7 ADD DUP3 PUSH2 0x3334 JUMP JUMPDEST POP PUSH1 0x40 DUP4 ADD MLOAD DUP5 DUP3 SUB PUSH1 0x40 DUP7 ADD MSTORE PUSH2 0x3405 DUP3 DUP3 PUSH2 0x3389 JUMP JUMPDEST SWAP2 POP POP DUP1 SWAP2 POP POP SWAP3 SWAP2 POP POP JUMP JUMPDEST PUSH1 0x0 PUSH2 0x341E DUP4 DUP4 PUSH2 0x33C2 JUMP JUMPDEST SWAP1 POP SWAP3 SWAP2 POP POP JUMP JUMPDEST PUSH1 0x0 PUSH1 0x20 DUP3 ADD SWAP1 POP SWAP2 SWAP1 POP JUMP JUMPDEST PUSH1 0x0 PUSH2 0x343E DUP3 PUSH2 0x32F9 JUMP JUMPDEST PUSH2 0x3448 DUP2 DUP6 PUSH2 0x3304 JUMP JUMPDEST SWAP4 POP DUP4 PUSH1 0x20 DUP3 MUL DUP6 ADD PUSH2 0x345A DUP6 PUSH2 0x3315 JUMP JUMPDEST DUP1 PUSH1 0x0 JUMPDEST DUP6 DUP2 LT ISZERO PUSH2 0x3496 JUMPI DUP5 DUP5 SUB DUP10 MSTORE DUP2 MLOAD PUSH2 0x3477 DUP6 DUP3 PUSH2 0x3412 JUMP JUMPDEST SWAP5 POP PUSH2 0x3482 DUP4 PUSH2 0x3426 JUMP JUMPDEST SWAP3 POP PUSH1 0x20 DUP11 ADD SWAP10 POP POP PUSH1 0x1 DUP2 ADD SWAP1 POP PUSH2 0x345E JUMP JUMPDEST POP DUP3 SWAP8 POP DUP8 SWAP6 POP POP POP POP POP POP SWAP3 SWAP2 POP POP JUMP JUMPDEST PUSH1 0x0 PUSH1 0x20 DUP3 ADD SWAP1 POP DUP2 DUP2 SUB PUSH1 0x0 DUP4 ADD MSTORE PUSH2 0x34C2 DUP2 DUP5 PUSH2 0x3433 JUMP JUMPDEST SWAP1 POP SWAP3 SWAP2 POP POP JUMP JUMPDEST PUSH2 0x34D3 DUP2 PUSH2 0x30D1 JUMP JUMPDEST DUP2 EQ PUSH2 0x34DE JUMPI PUSH1 0x0 DUP1 REVERT JUMPDEST POP JUMP JUMPDEST PUSH1 0x0 DUP2 CALLDATALOAD SWAP1 POP PUSH2 0x34F0 DUP2 PUSH2 0x34CA JUMP JUMPDEST SWAP3 SWAP2 POP POP JUMP JUMPDEST PUSH1 0x0 PUSH1 0x20 DUP3 DUP5 SUB SLT ISZERO PUSH2 0x350C JUMPI PUSH2 0x350B PUSH2 0x3117 JUMP JUMPDEST JUMPDEST PUSH1 0x0 PUSH2 0x351A DUP5 DUP3 DUP6 ADD PUSH2 0x34E1 JUMP JUMPDEST SWAP2 POP POP SWAP3 SWAP2 POP POP JUMP JUMPDEST PUSH1 0x0 DUP2 SWAP1 POP SWAP2 SWAP1 POP JUMP JUMPDEST PUSH2 0x3536 DUP2 PUSH2 0x3523 JUMP JUMPDEST DUP3 MSTORE POP POP JUMP JUMPDEST PUSH1 0x0 PUSH1 0x20 DUP3 ADD SWAP1 POP PUSH2 0x3551 PUSH1 0x0 DUP4 ADD DUP5 PUSH2 0x352D JUMP JUMPDEST SWAP3 SWAP2 POP POP JUMP JUMPDEST PUSH1 0x0 PUSH1 0x20 DUP3 DUP5 SUB SLT ISZERO PUSH2 0x356D JUMPI PUSH2 0x356C PUSH2 0x3117 JUMP JUMPDEST JUMPDEST PUSH1 0x0 PUSH2 0x357B DUP5 DUP3 DUP6 ADD PUSH2 0x3142 JUMP JUMPDEST SWAP2 POP POP SWAP3 SWAP2 POP POP JUMP JUMPDEST PUSH2 0x358D DUP2 PUSH2 0x3121 JUMP JUMPDEST DUP3 MSTORE POP POP JUMP JUMPDEST PUSH1 0x0 DUP3 DUP3 MSTORE PUSH1 0x20 DUP3 ADD SWAP1 POP SWAP3 SWAP2 POP POP JUMP JUMPDEST PUSH1 0x0 PUSH2 0x35AF DUP3 PUSH2 0x3343 JUMP JUMPDEST PUSH2 0x35B9 DUP2 DUP6 PUSH2 0x3593 JUMP JUMPDEST SWAP4 POP PUSH2 0x35C9 DUP2 DUP6 PUSH1 0x20 DUP7 ADD PUSH2 0x335F JUMP JUMPDEST PUSH2 0x35D2 DUP2 PUSH2 0x3161 JUMP JUMPDEST DUP5 ADD SWAP2 POP POP SWAP3 SWAP2 POP POP JUMP JUMPDEST PUSH1 0x0 PUSH1 0x60 DUP3 ADD SWAP1 POP PUSH2 0x35F2 PUSH1 0x0 DUP4 ADD DUP7 PUSH2 0x3584 JUMP JUMPDEST PUSH2 0x35FF PUSH1 0x20 DUP4 ADD DUP6 PUSH2 0x30E3 JUMP JUMPDEST DUP2 DUP2 SUB PUSH1 0x40 DUP4 ADD MSTORE PUSH2 0x3611 DUP2 DUP5 PUSH2 0x35A4 JUMP JUMPDEST SWAP1 POP SWAP5 SWAP4 POP POP POP POP JUMP JUMPDEST PUSH1 0x0 PUSH1 0x20 DUP3 ADD SWAP1 POP DUP2 DUP2 SUB PUSH1 0x0 DUP4 ADD MSTORE PUSH2 0x3635 DUP2 DUP5 PUSH2 0x35A4 JUMP JUMPDEST SWAP1 POP SWAP3 SWAP2 POP POP JUMP JUMPDEST PUSH1 0x0 DUP1 PUSH1 0x40 DUP4 DUP6 SUB SLT ISZERO PUSH2 0x3654 JUMPI PUSH2 0x3653 PUSH2 0x3117 JUMP JUMPDEST JUMPDEST PUSH1 0x0 DUP4 ADD CALLDATALOAD PUSH8 0xFFFFFFFFFFFFFFFF DUP2 GT ISZERO PUSH2 0x3672 JUMPI PUSH2 0x3671 PUSH2 0x311C JUMP JUMPDEST JUMPDEST PUSH2 0x367E DUP6 DUP3 DUP7 ADD PUSH2 0x326F JUMP JUMPDEST SWAP3 POP POP PUSH1 0x20 DUP4 ADD CALLDATALOAD PUSH8 0xFFFFFFFFFFFFFFFF DUP2 GT ISZERO PUSH2 0x369F JUMPI PUSH2 0x369E PUSH2 0x311C JUMP JUMPDEST JUMPDEST PUSH2 0x36AB DUP6 DUP3 DUP7 ADD PUSH2 0x326F JUMP JUMPDEST SWAP2 POP POP SWAP3 POP SWAP3 SWAP1 POP JUMP JUMPDEST PUSH1 0x0 PUSH1 0x60 DUP3 ADD SWAP1 POP PUSH2 0x36CA PUSH1 0x0 DUP4 ADD DUP7 PUSH2 0x30E3 JUMP JUMPDEST PUSH2 0x36D7 PUSH1 0x20 DUP4 ADD DUP6 PUSH2 0x3584 JUMP JUMPDEST DUP2 DUP2 SUB PUSH1 0x40 DUP4 ADD MSTORE PUSH2 0x36E9 DUP2 DUP5 PUSH2 0x35A4 JUMP JUMPDEST SWAP1 POP SWAP5 SWAP4 POP POP POP POP JUMP JUMPDEST PUSH1 0x0 PUSH1 0x40 DUP3 ADD SWAP1 POP DUP2 DUP2 SUB PUSH1 0x0 DUP4 ADD MSTORE PUSH2 0x370D DUP2 DUP6 PUSH2 0x35A4 JUMP JUMPDEST SWAP1 POP DUP2 DUP2 SUB PUSH1 0x20 DUP4 ADD MSTORE PUSH2 0x3721 DUP2 DUP5 PUSH2 0x35A4 JUMP JUMPDEST SWAP1 POP SWAP4 SWAP3 POP POP POP JUMP JUMPDEST PUSH1 0x0 DUP2 MLOAD SWAP1 POP SWAP2 SWAP1 POP JUMP JUMPDEST PUSH1 0x0 DUP3 DUP3 MSTORE PUSH1 0x20 DUP3 ADD SWAP1 POP SWAP3 SWAP2 POP POP JUMP JUMPDEST PUSH1 0x0 DUP2 SWAP1 POP PUSH1 0x20 DUP3 ADD SWAP1 POP SWAP2 SWAP1 POP JUMP JUMPDEST PUSH1 0x0 PUSH1 0x60 DUP4 ADD PUSH1 0x0 DUP4 ADD MLOAD PUSH2 0x376E PUSH1 0x0 DUP7 ADD DUP3 PUSH2 0x3334 JUMP JUMPDEST POP PUSH1 0x20 DUP4 ADD MLOAD PUSH2 0x3781 PUSH1 0x20 DUP7 ADD DUP3 PUSH2 0x3325 JUMP JUMPDEST POP PUSH1 0x40 DUP4 ADD MLOAD DUP5 DUP3 SUB PUSH1 0x40 DUP7 ADD MSTORE PUSH2 0x3799 DUP3 DUP3 PUSH2 0x3389 JUMP JUMPDEST SWAP2 POP POP DUP1 SWAP2 POP POP SWAP3 SWAP2 POP POP JUMP JUMPDEST PUSH1 0x0 PUSH2 0x37B2 DUP4 DUP4 PUSH2 0x3756 JUMP JUMPDEST SWAP1 POP SWAP3 SWAP2 POP POP JUMP JUMPDEST PUSH1 0x0 PUSH1 0x20 DUP3 ADD SWAP1 POP SWAP2 SWAP1 POP JUMP JUMPDEST PUSH1 0x0 PUSH2 0x37D2 DUP3 PUSH2 0x372A JUMP JUMPDEST PUSH2 0x37DC DUP2 DUP6 PUSH2 0x3735 JUMP JUMPDEST SWAP4 POP DUP4 PUSH1 0x20 DUP3 MUL DUP6 ADD PUSH2 0x37EE DUP6 PUSH2 0x3746 JUMP JUMPDEST DUP1 PUSH1 0x0 JUMPDEST DUP6 DUP2 LT ISZERO PUSH2 0x382A JUMPI DUP5 DUP5 SUB DUP10 MSTORE DUP2 MLOAD PUSH2 0x380B DUP6 DUP3 PUSH2 0x37A6 JUMP JUMPDEST SWAP5 POP PUSH2 0x3816 DUP4 PUSH2 0x37BA JUMP JUMPDEST SWAP3 POP PUSH1 0x20 DUP11 ADD SWAP10 POP POP PUSH1 0x1 DUP2 ADD SWAP1 POP PUSH2 0x37F2 JUMP JUMPDEST POP DUP3 SWAP8 POP DUP8 SWAP6 POP POP POP POP POP POP SWAP3 SWAP2 POP POP JUMP JUMPDEST PUSH1 0x0 PUSH1 0x20 DUP3 ADD SWAP1 POP DUP2 DUP2 SUB PUSH1 0x0 DUP4 ADD MSTORE PUSH2 0x3856 DUP2 DUP5 PUSH2 0x37C7 JUMP JUMPDEST SWAP1 POP SWAP3 SWAP2 POP POP JUMP JUMPDEST PUSH2 0x3867 DUP2 PUSH2 0x3523 JUMP JUMPDEST DUP2 EQ PUSH2 0x3872 JUMPI PUSH1 0x0 DUP1 REVERT JUMPDEST POP JUMP JUMPDEST PUSH1 0x0 DUP2 CALLDATALOAD SWAP1 POP PUSH2 0x3884 DUP2 PUSH2 0x385E JUMP JUMPDEST SWAP3 SWAP2 POP POP JUMP JUMPDEST PUSH1 0x0 PUSH1 0x20 DUP3 DUP5 SUB SLT ISZERO PUSH2 0x38A0 JUMPI PUSH2 0x389F PUSH2 0x3117 JUMP JUMPDEST JUMPDEST PUSH1 0x0 PUSH2 0x38AE DUP5 DUP3 DUP6 ADD PUSH2 0x3875 JUMP JUMPDEST SWAP2 POP POP SWAP3 SWAP2 POP POP JUMP JUMPDEST PUSH1 0x0 DUP2 SWAP1 POP SWAP2 SWAP1 POP JUMP JUMPDEST PUSH1 0x0 DUP2 SWAP1 POP SWAP2 SWAP1 POP JUMP JUMPDEST PUSH1 0x0 PUSH2 0x38E6 PUSH2 0x38E1 PUSH2 0x38DC DUP5 PUSH2 0x38B7 JUMP JUMPDEST PUSH2 0x38C1 JUMP JUMPDEST PUSH2 0x3121 JUMP JUMPDEST SWAP1 POP SWAP2 SWAP1 POP JUMP JUMPDEST PUSH2 0x38F6 DUP2 PUSH2 0x38CB JUMP JUMPDEST DUP3 MSTORE POP POP JUMP JUMPDEST PUSH1 0x0 PUSH1 0x20 DUP3 ADD SWAP1 POP PUSH2 0x3911 PUSH1 0x0 DUP4 ADD DUP5 PUSH2 0x38ED JUMP JUMPDEST SWAP3 SWAP2 POP POP JUMP JUMPDEST PUSH1 0x0 DUP2 MLOAD SWAP1 POP PUSH2 0x3926 DUP2 PUSH2 0x34CA JUMP JUMPDEST SWAP3 SWAP2 POP POP JUMP JUMPDEST PUSH1 0x0 PUSH1 0x20 DUP3 DUP5 SUB SLT ISZERO PUSH2 0x3942 JUMPI PUSH2 0x3941 PUSH2 0x3117 JUMP JUMPDEST JUMPDEST PUSH1 0x0 PUSH2 0x3950 DUP5 DUP3 DUP6 ADD PUSH2 0x3917 JUMP JUMPDEST SWAP2 POP POP SWAP3 SWAP2 POP POP JUMP JUMPDEST PUSH32 0x4E487B7100000000000000000000000000000000000000000000000000000000 PUSH1 0x0 MSTORE PUSH1 0x32 PUSH1 0x4 MSTORE PUSH1 0x24 PUSH1 0x0 REVERT JUMPDEST PUSH2 0x3991 DUP2 PUSH2 0x30D1 JUMP JUMPDEST DUP3 MSTORE POP POP JUMP JUMPDEST PUSH1 0x0 DUP3 DUP3 MSTORE PUSH1 0x20 DUP3 ADD SWAP1 POP SWAP3 SWAP2 POP POP JUMP JUMPDEST PUSH32 0x6269646465722031206973206E6F7420726567697374657265642E0000000000 PUSH1 0x0 DUP3 ADD MSTORE POP JUMP JUMPDEST PUSH1 0x0 PUSH2 0x39DE PUSH1 0x1B DUP4 PUSH2 0x3997 JUMP JUMPDEST SWAP2 POP PUSH2 0x39E9 DUP3 PUSH2 0x39A8 JUMP JUMPDEST PUSH1 0x20 DUP3 ADD SWAP1 POP SWAP2 SWAP1 POP JUMP JUMPDEST PUSH1 0x0 PUSH1 0x60 DUP3 ADD SWAP1 POP PUSH2 0x3A09 PUSH1 0x0 DUP4 ADD DUP6 PUSH2 0x3988 JUMP JUMPDEST PUSH2 0x3A16 PUSH1 0x20 DUP4 ADD DUP5 PUSH2 0x3988 JUMP JUMPDEST DUP2 DUP2 SUB PUSH1 0x40 DUP4 ADD MSTORE PUSH2 0x3A27 DUP2 PUSH2 0x39D1 JUMP JUMPDEST SWAP1 POP SWAP4 SWAP3 POP POP POP JUMP JUMPDEST PUSH1 0x0 DUP2 ISZERO ISZERO SWAP1 POP SWAP2 SWAP1 POP JUMP JUMPDEST PUSH2 0x3A45 DUP2 PUSH2 0x3A30 JUMP JUMPDEST DUP2 EQ PUSH2 0x3A50 JUMPI PUSH1 0x0 DUP1 REVERT JUMPDEST POP JUMP JUMPDEST PUSH1 0x0 DUP2 MLOAD SWAP1 POP PUSH2 0x3A62 DUP2 PUSH2 0x3A3C JUMP JUMPDEST SWAP3 SWAP2 POP POP JUMP JUMPDEST PUSH1 0x0 PUSH1 0x20 DUP3 DUP5 SUB SLT ISZERO PUSH2 0x3A7E JUMPI PUSH2 0x3A7D PUSH2 0x3117 JUMP JUMPDEST JUMPDEST PUSH1 0x0 PUSH2 0x3A8C DUP5 DUP3 DUP6 ADD PUSH2 0x3A53 JUMP JUMPDEST SWAP2 POP POP SWAP3 SWAP2 POP POP JUMP JUMPDEST PUSH32 0x5468657265206973206E6F20737461727465642061756374696F6E206E6F7700 PUSH1 0x0 DUP3 ADD MSTORE POP JUMP JUMPDEST PUSH1 0x0 PUSH2 0x3ACB PUSH1 0x1F DUP4 PUSH2 0x3593 JUMP JUMPDEST SWAP2 POP PUSH2 0x3AD6 DUP3 PUSH2 0x3A95 JUMP JUMPDEST PUSH1 0x20 DUP3 ADD SWAP1 POP SWAP2 SWAP1 POP JUMP JUMPDEST PUSH1 0x0 PUSH1 0x20 DUP3 ADD SWAP1 POP DUP2 DUP2 SUB PUSH1 0x0 DUP4 ADD MSTORE PUSH2 0x3AFA DUP2 PUSH2 0x3ABE JUMP JUMPDEST SWAP1 POP SWAP2 SWAP1 POP JUMP JUMPDEST PUSH32 0x4F6E6C7920726567697374657264206269646465722063616E2063616C6C2074 PUSH1 0x0 DUP3 ADD MSTORE PUSH32 0x6869732066756E6374696F6E0000000000000000000000000000000000000000 PUSH1 0x20 DUP3 ADD MSTORE POP JUMP JUMPDEST PUSH1 0x0 PUSH2 0x3B5D PUSH1 0x2C DUP4 PUSH2 0x3593 JUMP JUMPDEST SWAP2 POP PUSH2 0x3B68 DUP3 PUSH2 0x3B01 JUMP JUMPDEST PUSH1 0x40 DUP3 ADD SWAP1 POP SWAP2 SWAP1 POP JUMP JUMPDEST PUSH1 0x0 PUSH1 0x20 DUP3 ADD SWAP1 POP DUP2 DUP2 SUB PUSH1 0x0 DUP4 ADD MSTORE PUSH2 0x3B8C DUP2 PUSH2 0x3B50 JUMP JUMPDEST SWAP1 POP SWAP2 SWAP1 POP JUMP JUMPDEST PUSH32 0x4E487B7100000000000000000000000000000000000000000000000000000000 PUSH1 0x0 MSTORE PUSH1 0x22 PUSH1 0x4 MSTORE PUSH1 0x24 PUSH1 0x0 REVERT JUMPDEST PUSH1 0x0 PUSH1 0x2 DUP3 DIV SWAP1 POP PUSH1 0x1 DUP3 AND DUP1 PUSH2 0x3BDA JUMPI PUSH1 0x7F DUP3 AND SWAP2 POP JUMPDEST PUSH1 0x20 DUP3 LT DUP2 SUB PUSH2 0x3BED JUMPI PUSH2 0x3BEC PUSH2 0x3B93 JUMP JUMPDEST JUMPDEST POP SWAP2 SWAP1 POP JUMP JUMPDEST PUSH1 0x0 DUP2 SWAP1 POP DUP2 PUSH1 0x0 MSTORE PUSH1 0x20 PUSH1 0x0 KECCAK256 SWAP1 POP SWAP2 SWAP1 POP JUMP JUMPDEST PUSH1 0x0 PUSH1 0x20 PUSH1 0x1F DUP4 ADD DIV SWAP1 POP SWAP2 SWAP1 POP JUMP JUMPDEST PUSH1 0x0 DUP3 DUP3 SHL SWAP1 POP SWAP3 SWAP2 POP POP JUMP JUMPDEST PUSH1 0x0 PUSH1 0x8 DUP4 MUL PUSH2 0x3C55 PUSH32 0xFFFFFFFFFFFFFFFFFFFFFFFFFFFFFFFFFFFFFFFFFFFFFFFFFFFFFFFFFFFFFFFF DUP3 PUSH2 0x3C18 JUMP JUMPDEST PUSH2 0x3C5F DUP7 DUP4 PUSH2 0x3C18 JUMP JUMPDEST SWAP6 POP DUP1 NOT DUP5 AND SWAP4 POP DUP1 DUP7 AND DUP5 OR SWAP3 POP POP POP SWAP4 SWAP3 POP POP POP JUMP JUMPDEST PUSH1 0x0 PUSH2 0x3C92 PUSH2 0x3C8D PUSH2 0x3C88 DUP5 PUSH2 0x3121 JUMP JUMPDEST PUSH2 0x38C1 JUMP JUMPDEST PUSH2 0x3121 JUMP JUMPDEST SWAP1 POP SWAP2 SWAP1 POP JUMP JUMPDEST PUSH1 0x0 DUP2 SWAP1 POP SWAP2 SWAP1 POP JUMP JUMPDEST PUSH2 0x3CAC DUP4 PUSH2 0x3C77 JUMP JUMPDEST PUSH2 0x3CC0 PUSH2 0x3CB8 DUP3 PUSH2 0x3C99 JUMP JUMPDEST DUP5 DUP5 SLOAD PUSH2 0x3C25 JUMP JUMPDEST DUP3 SSTORE POP POP POP POP JUMP JUMPDEST PUSH1 0x0 SWAP1 JUMP JUMPDEST PUSH2 0x3CD5 PUSH2 0x3CC8 JUMP JUMPDEST PUSH2 0x3CE0 DUP2 DUP5 DUP5 PUSH2 0x3CA3 JUMP JUMPDEST POP POP POP JUMP JUMPDEST JUMPDEST DUP2 DUP2 LT ISZERO PUSH2 0x3D04 JUMPI PUSH2 0x3CF9 PUSH1 0x0 DUP3 PUSH2 0x3CCD JUMP JUMPDEST PUSH1 0x1 DUP2 ADD SWAP1 POP PUSH2 0x3CE6 JUMP JUMPDEST POP POP JUMP JUMPDEST PUSH1 0x1F DUP3 GT ISZERO PUSH2 0x3D49 JUMPI PUSH2 0x3D1A DUP2 PUSH2 0x3BF3 JUMP JUMPDEST PUSH2 0x3D23 DUP5 PUSH2 0x3C08 JUMP JUMPDEST DUP2 ADD PUSH1 0x20 DUP6 LT ISZERO PUSH2 0x3D32 JUMPI DUP2 SWAP1 POP JUMPDEST PUSH2 0x3D46 PUSH2 0x3D3E DUP6 PUSH2 0x3C08 JUMP JUMPDEST DUP4 ADD DUP3 PUSH2 0x3CE5 JUMP JUMPDEST POP POP JUMPDEST POP POP POP JUMP JUMPDEST PUSH1 0x0 DUP3 DUP3 SHR SWAP1 POP SWAP3 SWAP2 POP POP JUMP JUMPDEST PUSH1 0x0 PUSH2 0x3D6C PUSH1 0x0 NOT DUP5 PUSH1 0x8 MUL PUSH2 0x3D4E JUMP JUMPDEST NOT DUP1 DUP4 AND SWAP2 POP POP SWAP3 SWAP2 POP POP JUMP JUMPDEST PUSH1 0x0 PUSH2 0x3D85 DUP4 DUP4 PUSH2 0x3D5B JUMP JUMPDEST SWAP2 POP DUP3 PUSH1 0x2 MUL DUP3 OR SWAP1 POP SWAP3 SWAP2 POP POP JUMP JUMPDEST PUSH2 0x3D9E DUP3 PUSH2 0x3343 JUMP JUMPDEST PUSH8 0xFFFFFFFFFFFFFFFF DUP2 GT ISZERO PUSH2 0x3DB7 JUMPI PUSH2 0x3DB6 PUSH2 0x3172 JUMP JUMPDEST JUMPDEST PUSH2 0x3DC1 DUP3 SLOAD PUSH2 0x3BC2 JUMP JUMPDEST PUSH2 0x3DCC DUP3 DUP3 DUP6 PUSH2 0x3D08 JUMP JUMPDEST PUSH1 0x0 PUSH1 0x20 SWAP1 POP PUSH1 0x1F DUP4 GT PUSH1 0x1 DUP2 EQ PUSH2 0x3DFF JUMPI PUSH1 0x0 DUP5 ISZERO PUSH2 0x3DED JUMPI DUP3 DUP8 ADD MLOAD SWAP1 POP JUMPDEST PUSH2 0x3DF7 DUP6 DUP3 PUSH2 0x3D79 JUMP JUMPDEST DUP7 SSTORE POP PUSH2 0x3E5F JUMP JUMPDEST PUSH1 0x1F NOT DUP5 AND PUSH2 0x3E0D DUP7 PUSH2 0x3BF3 JUMP JUMPDEST PUSH1 0x0 JUMPDEST DUP3 DUP2 LT ISZERO PUSH2 0x3E35 JUMPI DUP5 DUP10 ADD MLOAD DUP3 SSTORE PUSH1 0x1 DUP3 ADD SWAP2 POP PUSH1 0x20 DUP6 ADD SWAP5 POP PUSH1 0x20 DUP2 ADD SWAP1 POP PUSH2 0x3E10 JUMP JUMPDEST DUP7 DUP4 LT ISZERO PUSH2 0x3E52 JUMPI DUP5 DUP10 ADD MLOAD PUSH2 0x3E4E PUSH1 0x1F DUP10 AND DUP3 PUSH2 0x3D5B JUMP JUMPDEST DUP4 SSTORE POP JUMPDEST PUSH1 0x1 PUSH1 0x2 DUP9 MUL ADD DUP9 SSTORE POP POP POP JUMPDEST POP POP POP POP POP POP JUMP JUMPDEST PUSH1 0x0 DUP2 SWAP1 POP SWAP2 SWAP1 POP JUMP JUMPDEST PUSH1 0x0 PUSH2 0x3E8C PUSH2 0x3E87 PUSH2 0x3E82 DUP5 PUSH2 0x3E67 JUMP JUMPDEST PUSH2 0x38C1 JUMP JUMPDEST PUSH2 0x3121 JUMP JUMPDEST SWAP1 POP SWAP2 SWAP1 POP JUMP JUMPDEST PUSH2 0x3E9C DUP2 PUSH2 0x3E71 JUMP JUMPDEST DUP3 MSTORE POP POP JUMP JUMPDEST PUSH1 0x0 PUSH1 0x20 DUP3 ADD SWAP1 POP PUSH2 0x3EB7 PUSH1 0x0 DUP4 ADD DUP5 PUSH2 0x3E93 JUMP JUMPDEST SWAP3 SWAP2 POP POP JUMP JUMPDEST PUSH32 0x6269646465722030206973206E6F7420726567697374657265642E0000000000 PUSH1 0x0 DUP3 ADD MSTORE POP JUMP JUMPDEST PUSH1 0x0 PUSH2 0x3EF3 PUSH1 0x1B DUP4 PUSH2 0x3997 JUMP JUMPDEST SWAP2 POP PUSH2 0x3EFE DUP3 PUSH2 0x3EBD JUMP JUMPDEST PUSH1 0x20 DUP3 ADD SWAP1 POP SWAP2 SWAP1 POP JUMP JUMPDEST PUSH1 0x0 PUSH1 0x60 DUP3 ADD SWAP1 POP PUSH2 0x3F1E PUSH1 0x0 DUP4 ADD DUP6 PUSH2 0x3988 JUMP JUMPDEST PUSH2 0x3F2B PUSH1 0x20 DUP4 ADD DUP5 PUSH2 0x3988 JUMP JUMPDEST DUP2 DUP2 SUB PUSH1 0x40 DUP4 ADD MSTORE PUSH2 0x3F3C DUP2 PUSH2 0x3EE6 JUMP JUMPDEST SWAP1 POP SWAP4 SWAP3 POP POP POP JUMP JUMPDEST PUSH32 0x41756374696F6E206973206E6F7420636F6D706C65746564207965742E000000 PUSH1 0x0 DUP3 ADD MSTORE POP JUMP JUMPDEST PUSH1 0x0 PUSH2 0x3F7B PUSH1 0x1D DUP4 PUSH2 0x3593 JUMP JUMPDEST SWAP2 POP PUSH2 0x3F86 DUP3 PUSH2 0x3F45 JUMP JUMPDEST PUSH1 0x20 DUP3 ADD SWAP1 POP SWAP2 SWAP1 POP JUMP JUMPDEST PUSH1 0x0 PUSH1 0x20 DUP3 ADD SWAP1 POP DUP2 DUP2 SUB PUSH1 0x0 DUP4 ADD MSTORE PUSH2 0x3FAA DUP2 PUSH2 0x3F6E JUMP JUMPDEST SWAP1 POP SWAP2 SWAP1 POP JUMP JUMPDEST PUSH32 0x4E487B7100000000000000000000000000000000000000000000000000000000 PUSH1 0x0 MSTORE PUSH1 0x11 PUSH1 0x4 MSTORE PUSH1 0x24 PUSH1 0x0 REVERT JUMPDEST PUSH1 0x0 PUSH2 0x3FEB DUP3 PUSH2 0x3121 JUMP JUMPDEST SWAP2 POP PUSH2 0x3FF6 DUP4 PUSH2 0x3121 JUMP JUMPDEST SWAP3 POP DUP3 DUP3 ADD SWAP1 POP DUP1 DUP3 GT ISZERO PUSH2 0x400E JUMPI PUSH2 0x400D PUSH2 0x3FB1 JUMP JUMPDEST JUMPDEST SWAP3 SWAP2 POP POP JUMP JUMPDEST PUSH2 0x401D DUP2 PUSH2 0x3523 JUMP JUMPDEST DUP3 MSTORE POP POP JUMP JUMPDEST PUSH32 0x6861736833206973206E6F7420636F7272656374000000000000000000000000 PUSH1 0x0 DUP3 ADD MSTORE POP JUMP JUMPDEST PUSH1 0x0 PUSH2 0x4059 PUSH1 0x14 DUP4 PUSH2 0x3997 JUMP JUMPDEST SWAP2 POP PUSH2 0x4064 DUP3 PUSH2 0x4023 JUMP JUMPDEST PUSH1 0x20 DUP3 ADD SWAP1 POP SWAP2 SWAP1 POP JUMP JUMPDEST PUSH1 0x0 PUSH1 0x60 DUP3 ADD SWAP1 POP PUSH2 0x4084 PUSH1 0x0 DUP4 ADD DUP6 PUSH2 0x4014 JUMP JUMPDEST PUSH2 0x4091 PUSH1 0x20 DUP4 ADD DUP5 PUSH2 0x4014 JUMP JUMPDEST DUP2 DUP2 SUB PUSH1 0x40 DUP4 ADD MSTORE PUSH2 0x40A2 DUP2 PUSH2 0x404C JUMP JUMPDEST SWAP1 POP SWAP4 SWAP3 POP POP POP JUMP JUMPDEST PUSH32 0x6861736833206F66206269646465722033206973206E6F74207375626D697474 PUSH1 0x0 DUP3 ADD MSTORE PUSH32 0x6564000000000000000000000000000000000000000000000000000000000000 PUSH1 0x20 DUP3 ADD MSTORE POP JUMP JUMPDEST PUSH1 0x0 PUSH2 0x4107 PUSH1 0x22 DUP4 PUSH2 0x3997 JUMP JUMPDEST SWAP2 POP PUSH2 0x4112 DUP3 PUSH2 0x40AB JUMP JUMPDEST PUSH1 0x40 DUP3 ADD SWAP1 POP SWAP2 SWAP1 POP JUMP JUMPDEST PUSH1 0x0 PUSH1 0x60 DUP3 ADD SWAP1 POP PUSH2 0x4132 PUSH1 0x0 DUP4 ADD DUP6 PUSH2 0x4014 JUMP JUMPDEST PUSH2 0x413F PUSH1 0x20 DUP4 ADD DUP5 PUSH2 0x4014 JUMP JUMPDEST DUP2 DUP2 SUB PUSH1 0x40 DUP4 ADD MSTORE PUSH2 0x4150 DUP2 PUSH2 0x40FA JUMP JUMPDEST SWAP1 POP SWAP4 SWAP3 POP POP POP JUMP JUMPDEST PUSH32 0x5468652062696420616E64206E6F6E636520796F75207375626D697474656420 PUSH1 0x0 DUP3 ADD MSTORE PUSH32 0x617265206E6F742076616C69642E000000000000000000000000000000000000 PUSH1 0x20 DUP3 ADD MSTORE POP JUMP JUMPDEST PUSH1 0x0 PUSH2 0x41B5 PUSH1 0x2E DUP4 PUSH2 0x3593 JUMP JUMPDEST SWAP2 POP PUSH2 0x41C0 DUP3 PUSH2 0x4159 JUMP JUMPDEST PUSH1 0x40 DUP3 ADD SWAP1 POP SWAP2 SWAP1 POP JUMP JUMPDEST PUSH1 0x0 PUSH1 0x20 DUP3 ADD SWAP1 POP DUP2 DUP2 SUB PUSH1 0x0 DUP4 ADD MSTORE PUSH2 0x41E4 DUP2 PUSH2 0x41A8 JUMP JUMPDEST SWAP1 POP SWAP2 SWAP1 POP JUMP JUMPDEST PUSH32 0x596F75722064697370757465206973206E6F742076616C69642073696E636520 PUSH1 0x0 DUP3 ADD MSTORE PUSH32 0x6974206973206E6F742067726561746572207468616E206174206C6561737420 PUSH1 0x20 DUP3 ADD MSTORE PUSH32 0x6F6E652077696E6E65722E000000000000000000000000000000000000000000 PUSH1 0x40 DUP3 ADD MSTORE POP JUMP JUMPDEST PUSH1 0x0 PUSH2 0x426D PUSH1 0x4B DUP4 PUSH2 0x3593 JUMP JUMPDEST SWAP2 POP PUSH2 0x4278 DUP3 PUSH2 0x41EB JUMP JUMPDEST PUSH1 0x60 DUP3 ADD SWAP1 POP SWAP2 SWAP1 POP JUMP JUMPDEST PUSH1 0x0 PUSH1 0x20 DUP3 ADD SWAP1 POP DUP2 DUP2 SUB PUSH1 0x0 DUP4 ADD MSTORE PUSH2 0x429C DUP2 PUSH2 0x4260 JUMP JUMPDEST SWAP1 POP SWAP2 SWAP1 POP JUMP JUMPDEST PUSH1 0x0 DUP2 SWAP1 POP SWAP3 SWAP2 POP POP JUMP JUMPDEST PUSH32 0x7761746368000000000000000000000000000000000000000000000000000000 PUSH1 0x0 DUP3 ADD MSTORE POP JUMP JUMPDEST PUSH1 0x0 PUSH2 0x42E4 PUSH1 0x5 DUP4 PUSH2 0x42A3 JUMP JUMPDEST SWAP2 POP PUSH2 0x42EF DUP3 PUSH2 0x42AE JUMP JUMPDEST PUSH1 0x5 DUP3 ADD SWAP1 POP SWAP2 SWAP1 POP JUMP JUMPDEST PUSH1 0x0 PUSH2 0x4305 DUP3 PUSH2 0x42D7 JUMP JUMPDEST SWAP2 POP DUP2 SWAP1 POP SWAP2 SWAP1 POP JUMP JUMPDEST PUSH1 0x0 DUP2 MLOAD SWAP1 POP SWAP2 SWAP1 POP JUMP JUMPDEST PUSH1 0x0 DUP2 SWAP1 POP SWAP3 SWAP2 POP POP JUMP JUMPDEST PUSH1 0x0 PUSH2 0x4330 DUP3 PUSH2 0x430F JUMP JUMPDEST PUSH2 0x433A DUP2 DUP6 PUSH2 0x431A JUMP JUMPDEST SWAP4 POP PUSH2 0x434A DUP2 DUP6 PUSH1 0x20 DUP7 ADD PUSH2 0x335F JUMP JUMPDEST DUP1 DUP5 ADD SWAP2 POP POP SWAP3 SWAP2 POP POP JUMP JUMPDEST PUSH1 0x0 PUSH2 0x4362 DUP3 DUP5 PUSH2 0x4325 JUMP JUMPDEST SWAP2 POP DUP2 SWAP1 POP SWAP3 SWAP2 POP POP JUMP JUMPDEST PUSH1 0x0 DUP2 MLOAD SWAP1 POP PUSH2 0x437C DUP2 PUSH2 0x385E JUMP JUMPDEST SWAP3 SWAP2 POP POP JUMP JUMPDEST PUSH1 0x0 PUSH1 0x20 DUP3 DUP5 SUB SLT ISZERO PUSH2 0x4398 JUMPI PUSH2 0x4397 PUSH2 0x3117 JUMP JUMPDEST JUMPDEST PUSH1 0x0 PUSH2 0x43A6 DUP5 DUP3 DUP6 ADD PUSH2 0x436D JUMP JUMPDEST SWAP2 POP POP SWAP3 SWAP2 POP POP JUMP JUMPDEST PUSH1 0x0 DUP2 SLOAD PUSH2 0x43BC DUP2 PUSH2 0x3BC2 JUMP JUMPDEST PUSH2 0x43C6 DUP2 DUP7 PUSH2 0x42A3 JUMP JUMPDEST SWAP5 POP PUSH1 0x1 DUP3 AND PUSH1 0x0 DUP2 EQ PUSH2 0x43E1 JUMPI PUSH1 0x1 DUP2 EQ PUSH2 0x43F6 JUMPI PUSH2 0x4429 JUMP JUMPDEST PUSH1 0xFF NOT DUP4 AND DUP7 MSTORE DUP2 ISZERO ISZERO DUP3 MUL DUP7 ADD SWAP4 POP PUSH2 0x4429 JUMP JUMPDEST PUSH2 0x43FF DUP6 PUSH2 0x3BF3 JUMP JUMPDEST PUSH1 0x0 JUMPDEST DUP4 DUP2 LT ISZERO PUSH2 0x4421 JUMPI DUP2 SLOAD DUP2 DUP10 ADD MSTORE PUSH1 0x1 DUP3 ADD SWAP2 POP PUSH1 0x20 DUP2 ADD SWAP1 POP PUSH2 0x4402 JUMP JUMPDEST DUP4 DUP9 ADD SWAP6 POP POP POP JUMPDEST POP POP POP SWAP3 SWAP2 POP POP JUMP JUMPDEST PUSH1 0x0 PUSH2 0x443E DUP3 DUP5 PUSH2 0x43AF JUMP JUMPDEST SWAP2 POP DUP2 SWAP1 POP SWAP3 SWAP2 POP POP JUMP JUMPDEST PUSH2 0x4452 DUP2 PUSH2 0x3A30 JUMP JUMPDEST DUP3 MSTORE POP POP JUMP JUMPDEST PUSH32 0x746865206E616D65206F66206173736574206973206E6F7420636F7272656374 PUSH1 0x0 DUP3 ADD MSTORE PUSH32 0x6C792073746F7265640000000000000000000000000000000000000000000000 PUSH1 0x20 DUP3 ADD MSTORE POP JUMP JUMPDEST PUSH1 0x0 PUSH2 0x44B4 PUSH1 0x29 DUP4 PUSH2 0x3997 JUMP JUMPDEST SWAP2 POP PUSH2 0x44BF DUP3 PUSH2 0x4458 JUMP JUMPDEST PUSH1 0x40 DUP3 ADD SWAP1 POP SWAP2 SWAP1 POP JUMP JUMPDEST PUSH1 0x0 PUSH1 0x40 DUP3 ADD SWAP1 POP PUSH2 0x44DF PUSH1 0x0 DUP4 ADD DUP5 PUSH2 0x4449 JUMP JUMPDEST DUP2 DUP2 SUB PUSH1 0x20 DUP4 ADD MSTORE PUSH2 0x44F0 DUP2 PUSH2 0x44A7 JUMP JUMPDEST SWAP1 POP SWAP3 SWAP2 POP POP JUMP JUMPDEST PUSH32 0x6772656174207761746368000000000000000000000000000000000000000000 PUSH1 0x0 DUP3 ADD MSTORE POP JUMP JUMPDEST PUSH1 0x0 PUSH2 0x452E PUSH1 0xB DUP4 PUSH2 0x42A3 JUMP JUMPDEST SWAP2 POP PUSH2 0x4539 DUP3 PUSH2 0x44F8 JUMP JUMPDEST PUSH1 0xB DUP3 ADD SWAP1 POP SWAP2 SWAP1 POP JUMP JUMPDEST PUSH1 0x0 PUSH2 0x454F DUP3 PUSH2 0x4521 JUMP JUMPDEST SWAP2 POP DUP2 SWAP1 POP SWAP2 SWAP1 POP JUMP JUMPDEST PUSH32 0x746865206465736372697074696F6E206F66206173736574206973206E6F7420 PUSH1 0x0 DUP3 ADD MSTORE PUSH32 0x636F72726563746C792073746F72656400000000000000000000000000000000 PUSH1 0x20 DUP3 ADD MSTORE POP JUMP JUMPDEST PUSH1 0x0 PUSH2 0x45B5 PUSH1 0x30 DUP4 PUSH2 0x3997 JUMP JUMPDEST SWAP2 POP PUSH2 0x45C0 DUP3 PUSH2 0x4559 JUMP JUMPDEST PUSH1 0x40 DUP3 ADD SWAP1 POP SWAP2 SWAP1 POP JUMP JUMPDEST PUSH1 0x0 PUSH1 0x40 DUP3 ADD SWAP1 POP PUSH2 0x45E0 PUSH1 0x0 DUP4 ADD DUP5 PUSH2 0x4449 JUMP JUMPDEST DUP2 DUP2 SUB PUSH1 0x20 DUP4 ADD MSTORE PUSH2 0x45F1 DUP2 PUSH2 0x45A8 JUMP JUMPDEST SWAP1 POP SWAP3 SWAP2 POP POP JUMP JUMPDEST PUSH1 0x0 DUP2 SWAP1 POP SWAP2 SWAP1 POP JUMP JUMPDEST PUSH1 0x0 PUSH2 0x461E PUSH2 0x4619 PUSH2 0x4614 DUP5 PUSH2 0x45F9 JUMP JUMPDEST PUSH2 0x38C1 JUMP JUMPDEST PUSH2 0x3121 JUMP JUMPDEST SWAP1 POP SWAP2 SWAP1 POP JUMP JUMPDEST PUSH2 0x462E DUP2 PUSH2 0x4603 JUMP JUMPDEST DUP3 MSTORE POP POP JUMP JUMPDEST PUSH1 0x0 PUSH1 0x20 DUP3 ADD SWAP1 POP PUSH2 0x4649 PUSH1 0x0 DUP4 ADD DUP5 PUSH2 0x4625 JUMP JUMPDEST SWAP3 SWAP2 POP POP JUMP JUMPDEST PUSH32 0x61646472657373206F662073656C6C657220697320696E636F72726563742E00 PUSH1 0x0 DUP3 ADD MSTORE POP JUMP JUMPDEST PUSH1 0x0 PUSH2 0x4685 PUSH1 0x1F DUP4 PUSH2 0x3997 JUMP JUMPDEST SWAP2 POP PUSH2 0x4690 DUP3 PUSH2 0x464F JUMP JUMPDEST PUSH1 0x20 DUP3 ADD SWAP1 POP SWAP2 SWAP1 POP JUMP JUMPDEST PUSH1 0x0 PUSH1 0x60 DUP3 ADD SWAP1 POP PUSH2 0x46B0 PUSH1 0x0 DUP4 ADD DUP6 PUSH2 0x3988 JUMP JUMPDEST PUSH2 0x46BD PUSH1 0x20 DUP4 ADD DUP5 PUSH2 0x3988 JUMP JUMPDEST DUP2 DUP2 SUB PUSH1 0x40 DUP4 ADD MSTORE PUSH2 0x46CE DUP2 PUSH2 0x4678 JUMP JUMPDEST SWAP1 POP SWAP4 SWAP3 POP POP POP JUMP JUMPDEST PUSH32 0x41756374696F6E2073686F756C64206265207374617274656400000000000000 PUSH1 0x0 DUP3 ADD MSTORE POP JUMP JUMPDEST PUSH1 0x0 PUSH2 0x470D PUSH1 0x19 DUP4 PUSH2 0x3997 JUMP JUMPDEST SWAP2 POP PUSH2 0x4718 DUP3 PUSH2 0x46D7 JUMP JUMPDEST PUSH1 0x20 DUP3 ADD SWAP1 POP SWAP2 SWAP1 POP JUMP JUMPDEST PUSH1 0x0 PUSH1 0x60 DUP3 ADD SWAP1 POP PUSH2 0x4738 PUSH1 0x0 DUP4 ADD DUP6 PUSH2 0x4449 JUMP JUMPDEST PUSH2 0x4745 PUSH1 0x20 DUP4 ADD DUP5 PUSH2 0x4449 JUMP JUMPDEST DUP2 DUP2 SUB PUSH1 0x40 DUP4 ADD MSTORE PUSH2 0x4756 DUP2 PUSH2 0x4700 JUMP JUMPDEST SWAP1 POP SWAP4 SWAP3 POP POP POP JUMP JUMPDEST PUSH1 0x0 DUP2 SWAP1 POP SWAP2 SWAP1 POP JUMP JUMPDEST PUSH1 0x0 PUSH2 0x4784 PUSH2 0x477F PUSH2 0x477A DUP5 PUSH2 0x475F JUMP JUMPDEST PUSH2 0x38C1 JUMP JUMPDEST PUSH2 0x3121 JUMP JUMPDEST SWAP1 POP SWAP2 SWAP1 POP JUMP JUMPDEST PUSH2 0x4794 DUP2 PUSH2 0x4769 JUMP JUMPDEST DUP3 MSTORE POP POP JUMP JUMPDEST PUSH1 0x0 PUSH1 0x20 DUP3 ADD SWAP1 POP PUSH2 0x47AF PUSH1 0x0 DUP4 ADD DUP5 PUSH2 0x478B JUMP JUMPDEST SWAP3 SWAP2 POP POP JUMP JUMPDEST PUSH32 0x6269646465722032206973206E6F7420726567697374657265642E0000000000 PUSH1 0x0 DUP3 ADD MSTORE POP JUMP JUMPDEST PUSH1 0x0 PUSH2 0x47EB PUSH1 0x1B DUP4 PUSH2 0x3997 JUMP JUMPDEST SWAP2 POP PUSH2 0x47F6 DUP3 PUSH2 0x47B5 JUMP JUMPDEST PUSH1 0x20 DUP3 ADD SWAP1 POP SWAP2 SWAP1 POP JUMP JUMPDEST PUSH1 0x0 PUSH1 0x60 DUP3 ADD SWAP1 POP PUSH2 0x4816 PUSH1 0x0 DUP4 ADD DUP6 PUSH2 0x3988 JUMP JUMPDEST PUSH2 0x4823 PUSH1 0x20 DUP4 ADD DUP5 PUSH2 0x3988 JUMP JUMPDEST DUP2 DUP2 SUB PUSH1 0x40 DUP4 ADD MSTORE PUSH2 0x4834 DUP2 PUSH2 0x47DE JUMP JUMPDEST SWAP1 POP SWAP4 SWAP3 POP POP POP JUMP JUMPDEST PUSH32 0x6861736832206973206E6F7420636F7272656374000000000000000000000000 PUSH1 0x0 DUP3 ADD MSTORE POP JUMP JUMPDEST PUSH1 0x0 PUSH2 0x4873 PUSH1 0x14 DUP4 PUSH2 0x3997 JUMP JUMPDEST SWAP2 POP PUSH2 0x487E DUP3 PUSH2 0x483D JUMP JUMPDEST PUSH1 0x20 DUP3 ADD SWAP1 POP SWAP2 SWAP1 POP JUMP JUMPDEST PUSH1 0x0 PUSH1 0x60 DUP3 ADD SWAP1 POP PUSH2 0x489E PUSH1 0x0 DUP4 ADD DUP6 PUSH2 0x4014 JUMP JUMPDEST PUSH2 0x48AB PUSH1 0x20 DUP4 ADD DUP5 PUSH2 0x4014 JUMP JUMPDEST DUP2 DUP2 SUB PUSH1 0x40 DUP4 ADD MSTORE PUSH2 0x48BC DUP2 PUSH2 0x4866 JUMP JUMPDEST SWAP1 POP SWAP4 SWAP3 POP POP POP JUMP JUMPDEST PUSH32 0x6861736832206F66206269646465722032206973206E6F74207375626D697474 PUSH1 0x0 DUP3 ADD MSTORE PUSH32 0x6564000000000000000000000000000000000000000000000000000000000000 PUSH1 0x20 DUP3 ADD MSTORE POP JUMP JUMPDEST PUSH1 0x0 PUSH2 0x4921 PUSH1 0x22 DUP4 PUSH2 0x3997 JUMP JUMPDEST SWAP2 POP PUSH2 0x492C DUP3 PUSH2 0x48C5 JUMP JUMPDEST PUSH1 0x40 DUP3 ADD SWAP1 POP SWAP2 SWAP1 POP JUMP JUMPDEST PUSH1 0x0 PUSH1 0x60 DUP3 ADD SWAP1 POP PUSH2 0x494C PUSH1 0x0 DUP4 ADD DUP6 PUSH2 0x4014 JUMP JUMPDEST PUSH2 0x4959 PUSH1 0x20 DUP4 ADD DUP5 PUSH2 0x4014 JUMP JUMPDEST DUP2 DUP2 SUB PUSH1 0x40 DUP4 ADD MSTORE PUSH2 0x496A DUP2 PUSH2 0x4914 JUMP JUMPDEST SWAP1 POP SWAP4 SWAP3 POP POP POP JUMP JUMPDEST PUSH32 0x77696E6E6572206973206E6F74206368616E67656420746F2062696464657233 PUSH1 0x0 DUP3 ADD MSTORE POP JUMP JUMPDEST PUSH1 0x0 PUSH2 0x49A9 PUSH1 0x20 DUP4 PUSH2 0x3997 JUMP JUMPDEST SWAP2 POP PUSH2 0x49B4 DUP3 PUSH2 0x4973 JUMP JUMPDEST PUSH1 0x20 DUP3 ADD SWAP1 POP SWAP2 SWAP1 POP JUMP JUMPDEST PUSH1 0x0 PUSH1 0x60 DUP3 ADD SWAP1 POP PUSH2 0x49D4 PUSH1 0x0 DUP4 ADD DUP6 PUSH2 0x3988 JUMP JUMPDEST PUSH2 0x49E1 PUSH1 0x20 DUP4 ADD DUP5 PUSH2 0x3988 JUMP JUMPDEST DUP2 DUP2 SUB PUSH1 0x40 DUP4 ADD MSTORE PUSH2 0x49F2 DUP2 PUSH2 0x499C JUMP JUMPDEST SWAP1 POP SWAP4 SWAP3 POP POP POP JUMP JUMPDEST PUSH32 0x6861736831206973206E6F7420636F7272656374000000000000000000000000 PUSH1 0x0 DUP3 ADD MSTORE POP JUMP JUMPDEST PUSH1 0x0 PUSH2 0x4A31 PUSH1 0x14 DUP4 PUSH2 0x3997 JUMP JUMPDEST SWAP2 POP PUSH2 0x4A3C DUP3 PUSH2 0x49FB JUMP JUMPDEST PUSH1 0x20 DUP3 ADD SWAP1 POP SWAP2 SWAP1 POP JUMP JUMPDEST PUSH1 0x0 PUSH1 0x60 DUP3 ADD SWAP1 POP PUSH2 0x4A5C PUSH1 0x0 DUP4 ADD DUP6 PUSH2 0x4014 JUMP JUMPDEST PUSH2 0x4A69 PUSH1 0x20 DUP4 ADD DUP5 PUSH2 0x4014 JUMP JUMPDEST DUP2 DUP2 SUB PUSH1 0x40 DUP4 ADD MSTORE PUSH2 0x4A7A DUP2 PUSH2 0x4A24 JUMP JUMPDEST SWAP1 POP SWAP4 SWAP3 POP POP POP JUMP JUMPDEST PUSH32 0x6861736831206F66206269646465722031206973206E6F74207375626D697474 PUSH1 0x0 DUP3 ADD MSTORE PUSH32 0x6564000000000000000000000000000000000000000000000000000000000000 PUSH1 0x20 DUP3 ADD MSTORE POP JUMP JUMPDEST PUSH1 0x0 PUSH2 0x4ADF PUSH1 0x22 DUP4 PUSH2 0x3997 JUMP JUMPDEST SWAP2 POP PUSH2 0x4AEA DUP3 PUSH2 0x4A83 JUMP JUMPDEST PUSH1 0x40 DUP3 ADD SWAP1 POP SWAP2 SWAP1 POP JUMP JUMPDEST PUSH1 0x0 PUSH1 0x60 DUP3 ADD SWAP1 POP PUSH2 0x4B0A PUSH1 0x0 DUP4 ADD DUP6 PUSH2 0x4014 JUMP JUMPDEST PUSH2 0x4B17 PUSH1 0x20 DUP4 ADD DUP5 PUSH2 0x4014 JUMP JUMPDEST DUP2 DUP2 SUB PUSH1 0x40 DUP4 ADD MSTORE PUSH2 0x4B28 DUP2 PUSH2 0x4AD2 JUMP JUMPDEST SWAP1 POP SWAP4 SWAP3 POP POP POP JUMP JUMPDEST PUSH32 0x6269646465722032206973206E6F742073657420617320696E636F7272656374 PUSH1 0x0 DUP3 ADD MSTORE PUSH32 0x2077696E6E657200000000000000000000000000000000000000000000000000 PUSH1 0x20 DUP3 ADD MSTORE POP JUMP JUMPDEST PUSH1 0x0 PUSH2 0x4B8D PUSH1 0x27 DUP4 PUSH2 0x3997 JUMP JUMPDEST SWAP2 POP PUSH2 0x4B98 DUP3 PUSH2 0x4B31 JUMP JUMPDEST PUSH1 0x40 DUP3 ADD SWAP1 POP SWAP2 SWAP1 POP JUMP JUMPDEST PUSH1 0x0 PUSH1 0x60 DUP3 ADD SWAP1 POP PUSH2 0x4BB8 PUSH1 0x0 DUP4 ADD DUP6 PUSH2 0x3988 JUMP JUMPDEST PUSH2 0x4BC5 PUSH1 0x20 DUP4 ADD DUP5 PUSH2 0x3988 JUMP JUMPDEST DUP2 DUP2 SUB PUSH1 0x40 DUP4 ADD MSTORE PUSH2 0x4BD6 DUP2 PUSH2 0x4B80 JUMP JUMPDEST SWAP1 POP SWAP4 SWAP3 POP POP POP JUMP JUMPDEST PUSH32 0x53656C6C65722063616E206E6F74207265676973746572206173206269646465 PUSH1 0x0 DUP3 ADD MSTORE PUSH32 0x7200000000000000000000000000000000000000000000000000000000000000 PUSH1 0x20 DUP3 ADD MSTORE POP JUMP JUMPDEST PUSH1 0x0 PUSH2 0x4C3B PUSH1 0x21 DUP4 PUSH2 0x3593 JUMP JUMPDEST SWAP2 POP PUSH2 0x4C46 DUP3 PUSH2 0x4BDF JUMP JUMPDEST PUSH1 0x40 DUP3 ADD SWAP1 POP SWAP2 SWAP1 POP JUMP JUMPDEST PUSH1 0x0 PUSH1 0x20 DUP3 ADD SWAP1 POP DUP2 DUP2 SUB PUSH1 0x0 DUP4 ADD MSTORE PUSH2 0x4C6A DUP2 PUSH2 0x4C2E JUMP JUMPDEST SWAP1 POP SWAP2 SWAP1 POP JUMP JUMPDEST PUSH32 0x54696D6520666F72207265676973746572696E67206173206120626964646572 PUSH1 0x0 DUP3 ADD MSTORE PUSH32 0x206973207061737365642E000000000000000000000000000000000000000000 PUSH1 0x20 DUP3 ADD MSTORE POP JUMP JUMPDEST PUSH1 0x0 PUSH2 0x4CCD PUSH1 0x2B DUP4 PUSH2 0x3593 JUMP JUMPDEST SWAP2 POP PUSH2 0x4CD8 DUP3 PUSH2 0x4C71 JUMP JUMPDEST PUSH1 0x40 DUP3 ADD SWAP1 POP SWAP2 SWAP1 POP JUMP JUMPDEST PUSH1 0x0 PUSH1 0x20 DUP3 ADD SWAP1 POP DUP2 DUP2 SUB PUSH1 0x0 DUP4 ADD MSTORE PUSH2 0x4CFC DUP2 PUSH2 0x4CC0 JUMP JUMPDEST SWAP1 POP SWAP2 SWAP1 POP JUMP JUMPDEST PUSH1 0x0 PUSH2 0x4D0E DUP3 PUSH2 0x3121 JUMP JUMPDEST SWAP2 POP PUSH32 0xFFFFFFFFFFFFFFFFFFFFFFFFFFFFFFFFFFFFFFFFFFFFFFFFFFFFFFFFFFFFFFFF DUP3 SUB PUSH2 0x4D40 JUMPI PUSH2 0x4D3F PUSH2 0x3FB1 JUMP JUMPDEST JUMPDEST PUSH1 0x1 DUP3 ADD SWAP1 POP SWAP2 SWAP1 POP JUMP JUMPDEST PUSH1 0x0 PUSH2 0x4D56 DUP3 PUSH2 0x3343 JUMP JUMPDEST PUSH2 0x4D60 DUP2 DUP6 PUSH2 0x42A3 JUMP JUMPDEST SWAP4 POP PUSH2 0x4D70 DUP2 DUP6 PUSH1 0x20 DUP7 ADD PUSH2 0x335F JUMP JUMPDEST DUP1 DUP5 ADD SWAP2 POP POP SWAP3 SWAP2 POP POP JUMP JUMPDEST PUSH1 0x0 PUSH2 0x4D88 DUP3 DUP6 PUSH2 0x4D4B JUMP JUMPDEST SWAP2 POP PUSH2 0x4D94 DUP3 DUP5 PUSH2 0x4D4B JUMP JUMPDEST SWAP2 POP DUP2 SWAP1 POP SWAP4 SWAP3 POP POP POP JUMP JUMPDEST PUSH1 0x0 PUSH2 0x4DAC DUP3 DUP5 PUSH2 0x4D4B JUMP JUMPDEST SWAP2 POP DUP2 SWAP1 POP SWAP3 SWAP2 POP POP JUMP JUMPDEST PUSH1 0x0 PUSH2 0x4DC2 DUP3 PUSH2 0x3121 JUMP JUMPDEST SWAP2 POP PUSH2 0x4DCD DUP4 PUSH2 0x3121 JUMP JUMPDEST SWAP3 POP DUP3 DUP3 MUL PUSH2 0x4DDB DUP2 PUSH2 0x3121 JUMP JUMPDEST SWAP2 POP DUP3 DUP3 DIV DUP5 EQ DUP4 ISZERO OR PUSH2 0x4DF2 JUMPI PUSH2 0x4DF1 PUSH2 0x3FB1 JUMP JUMPDEST JUMPDEST POP SWAP3 SWAP2 POP POP JUMP JUMPDEST PUSH32 0x4E487B7100000000000000000000000000000000000000000000000000000000 PUSH1 0x0 MSTORE PUSH1 0x12 PUSH1 0x4 MSTORE PUSH1 0x24 PUSH1 0x0 REVERT INVALID LOG2 PUSH5 0x6970667358 0x22 SLT KECCAK256 0x4A 0xB5 0x4C SWAP9 0xCB 0xDE KECCAK256 CALLVALUE 0xC5 0xA5 PUSH16 0x659E70D61E8A32E0DD7EC5CDDB2F4950 PUSH28 0xA34D772F64736F6C6343000812003300000000000000000000000000 "
		},
		"gasEstimates": {
			"creation": {
				"codeDepositCost": "4012400",
				"executionCost": "75219",
				"totalCost": "4087619"
			},
			"external": {
				"assetDescription()": "infinite",
				"assetName()": "infinite",
				"auctioneer()": "2604",
				"beforeAll()": "infinite",
				"bidders(uint256)": "5023",
				"checkBidder1HashedBidSubmission()": "infinite",
				"checkBidder2AsIncorrectWinner()": "infinite",
				"checkBidder2HashedBidSubmission()": "infinite",
				"checkBidder3CorrectlyDisputes()": "infinite",
				"checkBidder3HashedBidSubmission()": "infinite",
				"checkRegisterBidder1()": "infinite",
				"checkRegisterBidder2()": "infinite",
				"checkRegisterBidder3()": "infinite",
				"dispute(uint256,string)": "infinite",
				"disputedBidders(uint256)": "infinite",
				"encodedBids(address)": "2882",
				"getAllDisputers()": "infinite",
				"getAllWinners()": "infinite",
				"getAuctionInfo()": "infinite",
				"getBidders(uint256)": "5035",
				"registerAuctionInfo(string,string)": "infinite",
				"registerBidder()": "55292",
				"reset()": "infinite",
				"resetEncodedBids()": "infinite",
				"seller()": "2558",
				"startAuction()": "infinite",
				"submitEncodedBid(bytes32)": "infinite",
				"submitWinner(uint256,string)": "infinite",
				"winners(uint256)": "infinite"
			}
		},
		"methodIdentifiers": {
			"assetDescription()": "938626c2",
			"assetName()": "c9230c5d",
			"auctioneer()": "5ec2c7bf",
			"beforeAll()": "7fea0d4b",
			"bidders(uint256)": "cff29dfd",
			"checkBidder1HashedBidSubmission()": "93b25909",
			"checkBidder2AsIncorrectWinner()": "d4f4ed66",
			"checkBidder2HashedBidSubmission()": "7127399a",
			"checkBidder3CorrectlyDisputes()": "8d67b51b",
			"checkBidder3HashedBidSubmission()": "4d3312b6",
			"checkRegisterBidder1()": "3fd486e1",
			"checkRegisterBidder2()": "133f3c3c",
			"checkRegisterBidder3()": "6e56a9ec",
			"dispute(uint256,string)": "66c85dee",
			"disputedBidders(uint256)": "8f772f96",
			"encodedBids(address)": "3817df4c",
			"getAllDisputers()": "35abd160",
			"getAllWinners()": "dc6b8627",
			"getAuctionInfo()": "d94a3505",
			"getBidders(uint256)": "4fa7b507",
			"registerAuctionInfo(string,string)": "a2ebc656",
			"registerBidder()": "f356733c",
			"reset()": "d826f88f",
			"resetEncodedBids()": "40bd5937",
			"seller()": "08551a53",
			"startAuction()": "6b64c769",
			"submitEncodedBid(bytes32)": "ec5d0ab2",
			"submitWinner(uint256,string)": "1744e03b",
			"winners(uint256)": "a2fb1175"
		}
	},
	"abi": [
		{
			"inputs": [],
			"name": "assetDescription",
			"outputs": [
				{
					"internalType": "string",
					"name": "",
					"type": "string"
				}
			],
			"stateMutability": "view",
			"type": "function"
		},
		{
			"inputs": [],
			"name": "assetName",
			"outputs": [
				{
					"internalType": "string",
					"name": "",
					"type": "string"
				}
			],
			"stateMutability": "view",
			"type": "function"
		},
		{
			"inputs": [],
			"name": "auctioneer",
			"outputs": [
				{
					"internalType": "address",
					"name": "",
					"type": "address"
				}
			],
			"stateMutability": "view",
			"type": "function"
		},
		{
			"inputs": [],
			"name": "beforeAll",
			"outputs": [],
			"stateMutability": "nonpayable",
			"type": "function"
		},
		{
			"inputs": [
				{
					"internalType": "uint256",
					"name": "",
					"type": "uint256"
				}
			],
			"name": "bidders",
			"outputs": [
				{
					"internalType": "address",
					"name": "",
					"type": "address"
				}
			],
			"stateMutability": "view",
			"type": "function"
		},
		{
			"inputs": [],
			"name": "checkBidder1HashedBidSubmission",
			"outputs": [],
			"stateMutability": "nonpayable",
			"type": "function"
		},
		{
			"inputs": [],
			"name": "checkBidder2AsIncorrectWinner",
			"outputs": [],
			"stateMutability": "nonpayable",
			"type": "function"
		},
		{
			"inputs": [],
			"name": "checkBidder2HashedBidSubmission",
			"outputs": [],
			"stateMutability": "nonpayable",
			"type": "function"
		},
		{
			"inputs": [],
			"name": "checkBidder3CorrectlyDisputes",
			"outputs": [],
			"stateMutability": "nonpayable",
			"type": "function"
		},
		{
			"inputs": [],
			"name": "checkBidder3HashedBidSubmission",
			"outputs": [],
			"stateMutability": "nonpayable",
			"type": "function"
		},
		{
			"inputs": [],
			"name": "checkRegisterBidder1",
			"outputs": [],
			"stateMutability": "nonpayable",
			"type": "function"
		},
		{
			"inputs": [],
			"name": "checkRegisterBidder2",
			"outputs": [],
			"stateMutability": "nonpayable",
			"type": "function"
		},
		{
			"inputs": [],
			"name": "checkRegisterBidder3",
			"outputs": [],
			"stateMutability": "nonpayable",
			"type": "function"
		},
		{
			"inputs": [
				{
					"internalType": "uint256",
					"name": "inputDisputedBid",
					"type": "uint256"
				},
				{
					"internalType": "string",
					"name": "inputDisputedNonce",
					"type": "string"
				}
			],
			"name": "dispute",
			"outputs": [],
			"stateMutability": "nonpayable",
			"type": "function"
		},
		{
			"inputs": [
				{
					"internalType": "uint256",
					"name": "",
					"type": "uint256"
				}
			],
			"name": "disputedBidders",
			"outputs": [
				{
					"internalType": "uint256",
					"name": "bid",
					"type": "uint256"
				},
				{
					"internalType": "address",
					"name": "disputeAddress",
					"type": "address"
				},
				{
					"internalType": "string",
					"name": "nonce",
					"type": "string"
				}
			],
			"stateMutability": "view",
			"type": "function"
		},
		{
			"inputs": [
				{
					"internalType": "address",
					"name": "",
					"type": "address"
				}
			],
			"name": "encodedBids",
			"outputs": [
				{
					"internalType": "bytes32",
					"name": "",
					"type": "bytes32"
				}
			],
			"stateMutability": "view",
			"type": "function"
		},
		{
			"inputs": [],
			"name": "getAllDisputers",
			"outputs": [
				{
					"components": [
						{
							"internalType": "uint256",
							"name": "bid",
							"type": "uint256"
						},
						{
							"internalType": "address",
							"name": "disputeAddress",
							"type": "address"
						},
						{
							"internalType": "string",
							"name": "nonce",
							"type": "string"
						}
					],
					"internalType": "struct AKEB.DisputedBidders[]",
					"name": "",
					"type": "tuple[]"
				}
			],
			"stateMutability": "view",
			"type": "function"
		},
		{
			"inputs": [],
			"name": "getAllWinners",
			"outputs": [
				{
					"components": [
						{
							"internalType": "address",
							"name": "winnerAddress",
							"type": "address"
						},
						{
							"internalType": "uint256",
							"name": "bid",
							"type": "uint256"
						},
						{
							"internalType": "string",
							"name": "nonce",
							"type": "string"
						}
					],
					"internalType": "struct AKEB.winner[]",
					"name": "",
					"type": "tuple[]"
				}
			],
			"stateMutability": "view",
			"type": "function"
		},
		{
			"inputs": [],
			"name": "getAuctionInfo",
			"outputs": [
				{
					"internalType": "string",
					"name": "",
					"type": "string"
				},
				{
					"internalType": "string",
					"name": "",
					"type": "string"
				}
			],
			"stateMutability": "view",
			"type": "function"
		},
		{
			"inputs": [
				{
					"internalType": "uint256",
					"name": "index",
					"type": "uint256"
				}
			],
			"name": "getBidders",
			"outputs": [
				{
					"internalType": "address",
					"name": "",
					"type": "address"
				}
			],
			"stateMutability": "view",
			"type": "function"
		},
		{
			"inputs": [
				{
					"internalType": "string",
					"name": "assetNameInput",
					"type": "string"
				},
				{
					"internalType": "string",
					"name": "assetDescriptionInput",
					"type": "string"
				}
			],
			"name": "registerAuctionInfo",
			"outputs": [],
			"stateMutability": "nonpayable",
			"type": "function"
		},
		{
			"inputs": [],
			"name": "registerBidder",
			"outputs": [],
			"stateMutability": "nonpayable",
			"type": "function"
		},
		{
			"inputs": [],
			"name": "reset",
			"outputs": [],
			"stateMutability": "nonpayable",
			"type": "function"
		},
		{
			"inputs": [],
			"name": "resetEncodedBids",
			"outputs": [],
			"stateMutability": "nonpayable",
			"type": "function"
		},
		{
			"inputs": [],
			"name": "seller",
			"outputs": [
				{
					"internalType": "address",
					"name": "",
					"type": "address"
				}
			],
			"stateMutability": "view",
			"type": "function"
		},
		{
			"inputs": [],
			"name": "startAuction",
			"outputs": [],
			"stateMutability": "nonpayable",
			"type": "function"
		},
		{
			"inputs": [
				{
					"internalType": "bytes32",
					"name": "inputEncodedBid",
					"type": "bytes32"
				}
			],
			"name": "submitEncodedBid",
			"outputs": [],
			"stateMutability": "nonpayable",
			"type": "function"
		},
		{
			"inputs": [
				{
					"internalType": "uint256",
					"name": "inputWinnerBid",
					"type": "uint256"
				},
				{
					"internalType": "string",
					"name": "inputwinnerNonce",
					"type": "string"
				}
			],
			"name": "submitWinner",
			"outputs": [],
			"stateMutability": "nonpayable",
			"type": "function"
		},
		{
			"inputs": [
				{
					"internalType": "uint256",
					"name": "",
					"type": "uint256"
				}
			],
			"name": "winners",
			"outputs": [
				{
					"internalType": "address",
					"name": "winnerAddress",
					"type": "address"
				},
				{
					"internalType": "uint256",
					"name": "bid",
					"type": "uint256"
				},
				{
					"internalType": "string",
					"name": "nonce",
					"type": "string"
				}
			],
			"stateMutability": "view",
			"type": "function"
		}
	]
}