{
	"data": {
		"bytecode": {
			"linkReferences": {
				"remix_accounts.sol": {
					"TestsAccounts": [
						{
							"length": 20,
							"start": 1308
						},
						{
							"length": 20,
							"start": 2500
						},
						{
							"length": 20,
							"start": 5104
						},
						{
							"length": 20,
							"start": 5528
						},
						{
							"length": 20,
							"start": 6285
						},
						{
							"length": 20,
							"start": 6470
						},
						{
							"length": 20,
							"start": 6655
						}
					]
				},
				"remix_tests.sol": {
					"Assert": [
						{
							"length": 20,
							"start": 1282
						},
						{
							"length": 20,
							"start": 2474
						},
						{
							"length": 20,
							"start": 3024
						},
						{
							"length": 20,
							"start": 3309
						},
						{
							"length": 20,
							"start": 4395
						},
						{
							"length": 20,
							"start": 4737
						},
						{
							"length": 20,
							"start": 5078
						},
						{
							"length": 20,
							"start": 5353
						},
						{
							"length": 20,
							"start": 5502
						},
						{
							"length": 20,
							"start": 5810
						},
						{
							"length": 20,
							"start": 6095
						},
						{
							"length": 20,
							"start": 7567
						},
						{
							"length": 20,
							"start": 7852
						}
					]
				}
			},
			"object": "608060405260016007556000600860006101000a81548160ff02191690831515021790555034801561003057600080fd5b5033600160006101000a81548173ffffffffffffffffffffffffffffffffffffffff021916908373ffffffffffffffffffffffffffffffffffffffff160217905550614cd2806100816000396000f3fe608060405234801561001057600080fd5b50600436106101a95760003560e01c80637127399a116100f9578063c9230c5d11610097578063d94a350511610071578063d94a3505146103f0578063dc6b86271461040f578063ec5d0ab21461042d578063f356733c14610449576101a9565b8063c9230c5d14610398578063cff29dfd146103b6578063d826f88f146103e6576101a9565b8063938626c2116100d3578063938626c21461032257806393b2590914610340578063a2ebc6561461034a578063a2fb117514610366576101a9565b80637127399a146102dc5780637fea0d4b146102e65780638f772f96146102f0576101a9565b806340bd5937116101665780635ec2c7bf116101405780635ec2c7bf1461028e57806366c85dee146102ac5780636b64c769146102c85780636e56a9ec146102d2576101a9565b806340bd59371461024a5780634d3312b6146102545780634fa7b5071461025e576101a9565b806308551a53146101ae578063133f3c3c146101cc5780631744e03b146101d657806335abd160146101f25780633817df4c146102105780633fd486e114610240575b600080fd5b6101b6610453565b6040516101c39190612e7a565b60405180910390f35b6101d4610477565b005b6101f060048036038101906101eb9190613025565b6105b3565b005b6101fa610760565b6040516102079190613230565b60405180910390f35b61022a6004803603810190610225919061327e565b610907565b60405161023791906132c4565b60405180910390f35b61024861091f565b005b610252610a5b565b005b61025c610b4d565b005b610278600480360381019061027391906132df565b610d28565b6040516102859190612e7a565b60405180910390f35b610296610d70565b6040516102a39190612e7a565b60405180910390f35b6102c660048036038101906102c19190613025565b610d96565b005b6102d0611034565b005b6102da6114f3565b005b6102e461162f565b005b6102ee61180a565b005b61030a600480360381019061030591906132df565b611b9c565b60405161031993929190613365565b60405180910390f35b61032a611c7e565b60405161033791906133a3565b60405180910390f35b610348611d0c565b005b610364600480360381019061035f91906133c5565b611ee7565b005b610380600480360381019061037b91906132df565b611f6e565b60405161038f9392919061343d565b60405180910390f35b6103a0612050565b6040516103ad91906133a3565b60405180910390f35b6103d060048036038101906103cb91906132df565b6120de565b6040516103dd9190612e7a565b60405180910390f35b6103ee61211d565b005b6103f86121ee565b60405161040692919061347b565b60405180910390f35b61041761236b565b60405161042491906135c4565b60405180910390f35b61044760048036038101906104429190613612565b612512565b005b6104516125fd565b005b60008054906101000a900473ffffffffffffffffffffffffffffffffffffffff1681565b61047f6125fd565b73__$acbfb1c35000d78352310b16a054a6b106$__63bfba5dd673__$1068a87eb54ed04c4e435de35b2ebf536f$__63ce88b14560036040518263ffffffff1660e01b81526004016104d19190613684565b602060405180830381865af41580156104ee573d6000803e3d6000fd5b505050506040513d601f19601f8201168201806040525081019061051291906136b4565b6009600181548110610527576105266136e1565b5b9060005260206000200160009054906101000a900473ffffffffffffffffffffffffffffffffffffffff166040518363ffffffff1660e01b815260040161056f92919061377c565b602060405180830381865af415801561058c573d6000803e3d6000fd5b505050506040513d601f19601f820116820180604052508101906105b091906137f0565b50565b60011515600860009054906101000a900460ff16151514610609576040517f08c379a000000000000000000000000000000000000000000000000000000000815260040161060090613869565b60405180910390fd5b600554421161064d576040517f08c379a0000000000000000000000000000000000000000000000000000000008152600401610644906138fb565b60405180910390fd5b6006544210610691576040517f08c379a00000000000000000000000000000000000000000000000000000000081526004016106889061398d565b60405180910390fd5b600060405180606001604052803373ffffffffffffffffffffffffffffffffffffffff168152602001848152602001838152509050600b81908060018154018082558091505060019003906000526020600020906003020160009091909190915060008201518160000160006101000a81548173ffffffffffffffffffffffffffffffffffffffff021916908373ffffffffffffffffffffffffffffffffffffffff1602179055506020820151816001015560408201518160020190816107589190613baf565b505050505050565b606060011515600860009054906101000a900460ff161515146107b8576040517f08c379a00000000000000000000000000000000000000000000000000000000081526004016107af90613869565b60405180910390fd5b600c805480602002602001604051908101604052809291908181526020016000905b828210156108fe5783829060005260206000209060030201604051806060016040529081600082015481526020016001820160009054906101000a900473ffffffffffffffffffffffffffffffffffffffff1673ffffffffffffffffffffffffffffffffffffffff1673ffffffffffffffffffffffffffffffffffffffff16815260200160028201805461086d906139dc565b80601f0160208091040260200160405190810160405280929190818152602001828054610899906139dc565b80156108e65780601f106108bb576101008083540402835291602001916108e6565b820191906000526020600020905b8154815290600101906020018083116108c957829003601f168201915b505050505081525050815260200190600101906107da565b50505050905090565b600a6020528060005260406000206000915090505481565b6109276125fd565b73__$acbfb1c35000d78352310b16a054a6b106$__63bfba5dd673__$1068a87eb54ed04c4e435de35b2ebf536f$__63ce88b14560026040518263ffffffff1660e01b81526004016109799190613cbc565b602060405180830381865af4158015610996573d6000803e3d6000fd5b505050506040513d601f19601f820116820180604052508101906109ba91906136b4565b60096000815481106109cf576109ce6136e1565b5b9060005260206000200160009054906101000a900473ffffffffffffffffffffffffffffffffffffffff166040518363ffffffff1660e01b8152600401610a17929190613d23565b602060405180830381865af4158015610a34573d6000803e3d6000fd5b505050506040513d601f19601f82011682018060405250810190610a5891906137f0565b50565b6006544211610a9f576040517f08c379a0000000000000000000000000000000000000000000000000000000008152600401610a9690613dab565b60405180910390fd5b60005b600980549050811015610b4a57600060098281548110610ac557610ac46136e1565b5b9060005260206000200160009054906101000a900473ffffffffffffffffffffffffffffffffffffffff169050600a60008273ffffffffffffffffffffffffffffffffffffffff1673ffffffffffffffffffffffffffffffffffffffff1681526020019081526020016000206000905550600181610b439190613dfa565b9050610aa2565b50565b73__$acbfb1c35000d78352310b16a054a6b106$__63ea79dd79610bfd60165460178054610b7a906139dc565b80601f0160208091040260200160405190810160405280929190818152602001828054610ba6906139dc565b8015610bf35780601f10610bc857610100808354040283529160200191610bf3565b820191906000526020600020905b815481529060010190602001808311610bd657829003601f168201915b505050505061278a565b6018546040518363ffffffff1660e01b8152600401610c1d929190613e89565b602060405180830381865af4158015610c3a573d6000803e3d6000fd5b505050506040513d601f19601f82011682018060405250810190610c5e91906137f0565b50610c6a601854612512565b73__$acbfb1c35000d78352310b16a054a6b106$__63ea79dd79601854600a60003373ffffffffffffffffffffffffffffffffffffffff1673ffffffffffffffffffffffffffffffffffffffff168152602001908152602001600020546040518363ffffffff1660e01b8152600401610ce4929190613f37565b602060405180830381865af4158015610d01573d6000803e3d6000fd5b505050506040513d601f19601f82011682018060405250810190610d2591906137f0565b50565b600060098281548110610d3e57610d3d6136e1565b5b9060005260206000200160009054906101000a900473ffffffffffffffffffffffffffffffffffffffff169050919050565b600160009054906101000a900473ffffffffffffffffffffffffffffffffffffffff1681565b60011515600860009054906101000a900460ff16151514610dec576040517f08c379a0000000000000000000000000000000000000000000000000000000008152600401610de390613869565b60405180910390fd5b6005544211610e30576040517f08c379a0000000000000000000000000000000000000000000000000000000008152600401610e2790613fe5565b60405180910390fd5b6006544210610e74576040517f08c379a0000000000000000000000000000000000000000000000000000000008152600401610e6b90614051565b60405180910390fd5b6000610e80838361278a565b905080600a60003373ffffffffffffffffffffffffffffffffffffffff1673ffffffffffffffffffffffffffffffffffffffff1681526020019081526020016000205414610f03576040517f08c379a0000000000000000000000000000000000000000000000000000000008152600401610efa906140e3565b60405180910390fd5b60011515610f1084612837565b151514610f52576040517f08c379a0000000000000000000000000000000000000000000000000000000008152600401610f499061419b565b60405180910390fd5b610f5a6128a1565b610f6483836128b1565b600060405180606001604052808581526020013373ffffffffffffffffffffffffffffffffffffffff168152602001848152509050600c8190806001815401808255809150506001900390600052602060002090600302016000909190919091506000820151816000015560208201518160010160006101000a81548173ffffffffffffffffffffffffffffffffffffffff021916908373ffffffffffffffffffffffffffffffffffffffff160217905550604082015181600201908161102b9190613baf565b50505050505050565b6110a86040518060400160405280600581526020017f77617463680000000000000000000000000000000000000000000000000000008152506040518060400160405280600b81526020017f6772656174207761746368000000000000000000000000000000000000000000815250611ee7565b73__$acbfb1c35000d78352310b16a054a6b106$__6339df137f60026040516020016110d390614212565b6040516020818303038152906040526040516110ef919061426e565b602060405180830381855afa15801561110c573d6000803e3d6000fd5b5050506040513d601f19601f8201168201806040525081019061112f919061429a565b60026003604051602001611143919061434a565b60405160208183030381529060405260405161115f919061426e565b602060405180830381855afa15801561117c573d6000803e3d6000fd5b5050506040513d601f19601f8201168201806040525081019061119f919061429a565b146040518263ffffffff1660e01b81526004016111bc91906143e2565b602060405180830381865af41580156111d9573d6000803e3d6000fd5b505050506040513d601f19601f820116820180604052508101906111fd91906137f0565b5073__$acbfb1c35000d78352310b16a054a6b106$__6339df137f60026040516020016112299061445c565b604051602081830303815290604052604051611245919061426e565b602060405180830381855afa158015611262573d6000803e3d6000fd5b5050506040513d601f19601f82011682018060405250810190611285919061429a565b600280604051602001611298919061434a565b6040516020818303038152906040526040516112b4919061426e565b602060405180830381855afa1580156112d1573d6000803e3d6000fd5b5050506040513d601f19601f820116820180604052508101906112f4919061429a565b146040518263ffffffff1660e01b815260040161131191906144e3565b602060405180830381865af415801561132e573d6000803e3d6000fd5b505050506040513d601f19601f8201168201806040525081019061135291906137f0565b5073__$acbfb1c35000d78352310b16a054a6b106$__63bfba5dd673__$1068a87eb54ed04c4e435de35b2ebf536f$__63ce88b14560016040518263ffffffff1660e01b81526004016113a5919061454c565b602060405180830381865af41580156113c2573d6000803e3d6000fd5b505050506040513d601f19601f820116820180604052508101906113e691906136b4565b60008054906101000a900473ffffffffffffffffffffffffffffffffffffffff166040518363ffffffff1660e01b81526004016114249291906145b3565b602060405180830381865af4158015611441573d6000803e3d6000fd5b505050506040513d601f19601f8201168201806040525081019061146591906137f0565b5073__$acbfb1c35000d78352310b16a054a6b106$__63767392b3600860009054906101000a900460ff1660016040518363ffffffff1660e01b81526004016114af92919061463b565b602060405180830381865af41580156114cc573d6000803e3d6000fd5b505050506040513d601f19601f820116820180604052508101906114f091906137f0565b50565b6114fb6125fd565b73__$acbfb1c35000d78352310b16a054a6b106$__63bfba5dd673__$1068a87eb54ed04c4e435de35b2ebf536f$__63ce88b14560046040518263ffffffff1660e01b815260040161154d91906146b2565b602060405180830381865af415801561156a573d6000803e3d6000fd5b505050506040513d601f19601f8201168201806040525081019061158e91906136b4565b60096002815481106115a3576115a26136e1565b5b9060005260206000200160009054906101000a900473ffffffffffffffffffffffffffffffffffffffff166040518363ffffffff1660e01b81526004016115eb929190614719565b602060405180830381865af4158015611608573d6000803e3d6000fd5b505050506040513d601f19601f8201168201806040525081019061162c91906137f0565b50565b73__$acbfb1c35000d78352310b16a054a6b106$__63ea79dd796116df6012546013805461165c906139dc565b80601f0160208091040260200160405190810160405280929190818152602001828054611688906139dc565b80156116d55780601f106116aa576101008083540402835291602001916116d5565b820191906000526020600020905b8154815290600101906020018083116116b857829003601f168201915b505050505061278a565b6014546040518363ffffffff1660e01b81526004016116ff9291906147a1565b602060405180830381865af415801561171c573d6000803e3d6000fd5b505050506040513d601f19601f8201168201806040525081019061174091906137f0565b5061174c601454612512565b73__$acbfb1c35000d78352310b16a054a6b106$__63ea79dd79601454600a60003373ffffffffffffffffffffffffffffffffffffffff1673ffffffffffffffffffffffffffffffffffffffff168152602001908152602001600020546040518363ffffffff1660e01b81526004016117c692919061484f565b602060405180830381865af41580156117e3573d6000803e3d6000fd5b505050506040513d601f19601f8201168201806040525081019061180791906137f0565b50565b73__$1068a87eb54ed04c4e435de35b2ebf536f$__63ce88b14560026040518263ffffffff1660e01b81526004016118429190613cbc565b602060405180830381865af415801561185f573d6000803e3d6000fd5b505050506040513d601f19601f8201168201806040525081019061188391906136b4565b600d60006101000a81548173ffffffffffffffffffffffffffffffffffffffff021916908373ffffffffffffffffffffffffffffffffffffffff16021790555073__$1068a87eb54ed04c4e435de35b2ebf536f$__63ce88b14560036040518263ffffffff1660e01b81526004016118fb9190613684565b602060405180830381865af4158015611918573d6000803e3d6000fd5b505050506040513d601f19601f8201168201806040525081019061193c91906136b4565b601160006101000a81548173ffffffffffffffffffffffffffffffffffffffff021916908373ffffffffffffffffffffffffffffffffffffffff16021790555073__$1068a87eb54ed04c4e435de35b2ebf536f$__63ce88b14560046040518263ffffffff1660e01b81526004016119b491906146b2565b602060405180830381865af41580156119d1573d6000803e3d6000fd5b505050506040513d601f19601f820116820180604052508101906119f591906136b4565b601560006101000a81548173ffffffffffffffffffffffffffffffffffffffff021916908373ffffffffffffffffffffffffffffffffffffffff160217905550600b600e819055506040518060400160405280600481526020017f6269643100000000000000000000000000000000000000000000000000000000815250600f9081611a819190613baf565b507f5647b2fc56179a52d9885e3188a4624e65f45772d1dc4ce067b8380d04a3997760001b60108190555060166012819055506040518060400160405280600481526020017f626964320000000000000000000000000000000000000000000000000000000081525060139081611af89190613baf565b507f50c3208089b13dbbf91f80db31299cf2b996a7d2e671b5f49c6d513a89f63df160001b60148190555060216016819055506040518060400160405280600481526020017f626964330000000000000000000000000000000000000000000000000000000081525060179081611b6f9190613baf565b507fcec60b8bf0259b4ebd98f5b55fd70f78622e0623b1fff9f4e88c4cedcdbc0f5f60001b601881905550565b600c8181548110611bac57600080fd5b90600052602060002090600302016000915090508060000154908060010160009054906101000a900473ffffffffffffffffffffffffffffffffffffffff1690806002018054611bfb906139dc565b80601f0160208091040260200160405190810160405280929190818152602001828054611c27906139dc565b8015611c745780601f10611c4957610100808354040283529160200191611c74565b820191906000526020600020905b815481529060010190602001808311611c5757829003601f168201915b5050505050905083565b60028054611c8b906139dc565b80601f0160208091040260200160405190810160405280929190818152602001828054611cb7906139dc565b8015611d045780601f10611cd957610100808354040283529160200191611d04565b820191906000526020600020905b815481529060010190602001808311611ce757829003601f168201915b505050505081565b73__$acbfb1c35000d78352310b16a054a6b106$__63ea79dd79611dbc600e54600f8054611d39906139dc565b80601f0160208091040260200160405190810160405280929190818152602001828054611d65906139dc565b8015611db25780601f10611d8757610100808354040283529160200191611db2565b820191906000526020600020905b815481529060010190602001808311611d9557829003601f168201915b505050505061278a565b6010546040518363ffffffff1660e01b8152600401611ddc9291906148d7565b602060405180830381865af4158015611df9573d6000803e3d6000fd5b505050506040513d601f19601f82011682018060405250810190611e1d91906137f0565b50611e29601054612512565b73__$acbfb1c35000d78352310b16a054a6b106$__63ea79dd79601054600a60003373ffffffffffffffffffffffffffffffffffffffff1673ffffffffffffffffffffffffffffffffffffffff168152602001908152602001600020546040518363ffffffff1660e01b8152600401611ea3929190614985565b602060405180830381865af4158015611ec0573d6000803e3d6000fd5b505050506040513d601f19601f82011682018060405250810190611ee491906137f0565b50565b336000806101000a81548173ffffffffffffffffffffffffffffffffffffffff021916908373ffffffffffffffffffffffffffffffffffffffff1602179055508160039081611f369190613baf565b508060029081611f469190613baf565b50611f4f612980565b6001600860006101000a81548160ff0219169083151502179055505050565b600b8181548110611f7e57600080fd5b90600052602060002090600302016000915090508060000160009054906101000a900473ffffffffffffffffffffffffffffffffffffffff1690806001015490806002018054611fcd906139dc565b80601f0160208091040260200160405190810160405280929190818152602001828054611ff9906139dc565b80156120465780601f1061201b57610100808354040283529160200191612046565b820191906000526020600020905b81548152906001019060200180831161202957829003601f168201915b5050505050905083565b6003805461205d906139dc565b80601f0160208091040260200160405190810160405280929190818152602001828054612089906139dc565b80156120d65780601f106120ab576101008083540402835291602001916120d6565b820191906000526020600020905b8154815290600101906020018083116120b957829003601f168201915b505050505081565b600981815481106120ee57600080fd5b906000526020600020016000915054906101000a900473ffffffffffffffffffffffffffffffffffffffff1681565b6006544211612161576040517f08c379a000000000000000000000000000000000000000000000000000000000815260040161215890613dab565b60405180910390fd5b600b600061216f9190612cc7565b604051806020016040528060008152506002908161218d9190613baf565b5060405180602001604052806000815250600390816121ac9190613baf565b506121b5610a5b565b600960006121c39190612ceb565b600c60006121d19190612d0c565b6000600860006101000a81548160ff021916908315150217905550565b60608060011515600860009054906101000a900460ff16151514612247576040517f08c379a000000000000000000000000000000000000000000000000000000000815260040161223e90613869565b60405180910390fd5b60036002818054612257906139dc565b80601f0160208091040260200160405190810160405280929190818152602001828054612283906139dc565b80156122d05780601f106122a5576101008083540402835291602001916122d0565b820191906000526020600020905b8154815290600101906020018083116122b357829003601f168201915b505050505091508080546122e3906139dc565b80601f016020809104026020016040519081016040528092919081815260200182805461230f906139dc565b801561235c5780601f106123315761010080835404028352916020019161235c565b820191906000526020600020905b81548152906001019060200180831161233f57829003601f168201915b50505050509050915091509091565b606060011515600860009054906101000a900460ff161515146123c3576040517f08c379a00000000000000000000000000000000000000000000000000000000081526004016123ba90613869565b60405180910390fd5b600b805480602002602001604051908101604052809291908181526020016000905b8282101561250957838290600052602060002090600302016040518060600160405290816000820160009054906101000a900473ffffffffffffffffffffffffffffffffffffffff1673ffffffffffffffffffffffffffffffffffffffff1673ffffffffffffffffffffffffffffffffffffffff16815260200160018201548152602001600282018054612478906139dc565b80601f01602080910402602001604051908101604052809291908181526020018280546124a4906139dc565b80156124f15780601f106124c6576101008083540402835291602001916124f1565b820191906000526020600020905b8154815290600101906020018083116124d457829003601f168201915b505050505081525050815260200190600101906123e5565b50505050905090565b60011515600860009054906101000a900460ff16151514612568576040517f08c379a000000000000000000000000000000000000000000000000000000000815260040161255f90613869565b60405180910390fd5b600115156125746129fa565b1515146125b6576040517f08c379a00000000000000000000000000000000000000000000000000000000081526004016125ad90614a33565b60405180910390fd5b80600a60003373ffffffffffffffffffffffffffffffffffffffff1673ffffffffffffffffffffffffffffffffffffffff1681526020019081526020016000208190555050565b60011515600860009054906101000a900460ff16151514612653576040517f08c379a000000000000000000000000000000000000000000000000000000000815260040161264a90613869565b60405180910390fd5b60008054906101000a900473ffffffffffffffffffffffffffffffffffffffff1673ffffffffffffffffffffffffffffffffffffffff163373ffffffffffffffffffffffffffffffffffffffff16036126e1576040517f08c379a00000000000000000000000000000000000000000000000000000000081526004016126d890614ac5565b60405180910390fd5b6004544210612725576040517f08c379a000000000000000000000000000000000000000000000000000000000815260040161271c90614b57565b60405180910390fd5b6009339080600181540180825580915050600190039060005260206000200160009091909190916101000a81548173ffffffffffffffffffffffffffffffffffffffff021916908373ffffffffffffffffffffffffffffffffffffffff160217905550565b60008061279684612aa6565b9050600081846040516020016127ad929190614ba8565b60405160208183030381529060405290506002816040516020016127d19190614bcc565b6040516020818303038152906040526040516127ed919061426e565b602060405180830381855afa15801561280a573d6000803e3d6000fd5b5050506040513d601f19601f8201168201806040525081019061282d919061429a565b9250505092915050565b600080600090505b600b8054905081101561289657600b81815481106128605761285f6136e1565b5b90600052602060002090600302016001015483111561288357600191505061289c565b808061288e90614be3565b91505061283f565b50600090505b919050565b600b60006128af9190612cc7565b565b600060405180606001604052803373ffffffffffffffffffffffffffffffffffffffff168152602001848152602001838152509050600b81908060018154018082558091505060019003906000526020600020906003020160009091909190915060008201518160000160006101000a81548173ffffffffffffffffffffffffffffffffffffffff021916908373ffffffffffffffffffffffffffffffffffffffff1602179055506020820151816001015560408201518160020190816129789190613baf565b505050505050565b603c60075461298f9190614c2b565b4261299a9190613dfa565b600481905550603c60075460026129b19190614c2b565b6129bb9190614c2b565b426129c69190613dfa565b600581905550603c60075460036129dd9190614c2b565b6129e79190614c2b565b426129f29190613dfa565b600681905550565b600080600090505b600980549050811015612a9d5760098181548110612a2357612a226136e1565b5b9060005260206000200160009054906101000a900473ffffffffffffffffffffffffffffffffffffffff1673ffffffffffffffffffffffffffffffffffffffff163373ffffffffffffffffffffffffffffffffffffffff1603612a8a576001915050612aa3565b8080612a9590614be3565b915050612a02565b50600090505b90565b606060006001612ab584612b74565b01905060008167ffffffffffffffff811115612ad457612ad3612efa565b5b6040519080825280601f01601f191660200182016040528015612b065781602001600182028036833780820191505090505b509050600082602001820190505b600115612b69578080600190039150507f3031323334353637383961626364656600000000000000000000000000000000600a86061a8153600a8581612b5d57612b5c614c6d565b5b04945060008503612b14575b819350505050919050565b600080600090507a184f03e93ff9f4daa797ed6e38ed64bf6a1f0100000000000000008310612bd2577a184f03e93ff9f4daa797ed6e38ed64bf6a1f0100000000000000008381612bc857612bc7614c6d565b5b0492506040810190505b6d04ee2d6d415b85acef81000000008310612c0f576d04ee2d6d415b85acef81000000008381612c0557612c04614c6d565b5b0492506020810190505b662386f26fc100008310612c3e57662386f26fc100008381612c3457612c33614c6d565b5b0492506010810190505b6305f5e1008310612c67576305f5e1008381612c5d57612c5c614c6d565b5b0492506008810190505b6127108310612c8c576127108381612c8257612c81614c6d565b5b0492506004810190505b60648310612caf5760648381612ca557612ca4614c6d565b5b0492506002810190505b600a8310612cbe576001810190505b80915050919050565b5080546000825560030290600052602060002090810190612ce89190612d30565b50565b5080546000825590600052602060002090810190612d099190612d86565b50565b5080546000825560030290600052602060002090810190612d2d9190612da3565b50565b5b80821115612d8257600080820160006101000a81549073ffffffffffffffffffffffffffffffffffffffff02191690556001820160009055600282016000612d799190612df9565b50600301612d31565b5090565b5b80821115612d9f576000816000905550600101612d87565b5090565b5b80821115612df5576000808201600090556001820160006101000a81549073ffffffffffffffffffffffffffffffffffffffff0219169055600282016000612dec9190612df9565b50600301612da4565b5090565b508054612e05906139dc565b6000825580601f10612e175750612e36565b601f016020900490600052602060002090810190612e359190612d86565b5b50565b600073ffffffffffffffffffffffffffffffffffffffff82169050919050565b6000612e6482612e39565b9050919050565b612e7481612e59565b82525050565b6000602082019050612e8f6000830184612e6b565b92915050565b6000604051905090565b600080fd5b600080fd5b6000819050919050565b612ebc81612ea9565b8114612ec757600080fd5b50565b600081359050612ed981612eb3565b92915050565b600080fd5b600080fd5b6000601f19601f8301169050919050565b7f4e487b7100000000000000000000000000000000000000000000000000000000600052604160045260246000fd5b612f3282612ee9565b810181811067ffffffffffffffff82111715612f5157612f50612efa565b5b80604052505050565b6000612f64612e95565b9050612f708282612f29565b919050565b600067ffffffffffffffff821115612f9057612f8f612efa565b5b612f9982612ee9565b9050602081019050919050565b82818337600083830152505050565b6000612fc8612fc384612f75565b612f5a565b905082815260208101848484011115612fe457612fe3612ee4565b5b612fef848285612fa6565b509392505050565b600082601f83011261300c5761300b612edf565b5b813561301c848260208601612fb5565b91505092915050565b6000806040838503121561303c5761303b612e9f565b5b600061304a85828601612eca565b925050602083013567ffffffffffffffff81111561306b5761306a612ea4565b5b61307785828601612ff7565b9150509250929050565b600081519050919050565b600082825260208201905092915050565b6000819050602082019050919050565b6130b681612ea9565b82525050565b6130c581612e59565b82525050565b600081519050919050565b600082825260208201905092915050565b60005b838110156131055780820151818401526020810190506130ea565b60008484015250505050565b600061311c826130cb565b61312681856130d6565b93506131368185602086016130e7565b61313f81612ee9565b840191505092915050565b600060608301600083015161316260008601826130ad565b50602083015161317560208601826130bc565b506040830151848203604086015261318d8282613111565b9150508091505092915050565b60006131a6838361314a565b905092915050565b6000602082019050919050565b60006131c682613081565b6131d0818561308c565b9350836020820285016131e28561309d565b8060005b8581101561321e57848403895281516131ff858261319a565b945061320a836131ae565b925060208a019950506001810190506131e6565b50829750879550505050505092915050565b6000602082019050818103600083015261324a81846131bb565b905092915050565b61325b81612e59565b811461326657600080fd5b50565b60008135905061327881613252565b92915050565b60006020828403121561329457613293612e9f565b5b60006132a284828501613269565b91505092915050565b6000819050919050565b6132be816132ab565b82525050565b60006020820190506132d960008301846132b5565b92915050565b6000602082840312156132f5576132f4612e9f565b5b600061330384828501612eca565b91505092915050565b61331581612ea9565b82525050565b600082825260208201905092915050565b6000613337826130cb565b613341818561331b565b93506133518185602086016130e7565b61335a81612ee9565b840191505092915050565b600060608201905061337a600083018661330c565b6133876020830185612e6b565b8181036040830152613399818461332c565b9050949350505050565b600060208201905081810360008301526133bd818461332c565b905092915050565b600080604083850312156133dc576133db612e9f565b5b600083013567ffffffffffffffff8111156133fa576133f9612ea4565b5b61340685828601612ff7565b925050602083013567ffffffffffffffff81111561342757613426612ea4565b5b61343385828601612ff7565b9150509250929050565b60006060820190506134526000830186612e6b565b61345f602083018561330c565b8181036040830152613471818461332c565b9050949350505050565b60006040820190508181036000830152613495818561332c565b905081810360208301526134a9818461332c565b90509392505050565b600081519050919050565b600082825260208201905092915050565b6000819050602082019050919050565b60006060830160008301516134f660008601826130bc565b50602083015161350960208601826130ad565b50604083015184820360408601526135218282613111565b9150508091505092915050565b600061353a83836134de565b905092915050565b6000602082019050919050565b600061355a826134b2565b61356481856134bd565b935083602082028501613576856134ce565b8060005b858110156135b25784840389528151613593858261352e565b945061359e83613542565b925060208a0199505060018101905061357a565b50829750879550505050505092915050565b600060208201905081810360008301526135de818461354f565b905092915050565b6135ef816132ab565b81146135fa57600080fd5b50565b60008135905061360c816135e6565b92915050565b60006020828403121561362857613627612e9f565b5b6000613636848285016135fd565b91505092915050565b6000819050919050565b6000819050919050565b600061366e6136696136648461363f565b613649565b612ea9565b9050919050565b61367e81613653565b82525050565b60006020820190506136996000830184613675565b92915050565b6000815190506136ae81613252565b92915050565b6000602082840312156136ca576136c9612e9f565b5b60006136d88482850161369f565b91505092915050565b7f4e487b7100000000000000000000000000000000000000000000000000000000600052603260045260246000fd5b61371981612e59565b82525050565b600082825260208201905092915050565b7f6269646465722031206973206e6f7420726567697374657265642e0000000000600082015250565b6000613766601b8361371f565b915061377182613730565b602082019050919050565b60006060820190506137916000830185613710565b61379e6020830184613710565b81810360408301526137af81613759565b90509392505050565b60008115159050919050565b6137cd816137b8565b81146137d857600080fd5b50565b6000815190506137ea816137c4565b92915050565b60006020828403121561380657613805612e9f565b5b6000613814848285016137db565b91505092915050565b7f5468657265206973206e6f20737461727465642061756374696f6e206e6f7700600082015250565b6000613853601f8361331b565b915061385e8261381d565b602082019050919050565b6000602082019050818103600083015261388281613846565b9050919050565b7f57696e6e6572207375626d697373696f6e20706861736520686173206e6f742060008201527f73746172746564207965742e0000000000000000000000000000000000000000602082015250565b60006138e5602c8361331b565b91506138f082613889565b604082019050919050565b60006020820190508181036000830152613914816138d8565b9050919050565b7f57696e6e6572207375626d697373696f6e2074696d652068617320706173736560008201527f642e000000000000000000000000000000000000000000000000000000000000602082015250565b600061397760228361331b565b91506139828261391b565b604082019050919050565b600060208201905081810360008301526139a68161396a565b9050919050565b7f4e487b7100000000000000000000000000000000000000000000000000000000600052602260045260246000fd5b600060028204905060018216806139f457607f821691505b602082108103613a0757613a066139ad565b5b50919050565b60008190508160005260206000209050919050565b60006020601f8301049050919050565b600082821b905092915050565b600060088302613a6f7fffffffffffffffffffffffffffffffffffffffffffffffffffffffffffffffff82613a32565b613a798683613a32565b95508019841693508086168417925050509392505050565b6000613aac613aa7613aa284612ea9565b613649565b612ea9565b9050919050565b6000819050919050565b613ac683613a91565b613ada613ad282613ab3565b848454613a3f565b825550505050565b600090565b613aef613ae2565b613afa818484613abd565b505050565b5b81811015613b1e57613b13600082613ae7565b600181019050613b00565b5050565b601f821115613b6357613b3481613a0d565b613b3d84613a22565b81016020851015613b4c578190505b613b60613b5885613a22565b830182613aff565b50505b505050565b600082821c905092915050565b6000613b8660001984600802613b68565b1980831691505092915050565b6000613b9f8383613b75565b9150826002028217905092915050565b613bb8826130cb565b67ffffffffffffffff811115613bd157613bd0612efa565b5b613bdb82546139dc565b613be6828285613b22565b600060209050601f831160018114613c195760008415613c07578287015190505b613c118582613b93565b865550613c79565b601f198416613c2786613a0d565b60005b82811015613c4f57848901518255600182019150602085019450602081019050613c2a565b86831015613c6c5784890151613c68601f891682613b75565b8355505b6001600288020188555050505b505050505050565b6000819050919050565b6000613ca6613ca1613c9c84613c81565b613649565b612ea9565b9050919050565b613cb681613c8b565b82525050565b6000602082019050613cd16000830184613cad565b92915050565b7f6269646465722030206973206e6f7420726567697374657265642e0000000000600082015250565b6000613d0d601b8361371f565b9150613d1882613cd7565b602082019050919050565b6000606082019050613d386000830185613710565b613d456020830184613710565b8181036040830152613d5681613d00565b90509392505050565b7f41756374696f6e206973206e6f7420636f6d706c65746564207965742e000000600082015250565b6000613d95601d8361331b565b9150613da082613d5f565b602082019050919050565b60006020820190508181036000830152613dc481613d88565b9050919050565b7f4e487b7100000000000000000000000000000000000000000000000000000000600052601160045260246000fd5b6000613e0582612ea9565b9150613e1083612ea9565b9250828201905080821115613e2857613e27613dcb565b5b92915050565b613e37816132ab565b82525050565b7f6861736833206973206e6f7420636f7272656374000000000000000000000000600082015250565b6000613e7360148361371f565b9150613e7e82613e3d565b602082019050919050565b6000606082019050613e9e6000830185613e2e565b613eab6020830184613e2e565b8181036040830152613ebc81613e66565b90509392505050565b7f6861736833206f66206269646465722033206973206e6f74207375626d69747460008201527f6564000000000000000000000000000000000000000000000000000000000000602082015250565b6000613f2160228361371f565b9150613f2c82613ec5565b604082019050919050565b6000606082019050613f4c6000830185613e2e565b613f596020830184613e2e565b8181036040830152613f6a81613f14565b90509392505050565b7f4469737075746520706861736520686173206e6f74207374617274656420796560008201527f742e000000000000000000000000000000000000000000000000000000000000602082015250565b6000613fcf60228361331b565b9150613fda82613f73565b604082019050919050565b60006020820190508181036000830152613ffe81613fc2565b9050919050565b7f4469737075746520706861736520686173207061737365642e00000000000000600082015250565b600061403b60198361331b565b915061404682614005565b602082019050919050565b6000602082019050818103600083015261406a8161402e565b9050919050565b7f5468652062696420616e64206e6f6e636520796f75207375626d69747465642060008201527f617265206e6f742076616c69642e000000000000000000000000000000000000602082015250565b60006140cd602e8361331b565b91506140d882614071565b604082019050919050565b600060208201905081810360008301526140fc816140c0565b9050919050565b7f596f75722064697370757465206973206e6f742076616c69642073696e63652060008201527f6974206973206e6f742067726561746572207468616e206174206c656173742060208201527f6f6e652077696e6e65722e000000000000000000000000000000000000000000604082015250565b6000614185604b8361331b565b915061419082614103565b606082019050919050565b600060208201905081810360008301526141b481614178565b9050919050565b600081905092915050565b7f7761746368000000000000000000000000000000000000000000000000000000600082015250565b60006141fc6005836141bb565b9150614207826141c6565b600582019050919050565b600061421d826141ef565b9150819050919050565b600081519050919050565b600081905092915050565b600061424882614227565b6142528185614232565b93506142628185602086016130e7565b80840191505092915050565b600061427a828461423d565b915081905092915050565b600081519050614294816135e6565b92915050565b6000602082840312156142b0576142af612e9f565b5b60006142be84828501614285565b91505092915050565b600081546142d4816139dc565b6142de81866141bb565b945060018216600081146142f9576001811461430e57614341565b60ff1983168652811515820286019350614341565b61431785613a0d565b60005b838110156143395781548189015260018201915060208101905061431a565b838801955050505b50505092915050565b600061435682846142c7565b915081905092915050565b61436a816137b8565b82525050565b7f746865206e616d65206f66206173736574206973206e6f7420636f727265637460008201527f6c792073746f7265640000000000000000000000000000000000000000000000602082015250565b60006143cc60298361371f565b91506143d782614370565b604082019050919050565b60006040820190506143f76000830184614361565b8181036020830152614408816143bf565b905092915050565b7f6772656174207761746368000000000000000000000000000000000000000000600082015250565b6000614446600b836141bb565b915061445182614410565b600b82019050919050565b600061446782614439565b9150819050919050565b7f746865206465736372697074696f6e206f66206173736574206973206e6f742060008201527f636f72726563746c792073746f72656400000000000000000000000000000000602082015250565b60006144cd60308361371f565b91506144d882614471565b604082019050919050565b60006040820190506144f86000830184614361565b8181036020830152614509816144c0565b905092915050565b6000819050919050565b600061453661453161452c84614511565b613649565b612ea9565b9050919050565b6145468161451b565b82525050565b6000602082019050614561600083018461453d565b92915050565b7f61646472657373206f662073656c6c657220697320696e636f72726563742e00600082015250565b600061459d601f8361371f565b91506145a882614567565b602082019050919050565b60006060820190506145c86000830185613710565b6145d56020830184613710565b81810360408301526145e681614590565b90509392505050565b7f41756374696f6e2073686f756c64206265207374617274656400000000000000600082015250565b600061462560198361371f565b9150614630826145ef565b602082019050919050565b60006060820190506146506000830185614361565b61465d6020830184614361565b818103604083015261466e81614618565b90509392505050565b6000819050919050565b600061469c61469761469284614677565b613649565b612ea9565b9050919050565b6146ac81614681565b82525050565b60006020820190506146c760008301846146a3565b92915050565b7f6269646465722032206973206e6f7420726567697374657265642e0000000000600082015250565b6000614703601b8361371f565b915061470e826146cd565b602082019050919050565b600060608201905061472e6000830185613710565b61473b6020830184613710565b818103604083015261474c816146f6565b90509392505050565b7f6861736832206973206e6f7420636f7272656374000000000000000000000000600082015250565b600061478b60148361371f565b915061479682614755565b602082019050919050565b60006060820190506147b66000830185613e2e565b6147c36020830184613e2e565b81810360408301526147d48161477e565b90509392505050565b7f6861736832206f66206269646465722032206973206e6f74207375626d69747460008201527f6564000000000000000000000000000000000000000000000000000000000000602082015250565b600061483960228361371f565b9150614844826147dd565b604082019050919050565b60006060820190506148646000830185613e2e565b6148716020830184613e2e565b81810360408301526148828161482c565b90509392505050565b7f6861736831206973206e6f7420636f7272656374000000000000000000000000600082015250565b60006148c160148361371f565b91506148cc8261488b565b602082019050919050565b60006060820190506148ec6000830185613e2e565b6148f96020830184613e2e565b818103604083015261490a816148b4565b90509392505050565b7f6861736831206f66206269646465722031206973206e6f74207375626d69747460008201527f6564000000000000000000000000000000000000000000000000000000000000602082015250565b600061496f60228361371f565b915061497a82614913565b604082019050919050565b600060608201905061499a6000830185613e2e565b6149a76020830184613e2e565b81810360408301526149b881614962565b90509392505050565b7f4f6e6c792072656769737465726564206269646465722063616e2063616c6c2060008201527f746869732066756e6374696f6e00000000000000000000000000000000000000602082015250565b6000614a1d602d8361331b565b9150614a28826149c1565b604082019050919050565b60006020820190508181036000830152614a4c81614a10565b9050919050565b7f53656c6c65722063616e206e6f7420726567697374657220617320626964646560008201527f7200000000000000000000000000000000000000000000000000000000000000602082015250565b6000614aaf60218361331b565b9150614aba82614a53565b604082019050919050565b60006020820190508181036000830152614ade81614aa2565b9050919050565b7f54696d6520666f72207265676973746572696e6720617320612062696464657260008201527f206973207061737365642e000000000000000000000000000000000000000000602082015250565b6000614b41602b8361331b565b9150614b4c82614ae5565b604082019050919050565b60006020820190508181036000830152614b7081614b34565b9050919050565b6000614b82826130cb565b614b8c81856141bb565b9350614b9c8185602086016130e7565b80840191505092915050565b6000614bb48285614b77565b9150614bc08284614b77565b91508190509392505050565b6000614bd88284614b77565b915081905092915050565b6000614bee82612ea9565b91507fffffffffffffffffffffffffffffffffffffffffffffffffffffffffffffffff8203614c2057614c1f613dcb565b5b600182019050919050565b6000614c3682612ea9565b9150614c4183612ea9565b9250828202614c4f81612ea9565b91508282048414831517614c6657614c65613dcb565b5b5092915050565b7f4e487b7100000000000000000000000000000000000000000000000000000000600052601260045260246000fdfea26469706673582212206534d7f048453b7846f425c7d1222405530b891e9ec8ce8ee0764bc83b65c12564736f6c63430008120033",
			"opcodes": "PUSH1 0x80 PUSH1 0x40 MSTORE PUSH1 0x1 PUSH1 0x7 SSTORE PUSH1 0x0 PUSH1 0x8 PUSH1 0x0 PUSH2 0x100 EXP DUP2 SLOAD DUP2 PUSH1 0xFF MUL NOT AND SWAP1 DUP4 ISZERO ISZERO MUL OR SWAP1 SSTORE POP CALLVALUE DUP1 ISZERO PUSH2 0x30 JUMPI PUSH1 0x0 DUP1 REVERT JUMPDEST POP CALLER PUSH1 0x1 PUSH1 0x0 PUSH2 0x100 EXP DUP2 SLOAD DUP2 PUSH20 0xFFFFFFFFFFFFFFFFFFFFFFFFFFFFFFFFFFFFFFFF MUL NOT AND SWAP1 DUP4 PUSH20 0xFFFFFFFFFFFFFFFFFFFFFFFFFFFFFFFFFFFFFFFF AND MUL OR SWAP1 SSTORE POP PUSH2 0x4CD2 DUP1 PUSH2 0x81 PUSH1 0x0 CODECOPY PUSH1 0x0 RETURN INVALID PUSH1 0x80 PUSH1 0x40 MSTORE CALLVALUE DUP1 ISZERO PUSH2 0x10 JUMPI PUSH1 0x0 DUP1 REVERT JUMPDEST POP PUSH1 0x4 CALLDATASIZE LT PUSH2 0x1A9 JUMPI PUSH1 0x0 CALLDATALOAD PUSH1 0xE0 SHR DUP1 PUSH4 0x7127399A GT PUSH2 0xF9 JUMPI DUP1 PUSH4 0xC9230C5D GT PUSH2 0x97 JUMPI DUP1 PUSH4 0xD94A3505 GT PUSH2 0x71 JUMPI DUP1 PUSH4 0xD94A3505 EQ PUSH2 0x3F0 JUMPI DUP1 PUSH4 0xDC6B8627 EQ PUSH2 0x40F JUMPI DUP1 PUSH4 0xEC5D0AB2 EQ PUSH2 0x42D JUMPI DUP1 PUSH4 0xF356733C EQ PUSH2 0x449 JUMPI PUSH2 0x1A9 JUMP JUMPDEST DUP1 PUSH4 0xC9230C5D EQ PUSH2 0x398 JUMPI DUP1 PUSH4 0xCFF29DFD EQ PUSH2 0x3B6 JUMPI DUP1 PUSH4 0xD826F88F EQ PUSH2 0x3E6 JUMPI PUSH2 0x1A9 JUMP JUMPDEST DUP1 PUSH4 0x938626C2 GT PUSH2 0xD3 JUMPI DUP1 PUSH4 0x938626C2 EQ PUSH2 0x322 JUMPI DUP1 PUSH4 0x93B25909 EQ PUSH2 0x340 JUMPI DUP1 PUSH4 0xA2EBC656 EQ PUSH2 0x34A JUMPI DUP1 PUSH4 0xA2FB1175 EQ PUSH2 0x366 JUMPI PUSH2 0x1A9 JUMP JUMPDEST DUP1 PUSH4 0x7127399A EQ PUSH2 0x2DC JUMPI DUP1 PUSH4 0x7FEA0D4B EQ PUSH2 0x2E6 JUMPI DUP1 PUSH4 0x8F772F96 EQ PUSH2 0x2F0 JUMPI PUSH2 0x1A9 JUMP JUMPDEST DUP1 PUSH4 0x40BD5937 GT PUSH2 0x166 JUMPI DUP1 PUSH4 0x5EC2C7BF GT PUSH2 0x140 JUMPI DUP1 PUSH4 0x5EC2C7BF EQ PUSH2 0x28E JUMPI DUP1 PUSH4 0x66C85DEE EQ PUSH2 0x2AC JUMPI DUP1 PUSH4 0x6B64C769 EQ PUSH2 0x2C8 JUMPI DUP1 PUSH4 0x6E56A9EC EQ PUSH2 0x2D2 JUMPI PUSH2 0x1A9 JUMP JUMPDEST DUP1 PUSH4 0x40BD5937 EQ PUSH2 0x24A JUMPI DUP1 PUSH4 0x4D3312B6 EQ PUSH2 0x254 JUMPI DUP1 PUSH4 0x4FA7B507 EQ PUSH2 0x25E JUMPI PUSH2 0x1A9 JUMP JUMPDEST DUP1 PUSH4 0x8551A53 EQ PUSH2 0x1AE JUMPI DUP1 PUSH4 0x133F3C3C EQ PUSH2 0x1CC JUMPI DUP1 PUSH4 0x1744E03B EQ PUSH2 0x1D6 JUMPI DUP1 PUSH4 0x35ABD160 EQ PUSH2 0x1F2 JUMPI DUP1 PUSH4 0x3817DF4C EQ PUSH2 0x210 JUMPI DUP1 PUSH4 0x3FD486E1 EQ PUSH2 0x240 JUMPI JUMPDEST PUSH1 0x0 DUP1 REVERT JUMPDEST PUSH2 0x1B6 PUSH2 0x453 JUMP JUMPDEST PUSH1 0x40 MLOAD PUSH2 0x1C3 SWAP2 SWAP1 PUSH2 0x2E7A JUMP JUMPDEST PUSH1 0x40 MLOAD DUP1 SWAP2 SUB SWAP1 RETURN JUMPDEST PUSH2 0x1D4 PUSH2 0x477 JUMP JUMPDEST STOP JUMPDEST PUSH2 0x1F0 PUSH1 0x4 DUP1 CALLDATASIZE SUB DUP2 ADD SWAP1 PUSH2 0x1EB SWAP2 SWAP1 PUSH2 0x3025 JUMP JUMPDEST PUSH2 0x5B3 JUMP JUMPDEST STOP JUMPDEST PUSH2 0x1FA PUSH2 0x760 JUMP JUMPDEST PUSH1 0x40 MLOAD PUSH2 0x207 SWAP2 SWAP1 PUSH2 0x3230 JUMP JUMPDEST PUSH1 0x40 MLOAD DUP1 SWAP2 SUB SWAP1 RETURN JUMPDEST PUSH2 0x22A PUSH1 0x4 DUP1 CALLDATASIZE SUB DUP2 ADD SWAP1 PUSH2 0x225 SWAP2 SWAP1 PUSH2 0x327E JUMP JUMPDEST PUSH2 0x907 JUMP JUMPDEST PUSH1 0x40 MLOAD PUSH2 0x237 SWAP2 SWAP1 PUSH2 0x32C4 JUMP JUMPDEST PUSH1 0x40 MLOAD DUP1 SWAP2 SUB SWAP1 RETURN JUMPDEST PUSH2 0x248 PUSH2 0x91F JUMP JUMPDEST STOP JUMPDEST PUSH2 0x252 PUSH2 0xA5B JUMP JUMPDEST STOP JUMPDEST PUSH2 0x25C PUSH2 0xB4D JUMP JUMPDEST STOP JUMPDEST PUSH2 0x278 PUSH1 0x4 DUP1 CALLDATASIZE SUB DUP2 ADD SWAP1 PUSH2 0x273 SWAP2 SWAP1 PUSH2 0x32DF JUMP JUMPDEST PUSH2 0xD28 JUMP JUMPDEST PUSH1 0x40 MLOAD PUSH2 0x285 SWAP2 SWAP1 PUSH2 0x2E7A JUMP JUMPDEST PUSH1 0x40 MLOAD DUP1 SWAP2 SUB SWAP1 RETURN JUMPDEST PUSH2 0x296 PUSH2 0xD70 JUMP JUMPDEST PUSH1 0x40 MLOAD PUSH2 0x2A3 SWAP2 SWAP1 PUSH2 0x2E7A JUMP JUMPDEST PUSH1 0x40 MLOAD DUP1 SWAP2 SUB SWAP1 RETURN JUMPDEST PUSH2 0x2C6 PUSH1 0x4 DUP1 CALLDATASIZE SUB DUP2 ADD SWAP1 PUSH2 0x2C1 SWAP2 SWAP1 PUSH2 0x3025 JUMP JUMPDEST PUSH2 0xD96 JUMP JUMPDEST STOP JUMPDEST PUSH2 0x2D0 PUSH2 0x1034 JUMP JUMPDEST STOP JUMPDEST PUSH2 0x2DA PUSH2 0x14F3 JUMP JUMPDEST STOP JUMPDEST PUSH2 0x2E4 PUSH2 0x162F JUMP JUMPDEST STOP JUMPDEST PUSH2 0x2EE PUSH2 0x180A JUMP JUMPDEST STOP JUMPDEST PUSH2 0x30A PUSH1 0x4 DUP1 CALLDATASIZE SUB DUP2 ADD SWAP1 PUSH2 0x305 SWAP2 SWAP1 PUSH2 0x32DF JUMP JUMPDEST PUSH2 0x1B9C JUMP JUMPDEST PUSH1 0x40 MLOAD PUSH2 0x319 SWAP4 SWAP3 SWAP2 SWAP1 PUSH2 0x3365 JUMP JUMPDEST PUSH1 0x40 MLOAD DUP1 SWAP2 SUB SWAP1 RETURN JUMPDEST PUSH2 0x32A PUSH2 0x1C7E JUMP JUMPDEST PUSH1 0x40 MLOAD PUSH2 0x337 SWAP2 SWAP1 PUSH2 0x33A3 JUMP JUMPDEST PUSH1 0x40 MLOAD DUP1 SWAP2 SUB SWAP1 RETURN JUMPDEST PUSH2 0x348 PUSH2 0x1D0C JUMP JUMPDEST STOP JUMPDEST PUSH2 0x364 PUSH1 0x4 DUP1 CALLDATASIZE SUB DUP2 ADD SWAP1 PUSH2 0x35F SWAP2 SWAP1 PUSH2 0x33C5 JUMP JUMPDEST PUSH2 0x1EE7 JUMP JUMPDEST STOP JUMPDEST PUSH2 0x380 PUSH1 0x4 DUP1 CALLDATASIZE SUB DUP2 ADD SWAP1 PUSH2 0x37B SWAP2 SWAP1 PUSH2 0x32DF JUMP JUMPDEST PUSH2 0x1F6E JUMP JUMPDEST PUSH1 0x40 MLOAD PUSH2 0x38F SWAP4 SWAP3 SWAP2 SWAP1 PUSH2 0x343D JUMP JUMPDEST PUSH1 0x40 MLOAD DUP1 SWAP2 SUB SWAP1 RETURN JUMPDEST PUSH2 0x3A0 PUSH2 0x2050 JUMP JUMPDEST PUSH1 0x40 MLOAD PUSH2 0x3AD SWAP2 SWAP1 PUSH2 0x33A3 JUMP JUMPDEST PUSH1 0x40 MLOAD DUP1 SWAP2 SUB SWAP1 RETURN JUMPDEST PUSH2 0x3D0 PUSH1 0x4 DUP1 CALLDATASIZE SUB DUP2 ADD SWAP1 PUSH2 0x3CB SWAP2 SWAP1 PUSH2 0x32DF JUMP JUMPDEST PUSH2 0x20DE JUMP JUMPDEST PUSH1 0x40 MLOAD PUSH2 0x3DD SWAP2 SWAP1 PUSH2 0x2E7A JUMP JUMPDEST PUSH1 0x40 MLOAD DUP1 SWAP2 SUB SWAP1 RETURN JUMPDEST PUSH2 0x3EE PUSH2 0x211D JUMP JUMPDEST STOP JUMPDEST PUSH2 0x3F8 PUSH2 0x21EE JUMP JUMPDEST PUSH1 0x40 MLOAD PUSH2 0x406 SWAP3 SWAP2 SWAP1 PUSH2 0x347B JUMP JUMPDEST PUSH1 0x40 MLOAD DUP1 SWAP2 SUB SWAP1 RETURN JUMPDEST PUSH2 0x417 PUSH2 0x236B JUMP JUMPDEST PUSH1 0x40 MLOAD PUSH2 0x424 SWAP2 SWAP1 PUSH2 0x35C4 JUMP JUMPDEST PUSH1 0x40 MLOAD DUP1 SWAP2 SUB SWAP1 RETURN JUMPDEST PUSH2 0x447 PUSH1 0x4 DUP1 CALLDATASIZE SUB DUP2 ADD SWAP1 PUSH2 0x442 SWAP2 SWAP1 PUSH2 0x3612 JUMP JUMPDEST PUSH2 0x2512 JUMP JUMPDEST STOP JUMPDEST PUSH2 0x451 PUSH2 0x25FD JUMP JUMPDEST STOP JUMPDEST PUSH1 0x0 DUP1 SLOAD SWAP1 PUSH2 0x100 EXP SWAP1 DIV PUSH20 0xFFFFFFFFFFFFFFFFFFFFFFFFFFFFFFFFFFFFFFFF AND DUP2 JUMP JUMPDEST PUSH2 0x47F PUSH2 0x25FD JUMP JUMPDEST PUSH20 0x0 PUSH4 0xBFBA5DD6 PUSH20 0x0 PUSH4 0xCE88B145 PUSH1 0x3 PUSH1 0x40 MLOAD DUP3 PUSH4 0xFFFFFFFF AND PUSH1 0xE0 SHL DUP2 MSTORE PUSH1 0x4 ADD PUSH2 0x4D1 SWAP2 SWAP1 PUSH2 0x3684 JUMP JUMPDEST PUSH1 0x20 PUSH1 0x40 MLOAD DUP1 DUP4 SUB DUP2 DUP7 GAS DELEGATECALL ISZERO DUP1 ISZERO PUSH2 0x4EE JUMPI RETURNDATASIZE PUSH1 0x0 DUP1 RETURNDATACOPY RETURNDATASIZE PUSH1 0x0 REVERT JUMPDEST POP POP POP POP PUSH1 0x40 MLOAD RETURNDATASIZE PUSH1 0x1F NOT PUSH1 0x1F DUP3 ADD AND DUP3 ADD DUP1 PUSH1 0x40 MSTORE POP DUP2 ADD SWAP1 PUSH2 0x512 SWAP2 SWAP1 PUSH2 0x36B4 JUMP JUMPDEST PUSH1 0x9 PUSH1 0x1 DUP2 SLOAD DUP2 LT PUSH2 0x527 JUMPI PUSH2 0x526 PUSH2 0x36E1 JUMP JUMPDEST JUMPDEST SWAP1 PUSH1 0x0 MSTORE PUSH1 0x20 PUSH1 0x0 KECCAK256 ADD PUSH1 0x0 SWAP1 SLOAD SWAP1 PUSH2 0x100 EXP SWAP1 DIV PUSH20 0xFFFFFFFFFFFFFFFFFFFFFFFFFFFFFFFFFFFFFFFF AND PUSH1 0x40 MLOAD DUP4 PUSH4 0xFFFFFFFF AND PUSH1 0xE0 SHL DUP2 MSTORE PUSH1 0x4 ADD PUSH2 0x56F SWAP3 SWAP2 SWAP1 PUSH2 0x377C JUMP JUMPDEST PUSH1 0x20 PUSH1 0x40 MLOAD DUP1 DUP4 SUB DUP2 DUP7 GAS DELEGATECALL ISZERO DUP1 ISZERO PUSH2 0x58C JUMPI RETURNDATASIZE PUSH1 0x0 DUP1 RETURNDATACOPY RETURNDATASIZE PUSH1 0x0 REVERT JUMPDEST POP POP POP POP PUSH1 0x40 MLOAD RETURNDATASIZE PUSH1 0x1F NOT PUSH1 0x1F DUP3 ADD AND DUP3 ADD DUP1 PUSH1 0x40 MSTORE POP DUP2 ADD SWAP1 PUSH2 0x5B0 SWAP2 SWAP1 PUSH2 0x37F0 JUMP JUMPDEST POP JUMP JUMPDEST PUSH1 0x1 ISZERO ISZERO PUSH1 0x8 PUSH1 0x0 SWAP1 SLOAD SWAP1 PUSH2 0x100 EXP SWAP1 DIV PUSH1 0xFF AND ISZERO ISZERO EQ PUSH2 0x609 JUMPI PUSH1 0x40 MLOAD PUSH32 0x8C379A000000000000000000000000000000000000000000000000000000000 DUP2 MSTORE PUSH1 0x4 ADD PUSH2 0x600 SWAP1 PUSH2 0x3869 JUMP JUMPDEST PUSH1 0x40 MLOAD DUP1 SWAP2 SUB SWAP1 REVERT JUMPDEST PUSH1 0x5 SLOAD TIMESTAMP GT PUSH2 0x64D JUMPI PUSH1 0x40 MLOAD PUSH32 0x8C379A000000000000000000000000000000000000000000000000000000000 DUP2 MSTORE PUSH1 0x4 ADD PUSH2 0x644 SWAP1 PUSH2 0x38FB JUMP JUMPDEST PUSH1 0x40 MLOAD DUP1 SWAP2 SUB SWAP1 REVERT JUMPDEST PUSH1 0x6 SLOAD TIMESTAMP LT PUSH2 0x691 JUMPI PUSH1 0x40 MLOAD PUSH32 0x8C379A000000000000000000000000000000000000000000000000000000000 DUP2 MSTORE PUSH1 0x4 ADD PUSH2 0x688 SWAP1 PUSH2 0x398D JUMP JUMPDEST PUSH1 0x40 MLOAD DUP1 SWAP2 SUB SWAP1 REVERT JUMPDEST PUSH1 0x0 PUSH1 0x40 MLOAD DUP1 PUSH1 0x60 ADD PUSH1 0x40 MSTORE DUP1 CALLER PUSH20 0xFFFFFFFFFFFFFFFFFFFFFFFFFFFFFFFFFFFFFFFF AND DUP2 MSTORE PUSH1 0x20 ADD DUP5 DUP2 MSTORE PUSH1 0x20 ADD DUP4 DUP2 MSTORE POP SWAP1 POP PUSH1 0xB DUP2 SWAP1 DUP1 PUSH1 0x1 DUP2 SLOAD ADD DUP1 DUP3 SSTORE DUP1 SWAP2 POP POP PUSH1 0x1 SWAP1 SUB SWAP1 PUSH1 0x0 MSTORE PUSH1 0x20 PUSH1 0x0 KECCAK256 SWAP1 PUSH1 0x3 MUL ADD PUSH1 0x0 SWAP1 SWAP2 SWAP1 SWAP2 SWAP1 SWAP2 POP PUSH1 0x0 DUP3 ADD MLOAD DUP2 PUSH1 0x0 ADD PUSH1 0x0 PUSH2 0x100 EXP DUP2 SLOAD DUP2 PUSH20 0xFFFFFFFFFFFFFFFFFFFFFFFFFFFFFFFFFFFFFFFF MUL NOT AND SWAP1 DUP4 PUSH20 0xFFFFFFFFFFFFFFFFFFFFFFFFFFFFFFFFFFFFFFFF AND MUL OR SWAP1 SSTORE POP PUSH1 0x20 DUP3 ADD MLOAD DUP2 PUSH1 0x1 ADD SSTORE PUSH1 0x40 DUP3 ADD MLOAD DUP2 PUSH1 0x2 ADD SWAP1 DUP2 PUSH2 0x758 SWAP2 SWAP1 PUSH2 0x3BAF JUMP JUMPDEST POP POP POP POP POP POP JUMP JUMPDEST PUSH1 0x60 PUSH1 0x1 ISZERO ISZERO PUSH1 0x8 PUSH1 0x0 SWAP1 SLOAD SWAP1 PUSH2 0x100 EXP SWAP1 DIV PUSH1 0xFF AND ISZERO ISZERO EQ PUSH2 0x7B8 JUMPI PUSH1 0x40 MLOAD PUSH32 0x8C379A000000000000000000000000000000000000000000000000000000000 DUP2 MSTORE PUSH1 0x4 ADD PUSH2 0x7AF SWAP1 PUSH2 0x3869 JUMP JUMPDEST PUSH1 0x40 MLOAD DUP1 SWAP2 SUB SWAP1 REVERT JUMPDEST PUSH1 0xC DUP1 SLOAD DUP1 PUSH1 0x20 MUL PUSH1 0x20 ADD PUSH1 0x40 MLOAD SWAP1 DUP2 ADD PUSH1 0x40 MSTORE DUP1 SWAP3 SWAP2 SWAP1 DUP2 DUP2 MSTORE PUSH1 0x20 ADD PUSH1 0x0 SWAP1 JUMPDEST DUP3 DUP3 LT ISZERO PUSH2 0x8FE JUMPI DUP4 DUP3 SWAP1 PUSH1 0x0 MSTORE PUSH1 0x20 PUSH1 0x0 KECCAK256 SWAP1 PUSH1 0x3 MUL ADD PUSH1 0x40 MLOAD DUP1 PUSH1 0x60 ADD PUSH1 0x40 MSTORE SWAP1 DUP2 PUSH1 0x0 DUP3 ADD SLOAD DUP2 MSTORE PUSH1 0x20 ADD PUSH1 0x1 DUP3 ADD PUSH1 0x0 SWAP1 SLOAD SWAP1 PUSH2 0x100 EXP SWAP1 DIV PUSH20 0xFFFFFFFFFFFFFFFFFFFFFFFFFFFFFFFFFFFFFFFF AND PUSH20 0xFFFFFFFFFFFFFFFFFFFFFFFFFFFFFFFFFFFFFFFF AND PUSH20 0xFFFFFFFFFFFFFFFFFFFFFFFFFFFFFFFFFFFFFFFF AND DUP2 MSTORE PUSH1 0x20 ADD PUSH1 0x2 DUP3 ADD DUP1 SLOAD PUSH2 0x86D SWAP1 PUSH2 0x39DC JUMP JUMPDEST DUP1 PUSH1 0x1F ADD PUSH1 0x20 DUP1 SWAP2 DIV MUL PUSH1 0x20 ADD PUSH1 0x40 MLOAD SWAP1 DUP2 ADD PUSH1 0x40 MSTORE DUP1 SWAP3 SWAP2 SWAP1 DUP2 DUP2 MSTORE PUSH1 0x20 ADD DUP3 DUP1 SLOAD PUSH2 0x899 SWAP1 PUSH2 0x39DC JUMP JUMPDEST DUP1 ISZERO PUSH2 0x8E6 JUMPI DUP1 PUSH1 0x1F LT PUSH2 0x8BB JUMPI PUSH2 0x100 DUP1 DUP4 SLOAD DIV MUL DUP4 MSTORE SWAP2 PUSH1 0x20 ADD SWAP2 PUSH2 0x8E6 JUMP JUMPDEST DUP3 ADD SWAP2 SWAP1 PUSH1 0x0 MSTORE PUSH1 0x20 PUSH1 0x0 KECCAK256 SWAP1 JUMPDEST DUP2 SLOAD DUP2 MSTORE SWAP1 PUSH1 0x1 ADD SWAP1 PUSH1 0x20 ADD DUP1 DUP4 GT PUSH2 0x8C9 JUMPI DUP3 SWAP1 SUB PUSH1 0x1F AND DUP3 ADD SWAP2 JUMPDEST POP POP POP POP POP DUP2 MSTORE POP POP DUP2 MSTORE PUSH1 0x20 ADD SWAP1 PUSH1 0x1 ADD SWAP1 PUSH2 0x7DA JUMP JUMPDEST POP POP POP POP SWAP1 POP SWAP1 JUMP JUMPDEST PUSH1 0xA PUSH1 0x20 MSTORE DUP1 PUSH1 0x0 MSTORE PUSH1 0x40 PUSH1 0x0 KECCAK256 PUSH1 0x0 SWAP2 POP SWAP1 POP SLOAD DUP2 JUMP JUMPDEST PUSH2 0x927 PUSH2 0x25FD JUMP JUMPDEST PUSH20 0x0 PUSH4 0xBFBA5DD6 PUSH20 0x0 PUSH4 0xCE88B145 PUSH1 0x2 PUSH1 0x40 MLOAD DUP3 PUSH4 0xFFFFFFFF AND PUSH1 0xE0 SHL DUP2 MSTORE PUSH1 0x4 ADD PUSH2 0x979 SWAP2 SWAP1 PUSH2 0x3CBC JUMP JUMPDEST PUSH1 0x20 PUSH1 0x40 MLOAD DUP1 DUP4 SUB DUP2 DUP7 GAS DELEGATECALL ISZERO DUP1 ISZERO PUSH2 0x996 JUMPI RETURNDATASIZE PUSH1 0x0 DUP1 RETURNDATACOPY RETURNDATASIZE PUSH1 0x0 REVERT JUMPDEST POP POP POP POP PUSH1 0x40 MLOAD RETURNDATASIZE PUSH1 0x1F NOT PUSH1 0x1F DUP3 ADD AND DUP3 ADD DUP1 PUSH1 0x40 MSTORE POP DUP2 ADD SWAP1 PUSH2 0x9BA SWAP2 SWAP1 PUSH2 0x36B4 JUMP JUMPDEST PUSH1 0x9 PUSH1 0x0 DUP2 SLOAD DUP2 LT PUSH2 0x9CF JUMPI PUSH2 0x9CE PUSH2 0x36E1 JUMP JUMPDEST JUMPDEST SWAP1 PUSH1 0x0 MSTORE PUSH1 0x20 PUSH1 0x0 KECCAK256 ADD PUSH1 0x0 SWAP1 SLOAD SWAP1 PUSH2 0x100 EXP SWAP1 DIV PUSH20 0xFFFFFFFFFFFFFFFFFFFFFFFFFFFFFFFFFFFFFFFF AND PUSH1 0x40 MLOAD DUP4 PUSH4 0xFFFFFFFF AND PUSH1 0xE0 SHL DUP2 MSTORE PUSH1 0x4 ADD PUSH2 0xA17 SWAP3 SWAP2 SWAP1 PUSH2 0x3D23 JUMP JUMPDEST PUSH1 0x20 PUSH1 0x40 MLOAD DUP1 DUP4 SUB DUP2 DUP7 GAS DELEGATECALL ISZERO DUP1 ISZERO PUSH2 0xA34 JUMPI RETURNDATASIZE PUSH1 0x0 DUP1 RETURNDATACOPY RETURNDATASIZE PUSH1 0x0 REVERT JUMPDEST POP POP POP POP PUSH1 0x40 MLOAD RETURNDATASIZE PUSH1 0x1F NOT PUSH1 0x1F DUP3 ADD AND DUP3 ADD DUP1 PUSH1 0x40 MSTORE POP DUP2 ADD SWAP1 PUSH2 0xA58 SWAP2 SWAP1 PUSH2 0x37F0 JUMP JUMPDEST POP JUMP JUMPDEST PUSH1 0x6 SLOAD TIMESTAMP GT PUSH2 0xA9F JUMPI PUSH1 0x40 MLOAD PUSH32 0x8C379A000000000000000000000000000000000000000000000000000000000 DUP2 MSTORE PUSH1 0x4 ADD PUSH2 0xA96 SWAP1 PUSH2 0x3DAB JUMP JUMPDEST PUSH1 0x40 MLOAD DUP1 SWAP2 SUB SWAP1 REVERT JUMPDEST PUSH1 0x0 JUMPDEST PUSH1 0x9 DUP1 SLOAD SWAP1 POP DUP2 LT ISZERO PUSH2 0xB4A JUMPI PUSH1 0x0 PUSH1 0x9 DUP3 DUP2 SLOAD DUP2 LT PUSH2 0xAC5 JUMPI PUSH2 0xAC4 PUSH2 0x36E1 JUMP JUMPDEST JUMPDEST SWAP1 PUSH1 0x0 MSTORE PUSH1 0x20 PUSH1 0x0 KECCAK256 ADD PUSH1 0x0 SWAP1 SLOAD SWAP1 PUSH2 0x100 EXP SWAP1 DIV PUSH20 0xFFFFFFFFFFFFFFFFFFFFFFFFFFFFFFFFFFFFFFFF AND SWAP1 POP PUSH1 0xA PUSH1 0x0 DUP3 PUSH20 0xFFFFFFFFFFFFFFFFFFFFFFFFFFFFFFFFFFFFFFFF AND PUSH20 0xFFFFFFFFFFFFFFFFFFFFFFFFFFFFFFFFFFFFFFFF AND DUP2 MSTORE PUSH1 0x20 ADD SWAP1 DUP2 MSTORE PUSH1 0x20 ADD PUSH1 0x0 KECCAK256 PUSH1 0x0 SWAP1 SSTORE POP PUSH1 0x1 DUP2 PUSH2 0xB43 SWAP2 SWAP1 PUSH2 0x3DFA JUMP JUMPDEST SWAP1 POP PUSH2 0xAA2 JUMP JUMPDEST POP JUMP JUMPDEST PUSH20 0x0 PUSH4 0xEA79DD79 PUSH2 0xBFD PUSH1 0x16 SLOAD PUSH1 0x17 DUP1 SLOAD PUSH2 0xB7A SWAP1 PUSH2 0x39DC JUMP JUMPDEST DUP1 PUSH1 0x1F ADD PUSH1 0x20 DUP1 SWAP2 DIV MUL PUSH1 0x20 ADD PUSH1 0x40 MLOAD SWAP1 DUP2 ADD PUSH1 0x40 MSTORE DUP1 SWAP3 SWAP2 SWAP1 DUP2 DUP2 MSTORE PUSH1 0x20 ADD DUP3 DUP1 SLOAD PUSH2 0xBA6 SWAP1 PUSH2 0x39DC JUMP JUMPDEST DUP1 ISZERO PUSH2 0xBF3 JUMPI DUP1 PUSH1 0x1F LT PUSH2 0xBC8 JUMPI PUSH2 0x100 DUP1 DUP4 SLOAD DIV MUL DUP4 MSTORE SWAP2 PUSH1 0x20 ADD SWAP2 PUSH2 0xBF3 JUMP JUMPDEST DUP3 ADD SWAP2 SWAP1 PUSH1 0x0 MSTORE PUSH1 0x20 PUSH1 0x0 KECCAK256 SWAP1 JUMPDEST DUP2 SLOAD DUP2 MSTORE SWAP1 PUSH1 0x1 ADD SWAP1 PUSH1 0x20 ADD DUP1 DUP4 GT PUSH2 0xBD6 JUMPI DUP3 SWAP1 SUB PUSH1 0x1F AND DUP3 ADD SWAP2 JUMPDEST POP POP POP POP POP PUSH2 0x278A JUMP JUMPDEST PUSH1 0x18 SLOAD PUSH1 0x40 MLOAD DUP4 PUSH4 0xFFFFFFFF AND PUSH1 0xE0 SHL DUP2 MSTORE PUSH1 0x4 ADD PUSH2 0xC1D SWAP3 SWAP2 SWAP1 PUSH2 0x3E89 JUMP JUMPDEST PUSH1 0x20 PUSH1 0x40 MLOAD DUP1 DUP4 SUB DUP2 DUP7 GAS DELEGATECALL ISZERO DUP1 ISZERO PUSH2 0xC3A JUMPI RETURNDATASIZE PUSH1 0x0 DUP1 RETURNDATACOPY RETURNDATASIZE PUSH1 0x0 REVERT JUMPDEST POP POP POP POP PUSH1 0x40 MLOAD RETURNDATASIZE PUSH1 0x1F NOT PUSH1 0x1F DUP3 ADD AND DUP3 ADD DUP1 PUSH1 0x40 MSTORE POP DUP2 ADD SWAP1 PUSH2 0xC5E SWAP2 SWAP1 PUSH2 0x37F0 JUMP JUMPDEST POP PUSH2 0xC6A PUSH1 0x18 SLOAD PUSH2 0x2512 JUMP JUMPDEST PUSH20 0x0 PUSH4 0xEA79DD79 PUSH1 0x18 SLOAD PUSH1 0xA PUSH1 0x0 CALLER PUSH20 0xFFFFFFFFFFFFFFFFFFFFFFFFFFFFFFFFFFFFFFFF AND PUSH20 0xFFFFFFFFFFFFFFFFFFFFFFFFFFFFFFFFFFFFFFFF AND DUP2 MSTORE PUSH1 0x20 ADD SWAP1 DUP2 MSTORE PUSH1 0x20 ADD PUSH1 0x0 KECCAK256 SLOAD PUSH1 0x40 MLOAD DUP4 PUSH4 0xFFFFFFFF AND PUSH1 0xE0 SHL DUP2 MSTORE PUSH1 0x4 ADD PUSH2 0xCE4 SWAP3 SWAP2 SWAP1 PUSH2 0x3F37 JUMP JUMPDEST PUSH1 0x20 PUSH1 0x40 MLOAD DUP1 DUP4 SUB DUP2 DUP7 GAS DELEGATECALL ISZERO DUP1 ISZERO PUSH2 0xD01 JUMPI RETURNDATASIZE PUSH1 0x0 DUP1 RETURNDATACOPY RETURNDATASIZE PUSH1 0x0 REVERT JUMPDEST POP POP POP POP PUSH1 0x40 MLOAD RETURNDATASIZE PUSH1 0x1F NOT PUSH1 0x1F DUP3 ADD AND DUP3 ADD DUP1 PUSH1 0x40 MSTORE POP DUP2 ADD SWAP1 PUSH2 0xD25 SWAP2 SWAP1 PUSH2 0x37F0 JUMP JUMPDEST POP JUMP JUMPDEST PUSH1 0x0 PUSH1 0x9 DUP3 DUP2 SLOAD DUP2 LT PUSH2 0xD3E JUMPI PUSH2 0xD3D PUSH2 0x36E1 JUMP JUMPDEST JUMPDEST SWAP1 PUSH1 0x0 MSTORE PUSH1 0x20 PUSH1 0x0 KECCAK256 ADD PUSH1 0x0 SWAP1 SLOAD SWAP1 PUSH2 0x100 EXP SWAP1 DIV PUSH20 0xFFFFFFFFFFFFFFFFFFFFFFFFFFFFFFFFFFFFFFFF AND SWAP1 POP SWAP2 SWAP1 POP JUMP JUMPDEST PUSH1 0x1 PUSH1 0x0 SWAP1 SLOAD SWAP1 PUSH2 0x100 EXP SWAP1 DIV PUSH20 0xFFFFFFFFFFFFFFFFFFFFFFFFFFFFFFFFFFFFFFFF AND DUP2 JUMP JUMPDEST PUSH1 0x1 ISZERO ISZERO PUSH1 0x8 PUSH1 0x0 SWAP1 SLOAD SWAP1 PUSH2 0x100 EXP SWAP1 DIV PUSH1 0xFF AND ISZERO ISZERO EQ PUSH2 0xDEC JUMPI PUSH1 0x40 MLOAD PUSH32 0x8C379A000000000000000000000000000000000000000000000000000000000 DUP2 MSTORE PUSH1 0x4 ADD PUSH2 0xDE3 SWAP1 PUSH2 0x3869 JUMP JUMPDEST PUSH1 0x40 MLOAD DUP1 SWAP2 SUB SWAP1 REVERT JUMPDEST PUSH1 0x5 SLOAD TIMESTAMP GT PUSH2 0xE30 JUMPI PUSH1 0x40 MLOAD PUSH32 0x8C379A000000000000000000000000000000000000000000000000000000000 DUP2 MSTORE PUSH1 0x4 ADD PUSH2 0xE27 SWAP1 PUSH2 0x3FE5 JUMP JUMPDEST PUSH1 0x40 MLOAD DUP1 SWAP2 SUB SWAP1 REVERT JUMPDEST PUSH1 0x6 SLOAD TIMESTAMP LT PUSH2 0xE74 JUMPI PUSH1 0x40 MLOAD PUSH32 0x8C379A000000000000000000000000000000000000000000000000000000000 DUP2 MSTORE PUSH1 0x4 ADD PUSH2 0xE6B SWAP1 PUSH2 0x4051 JUMP JUMPDEST PUSH1 0x40 MLOAD DUP1 SWAP2 SUB SWAP1 REVERT JUMPDEST PUSH1 0x0 PUSH2 0xE80 DUP4 DUP4 PUSH2 0x278A JUMP JUMPDEST SWAP1 POP DUP1 PUSH1 0xA PUSH1 0x0 CALLER PUSH20 0xFFFFFFFFFFFFFFFFFFFFFFFFFFFFFFFFFFFFFFFF AND PUSH20 0xFFFFFFFFFFFFFFFFFFFFFFFFFFFFFFFFFFFFFFFF AND DUP2 MSTORE PUSH1 0x20 ADD SWAP1 DUP2 MSTORE PUSH1 0x20 ADD PUSH1 0x0 KECCAK256 SLOAD EQ PUSH2 0xF03 JUMPI PUSH1 0x40 MLOAD PUSH32 0x8C379A000000000000000000000000000000000000000000000000000000000 DUP2 MSTORE PUSH1 0x4 ADD PUSH2 0xEFA SWAP1 PUSH2 0x40E3 JUMP JUMPDEST PUSH1 0x40 MLOAD DUP1 SWAP2 SUB SWAP1 REVERT JUMPDEST PUSH1 0x1 ISZERO ISZERO PUSH2 0xF10 DUP5 PUSH2 0x2837 JUMP JUMPDEST ISZERO ISZERO EQ PUSH2 0xF52 JUMPI PUSH1 0x40 MLOAD PUSH32 0x8C379A000000000000000000000000000000000000000000000000000000000 DUP2 MSTORE PUSH1 0x4 ADD PUSH2 0xF49 SWAP1 PUSH2 0x419B JUMP JUMPDEST PUSH1 0x40 MLOAD DUP1 SWAP2 SUB SWAP1 REVERT JUMPDEST PUSH2 0xF5A PUSH2 0x28A1 JUMP JUMPDEST PUSH2 0xF64 DUP4 DUP4 PUSH2 0x28B1 JUMP JUMPDEST PUSH1 0x0 PUSH1 0x40 MLOAD DUP1 PUSH1 0x60 ADD PUSH1 0x40 MSTORE DUP1 DUP6 DUP2 MSTORE PUSH1 0x20 ADD CALLER PUSH20 0xFFFFFFFFFFFFFFFFFFFFFFFFFFFFFFFFFFFFFFFF AND DUP2 MSTORE PUSH1 0x20 ADD DUP5 DUP2 MSTORE POP SWAP1 POP PUSH1 0xC DUP2 SWAP1 DUP1 PUSH1 0x1 DUP2 SLOAD ADD DUP1 DUP3 SSTORE DUP1 SWAP2 POP POP PUSH1 0x1 SWAP1 SUB SWAP1 PUSH1 0x0 MSTORE PUSH1 0x20 PUSH1 0x0 KECCAK256 SWAP1 PUSH1 0x3 MUL ADD PUSH1 0x0 SWAP1 SWAP2 SWAP1 SWAP2 SWAP1 SWAP2 POP PUSH1 0x0 DUP3 ADD MLOAD DUP2 PUSH1 0x0 ADD SSTORE PUSH1 0x20 DUP3 ADD MLOAD DUP2 PUSH1 0x1 ADD PUSH1 0x0 PUSH2 0x100 EXP DUP2 SLOAD DUP2 PUSH20 0xFFFFFFFFFFFFFFFFFFFFFFFFFFFFFFFFFFFFFFFF MUL NOT AND SWAP1 DUP4 PUSH20 0xFFFFFFFFFFFFFFFFFFFFFFFFFFFFFFFFFFFFFFFF AND MUL OR SWAP1 SSTORE POP PUSH1 0x40 DUP3 ADD MLOAD DUP2 PUSH1 0x2 ADD SWAP1 DUP2 PUSH2 0x102B SWAP2 SWAP1 PUSH2 0x3BAF JUMP JUMPDEST POP POP POP POP POP POP POP JUMP JUMPDEST PUSH2 0x10A8 PUSH1 0x40 MLOAD DUP1 PUSH1 0x40 ADD PUSH1 0x40 MSTORE DUP1 PUSH1 0x5 DUP2 MSTORE PUSH1 0x20 ADD PUSH32 0x7761746368000000000000000000000000000000000000000000000000000000 DUP2 MSTORE POP PUSH1 0x40 MLOAD DUP1 PUSH1 0x40 ADD PUSH1 0x40 MSTORE DUP1 PUSH1 0xB DUP2 MSTORE PUSH1 0x20 ADD PUSH32 0x6772656174207761746368000000000000000000000000000000000000000000 DUP2 MSTORE POP PUSH2 0x1EE7 JUMP JUMPDEST PUSH20 0x0 PUSH4 0x39DF137F PUSH1 0x2 PUSH1 0x40 MLOAD PUSH1 0x20 ADD PUSH2 0x10D3 SWAP1 PUSH2 0x4212 JUMP JUMPDEST PUSH1 0x40 MLOAD PUSH1 0x20 DUP2 DUP4 SUB SUB DUP2 MSTORE SWAP1 PUSH1 0x40 MSTORE PUSH1 0x40 MLOAD PUSH2 0x10EF SWAP2 SWAP1 PUSH2 0x426E JUMP JUMPDEST PUSH1 0x20 PUSH1 0x40 MLOAD DUP1 DUP4 SUB DUP2 DUP6 GAS STATICCALL ISZERO DUP1 ISZERO PUSH2 0x110C JUMPI RETURNDATASIZE PUSH1 0x0 DUP1 RETURNDATACOPY RETURNDATASIZE PUSH1 0x0 REVERT JUMPDEST POP POP POP PUSH1 0x40 MLOAD RETURNDATASIZE PUSH1 0x1F NOT PUSH1 0x1F DUP3 ADD AND DUP3 ADD DUP1 PUSH1 0x40 MSTORE POP DUP2 ADD SWAP1 PUSH2 0x112F SWAP2 SWAP1 PUSH2 0x429A JUMP JUMPDEST PUSH1 0x2 PUSH1 0x3 PUSH1 0x40 MLOAD PUSH1 0x20 ADD PUSH2 0x1143 SWAP2 SWAP1 PUSH2 0x434A JUMP JUMPDEST PUSH1 0x40 MLOAD PUSH1 0x20 DUP2 DUP4 SUB SUB DUP2 MSTORE SWAP1 PUSH1 0x40 MSTORE PUSH1 0x40 MLOAD PUSH2 0x115F SWAP2 SWAP1 PUSH2 0x426E JUMP JUMPDEST PUSH1 0x20 PUSH1 0x40 MLOAD DUP1 DUP4 SUB DUP2 DUP6 GAS STATICCALL ISZERO DUP1 ISZERO PUSH2 0x117C JUMPI RETURNDATASIZE PUSH1 0x0 DUP1 RETURNDATACOPY RETURNDATASIZE PUSH1 0x0 REVERT JUMPDEST POP POP POP PUSH1 0x40 MLOAD RETURNDATASIZE PUSH1 0x1F NOT PUSH1 0x1F DUP3 ADD AND DUP3 ADD DUP1 PUSH1 0x40 MSTORE POP DUP2 ADD SWAP1 PUSH2 0x119F SWAP2 SWAP1 PUSH2 0x429A JUMP JUMPDEST EQ PUSH1 0x40 MLOAD DUP3 PUSH4 0xFFFFFFFF AND PUSH1 0xE0 SHL DUP2 MSTORE PUSH1 0x4 ADD PUSH2 0x11BC SWAP2 SWAP1 PUSH2 0x43E2 JUMP JUMPDEST PUSH1 0x20 PUSH1 0x40 MLOAD DUP1 DUP4 SUB DUP2 DUP7 GAS DELEGATECALL ISZERO DUP1 ISZERO PUSH2 0x11D9 JUMPI RETURNDATASIZE PUSH1 0x0 DUP1 RETURNDATACOPY RETURNDATASIZE PUSH1 0x0 REVERT JUMPDEST POP POP POP POP PUSH1 0x40 MLOAD RETURNDATASIZE PUSH1 0x1F NOT PUSH1 0x1F DUP3 ADD AND DUP3 ADD DUP1 PUSH1 0x40 MSTORE POP DUP2 ADD SWAP1 PUSH2 0x11FD SWAP2 SWAP1 PUSH2 0x37F0 JUMP JUMPDEST POP PUSH20 0x0 PUSH4 0x39DF137F PUSH1 0x2 PUSH1 0x40 MLOAD PUSH1 0x20 ADD PUSH2 0x1229 SWAP1 PUSH2 0x445C JUMP JUMPDEST PUSH1 0x40 MLOAD PUSH1 0x20 DUP2 DUP4 SUB SUB DUP2 MSTORE SWAP1 PUSH1 0x40 MSTORE PUSH1 0x40 MLOAD PUSH2 0x1245 SWAP2 SWAP1 PUSH2 0x426E JUMP JUMPDEST PUSH1 0x20 PUSH1 0x40 MLOAD DUP1 DUP4 SUB DUP2 DUP6 GAS STATICCALL ISZERO DUP1 ISZERO PUSH2 0x1262 JUMPI RETURNDATASIZE PUSH1 0x0 DUP1 RETURNDATACOPY RETURNDATASIZE PUSH1 0x0 REVERT JUMPDEST POP POP POP PUSH1 0x40 MLOAD RETURNDATASIZE PUSH1 0x1F NOT PUSH1 0x1F DUP3 ADD AND DUP3 ADD DUP1 PUSH1 0x40 MSTORE POP DUP2 ADD SWAP1 PUSH2 0x1285 SWAP2 SWAP1 PUSH2 0x429A JUMP JUMPDEST PUSH1 0x2 DUP1 PUSH1 0x40 MLOAD PUSH1 0x20 ADD PUSH2 0x1298 SWAP2 SWAP1 PUSH2 0x434A JUMP JUMPDEST PUSH1 0x40 MLOAD PUSH1 0x20 DUP2 DUP4 SUB SUB DUP2 MSTORE SWAP1 PUSH1 0x40 MSTORE PUSH1 0x40 MLOAD PUSH2 0x12B4 SWAP2 SWAP1 PUSH2 0x426E JUMP JUMPDEST PUSH1 0x20 PUSH1 0x40 MLOAD DUP1 DUP4 SUB DUP2 DUP6 GAS STATICCALL ISZERO DUP1 ISZERO PUSH2 0x12D1 JUMPI RETURNDATASIZE PUSH1 0x0 DUP1 RETURNDATACOPY RETURNDATASIZE PUSH1 0x0 REVERT JUMPDEST POP POP POP PUSH1 0x40 MLOAD RETURNDATASIZE PUSH1 0x1F NOT PUSH1 0x1F DUP3 ADD AND DUP3 ADD DUP1 PUSH1 0x40 MSTORE POP DUP2 ADD SWAP1 PUSH2 0x12F4 SWAP2 SWAP1 PUSH2 0x429A JUMP JUMPDEST EQ PUSH1 0x40 MLOAD DUP3 PUSH4 0xFFFFFFFF AND PUSH1 0xE0 SHL DUP2 MSTORE PUSH1 0x4 ADD PUSH2 0x1311 SWAP2 SWAP1 PUSH2 0x44E3 JUMP JUMPDEST PUSH1 0x20 PUSH1 0x40 MLOAD DUP1 DUP4 SUB DUP2 DUP7 GAS DELEGATECALL ISZERO DUP1 ISZERO PUSH2 0x132E JUMPI RETURNDATASIZE PUSH1 0x0 DUP1 RETURNDATACOPY RETURNDATASIZE PUSH1 0x0 REVERT JUMPDEST POP POP POP POP PUSH1 0x40 MLOAD RETURNDATASIZE PUSH1 0x1F NOT PUSH1 0x1F DUP3 ADD AND DUP3 ADD DUP1 PUSH1 0x40 MSTORE POP DUP2 ADD SWAP1 PUSH2 0x1352 SWAP2 SWAP1 PUSH2 0x37F0 JUMP JUMPDEST POP PUSH20 0x0 PUSH4 0xBFBA5DD6 PUSH20 0x0 PUSH4 0xCE88B145 PUSH1 0x1 PUSH1 0x40 MLOAD DUP3 PUSH4 0xFFFFFFFF AND PUSH1 0xE0 SHL DUP2 MSTORE PUSH1 0x4 ADD PUSH2 0x13A5 SWAP2 SWAP1 PUSH2 0x454C JUMP JUMPDEST PUSH1 0x20 PUSH1 0x40 MLOAD DUP1 DUP4 SUB DUP2 DUP7 GAS DELEGATECALL ISZERO DUP1 ISZERO PUSH2 0x13C2 JUMPI RETURNDATASIZE PUSH1 0x0 DUP1 RETURNDATACOPY RETURNDATASIZE PUSH1 0x0 REVERT JUMPDEST POP POP POP POP PUSH1 0x40 MLOAD RETURNDATASIZE PUSH1 0x1F NOT PUSH1 0x1F DUP3 ADD AND DUP3 ADD DUP1 PUSH1 0x40 MSTORE POP DUP2 ADD SWAP1 PUSH2 0x13E6 SWAP2 SWAP1 PUSH2 0x36B4 JUMP JUMPDEST PUSH1 0x0 DUP1 SLOAD SWAP1 PUSH2 0x100 EXP SWAP1 DIV PUSH20 0xFFFFFFFFFFFFFFFFFFFFFFFFFFFFFFFFFFFFFFFF AND PUSH1 0x40 MLOAD DUP4 PUSH4 0xFFFFFFFF AND PUSH1 0xE0 SHL DUP2 MSTORE PUSH1 0x4 ADD PUSH2 0x1424 SWAP3 SWAP2 SWAP1 PUSH2 0x45B3 JUMP JUMPDEST PUSH1 0x20 PUSH1 0x40 MLOAD DUP1 DUP4 SUB DUP2 DUP7 GAS DELEGATECALL ISZERO DUP1 ISZERO PUSH2 0x1441 JUMPI RETURNDATASIZE PUSH1 0x0 DUP1 RETURNDATACOPY RETURNDATASIZE PUSH1 0x0 REVERT JUMPDEST POP POP POP POP PUSH1 0x40 MLOAD RETURNDATASIZE PUSH1 0x1F NOT PUSH1 0x1F DUP3 ADD AND DUP3 ADD DUP1 PUSH1 0x40 MSTORE POP DUP2 ADD SWAP1 PUSH2 0x1465 SWAP2 SWAP1 PUSH2 0x37F0 JUMP JUMPDEST POP PUSH20 0x0 PUSH4 0x767392B3 PUSH1 0x8 PUSH1 0x0 SWAP1 SLOAD SWAP1 PUSH2 0x100 EXP SWAP1 DIV PUSH1 0xFF AND PUSH1 0x1 PUSH1 0x40 MLOAD DUP4 PUSH4 0xFFFFFFFF AND PUSH1 0xE0 SHL DUP2 MSTORE PUSH1 0x4 ADD PUSH2 0x14AF SWAP3 SWAP2 SWAP1 PUSH2 0x463B JUMP JUMPDEST PUSH1 0x20 PUSH1 0x40 MLOAD DUP1 DUP4 SUB DUP2 DUP7 GAS DELEGATECALL ISZERO DUP1 ISZERO PUSH2 0x14CC JUMPI RETURNDATASIZE PUSH1 0x0 DUP1 RETURNDATACOPY RETURNDATASIZE PUSH1 0x0 REVERT JUMPDEST POP POP POP POP PUSH1 0x40 MLOAD RETURNDATASIZE PUSH1 0x1F NOT PUSH1 0x1F DUP3 ADD AND DUP3 ADD DUP1 PUSH1 0x40 MSTORE POP DUP2 ADD SWAP1 PUSH2 0x14F0 SWAP2 SWAP1 PUSH2 0x37F0 JUMP JUMPDEST POP JUMP JUMPDEST PUSH2 0x14FB PUSH2 0x25FD JUMP JUMPDEST PUSH20 0x0 PUSH4 0xBFBA5DD6 PUSH20 0x0 PUSH4 0xCE88B145 PUSH1 0x4 PUSH1 0x40 MLOAD DUP3 PUSH4 0xFFFFFFFF AND PUSH1 0xE0 SHL DUP2 MSTORE PUSH1 0x4 ADD PUSH2 0x154D SWAP2 SWAP1 PUSH2 0x46B2 JUMP JUMPDEST PUSH1 0x20 PUSH1 0x40 MLOAD DUP1 DUP4 SUB DUP2 DUP7 GAS DELEGATECALL ISZERO DUP1 ISZERO PUSH2 0x156A JUMPI RETURNDATASIZE PUSH1 0x0 DUP1 RETURNDATACOPY RETURNDATASIZE PUSH1 0x0 REVERT JUMPDEST POP POP POP POP PUSH1 0x40 MLOAD RETURNDATASIZE PUSH1 0x1F NOT PUSH1 0x1F DUP3 ADD AND DUP3 ADD DUP1 PUSH1 0x40 MSTORE POP DUP2 ADD SWAP1 PUSH2 0x158E SWAP2 SWAP1 PUSH2 0x36B4 JUMP JUMPDEST PUSH1 0x9 PUSH1 0x2 DUP2 SLOAD DUP2 LT PUSH2 0x15A3 JUMPI PUSH2 0x15A2 PUSH2 0x36E1 JUMP JUMPDEST JUMPDEST SWAP1 PUSH1 0x0 MSTORE PUSH1 0x20 PUSH1 0x0 KECCAK256 ADD PUSH1 0x0 SWAP1 SLOAD SWAP1 PUSH2 0x100 EXP SWAP1 DIV PUSH20 0xFFFFFFFFFFFFFFFFFFFFFFFFFFFFFFFFFFFFFFFF AND PUSH1 0x40 MLOAD DUP4 PUSH4 0xFFFFFFFF AND PUSH1 0xE0 SHL DUP2 MSTORE PUSH1 0x4 ADD PUSH2 0x15EB SWAP3 SWAP2 SWAP1 PUSH2 0x4719 JUMP JUMPDEST PUSH1 0x20 PUSH1 0x40 MLOAD DUP1 DUP4 SUB DUP2 DUP7 GAS DELEGATECALL ISZERO DUP1 ISZERO PUSH2 0x1608 JUMPI RETURNDATASIZE PUSH1 0x0 DUP1 RETURNDATACOPY RETURNDATASIZE PUSH1 0x0 REVERT JUMPDEST POP POP POP POP PUSH1 0x40 MLOAD RETURNDATASIZE PUSH1 0x1F NOT PUSH1 0x1F DUP3 ADD AND DUP3 ADD DUP1 PUSH1 0x40 MSTORE POP DUP2 ADD SWAP1 PUSH2 0x162C SWAP2 SWAP1 PUSH2 0x37F0 JUMP JUMPDEST POP JUMP JUMPDEST PUSH20 0x0 PUSH4 0xEA79DD79 PUSH2 0x16DF PUSH1 0x12 SLOAD PUSH1 0x13 DUP1 SLOAD PUSH2 0x165C SWAP1 PUSH2 0x39DC JUMP JUMPDEST DUP1 PUSH1 0x1F ADD PUSH1 0x20 DUP1 SWAP2 DIV MUL PUSH1 0x20 ADD PUSH1 0x40 MLOAD SWAP1 DUP2 ADD PUSH1 0x40 MSTORE DUP1 SWAP3 SWAP2 SWAP1 DUP2 DUP2 MSTORE PUSH1 0x20 ADD DUP3 DUP1 SLOAD PUSH2 0x1688 SWAP1 PUSH2 0x39DC JUMP JUMPDEST DUP1 ISZERO PUSH2 0x16D5 JUMPI DUP1 PUSH1 0x1F LT PUSH2 0x16AA JUMPI PUSH2 0x100 DUP1 DUP4 SLOAD DIV MUL DUP4 MSTORE SWAP2 PUSH1 0x20 ADD SWAP2 PUSH2 0x16D5 JUMP JUMPDEST DUP3 ADD SWAP2 SWAP1 PUSH1 0x0 MSTORE PUSH1 0x20 PUSH1 0x0 KECCAK256 SWAP1 JUMPDEST DUP2 SLOAD DUP2 MSTORE SWAP1 PUSH1 0x1 ADD SWAP1 PUSH1 0x20 ADD DUP1 DUP4 GT PUSH2 0x16B8 JUMPI DUP3 SWAP1 SUB PUSH1 0x1F AND DUP3 ADD SWAP2 JUMPDEST POP POP POP POP POP PUSH2 0x278A JUMP JUMPDEST PUSH1 0x14 SLOAD PUSH1 0x40 MLOAD DUP4 PUSH4 0xFFFFFFFF AND PUSH1 0xE0 SHL DUP2 MSTORE PUSH1 0x4 ADD PUSH2 0x16FF SWAP3 SWAP2 SWAP1 PUSH2 0x47A1 JUMP JUMPDEST PUSH1 0x20 PUSH1 0x40 MLOAD DUP1 DUP4 SUB DUP2 DUP7 GAS DELEGATECALL ISZERO DUP1 ISZERO PUSH2 0x171C JUMPI RETURNDATASIZE PUSH1 0x0 DUP1 RETURNDATACOPY RETURNDATASIZE PUSH1 0x0 REVERT JUMPDEST POP POP POP POP PUSH1 0x40 MLOAD RETURNDATASIZE PUSH1 0x1F NOT PUSH1 0x1F DUP3 ADD AND DUP3 ADD DUP1 PUSH1 0x40 MSTORE POP DUP2 ADD SWAP1 PUSH2 0x1740 SWAP2 SWAP1 PUSH2 0x37F0 JUMP JUMPDEST POP PUSH2 0x174C PUSH1 0x14 SLOAD PUSH2 0x2512 JUMP JUMPDEST PUSH20 0x0 PUSH4 0xEA79DD79 PUSH1 0x14 SLOAD PUSH1 0xA PUSH1 0x0 CALLER PUSH20 0xFFFFFFFFFFFFFFFFFFFFFFFFFFFFFFFFFFFFFFFF AND PUSH20 0xFFFFFFFFFFFFFFFFFFFFFFFFFFFFFFFFFFFFFFFF AND DUP2 MSTORE PUSH1 0x20 ADD SWAP1 DUP2 MSTORE PUSH1 0x20 ADD PUSH1 0x0 KECCAK256 SLOAD PUSH1 0x40 MLOAD DUP4 PUSH4 0xFFFFFFFF AND PUSH1 0xE0 SHL DUP2 MSTORE PUSH1 0x4 ADD PUSH2 0x17C6 SWAP3 SWAP2 SWAP1 PUSH2 0x484F JUMP JUMPDEST PUSH1 0x20 PUSH1 0x40 MLOAD DUP1 DUP4 SUB DUP2 DUP7 GAS DELEGATECALL ISZERO DUP1 ISZERO PUSH2 0x17E3 JUMPI RETURNDATASIZE PUSH1 0x0 DUP1 RETURNDATACOPY RETURNDATASIZE PUSH1 0x0 REVERT JUMPDEST POP POP POP POP PUSH1 0x40 MLOAD RETURNDATASIZE PUSH1 0x1F NOT PUSH1 0x1F DUP3 ADD AND DUP3 ADD DUP1 PUSH1 0x40 MSTORE POP DUP2 ADD SWAP1 PUSH2 0x1807 SWAP2 SWAP1 PUSH2 0x37F0 JUMP JUMPDEST POP JUMP JUMPDEST PUSH20 0x0 PUSH4 0xCE88B145 PUSH1 0x2 PUSH1 0x40 MLOAD DUP3 PUSH4 0xFFFFFFFF AND PUSH1 0xE0 SHL DUP2 MSTORE PUSH1 0x4 ADD PUSH2 0x1842 SWAP2 SWAP1 PUSH2 0x3CBC JUMP JUMPDEST PUSH1 0x20 PUSH1 0x40 MLOAD DUP1 DUP4 SUB DUP2 DUP7 GAS DELEGATECALL ISZERO DUP1 ISZERO PUSH2 0x185F JUMPI RETURNDATASIZE PUSH1 0x0 DUP1 RETURNDATACOPY RETURNDATASIZE PUSH1 0x0 REVERT JUMPDEST POP POP POP POP PUSH1 0x40 MLOAD RETURNDATASIZE PUSH1 0x1F NOT PUSH1 0x1F DUP3 ADD AND DUP3 ADD DUP1 PUSH1 0x40 MSTORE POP DUP2 ADD SWAP1 PUSH2 0x1883 SWAP2 SWAP1 PUSH2 0x36B4 JUMP JUMPDEST PUSH1 0xD PUSH1 0x0 PUSH2 0x100 EXP DUP2 SLOAD DUP2 PUSH20 0xFFFFFFFFFFFFFFFFFFFFFFFFFFFFFFFFFFFFFFFF MUL NOT AND SWAP1 DUP4 PUSH20 0xFFFFFFFFFFFFFFFFFFFFFFFFFFFFFFFFFFFFFFFF AND MUL OR SWAP1 SSTORE POP PUSH20 0x0 PUSH4 0xCE88B145 PUSH1 0x3 PUSH1 0x40 MLOAD DUP3 PUSH4 0xFFFFFFFF AND PUSH1 0xE0 SHL DUP2 MSTORE PUSH1 0x4 ADD PUSH2 0x18FB SWAP2 SWAP1 PUSH2 0x3684 JUMP JUMPDEST PUSH1 0x20 PUSH1 0x40 MLOAD DUP1 DUP4 SUB DUP2 DUP7 GAS DELEGATECALL ISZERO DUP1 ISZERO PUSH2 0x1918 JUMPI RETURNDATASIZE PUSH1 0x0 DUP1 RETURNDATACOPY RETURNDATASIZE PUSH1 0x0 REVERT JUMPDEST POP POP POP POP PUSH1 0x40 MLOAD RETURNDATASIZE PUSH1 0x1F NOT PUSH1 0x1F DUP3 ADD AND DUP3 ADD DUP1 PUSH1 0x40 MSTORE POP DUP2 ADD SWAP1 PUSH2 0x193C SWAP2 SWAP1 PUSH2 0x36B4 JUMP JUMPDEST PUSH1 0x11 PUSH1 0x0 PUSH2 0x100 EXP DUP2 SLOAD DUP2 PUSH20 0xFFFFFFFFFFFFFFFFFFFFFFFFFFFFFFFFFFFFFFFF MUL NOT AND SWAP1 DUP4 PUSH20 0xFFFFFFFFFFFFFFFFFFFFFFFFFFFFFFFFFFFFFFFF AND MUL OR SWAP1 SSTORE POP PUSH20 0x0 PUSH4 0xCE88B145 PUSH1 0x4 PUSH1 0x40 MLOAD DUP3 PUSH4 0xFFFFFFFF AND PUSH1 0xE0 SHL DUP2 MSTORE PUSH1 0x4 ADD PUSH2 0x19B4 SWAP2 SWAP1 PUSH2 0x46B2 JUMP JUMPDEST PUSH1 0x20 PUSH1 0x40 MLOAD DUP1 DUP4 SUB DUP2 DUP7 GAS DELEGATECALL ISZERO DUP1 ISZERO PUSH2 0x19D1 JUMPI RETURNDATASIZE PUSH1 0x0 DUP1 RETURNDATACOPY RETURNDATASIZE PUSH1 0x0 REVERT JUMPDEST POP POP POP POP PUSH1 0x40 MLOAD RETURNDATASIZE PUSH1 0x1F NOT PUSH1 0x1F DUP3 ADD AND DUP3 ADD DUP1 PUSH1 0x40 MSTORE POP DUP2 ADD SWAP1 PUSH2 0x19F5 SWAP2 SWAP1 PUSH2 0x36B4 JUMP JUMPDEST PUSH1 0x15 PUSH1 0x0 PUSH2 0x100 EXP DUP2 SLOAD DUP2 PUSH20 0xFFFFFFFFFFFFFFFFFFFFFFFFFFFFFFFFFFFFFFFF MUL NOT AND SWAP1 DUP4 PUSH20 0xFFFFFFFFFFFFFFFFFFFFFFFFFFFFFFFFFFFFFFFF AND MUL OR SWAP1 SSTORE POP PUSH1 0xB PUSH1 0xE DUP2 SWAP1 SSTORE POP PUSH1 0x40 MLOAD DUP1 PUSH1 0x40 ADD PUSH1 0x40 MSTORE DUP1 PUSH1 0x4 DUP2 MSTORE PUSH1 0x20 ADD PUSH32 0x6269643100000000000000000000000000000000000000000000000000000000 DUP2 MSTORE POP PUSH1 0xF SWAP1 DUP2 PUSH2 0x1A81 SWAP2 SWAP1 PUSH2 0x3BAF JUMP JUMPDEST POP PUSH32 0x5647B2FC56179A52D9885E3188A4624E65F45772D1DC4CE067B8380D04A39977 PUSH1 0x0 SHL PUSH1 0x10 DUP2 SWAP1 SSTORE POP PUSH1 0x16 PUSH1 0x12 DUP2 SWAP1 SSTORE POP PUSH1 0x40 MLOAD DUP1 PUSH1 0x40 ADD PUSH1 0x40 MSTORE DUP1 PUSH1 0x4 DUP2 MSTORE PUSH1 0x20 ADD PUSH32 0x6269643200000000000000000000000000000000000000000000000000000000 DUP2 MSTORE POP PUSH1 0x13 SWAP1 DUP2 PUSH2 0x1AF8 SWAP2 SWAP1 PUSH2 0x3BAF JUMP JUMPDEST POP PUSH32 0x50C3208089B13DBBF91F80DB31299CF2B996A7D2E671B5F49C6D513A89F63DF1 PUSH1 0x0 SHL PUSH1 0x14 DUP2 SWAP1 SSTORE POP PUSH1 0x21 PUSH1 0x16 DUP2 SWAP1 SSTORE POP PUSH1 0x40 MLOAD DUP1 PUSH1 0x40 ADD PUSH1 0x40 MSTORE DUP1 PUSH1 0x4 DUP2 MSTORE PUSH1 0x20 ADD PUSH32 0x6269643300000000000000000000000000000000000000000000000000000000 DUP2 MSTORE POP PUSH1 0x17 SWAP1 DUP2 PUSH2 0x1B6F SWAP2 SWAP1 PUSH2 0x3BAF JUMP JUMPDEST POP PUSH32 0xCEC60B8BF0259B4EBD98F5B55FD70F78622E0623B1FFF9F4E88C4CEDCDBC0F5F PUSH1 0x0 SHL PUSH1 0x18 DUP2 SWAP1 SSTORE POP JUMP JUMPDEST PUSH1 0xC DUP2 DUP2 SLOAD DUP2 LT PUSH2 0x1BAC JUMPI PUSH1 0x0 DUP1 REVERT JUMPDEST SWAP1 PUSH1 0x0 MSTORE PUSH1 0x20 PUSH1 0x0 KECCAK256 SWAP1 PUSH1 0x3 MUL ADD PUSH1 0x0 SWAP2 POP SWAP1 POP DUP1 PUSH1 0x0 ADD SLOAD SWAP1 DUP1 PUSH1 0x1 ADD PUSH1 0x0 SWAP1 SLOAD SWAP1 PUSH2 0x100 EXP SWAP1 DIV PUSH20 0xFFFFFFFFFFFFFFFFFFFFFFFFFFFFFFFFFFFFFFFF AND SWAP1 DUP1 PUSH1 0x2 ADD DUP1 SLOAD PUSH2 0x1BFB SWAP1 PUSH2 0x39DC JUMP JUMPDEST DUP1 PUSH1 0x1F ADD PUSH1 0x20 DUP1 SWAP2 DIV MUL PUSH1 0x20 ADD PUSH1 0x40 MLOAD SWAP1 DUP2 ADD PUSH1 0x40 MSTORE DUP1 SWAP3 SWAP2 SWAP1 DUP2 DUP2 MSTORE PUSH1 0x20 ADD DUP3 DUP1 SLOAD PUSH2 0x1C27 SWAP1 PUSH2 0x39DC JUMP JUMPDEST DUP1 ISZERO PUSH2 0x1C74 JUMPI DUP1 PUSH1 0x1F LT PUSH2 0x1C49 JUMPI PUSH2 0x100 DUP1 DUP4 SLOAD DIV MUL DUP4 MSTORE SWAP2 PUSH1 0x20 ADD SWAP2 PUSH2 0x1C74 JUMP JUMPDEST DUP3 ADD SWAP2 SWAP1 PUSH1 0x0 MSTORE PUSH1 0x20 PUSH1 0x0 KECCAK256 SWAP1 JUMPDEST DUP2 SLOAD DUP2 MSTORE SWAP1 PUSH1 0x1 ADD SWAP1 PUSH1 0x20 ADD DUP1 DUP4 GT PUSH2 0x1C57 JUMPI DUP3 SWAP1 SUB PUSH1 0x1F AND DUP3 ADD SWAP2 JUMPDEST POP POP POP POP POP SWAP1 POP DUP4 JUMP JUMPDEST PUSH1 0x2 DUP1 SLOAD PUSH2 0x1C8B SWAP1 PUSH2 0x39DC JUMP JUMPDEST DUP1 PUSH1 0x1F ADD PUSH1 0x20 DUP1 SWAP2 DIV MUL PUSH1 0x20 ADD PUSH1 0x40 MLOAD SWAP1 DUP2 ADD PUSH1 0x40 MSTORE DUP1 SWAP3 SWAP2 SWAP1 DUP2 DUP2 MSTORE PUSH1 0x20 ADD DUP3 DUP1 SLOAD PUSH2 0x1CB7 SWAP1 PUSH2 0x39DC JUMP JUMPDEST DUP1 ISZERO PUSH2 0x1D04 JUMPI DUP1 PUSH1 0x1F LT PUSH2 0x1CD9 JUMPI PUSH2 0x100 DUP1 DUP4 SLOAD DIV MUL DUP4 MSTORE SWAP2 PUSH1 0x20 ADD SWAP2 PUSH2 0x1D04 JUMP JUMPDEST DUP3 ADD SWAP2 SWAP1 PUSH1 0x0 MSTORE PUSH1 0x20 PUSH1 0x0 KECCAK256 SWAP1 JUMPDEST DUP2 SLOAD DUP2 MSTORE SWAP1 PUSH1 0x1 ADD SWAP1 PUSH1 0x20 ADD DUP1 DUP4 GT PUSH2 0x1CE7 JUMPI DUP3 SWAP1 SUB PUSH1 0x1F AND DUP3 ADD SWAP2 JUMPDEST POP POP POP POP POP DUP2 JUMP JUMPDEST PUSH20 0x0 PUSH4 0xEA79DD79 PUSH2 0x1DBC PUSH1 0xE SLOAD PUSH1 0xF DUP1 SLOAD PUSH2 0x1D39 SWAP1 PUSH2 0x39DC JUMP JUMPDEST DUP1 PUSH1 0x1F ADD PUSH1 0x20 DUP1 SWAP2 DIV MUL PUSH1 0x20 ADD PUSH1 0x40 MLOAD SWAP1 DUP2 ADD PUSH1 0x40 MSTORE DUP1 SWAP3 SWAP2 SWAP1 DUP2 DUP2 MSTORE PUSH1 0x20 ADD DUP3 DUP1 SLOAD PUSH2 0x1D65 SWAP1 PUSH2 0x39DC JUMP JUMPDEST DUP1 ISZERO PUSH2 0x1DB2 JUMPI DUP1 PUSH1 0x1F LT PUSH2 0x1D87 JUMPI PUSH2 0x100 DUP1 DUP4 SLOAD DIV MUL DUP4 MSTORE SWAP2 PUSH1 0x20 ADD SWAP2 PUSH2 0x1DB2 JUMP JUMPDEST DUP3 ADD SWAP2 SWAP1 PUSH1 0x0 MSTORE PUSH1 0x20 PUSH1 0x0 KECCAK256 SWAP1 JUMPDEST DUP2 SLOAD DUP2 MSTORE SWAP1 PUSH1 0x1 ADD SWAP1 PUSH1 0x20 ADD DUP1 DUP4 GT PUSH2 0x1D95 JUMPI DUP3 SWAP1 SUB PUSH1 0x1F AND DUP3 ADD SWAP2 JUMPDEST POP POP POP POP POP PUSH2 0x278A JUMP JUMPDEST PUSH1 0x10 SLOAD PUSH1 0x40 MLOAD DUP4 PUSH4 0xFFFFFFFF AND PUSH1 0xE0 SHL DUP2 MSTORE PUSH1 0x4 ADD PUSH2 0x1DDC SWAP3 SWAP2 SWAP1 PUSH2 0x48D7 JUMP JUMPDEST PUSH1 0x20 PUSH1 0x40 MLOAD DUP1 DUP4 SUB DUP2 DUP7 GAS DELEGATECALL ISZERO DUP1 ISZERO PUSH2 0x1DF9 JUMPI RETURNDATASIZE PUSH1 0x0 DUP1 RETURNDATACOPY RETURNDATASIZE PUSH1 0x0 REVERT JUMPDEST POP POP POP POP PUSH1 0x40 MLOAD RETURNDATASIZE PUSH1 0x1F NOT PUSH1 0x1F DUP3 ADD AND DUP3 ADD DUP1 PUSH1 0x40 MSTORE POP DUP2 ADD SWAP1 PUSH2 0x1E1D SWAP2 SWAP1 PUSH2 0x37F0 JUMP JUMPDEST POP PUSH2 0x1E29 PUSH1 0x10 SLOAD PUSH2 0x2512 JUMP JUMPDEST PUSH20 0x0 PUSH4 0xEA79DD79 PUSH1 0x10 SLOAD PUSH1 0xA PUSH1 0x0 CALLER PUSH20 0xFFFFFFFFFFFFFFFFFFFFFFFFFFFFFFFFFFFFFFFF AND PUSH20 0xFFFFFFFFFFFFFFFFFFFFFFFFFFFFFFFFFFFFFFFF AND DUP2 MSTORE PUSH1 0x20 ADD SWAP1 DUP2 MSTORE PUSH1 0x20 ADD PUSH1 0x0 KECCAK256 SLOAD PUSH1 0x40 MLOAD DUP4 PUSH4 0xFFFFFFFF AND PUSH1 0xE0 SHL DUP2 MSTORE PUSH1 0x4 ADD PUSH2 0x1EA3 SWAP3 SWAP2 SWAP1 PUSH2 0x4985 JUMP JUMPDEST PUSH1 0x20 PUSH1 0x40 MLOAD DUP1 DUP4 SUB DUP2 DUP7 GAS DELEGATECALL ISZERO DUP1 ISZERO PUSH2 0x1EC0 JUMPI RETURNDATASIZE PUSH1 0x0 DUP1 RETURNDATACOPY RETURNDATASIZE PUSH1 0x0 REVERT JUMPDEST POP POP POP POP PUSH1 0x40 MLOAD RETURNDATASIZE PUSH1 0x1F NOT PUSH1 0x1F DUP3 ADD AND DUP3 ADD DUP1 PUSH1 0x40 MSTORE POP DUP2 ADD SWAP1 PUSH2 0x1EE4 SWAP2 SWAP1 PUSH2 0x37F0 JUMP JUMPDEST POP JUMP JUMPDEST CALLER PUSH1 0x0 DUP1 PUSH2 0x100 EXP DUP2 SLOAD DUP2 PUSH20 0xFFFFFFFFFFFFFFFFFFFFFFFFFFFFFFFFFFFFFFFF MUL NOT AND SWAP1 DUP4 PUSH20 0xFFFFFFFFFFFFFFFFFFFFFFFFFFFFFFFFFFFFFFFF AND MUL OR SWAP1 SSTORE POP DUP2 PUSH1 0x3 SWAP1 DUP2 PUSH2 0x1F36 SWAP2 SWAP1 PUSH2 0x3BAF JUMP JUMPDEST POP DUP1 PUSH1 0x2 SWAP1 DUP2 PUSH2 0x1F46 SWAP2 SWAP1 PUSH2 0x3BAF JUMP JUMPDEST POP PUSH2 0x1F4F PUSH2 0x2980 JUMP JUMPDEST PUSH1 0x1 PUSH1 0x8 PUSH1 0x0 PUSH2 0x100 EXP DUP2 SLOAD DUP2 PUSH1 0xFF MUL NOT AND SWAP1 DUP4 ISZERO ISZERO MUL OR SWAP1 SSTORE POP POP POP JUMP JUMPDEST PUSH1 0xB DUP2 DUP2 SLOAD DUP2 LT PUSH2 0x1F7E JUMPI PUSH1 0x0 DUP1 REVERT JUMPDEST SWAP1 PUSH1 0x0 MSTORE PUSH1 0x20 PUSH1 0x0 KECCAK256 SWAP1 PUSH1 0x3 MUL ADD PUSH1 0x0 SWAP2 POP SWAP1 POP DUP1 PUSH1 0x0 ADD PUSH1 0x0 SWAP1 SLOAD SWAP1 PUSH2 0x100 EXP SWAP1 DIV PUSH20 0xFFFFFFFFFFFFFFFFFFFFFFFFFFFFFFFFFFFFFFFF AND SWAP1 DUP1 PUSH1 0x1 ADD SLOAD SWAP1 DUP1 PUSH1 0x2 ADD DUP1 SLOAD PUSH2 0x1FCD SWAP1 PUSH2 0x39DC JUMP JUMPDEST DUP1 PUSH1 0x1F ADD PUSH1 0x20 DUP1 SWAP2 DIV MUL PUSH1 0x20 ADD PUSH1 0x40 MLOAD SWAP1 DUP2 ADD PUSH1 0x40 MSTORE DUP1 SWAP3 SWAP2 SWAP1 DUP2 DUP2 MSTORE PUSH1 0x20 ADD DUP3 DUP1 SLOAD PUSH2 0x1FF9 SWAP1 PUSH2 0x39DC JUMP JUMPDEST DUP1 ISZERO PUSH2 0x2046 JUMPI DUP1 PUSH1 0x1F LT PUSH2 0x201B JUMPI PUSH2 0x100 DUP1 DUP4 SLOAD DIV MUL DUP4 MSTORE SWAP2 PUSH1 0x20 ADD SWAP2 PUSH2 0x2046 JUMP JUMPDEST DUP3 ADD SWAP2 SWAP1 PUSH1 0x0 MSTORE PUSH1 0x20 PUSH1 0x0 KECCAK256 SWAP1 JUMPDEST DUP2 SLOAD DUP2 MSTORE SWAP1 PUSH1 0x1 ADD SWAP1 PUSH1 0x20 ADD DUP1 DUP4 GT PUSH2 0x2029 JUMPI DUP3 SWAP1 SUB PUSH1 0x1F AND DUP3 ADD SWAP2 JUMPDEST POP POP POP POP POP SWAP1 POP DUP4 JUMP JUMPDEST PUSH1 0x3 DUP1 SLOAD PUSH2 0x205D SWAP1 PUSH2 0x39DC JUMP JUMPDEST DUP1 PUSH1 0x1F ADD PUSH1 0x20 DUP1 SWAP2 DIV MUL PUSH1 0x20 ADD PUSH1 0x40 MLOAD SWAP1 DUP2 ADD PUSH1 0x40 MSTORE DUP1 SWAP3 SWAP2 SWAP1 DUP2 DUP2 MSTORE PUSH1 0x20 ADD DUP3 DUP1 SLOAD PUSH2 0x2089 SWAP1 PUSH2 0x39DC JUMP JUMPDEST DUP1 ISZERO PUSH2 0x20D6 JUMPI DUP1 PUSH1 0x1F LT PUSH2 0x20AB JUMPI PUSH2 0x100 DUP1 DUP4 SLOAD DIV MUL DUP4 MSTORE SWAP2 PUSH1 0x20 ADD SWAP2 PUSH2 0x20D6 JUMP JUMPDEST DUP3 ADD SWAP2 SWAP1 PUSH1 0x0 MSTORE PUSH1 0x20 PUSH1 0x0 KECCAK256 SWAP1 JUMPDEST DUP2 SLOAD DUP2 MSTORE SWAP1 PUSH1 0x1 ADD SWAP1 PUSH1 0x20 ADD DUP1 DUP4 GT PUSH2 0x20B9 JUMPI DUP3 SWAP1 SUB PUSH1 0x1F AND DUP3 ADD SWAP2 JUMPDEST POP POP POP POP POP DUP2 JUMP JUMPDEST PUSH1 0x9 DUP2 DUP2 SLOAD DUP2 LT PUSH2 0x20EE JUMPI PUSH1 0x0 DUP1 REVERT JUMPDEST SWAP1 PUSH1 0x0 MSTORE PUSH1 0x20 PUSH1 0x0 KECCAK256 ADD PUSH1 0x0 SWAP2 POP SLOAD SWAP1 PUSH2 0x100 EXP SWAP1 DIV PUSH20 0xFFFFFFFFFFFFFFFFFFFFFFFFFFFFFFFFFFFFFFFF AND DUP2 JUMP JUMPDEST PUSH1 0x6 SLOAD TIMESTAMP GT PUSH2 0x2161 JUMPI PUSH1 0x40 MLOAD PUSH32 0x8C379A000000000000000000000000000000000000000000000000000000000 DUP2 MSTORE PUSH1 0x4 ADD PUSH2 0x2158 SWAP1 PUSH2 0x3DAB JUMP JUMPDEST PUSH1 0x40 MLOAD DUP1 SWAP2 SUB SWAP1 REVERT JUMPDEST PUSH1 0xB PUSH1 0x0 PUSH2 0x216F SWAP2 SWAP1 PUSH2 0x2CC7 JUMP JUMPDEST PUSH1 0x40 MLOAD DUP1 PUSH1 0x20 ADD PUSH1 0x40 MSTORE DUP1 PUSH1 0x0 DUP2 MSTORE POP PUSH1 0x2 SWAP1 DUP2 PUSH2 0x218D SWAP2 SWAP1 PUSH2 0x3BAF JUMP JUMPDEST POP PUSH1 0x40 MLOAD DUP1 PUSH1 0x20 ADD PUSH1 0x40 MSTORE DUP1 PUSH1 0x0 DUP2 MSTORE POP PUSH1 0x3 SWAP1 DUP2 PUSH2 0x21AC SWAP2 SWAP1 PUSH2 0x3BAF JUMP JUMPDEST POP PUSH2 0x21B5 PUSH2 0xA5B JUMP JUMPDEST PUSH1 0x9 PUSH1 0x0 PUSH2 0x21C3 SWAP2 SWAP1 PUSH2 0x2CEB JUMP JUMPDEST PUSH1 0xC PUSH1 0x0 PUSH2 0x21D1 SWAP2 SWAP1 PUSH2 0x2D0C JUMP JUMPDEST PUSH1 0x0 PUSH1 0x8 PUSH1 0x0 PUSH2 0x100 EXP DUP2 SLOAD DUP2 PUSH1 0xFF MUL NOT AND SWAP1 DUP4 ISZERO ISZERO MUL OR SWAP1 SSTORE POP JUMP JUMPDEST PUSH1 0x60 DUP1 PUSH1 0x1 ISZERO ISZERO PUSH1 0x8 PUSH1 0x0 SWAP1 SLOAD SWAP1 PUSH2 0x100 EXP SWAP1 DIV PUSH1 0xFF AND ISZERO ISZERO EQ PUSH2 0x2247 JUMPI PUSH1 0x40 MLOAD PUSH32 0x8C379A000000000000000000000000000000000000000000000000000000000 DUP2 MSTORE PUSH1 0x4 ADD PUSH2 0x223E SWAP1 PUSH2 0x3869 JUMP JUMPDEST PUSH1 0x40 MLOAD DUP1 SWAP2 SUB SWAP1 REVERT JUMPDEST PUSH1 0x3 PUSH1 0x2 DUP2 DUP1 SLOAD PUSH2 0x2257 SWAP1 PUSH2 0x39DC JUMP JUMPDEST DUP1 PUSH1 0x1F ADD PUSH1 0x20 DUP1 SWAP2 DIV MUL PUSH1 0x20 ADD PUSH1 0x40 MLOAD SWAP1 DUP2 ADD PUSH1 0x40 MSTORE DUP1 SWAP3 SWAP2 SWAP1 DUP2 DUP2 MSTORE PUSH1 0x20 ADD DUP3 DUP1 SLOAD PUSH2 0x2283 SWAP1 PUSH2 0x39DC JUMP JUMPDEST DUP1 ISZERO PUSH2 0x22D0 JUMPI DUP1 PUSH1 0x1F LT PUSH2 0x22A5 JUMPI PUSH2 0x100 DUP1 DUP4 SLOAD DIV MUL DUP4 MSTORE SWAP2 PUSH1 0x20 ADD SWAP2 PUSH2 0x22D0 JUMP JUMPDEST DUP3 ADD SWAP2 SWAP1 PUSH1 0x0 MSTORE PUSH1 0x20 PUSH1 0x0 KECCAK256 SWAP1 JUMPDEST DUP2 SLOAD DUP2 MSTORE SWAP1 PUSH1 0x1 ADD SWAP1 PUSH1 0x20 ADD DUP1 DUP4 GT PUSH2 0x22B3 JUMPI DUP3 SWAP1 SUB PUSH1 0x1F AND DUP3 ADD SWAP2 JUMPDEST POP POP POP POP POP SWAP2 POP DUP1 DUP1 SLOAD PUSH2 0x22E3 SWAP1 PUSH2 0x39DC JUMP JUMPDEST DUP1 PUSH1 0x1F ADD PUSH1 0x20 DUP1 SWAP2 DIV MUL PUSH1 0x20 ADD PUSH1 0x40 MLOAD SWAP1 DUP2 ADD PUSH1 0x40 MSTORE DUP1 SWAP3 SWAP2 SWAP1 DUP2 DUP2 MSTORE PUSH1 0x20 ADD DUP3 DUP1 SLOAD PUSH2 0x230F SWAP1 PUSH2 0x39DC JUMP JUMPDEST DUP1 ISZERO PUSH2 0x235C JUMPI DUP1 PUSH1 0x1F LT PUSH2 0x2331 JUMPI PUSH2 0x100 DUP1 DUP4 SLOAD DIV MUL DUP4 MSTORE SWAP2 PUSH1 0x20 ADD SWAP2 PUSH2 0x235C JUMP JUMPDEST DUP3 ADD SWAP2 SWAP1 PUSH1 0x0 MSTORE PUSH1 0x20 PUSH1 0x0 KECCAK256 SWAP1 JUMPDEST DUP2 SLOAD DUP2 MSTORE SWAP1 PUSH1 0x1 ADD SWAP1 PUSH1 0x20 ADD DUP1 DUP4 GT PUSH2 0x233F JUMPI DUP3 SWAP1 SUB PUSH1 0x1F AND DUP3 ADD SWAP2 JUMPDEST POP POP POP POP POP SWAP1 POP SWAP2 POP SWAP2 POP SWAP1 SWAP2 JUMP JUMPDEST PUSH1 0x60 PUSH1 0x1 ISZERO ISZERO PUSH1 0x8 PUSH1 0x0 SWAP1 SLOAD SWAP1 PUSH2 0x100 EXP SWAP1 DIV PUSH1 0xFF AND ISZERO ISZERO EQ PUSH2 0x23C3 JUMPI PUSH1 0x40 MLOAD PUSH32 0x8C379A000000000000000000000000000000000000000000000000000000000 DUP2 MSTORE PUSH1 0x4 ADD PUSH2 0x23BA SWAP1 PUSH2 0x3869 JUMP JUMPDEST PUSH1 0x40 MLOAD DUP1 SWAP2 SUB SWAP1 REVERT JUMPDEST PUSH1 0xB DUP1 SLOAD DUP1 PUSH1 0x20 MUL PUSH1 0x20 ADD PUSH1 0x40 MLOAD SWAP1 DUP2 ADD PUSH1 0x40 MSTORE DUP1 SWAP3 SWAP2 SWAP1 DUP2 DUP2 MSTORE PUSH1 0x20 ADD PUSH1 0x0 SWAP1 JUMPDEST DUP3 DUP3 LT ISZERO PUSH2 0x2509 JUMPI DUP4 DUP3 SWAP1 PUSH1 0x0 MSTORE PUSH1 0x20 PUSH1 0x0 KECCAK256 SWAP1 PUSH1 0x3 MUL ADD PUSH1 0x40 MLOAD DUP1 PUSH1 0x60 ADD PUSH1 0x40 MSTORE SWAP1 DUP2 PUSH1 0x0 DUP3 ADD PUSH1 0x0 SWAP1 SLOAD SWAP1 PUSH2 0x100 EXP SWAP1 DIV PUSH20 0xFFFFFFFFFFFFFFFFFFFFFFFFFFFFFFFFFFFFFFFF AND PUSH20 0xFFFFFFFFFFFFFFFFFFFFFFFFFFFFFFFFFFFFFFFF AND PUSH20 0xFFFFFFFFFFFFFFFFFFFFFFFFFFFFFFFFFFFFFFFF AND DUP2 MSTORE PUSH1 0x20 ADD PUSH1 0x1 DUP3 ADD SLOAD DUP2 MSTORE PUSH1 0x20 ADD PUSH1 0x2 DUP3 ADD DUP1 SLOAD PUSH2 0x2478 SWAP1 PUSH2 0x39DC JUMP JUMPDEST DUP1 PUSH1 0x1F ADD PUSH1 0x20 DUP1 SWAP2 DIV MUL PUSH1 0x20 ADD PUSH1 0x40 MLOAD SWAP1 DUP2 ADD PUSH1 0x40 MSTORE DUP1 SWAP3 SWAP2 SWAP1 DUP2 DUP2 MSTORE PUSH1 0x20 ADD DUP3 DUP1 SLOAD PUSH2 0x24A4 SWAP1 PUSH2 0x39DC JUMP JUMPDEST DUP1 ISZERO PUSH2 0x24F1 JUMPI DUP1 PUSH1 0x1F LT PUSH2 0x24C6 JUMPI PUSH2 0x100 DUP1 DUP4 SLOAD DIV MUL DUP4 MSTORE SWAP2 PUSH1 0x20 ADD SWAP2 PUSH2 0x24F1 JUMP JUMPDEST DUP3 ADD SWAP2 SWAP1 PUSH1 0x0 MSTORE PUSH1 0x20 PUSH1 0x0 KECCAK256 SWAP1 JUMPDEST DUP2 SLOAD DUP2 MSTORE SWAP1 PUSH1 0x1 ADD SWAP1 PUSH1 0x20 ADD DUP1 DUP4 GT PUSH2 0x24D4 JUMPI DUP3 SWAP1 SUB PUSH1 0x1F AND DUP3 ADD SWAP2 JUMPDEST POP POP POP POP POP DUP2 MSTORE POP POP DUP2 MSTORE PUSH1 0x20 ADD SWAP1 PUSH1 0x1 ADD SWAP1 PUSH2 0x23E5 JUMP JUMPDEST POP POP POP POP SWAP1 POP SWAP1 JUMP JUMPDEST PUSH1 0x1 ISZERO ISZERO PUSH1 0x8 PUSH1 0x0 SWAP1 SLOAD SWAP1 PUSH2 0x100 EXP SWAP1 DIV PUSH1 0xFF AND ISZERO ISZERO EQ PUSH2 0x2568 JUMPI PUSH1 0x40 MLOAD PUSH32 0x8C379A000000000000000000000000000000000000000000000000000000000 DUP2 MSTORE PUSH1 0x4 ADD PUSH2 0x255F SWAP1 PUSH2 0x3869 JUMP JUMPDEST PUSH1 0x40 MLOAD DUP1 SWAP2 SUB SWAP1 REVERT JUMPDEST PUSH1 0x1 ISZERO ISZERO PUSH2 0x2574 PUSH2 0x29FA JUMP JUMPDEST ISZERO ISZERO EQ PUSH2 0x25B6 JUMPI PUSH1 0x40 MLOAD PUSH32 0x8C379A000000000000000000000000000000000000000000000000000000000 DUP2 MSTORE PUSH1 0x4 ADD PUSH2 0x25AD SWAP1 PUSH2 0x4A33 JUMP JUMPDEST PUSH1 0x40 MLOAD DUP1 SWAP2 SUB SWAP1 REVERT JUMPDEST DUP1 PUSH1 0xA PUSH1 0x0 CALLER PUSH20 0xFFFFFFFFFFFFFFFFFFFFFFFFFFFFFFFFFFFFFFFF AND PUSH20 0xFFFFFFFFFFFFFFFFFFFFFFFFFFFFFFFFFFFFFFFF AND DUP2 MSTORE PUSH1 0x20 ADD SWAP1 DUP2 MSTORE PUSH1 0x20 ADD PUSH1 0x0 KECCAK256 DUP2 SWAP1 SSTORE POP POP JUMP JUMPDEST PUSH1 0x1 ISZERO ISZERO PUSH1 0x8 PUSH1 0x0 SWAP1 SLOAD SWAP1 PUSH2 0x100 EXP SWAP1 DIV PUSH1 0xFF AND ISZERO ISZERO EQ PUSH2 0x2653 JUMPI PUSH1 0x40 MLOAD PUSH32 0x8C379A000000000000000000000000000000000000000000000000000000000 DUP2 MSTORE PUSH1 0x4 ADD PUSH2 0x264A SWAP1 PUSH2 0x3869 JUMP JUMPDEST PUSH1 0x40 MLOAD DUP1 SWAP2 SUB SWAP1 REVERT JUMPDEST PUSH1 0x0 DUP1 SLOAD SWAP1 PUSH2 0x100 EXP SWAP1 DIV PUSH20 0xFFFFFFFFFFFFFFFFFFFFFFFFFFFFFFFFFFFFFFFF AND PUSH20 0xFFFFFFFFFFFFFFFFFFFFFFFFFFFFFFFFFFFFFFFF AND CALLER PUSH20 0xFFFFFFFFFFFFFFFFFFFFFFFFFFFFFFFFFFFFFFFF AND SUB PUSH2 0x26E1 JUMPI PUSH1 0x40 MLOAD PUSH32 0x8C379A000000000000000000000000000000000000000000000000000000000 DUP2 MSTORE PUSH1 0x4 ADD PUSH2 0x26D8 SWAP1 PUSH2 0x4AC5 JUMP JUMPDEST PUSH1 0x40 MLOAD DUP1 SWAP2 SUB SWAP1 REVERT JUMPDEST PUSH1 0x4 SLOAD TIMESTAMP LT PUSH2 0x2725 JUMPI PUSH1 0x40 MLOAD PUSH32 0x8C379A000000000000000000000000000000000000000000000000000000000 DUP2 MSTORE PUSH1 0x4 ADD PUSH2 0x271C SWAP1 PUSH2 0x4B57 JUMP JUMPDEST PUSH1 0x40 MLOAD DUP1 SWAP2 SUB SWAP1 REVERT JUMPDEST PUSH1 0x9 CALLER SWAP1 DUP1 PUSH1 0x1 DUP2 SLOAD ADD DUP1 DUP3 SSTORE DUP1 SWAP2 POP POP PUSH1 0x1 SWAP1 SUB SWAP1 PUSH1 0x0 MSTORE PUSH1 0x20 PUSH1 0x0 KECCAK256 ADD PUSH1 0x0 SWAP1 SWAP2 SWAP1 SWAP2 SWAP1 SWAP2 PUSH2 0x100 EXP DUP2 SLOAD DUP2 PUSH20 0xFFFFFFFFFFFFFFFFFFFFFFFFFFFFFFFFFFFFFFFF MUL NOT AND SWAP1 DUP4 PUSH20 0xFFFFFFFFFFFFFFFFFFFFFFFFFFFFFFFFFFFFFFFF AND MUL OR SWAP1 SSTORE POP JUMP JUMPDEST PUSH1 0x0 DUP1 PUSH2 0x2796 DUP5 PUSH2 0x2AA6 JUMP JUMPDEST SWAP1 POP PUSH1 0x0 DUP2 DUP5 PUSH1 0x40 MLOAD PUSH1 0x20 ADD PUSH2 0x27AD SWAP3 SWAP2 SWAP1 PUSH2 0x4BA8 JUMP JUMPDEST PUSH1 0x40 MLOAD PUSH1 0x20 DUP2 DUP4 SUB SUB DUP2 MSTORE SWAP1 PUSH1 0x40 MSTORE SWAP1 POP PUSH1 0x2 DUP2 PUSH1 0x40 MLOAD PUSH1 0x20 ADD PUSH2 0x27D1 SWAP2 SWAP1 PUSH2 0x4BCC JUMP JUMPDEST PUSH1 0x40 MLOAD PUSH1 0x20 DUP2 DUP4 SUB SUB DUP2 MSTORE SWAP1 PUSH1 0x40 MSTORE PUSH1 0x40 MLOAD PUSH2 0x27ED SWAP2 SWAP1 PUSH2 0x426E JUMP JUMPDEST PUSH1 0x20 PUSH1 0x40 MLOAD DUP1 DUP4 SUB DUP2 DUP6 GAS STATICCALL ISZERO DUP1 ISZERO PUSH2 0x280A JUMPI RETURNDATASIZE PUSH1 0x0 DUP1 RETURNDATACOPY RETURNDATASIZE PUSH1 0x0 REVERT JUMPDEST POP POP POP PUSH1 0x40 MLOAD RETURNDATASIZE PUSH1 0x1F NOT PUSH1 0x1F DUP3 ADD AND DUP3 ADD DUP1 PUSH1 0x40 MSTORE POP DUP2 ADD SWAP1 PUSH2 0x282D SWAP2 SWAP1 PUSH2 0x429A JUMP JUMPDEST SWAP3 POP POP POP SWAP3 SWAP2 POP POP JUMP JUMPDEST PUSH1 0x0 DUP1 PUSH1 0x0 SWAP1 POP JUMPDEST PUSH1 0xB DUP1 SLOAD SWAP1 POP DUP2 LT ISZERO PUSH2 0x2896 JUMPI PUSH1 0xB DUP2 DUP2 SLOAD DUP2 LT PUSH2 0x2860 JUMPI PUSH2 0x285F PUSH2 0x36E1 JUMP JUMPDEST JUMPDEST SWAP1 PUSH1 0x0 MSTORE PUSH1 0x20 PUSH1 0x0 KECCAK256 SWAP1 PUSH1 0x3 MUL ADD PUSH1 0x1 ADD SLOAD DUP4 GT ISZERO PUSH2 0x2883 JUMPI PUSH1 0x1 SWAP2 POP POP PUSH2 0x289C JUMP JUMPDEST DUP1 DUP1 PUSH2 0x288E SWAP1 PUSH2 0x4BE3 JUMP JUMPDEST SWAP2 POP POP PUSH2 0x283F JUMP JUMPDEST POP PUSH1 0x0 SWAP1 POP JUMPDEST SWAP2 SWAP1 POP JUMP JUMPDEST PUSH1 0xB PUSH1 0x0 PUSH2 0x28AF SWAP2 SWAP1 PUSH2 0x2CC7 JUMP JUMPDEST JUMP JUMPDEST PUSH1 0x0 PUSH1 0x40 MLOAD DUP1 PUSH1 0x60 ADD PUSH1 0x40 MSTORE DUP1 CALLER PUSH20 0xFFFFFFFFFFFFFFFFFFFFFFFFFFFFFFFFFFFFFFFF AND DUP2 MSTORE PUSH1 0x20 ADD DUP5 DUP2 MSTORE PUSH1 0x20 ADD DUP4 DUP2 MSTORE POP SWAP1 POP PUSH1 0xB DUP2 SWAP1 DUP1 PUSH1 0x1 DUP2 SLOAD ADD DUP1 DUP3 SSTORE DUP1 SWAP2 POP POP PUSH1 0x1 SWAP1 SUB SWAP1 PUSH1 0x0 MSTORE PUSH1 0x20 PUSH1 0x0 KECCAK256 SWAP1 PUSH1 0x3 MUL ADD PUSH1 0x0 SWAP1 SWAP2 SWAP1 SWAP2 SWAP1 SWAP2 POP PUSH1 0x0 DUP3 ADD MLOAD DUP2 PUSH1 0x0 ADD PUSH1 0x0 PUSH2 0x100 EXP DUP2 SLOAD DUP2 PUSH20 0xFFFFFFFFFFFFFFFFFFFFFFFFFFFFFFFFFFFFFFFF MUL NOT AND SWAP1 DUP4 PUSH20 0xFFFFFFFFFFFFFFFFFFFFFFFFFFFFFFFFFFFFFFFF AND MUL OR SWAP1 SSTORE POP PUSH1 0x20 DUP3 ADD MLOAD DUP2 PUSH1 0x1 ADD SSTORE PUSH1 0x40 DUP3 ADD MLOAD DUP2 PUSH1 0x2 ADD SWAP1 DUP2 PUSH2 0x2978 SWAP2 SWAP1 PUSH2 0x3BAF JUMP JUMPDEST POP POP POP POP POP POP JUMP JUMPDEST PUSH1 0x3C PUSH1 0x7 SLOAD PUSH2 0x298F SWAP2 SWAP1 PUSH2 0x4C2B JUMP JUMPDEST TIMESTAMP PUSH2 0x299A SWAP2 SWAP1 PUSH2 0x3DFA JUMP JUMPDEST PUSH1 0x4 DUP2 SWAP1 SSTORE POP PUSH1 0x3C PUSH1 0x7 SLOAD PUSH1 0x2 PUSH2 0x29B1 SWAP2 SWAP1 PUSH2 0x4C2B JUMP JUMPDEST PUSH2 0x29BB SWAP2 SWAP1 PUSH2 0x4C2B JUMP JUMPDEST TIMESTAMP PUSH2 0x29C6 SWAP2 SWAP1 PUSH2 0x3DFA JUMP JUMPDEST PUSH1 0x5 DUP2 SWAP1 SSTORE POP PUSH1 0x3C PUSH1 0x7 SLOAD PUSH1 0x3 PUSH2 0x29DD SWAP2 SWAP1 PUSH2 0x4C2B JUMP JUMPDEST PUSH2 0x29E7 SWAP2 SWAP1 PUSH2 0x4C2B JUMP JUMPDEST TIMESTAMP PUSH2 0x29F2 SWAP2 SWAP1 PUSH2 0x3DFA JUMP JUMPDEST PUSH1 0x6 DUP2 SWAP1 SSTORE POP JUMP JUMPDEST PUSH1 0x0 DUP1 PUSH1 0x0 SWAP1 POP JUMPDEST PUSH1 0x9 DUP1 SLOAD SWAP1 POP DUP2 LT ISZERO PUSH2 0x2A9D JUMPI PUSH1 0x9 DUP2 DUP2 SLOAD DUP2 LT PUSH2 0x2A23 JUMPI PUSH2 0x2A22 PUSH2 0x36E1 JUMP JUMPDEST JUMPDEST SWAP1 PUSH1 0x0 MSTORE PUSH1 0x20 PUSH1 0x0 KECCAK256 ADD PUSH1 0x0 SWAP1 SLOAD SWAP1 PUSH2 0x100 EXP SWAP1 DIV PUSH20 0xFFFFFFFFFFFFFFFFFFFFFFFFFFFFFFFFFFFFFFFF AND PUSH20 0xFFFFFFFFFFFFFFFFFFFFFFFFFFFFFFFFFFFFFFFF AND CALLER PUSH20 0xFFFFFFFFFFFFFFFFFFFFFFFFFFFFFFFFFFFFFFFF AND SUB PUSH2 0x2A8A JUMPI PUSH1 0x1 SWAP2 POP POP PUSH2 0x2AA3 JUMP JUMPDEST DUP1 DUP1 PUSH2 0x2A95 SWAP1 PUSH2 0x4BE3 JUMP JUMPDEST SWAP2 POP POP PUSH2 0x2A02 JUMP JUMPDEST POP PUSH1 0x0 SWAP1 POP JUMPDEST SWAP1 JUMP JUMPDEST PUSH1 0x60 PUSH1 0x0 PUSH1 0x1 PUSH2 0x2AB5 DUP5 PUSH2 0x2B74 JUMP JUMPDEST ADD SWAP1 POP PUSH1 0x0 DUP2 PUSH8 0xFFFFFFFFFFFFFFFF DUP2 GT ISZERO PUSH2 0x2AD4 JUMPI PUSH2 0x2AD3 PUSH2 0x2EFA JUMP JUMPDEST JUMPDEST PUSH1 0x40 MLOAD SWAP1 DUP1 DUP3 MSTORE DUP1 PUSH1 0x1F ADD PUSH1 0x1F NOT AND PUSH1 0x20 ADD DUP3 ADD PUSH1 0x40 MSTORE DUP1 ISZERO PUSH2 0x2B06 JUMPI DUP2 PUSH1 0x20 ADD PUSH1 0x1 DUP3 MUL DUP1 CALLDATASIZE DUP4 CALLDATACOPY DUP1 DUP3 ADD SWAP2 POP POP SWAP1 POP JUMPDEST POP SWAP1 POP PUSH1 0x0 DUP3 PUSH1 0x20 ADD DUP3 ADD SWAP1 POP JUMPDEST PUSH1 0x1 ISZERO PUSH2 0x2B69 JUMPI DUP1 DUP1 PUSH1 0x1 SWAP1 SUB SWAP2 POP POP PUSH32 0x3031323334353637383961626364656600000000000000000000000000000000 PUSH1 0xA DUP7 MOD BYTE DUP2 MSTORE8 PUSH1 0xA DUP6 DUP2 PUSH2 0x2B5D JUMPI PUSH2 0x2B5C PUSH2 0x4C6D JUMP JUMPDEST JUMPDEST DIV SWAP5 POP PUSH1 0x0 DUP6 SUB PUSH2 0x2B14 JUMPI JUMPDEST DUP2 SWAP4 POP POP POP POP SWAP2 SWAP1 POP JUMP JUMPDEST PUSH1 0x0 DUP1 PUSH1 0x0 SWAP1 POP PUSH27 0x184F03E93FF9F4DAA797ED6E38ED64BF6A1F010000000000000000 DUP4 LT PUSH2 0x2BD2 JUMPI PUSH27 0x184F03E93FF9F4DAA797ED6E38ED64BF6A1F010000000000000000 DUP4 DUP2 PUSH2 0x2BC8 JUMPI PUSH2 0x2BC7 PUSH2 0x4C6D JUMP JUMPDEST JUMPDEST DIV SWAP3 POP PUSH1 0x40 DUP2 ADD SWAP1 POP JUMPDEST PUSH14 0x4EE2D6D415B85ACEF8100000000 DUP4 LT PUSH2 0x2C0F JUMPI PUSH14 0x4EE2D6D415B85ACEF8100000000 DUP4 DUP2 PUSH2 0x2C05 JUMPI PUSH2 0x2C04 PUSH2 0x4C6D JUMP JUMPDEST JUMPDEST DIV SWAP3 POP PUSH1 0x20 DUP2 ADD SWAP1 POP JUMPDEST PUSH7 0x2386F26FC10000 DUP4 LT PUSH2 0x2C3E JUMPI PUSH7 0x2386F26FC10000 DUP4 DUP2 PUSH2 0x2C34 JUMPI PUSH2 0x2C33 PUSH2 0x4C6D JUMP JUMPDEST JUMPDEST DIV SWAP3 POP PUSH1 0x10 DUP2 ADD SWAP1 POP JUMPDEST PUSH4 0x5F5E100 DUP4 LT PUSH2 0x2C67 JUMPI PUSH4 0x5F5E100 DUP4 DUP2 PUSH2 0x2C5D JUMPI PUSH2 0x2C5C PUSH2 0x4C6D JUMP JUMPDEST JUMPDEST DIV SWAP3 POP PUSH1 0x8 DUP2 ADD SWAP1 POP JUMPDEST PUSH2 0x2710 DUP4 LT PUSH2 0x2C8C JUMPI PUSH2 0x2710 DUP4 DUP2 PUSH2 0x2C82 JUMPI PUSH2 0x2C81 PUSH2 0x4C6D JUMP JUMPDEST JUMPDEST DIV SWAP3 POP PUSH1 0x4 DUP2 ADD SWAP1 POP JUMPDEST PUSH1 0x64 DUP4 LT PUSH2 0x2CAF JUMPI PUSH1 0x64 DUP4 DUP2 PUSH2 0x2CA5 JUMPI PUSH2 0x2CA4 PUSH2 0x4C6D JUMP JUMPDEST JUMPDEST DIV SWAP3 POP PUSH1 0x2 DUP2 ADD SWAP1 POP JUMPDEST PUSH1 0xA DUP4 LT PUSH2 0x2CBE JUMPI PUSH1 0x1 DUP2 ADD SWAP1 POP JUMPDEST DUP1 SWAP2 POP POP SWAP2 SWAP1 POP JUMP JUMPDEST POP DUP1 SLOAD PUSH1 0x0 DUP3 SSTORE PUSH1 0x3 MUL SWAP1 PUSH1 0x0 MSTORE PUSH1 0x20 PUSH1 0x0 KECCAK256 SWAP1 DUP2 ADD SWAP1 PUSH2 0x2CE8 SWAP2 SWAP1 PUSH2 0x2D30 JUMP JUMPDEST POP JUMP JUMPDEST POP DUP1 SLOAD PUSH1 0x0 DUP3 SSTORE SWAP1 PUSH1 0x0 MSTORE PUSH1 0x20 PUSH1 0x0 KECCAK256 SWAP1 DUP2 ADD SWAP1 PUSH2 0x2D09 SWAP2 SWAP1 PUSH2 0x2D86 JUMP JUMPDEST POP JUMP JUMPDEST POP DUP1 SLOAD PUSH1 0x0 DUP3 SSTORE PUSH1 0x3 MUL SWAP1 PUSH1 0x0 MSTORE PUSH1 0x20 PUSH1 0x0 KECCAK256 SWAP1 DUP2 ADD SWAP1 PUSH2 0x2D2D SWAP2 SWAP1 PUSH2 0x2DA3 JUMP JUMPDEST POP JUMP JUMPDEST JUMPDEST DUP1 DUP3 GT ISZERO PUSH2 0x2D82 JUMPI PUSH1 0x0 DUP1 DUP3 ADD PUSH1 0x0 PUSH2 0x100 EXP DUP2 SLOAD SWAP1 PUSH20 0xFFFFFFFFFFFFFFFFFFFFFFFFFFFFFFFFFFFFFFFF MUL NOT AND SWAP1 SSTORE PUSH1 0x1 DUP3 ADD PUSH1 0x0 SWAP1 SSTORE PUSH1 0x2 DUP3 ADD PUSH1 0x0 PUSH2 0x2D79 SWAP2 SWAP1 PUSH2 0x2DF9 JUMP JUMPDEST POP PUSH1 0x3 ADD PUSH2 0x2D31 JUMP JUMPDEST POP SWAP1 JUMP JUMPDEST JUMPDEST DUP1 DUP3 GT ISZERO PUSH2 0x2D9F JUMPI PUSH1 0x0 DUP2 PUSH1 0x0 SWAP1 SSTORE POP PUSH1 0x1 ADD PUSH2 0x2D87 JUMP JUMPDEST POP SWAP1 JUMP JUMPDEST JUMPDEST DUP1 DUP3 GT ISZERO PUSH2 0x2DF5 JUMPI PUSH1 0x0 DUP1 DUP3 ADD PUSH1 0x0 SWAP1 SSTORE PUSH1 0x1 DUP3 ADD PUSH1 0x0 PUSH2 0x100 EXP DUP2 SLOAD SWAP1 PUSH20 0xFFFFFFFFFFFFFFFFFFFFFFFFFFFFFFFFFFFFFFFF MUL NOT AND SWAP1 SSTORE PUSH1 0x2 DUP3 ADD PUSH1 0x0 PUSH2 0x2DEC SWAP2 SWAP1 PUSH2 0x2DF9 JUMP JUMPDEST POP PUSH1 0x3 ADD PUSH2 0x2DA4 JUMP JUMPDEST POP SWAP1 JUMP JUMPDEST POP DUP1 SLOAD PUSH2 0x2E05 SWAP1 PUSH2 0x39DC JUMP JUMPDEST PUSH1 0x0 DUP3 SSTORE DUP1 PUSH1 0x1F LT PUSH2 0x2E17 JUMPI POP PUSH2 0x2E36 JUMP JUMPDEST PUSH1 0x1F ADD PUSH1 0x20 SWAP1 DIV SWAP1 PUSH1 0x0 MSTORE PUSH1 0x20 PUSH1 0x0 KECCAK256 SWAP1 DUP2 ADD SWAP1 PUSH2 0x2E35 SWAP2 SWAP1 PUSH2 0x2D86 JUMP JUMPDEST JUMPDEST POP JUMP JUMPDEST PUSH1 0x0 PUSH20 0xFFFFFFFFFFFFFFFFFFFFFFFFFFFFFFFFFFFFFFFF DUP3 AND SWAP1 POP SWAP2 SWAP1 POP JUMP JUMPDEST PUSH1 0x0 PUSH2 0x2E64 DUP3 PUSH2 0x2E39 JUMP JUMPDEST SWAP1 POP SWAP2 SWAP1 POP JUMP JUMPDEST PUSH2 0x2E74 DUP2 PUSH2 0x2E59 JUMP JUMPDEST DUP3 MSTORE POP POP JUMP JUMPDEST PUSH1 0x0 PUSH1 0x20 DUP3 ADD SWAP1 POP PUSH2 0x2E8F PUSH1 0x0 DUP4 ADD DUP5 PUSH2 0x2E6B JUMP JUMPDEST SWAP3 SWAP2 POP POP JUMP JUMPDEST PUSH1 0x0 PUSH1 0x40 MLOAD SWAP1 POP SWAP1 JUMP JUMPDEST PUSH1 0x0 DUP1 REVERT JUMPDEST PUSH1 0x0 DUP1 REVERT JUMPDEST PUSH1 0x0 DUP2 SWAP1 POP SWAP2 SWAP1 POP JUMP JUMPDEST PUSH2 0x2EBC DUP2 PUSH2 0x2EA9 JUMP JUMPDEST DUP2 EQ PUSH2 0x2EC7 JUMPI PUSH1 0x0 DUP1 REVERT JUMPDEST POP JUMP JUMPDEST PUSH1 0x0 DUP2 CALLDATALOAD SWAP1 POP PUSH2 0x2ED9 DUP2 PUSH2 0x2EB3 JUMP JUMPDEST SWAP3 SWAP2 POP POP JUMP JUMPDEST PUSH1 0x0 DUP1 REVERT JUMPDEST PUSH1 0x0 DUP1 REVERT JUMPDEST PUSH1 0x0 PUSH1 0x1F NOT PUSH1 0x1F DUP4 ADD AND SWAP1 POP SWAP2 SWAP1 POP JUMP JUMPDEST PUSH32 0x4E487B7100000000000000000000000000000000000000000000000000000000 PUSH1 0x0 MSTORE PUSH1 0x41 PUSH1 0x4 MSTORE PUSH1 0x24 PUSH1 0x0 REVERT JUMPDEST PUSH2 0x2F32 DUP3 PUSH2 0x2EE9 JUMP JUMPDEST DUP2 ADD DUP2 DUP2 LT PUSH8 0xFFFFFFFFFFFFFFFF DUP3 GT OR ISZERO PUSH2 0x2F51 JUMPI PUSH2 0x2F50 PUSH2 0x2EFA JUMP JUMPDEST JUMPDEST DUP1 PUSH1 0x40 MSTORE POP POP POP JUMP JUMPDEST PUSH1 0x0 PUSH2 0x2F64 PUSH2 0x2E95 JUMP JUMPDEST SWAP1 POP PUSH2 0x2F70 DUP3 DUP3 PUSH2 0x2F29 JUMP JUMPDEST SWAP2 SWAP1 POP JUMP JUMPDEST PUSH1 0x0 PUSH8 0xFFFFFFFFFFFFFFFF DUP3 GT ISZERO PUSH2 0x2F90 JUMPI PUSH2 0x2F8F PUSH2 0x2EFA JUMP JUMPDEST JUMPDEST PUSH2 0x2F99 DUP3 PUSH2 0x2EE9 JUMP JUMPDEST SWAP1 POP PUSH1 0x20 DUP2 ADD SWAP1 POP SWAP2 SWAP1 POP JUMP JUMPDEST DUP3 DUP2 DUP4 CALLDATACOPY PUSH1 0x0 DUP4 DUP4 ADD MSTORE POP POP POP JUMP JUMPDEST PUSH1 0x0 PUSH2 0x2FC8 PUSH2 0x2FC3 DUP5 PUSH2 0x2F75 JUMP JUMPDEST PUSH2 0x2F5A JUMP JUMPDEST SWAP1 POP DUP3 DUP2 MSTORE PUSH1 0x20 DUP2 ADD DUP5 DUP5 DUP5 ADD GT ISZERO PUSH2 0x2FE4 JUMPI PUSH2 0x2FE3 PUSH2 0x2EE4 JUMP JUMPDEST JUMPDEST PUSH2 0x2FEF DUP5 DUP3 DUP6 PUSH2 0x2FA6 JUMP JUMPDEST POP SWAP4 SWAP3 POP POP POP JUMP JUMPDEST PUSH1 0x0 DUP3 PUSH1 0x1F DUP4 ADD SLT PUSH2 0x300C JUMPI PUSH2 0x300B PUSH2 0x2EDF JUMP JUMPDEST JUMPDEST DUP2 CALLDATALOAD PUSH2 0x301C DUP5 DUP3 PUSH1 0x20 DUP7 ADD PUSH2 0x2FB5 JUMP JUMPDEST SWAP2 POP POP SWAP3 SWAP2 POP POP JUMP JUMPDEST PUSH1 0x0 DUP1 PUSH1 0x40 DUP4 DUP6 SUB SLT ISZERO PUSH2 0x303C JUMPI PUSH2 0x303B PUSH2 0x2E9F JUMP JUMPDEST JUMPDEST PUSH1 0x0 PUSH2 0x304A DUP6 DUP3 DUP7 ADD PUSH2 0x2ECA JUMP JUMPDEST SWAP3 POP POP PUSH1 0x20 DUP4 ADD CALLDATALOAD PUSH8 0xFFFFFFFFFFFFFFFF DUP2 GT ISZERO PUSH2 0x306B JUMPI PUSH2 0x306A PUSH2 0x2EA4 JUMP JUMPDEST JUMPDEST PUSH2 0x3077 DUP6 DUP3 DUP7 ADD PUSH2 0x2FF7 JUMP JUMPDEST SWAP2 POP POP SWAP3 POP SWAP3 SWAP1 POP JUMP JUMPDEST PUSH1 0x0 DUP2 MLOAD SWAP1 POP SWAP2 SWAP1 POP JUMP JUMPDEST PUSH1 0x0 DUP3 DUP3 MSTORE PUSH1 0x20 DUP3 ADD SWAP1 POP SWAP3 SWAP2 POP POP JUMP JUMPDEST PUSH1 0x0 DUP2 SWAP1 POP PUSH1 0x20 DUP3 ADD SWAP1 POP SWAP2 SWAP1 POP JUMP JUMPDEST PUSH2 0x30B6 DUP2 PUSH2 0x2EA9 JUMP JUMPDEST DUP3 MSTORE POP POP JUMP JUMPDEST PUSH2 0x30C5 DUP2 PUSH2 0x2E59 JUMP JUMPDEST DUP3 MSTORE POP POP JUMP JUMPDEST PUSH1 0x0 DUP2 MLOAD SWAP1 POP SWAP2 SWAP1 POP JUMP JUMPDEST PUSH1 0x0 DUP3 DUP3 MSTORE PUSH1 0x20 DUP3 ADD SWAP1 POP SWAP3 SWAP2 POP POP JUMP JUMPDEST PUSH1 0x0 JUMPDEST DUP4 DUP2 LT ISZERO PUSH2 0x3105 JUMPI DUP1 DUP3 ADD MLOAD DUP2 DUP5 ADD MSTORE PUSH1 0x20 DUP2 ADD SWAP1 POP PUSH2 0x30EA JUMP JUMPDEST PUSH1 0x0 DUP5 DUP5 ADD MSTORE POP POP POP POP JUMP JUMPDEST PUSH1 0x0 PUSH2 0x311C DUP3 PUSH2 0x30CB JUMP JUMPDEST PUSH2 0x3126 DUP2 DUP6 PUSH2 0x30D6 JUMP JUMPDEST SWAP4 POP PUSH2 0x3136 DUP2 DUP6 PUSH1 0x20 DUP7 ADD PUSH2 0x30E7 JUMP JUMPDEST PUSH2 0x313F DUP2 PUSH2 0x2EE9 JUMP JUMPDEST DUP5 ADD SWAP2 POP POP SWAP3 SWAP2 POP POP JUMP JUMPDEST PUSH1 0x0 PUSH1 0x60 DUP4 ADD PUSH1 0x0 DUP4 ADD MLOAD PUSH2 0x3162 PUSH1 0x0 DUP7 ADD DUP3 PUSH2 0x30AD JUMP JUMPDEST POP PUSH1 0x20 DUP4 ADD MLOAD PUSH2 0x3175 PUSH1 0x20 DUP7 ADD DUP3 PUSH2 0x30BC JUMP JUMPDEST POP PUSH1 0x40 DUP4 ADD MLOAD DUP5 DUP3 SUB PUSH1 0x40 DUP7 ADD MSTORE PUSH2 0x318D DUP3 DUP3 PUSH2 0x3111 JUMP JUMPDEST SWAP2 POP POP DUP1 SWAP2 POP POP SWAP3 SWAP2 POP POP JUMP JUMPDEST PUSH1 0x0 PUSH2 0x31A6 DUP4 DUP4 PUSH2 0x314A JUMP JUMPDEST SWAP1 POP SWAP3 SWAP2 POP POP JUMP JUMPDEST PUSH1 0x0 PUSH1 0x20 DUP3 ADD SWAP1 POP SWAP2 SWAP1 POP JUMP JUMPDEST PUSH1 0x0 PUSH2 0x31C6 DUP3 PUSH2 0x3081 JUMP JUMPDEST PUSH2 0x31D0 DUP2 DUP6 PUSH2 0x308C JUMP JUMPDEST SWAP4 POP DUP4 PUSH1 0x20 DUP3 MUL DUP6 ADD PUSH2 0x31E2 DUP6 PUSH2 0x309D JUMP JUMPDEST DUP1 PUSH1 0x0 JUMPDEST DUP6 DUP2 LT ISZERO PUSH2 0x321E JUMPI DUP5 DUP5 SUB DUP10 MSTORE DUP2 MLOAD PUSH2 0x31FF DUP6 DUP3 PUSH2 0x319A JUMP JUMPDEST SWAP5 POP PUSH2 0x320A DUP4 PUSH2 0x31AE JUMP JUMPDEST SWAP3 POP PUSH1 0x20 DUP11 ADD SWAP10 POP POP PUSH1 0x1 DUP2 ADD SWAP1 POP PUSH2 0x31E6 JUMP JUMPDEST POP DUP3 SWAP8 POP DUP8 SWAP6 POP POP POP POP POP POP SWAP3 SWAP2 POP POP JUMP JUMPDEST PUSH1 0x0 PUSH1 0x20 DUP3 ADD SWAP1 POP DUP2 DUP2 SUB PUSH1 0x0 DUP4 ADD MSTORE PUSH2 0x324A DUP2 DUP5 PUSH2 0x31BB JUMP JUMPDEST SWAP1 POP SWAP3 SWAP2 POP POP JUMP JUMPDEST PUSH2 0x325B DUP2 PUSH2 0x2E59 JUMP JUMPDEST DUP2 EQ PUSH2 0x3266 JUMPI PUSH1 0x0 DUP1 REVERT JUMPDEST POP JUMP JUMPDEST PUSH1 0x0 DUP2 CALLDATALOAD SWAP1 POP PUSH2 0x3278 DUP2 PUSH2 0x3252 JUMP JUMPDEST SWAP3 SWAP2 POP POP JUMP JUMPDEST PUSH1 0x0 PUSH1 0x20 DUP3 DUP5 SUB SLT ISZERO PUSH2 0x3294 JUMPI PUSH2 0x3293 PUSH2 0x2E9F JUMP JUMPDEST JUMPDEST PUSH1 0x0 PUSH2 0x32A2 DUP5 DUP3 DUP6 ADD PUSH2 0x3269 JUMP JUMPDEST SWAP2 POP POP SWAP3 SWAP2 POP POP JUMP JUMPDEST PUSH1 0x0 DUP2 SWAP1 POP SWAP2 SWAP1 POP JUMP JUMPDEST PUSH2 0x32BE DUP2 PUSH2 0x32AB JUMP JUMPDEST DUP3 MSTORE POP POP JUMP JUMPDEST PUSH1 0x0 PUSH1 0x20 DUP3 ADD SWAP1 POP PUSH2 0x32D9 PUSH1 0x0 DUP4 ADD DUP5 PUSH2 0x32B5 JUMP JUMPDEST SWAP3 SWAP2 POP POP JUMP JUMPDEST PUSH1 0x0 PUSH1 0x20 DUP3 DUP5 SUB SLT ISZERO PUSH2 0x32F5 JUMPI PUSH2 0x32F4 PUSH2 0x2E9F JUMP JUMPDEST JUMPDEST PUSH1 0x0 PUSH2 0x3303 DUP5 DUP3 DUP6 ADD PUSH2 0x2ECA JUMP JUMPDEST SWAP2 POP POP SWAP3 SWAP2 POP POP JUMP JUMPDEST PUSH2 0x3315 DUP2 PUSH2 0x2EA9 JUMP JUMPDEST DUP3 MSTORE POP POP JUMP JUMPDEST PUSH1 0x0 DUP3 DUP3 MSTORE PUSH1 0x20 DUP3 ADD SWAP1 POP SWAP3 SWAP2 POP POP JUMP JUMPDEST PUSH1 0x0 PUSH2 0x3337 DUP3 PUSH2 0x30CB JUMP JUMPDEST PUSH2 0x3341 DUP2 DUP6 PUSH2 0x331B JUMP JUMPDEST SWAP4 POP PUSH2 0x3351 DUP2 DUP6 PUSH1 0x20 DUP7 ADD PUSH2 0x30E7 JUMP JUMPDEST PUSH2 0x335A DUP2 PUSH2 0x2EE9 JUMP JUMPDEST DUP5 ADD SWAP2 POP POP SWAP3 SWAP2 POP POP JUMP JUMPDEST PUSH1 0x0 PUSH1 0x60 DUP3 ADD SWAP1 POP PUSH2 0x337A PUSH1 0x0 DUP4 ADD DUP7 PUSH2 0x330C JUMP JUMPDEST PUSH2 0x3387 PUSH1 0x20 DUP4 ADD DUP6 PUSH2 0x2E6B JUMP JUMPDEST DUP2 DUP2 SUB PUSH1 0x40 DUP4 ADD MSTORE PUSH2 0x3399 DUP2 DUP5 PUSH2 0x332C JUMP JUMPDEST SWAP1 POP SWAP5 SWAP4 POP POP POP POP JUMP JUMPDEST PUSH1 0x0 PUSH1 0x20 DUP3 ADD SWAP1 POP DUP2 DUP2 SUB PUSH1 0x0 DUP4 ADD MSTORE PUSH2 0x33BD DUP2 DUP5 PUSH2 0x332C JUMP JUMPDEST SWAP1 POP SWAP3 SWAP2 POP POP JUMP JUMPDEST PUSH1 0x0 DUP1 PUSH1 0x40 DUP4 DUP6 SUB SLT ISZERO PUSH2 0x33DC JUMPI PUSH2 0x33DB PUSH2 0x2E9F JUMP JUMPDEST JUMPDEST PUSH1 0x0 DUP4 ADD CALLDATALOAD PUSH8 0xFFFFFFFFFFFFFFFF DUP2 GT ISZERO PUSH2 0x33FA JUMPI PUSH2 0x33F9 PUSH2 0x2EA4 JUMP JUMPDEST JUMPDEST PUSH2 0x3406 DUP6 DUP3 DUP7 ADD PUSH2 0x2FF7 JUMP JUMPDEST SWAP3 POP POP PUSH1 0x20 DUP4 ADD CALLDATALOAD PUSH8 0xFFFFFFFFFFFFFFFF DUP2 GT ISZERO PUSH2 0x3427 JUMPI PUSH2 0x3426 PUSH2 0x2EA4 JUMP JUMPDEST JUMPDEST PUSH2 0x3433 DUP6 DUP3 DUP7 ADD PUSH2 0x2FF7 JUMP JUMPDEST SWAP2 POP POP SWAP3 POP SWAP3 SWAP1 POP JUMP JUMPDEST PUSH1 0x0 PUSH1 0x60 DUP3 ADD SWAP1 POP PUSH2 0x3452 PUSH1 0x0 DUP4 ADD DUP7 PUSH2 0x2E6B JUMP JUMPDEST PUSH2 0x345F PUSH1 0x20 DUP4 ADD DUP6 PUSH2 0x330C JUMP JUMPDEST DUP2 DUP2 SUB PUSH1 0x40 DUP4 ADD MSTORE PUSH2 0x3471 DUP2 DUP5 PUSH2 0x332C JUMP JUMPDEST SWAP1 POP SWAP5 SWAP4 POP POP POP POP JUMP JUMPDEST PUSH1 0x0 PUSH1 0x40 DUP3 ADD SWAP1 POP DUP2 DUP2 SUB PUSH1 0x0 DUP4 ADD MSTORE PUSH2 0x3495 DUP2 DUP6 PUSH2 0x332C JUMP JUMPDEST SWAP1 POP DUP2 DUP2 SUB PUSH1 0x20 DUP4 ADD MSTORE PUSH2 0x34A9 DUP2 DUP5 PUSH2 0x332C JUMP JUMPDEST SWAP1 POP SWAP4 SWAP3 POP POP POP JUMP JUMPDEST PUSH1 0x0 DUP2 MLOAD SWAP1 POP SWAP2 SWAP1 POP JUMP JUMPDEST PUSH1 0x0 DUP3 DUP3 MSTORE PUSH1 0x20 DUP3 ADD SWAP1 POP SWAP3 SWAP2 POP POP JUMP JUMPDEST PUSH1 0x0 DUP2 SWAP1 POP PUSH1 0x20 DUP3 ADD SWAP1 POP SWAP2 SWAP1 POP JUMP JUMPDEST PUSH1 0x0 PUSH1 0x60 DUP4 ADD PUSH1 0x0 DUP4 ADD MLOAD PUSH2 0x34F6 PUSH1 0x0 DUP7 ADD DUP3 PUSH2 0x30BC JUMP JUMPDEST POP PUSH1 0x20 DUP4 ADD MLOAD PUSH2 0x3509 PUSH1 0x20 DUP7 ADD DUP3 PUSH2 0x30AD JUMP JUMPDEST POP PUSH1 0x40 DUP4 ADD MLOAD DUP5 DUP3 SUB PUSH1 0x40 DUP7 ADD MSTORE PUSH2 0x3521 DUP3 DUP3 PUSH2 0x3111 JUMP JUMPDEST SWAP2 POP POP DUP1 SWAP2 POP POP SWAP3 SWAP2 POP POP JUMP JUMPDEST PUSH1 0x0 PUSH2 0x353A DUP4 DUP4 PUSH2 0x34DE JUMP JUMPDEST SWAP1 POP SWAP3 SWAP2 POP POP JUMP JUMPDEST PUSH1 0x0 PUSH1 0x20 DUP3 ADD SWAP1 POP SWAP2 SWAP1 POP JUMP JUMPDEST PUSH1 0x0 PUSH2 0x355A DUP3 PUSH2 0x34B2 JUMP JUMPDEST PUSH2 0x3564 DUP2 DUP6 PUSH2 0x34BD JUMP JUMPDEST SWAP4 POP DUP4 PUSH1 0x20 DUP3 MUL DUP6 ADD PUSH2 0x3576 DUP6 PUSH2 0x34CE JUMP JUMPDEST DUP1 PUSH1 0x0 JUMPDEST DUP6 DUP2 LT ISZERO PUSH2 0x35B2 JUMPI DUP5 DUP5 SUB DUP10 MSTORE DUP2 MLOAD PUSH2 0x3593 DUP6 DUP3 PUSH2 0x352E JUMP JUMPDEST SWAP5 POP PUSH2 0x359E DUP4 PUSH2 0x3542 JUMP JUMPDEST SWAP3 POP PUSH1 0x20 DUP11 ADD SWAP10 POP POP PUSH1 0x1 DUP2 ADD SWAP1 POP PUSH2 0x357A JUMP JUMPDEST POP DUP3 SWAP8 POP DUP8 SWAP6 POP POP POP POP POP POP SWAP3 SWAP2 POP POP JUMP JUMPDEST PUSH1 0x0 PUSH1 0x20 DUP3 ADD SWAP1 POP DUP2 DUP2 SUB PUSH1 0x0 DUP4 ADD MSTORE PUSH2 0x35DE DUP2 DUP5 PUSH2 0x354F JUMP JUMPDEST SWAP1 POP SWAP3 SWAP2 POP POP JUMP JUMPDEST PUSH2 0x35EF DUP2 PUSH2 0x32AB JUMP JUMPDEST DUP2 EQ PUSH2 0x35FA JUMPI PUSH1 0x0 DUP1 REVERT JUMPDEST POP JUMP JUMPDEST PUSH1 0x0 DUP2 CALLDATALOAD SWAP1 POP PUSH2 0x360C DUP2 PUSH2 0x35E6 JUMP JUMPDEST SWAP3 SWAP2 POP POP JUMP JUMPDEST PUSH1 0x0 PUSH1 0x20 DUP3 DUP5 SUB SLT ISZERO PUSH2 0x3628 JUMPI PUSH2 0x3627 PUSH2 0x2E9F JUMP JUMPDEST JUMPDEST PUSH1 0x0 PUSH2 0x3636 DUP5 DUP3 DUP6 ADD PUSH2 0x35FD JUMP JUMPDEST SWAP2 POP POP SWAP3 SWAP2 POP POP JUMP JUMPDEST PUSH1 0x0 DUP2 SWAP1 POP SWAP2 SWAP1 POP JUMP JUMPDEST PUSH1 0x0 DUP2 SWAP1 POP SWAP2 SWAP1 POP JUMP JUMPDEST PUSH1 0x0 PUSH2 0x366E PUSH2 0x3669 PUSH2 0x3664 DUP5 PUSH2 0x363F JUMP JUMPDEST PUSH2 0x3649 JUMP JUMPDEST PUSH2 0x2EA9 JUMP JUMPDEST SWAP1 POP SWAP2 SWAP1 POP JUMP JUMPDEST PUSH2 0x367E DUP2 PUSH2 0x3653 JUMP JUMPDEST DUP3 MSTORE POP POP JUMP JUMPDEST PUSH1 0x0 PUSH1 0x20 DUP3 ADD SWAP1 POP PUSH2 0x3699 PUSH1 0x0 DUP4 ADD DUP5 PUSH2 0x3675 JUMP JUMPDEST SWAP3 SWAP2 POP POP JUMP JUMPDEST PUSH1 0x0 DUP2 MLOAD SWAP1 POP PUSH2 0x36AE DUP2 PUSH2 0x3252 JUMP JUMPDEST SWAP3 SWAP2 POP POP JUMP JUMPDEST PUSH1 0x0 PUSH1 0x20 DUP3 DUP5 SUB SLT ISZERO PUSH2 0x36CA JUMPI PUSH2 0x36C9 PUSH2 0x2E9F JUMP JUMPDEST JUMPDEST PUSH1 0x0 PUSH2 0x36D8 DUP5 DUP3 DUP6 ADD PUSH2 0x369F JUMP JUMPDEST SWAP2 POP POP SWAP3 SWAP2 POP POP JUMP JUMPDEST PUSH32 0x4E487B7100000000000000000000000000000000000000000000000000000000 PUSH1 0x0 MSTORE PUSH1 0x32 PUSH1 0x4 MSTORE PUSH1 0x24 PUSH1 0x0 REVERT JUMPDEST PUSH2 0x3719 DUP2 PUSH2 0x2E59 JUMP JUMPDEST DUP3 MSTORE POP POP JUMP JUMPDEST PUSH1 0x0 DUP3 DUP3 MSTORE PUSH1 0x20 DUP3 ADD SWAP1 POP SWAP3 SWAP2 POP POP JUMP JUMPDEST PUSH32 0x6269646465722031206973206E6F7420726567697374657265642E0000000000 PUSH1 0x0 DUP3 ADD MSTORE POP JUMP JUMPDEST PUSH1 0x0 PUSH2 0x3766 PUSH1 0x1B DUP4 PUSH2 0x371F JUMP JUMPDEST SWAP2 POP PUSH2 0x3771 DUP3 PUSH2 0x3730 JUMP JUMPDEST PUSH1 0x20 DUP3 ADD SWAP1 POP SWAP2 SWAP1 POP JUMP JUMPDEST PUSH1 0x0 PUSH1 0x60 DUP3 ADD SWAP1 POP PUSH2 0x3791 PUSH1 0x0 DUP4 ADD DUP6 PUSH2 0x3710 JUMP JUMPDEST PUSH2 0x379E PUSH1 0x20 DUP4 ADD DUP5 PUSH2 0x3710 JUMP JUMPDEST DUP2 DUP2 SUB PUSH1 0x40 DUP4 ADD MSTORE PUSH2 0x37AF DUP2 PUSH2 0x3759 JUMP JUMPDEST SWAP1 POP SWAP4 SWAP3 POP POP POP JUMP JUMPDEST PUSH1 0x0 DUP2 ISZERO ISZERO SWAP1 POP SWAP2 SWAP1 POP JUMP JUMPDEST PUSH2 0x37CD DUP2 PUSH2 0x37B8 JUMP JUMPDEST DUP2 EQ PUSH2 0x37D8 JUMPI PUSH1 0x0 DUP1 REVERT JUMPDEST POP JUMP JUMPDEST PUSH1 0x0 DUP2 MLOAD SWAP1 POP PUSH2 0x37EA DUP2 PUSH2 0x37C4 JUMP JUMPDEST SWAP3 SWAP2 POP POP JUMP JUMPDEST PUSH1 0x0 PUSH1 0x20 DUP3 DUP5 SUB SLT ISZERO PUSH2 0x3806 JUMPI PUSH2 0x3805 PUSH2 0x2E9F JUMP JUMPDEST JUMPDEST PUSH1 0x0 PUSH2 0x3814 DUP5 DUP3 DUP6 ADD PUSH2 0x37DB JUMP JUMPDEST SWAP2 POP POP SWAP3 SWAP2 POP POP JUMP JUMPDEST PUSH32 0x5468657265206973206E6F20737461727465642061756374696F6E206E6F7700 PUSH1 0x0 DUP3 ADD MSTORE POP JUMP JUMPDEST PUSH1 0x0 PUSH2 0x3853 PUSH1 0x1F DUP4 PUSH2 0x331B JUMP JUMPDEST SWAP2 POP PUSH2 0x385E DUP3 PUSH2 0x381D JUMP JUMPDEST PUSH1 0x20 DUP3 ADD SWAP1 POP SWAP2 SWAP1 POP JUMP JUMPDEST PUSH1 0x0 PUSH1 0x20 DUP3 ADD SWAP1 POP DUP2 DUP2 SUB PUSH1 0x0 DUP4 ADD MSTORE PUSH2 0x3882 DUP2 PUSH2 0x3846 JUMP JUMPDEST SWAP1 POP SWAP2 SWAP1 POP JUMP JUMPDEST PUSH32 0x57696E6E6572207375626D697373696F6E20706861736520686173206E6F7420 PUSH1 0x0 DUP3 ADD MSTORE PUSH32 0x73746172746564207965742E0000000000000000000000000000000000000000 PUSH1 0x20 DUP3 ADD MSTORE POP JUMP JUMPDEST PUSH1 0x0 PUSH2 0x38E5 PUSH1 0x2C DUP4 PUSH2 0x331B JUMP JUMPDEST SWAP2 POP PUSH2 0x38F0 DUP3 PUSH2 0x3889 JUMP JUMPDEST PUSH1 0x40 DUP3 ADD SWAP1 POP SWAP2 SWAP1 POP JUMP JUMPDEST PUSH1 0x0 PUSH1 0x20 DUP3 ADD SWAP1 POP DUP2 DUP2 SUB PUSH1 0x0 DUP4 ADD MSTORE PUSH2 0x3914 DUP2 PUSH2 0x38D8 JUMP JUMPDEST SWAP1 POP SWAP2 SWAP1 POP JUMP JUMPDEST PUSH32 0x57696E6E6572207375626D697373696F6E2074696D6520686173207061737365 PUSH1 0x0 DUP3 ADD MSTORE PUSH32 0x642E000000000000000000000000000000000000000000000000000000000000 PUSH1 0x20 DUP3 ADD MSTORE POP JUMP JUMPDEST PUSH1 0x0 PUSH2 0x3977 PUSH1 0x22 DUP4 PUSH2 0x331B JUMP JUMPDEST SWAP2 POP PUSH2 0x3982 DUP3 PUSH2 0x391B JUMP JUMPDEST PUSH1 0x40 DUP3 ADD SWAP1 POP SWAP2 SWAP1 POP JUMP JUMPDEST PUSH1 0x0 PUSH1 0x20 DUP3 ADD SWAP1 POP DUP2 DUP2 SUB PUSH1 0x0 DUP4 ADD MSTORE PUSH2 0x39A6 DUP2 PUSH2 0x396A JUMP JUMPDEST SWAP1 POP SWAP2 SWAP1 POP JUMP JUMPDEST PUSH32 0x4E487B7100000000000000000000000000000000000000000000000000000000 PUSH1 0x0 MSTORE PUSH1 0x22 PUSH1 0x4 MSTORE PUSH1 0x24 PUSH1 0x0 REVERT JUMPDEST PUSH1 0x0 PUSH1 0x2 DUP3 DIV SWAP1 POP PUSH1 0x1 DUP3 AND DUP1 PUSH2 0x39F4 JUMPI PUSH1 0x7F DUP3 AND SWAP2 POP JUMPDEST PUSH1 0x20 DUP3 LT DUP2 SUB PUSH2 0x3A07 JUMPI PUSH2 0x3A06 PUSH2 0x39AD JUMP JUMPDEST JUMPDEST POP SWAP2 SWAP1 POP JUMP JUMPDEST PUSH1 0x0 DUP2 SWAP1 POP DUP2 PUSH1 0x0 MSTORE PUSH1 0x20 PUSH1 0x0 KECCAK256 SWAP1 POP SWAP2 SWAP1 POP JUMP JUMPDEST PUSH1 0x0 PUSH1 0x20 PUSH1 0x1F DUP4 ADD DIV SWAP1 POP SWAP2 SWAP1 POP JUMP JUMPDEST PUSH1 0x0 DUP3 DUP3 SHL SWAP1 POP SWAP3 SWAP2 POP POP JUMP JUMPDEST PUSH1 0x0 PUSH1 0x8 DUP4 MUL PUSH2 0x3A6F PUSH32 0xFFFFFFFFFFFFFFFFFFFFFFFFFFFFFFFFFFFFFFFFFFFFFFFFFFFFFFFFFFFFFFFF DUP3 PUSH2 0x3A32 JUMP JUMPDEST PUSH2 0x3A79 DUP7 DUP4 PUSH2 0x3A32 JUMP JUMPDEST SWAP6 POP DUP1 NOT DUP5 AND SWAP4 POP DUP1 DUP7 AND DUP5 OR SWAP3 POP POP POP SWAP4 SWAP3 POP POP POP JUMP JUMPDEST PUSH1 0x0 PUSH2 0x3AAC PUSH2 0x3AA7 PUSH2 0x3AA2 DUP5 PUSH2 0x2EA9 JUMP JUMPDEST PUSH2 0x3649 JUMP JUMPDEST PUSH2 0x2EA9 JUMP JUMPDEST SWAP1 POP SWAP2 SWAP1 POP JUMP JUMPDEST PUSH1 0x0 DUP2 SWAP1 POP SWAP2 SWAP1 POP JUMP JUMPDEST PUSH2 0x3AC6 DUP4 PUSH2 0x3A91 JUMP JUMPDEST PUSH2 0x3ADA PUSH2 0x3AD2 DUP3 PUSH2 0x3AB3 JUMP JUMPDEST DUP5 DUP5 SLOAD PUSH2 0x3A3F JUMP JUMPDEST DUP3 SSTORE POP POP POP POP JUMP JUMPDEST PUSH1 0x0 SWAP1 JUMP JUMPDEST PUSH2 0x3AEF PUSH2 0x3AE2 JUMP JUMPDEST PUSH2 0x3AFA DUP2 DUP5 DUP5 PUSH2 0x3ABD JUMP JUMPDEST POP POP POP JUMP JUMPDEST JUMPDEST DUP2 DUP2 LT ISZERO PUSH2 0x3B1E JUMPI PUSH2 0x3B13 PUSH1 0x0 DUP3 PUSH2 0x3AE7 JUMP JUMPDEST PUSH1 0x1 DUP2 ADD SWAP1 POP PUSH2 0x3B00 JUMP JUMPDEST POP POP JUMP JUMPDEST PUSH1 0x1F DUP3 GT ISZERO PUSH2 0x3B63 JUMPI PUSH2 0x3B34 DUP2 PUSH2 0x3A0D JUMP JUMPDEST PUSH2 0x3B3D DUP5 PUSH2 0x3A22 JUMP JUMPDEST DUP2 ADD PUSH1 0x20 DUP6 LT ISZERO PUSH2 0x3B4C JUMPI DUP2 SWAP1 POP JUMPDEST PUSH2 0x3B60 PUSH2 0x3B58 DUP6 PUSH2 0x3A22 JUMP JUMPDEST DUP4 ADD DUP3 PUSH2 0x3AFF JUMP JUMPDEST POP POP JUMPDEST POP POP POP JUMP JUMPDEST PUSH1 0x0 DUP3 DUP3 SHR SWAP1 POP SWAP3 SWAP2 POP POP JUMP JUMPDEST PUSH1 0x0 PUSH2 0x3B86 PUSH1 0x0 NOT DUP5 PUSH1 0x8 MUL PUSH2 0x3B68 JUMP JUMPDEST NOT DUP1 DUP4 AND SWAP2 POP POP SWAP3 SWAP2 POP POP JUMP JUMPDEST PUSH1 0x0 PUSH2 0x3B9F DUP4 DUP4 PUSH2 0x3B75 JUMP JUMPDEST SWAP2 POP DUP3 PUSH1 0x2 MUL DUP3 OR SWAP1 POP SWAP3 SWAP2 POP POP JUMP JUMPDEST PUSH2 0x3BB8 DUP3 PUSH2 0x30CB JUMP JUMPDEST PUSH8 0xFFFFFFFFFFFFFFFF DUP2 GT ISZERO PUSH2 0x3BD1 JUMPI PUSH2 0x3BD0 PUSH2 0x2EFA JUMP JUMPDEST JUMPDEST PUSH2 0x3BDB DUP3 SLOAD PUSH2 0x39DC JUMP JUMPDEST PUSH2 0x3BE6 DUP3 DUP3 DUP6 PUSH2 0x3B22 JUMP JUMPDEST PUSH1 0x0 PUSH1 0x20 SWAP1 POP PUSH1 0x1F DUP4 GT PUSH1 0x1 DUP2 EQ PUSH2 0x3C19 JUMPI PUSH1 0x0 DUP5 ISZERO PUSH2 0x3C07 JUMPI DUP3 DUP8 ADD MLOAD SWAP1 POP JUMPDEST PUSH2 0x3C11 DUP6 DUP3 PUSH2 0x3B93 JUMP JUMPDEST DUP7 SSTORE POP PUSH2 0x3C79 JUMP JUMPDEST PUSH1 0x1F NOT DUP5 AND PUSH2 0x3C27 DUP7 PUSH2 0x3A0D JUMP JUMPDEST PUSH1 0x0 JUMPDEST DUP3 DUP2 LT ISZERO PUSH2 0x3C4F JUMPI DUP5 DUP10 ADD MLOAD DUP3 SSTORE PUSH1 0x1 DUP3 ADD SWAP2 POP PUSH1 0x20 DUP6 ADD SWAP5 POP PUSH1 0x20 DUP2 ADD SWAP1 POP PUSH2 0x3C2A JUMP JUMPDEST DUP7 DUP4 LT ISZERO PUSH2 0x3C6C JUMPI DUP5 DUP10 ADD MLOAD PUSH2 0x3C68 PUSH1 0x1F DUP10 AND DUP3 PUSH2 0x3B75 JUMP JUMPDEST DUP4 SSTORE POP JUMPDEST PUSH1 0x1 PUSH1 0x2 DUP9 MUL ADD DUP9 SSTORE POP POP POP JUMPDEST POP POP POP POP POP POP JUMP JUMPDEST PUSH1 0x0 DUP2 SWAP1 POP SWAP2 SWAP1 POP JUMP JUMPDEST PUSH1 0x0 PUSH2 0x3CA6 PUSH2 0x3CA1 PUSH2 0x3C9C DUP5 PUSH2 0x3C81 JUMP JUMPDEST PUSH2 0x3649 JUMP JUMPDEST PUSH2 0x2EA9 JUMP JUMPDEST SWAP1 POP SWAP2 SWAP1 POP JUMP JUMPDEST PUSH2 0x3CB6 DUP2 PUSH2 0x3C8B JUMP JUMPDEST DUP3 MSTORE POP POP JUMP JUMPDEST PUSH1 0x0 PUSH1 0x20 DUP3 ADD SWAP1 POP PUSH2 0x3CD1 PUSH1 0x0 DUP4 ADD DUP5 PUSH2 0x3CAD JUMP JUMPDEST SWAP3 SWAP2 POP POP JUMP JUMPDEST PUSH32 0x6269646465722030206973206E6F7420726567697374657265642E0000000000 PUSH1 0x0 DUP3 ADD MSTORE POP JUMP JUMPDEST PUSH1 0x0 PUSH2 0x3D0D PUSH1 0x1B DUP4 PUSH2 0x371F JUMP JUMPDEST SWAP2 POP PUSH2 0x3D18 DUP3 PUSH2 0x3CD7 JUMP JUMPDEST PUSH1 0x20 DUP3 ADD SWAP1 POP SWAP2 SWAP1 POP JUMP JUMPDEST PUSH1 0x0 PUSH1 0x60 DUP3 ADD SWAP1 POP PUSH2 0x3D38 PUSH1 0x0 DUP4 ADD DUP6 PUSH2 0x3710 JUMP JUMPDEST PUSH2 0x3D45 PUSH1 0x20 DUP4 ADD DUP5 PUSH2 0x3710 JUMP JUMPDEST DUP2 DUP2 SUB PUSH1 0x40 DUP4 ADD MSTORE PUSH2 0x3D56 DUP2 PUSH2 0x3D00 JUMP JUMPDEST SWAP1 POP SWAP4 SWAP3 POP POP POP JUMP JUMPDEST PUSH32 0x41756374696F6E206973206E6F7420636F6D706C65746564207965742E000000 PUSH1 0x0 DUP3 ADD MSTORE POP JUMP JUMPDEST PUSH1 0x0 PUSH2 0x3D95 PUSH1 0x1D DUP4 PUSH2 0x331B JUMP JUMPDEST SWAP2 POP PUSH2 0x3DA0 DUP3 PUSH2 0x3D5F JUMP JUMPDEST PUSH1 0x20 DUP3 ADD SWAP1 POP SWAP2 SWAP1 POP JUMP JUMPDEST PUSH1 0x0 PUSH1 0x20 DUP3 ADD SWAP1 POP DUP2 DUP2 SUB PUSH1 0x0 DUP4 ADD MSTORE PUSH2 0x3DC4 DUP2 PUSH2 0x3D88 JUMP JUMPDEST SWAP1 POP SWAP2 SWAP1 POP JUMP JUMPDEST PUSH32 0x4E487B7100000000000000000000000000000000000000000000000000000000 PUSH1 0x0 MSTORE PUSH1 0x11 PUSH1 0x4 MSTORE PUSH1 0x24 PUSH1 0x0 REVERT JUMPDEST PUSH1 0x0 PUSH2 0x3E05 DUP3 PUSH2 0x2EA9 JUMP JUMPDEST SWAP2 POP PUSH2 0x3E10 DUP4 PUSH2 0x2EA9 JUMP JUMPDEST SWAP3 POP DUP3 DUP3 ADD SWAP1 POP DUP1 DUP3 GT ISZERO PUSH2 0x3E28 JUMPI PUSH2 0x3E27 PUSH2 0x3DCB JUMP JUMPDEST JUMPDEST SWAP3 SWAP2 POP POP JUMP JUMPDEST PUSH2 0x3E37 DUP2 PUSH2 0x32AB JUMP JUMPDEST DUP3 MSTORE POP POP JUMP JUMPDEST PUSH32 0x6861736833206973206E6F7420636F7272656374000000000000000000000000 PUSH1 0x0 DUP3 ADD MSTORE POP JUMP JUMPDEST PUSH1 0x0 PUSH2 0x3E73 PUSH1 0x14 DUP4 PUSH2 0x371F JUMP JUMPDEST SWAP2 POP PUSH2 0x3E7E DUP3 PUSH2 0x3E3D JUMP JUMPDEST PUSH1 0x20 DUP3 ADD SWAP1 POP SWAP2 SWAP1 POP JUMP JUMPDEST PUSH1 0x0 PUSH1 0x60 DUP3 ADD SWAP1 POP PUSH2 0x3E9E PUSH1 0x0 DUP4 ADD DUP6 PUSH2 0x3E2E JUMP JUMPDEST PUSH2 0x3EAB PUSH1 0x20 DUP4 ADD DUP5 PUSH2 0x3E2E JUMP JUMPDEST DUP2 DUP2 SUB PUSH1 0x40 DUP4 ADD MSTORE PUSH2 0x3EBC DUP2 PUSH2 0x3E66 JUMP JUMPDEST SWAP1 POP SWAP4 SWAP3 POP POP POP JUMP JUMPDEST PUSH32 0x6861736833206F66206269646465722033206973206E6F74207375626D697474 PUSH1 0x0 DUP3 ADD MSTORE PUSH32 0x6564000000000000000000000000000000000000000000000000000000000000 PUSH1 0x20 DUP3 ADD MSTORE POP JUMP JUMPDEST PUSH1 0x0 PUSH2 0x3F21 PUSH1 0x22 DUP4 PUSH2 0x371F JUMP JUMPDEST SWAP2 POP PUSH2 0x3F2C DUP3 PUSH2 0x3EC5 JUMP JUMPDEST PUSH1 0x40 DUP3 ADD SWAP1 POP SWAP2 SWAP1 POP JUMP JUMPDEST PUSH1 0x0 PUSH1 0x60 DUP3 ADD SWAP1 POP PUSH2 0x3F4C PUSH1 0x0 DUP4 ADD DUP6 PUSH2 0x3E2E JUMP JUMPDEST PUSH2 0x3F59 PUSH1 0x20 DUP4 ADD DUP5 PUSH2 0x3E2E JUMP JUMPDEST DUP2 DUP2 SUB PUSH1 0x40 DUP4 ADD MSTORE PUSH2 0x3F6A DUP2 PUSH2 0x3F14 JUMP JUMPDEST SWAP1 POP SWAP4 SWAP3 POP POP POP JUMP JUMPDEST PUSH32 0x4469737075746520706861736520686173206E6F742073746172746564207965 PUSH1 0x0 DUP3 ADD MSTORE PUSH32 0x742E000000000000000000000000000000000000000000000000000000000000 PUSH1 0x20 DUP3 ADD MSTORE POP JUMP JUMPDEST PUSH1 0x0 PUSH2 0x3FCF PUSH1 0x22 DUP4 PUSH2 0x331B JUMP JUMPDEST SWAP2 POP PUSH2 0x3FDA DUP3 PUSH2 0x3F73 JUMP JUMPDEST PUSH1 0x40 DUP3 ADD SWAP1 POP SWAP2 SWAP1 POP JUMP JUMPDEST PUSH1 0x0 PUSH1 0x20 DUP3 ADD SWAP1 POP DUP2 DUP2 SUB PUSH1 0x0 DUP4 ADD MSTORE PUSH2 0x3FFE DUP2 PUSH2 0x3FC2 JUMP JUMPDEST SWAP1 POP SWAP2 SWAP1 POP JUMP JUMPDEST PUSH32 0x4469737075746520706861736520686173207061737365642E00000000000000 PUSH1 0x0 DUP3 ADD MSTORE POP JUMP JUMPDEST PUSH1 0x0 PUSH2 0x403B PUSH1 0x19 DUP4 PUSH2 0x331B JUMP JUMPDEST SWAP2 POP PUSH2 0x4046 DUP3 PUSH2 0x4005 JUMP JUMPDEST PUSH1 0x20 DUP3 ADD SWAP1 POP SWAP2 SWAP1 POP JUMP JUMPDEST PUSH1 0x0 PUSH1 0x20 DUP3 ADD SWAP1 POP DUP2 DUP2 SUB PUSH1 0x0 DUP4 ADD MSTORE PUSH2 0x406A DUP2 PUSH2 0x402E JUMP JUMPDEST SWAP1 POP SWAP2 SWAP1 POP JUMP JUMPDEST PUSH32 0x5468652062696420616E64206E6F6E636520796F75207375626D697474656420 PUSH1 0x0 DUP3 ADD MSTORE PUSH32 0x617265206E6F742076616C69642E000000000000000000000000000000000000 PUSH1 0x20 DUP3 ADD MSTORE POP JUMP JUMPDEST PUSH1 0x0 PUSH2 0x40CD PUSH1 0x2E DUP4 PUSH2 0x331B JUMP JUMPDEST SWAP2 POP PUSH2 0x40D8 DUP3 PUSH2 0x4071 JUMP JUMPDEST PUSH1 0x40 DUP3 ADD SWAP1 POP SWAP2 SWAP1 POP JUMP JUMPDEST PUSH1 0x0 PUSH1 0x20 DUP3 ADD SWAP1 POP DUP2 DUP2 SUB PUSH1 0x0 DUP4 ADD MSTORE PUSH2 0x40FC DUP2 PUSH2 0x40C0 JUMP JUMPDEST SWAP1 POP SWAP2 SWAP1 POP JUMP JUMPDEST PUSH32 0x596F75722064697370757465206973206E6F742076616C69642073696E636520 PUSH1 0x0 DUP3 ADD MSTORE PUSH32 0x6974206973206E6F742067726561746572207468616E206174206C6561737420 PUSH1 0x20 DUP3 ADD MSTORE PUSH32 0x6F6E652077696E6E65722E000000000000000000000000000000000000000000 PUSH1 0x40 DUP3 ADD MSTORE POP JUMP JUMPDEST PUSH1 0x0 PUSH2 0x4185 PUSH1 0x4B DUP4 PUSH2 0x331B JUMP JUMPDEST SWAP2 POP PUSH2 0x4190 DUP3 PUSH2 0x4103 JUMP JUMPDEST PUSH1 0x60 DUP3 ADD SWAP1 POP SWAP2 SWAP1 POP JUMP JUMPDEST PUSH1 0x0 PUSH1 0x20 DUP3 ADD SWAP1 POP DUP2 DUP2 SUB PUSH1 0x0 DUP4 ADD MSTORE PUSH2 0x41B4 DUP2 PUSH2 0x4178 JUMP JUMPDEST SWAP1 POP SWAP2 SWAP1 POP JUMP JUMPDEST PUSH1 0x0 DUP2 SWAP1 POP SWAP3 SWAP2 POP POP JUMP JUMPDEST PUSH32 0x7761746368000000000000000000000000000000000000000000000000000000 PUSH1 0x0 DUP3 ADD MSTORE POP JUMP JUMPDEST PUSH1 0x0 PUSH2 0x41FC PUSH1 0x5 DUP4 PUSH2 0x41BB JUMP JUMPDEST SWAP2 POP PUSH2 0x4207 DUP3 PUSH2 0x41C6 JUMP JUMPDEST PUSH1 0x5 DUP3 ADD SWAP1 POP SWAP2 SWAP1 POP JUMP JUMPDEST PUSH1 0x0 PUSH2 0x421D DUP3 PUSH2 0x41EF JUMP JUMPDEST SWAP2 POP DUP2 SWAP1 POP SWAP2 SWAP1 POP JUMP JUMPDEST PUSH1 0x0 DUP2 MLOAD SWAP1 POP SWAP2 SWAP1 POP JUMP JUMPDEST PUSH1 0x0 DUP2 SWAP1 POP SWAP3 SWAP2 POP POP JUMP JUMPDEST PUSH1 0x0 PUSH2 0x4248 DUP3 PUSH2 0x4227 JUMP JUMPDEST PUSH2 0x4252 DUP2 DUP6 PUSH2 0x4232 JUMP JUMPDEST SWAP4 POP PUSH2 0x4262 DUP2 DUP6 PUSH1 0x20 DUP7 ADD PUSH2 0x30E7 JUMP JUMPDEST DUP1 DUP5 ADD SWAP2 POP POP SWAP3 SWAP2 POP POP JUMP JUMPDEST PUSH1 0x0 PUSH2 0x427A DUP3 DUP5 PUSH2 0x423D JUMP JUMPDEST SWAP2 POP DUP2 SWAP1 POP SWAP3 SWAP2 POP POP JUMP JUMPDEST PUSH1 0x0 DUP2 MLOAD SWAP1 POP PUSH2 0x4294 DUP2 PUSH2 0x35E6 JUMP JUMPDEST SWAP3 SWAP2 POP POP JUMP JUMPDEST PUSH1 0x0 PUSH1 0x20 DUP3 DUP5 SUB SLT ISZERO PUSH2 0x42B0 JUMPI PUSH2 0x42AF PUSH2 0x2E9F JUMP JUMPDEST JUMPDEST PUSH1 0x0 PUSH2 0x42BE DUP5 DUP3 DUP6 ADD PUSH2 0x4285 JUMP JUMPDEST SWAP2 POP POP SWAP3 SWAP2 POP POP JUMP JUMPDEST PUSH1 0x0 DUP2 SLOAD PUSH2 0x42D4 DUP2 PUSH2 0x39DC JUMP JUMPDEST PUSH2 0x42DE DUP2 DUP7 PUSH2 0x41BB JUMP JUMPDEST SWAP5 POP PUSH1 0x1 DUP3 AND PUSH1 0x0 DUP2 EQ PUSH2 0x42F9 JUMPI PUSH1 0x1 DUP2 EQ PUSH2 0x430E JUMPI PUSH2 0x4341 JUMP JUMPDEST PUSH1 0xFF NOT DUP4 AND DUP7 MSTORE DUP2 ISZERO ISZERO DUP3 MUL DUP7 ADD SWAP4 POP PUSH2 0x4341 JUMP JUMPDEST PUSH2 0x4317 DUP6 PUSH2 0x3A0D JUMP JUMPDEST PUSH1 0x0 JUMPDEST DUP4 DUP2 LT ISZERO PUSH2 0x4339 JUMPI DUP2 SLOAD DUP2 DUP10 ADD MSTORE PUSH1 0x1 DUP3 ADD SWAP2 POP PUSH1 0x20 DUP2 ADD SWAP1 POP PUSH2 0x431A JUMP JUMPDEST DUP4 DUP9 ADD SWAP6 POP POP POP JUMPDEST POP POP POP SWAP3 SWAP2 POP POP JUMP JUMPDEST PUSH1 0x0 PUSH2 0x4356 DUP3 DUP5 PUSH2 0x42C7 JUMP JUMPDEST SWAP2 POP DUP2 SWAP1 POP SWAP3 SWAP2 POP POP JUMP JUMPDEST PUSH2 0x436A DUP2 PUSH2 0x37B8 JUMP JUMPDEST DUP3 MSTORE POP POP JUMP JUMPDEST PUSH32 0x746865206E616D65206F66206173736574206973206E6F7420636F7272656374 PUSH1 0x0 DUP3 ADD MSTORE PUSH32 0x6C792073746F7265640000000000000000000000000000000000000000000000 PUSH1 0x20 DUP3 ADD MSTORE POP JUMP JUMPDEST PUSH1 0x0 PUSH2 0x43CC PUSH1 0x29 DUP4 PUSH2 0x371F JUMP JUMPDEST SWAP2 POP PUSH2 0x43D7 DUP3 PUSH2 0x4370 JUMP JUMPDEST PUSH1 0x40 DUP3 ADD SWAP1 POP SWAP2 SWAP1 POP JUMP JUMPDEST PUSH1 0x0 PUSH1 0x40 DUP3 ADD SWAP1 POP PUSH2 0x43F7 PUSH1 0x0 DUP4 ADD DUP5 PUSH2 0x4361 JUMP JUMPDEST DUP2 DUP2 SUB PUSH1 0x20 DUP4 ADD MSTORE PUSH2 0x4408 DUP2 PUSH2 0x43BF JUMP JUMPDEST SWAP1 POP SWAP3 SWAP2 POP POP JUMP JUMPDEST PUSH32 0x6772656174207761746368000000000000000000000000000000000000000000 PUSH1 0x0 DUP3 ADD MSTORE POP JUMP JUMPDEST PUSH1 0x0 PUSH2 0x4446 PUSH1 0xB DUP4 PUSH2 0x41BB JUMP JUMPDEST SWAP2 POP PUSH2 0x4451 DUP3 PUSH2 0x4410 JUMP JUMPDEST PUSH1 0xB DUP3 ADD SWAP1 POP SWAP2 SWAP1 POP JUMP JUMPDEST PUSH1 0x0 PUSH2 0x4467 DUP3 PUSH2 0x4439 JUMP JUMPDEST SWAP2 POP DUP2 SWAP1 POP SWAP2 SWAP1 POP JUMP JUMPDEST PUSH32 0x746865206465736372697074696F6E206F66206173736574206973206E6F7420 PUSH1 0x0 DUP3 ADD MSTORE PUSH32 0x636F72726563746C792073746F72656400000000000000000000000000000000 PUSH1 0x20 DUP3 ADD MSTORE POP JUMP JUMPDEST PUSH1 0x0 PUSH2 0x44CD PUSH1 0x30 DUP4 PUSH2 0x371F JUMP JUMPDEST SWAP2 POP PUSH2 0x44D8 DUP3 PUSH2 0x4471 JUMP JUMPDEST PUSH1 0x40 DUP3 ADD SWAP1 POP SWAP2 SWAP1 POP JUMP JUMPDEST PUSH1 0x0 PUSH1 0x40 DUP3 ADD SWAP1 POP PUSH2 0x44F8 PUSH1 0x0 DUP4 ADD DUP5 PUSH2 0x4361 JUMP JUMPDEST DUP2 DUP2 SUB PUSH1 0x20 DUP4 ADD MSTORE PUSH2 0x4509 DUP2 PUSH2 0x44C0 JUMP JUMPDEST SWAP1 POP SWAP3 SWAP2 POP POP JUMP JUMPDEST PUSH1 0x0 DUP2 SWAP1 POP SWAP2 SWAP1 POP JUMP JUMPDEST PUSH1 0x0 PUSH2 0x4536 PUSH2 0x4531 PUSH2 0x452C DUP5 PUSH2 0x4511 JUMP JUMPDEST PUSH2 0x3649 JUMP JUMPDEST PUSH2 0x2EA9 JUMP JUMPDEST SWAP1 POP SWAP2 SWAP1 POP JUMP JUMPDEST PUSH2 0x4546 DUP2 PUSH2 0x451B JUMP JUMPDEST DUP3 MSTORE POP POP JUMP JUMPDEST PUSH1 0x0 PUSH1 0x20 DUP3 ADD SWAP1 POP PUSH2 0x4561 PUSH1 0x0 DUP4 ADD DUP5 PUSH2 0x453D JUMP JUMPDEST SWAP3 SWAP2 POP POP JUMP JUMPDEST PUSH32 0x61646472657373206F662073656C6C657220697320696E636F72726563742E00 PUSH1 0x0 DUP3 ADD MSTORE POP JUMP JUMPDEST PUSH1 0x0 PUSH2 0x459D PUSH1 0x1F DUP4 PUSH2 0x371F JUMP JUMPDEST SWAP2 POP PUSH2 0x45A8 DUP3 PUSH2 0x4567 JUMP JUMPDEST PUSH1 0x20 DUP3 ADD SWAP1 POP SWAP2 SWAP1 POP JUMP JUMPDEST PUSH1 0x0 PUSH1 0x60 DUP3 ADD SWAP1 POP PUSH2 0x45C8 PUSH1 0x0 DUP4 ADD DUP6 PUSH2 0x3710 JUMP JUMPDEST PUSH2 0x45D5 PUSH1 0x20 DUP4 ADD DUP5 PUSH2 0x3710 JUMP JUMPDEST DUP2 DUP2 SUB PUSH1 0x40 DUP4 ADD MSTORE PUSH2 0x45E6 DUP2 PUSH2 0x4590 JUMP JUMPDEST SWAP1 POP SWAP4 SWAP3 POP POP POP JUMP JUMPDEST PUSH32 0x41756374696F6E2073686F756C64206265207374617274656400000000000000 PUSH1 0x0 DUP3 ADD MSTORE POP JUMP JUMPDEST PUSH1 0x0 PUSH2 0x4625 PUSH1 0x19 DUP4 PUSH2 0x371F JUMP JUMPDEST SWAP2 POP PUSH2 0x4630 DUP3 PUSH2 0x45EF JUMP JUMPDEST PUSH1 0x20 DUP3 ADD SWAP1 POP SWAP2 SWAP1 POP JUMP JUMPDEST PUSH1 0x0 PUSH1 0x60 DUP3 ADD SWAP1 POP PUSH2 0x4650 PUSH1 0x0 DUP4 ADD DUP6 PUSH2 0x4361 JUMP JUMPDEST PUSH2 0x465D PUSH1 0x20 DUP4 ADD DUP5 PUSH2 0x4361 JUMP JUMPDEST DUP2 DUP2 SUB PUSH1 0x40 DUP4 ADD MSTORE PUSH2 0x466E DUP2 PUSH2 0x4618 JUMP JUMPDEST SWAP1 POP SWAP4 SWAP3 POP POP POP JUMP JUMPDEST PUSH1 0x0 DUP2 SWAP1 POP SWAP2 SWAP1 POP JUMP JUMPDEST PUSH1 0x0 PUSH2 0x469C PUSH2 0x4697 PUSH2 0x4692 DUP5 PUSH2 0x4677 JUMP JUMPDEST PUSH2 0x3649 JUMP JUMPDEST PUSH2 0x2EA9 JUMP JUMPDEST SWAP1 POP SWAP2 SWAP1 POP JUMP JUMPDEST PUSH2 0x46AC DUP2 PUSH2 0x4681 JUMP JUMPDEST DUP3 MSTORE POP POP JUMP JUMPDEST PUSH1 0x0 PUSH1 0x20 DUP3 ADD SWAP1 POP PUSH2 0x46C7 PUSH1 0x0 DUP4 ADD DUP5 PUSH2 0x46A3 JUMP JUMPDEST SWAP3 SWAP2 POP POP JUMP JUMPDEST PUSH32 0x6269646465722032206973206E6F7420726567697374657265642E0000000000 PUSH1 0x0 DUP3 ADD MSTORE POP JUMP JUMPDEST PUSH1 0x0 PUSH2 0x4703 PUSH1 0x1B DUP4 PUSH2 0x371F JUMP JUMPDEST SWAP2 POP PUSH2 0x470E DUP3 PUSH2 0x46CD JUMP JUMPDEST PUSH1 0x20 DUP3 ADD SWAP1 POP SWAP2 SWAP1 POP JUMP JUMPDEST PUSH1 0x0 PUSH1 0x60 DUP3 ADD SWAP1 POP PUSH2 0x472E PUSH1 0x0 DUP4 ADD DUP6 PUSH2 0x3710 JUMP JUMPDEST PUSH2 0x473B PUSH1 0x20 DUP4 ADD DUP5 PUSH2 0x3710 JUMP JUMPDEST DUP2 DUP2 SUB PUSH1 0x40 DUP4 ADD MSTORE PUSH2 0x474C DUP2 PUSH2 0x46F6 JUMP JUMPDEST SWAP1 POP SWAP4 SWAP3 POP POP POP JUMP JUMPDEST PUSH32 0x6861736832206973206E6F7420636F7272656374000000000000000000000000 PUSH1 0x0 DUP3 ADD MSTORE POP JUMP JUMPDEST PUSH1 0x0 PUSH2 0x478B PUSH1 0x14 DUP4 PUSH2 0x371F JUMP JUMPDEST SWAP2 POP PUSH2 0x4796 DUP3 PUSH2 0x4755 JUMP JUMPDEST PUSH1 0x20 DUP3 ADD SWAP1 POP SWAP2 SWAP1 POP JUMP JUMPDEST PUSH1 0x0 PUSH1 0x60 DUP3 ADD SWAP1 POP PUSH2 0x47B6 PUSH1 0x0 DUP4 ADD DUP6 PUSH2 0x3E2E JUMP JUMPDEST PUSH2 0x47C3 PUSH1 0x20 DUP4 ADD DUP5 PUSH2 0x3E2E JUMP JUMPDEST DUP2 DUP2 SUB PUSH1 0x40 DUP4 ADD MSTORE PUSH2 0x47D4 DUP2 PUSH2 0x477E JUMP JUMPDEST SWAP1 POP SWAP4 SWAP3 POP POP POP JUMP JUMPDEST PUSH32 0x6861736832206F66206269646465722032206973206E6F74207375626D697474 PUSH1 0x0 DUP3 ADD MSTORE PUSH32 0x6564000000000000000000000000000000000000000000000000000000000000 PUSH1 0x20 DUP3 ADD MSTORE POP JUMP JUMPDEST PUSH1 0x0 PUSH2 0x4839 PUSH1 0x22 DUP4 PUSH2 0x371F JUMP JUMPDEST SWAP2 POP PUSH2 0x4844 DUP3 PUSH2 0x47DD JUMP JUMPDEST PUSH1 0x40 DUP3 ADD SWAP1 POP SWAP2 SWAP1 POP JUMP JUMPDEST PUSH1 0x0 PUSH1 0x60 DUP3 ADD SWAP1 POP PUSH2 0x4864 PUSH1 0x0 DUP4 ADD DUP6 PUSH2 0x3E2E JUMP JUMPDEST PUSH2 0x4871 PUSH1 0x20 DUP4 ADD DUP5 PUSH2 0x3E2E JUMP JUMPDEST DUP2 DUP2 SUB PUSH1 0x40 DUP4 ADD MSTORE PUSH2 0x4882 DUP2 PUSH2 0x482C JUMP JUMPDEST SWAP1 POP SWAP4 SWAP3 POP POP POP JUMP JUMPDEST PUSH32 0x6861736831206973206E6F7420636F7272656374000000000000000000000000 PUSH1 0x0 DUP3 ADD MSTORE POP JUMP JUMPDEST PUSH1 0x0 PUSH2 0x48C1 PUSH1 0x14 DUP4 PUSH2 0x371F JUMP JUMPDEST SWAP2 POP PUSH2 0x48CC DUP3 PUSH2 0x488B JUMP JUMPDEST PUSH1 0x20 DUP3 ADD SWAP1 POP SWAP2 SWAP1 POP JUMP JUMPDEST PUSH1 0x0 PUSH1 0x60 DUP3 ADD SWAP1 POP PUSH2 0x48EC PUSH1 0x0 DUP4 ADD DUP6 PUSH2 0x3E2E JUMP JUMPDEST PUSH2 0x48F9 PUSH1 0x20 DUP4 ADD DUP5 PUSH2 0x3E2E JUMP JUMPDEST DUP2 DUP2 SUB PUSH1 0x40 DUP4 ADD MSTORE PUSH2 0x490A DUP2 PUSH2 0x48B4 JUMP JUMPDEST SWAP1 POP SWAP4 SWAP3 POP POP POP JUMP JUMPDEST PUSH32 0x6861736831206F66206269646465722031206973206E6F74207375626D697474 PUSH1 0x0 DUP3 ADD MSTORE PUSH32 0x6564000000000000000000000000000000000000000000000000000000000000 PUSH1 0x20 DUP3 ADD MSTORE POP JUMP JUMPDEST PUSH1 0x0 PUSH2 0x496F PUSH1 0x22 DUP4 PUSH2 0x371F JUMP JUMPDEST SWAP2 POP PUSH2 0x497A DUP3 PUSH2 0x4913 JUMP JUMPDEST PUSH1 0x40 DUP3 ADD SWAP1 POP SWAP2 SWAP1 POP JUMP JUMPDEST PUSH1 0x0 PUSH1 0x60 DUP3 ADD SWAP1 POP PUSH2 0x499A PUSH1 0x0 DUP4 ADD DUP6 PUSH2 0x3E2E JUMP JUMPDEST PUSH2 0x49A7 PUSH1 0x20 DUP4 ADD DUP5 PUSH2 0x3E2E JUMP JUMPDEST DUP2 DUP2 SUB PUSH1 0x40 DUP4 ADD MSTORE PUSH2 0x49B8 DUP2 PUSH2 0x4962 JUMP JUMPDEST SWAP1 POP SWAP4 SWAP3 POP POP POP JUMP JUMPDEST PUSH32 0x4F6E6C792072656769737465726564206269646465722063616E2063616C6C20 PUSH1 0x0 DUP3 ADD MSTORE PUSH32 0x746869732066756E6374696F6E00000000000000000000000000000000000000 PUSH1 0x20 DUP3 ADD MSTORE POP JUMP JUMPDEST PUSH1 0x0 PUSH2 0x4A1D PUSH1 0x2D DUP4 PUSH2 0x331B JUMP JUMPDEST SWAP2 POP PUSH2 0x4A28 DUP3 PUSH2 0x49C1 JUMP JUMPDEST PUSH1 0x40 DUP3 ADD SWAP1 POP SWAP2 SWAP1 POP JUMP JUMPDEST PUSH1 0x0 PUSH1 0x20 DUP3 ADD SWAP1 POP DUP2 DUP2 SUB PUSH1 0x0 DUP4 ADD MSTORE PUSH2 0x4A4C DUP2 PUSH2 0x4A10 JUMP JUMPDEST SWAP1 POP SWAP2 SWAP1 POP JUMP JUMPDEST PUSH32 0x53656C6C65722063616E206E6F74207265676973746572206173206269646465 PUSH1 0x0 DUP3 ADD MSTORE PUSH32 0x7200000000000000000000000000000000000000000000000000000000000000 PUSH1 0x20 DUP3 ADD MSTORE POP JUMP JUMPDEST PUSH1 0x0 PUSH2 0x4AAF PUSH1 0x21 DUP4 PUSH2 0x331B JUMP JUMPDEST SWAP2 POP PUSH2 0x4ABA DUP3 PUSH2 0x4A53 JUMP JUMPDEST PUSH1 0x40 DUP3 ADD SWAP1 POP SWAP2 SWAP1 POP JUMP JUMPDEST PUSH1 0x0 PUSH1 0x20 DUP3 ADD SWAP1 POP DUP2 DUP2 SUB PUSH1 0x0 DUP4 ADD MSTORE PUSH2 0x4ADE DUP2 PUSH2 0x4AA2 JUMP JUMPDEST SWAP1 POP SWAP2 SWAP1 POP JUMP JUMPDEST PUSH32 0x54696D6520666F72207265676973746572696E67206173206120626964646572 PUSH1 0x0 DUP3 ADD MSTORE PUSH32 0x206973207061737365642E000000000000000000000000000000000000000000 PUSH1 0x20 DUP3 ADD MSTORE POP JUMP JUMPDEST PUSH1 0x0 PUSH2 0x4B41 PUSH1 0x2B DUP4 PUSH2 0x331B JUMP JUMPDEST SWAP2 POP PUSH2 0x4B4C DUP3 PUSH2 0x4AE5 JUMP JUMPDEST PUSH1 0x40 DUP3 ADD SWAP1 POP SWAP2 SWAP1 POP JUMP JUMPDEST PUSH1 0x0 PUSH1 0x20 DUP3 ADD SWAP1 POP DUP2 DUP2 SUB PUSH1 0x0 DUP4 ADD MSTORE PUSH2 0x4B70 DUP2 PUSH2 0x4B34 JUMP JUMPDEST SWAP1 POP SWAP2 SWAP1 POP JUMP JUMPDEST PUSH1 0x0 PUSH2 0x4B82 DUP3 PUSH2 0x30CB JUMP JUMPDEST PUSH2 0x4B8C DUP2 DUP6 PUSH2 0x41BB JUMP JUMPDEST SWAP4 POP PUSH2 0x4B9C DUP2 DUP6 PUSH1 0x20 DUP7 ADD PUSH2 0x30E7 JUMP JUMPDEST DUP1 DUP5 ADD SWAP2 POP POP SWAP3 SWAP2 POP POP JUMP JUMPDEST PUSH1 0x0 PUSH2 0x4BB4 DUP3 DUP6 PUSH2 0x4B77 JUMP JUMPDEST SWAP2 POP PUSH2 0x4BC0 DUP3 DUP5 PUSH2 0x4B77 JUMP JUMPDEST SWAP2 POP DUP2 SWAP1 POP SWAP4 SWAP3 POP POP POP JUMP JUMPDEST PUSH1 0x0 PUSH2 0x4BD8 DUP3 DUP5 PUSH2 0x4B77 JUMP JUMPDEST SWAP2 POP DUP2 SWAP1 POP SWAP3 SWAP2 POP POP JUMP JUMPDEST PUSH1 0x0 PUSH2 0x4BEE DUP3 PUSH2 0x2EA9 JUMP JUMPDEST SWAP2 POP PUSH32 0xFFFFFFFFFFFFFFFFFFFFFFFFFFFFFFFFFFFFFFFFFFFFFFFFFFFFFFFFFFFFFFFF DUP3 SUB PUSH2 0x4C20 JUMPI PUSH2 0x4C1F PUSH2 0x3DCB JUMP JUMPDEST JUMPDEST PUSH1 0x1 DUP3 ADD SWAP1 POP SWAP2 SWAP1 POP JUMP JUMPDEST PUSH1 0x0 PUSH2 0x4C36 DUP3 PUSH2 0x2EA9 JUMP JUMPDEST SWAP2 POP PUSH2 0x4C41 DUP4 PUSH2 0x2EA9 JUMP JUMPDEST SWAP3 POP DUP3 DUP3 MUL PUSH2 0x4C4F DUP2 PUSH2 0x2EA9 JUMP JUMPDEST SWAP2 POP DUP3 DUP3 DIV DUP5 EQ DUP4 ISZERO OR PUSH2 0x4C66 JUMPI PUSH2 0x4C65 PUSH2 0x3DCB JUMP JUMPDEST JUMPDEST POP SWAP3 SWAP2 POP POP JUMP JUMPDEST PUSH32 0x4E487B7100000000000000000000000000000000000000000000000000000000 PUSH1 0x0 MSTORE PUSH1 0x12 PUSH1 0x4 MSTORE PUSH1 0x24 PUSH1 0x0 REVERT INVALID LOG2 PUSH5 0x6970667358 0x22 SLT KECCAK256 PUSH6 0x34D7F048453B PUSH25 0x46F425C7D1222405530B891E9EC8CE8EE0764BC83B65C12564 PUSH20 0x6F6C634300081200330000000000000000000000 "
		},
		"gasEstimates": {
			"creation": {
				"codeDepositCost": "3933200",
				"executionCost": "75118",
				"totalCost": "4008318"
			},
			"external": {
				"assetDescription()": "infinite",
				"assetName()": "infinite",
				"auctioneer()": "2559",
				"beforeAll()": "infinite",
				"bidders(uint256)": "5023",
				"checkBidder1HashedBidSubmission()": "infinite",
				"checkBidder2HashedBidSubmission()": "infinite",
				"checkBidder3HashedBidSubmission()": "infinite",
				"checkRegisterBidder1()": "infinite",
				"checkRegisterBidder2()": "infinite",
				"checkRegisterBidder3()": "infinite",
				"dispute(uint256,string)": "infinite",
				"disputedBidders(uint256)": "infinite",
				"encodedBids(address)": "2926",
				"getAllDisputers()": "infinite",
				"getAllWinners()": "infinite",
				"getAuctionInfo()": "infinite",
				"getBidders(uint256)": "5057",
				"registerAuctionInfo(string,string)": "infinite",
				"registerBidder()": "55292",
				"reset()": "infinite",
				"resetEncodedBids()": "infinite",
				"seller()": "2535",
				"startAuction()": "infinite",
				"submitEncodedBid(bytes32)": "infinite",
				"submitWinner(uint256,string)": "infinite",
				"winners(uint256)": "infinite"
			}
		},
		"methodIdentifiers": {
			"assetDescription()": "938626c2",
			"assetName()": "c9230c5d",
			"auctioneer()": "5ec2c7bf",
			"beforeAll()": "7fea0d4b",
			"bidders(uint256)": "cff29dfd",
			"checkBidder1HashedBidSubmission()": "93b25909",
			"checkBidder2HashedBidSubmission()": "7127399a",
			"checkBidder3HashedBidSubmission()": "4d3312b6",
			"checkRegisterBidder1()": "3fd486e1",
			"checkRegisterBidder2()": "133f3c3c",
			"checkRegisterBidder3()": "6e56a9ec",
			"dispute(uint256,string)": "66c85dee",
			"disputedBidders(uint256)": "8f772f96",
			"encodedBids(address)": "3817df4c",
			"getAllDisputers()": "35abd160",
			"getAllWinners()": "dc6b8627",
			"getAuctionInfo()": "d94a3505",
			"getBidders(uint256)": "4fa7b507",
			"registerAuctionInfo(string,string)": "a2ebc656",
			"registerBidder()": "f356733c",
			"reset()": "d826f88f",
			"resetEncodedBids()": "40bd5937",
			"seller()": "08551a53",
			"startAuction()": "6b64c769",
			"submitEncodedBid(bytes32)": "ec5d0ab2",
			"submitWinner(uint256,string)": "1744e03b",
			"winners(uint256)": "a2fb1175"
		}
	},
	"abi": [
		{
			"inputs": [],
			"name": "assetDescription",
			"outputs": [
				{
					"internalType": "string",
					"name": "",
					"type": "string"
				}
			],
			"stateMutability": "view",
			"type": "function"
		},
		{
			"inputs": [],
			"name": "assetName",
			"outputs": [
				{
					"internalType": "string",
					"name": "",
					"type": "string"
				}
			],
			"stateMutability": "view",
			"type": "function"
		},
		{
			"inputs": [],
			"name": "auctioneer",
			"outputs": [
				{
					"internalType": "address",
					"name": "",
					"type": "address"
				}
			],
			"stateMutability": "view",
			"type": "function"
		},
		{
			"inputs": [],
			"name": "beforeAll",
			"outputs": [],
			"stateMutability": "nonpayable",
			"type": "function"
		},
		{
			"inputs": [
				{
					"internalType": "uint256",
					"name": "",
					"type": "uint256"
				}
			],
			"name": "bidders",
			"outputs": [
				{
					"internalType": "address",
					"name": "",
					"type": "address"
				}
			],
			"stateMutability": "view",
			"type": "function"
		},
		{
			"inputs": [],
			"name": "checkBidder1HashedBidSubmission",
			"outputs": [],
			"stateMutability": "nonpayable",
			"type": "function"
		},
		{
			"inputs": [],
			"name": "checkBidder2HashedBidSubmission",
			"outputs": [],
			"stateMutability": "nonpayable",
			"type": "function"
		},
		{
			"inputs": [],
			"name": "checkBidder3HashedBidSubmission",
			"outputs": [],
			"stateMutability": "nonpayable",
			"type": "function"
		},
		{
			"inputs": [],
			"name": "checkRegisterBidder1",
			"outputs": [],
			"stateMutability": "nonpayable",
			"type": "function"
		},
		{
			"inputs": [],
			"name": "checkRegisterBidder2",
			"outputs": [],
			"stateMutability": "nonpayable",
			"type": "function"
		},
		{
			"inputs": [],
			"name": "checkRegisterBidder3",
			"outputs": [],
			"stateMutability": "nonpayable",
			"type": "function"
		},
		{
			"inputs": [
				{
					"internalType": "uint256",
					"name": "inputDisputedBid",
					"type": "uint256"
				},
				{
					"internalType": "string",
					"name": "inputDisputedNonce",
					"type": "string"
				}
			],
			"name": "dispute",
			"outputs": [],
			"stateMutability": "nonpayable",
			"type": "function"
		},
		{
			"inputs": [
				{
					"internalType": "uint256",
					"name": "",
					"type": "uint256"
				}
			],
			"name": "disputedBidders",
			"outputs": [
				{
					"internalType": "uint256",
					"name": "bid",
					"type": "uint256"
				},
				{
					"internalType": "address",
					"name": "disputeAddress",
					"type": "address"
				},
				{
					"internalType": "string",
					"name": "nonce",
					"type": "string"
				}
			],
			"stateMutability": "view",
			"type": "function"
		},
		{
			"inputs": [
				{
					"internalType": "address",
					"name": "",
					"type": "address"
				}
			],
			"name": "encodedBids",
			"outputs": [
				{
					"internalType": "bytes32",
					"name": "",
					"type": "bytes32"
				}
			],
			"stateMutability": "view",
			"type": "function"
		},
		{
			"inputs": [],
			"name": "getAllDisputers",
			"outputs": [
				{
					"components": [
						{
							"internalType": "uint256",
							"name": "bid",
							"type": "uint256"
						},
						{
							"internalType": "address",
							"name": "disputeAddress",
							"type": "address"
						},
						{
							"internalType": "string",
							"name": "nonce",
							"type": "string"
						}
					],
					"internalType": "struct AKEB.DisputedBidders[]",
					"name": "",
					"type": "tuple[]"
				}
			],
			"stateMutability": "view",
			"type": "function"
		},
		{
			"inputs": [],
			"name": "getAllWinners",
			"outputs": [
				{
					"components": [
						{
							"internalType": "address",
							"name": "winnerAddress",
							"type": "address"
						},
						{
							"internalType": "uint256",
							"name": "bid",
							"type": "uint256"
						},
						{
							"internalType": "string",
							"name": "nonce",
							"type": "string"
						}
					],
					"internalType": "struct AKEB.winner[]",
					"name": "",
					"type": "tuple[]"
				}
			],
			"stateMutability": "view",
			"type": "function"
		},
		{
			"inputs": [],
			"name": "getAuctionInfo",
			"outputs": [
				{
					"internalType": "string",
					"name": "",
					"type": "string"
				},
				{
					"internalType": "string",
					"name": "",
					"type": "string"
				}
			],
			"stateMutability": "view",
			"type": "function"
		},
		{
			"inputs": [
				{
					"internalType": "uint256",
					"name": "index",
					"type": "uint256"
				}
			],
			"name": "getBidders",
			"outputs": [
				{
					"internalType": "address",
					"name": "",
					"type": "address"
				}
			],
			"stateMutability": "view",
			"type": "function"
		},
		{
			"inputs": [
				{
					"internalType": "string",
					"name": "assetNameInput",
					"type": "string"
				},
				{
					"internalType": "string",
					"name": "assetDescriptionInput",
					"type": "string"
				}
			],
			"name": "registerAuctionInfo",
			"outputs": [],
			"stateMutability": "nonpayable",
			"type": "function"
		},
		{
			"inputs": [],
			"name": "registerBidder",
			"outputs": [],
			"stateMutability": "nonpayable",
			"type": "function"
		},
		{
			"inputs": [],
			"name": "reset",
			"outputs": [],
			"stateMutability": "nonpayable",
			"type": "function"
		},
		{
			"inputs": [],
			"name": "resetEncodedBids",
			"outputs": [],
			"stateMutability": "nonpayable",
			"type": "function"
		},
		{
			"inputs": [],
			"name": "seller",
			"outputs": [
				{
					"internalType": "address",
					"name": "",
					"type": "address"
				}
			],
			"stateMutability": "view",
			"type": "function"
		},
		{
			"inputs": [],
			"name": "startAuction",
			"outputs": [],
			"stateMutability": "nonpayable",
			"type": "function"
		},
		{
			"inputs": [
				{
					"internalType": "bytes32",
					"name": "inputEncodedBid",
					"type": "bytes32"
				}
			],
			"name": "submitEncodedBid",
			"outputs": [],
			"stateMutability": "nonpayable",
			"type": "function"
		},
		{
			"inputs": [
				{
					"internalType": "uint256",
					"name": "inputWinnerBid",
					"type": "uint256"
				},
				{
					"internalType": "string",
					"name": "inputwinnerNonce",
					"type": "string"
				}
			],
			"name": "submitWinner",
			"outputs": [],
			"stateMutability": "nonpayable",
			"type": "function"
		},
		{
			"inputs": [
				{
					"internalType": "uint256",
					"name": "",
					"type": "uint256"
				}
			],
			"name": "winners",
			"outputs": [
				{
					"internalType": "address",
					"name": "winnerAddress",
					"type": "address"
				},
				{
					"internalType": "uint256",
					"name": "bid",
					"type": "uint256"
				},
				{
					"internalType": "string",
					"name": "nonce",
					"type": "string"
				}
			],
			"stateMutability": "view",
			"type": "function"
		}
	]
}