{
	"Contracts/AKEB.sol": {
		"AKEB": {
			"abi": [
				{
					"inputs": [],
					"name": "assetDescription",
					"outputs": [
						{
							"internalType": "string",
							"name": "",
							"type": "string"
						}
					],
					"stateMutability": "view",
					"type": "function"
				},
				{
					"inputs": [],
					"name": "assetName",
					"outputs": [
						{
							"internalType": "string",
							"name": "",
							"type": "string"
						}
					],
					"stateMutability": "view",
					"type": "function"
				},
				{
					"inputs": [
						{
							"internalType": "uint256",
							"name": "",
							"type": "uint256"
						}
					],
					"name": "bidders",
					"outputs": [
						{
							"internalType": "address",
							"name": "",
							"type": "address"
						}
					],
					"stateMutability": "view",
					"type": "function"
				},
				{
					"inputs": [
						{
							"internalType": "uint256",
							"name": "inputDisputedBid",
							"type": "uint256"
						},
						{
							"internalType": "string",
							"name": "inputDisputedNonce",
							"type": "string"
						}
					],
					"name": "dispute",
					"outputs": [],
					"stateMutability": "nonpayable",
					"type": "function"
				},
				{
					"inputs": [
						{
							"internalType": "uint256",
							"name": "",
							"type": "uint256"
						}
					],
					"name": "disputedBidders",
					"outputs": [
						{
							"internalType": "uint256",
							"name": "bid",
							"type": "uint256"
						},
						{
							"internalType": "address",
							"name": "disputeAddress",
							"type": "address"
						},
						{
							"internalType": "string",
							"name": "nonce",
							"type": "string"
						}
					],
					"stateMutability": "view",
					"type": "function"
				},
				{
					"inputs": [
						{
							"internalType": "address",
							"name": "",
							"type": "address"
						}
					],
					"name": "encodedBids",
					"outputs": [
						{
							"internalType": "bytes32",
							"name": "",
							"type": "bytes32"
						}
					],
					"stateMutability": "view",
					"type": "function"
				},
				{
					"inputs": [],
					"name": "getAllDisputers",
					"outputs": [
						{
							"components": [
								{
									"internalType": "uint256",
									"name": "bid",
									"type": "uint256"
								},
								{
									"internalType": "address",
									"name": "disputeAddress",
									"type": "address"
								},
								{
									"internalType": "string",
									"name": "nonce",
									"type": "string"
								}
							],
							"internalType": "struct AKEB.DisputedBidders[]",
							"name": "",
							"type": "tuple[]"
						}
					],
					"stateMutability": "view",
					"type": "function"
				},
				{
					"inputs": [],
					"name": "getAllWinners",
					"outputs": [
						{
							"components": [
								{
									"internalType": "address",
									"name": "winnerAddress",
									"type": "address"
								},
								{
									"internalType": "uint256",
									"name": "bid",
									"type": "uint256"
								},
								{
									"internalType": "string",
									"name": "nonce",
									"type": "string"
								}
							],
							"internalType": "struct AKEB.winner[]",
							"name": "",
							"type": "tuple[]"
						}
					],
					"stateMutability": "view",
					"type": "function"
				},
				{
					"inputs": [],
					"name": "getAuctionInfo",
					"outputs": [
						{
							"internalType": "string",
							"name": "",
							"type": "string"
						},
						{
							"internalType": "string",
							"name": "",
							"type": "string"
						}
					],
					"stateMutability": "view",
					"type": "function"
				},
				{
					"inputs": [
						{
							"internalType": "string",
							"name": "assetNameInput",
							"type": "string"
						},
						{
							"internalType": "string",
							"name": "assetDescriptionInput",
							"type": "string"
						}
					],
					"name": "registerAuctionInfo",
					"outputs": [],
					"stateMutability": "nonpayable",
					"type": "function"
				},
				{
					"inputs": [],
					"name": "registerBidder",
					"outputs": [],
					"stateMutability": "nonpayable",
					"type": "function"
				},
				{
					"inputs": [],
					"name": "reset",
					"outputs": [],
					"stateMutability": "nonpayable",
					"type": "function"
				},
				{
					"inputs": [],
					"name": "resetEncodedBids",
					"outputs": [],
					"stateMutability": "nonpayable",
					"type": "function"
				},
				{
					"inputs": [
						{
							"internalType": "bytes32",
							"name": "inputEncodedBid",
							"type": "bytes32"
						}
					],
					"name": "submitEncodedBid",
					"outputs": [],
					"stateMutability": "nonpayable",
					"type": "function"
				},
				{
					"inputs": [
						{
							"internalType": "uint256",
							"name": "inputWinnerBid",
							"type": "uint256"
						},
						{
							"internalType": "string",
							"name": "inputwinnerNonce",
							"type": "string"
						}
					],
					"name": "submitWinner",
					"outputs": [],
					"stateMutability": "nonpayable",
					"type": "function"
				},
				{
					"inputs": [
						{
							"internalType": "uint256",
							"name": "",
							"type": "uint256"
						}
					],
					"name": "winners",
					"outputs": [
						{
							"internalType": "address",
							"name": "winnerAddress",
							"type": "address"
						},
						{
							"internalType": "uint256",
							"name": "bid",
							"type": "uint256"
						},
						{
							"internalType": "string",
							"name": "nonce",
							"type": "string"
						}
					],
					"stateMutability": "view",
					"type": "function"
				}
			],
			"devdoc": {
				"kind": "dev",
				"methods": {},
				"version": 1
			},
			"evm": {
				"assembly": "    /* \"Contracts/AKEB.sol\":111:7017  contract AKEB {... */\n  mstore(0x40, 0x80)\n    /* \"Contracts/AKEB.sol\":423:424  5 */\n  0x05\n    /* \"Contracts/AKEB.sol\":405:424  uint periodTime = 5 */\n  0x06\n  sstore\n    /* \"Contracts/AKEB.sol\":454:459  false */\n  0x00\n    /* \"Contracts/AKEB.sol\":430:459  bool isAuctionStarted = false */\n  0x07\n  exp(0x0100, 0x00)\n  dup2\n  sload\n  dup2\n  0xff\n  mul\n  not\n  and\n  swap1\n  dup4\n  iszero\n  iszero\n  mul\n  or\n  swap1\n  sstore\n  pop\n    /* \"Contracts/AKEB.sol\":111:7017  contract AKEB {... */\n  callvalue\n  dup1\n  iszero\n  tag_1\n  jumpi\n  0x00\n  dup1\n  revert\ntag_1:\n  pop\n  dataSize(sub_0)\n  dup1\n  dataOffset(sub_0)\n  0x00\n  codecopy\n  0x00\n  return\nstop\n\nsub_0: assembly {\n        /* \"Contracts/AKEB.sol\":111:7017  contract AKEB {... */\n      mstore(0x40, 0x80)\n      callvalue\n      dup1\n      iszero\n      tag_1\n      jumpi\n      0x00\n      dup1\n      revert\n    tag_1:\n      pop\n      jumpi(tag_2, lt(calldatasize, 0x04))\n      shr(0xe0, calldataload(0x00))\n      dup1\n      0xa2fb1175\n      gt\n      tag_19\n      jumpi\n      dup1\n      0xd94a3505\n      gt\n      tag_20\n      jumpi\n      dup1\n      0xd94a3505\n      eq\n      tag_15\n      jumpi\n      dup1\n      0xdc6b8627\n      eq\n      tag_16\n      jumpi\n      dup1\n      0xec5d0ab2\n      eq\n      tag_17\n      jumpi\n      dup1\n      0xf356733c\n      eq\n      tag_18\n      jumpi\n      jump(tag_2)\n    tag_20:\n      dup1\n      0xa2fb1175\n      eq\n      tag_11\n      jumpi\n      dup1\n      0xc9230c5d\n      eq\n      tag_12\n      jumpi\n      dup1\n      0xcff29dfd\n      eq\n      tag_13\n      jumpi\n      dup1\n      0xd826f88f\n      eq\n      tag_14\n      jumpi\n      jump(tag_2)\n    tag_19:\n      dup1\n      0x66c85dee\n      gt\n      tag_21\n      jumpi\n      dup1\n      0x66c85dee\n      eq\n      tag_7\n      jumpi\n      dup1\n      0x8f772f96\n      eq\n      tag_8\n      jumpi\n      dup1\n      0x938626c2\n      eq\n      tag_9\n      jumpi\n      dup1\n      0xa2ebc656\n      eq\n      tag_10\n      jumpi\n      jump(tag_2)\n    tag_21:\n      dup1\n      0x1744e03b\n      eq\n      tag_3\n      jumpi\n      dup1\n      0x35abd160\n      eq\n      tag_4\n      jumpi\n      dup1\n      0x3817df4c\n      eq\n      tag_5\n      jumpi\n      dup1\n      0x40bd5937\n      eq\n      tag_6\n      jumpi\n    tag_2:\n      0x00\n      dup1\n      revert\n        /* \"Contracts/AKEB.sol\":3641:4101  function submitWinner(uint256 inputWinnerBid, ... */\n    tag_3:\n      tag_22\n      0x04\n      dup1\n      calldatasize\n      sub\n      dup2\n      add\n      swap1\n      tag_23\n      swap2\n      swap1\n      tag_24\n      jump\t// in\n    tag_23:\n      tag_25\n      jump\t// in\n    tag_22:\n      stop\n        /* \"Contracts/AKEB.sol\":2967:3124  function getAllDisputers() ... */\n    tag_4:\n      tag_26\n      tag_27\n      jump\t// in\n    tag_26:\n      mload(0x40)\n      tag_28\n      swap2\n      swap1\n      tag_29\n      jump\t// in\n    tag_28:\n      mload(0x40)\n      dup1\n      swap2\n      sub\n      swap1\n      return\n        /* \"Contracts/AKEB.sol\":541:587  mapping(address => bytes32) public encodedBids */\n    tag_5:\n      tag_30\n      0x04\n      dup1\n      calldatasize\n      sub\n      dup2\n      add\n      swap1\n      tag_31\n      swap2\n      swap1\n      tag_32\n      jump\t// in\n    tag_31:\n      tag_33\n      jump\t// in\n    tag_30:\n      mload(0x40)\n      tag_34\n      swap2\n      swap1\n      tag_35\n      jump\t// in\n    tag_34:\n      mload(0x40)\n      dup1\n      swap2\n      sub\n      swap1\n      return\n        /* \"Contracts/AKEB.sol\":6704:7015  function resetEncodedBids() ... */\n    tag_6:\n      tag_36\n      tag_37\n      jump\t// in\n    tag_36:\n      stop\n        /* \"Contracts/AKEB.sol\":4388:5357  function dispute(uint256 inputDisputedBid, ... */\n    tag_7:\n      tag_38\n      0x04\n      dup1\n      calldatasize\n      sub\n      dup2\n      add\n      swap1\n      tag_39\n      swap2\n      swap1\n      tag_24\n      jump\t// in\n    tag_39:\n      tag_40\n      jump\t// in\n    tag_38:\n      stop\n        /* \"Contracts/AKEB.sol\":960:1000  DisputedBidders[] public disputedBidders */\n    tag_8:\n      tag_41\n      0x04\n      dup1\n      calldatasize\n      sub\n      dup2\n      add\n      swap1\n      tag_42\n      swap2\n      swap1\n      tag_43\n      jump\t// in\n    tag_42:\n      tag_44\n      jump\t// in\n    tag_41:\n      mload(0x40)\n      tag_45\n      swap4\n      swap3\n      swap2\n      swap1\n      tag_46\n      jump\t// in\n    tag_45:\n      mload(0x40)\n      dup1\n      swap2\n      sub\n      swap1\n      return\n        /* \"Contracts/AKEB.sol\":198:228  string public assetDescription */\n    tag_9:\n      tag_47\n      tag_48\n      jump\t// in\n    tag_47:\n      mload(0x40)\n      tag_49\n      swap2\n      swap1\n      tag_50\n      jump\t// in\n    tag_49:\n      mload(0x40)\n      dup1\n      swap2\n      sub\n      swap1\n      return\n        /* \"Contracts/AKEB.sol\":2068:2345  function registerAuctionInfo(string memory assetNameInput, ... */\n    tag_10:\n      tag_51\n      0x04\n      dup1\n      calldatasize\n      sub\n      dup2\n      add\n      swap1\n      tag_52\n      swap2\n      swap1\n      tag_53\n      jump\t// in\n    tag_52:\n      tag_54\n      jump\t// in\n    tag_51:\n      stop\n        /* \"Contracts/AKEB.sol\":788:811  winner[] public winners */\n    tag_11:\n      tag_55\n      0x04\n      dup1\n      calldatasize\n      sub\n      dup2\n      add\n      swap1\n      tag_56\n      swap2\n      swap1\n      tag_43\n      jump\t// in\n    tag_56:\n      tag_57\n      jump\t// in\n    tag_55:\n      mload(0x40)\n      tag_58\n      swap4\n      swap3\n      swap2\n      swap1\n      tag_59\n      jump\t// in\n    tag_58:\n      mload(0x40)\n      dup1\n      swap2\n      sub\n      swap1\n      return\n        /* \"Contracts/AKEB.sol\":234:257  string public assetName */\n    tag_12:\n      tag_60\n      tag_61\n      jump\t// in\n    tag_60:\n      mload(0x40)\n      tag_62\n      swap2\n      swap1\n      tag_50\n      jump\t// in\n    tag_62:\n      mload(0x40)\n      dup1\n      swap2\n      sub\n      swap1\n      return\n        /* \"Contracts/AKEB.sol\":489:513  address[] public bidders */\n    tag_13:\n      tag_63\n      0x04\n      dup1\n      calldatasize\n      sub\n      dup2\n      add\n      swap1\n      tag_64\n      swap2\n      swap1\n      tag_43\n      jump\t// in\n    tag_64:\n      tag_65\n      jump\t// in\n    tag_63:\n      mload(0x40)\n      tag_66\n      swap2\n      swap1\n      tag_67\n      jump\t// in\n    tag_66:\n      mload(0x40)\n      dup1\n      swap2\n      sub\n      swap1\n      return\n        /* \"Contracts/AKEB.sol\":6299:6640  function reset() ... */\n    tag_14:\n      tag_68\n      tag_69\n      jump\t// in\n    tag_68:\n      stop\n        /* \"Contracts/AKEB.sol\":2388:2563  function getAuctionInfo() ... */\n    tag_15:\n      tag_70\n      tag_71\n      jump\t// in\n    tag_70:\n      mload(0x40)\n      tag_72\n      swap3\n      swap2\n      swap1\n      tag_73\n      jump\t// in\n    tag_72:\n      mload(0x40)\n      dup1\n      swap2\n      sub\n      swap1\n      return\n        /* \"Contracts/AKEB.sol\":4180:4318  function getAllWinners() ... */\n    tag_16:\n      tag_74\n      tag_75\n      jump\t// in\n    tag_74:\n      mload(0x40)\n      tag_76\n      swap2\n      swap1\n      tag_77\n      jump\t// in\n    tag_76:\n      mload(0x40)\n      dup1\n      swap2\n      sub\n      swap1\n      return\n        /* \"Contracts/AKEB.sol\":3209:3575  function submitEncodedBid(bytes32 inputEncodedBid) ... */\n    tag_17:\n      tag_78\n      0x04\n      dup1\n      calldatasize\n      sub\n      dup2\n      add\n      swap1\n      tag_79\n      swap2\n      swap1\n      tag_80\n      jump\t// in\n    tag_79:\n      tag_81\n      jump\t// in\n    tag_78:\n      stop\n        /* \"Contracts/AKEB.sol\":2622:2836  function registerBidder() ... */\n    tag_18:\n      tag_82\n      tag_83\n      jump\t// in\n    tag_82:\n      stop\n        /* \"Contracts/AKEB.sol\":3641:4101  function submitWinner(uint256 inputWinnerBid, ... */\n    tag_25:\n        /* \"Contracts/AKEB.sol\":1498:1502  true */\n      0x01\n        /* \"Contracts/AKEB.sol\":1478:1502  isAuctionStarted == true */\n      iszero\n      iszero\n        /* \"Contracts/AKEB.sol\":1478:1494  isAuctionStarted */\n      0x07\n      0x00\n      swap1\n      sload\n      swap1\n      0x0100\n      exp\n      swap1\n      div\n      0xff\n      and\n        /* \"Contracts/AKEB.sol\":1478:1502  isAuctionStarted == true */\n      iszero\n      iszero\n      eq\n        /* \"Contracts/AKEB.sol\":1470:1538  require(isAuctionStarted == true, \"There is no started auction now\") */\n      tag_85\n      jumpi\n      mload(0x40)\n      0x08c379a000000000000000000000000000000000000000000000000000000000\n      dup2\n      mstore\n      0x04\n      add\n      tag_86\n      swap1\n      tag_87\n      jump\t// in\n    tag_86:\n      mload(0x40)\n      dup1\n      swap2\n      sub\n      swap1\n      revert\n    tag_85:\n        /* \"Contracts/AKEB.sol\":3800:3825  hashedBidSubmissionPeriod */\n      sload(0x04)\n        /* \"Contracts/AKEB.sol\":3782:3797  block.timestamp */\n      timestamp\n        /* \"Contracts/AKEB.sol\":3782:3825  block.timestamp > hashedBidSubmissionPeriod */\n      gt\n        /* \"Contracts/AKEB.sol\":3774:3874  require(block.timestamp > hashedBidSubmissionPeriod, \"Winner submission phase has not started yet.\") */\n      tag_89\n      jumpi\n      mload(0x40)\n      0x08c379a000000000000000000000000000000000000000000000000000000000\n      dup2\n      mstore\n      0x04\n      add\n      tag_90\n      swap1\n      tag_91\n      jump\t// in\n    tag_90:\n      mload(0x40)\n      dup1\n      swap2\n      sub\n      swap1\n      revert\n    tag_89:\n        /* \"Contracts/AKEB.sol\":3910:3942  winnerAndDisputeSubmissionPeriod */\n      sload(0x05)\n        /* \"Contracts/AKEB.sol\":3892:3907  block.timestamp */\n      timestamp\n        /* \"Contracts/AKEB.sol\":3892:3942  block.timestamp < winnerAndDisputeSubmissionPeriod */\n      lt\n        /* \"Contracts/AKEB.sol\":3884:3981  require(block.timestamp < winnerAndDisputeSubmissionPeriod, \"Winner submission time has passed.\") */\n      tag_92\n      jumpi\n      mload(0x40)\n      0x08c379a000000000000000000000000000000000000000000000000000000000\n      dup2\n      mstore\n      0x04\n      add\n      tag_93\n      swap1\n      tag_94\n      jump\t// in\n    tag_93:\n      mload(0x40)\n      dup1\n      swap2\n      sub\n      swap1\n      revert\n    tag_92:\n        /* \"Contracts/AKEB.sol\":3992:4010  winner memory temp */\n      0x00\n        /* \"Contracts/AKEB.sol\":4013:4065  winner(msg.sender, inputWinnerBid, inputwinnerNonce) */\n      mload(0x40)\n      dup1\n      0x60\n      add\n      0x40\n      mstore\n      dup1\n        /* \"Contracts/AKEB.sol\":4020:4030  msg.sender */\n      caller\n        /* \"Contracts/AKEB.sol\":4013:4065  winner(msg.sender, inputWinnerBid, inputwinnerNonce) */\n      0xffffffffffffffffffffffffffffffffffffffff\n      and\n      dup2\n      mstore\n      0x20\n      add\n        /* \"Contracts/AKEB.sol\":4032:4046  inputWinnerBid */\n      dup5\n        /* \"Contracts/AKEB.sol\":4013:4065  winner(msg.sender, inputWinnerBid, inputwinnerNonce) */\n      dup2\n      mstore\n      0x20\n      add\n        /* \"Contracts/AKEB.sol\":4048:4064  inputwinnerNonce */\n      dup4\n        /* \"Contracts/AKEB.sol\":4013:4065  winner(msg.sender, inputWinnerBid, inputwinnerNonce) */\n      dup2\n      mstore\n      pop\n        /* \"Contracts/AKEB.sol\":3992:4065  winner memory temp = winner(msg.sender, inputWinnerBid, inputwinnerNonce) */\n      swap1\n      pop\n        /* \"Contracts/AKEB.sol\":4076:4083  winners */\n      0x0a\n        /* \"Contracts/AKEB.sol\":4089:4093  temp */\n      dup2\n        /* \"Contracts/AKEB.sol\":4076:4094  winners.push(temp) */\n      swap1\n      dup1\n      0x01\n      dup2\n      sload\n      add\n      dup1\n      dup3\n      sstore\n      dup1\n      swap2\n      pop\n      pop\n      0x01\n      swap1\n      sub\n      swap1\n      0x00\n      mstore\n      keccak256(0x00, 0x20)\n      swap1\n      0x03\n      mul\n      add\n      0x00\n      swap1\n      swap2\n      swap1\n      swap2\n      swap1\n      swap2\n      pop\n      0x00\n      dup3\n      add\n      mload\n      dup2\n      0x00\n      add\n      exp(0x0100, 0x00)\n      dup2\n      sload\n      dup2\n      0xffffffffffffffffffffffffffffffffffffffff\n      mul\n      not\n      and\n      swap1\n      dup4\n      0xffffffffffffffffffffffffffffffffffffffff\n      and\n      mul\n      or\n      swap1\n      sstore\n      pop\n      0x20\n      dup3\n      add\n      mload\n      dup2\n      0x01\n      add\n      sstore\n      0x40\n      dup3\n      add\n      mload\n      dup2\n      0x02\n      add\n      swap1\n      dup2\n      tag_96\n      swap2\n      swap1\n      tag_97\n      jump\t// in\n    tag_96:\n      pop\n      pop\n      pop\n        /* \"Contracts/AKEB.sol\":3764:4101  {... */\n      pop\n        /* \"Contracts/AKEB.sol\":3641:4101  function submitWinner(uint256 inputWinnerBid, ... */\n      pop\n      pop\n      jump\t// out\n        /* \"Contracts/AKEB.sol\":2967:3124  function getAllDisputers() ... */\n    tag_27:\n        /* \"Contracts/AKEB.sol\":3060:3084  DisputedBidders[] memory */\n      0x60\n        /* \"Contracts/AKEB.sol\":1498:1502  true */\n      0x01\n        /* \"Contracts/AKEB.sol\":1478:1502  isAuctionStarted == true */\n      iszero\n      iszero\n        /* \"Contracts/AKEB.sol\":1478:1494  isAuctionStarted */\n      0x07\n      0x00\n      swap1\n      sload\n      swap1\n      0x0100\n      exp\n      swap1\n      div\n      0xff\n      and\n        /* \"Contracts/AKEB.sol\":1478:1502  isAuctionStarted == true */\n      iszero\n      iszero\n      eq\n        /* \"Contracts/AKEB.sol\":1470:1538  require(isAuctionStarted == true, \"There is no started auction now\") */\n      tag_99\n      jumpi\n      mload(0x40)\n      0x08c379a000000000000000000000000000000000000000000000000000000000\n      dup2\n      mstore\n      0x04\n      add\n      tag_100\n      swap1\n      tag_87\n      jump\t// in\n    tag_100:\n      mload(0x40)\n      dup1\n      swap2\n      sub\n      swap1\n      revert\n    tag_99:\n        /* \"Contracts/AKEB.sol\":3102:3117  disputedBidders */\n      0x0b\n        /* \"Contracts/AKEB.sol\":3095:3117  return disputedBidders */\n      dup1\n      sload\n      dup1\n      0x20\n      mul\n      0x20\n      add\n      mload(0x40)\n      swap1\n      dup2\n      add\n      0x40\n      mstore\n      dup1\n      swap3\n      swap2\n      swap1\n      dup2\n      dup2\n      mstore\n      0x20\n      add\n      0x00\n      swap1\n    tag_102:\n      dup3\n      dup3\n      lt\n      iszero\n      tag_103\n      jumpi\n      dup4\n      dup3\n      swap1\n      0x00\n      mstore\n      keccak256(0x00, 0x20)\n      swap1\n      0x03\n      mul\n      add\n      mload(0x40)\n      dup1\n      0x60\n      add\n      0x40\n      mstore\n      swap1\n      dup2\n      0x00\n      dup3\n      add\n      sload\n      dup2\n      mstore\n      0x20\n      add\n      0x01\n      dup3\n      add\n      0x00\n      swap1\n      sload\n      swap1\n      0x0100\n      exp\n      swap1\n      div\n      0xffffffffffffffffffffffffffffffffffffffff\n      and\n      0xffffffffffffffffffffffffffffffffffffffff\n      and\n      0xffffffffffffffffffffffffffffffffffffffff\n      and\n      dup2\n      mstore\n      0x20\n      add\n      0x02\n      dup3\n      add\n      dup1\n      sload\n      tag_105\n      swap1\n      tag_106\n      jump\t// in\n    tag_105:\n      dup1\n      0x1f\n      add\n      0x20\n      dup1\n      swap2\n      div\n      mul\n      0x20\n      add\n      mload(0x40)\n      swap1\n      dup2\n      add\n      0x40\n      mstore\n      dup1\n      swap3\n      swap2\n      swap1\n      dup2\n      dup2\n      mstore\n      0x20\n      add\n      dup3\n      dup1\n      sload\n      tag_107\n      swap1\n      tag_106\n      jump\t// in\n    tag_107:\n      dup1\n      iszero\n      tag_108\n      jumpi\n      dup1\n      0x1f\n      lt\n      tag_109\n      jumpi\n      0x0100\n      dup1\n      dup4\n      sload\n      div\n      mul\n      dup4\n      mstore\n      swap2\n      0x20\n      add\n      swap2\n      jump(tag_108)\n    tag_109:\n      dup3\n      add\n      swap2\n      swap1\n      0x00\n      mstore\n      keccak256(0x00, 0x20)\n      swap1\n    tag_110:\n      dup2\n      sload\n      dup2\n      mstore\n      swap1\n      0x01\n      add\n      swap1\n      0x20\n      add\n      dup1\n      dup4\n      gt\n      tag_110\n      jumpi\n      dup3\n      swap1\n      sub\n      0x1f\n      and\n      dup3\n      add\n      swap2\n    tag_108:\n      pop\n      pop\n      pop\n      pop\n      pop\n      dup2\n      mstore\n      pop\n      pop\n      dup2\n      mstore\n      0x20\n      add\n      swap1\n      0x01\n      add\n      swap1\n      jump(tag_102)\n    tag_103:\n      pop\n      pop\n      pop\n      pop\n      swap1\n      pop\n        /* \"Contracts/AKEB.sol\":2967:3124  function getAllDisputers() ... */\n      swap1\n      jump\t// out\n        /* \"Contracts/AKEB.sol\":541:587  mapping(address => bytes32) public encodedBids */\n    tag_33:\n      mstore(0x20, 0x09)\n      dup1\n      0x00\n      mstore\n      keccak256(0x00, 0x40)\n      0x00\n      swap2\n      pop\n      swap1\n      pop\n      sload\n      dup2\n      jump\t// out\n        /* \"Contracts/AKEB.sol\":6704:7015  function resetEncodedBids() ... */\n    tag_37:\n        /* \"Contracts/AKEB.sol\":6780:6812  winnerAndDisputeSubmissionPeriod */\n      sload(0x05)\n        /* \"Contracts/AKEB.sol\":6762:6777  block.timestamp */\n      timestamp\n        /* \"Contracts/AKEB.sol\":6762:6812  block.timestamp > winnerAndDisputeSubmissionPeriod */\n      gt\n        /* \"Contracts/AKEB.sol\":6754:6846  require(block.timestamp > winnerAndDisputeSubmissionPeriod, \"Auction is not completed yet.\") */\n      tag_112\n      jumpi\n      mload(0x40)\n      0x08c379a000000000000000000000000000000000000000000000000000000000\n      dup2\n      mstore\n      0x04\n      add\n      tag_113\n      swap1\n      tag_114\n      jump\t// in\n    tag_113:\n      mload(0x40)\n      dup1\n      swap2\n      sub\n      swap1\n      revert\n    tag_112:\n        /* \"Contracts/AKEB.sol\":6861:6870  uint256 i */\n      0x00\n        /* \"Contracts/AKEB.sol\":6856:7009  for (uint256 i = 0 ; i < bidders.length; i +=1){... */\n    tag_115:\n        /* \"Contracts/AKEB.sol\":6881:6888  bidders */\n      0x08\n        /* \"Contracts/AKEB.sol\":6881:6895  bidders.length */\n      dup1\n      sload\n      swap1\n      pop\n        /* \"Contracts/AKEB.sol\":6877:6878  i */\n      dup2\n        /* \"Contracts/AKEB.sol\":6877:6895  i < bidders.length */\n      lt\n        /* \"Contracts/AKEB.sol\":6856:7009  for (uint256 i = 0 ; i < bidders.length; i +=1){... */\n      iszero\n      tag_116\n      jumpi\n        /* \"Contracts/AKEB.sol\":6917:6938  address bidderAddress */\n      0x00\n        /* \"Contracts/AKEB.sol\":6941:6948  bidders */\n      0x08\n        /* \"Contracts/AKEB.sol\":6949:6950  i */\n      dup3\n        /* \"Contracts/AKEB.sol\":6941:6951  bidders[i] */\n      dup2\n      sload\n      dup2\n      lt\n      tag_118\n      jumpi\n      tag_119\n      tag_120\n      jump\t// in\n    tag_119:\n    tag_118:\n      swap1\n      0x00\n      mstore\n      keccak256(0x00, 0x20)\n      add\n      0x00\n      swap1\n      sload\n      swap1\n      0x0100\n      exp\n      swap1\n      div\n      0xffffffffffffffffffffffffffffffffffffffff\n      and\n        /* \"Contracts/AKEB.sol\":6917:6951  address bidderAddress = bidders[i] */\n      swap1\n      pop\n        /* \"Contracts/AKEB.sol\":6972:6983  encodedBids */\n      0x09\n        /* \"Contracts/AKEB.sol\":6972:6998  encodedBids[bidderAddress] */\n      0x00\n        /* \"Contracts/AKEB.sol\":6984:6997  bidderAddress */\n      dup3\n        /* \"Contracts/AKEB.sol\":6972:6998  encodedBids[bidderAddress] */\n      0xffffffffffffffffffffffffffffffffffffffff\n      and\n      0xffffffffffffffffffffffffffffffffffffffff\n      and\n      dup2\n      mstore\n      0x20\n      add\n      swap1\n      dup2\n      mstore\n      0x20\n      add\n      0x00\n      keccak256\n        /* \"Contracts/AKEB.sol\":6965:6998  delete encodedBids[bidderAddress] */\n      0x00\n      swap1\n      sstore\n        /* \"Contracts/AKEB.sol\":6903:7009  {... */\n      pop\n        /* \"Contracts/AKEB.sol\":6901:6902  1 */\n      0x01\n        /* \"Contracts/AKEB.sol\":6897:6902  i +=1 */\n      dup2\n      tag_122\n      swap2\n      swap1\n      tag_123\n      jump\t// in\n    tag_122:\n      swap1\n      pop\n        /* \"Contracts/AKEB.sol\":6856:7009  for (uint256 i = 0 ; i < bidders.length; i +=1){... */\n      jump(tag_115)\n    tag_116:\n      pop\n        /* \"Contracts/AKEB.sol\":6704:7015  function resetEncodedBids() ... */\n      jump\t// out\n        /* \"Contracts/AKEB.sol\":4388:5357  function dispute(uint256 inputDisputedBid, ... */\n    tag_40:\n        /* \"Contracts/AKEB.sol\":1498:1502  true */\n      0x01\n        /* \"Contracts/AKEB.sol\":1478:1502  isAuctionStarted == true */\n      iszero\n      iszero\n        /* \"Contracts/AKEB.sol\":1478:1494  isAuctionStarted */\n      0x07\n      0x00\n      swap1\n      sload\n      swap1\n      0x0100\n      exp\n      swap1\n      div\n      0xff\n      and\n        /* \"Contracts/AKEB.sol\":1478:1502  isAuctionStarted == true */\n      iszero\n      iszero\n      eq\n        /* \"Contracts/AKEB.sol\":1470:1538  require(isAuctionStarted == true, \"There is no started auction now\") */\n      tag_125\n      jumpi\n      mload(0x40)\n      0x08c379a000000000000000000000000000000000000000000000000000000000\n      dup2\n      mstore\n      0x04\n      add\n      tag_126\n      swap1\n      tag_87\n      jump\t// in\n    tag_126:\n      mload(0x40)\n      dup1\n      swap2\n      sub\n      swap1\n      revert\n    tag_125:\n        /* \"Contracts/AKEB.sol\":4546:4571  hashedBidSubmissionPeriod */\n      sload(0x04)\n        /* \"Contracts/AKEB.sol\":4528:4543  block.timestamp */\n      timestamp\n        /* \"Contracts/AKEB.sol\":4528:4571  block.timestamp > hashedBidSubmissionPeriod */\n      gt\n        /* \"Contracts/AKEB.sol\":4520:4610  require(block.timestamp > hashedBidSubmissionPeriod, \"Dispute phase has not started yet.\") */\n      tag_128\n      jumpi\n      mload(0x40)\n      0x08c379a000000000000000000000000000000000000000000000000000000000\n      dup2\n      mstore\n      0x04\n      add\n      tag_129\n      swap1\n      tag_130\n      jump\t// in\n    tag_129:\n      mload(0x40)\n      dup1\n      swap2\n      sub\n      swap1\n      revert\n    tag_128:\n        /* \"Contracts/AKEB.sol\":4646:4678  winnerAndDisputeSubmissionPeriod */\n      sload(0x05)\n        /* \"Contracts/AKEB.sol\":4628:4643  block.timestamp */\n      timestamp\n        /* \"Contracts/AKEB.sol\":4628:4678  block.timestamp < winnerAndDisputeSubmissionPeriod */\n      lt\n        /* \"Contracts/AKEB.sol\":4620:4708  require(block.timestamp < winnerAndDisputeSubmissionPeriod, \"Dispute phase has passed.\") */\n      tag_131\n      jumpi\n      mload(0x40)\n      0x08c379a000000000000000000000000000000000000000000000000000000000\n      dup2\n      mstore\n      0x04\n      add\n      tag_132\n      swap1\n      tag_133\n      jump\t// in\n    tag_132:\n      mload(0x40)\n      dup1\n      swap2\n      sub\n      swap1\n      revert\n    tag_131:\n        /* \"Contracts/AKEB.sol\":4719:4739  bytes32 disputerHash */\n      0x00\n        /* \"Contracts/AKEB.sol\":4742:4791  computeHash(inputDisputedBid, inputDisputedNonce) */\n      tag_134\n        /* \"Contracts/AKEB.sol\":4754:4770  inputDisputedBid */\n      dup4\n        /* \"Contracts/AKEB.sol\":4772:4790  inputDisputedNonce */\n      dup4\n        /* \"Contracts/AKEB.sol\":4742:4753  computeHash */\n      tag_135\n        /* \"Contracts/AKEB.sol\":4742:4791  computeHash(inputDisputedBid, inputDisputedNonce) */\n      jump\t// in\n    tag_134:\n        /* \"Contracts/AKEB.sol\":4719:4791  bytes32 disputerHash = computeHash(inputDisputedBid, inputDisputedNonce) */\n      swap1\n      pop\n        /* \"Contracts/AKEB.sol\":4837:4849  disputerHash */\n      dup1\n        /* \"Contracts/AKEB.sol\":4810:4821  encodedBids */\n      0x09\n        /* \"Contracts/AKEB.sol\":4810:4833  encodedBids[msg.sender] */\n      0x00\n        /* \"Contracts/AKEB.sol\":4822:4832  msg.sender */\n      caller\n        /* \"Contracts/AKEB.sol\":4810:4833  encodedBids[msg.sender] */\n      0xffffffffffffffffffffffffffffffffffffffff\n      and\n      0xffffffffffffffffffffffffffffffffffffffff\n      and\n      dup2\n      mstore\n      0x20\n      add\n      swap1\n      dup2\n      mstore\n      0x20\n      add\n      0x00\n      keccak256\n      sload\n        /* \"Contracts/AKEB.sol\":4810:4849  encodedBids[msg.sender] == disputerHash */\n      eq\n        /* \"Contracts/AKEB.sol\":4802:4900  require(encodedBids[msg.sender] == disputerHash, \"The bid and nonce you submitted are not valid.\") */\n      tag_136\n      jumpi\n      mload(0x40)\n      0x08c379a000000000000000000000000000000000000000000000000000000000\n      dup2\n      mstore\n      0x04\n      add\n      tag_137\n      swap1\n      tag_138\n      jump\t// in\n    tag_137:\n      mload(0x40)\n      dup1\n      swap2\n      sub\n      swap1\n      revert\n    tag_136:\n        /* \"Contracts/AKEB.sol\":4974:4978  true */\n      0x01\n        /* \"Contracts/AKEB.sol\":4918:4978  isDiputeBidGreaterThanOneWinnerBid(inputDisputedBid) == true */\n      iszero\n      iszero\n        /* \"Contracts/AKEB.sol\":4918:4970  isDiputeBidGreaterThanOneWinnerBid(inputDisputedBid) */\n      tag_139\n        /* \"Contracts/AKEB.sol\":4953:4969  inputDisputedBid */\n      dup5\n        /* \"Contracts/AKEB.sol\":4918:4952  isDiputeBidGreaterThanOneWinnerBid */\n      tag_140\n        /* \"Contracts/AKEB.sol\":4918:4970  isDiputeBidGreaterThanOneWinnerBid(inputDisputedBid) */\n      jump\t// in\n    tag_139:\n        /* \"Contracts/AKEB.sol\":4918:4978  isDiputeBidGreaterThanOneWinnerBid(inputDisputedBid) == true */\n      iszero\n      iszero\n      eq\n        /* \"Contracts/AKEB.sol\":4910:5058  require(isDiputeBidGreaterThanOneWinnerBid(inputDisputedBid) == true, \"Your dispute is not valid since it is not greater than at least one winner.\") */\n      tag_141\n      jumpi\n      mload(0x40)\n      0x08c379a000000000000000000000000000000000000000000000000000000000\n      dup2\n      mstore\n      0x04\n      add\n      tag_142\n      swap1\n      tag_143\n      jump\t// in\n    tag_142:\n      mload(0x40)\n      dup1\n      swap2\n      sub\n      swap1\n      revert\n    tag_141:\n        /* \"Contracts/AKEB.sol\":5069:5083  clearWinners() */\n      tag_144\n        /* \"Contracts/AKEB.sol\":5069:5081  clearWinners */\n      tag_145\n        /* \"Contracts/AKEB.sol\":5069:5083  clearWinners() */\n      jump\t// in\n    tag_144:\n        /* \"Contracts/AKEB.sol\":5094:5141  addWinner(inputDisputedBid, inputDisputedNonce) */\n      tag_146\n        /* \"Contracts/AKEB.sol\":5104:5120  inputDisputedBid */\n      dup4\n        /* \"Contracts/AKEB.sol\":5122:5140  inputDisputedNonce */\n      dup4\n        /* \"Contracts/AKEB.sol\":5094:5103  addWinner */\n      tag_147\n        /* \"Contracts/AKEB.sol\":5094:5141  addWinner(inputDisputedBid, inputDisputedNonce) */\n      jump\t// in\n    tag_146:\n        /* \"Contracts/AKEB.sol\":5152:5189  DisputedBidders memory disputedBidder */\n      0x00\n        /* \"Contracts/AKEB.sol\":5192:5303  DisputedBidders(... */\n      mload(0x40)\n      dup1\n      0x60\n      add\n      0x40\n      mstore\n      dup1\n        /* \"Contracts/AKEB.sol\":5221:5237  inputDisputedBid */\n      dup6\n        /* \"Contracts/AKEB.sol\":5192:5303  DisputedBidders(... */\n      dup2\n      mstore\n      0x20\n      add\n        /* \"Contracts/AKEB.sol\":5251:5261  msg.sender */\n      caller\n        /* \"Contracts/AKEB.sol\":5192:5303  DisputedBidders(... */\n      0xffffffffffffffffffffffffffffffffffffffff\n      and\n      dup2\n      mstore\n      0x20\n      add\n        /* \"Contracts/AKEB.sol\":5275:5293  inputDisputedNonce */\n      dup5\n        /* \"Contracts/AKEB.sol\":5192:5303  DisputedBidders(... */\n      dup2\n      mstore\n      pop\n        /* \"Contracts/AKEB.sol\":5152:5303  DisputedBidders memory disputedBidder = DisputedBidders(... */\n      swap1\n      pop\n        /* \"Contracts/AKEB.sol\":5314:5329  disputedBidders */\n      0x0b\n        /* \"Contracts/AKEB.sol\":5335:5349  disputedBidder */\n      dup2\n        /* \"Contracts/AKEB.sol\":5314:5350  disputedBidders.push(disputedBidder) */\n      swap1\n      dup1\n      0x01\n      dup2\n      sload\n      add\n      dup1\n      dup3\n      sstore\n      dup1\n      swap2\n      pop\n      pop\n      0x01\n      swap1\n      sub\n      swap1\n      0x00\n      mstore\n      keccak256(0x00, 0x20)\n      swap1\n      0x03\n      mul\n      add\n      0x00\n      swap1\n      swap2\n      swap1\n      swap2\n      swap1\n      swap2\n      pop\n      0x00\n      dup3\n      add\n      mload\n      dup2\n      0x00\n      add\n      sstore\n      0x20\n      dup3\n      add\n      mload\n      dup2\n      0x01\n      add\n      exp(0x0100, 0x00)\n      dup2\n      sload\n      dup2\n      0xffffffffffffffffffffffffffffffffffffffff\n      mul\n      not\n      and\n      swap1\n      dup4\n      0xffffffffffffffffffffffffffffffffffffffff\n      and\n      mul\n      or\n      swap1\n      sstore\n      pop\n      0x40\n      dup3\n      add\n      mload\n      dup2\n      0x02\n      add\n      swap1\n      dup2\n      tag_149\n      swap2\n      swap1\n      tag_97\n      jump\t// in\n    tag_149:\n      pop\n      pop\n      pop\n        /* \"Contracts/AKEB.sol\":4510:5357  {... */\n      pop\n      pop\n        /* \"Contracts/AKEB.sol\":4388:5357  function dispute(uint256 inputDisputedBid, ... */\n      pop\n      pop\n      jump\t// out\n        /* \"Contracts/AKEB.sol\":960:1000  DisputedBidders[] public disputedBidders */\n    tag_44:\n      0x0b\n      dup2\n      dup2\n      sload\n      dup2\n      lt\n      tag_150\n      jumpi\n      0x00\n      dup1\n      revert\n    tag_150:\n      swap1\n      0x00\n      mstore\n      keccak256(0x00, 0x20)\n      swap1\n      0x03\n      mul\n      add\n      0x00\n      swap2\n      pop\n      swap1\n      pop\n      dup1\n      0x00\n      add\n      sload\n      swap1\n      dup1\n      0x01\n      add\n      0x00\n      swap1\n      sload\n      swap1\n      0x0100\n      exp\n      swap1\n      div\n      0xffffffffffffffffffffffffffffffffffffffff\n      and\n      swap1\n      dup1\n      0x02\n      add\n      dup1\n      sload\n      tag_152\n      swap1\n      tag_106\n      jump\t// in\n    tag_152:\n      dup1\n      0x1f\n      add\n      0x20\n      dup1\n      swap2\n      div\n      mul\n      0x20\n      add\n      mload(0x40)\n      swap1\n      dup2\n      add\n      0x40\n      mstore\n      dup1\n      swap3\n      swap2\n      swap1\n      dup2\n      dup2\n      mstore\n      0x20\n      add\n      dup3\n      dup1\n      sload\n      tag_153\n      swap1\n      tag_106\n      jump\t// in\n    tag_153:\n      dup1\n      iszero\n      tag_154\n      jumpi\n      dup1\n      0x1f\n      lt\n      tag_155\n      jumpi\n      0x0100\n      dup1\n      dup4\n      sload\n      div\n      mul\n      dup4\n      mstore\n      swap2\n      0x20\n      add\n      swap2\n      jump(tag_154)\n    tag_155:\n      dup3\n      add\n      swap2\n      swap1\n      0x00\n      mstore\n      keccak256(0x00, 0x20)\n      swap1\n    tag_156:\n      dup2\n      sload\n      dup2\n      mstore\n      swap1\n      0x01\n      add\n      swap1\n      0x20\n      add\n      dup1\n      dup4\n      gt\n      tag_156\n      jumpi\n      dup3\n      swap1\n      sub\n      0x1f\n      and\n      dup3\n      add\n      swap2\n    tag_154:\n      pop\n      pop\n      pop\n      pop\n      pop\n      swap1\n      pop\n      dup4\n      jump\t// out\n        /* \"Contracts/AKEB.sol\":198:228  string public assetDescription */\n    tag_48:\n      0x01\n      dup1\n      sload\n      tag_157\n      swap1\n      tag_106\n      jump\t// in\n    tag_157:\n      dup1\n      0x1f\n      add\n      0x20\n      dup1\n      swap2\n      div\n      mul\n      0x20\n      add\n      mload(0x40)\n      swap1\n      dup2\n      add\n      0x40\n      mstore\n      dup1\n      swap3\n      swap2\n      swap1\n      dup2\n      dup2\n      mstore\n      0x20\n      add\n      dup3\n      dup1\n      sload\n      tag_158\n      swap1\n      tag_106\n      jump\t// in\n    tag_158:\n      dup1\n      iszero\n      tag_159\n      jumpi\n      dup1\n      0x1f\n      lt\n      tag_160\n      jumpi\n      0x0100\n      dup1\n      dup4\n      sload\n      div\n      mul\n      dup4\n      mstore\n      swap2\n      0x20\n      add\n      swap2\n      jump(tag_159)\n    tag_160:\n      dup3\n      add\n      swap2\n      swap1\n      0x00\n      mstore\n      keccak256(0x00, 0x20)\n      swap1\n    tag_161:\n      dup2\n      sload\n      dup2\n      mstore\n      swap1\n      0x01\n      add\n      swap1\n      0x20\n      add\n      dup1\n      dup4\n      gt\n      tag_161\n      jumpi\n      dup3\n      swap1\n      sub\n      0x1f\n      and\n      dup3\n      add\n      swap2\n    tag_159:\n      pop\n      pop\n      pop\n      pop\n      pop\n      dup2\n      jump\t// out\n        /* \"Contracts/AKEB.sol\":2068:2345  function registerAuctionInfo(string memory assetNameInput, ... */\n    tag_54:\n        /* \"Contracts/AKEB.sol\":2207:2221  assetNameInput */\n      dup2\n        /* \"Contracts/AKEB.sol\":2195:2204  assetName */\n      0x02\n        /* \"Contracts/AKEB.sol\":2195:2221  assetName = assetNameInput */\n      swap1\n      dup2\n      tag_163\n      swap2\n      swap1\n      tag_97\n      jump\t// in\n    tag_163:\n      pop\n        /* \"Contracts/AKEB.sol\":2250:2271  assetDescriptionInput */\n      dup1\n        /* \"Contracts/AKEB.sol\":2231:2247  assetDescription */\n      0x01\n        /* \"Contracts/AKEB.sol\":2231:2271  assetDescription = assetDescriptionInput */\n      swap1\n      dup2\n      tag_164\n      swap2\n      swap1\n      tag_97\n      jump\t// in\n    tag_164:\n      pop\n        /* \"Contracts/AKEB.sol\":2281:2305  setUpPhasesTimePeriods() */\n      tag_165\n        /* \"Contracts/AKEB.sol\":2281:2303  setUpPhasesTimePeriods */\n      tag_166\n        /* \"Contracts/AKEB.sol\":2281:2305  setUpPhasesTimePeriods() */\n      jump\t// in\n    tag_165:\n        /* \"Contracts/AKEB.sol\":2334:2338  true */\n      0x01\n        /* \"Contracts/AKEB.sol\":2315:2331  isAuctionStarted */\n      0x07\n      0x00\n        /* \"Contracts/AKEB.sol\":2315:2338  isAuctionStarted = true */\n      0x0100\n      exp\n      dup2\n      sload\n      dup2\n      0xff\n      mul\n      not\n      and\n      swap1\n      dup4\n      iszero\n      iszero\n      mul\n      or\n      swap1\n      sstore\n      pop\n        /* \"Contracts/AKEB.sol\":2068:2345  function registerAuctionInfo(string memory assetNameInput, ... */\n      pop\n      pop\n      jump\t// out\n        /* \"Contracts/AKEB.sol\":788:811  winner[] public winners */\n    tag_57:\n      0x0a\n      dup2\n      dup2\n      sload\n      dup2\n      lt\n      tag_167\n      jumpi\n      0x00\n      dup1\n      revert\n    tag_167:\n      swap1\n      0x00\n      mstore\n      keccak256(0x00, 0x20)\n      swap1\n      0x03\n      mul\n      add\n      0x00\n      swap2\n      pop\n      swap1\n      pop\n      dup1\n      0x00\n      add\n      0x00\n      swap1\n      sload\n      swap1\n      0x0100\n      exp\n      swap1\n      div\n      0xffffffffffffffffffffffffffffffffffffffff\n      and\n      swap1\n      dup1\n      0x01\n      add\n      sload\n      swap1\n      dup1\n      0x02\n      add\n      dup1\n      sload\n      tag_169\n      swap1\n      tag_106\n      jump\t// in\n    tag_169:\n      dup1\n      0x1f\n      add\n      0x20\n      dup1\n      swap2\n      div\n      mul\n      0x20\n      add\n      mload(0x40)\n      swap1\n      dup2\n      add\n      0x40\n      mstore\n      dup1\n      swap3\n      swap2\n      swap1\n      dup2\n      dup2\n      mstore\n      0x20\n      add\n      dup3\n      dup1\n      sload\n      tag_170\n      swap1\n      tag_106\n      jump\t// in\n    tag_170:\n      dup1\n      iszero\n      tag_171\n      jumpi\n      dup1\n      0x1f\n      lt\n      tag_172\n      jumpi\n      0x0100\n      dup1\n      dup4\n      sload\n      div\n      mul\n      dup4\n      mstore\n      swap2\n      0x20\n      add\n      swap2\n      jump(tag_171)\n    tag_172:\n      dup3\n      add\n      swap2\n      swap1\n      0x00\n      mstore\n      keccak256(0x00, 0x20)\n      swap1\n    tag_173:\n      dup2\n      sload\n      dup2\n      mstore\n      swap1\n      0x01\n      add\n      swap1\n      0x20\n      add\n      dup1\n      dup4\n      gt\n      tag_173\n      jumpi\n      dup3\n      swap1\n      sub\n      0x1f\n      and\n      dup3\n      add\n      swap2\n    tag_171:\n      pop\n      pop\n      pop\n      pop\n      pop\n      swap1\n      pop\n      dup4\n      jump\t// out\n        /* \"Contracts/AKEB.sol\":234:257  string public assetName */\n    tag_61:\n      0x02\n      dup1\n      sload\n      tag_174\n      swap1\n      tag_106\n      jump\t// in\n    tag_174:\n      dup1\n      0x1f\n      add\n      0x20\n      dup1\n      swap2\n      div\n      mul\n      0x20\n      add\n      mload(0x40)\n      swap1\n      dup2\n      add\n      0x40\n      mstore\n      dup1\n      swap3\n      swap2\n      swap1\n      dup2\n      dup2\n      mstore\n      0x20\n      add\n      dup3\n      dup1\n      sload\n      tag_175\n      swap1\n      tag_106\n      jump\t// in\n    tag_175:\n      dup1\n      iszero\n      tag_176\n      jumpi\n      dup1\n      0x1f\n      lt\n      tag_177\n      jumpi\n      0x0100\n      dup1\n      dup4\n      sload\n      div\n      mul\n      dup4\n      mstore\n      swap2\n      0x20\n      add\n      swap2\n      jump(tag_176)\n    tag_177:\n      dup3\n      add\n      swap2\n      swap1\n      0x00\n      mstore\n      keccak256(0x00, 0x20)\n      swap1\n    tag_178:\n      dup2\n      sload\n      dup2\n      mstore\n      swap1\n      0x01\n      add\n      swap1\n      0x20\n      add\n      dup1\n      dup4\n      gt\n      tag_178\n      jumpi\n      dup3\n      swap1\n      sub\n      0x1f\n      and\n      dup3\n      add\n      swap2\n    tag_176:\n      pop\n      pop\n      pop\n      pop\n      pop\n      dup2\n      jump\t// out\n        /* \"Contracts/AKEB.sol\":489:513  address[] public bidders */\n    tag_65:\n      0x08\n      dup2\n      dup2\n      sload\n      dup2\n      lt\n      tag_179\n      jumpi\n      0x00\n      dup1\n      revert\n    tag_179:\n      swap1\n      0x00\n      mstore\n      keccak256(0x00, 0x20)\n      add\n      0x00\n      swap2\n      pop\n      sload\n      swap1\n      0x0100\n      exp\n      swap1\n      div\n      0xffffffffffffffffffffffffffffffffffffffff\n      and\n      dup2\n      jump\t// out\n        /* \"Contracts/AKEB.sol\":6299:6640  function reset() ... */\n    tag_69:\n        /* \"Contracts/AKEB.sol\":6364:6396  winnerAndDisputeSubmissionPeriod */\n      sload(0x05)\n        /* \"Contracts/AKEB.sol\":6346:6361  block.timestamp */\n      timestamp\n        /* \"Contracts/AKEB.sol\":6346:6396  block.timestamp > winnerAndDisputeSubmissionPeriod */\n      gt\n        /* \"Contracts/AKEB.sol\":6338:6430  require(block.timestamp > winnerAndDisputeSubmissionPeriod, \"Auction is not completed yet.\") */\n      tag_182\n      jumpi\n      mload(0x40)\n      0x08c379a000000000000000000000000000000000000000000000000000000000\n      dup2\n      mstore\n      0x04\n      add\n      tag_183\n      swap1\n      tag_114\n      jump\t// in\n    tag_183:\n      mload(0x40)\n      dup1\n      swap2\n      sub\n      swap1\n      revert\n    tag_182:\n        /* \"Contracts/AKEB.sol\":6448:6455  winners */\n      0x0a\n      0x00\n        /* \"Contracts/AKEB.sol\":6441:6455  delete winners */\n      tag_184\n      swap2\n      swap1\n      tag_185\n      jump\t// in\n    tag_184:\n        /* \"Contracts/AKEB.sol\":6466:6487  assetDescription = \"\" */\n      mload(0x40)\n      dup1\n      0x20\n      add\n      0x40\n      mstore\n      dup1\n      0x00\n      dup2\n      mstore\n      pop\n        /* \"Contracts/AKEB.sol\":6466:6482  assetDescription */\n      0x01\n        /* \"Contracts/AKEB.sol\":6466:6487  assetDescription = \"\" */\n      swap1\n      dup2\n      tag_186\n      swap2\n      swap1\n      tag_97\n      jump\t// in\n    tag_186:\n      pop\n        /* \"Contracts/AKEB.sol\":6497:6511  assetName = \"\" */\n      mload(0x40)\n      dup1\n      0x20\n      add\n      0x40\n      mstore\n      dup1\n      0x00\n      dup2\n      mstore\n      pop\n        /* \"Contracts/AKEB.sol\":6497:6506  assetName */\n      0x02\n        /* \"Contracts/AKEB.sol\":6497:6511  assetName = \"\" */\n      swap1\n      dup2\n      tag_187\n      swap2\n      swap1\n      tag_97\n      jump\t// in\n    tag_187:\n      pop\n        /* \"Contracts/AKEB.sol\":6522:6540  resetEncodedBids() */\n      tag_188\n        /* \"Contracts/AKEB.sol\":6522:6538  resetEncodedBids */\n      tag_37\n        /* \"Contracts/AKEB.sol\":6522:6540  resetEncodedBids() */\n      jump\t// in\n    tag_188:\n        /* \"Contracts/AKEB.sol\":6558:6565  bidders */\n      0x08\n      0x00\n        /* \"Contracts/AKEB.sol\":6551:6565  delete bidders */\n      tag_189\n      swap2\n      swap1\n      tag_190\n      jump\t// in\n    tag_189:\n        /* \"Contracts/AKEB.sol\":6583:6598  disputedBidders */\n      0x0b\n      0x00\n        /* \"Contracts/AKEB.sol\":6576:6598  delete disputedBidders */\n      tag_191\n      swap2\n      swap1\n      tag_192\n      jump\t// in\n    tag_191:\n        /* \"Contracts/AKEB.sol\":6628:6633  false */\n      0x00\n        /* \"Contracts/AKEB.sol\":6609:6625  isAuctionStarted */\n      0x07\n      0x00\n        /* \"Contracts/AKEB.sol\":6609:6633  isAuctionStarted = false */\n      0x0100\n      exp\n      dup2\n      sload\n      dup2\n      0xff\n      mul\n      not\n      and\n      swap1\n      dup4\n      iszero\n      iszero\n      mul\n      or\n      swap1\n      sstore\n      pop\n        /* \"Contracts/AKEB.sol\":6299:6640  function reset() ... */\n      jump\t// out\n        /* \"Contracts/AKEB.sol\":2388:2563  function getAuctionInfo() ... */\n    tag_71:\n        /* \"Contracts/AKEB.sol\":2480:2493  string memory */\n      0x60\n        /* \"Contracts/AKEB.sol\":2495:2508  string memory */\n      dup1\n        /* \"Contracts/AKEB.sol\":1498:1502  true */\n      0x01\n        /* \"Contracts/AKEB.sol\":1478:1502  isAuctionStarted == true */\n      iszero\n      iszero\n        /* \"Contracts/AKEB.sol\":1478:1494  isAuctionStarted */\n      0x07\n      0x00\n      swap1\n      sload\n      swap1\n      0x0100\n      exp\n      swap1\n      div\n      0xff\n      and\n        /* \"Contracts/AKEB.sol\":1478:1502  isAuctionStarted == true */\n      iszero\n      iszero\n      eq\n        /* \"Contracts/AKEB.sol\":1470:1538  require(isAuctionStarted == true, \"There is no started auction now\") */\n      tag_194\n      jumpi\n      mload(0x40)\n      0x08c379a000000000000000000000000000000000000000000000000000000000\n      dup2\n      mstore\n      0x04\n      add\n      tag_195\n      swap1\n      tag_87\n      jump\t// in\n    tag_195:\n      mload(0x40)\n      dup1\n      swap2\n      sub\n      swap1\n      revert\n    tag_194:\n        /* \"Contracts/AKEB.sol\":2528:2537  assetName */\n      0x02\n        /* \"Contracts/AKEB.sol\":2539:2555  assetDescription */\n      0x01\n        /* \"Contracts/AKEB.sol\":2520:2556  return (assetName, assetDescription) */\n      dup2\n      dup1\n      sload\n      tag_197\n      swap1\n      tag_106\n      jump\t// in\n    tag_197:\n      dup1\n      0x1f\n      add\n      0x20\n      dup1\n      swap2\n      div\n      mul\n      0x20\n      add\n      mload(0x40)\n      swap1\n      dup2\n      add\n      0x40\n      mstore\n      dup1\n      swap3\n      swap2\n      swap1\n      dup2\n      dup2\n      mstore\n      0x20\n      add\n      dup3\n      dup1\n      sload\n      tag_198\n      swap1\n      tag_106\n      jump\t// in\n    tag_198:\n      dup1\n      iszero\n      tag_199\n      jumpi\n      dup1\n      0x1f\n      lt\n      tag_200\n      jumpi\n      0x0100\n      dup1\n      dup4\n      sload\n      div\n      mul\n      dup4\n      mstore\n      swap2\n      0x20\n      add\n      swap2\n      jump(tag_199)\n    tag_200:\n      dup3\n      add\n      swap2\n      swap1\n      0x00\n      mstore\n      keccak256(0x00, 0x20)\n      swap1\n    tag_201:\n      dup2\n      sload\n      dup2\n      mstore\n      swap1\n      0x01\n      add\n      swap1\n      0x20\n      add\n      dup1\n      dup4\n      gt\n      tag_201\n      jumpi\n      dup3\n      swap1\n      sub\n      0x1f\n      and\n      dup3\n      add\n      swap2\n    tag_199:\n      pop\n      pop\n      pop\n      pop\n      pop\n      swap2\n      pop\n      dup1\n      dup1\n      sload\n      tag_202\n      swap1\n      tag_106\n      jump\t// in\n    tag_202:\n      dup1\n      0x1f\n      add\n      0x20\n      dup1\n      swap2\n      div\n      mul\n      0x20\n      add\n      mload(0x40)\n      swap1\n      dup2\n      add\n      0x40\n      mstore\n      dup1\n      swap3\n      swap2\n      swap1\n      dup2\n      dup2\n      mstore\n      0x20\n      add\n      dup3\n      dup1\n      sload\n      tag_203\n      swap1\n      tag_106\n      jump\t// in\n    tag_203:\n      dup1\n      iszero\n      tag_204\n      jumpi\n      dup1\n      0x1f\n      lt\n      tag_205\n      jumpi\n      0x0100\n      dup1\n      dup4\n      sload\n      div\n      mul\n      dup4\n      mstore\n      swap2\n      0x20\n      add\n      swap2\n      jump(tag_204)\n    tag_205:\n      dup3\n      add\n      swap2\n      swap1\n      0x00\n      mstore\n      keccak256(0x00, 0x20)\n      swap1\n    tag_206:\n      dup2\n      sload\n      dup2\n      mstore\n      swap1\n      0x01\n      add\n      swap1\n      0x20\n      add\n      dup1\n      dup4\n      gt\n      tag_206\n      jumpi\n      dup3\n      swap1\n      sub\n      0x1f\n      and\n      dup3\n      add\n      swap2\n    tag_204:\n      pop\n      pop\n      pop\n      pop\n      pop\n      swap1\n      pop\n      swap2\n      pop\n      swap2\n      pop\n        /* \"Contracts/AKEB.sol\":2388:2563  function getAuctionInfo() ... */\n      swap1\n      swap2\n      jump\t// out\n        /* \"Contracts/AKEB.sol\":4180:4318  function getAllWinners() ... */\n    tag_75:\n        /* \"Contracts/AKEB.sol\":4270:4285  winner[] memory */\n      0x60\n        /* \"Contracts/AKEB.sol\":1498:1502  true */\n      0x01\n        /* \"Contracts/AKEB.sol\":1478:1502  isAuctionStarted == true */\n      iszero\n      iszero\n        /* \"Contracts/AKEB.sol\":1478:1494  isAuctionStarted */\n      0x07\n      0x00\n      swap1\n      sload\n      swap1\n      0x0100\n      exp\n      swap1\n      div\n      0xff\n      and\n        /* \"Contracts/AKEB.sol\":1478:1502  isAuctionStarted == true */\n      iszero\n      iszero\n      eq\n        /* \"Contracts/AKEB.sol\":1470:1538  require(isAuctionStarted == true, \"There is no started auction now\") */\n      tag_208\n      jumpi\n      mload(0x40)\n      0x08c379a000000000000000000000000000000000000000000000000000000000\n      dup2\n      mstore\n      0x04\n      add\n      tag_209\n      swap1\n      tag_87\n      jump\t// in\n    tag_209:\n      mload(0x40)\n      dup1\n      swap2\n      sub\n      swap1\n      revert\n    tag_208:\n        /* \"Contracts/AKEB.sol\":4304:4311  winners */\n      0x0a\n        /* \"Contracts/AKEB.sol\":4297:4311  return winners */\n      dup1\n      sload\n      dup1\n      0x20\n      mul\n      0x20\n      add\n      mload(0x40)\n      swap1\n      dup2\n      add\n      0x40\n      mstore\n      dup1\n      swap3\n      swap2\n      swap1\n      dup2\n      dup2\n      mstore\n      0x20\n      add\n      0x00\n      swap1\n    tag_211:\n      dup3\n      dup3\n      lt\n      iszero\n      tag_212\n      jumpi\n      dup4\n      dup3\n      swap1\n      0x00\n      mstore\n      keccak256(0x00, 0x20)\n      swap1\n      0x03\n      mul\n      add\n      mload(0x40)\n      dup1\n      0x60\n      add\n      0x40\n      mstore\n      swap1\n      dup2\n      0x00\n      dup3\n      add\n      0x00\n      swap1\n      sload\n      swap1\n      0x0100\n      exp\n      swap1\n      div\n      0xffffffffffffffffffffffffffffffffffffffff\n      and\n      0xffffffffffffffffffffffffffffffffffffffff\n      and\n      0xffffffffffffffffffffffffffffffffffffffff\n      and\n      dup2\n      mstore\n      0x20\n      add\n      0x01\n      dup3\n      add\n      sload\n      dup2\n      mstore\n      0x20\n      add\n      0x02\n      dup3\n      add\n      dup1\n      sload\n      tag_214\n      swap1\n      tag_106\n      jump\t// in\n    tag_214:\n      dup1\n      0x1f\n      add\n      0x20\n      dup1\n      swap2\n      div\n      mul\n      0x20\n      add\n      mload(0x40)\n      swap1\n      dup2\n      add\n      0x40\n      mstore\n      dup1\n      swap3\n      swap2\n      swap1\n      dup2\n      dup2\n      mstore\n      0x20\n      add\n      dup3\n      dup1\n      sload\n      tag_215\n      swap1\n      tag_106\n      jump\t// in\n    tag_215:\n      dup1\n      iszero\n      tag_216\n      jumpi\n      dup1\n      0x1f\n      lt\n      tag_217\n      jumpi\n      0x0100\n      dup1\n      dup4\n      sload\n      div\n      mul\n      dup4\n      mstore\n      swap2\n      0x20\n      add\n      swap2\n      jump(tag_216)\n    tag_217:\n      dup3\n      add\n      swap2\n      swap1\n      0x00\n      mstore\n      keccak256(0x00, 0x20)\n      swap1\n    tag_218:\n      dup2\n      sload\n      dup2\n      mstore\n      swap1\n      0x01\n      add\n      swap1\n      0x20\n      add\n      dup1\n      dup4\n      gt\n      tag_218\n      jumpi\n      dup3\n      swap1\n      sub\n      0x1f\n      and\n      dup3\n      add\n      swap2\n    tag_216:\n      pop\n      pop\n      pop\n      pop\n      pop\n      dup2\n      mstore\n      pop\n      pop\n      dup2\n      mstore\n      0x20\n      add\n      swap1\n      0x01\n      add\n      swap1\n      jump(tag_211)\n    tag_212:\n      pop\n      pop\n      pop\n      pop\n      swap1\n      pop\n        /* \"Contracts/AKEB.sol\":4180:4318  function getAllWinners() ... */\n      swap1\n      jump\t// out\n        /* \"Contracts/AKEB.sol\":3209:3575  function submitEncodedBid(bytes32 inputEncodedBid) ... */\n    tag_81:\n        /* \"Contracts/AKEB.sol\":1498:1502  true */\n      0x01\n        /* \"Contracts/AKEB.sol\":1478:1502  isAuctionStarted == true */\n      iszero\n      iszero\n        /* \"Contracts/AKEB.sol\":1478:1494  isAuctionStarted */\n      0x07\n      0x00\n      swap1\n      sload\n      swap1\n      0x0100\n      exp\n      swap1\n      div\n      0xff\n      and\n        /* \"Contracts/AKEB.sol\":1478:1502  isAuctionStarted == true */\n      iszero\n      iszero\n      eq\n        /* \"Contracts/AKEB.sol\":1470:1538  require(isAuctionStarted == true, \"There is no started auction now\") */\n      tag_220\n      jumpi\n      mload(0x40)\n      0x08c379a000000000000000000000000000000000000000000000000000000000\n      dup2\n      mstore\n      0x04\n      add\n      tag_221\n      swap1\n      tag_87\n      jump\t// in\n    tag_221:\n      mload(0x40)\n      dup1\n      swap2\n      sub\n      swap1\n      revert\n    tag_220:\n        /* \"Contracts/AKEB.sol\":3338:3358  registerBidderPeriod */\n      sload(0x03)\n        /* \"Contracts/AKEB.sol\":3320:3335  block.timestamp */\n      timestamp\n        /* \"Contracts/AKEB.sol\":3320:3358  block.timestamp > registerBidderPeriod */\n      gt\n        /* \"Contracts/AKEB.sol\":3312:3410  require(block.timestamp > registerBidderPeriod, \"Hashed bid submission phase is not started yet.\") */\n      tag_223\n      jumpi\n      mload(0x40)\n      0x08c379a000000000000000000000000000000000000000000000000000000000\n      dup2\n      mstore\n      0x04\n      add\n      tag_224\n      swap1\n      tag_225\n      jump\t// in\n    tag_224:\n      mload(0x40)\n      dup1\n      swap2\n      sub\n      swap1\n      revert\n    tag_223:\n        /* \"Contracts/AKEB.sol\":3446:3471  hashedBidSubmissionPeriod */\n      sload(0x04)\n        /* \"Contracts/AKEB.sol\":3428:3443  block.timestamp */\n      timestamp\n        /* \"Contracts/AKEB.sol\":3428:3471  block.timestamp < hashedBidSubmissionPeriod */\n      lt\n        /* \"Contracts/AKEB.sol\":3420:3516  require(block.timestamp < hashedBidSubmissionPeriod, \"Time for hashed bid submission is passed\") */\n      tag_226\n      jumpi\n      mload(0x40)\n      0x08c379a000000000000000000000000000000000000000000000000000000000\n      dup2\n      mstore\n      0x04\n      add\n      tag_227\n      swap1\n      tag_228\n      jump\t// in\n    tag_227:\n      mload(0x40)\n      dup1\n      swap2\n      sub\n      swap1\n      revert\n    tag_226:\n        /* \"Contracts/AKEB.sol\":3553:3568  inputEncodedBid */\n      dup1\n        /* \"Contracts/AKEB.sol\":3527:3538  encodedBids */\n      0x09\n        /* \"Contracts/AKEB.sol\":3527:3550  encodedBids[msg.sender] */\n      0x00\n        /* \"Contracts/AKEB.sol\":3539:3549  msg.sender */\n      caller\n        /* \"Contracts/AKEB.sol\":3527:3550  encodedBids[msg.sender] */\n      0xffffffffffffffffffffffffffffffffffffffff\n      and\n      0xffffffffffffffffffffffffffffffffffffffff\n      and\n      dup2\n      mstore\n      0x20\n      add\n      swap1\n      dup2\n      mstore\n      0x20\n      add\n      0x00\n      keccak256\n        /* \"Contracts/AKEB.sol\":3527:3568  encodedBids[msg.sender] = inputEncodedBid */\n      dup2\n      swap1\n      sstore\n      pop\n        /* \"Contracts/AKEB.sol\":3209:3575  function submitEncodedBid(bytes32 inputEncodedBid) ... */\n      pop\n      jump\t// out\n        /* \"Contracts/AKEB.sol\":2622:2836  function registerBidder() ... */\n    tag_83:\n        /* \"Contracts/AKEB.sol\":1498:1502  true */\n      0x01\n        /* \"Contracts/AKEB.sol\":1478:1502  isAuctionStarted == true */\n      iszero\n      iszero\n        /* \"Contracts/AKEB.sol\":1478:1494  isAuctionStarted */\n      0x07\n      0x00\n      swap1\n      sload\n      swap1\n      0x0100\n      exp\n      swap1\n      div\n      0xff\n      and\n        /* \"Contracts/AKEB.sol\":1478:1502  isAuctionStarted == true */\n      iszero\n      iszero\n      eq\n        /* \"Contracts/AKEB.sol\":1470:1538  require(isAuctionStarted == true, \"There is no started auction now\") */\n      tag_230\n      jumpi\n      mload(0x40)\n      0x08c379a000000000000000000000000000000000000000000000000000000000\n      dup2\n      mstore\n      0x04\n      add\n      tag_231\n      swap1\n      tag_87\n      jump\t// in\n    tag_231:\n      mload(0x40)\n      dup1\n      swap2\n      sub\n      swap1\n      revert\n    tag_230:\n        /* \"Contracts/AKEB.sol\":2727:2747  registerBidderPeriod */\n      sload(0x03)\n        /* \"Contracts/AKEB.sol\":2709:2724  block.timestamp */\n      timestamp\n        /* \"Contracts/AKEB.sol\":2709:2747  block.timestamp < registerBidderPeriod */\n      lt\n        /* \"Contracts/AKEB.sol\":2701:2795  require(block.timestamp < registerBidderPeriod, \"Time for registering as a bidder is passed.\") */\n      tag_233\n      jumpi\n      mload(0x40)\n      0x08c379a000000000000000000000000000000000000000000000000000000000\n      dup2\n      mstore\n      0x04\n      add\n      tag_234\n      swap1\n      tag_235\n      jump\t// in\n    tag_234:\n      mload(0x40)\n      dup1\n      swap2\n      sub\n      swap1\n      revert\n    tag_233:\n        /* \"Contracts/AKEB.sol\":2805:2812  bidders */\n      0x08\n        /* \"Contracts/AKEB.sol\":2818:2828  msg.sender */\n      caller\n        /* \"Contracts/AKEB.sol\":2805:2829  bidders.push(msg.sender) */\n      swap1\n      dup1\n      0x01\n      dup2\n      sload\n      add\n      dup1\n      dup3\n      sstore\n      dup1\n      swap2\n      pop\n      pop\n      0x01\n      swap1\n      sub\n      swap1\n      0x00\n      mstore\n      keccak256(0x00, 0x20)\n      add\n      0x00\n      swap1\n      swap2\n      swap1\n      swap2\n      swap1\n      swap2\n      0x0100\n      exp\n      dup2\n      sload\n      dup2\n      0xffffffffffffffffffffffffffffffffffffffff\n      mul\n      not\n      and\n      swap1\n      dup4\n      0xffffffffffffffffffffffffffffffffffffffff\n      and\n      mul\n      or\n      swap1\n      sstore\n      pop\n        /* \"Contracts/AKEB.sol\":2622:2836  function registerBidder() ... */\n      jump\t// out\n        /* \"Contracts/AKEB.sol\":5898:6215  function computeHash(uint256 bid, string memory nonce) ... */\n    tag_135:\n        /* \"Contracts/AKEB.sol\":5989:5996  bytes32 */\n      0x00\n        /* \"Contracts/AKEB.sol\":6008:6033  string memory bidInString */\n      dup1\n        /* \"Contracts/AKEB.sol\":6036:6057  Strings.toString(bid) */\n      tag_238\n        /* \"Contracts/AKEB.sol\":6053:6056  bid */\n      dup5\n        /* \"Contracts/AKEB.sol\":6036:6052  Strings.toString */\n      tag_239\n        /* \"Contracts/AKEB.sol\":6036:6057  Strings.toString(bid) */\n      jump\t// in\n    tag_238:\n        /* \"Contracts/AKEB.sol\":6008:6057  string memory bidInString = Strings.toString(bid) */\n      swap1\n      pop\n        /* \"Contracts/AKEB.sol\":6067:6105  string memory bidAndNonceConcatenation */\n      0x00\n        /* \"Contracts/AKEB.sol\":6122:6133  bidInString */\n      dup2\n        /* \"Contracts/AKEB.sol\":6135:6140  nonce */\n      dup5\n        /* \"Contracts/AKEB.sol\":6108:6141  string.concat(bidInString, nonce) */\n      add(0x20, mload(0x40))\n      tag_240\n      swap3\n      swap2\n      swap1\n      tag_241\n      jump\t// in\n    tag_240:\n      mload(0x40)\n      0x20\n      dup2\n      dup4\n      sub\n      sub\n      dup2\n      mstore\n      swap1\n      0x40\n      mstore\n        /* \"Contracts/AKEB.sol\":6067:6141  string memory bidAndNonceConcatenation = string.concat(bidInString, nonce) */\n      swap1\n      pop\n        /* \"Contracts/AKEB.sol\":6158:6208  sha256(abi.encodePacked(bidAndNonceConcatenation)) */\n      0x02\n        /* \"Contracts/AKEB.sol\":6182:6206  bidAndNonceConcatenation */\n      dup2\n        /* \"Contracts/AKEB.sol\":6165:6207  abi.encodePacked(bidAndNonceConcatenation) */\n      add(0x20, mload(0x40))\n      tag_242\n      swap2\n      swap1\n      tag_243\n      jump\t// in\n    tag_242:\n      mload(0x40)\n      0x20\n      dup2\n      dup4\n      sub\n      sub\n      dup2\n      mstore\n      swap1\n      0x40\n      mstore\n        /* \"Contracts/AKEB.sol\":6158:6208  sha256(abi.encodePacked(bidAndNonceConcatenation)) */\n      mload(0x40)\n      tag_244\n      swap2\n      swap1\n      tag_245\n      jump\t// in\n    tag_244:\n      0x20\n      mload(0x40)\n      dup1\n      dup4\n      sub\n      dup2\n      dup6\n      gas\n      staticcall\n      iszero\n      dup1\n      iszero\n      tag_247\n      jumpi\n      returndatasize\n      0x00\n      dup1\n      returndatacopy\n      revert(0x00, returndatasize)\n    tag_247:\n      pop\n      pop\n      pop\n      mload(0x40)\n      returndatasize\n      not(0x1f)\n      0x1f\n      dup3\n      add\n      and\n      dup3\n      add\n      dup1\n      0x40\n      mstore\n      pop\n      dup2\n      add\n      swap1\n      tag_248\n      swap2\n      swap1\n      tag_249\n      jump\t// in\n    tag_248:\n        /* \"Contracts/AKEB.sol\":6151:6208  return sha256(abi.encodePacked(bidAndNonceConcatenation)) */\n      swap3\n      pop\n      pop\n      pop\n        /* \"Contracts/AKEB.sol\":5898:6215  function computeHash(uint256 bid, string memory nonce) ... */\n      swap3\n      swap2\n      pop\n      pop\n      jump\t// out\n        /* \"Contracts/AKEB.sol\":5606:5892  function isDiputeBidGreaterThanOneWinnerBid(uint256 disputeBid) ... */\n    tag_140:\n        /* \"Contracts/AKEB.sol\":5706:5710  bool */\n      0x00\n        /* \"Contracts/AKEB.sol\":5725:5734  uint256 i */\n      dup1\n        /* \"Contracts/AKEB.sol\":5737:5738  0 */\n      0x00\n        /* \"Contracts/AKEB.sol\":5725:5738  uint256 i = 0 */\n      swap1\n      pop\n        /* \"Contracts/AKEB.sol\":5721:5864  for(uint256 i = 0 ; i < winners.length;i++){... */\n    tag_251:\n        /* \"Contracts/AKEB.sol\":5745:5752  winners */\n      0x0a\n        /* \"Contracts/AKEB.sol\":5745:5759  winners.length */\n      dup1\n      sload\n      swap1\n      pop\n        /* \"Contracts/AKEB.sol\":5741:5742  i */\n      dup2\n        /* \"Contracts/AKEB.sol\":5741:5759  i < winners.length */\n      lt\n        /* \"Contracts/AKEB.sol\":5721:5864  for(uint256 i = 0 ; i < winners.length;i++){... */\n      iszero\n      tag_252\n      jumpi\n        /* \"Contracts/AKEB.sol\":5794:5801  winners */\n      0x0a\n        /* \"Contracts/AKEB.sol\":5802:5803  i */\n      dup2\n        /* \"Contracts/AKEB.sol\":5794:5804  winners[i] */\n      dup2\n      sload\n      dup2\n      lt\n      tag_254\n      jumpi\n      tag_255\n      tag_120\n      jump\t// in\n    tag_255:\n    tag_254:\n      swap1\n      0x00\n      mstore\n      keccak256(0x00, 0x20)\n      swap1\n      0x03\n      mul\n      add\n        /* \"Contracts/AKEB.sol\":5794:5808  winners[i].bid */\n      0x01\n      add\n      sload\n        /* \"Contracts/AKEB.sol\":5781:5791  disputeBid */\n      dup4\n        /* \"Contracts/AKEB.sol\":5781:5808  disputeBid > winners[i].bid */\n      gt\n        /* \"Contracts/AKEB.sol\":5778:5854  if(disputeBid > winners[i].bid) {... */\n      iszero\n      tag_257\n      jumpi\n        /* \"Contracts/AKEB.sol\":5835:5839  true */\n      0x01\n        /* \"Contracts/AKEB.sol\":5828:5839  return true */\n      swap2\n      pop\n      pop\n      jump(tag_250)\n        /* \"Contracts/AKEB.sol\":5778:5854  if(disputeBid > winners[i].bid) {... */\n    tag_257:\n        /* \"Contracts/AKEB.sol\":5760:5763  i++ */\n      dup1\n      dup1\n      tag_258\n      swap1\n      tag_259\n      jump\t// in\n    tag_258:\n      swap2\n      pop\n      pop\n        /* \"Contracts/AKEB.sol\":5721:5864  for(uint256 i = 0 ; i < winners.length;i++){... */\n      jump(tag_251)\n    tag_252:\n      pop\n        /* \"Contracts/AKEB.sol\":5880:5885  false */\n      0x00\n        /* \"Contracts/AKEB.sol\":5873:5885  return false */\n      swap1\n      pop\n        /* \"Contracts/AKEB.sol\":5606:5892  function isDiputeBidGreaterThanOneWinnerBid(uint256 disputeBid) ... */\n    tag_250:\n      swap2\n      swap1\n      pop\n      jump\t// out\n        /* \"Contracts/AKEB.sol\":5363:5431  function clearWinners() ... */\n    tag_145:\n        /* \"Contracts/AKEB.sol\":5417:5424  winners */\n      0x0a\n      0x00\n        /* \"Contracts/AKEB.sol\":5410:5424  delete winners */\n      tag_261\n      swap2\n      swap1\n      tag_185\n      jump\t// in\n    tag_261:\n        /* \"Contracts/AKEB.sol\":5363:5431  function clearWinners() ... */\n      jump\t// out\n        /* \"Contracts/AKEB.sol\":5437:5600  function addWinner(uint256 bid, string memory nonce) ... */\n    tag_147:\n        /* \"Contracts/AKEB.sol\":5513:5531  winner memory temp */\n      0x00\n        /* \"Contracts/AKEB.sol\":5534:5564  winner(msg.sender, bid, nonce) */\n      mload(0x40)\n      dup1\n      0x60\n      add\n      0x40\n      mstore\n      dup1\n        /* \"Contracts/AKEB.sol\":5541:5551  msg.sender */\n      caller\n        /* \"Contracts/AKEB.sol\":5534:5564  winner(msg.sender, bid, nonce) */\n      0xffffffffffffffffffffffffffffffffffffffff\n      and\n      dup2\n      mstore\n      0x20\n      add\n        /* \"Contracts/AKEB.sol\":5553:5556  bid */\n      dup5\n        /* \"Contracts/AKEB.sol\":5534:5564  winner(msg.sender, bid, nonce) */\n      dup2\n      mstore\n      0x20\n      add\n        /* \"Contracts/AKEB.sol\":5558:5563  nonce */\n      dup4\n        /* \"Contracts/AKEB.sol\":5534:5564  winner(msg.sender, bid, nonce) */\n      dup2\n      mstore\n      pop\n        /* \"Contracts/AKEB.sol\":5513:5564  winner memory temp = winner(msg.sender, bid, nonce) */\n      swap1\n      pop\n        /* \"Contracts/AKEB.sol\":5575:5582  winners */\n      0x0a\n        /* \"Contracts/AKEB.sol\":5588:5592  temp */\n      dup2\n        /* \"Contracts/AKEB.sol\":5575:5593  winners.push(temp) */\n      swap1\n      dup1\n      0x01\n      dup2\n      sload\n      add\n      dup1\n      dup3\n      sstore\n      dup1\n      swap2\n      pop\n      pop\n      0x01\n      swap1\n      sub\n      swap1\n      0x00\n      mstore\n      keccak256(0x00, 0x20)\n      swap1\n      0x03\n      mul\n      add\n      0x00\n      swap1\n      swap2\n      swap1\n      swap2\n      swap1\n      swap2\n      pop\n      0x00\n      dup3\n      add\n      mload\n      dup2\n      0x00\n      add\n      exp(0x0100, 0x00)\n      dup2\n      sload\n      dup2\n      0xffffffffffffffffffffffffffffffffffffffff\n      mul\n      not\n      and\n      swap1\n      dup4\n      0xffffffffffffffffffffffffffffffffffffffff\n      and\n      mul\n      or\n      swap1\n      sstore\n      pop\n      0x20\n      dup3\n      add\n      mload\n      dup2\n      0x01\n      add\n      sstore\n      0x40\n      dup3\n      add\n      mload\n      dup2\n      0x02\n      add\n      swap1\n      dup2\n      tag_264\n      swap2\n      swap1\n      tag_97\n      jump\t// in\n    tag_264:\n      pop\n      pop\n      pop\n        /* \"Contracts/AKEB.sol\":5503:5600  {... */\n      pop\n        /* \"Contracts/AKEB.sol\":5437:5600  function addWinner(uint256 bid, string memory nonce) ... */\n      pop\n      pop\n      jump\t// out\n        /* \"Contracts/AKEB.sol\":1553:1982  function setUpPhasesTimePeriods() private {... */\n    tag_166:\n        /* \"Contracts/AKEB.sol\":1702:1704  60 */\n      0x3c\n        /* \"Contracts/AKEB.sol\":1689:1699  periodTime */\n      sload(0x06)\n        /* \"Contracts/AKEB.sol\":1689:1704  periodTime * 60 */\n      tag_266\n      swap2\n      swap1\n      tag_267\n      jump\t// in\n    tag_266:\n        /* \"Contracts/AKEB.sol\":1670:1685  block.timestamp */\n      timestamp\n        /* \"Contracts/AKEB.sol\":1670:1705  block.timestamp + (periodTime * 60) */\n      tag_268\n      swap2\n      swap1\n      tag_123\n      jump\t// in\n    tag_268:\n        /* \"Contracts/AKEB.sol\":1647:1667  registerBidderPeriod */\n      0x03\n        /* \"Contracts/AKEB.sol\":1647:1705  registerBidderPeriod = block.timestamp + (periodTime * 60) */\n      dup2\n      swap1\n      sstore\n      pop\n        /* \"Contracts/AKEB.sol\":1829:1831  60 */\n      0x3c\n        /* \"Contracts/AKEB.sol\":1816:1826  periodTime */\n      sload(0x06)\n        /* \"Contracts/AKEB.sol\":1812:1813  2 */\n      0x02\n        /* \"Contracts/AKEB.sol\":1812:1826  2 * periodTime */\n      tag_269\n      swap2\n      swap1\n      tag_267\n      jump\t// in\n    tag_269:\n        /* \"Contracts/AKEB.sol\":1812:1831  2 * periodTime * 60 */\n      tag_270\n      swap2\n      swap1\n      tag_267\n      jump\t// in\n    tag_270:\n        /* \"Contracts/AKEB.sol\":1793:1808  block.timestamp */\n      timestamp\n        /* \"Contracts/AKEB.sol\":1793:1832  block.timestamp + (2 * periodTime * 60) */\n      tag_271\n      swap2\n      swap1\n      tag_123\n      jump\t// in\n    tag_271:\n        /* \"Contracts/AKEB.sol\":1765:1790  hashedBidSubmissionPeriod */\n      0x04\n        /* \"Contracts/AKEB.sol\":1765:1832  hashedBidSubmissionPeriod = block.timestamp + (2 * periodTime * 60) */\n      dup2\n      swap1\n      sstore\n      pop\n        /* \"Contracts/AKEB.sol\":1972:1974  60 */\n      0x3c\n        /* \"Contracts/AKEB.sol\":1959:1969  periodTime */\n      sload(0x06)\n        /* \"Contracts/AKEB.sol\":1955:1956  3 */\n      0x03\n        /* \"Contracts/AKEB.sol\":1955:1969  3 * periodTime */\n      tag_272\n      swap2\n      swap1\n      tag_267\n      jump\t// in\n    tag_272:\n        /* \"Contracts/AKEB.sol\":1955:1974  3 * periodTime * 60 */\n      tag_273\n      swap2\n      swap1\n      tag_267\n      jump\t// in\n    tag_273:\n        /* \"Contracts/AKEB.sol\":1936:1951  block.timestamp */\n      timestamp\n        /* \"Contracts/AKEB.sol\":1936:1975  block.timestamp + (3 * periodTime * 60) */\n      tag_274\n      swap2\n      swap1\n      tag_123\n      jump\t// in\n    tag_274:\n        /* \"Contracts/AKEB.sol\":1901:1933  winnerAndDisputeSubmissionPeriod */\n      0x05\n        /* \"Contracts/AKEB.sol\":1901:1975  winnerAndDisputeSubmissionPeriod = block.timestamp + (3 * periodTime * 60) */\n      dup2\n      swap1\n      sstore\n      pop\n        /* \"Contracts/AKEB.sol\":1553:1982  function setUpPhasesTimePeriods() private {... */\n      jump\t// out\n        /* \"@openzeppelin/contracts/utils/Strings.sol\":415:1111  function toString(uint256 value) internal pure returns (string memory) {... */\n    tag_239:\n        /* \"@openzeppelin/contracts/utils/Strings.sol\":471:484  string memory */\n      0x60\n        /* \"@openzeppelin/contracts/utils/Strings.sol\":520:534  uint256 length */\n      0x00\n        /* \"@openzeppelin/contracts/utils/Strings.sol\":557:558  1 */\n      0x01\n        /* \"@openzeppelin/contracts/utils/Strings.sol\":537:554  Math.log10(value) */\n      tag_276\n        /* \"@openzeppelin/contracts/utils/Strings.sol\":548:553  value */\n      dup5\n        /* \"@openzeppelin/contracts/utils/Strings.sol\":537:547  Math.log10 */\n      tag_277\n        /* \"@openzeppelin/contracts/utils/Strings.sol\":537:554  Math.log10(value) */\n      jump\t// in\n    tag_276:\n        /* \"@openzeppelin/contracts/utils/Strings.sol\":537:558  Math.log10(value) + 1 */\n      add\n        /* \"@openzeppelin/contracts/utils/Strings.sol\":520:558  uint256 length = Math.log10(value) + 1 */\n      swap1\n      pop\n        /* \"@openzeppelin/contracts/utils/Strings.sol\":572:592  string memory buffer */\n      0x00\n        /* \"@openzeppelin/contracts/utils/Strings.sol\":606:612  length */\n      dup2\n        /* \"@openzeppelin/contracts/utils/Strings.sol\":595:613  new string(length) */\n      0xffffffffffffffff\n      dup2\n      gt\n      iszero\n      tag_278\n      jumpi\n      tag_279\n      tag_280\n      jump\t// in\n    tag_279:\n    tag_278:\n      mload(0x40)\n      swap1\n      dup1\n      dup3\n      mstore\n      dup1\n      0x1f\n      add\n      not(0x1f)\n      and\n      0x20\n      add\n      dup3\n      add\n      0x40\n      mstore\n      dup1\n      iszero\n      tag_281\n      jumpi\n      dup2\n      0x20\n      add\n      0x01\n      dup3\n      mul\n      dup1\n      calldatasize\n      dup4\n      calldatacopy\n      dup1\n      dup3\n      add\n      swap2\n      pop\n      pop\n      swap1\n      pop\n    tag_281:\n      pop\n        /* \"@openzeppelin/contracts/utils/Strings.sol\":572:613  string memory buffer = new string(length) */\n      swap1\n      pop\n        /* \"@openzeppelin/contracts/utils/Strings.sol\":627:638  uint256 ptr */\n      0x00\n        /* \"@openzeppelin/contracts/utils/Strings.sol\":753:759  length */\n      dup3\n        /* \"@openzeppelin/contracts/utils/Strings.sol\":749:751  32 */\n      0x20\n        /* \"@openzeppelin/contracts/utils/Strings.sol\":745:760  add(32, length) */\n      add\n        /* \"@openzeppelin/contracts/utils/Strings.sol\":737:743  buffer */\n      dup3\n        /* \"@openzeppelin/contracts/utils/Strings.sol\":733:761  add(buffer, add(32, length)) */\n      add\n        /* \"@openzeppelin/contracts/utils/Strings.sol\":726:761  ptr := add(buffer, add(32, length)) */\n      swap1\n      pop\n        /* \"@openzeppelin/contracts/utils/Strings.sol\":788:1068  while (true) {... */\n    tag_282:\n        /* \"@openzeppelin/contracts/utils/Strings.sol\":795:799  true */\n      0x01\n        /* \"@openzeppelin/contracts/utils/Strings.sol\":788:1068  while (true) {... */\n      iszero\n      tag_283\n      jumpi\n        /* \"@openzeppelin/contracts/utils/Strings.sol\":819:824  ptr-- */\n      dup1\n      dup1\n      0x01\n      swap1\n      sub\n      swap2\n      pop\n      pop\n        /* \"@openzeppelin/contracts/utils/Strings.sol\":958:966  _SYMBOLS */\n      0x3031323334353637383961626364656600000000000000000000000000000000\n        /* \"@openzeppelin/contracts/utils/Strings.sol\":953:955  10 */\n      0x0a\n        /* \"@openzeppelin/contracts/utils/Strings.sol\":946:951  value */\n      dup7\n        /* \"@openzeppelin/contracts/utils/Strings.sol\":942:956  mod(value, 10) */\n      mod\n        /* \"@openzeppelin/contracts/utils/Strings.sol\":937:967  byte(mod(value, 10), _SYMBOLS) */\n      byte\n        /* \"@openzeppelin/contracts/utils/Strings.sol\":932:935  ptr */\n      dup2\n        /* \"@openzeppelin/contracts/utils/Strings.sol\":924:968  mstore8(ptr, byte(mod(value, 10), _SYMBOLS)) */\n      mstore8\n        /* \"@openzeppelin/contracts/utils/Strings.sol\":1012:1014  10 */\n      0x0a\n        /* \"@openzeppelin/contracts/utils/Strings.sol\":1003:1014  value /= 10 */\n      dup6\n      dup2\n      tag_284\n      jumpi\n      tag_285\n      tag_286\n      jump\t// in\n    tag_285:\n    tag_284:\n      div\n      swap5\n      pop\n        /* \"@openzeppelin/contracts/utils/Strings.sol\":1045:1046  0 */\n      0x00\n        /* \"@openzeppelin/contracts/utils/Strings.sol\":1036:1041  value */\n      dup6\n        /* \"@openzeppelin/contracts/utils/Strings.sol\":1036:1046  value == 0 */\n      sub\n        /* \"@openzeppelin/contracts/utils/Strings.sol\":788:1068  while (true) {... */\n      tag_282\n        /* \"@openzeppelin/contracts/utils/Strings.sol\":1032:1053  if (value == 0) break */\n      jumpi\n        /* \"@openzeppelin/contracts/utils/Strings.sol\":788:1068  while (true) {... */\n    tag_283:\n        /* \"@openzeppelin/contracts/utils/Strings.sol\":1088:1094  buffer */\n      dup2\n        /* \"@openzeppelin/contracts/utils/Strings.sol\":1081:1094  return buffer */\n      swap4\n      pop\n      pop\n      pop\n      pop\n        /* \"@openzeppelin/contracts/utils/Strings.sol\":415:1111  function toString(uint256 value) internal pure returns (string memory) {... */\n      swap2\n      swap1\n      pop\n      jump\t// out\n        /* \"@openzeppelin/contracts/utils/math/Math.sol\":9889:10779  function log10(uint256 value) internal pure returns (uint256) {... */\n    tag_277:\n        /* \"@openzeppelin/contracts/utils/math/Math.sol\":9942:9949  uint256 */\n      0x00\n        /* \"@openzeppelin/contracts/utils/math/Math.sol\":9961:9975  uint256 result */\n      dup1\n        /* \"@openzeppelin/contracts/utils/math/Math.sol\":9978:9979  0 */\n      0x00\n        /* \"@openzeppelin/contracts/utils/math/Math.sol\":9961:9979  uint256 result = 0 */\n      swap1\n      pop\n        /* \"@openzeppelin/contracts/utils/math/Math.sol\":10026:10032  10**64 */\n      0x184f03e93ff9f4daa797ed6e38ed64bf6a1f010000000000000000\n        /* \"@openzeppelin/contracts/utils/math/Math.sol\":10017:10022  value */\n      dup4\n        /* \"@openzeppelin/contracts/utils/math/Math.sol\":10017:10032  value >= 10**64 */\n      lt\n        /* \"@openzeppelin/contracts/utils/math/Math.sol\":10013:10112  if (value >= 10**64) {... */\n      tag_289\n      jumpi\n        /* \"@openzeppelin/contracts/utils/math/Math.sol\":10061:10067  10**64 */\n      0x184f03e93ff9f4daa797ed6e38ed64bf6a1f010000000000000000\n        /* \"@openzeppelin/contracts/utils/math/Math.sol\":10052:10067  value /= 10**64 */\n      dup4\n      dup2\n      tag_290\n      jumpi\n      tag_291\n      tag_286\n      jump\t// in\n    tag_291:\n    tag_290:\n      div\n      swap3\n      pop\n        /* \"@openzeppelin/contracts/utils/math/Math.sol\":10095:10097  64 */\n      0x40\n        /* \"@openzeppelin/contracts/utils/math/Math.sol\":10085:10097  result += 64 */\n      dup2\n      add\n      swap1\n      pop\n        /* \"@openzeppelin/contracts/utils/math/Math.sol\":10013:10112  if (value >= 10**64) {... */\n    tag_289:\n        /* \"@openzeppelin/contracts/utils/math/Math.sol\":10138:10144  10**32 */\n      0x04ee2d6d415b85acef8100000000\n        /* \"@openzeppelin/contracts/utils/math/Math.sol\":10129:10134  value */\n      dup4\n        /* \"@openzeppelin/contracts/utils/math/Math.sol\":10129:10144  value >= 10**32 */\n      lt\n        /* \"@openzeppelin/contracts/utils/math/Math.sol\":10125:10224  if (value >= 10**32) {... */\n      tag_292\n      jumpi\n        /* \"@openzeppelin/contracts/utils/math/Math.sol\":10173:10179  10**32 */\n      0x04ee2d6d415b85acef8100000000\n        /* \"@openzeppelin/contracts/utils/math/Math.sol\":10164:10179  value /= 10**32 */\n      dup4\n      dup2\n      tag_293\n      jumpi\n      tag_294\n      tag_286\n      jump\t// in\n    tag_294:\n    tag_293:\n      div\n      swap3\n      pop\n        /* \"@openzeppelin/contracts/utils/math/Math.sol\":10207:10209  32 */\n      0x20\n        /* \"@openzeppelin/contracts/utils/math/Math.sol\":10197:10209  result += 32 */\n      dup2\n      add\n      swap1\n      pop\n        /* \"@openzeppelin/contracts/utils/math/Math.sol\":10125:10224  if (value >= 10**32) {... */\n    tag_292:\n        /* \"@openzeppelin/contracts/utils/math/Math.sol\":10250:10256  10**16 */\n      0x2386f26fc10000\n        /* \"@openzeppelin/contracts/utils/math/Math.sol\":10241:10246  value */\n      dup4\n        /* \"@openzeppelin/contracts/utils/math/Math.sol\":10241:10256  value >= 10**16 */\n      lt\n        /* \"@openzeppelin/contracts/utils/math/Math.sol\":10237:10336  if (value >= 10**16) {... */\n      tag_295\n      jumpi\n        /* \"@openzeppelin/contracts/utils/math/Math.sol\":10285:10291  10**16 */\n      0x2386f26fc10000\n        /* \"@openzeppelin/contracts/utils/math/Math.sol\":10276:10291  value /= 10**16 */\n      dup4\n      dup2\n      tag_296\n      jumpi\n      tag_297\n      tag_286\n      jump\t// in\n    tag_297:\n    tag_296:\n      div\n      swap3\n      pop\n        /* \"@openzeppelin/contracts/utils/math/Math.sol\":10319:10321  16 */\n      0x10\n        /* \"@openzeppelin/contracts/utils/math/Math.sol\":10309:10321  result += 16 */\n      dup2\n      add\n      swap1\n      pop\n        /* \"@openzeppelin/contracts/utils/math/Math.sol\":10237:10336  if (value >= 10**16) {... */\n    tag_295:\n        /* \"@openzeppelin/contracts/utils/math/Math.sol\":10362:10367  10**8 */\n      0x05f5e100\n        /* \"@openzeppelin/contracts/utils/math/Math.sol\":10353:10358  value */\n      dup4\n        /* \"@openzeppelin/contracts/utils/math/Math.sol\":10353:10367  value >= 10**8 */\n      lt\n        /* \"@openzeppelin/contracts/utils/math/Math.sol\":10349:10445  if (value >= 10**8) {... */\n      tag_298\n      jumpi\n        /* \"@openzeppelin/contracts/utils/math/Math.sol\":10396:10401  10**8 */\n      0x05f5e100\n        /* \"@openzeppelin/contracts/utils/math/Math.sol\":10387:10401  value /= 10**8 */\n      dup4\n      dup2\n      tag_299\n      jumpi\n      tag_300\n      tag_286\n      jump\t// in\n    tag_300:\n    tag_299:\n      div\n      swap3\n      pop\n        /* \"@openzeppelin/contracts/utils/math/Math.sol\":10429:10430  8 */\n      0x08\n        /* \"@openzeppelin/contracts/utils/math/Math.sol\":10419:10430  result += 8 */\n      dup2\n      add\n      swap1\n      pop\n        /* \"@openzeppelin/contracts/utils/math/Math.sol\":10349:10445  if (value >= 10**8) {... */\n    tag_298:\n        /* \"@openzeppelin/contracts/utils/math/Math.sol\":10471:10476  10**4 */\n      0x2710\n        /* \"@openzeppelin/contracts/utils/math/Math.sol\":10462:10467  value */\n      dup4\n        /* \"@openzeppelin/contracts/utils/math/Math.sol\":10462:10476  value >= 10**4 */\n      lt\n        /* \"@openzeppelin/contracts/utils/math/Math.sol\":10458:10554  if (value >= 10**4) {... */\n      tag_301\n      jumpi\n        /* \"@openzeppelin/contracts/utils/math/Math.sol\":10505:10510  10**4 */\n      0x2710\n        /* \"@openzeppelin/contracts/utils/math/Math.sol\":10496:10510  value /= 10**4 */\n      dup4\n      dup2\n      tag_302\n      jumpi\n      tag_303\n      tag_286\n      jump\t// in\n    tag_303:\n    tag_302:\n      div\n      swap3\n      pop\n        /* \"@openzeppelin/contracts/utils/math/Math.sol\":10538:10539  4 */\n      0x04\n        /* \"@openzeppelin/contracts/utils/math/Math.sol\":10528:10539  result += 4 */\n      dup2\n      add\n      swap1\n      pop\n        /* \"@openzeppelin/contracts/utils/math/Math.sol\":10458:10554  if (value >= 10**4) {... */\n    tag_301:\n        /* \"@openzeppelin/contracts/utils/math/Math.sol\":10580:10585  10**2 */\n      0x64\n        /* \"@openzeppelin/contracts/utils/math/Math.sol\":10571:10576  value */\n      dup4\n        /* \"@openzeppelin/contracts/utils/math/Math.sol\":10571:10585  value >= 10**2 */\n      lt\n        /* \"@openzeppelin/contracts/utils/math/Math.sol\":10567:10663  if (value >= 10**2) {... */\n      tag_304\n      jumpi\n        /* \"@openzeppelin/contracts/utils/math/Math.sol\":10614:10619  10**2 */\n      0x64\n        /* \"@openzeppelin/contracts/utils/math/Math.sol\":10605:10619  value /= 10**2 */\n      dup4\n      dup2\n      tag_305\n      jumpi\n      tag_306\n      tag_286\n      jump\t// in\n    tag_306:\n    tag_305:\n      div\n      swap3\n      pop\n        /* \"@openzeppelin/contracts/utils/math/Math.sol\":10647:10648  2 */\n      0x02\n        /* \"@openzeppelin/contracts/utils/math/Math.sol\":10637:10648  result += 2 */\n      dup2\n      add\n      swap1\n      pop\n        /* \"@openzeppelin/contracts/utils/math/Math.sol\":10567:10663  if (value >= 10**2) {... */\n    tag_304:\n        /* \"@openzeppelin/contracts/utils/math/Math.sol\":10689:10694  10**1 */\n      0x0a\n        /* \"@openzeppelin/contracts/utils/math/Math.sol\":10680:10685  value */\n      dup4\n        /* \"@openzeppelin/contracts/utils/math/Math.sol\":10680:10694  value >= 10**1 */\n      lt\n        /* \"@openzeppelin/contracts/utils/math/Math.sol\":10676:10740  if (value >= 10**1) {... */\n      tag_307\n      jumpi\n        /* \"@openzeppelin/contracts/utils/math/Math.sol\":10724:10725  1 */\n      0x01\n        /* \"@openzeppelin/contracts/utils/math/Math.sol\":10714:10725  result += 1 */\n      dup2\n      add\n      swap1\n      pop\n        /* \"@openzeppelin/contracts/utils/math/Math.sol\":10676:10740  if (value >= 10**1) {... */\n    tag_307:\n        /* \"@openzeppelin/contracts/utils/math/Math.sol\":10766:10772  result */\n      dup1\n        /* \"@openzeppelin/contracts/utils/math/Math.sol\":10759:10772  return result */\n      swap2\n      pop\n      pop\n        /* \"@openzeppelin/contracts/utils/math/Math.sol\":9889:10779  function log10(uint256 value) internal pure returns (uint256) {... */\n      swap2\n      swap1\n      pop\n      jump\t// out\n    tag_185:\n      pop\n      dup1\n      sload\n      0x00\n      dup3\n      sstore\n      0x03\n      mul\n      swap1\n      0x00\n      mstore\n      keccak256(0x00, 0x20)\n      swap1\n      dup2\n      add\n      swap1\n      tag_309\n      swap2\n      swap1\n      tag_310\n      jump\t// in\n    tag_309:\n      pop\n      jump\t// out\n    tag_190:\n      pop\n      dup1\n      sload\n      0x00\n      dup3\n      sstore\n      swap1\n      0x00\n      mstore\n      keccak256(0x00, 0x20)\n      swap1\n      dup2\n      add\n      swap1\n      tag_312\n      swap2\n      swap1\n      tag_313\n      jump\t// in\n    tag_312:\n      pop\n      jump\t// out\n    tag_192:\n      pop\n      dup1\n      sload\n      0x00\n      dup3\n      sstore\n      0x03\n      mul\n      swap1\n      0x00\n      mstore\n      keccak256(0x00, 0x20)\n      swap1\n      dup2\n      add\n      swap1\n      tag_315\n      swap2\n      swap1\n      tag_316\n      jump\t// in\n    tag_315:\n      pop\n      jump\t// out\n    tag_310:\n    tag_317:\n      dup1\n      dup3\n      gt\n      iszero\n      tag_318\n      jumpi\n      0x00\n      dup1\n      dup3\n      add\n      exp(0x0100, 0x00)\n      dup2\n      sload\n      swap1\n      0xffffffffffffffffffffffffffffffffffffffff\n      mul\n      not\n      and\n      swap1\n      sstore\n      0x01\n      dup3\n      add\n      0x00\n      swap1\n      sstore\n      0x02\n      dup3\n      add\n      0x00\n      tag_319\n      swap2\n      swap1\n      tag_320\n      jump\t// in\n    tag_319:\n      pop\n      0x03\n      add\n      jump(tag_317)\n    tag_318:\n      pop\n      swap1\n      jump\t// out\n    tag_313:\n    tag_321:\n      dup1\n      dup3\n      gt\n      iszero\n      tag_322\n      jumpi\n      0x00\n      dup2\n      0x00\n      swap1\n      sstore\n      pop\n      0x01\n      add\n      jump(tag_321)\n    tag_322:\n      pop\n      swap1\n      jump\t// out\n    tag_316:\n    tag_323:\n      dup1\n      dup3\n      gt\n      iszero\n      tag_324\n      jumpi\n      0x00\n      dup1\n      dup3\n      add\n      0x00\n      swap1\n      sstore\n      0x01\n      dup3\n      add\n      exp(0x0100, 0x00)\n      dup2\n      sload\n      swap1\n      0xffffffffffffffffffffffffffffffffffffffff\n      mul\n      not\n      and\n      swap1\n      sstore\n      0x02\n      dup3\n      add\n      0x00\n      tag_325\n      swap2\n      swap1\n      tag_320\n      jump\t// in\n    tag_325:\n      pop\n      0x03\n      add\n      jump(tag_323)\n    tag_324:\n      pop\n      swap1\n      jump\t// out\n    tag_320:\n      pop\n      dup1\n      sload\n      tag_326\n      swap1\n      tag_106\n      jump\t// in\n    tag_326:\n      0x00\n      dup3\n      sstore\n      dup1\n      0x1f\n      lt\n      tag_328\n      jumpi\n      pop\n      jump(tag_327)\n    tag_328:\n      0x1f\n      add\n      0x20\n      swap1\n      div\n      swap1\n      0x00\n      mstore\n      keccak256(0x00, 0x20)\n      swap1\n      dup2\n      add\n      swap1\n      tag_329\n      swap2\n      swap1\n      tag_313\n      jump\t// in\n    tag_329:\n    tag_327:\n      pop\n      jump\t// out\n        /* \"#utility.yul\":7:82   */\n    tag_330:\n        /* \"#utility.yul\":40:46   */\n      0x00\n        /* \"#utility.yul\":73:75   */\n      0x40\n        /* \"#utility.yul\":67:76   */\n      mload\n        /* \"#utility.yul\":57:76   */\n      swap1\n      pop\n        /* \"#utility.yul\":7:82   */\n      swap1\n      jump\t// out\n        /* \"#utility.yul\":88:205   */\n    tag_331:\n        /* \"#utility.yul\":197:198   */\n      0x00\n        /* \"#utility.yul\":194:195   */\n      dup1\n        /* \"#utility.yul\":187:199   */\n      revert\n        /* \"#utility.yul\":211:328   */\n    tag_332:\n        /* \"#utility.yul\":320:321   */\n      0x00\n        /* \"#utility.yul\":317:318   */\n      dup1\n        /* \"#utility.yul\":310:322   */\n      revert\n        /* \"#utility.yul\":334:411   */\n    tag_333:\n        /* \"#utility.yul\":371:378   */\n      0x00\n        /* \"#utility.yul\":400:405   */\n      dup2\n        /* \"#utility.yul\":389:405   */\n      swap1\n      pop\n        /* \"#utility.yul\":334:411   */\n      swap2\n      swap1\n      pop\n      jump\t// out\n        /* \"#utility.yul\":417:539   */\n    tag_334:\n        /* \"#utility.yul\":490:514   */\n      tag_428\n        /* \"#utility.yul\":508:513   */\n      dup2\n        /* \"#utility.yul\":490:514   */\n      tag_333\n      jump\t// in\n    tag_428:\n        /* \"#utility.yul\":483:488   */\n      dup2\n        /* \"#utility.yul\":480:515   */\n      eq\n        /* \"#utility.yul\":470:533   */\n      tag_429\n      jumpi\n        /* \"#utility.yul\":529:530   */\n      0x00\n        /* \"#utility.yul\":526:527   */\n      dup1\n        /* \"#utility.yul\":519:531   */\n      revert\n        /* \"#utility.yul\":470:533   */\n    tag_429:\n        /* \"#utility.yul\":417:539   */\n      pop\n      jump\t// out\n        /* \"#utility.yul\":545:684   */\n    tag_335:\n        /* \"#utility.yul\":591:596   */\n      0x00\n        /* \"#utility.yul\":629:635   */\n      dup2\n        /* \"#utility.yul\":616:636   */\n      calldataload\n        /* \"#utility.yul\":607:636   */\n      swap1\n      pop\n        /* \"#utility.yul\":645:678   */\n      tag_431\n        /* \"#utility.yul\":672:677   */\n      dup2\n        /* \"#utility.yul\":645:678   */\n      tag_334\n      jump\t// in\n    tag_431:\n        /* \"#utility.yul\":545:684   */\n      swap3\n      swap2\n      pop\n      pop\n      jump\t// out\n        /* \"#utility.yul\":690:807   */\n    tag_336:\n        /* \"#utility.yul\":799:800   */\n      0x00\n        /* \"#utility.yul\":796:797   */\n      dup1\n        /* \"#utility.yul\":789:801   */\n      revert\n        /* \"#utility.yul\":813:930   */\n    tag_337:\n        /* \"#utility.yul\":922:923   */\n      0x00\n        /* \"#utility.yul\":919:920   */\n      dup1\n        /* \"#utility.yul\":912:924   */\n      revert\n        /* \"#utility.yul\":936:1038   */\n    tag_338:\n        /* \"#utility.yul\":977:983   */\n      0x00\n        /* \"#utility.yul\":1028:1030   */\n      0x1f\n        /* \"#utility.yul\":1024:1031   */\n      not\n        /* \"#utility.yul\":1019:1021   */\n      0x1f\n        /* \"#utility.yul\":1012:1017   */\n      dup4\n        /* \"#utility.yul\":1008:1022   */\n      add\n        /* \"#utility.yul\":1004:1032   */\n      and\n        /* \"#utility.yul\":994:1032   */\n      swap1\n      pop\n        /* \"#utility.yul\":936:1038   */\n      swap2\n      swap1\n      pop\n      jump\t// out\n        /* \"#utility.yul\":1044:1224   */\n    tag_280:\n        /* \"#utility.yul\":1092:1169   */\n      0x4e487b7100000000000000000000000000000000000000000000000000000000\n        /* \"#utility.yul\":1089:1090   */\n      0x00\n        /* \"#utility.yul\":1082:1170   */\n      mstore\n        /* \"#utility.yul\":1189:1193   */\n      0x41\n        /* \"#utility.yul\":1186:1187   */\n      0x04\n        /* \"#utility.yul\":1179:1194   */\n      mstore\n        /* \"#utility.yul\":1213:1217   */\n      0x24\n        /* \"#utility.yul\":1210:1211   */\n      0x00\n        /* \"#utility.yul\":1203:1218   */\n      revert\n        /* \"#utility.yul\":1230:1511   */\n    tag_339:\n        /* \"#utility.yul\":1313:1340   */\n      tag_437\n        /* \"#utility.yul\":1335:1339   */\n      dup3\n        /* \"#utility.yul\":1313:1340   */\n      tag_338\n      jump\t// in\n    tag_437:\n        /* \"#utility.yul\":1305:1311   */\n      dup2\n        /* \"#utility.yul\":1301:1341   */\n      add\n        /* \"#utility.yul\":1443:1449   */\n      dup2\n        /* \"#utility.yul\":1431:1441   */\n      dup2\n        /* \"#utility.yul\":1428:1450   */\n      lt\n        /* \"#utility.yul\":1407:1425   */\n      0xffffffffffffffff\n        /* \"#utility.yul\":1395:1405   */\n      dup3\n        /* \"#utility.yul\":1392:1426   */\n      gt\n        /* \"#utility.yul\":1389:1451   */\n      or\n        /* \"#utility.yul\":1386:1474   */\n      iszero\n      tag_438\n      jumpi\n        /* \"#utility.yul\":1454:1472   */\n      tag_439\n      tag_280\n      jump\t// in\n    tag_439:\n        /* \"#utility.yul\":1386:1474   */\n    tag_438:\n        /* \"#utility.yul\":1494:1504   */\n      dup1\n        /* \"#utility.yul\":1490:1492   */\n      0x40\n        /* \"#utility.yul\":1483:1505   */\n      mstore\n        /* \"#utility.yul\":1273:1511   */\n      pop\n        /* \"#utility.yul\":1230:1511   */\n      pop\n      pop\n      jump\t// out\n        /* \"#utility.yul\":1517:1646   */\n    tag_340:\n        /* \"#utility.yul\":1551:1557   */\n      0x00\n        /* \"#utility.yul\":1578:1598   */\n      tag_441\n      tag_330\n      jump\t// in\n    tag_441:\n        /* \"#utility.yul\":1568:1598   */\n      swap1\n      pop\n        /* \"#utility.yul\":1607:1640   */\n      tag_442\n        /* \"#utility.yul\":1635:1639   */\n      dup3\n        /* \"#utility.yul\":1627:1633   */\n      dup3\n        /* \"#utility.yul\":1607:1640   */\n      tag_339\n      jump\t// in\n    tag_442:\n        /* \"#utility.yul\":1517:1646   */\n      swap2\n      swap1\n      pop\n      jump\t// out\n        /* \"#utility.yul\":1652:1960   */\n    tag_341:\n        /* \"#utility.yul\":1714:1718   */\n      0x00\n        /* \"#utility.yul\":1804:1822   */\n      0xffffffffffffffff\n        /* \"#utility.yul\":1796:1802   */\n      dup3\n        /* \"#utility.yul\":1793:1823   */\n      gt\n        /* \"#utility.yul\":1790:1846   */\n      iszero\n      tag_444\n      jumpi\n        /* \"#utility.yul\":1826:1844   */\n      tag_445\n      tag_280\n      jump\t// in\n    tag_445:\n        /* \"#utility.yul\":1790:1846   */\n    tag_444:\n        /* \"#utility.yul\":1864:1893   */\n      tag_446\n        /* \"#utility.yul\":1886:1892   */\n      dup3\n        /* \"#utility.yul\":1864:1893   */\n      tag_338\n      jump\t// in\n    tag_446:\n        /* \"#utility.yul\":1856:1893   */\n      swap1\n      pop\n        /* \"#utility.yul\":1948:1952   */\n      0x20\n        /* \"#utility.yul\":1942:1946   */\n      dup2\n        /* \"#utility.yul\":1938:1953   */\n      add\n        /* \"#utility.yul\":1930:1953   */\n      swap1\n      pop\n        /* \"#utility.yul\":1652:1960   */\n      swap2\n      swap1\n      pop\n      jump\t// out\n        /* \"#utility.yul\":1966:2112   */\n    tag_342:\n        /* \"#utility.yul\":2063:2069   */\n      dup3\n        /* \"#utility.yul\":2058:2061   */\n      dup2\n        /* \"#utility.yul\":2053:2056   */\n      dup4\n        /* \"#utility.yul\":2040:2070   */\n      calldatacopy\n        /* \"#utility.yul\":2104:2105   */\n      0x00\n        /* \"#utility.yul\":2095:2101   */\n      dup4\n        /* \"#utility.yul\":2090:2093   */\n      dup4\n        /* \"#utility.yul\":2086:2102   */\n      add\n        /* \"#utility.yul\":2079:2106   */\n      mstore\n        /* \"#utility.yul\":1966:2112   */\n      pop\n      pop\n      pop\n      jump\t// out\n        /* \"#utility.yul\":2118:2543   */\n    tag_343:\n        /* \"#utility.yul\":2196:2201   */\n      0x00\n        /* \"#utility.yul\":2221:2287   */\n      tag_449\n        /* \"#utility.yul\":2237:2286   */\n      tag_450\n        /* \"#utility.yul\":2279:2285   */\n      dup5\n        /* \"#utility.yul\":2237:2286   */\n      tag_341\n      jump\t// in\n    tag_450:\n        /* \"#utility.yul\":2221:2287   */\n      tag_340\n      jump\t// in\n    tag_449:\n        /* \"#utility.yul\":2212:2287   */\n      swap1\n      pop\n        /* \"#utility.yul\":2310:2316   */\n      dup3\n        /* \"#utility.yul\":2303:2308   */\n      dup2\n        /* \"#utility.yul\":2296:2317   */\n      mstore\n        /* \"#utility.yul\":2348:2352   */\n      0x20\n        /* \"#utility.yul\":2341:2346   */\n      dup2\n        /* \"#utility.yul\":2337:2353   */\n      add\n        /* \"#utility.yul\":2386:2389   */\n      dup5\n        /* \"#utility.yul\":2377:2383   */\n      dup5\n        /* \"#utility.yul\":2372:2375   */\n      dup5\n        /* \"#utility.yul\":2368:2384   */\n      add\n        /* \"#utility.yul\":2365:2390   */\n      gt\n        /* \"#utility.yul\":2362:2474   */\n      iszero\n      tag_451\n      jumpi\n        /* \"#utility.yul\":2393:2472   */\n      tag_452\n      tag_337\n      jump\t// in\n    tag_452:\n        /* \"#utility.yul\":2362:2474   */\n    tag_451:\n        /* \"#utility.yul\":2483:2537   */\n      tag_453\n        /* \"#utility.yul\":2530:2536   */\n      dup5\n        /* \"#utility.yul\":2525:2528   */\n      dup3\n        /* \"#utility.yul\":2520:2523   */\n      dup6\n        /* \"#utility.yul\":2483:2537   */\n      tag_342\n      jump\t// in\n    tag_453:\n        /* \"#utility.yul\":2202:2543   */\n      pop\n        /* \"#utility.yul\":2118:2543   */\n      swap4\n      swap3\n      pop\n      pop\n      pop\n      jump\t// out\n        /* \"#utility.yul\":2563:2903   */\n    tag_344:\n        /* \"#utility.yul\":2619:2624   */\n      0x00\n        /* \"#utility.yul\":2668:2671   */\n      dup3\n        /* \"#utility.yul\":2661:2665   */\n      0x1f\n        /* \"#utility.yul\":2653:2659   */\n      dup4\n        /* \"#utility.yul\":2649:2666   */\n      add\n        /* \"#utility.yul\":2645:2672   */\n      slt\n        /* \"#utility.yul\":2635:2757   */\n      tag_455\n      jumpi\n        /* \"#utility.yul\":2676:2755   */\n      tag_456\n      tag_336\n      jump\t// in\n    tag_456:\n        /* \"#utility.yul\":2635:2757   */\n    tag_455:\n        /* \"#utility.yul\":2793:2799   */\n      dup2\n        /* \"#utility.yul\":2780:2800   */\n      calldataload\n        /* \"#utility.yul\":2818:2897   */\n      tag_457\n        /* \"#utility.yul\":2893:2896   */\n      dup5\n        /* \"#utility.yul\":2885:2891   */\n      dup3\n        /* \"#utility.yul\":2878:2882   */\n      0x20\n        /* \"#utility.yul\":2870:2876   */\n      dup7\n        /* \"#utility.yul\":2866:2883   */\n      add\n        /* \"#utility.yul\":2818:2897   */\n      tag_343\n      jump\t// in\n    tag_457:\n        /* \"#utility.yul\":2809:2897   */\n      swap2\n      pop\n        /* \"#utility.yul\":2625:2903   */\n      pop\n        /* \"#utility.yul\":2563:2903   */\n      swap3\n      swap2\n      pop\n      pop\n      jump\t// out\n        /* \"#utility.yul\":2909:3563   */\n    tag_24:\n        /* \"#utility.yul\":2987:2993   */\n      0x00\n        /* \"#utility.yul\":2995:3001   */\n      dup1\n        /* \"#utility.yul\":3044:3046   */\n      0x40\n        /* \"#utility.yul\":3032:3041   */\n      dup4\n        /* \"#utility.yul\":3023:3030   */\n      dup6\n        /* \"#utility.yul\":3019:3042   */\n      sub\n        /* \"#utility.yul\":3015:3047   */\n      slt\n        /* \"#utility.yul\":3012:3131   */\n      iszero\n      tag_459\n      jumpi\n        /* \"#utility.yul\":3050:3129   */\n      tag_460\n      tag_331\n      jump\t// in\n    tag_460:\n        /* \"#utility.yul\":3012:3131   */\n    tag_459:\n        /* \"#utility.yul\":3170:3171   */\n      0x00\n        /* \"#utility.yul\":3195:3248   */\n      tag_461\n        /* \"#utility.yul\":3240:3247   */\n      dup6\n        /* \"#utility.yul\":3231:3237   */\n      dup3\n        /* \"#utility.yul\":3220:3229   */\n      dup7\n        /* \"#utility.yul\":3216:3238   */\n      add\n        /* \"#utility.yul\":3195:3248   */\n      tag_335\n      jump\t// in\n    tag_461:\n        /* \"#utility.yul\":3185:3248   */\n      swap3\n      pop\n        /* \"#utility.yul\":3141:3258   */\n      pop\n        /* \"#utility.yul\":3325:3327   */\n      0x20\n        /* \"#utility.yul\":3314:3323   */\n      dup4\n        /* \"#utility.yul\":3310:3328   */\n      add\n        /* \"#utility.yul\":3297:3329   */\n      calldataload\n        /* \"#utility.yul\":3356:3374   */\n      0xffffffffffffffff\n        /* \"#utility.yul\":3348:3354   */\n      dup2\n        /* \"#utility.yul\":3345:3375   */\n      gt\n        /* \"#utility.yul\":3342:3459   */\n      iszero\n      tag_462\n      jumpi\n        /* \"#utility.yul\":3378:3457   */\n      tag_463\n      tag_332\n      jump\t// in\n    tag_463:\n        /* \"#utility.yul\":3342:3459   */\n    tag_462:\n        /* \"#utility.yul\":3483:3546   */\n      tag_464\n        /* \"#utility.yul\":3538:3545   */\n      dup6\n        /* \"#utility.yul\":3529:3535   */\n      dup3\n        /* \"#utility.yul\":3518:3527   */\n      dup7\n        /* \"#utility.yul\":3514:3536   */\n      add\n        /* \"#utility.yul\":3483:3546   */\n      tag_344\n      jump\t// in\n    tag_464:\n        /* \"#utility.yul\":3473:3546   */\n      swap2\n      pop\n        /* \"#utility.yul\":3268:3556   */\n      pop\n        /* \"#utility.yul\":2909:3563   */\n      swap3\n      pop\n      swap3\n      swap1\n      pop\n      jump\t// out\n        /* \"#utility.yul\":3569:3716   */\n    tag_345:\n        /* \"#utility.yul\":3669:3675   */\n      0x00\n        /* \"#utility.yul\":3703:3708   */\n      dup2\n        /* \"#utility.yul\":3697:3709   */\n      mload\n        /* \"#utility.yul\":3687:3709   */\n      swap1\n      pop\n        /* \"#utility.yul\":3569:3716   */\n      swap2\n      swap1\n      pop\n      jump\t// out\n        /* \"#utility.yul\":3722:3939   */\n    tag_346:\n        /* \"#utility.yul\":3854:3865   */\n      0x00\n        /* \"#utility.yul\":3888:3894   */\n      dup3\n        /* \"#utility.yul\":3883:3886   */\n      dup3\n        /* \"#utility.yul\":3876:3895   */\n      mstore\n        /* \"#utility.yul\":3928:3932   */\n      0x20\n        /* \"#utility.yul\":3923:3926   */\n      dup3\n        /* \"#utility.yul\":3919:3933   */\n      add\n        /* \"#utility.yul\":3904:3933   */\n      swap1\n      pop\n        /* \"#utility.yul\":3722:3939   */\n      swap3\n      swap2\n      pop\n      pop\n      jump\t// out\n        /* \"#utility.yul\":3945:4110   */\n    tag_347:\n        /* \"#utility.yul\":4045:4049   */\n      0x00\n        /* \"#utility.yul\":4068:4071   */\n      dup2\n        /* \"#utility.yul\":4060:4071   */\n      swap1\n      pop\n        /* \"#utility.yul\":4098:4102   */\n      0x20\n        /* \"#utility.yul\":4093:4096   */\n      dup3\n        /* \"#utility.yul\":4089:4103   */\n      add\n        /* \"#utility.yul\":4081:4103   */\n      swap1\n      pop\n        /* \"#utility.yul\":3945:4110   */\n      swap2\n      swap1\n      pop\n      jump\t// out\n        /* \"#utility.yul\":4116:4224   */\n    tag_348:\n        /* \"#utility.yul\":4193:4217   */\n      tag_469\n        /* \"#utility.yul\":4211:4216   */\n      dup2\n        /* \"#utility.yul\":4193:4217   */\n      tag_333\n      jump\t// in\n    tag_469:\n        /* \"#utility.yul\":4188:4191   */\n      dup3\n        /* \"#utility.yul\":4181:4218   */\n      mstore\n        /* \"#utility.yul\":4116:4224   */\n      pop\n      pop\n      jump\t// out\n        /* \"#utility.yul\":4230:4356   */\n    tag_349:\n        /* \"#utility.yul\":4267:4274   */\n      0x00\n        /* \"#utility.yul\":4307:4349   */\n      0xffffffffffffffffffffffffffffffffffffffff\n        /* \"#utility.yul\":4300:4305   */\n      dup3\n        /* \"#utility.yul\":4296:4350   */\n      and\n        /* \"#utility.yul\":4285:4350   */\n      swap1\n      pop\n        /* \"#utility.yul\":4230:4356   */\n      swap2\n      swap1\n      pop\n      jump\t// out\n        /* \"#utility.yul\":4362:4458   */\n    tag_350:\n        /* \"#utility.yul\":4399:4406   */\n      0x00\n        /* \"#utility.yul\":4428:4452   */\n      tag_472\n        /* \"#utility.yul\":4446:4451   */\n      dup3\n        /* \"#utility.yul\":4428:4452   */\n      tag_349\n      jump\t// in\n    tag_472:\n        /* \"#utility.yul\":4417:4452   */\n      swap1\n      pop\n        /* \"#utility.yul\":4362:4458   */\n      swap2\n      swap1\n      pop\n      jump\t// out\n        /* \"#utility.yul\":4464:4572   */\n    tag_351:\n        /* \"#utility.yul\":4541:4565   */\n      tag_474\n        /* \"#utility.yul\":4559:4564   */\n      dup2\n        /* \"#utility.yul\":4541:4565   */\n      tag_350\n      jump\t// in\n    tag_474:\n        /* \"#utility.yul\":4536:4539   */\n      dup3\n        /* \"#utility.yul\":4529:4566   */\n      mstore\n        /* \"#utility.yul\":4464:4572   */\n      pop\n      pop\n      jump\t// out\n        /* \"#utility.yul\":4578:4677   */\n    tag_352:\n        /* \"#utility.yul\":4630:4636   */\n      0x00\n        /* \"#utility.yul\":4664:4669   */\n      dup2\n        /* \"#utility.yul\":4658:4670   */\n      mload\n        /* \"#utility.yul\":4648:4670   */\n      swap1\n      pop\n        /* \"#utility.yul\":4578:4677   */\n      swap2\n      swap1\n      pop\n      jump\t// out\n        /* \"#utility.yul\":4683:4842   */\n    tag_353:\n        /* \"#utility.yul\":4757:4768   */\n      0x00\n        /* \"#utility.yul\":4791:4797   */\n      dup3\n        /* \"#utility.yul\":4786:4789   */\n      dup3\n        /* \"#utility.yul\":4779:4798   */\n      mstore\n        /* \"#utility.yul\":4831:4835   */\n      0x20\n        /* \"#utility.yul\":4826:4829   */\n      dup3\n        /* \"#utility.yul\":4822:4836   */\n      add\n        /* \"#utility.yul\":4807:4836   */\n      swap1\n      pop\n        /* \"#utility.yul\":4683:4842   */\n      swap3\n      swap2\n      pop\n      pop\n      jump\t// out\n        /* \"#utility.yul\":4848:5094   */\n    tag_354:\n        /* \"#utility.yul\":4929:4930   */\n      0x00\n        /* \"#utility.yul\":4939:5052   */\n    tag_478:\n        /* \"#utility.yul\":4953:4959   */\n      dup4\n        /* \"#utility.yul\":4950:4951   */\n      dup2\n        /* \"#utility.yul\":4947:4960   */\n      lt\n        /* \"#utility.yul\":4939:5052   */\n      iszero\n      tag_480\n      jumpi\n        /* \"#utility.yul\":5038:5039   */\n      dup1\n        /* \"#utility.yul\":5033:5036   */\n      dup3\n        /* \"#utility.yul\":5029:5040   */\n      add\n        /* \"#utility.yul\":5023:5041   */\n      mload\n        /* \"#utility.yul\":5019:5020   */\n      dup2\n        /* \"#utility.yul\":5014:5017   */\n      dup5\n        /* \"#utility.yul\":5010:5021   */\n      add\n        /* \"#utility.yul\":5003:5042   */\n      mstore\n        /* \"#utility.yul\":4975:4977   */\n      0x20\n        /* \"#utility.yul\":4972:4973   */\n      dup2\n        /* \"#utility.yul\":4968:4978   */\n      add\n        /* \"#utility.yul\":4963:4978   */\n      swap1\n      pop\n        /* \"#utility.yul\":4939:5052   */\n      jump(tag_478)\n    tag_480:\n        /* \"#utility.yul\":5086:5087   */\n      0x00\n        /* \"#utility.yul\":5077:5083   */\n      dup5\n        /* \"#utility.yul\":5072:5075   */\n      dup5\n        /* \"#utility.yul\":5068:5084   */\n      add\n        /* \"#utility.yul\":5061:5088   */\n      mstore\n        /* \"#utility.yul\":4910:5094   */\n      pop\n        /* \"#utility.yul\":4848:5094   */\n      pop\n      pop\n      pop\n      jump\t// out\n        /* \"#utility.yul\":5100:5457   */\n    tag_355:\n        /* \"#utility.yul\":5178:5181   */\n      0x00\n        /* \"#utility.yul\":5206:5245   */\n      tag_482\n        /* \"#utility.yul\":5239:5244   */\n      dup3\n        /* \"#utility.yul\":5206:5245   */\n      tag_352\n      jump\t// in\n    tag_482:\n        /* \"#utility.yul\":5261:5322   */\n      tag_483\n        /* \"#utility.yul\":5315:5321   */\n      dup2\n        /* \"#utility.yul\":5310:5313   */\n      dup6\n        /* \"#utility.yul\":5261:5322   */\n      tag_353\n      jump\t// in\n    tag_483:\n        /* \"#utility.yul\":5254:5322   */\n      swap4\n      pop\n        /* \"#utility.yul\":5331:5396   */\n      tag_484\n        /* \"#utility.yul\":5389:5395   */\n      dup2\n        /* \"#utility.yul\":5384:5387   */\n      dup6\n        /* \"#utility.yul\":5377:5381   */\n      0x20\n        /* \"#utility.yul\":5370:5375   */\n      dup7\n        /* \"#utility.yul\":5366:5382   */\n      add\n        /* \"#utility.yul\":5331:5396   */\n      tag_354\n      jump\t// in\n    tag_484:\n        /* \"#utility.yul\":5421:5450   */\n      tag_485\n        /* \"#utility.yul\":5443:5449   */\n      dup2\n        /* \"#utility.yul\":5421:5450   */\n      tag_338\n      jump\t// in\n    tag_485:\n        /* \"#utility.yul\":5416:5419   */\n      dup5\n        /* \"#utility.yul\":5412:5451   */\n      add\n        /* \"#utility.yul\":5405:5451   */\n      swap2\n      pop\n        /* \"#utility.yul\":5182:5457   */\n      pop\n        /* \"#utility.yul\":5100:5457   */\n      swap3\n      swap2\n      pop\n      pop\n      jump\t// out\n        /* \"#utility.yul\":5529:6325   */\n    tag_356:\n        /* \"#utility.yul\":5654:5657   */\n      0x00\n        /* \"#utility.yul\":5690:5694   */\n      0x60\n        /* \"#utility.yul\":5685:5688   */\n      dup4\n        /* \"#utility.yul\":5681:5695   */\n      add\n        /* \"#utility.yul\":5776:5780   */\n      0x00\n        /* \"#utility.yul\":5769:5774   */\n      dup4\n        /* \"#utility.yul\":5765:5781   */\n      add\n        /* \"#utility.yul\":5759:5782   */\n      mload\n        /* \"#utility.yul\":5795:5858   */\n      tag_487\n        /* \"#utility.yul\":5852:5856   */\n      0x00\n        /* \"#utility.yul\":5847:5850   */\n      dup7\n        /* \"#utility.yul\":5843:5857   */\n      add\n        /* \"#utility.yul\":5829:5841   */\n      dup3\n        /* \"#utility.yul\":5795:5858   */\n      tag_348\n      jump\t// in\n    tag_487:\n        /* \"#utility.yul\":5705:5868   */\n      pop\n        /* \"#utility.yul\":5960:5964   */\n      0x20\n        /* \"#utility.yul\":5953:5958   */\n      dup4\n        /* \"#utility.yul\":5949:5965   */\n      add\n        /* \"#utility.yul\":5943:5966   */\n      mload\n        /* \"#utility.yul\":5979:6042   */\n      tag_488\n        /* \"#utility.yul\":6036:6040   */\n      0x20\n        /* \"#utility.yul\":6031:6034   */\n      dup7\n        /* \"#utility.yul\":6027:6041   */\n      add\n        /* \"#utility.yul\":6013:6025   */\n      dup3\n        /* \"#utility.yul\":5979:6042   */\n      tag_351\n      jump\t// in\n    tag_488:\n        /* \"#utility.yul\":5878:6052   */\n      pop\n        /* \"#utility.yul\":6135:6139   */\n      0x40\n        /* \"#utility.yul\":6128:6133   */\n      dup4\n        /* \"#utility.yul\":6124:6140   */\n      add\n        /* \"#utility.yul\":6118:6141   */\n      mload\n        /* \"#utility.yul\":6188:6191   */\n      dup5\n        /* \"#utility.yul\":6182:6186   */\n      dup3\n        /* \"#utility.yul\":6178:6192   */\n      sub\n        /* \"#utility.yul\":6171:6175   */\n      0x40\n        /* \"#utility.yul\":6166:6169   */\n      dup7\n        /* \"#utility.yul\":6162:6176   */\n      add\n        /* \"#utility.yul\":6155:6193   */\n      mstore\n        /* \"#utility.yul\":6214:6287   */\n      tag_489\n        /* \"#utility.yul\":6282:6286   */\n      dup3\n        /* \"#utility.yul\":6268:6280   */\n      dup3\n        /* \"#utility.yul\":6214:6287   */\n      tag_355\n      jump\t// in\n    tag_489:\n        /* \"#utility.yul\":6206:6287   */\n      swap2\n      pop\n        /* \"#utility.yul\":6062:6298   */\n      pop\n        /* \"#utility.yul\":6315:6319   */\n      dup1\n        /* \"#utility.yul\":6308:6319   */\n      swap2\n      pop\n        /* \"#utility.yul\":5659:6325   */\n      pop\n        /* \"#utility.yul\":5529:6325   */\n      swap3\n      swap2\n      pop\n      pop\n      jump\t// out\n        /* \"#utility.yul\":6331:6619   */\n    tag_357:\n        /* \"#utility.yul\":6466:6476   */\n      0x00\n        /* \"#utility.yul\":6501:6613   */\n      tag_491\n        /* \"#utility.yul\":6609:6612   */\n      dup4\n        /* \"#utility.yul\":6601:6607   */\n      dup4\n        /* \"#utility.yul\":6501:6613   */\n      tag_356\n      jump\t// in\n    tag_491:\n        /* \"#utility.yul\":6487:6613   */\n      swap1\n      pop\n        /* \"#utility.yul\":6331:6619   */\n      swap3\n      swap2\n      pop\n      pop\n      jump\t// out\n        /* \"#utility.yul\":6625:6771   */\n    tag_358:\n        /* \"#utility.yul\":6728:6732   */\n      0x00\n        /* \"#utility.yul\":6760:6764   */\n      0x20\n        /* \"#utility.yul\":6755:6758   */\n      dup3\n        /* \"#utility.yul\":6751:6765   */\n      add\n        /* \"#utility.yul\":6743:6765   */\n      swap1\n      pop\n        /* \"#utility.yul\":6625:6771   */\n      swap2\n      swap1\n      pop\n      jump\t// out\n        /* \"#utility.yul\":6847:8022   */\n    tag_359:\n        /* \"#utility.yul\":7032:7035   */\n      0x00\n        /* \"#utility.yul\":7061:7148   */\n      tag_494\n        /* \"#utility.yul\":7142:7147   */\n      dup3\n        /* \"#utility.yul\":7061:7148   */\n      tag_345\n      jump\t// in\n    tag_494:\n        /* \"#utility.yul\":7164:7283   */\n      tag_495\n        /* \"#utility.yul\":7276:7282   */\n      dup2\n        /* \"#utility.yul\":7271:7274   */\n      dup6\n        /* \"#utility.yul\":7164:7283   */\n      tag_346\n      jump\t// in\n    tag_495:\n        /* \"#utility.yul\":7157:7283   */\n      swap4\n      pop\n        /* \"#utility.yul\":7309:7312   */\n      dup4\n        /* \"#utility.yul\":7354:7358   */\n      0x20\n        /* \"#utility.yul\":7346:7352   */\n      dup3\n        /* \"#utility.yul\":7342:7359   */\n      mul\n        /* \"#utility.yul\":7337:7340   */\n      dup6\n        /* \"#utility.yul\":7333:7360   */\n      add\n        /* \"#utility.yul\":7384:7473   */\n      tag_496\n        /* \"#utility.yul\":7467:7472   */\n      dup6\n        /* \"#utility.yul\":7384:7473   */\n      tag_347\n      jump\t// in\n    tag_496:\n        /* \"#utility.yul\":7496:7503   */\n      dup1\n        /* \"#utility.yul\":7527:7528   */\n      0x00\n        /* \"#utility.yul\":7512:7977   */\n    tag_497:\n        /* \"#utility.yul\":7537:7543   */\n      dup6\n        /* \"#utility.yul\":7534:7535   */\n      dup2\n        /* \"#utility.yul\":7531:7544   */\n      lt\n        /* \"#utility.yul\":7512:7977   */\n      iszero\n      tag_499\n      jumpi\n        /* \"#utility.yul\":7608:7617   */\n      dup5\n        /* \"#utility.yul\":7602:7606   */\n      dup5\n        /* \"#utility.yul\":7598:7618   */\n      sub\n        /* \"#utility.yul\":7593:7596   */\n      dup10\n        /* \"#utility.yul\":7586:7619   */\n      mstore\n        /* \"#utility.yul\":7659:7665   */\n      dup2\n        /* \"#utility.yul\":7653:7666   */\n      mload\n        /* \"#utility.yul\":7687:7817   */\n      tag_500\n        /* \"#utility.yul\":7812:7816   */\n      dup6\n        /* \"#utility.yul\":7797:7810   */\n      dup3\n        /* \"#utility.yul\":7687:7817   */\n      tag_357\n      jump\t// in\n    tag_500:\n        /* \"#utility.yul\":7679:7817   */\n      swap5\n      pop\n        /* \"#utility.yul\":7840:7933   */\n      tag_501\n        /* \"#utility.yul\":7926:7932   */\n      dup4\n        /* \"#utility.yul\":7840:7933   */\n      tag_358\n      jump\t// in\n    tag_501:\n        /* \"#utility.yul\":7830:7933   */\n      swap3\n      pop\n        /* \"#utility.yul\":7962:7966   */\n      0x20\n        /* \"#utility.yul\":7957:7960   */\n      dup11\n        /* \"#utility.yul\":7953:7967   */\n      add\n        /* \"#utility.yul\":7946:7967   */\n      swap10\n      pop\n        /* \"#utility.yul\":7572:7977   */\n      pop\n        /* \"#utility.yul\":7559:7560   */\n      0x01\n        /* \"#utility.yul\":7556:7557   */\n      dup2\n        /* \"#utility.yul\":7552:7561   */\n      add\n        /* \"#utility.yul\":7547:7561   */\n      swap1\n      pop\n        /* \"#utility.yul\":7512:7977   */\n      jump(tag_497)\n    tag_499:\n        /* \"#utility.yul\":7516:7530   */\n      pop\n        /* \"#utility.yul\":7993:7997   */\n      dup3\n        /* \"#utility.yul\":7986:7997   */\n      swap8\n      pop\n        /* \"#utility.yul\":8013:8016   */\n      dup8\n        /* \"#utility.yul\":8006:8016   */\n      swap6\n      pop\n        /* \"#utility.yul\":7037:8022   */\n      pop\n      pop\n      pop\n      pop\n      pop\n        /* \"#utility.yul\":6847:8022   */\n      swap3\n      swap2\n      pop\n      pop\n      jump\t// out\n        /* \"#utility.yul\":8028:8533   */\n    tag_29:\n        /* \"#utility.yul\":8237:8241   */\n      0x00\n        /* \"#utility.yul\":8275:8277   */\n      0x20\n        /* \"#utility.yul\":8264:8273   */\n      dup3\n        /* \"#utility.yul\":8260:8278   */\n      add\n        /* \"#utility.yul\":8252:8278   */\n      swap1\n      pop\n        /* \"#utility.yul\":8324:8333   */\n      dup2\n        /* \"#utility.yul\":8318:8322   */\n      dup2\n        /* \"#utility.yul\":8314:8334   */\n      sub\n        /* \"#utility.yul\":8310:8311   */\n      0x00\n        /* \"#utility.yul\":8299:8308   */\n      dup4\n        /* \"#utility.yul\":8295:8312   */\n      add\n        /* \"#utility.yul\":8288:8335   */\n      mstore\n        /* \"#utility.yul\":8352:8526   */\n      tag_503\n        /* \"#utility.yul\":8521:8525   */\n      dup2\n        /* \"#utility.yul\":8512:8518   */\n      dup5\n        /* \"#utility.yul\":8352:8526   */\n      tag_359\n      jump\t// in\n    tag_503:\n        /* \"#utility.yul\":8344:8526   */\n      swap1\n      pop\n        /* \"#utility.yul\":8028:8533   */\n      swap3\n      swap2\n      pop\n      pop\n      jump\t// out\n        /* \"#utility.yul\":8539:8661   */\n    tag_360:\n        /* \"#utility.yul\":8612:8636   */\n      tag_505\n        /* \"#utility.yul\":8630:8635   */\n      dup2\n        /* \"#utility.yul\":8612:8636   */\n      tag_350\n      jump\t// in\n    tag_505:\n        /* \"#utility.yul\":8605:8610   */\n      dup2\n        /* \"#utility.yul\":8602:8637   */\n      eq\n        /* \"#utility.yul\":8592:8655   */\n      tag_506\n      jumpi\n        /* \"#utility.yul\":8651:8652   */\n      0x00\n        /* \"#utility.yul\":8648:8649   */\n      dup1\n        /* \"#utility.yul\":8641:8653   */\n      revert\n        /* \"#utility.yul\":8592:8655   */\n    tag_506:\n        /* \"#utility.yul\":8539:8661   */\n      pop\n      jump\t// out\n        /* \"#utility.yul\":8667:8806   */\n    tag_361:\n        /* \"#utility.yul\":8713:8718   */\n      0x00\n        /* \"#utility.yul\":8751:8757   */\n      dup2\n        /* \"#utility.yul\":8738:8758   */\n      calldataload\n        /* \"#utility.yul\":8729:8758   */\n      swap1\n      pop\n        /* \"#utility.yul\":8767:8800   */\n      tag_508\n        /* \"#utility.yul\":8794:8799   */\n      dup2\n        /* \"#utility.yul\":8767:8800   */\n      tag_360\n      jump\t// in\n    tag_508:\n        /* \"#utility.yul\":8667:8806   */\n      swap3\n      swap2\n      pop\n      pop\n      jump\t// out\n        /* \"#utility.yul\":8812:9141   */\n    tag_32:\n        /* \"#utility.yul\":8871:8877   */\n      0x00\n        /* \"#utility.yul\":8920:8922   */\n      0x20\n        /* \"#utility.yul\":8908:8917   */\n      dup3\n        /* \"#utility.yul\":8899:8906   */\n      dup5\n        /* \"#utility.yul\":8895:8918   */\n      sub\n        /* \"#utility.yul\":8891:8923   */\n      slt\n        /* \"#utility.yul\":8888:9007   */\n      iszero\n      tag_510\n      jumpi\n        /* \"#utility.yul\":8926:9005   */\n      tag_511\n      tag_331\n      jump\t// in\n    tag_511:\n        /* \"#utility.yul\":8888:9007   */\n    tag_510:\n        /* \"#utility.yul\":9046:9047   */\n      0x00\n        /* \"#utility.yul\":9071:9124   */\n      tag_512\n        /* \"#utility.yul\":9116:9123   */\n      dup5\n        /* \"#utility.yul\":9107:9113   */\n      dup3\n        /* \"#utility.yul\":9096:9105   */\n      dup6\n        /* \"#utility.yul\":9092:9114   */\n      add\n        /* \"#utility.yul\":9071:9124   */\n      tag_361\n      jump\t// in\n    tag_512:\n        /* \"#utility.yul\":9061:9124   */\n      swap2\n      pop\n        /* \"#utility.yul\":9017:9134   */\n      pop\n        /* \"#utility.yul\":8812:9141   */\n      swap3\n      swap2\n      pop\n      pop\n      jump\t// out\n        /* \"#utility.yul\":9147:9224   */\n    tag_362:\n        /* \"#utility.yul\":9184:9191   */\n      0x00\n        /* \"#utility.yul\":9213:9218   */\n      dup2\n        /* \"#utility.yul\":9202:9218   */\n      swap1\n      pop\n        /* \"#utility.yul\":9147:9224   */\n      swap2\n      swap1\n      pop\n      jump\t// out\n        /* \"#utility.yul\":9230:9348   */\n    tag_363:\n        /* \"#utility.yul\":9317:9341   */\n      tag_515\n        /* \"#utility.yul\":9335:9340   */\n      dup2\n        /* \"#utility.yul\":9317:9341   */\n      tag_362\n      jump\t// in\n    tag_515:\n        /* \"#utility.yul\":9312:9315   */\n      dup3\n        /* \"#utility.yul\":9305:9342   */\n      mstore\n        /* \"#utility.yul\":9230:9348   */\n      pop\n      pop\n      jump\t// out\n        /* \"#utility.yul\":9354:9576   */\n    tag_35:\n        /* \"#utility.yul\":9447:9451   */\n      0x00\n        /* \"#utility.yul\":9485:9487   */\n      0x20\n        /* \"#utility.yul\":9474:9483   */\n      dup3\n        /* \"#utility.yul\":9470:9488   */\n      add\n        /* \"#utility.yul\":9462:9488   */\n      swap1\n      pop\n        /* \"#utility.yul\":9498:9569   */\n      tag_517\n        /* \"#utility.yul\":9566:9567   */\n      0x00\n        /* \"#utility.yul\":9555:9564   */\n      dup4\n        /* \"#utility.yul\":9551:9568   */\n      add\n        /* \"#utility.yul\":9542:9548   */\n      dup5\n        /* \"#utility.yul\":9498:9569   */\n      tag_363\n      jump\t// in\n    tag_517:\n        /* \"#utility.yul\":9354:9576   */\n      swap3\n      swap2\n      pop\n      pop\n      jump\t// out\n        /* \"#utility.yul\":9582:9911   */\n    tag_43:\n        /* \"#utility.yul\":9641:9647   */\n      0x00\n        /* \"#utility.yul\":9690:9692   */\n      0x20\n        /* \"#utility.yul\":9678:9687   */\n      dup3\n        /* \"#utility.yul\":9669:9676   */\n      dup5\n        /* \"#utility.yul\":9665:9688   */\n      sub\n        /* \"#utility.yul\":9661:9693   */\n      slt\n        /* \"#utility.yul\":9658:9777   */\n      iszero\n      tag_519\n      jumpi\n        /* \"#utility.yul\":9696:9775   */\n      tag_520\n      tag_331\n      jump\t// in\n    tag_520:\n        /* \"#utility.yul\":9658:9777   */\n    tag_519:\n        /* \"#utility.yul\":9816:9817   */\n      0x00\n        /* \"#utility.yul\":9841:9894   */\n      tag_521\n        /* \"#utility.yul\":9886:9893   */\n      dup5\n        /* \"#utility.yul\":9877:9883   */\n      dup3\n        /* \"#utility.yul\":9866:9875   */\n      dup6\n        /* \"#utility.yul\":9862:9884   */\n      add\n        /* \"#utility.yul\":9841:9894   */\n      tag_335\n      jump\t// in\n    tag_521:\n        /* \"#utility.yul\":9831:9894   */\n      swap2\n      pop\n        /* \"#utility.yul\":9787:9904   */\n      pop\n        /* \"#utility.yul\":9582:9911   */\n      swap3\n      swap2\n      pop\n      pop\n      jump\t// out\n        /* \"#utility.yul\":9917:10035   */\n    tag_364:\n        /* \"#utility.yul\":10004:10028   */\n      tag_523\n        /* \"#utility.yul\":10022:10027   */\n      dup2\n        /* \"#utility.yul\":10004:10028   */\n      tag_333\n      jump\t// in\n    tag_523:\n        /* \"#utility.yul\":9999:10002   */\n      dup3\n        /* \"#utility.yul\":9992:10029   */\n      mstore\n        /* \"#utility.yul\":9917:10035   */\n      pop\n      pop\n      jump\t// out\n        /* \"#utility.yul\":10041:10159   */\n    tag_365:\n        /* \"#utility.yul\":10128:10152   */\n      tag_525\n        /* \"#utility.yul\":10146:10151   */\n      dup2\n        /* \"#utility.yul\":10128:10152   */\n      tag_350\n      jump\t// in\n    tag_525:\n        /* \"#utility.yul\":10123:10126   */\n      dup3\n        /* \"#utility.yul\":10116:10153   */\n      mstore\n        /* \"#utility.yul\":10041:10159   */\n      pop\n      pop\n      jump\t// out\n        /* \"#utility.yul\":10165:10334   */\n    tag_366:\n        /* \"#utility.yul\":10249:10260   */\n      0x00\n        /* \"#utility.yul\":10283:10289   */\n      dup3\n        /* \"#utility.yul\":10278:10281   */\n      dup3\n        /* \"#utility.yul\":10271:10290   */\n      mstore\n        /* \"#utility.yul\":10323:10327   */\n      0x20\n        /* \"#utility.yul\":10318:10321   */\n      dup3\n        /* \"#utility.yul\":10314:10328   */\n      add\n        /* \"#utility.yul\":10299:10328   */\n      swap1\n      pop\n        /* \"#utility.yul\":10165:10334   */\n      swap3\n      swap2\n      pop\n      pop\n      jump\t// out\n        /* \"#utility.yul\":10340:10717   */\n    tag_367:\n        /* \"#utility.yul\":10428:10431   */\n      0x00\n        /* \"#utility.yul\":10456:10495   */\n      tag_528\n        /* \"#utility.yul\":10489:10494   */\n      dup3\n        /* \"#utility.yul\":10456:10495   */\n      tag_352\n      jump\t// in\n    tag_528:\n        /* \"#utility.yul\":10511:10582   */\n      tag_529\n        /* \"#utility.yul\":10575:10581   */\n      dup2\n        /* \"#utility.yul\":10570:10573   */\n      dup6\n        /* \"#utility.yul\":10511:10582   */\n      tag_366\n      jump\t// in\n    tag_529:\n        /* \"#utility.yul\":10504:10582   */\n      swap4\n      pop\n        /* \"#utility.yul\":10591:10656   */\n      tag_530\n        /* \"#utility.yul\":10649:10655   */\n      dup2\n        /* \"#utility.yul\":10644:10647   */\n      dup6\n        /* \"#utility.yul\":10637:10641   */\n      0x20\n        /* \"#utility.yul\":10630:10635   */\n      dup7\n        /* \"#utility.yul\":10626:10642   */\n      add\n        /* \"#utility.yul\":10591:10656   */\n      tag_354\n      jump\t// in\n    tag_530:\n        /* \"#utility.yul\":10681:10710   */\n      tag_531\n        /* \"#utility.yul\":10703:10709   */\n      dup2\n        /* \"#utility.yul\":10681:10710   */\n      tag_338\n      jump\t// in\n    tag_531:\n        /* \"#utility.yul\":10676:10679   */\n      dup5\n        /* \"#utility.yul\":10672:10711   */\n      add\n        /* \"#utility.yul\":10665:10711   */\n      swap2\n      pop\n        /* \"#utility.yul\":10432:10717   */\n      pop\n        /* \"#utility.yul\":10340:10717   */\n      swap3\n      swap2\n      pop\n      pop\n      jump\t// out\n        /* \"#utility.yul\":10723:11256   */\n    tag_46:\n        /* \"#utility.yul\":10892:10896   */\n      0x00\n        /* \"#utility.yul\":10930:10932   */\n      0x60\n        /* \"#utility.yul\":10919:10928   */\n      dup3\n        /* \"#utility.yul\":10915:10933   */\n      add\n        /* \"#utility.yul\":10907:10933   */\n      swap1\n      pop\n        /* \"#utility.yul\":10943:11014   */\n      tag_533\n        /* \"#utility.yul\":11011:11012   */\n      0x00\n        /* \"#utility.yul\":11000:11009   */\n      dup4\n        /* \"#utility.yul\":10996:11013   */\n      add\n        /* \"#utility.yul\":10987:10993   */\n      dup7\n        /* \"#utility.yul\":10943:11014   */\n      tag_364\n      jump\t// in\n    tag_533:\n        /* \"#utility.yul\":11024:11096   */\n      tag_534\n        /* \"#utility.yul\":11092:11094   */\n      0x20\n        /* \"#utility.yul\":11081:11090   */\n      dup4\n        /* \"#utility.yul\":11077:11095   */\n      add\n        /* \"#utility.yul\":11068:11074   */\n      dup6\n        /* \"#utility.yul\":11024:11096   */\n      tag_365\n      jump\t// in\n    tag_534:\n        /* \"#utility.yul\":11143:11152   */\n      dup2\n        /* \"#utility.yul\":11137:11141   */\n      dup2\n        /* \"#utility.yul\":11133:11153   */\n      sub\n        /* \"#utility.yul\":11128:11130   */\n      0x40\n        /* \"#utility.yul\":11117:11126   */\n      dup4\n        /* \"#utility.yul\":11113:11131   */\n      add\n        /* \"#utility.yul\":11106:11154   */\n      mstore\n        /* \"#utility.yul\":11171:11249   */\n      tag_535\n        /* \"#utility.yul\":11244:11248   */\n      dup2\n        /* \"#utility.yul\":11235:11241   */\n      dup5\n        /* \"#utility.yul\":11171:11249   */\n      tag_367\n      jump\t// in\n    tag_535:\n        /* \"#utility.yul\":11163:11249   */\n      swap1\n      pop\n        /* \"#utility.yul\":10723:11256   */\n      swap5\n      swap4\n      pop\n      pop\n      pop\n      pop\n      jump\t// out\n        /* \"#utility.yul\":11262:11575   */\n    tag_50:\n        /* \"#utility.yul\":11375:11379   */\n      0x00\n        /* \"#utility.yul\":11413:11415   */\n      0x20\n        /* \"#utility.yul\":11402:11411   */\n      dup3\n        /* \"#utility.yul\":11398:11416   */\n      add\n        /* \"#utility.yul\":11390:11416   */\n      swap1\n      pop\n        /* \"#utility.yul\":11462:11471   */\n      dup2\n        /* \"#utility.yul\":11456:11460   */\n      dup2\n        /* \"#utility.yul\":11452:11472   */\n      sub\n        /* \"#utility.yul\":11448:11449   */\n      0x00\n        /* \"#utility.yul\":11437:11446   */\n      dup4\n        /* \"#utility.yul\":11433:11450   */\n      add\n        /* \"#utility.yul\":11426:11473   */\n      mstore\n        /* \"#utility.yul\":11490:11568   */\n      tag_537\n        /* \"#utility.yul\":11563:11567   */\n      dup2\n        /* \"#utility.yul\":11554:11560   */\n      dup5\n        /* \"#utility.yul\":11490:11568   */\n      tag_367\n      jump\t// in\n    tag_537:\n        /* \"#utility.yul\":11482:11568   */\n      swap1\n      pop\n        /* \"#utility.yul\":11262:11575   */\n      swap3\n      swap2\n      pop\n      pop\n      jump\t// out\n        /* \"#utility.yul\":11581:12415   */\n    tag_53:\n        /* \"#utility.yul\":11669:11675   */\n      0x00\n        /* \"#utility.yul\":11677:11683   */\n      dup1\n        /* \"#utility.yul\":11726:11728   */\n      0x40\n        /* \"#utility.yul\":11714:11723   */\n      dup4\n        /* \"#utility.yul\":11705:11712   */\n      dup6\n        /* \"#utility.yul\":11701:11724   */\n      sub\n        /* \"#utility.yul\":11697:11729   */\n      slt\n        /* \"#utility.yul\":11694:11813   */\n      iszero\n      tag_539\n      jumpi\n        /* \"#utility.yul\":11732:11811   */\n      tag_540\n      tag_331\n      jump\t// in\n    tag_540:\n        /* \"#utility.yul\":11694:11813   */\n    tag_539:\n        /* \"#utility.yul\":11880:11881   */\n      0x00\n        /* \"#utility.yul\":11869:11878   */\n      dup4\n        /* \"#utility.yul\":11865:11882   */\n      add\n        /* \"#utility.yul\":11852:11883   */\n      calldataload\n        /* \"#utility.yul\":11910:11928   */\n      0xffffffffffffffff\n        /* \"#utility.yul\":11902:11908   */\n      dup2\n        /* \"#utility.yul\":11899:11929   */\n      gt\n        /* \"#utility.yul\":11896:12013   */\n      iszero\n      tag_541\n      jumpi\n        /* \"#utility.yul\":11932:12011   */\n      tag_542\n      tag_332\n      jump\t// in\n    tag_542:\n        /* \"#utility.yul\":11896:12013   */\n    tag_541:\n        /* \"#utility.yul\":12037:12100   */\n      tag_543\n        /* \"#utility.yul\":12092:12099   */\n      dup6\n        /* \"#utility.yul\":12083:12089   */\n      dup3\n        /* \"#utility.yul\":12072:12081   */\n      dup7\n        /* \"#utility.yul\":12068:12090   */\n      add\n        /* \"#utility.yul\":12037:12100   */\n      tag_344\n      jump\t// in\n    tag_543:\n        /* \"#utility.yul\":12027:12100   */\n      swap3\n      pop\n        /* \"#utility.yul\":11823:12110   */\n      pop\n        /* \"#utility.yul\":12177:12179   */\n      0x20\n        /* \"#utility.yul\":12166:12175   */\n      dup4\n        /* \"#utility.yul\":12162:12180   */\n      add\n        /* \"#utility.yul\":12149:12181   */\n      calldataload\n        /* \"#utility.yul\":12208:12226   */\n      0xffffffffffffffff\n        /* \"#utility.yul\":12200:12206   */\n      dup2\n        /* \"#utility.yul\":12197:12227   */\n      gt\n        /* \"#utility.yul\":12194:12311   */\n      iszero\n      tag_544\n      jumpi\n        /* \"#utility.yul\":12230:12309   */\n      tag_545\n      tag_332\n      jump\t// in\n    tag_545:\n        /* \"#utility.yul\":12194:12311   */\n    tag_544:\n        /* \"#utility.yul\":12335:12398   */\n      tag_546\n        /* \"#utility.yul\":12390:12397   */\n      dup6\n        /* \"#utility.yul\":12381:12387   */\n      dup3\n        /* \"#utility.yul\":12370:12379   */\n      dup7\n        /* \"#utility.yul\":12366:12388   */\n      add\n        /* \"#utility.yul\":12335:12398   */\n      tag_344\n      jump\t// in\n    tag_546:\n        /* \"#utility.yul\":12325:12398   */\n      swap2\n      pop\n        /* \"#utility.yul\":12120:12408   */\n      pop\n        /* \"#utility.yul\":11581:12415   */\n      swap3\n      pop\n      swap3\n      swap1\n      pop\n      jump\t// out\n        /* \"#utility.yul\":12421:12954   */\n    tag_59:\n        /* \"#utility.yul\":12590:12594   */\n      0x00\n        /* \"#utility.yul\":12628:12630   */\n      0x60\n        /* \"#utility.yul\":12617:12626   */\n      dup3\n        /* \"#utility.yul\":12613:12631   */\n      add\n        /* \"#utility.yul\":12605:12631   */\n      swap1\n      pop\n        /* \"#utility.yul\":12641:12712   */\n      tag_548\n        /* \"#utility.yul\":12709:12710   */\n      0x00\n        /* \"#utility.yul\":12698:12707   */\n      dup4\n        /* \"#utility.yul\":12694:12711   */\n      add\n        /* \"#utility.yul\":12685:12691   */\n      dup7\n        /* \"#utility.yul\":12641:12712   */\n      tag_365\n      jump\t// in\n    tag_548:\n        /* \"#utility.yul\":12722:12794   */\n      tag_549\n        /* \"#utility.yul\":12790:12792   */\n      0x20\n        /* \"#utility.yul\":12779:12788   */\n      dup4\n        /* \"#utility.yul\":12775:12793   */\n      add\n        /* \"#utility.yul\":12766:12772   */\n      dup6\n        /* \"#utility.yul\":12722:12794   */\n      tag_364\n      jump\t// in\n    tag_549:\n        /* \"#utility.yul\":12841:12850   */\n      dup2\n        /* \"#utility.yul\":12835:12839   */\n      dup2\n        /* \"#utility.yul\":12831:12851   */\n      sub\n        /* \"#utility.yul\":12826:12828   */\n      0x40\n        /* \"#utility.yul\":12815:12824   */\n      dup4\n        /* \"#utility.yul\":12811:12829   */\n      add\n        /* \"#utility.yul\":12804:12852   */\n      mstore\n        /* \"#utility.yul\":12869:12947   */\n      tag_550\n        /* \"#utility.yul\":12942:12946   */\n      dup2\n        /* \"#utility.yul\":12933:12939   */\n      dup5\n        /* \"#utility.yul\":12869:12947   */\n      tag_367\n      jump\t// in\n    tag_550:\n        /* \"#utility.yul\":12861:12947   */\n      swap1\n      pop\n        /* \"#utility.yul\":12421:12954   */\n      swap5\n      swap4\n      pop\n      pop\n      pop\n      pop\n      jump\t// out\n        /* \"#utility.yul\":12960:13182   */\n    tag_67:\n        /* \"#utility.yul\":13053:13057   */\n      0x00\n        /* \"#utility.yul\":13091:13093   */\n      0x20\n        /* \"#utility.yul\":13080:13089   */\n      dup3\n        /* \"#utility.yul\":13076:13094   */\n      add\n        /* \"#utility.yul\":13068:13094   */\n      swap1\n      pop\n        /* \"#utility.yul\":13104:13175   */\n      tag_552\n        /* \"#utility.yul\":13172:13173   */\n      0x00\n        /* \"#utility.yul\":13161:13170   */\n      dup4\n        /* \"#utility.yul\":13157:13174   */\n      add\n        /* \"#utility.yul\":13148:13154   */\n      dup5\n        /* \"#utility.yul\":13104:13175   */\n      tag_365\n      jump\t// in\n    tag_552:\n        /* \"#utility.yul\":12960:13182   */\n      swap3\n      swap2\n      pop\n      pop\n      jump\t// out\n        /* \"#utility.yul\":13188:13702   */\n    tag_73:\n        /* \"#utility.yul\":13349:13353   */\n      0x00\n        /* \"#utility.yul\":13387:13389   */\n      0x40\n        /* \"#utility.yul\":13376:13385   */\n      dup3\n        /* \"#utility.yul\":13372:13390   */\n      add\n        /* \"#utility.yul\":13364:13390   */\n      swap1\n      pop\n        /* \"#utility.yul\":13436:13445   */\n      dup2\n        /* \"#utility.yul\":13430:13434   */\n      dup2\n        /* \"#utility.yul\":13426:13446   */\n      sub\n        /* \"#utility.yul\":13422:13423   */\n      0x00\n        /* \"#utility.yul\":13411:13420   */\n      dup4\n        /* \"#utility.yul\":13407:13424   */\n      add\n        /* \"#utility.yul\":13400:13447   */\n      mstore\n        /* \"#utility.yul\":13464:13542   */\n      tag_554\n        /* \"#utility.yul\":13537:13541   */\n      dup2\n        /* \"#utility.yul\":13528:13534   */\n      dup6\n        /* \"#utility.yul\":13464:13542   */\n      tag_367\n      jump\t// in\n    tag_554:\n        /* \"#utility.yul\":13456:13542   */\n      swap1\n      pop\n        /* \"#utility.yul\":13589:13598   */\n      dup2\n        /* \"#utility.yul\":13583:13587   */\n      dup2\n        /* \"#utility.yul\":13579:13599   */\n      sub\n        /* \"#utility.yul\":13574:13576   */\n      0x20\n        /* \"#utility.yul\":13563:13572   */\n      dup4\n        /* \"#utility.yul\":13559:13577   */\n      add\n        /* \"#utility.yul\":13552:13600   */\n      mstore\n        /* \"#utility.yul\":13617:13695   */\n      tag_555\n        /* \"#utility.yul\":13690:13694   */\n      dup2\n        /* \"#utility.yul\":13681:13687   */\n      dup5\n        /* \"#utility.yul\":13617:13695   */\n      tag_367\n      jump\t// in\n    tag_555:\n        /* \"#utility.yul\":13609:13695   */\n      swap1\n      pop\n        /* \"#utility.yul\":13188:13702   */\n      swap4\n      swap3\n      pop\n      pop\n      pop\n      jump\t// out\n        /* \"#utility.yul\":13708:13846   */\n    tag_368:\n        /* \"#utility.yul\":13799:13805   */\n      0x00\n        /* \"#utility.yul\":13833:13838   */\n      dup2\n        /* \"#utility.yul\":13827:13839   */\n      mload\n        /* \"#utility.yul\":13817:13839   */\n      swap1\n      pop\n        /* \"#utility.yul\":13708:13846   */\n      swap2\n      swap1\n      pop\n      jump\t// out\n        /* \"#utility.yul\":13852:14060   */\n    tag_369:\n        /* \"#utility.yul\":13975:13986   */\n      0x00\n        /* \"#utility.yul\":14009:14015   */\n      dup3\n        /* \"#utility.yul\":14004:14007   */\n      dup3\n        /* \"#utility.yul\":13997:14016   */\n      mstore\n        /* \"#utility.yul\":14049:14053   */\n      0x20\n        /* \"#utility.yul\":14044:14047   */\n      dup3\n        /* \"#utility.yul\":14040:14054   */\n      add\n        /* \"#utility.yul\":14025:14054   */\n      swap1\n      pop\n        /* \"#utility.yul\":13852:14060   */\n      swap3\n      swap2\n      pop\n      pop\n      jump\t// out\n        /* \"#utility.yul\":14066:14222   */\n    tag_370:\n        /* \"#utility.yul\":14157:14161   */\n      0x00\n        /* \"#utility.yul\":14180:14183   */\n      dup2\n        /* \"#utility.yul\":14172:14183   */\n      swap1\n      pop\n        /* \"#utility.yul\":14210:14214   */\n      0x20\n        /* \"#utility.yul\":14205:14208   */\n      dup3\n        /* \"#utility.yul\":14201:14215   */\n      add\n        /* \"#utility.yul\":14193:14215   */\n      swap1\n      pop\n        /* \"#utility.yul\":14066:14222   */\n      swap2\n      swap1\n      pop\n      jump\t// out\n        /* \"#utility.yul\":14276:15053   */\n    tag_371:\n        /* \"#utility.yul\":14383:14386   */\n      0x00\n        /* \"#utility.yul\":14419:14423   */\n      0x60\n        /* \"#utility.yul\":14414:14417   */\n      dup4\n        /* \"#utility.yul\":14410:14424   */\n      add\n        /* \"#utility.yul\":14515:14519   */\n      0x00\n        /* \"#utility.yul\":14508:14513   */\n      dup4\n        /* \"#utility.yul\":14504:14520   */\n      add\n        /* \"#utility.yul\":14498:14521   */\n      mload\n        /* \"#utility.yul\":14534:14597   */\n      tag_560\n        /* \"#utility.yul\":14591:14595   */\n      0x00\n        /* \"#utility.yul\":14586:14589   */\n      dup7\n        /* \"#utility.yul\":14582:14596   */\n      add\n        /* \"#utility.yul\":14568:14580   */\n      dup3\n        /* \"#utility.yul\":14534:14597   */\n      tag_351\n      jump\t// in\n    tag_560:\n        /* \"#utility.yul\":14434:14607   */\n      pop\n        /* \"#utility.yul\":14688:14692   */\n      0x20\n        /* \"#utility.yul\":14681:14686   */\n      dup4\n        /* \"#utility.yul\":14677:14693   */\n      add\n        /* \"#utility.yul\":14671:14694   */\n      mload\n        /* \"#utility.yul\":14707:14770   */\n      tag_561\n        /* \"#utility.yul\":14764:14768   */\n      0x20\n        /* \"#utility.yul\":14759:14762   */\n      dup7\n        /* \"#utility.yul\":14755:14769   */\n      add\n        /* \"#utility.yul\":14741:14753   */\n      dup3\n        /* \"#utility.yul\":14707:14770   */\n      tag_348\n      jump\t// in\n    tag_561:\n        /* \"#utility.yul\":14617:14780   */\n      pop\n        /* \"#utility.yul\":14863:14867   */\n      0x40\n        /* \"#utility.yul\":14856:14861   */\n      dup4\n        /* \"#utility.yul\":14852:14868   */\n      add\n        /* \"#utility.yul\":14846:14869   */\n      mload\n        /* \"#utility.yul\":14916:14919   */\n      dup5\n        /* \"#utility.yul\":14910:14914   */\n      dup3\n        /* \"#utility.yul\":14906:14920   */\n      sub\n        /* \"#utility.yul\":14899:14903   */\n      0x40\n        /* \"#utility.yul\":14894:14897   */\n      dup7\n        /* \"#utility.yul\":14890:14904   */\n      add\n        /* \"#utility.yul\":14883:14921   */\n      mstore\n        /* \"#utility.yul\":14942:15015   */\n      tag_562\n        /* \"#utility.yul\":15010:15014   */\n      dup3\n        /* \"#utility.yul\":14996:15008   */\n      dup3\n        /* \"#utility.yul\":14942:15015   */\n      tag_355\n      jump\t// in\n    tag_562:\n        /* \"#utility.yul\":14934:15015   */\n      swap2\n      pop\n        /* \"#utility.yul\":14790:15026   */\n      pop\n        /* \"#utility.yul\":15043:15047   */\n      dup1\n        /* \"#utility.yul\":15036:15047   */\n      swap2\n      pop\n        /* \"#utility.yul\":14388:15053   */\n      pop\n        /* \"#utility.yul\":14276:15053   */\n      swap3\n      swap2\n      pop\n      pop\n      jump\t// out\n        /* \"#utility.yul\":15059:15311   */\n    tag_372:\n        /* \"#utility.yul\":15176:15186   */\n      0x00\n        /* \"#utility.yul\":15211:15305   */\n      tag_564\n        /* \"#utility.yul\":15301:15304   */\n      dup4\n        /* \"#utility.yul\":15293:15299   */\n      dup4\n        /* \"#utility.yul\":15211:15305   */\n      tag_371\n      jump\t// in\n    tag_564:\n        /* \"#utility.yul\":15197:15305   */\n      swap1\n      pop\n        /* \"#utility.yul\":15059:15311   */\n      swap3\n      swap2\n      pop\n      pop\n      jump\t// out\n        /* \"#utility.yul\":15317:15454   */\n    tag_373:\n        /* \"#utility.yul\":15411:15415   */\n      0x00\n        /* \"#utility.yul\":15443:15447   */\n      0x20\n        /* \"#utility.yul\":15438:15441   */\n      dup3\n        /* \"#utility.yul\":15434:15448   */\n      add\n        /* \"#utility.yul\":15426:15448   */\n      swap1\n      pop\n        /* \"#utility.yul\":15317:15454   */\n      swap2\n      swap1\n      pop\n      jump\t// out\n        /* \"#utility.yul\":15512:16615   */\n    tag_374:\n        /* \"#utility.yul\":15679:15682   */\n      0x00\n        /* \"#utility.yul\":15708:15786   */\n      tag_567\n        /* \"#utility.yul\":15780:15785   */\n      dup3\n        /* \"#utility.yul\":15708:15786   */\n      tag_368\n      jump\t// in\n    tag_567:\n        /* \"#utility.yul\":15802:15912   */\n      tag_568\n        /* \"#utility.yul\":15905:15911   */\n      dup2\n        /* \"#utility.yul\":15900:15903   */\n      dup6\n        /* \"#utility.yul\":15802:15912   */\n      tag_369\n      jump\t// in\n    tag_568:\n        /* \"#utility.yul\":15795:15912   */\n      swap4\n      pop\n        /* \"#utility.yul\":15938:15941   */\n      dup4\n        /* \"#utility.yul\":15983:15987   */\n      0x20\n        /* \"#utility.yul\":15975:15981   */\n      dup3\n        /* \"#utility.yul\":15971:15988   */\n      mul\n        /* \"#utility.yul\":15966:15969   */\n      dup6\n        /* \"#utility.yul\":15962:15989   */\n      add\n        /* \"#utility.yul\":16013:16093   */\n      tag_569\n        /* \"#utility.yul\":16087:16092   */\n      dup6\n        /* \"#utility.yul\":16013:16093   */\n      tag_370\n      jump\t// in\n    tag_569:\n        /* \"#utility.yul\":16116:16123   */\n      dup1\n        /* \"#utility.yul\":16147:16148   */\n      0x00\n        /* \"#utility.yul\":16132:16570   */\n    tag_570:\n        /* \"#utility.yul\":16157:16163   */\n      dup6\n        /* \"#utility.yul\":16154:16155   */\n      dup2\n        /* \"#utility.yul\":16151:16164   */\n      lt\n        /* \"#utility.yul\":16132:16570   */\n      iszero\n      tag_572\n      jumpi\n        /* \"#utility.yul\":16228:16237   */\n      dup5\n        /* \"#utility.yul\":16222:16226   */\n      dup5\n        /* \"#utility.yul\":16218:16238   */\n      sub\n        /* \"#utility.yul\":16213:16216   */\n      dup10\n        /* \"#utility.yul\":16206:16239   */\n      mstore\n        /* \"#utility.yul\":16279:16285   */\n      dup2\n        /* \"#utility.yul\":16273:16286   */\n      mload\n        /* \"#utility.yul\":16307:16419   */\n      tag_573\n        /* \"#utility.yul\":16414:16418   */\n      dup6\n        /* \"#utility.yul\":16399:16412   */\n      dup3\n        /* \"#utility.yul\":16307:16419   */\n      tag_372\n      jump\t// in\n    tag_573:\n        /* \"#utility.yul\":16299:16419   */\n      swap5\n      pop\n        /* \"#utility.yul\":16442:16526   */\n      tag_574\n        /* \"#utility.yul\":16519:16525   */\n      dup4\n        /* \"#utility.yul\":16442:16526   */\n      tag_373\n      jump\t// in\n    tag_574:\n        /* \"#utility.yul\":16432:16526   */\n      swap3\n      pop\n        /* \"#utility.yul\":16555:16559   */\n      0x20\n        /* \"#utility.yul\":16550:16553   */\n      dup11\n        /* \"#utility.yul\":16546:16560   */\n      add\n        /* \"#utility.yul\":16539:16560   */\n      swap10\n      pop\n        /* \"#utility.yul\":16192:16570   */\n      pop\n        /* \"#utility.yul\":16179:16180   */\n      0x01\n        /* \"#utility.yul\":16176:16177   */\n      dup2\n        /* \"#utility.yul\":16172:16181   */\n      add\n        /* \"#utility.yul\":16167:16181   */\n      swap1\n      pop\n        /* \"#utility.yul\":16132:16570   */\n      jump(tag_570)\n    tag_572:\n        /* \"#utility.yul\":16136:16150   */\n      pop\n        /* \"#utility.yul\":16586:16590   */\n      dup3\n        /* \"#utility.yul\":16579:16590   */\n      swap8\n      pop\n        /* \"#utility.yul\":16606:16609   */\n      dup8\n        /* \"#utility.yul\":16599:16609   */\n      swap6\n      pop\n        /* \"#utility.yul\":15684:16615   */\n      pop\n      pop\n      pop\n      pop\n      pop\n        /* \"#utility.yul\":15512:16615   */\n      swap3\n      swap2\n      pop\n      pop\n      jump\t// out\n        /* \"#utility.yul\":16621:17090   */\n    tag_77:\n        /* \"#utility.yul\":16812:16816   */\n      0x00\n        /* \"#utility.yul\":16850:16852   */\n      0x20\n        /* \"#utility.yul\":16839:16848   */\n      dup3\n        /* \"#utility.yul\":16835:16853   */\n      add\n        /* \"#utility.yul\":16827:16853   */\n      swap1\n      pop\n        /* \"#utility.yul\":16899:16908   */\n      dup2\n        /* \"#utility.yul\":16893:16897   */\n      dup2\n        /* \"#utility.yul\":16889:16909   */\n      sub\n        /* \"#utility.yul\":16885:16886   */\n      0x00\n        /* \"#utility.yul\":16874:16883   */\n      dup4\n        /* \"#utility.yul\":16870:16887   */\n      add\n        /* \"#utility.yul\":16863:16910   */\n      mstore\n        /* \"#utility.yul\":16927:17083   */\n      tag_576\n        /* \"#utility.yul\":17078:17082   */\n      dup2\n        /* \"#utility.yul\":17069:17075   */\n      dup5\n        /* \"#utility.yul\":16927:17083   */\n      tag_374\n      jump\t// in\n    tag_576:\n        /* \"#utility.yul\":16919:17083   */\n      swap1\n      pop\n        /* \"#utility.yul\":16621:17090   */\n      swap3\n      swap2\n      pop\n      pop\n      jump\t// out\n        /* \"#utility.yul\":17096:17218   */\n    tag_375:\n        /* \"#utility.yul\":17169:17193   */\n      tag_578\n        /* \"#utility.yul\":17187:17192   */\n      dup2\n        /* \"#utility.yul\":17169:17193   */\n      tag_362\n      jump\t// in\n    tag_578:\n        /* \"#utility.yul\":17162:17167   */\n      dup2\n        /* \"#utility.yul\":17159:17194   */\n      eq\n        /* \"#utility.yul\":17149:17212   */\n      tag_579\n      jumpi\n        /* \"#utility.yul\":17208:17209   */\n      0x00\n        /* \"#utility.yul\":17205:17206   */\n      dup1\n        /* \"#utility.yul\":17198:17210   */\n      revert\n        /* \"#utility.yul\":17149:17212   */\n    tag_579:\n        /* \"#utility.yul\":17096:17218   */\n      pop\n      jump\t// out\n        /* \"#utility.yul\":17224:17363   */\n    tag_376:\n        /* \"#utility.yul\":17270:17275   */\n      0x00\n        /* \"#utility.yul\":17308:17314   */\n      dup2\n        /* \"#utility.yul\":17295:17315   */\n      calldataload\n        /* \"#utility.yul\":17286:17315   */\n      swap1\n      pop\n        /* \"#utility.yul\":17324:17357   */\n      tag_581\n        /* \"#utility.yul\":17351:17356   */\n      dup2\n        /* \"#utility.yul\":17324:17357   */\n      tag_375\n      jump\t// in\n    tag_581:\n        /* \"#utility.yul\":17224:17363   */\n      swap3\n      swap2\n      pop\n      pop\n      jump\t// out\n        /* \"#utility.yul\":17369:17698   */\n    tag_80:\n        /* \"#utility.yul\":17428:17434   */\n      0x00\n        /* \"#utility.yul\":17477:17479   */\n      0x20\n        /* \"#utility.yul\":17465:17474   */\n      dup3\n        /* \"#utility.yul\":17456:17463   */\n      dup5\n        /* \"#utility.yul\":17452:17475   */\n      sub\n        /* \"#utility.yul\":17448:17480   */\n      slt\n        /* \"#utility.yul\":17445:17564   */\n      iszero\n      tag_583\n      jumpi\n        /* \"#utility.yul\":17483:17562   */\n      tag_584\n      tag_331\n      jump\t// in\n    tag_584:\n        /* \"#utility.yul\":17445:17564   */\n    tag_583:\n        /* \"#utility.yul\":17603:17604   */\n      0x00\n        /* \"#utility.yul\":17628:17681   */\n      tag_585\n        /* \"#utility.yul\":17673:17680   */\n      dup5\n        /* \"#utility.yul\":17664:17670   */\n      dup3\n        /* \"#utility.yul\":17653:17662   */\n      dup6\n        /* \"#utility.yul\":17649:17671   */\n      add\n        /* \"#utility.yul\":17628:17681   */\n      tag_376\n      jump\t// in\n    tag_585:\n        /* \"#utility.yul\":17618:17681   */\n      swap2\n      pop\n        /* \"#utility.yul\":17574:17691   */\n      pop\n        /* \"#utility.yul\":17369:17698   */\n      swap3\n      swap2\n      pop\n      pop\n      jump\t// out\n        /* \"#utility.yul\":17704:17885   */\n    tag_377:\n        /* \"#utility.yul\":17844:17877   */\n      0x5468657265206973206e6f20737461727465642061756374696f6e206e6f7700\n        /* \"#utility.yul\":17840:17841   */\n      0x00\n        /* \"#utility.yul\":17832:17838   */\n      dup3\n        /* \"#utility.yul\":17828:17842   */\n      add\n        /* \"#utility.yul\":17821:17878   */\n      mstore\n        /* \"#utility.yul\":17704:17885   */\n      pop\n      jump\t// out\n        /* \"#utility.yul\":17891:18257   */\n    tag_378:\n        /* \"#utility.yul\":18033:18036   */\n      0x00\n        /* \"#utility.yul\":18054:18121   */\n      tag_588\n        /* \"#utility.yul\":18118:18120   */\n      0x1f\n        /* \"#utility.yul\":18113:18116   */\n      dup4\n        /* \"#utility.yul\":18054:18121   */\n      tag_366\n      jump\t// in\n    tag_588:\n        /* \"#utility.yul\":18047:18121   */\n      swap2\n      pop\n        /* \"#utility.yul\":18130:18223   */\n      tag_589\n        /* \"#utility.yul\":18219:18222   */\n      dup3\n        /* \"#utility.yul\":18130:18223   */\n      tag_377\n      jump\t// in\n    tag_589:\n        /* \"#utility.yul\":18248:18250   */\n      0x20\n        /* \"#utility.yul\":18243:18246   */\n      dup3\n        /* \"#utility.yul\":18239:18251   */\n      add\n        /* \"#utility.yul\":18232:18251   */\n      swap1\n      pop\n        /* \"#utility.yul\":17891:18257   */\n      swap2\n      swap1\n      pop\n      jump\t// out\n        /* \"#utility.yul\":18263:18682   */\n    tag_87:\n        /* \"#utility.yul\":18429:18433   */\n      0x00\n        /* \"#utility.yul\":18467:18469   */\n      0x20\n        /* \"#utility.yul\":18456:18465   */\n      dup3\n        /* \"#utility.yul\":18452:18470   */\n      add\n        /* \"#utility.yul\":18444:18470   */\n      swap1\n      pop\n        /* \"#utility.yul\":18516:18525   */\n      dup2\n        /* \"#utility.yul\":18510:18514   */\n      dup2\n        /* \"#utility.yul\":18506:18526   */\n      sub\n        /* \"#utility.yul\":18502:18503   */\n      0x00\n        /* \"#utility.yul\":18491:18500   */\n      dup4\n        /* \"#utility.yul\":18487:18504   */\n      add\n        /* \"#utility.yul\":18480:18527   */\n      mstore\n        /* \"#utility.yul\":18544:18675   */\n      tag_591\n        /* \"#utility.yul\":18670:18674   */\n      dup2\n        /* \"#utility.yul\":18544:18675   */\n      tag_378\n      jump\t// in\n    tag_591:\n        /* \"#utility.yul\":18536:18675   */\n      swap1\n      pop\n        /* \"#utility.yul\":18263:18682   */\n      swap2\n      swap1\n      pop\n      jump\t// out\n        /* \"#utility.yul\":18688:18919   */\n    tag_379:\n        /* \"#utility.yul\":18828:18862   */\n      0x57696e6e6572207375626d697373696f6e20706861736520686173206e6f7420\n        /* \"#utility.yul\":18824:18825   */\n      0x00\n        /* \"#utility.yul\":18816:18822   */\n      dup3\n        /* \"#utility.yul\":18812:18826   */\n      add\n        /* \"#utility.yul\":18805:18863   */\n      mstore\n        /* \"#utility.yul\":18897:18911   */\n      0x73746172746564207965742e0000000000000000000000000000000000000000\n        /* \"#utility.yul\":18892:18894   */\n      0x20\n        /* \"#utility.yul\":18884:18890   */\n      dup3\n        /* \"#utility.yul\":18880:18895   */\n      add\n        /* \"#utility.yul\":18873:18912   */\n      mstore\n        /* \"#utility.yul\":18688:18919   */\n      pop\n      jump\t// out\n        /* \"#utility.yul\":18925:19291   */\n    tag_380:\n        /* \"#utility.yul\":19067:19070   */\n      0x00\n        /* \"#utility.yul\":19088:19155   */\n      tag_594\n        /* \"#utility.yul\":19152:19154   */\n      0x2c\n        /* \"#utility.yul\":19147:19150   */\n      dup4\n        /* \"#utility.yul\":19088:19155   */\n      tag_366\n      jump\t// in\n    tag_594:\n        /* \"#utility.yul\":19081:19155   */\n      swap2\n      pop\n        /* \"#utility.yul\":19164:19257   */\n      tag_595\n        /* \"#utility.yul\":19253:19256   */\n      dup3\n        /* \"#utility.yul\":19164:19257   */\n      tag_379\n      jump\t// in\n    tag_595:\n        /* \"#utility.yul\":19282:19284   */\n      0x40\n        /* \"#utility.yul\":19277:19280   */\n      dup3\n        /* \"#utility.yul\":19273:19285   */\n      add\n        /* \"#utility.yul\":19266:19285   */\n      swap1\n      pop\n        /* \"#utility.yul\":18925:19291   */\n      swap2\n      swap1\n      pop\n      jump\t// out\n        /* \"#utility.yul\":19297:19716   */\n    tag_91:\n        /* \"#utility.yul\":19463:19467   */\n      0x00\n        /* \"#utility.yul\":19501:19503   */\n      0x20\n        /* \"#utility.yul\":19490:19499   */\n      dup3\n        /* \"#utility.yul\":19486:19504   */\n      add\n        /* \"#utility.yul\":19478:19504   */\n      swap1\n      pop\n        /* \"#utility.yul\":19550:19559   */\n      dup2\n        /* \"#utility.yul\":19544:19548   */\n      dup2\n        /* \"#utility.yul\":19540:19560   */\n      sub\n        /* \"#utility.yul\":19536:19537   */\n      0x00\n        /* \"#utility.yul\":19525:19534   */\n      dup4\n        /* \"#utility.yul\":19521:19538   */\n      add\n        /* \"#utility.yul\":19514:19561   */\n      mstore\n        /* \"#utility.yul\":19578:19709   */\n      tag_597\n        /* \"#utility.yul\":19704:19708   */\n      dup2\n        /* \"#utility.yul\":19578:19709   */\n      tag_380\n      jump\t// in\n    tag_597:\n        /* \"#utility.yul\":19570:19709   */\n      swap1\n      pop\n        /* \"#utility.yul\":19297:19716   */\n      swap2\n      swap1\n      pop\n      jump\t// out\n        /* \"#utility.yul\":19722:19943   */\n    tag_381:\n        /* \"#utility.yul\":19862:19896   */\n      0x57696e6e6572207375626d697373696f6e2074696d6520686173207061737365\n        /* \"#utility.yul\":19858:19859   */\n      0x00\n        /* \"#utility.yul\":19850:19856   */\n      dup3\n        /* \"#utility.yul\":19846:19860   */\n      add\n        /* \"#utility.yul\":19839:19897   */\n      mstore\n        /* \"#utility.yul\":19931:19935   */\n      0x642e000000000000000000000000000000000000000000000000000000000000\n        /* \"#utility.yul\":19926:19928   */\n      0x20\n        /* \"#utility.yul\":19918:19924   */\n      dup3\n        /* \"#utility.yul\":19914:19929   */\n      add\n        /* \"#utility.yul\":19907:19936   */\n      mstore\n        /* \"#utility.yul\":19722:19943   */\n      pop\n      jump\t// out\n        /* \"#utility.yul\":19949:20315   */\n    tag_382:\n        /* \"#utility.yul\":20091:20094   */\n      0x00\n        /* \"#utility.yul\":20112:20179   */\n      tag_600\n        /* \"#utility.yul\":20176:20178   */\n      0x22\n        /* \"#utility.yul\":20171:20174   */\n      dup4\n        /* \"#utility.yul\":20112:20179   */\n      tag_366\n      jump\t// in\n    tag_600:\n        /* \"#utility.yul\":20105:20179   */\n      swap2\n      pop\n        /* \"#utility.yul\":20188:20281   */\n      tag_601\n        /* \"#utility.yul\":20277:20280   */\n      dup3\n        /* \"#utility.yul\":20188:20281   */\n      tag_381\n      jump\t// in\n    tag_601:\n        /* \"#utility.yul\":20306:20308   */\n      0x40\n        /* \"#utility.yul\":20301:20304   */\n      dup3\n        /* \"#utility.yul\":20297:20309   */\n      add\n        /* \"#utility.yul\":20290:20309   */\n      swap1\n      pop\n        /* \"#utility.yul\":19949:20315   */\n      swap2\n      swap1\n      pop\n      jump\t// out\n        /* \"#utility.yul\":20321:20740   */\n    tag_94:\n        /* \"#utility.yul\":20487:20491   */\n      0x00\n        /* \"#utility.yul\":20525:20527   */\n      0x20\n        /* \"#utility.yul\":20514:20523   */\n      dup3\n        /* \"#utility.yul\":20510:20528   */\n      add\n        /* \"#utility.yul\":20502:20528   */\n      swap1\n      pop\n        /* \"#utility.yul\":20574:20583   */\n      dup2\n        /* \"#utility.yul\":20568:20572   */\n      dup2\n        /* \"#utility.yul\":20564:20584   */\n      sub\n        /* \"#utility.yul\":20560:20561   */\n      0x00\n        /* \"#utility.yul\":20549:20558   */\n      dup4\n        /* \"#utility.yul\":20545:20562   */\n      add\n        /* \"#utility.yul\":20538:20585   */\n      mstore\n        /* \"#utility.yul\":20602:20733   */\n      tag_603\n        /* \"#utility.yul\":20728:20732   */\n      dup2\n        /* \"#utility.yul\":20602:20733   */\n      tag_382\n      jump\t// in\n    tag_603:\n        /* \"#utility.yul\":20594:20733   */\n      swap1\n      pop\n        /* \"#utility.yul\":20321:20740   */\n      swap2\n      swap1\n      pop\n      jump\t// out\n        /* \"#utility.yul\":20746:20926   */\n    tag_383:\n        /* \"#utility.yul\":20794:20871   */\n      0x4e487b7100000000000000000000000000000000000000000000000000000000\n        /* \"#utility.yul\":20791:20792   */\n      0x00\n        /* \"#utility.yul\":20784:20872   */\n      mstore\n        /* \"#utility.yul\":20891:20895   */\n      0x22\n        /* \"#utility.yul\":20888:20889   */\n      0x04\n        /* \"#utility.yul\":20881:20896   */\n      mstore\n        /* \"#utility.yul\":20915:20919   */\n      0x24\n        /* \"#utility.yul\":20912:20913   */\n      0x00\n        /* \"#utility.yul\":20905:20920   */\n      revert\n        /* \"#utility.yul\":20932:21252   */\n    tag_106:\n        /* \"#utility.yul\":20976:20982   */\n      0x00\n        /* \"#utility.yul\":21013:21014   */\n      0x02\n        /* \"#utility.yul\":21007:21011   */\n      dup3\n        /* \"#utility.yul\":21003:21015   */\n      div\n        /* \"#utility.yul\":20993:21015   */\n      swap1\n      pop\n        /* \"#utility.yul\":21060:21061   */\n      0x01\n        /* \"#utility.yul\":21054:21058   */\n      dup3\n        /* \"#utility.yul\":21050:21062   */\n      and\n        /* \"#utility.yul\":21081:21099   */\n      dup1\n        /* \"#utility.yul\":21071:21152   */\n      tag_606\n      jumpi\n        /* \"#utility.yul\":21137:21141   */\n      0x7f\n        /* \"#utility.yul\":21129:21135   */\n      dup3\n        /* \"#utility.yul\":21125:21142   */\n      and\n        /* \"#utility.yul\":21115:21142   */\n      swap2\n      pop\n        /* \"#utility.yul\":21071:21152   */\n    tag_606:\n        /* \"#utility.yul\":21199:21201   */\n      0x20\n        /* \"#utility.yul\":21191:21197   */\n      dup3\n        /* \"#utility.yul\":21188:21202   */\n      lt\n        /* \"#utility.yul\":21168:21186   */\n      dup2\n        /* \"#utility.yul\":21165:21203   */\n      sub\n        /* \"#utility.yul\":21162:21246   */\n      tag_607\n      jumpi\n        /* \"#utility.yul\":21218:21236   */\n      tag_608\n      tag_383\n      jump\t// in\n    tag_608:\n        /* \"#utility.yul\":21162:21246   */\n    tag_607:\n        /* \"#utility.yul\":20983:21252   */\n      pop\n        /* \"#utility.yul\":20932:21252   */\n      swap2\n      swap1\n      pop\n      jump\t// out\n        /* \"#utility.yul\":21258:21399   */\n    tag_384:\n        /* \"#utility.yul\":21307:21311   */\n      0x00\n        /* \"#utility.yul\":21330:21333   */\n      dup2\n        /* \"#utility.yul\":21322:21333   */\n      swap1\n      pop\n        /* \"#utility.yul\":21353:21356   */\n      dup2\n        /* \"#utility.yul\":21350:21351   */\n      0x00\n        /* \"#utility.yul\":21343:21357   */\n      mstore\n        /* \"#utility.yul\":21387:21391   */\n      0x20\n        /* \"#utility.yul\":21384:21385   */\n      0x00\n        /* \"#utility.yul\":21374:21392   */\n      keccak256\n        /* \"#utility.yul\":21366:21392   */\n      swap1\n      pop\n        /* \"#utility.yul\":21258:21399   */\n      swap2\n      swap1\n      pop\n      jump\t// out\n        /* \"#utility.yul\":21405:21498   */\n    tag_385:\n        /* \"#utility.yul\":21442:21448   */\n      0x00\n        /* \"#utility.yul\":21489:21491   */\n      0x20\n        /* \"#utility.yul\":21484:21486   */\n      0x1f\n        /* \"#utility.yul\":21477:21482   */\n      dup4\n        /* \"#utility.yul\":21473:21487   */\n      add\n        /* \"#utility.yul\":21469:21492   */\n      div\n        /* \"#utility.yul\":21459:21492   */\n      swap1\n      pop\n        /* \"#utility.yul\":21405:21498   */\n      swap2\n      swap1\n      pop\n      jump\t// out\n        /* \"#utility.yul\":21504:21611   */\n    tag_386:\n        /* \"#utility.yul\":21548:21556   */\n      0x00\n        /* \"#utility.yul\":21598:21603   */\n      dup3\n        /* \"#utility.yul\":21592:21596   */\n      dup3\n        /* \"#utility.yul\":21588:21604   */\n      shl\n        /* \"#utility.yul\":21567:21604   */\n      swap1\n      pop\n        /* \"#utility.yul\":21504:21611   */\n      swap3\n      swap2\n      pop\n      pop\n      jump\t// out\n        /* \"#utility.yul\":21617:22010   */\n    tag_387:\n        /* \"#utility.yul\":21686:21692   */\n      0x00\n        /* \"#utility.yul\":21736:21737   */\n      0x08\n        /* \"#utility.yul\":21724:21734   */\n      dup4\n        /* \"#utility.yul\":21720:21738   */\n      mul\n        /* \"#utility.yul\":21759:21856   */\n      tag_613\n        /* \"#utility.yul\":21789:21855   */\n      0xffffffffffffffffffffffffffffffffffffffffffffffffffffffffffffffff\n        /* \"#utility.yul\":21778:21787   */\n      dup3\n        /* \"#utility.yul\":21759:21856   */\n      tag_386\n      jump\t// in\n    tag_613:\n        /* \"#utility.yul\":21877:21916   */\n      tag_614\n        /* \"#utility.yul\":21907:21915   */\n      dup7\n        /* \"#utility.yul\":21896:21905   */\n      dup4\n        /* \"#utility.yul\":21877:21916   */\n      tag_386\n      jump\t// in\n    tag_614:\n        /* \"#utility.yul\":21865:21916   */\n      swap6\n      pop\n        /* \"#utility.yul\":21949:21953   */\n      dup1\n        /* \"#utility.yul\":21945:21954   */\n      not\n        /* \"#utility.yul\":21938:21943   */\n      dup5\n        /* \"#utility.yul\":21934:21955   */\n      and\n        /* \"#utility.yul\":21925:21955   */\n      swap4\n      pop\n        /* \"#utility.yul\":21998:22002   */\n      dup1\n        /* \"#utility.yul\":21988:21996   */\n      dup7\n        /* \"#utility.yul\":21984:22003   */\n      and\n        /* \"#utility.yul\":21977:21982   */\n      dup5\n        /* \"#utility.yul\":21974:22004   */\n      or\n        /* \"#utility.yul\":21964:22004   */\n      swap3\n      pop\n        /* \"#utility.yul\":21693:22010   */\n      pop\n      pop\n        /* \"#utility.yul\":21617:22010   */\n      swap4\n      swap3\n      pop\n      pop\n      pop\n      jump\t// out\n        /* \"#utility.yul\":22016:22076   */\n    tag_388:\n        /* \"#utility.yul\":22044:22047   */\n      0x00\n        /* \"#utility.yul\":22065:22070   */\n      dup2\n        /* \"#utility.yul\":22058:22070   */\n      swap1\n      pop\n        /* \"#utility.yul\":22016:22076   */\n      swap2\n      swap1\n      pop\n      jump\t// out\n        /* \"#utility.yul\":22082:22224   */\n    tag_389:\n        /* \"#utility.yul\":22132:22141   */\n      0x00\n        /* \"#utility.yul\":22165:22218   */\n      tag_617\n        /* \"#utility.yul\":22183:22217   */\n      tag_618\n        /* \"#utility.yul\":22192:22216   */\n      tag_619\n        /* \"#utility.yul\":22210:22215   */\n      dup5\n        /* \"#utility.yul\":22192:22216   */\n      tag_333\n      jump\t// in\n    tag_619:\n        /* \"#utility.yul\":22183:22217   */\n      tag_388\n      jump\t// in\n    tag_618:\n        /* \"#utility.yul\":22165:22218   */\n      tag_333\n      jump\t// in\n    tag_617:\n        /* \"#utility.yul\":22152:22218   */\n      swap1\n      pop\n        /* \"#utility.yul\":22082:22224   */\n      swap2\n      swap1\n      pop\n      jump\t// out\n        /* \"#utility.yul\":22230:22305   */\n    tag_390:\n        /* \"#utility.yul\":22273:22276   */\n      0x00\n        /* \"#utility.yul\":22294:22299   */\n      dup2\n        /* \"#utility.yul\":22287:22299   */\n      swap1\n      pop\n        /* \"#utility.yul\":22230:22305   */\n      swap2\n      swap1\n      pop\n      jump\t// out\n        /* \"#utility.yul\":22311:22580   */\n    tag_391:\n        /* \"#utility.yul\":22421:22460   */\n      tag_622\n        /* \"#utility.yul\":22452:22459   */\n      dup4\n        /* \"#utility.yul\":22421:22460   */\n      tag_389\n      jump\t// in\n    tag_622:\n        /* \"#utility.yul\":22482:22573   */\n      tag_623\n        /* \"#utility.yul\":22531:22572   */\n      tag_624\n        /* \"#utility.yul\":22555:22571   */\n      dup3\n        /* \"#utility.yul\":22531:22572   */\n      tag_390\n      jump\t// in\n    tag_624:\n        /* \"#utility.yul\":22523:22529   */\n      dup5\n        /* \"#utility.yul\":22516:22520   */\n      dup5\n        /* \"#utility.yul\":22510:22521   */\n      sload\n        /* \"#utility.yul\":22482:22573   */\n      tag_387\n      jump\t// in\n    tag_623:\n        /* \"#utility.yul\":22476:22480   */\n      dup3\n        /* \"#utility.yul\":22469:22574   */\n      sstore\n        /* \"#utility.yul\":22387:22580   */\n      pop\n        /* \"#utility.yul\":22311:22580   */\n      pop\n      pop\n      pop\n      jump\t// out\n        /* \"#utility.yul\":22586:22659   */\n    tag_392:\n        /* \"#utility.yul\":22631:22634   */\n      0x00\n        /* \"#utility.yul\":22586:22659   */\n      swap1\n      jump\t// out\n        /* \"#utility.yul\":22665:22854   */\n    tag_393:\n        /* \"#utility.yul\":22742:22774   */\n      tag_627\n      tag_392\n      jump\t// in\n    tag_627:\n        /* \"#utility.yul\":22783:22848   */\n      tag_628\n        /* \"#utility.yul\":22841:22847   */\n      dup2\n        /* \"#utility.yul\":22833:22839   */\n      dup5\n        /* \"#utility.yul\":22827:22831   */\n      dup5\n        /* \"#utility.yul\":22783:22848   */\n      tag_391\n      jump\t// in\n    tag_628:\n        /* \"#utility.yul\":22718:22854   */\n      pop\n        /* \"#utility.yul\":22665:22854   */\n      pop\n      pop\n      jump\t// out\n        /* \"#utility.yul\":22860:23046   */\n    tag_394:\n        /* \"#utility.yul\":22920:23040   */\n    tag_630:\n        /* \"#utility.yul\":22937:22940   */\n      dup2\n        /* \"#utility.yul\":22930:22935   */\n      dup2\n        /* \"#utility.yul\":22927:22941   */\n      lt\n        /* \"#utility.yul\":22920:23040   */\n      iszero\n      tag_632\n      jumpi\n        /* \"#utility.yul\":22991:23030   */\n      tag_633\n        /* \"#utility.yul\":23028:23029   */\n      0x00\n        /* \"#utility.yul\":23021:23026   */\n      dup3\n        /* \"#utility.yul\":22991:23030   */\n      tag_393\n      jump\t// in\n    tag_633:\n        /* \"#utility.yul\":22964:22965   */\n      0x01\n        /* \"#utility.yul\":22957:22962   */\n      dup2\n        /* \"#utility.yul\":22953:22966   */\n      add\n        /* \"#utility.yul\":22944:22966   */\n      swap1\n      pop\n        /* \"#utility.yul\":22920:23040   */\n      jump(tag_630)\n    tag_632:\n        /* \"#utility.yul\":22860:23046   */\n      pop\n      pop\n      jump\t// out\n        /* \"#utility.yul\":23052:23595   */\n    tag_395:\n        /* \"#utility.yul\":23153:23155   */\n      0x1f\n        /* \"#utility.yul\":23148:23151   */\n      dup3\n        /* \"#utility.yul\":23145:23156   */\n      gt\n        /* \"#utility.yul\":23142:23588   */\n      iszero\n      tag_635\n      jumpi\n        /* \"#utility.yul\":23187:23225   */\n      tag_636\n        /* \"#utility.yul\":23219:23224   */\n      dup2\n        /* \"#utility.yul\":23187:23225   */\n      tag_384\n      jump\t// in\n    tag_636:\n        /* \"#utility.yul\":23271:23300   */\n      tag_637\n        /* \"#utility.yul\":23289:23299   */\n      dup5\n        /* \"#utility.yul\":23271:23300   */\n      tag_385\n      jump\t// in\n    tag_637:\n        /* \"#utility.yul\":23261:23269   */\n      dup2\n        /* \"#utility.yul\":23257:23301   */\n      add\n        /* \"#utility.yul\":23454:23456   */\n      0x20\n        /* \"#utility.yul\":23442:23452   */\n      dup6\n        /* \"#utility.yul\":23439:23457   */\n      lt\n        /* \"#utility.yul\":23436:23485   */\n      iszero\n      tag_638\n      jumpi\n        /* \"#utility.yul\":23475:23483   */\n      dup2\n        /* \"#utility.yul\":23460:23483   */\n      swap1\n      pop\n        /* \"#utility.yul\":23436:23485   */\n    tag_638:\n        /* \"#utility.yul\":23498:23578   */\n      tag_639\n        /* \"#utility.yul\":23554:23576   */\n      tag_640\n        /* \"#utility.yul\":23572:23575   */\n      dup6\n        /* \"#utility.yul\":23554:23576   */\n      tag_385\n      jump\t// in\n    tag_640:\n        /* \"#utility.yul\":23544:23552   */\n      dup4\n        /* \"#utility.yul\":23540:23577   */\n      add\n        /* \"#utility.yul\":23527:23538   */\n      dup3\n        /* \"#utility.yul\":23498:23578   */\n      tag_394\n      jump\t// in\n    tag_639:\n        /* \"#utility.yul\":23157:23588   */\n      pop\n      pop\n        /* \"#utility.yul\":23142:23588   */\n    tag_635:\n        /* \"#utility.yul\":23052:23595   */\n      pop\n      pop\n      pop\n      jump\t// out\n        /* \"#utility.yul\":23601:23718   */\n    tag_396:\n        /* \"#utility.yul\":23655:23663   */\n      0x00\n        /* \"#utility.yul\":23705:23710   */\n      dup3\n        /* \"#utility.yul\":23699:23703   */\n      dup3\n        /* \"#utility.yul\":23695:23711   */\n      shr\n        /* \"#utility.yul\":23674:23711   */\n      swap1\n      pop\n        /* \"#utility.yul\":23601:23718   */\n      swap3\n      swap2\n      pop\n      pop\n      jump\t// out\n        /* \"#utility.yul\":23724:23893   */\n    tag_397:\n        /* \"#utility.yul\":23768:23774   */\n      0x00\n        /* \"#utility.yul\":23801:23852   */\n      tag_643\n        /* \"#utility.yul\":23849:23850   */\n      0x00\n        /* \"#utility.yul\":23845:23851   */\n      not\n        /* \"#utility.yul\":23837:23842   */\n      dup5\n        /* \"#utility.yul\":23834:23835   */\n      0x08\n        /* \"#utility.yul\":23830:23843   */\n      mul\n        /* \"#utility.yul\":23801:23852   */\n      tag_396\n      jump\t// in\n    tag_643:\n        /* \"#utility.yul\":23797:23853   */\n      not\n        /* \"#utility.yul\":23882:23886   */\n      dup1\n        /* \"#utility.yul\":23876:23880   */\n      dup4\n        /* \"#utility.yul\":23872:23887   */\n      and\n        /* \"#utility.yul\":23862:23887   */\n      swap2\n      pop\n        /* \"#utility.yul\":23775:23893   */\n      pop\n        /* \"#utility.yul\":23724:23893   */\n      swap3\n      swap2\n      pop\n      pop\n      jump\t// out\n        /* \"#utility.yul\":23898:24193   */\n    tag_398:\n        /* \"#utility.yul\":23974:23978   */\n      0x00\n        /* \"#utility.yul\":24120:24149   */\n      tag_645\n        /* \"#utility.yul\":24145:24148   */\n      dup4\n        /* \"#utility.yul\":24139:24143   */\n      dup4\n        /* \"#utility.yul\":24120:24149   */\n      tag_397\n      jump\t// in\n    tag_645:\n        /* \"#utility.yul\":24112:24149   */\n      swap2\n      pop\n        /* \"#utility.yul\":24182:24185   */\n      dup3\n        /* \"#utility.yul\":24179:24180   */\n      0x02\n        /* \"#utility.yul\":24175:24186   */\n      mul\n        /* \"#utility.yul\":24169:24173   */\n      dup3\n        /* \"#utility.yul\":24166:24187   */\n      or\n        /* \"#utility.yul\":24158:24187   */\n      swap1\n      pop\n        /* \"#utility.yul\":23898:24193   */\n      swap3\n      swap2\n      pop\n      pop\n      jump\t// out\n        /* \"#utility.yul\":24198:25593   */\n    tag_97:\n        /* \"#utility.yul\":24315:24352   */\n      tag_647\n        /* \"#utility.yul\":24348:24351   */\n      dup3\n        /* \"#utility.yul\":24315:24352   */\n      tag_352\n      jump\t// in\n    tag_647:\n        /* \"#utility.yul\":24417:24435   */\n      0xffffffffffffffff\n        /* \"#utility.yul\":24409:24415   */\n      dup2\n        /* \"#utility.yul\":24406:24436   */\n      gt\n        /* \"#utility.yul\":24403:24459   */\n      iszero\n      tag_648\n      jumpi\n        /* \"#utility.yul\":24439:24457   */\n      tag_649\n      tag_280\n      jump\t// in\n    tag_649:\n        /* \"#utility.yul\":24403:24459   */\n    tag_648:\n        /* \"#utility.yul\":24483:24521   */\n      tag_650\n        /* \"#utility.yul\":24515:24519   */\n      dup3\n        /* \"#utility.yul\":24509:24520   */\n      sload\n        /* \"#utility.yul\":24483:24521   */\n      tag_106\n      jump\t// in\n    tag_650:\n        /* \"#utility.yul\":24568:24635   */\n      tag_651\n        /* \"#utility.yul\":24628:24634   */\n      dup3\n        /* \"#utility.yul\":24620:24626   */\n      dup3\n        /* \"#utility.yul\":24614:24618   */\n      dup6\n        /* \"#utility.yul\":24568:24635   */\n      tag_395\n      jump\t// in\n    tag_651:\n        /* \"#utility.yul\":24662:24663   */\n      0x00\n        /* \"#utility.yul\":24686:24690   */\n      0x20\n        /* \"#utility.yul\":24673:24690   */\n      swap1\n      pop\n        /* \"#utility.yul\":24718:24720   */\n      0x1f\n        /* \"#utility.yul\":24710:24716   */\n      dup4\n        /* \"#utility.yul\":24707:24721   */\n      gt\n        /* \"#utility.yul\":24735:24736   */\n      0x01\n        /* \"#utility.yul\":24730:25348   */\n      dup2\n      eq\n      tag_653\n      jumpi\n        /* \"#utility.yul\":25392:25393   */\n      0x00\n        /* \"#utility.yul\":25409:25415   */\n      dup5\n        /* \"#utility.yul\":25406:25483   */\n      iszero\n      tag_654\n      jumpi\n        /* \"#utility.yul\":25458:25467   */\n      dup3\n        /* \"#utility.yul\":25453:25456   */\n      dup8\n        /* \"#utility.yul\":25449:25468   */\n      add\n        /* \"#utility.yul\":25443:25469   */\n      mload\n        /* \"#utility.yul\":25434:25469   */\n      swap1\n      pop\n        /* \"#utility.yul\":25406:25483   */\n    tag_654:\n        /* \"#utility.yul\":25509:25576   */\n      tag_655\n        /* \"#utility.yul\":25569:25575   */\n      dup6\n        /* \"#utility.yul\":25562:25567   */\n      dup3\n        /* \"#utility.yul\":25509:25576   */\n      tag_398\n      jump\t// in\n    tag_655:\n        /* \"#utility.yul\":25503:25507   */\n      dup7\n        /* \"#utility.yul\":25496:25577   */\n      sstore\n        /* \"#utility.yul\":25365:25587   */\n      pop\n        /* \"#utility.yul\":24700:25587   */\n      jump(tag_652)\n        /* \"#utility.yul\":24730:25348   */\n    tag_653:\n        /* \"#utility.yul\":24782:24786   */\n      0x1f\n        /* \"#utility.yul\":24778:24787   */\n      not\n        /* \"#utility.yul\":24770:24776   */\n      dup5\n        /* \"#utility.yul\":24766:24788   */\n      and\n        /* \"#utility.yul\":24816:24853   */\n      tag_656\n        /* \"#utility.yul\":24848:24852   */\n      dup7\n        /* \"#utility.yul\":24816:24853   */\n      tag_384\n      jump\t// in\n    tag_656:\n        /* \"#utility.yul\":24875:24876   */\n      0x00\n        /* \"#utility.yul\":24889:25097   */\n    tag_657:\n        /* \"#utility.yul\":24903:24910   */\n      dup3\n        /* \"#utility.yul\":24900:24901   */\n      dup2\n        /* \"#utility.yul\":24897:24911   */\n      lt\n        /* \"#utility.yul\":24889:25097   */\n      iszero\n      tag_659\n      jumpi\n        /* \"#utility.yul\":24982:24991   */\n      dup5\n        /* \"#utility.yul\":24977:24980   */\n      dup10\n        /* \"#utility.yul\":24973:24992   */\n      add\n        /* \"#utility.yul\":24967:24993   */\n      mload\n        /* \"#utility.yul\":24959:24965   */\n      dup3\n        /* \"#utility.yul\":24952:24994   */\n      sstore\n        /* \"#utility.yul\":25033:25034   */\n      0x01\n        /* \"#utility.yul\":25025:25031   */\n      dup3\n        /* \"#utility.yul\":25021:25035   */\n      add\n        /* \"#utility.yul\":25011:25035   */\n      swap2\n      pop\n        /* \"#utility.yul\":25080:25082   */\n      0x20\n        /* \"#utility.yul\":25069:25078   */\n      dup6\n        /* \"#utility.yul\":25065:25083   */\n      add\n        /* \"#utility.yul\":25052:25083   */\n      swap5\n      pop\n        /* \"#utility.yul\":24926:24930   */\n      0x20\n        /* \"#utility.yul\":24923:24924   */\n      dup2\n        /* \"#utility.yul\":24919:24931   */\n      add\n        /* \"#utility.yul\":24914:24931   */\n      swap1\n      pop\n        /* \"#utility.yul\":24889:25097   */\n      jump(tag_657)\n    tag_659:\n        /* \"#utility.yul\":25125:25131   */\n      dup7\n        /* \"#utility.yul\":25116:25123   */\n      dup4\n        /* \"#utility.yul\":25113:25132   */\n      lt\n        /* \"#utility.yul\":25110:25289   */\n      iszero\n      tag_660\n      jumpi\n        /* \"#utility.yul\":25183:25192   */\n      dup5\n        /* \"#utility.yul\":25178:25181   */\n      dup10\n        /* \"#utility.yul\":25174:25193   */\n      add\n        /* \"#utility.yul\":25168:25194   */\n      mload\n        /* \"#utility.yul\":25226:25274   */\n      tag_661\n        /* \"#utility.yul\":25268:25272   */\n      0x1f\n        /* \"#utility.yul\":25260:25266   */\n      dup10\n        /* \"#utility.yul\":25256:25273   */\n      and\n        /* \"#utility.yul\":25245:25254   */\n      dup3\n        /* \"#utility.yul\":25226:25274   */\n      tag_397\n      jump\t// in\n    tag_661:\n        /* \"#utility.yul\":25218:25224   */\n      dup4\n        /* \"#utility.yul\":25211:25275   */\n      sstore\n        /* \"#utility.yul\":25133:25289   */\n      pop\n        /* \"#utility.yul\":25110:25289   */\n    tag_660:\n        /* \"#utility.yul\":25335:25336   */\n      0x01\n        /* \"#utility.yul\":25331:25332   */\n      0x02\n        /* \"#utility.yul\":25323:25329   */\n      dup9\n        /* \"#utility.yul\":25319:25333   */\n      mul\n        /* \"#utility.yul\":25315:25337   */\n      add\n        /* \"#utility.yul\":25309:25313   */\n      dup9\n        /* \"#utility.yul\":25302:25338   */\n      sstore\n        /* \"#utility.yul\":24737:25348   */\n      pop\n      pop\n      pop\n        /* \"#utility.yul\":24700:25587   */\n    tag_652:\n      pop\n        /* \"#utility.yul\":24290:25593   */\n      pop\n      pop\n      pop\n        /* \"#utility.yul\":24198:25593   */\n      pop\n      pop\n      jump\t// out\n        /* \"#utility.yul\":25599:25778   */\n    tag_399:\n        /* \"#utility.yul\":25739:25770   */\n      0x41756374696f6e206973206e6f7420636f6d706c65746564207965742e000000\n        /* \"#utility.yul\":25735:25736   */\n      0x00\n        /* \"#utility.yul\":25727:25733   */\n      dup3\n        /* \"#utility.yul\":25723:25737   */\n      add\n        /* \"#utility.yul\":25716:25771   */\n      mstore\n        /* \"#utility.yul\":25599:25778   */\n      pop\n      jump\t// out\n        /* \"#utility.yul\":25784:26150   */\n    tag_400:\n        /* \"#utility.yul\":25926:25929   */\n      0x00\n        /* \"#utility.yul\":25947:26014   */\n      tag_664\n        /* \"#utility.yul\":26011:26013   */\n      0x1d\n        /* \"#utility.yul\":26006:26009   */\n      dup4\n        /* \"#utility.yul\":25947:26014   */\n      tag_366\n      jump\t// in\n    tag_664:\n        /* \"#utility.yul\":25940:26014   */\n      swap2\n      pop\n        /* \"#utility.yul\":26023:26116   */\n      tag_665\n        /* \"#utility.yul\":26112:26115   */\n      dup3\n        /* \"#utility.yul\":26023:26116   */\n      tag_399\n      jump\t// in\n    tag_665:\n        /* \"#utility.yul\":26141:26143   */\n      0x20\n        /* \"#utility.yul\":26136:26139   */\n      dup3\n        /* \"#utility.yul\":26132:26144   */\n      add\n        /* \"#utility.yul\":26125:26144   */\n      swap1\n      pop\n        /* \"#utility.yul\":25784:26150   */\n      swap2\n      swap1\n      pop\n      jump\t// out\n        /* \"#utility.yul\":26156:26575   */\n    tag_114:\n        /* \"#utility.yul\":26322:26326   */\n      0x00\n        /* \"#utility.yul\":26360:26362   */\n      0x20\n        /* \"#utility.yul\":26349:26358   */\n      dup3\n        /* \"#utility.yul\":26345:26363   */\n      add\n        /* \"#utility.yul\":26337:26363   */\n      swap1\n      pop\n        /* \"#utility.yul\":26409:26418   */\n      dup2\n        /* \"#utility.yul\":26403:26407   */\n      dup2\n        /* \"#utility.yul\":26399:26419   */\n      sub\n        /* \"#utility.yul\":26395:26396   */\n      0x00\n        /* \"#utility.yul\":26384:26393   */\n      dup4\n        /* \"#utility.yul\":26380:26397   */\n      add\n        /* \"#utility.yul\":26373:26420   */\n      mstore\n        /* \"#utility.yul\":26437:26568   */\n      tag_667\n        /* \"#utility.yul\":26563:26567   */\n      dup2\n        /* \"#utility.yul\":26437:26568   */\n      tag_400\n      jump\t// in\n    tag_667:\n        /* \"#utility.yul\":26429:26568   */\n      swap1\n      pop\n        /* \"#utility.yul\":26156:26575   */\n      swap2\n      swap1\n      pop\n      jump\t// out\n        /* \"#utility.yul\":26581:26761   */\n    tag_120:\n        /* \"#utility.yul\":26629:26706   */\n      0x4e487b7100000000000000000000000000000000000000000000000000000000\n        /* \"#utility.yul\":26626:26627   */\n      0x00\n        /* \"#utility.yul\":26619:26707   */\n      mstore\n        /* \"#utility.yul\":26726:26730   */\n      0x32\n        /* \"#utility.yul\":26723:26724   */\n      0x04\n        /* \"#utility.yul\":26716:26731   */\n      mstore\n        /* \"#utility.yul\":26750:26754   */\n      0x24\n        /* \"#utility.yul\":26747:26748   */\n      0x00\n        /* \"#utility.yul\":26740:26755   */\n      revert\n        /* \"#utility.yul\":26767:26947   */\n    tag_401:\n        /* \"#utility.yul\":26815:26892   */\n      0x4e487b7100000000000000000000000000000000000000000000000000000000\n        /* \"#utility.yul\":26812:26813   */\n      0x00\n        /* \"#utility.yul\":26805:26893   */\n      mstore\n        /* \"#utility.yul\":26912:26916   */\n      0x11\n        /* \"#utility.yul\":26909:26910   */\n      0x04\n        /* \"#utility.yul\":26902:26917   */\n      mstore\n        /* \"#utility.yul\":26936:26940   */\n      0x24\n        /* \"#utility.yul\":26933:26934   */\n      0x00\n        /* \"#utility.yul\":26926:26941   */\n      revert\n        /* \"#utility.yul\":26953:27144   */\n    tag_123:\n        /* \"#utility.yul\":26993:26996   */\n      0x00\n        /* \"#utility.yul\":27012:27032   */\n      tag_671\n        /* \"#utility.yul\":27030:27031   */\n      dup3\n        /* \"#utility.yul\":27012:27032   */\n      tag_333\n      jump\t// in\n    tag_671:\n        /* \"#utility.yul\":27007:27032   */\n      swap2\n      pop\n        /* \"#utility.yul\":27046:27066   */\n      tag_672\n        /* \"#utility.yul\":27064:27065   */\n      dup4\n        /* \"#utility.yul\":27046:27066   */\n      tag_333\n      jump\t// in\n    tag_672:\n        /* \"#utility.yul\":27041:27066   */\n      swap3\n      pop\n        /* \"#utility.yul\":27089:27090   */\n      dup3\n        /* \"#utility.yul\":27086:27087   */\n      dup3\n        /* \"#utility.yul\":27082:27091   */\n      add\n        /* \"#utility.yul\":27075:27091   */\n      swap1\n      pop\n        /* \"#utility.yul\":27110:27113   */\n      dup1\n        /* \"#utility.yul\":27107:27108   */\n      dup3\n        /* \"#utility.yul\":27104:27114   */\n      gt\n        /* \"#utility.yul\":27101:27137   */\n      iszero\n      tag_673\n      jumpi\n        /* \"#utility.yul\":27117:27135   */\n      tag_674\n      tag_401\n      jump\t// in\n    tag_674:\n        /* \"#utility.yul\":27101:27137   */\n    tag_673:\n        /* \"#utility.yul\":26953:27144   */\n      swap3\n      swap2\n      pop\n      pop\n      jump\t// out\n        /* \"#utility.yul\":27150:27371   */\n    tag_402:\n        /* \"#utility.yul\":27290:27324   */\n      0x4469737075746520706861736520686173206e6f742073746172746564207965\n        /* \"#utility.yul\":27286:27287   */\n      0x00\n        /* \"#utility.yul\":27278:27284   */\n      dup3\n        /* \"#utility.yul\":27274:27288   */\n      add\n        /* \"#utility.yul\":27267:27325   */\n      mstore\n        /* \"#utility.yul\":27359:27363   */\n      0x742e000000000000000000000000000000000000000000000000000000000000\n        /* \"#utility.yul\":27354:27356   */\n      0x20\n        /* \"#utility.yul\":27346:27352   */\n      dup3\n        /* \"#utility.yul\":27342:27357   */\n      add\n        /* \"#utility.yul\":27335:27364   */\n      mstore\n        /* \"#utility.yul\":27150:27371   */\n      pop\n      jump\t// out\n        /* \"#utility.yul\":27377:27743   */\n    tag_403:\n        /* \"#utility.yul\":27519:27522   */\n      0x00\n        /* \"#utility.yul\":27540:27607   */\n      tag_677\n        /* \"#utility.yul\":27604:27606   */\n      0x22\n        /* \"#utility.yul\":27599:27602   */\n      dup4\n        /* \"#utility.yul\":27540:27607   */\n      tag_366\n      jump\t// in\n    tag_677:\n        /* \"#utility.yul\":27533:27607   */\n      swap2\n      pop\n        /* \"#utility.yul\":27616:27709   */\n      tag_678\n        /* \"#utility.yul\":27705:27708   */\n      dup3\n        /* \"#utility.yul\":27616:27709   */\n      tag_402\n      jump\t// in\n    tag_678:\n        /* \"#utility.yul\":27734:27736   */\n      0x40\n        /* \"#utility.yul\":27729:27732   */\n      dup3\n        /* \"#utility.yul\":27725:27737   */\n      add\n        /* \"#utility.yul\":27718:27737   */\n      swap1\n      pop\n        /* \"#utility.yul\":27377:27743   */\n      swap2\n      swap1\n      pop\n      jump\t// out\n        /* \"#utility.yul\":27749:28168   */\n    tag_130:\n        /* \"#utility.yul\":27915:27919   */\n      0x00\n        /* \"#utility.yul\":27953:27955   */\n      0x20\n        /* \"#utility.yul\":27942:27951   */\n      dup3\n        /* \"#utility.yul\":27938:27956   */\n      add\n        /* \"#utility.yul\":27930:27956   */\n      swap1\n      pop\n        /* \"#utility.yul\":28002:28011   */\n      dup2\n        /* \"#utility.yul\":27996:28000   */\n      dup2\n        /* \"#utility.yul\":27992:28012   */\n      sub\n        /* \"#utility.yul\":27988:27989   */\n      0x00\n        /* \"#utility.yul\":27977:27986   */\n      dup4\n        /* \"#utility.yul\":27973:27990   */\n      add\n        /* \"#utility.yul\":27966:28013   */\n      mstore\n        /* \"#utility.yul\":28030:28161   */\n      tag_680\n        /* \"#utility.yul\":28156:28160   */\n      dup2\n        /* \"#utility.yul\":28030:28161   */\n      tag_403\n      jump\t// in\n    tag_680:\n        /* \"#utility.yul\":28022:28161   */\n      swap1\n      pop\n        /* \"#utility.yul\":27749:28168   */\n      swap2\n      swap1\n      pop\n      jump\t// out\n        /* \"#utility.yul\":28174:28349   */\n    tag_404:\n        /* \"#utility.yul\":28314:28341   */\n      0x4469737075746520706861736520686173207061737365642e00000000000000\n        /* \"#utility.yul\":28310:28311   */\n      0x00\n        /* \"#utility.yul\":28302:28308   */\n      dup3\n        /* \"#utility.yul\":28298:28312   */\n      add\n        /* \"#utility.yul\":28291:28342   */\n      mstore\n        /* \"#utility.yul\":28174:28349   */\n      pop\n      jump\t// out\n        /* \"#utility.yul\":28355:28721   */\n    tag_405:\n        /* \"#utility.yul\":28497:28500   */\n      0x00\n        /* \"#utility.yul\":28518:28585   */\n      tag_683\n        /* \"#utility.yul\":28582:28584   */\n      0x19\n        /* \"#utility.yul\":28577:28580   */\n      dup4\n        /* \"#utility.yul\":28518:28585   */\n      tag_366\n      jump\t// in\n    tag_683:\n        /* \"#utility.yul\":28511:28585   */\n      swap2\n      pop\n        /* \"#utility.yul\":28594:28687   */\n      tag_684\n        /* \"#utility.yul\":28683:28686   */\n      dup3\n        /* \"#utility.yul\":28594:28687   */\n      tag_404\n      jump\t// in\n    tag_684:\n        /* \"#utility.yul\":28712:28714   */\n      0x20\n        /* \"#utility.yul\":28707:28710   */\n      dup3\n        /* \"#utility.yul\":28703:28715   */\n      add\n        /* \"#utility.yul\":28696:28715   */\n      swap1\n      pop\n        /* \"#utility.yul\":28355:28721   */\n      swap2\n      swap1\n      pop\n      jump\t// out\n        /* \"#utility.yul\":28727:29146   */\n    tag_133:\n        /* \"#utility.yul\":28893:28897   */\n      0x00\n        /* \"#utility.yul\":28931:28933   */\n      0x20\n        /* \"#utility.yul\":28920:28929   */\n      dup3\n        /* \"#utility.yul\":28916:28934   */\n      add\n        /* \"#utility.yul\":28908:28934   */\n      swap1\n      pop\n        /* \"#utility.yul\":28980:28989   */\n      dup2\n        /* \"#utility.yul\":28974:28978   */\n      dup2\n        /* \"#utility.yul\":28970:28990   */\n      sub\n        /* \"#utility.yul\":28966:28967   */\n      0x00\n        /* \"#utility.yul\":28955:28964   */\n      dup4\n        /* \"#utility.yul\":28951:28968   */\n      add\n        /* \"#utility.yul\":28944:28991   */\n      mstore\n        /* \"#utility.yul\":29008:29139   */\n      tag_686\n        /* \"#utility.yul\":29134:29138   */\n      dup2\n        /* \"#utility.yul\":29008:29139   */\n      tag_405\n      jump\t// in\n    tag_686:\n        /* \"#utility.yul\":29000:29139   */\n      swap1\n      pop\n        /* \"#utility.yul\":28727:29146   */\n      swap2\n      swap1\n      pop\n      jump\t// out\n        /* \"#utility.yul\":29152:29385   */\n    tag_406:\n        /* \"#utility.yul\":29292:29326   */\n      0x5468652062696420616e64206e6f6e636520796f75207375626d697474656420\n        /* \"#utility.yul\":29288:29289   */\n      0x00\n        /* \"#utility.yul\":29280:29286   */\n      dup3\n        /* \"#utility.yul\":29276:29290   */\n      add\n        /* \"#utility.yul\":29269:29327   */\n      mstore\n        /* \"#utility.yul\":29361:29377   */\n      0x617265206e6f742076616c69642e000000000000000000000000000000000000\n        /* \"#utility.yul\":29356:29358   */\n      0x20\n        /* \"#utility.yul\":29348:29354   */\n      dup3\n        /* \"#utility.yul\":29344:29359   */\n      add\n        /* \"#utility.yul\":29337:29378   */\n      mstore\n        /* \"#utility.yul\":29152:29385   */\n      pop\n      jump\t// out\n        /* \"#utility.yul\":29391:29757   */\n    tag_407:\n        /* \"#utility.yul\":29533:29536   */\n      0x00\n        /* \"#utility.yul\":29554:29621   */\n      tag_689\n        /* \"#utility.yul\":29618:29620   */\n      0x2e\n        /* \"#utility.yul\":29613:29616   */\n      dup4\n        /* \"#utility.yul\":29554:29621   */\n      tag_366\n      jump\t// in\n    tag_689:\n        /* \"#utility.yul\":29547:29621   */\n      swap2\n      pop\n        /* \"#utility.yul\":29630:29723   */\n      tag_690\n        /* \"#utility.yul\":29719:29722   */\n      dup3\n        /* \"#utility.yul\":29630:29723   */\n      tag_406\n      jump\t// in\n    tag_690:\n        /* \"#utility.yul\":29748:29750   */\n      0x40\n        /* \"#utility.yul\":29743:29746   */\n      dup3\n        /* \"#utility.yul\":29739:29751   */\n      add\n        /* \"#utility.yul\":29732:29751   */\n      swap1\n      pop\n        /* \"#utility.yul\":29391:29757   */\n      swap2\n      swap1\n      pop\n      jump\t// out\n        /* \"#utility.yul\":29763:30182   */\n    tag_138:\n        /* \"#utility.yul\":29929:29933   */\n      0x00\n        /* \"#utility.yul\":29967:29969   */\n      0x20\n        /* \"#utility.yul\":29956:29965   */\n      dup3\n        /* \"#utility.yul\":29952:29970   */\n      add\n        /* \"#utility.yul\":29944:29970   */\n      swap1\n      pop\n        /* \"#utility.yul\":30016:30025   */\n      dup2\n        /* \"#utility.yul\":30010:30014   */\n      dup2\n        /* \"#utility.yul\":30006:30026   */\n      sub\n        /* \"#utility.yul\":30002:30003   */\n      0x00\n        /* \"#utility.yul\":29991:30000   */\n      dup4\n        /* \"#utility.yul\":29987:30004   */\n      add\n        /* \"#utility.yul\":29980:30027   */\n      mstore\n        /* \"#utility.yul\":30044:30175   */\n      tag_692\n        /* \"#utility.yul\":30170:30174   */\n      dup2\n        /* \"#utility.yul\":30044:30175   */\n      tag_407\n      jump\t// in\n    tag_692:\n        /* \"#utility.yul\":30036:30175   */\n      swap1\n      pop\n        /* \"#utility.yul\":29763:30182   */\n      swap2\n      swap1\n      pop\n      jump\t// out\n        /* \"#utility.yul\":30188:30487   */\n    tag_408:\n        /* \"#utility.yul\":30328:30362   */\n      0x596f75722064697370757465206973206e6f742076616c69642073696e636520\n        /* \"#utility.yul\":30324:30325   */\n      0x00\n        /* \"#utility.yul\":30316:30322   */\n      dup3\n        /* \"#utility.yul\":30312:30326   */\n      add\n        /* \"#utility.yul\":30305:30363   */\n      mstore\n        /* \"#utility.yul\":30397:30431   */\n      0x6974206973206e6f742067726561746572207468616e206174206c6561737420\n        /* \"#utility.yul\":30392:30394   */\n      0x20\n        /* \"#utility.yul\":30384:30390   */\n      dup3\n        /* \"#utility.yul\":30380:30395   */\n      add\n        /* \"#utility.yul\":30373:30432   */\n      mstore\n        /* \"#utility.yul\":30466:30479   */\n      0x6f6e652077696e6e65722e000000000000000000000000000000000000000000\n        /* \"#utility.yul\":30461:30463   */\n      0x40\n        /* \"#utility.yul\":30453:30459   */\n      dup3\n        /* \"#utility.yul\":30449:30464   */\n      add\n        /* \"#utility.yul\":30442:30480   */\n      mstore\n        /* \"#utility.yul\":30188:30487   */\n      pop\n      jump\t// out\n        /* \"#utility.yul\":30493:30859   */\n    tag_409:\n        /* \"#utility.yul\":30635:30638   */\n      0x00\n        /* \"#utility.yul\":30656:30723   */\n      tag_695\n        /* \"#utility.yul\":30720:30722   */\n      0x4b\n        /* \"#utility.yul\":30715:30718   */\n      dup4\n        /* \"#utility.yul\":30656:30723   */\n      tag_366\n      jump\t// in\n    tag_695:\n        /* \"#utility.yul\":30649:30723   */\n      swap2\n      pop\n        /* \"#utility.yul\":30732:30825   */\n      tag_696\n        /* \"#utility.yul\":30821:30824   */\n      dup3\n        /* \"#utility.yul\":30732:30825   */\n      tag_408\n      jump\t// in\n    tag_696:\n        /* \"#utility.yul\":30850:30852   */\n      0x60\n        /* \"#utility.yul\":30845:30848   */\n      dup3\n        /* \"#utility.yul\":30841:30853   */\n      add\n        /* \"#utility.yul\":30834:30853   */\n      swap1\n      pop\n        /* \"#utility.yul\":30493:30859   */\n      swap2\n      swap1\n      pop\n      jump\t// out\n        /* \"#utility.yul\":30865:31284   */\n    tag_143:\n        /* \"#utility.yul\":31031:31035   */\n      0x00\n        /* \"#utility.yul\":31069:31071   */\n      0x20\n        /* \"#utility.yul\":31058:31067   */\n      dup3\n        /* \"#utility.yul\":31054:31072   */\n      add\n        /* \"#utility.yul\":31046:31072   */\n      swap1\n      pop\n        /* \"#utility.yul\":31118:31127   */\n      dup2\n        /* \"#utility.yul\":31112:31116   */\n      dup2\n        /* \"#utility.yul\":31108:31128   */\n      sub\n        /* \"#utility.yul\":31104:31105   */\n      0x00\n        /* \"#utility.yul\":31093:31102   */\n      dup4\n        /* \"#utility.yul\":31089:31106   */\n      add\n        /* \"#utility.yul\":31082:31129   */\n      mstore\n        /* \"#utility.yul\":31146:31277   */\n      tag_698\n        /* \"#utility.yul\":31272:31276   */\n      dup2\n        /* \"#utility.yul\":31146:31277   */\n      tag_409\n      jump\t// in\n    tag_698:\n        /* \"#utility.yul\":31138:31277   */\n      swap1\n      pop\n        /* \"#utility.yul\":30865:31284   */\n      swap2\n      swap1\n      pop\n      jump\t// out\n        /* \"#utility.yul\":31290:31524   */\n    tag_410:\n        /* \"#utility.yul\":31430:31464   */\n      0x48617368656420626964207375626d697373696f6e207068617365206973206e\n        /* \"#utility.yul\":31426:31427   */\n      0x00\n        /* \"#utility.yul\":31418:31424   */\n      dup3\n        /* \"#utility.yul\":31414:31428   */\n      add\n        /* \"#utility.yul\":31407:31465   */\n      mstore\n        /* \"#utility.yul\":31499:31516   */\n      0x6f742073746172746564207965742e0000000000000000000000000000000000\n        /* \"#utility.yul\":31494:31496   */\n      0x20\n        /* \"#utility.yul\":31486:31492   */\n      dup3\n        /* \"#utility.yul\":31482:31497   */\n      add\n        /* \"#utility.yul\":31475:31517   */\n      mstore\n        /* \"#utility.yul\":31290:31524   */\n      pop\n      jump\t// out\n        /* \"#utility.yul\":31530:31896   */\n    tag_411:\n        /* \"#utility.yul\":31672:31675   */\n      0x00\n        /* \"#utility.yul\":31693:31760   */\n      tag_701\n        /* \"#utility.yul\":31757:31759   */\n      0x2f\n        /* \"#utility.yul\":31752:31755   */\n      dup4\n        /* \"#utility.yul\":31693:31760   */\n      tag_366\n      jump\t// in\n    tag_701:\n        /* \"#utility.yul\":31686:31760   */\n      swap2\n      pop\n        /* \"#utility.yul\":31769:31862   */\n      tag_702\n        /* \"#utility.yul\":31858:31861   */\n      dup3\n        /* \"#utility.yul\":31769:31862   */\n      tag_410\n      jump\t// in\n    tag_702:\n        /* \"#utility.yul\":31887:31889   */\n      0x40\n        /* \"#utility.yul\":31882:31885   */\n      dup3\n        /* \"#utility.yul\":31878:31890   */\n      add\n        /* \"#utility.yul\":31871:31890   */\n      swap1\n      pop\n        /* \"#utility.yul\":31530:31896   */\n      swap2\n      swap1\n      pop\n      jump\t// out\n        /* \"#utility.yul\":31902:32321   */\n    tag_225:\n        /* \"#utility.yul\":32068:32072   */\n      0x00\n        /* \"#utility.yul\":32106:32108   */\n      0x20\n        /* \"#utility.yul\":32095:32104   */\n      dup3\n        /* \"#utility.yul\":32091:32109   */\n      add\n        /* \"#utility.yul\":32083:32109   */\n      swap1\n      pop\n        /* \"#utility.yul\":32155:32164   */\n      dup2\n        /* \"#utility.yul\":32149:32153   */\n      dup2\n        /* \"#utility.yul\":32145:32165   */\n      sub\n        /* \"#utility.yul\":32141:32142   */\n      0x00\n        /* \"#utility.yul\":32130:32139   */\n      dup4\n        /* \"#utility.yul\":32126:32143   */\n      add\n        /* \"#utility.yul\":32119:32166   */\n      mstore\n        /* \"#utility.yul\":32183:32314   */\n      tag_704\n        /* \"#utility.yul\":32309:32313   */\n      dup2\n        /* \"#utility.yul\":32183:32314   */\n      tag_411\n      jump\t// in\n    tag_704:\n        /* \"#utility.yul\":32175:32314   */\n      swap1\n      pop\n        /* \"#utility.yul\":31902:32321   */\n      swap2\n      swap1\n      pop\n      jump\t// out\n        /* \"#utility.yul\":32327:32554   */\n    tag_412:\n        /* \"#utility.yul\":32467:32501   */\n      0x54696d6520666f722068617368656420626964207375626d697373696f6e2069\n        /* \"#utility.yul\":32463:32464   */\n      0x00\n        /* \"#utility.yul\":32455:32461   */\n      dup3\n        /* \"#utility.yul\":32451:32465   */\n      add\n        /* \"#utility.yul\":32444:32502   */\n      mstore\n        /* \"#utility.yul\":32536:32546   */\n      0x7320706173736564000000000000000000000000000000000000000000000000\n        /* \"#utility.yul\":32531:32533   */\n      0x20\n        /* \"#utility.yul\":32523:32529   */\n      dup3\n        /* \"#utility.yul\":32519:32534   */\n      add\n        /* \"#utility.yul\":32512:32547   */\n      mstore\n        /* \"#utility.yul\":32327:32554   */\n      pop\n      jump\t// out\n        /* \"#utility.yul\":32560:32926   */\n    tag_413:\n        /* \"#utility.yul\":32702:32705   */\n      0x00\n        /* \"#utility.yul\":32723:32790   */\n      tag_707\n        /* \"#utility.yul\":32787:32789   */\n      0x28\n        /* \"#utility.yul\":32782:32785   */\n      dup4\n        /* \"#utility.yul\":32723:32790   */\n      tag_366\n      jump\t// in\n    tag_707:\n        /* \"#utility.yul\":32716:32790   */\n      swap2\n      pop\n        /* \"#utility.yul\":32799:32892   */\n      tag_708\n        /* \"#utility.yul\":32888:32891   */\n      dup3\n        /* \"#utility.yul\":32799:32892   */\n      tag_412\n      jump\t// in\n    tag_708:\n        /* \"#utility.yul\":32917:32919   */\n      0x40\n        /* \"#utility.yul\":32912:32915   */\n      dup3\n        /* \"#utility.yul\":32908:32920   */\n      add\n        /* \"#utility.yul\":32901:32920   */\n      swap1\n      pop\n        /* \"#utility.yul\":32560:32926   */\n      swap2\n      swap1\n      pop\n      jump\t// out\n        /* \"#utility.yul\":32932:33351   */\n    tag_228:\n        /* \"#utility.yul\":33098:33102   */\n      0x00\n        /* \"#utility.yul\":33136:33138   */\n      0x20\n        /* \"#utility.yul\":33125:33134   */\n      dup3\n        /* \"#utility.yul\":33121:33139   */\n      add\n        /* \"#utility.yul\":33113:33139   */\n      swap1\n      pop\n        /* \"#utility.yul\":33185:33194   */\n      dup2\n        /* \"#utility.yul\":33179:33183   */\n      dup2\n        /* \"#utility.yul\":33175:33195   */\n      sub\n        /* \"#utility.yul\":33171:33172   */\n      0x00\n        /* \"#utility.yul\":33160:33169   */\n      dup4\n        /* \"#utility.yul\":33156:33173   */\n      add\n        /* \"#utility.yul\":33149:33196   */\n      mstore\n        /* \"#utility.yul\":33213:33344   */\n      tag_710\n        /* \"#utility.yul\":33339:33343   */\n      dup2\n        /* \"#utility.yul\":33213:33344   */\n      tag_413\n      jump\t// in\n    tag_710:\n        /* \"#utility.yul\":33205:33344   */\n      swap1\n      pop\n        /* \"#utility.yul\":32932:33351   */\n      swap2\n      swap1\n      pop\n      jump\t// out\n        /* \"#utility.yul\":33357:33587   */\n    tag_414:\n        /* \"#utility.yul\":33497:33531   */\n      0x54696d6520666f72207265676973746572696e67206173206120626964646572\n        /* \"#utility.yul\":33493:33494   */\n      0x00\n        /* \"#utility.yul\":33485:33491   */\n      dup3\n        /* \"#utility.yul\":33481:33495   */\n      add\n        /* \"#utility.yul\":33474:33532   */\n      mstore\n        /* \"#utility.yul\":33566:33579   */\n      0x206973207061737365642e000000000000000000000000000000000000000000\n        /* \"#utility.yul\":33561:33563   */\n      0x20\n        /* \"#utility.yul\":33553:33559   */\n      dup3\n        /* \"#utility.yul\":33549:33564   */\n      add\n        /* \"#utility.yul\":33542:33580   */\n      mstore\n        /* \"#utility.yul\":33357:33587   */\n      pop\n      jump\t// out\n        /* \"#utility.yul\":33593:33959   */\n    tag_415:\n        /* \"#utility.yul\":33735:33738   */\n      0x00\n        /* \"#utility.yul\":33756:33823   */\n      tag_713\n        /* \"#utility.yul\":33820:33822   */\n      0x2b\n        /* \"#utility.yul\":33815:33818   */\n      dup4\n        /* \"#utility.yul\":33756:33823   */\n      tag_366\n      jump\t// in\n    tag_713:\n        /* \"#utility.yul\":33749:33823   */\n      swap2\n      pop\n        /* \"#utility.yul\":33832:33925   */\n      tag_714\n        /* \"#utility.yul\":33921:33924   */\n      dup3\n        /* \"#utility.yul\":33832:33925   */\n      tag_414\n      jump\t// in\n    tag_714:\n        /* \"#utility.yul\":33950:33952   */\n      0x40\n        /* \"#utility.yul\":33945:33948   */\n      dup3\n        /* \"#utility.yul\":33941:33953   */\n      add\n        /* \"#utility.yul\":33934:33953   */\n      swap1\n      pop\n        /* \"#utility.yul\":33593:33959   */\n      swap2\n      swap1\n      pop\n      jump\t// out\n        /* \"#utility.yul\":33965:34384   */\n    tag_235:\n        /* \"#utility.yul\":34131:34135   */\n      0x00\n        /* \"#utility.yul\":34169:34171   */\n      0x20\n        /* \"#utility.yul\":34158:34167   */\n      dup3\n        /* \"#utility.yul\":34154:34172   */\n      add\n        /* \"#utility.yul\":34146:34172   */\n      swap1\n      pop\n        /* \"#utility.yul\":34218:34227   */\n      dup2\n        /* \"#utility.yul\":34212:34216   */\n      dup2\n        /* \"#utility.yul\":34208:34228   */\n      sub\n        /* \"#utility.yul\":34204:34205   */\n      0x00\n        /* \"#utility.yul\":34193:34202   */\n      dup4\n        /* \"#utility.yul\":34189:34206   */\n      add\n        /* \"#utility.yul\":34182:34229   */\n      mstore\n        /* \"#utility.yul\":34246:34377   */\n      tag_716\n        /* \"#utility.yul\":34372:34376   */\n      dup2\n        /* \"#utility.yul\":34246:34377   */\n      tag_415\n      jump\t// in\n    tag_716:\n        /* \"#utility.yul\":34238:34377   */\n      swap1\n      pop\n        /* \"#utility.yul\":33965:34384   */\n      swap2\n      swap1\n      pop\n      jump\t// out\n        /* \"#utility.yul\":34390:34538   */\n    tag_416:\n        /* \"#utility.yul\":34492:34503   */\n      0x00\n        /* \"#utility.yul\":34529:34532   */\n      dup2\n        /* \"#utility.yul\":34514:34532   */\n      swap1\n      pop\n        /* \"#utility.yul\":34390:34538   */\n      swap3\n      swap2\n      pop\n      pop\n      jump\t// out\n        /* \"#utility.yul\":34544:34934   */\n    tag_417:\n        /* \"#utility.yul\":34650:34653   */\n      0x00\n        /* \"#utility.yul\":34678:34717   */\n      tag_719\n        /* \"#utility.yul\":34711:34716   */\n      dup3\n        /* \"#utility.yul\":34678:34717   */\n      tag_352\n      jump\t// in\n    tag_719:\n        /* \"#utility.yul\":34733:34822   */\n      tag_720\n        /* \"#utility.yul\":34815:34821   */\n      dup2\n        /* \"#utility.yul\":34810:34813   */\n      dup6\n        /* \"#utility.yul\":34733:34822   */\n      tag_416\n      jump\t// in\n    tag_720:\n        /* \"#utility.yul\":34726:34822   */\n      swap4\n      pop\n        /* \"#utility.yul\":34831:34896   */\n      tag_721\n        /* \"#utility.yul\":34889:34895   */\n      dup2\n        /* \"#utility.yul\":34884:34887   */\n      dup6\n        /* \"#utility.yul\":34877:34881   */\n      0x20\n        /* \"#utility.yul\":34870:34875   */\n      dup7\n        /* \"#utility.yul\":34866:34882   */\n      add\n        /* \"#utility.yul\":34831:34896   */\n      tag_354\n      jump\t// in\n    tag_721:\n        /* \"#utility.yul\":34921:34927   */\n      dup1\n        /* \"#utility.yul\":34916:34919   */\n      dup5\n        /* \"#utility.yul\":34912:34928   */\n      add\n        /* \"#utility.yul\":34905:34928   */\n      swap2\n      pop\n        /* \"#utility.yul\":34654:34934   */\n      pop\n        /* \"#utility.yul\":34544:34934   */\n      swap3\n      swap2\n      pop\n      pop\n      jump\t// out\n        /* \"#utility.yul\":34940:35375   */\n    tag_241:\n        /* \"#utility.yul\":35120:35123   */\n      0x00\n        /* \"#utility.yul\":35142:35237   */\n      tag_723\n        /* \"#utility.yul\":35233:35236   */\n      dup3\n        /* \"#utility.yul\":35224:35230   */\n      dup6\n        /* \"#utility.yul\":35142:35237   */\n      tag_417\n      jump\t// in\n    tag_723:\n        /* \"#utility.yul\":35135:35237   */\n      swap2\n      pop\n        /* \"#utility.yul\":35254:35349   */\n      tag_724\n        /* \"#utility.yul\":35345:35348   */\n      dup3\n        /* \"#utility.yul\":35336:35342   */\n      dup5\n        /* \"#utility.yul\":35254:35349   */\n      tag_417\n      jump\t// in\n    tag_724:\n        /* \"#utility.yul\":35247:35349   */\n      swap2\n      pop\n        /* \"#utility.yul\":35366:35369   */\n      dup2\n        /* \"#utility.yul\":35359:35369   */\n      swap1\n      pop\n        /* \"#utility.yul\":34940:35375   */\n      swap4\n      swap3\n      pop\n      pop\n      pop\n      jump\t// out\n        /* \"#utility.yul\":35381:35656   */\n    tag_243:\n        /* \"#utility.yul\":35513:35516   */\n      0x00\n        /* \"#utility.yul\":35535:35630   */\n      tag_726\n        /* \"#utility.yul\":35626:35629   */\n      dup3\n        /* \"#utility.yul\":35617:35623   */\n      dup5\n        /* \"#utility.yul\":35535:35630   */\n      tag_417\n      jump\t// in\n    tag_726:\n        /* \"#utility.yul\":35528:35630   */\n      swap2\n      pop\n        /* \"#utility.yul\":35647:35650   */\n      dup2\n        /* \"#utility.yul\":35640:35650   */\n      swap1\n      pop\n        /* \"#utility.yul\":35381:35656   */\n      swap3\n      swap2\n      pop\n      pop\n      jump\t// out\n        /* \"#utility.yul\":35662:35760   */\n    tag_418:\n        /* \"#utility.yul\":35713:35719   */\n      0x00\n        /* \"#utility.yul\":35747:35752   */\n      dup2\n        /* \"#utility.yul\":35741:35753   */\n      mload\n        /* \"#utility.yul\":35731:35753   */\n      swap1\n      pop\n        /* \"#utility.yul\":35662:35760   */\n      swap2\n      swap1\n      pop\n      jump\t// out\n        /* \"#utility.yul\":35766:35913   */\n    tag_419:\n        /* \"#utility.yul\":35867:35878   */\n      0x00\n        /* \"#utility.yul\":35904:35907   */\n      dup2\n        /* \"#utility.yul\":35889:35907   */\n      swap1\n      pop\n        /* \"#utility.yul\":35766:35913   */\n      swap3\n      swap2\n      pop\n      pop\n      jump\t// out\n        /* \"#utility.yul\":35919:36305   */\n    tag_420:\n        /* \"#utility.yul\":36023:36026   */\n      0x00\n        /* \"#utility.yul\":36051:36089   */\n      tag_730\n        /* \"#utility.yul\":36083:36088   */\n      dup3\n        /* \"#utility.yul\":36051:36089   */\n      tag_418\n      jump\t// in\n    tag_730:\n        /* \"#utility.yul\":36105:36193   */\n      tag_731\n        /* \"#utility.yul\":36186:36192   */\n      dup2\n        /* \"#utility.yul\":36181:36184   */\n      dup6\n        /* \"#utility.yul\":36105:36193   */\n      tag_419\n      jump\t// in\n    tag_731:\n        /* \"#utility.yul\":36098:36193   */\n      swap4\n      pop\n        /* \"#utility.yul\":36202:36267   */\n      tag_732\n        /* \"#utility.yul\":36260:36266   */\n      dup2\n        /* \"#utility.yul\":36255:36258   */\n      dup6\n        /* \"#utility.yul\":36248:36252   */\n      0x20\n        /* \"#utility.yul\":36241:36246   */\n      dup7\n        /* \"#utility.yul\":36237:36253   */\n      add\n        /* \"#utility.yul\":36202:36267   */\n      tag_354\n      jump\t// in\n    tag_732:\n        /* \"#utility.yul\":36292:36298   */\n      dup1\n        /* \"#utility.yul\":36287:36290   */\n      dup5\n        /* \"#utility.yul\":36283:36299   */\n      add\n        /* \"#utility.yul\":36276:36299   */\n      swap2\n      pop\n        /* \"#utility.yul\":36027:36305   */\n      pop\n        /* \"#utility.yul\":35919:36305   */\n      swap3\n      swap2\n      pop\n      pop\n      jump\t// out\n        /* \"#utility.yul\":36311:36582   */\n    tag_245:\n        /* \"#utility.yul\":36441:36444   */\n      0x00\n        /* \"#utility.yul\":36463:36556   */\n      tag_734\n        /* \"#utility.yul\":36552:36555   */\n      dup3\n        /* \"#utility.yul\":36543:36549   */\n      dup5\n        /* \"#utility.yul\":36463:36556   */\n      tag_420\n      jump\t// in\n    tag_734:\n        /* \"#utility.yul\":36456:36556   */\n      swap2\n      pop\n        /* \"#utility.yul\":36573:36576   */\n      dup2\n        /* \"#utility.yul\":36566:36576   */\n      swap1\n      pop\n        /* \"#utility.yul\":36311:36582   */\n      swap3\n      swap2\n      pop\n      pop\n      jump\t// out\n        /* \"#utility.yul\":36588:36731   */\n    tag_421:\n        /* \"#utility.yul\":36645:36650   */\n      0x00\n        /* \"#utility.yul\":36676:36682   */\n      dup2\n        /* \"#utility.yul\":36670:36683   */\n      mload\n        /* \"#utility.yul\":36661:36683   */\n      swap1\n      pop\n        /* \"#utility.yul\":36692:36725   */\n      tag_736\n        /* \"#utility.yul\":36719:36724   */\n      dup2\n        /* \"#utility.yul\":36692:36725   */\n      tag_375\n      jump\t// in\n    tag_736:\n        /* \"#utility.yul\":36588:36731   */\n      swap3\n      swap2\n      pop\n      pop\n      jump\t// out\n        /* \"#utility.yul\":36737:37088   */\n    tag_249:\n        /* \"#utility.yul\":36807:36813   */\n      0x00\n        /* \"#utility.yul\":36856:36858   */\n      0x20\n        /* \"#utility.yul\":36844:36853   */\n      dup3\n        /* \"#utility.yul\":36835:36842   */\n      dup5\n        /* \"#utility.yul\":36831:36854   */\n      sub\n        /* \"#utility.yul\":36827:36859   */\n      slt\n        /* \"#utility.yul\":36824:36943   */\n      iszero\n      tag_738\n      jumpi\n        /* \"#utility.yul\":36862:36941   */\n      tag_739\n      tag_331\n      jump\t// in\n    tag_739:\n        /* \"#utility.yul\":36824:36943   */\n    tag_738:\n        /* \"#utility.yul\":36982:36983   */\n      0x00\n        /* \"#utility.yul\":37007:37071   */\n      tag_740\n        /* \"#utility.yul\":37063:37070   */\n      dup5\n        /* \"#utility.yul\":37054:37060   */\n      dup3\n        /* \"#utility.yul\":37043:37052   */\n      dup6\n        /* \"#utility.yul\":37039:37061   */\n      add\n        /* \"#utility.yul\":37007:37071   */\n      tag_421\n      jump\t// in\n    tag_740:\n        /* \"#utility.yul\":36997:37071   */\n      swap2\n      pop\n        /* \"#utility.yul\":36953:37081   */\n      pop\n        /* \"#utility.yul\":36737:37088   */\n      swap3\n      swap2\n      pop\n      pop\n      jump\t// out\n        /* \"#utility.yul\":37094:37327   */\n    tag_259:\n        /* \"#utility.yul\":37133:37136   */\n      0x00\n        /* \"#utility.yul\":37156:37180   */\n      tag_742\n        /* \"#utility.yul\":37174:37179   */\n      dup3\n        /* \"#utility.yul\":37156:37180   */\n      tag_333\n      jump\t// in\n    tag_742:\n        /* \"#utility.yul\":37147:37180   */\n      swap2\n      pop\n        /* \"#utility.yul\":37202:37268   */\n      0xffffffffffffffffffffffffffffffffffffffffffffffffffffffffffffffff\n        /* \"#utility.yul\":37195:37200   */\n      dup3\n        /* \"#utility.yul\":37192:37269   */\n      sub\n        /* \"#utility.yul\":37189:37292   */\n      tag_743\n      jumpi\n        /* \"#utility.yul\":37272:37290   */\n      tag_744\n      tag_401\n      jump\t// in\n    tag_744:\n        /* \"#utility.yul\":37189:37292   */\n    tag_743:\n        /* \"#utility.yul\":37319:37320   */\n      0x01\n        /* \"#utility.yul\":37312:37317   */\n      dup3\n        /* \"#utility.yul\":37308:37321   */\n      add\n        /* \"#utility.yul\":37301:37321   */\n      swap1\n      pop\n        /* \"#utility.yul\":37094:37327   */\n      swap2\n      swap1\n      pop\n      jump\t// out\n        /* \"#utility.yul\":37333:37743   */\n    tag_267:\n        /* \"#utility.yul\":37373:37380   */\n      0x00\n        /* \"#utility.yul\":37396:37416   */\n      tag_746\n        /* \"#utility.yul\":37414:37415   */\n      dup3\n        /* \"#utility.yul\":37396:37416   */\n      tag_333\n      jump\t// in\n    tag_746:\n        /* \"#utility.yul\":37391:37416   */\n      swap2\n      pop\n        /* \"#utility.yul\":37430:37450   */\n      tag_747\n        /* \"#utility.yul\":37448:37449   */\n      dup4\n        /* \"#utility.yul\":37430:37450   */\n      tag_333\n      jump\t// in\n    tag_747:\n        /* \"#utility.yul\":37425:37450   */\n      swap3\n      pop\n        /* \"#utility.yul\":37485:37486   */\n      dup3\n        /* \"#utility.yul\":37482:37483   */\n      dup3\n        /* \"#utility.yul\":37478:37487   */\n      mul\n        /* \"#utility.yul\":37507:37537   */\n      tag_748\n        /* \"#utility.yul\":37525:37536   */\n      dup2\n        /* \"#utility.yul\":37507:37537   */\n      tag_333\n      jump\t// in\n    tag_748:\n        /* \"#utility.yul\":37496:37537   */\n      swap2\n      pop\n        /* \"#utility.yul\":37686:37687   */\n      dup3\n        /* \"#utility.yul\":37677:37684   */\n      dup3\n        /* \"#utility.yul\":37673:37688   */\n      div\n        /* \"#utility.yul\":37670:37671   */\n      dup5\n        /* \"#utility.yul\":37667:37689   */\n      eq\n        /* \"#utility.yul\":37647:37648   */\n      dup4\n        /* \"#utility.yul\":37640:37649   */\n      iszero\n        /* \"#utility.yul\":37620:37703   */\n      or\n        /* \"#utility.yul\":37597:37736   */\n      tag_749\n      jumpi\n        /* \"#utility.yul\":37716:37734   */\n      tag_750\n      tag_401\n      jump\t// in\n    tag_750:\n        /* \"#utility.yul\":37597:37736   */\n    tag_749:\n        /* \"#utility.yul\":37381:37743   */\n      pop\n        /* \"#utility.yul\":37333:37743   */\n      swap3\n      swap2\n      pop\n      pop\n      jump\t// out\n        /* \"#utility.yul\":37749:37929   */\n    tag_286:\n        /* \"#utility.yul\":37797:37874   */\n      0x4e487b7100000000000000000000000000000000000000000000000000000000\n        /* \"#utility.yul\":37794:37795   */\n      0x00\n        /* \"#utility.yul\":37787:37875   */\n      mstore\n        /* \"#utility.yul\":37894:37898   */\n      0x12\n        /* \"#utility.yul\":37891:37892   */\n      0x04\n        /* \"#utility.yul\":37884:37899   */\n      mstore\n        /* \"#utility.yul\":37918:37922   */\n      0x24\n        /* \"#utility.yul\":37915:37916   */\n      0x00\n        /* \"#utility.yul\":37908:37923   */\n      revert\n\n    auxdata: 0xa26469706673582212200e6a7b33239fe5fed8bde2d6be9d074ca9edabf1c85bbec152b84fb9f29e9c4564736f6c63430008120033\n}\n",
				"bytecode": {
					"linkReferences": {},
					"object": "608060405260056006556000600760006101000a81548160ff02191690831515021790555034801561003057600080fd5b50612ce2806100406000396000f3fe608060405234801561001057600080fd5b50600436106101005760003560e01c8063a2fb117511610097578063d94a350511610066578063d94a35051461028b578063dc6b8627146102aa578063ec5d0ab2146102c8578063f356733c146102e457610100565b8063a2fb117514610201578063c9230c5d14610233578063cff29dfd14610251578063d826f88f1461028157610100565b806366c85dee116100d357806366c85dee146101795780638f772f9614610195578063938626c2146101c7578063a2ebc656146101e557610100565b80631744e03b1461010557806335abd160146101215780633817df4c1461013f57806340bd59371461016f575b600080fd5b61011f600480360381019061011a9190611afc565b6102ee565b005b61012961049b565b6040516101369190611d39565b60405180910390f35b61015960048036038101906101549190611d87565b610642565b6040516101669190611dcd565b60405180910390f35b61017761065a565b005b610193600480360381019061018e9190611afc565b61074c565b005b6101af60048036038101906101aa9190611de8565b6109ea565b6040516101be93929190611e7d565b60405180910390f35b6101cf610acc565b6040516101dc9190611ebb565b60405180910390f35b6101ff60048036038101906101fa9190611edd565b610b5a565b005b61021b60048036038101906102169190611de8565b610ba1565b60405161022a93929190611f55565b60405180910390f35b61023b610c83565b6040516102489190611ebb565b60405180910390f35b61026b60048036038101906102669190611de8565b610d11565b6040516102789190611f93565b60405180910390f35b610289610d50565b005b610293610e21565b6040516102a1929190611fae565b60405180910390f35b6102b2610f9e565b6040516102bf91906120f7565b60405180910390f35b6102e260048036038101906102dd9190612145565b611145565b005b6102ec61126a565b005b60011515600760009054906101000a900460ff16151514610344576040517f08c379a000000000000000000000000000000000000000000000000000000000815260040161033b906121be565b60405180910390fd5b6004544211610388576040517f08c379a000000000000000000000000000000000000000000000000000000000815260040161037f90612250565b60405180910390fd5b60055442106103cc576040517f08c379a00000000000000000000000000000000000000000000000000000000081526004016103c3906122e2565b60405180910390fd5b600060405180606001604052803373ffffffffffffffffffffffffffffffffffffffff168152602001848152602001838152509050600a81908060018154018082558091505060019003906000526020600020906003020160009091909190915060008201518160000160006101000a81548173ffffffffffffffffffffffffffffffffffffffff021916908373ffffffffffffffffffffffffffffffffffffffff160217905550602082015181600101556040820151816002019081610493919061250e565b505050505050565b606060011515600760009054906101000a900460ff161515146104f3576040517f08c379a00000000000000000000000000000000000000000000000000000000081526004016104ea906121be565b60405180910390fd5b600b805480602002602001604051908101604052809291908181526020016000905b828210156106395783829060005260206000209060030201604051806060016040529081600082015481526020016001820160009054906101000a900473ffffffffffffffffffffffffffffffffffffffff1673ffffffffffffffffffffffffffffffffffffffff1673ffffffffffffffffffffffffffffffffffffffff1681526020016002820180546105a890612331565b80601f01602080910402602001604051908101604052809291908181526020018280546105d490612331565b80156106215780601f106105f657610100808354040283529160200191610621565b820191906000526020600020905b81548152906001019060200180831161060457829003601f168201915b50505050508152505081526020019060010190610515565b50505050905090565b60096020528060005260406000206000915090505481565b600554421161069e576040517f08c379a00000000000000000000000000000000000000000000000000000000081526004016106959061262c565b60405180910390fd5b60005b600880549050811015610749576000600882815481106106c4576106c361264c565b5b9060005260206000200160009054906101000a900473ffffffffffffffffffffffffffffffffffffffff169050600960008273ffffffffffffffffffffffffffffffffffffffff1673ffffffffffffffffffffffffffffffffffffffff168152602001908152602001600020600090555060018161074291906126aa565b90506106a1565b50565b60011515600760009054906101000a900460ff161515146107a2576040517f08c379a0000000000000000000000000000000000000000000000000000000008152600401610799906121be565b60405180910390fd5b60045442116107e6576040517f08c379a00000000000000000000000000000000000000000000000000000000081526004016107dd90612750565b60405180910390fd5b600554421061082a576040517f08c379a0000000000000000000000000000000000000000000000000000000008152600401610821906127bc565b60405180910390fd5b60006108368383611369565b905080600960003373ffffffffffffffffffffffffffffffffffffffff1673ffffffffffffffffffffffffffffffffffffffff16815260200190815260200160002054146108b9576040517f08c379a00000000000000000000000000000000000000000000000000000000081526004016108b09061284e565b60405180910390fd5b600115156108c684611416565b151514610908576040517f08c379a00000000000000000000000000000000000000000000000000000000081526004016108ff90612906565b60405180910390fd5b610910611480565b61091a8383611490565b600060405180606001604052808581526020013373ffffffffffffffffffffffffffffffffffffffff168152602001848152509050600b8190806001815401808255809150506001900390600052602060002090600302016000909190919091506000820151816000015560208201518160010160006101000a81548173ffffffffffffffffffffffffffffffffffffffff021916908373ffffffffffffffffffffffffffffffffffffffff16021790555060408201518160020190816109e1919061250e565b50505050505050565b600b81815481106109fa57600080fd5b90600052602060002090600302016000915090508060000154908060010160009054906101000a900473ffffffffffffffffffffffffffffffffffffffff1690806002018054610a4990612331565b80601f0160208091040260200160405190810160405280929190818152602001828054610a7590612331565b8015610ac25780601f10610a9757610100808354040283529160200191610ac2565b820191906000526020600020905b815481529060010190602001808311610aa557829003601f168201915b5050505050905083565b60018054610ad990612331565b80601f0160208091040260200160405190810160405280929190818152602001828054610b0590612331565b8015610b525780601f10610b2757610100808354040283529160200191610b52565b820191906000526020600020905b815481529060010190602001808311610b3557829003601f168201915b505050505081565b8160029081610b69919061250e565b508060019081610b79919061250e565b50610b8261155f565b6001600760006101000a81548160ff0219169083151502179055505050565b600a8181548110610bb157600080fd5b90600052602060002090600302016000915090508060000160009054906101000a900473ffffffffffffffffffffffffffffffffffffffff1690806001015490806002018054610c0090612331565b80601f0160208091040260200160405190810160405280929190818152602001828054610c2c90612331565b8015610c795780601f10610c4e57610100808354040283529160200191610c79565b820191906000526020600020905b815481529060010190602001808311610c5c57829003601f168201915b5050505050905083565b60028054610c9090612331565b80601f0160208091040260200160405190810160405280929190818152602001828054610cbc90612331565b8015610d095780601f10610cde57610100808354040283529160200191610d09565b820191906000526020600020905b815481529060010190602001808311610cec57829003601f168201915b505050505081565b60088181548110610d2157600080fd5b906000526020600020016000915054906101000a900473ffffffffffffffffffffffffffffffffffffffff1681565b6005544211610d94576040517f08c379a0000000000000000000000000000000000000000000000000000000008152600401610d8b9061262c565b60405180910390fd5b600a6000610da291906117fa565b6040518060200160405280600081525060019081610dc0919061250e565b506040518060200160405280600081525060029081610ddf919061250e565b50610de861065a565b60086000610df6919061181e565b600b6000610e04919061183f565b6000600760006101000a81548160ff021916908315150217905550565b60608060011515600760009054906101000a900460ff16151514610e7a576040517f08c379a0000000000000000000000000000000000000000000000000000000008152600401610e71906121be565b60405180910390fd5b60026001818054610e8a90612331565b80601f0160208091040260200160405190810160405280929190818152602001828054610eb690612331565b8015610f035780601f10610ed857610100808354040283529160200191610f03565b820191906000526020600020905b815481529060010190602001808311610ee657829003601f168201915b50505050509150808054610f1690612331565b80601f0160208091040260200160405190810160405280929190818152602001828054610f4290612331565b8015610f8f5780601f10610f6457610100808354040283529160200191610f8f565b820191906000526020600020905b815481529060010190602001808311610f7257829003601f168201915b50505050509050915091509091565b606060011515600760009054906101000a900460ff16151514610ff6576040517f08c379a0000000000000000000000000000000000000000000000000000000008152600401610fed906121be565b60405180910390fd5b600a805480602002602001604051908101604052809291908181526020016000905b8282101561113c57838290600052602060002090600302016040518060600160405290816000820160009054906101000a900473ffffffffffffffffffffffffffffffffffffffff1673ffffffffffffffffffffffffffffffffffffffff1673ffffffffffffffffffffffffffffffffffffffff168152602001600182015481526020016002820180546110ab90612331565b80601f01602080910402602001604051908101604052809291908181526020018280546110d790612331565b80156111245780601f106110f957610100808354040283529160200191611124565b820191906000526020600020905b81548152906001019060200180831161110757829003601f168201915b50505050508152505081526020019060010190611018565b50505050905090565b60011515600760009054906101000a900460ff1615151461119b576040517f08c379a0000000000000000000000000000000000000000000000000000000008152600401611192906121be565b60405180910390fd5b60035442116111df576040517f08c379a00000000000000000000000000000000000000000000000000000000081526004016111d690612998565b60405180910390fd5b6004544210611223576040517f08c379a000000000000000000000000000000000000000000000000000000000815260040161121a90612a2a565b60405180910390fd5b80600960003373ffffffffffffffffffffffffffffffffffffffff1673ffffffffffffffffffffffffffffffffffffffff1681526020019081526020016000208190555050565b60011515600760009054906101000a900460ff161515146112c0576040517f08c379a00000000000000000000000000000000000000000000000000000000081526004016112b7906121be565b60405180910390fd5b6003544210611304576040517f08c379a00000000000000000000000000000000000000000000000000000000081526004016112fb90612abc565b60405180910390fd5b6008339080600181540180825580915050600190039060005260206000200160009091909190916101000a81548173ffffffffffffffffffffffffffffffffffffffff021916908373ffffffffffffffffffffffffffffffffffffffff160217905550565b600080611375846115d9565b90506000818460405160200161138c929190612b18565b60405160208183030381529060405290506002816040516020016113b09190612b3c565b6040516020818303038152906040526040516113cc9190612b9a565b602060405180830381855afa1580156113e9573d6000803e3d6000fd5b5050506040513d601f19601f8201168201806040525081019061140c9190612bc6565b9250505092915050565b600080600090505b600a8054905081101561147557600a818154811061143f5761143e61264c565b5b90600052602060002090600302016001015483111561146257600191505061147b565b808061146d90612bf3565b91505061141e565b50600090505b919050565b600a600061148e91906117fa565b565b600060405180606001604052803373ffffffffffffffffffffffffffffffffffffffff168152602001848152602001838152509050600a81908060018154018082558091505060019003906000526020600020906003020160009091909190915060008201518160000160006101000a81548173ffffffffffffffffffffffffffffffffffffffff021916908373ffffffffffffffffffffffffffffffffffffffff160217905550602082015181600101556040820151816002019081611557919061250e565b505050505050565b603c60065461156e9190612c3b565b4261157991906126aa565b600381905550603c60065460026115909190612c3b565b61159a9190612c3b565b426115a591906126aa565b600481905550603c60065460036115bc9190612c3b565b6115c69190612c3b565b426115d191906126aa565b600581905550565b6060600060016115e8846116a7565b01905060008167ffffffffffffffff811115611607576116066119d1565b5b6040519080825280601f01601f1916602001820160405280156116395781602001600182028036833780820191505090505b509050600082602001820190505b60011561169c578080600190039150507f3031323334353637383961626364656600000000000000000000000000000000600a86061a8153600a85816116905761168f612c7d565b5b04945060008503611647575b819350505050919050565b600080600090507a184f03e93ff9f4daa797ed6e38ed64bf6a1f0100000000000000008310611705577a184f03e93ff9f4daa797ed6e38ed64bf6a1f01000000000000000083816116fb576116fa612c7d565b5b0492506040810190505b6d04ee2d6d415b85acef81000000008310611742576d04ee2d6d415b85acef8100000000838161173857611737612c7d565b5b0492506020810190505b662386f26fc10000831061177157662386f26fc10000838161176757611766612c7d565b5b0492506010810190505b6305f5e100831061179a576305f5e10083816117905761178f612c7d565b5b0492506008810190505b61271083106117bf5761271083816117b5576117b4612c7d565b5b0492506004810190505b606483106117e257606483816117d8576117d7612c7d565b5b0492506002810190505b600a83106117f1576001810190505b80915050919050565b508054600082556003029060005260206000209081019061181b9190611863565b50565b508054600082559060005260206000209081019061183c91906118b9565b50565b508054600082556003029060005260206000209081019061186091906118d6565b50565b5b808211156118b557600080820160006101000a81549073ffffffffffffffffffffffffffffffffffffffff021916905560018201600090556002820160006118ac919061192c565b50600301611864565b5090565b5b808211156118d25760008160009055506001016118ba565b5090565b5b80821115611928576000808201600090556001820160006101000a81549073ffffffffffffffffffffffffffffffffffffffff021916905560028201600061191f919061192c565b506003016118d7565b5090565b50805461193890612331565b6000825580601f1061194a5750611969565b601f01602090049060005260206000209081019061196891906118b9565b5b50565b6000604051905090565b600080fd5b600080fd5b6000819050919050565b61199381611980565b811461199e57600080fd5b50565b6000813590506119b08161198a565b92915050565b600080fd5b600080fd5b6000601f19601f8301169050919050565b7f4e487b7100000000000000000000000000000000000000000000000000000000600052604160045260246000fd5b611a09826119c0565b810181811067ffffffffffffffff82111715611a2857611a276119d1565b5b80604052505050565b6000611a3b61196c565b9050611a478282611a00565b919050565b600067ffffffffffffffff821115611a6757611a666119d1565b5b611a70826119c0565b9050602081019050919050565b82818337600083830152505050565b6000611a9f611a9a84611a4c565b611a31565b905082815260208101848484011115611abb57611aba6119bb565b5b611ac6848285611a7d565b509392505050565b600082601f830112611ae357611ae26119b6565b5b8135611af3848260208601611a8c565b91505092915050565b60008060408385031215611b1357611b12611976565b5b6000611b21858286016119a1565b925050602083013567ffffffffffffffff811115611b4257611b4161197b565b5b611b4e85828601611ace565b9150509250929050565b600081519050919050565b600082825260208201905092915050565b6000819050602082019050919050565b611b8d81611980565b82525050565b600073ffffffffffffffffffffffffffffffffffffffff82169050919050565b6000611bbe82611b93565b9050919050565b611bce81611bb3565b82525050565b600081519050919050565b600082825260208201905092915050565b60005b83811015611c0e578082015181840152602081019050611bf3565b60008484015250505050565b6000611c2582611bd4565b611c2f8185611bdf565b9350611c3f818560208601611bf0565b611c48816119c0565b840191505092915050565b6000606083016000830151611c6b6000860182611b84565b506020830151611c7e6020860182611bc5565b5060408301518482036040860152611c968282611c1a565b9150508091505092915050565b6000611caf8383611c53565b905092915050565b6000602082019050919050565b6000611ccf82611b58565b611cd98185611b63565b935083602082028501611ceb85611b74565b8060005b85811015611d275784840389528151611d088582611ca3565b9450611d1383611cb7565b925060208a01995050600181019050611cef565b50829750879550505050505092915050565b60006020820190508181036000830152611d538184611cc4565b905092915050565b611d6481611bb3565b8114611d6f57600080fd5b50565b600081359050611d8181611d5b565b92915050565b600060208284031215611d9d57611d9c611976565b5b6000611dab84828501611d72565b91505092915050565b6000819050919050565b611dc781611db4565b82525050565b6000602082019050611de26000830184611dbe565b92915050565b600060208284031215611dfe57611dfd611976565b5b6000611e0c848285016119a1565b91505092915050565b611e1e81611980565b82525050565b611e2d81611bb3565b82525050565b600082825260208201905092915050565b6000611e4f82611bd4565b611e598185611e33565b9350611e69818560208601611bf0565b611e72816119c0565b840191505092915050565b6000606082019050611e926000830186611e15565b611e9f6020830185611e24565b8181036040830152611eb18184611e44565b9050949350505050565b60006020820190508181036000830152611ed58184611e44565b905092915050565b60008060408385031215611ef457611ef3611976565b5b600083013567ffffffffffffffff811115611f1257611f1161197b565b5b611f1e85828601611ace565b925050602083013567ffffffffffffffff811115611f3f57611f3e61197b565b5b611f4b85828601611ace565b9150509250929050565b6000606082019050611f6a6000830186611e24565b611f776020830185611e15565b8181036040830152611f898184611e44565b9050949350505050565b6000602082019050611fa86000830184611e24565b92915050565b60006040820190508181036000830152611fc88185611e44565b90508181036020830152611fdc8184611e44565b90509392505050565b600081519050919050565b600082825260208201905092915050565b6000819050602082019050919050565b60006060830160008301516120296000860182611bc5565b50602083015161203c6020860182611b84565b50604083015184820360408601526120548282611c1a565b9150508091505092915050565b600061206d8383612011565b905092915050565b6000602082019050919050565b600061208d82611fe5565b6120978185611ff0565b9350836020820285016120a985612001565b8060005b858110156120e557848403895281516120c68582612061565b94506120d183612075565b925060208a019950506001810190506120ad565b50829750879550505050505092915050565b600060208201905081810360008301526121118184612082565b905092915050565b61212281611db4565b811461212d57600080fd5b50565b60008135905061213f81612119565b92915050565b60006020828403121561215b5761215a611976565b5b600061216984828501612130565b91505092915050565b7f5468657265206973206e6f20737461727465642061756374696f6e206e6f7700600082015250565b60006121a8601f83611e33565b91506121b382612172565b602082019050919050565b600060208201905081810360008301526121d78161219b565b9050919050565b7f57696e6e6572207375626d697373696f6e20706861736520686173206e6f742060008201527f73746172746564207965742e0000000000000000000000000000000000000000602082015250565b600061223a602c83611e33565b9150612245826121de565b604082019050919050565b600060208201905081810360008301526122698161222d565b9050919050565b7f57696e6e6572207375626d697373696f6e2074696d652068617320706173736560008201527f642e000000000000000000000000000000000000000000000000000000000000602082015250565b60006122cc602283611e33565b91506122d782612270565b604082019050919050565b600060208201905081810360008301526122fb816122bf565b9050919050565b7f4e487b7100000000000000000000000000000000000000000000000000000000600052602260045260246000fd5b6000600282049050600182168061234957607f821691505b60208210810361235c5761235b612302565b5b50919050565b60008190508160005260206000209050919050565b60006020601f8301049050919050565b600082821b905092915050565b6000600883026123c47fffffffffffffffffffffffffffffffffffffffffffffffffffffffffffffffff82612387565b6123ce8683612387565b95508019841693508086168417925050509392505050565b6000819050919050565b600061240b61240661240184611980565b6123e6565b611980565b9050919050565b6000819050919050565b612425836123f0565b61243961243182612412565b848454612394565b825550505050565b600090565b61244e612441565b61245981848461241c565b505050565b5b8181101561247d57612472600082612446565b60018101905061245f565b5050565b601f8211156124c25761249381612362565b61249c84612377565b810160208510156124ab578190505b6124bf6124b785612377565b83018261245e565b50505b505050565b600082821c905092915050565b60006124e5600019846008026124c7565b1980831691505092915050565b60006124fe83836124d4565b9150826002028217905092915050565b61251782611bd4565b67ffffffffffffffff8111156125305761252f6119d1565b5b61253a8254612331565b612545828285612481565b600060209050601f8311600181146125785760008415612566578287015190505b61257085826124f2565b8655506125d8565b601f19841661258686612362565b60005b828110156125ae57848901518255600182019150602085019450602081019050612589565b868310156125cb57848901516125c7601f8916826124d4565b8355505b6001600288020188555050505b505050505050565b7f41756374696f6e206973206e6f7420636f6d706c65746564207965742e000000600082015250565b6000612616601d83611e33565b9150612621826125e0565b602082019050919050565b6000602082019050818103600083015261264581612609565b9050919050565b7f4e487b7100000000000000000000000000000000000000000000000000000000600052603260045260246000fd5b7f4e487b7100000000000000000000000000000000000000000000000000000000600052601160045260246000fd5b60006126b582611980565b91506126c083611980565b92508282019050808211156126d8576126d761267b565b5b92915050565b7f4469737075746520706861736520686173206e6f74207374617274656420796560008201527f742e000000000000000000000000000000000000000000000000000000000000602082015250565b600061273a602283611e33565b9150612745826126de565b604082019050919050565b600060208201905081810360008301526127698161272d565b9050919050565b7f4469737075746520706861736520686173207061737365642e00000000000000600082015250565b60006127a6601983611e33565b91506127b182612770565b602082019050919050565b600060208201905081810360008301526127d581612799565b9050919050565b7f5468652062696420616e64206e6f6e636520796f75207375626d69747465642060008201527f617265206e6f742076616c69642e000000000000000000000000000000000000602082015250565b6000612838602e83611e33565b9150612843826127dc565b604082019050919050565b600060208201905081810360008301526128678161282b565b9050919050565b7f596f75722064697370757465206973206e6f742076616c69642073696e63652060008201527f6974206973206e6f742067726561746572207468616e206174206c656173742060208201527f6f6e652077696e6e65722e000000000000000000000000000000000000000000604082015250565b60006128f0604b83611e33565b91506128fb8261286e565b606082019050919050565b6000602082019050818103600083015261291f816128e3565b9050919050565b7f48617368656420626964207375626d697373696f6e207068617365206973206e60008201527f6f742073746172746564207965742e0000000000000000000000000000000000602082015250565b6000612982602f83611e33565b915061298d82612926565b604082019050919050565b600060208201905081810360008301526129b181612975565b9050919050565b7f54696d6520666f722068617368656420626964207375626d697373696f6e206960008201527f7320706173736564000000000000000000000000000000000000000000000000602082015250565b6000612a14602883611e33565b9150612a1f826129b8565b604082019050919050565b60006020820190508181036000830152612a4381612a07565b9050919050565b7f54696d6520666f72207265676973746572696e6720617320612062696464657260008201527f206973207061737365642e000000000000000000000000000000000000000000602082015250565b6000612aa6602b83611e33565b9150612ab182612a4a565b604082019050919050565b60006020820190508181036000830152612ad581612a99565b9050919050565b600081905092915050565b6000612af282611bd4565b612afc8185612adc565b9350612b0c818560208601611bf0565b80840191505092915050565b6000612b248285612ae7565b9150612b308284612ae7565b91508190509392505050565b6000612b488284612ae7565b915081905092915050565b600081519050919050565b600081905092915050565b6000612b7482612b53565b612b7e8185612b5e565b9350612b8e818560208601611bf0565b80840191505092915050565b6000612ba68284612b69565b915081905092915050565b600081519050612bc081612119565b92915050565b600060208284031215612bdc57612bdb611976565b5b6000612bea84828501612bb1565b91505092915050565b6000612bfe82611980565b91507fffffffffffffffffffffffffffffffffffffffffffffffffffffffffffffffff8203612c3057612c2f61267b565b5b600182019050919050565b6000612c4682611980565b9150612c5183611980565b9250828202612c5f81611980565b91508282048414831517612c7657612c7561267b565b5b5092915050565b7f4e487b7100000000000000000000000000000000000000000000000000000000600052601260045260246000fdfea26469706673582212200e6a7b33239fe5fed8bde2d6be9d074ca9edabf1c85bbec152b84fb9f29e9c4564736f6c63430008120033",
					"opcodes": "PUSH1 0x80 PUSH1 0x40 MSTORE PUSH1 0x5 PUSH1 0x6 SSTORE PUSH1 0x0 PUSH1 0x7 PUSH1 0x0 PUSH2 0x100 EXP DUP2 SLOAD DUP2 PUSH1 0xFF MUL NOT AND SWAP1 DUP4 ISZERO ISZERO MUL OR SWAP1 SSTORE POP CALLVALUE DUP1 ISZERO PUSH2 0x30 JUMPI PUSH1 0x0 DUP1 REVERT JUMPDEST POP PUSH2 0x2CE2 DUP1 PUSH2 0x40 PUSH1 0x0 CODECOPY PUSH1 0x0 RETURN INVALID PUSH1 0x80 PUSH1 0x40 MSTORE CALLVALUE DUP1 ISZERO PUSH2 0x10 JUMPI PUSH1 0x0 DUP1 REVERT JUMPDEST POP PUSH1 0x4 CALLDATASIZE LT PUSH2 0x100 JUMPI PUSH1 0x0 CALLDATALOAD PUSH1 0xE0 SHR DUP1 PUSH4 0xA2FB1175 GT PUSH2 0x97 JUMPI DUP1 PUSH4 0xD94A3505 GT PUSH2 0x66 JUMPI DUP1 PUSH4 0xD94A3505 EQ PUSH2 0x28B JUMPI DUP1 PUSH4 0xDC6B8627 EQ PUSH2 0x2AA JUMPI DUP1 PUSH4 0xEC5D0AB2 EQ PUSH2 0x2C8 JUMPI DUP1 PUSH4 0xF356733C EQ PUSH2 0x2E4 JUMPI PUSH2 0x100 JUMP JUMPDEST DUP1 PUSH4 0xA2FB1175 EQ PUSH2 0x201 JUMPI DUP1 PUSH4 0xC9230C5D EQ PUSH2 0x233 JUMPI DUP1 PUSH4 0xCFF29DFD EQ PUSH2 0x251 JUMPI DUP1 PUSH4 0xD826F88F EQ PUSH2 0x281 JUMPI PUSH2 0x100 JUMP JUMPDEST DUP1 PUSH4 0x66C85DEE GT PUSH2 0xD3 JUMPI DUP1 PUSH4 0x66C85DEE EQ PUSH2 0x179 JUMPI DUP1 PUSH4 0x8F772F96 EQ PUSH2 0x195 JUMPI DUP1 PUSH4 0x938626C2 EQ PUSH2 0x1C7 JUMPI DUP1 PUSH4 0xA2EBC656 EQ PUSH2 0x1E5 JUMPI PUSH2 0x100 JUMP JUMPDEST DUP1 PUSH4 0x1744E03B EQ PUSH2 0x105 JUMPI DUP1 PUSH4 0x35ABD160 EQ PUSH2 0x121 JUMPI DUP1 PUSH4 0x3817DF4C EQ PUSH2 0x13F JUMPI DUP1 PUSH4 0x40BD5937 EQ PUSH2 0x16F JUMPI JUMPDEST PUSH1 0x0 DUP1 REVERT JUMPDEST PUSH2 0x11F PUSH1 0x4 DUP1 CALLDATASIZE SUB DUP2 ADD SWAP1 PUSH2 0x11A SWAP2 SWAP1 PUSH2 0x1AFC JUMP JUMPDEST PUSH2 0x2EE JUMP JUMPDEST STOP JUMPDEST PUSH2 0x129 PUSH2 0x49B JUMP JUMPDEST PUSH1 0x40 MLOAD PUSH2 0x136 SWAP2 SWAP1 PUSH2 0x1D39 JUMP JUMPDEST PUSH1 0x40 MLOAD DUP1 SWAP2 SUB SWAP1 RETURN JUMPDEST PUSH2 0x159 PUSH1 0x4 DUP1 CALLDATASIZE SUB DUP2 ADD SWAP1 PUSH2 0x154 SWAP2 SWAP1 PUSH2 0x1D87 JUMP JUMPDEST PUSH2 0x642 JUMP JUMPDEST PUSH1 0x40 MLOAD PUSH2 0x166 SWAP2 SWAP1 PUSH2 0x1DCD JUMP JUMPDEST PUSH1 0x40 MLOAD DUP1 SWAP2 SUB SWAP1 RETURN JUMPDEST PUSH2 0x177 PUSH2 0x65A JUMP JUMPDEST STOP JUMPDEST PUSH2 0x193 PUSH1 0x4 DUP1 CALLDATASIZE SUB DUP2 ADD SWAP1 PUSH2 0x18E SWAP2 SWAP1 PUSH2 0x1AFC JUMP JUMPDEST PUSH2 0x74C JUMP JUMPDEST STOP JUMPDEST PUSH2 0x1AF PUSH1 0x4 DUP1 CALLDATASIZE SUB DUP2 ADD SWAP1 PUSH2 0x1AA SWAP2 SWAP1 PUSH2 0x1DE8 JUMP JUMPDEST PUSH2 0x9EA JUMP JUMPDEST PUSH1 0x40 MLOAD PUSH2 0x1BE SWAP4 SWAP3 SWAP2 SWAP1 PUSH2 0x1E7D JUMP JUMPDEST PUSH1 0x40 MLOAD DUP1 SWAP2 SUB SWAP1 RETURN JUMPDEST PUSH2 0x1CF PUSH2 0xACC JUMP JUMPDEST PUSH1 0x40 MLOAD PUSH2 0x1DC SWAP2 SWAP1 PUSH2 0x1EBB JUMP JUMPDEST PUSH1 0x40 MLOAD DUP1 SWAP2 SUB SWAP1 RETURN JUMPDEST PUSH2 0x1FF PUSH1 0x4 DUP1 CALLDATASIZE SUB DUP2 ADD SWAP1 PUSH2 0x1FA SWAP2 SWAP1 PUSH2 0x1EDD JUMP JUMPDEST PUSH2 0xB5A JUMP JUMPDEST STOP JUMPDEST PUSH2 0x21B PUSH1 0x4 DUP1 CALLDATASIZE SUB DUP2 ADD SWAP1 PUSH2 0x216 SWAP2 SWAP1 PUSH2 0x1DE8 JUMP JUMPDEST PUSH2 0xBA1 JUMP JUMPDEST PUSH1 0x40 MLOAD PUSH2 0x22A SWAP4 SWAP3 SWAP2 SWAP1 PUSH2 0x1F55 JUMP JUMPDEST PUSH1 0x40 MLOAD DUP1 SWAP2 SUB SWAP1 RETURN JUMPDEST PUSH2 0x23B PUSH2 0xC83 JUMP JUMPDEST PUSH1 0x40 MLOAD PUSH2 0x248 SWAP2 SWAP1 PUSH2 0x1EBB JUMP JUMPDEST PUSH1 0x40 MLOAD DUP1 SWAP2 SUB SWAP1 RETURN JUMPDEST PUSH2 0x26B PUSH1 0x4 DUP1 CALLDATASIZE SUB DUP2 ADD SWAP1 PUSH2 0x266 SWAP2 SWAP1 PUSH2 0x1DE8 JUMP JUMPDEST PUSH2 0xD11 JUMP JUMPDEST PUSH1 0x40 MLOAD PUSH2 0x278 SWAP2 SWAP1 PUSH2 0x1F93 JUMP JUMPDEST PUSH1 0x40 MLOAD DUP1 SWAP2 SUB SWAP1 RETURN JUMPDEST PUSH2 0x289 PUSH2 0xD50 JUMP JUMPDEST STOP JUMPDEST PUSH2 0x293 PUSH2 0xE21 JUMP JUMPDEST PUSH1 0x40 MLOAD PUSH2 0x2A1 SWAP3 SWAP2 SWAP1 PUSH2 0x1FAE JUMP JUMPDEST PUSH1 0x40 MLOAD DUP1 SWAP2 SUB SWAP1 RETURN JUMPDEST PUSH2 0x2B2 PUSH2 0xF9E JUMP JUMPDEST PUSH1 0x40 MLOAD PUSH2 0x2BF SWAP2 SWAP1 PUSH2 0x20F7 JUMP JUMPDEST PUSH1 0x40 MLOAD DUP1 SWAP2 SUB SWAP1 RETURN JUMPDEST PUSH2 0x2E2 PUSH1 0x4 DUP1 CALLDATASIZE SUB DUP2 ADD SWAP1 PUSH2 0x2DD SWAP2 SWAP1 PUSH2 0x2145 JUMP JUMPDEST PUSH2 0x1145 JUMP JUMPDEST STOP JUMPDEST PUSH2 0x2EC PUSH2 0x126A JUMP JUMPDEST STOP JUMPDEST PUSH1 0x1 ISZERO ISZERO PUSH1 0x7 PUSH1 0x0 SWAP1 SLOAD SWAP1 PUSH2 0x100 EXP SWAP1 DIV PUSH1 0xFF AND ISZERO ISZERO EQ PUSH2 0x344 JUMPI PUSH1 0x40 MLOAD PUSH32 0x8C379A000000000000000000000000000000000000000000000000000000000 DUP2 MSTORE PUSH1 0x4 ADD PUSH2 0x33B SWAP1 PUSH2 0x21BE JUMP JUMPDEST PUSH1 0x40 MLOAD DUP1 SWAP2 SUB SWAP1 REVERT JUMPDEST PUSH1 0x4 SLOAD TIMESTAMP GT PUSH2 0x388 JUMPI PUSH1 0x40 MLOAD PUSH32 0x8C379A000000000000000000000000000000000000000000000000000000000 DUP2 MSTORE PUSH1 0x4 ADD PUSH2 0x37F SWAP1 PUSH2 0x2250 JUMP JUMPDEST PUSH1 0x40 MLOAD DUP1 SWAP2 SUB SWAP1 REVERT JUMPDEST PUSH1 0x5 SLOAD TIMESTAMP LT PUSH2 0x3CC JUMPI PUSH1 0x40 MLOAD PUSH32 0x8C379A000000000000000000000000000000000000000000000000000000000 DUP2 MSTORE PUSH1 0x4 ADD PUSH2 0x3C3 SWAP1 PUSH2 0x22E2 JUMP JUMPDEST PUSH1 0x40 MLOAD DUP1 SWAP2 SUB SWAP1 REVERT JUMPDEST PUSH1 0x0 PUSH1 0x40 MLOAD DUP1 PUSH1 0x60 ADD PUSH1 0x40 MSTORE DUP1 CALLER PUSH20 0xFFFFFFFFFFFFFFFFFFFFFFFFFFFFFFFFFFFFFFFF AND DUP2 MSTORE PUSH1 0x20 ADD DUP5 DUP2 MSTORE PUSH1 0x20 ADD DUP4 DUP2 MSTORE POP SWAP1 POP PUSH1 0xA DUP2 SWAP1 DUP1 PUSH1 0x1 DUP2 SLOAD ADD DUP1 DUP3 SSTORE DUP1 SWAP2 POP POP PUSH1 0x1 SWAP1 SUB SWAP1 PUSH1 0x0 MSTORE PUSH1 0x20 PUSH1 0x0 KECCAK256 SWAP1 PUSH1 0x3 MUL ADD PUSH1 0x0 SWAP1 SWAP2 SWAP1 SWAP2 SWAP1 SWAP2 POP PUSH1 0x0 DUP3 ADD MLOAD DUP2 PUSH1 0x0 ADD PUSH1 0x0 PUSH2 0x100 EXP DUP2 SLOAD DUP2 PUSH20 0xFFFFFFFFFFFFFFFFFFFFFFFFFFFFFFFFFFFFFFFF MUL NOT AND SWAP1 DUP4 PUSH20 0xFFFFFFFFFFFFFFFFFFFFFFFFFFFFFFFFFFFFFFFF AND MUL OR SWAP1 SSTORE POP PUSH1 0x20 DUP3 ADD MLOAD DUP2 PUSH1 0x1 ADD SSTORE PUSH1 0x40 DUP3 ADD MLOAD DUP2 PUSH1 0x2 ADD SWAP1 DUP2 PUSH2 0x493 SWAP2 SWAP1 PUSH2 0x250E JUMP JUMPDEST POP POP POP POP POP POP JUMP JUMPDEST PUSH1 0x60 PUSH1 0x1 ISZERO ISZERO PUSH1 0x7 PUSH1 0x0 SWAP1 SLOAD SWAP1 PUSH2 0x100 EXP SWAP1 DIV PUSH1 0xFF AND ISZERO ISZERO EQ PUSH2 0x4F3 JUMPI PUSH1 0x40 MLOAD PUSH32 0x8C379A000000000000000000000000000000000000000000000000000000000 DUP2 MSTORE PUSH1 0x4 ADD PUSH2 0x4EA SWAP1 PUSH2 0x21BE JUMP JUMPDEST PUSH1 0x40 MLOAD DUP1 SWAP2 SUB SWAP1 REVERT JUMPDEST PUSH1 0xB DUP1 SLOAD DUP1 PUSH1 0x20 MUL PUSH1 0x20 ADD PUSH1 0x40 MLOAD SWAP1 DUP2 ADD PUSH1 0x40 MSTORE DUP1 SWAP3 SWAP2 SWAP1 DUP2 DUP2 MSTORE PUSH1 0x20 ADD PUSH1 0x0 SWAP1 JUMPDEST DUP3 DUP3 LT ISZERO PUSH2 0x639 JUMPI DUP4 DUP3 SWAP1 PUSH1 0x0 MSTORE PUSH1 0x20 PUSH1 0x0 KECCAK256 SWAP1 PUSH1 0x3 MUL ADD PUSH1 0x40 MLOAD DUP1 PUSH1 0x60 ADD PUSH1 0x40 MSTORE SWAP1 DUP2 PUSH1 0x0 DUP3 ADD SLOAD DUP2 MSTORE PUSH1 0x20 ADD PUSH1 0x1 DUP3 ADD PUSH1 0x0 SWAP1 SLOAD SWAP1 PUSH2 0x100 EXP SWAP1 DIV PUSH20 0xFFFFFFFFFFFFFFFFFFFFFFFFFFFFFFFFFFFFFFFF AND PUSH20 0xFFFFFFFFFFFFFFFFFFFFFFFFFFFFFFFFFFFFFFFF AND PUSH20 0xFFFFFFFFFFFFFFFFFFFFFFFFFFFFFFFFFFFFFFFF AND DUP2 MSTORE PUSH1 0x20 ADD PUSH1 0x2 DUP3 ADD DUP1 SLOAD PUSH2 0x5A8 SWAP1 PUSH2 0x2331 JUMP JUMPDEST DUP1 PUSH1 0x1F ADD PUSH1 0x20 DUP1 SWAP2 DIV MUL PUSH1 0x20 ADD PUSH1 0x40 MLOAD SWAP1 DUP2 ADD PUSH1 0x40 MSTORE DUP1 SWAP3 SWAP2 SWAP1 DUP2 DUP2 MSTORE PUSH1 0x20 ADD DUP3 DUP1 SLOAD PUSH2 0x5D4 SWAP1 PUSH2 0x2331 JUMP JUMPDEST DUP1 ISZERO PUSH2 0x621 JUMPI DUP1 PUSH1 0x1F LT PUSH2 0x5F6 JUMPI PUSH2 0x100 DUP1 DUP4 SLOAD DIV MUL DUP4 MSTORE SWAP2 PUSH1 0x20 ADD SWAP2 PUSH2 0x621 JUMP JUMPDEST DUP3 ADD SWAP2 SWAP1 PUSH1 0x0 MSTORE PUSH1 0x20 PUSH1 0x0 KECCAK256 SWAP1 JUMPDEST DUP2 SLOAD DUP2 MSTORE SWAP1 PUSH1 0x1 ADD SWAP1 PUSH1 0x20 ADD DUP1 DUP4 GT PUSH2 0x604 JUMPI DUP3 SWAP1 SUB PUSH1 0x1F AND DUP3 ADD SWAP2 JUMPDEST POP POP POP POP POP DUP2 MSTORE POP POP DUP2 MSTORE PUSH1 0x20 ADD SWAP1 PUSH1 0x1 ADD SWAP1 PUSH2 0x515 JUMP JUMPDEST POP POP POP POP SWAP1 POP SWAP1 JUMP JUMPDEST PUSH1 0x9 PUSH1 0x20 MSTORE DUP1 PUSH1 0x0 MSTORE PUSH1 0x40 PUSH1 0x0 KECCAK256 PUSH1 0x0 SWAP2 POP SWAP1 POP SLOAD DUP2 JUMP JUMPDEST PUSH1 0x5 SLOAD TIMESTAMP GT PUSH2 0x69E JUMPI PUSH1 0x40 MLOAD PUSH32 0x8C379A000000000000000000000000000000000000000000000000000000000 DUP2 MSTORE PUSH1 0x4 ADD PUSH2 0x695 SWAP1 PUSH2 0x262C JUMP JUMPDEST PUSH1 0x40 MLOAD DUP1 SWAP2 SUB SWAP1 REVERT JUMPDEST PUSH1 0x0 JUMPDEST PUSH1 0x8 DUP1 SLOAD SWAP1 POP DUP2 LT ISZERO PUSH2 0x749 JUMPI PUSH1 0x0 PUSH1 0x8 DUP3 DUP2 SLOAD DUP2 LT PUSH2 0x6C4 JUMPI PUSH2 0x6C3 PUSH2 0x264C JUMP JUMPDEST JUMPDEST SWAP1 PUSH1 0x0 MSTORE PUSH1 0x20 PUSH1 0x0 KECCAK256 ADD PUSH1 0x0 SWAP1 SLOAD SWAP1 PUSH2 0x100 EXP SWAP1 DIV PUSH20 0xFFFFFFFFFFFFFFFFFFFFFFFFFFFFFFFFFFFFFFFF AND SWAP1 POP PUSH1 0x9 PUSH1 0x0 DUP3 PUSH20 0xFFFFFFFFFFFFFFFFFFFFFFFFFFFFFFFFFFFFFFFF AND PUSH20 0xFFFFFFFFFFFFFFFFFFFFFFFFFFFFFFFFFFFFFFFF AND DUP2 MSTORE PUSH1 0x20 ADD SWAP1 DUP2 MSTORE PUSH1 0x20 ADD PUSH1 0x0 KECCAK256 PUSH1 0x0 SWAP1 SSTORE POP PUSH1 0x1 DUP2 PUSH2 0x742 SWAP2 SWAP1 PUSH2 0x26AA JUMP JUMPDEST SWAP1 POP PUSH2 0x6A1 JUMP JUMPDEST POP JUMP JUMPDEST PUSH1 0x1 ISZERO ISZERO PUSH1 0x7 PUSH1 0x0 SWAP1 SLOAD SWAP1 PUSH2 0x100 EXP SWAP1 DIV PUSH1 0xFF AND ISZERO ISZERO EQ PUSH2 0x7A2 JUMPI PUSH1 0x40 MLOAD PUSH32 0x8C379A000000000000000000000000000000000000000000000000000000000 DUP2 MSTORE PUSH1 0x4 ADD PUSH2 0x799 SWAP1 PUSH2 0x21BE JUMP JUMPDEST PUSH1 0x40 MLOAD DUP1 SWAP2 SUB SWAP1 REVERT JUMPDEST PUSH1 0x4 SLOAD TIMESTAMP GT PUSH2 0x7E6 JUMPI PUSH1 0x40 MLOAD PUSH32 0x8C379A000000000000000000000000000000000000000000000000000000000 DUP2 MSTORE PUSH1 0x4 ADD PUSH2 0x7DD SWAP1 PUSH2 0x2750 JUMP JUMPDEST PUSH1 0x40 MLOAD DUP1 SWAP2 SUB SWAP1 REVERT JUMPDEST PUSH1 0x5 SLOAD TIMESTAMP LT PUSH2 0x82A JUMPI PUSH1 0x40 MLOAD PUSH32 0x8C379A000000000000000000000000000000000000000000000000000000000 DUP2 MSTORE PUSH1 0x4 ADD PUSH2 0x821 SWAP1 PUSH2 0x27BC JUMP JUMPDEST PUSH1 0x40 MLOAD DUP1 SWAP2 SUB SWAP1 REVERT JUMPDEST PUSH1 0x0 PUSH2 0x836 DUP4 DUP4 PUSH2 0x1369 JUMP JUMPDEST SWAP1 POP DUP1 PUSH1 0x9 PUSH1 0x0 CALLER PUSH20 0xFFFFFFFFFFFFFFFFFFFFFFFFFFFFFFFFFFFFFFFF AND PUSH20 0xFFFFFFFFFFFFFFFFFFFFFFFFFFFFFFFFFFFFFFFF AND DUP2 MSTORE PUSH1 0x20 ADD SWAP1 DUP2 MSTORE PUSH1 0x20 ADD PUSH1 0x0 KECCAK256 SLOAD EQ PUSH2 0x8B9 JUMPI PUSH1 0x40 MLOAD PUSH32 0x8C379A000000000000000000000000000000000000000000000000000000000 DUP2 MSTORE PUSH1 0x4 ADD PUSH2 0x8B0 SWAP1 PUSH2 0x284E JUMP JUMPDEST PUSH1 0x40 MLOAD DUP1 SWAP2 SUB SWAP1 REVERT JUMPDEST PUSH1 0x1 ISZERO ISZERO PUSH2 0x8C6 DUP5 PUSH2 0x1416 JUMP JUMPDEST ISZERO ISZERO EQ PUSH2 0x908 JUMPI PUSH1 0x40 MLOAD PUSH32 0x8C379A000000000000000000000000000000000000000000000000000000000 DUP2 MSTORE PUSH1 0x4 ADD PUSH2 0x8FF SWAP1 PUSH2 0x2906 JUMP JUMPDEST PUSH1 0x40 MLOAD DUP1 SWAP2 SUB SWAP1 REVERT JUMPDEST PUSH2 0x910 PUSH2 0x1480 JUMP JUMPDEST PUSH2 0x91A DUP4 DUP4 PUSH2 0x1490 JUMP JUMPDEST PUSH1 0x0 PUSH1 0x40 MLOAD DUP1 PUSH1 0x60 ADD PUSH1 0x40 MSTORE DUP1 DUP6 DUP2 MSTORE PUSH1 0x20 ADD CALLER PUSH20 0xFFFFFFFFFFFFFFFFFFFFFFFFFFFFFFFFFFFFFFFF AND DUP2 MSTORE PUSH1 0x20 ADD DUP5 DUP2 MSTORE POP SWAP1 POP PUSH1 0xB DUP2 SWAP1 DUP1 PUSH1 0x1 DUP2 SLOAD ADD DUP1 DUP3 SSTORE DUP1 SWAP2 POP POP PUSH1 0x1 SWAP1 SUB SWAP1 PUSH1 0x0 MSTORE PUSH1 0x20 PUSH1 0x0 KECCAK256 SWAP1 PUSH1 0x3 MUL ADD PUSH1 0x0 SWAP1 SWAP2 SWAP1 SWAP2 SWAP1 SWAP2 POP PUSH1 0x0 DUP3 ADD MLOAD DUP2 PUSH1 0x0 ADD SSTORE PUSH1 0x20 DUP3 ADD MLOAD DUP2 PUSH1 0x1 ADD PUSH1 0x0 PUSH2 0x100 EXP DUP2 SLOAD DUP2 PUSH20 0xFFFFFFFFFFFFFFFFFFFFFFFFFFFFFFFFFFFFFFFF MUL NOT AND SWAP1 DUP4 PUSH20 0xFFFFFFFFFFFFFFFFFFFFFFFFFFFFFFFFFFFFFFFF AND MUL OR SWAP1 SSTORE POP PUSH1 0x40 DUP3 ADD MLOAD DUP2 PUSH1 0x2 ADD SWAP1 DUP2 PUSH2 0x9E1 SWAP2 SWAP1 PUSH2 0x250E JUMP JUMPDEST POP POP POP POP POP POP POP JUMP JUMPDEST PUSH1 0xB DUP2 DUP2 SLOAD DUP2 LT PUSH2 0x9FA JUMPI PUSH1 0x0 DUP1 REVERT JUMPDEST SWAP1 PUSH1 0x0 MSTORE PUSH1 0x20 PUSH1 0x0 KECCAK256 SWAP1 PUSH1 0x3 MUL ADD PUSH1 0x0 SWAP2 POP SWAP1 POP DUP1 PUSH1 0x0 ADD SLOAD SWAP1 DUP1 PUSH1 0x1 ADD PUSH1 0x0 SWAP1 SLOAD SWAP1 PUSH2 0x100 EXP SWAP1 DIV PUSH20 0xFFFFFFFFFFFFFFFFFFFFFFFFFFFFFFFFFFFFFFFF AND SWAP1 DUP1 PUSH1 0x2 ADD DUP1 SLOAD PUSH2 0xA49 SWAP1 PUSH2 0x2331 JUMP JUMPDEST DUP1 PUSH1 0x1F ADD PUSH1 0x20 DUP1 SWAP2 DIV MUL PUSH1 0x20 ADD PUSH1 0x40 MLOAD SWAP1 DUP2 ADD PUSH1 0x40 MSTORE DUP1 SWAP3 SWAP2 SWAP1 DUP2 DUP2 MSTORE PUSH1 0x20 ADD DUP3 DUP1 SLOAD PUSH2 0xA75 SWAP1 PUSH2 0x2331 JUMP JUMPDEST DUP1 ISZERO PUSH2 0xAC2 JUMPI DUP1 PUSH1 0x1F LT PUSH2 0xA97 JUMPI PUSH2 0x100 DUP1 DUP4 SLOAD DIV MUL DUP4 MSTORE SWAP2 PUSH1 0x20 ADD SWAP2 PUSH2 0xAC2 JUMP JUMPDEST DUP3 ADD SWAP2 SWAP1 PUSH1 0x0 MSTORE PUSH1 0x20 PUSH1 0x0 KECCAK256 SWAP1 JUMPDEST DUP2 SLOAD DUP2 MSTORE SWAP1 PUSH1 0x1 ADD SWAP1 PUSH1 0x20 ADD DUP1 DUP4 GT PUSH2 0xAA5 JUMPI DUP3 SWAP1 SUB PUSH1 0x1F AND DUP3 ADD SWAP2 JUMPDEST POP POP POP POP POP SWAP1 POP DUP4 JUMP JUMPDEST PUSH1 0x1 DUP1 SLOAD PUSH2 0xAD9 SWAP1 PUSH2 0x2331 JUMP JUMPDEST DUP1 PUSH1 0x1F ADD PUSH1 0x20 DUP1 SWAP2 DIV MUL PUSH1 0x20 ADD PUSH1 0x40 MLOAD SWAP1 DUP2 ADD PUSH1 0x40 MSTORE DUP1 SWAP3 SWAP2 SWAP1 DUP2 DUP2 MSTORE PUSH1 0x20 ADD DUP3 DUP1 SLOAD PUSH2 0xB05 SWAP1 PUSH2 0x2331 JUMP JUMPDEST DUP1 ISZERO PUSH2 0xB52 JUMPI DUP1 PUSH1 0x1F LT PUSH2 0xB27 JUMPI PUSH2 0x100 DUP1 DUP4 SLOAD DIV MUL DUP4 MSTORE SWAP2 PUSH1 0x20 ADD SWAP2 PUSH2 0xB52 JUMP JUMPDEST DUP3 ADD SWAP2 SWAP1 PUSH1 0x0 MSTORE PUSH1 0x20 PUSH1 0x0 KECCAK256 SWAP1 JUMPDEST DUP2 SLOAD DUP2 MSTORE SWAP1 PUSH1 0x1 ADD SWAP1 PUSH1 0x20 ADD DUP1 DUP4 GT PUSH2 0xB35 JUMPI DUP3 SWAP1 SUB PUSH1 0x1F AND DUP3 ADD SWAP2 JUMPDEST POP POP POP POP POP DUP2 JUMP JUMPDEST DUP2 PUSH1 0x2 SWAP1 DUP2 PUSH2 0xB69 SWAP2 SWAP1 PUSH2 0x250E JUMP JUMPDEST POP DUP1 PUSH1 0x1 SWAP1 DUP2 PUSH2 0xB79 SWAP2 SWAP1 PUSH2 0x250E JUMP JUMPDEST POP PUSH2 0xB82 PUSH2 0x155F JUMP JUMPDEST PUSH1 0x1 PUSH1 0x7 PUSH1 0x0 PUSH2 0x100 EXP DUP2 SLOAD DUP2 PUSH1 0xFF MUL NOT AND SWAP1 DUP4 ISZERO ISZERO MUL OR SWAP1 SSTORE POP POP POP JUMP JUMPDEST PUSH1 0xA DUP2 DUP2 SLOAD DUP2 LT PUSH2 0xBB1 JUMPI PUSH1 0x0 DUP1 REVERT JUMPDEST SWAP1 PUSH1 0x0 MSTORE PUSH1 0x20 PUSH1 0x0 KECCAK256 SWAP1 PUSH1 0x3 MUL ADD PUSH1 0x0 SWAP2 POP SWAP1 POP DUP1 PUSH1 0x0 ADD PUSH1 0x0 SWAP1 SLOAD SWAP1 PUSH2 0x100 EXP SWAP1 DIV PUSH20 0xFFFFFFFFFFFFFFFFFFFFFFFFFFFFFFFFFFFFFFFF AND SWAP1 DUP1 PUSH1 0x1 ADD SLOAD SWAP1 DUP1 PUSH1 0x2 ADD DUP1 SLOAD PUSH2 0xC00 SWAP1 PUSH2 0x2331 JUMP JUMPDEST DUP1 PUSH1 0x1F ADD PUSH1 0x20 DUP1 SWAP2 DIV MUL PUSH1 0x20 ADD PUSH1 0x40 MLOAD SWAP1 DUP2 ADD PUSH1 0x40 MSTORE DUP1 SWAP3 SWAP2 SWAP1 DUP2 DUP2 MSTORE PUSH1 0x20 ADD DUP3 DUP1 SLOAD PUSH2 0xC2C SWAP1 PUSH2 0x2331 JUMP JUMPDEST DUP1 ISZERO PUSH2 0xC79 JUMPI DUP1 PUSH1 0x1F LT PUSH2 0xC4E JUMPI PUSH2 0x100 DUP1 DUP4 SLOAD DIV MUL DUP4 MSTORE SWAP2 PUSH1 0x20 ADD SWAP2 PUSH2 0xC79 JUMP JUMPDEST DUP3 ADD SWAP2 SWAP1 PUSH1 0x0 MSTORE PUSH1 0x20 PUSH1 0x0 KECCAK256 SWAP1 JUMPDEST DUP2 SLOAD DUP2 MSTORE SWAP1 PUSH1 0x1 ADD SWAP1 PUSH1 0x20 ADD DUP1 DUP4 GT PUSH2 0xC5C JUMPI DUP3 SWAP1 SUB PUSH1 0x1F AND DUP3 ADD SWAP2 JUMPDEST POP POP POP POP POP SWAP1 POP DUP4 JUMP JUMPDEST PUSH1 0x2 DUP1 SLOAD PUSH2 0xC90 SWAP1 PUSH2 0x2331 JUMP JUMPDEST DUP1 PUSH1 0x1F ADD PUSH1 0x20 DUP1 SWAP2 DIV MUL PUSH1 0x20 ADD PUSH1 0x40 MLOAD SWAP1 DUP2 ADD PUSH1 0x40 MSTORE DUP1 SWAP3 SWAP2 SWAP1 DUP2 DUP2 MSTORE PUSH1 0x20 ADD DUP3 DUP1 SLOAD PUSH2 0xCBC SWAP1 PUSH2 0x2331 JUMP JUMPDEST DUP1 ISZERO PUSH2 0xD09 JUMPI DUP1 PUSH1 0x1F LT PUSH2 0xCDE JUMPI PUSH2 0x100 DUP1 DUP4 SLOAD DIV MUL DUP4 MSTORE SWAP2 PUSH1 0x20 ADD SWAP2 PUSH2 0xD09 JUMP JUMPDEST DUP3 ADD SWAP2 SWAP1 PUSH1 0x0 MSTORE PUSH1 0x20 PUSH1 0x0 KECCAK256 SWAP1 JUMPDEST DUP2 SLOAD DUP2 MSTORE SWAP1 PUSH1 0x1 ADD SWAP1 PUSH1 0x20 ADD DUP1 DUP4 GT PUSH2 0xCEC JUMPI DUP3 SWAP1 SUB PUSH1 0x1F AND DUP3 ADD SWAP2 JUMPDEST POP POP POP POP POP DUP2 JUMP JUMPDEST PUSH1 0x8 DUP2 DUP2 SLOAD DUP2 LT PUSH2 0xD21 JUMPI PUSH1 0x0 DUP1 REVERT JUMPDEST SWAP1 PUSH1 0x0 MSTORE PUSH1 0x20 PUSH1 0x0 KECCAK256 ADD PUSH1 0x0 SWAP2 POP SLOAD SWAP1 PUSH2 0x100 EXP SWAP1 DIV PUSH20 0xFFFFFFFFFFFFFFFFFFFFFFFFFFFFFFFFFFFFFFFF AND DUP2 JUMP JUMPDEST PUSH1 0x5 SLOAD TIMESTAMP GT PUSH2 0xD94 JUMPI PUSH1 0x40 MLOAD PUSH32 0x8C379A000000000000000000000000000000000000000000000000000000000 DUP2 MSTORE PUSH1 0x4 ADD PUSH2 0xD8B SWAP1 PUSH2 0x262C JUMP JUMPDEST PUSH1 0x40 MLOAD DUP1 SWAP2 SUB SWAP1 REVERT JUMPDEST PUSH1 0xA PUSH1 0x0 PUSH2 0xDA2 SWAP2 SWAP1 PUSH2 0x17FA JUMP JUMPDEST PUSH1 0x40 MLOAD DUP1 PUSH1 0x20 ADD PUSH1 0x40 MSTORE DUP1 PUSH1 0x0 DUP2 MSTORE POP PUSH1 0x1 SWAP1 DUP2 PUSH2 0xDC0 SWAP2 SWAP1 PUSH2 0x250E JUMP JUMPDEST POP PUSH1 0x40 MLOAD DUP1 PUSH1 0x20 ADD PUSH1 0x40 MSTORE DUP1 PUSH1 0x0 DUP2 MSTORE POP PUSH1 0x2 SWAP1 DUP2 PUSH2 0xDDF SWAP2 SWAP1 PUSH2 0x250E JUMP JUMPDEST POP PUSH2 0xDE8 PUSH2 0x65A JUMP JUMPDEST PUSH1 0x8 PUSH1 0x0 PUSH2 0xDF6 SWAP2 SWAP1 PUSH2 0x181E JUMP JUMPDEST PUSH1 0xB PUSH1 0x0 PUSH2 0xE04 SWAP2 SWAP1 PUSH2 0x183F JUMP JUMPDEST PUSH1 0x0 PUSH1 0x7 PUSH1 0x0 PUSH2 0x100 EXP DUP2 SLOAD DUP2 PUSH1 0xFF MUL NOT AND SWAP1 DUP4 ISZERO ISZERO MUL OR SWAP1 SSTORE POP JUMP JUMPDEST PUSH1 0x60 DUP1 PUSH1 0x1 ISZERO ISZERO PUSH1 0x7 PUSH1 0x0 SWAP1 SLOAD SWAP1 PUSH2 0x100 EXP SWAP1 DIV PUSH1 0xFF AND ISZERO ISZERO EQ PUSH2 0xE7A JUMPI PUSH1 0x40 MLOAD PUSH32 0x8C379A000000000000000000000000000000000000000000000000000000000 DUP2 MSTORE PUSH1 0x4 ADD PUSH2 0xE71 SWAP1 PUSH2 0x21BE JUMP JUMPDEST PUSH1 0x40 MLOAD DUP1 SWAP2 SUB SWAP1 REVERT JUMPDEST PUSH1 0x2 PUSH1 0x1 DUP2 DUP1 SLOAD PUSH2 0xE8A SWAP1 PUSH2 0x2331 JUMP JUMPDEST DUP1 PUSH1 0x1F ADD PUSH1 0x20 DUP1 SWAP2 DIV MUL PUSH1 0x20 ADD PUSH1 0x40 MLOAD SWAP1 DUP2 ADD PUSH1 0x40 MSTORE DUP1 SWAP3 SWAP2 SWAP1 DUP2 DUP2 MSTORE PUSH1 0x20 ADD DUP3 DUP1 SLOAD PUSH2 0xEB6 SWAP1 PUSH2 0x2331 JUMP JUMPDEST DUP1 ISZERO PUSH2 0xF03 JUMPI DUP1 PUSH1 0x1F LT PUSH2 0xED8 JUMPI PUSH2 0x100 DUP1 DUP4 SLOAD DIV MUL DUP4 MSTORE SWAP2 PUSH1 0x20 ADD SWAP2 PUSH2 0xF03 JUMP JUMPDEST DUP3 ADD SWAP2 SWAP1 PUSH1 0x0 MSTORE PUSH1 0x20 PUSH1 0x0 KECCAK256 SWAP1 JUMPDEST DUP2 SLOAD DUP2 MSTORE SWAP1 PUSH1 0x1 ADD SWAP1 PUSH1 0x20 ADD DUP1 DUP4 GT PUSH2 0xEE6 JUMPI DUP3 SWAP1 SUB PUSH1 0x1F AND DUP3 ADD SWAP2 JUMPDEST POP POP POP POP POP SWAP2 POP DUP1 DUP1 SLOAD PUSH2 0xF16 SWAP1 PUSH2 0x2331 JUMP JUMPDEST DUP1 PUSH1 0x1F ADD PUSH1 0x20 DUP1 SWAP2 DIV MUL PUSH1 0x20 ADD PUSH1 0x40 MLOAD SWAP1 DUP2 ADD PUSH1 0x40 MSTORE DUP1 SWAP3 SWAP2 SWAP1 DUP2 DUP2 MSTORE PUSH1 0x20 ADD DUP3 DUP1 SLOAD PUSH2 0xF42 SWAP1 PUSH2 0x2331 JUMP JUMPDEST DUP1 ISZERO PUSH2 0xF8F JUMPI DUP1 PUSH1 0x1F LT PUSH2 0xF64 JUMPI PUSH2 0x100 DUP1 DUP4 SLOAD DIV MUL DUP4 MSTORE SWAP2 PUSH1 0x20 ADD SWAP2 PUSH2 0xF8F JUMP JUMPDEST DUP3 ADD SWAP2 SWAP1 PUSH1 0x0 MSTORE PUSH1 0x20 PUSH1 0x0 KECCAK256 SWAP1 JUMPDEST DUP2 SLOAD DUP2 MSTORE SWAP1 PUSH1 0x1 ADD SWAP1 PUSH1 0x20 ADD DUP1 DUP4 GT PUSH2 0xF72 JUMPI DUP3 SWAP1 SUB PUSH1 0x1F AND DUP3 ADD SWAP2 JUMPDEST POP POP POP POP POP SWAP1 POP SWAP2 POP SWAP2 POP SWAP1 SWAP2 JUMP JUMPDEST PUSH1 0x60 PUSH1 0x1 ISZERO ISZERO PUSH1 0x7 PUSH1 0x0 SWAP1 SLOAD SWAP1 PUSH2 0x100 EXP SWAP1 DIV PUSH1 0xFF AND ISZERO ISZERO EQ PUSH2 0xFF6 JUMPI PUSH1 0x40 MLOAD PUSH32 0x8C379A000000000000000000000000000000000000000000000000000000000 DUP2 MSTORE PUSH1 0x4 ADD PUSH2 0xFED SWAP1 PUSH2 0x21BE JUMP JUMPDEST PUSH1 0x40 MLOAD DUP1 SWAP2 SUB SWAP1 REVERT JUMPDEST PUSH1 0xA DUP1 SLOAD DUP1 PUSH1 0x20 MUL PUSH1 0x20 ADD PUSH1 0x40 MLOAD SWAP1 DUP2 ADD PUSH1 0x40 MSTORE DUP1 SWAP3 SWAP2 SWAP1 DUP2 DUP2 MSTORE PUSH1 0x20 ADD PUSH1 0x0 SWAP1 JUMPDEST DUP3 DUP3 LT ISZERO PUSH2 0x113C JUMPI DUP4 DUP3 SWAP1 PUSH1 0x0 MSTORE PUSH1 0x20 PUSH1 0x0 KECCAK256 SWAP1 PUSH1 0x3 MUL ADD PUSH1 0x40 MLOAD DUP1 PUSH1 0x60 ADD PUSH1 0x40 MSTORE SWAP1 DUP2 PUSH1 0x0 DUP3 ADD PUSH1 0x0 SWAP1 SLOAD SWAP1 PUSH2 0x100 EXP SWAP1 DIV PUSH20 0xFFFFFFFFFFFFFFFFFFFFFFFFFFFFFFFFFFFFFFFF AND PUSH20 0xFFFFFFFFFFFFFFFFFFFFFFFFFFFFFFFFFFFFFFFF AND PUSH20 0xFFFFFFFFFFFFFFFFFFFFFFFFFFFFFFFFFFFFFFFF AND DUP2 MSTORE PUSH1 0x20 ADD PUSH1 0x1 DUP3 ADD SLOAD DUP2 MSTORE PUSH1 0x20 ADD PUSH1 0x2 DUP3 ADD DUP1 SLOAD PUSH2 0x10AB SWAP1 PUSH2 0x2331 JUMP JUMPDEST DUP1 PUSH1 0x1F ADD PUSH1 0x20 DUP1 SWAP2 DIV MUL PUSH1 0x20 ADD PUSH1 0x40 MLOAD SWAP1 DUP2 ADD PUSH1 0x40 MSTORE DUP1 SWAP3 SWAP2 SWAP1 DUP2 DUP2 MSTORE PUSH1 0x20 ADD DUP3 DUP1 SLOAD PUSH2 0x10D7 SWAP1 PUSH2 0x2331 JUMP JUMPDEST DUP1 ISZERO PUSH2 0x1124 JUMPI DUP1 PUSH1 0x1F LT PUSH2 0x10F9 JUMPI PUSH2 0x100 DUP1 DUP4 SLOAD DIV MUL DUP4 MSTORE SWAP2 PUSH1 0x20 ADD SWAP2 PUSH2 0x1124 JUMP JUMPDEST DUP3 ADD SWAP2 SWAP1 PUSH1 0x0 MSTORE PUSH1 0x20 PUSH1 0x0 KECCAK256 SWAP1 JUMPDEST DUP2 SLOAD DUP2 MSTORE SWAP1 PUSH1 0x1 ADD SWAP1 PUSH1 0x20 ADD DUP1 DUP4 GT PUSH2 0x1107 JUMPI DUP3 SWAP1 SUB PUSH1 0x1F AND DUP3 ADD SWAP2 JUMPDEST POP POP POP POP POP DUP2 MSTORE POP POP DUP2 MSTORE PUSH1 0x20 ADD SWAP1 PUSH1 0x1 ADD SWAP1 PUSH2 0x1018 JUMP JUMPDEST POP POP POP POP SWAP1 POP SWAP1 JUMP JUMPDEST PUSH1 0x1 ISZERO ISZERO PUSH1 0x7 PUSH1 0x0 SWAP1 SLOAD SWAP1 PUSH2 0x100 EXP SWAP1 DIV PUSH1 0xFF AND ISZERO ISZERO EQ PUSH2 0x119B JUMPI PUSH1 0x40 MLOAD PUSH32 0x8C379A000000000000000000000000000000000000000000000000000000000 DUP2 MSTORE PUSH1 0x4 ADD PUSH2 0x1192 SWAP1 PUSH2 0x21BE JUMP JUMPDEST PUSH1 0x40 MLOAD DUP1 SWAP2 SUB SWAP1 REVERT JUMPDEST PUSH1 0x3 SLOAD TIMESTAMP GT PUSH2 0x11DF JUMPI PUSH1 0x40 MLOAD PUSH32 0x8C379A000000000000000000000000000000000000000000000000000000000 DUP2 MSTORE PUSH1 0x4 ADD PUSH2 0x11D6 SWAP1 PUSH2 0x2998 JUMP JUMPDEST PUSH1 0x40 MLOAD DUP1 SWAP2 SUB SWAP1 REVERT JUMPDEST PUSH1 0x4 SLOAD TIMESTAMP LT PUSH2 0x1223 JUMPI PUSH1 0x40 MLOAD PUSH32 0x8C379A000000000000000000000000000000000000000000000000000000000 DUP2 MSTORE PUSH1 0x4 ADD PUSH2 0x121A SWAP1 PUSH2 0x2A2A JUMP JUMPDEST PUSH1 0x40 MLOAD DUP1 SWAP2 SUB SWAP1 REVERT JUMPDEST DUP1 PUSH1 0x9 PUSH1 0x0 CALLER PUSH20 0xFFFFFFFFFFFFFFFFFFFFFFFFFFFFFFFFFFFFFFFF AND PUSH20 0xFFFFFFFFFFFFFFFFFFFFFFFFFFFFFFFFFFFFFFFF AND DUP2 MSTORE PUSH1 0x20 ADD SWAP1 DUP2 MSTORE PUSH1 0x20 ADD PUSH1 0x0 KECCAK256 DUP2 SWAP1 SSTORE POP POP JUMP JUMPDEST PUSH1 0x1 ISZERO ISZERO PUSH1 0x7 PUSH1 0x0 SWAP1 SLOAD SWAP1 PUSH2 0x100 EXP SWAP1 DIV PUSH1 0xFF AND ISZERO ISZERO EQ PUSH2 0x12C0 JUMPI PUSH1 0x40 MLOAD PUSH32 0x8C379A000000000000000000000000000000000000000000000000000000000 DUP2 MSTORE PUSH1 0x4 ADD PUSH2 0x12B7 SWAP1 PUSH2 0x21BE JUMP JUMPDEST PUSH1 0x40 MLOAD DUP1 SWAP2 SUB SWAP1 REVERT JUMPDEST PUSH1 0x3 SLOAD TIMESTAMP LT PUSH2 0x1304 JUMPI PUSH1 0x40 MLOAD PUSH32 0x8C379A000000000000000000000000000000000000000000000000000000000 DUP2 MSTORE PUSH1 0x4 ADD PUSH2 0x12FB SWAP1 PUSH2 0x2ABC JUMP JUMPDEST PUSH1 0x40 MLOAD DUP1 SWAP2 SUB SWAP1 REVERT JUMPDEST PUSH1 0x8 CALLER SWAP1 DUP1 PUSH1 0x1 DUP2 SLOAD ADD DUP1 DUP3 SSTORE DUP1 SWAP2 POP POP PUSH1 0x1 SWAP1 SUB SWAP1 PUSH1 0x0 MSTORE PUSH1 0x20 PUSH1 0x0 KECCAK256 ADD PUSH1 0x0 SWAP1 SWAP2 SWAP1 SWAP2 SWAP1 SWAP2 PUSH2 0x100 EXP DUP2 SLOAD DUP2 PUSH20 0xFFFFFFFFFFFFFFFFFFFFFFFFFFFFFFFFFFFFFFFF MUL NOT AND SWAP1 DUP4 PUSH20 0xFFFFFFFFFFFFFFFFFFFFFFFFFFFFFFFFFFFFFFFF AND MUL OR SWAP1 SSTORE POP JUMP JUMPDEST PUSH1 0x0 DUP1 PUSH2 0x1375 DUP5 PUSH2 0x15D9 JUMP JUMPDEST SWAP1 POP PUSH1 0x0 DUP2 DUP5 PUSH1 0x40 MLOAD PUSH1 0x20 ADD PUSH2 0x138C SWAP3 SWAP2 SWAP1 PUSH2 0x2B18 JUMP JUMPDEST PUSH1 0x40 MLOAD PUSH1 0x20 DUP2 DUP4 SUB SUB DUP2 MSTORE SWAP1 PUSH1 0x40 MSTORE SWAP1 POP PUSH1 0x2 DUP2 PUSH1 0x40 MLOAD PUSH1 0x20 ADD PUSH2 0x13B0 SWAP2 SWAP1 PUSH2 0x2B3C JUMP JUMPDEST PUSH1 0x40 MLOAD PUSH1 0x20 DUP2 DUP4 SUB SUB DUP2 MSTORE SWAP1 PUSH1 0x40 MSTORE PUSH1 0x40 MLOAD PUSH2 0x13CC SWAP2 SWAP1 PUSH2 0x2B9A JUMP JUMPDEST PUSH1 0x20 PUSH1 0x40 MLOAD DUP1 DUP4 SUB DUP2 DUP6 GAS STATICCALL ISZERO DUP1 ISZERO PUSH2 0x13E9 JUMPI RETURNDATASIZE PUSH1 0x0 DUP1 RETURNDATACOPY RETURNDATASIZE PUSH1 0x0 REVERT JUMPDEST POP POP POP PUSH1 0x40 MLOAD RETURNDATASIZE PUSH1 0x1F NOT PUSH1 0x1F DUP3 ADD AND DUP3 ADD DUP1 PUSH1 0x40 MSTORE POP DUP2 ADD SWAP1 PUSH2 0x140C SWAP2 SWAP1 PUSH2 0x2BC6 JUMP JUMPDEST SWAP3 POP POP POP SWAP3 SWAP2 POP POP JUMP JUMPDEST PUSH1 0x0 DUP1 PUSH1 0x0 SWAP1 POP JUMPDEST PUSH1 0xA DUP1 SLOAD SWAP1 POP DUP2 LT ISZERO PUSH2 0x1475 JUMPI PUSH1 0xA DUP2 DUP2 SLOAD DUP2 LT PUSH2 0x143F JUMPI PUSH2 0x143E PUSH2 0x264C JUMP JUMPDEST JUMPDEST SWAP1 PUSH1 0x0 MSTORE PUSH1 0x20 PUSH1 0x0 KECCAK256 SWAP1 PUSH1 0x3 MUL ADD PUSH1 0x1 ADD SLOAD DUP4 GT ISZERO PUSH2 0x1462 JUMPI PUSH1 0x1 SWAP2 POP POP PUSH2 0x147B JUMP JUMPDEST DUP1 DUP1 PUSH2 0x146D SWAP1 PUSH2 0x2BF3 JUMP JUMPDEST SWAP2 POP POP PUSH2 0x141E JUMP JUMPDEST POP PUSH1 0x0 SWAP1 POP JUMPDEST SWAP2 SWAP1 POP JUMP JUMPDEST PUSH1 0xA PUSH1 0x0 PUSH2 0x148E SWAP2 SWAP1 PUSH2 0x17FA JUMP JUMPDEST JUMP JUMPDEST PUSH1 0x0 PUSH1 0x40 MLOAD DUP1 PUSH1 0x60 ADD PUSH1 0x40 MSTORE DUP1 CALLER PUSH20 0xFFFFFFFFFFFFFFFFFFFFFFFFFFFFFFFFFFFFFFFF AND DUP2 MSTORE PUSH1 0x20 ADD DUP5 DUP2 MSTORE PUSH1 0x20 ADD DUP4 DUP2 MSTORE POP SWAP1 POP PUSH1 0xA DUP2 SWAP1 DUP1 PUSH1 0x1 DUP2 SLOAD ADD DUP1 DUP3 SSTORE DUP1 SWAP2 POP POP PUSH1 0x1 SWAP1 SUB SWAP1 PUSH1 0x0 MSTORE PUSH1 0x20 PUSH1 0x0 KECCAK256 SWAP1 PUSH1 0x3 MUL ADD PUSH1 0x0 SWAP1 SWAP2 SWAP1 SWAP2 SWAP1 SWAP2 POP PUSH1 0x0 DUP3 ADD MLOAD DUP2 PUSH1 0x0 ADD PUSH1 0x0 PUSH2 0x100 EXP DUP2 SLOAD DUP2 PUSH20 0xFFFFFFFFFFFFFFFFFFFFFFFFFFFFFFFFFFFFFFFF MUL NOT AND SWAP1 DUP4 PUSH20 0xFFFFFFFFFFFFFFFFFFFFFFFFFFFFFFFFFFFFFFFF AND MUL OR SWAP1 SSTORE POP PUSH1 0x20 DUP3 ADD MLOAD DUP2 PUSH1 0x1 ADD SSTORE PUSH1 0x40 DUP3 ADD MLOAD DUP2 PUSH1 0x2 ADD SWAP1 DUP2 PUSH2 0x1557 SWAP2 SWAP1 PUSH2 0x250E JUMP JUMPDEST POP POP POP POP POP POP JUMP JUMPDEST PUSH1 0x3C PUSH1 0x6 SLOAD PUSH2 0x156E SWAP2 SWAP1 PUSH2 0x2C3B JUMP JUMPDEST TIMESTAMP PUSH2 0x1579 SWAP2 SWAP1 PUSH2 0x26AA JUMP JUMPDEST PUSH1 0x3 DUP2 SWAP1 SSTORE POP PUSH1 0x3C PUSH1 0x6 SLOAD PUSH1 0x2 PUSH2 0x1590 SWAP2 SWAP1 PUSH2 0x2C3B JUMP JUMPDEST PUSH2 0x159A SWAP2 SWAP1 PUSH2 0x2C3B JUMP JUMPDEST TIMESTAMP PUSH2 0x15A5 SWAP2 SWAP1 PUSH2 0x26AA JUMP JUMPDEST PUSH1 0x4 DUP2 SWAP1 SSTORE POP PUSH1 0x3C PUSH1 0x6 SLOAD PUSH1 0x3 PUSH2 0x15BC SWAP2 SWAP1 PUSH2 0x2C3B JUMP JUMPDEST PUSH2 0x15C6 SWAP2 SWAP1 PUSH2 0x2C3B JUMP JUMPDEST TIMESTAMP PUSH2 0x15D1 SWAP2 SWAP1 PUSH2 0x26AA JUMP JUMPDEST PUSH1 0x5 DUP2 SWAP1 SSTORE POP JUMP JUMPDEST PUSH1 0x60 PUSH1 0x0 PUSH1 0x1 PUSH2 0x15E8 DUP5 PUSH2 0x16A7 JUMP JUMPDEST ADD SWAP1 POP PUSH1 0x0 DUP2 PUSH8 0xFFFFFFFFFFFFFFFF DUP2 GT ISZERO PUSH2 0x1607 JUMPI PUSH2 0x1606 PUSH2 0x19D1 JUMP JUMPDEST JUMPDEST PUSH1 0x40 MLOAD SWAP1 DUP1 DUP3 MSTORE DUP1 PUSH1 0x1F ADD PUSH1 0x1F NOT AND PUSH1 0x20 ADD DUP3 ADD PUSH1 0x40 MSTORE DUP1 ISZERO PUSH2 0x1639 JUMPI DUP2 PUSH1 0x20 ADD PUSH1 0x1 DUP3 MUL DUP1 CALLDATASIZE DUP4 CALLDATACOPY DUP1 DUP3 ADD SWAP2 POP POP SWAP1 POP JUMPDEST POP SWAP1 POP PUSH1 0x0 DUP3 PUSH1 0x20 ADD DUP3 ADD SWAP1 POP JUMPDEST PUSH1 0x1 ISZERO PUSH2 0x169C JUMPI DUP1 DUP1 PUSH1 0x1 SWAP1 SUB SWAP2 POP POP PUSH32 0x3031323334353637383961626364656600000000000000000000000000000000 PUSH1 0xA DUP7 MOD BYTE DUP2 MSTORE8 PUSH1 0xA DUP6 DUP2 PUSH2 0x1690 JUMPI PUSH2 0x168F PUSH2 0x2C7D JUMP JUMPDEST JUMPDEST DIV SWAP5 POP PUSH1 0x0 DUP6 SUB PUSH2 0x1647 JUMPI JUMPDEST DUP2 SWAP4 POP POP POP POP SWAP2 SWAP1 POP JUMP JUMPDEST PUSH1 0x0 DUP1 PUSH1 0x0 SWAP1 POP PUSH27 0x184F03E93FF9F4DAA797ED6E38ED64BF6A1F010000000000000000 DUP4 LT PUSH2 0x1705 JUMPI PUSH27 0x184F03E93FF9F4DAA797ED6E38ED64BF6A1F010000000000000000 DUP4 DUP2 PUSH2 0x16FB JUMPI PUSH2 0x16FA PUSH2 0x2C7D JUMP JUMPDEST JUMPDEST DIV SWAP3 POP PUSH1 0x40 DUP2 ADD SWAP1 POP JUMPDEST PUSH14 0x4EE2D6D415B85ACEF8100000000 DUP4 LT PUSH2 0x1742 JUMPI PUSH14 0x4EE2D6D415B85ACEF8100000000 DUP4 DUP2 PUSH2 0x1738 JUMPI PUSH2 0x1737 PUSH2 0x2C7D JUMP JUMPDEST JUMPDEST DIV SWAP3 POP PUSH1 0x20 DUP2 ADD SWAP1 POP JUMPDEST PUSH7 0x2386F26FC10000 DUP4 LT PUSH2 0x1771 JUMPI PUSH7 0x2386F26FC10000 DUP4 DUP2 PUSH2 0x1767 JUMPI PUSH2 0x1766 PUSH2 0x2C7D JUMP JUMPDEST JUMPDEST DIV SWAP3 POP PUSH1 0x10 DUP2 ADD SWAP1 POP JUMPDEST PUSH4 0x5F5E100 DUP4 LT PUSH2 0x179A JUMPI PUSH4 0x5F5E100 DUP4 DUP2 PUSH2 0x1790 JUMPI PUSH2 0x178F PUSH2 0x2C7D JUMP JUMPDEST JUMPDEST DIV SWAP3 POP PUSH1 0x8 DUP2 ADD SWAP1 POP JUMPDEST PUSH2 0x2710 DUP4 LT PUSH2 0x17BF JUMPI PUSH2 0x2710 DUP4 DUP2 PUSH2 0x17B5 JUMPI PUSH2 0x17B4 PUSH2 0x2C7D JUMP JUMPDEST JUMPDEST DIV SWAP3 POP PUSH1 0x4 DUP2 ADD SWAP1 POP JUMPDEST PUSH1 0x64 DUP4 LT PUSH2 0x17E2 JUMPI PUSH1 0x64 DUP4 DUP2 PUSH2 0x17D8 JUMPI PUSH2 0x17D7 PUSH2 0x2C7D JUMP JUMPDEST JUMPDEST DIV SWAP3 POP PUSH1 0x2 DUP2 ADD SWAP1 POP JUMPDEST PUSH1 0xA DUP4 LT PUSH2 0x17F1 JUMPI PUSH1 0x1 DUP2 ADD SWAP1 POP JUMPDEST DUP1 SWAP2 POP POP SWAP2 SWAP1 POP JUMP JUMPDEST POP DUP1 SLOAD PUSH1 0x0 DUP3 SSTORE PUSH1 0x3 MUL SWAP1 PUSH1 0x0 MSTORE PUSH1 0x20 PUSH1 0x0 KECCAK256 SWAP1 DUP2 ADD SWAP1 PUSH2 0x181B SWAP2 SWAP1 PUSH2 0x1863 JUMP JUMPDEST POP JUMP JUMPDEST POP DUP1 SLOAD PUSH1 0x0 DUP3 SSTORE SWAP1 PUSH1 0x0 MSTORE PUSH1 0x20 PUSH1 0x0 KECCAK256 SWAP1 DUP2 ADD SWAP1 PUSH2 0x183C SWAP2 SWAP1 PUSH2 0x18B9 JUMP JUMPDEST POP JUMP JUMPDEST POP DUP1 SLOAD PUSH1 0x0 DUP3 SSTORE PUSH1 0x3 MUL SWAP1 PUSH1 0x0 MSTORE PUSH1 0x20 PUSH1 0x0 KECCAK256 SWAP1 DUP2 ADD SWAP1 PUSH2 0x1860 SWAP2 SWAP1 PUSH2 0x18D6 JUMP JUMPDEST POP JUMP JUMPDEST JUMPDEST DUP1 DUP3 GT ISZERO PUSH2 0x18B5 JUMPI PUSH1 0x0 DUP1 DUP3 ADD PUSH1 0x0 PUSH2 0x100 EXP DUP2 SLOAD SWAP1 PUSH20 0xFFFFFFFFFFFFFFFFFFFFFFFFFFFFFFFFFFFFFFFF MUL NOT AND SWAP1 SSTORE PUSH1 0x1 DUP3 ADD PUSH1 0x0 SWAP1 SSTORE PUSH1 0x2 DUP3 ADD PUSH1 0x0 PUSH2 0x18AC SWAP2 SWAP1 PUSH2 0x192C JUMP JUMPDEST POP PUSH1 0x3 ADD PUSH2 0x1864 JUMP JUMPDEST POP SWAP1 JUMP JUMPDEST JUMPDEST DUP1 DUP3 GT ISZERO PUSH2 0x18D2 JUMPI PUSH1 0x0 DUP2 PUSH1 0x0 SWAP1 SSTORE POP PUSH1 0x1 ADD PUSH2 0x18BA JUMP JUMPDEST POP SWAP1 JUMP JUMPDEST JUMPDEST DUP1 DUP3 GT ISZERO PUSH2 0x1928 JUMPI PUSH1 0x0 DUP1 DUP3 ADD PUSH1 0x0 SWAP1 SSTORE PUSH1 0x1 DUP3 ADD PUSH1 0x0 PUSH2 0x100 EXP DUP2 SLOAD SWAP1 PUSH20 0xFFFFFFFFFFFFFFFFFFFFFFFFFFFFFFFFFFFFFFFF MUL NOT AND SWAP1 SSTORE PUSH1 0x2 DUP3 ADD PUSH1 0x0 PUSH2 0x191F SWAP2 SWAP1 PUSH2 0x192C JUMP JUMPDEST POP PUSH1 0x3 ADD PUSH2 0x18D7 JUMP JUMPDEST POP SWAP1 JUMP JUMPDEST POP DUP1 SLOAD PUSH2 0x1938 SWAP1 PUSH2 0x2331 JUMP JUMPDEST PUSH1 0x0 DUP3 SSTORE DUP1 PUSH1 0x1F LT PUSH2 0x194A JUMPI POP PUSH2 0x1969 JUMP JUMPDEST PUSH1 0x1F ADD PUSH1 0x20 SWAP1 DIV SWAP1 PUSH1 0x0 MSTORE PUSH1 0x20 PUSH1 0x0 KECCAK256 SWAP1 DUP2 ADD SWAP1 PUSH2 0x1968 SWAP2 SWAP1 PUSH2 0x18B9 JUMP JUMPDEST JUMPDEST POP JUMP JUMPDEST PUSH1 0x0 PUSH1 0x40 MLOAD SWAP1 POP SWAP1 JUMP JUMPDEST PUSH1 0x0 DUP1 REVERT JUMPDEST PUSH1 0x0 DUP1 REVERT JUMPDEST PUSH1 0x0 DUP2 SWAP1 POP SWAP2 SWAP1 POP JUMP JUMPDEST PUSH2 0x1993 DUP2 PUSH2 0x1980 JUMP JUMPDEST DUP2 EQ PUSH2 0x199E JUMPI PUSH1 0x0 DUP1 REVERT JUMPDEST POP JUMP JUMPDEST PUSH1 0x0 DUP2 CALLDATALOAD SWAP1 POP PUSH2 0x19B0 DUP2 PUSH2 0x198A JUMP JUMPDEST SWAP3 SWAP2 POP POP JUMP JUMPDEST PUSH1 0x0 DUP1 REVERT JUMPDEST PUSH1 0x0 DUP1 REVERT JUMPDEST PUSH1 0x0 PUSH1 0x1F NOT PUSH1 0x1F DUP4 ADD AND SWAP1 POP SWAP2 SWAP1 POP JUMP JUMPDEST PUSH32 0x4E487B7100000000000000000000000000000000000000000000000000000000 PUSH1 0x0 MSTORE PUSH1 0x41 PUSH1 0x4 MSTORE PUSH1 0x24 PUSH1 0x0 REVERT JUMPDEST PUSH2 0x1A09 DUP3 PUSH2 0x19C0 JUMP JUMPDEST DUP2 ADD DUP2 DUP2 LT PUSH8 0xFFFFFFFFFFFFFFFF DUP3 GT OR ISZERO PUSH2 0x1A28 JUMPI PUSH2 0x1A27 PUSH2 0x19D1 JUMP JUMPDEST JUMPDEST DUP1 PUSH1 0x40 MSTORE POP POP POP JUMP JUMPDEST PUSH1 0x0 PUSH2 0x1A3B PUSH2 0x196C JUMP JUMPDEST SWAP1 POP PUSH2 0x1A47 DUP3 DUP3 PUSH2 0x1A00 JUMP JUMPDEST SWAP2 SWAP1 POP JUMP JUMPDEST PUSH1 0x0 PUSH8 0xFFFFFFFFFFFFFFFF DUP3 GT ISZERO PUSH2 0x1A67 JUMPI PUSH2 0x1A66 PUSH2 0x19D1 JUMP JUMPDEST JUMPDEST PUSH2 0x1A70 DUP3 PUSH2 0x19C0 JUMP JUMPDEST SWAP1 POP PUSH1 0x20 DUP2 ADD SWAP1 POP SWAP2 SWAP1 POP JUMP JUMPDEST DUP3 DUP2 DUP4 CALLDATACOPY PUSH1 0x0 DUP4 DUP4 ADD MSTORE POP POP POP JUMP JUMPDEST PUSH1 0x0 PUSH2 0x1A9F PUSH2 0x1A9A DUP5 PUSH2 0x1A4C JUMP JUMPDEST PUSH2 0x1A31 JUMP JUMPDEST SWAP1 POP DUP3 DUP2 MSTORE PUSH1 0x20 DUP2 ADD DUP5 DUP5 DUP5 ADD GT ISZERO PUSH2 0x1ABB JUMPI PUSH2 0x1ABA PUSH2 0x19BB JUMP JUMPDEST JUMPDEST PUSH2 0x1AC6 DUP5 DUP3 DUP6 PUSH2 0x1A7D JUMP JUMPDEST POP SWAP4 SWAP3 POP POP POP JUMP JUMPDEST PUSH1 0x0 DUP3 PUSH1 0x1F DUP4 ADD SLT PUSH2 0x1AE3 JUMPI PUSH2 0x1AE2 PUSH2 0x19B6 JUMP JUMPDEST JUMPDEST DUP2 CALLDATALOAD PUSH2 0x1AF3 DUP5 DUP3 PUSH1 0x20 DUP7 ADD PUSH2 0x1A8C JUMP JUMPDEST SWAP2 POP POP SWAP3 SWAP2 POP POP JUMP JUMPDEST PUSH1 0x0 DUP1 PUSH1 0x40 DUP4 DUP6 SUB SLT ISZERO PUSH2 0x1B13 JUMPI PUSH2 0x1B12 PUSH2 0x1976 JUMP JUMPDEST JUMPDEST PUSH1 0x0 PUSH2 0x1B21 DUP6 DUP3 DUP7 ADD PUSH2 0x19A1 JUMP JUMPDEST SWAP3 POP POP PUSH1 0x20 DUP4 ADD CALLDATALOAD PUSH8 0xFFFFFFFFFFFFFFFF DUP2 GT ISZERO PUSH2 0x1B42 JUMPI PUSH2 0x1B41 PUSH2 0x197B JUMP JUMPDEST JUMPDEST PUSH2 0x1B4E DUP6 DUP3 DUP7 ADD PUSH2 0x1ACE JUMP JUMPDEST SWAP2 POP POP SWAP3 POP SWAP3 SWAP1 POP JUMP JUMPDEST PUSH1 0x0 DUP2 MLOAD SWAP1 POP SWAP2 SWAP1 POP JUMP JUMPDEST PUSH1 0x0 DUP3 DUP3 MSTORE PUSH1 0x20 DUP3 ADD SWAP1 POP SWAP3 SWAP2 POP POP JUMP JUMPDEST PUSH1 0x0 DUP2 SWAP1 POP PUSH1 0x20 DUP3 ADD SWAP1 POP SWAP2 SWAP1 POP JUMP JUMPDEST PUSH2 0x1B8D DUP2 PUSH2 0x1980 JUMP JUMPDEST DUP3 MSTORE POP POP JUMP JUMPDEST PUSH1 0x0 PUSH20 0xFFFFFFFFFFFFFFFFFFFFFFFFFFFFFFFFFFFFFFFF DUP3 AND SWAP1 POP SWAP2 SWAP1 POP JUMP JUMPDEST PUSH1 0x0 PUSH2 0x1BBE DUP3 PUSH2 0x1B93 JUMP JUMPDEST SWAP1 POP SWAP2 SWAP1 POP JUMP JUMPDEST PUSH2 0x1BCE DUP2 PUSH2 0x1BB3 JUMP JUMPDEST DUP3 MSTORE POP POP JUMP JUMPDEST PUSH1 0x0 DUP2 MLOAD SWAP1 POP SWAP2 SWAP1 POP JUMP JUMPDEST PUSH1 0x0 DUP3 DUP3 MSTORE PUSH1 0x20 DUP3 ADD SWAP1 POP SWAP3 SWAP2 POP POP JUMP JUMPDEST PUSH1 0x0 JUMPDEST DUP4 DUP2 LT ISZERO PUSH2 0x1C0E JUMPI DUP1 DUP3 ADD MLOAD DUP2 DUP5 ADD MSTORE PUSH1 0x20 DUP2 ADD SWAP1 POP PUSH2 0x1BF3 JUMP JUMPDEST PUSH1 0x0 DUP5 DUP5 ADD MSTORE POP POP POP POP JUMP JUMPDEST PUSH1 0x0 PUSH2 0x1C25 DUP3 PUSH2 0x1BD4 JUMP JUMPDEST PUSH2 0x1C2F DUP2 DUP6 PUSH2 0x1BDF JUMP JUMPDEST SWAP4 POP PUSH2 0x1C3F DUP2 DUP6 PUSH1 0x20 DUP7 ADD PUSH2 0x1BF0 JUMP JUMPDEST PUSH2 0x1C48 DUP2 PUSH2 0x19C0 JUMP JUMPDEST DUP5 ADD SWAP2 POP POP SWAP3 SWAP2 POP POP JUMP JUMPDEST PUSH1 0x0 PUSH1 0x60 DUP4 ADD PUSH1 0x0 DUP4 ADD MLOAD PUSH2 0x1C6B PUSH1 0x0 DUP7 ADD DUP3 PUSH2 0x1B84 JUMP JUMPDEST POP PUSH1 0x20 DUP4 ADD MLOAD PUSH2 0x1C7E PUSH1 0x20 DUP7 ADD DUP3 PUSH2 0x1BC5 JUMP JUMPDEST POP PUSH1 0x40 DUP4 ADD MLOAD DUP5 DUP3 SUB PUSH1 0x40 DUP7 ADD MSTORE PUSH2 0x1C96 DUP3 DUP3 PUSH2 0x1C1A JUMP JUMPDEST SWAP2 POP POP DUP1 SWAP2 POP POP SWAP3 SWAP2 POP POP JUMP JUMPDEST PUSH1 0x0 PUSH2 0x1CAF DUP4 DUP4 PUSH2 0x1C53 JUMP JUMPDEST SWAP1 POP SWAP3 SWAP2 POP POP JUMP JUMPDEST PUSH1 0x0 PUSH1 0x20 DUP3 ADD SWAP1 POP SWAP2 SWAP1 POP JUMP JUMPDEST PUSH1 0x0 PUSH2 0x1CCF DUP3 PUSH2 0x1B58 JUMP JUMPDEST PUSH2 0x1CD9 DUP2 DUP6 PUSH2 0x1B63 JUMP JUMPDEST SWAP4 POP DUP4 PUSH1 0x20 DUP3 MUL DUP6 ADD PUSH2 0x1CEB DUP6 PUSH2 0x1B74 JUMP JUMPDEST DUP1 PUSH1 0x0 JUMPDEST DUP6 DUP2 LT ISZERO PUSH2 0x1D27 JUMPI DUP5 DUP5 SUB DUP10 MSTORE DUP2 MLOAD PUSH2 0x1D08 DUP6 DUP3 PUSH2 0x1CA3 JUMP JUMPDEST SWAP5 POP PUSH2 0x1D13 DUP4 PUSH2 0x1CB7 JUMP JUMPDEST SWAP3 POP PUSH1 0x20 DUP11 ADD SWAP10 POP POP PUSH1 0x1 DUP2 ADD SWAP1 POP PUSH2 0x1CEF JUMP JUMPDEST POP DUP3 SWAP8 POP DUP8 SWAP6 POP POP POP POP POP POP SWAP3 SWAP2 POP POP JUMP JUMPDEST PUSH1 0x0 PUSH1 0x20 DUP3 ADD SWAP1 POP DUP2 DUP2 SUB PUSH1 0x0 DUP4 ADD MSTORE PUSH2 0x1D53 DUP2 DUP5 PUSH2 0x1CC4 JUMP JUMPDEST SWAP1 POP SWAP3 SWAP2 POP POP JUMP JUMPDEST PUSH2 0x1D64 DUP2 PUSH2 0x1BB3 JUMP JUMPDEST DUP2 EQ PUSH2 0x1D6F JUMPI PUSH1 0x0 DUP1 REVERT JUMPDEST POP JUMP JUMPDEST PUSH1 0x0 DUP2 CALLDATALOAD SWAP1 POP PUSH2 0x1D81 DUP2 PUSH2 0x1D5B JUMP JUMPDEST SWAP3 SWAP2 POP POP JUMP JUMPDEST PUSH1 0x0 PUSH1 0x20 DUP3 DUP5 SUB SLT ISZERO PUSH2 0x1D9D JUMPI PUSH2 0x1D9C PUSH2 0x1976 JUMP JUMPDEST JUMPDEST PUSH1 0x0 PUSH2 0x1DAB DUP5 DUP3 DUP6 ADD PUSH2 0x1D72 JUMP JUMPDEST SWAP2 POP POP SWAP3 SWAP2 POP POP JUMP JUMPDEST PUSH1 0x0 DUP2 SWAP1 POP SWAP2 SWAP1 POP JUMP JUMPDEST PUSH2 0x1DC7 DUP2 PUSH2 0x1DB4 JUMP JUMPDEST DUP3 MSTORE POP POP JUMP JUMPDEST PUSH1 0x0 PUSH1 0x20 DUP3 ADD SWAP1 POP PUSH2 0x1DE2 PUSH1 0x0 DUP4 ADD DUP5 PUSH2 0x1DBE JUMP JUMPDEST SWAP3 SWAP2 POP POP JUMP JUMPDEST PUSH1 0x0 PUSH1 0x20 DUP3 DUP5 SUB SLT ISZERO PUSH2 0x1DFE JUMPI PUSH2 0x1DFD PUSH2 0x1976 JUMP JUMPDEST JUMPDEST PUSH1 0x0 PUSH2 0x1E0C DUP5 DUP3 DUP6 ADD PUSH2 0x19A1 JUMP JUMPDEST SWAP2 POP POP SWAP3 SWAP2 POP POP JUMP JUMPDEST PUSH2 0x1E1E DUP2 PUSH2 0x1980 JUMP JUMPDEST DUP3 MSTORE POP POP JUMP JUMPDEST PUSH2 0x1E2D DUP2 PUSH2 0x1BB3 JUMP JUMPDEST DUP3 MSTORE POP POP JUMP JUMPDEST PUSH1 0x0 DUP3 DUP3 MSTORE PUSH1 0x20 DUP3 ADD SWAP1 POP SWAP3 SWAP2 POP POP JUMP JUMPDEST PUSH1 0x0 PUSH2 0x1E4F DUP3 PUSH2 0x1BD4 JUMP JUMPDEST PUSH2 0x1E59 DUP2 DUP6 PUSH2 0x1E33 JUMP JUMPDEST SWAP4 POP PUSH2 0x1E69 DUP2 DUP6 PUSH1 0x20 DUP7 ADD PUSH2 0x1BF0 JUMP JUMPDEST PUSH2 0x1E72 DUP2 PUSH2 0x19C0 JUMP JUMPDEST DUP5 ADD SWAP2 POP POP SWAP3 SWAP2 POP POP JUMP JUMPDEST PUSH1 0x0 PUSH1 0x60 DUP3 ADD SWAP1 POP PUSH2 0x1E92 PUSH1 0x0 DUP4 ADD DUP7 PUSH2 0x1E15 JUMP JUMPDEST PUSH2 0x1E9F PUSH1 0x20 DUP4 ADD DUP6 PUSH2 0x1E24 JUMP JUMPDEST DUP2 DUP2 SUB PUSH1 0x40 DUP4 ADD MSTORE PUSH2 0x1EB1 DUP2 DUP5 PUSH2 0x1E44 JUMP JUMPDEST SWAP1 POP SWAP5 SWAP4 POP POP POP POP JUMP JUMPDEST PUSH1 0x0 PUSH1 0x20 DUP3 ADD SWAP1 POP DUP2 DUP2 SUB PUSH1 0x0 DUP4 ADD MSTORE PUSH2 0x1ED5 DUP2 DUP5 PUSH2 0x1E44 JUMP JUMPDEST SWAP1 POP SWAP3 SWAP2 POP POP JUMP JUMPDEST PUSH1 0x0 DUP1 PUSH1 0x40 DUP4 DUP6 SUB SLT ISZERO PUSH2 0x1EF4 JUMPI PUSH2 0x1EF3 PUSH2 0x1976 JUMP JUMPDEST JUMPDEST PUSH1 0x0 DUP4 ADD CALLDATALOAD PUSH8 0xFFFFFFFFFFFFFFFF DUP2 GT ISZERO PUSH2 0x1F12 JUMPI PUSH2 0x1F11 PUSH2 0x197B JUMP JUMPDEST JUMPDEST PUSH2 0x1F1E DUP6 DUP3 DUP7 ADD PUSH2 0x1ACE JUMP JUMPDEST SWAP3 POP POP PUSH1 0x20 DUP4 ADD CALLDATALOAD PUSH8 0xFFFFFFFFFFFFFFFF DUP2 GT ISZERO PUSH2 0x1F3F JUMPI PUSH2 0x1F3E PUSH2 0x197B JUMP JUMPDEST JUMPDEST PUSH2 0x1F4B DUP6 DUP3 DUP7 ADD PUSH2 0x1ACE JUMP JUMPDEST SWAP2 POP POP SWAP3 POP SWAP3 SWAP1 POP JUMP JUMPDEST PUSH1 0x0 PUSH1 0x60 DUP3 ADD SWAP1 POP PUSH2 0x1F6A PUSH1 0x0 DUP4 ADD DUP7 PUSH2 0x1E24 JUMP JUMPDEST PUSH2 0x1F77 PUSH1 0x20 DUP4 ADD DUP6 PUSH2 0x1E15 JUMP JUMPDEST DUP2 DUP2 SUB PUSH1 0x40 DUP4 ADD MSTORE PUSH2 0x1F89 DUP2 DUP5 PUSH2 0x1E44 JUMP JUMPDEST SWAP1 POP SWAP5 SWAP4 POP POP POP POP JUMP JUMPDEST PUSH1 0x0 PUSH1 0x20 DUP3 ADD SWAP1 POP PUSH2 0x1FA8 PUSH1 0x0 DUP4 ADD DUP5 PUSH2 0x1E24 JUMP JUMPDEST SWAP3 SWAP2 POP POP JUMP JUMPDEST PUSH1 0x0 PUSH1 0x40 DUP3 ADD SWAP1 POP DUP2 DUP2 SUB PUSH1 0x0 DUP4 ADD MSTORE PUSH2 0x1FC8 DUP2 DUP6 PUSH2 0x1E44 JUMP JUMPDEST SWAP1 POP DUP2 DUP2 SUB PUSH1 0x20 DUP4 ADD MSTORE PUSH2 0x1FDC DUP2 DUP5 PUSH2 0x1E44 JUMP JUMPDEST SWAP1 POP SWAP4 SWAP3 POP POP POP JUMP JUMPDEST PUSH1 0x0 DUP2 MLOAD SWAP1 POP SWAP2 SWAP1 POP JUMP JUMPDEST PUSH1 0x0 DUP3 DUP3 MSTORE PUSH1 0x20 DUP3 ADD SWAP1 POP SWAP3 SWAP2 POP POP JUMP JUMPDEST PUSH1 0x0 DUP2 SWAP1 POP PUSH1 0x20 DUP3 ADD SWAP1 POP SWAP2 SWAP1 POP JUMP JUMPDEST PUSH1 0x0 PUSH1 0x60 DUP4 ADD PUSH1 0x0 DUP4 ADD MLOAD PUSH2 0x2029 PUSH1 0x0 DUP7 ADD DUP3 PUSH2 0x1BC5 JUMP JUMPDEST POP PUSH1 0x20 DUP4 ADD MLOAD PUSH2 0x203C PUSH1 0x20 DUP7 ADD DUP3 PUSH2 0x1B84 JUMP JUMPDEST POP PUSH1 0x40 DUP4 ADD MLOAD DUP5 DUP3 SUB PUSH1 0x40 DUP7 ADD MSTORE PUSH2 0x2054 DUP3 DUP3 PUSH2 0x1C1A JUMP JUMPDEST SWAP2 POP POP DUP1 SWAP2 POP POP SWAP3 SWAP2 POP POP JUMP JUMPDEST PUSH1 0x0 PUSH2 0x206D DUP4 DUP4 PUSH2 0x2011 JUMP JUMPDEST SWAP1 POP SWAP3 SWAP2 POP POP JUMP JUMPDEST PUSH1 0x0 PUSH1 0x20 DUP3 ADD SWAP1 POP SWAP2 SWAP1 POP JUMP JUMPDEST PUSH1 0x0 PUSH2 0x208D DUP3 PUSH2 0x1FE5 JUMP JUMPDEST PUSH2 0x2097 DUP2 DUP6 PUSH2 0x1FF0 JUMP JUMPDEST SWAP4 POP DUP4 PUSH1 0x20 DUP3 MUL DUP6 ADD PUSH2 0x20A9 DUP6 PUSH2 0x2001 JUMP JUMPDEST DUP1 PUSH1 0x0 JUMPDEST DUP6 DUP2 LT ISZERO PUSH2 0x20E5 JUMPI DUP5 DUP5 SUB DUP10 MSTORE DUP2 MLOAD PUSH2 0x20C6 DUP6 DUP3 PUSH2 0x2061 JUMP JUMPDEST SWAP5 POP PUSH2 0x20D1 DUP4 PUSH2 0x2075 JUMP JUMPDEST SWAP3 POP PUSH1 0x20 DUP11 ADD SWAP10 POP POP PUSH1 0x1 DUP2 ADD SWAP1 POP PUSH2 0x20AD JUMP JUMPDEST POP DUP3 SWAP8 POP DUP8 SWAP6 POP POP POP POP POP POP SWAP3 SWAP2 POP POP JUMP JUMPDEST PUSH1 0x0 PUSH1 0x20 DUP3 ADD SWAP1 POP DUP2 DUP2 SUB PUSH1 0x0 DUP4 ADD MSTORE PUSH2 0x2111 DUP2 DUP5 PUSH2 0x2082 JUMP JUMPDEST SWAP1 POP SWAP3 SWAP2 POP POP JUMP JUMPDEST PUSH2 0x2122 DUP2 PUSH2 0x1DB4 JUMP JUMPDEST DUP2 EQ PUSH2 0x212D JUMPI PUSH1 0x0 DUP1 REVERT JUMPDEST POP JUMP JUMPDEST PUSH1 0x0 DUP2 CALLDATALOAD SWAP1 POP PUSH2 0x213F DUP2 PUSH2 0x2119 JUMP JUMPDEST SWAP3 SWAP2 POP POP JUMP JUMPDEST PUSH1 0x0 PUSH1 0x20 DUP3 DUP5 SUB SLT ISZERO PUSH2 0x215B JUMPI PUSH2 0x215A PUSH2 0x1976 JUMP JUMPDEST JUMPDEST PUSH1 0x0 PUSH2 0x2169 DUP5 DUP3 DUP6 ADD PUSH2 0x2130 JUMP JUMPDEST SWAP2 POP POP SWAP3 SWAP2 POP POP JUMP JUMPDEST PUSH32 0x5468657265206973206E6F20737461727465642061756374696F6E206E6F7700 PUSH1 0x0 DUP3 ADD MSTORE POP JUMP JUMPDEST PUSH1 0x0 PUSH2 0x21A8 PUSH1 0x1F DUP4 PUSH2 0x1E33 JUMP JUMPDEST SWAP2 POP PUSH2 0x21B3 DUP3 PUSH2 0x2172 JUMP JUMPDEST PUSH1 0x20 DUP3 ADD SWAP1 POP SWAP2 SWAP1 POP JUMP JUMPDEST PUSH1 0x0 PUSH1 0x20 DUP3 ADD SWAP1 POP DUP2 DUP2 SUB PUSH1 0x0 DUP4 ADD MSTORE PUSH2 0x21D7 DUP2 PUSH2 0x219B JUMP JUMPDEST SWAP1 POP SWAP2 SWAP1 POP JUMP JUMPDEST PUSH32 0x57696E6E6572207375626D697373696F6E20706861736520686173206E6F7420 PUSH1 0x0 DUP3 ADD MSTORE PUSH32 0x73746172746564207965742E0000000000000000000000000000000000000000 PUSH1 0x20 DUP3 ADD MSTORE POP JUMP JUMPDEST PUSH1 0x0 PUSH2 0x223A PUSH1 0x2C DUP4 PUSH2 0x1E33 JUMP JUMPDEST SWAP2 POP PUSH2 0x2245 DUP3 PUSH2 0x21DE JUMP JUMPDEST PUSH1 0x40 DUP3 ADD SWAP1 POP SWAP2 SWAP1 POP JUMP JUMPDEST PUSH1 0x0 PUSH1 0x20 DUP3 ADD SWAP1 POP DUP2 DUP2 SUB PUSH1 0x0 DUP4 ADD MSTORE PUSH2 0x2269 DUP2 PUSH2 0x222D JUMP JUMPDEST SWAP1 POP SWAP2 SWAP1 POP JUMP JUMPDEST PUSH32 0x57696E6E6572207375626D697373696F6E2074696D6520686173207061737365 PUSH1 0x0 DUP3 ADD MSTORE PUSH32 0x642E000000000000000000000000000000000000000000000000000000000000 PUSH1 0x20 DUP3 ADD MSTORE POP JUMP JUMPDEST PUSH1 0x0 PUSH2 0x22CC PUSH1 0x22 DUP4 PUSH2 0x1E33 JUMP JUMPDEST SWAP2 POP PUSH2 0x22D7 DUP3 PUSH2 0x2270 JUMP JUMPDEST PUSH1 0x40 DUP3 ADD SWAP1 POP SWAP2 SWAP1 POP JUMP JUMPDEST PUSH1 0x0 PUSH1 0x20 DUP3 ADD SWAP1 POP DUP2 DUP2 SUB PUSH1 0x0 DUP4 ADD MSTORE PUSH2 0x22FB DUP2 PUSH2 0x22BF JUMP JUMPDEST SWAP1 POP SWAP2 SWAP1 POP JUMP JUMPDEST PUSH32 0x4E487B7100000000000000000000000000000000000000000000000000000000 PUSH1 0x0 MSTORE PUSH1 0x22 PUSH1 0x4 MSTORE PUSH1 0x24 PUSH1 0x0 REVERT JUMPDEST PUSH1 0x0 PUSH1 0x2 DUP3 DIV SWAP1 POP PUSH1 0x1 DUP3 AND DUP1 PUSH2 0x2349 JUMPI PUSH1 0x7F DUP3 AND SWAP2 POP JUMPDEST PUSH1 0x20 DUP3 LT DUP2 SUB PUSH2 0x235C JUMPI PUSH2 0x235B PUSH2 0x2302 JUMP JUMPDEST JUMPDEST POP SWAP2 SWAP1 POP JUMP JUMPDEST PUSH1 0x0 DUP2 SWAP1 POP DUP2 PUSH1 0x0 MSTORE PUSH1 0x20 PUSH1 0x0 KECCAK256 SWAP1 POP SWAP2 SWAP1 POP JUMP JUMPDEST PUSH1 0x0 PUSH1 0x20 PUSH1 0x1F DUP4 ADD DIV SWAP1 POP SWAP2 SWAP1 POP JUMP JUMPDEST PUSH1 0x0 DUP3 DUP3 SHL SWAP1 POP SWAP3 SWAP2 POP POP JUMP JUMPDEST PUSH1 0x0 PUSH1 0x8 DUP4 MUL PUSH2 0x23C4 PUSH32 0xFFFFFFFFFFFFFFFFFFFFFFFFFFFFFFFFFFFFFFFFFFFFFFFFFFFFFFFFFFFFFFFF DUP3 PUSH2 0x2387 JUMP JUMPDEST PUSH2 0x23CE DUP7 DUP4 PUSH2 0x2387 JUMP JUMPDEST SWAP6 POP DUP1 NOT DUP5 AND SWAP4 POP DUP1 DUP7 AND DUP5 OR SWAP3 POP POP POP SWAP4 SWAP3 POP POP POP JUMP JUMPDEST PUSH1 0x0 DUP2 SWAP1 POP SWAP2 SWAP1 POP JUMP JUMPDEST PUSH1 0x0 PUSH2 0x240B PUSH2 0x2406 PUSH2 0x2401 DUP5 PUSH2 0x1980 JUMP JUMPDEST PUSH2 0x23E6 JUMP JUMPDEST PUSH2 0x1980 JUMP JUMPDEST SWAP1 POP SWAP2 SWAP1 POP JUMP JUMPDEST PUSH1 0x0 DUP2 SWAP1 POP SWAP2 SWAP1 POP JUMP JUMPDEST PUSH2 0x2425 DUP4 PUSH2 0x23F0 JUMP JUMPDEST PUSH2 0x2439 PUSH2 0x2431 DUP3 PUSH2 0x2412 JUMP JUMPDEST DUP5 DUP5 SLOAD PUSH2 0x2394 JUMP JUMPDEST DUP3 SSTORE POP POP POP POP JUMP JUMPDEST PUSH1 0x0 SWAP1 JUMP JUMPDEST PUSH2 0x244E PUSH2 0x2441 JUMP JUMPDEST PUSH2 0x2459 DUP2 DUP5 DUP5 PUSH2 0x241C JUMP JUMPDEST POP POP POP JUMP JUMPDEST JUMPDEST DUP2 DUP2 LT ISZERO PUSH2 0x247D JUMPI PUSH2 0x2472 PUSH1 0x0 DUP3 PUSH2 0x2446 JUMP JUMPDEST PUSH1 0x1 DUP2 ADD SWAP1 POP PUSH2 0x245F JUMP JUMPDEST POP POP JUMP JUMPDEST PUSH1 0x1F DUP3 GT ISZERO PUSH2 0x24C2 JUMPI PUSH2 0x2493 DUP2 PUSH2 0x2362 JUMP JUMPDEST PUSH2 0x249C DUP5 PUSH2 0x2377 JUMP JUMPDEST DUP2 ADD PUSH1 0x20 DUP6 LT ISZERO PUSH2 0x24AB JUMPI DUP2 SWAP1 POP JUMPDEST PUSH2 0x24BF PUSH2 0x24B7 DUP6 PUSH2 0x2377 JUMP JUMPDEST DUP4 ADD DUP3 PUSH2 0x245E JUMP JUMPDEST POP POP JUMPDEST POP POP POP JUMP JUMPDEST PUSH1 0x0 DUP3 DUP3 SHR SWAP1 POP SWAP3 SWAP2 POP POP JUMP JUMPDEST PUSH1 0x0 PUSH2 0x24E5 PUSH1 0x0 NOT DUP5 PUSH1 0x8 MUL PUSH2 0x24C7 JUMP JUMPDEST NOT DUP1 DUP4 AND SWAP2 POP POP SWAP3 SWAP2 POP POP JUMP JUMPDEST PUSH1 0x0 PUSH2 0x24FE DUP4 DUP4 PUSH2 0x24D4 JUMP JUMPDEST SWAP2 POP DUP3 PUSH1 0x2 MUL DUP3 OR SWAP1 POP SWAP3 SWAP2 POP POP JUMP JUMPDEST PUSH2 0x2517 DUP3 PUSH2 0x1BD4 JUMP JUMPDEST PUSH8 0xFFFFFFFFFFFFFFFF DUP2 GT ISZERO PUSH2 0x2530 JUMPI PUSH2 0x252F PUSH2 0x19D1 JUMP JUMPDEST JUMPDEST PUSH2 0x253A DUP3 SLOAD PUSH2 0x2331 JUMP JUMPDEST PUSH2 0x2545 DUP3 DUP3 DUP6 PUSH2 0x2481 JUMP JUMPDEST PUSH1 0x0 PUSH1 0x20 SWAP1 POP PUSH1 0x1F DUP4 GT PUSH1 0x1 DUP2 EQ PUSH2 0x2578 JUMPI PUSH1 0x0 DUP5 ISZERO PUSH2 0x2566 JUMPI DUP3 DUP8 ADD MLOAD SWAP1 POP JUMPDEST PUSH2 0x2570 DUP6 DUP3 PUSH2 0x24F2 JUMP JUMPDEST DUP7 SSTORE POP PUSH2 0x25D8 JUMP JUMPDEST PUSH1 0x1F NOT DUP5 AND PUSH2 0x2586 DUP7 PUSH2 0x2362 JUMP JUMPDEST PUSH1 0x0 JUMPDEST DUP3 DUP2 LT ISZERO PUSH2 0x25AE JUMPI DUP5 DUP10 ADD MLOAD DUP3 SSTORE PUSH1 0x1 DUP3 ADD SWAP2 POP PUSH1 0x20 DUP6 ADD SWAP5 POP PUSH1 0x20 DUP2 ADD SWAP1 POP PUSH2 0x2589 JUMP JUMPDEST DUP7 DUP4 LT ISZERO PUSH2 0x25CB JUMPI DUP5 DUP10 ADD MLOAD PUSH2 0x25C7 PUSH1 0x1F DUP10 AND DUP3 PUSH2 0x24D4 JUMP JUMPDEST DUP4 SSTORE POP JUMPDEST PUSH1 0x1 PUSH1 0x2 DUP9 MUL ADD DUP9 SSTORE POP POP POP JUMPDEST POP POP POP POP POP POP JUMP JUMPDEST PUSH32 0x41756374696F6E206973206E6F7420636F6D706C65746564207965742E000000 PUSH1 0x0 DUP3 ADD MSTORE POP JUMP JUMPDEST PUSH1 0x0 PUSH2 0x2616 PUSH1 0x1D DUP4 PUSH2 0x1E33 JUMP JUMPDEST SWAP2 POP PUSH2 0x2621 DUP3 PUSH2 0x25E0 JUMP JUMPDEST PUSH1 0x20 DUP3 ADD SWAP1 POP SWAP2 SWAP1 POP JUMP JUMPDEST PUSH1 0x0 PUSH1 0x20 DUP3 ADD SWAP1 POP DUP2 DUP2 SUB PUSH1 0x0 DUP4 ADD MSTORE PUSH2 0x2645 DUP2 PUSH2 0x2609 JUMP JUMPDEST SWAP1 POP SWAP2 SWAP1 POP JUMP JUMPDEST PUSH32 0x4E487B7100000000000000000000000000000000000000000000000000000000 PUSH1 0x0 MSTORE PUSH1 0x32 PUSH1 0x4 MSTORE PUSH1 0x24 PUSH1 0x0 REVERT JUMPDEST PUSH32 0x4E487B7100000000000000000000000000000000000000000000000000000000 PUSH1 0x0 MSTORE PUSH1 0x11 PUSH1 0x4 MSTORE PUSH1 0x24 PUSH1 0x0 REVERT JUMPDEST PUSH1 0x0 PUSH2 0x26B5 DUP3 PUSH2 0x1980 JUMP JUMPDEST SWAP2 POP PUSH2 0x26C0 DUP4 PUSH2 0x1980 JUMP JUMPDEST SWAP3 POP DUP3 DUP3 ADD SWAP1 POP DUP1 DUP3 GT ISZERO PUSH2 0x26D8 JUMPI PUSH2 0x26D7 PUSH2 0x267B JUMP JUMPDEST JUMPDEST SWAP3 SWAP2 POP POP JUMP JUMPDEST PUSH32 0x4469737075746520706861736520686173206E6F742073746172746564207965 PUSH1 0x0 DUP3 ADD MSTORE PUSH32 0x742E000000000000000000000000000000000000000000000000000000000000 PUSH1 0x20 DUP3 ADD MSTORE POP JUMP JUMPDEST PUSH1 0x0 PUSH2 0x273A PUSH1 0x22 DUP4 PUSH2 0x1E33 JUMP JUMPDEST SWAP2 POP PUSH2 0x2745 DUP3 PUSH2 0x26DE JUMP JUMPDEST PUSH1 0x40 DUP3 ADD SWAP1 POP SWAP2 SWAP1 POP JUMP JUMPDEST PUSH1 0x0 PUSH1 0x20 DUP3 ADD SWAP1 POP DUP2 DUP2 SUB PUSH1 0x0 DUP4 ADD MSTORE PUSH2 0x2769 DUP2 PUSH2 0x272D JUMP JUMPDEST SWAP1 POP SWAP2 SWAP1 POP JUMP JUMPDEST PUSH32 0x4469737075746520706861736520686173207061737365642E00000000000000 PUSH1 0x0 DUP3 ADD MSTORE POP JUMP JUMPDEST PUSH1 0x0 PUSH2 0x27A6 PUSH1 0x19 DUP4 PUSH2 0x1E33 JUMP JUMPDEST SWAP2 POP PUSH2 0x27B1 DUP3 PUSH2 0x2770 JUMP JUMPDEST PUSH1 0x20 DUP3 ADD SWAP1 POP SWAP2 SWAP1 POP JUMP JUMPDEST PUSH1 0x0 PUSH1 0x20 DUP3 ADD SWAP1 POP DUP2 DUP2 SUB PUSH1 0x0 DUP4 ADD MSTORE PUSH2 0x27D5 DUP2 PUSH2 0x2799 JUMP JUMPDEST SWAP1 POP SWAP2 SWAP1 POP JUMP JUMPDEST PUSH32 0x5468652062696420616E64206E6F6E636520796F75207375626D697474656420 PUSH1 0x0 DUP3 ADD MSTORE PUSH32 0x617265206E6F742076616C69642E000000000000000000000000000000000000 PUSH1 0x20 DUP3 ADD MSTORE POP JUMP JUMPDEST PUSH1 0x0 PUSH2 0x2838 PUSH1 0x2E DUP4 PUSH2 0x1E33 JUMP JUMPDEST SWAP2 POP PUSH2 0x2843 DUP3 PUSH2 0x27DC JUMP JUMPDEST PUSH1 0x40 DUP3 ADD SWAP1 POP SWAP2 SWAP1 POP JUMP JUMPDEST PUSH1 0x0 PUSH1 0x20 DUP3 ADD SWAP1 POP DUP2 DUP2 SUB PUSH1 0x0 DUP4 ADD MSTORE PUSH2 0x2867 DUP2 PUSH2 0x282B JUMP JUMPDEST SWAP1 POP SWAP2 SWAP1 POP JUMP JUMPDEST PUSH32 0x596F75722064697370757465206973206E6F742076616C69642073696E636520 PUSH1 0x0 DUP3 ADD MSTORE PUSH32 0x6974206973206E6F742067726561746572207468616E206174206C6561737420 PUSH1 0x20 DUP3 ADD MSTORE PUSH32 0x6F6E652077696E6E65722E000000000000000000000000000000000000000000 PUSH1 0x40 DUP3 ADD MSTORE POP JUMP JUMPDEST PUSH1 0x0 PUSH2 0x28F0 PUSH1 0x4B DUP4 PUSH2 0x1E33 JUMP JUMPDEST SWAP2 POP PUSH2 0x28FB DUP3 PUSH2 0x286E JUMP JUMPDEST PUSH1 0x60 DUP3 ADD SWAP1 POP SWAP2 SWAP1 POP JUMP JUMPDEST PUSH1 0x0 PUSH1 0x20 DUP3 ADD SWAP1 POP DUP2 DUP2 SUB PUSH1 0x0 DUP4 ADD MSTORE PUSH2 0x291F DUP2 PUSH2 0x28E3 JUMP JUMPDEST SWAP1 POP SWAP2 SWAP1 POP JUMP JUMPDEST PUSH32 0x48617368656420626964207375626D697373696F6E207068617365206973206E PUSH1 0x0 DUP3 ADD MSTORE PUSH32 0x6F742073746172746564207965742E0000000000000000000000000000000000 PUSH1 0x20 DUP3 ADD MSTORE POP JUMP JUMPDEST PUSH1 0x0 PUSH2 0x2982 PUSH1 0x2F DUP4 PUSH2 0x1E33 JUMP JUMPDEST SWAP2 POP PUSH2 0x298D DUP3 PUSH2 0x2926 JUMP JUMPDEST PUSH1 0x40 DUP3 ADD SWAP1 POP SWAP2 SWAP1 POP JUMP JUMPDEST PUSH1 0x0 PUSH1 0x20 DUP3 ADD SWAP1 POP DUP2 DUP2 SUB PUSH1 0x0 DUP4 ADD MSTORE PUSH2 0x29B1 DUP2 PUSH2 0x2975 JUMP JUMPDEST SWAP1 POP SWAP2 SWAP1 POP JUMP JUMPDEST PUSH32 0x54696D6520666F722068617368656420626964207375626D697373696F6E2069 PUSH1 0x0 DUP3 ADD MSTORE PUSH32 0x7320706173736564000000000000000000000000000000000000000000000000 PUSH1 0x20 DUP3 ADD MSTORE POP JUMP JUMPDEST PUSH1 0x0 PUSH2 0x2A14 PUSH1 0x28 DUP4 PUSH2 0x1E33 JUMP JUMPDEST SWAP2 POP PUSH2 0x2A1F DUP3 PUSH2 0x29B8 JUMP JUMPDEST PUSH1 0x40 DUP3 ADD SWAP1 POP SWAP2 SWAP1 POP JUMP JUMPDEST PUSH1 0x0 PUSH1 0x20 DUP3 ADD SWAP1 POP DUP2 DUP2 SUB PUSH1 0x0 DUP4 ADD MSTORE PUSH2 0x2A43 DUP2 PUSH2 0x2A07 JUMP JUMPDEST SWAP1 POP SWAP2 SWAP1 POP JUMP JUMPDEST PUSH32 0x54696D6520666F72207265676973746572696E67206173206120626964646572 PUSH1 0x0 DUP3 ADD MSTORE PUSH32 0x206973207061737365642E000000000000000000000000000000000000000000 PUSH1 0x20 DUP3 ADD MSTORE POP JUMP JUMPDEST PUSH1 0x0 PUSH2 0x2AA6 PUSH1 0x2B DUP4 PUSH2 0x1E33 JUMP JUMPDEST SWAP2 POP PUSH2 0x2AB1 DUP3 PUSH2 0x2A4A JUMP JUMPDEST PUSH1 0x40 DUP3 ADD SWAP1 POP SWAP2 SWAP1 POP JUMP JUMPDEST PUSH1 0x0 PUSH1 0x20 DUP3 ADD SWAP1 POP DUP2 DUP2 SUB PUSH1 0x0 DUP4 ADD MSTORE PUSH2 0x2AD5 DUP2 PUSH2 0x2A99 JUMP JUMPDEST SWAP1 POP SWAP2 SWAP1 POP JUMP JUMPDEST PUSH1 0x0 DUP2 SWAP1 POP SWAP3 SWAP2 POP POP JUMP JUMPDEST PUSH1 0x0 PUSH2 0x2AF2 DUP3 PUSH2 0x1BD4 JUMP JUMPDEST PUSH2 0x2AFC DUP2 DUP6 PUSH2 0x2ADC JUMP JUMPDEST SWAP4 POP PUSH2 0x2B0C DUP2 DUP6 PUSH1 0x20 DUP7 ADD PUSH2 0x1BF0 JUMP JUMPDEST DUP1 DUP5 ADD SWAP2 POP POP SWAP3 SWAP2 POP POP JUMP JUMPDEST PUSH1 0x0 PUSH2 0x2B24 DUP3 DUP6 PUSH2 0x2AE7 JUMP JUMPDEST SWAP2 POP PUSH2 0x2B30 DUP3 DUP5 PUSH2 0x2AE7 JUMP JUMPDEST SWAP2 POP DUP2 SWAP1 POP SWAP4 SWAP3 POP POP POP JUMP JUMPDEST PUSH1 0x0 PUSH2 0x2B48 DUP3 DUP5 PUSH2 0x2AE7 JUMP JUMPDEST SWAP2 POP DUP2 SWAP1 POP SWAP3 SWAP2 POP POP JUMP JUMPDEST PUSH1 0x0 DUP2 MLOAD SWAP1 POP SWAP2 SWAP1 POP JUMP JUMPDEST PUSH1 0x0 DUP2 SWAP1 POP SWAP3 SWAP2 POP POP JUMP JUMPDEST PUSH1 0x0 PUSH2 0x2B74 DUP3 PUSH2 0x2B53 JUMP JUMPDEST PUSH2 0x2B7E DUP2 DUP6 PUSH2 0x2B5E JUMP JUMPDEST SWAP4 POP PUSH2 0x2B8E DUP2 DUP6 PUSH1 0x20 DUP7 ADD PUSH2 0x1BF0 JUMP JUMPDEST DUP1 DUP5 ADD SWAP2 POP POP SWAP3 SWAP2 POP POP JUMP JUMPDEST PUSH1 0x0 PUSH2 0x2BA6 DUP3 DUP5 PUSH2 0x2B69 JUMP JUMPDEST SWAP2 POP DUP2 SWAP1 POP SWAP3 SWAP2 POP POP JUMP JUMPDEST PUSH1 0x0 DUP2 MLOAD SWAP1 POP PUSH2 0x2BC0 DUP2 PUSH2 0x2119 JUMP JUMPDEST SWAP3 SWAP2 POP POP JUMP JUMPDEST PUSH1 0x0 PUSH1 0x20 DUP3 DUP5 SUB SLT ISZERO PUSH2 0x2BDC JUMPI PUSH2 0x2BDB PUSH2 0x1976 JUMP JUMPDEST JUMPDEST PUSH1 0x0 PUSH2 0x2BEA DUP5 DUP3 DUP6 ADD PUSH2 0x2BB1 JUMP JUMPDEST SWAP2 POP POP SWAP3 SWAP2 POP POP JUMP JUMPDEST PUSH1 0x0 PUSH2 0x2BFE DUP3 PUSH2 0x1980 JUMP JUMPDEST SWAP2 POP PUSH32 0xFFFFFFFFFFFFFFFFFFFFFFFFFFFFFFFFFFFFFFFFFFFFFFFFFFFFFFFFFFFFFFFF DUP3 SUB PUSH2 0x2C30 JUMPI PUSH2 0x2C2F PUSH2 0x267B JUMP JUMPDEST JUMPDEST PUSH1 0x1 DUP3 ADD SWAP1 POP SWAP2 SWAP1 POP JUMP JUMPDEST PUSH1 0x0 PUSH2 0x2C46 DUP3 PUSH2 0x1980 JUMP JUMPDEST SWAP2 POP PUSH2 0x2C51 DUP4 PUSH2 0x1980 JUMP JUMPDEST SWAP3 POP DUP3 DUP3 MUL PUSH2 0x2C5F DUP2 PUSH2 0x1980 JUMP JUMPDEST SWAP2 POP DUP3 DUP3 DIV DUP5 EQ DUP4 ISZERO OR PUSH2 0x2C76 JUMPI PUSH2 0x2C75 PUSH2 0x267B JUMP JUMPDEST JUMPDEST POP SWAP3 SWAP2 POP POP JUMP JUMPDEST PUSH32 0x4E487B7100000000000000000000000000000000000000000000000000000000 PUSH1 0x0 MSTORE PUSH1 0x12 PUSH1 0x4 MSTORE PUSH1 0x24 PUSH1 0x0 REVERT INVALID LOG2 PUSH5 0x6970667358 0x22 SLT KECCAK256 0xE PUSH11 0x7B33239FE5FED8BDE2D6BE SWAP14 SMOD 0x4C 0xA9 0xED 0xAB CALL 0xC8 JUMPDEST 0xBE 0xC1 MSTORE 0xB8 0x4F 0xB9 CALLCODE SWAP15 SWAP13 GASLIMIT PUSH5 0x736F6C6343 STOP ADDMOD SLT STOP CALLER "
				},
				"gasEstimates": {
					"creation": {
						"codeDepositCost": "2298000",
						"executionCost": "48837",
						"totalCost": "2346837"
					},
					"external": {
						"assetDescription()": "infinite",
						"assetName()": "infinite",
						"bidders(uint256)": "5023",
						"dispute(uint256,string)": "infinite",
						"disputedBidders(uint256)": "infinite",
						"encodedBids(address)": "2882",
						"getAllDisputers()": "infinite",
						"getAllWinners()": "infinite",
						"getAuctionInfo()": "infinite",
						"registerAuctionInfo(string,string)": "infinite",
						"registerBidder()": "53103",
						"reset()": "infinite",
						"resetEncodedBids()": "infinite",
						"submitEncodedBid(bytes32)": "29090",
						"submitWinner(uint256,string)": "infinite",
						"winners(uint256)": "infinite"
					},
					"internal": {
						"addWinner(uint256,string memory)": "infinite",
						"clearWinners()": "infinite",
						"computeHash(uint256,string memory)": "infinite",
						"isDiputeBidGreaterThanOneWinnerBid(uint256)": "infinite",
						"setUpPhasesTimePeriods()": "infinite"
					}
				},
				"methodIdentifiers": {
					"assetDescription()": "938626c2",
					"assetName()": "c9230c5d",
					"bidders(uint256)": "cff29dfd",
					"dispute(uint256,string)": "66c85dee",
					"disputedBidders(uint256)": "8f772f96",
					"encodedBids(address)": "3817df4c",
					"getAllDisputers()": "35abd160",
					"getAllWinners()": "dc6b8627",
					"getAuctionInfo()": "d94a3505",
					"registerAuctionInfo(string,string)": "a2ebc656",
					"registerBidder()": "f356733c",
					"reset()": "d826f88f",
					"resetEncodedBids()": "40bd5937",
					"submitEncodedBid(bytes32)": "ec5d0ab2",
					"submitWinner(uint256,string)": "1744e03b",
					"winners(uint256)": "a2fb1175"
				}
			},
			"storageLayout": {
				"storage": [
					{
						"astId": 1044,
						"contract": "Contracts/AKEB.sol:AKEB",
						"label": "seller",
						"offset": 0,
						"slot": "0",
						"type": "t_address"
					},
					{
						"astId": 1046,
						"contract": "Contracts/AKEB.sol:AKEB",
						"label": "assetDescription",
						"offset": 0,
						"slot": "1",
						"type": "t_string_storage"
					},
					{
						"astId": 1048,
						"contract": "Contracts/AKEB.sol:AKEB",
						"label": "assetName",
						"offset": 0,
						"slot": "2",
						"type": "t_string_storage"
					},
					{
						"astId": 1050,
						"contract": "Contracts/AKEB.sol:AKEB",
						"label": "registerBidderPeriod",
						"offset": 0,
						"slot": "3",
						"type": "t_uint256"
					},
					{
						"astId": 1052,
						"contract": "Contracts/AKEB.sol:AKEB",
						"label": "hashedBidSubmissionPeriod",
						"offset": 0,
						"slot": "4",
						"type": "t_uint256"
					},
					{
						"astId": 1054,
						"contract": "Contracts/AKEB.sol:AKEB",
						"label": "winnerAndDisputeSubmissionPeriod",
						"offset": 0,
						"slot": "5",
						"type": "t_uint256"
					},
					{
						"astId": 1057,
						"contract": "Contracts/AKEB.sol:AKEB",
						"label": "periodTime",
						"offset": 0,
						"slot": "6",
						"type": "t_uint256"
					},
					{
						"astId": 1060,
						"contract": "Contracts/AKEB.sol:AKEB",
						"label": "isAuctionStarted",
						"offset": 0,
						"slot": "7",
						"type": "t_bool"
					},
					{
						"astId": 1063,
						"contract": "Contracts/AKEB.sol:AKEB",
						"label": "bidders",
						"offset": 0,
						"slot": "8",
						"type": "t_array(t_address)dyn_storage"
					},
					{
						"astId": 1067,
						"contract": "Contracts/AKEB.sol:AKEB",
						"label": "encodedBids",
						"offset": 0,
						"slot": "9",
						"type": "t_mapping(t_address,t_bytes32)"
					},
					{
						"astId": 1078,
						"contract": "Contracts/AKEB.sol:AKEB",
						"label": "winners",
						"offset": 0,
						"slot": "10",
						"type": "t_array(t_struct(winner)1074_storage)dyn_storage"
					},
					{
						"astId": 1089,
						"contract": "Contracts/AKEB.sol:AKEB",
						"label": "disputedBidders",
						"offset": 0,
						"slot": "11",
						"type": "t_array(t_struct(DisputedBidders)1085_storage)dyn_storage"
					}
				],
				"types": {
					"t_address": {
						"encoding": "inplace",
						"label": "address",
						"numberOfBytes": "20"
					},
					"t_array(t_address)dyn_storage": {
						"base": "t_address",
						"encoding": "dynamic_array",
						"label": "address[]",
						"numberOfBytes": "32"
					},
					"t_array(t_struct(DisputedBidders)1085_storage)dyn_storage": {
						"base": "t_struct(DisputedBidders)1085_storage",
						"encoding": "dynamic_array",
						"label": "struct AKEB.DisputedBidders[]",
						"numberOfBytes": "32"
					},
					"t_array(t_struct(winner)1074_storage)dyn_storage": {
						"base": "t_struct(winner)1074_storage",
						"encoding": "dynamic_array",
						"label": "struct AKEB.winner[]",
						"numberOfBytes": "32"
					},
					"t_bool": {
						"encoding": "inplace",
						"label": "bool",
						"numberOfBytes": "1"
					},
					"t_bytes32": {
						"encoding": "inplace",
						"label": "bytes32",
						"numberOfBytes": "32"
					},
					"t_mapping(t_address,t_bytes32)": {
						"encoding": "mapping",
						"key": "t_address",
						"label": "mapping(address => bytes32)",
						"numberOfBytes": "32",
						"value": "t_bytes32"
					},
					"t_string_storage": {
						"encoding": "bytes",
						"label": "string",
						"numberOfBytes": "32"
					},
					"t_struct(DisputedBidders)1085_storage": {
						"encoding": "inplace",
						"label": "struct AKEB.DisputedBidders",
						"members": [
							{
								"astId": 1080,
								"contract": "Contracts/AKEB.sol:AKEB",
								"label": "bid",
								"offset": 0,
								"slot": "0",
								"type": "t_uint256"
							},
							{
								"astId": 1082,
								"contract": "Contracts/AKEB.sol:AKEB",
								"label": "disputeAddress",
								"offset": 0,
								"slot": "1",
								"type": "t_address"
							},
							{
								"astId": 1084,
								"contract": "Contracts/AKEB.sol:AKEB",
								"label": "nonce",
								"offset": 0,
								"slot": "2",
								"type": "t_string_storage"
							}
						],
						"numberOfBytes": "96"
					},
					"t_struct(winner)1074_storage": {
						"encoding": "inplace",
						"label": "struct AKEB.winner",
						"members": [
							{
								"astId": 1069,
								"contract": "Contracts/AKEB.sol:AKEB",
								"label": "winnerAddress",
								"offset": 0,
								"slot": "0",
								"type": "t_address"
							},
							{
								"astId": 1071,
								"contract": "Contracts/AKEB.sol:AKEB",
								"label": "bid",
								"offset": 0,
								"slot": "1",
								"type": "t_uint256"
							},
							{
								"astId": 1073,
								"contract": "Contracts/AKEB.sol:AKEB",
								"label": "nonce",
								"offset": 0,
								"slot": "2",
								"type": "t_string_storage"
							}
						],
						"numberOfBytes": "96"
					},
					"t_uint256": {
						"encoding": "inplace",
						"label": "uint256",
						"numberOfBytes": "32"
					}
				}
			},
			"userdoc": {
				"kind": "user",
				"methods": {},
				"version": 1
			}
		}
	}
}