{
	"Contracts/AKEB.sol": {
		"AKEB": {
			"abi": [
				{
					"inputs": [],
					"stateMutability": "nonpayable",
					"type": "constructor"
				},
				{
					"inputs": [],
					"name": "assetDescription",
					"outputs": [
						{
							"internalType": "string",
							"name": "",
							"type": "string"
						}
					],
					"stateMutability": "view",
					"type": "function"
				},
				{
					"inputs": [],
					"name": "minBidPrice",
					"outputs": [
						{
							"internalType": "uint256",
							"name": "",
							"type": "uint256"
						}
					],
					"stateMutability": "view",
					"type": "function"
				},
				{
					"inputs": [],
					"name": "minNumberOfBidders",
					"outputs": [
						{
							"internalType": "uint256",
							"name": "",
							"type": "uint256"
						}
					],
					"stateMutability": "view",
					"type": "function"
				},
				{
					"inputs": [
						{
							"internalType": "string",
							"name": "assetDescriptionInput",
							"type": "string"
						},
						{
							"internalType": "uint256",
							"name": "minBidPriceInput",
							"type": "uint256"
						},
						{
							"internalType": "uint256",
							"name": "minNumberOfBiddersInput",
							"type": "uint256"
						}
					],
					"name": "register",
					"outputs": [],
					"stateMutability": "nonpayable",
					"type": "function"
				}
			],
			"devdoc": {
				"kind": "dev",
				"methods": {},
				"version": 1
			},
			"evm": {
				"assembly": "    /* \"Contracts/AKEB.sol\":26:699  contract AKEB {... */\n  mstore(0x40, 0x80)\n    /* \"Contracts/AKEB.sol\":201:259  constructor()... */\n  callvalue\n  dup1\n  iszero\n  tag_1\n  jumpi\n  0x00\n  dup1\n  revert\ntag_1:\n  pop\n    /* \"Contracts/AKEB.sol\":242:252  msg.sender */\n  caller\n    /* \"Contracts/AKEB.sol\":229:239  auctioneer */\n  0x00\n  dup1\n    /* \"Contracts/AKEB.sol\":229:252  auctioneer = msg.sender */\n  0x0100\n  exp\n  dup2\n  sload\n  dup2\n  0xffffffffffffffffffffffffffffffffffffffff\n  mul\n  not\n  and\n  swap1\n  dup4\n  0xffffffffffffffffffffffffffffffffffffffff\n  and\n  mul\n  or\n  swap1\n  sstore\n  pop\n    /* \"Contracts/AKEB.sol\":26:699  contract AKEB {... */\n  dataSize(sub_0)\n  dup1\n  dataOffset(sub_0)\n  0x00\n  codecopy\n  0x00\n  return\nstop\n\nsub_0: assembly {\n        /* \"Contracts/AKEB.sol\":26:699  contract AKEB {... */\n      mstore(0x40, 0x80)\n      callvalue\n      dup1\n      iszero\n      tag_1\n      jumpi\n      0x00\n      dup1\n      revert\n    tag_1:\n      pop\n      jumpi(tag_2, lt(calldatasize, 0x04))\n      shr(0xe0, calldataload(0x00))\n      dup1\n      0x34eb86a2\n      eq\n      tag_3\n      jumpi\n      dup1\n      0x90a9f837\n      eq\n      tag_4\n      jumpi\n      dup1\n      0x938626c2\n      eq\n      tag_5\n      jumpi\n      dup1\n      0xdaa0218f\n      eq\n      tag_6\n      jumpi\n    tag_2:\n      0x00\n      dup1\n      revert\n        /* \"Contracts/AKEB.sol\":129:155  uint256 public minBidPrice */\n    tag_3:\n      tag_7\n      tag_8\n      jump\t// in\n    tag_7:\n      mload(0x40)\n      tag_9\n      swap2\n      swap1\n      tag_10\n      jump\t// in\n    tag_9:\n      mload(0x40)\n      dup1\n      swap2\n      sub\n      swap1\n      return\n        /* \"Contracts/AKEB.sol\":393:697  function register(string memory assetDescriptionInput, ... */\n    tag_4:\n      tag_11\n      0x04\n      dup1\n      calldatasize\n      sub\n      dup2\n      add\n      swap1\n      tag_12\n      swap2\n      swap1\n      tag_13\n      jump\t// in\n    tag_12:\n      tag_14\n      jump\t// in\n    tag_11:\n      stop\n        /* \"Contracts/AKEB.sol\":93:123  string public assetDescription */\n    tag_5:\n      tag_15\n      tag_16\n      jump\t// in\n    tag_15:\n      mload(0x40)\n      tag_17\n      swap2\n      swap1\n      tag_18\n      jump\t// in\n    tag_17:\n      mload(0x40)\n      dup1\n      swap2\n      sub\n      swap1\n      return\n        /* \"Contracts/AKEB.sol\":161:194  uint256 public minNumberOfBidders */\n    tag_6:\n      tag_19\n      tag_20\n      jump\t// in\n    tag_19:\n      mload(0x40)\n      tag_21\n      swap2\n      swap1\n      tag_10\n      jump\t// in\n    tag_21:\n      mload(0x40)\n      dup1\n      swap2\n      sub\n      swap1\n      return\n        /* \"Contracts/AKEB.sol\":129:155  uint256 public minBidPrice */\n    tag_8:\n      sload(0x03)\n      dup2\n      jump\t// out\n        /* \"Contracts/AKEB.sol\":393:697  function register(string memory assetDescriptionInput, ... */\n    tag_14:\n        /* \"Contracts/AKEB.sol\":324:334  auctioneer */\n      0x00\n      dup1\n      sload\n      swap1\n      0x0100\n      exp\n      swap1\n      div\n      0xffffffffffffffffffffffffffffffffffffffff\n      and\n        /* \"Contracts/AKEB.sol\":310:334  msg.sender == auctioneer */\n      0xffffffffffffffffffffffffffffffffffffffff\n      and\n        /* \"Contracts/AKEB.sol\":310:320  msg.sender */\n      caller\n        /* \"Contracts/AKEB.sol\":310:334  msg.sender == auctioneer */\n      0xffffffffffffffffffffffffffffffffffffffff\n      and\n      eq\n        /* \"Contracts/AKEB.sol\":302:378  require(msg.sender == auctioneer, \"Only auctioneer can call this function.\") */\n      tag_23\n      jumpi\n      mload(0x40)\n      0x08c379a000000000000000000000000000000000000000000000000000000000\n      dup2\n      mstore\n      0x04\n      add\n      tag_24\n      swap1\n      tag_25\n      jump\t// in\n    tag_24:\n      mload(0x40)\n      dup1\n      swap2\n      sub\n      swap1\n      revert\n    tag_23:\n        /* \"Contracts/AKEB.sol\":575:596  assetDescriptionInput */\n      dup3\n        /* \"Contracts/AKEB.sol\":556:572  assetDescription */\n      0x02\n        /* \"Contracts/AKEB.sol\":556:596  assetDescription = assetDescriptionInput */\n      swap1\n      dup1\n      mload\n      swap1\n      0x20\n      add\n      swap1\n      tag_27\n      swap3\n      swap2\n      swap1\n      tag_28\n      jump\t// in\n    tag_27:\n      pop\n        /* \"Contracts/AKEB.sol\":620:636  minBidPriceInput */\n      dup2\n        /* \"Contracts/AKEB.sol\":606:617  minBidPrice */\n      0x03\n        /* \"Contracts/AKEB.sol\":606:636  minBidPrice = minBidPriceInput */\n      dup2\n      swap1\n      sstore\n      pop\n        /* \"Contracts/AKEB.sol\":667:690  minNumberOfBiddersInput */\n      dup1\n        /* \"Contracts/AKEB.sol\":646:664  minNumberOfBidders */\n      0x04\n        /* \"Contracts/AKEB.sol\":646:690  minNumberOfBidders = minNumberOfBiddersInput */\n      dup2\n      swap1\n      sstore\n      pop\n        /* \"Contracts/AKEB.sol\":393:697  function register(string memory assetDescriptionInput, ... */\n      pop\n      pop\n      pop\n      jump\t// out\n        /* \"Contracts/AKEB.sol\":93:123  string public assetDescription */\n    tag_16:\n      0x02\n      dup1\n      sload\n      tag_29\n      swap1\n      tag_30\n      jump\t// in\n    tag_29:\n      dup1\n      0x1f\n      add\n      0x20\n      dup1\n      swap2\n      div\n      mul\n      0x20\n      add\n      mload(0x40)\n      swap1\n      dup2\n      add\n      0x40\n      mstore\n      dup1\n      swap3\n      swap2\n      swap1\n      dup2\n      dup2\n      mstore\n      0x20\n      add\n      dup3\n      dup1\n      sload\n      tag_31\n      swap1\n      tag_30\n      jump\t// in\n    tag_31:\n      dup1\n      iszero\n      tag_32\n      jumpi\n      dup1\n      0x1f\n      lt\n      tag_33\n      jumpi\n      0x0100\n      dup1\n      dup4\n      sload\n      div\n      mul\n      dup4\n      mstore\n      swap2\n      0x20\n      add\n      swap2\n      jump(tag_32)\n    tag_33:\n      dup3\n      add\n      swap2\n      swap1\n      0x00\n      mstore\n      keccak256(0x00, 0x20)\n      swap1\n    tag_34:\n      dup2\n      sload\n      dup2\n      mstore\n      swap1\n      0x01\n      add\n      swap1\n      0x20\n      add\n      dup1\n      dup4\n      gt\n      tag_34\n      jumpi\n      dup3\n      swap1\n      sub\n      0x1f\n      and\n      dup3\n      add\n      swap2\n    tag_32:\n      pop\n      pop\n      pop\n      pop\n      pop\n      dup2\n      jump\t// out\n        /* \"Contracts/AKEB.sol\":161:194  uint256 public minNumberOfBidders */\n    tag_20:\n      sload(0x04)\n      dup2\n      jump\t// out\n    tag_28:\n      dup3\n      dup1\n      sload\n      tag_35\n      swap1\n      tag_30\n      jump\t// in\n    tag_35:\n      swap1\n      0x00\n      mstore\n      keccak256(0x00, 0x20)\n      swap1\n      0x1f\n      add\n      0x20\n      swap1\n      div\n      dup2\n      add\n      swap3\n      dup3\n      tag_37\n      jumpi\n      0x00\n      dup6\n      sstore\n      jump(tag_36)\n    tag_37:\n      dup3\n      0x1f\n      lt\n      tag_38\n      jumpi\n      dup1\n      mload\n      not(0xff)\n      and\n      dup4\n      dup1\n      add\n      or\n      dup6\n      sstore\n      jump(tag_36)\n    tag_38:\n      dup3\n      dup1\n      add\n      0x01\n      add\n      dup6\n      sstore\n      dup3\n      iszero\n      tag_36\n      jumpi\n      swap2\n      dup3\n      add\n    tag_39:\n      dup3\n      dup2\n      gt\n      iszero\n      tag_40\n      jumpi\n      dup3\n      mload\n      dup3\n      sstore\n      swap2\n      0x20\n      add\n      swap2\n      swap1\n      0x01\n      add\n      swap1\n      jump(tag_39)\n    tag_40:\n    tag_36:\n      pop\n      swap1\n      pop\n      tag_41\n      swap2\n      swap1\n      tag_42\n      jump\t// in\n    tag_41:\n      pop\n      swap1\n      jump\t// out\n    tag_42:\n    tag_43:\n      dup1\n      dup3\n      gt\n      iszero\n      tag_44\n      jumpi\n      0x00\n      dup2\n      0x00\n      swap1\n      sstore\n      pop\n      0x01\n      add\n      jump(tag_43)\n    tag_44:\n      pop\n      swap1\n      jump\t// out\n        /* \"#utility.yul\":7:84   */\n    tag_45:\n        /* \"#utility.yul\":44:51   */\n      0x00\n        /* \"#utility.yul\":73:78   */\n      dup2\n        /* \"#utility.yul\":62:78   */\n      swap1\n      pop\n        /* \"#utility.yul\":7:84   */\n      swap2\n      swap1\n      pop\n      jump\t// out\n        /* \"#utility.yul\":90:208   */\n    tag_46:\n        /* \"#utility.yul\":177:201   */\n      tag_72\n        /* \"#utility.yul\":195:200   */\n      dup2\n        /* \"#utility.yul\":177:201   */\n      tag_45\n      jump\t// in\n    tag_72:\n        /* \"#utility.yul\":172:175   */\n      dup3\n        /* \"#utility.yul\":165:202   */\n      mstore\n        /* \"#utility.yul\":90:208   */\n      pop\n      pop\n      jump\t// out\n        /* \"#utility.yul\":214:436   */\n    tag_10:\n        /* \"#utility.yul\":307:311   */\n      0x00\n        /* \"#utility.yul\":345:347   */\n      0x20\n        /* \"#utility.yul\":334:343   */\n      dup3\n        /* \"#utility.yul\":330:348   */\n      add\n        /* \"#utility.yul\":322:348   */\n      swap1\n      pop\n        /* \"#utility.yul\":358:429   */\n      tag_74\n        /* \"#utility.yul\":426:427   */\n      0x00\n        /* \"#utility.yul\":415:424   */\n      dup4\n        /* \"#utility.yul\":411:428   */\n      add\n        /* \"#utility.yul\":402:408   */\n      dup5\n        /* \"#utility.yul\":358:429   */\n      tag_46\n      jump\t// in\n    tag_74:\n        /* \"#utility.yul\":214:436   */\n      swap3\n      swap2\n      pop\n      pop\n      jump\t// out\n        /* \"#utility.yul\":442:517   */\n    tag_47:\n        /* \"#utility.yul\":475:481   */\n      0x00\n        /* \"#utility.yul\":508:510   */\n      0x40\n        /* \"#utility.yul\":502:511   */\n      mload\n        /* \"#utility.yul\":492:511   */\n      swap1\n      pop\n        /* \"#utility.yul\":442:517   */\n      swap1\n      jump\t// out\n        /* \"#utility.yul\":523:640   */\n    tag_48:\n        /* \"#utility.yul\":632:633   */\n      0x00\n        /* \"#utility.yul\":629:630   */\n      dup1\n        /* \"#utility.yul\":622:634   */\n      revert\n        /* \"#utility.yul\":646:763   */\n    tag_49:\n        /* \"#utility.yul\":755:756   */\n      0x00\n        /* \"#utility.yul\":752:753   */\n      dup1\n        /* \"#utility.yul\":745:757   */\n      revert\n        /* \"#utility.yul\":769:886   */\n    tag_50:\n        /* \"#utility.yul\":878:879   */\n      0x00\n        /* \"#utility.yul\":875:876   */\n      dup1\n        /* \"#utility.yul\":868:880   */\n      revert\n        /* \"#utility.yul\":892:1009   */\n    tag_51:\n        /* \"#utility.yul\":1001:1002   */\n      0x00\n        /* \"#utility.yul\":998:999   */\n      dup1\n        /* \"#utility.yul\":991:1003   */\n      revert\n        /* \"#utility.yul\":1015:1117   */\n    tag_52:\n        /* \"#utility.yul\":1056:1062   */\n      0x00\n        /* \"#utility.yul\":1107:1109   */\n      0x1f\n        /* \"#utility.yul\":1103:1110   */\n      not\n        /* \"#utility.yul\":1098:1100   */\n      0x1f\n        /* \"#utility.yul\":1091:1096   */\n      dup4\n        /* \"#utility.yul\":1087:1101   */\n      add\n        /* \"#utility.yul\":1083:1111   */\n      and\n        /* \"#utility.yul\":1073:1111   */\n      swap1\n      pop\n        /* \"#utility.yul\":1015:1117   */\n      swap2\n      swap1\n      pop\n      jump\t// out\n        /* \"#utility.yul\":1123:1303   */\n    tag_53:\n        /* \"#utility.yul\":1171:1248   */\n      0x4e487b7100000000000000000000000000000000000000000000000000000000\n        /* \"#utility.yul\":1168:1169   */\n      0x00\n        /* \"#utility.yul\":1161:1249   */\n      mstore\n        /* \"#utility.yul\":1268:1272   */\n      0x41\n        /* \"#utility.yul\":1265:1266   */\n      0x04\n        /* \"#utility.yul\":1258:1273   */\n      mstore\n        /* \"#utility.yul\":1292:1296   */\n      0x24\n        /* \"#utility.yul\":1289:1290   */\n      0x00\n        /* \"#utility.yul\":1282:1297   */\n      revert\n        /* \"#utility.yul\":1309:1590   */\n    tag_54:\n        /* \"#utility.yul\":1392:1419   */\n      tag_83\n        /* \"#utility.yul\":1414:1418   */\n      dup3\n        /* \"#utility.yul\":1392:1419   */\n      tag_52\n      jump\t// in\n    tag_83:\n        /* \"#utility.yul\":1384:1390   */\n      dup2\n        /* \"#utility.yul\":1380:1420   */\n      add\n        /* \"#utility.yul\":1522:1528   */\n      dup2\n        /* \"#utility.yul\":1510:1520   */\n      dup2\n        /* \"#utility.yul\":1507:1529   */\n      lt\n        /* \"#utility.yul\":1486:1504   */\n      0xffffffffffffffff\n        /* \"#utility.yul\":1474:1484   */\n      dup3\n        /* \"#utility.yul\":1471:1505   */\n      gt\n        /* \"#utility.yul\":1468:1530   */\n      or\n        /* \"#utility.yul\":1465:1553   */\n      iszero\n      tag_84\n      jumpi\n        /* \"#utility.yul\":1533:1551   */\n      tag_85\n      tag_53\n      jump\t// in\n    tag_85:\n        /* \"#utility.yul\":1465:1553   */\n    tag_84:\n        /* \"#utility.yul\":1573:1583   */\n      dup1\n        /* \"#utility.yul\":1569:1571   */\n      0x40\n        /* \"#utility.yul\":1562:1584   */\n      mstore\n        /* \"#utility.yul\":1352:1590   */\n      pop\n        /* \"#utility.yul\":1309:1590   */\n      pop\n      pop\n      jump\t// out\n        /* \"#utility.yul\":1596:1725   */\n    tag_55:\n        /* \"#utility.yul\":1630:1636   */\n      0x00\n        /* \"#utility.yul\":1657:1677   */\n      tag_87\n      tag_47\n      jump\t// in\n    tag_87:\n        /* \"#utility.yul\":1647:1677   */\n      swap1\n      pop\n        /* \"#utility.yul\":1686:1719   */\n      tag_88\n        /* \"#utility.yul\":1714:1718   */\n      dup3\n        /* \"#utility.yul\":1706:1712   */\n      dup3\n        /* \"#utility.yul\":1686:1719   */\n      tag_54\n      jump\t// in\n    tag_88:\n        /* \"#utility.yul\":1596:1725   */\n      swap2\n      swap1\n      pop\n      jump\t// out\n        /* \"#utility.yul\":1731:2039   */\n    tag_56:\n        /* \"#utility.yul\":1793:1797   */\n      0x00\n        /* \"#utility.yul\":1883:1901   */\n      0xffffffffffffffff\n        /* \"#utility.yul\":1875:1881   */\n      dup3\n        /* \"#utility.yul\":1872:1902   */\n      gt\n        /* \"#utility.yul\":1869:1925   */\n      iszero\n      tag_90\n      jumpi\n        /* \"#utility.yul\":1905:1923   */\n      tag_91\n      tag_53\n      jump\t// in\n    tag_91:\n        /* \"#utility.yul\":1869:1925   */\n    tag_90:\n        /* \"#utility.yul\":1943:1972   */\n      tag_92\n        /* \"#utility.yul\":1965:1971   */\n      dup3\n        /* \"#utility.yul\":1943:1972   */\n      tag_52\n      jump\t// in\n    tag_92:\n        /* \"#utility.yul\":1935:1972   */\n      swap1\n      pop\n        /* \"#utility.yul\":2027:2031   */\n      0x20\n        /* \"#utility.yul\":2021:2025   */\n      dup2\n        /* \"#utility.yul\":2017:2032   */\n      add\n        /* \"#utility.yul\":2009:2032   */\n      swap1\n      pop\n        /* \"#utility.yul\":1731:2039   */\n      swap2\n      swap1\n      pop\n      jump\t// out\n        /* \"#utility.yul\":2045:2199   */\n    tag_57:\n        /* \"#utility.yul\":2129:2135   */\n      dup3\n        /* \"#utility.yul\":2124:2127   */\n      dup2\n        /* \"#utility.yul\":2119:2122   */\n      dup4\n        /* \"#utility.yul\":2106:2136   */\n      calldatacopy\n        /* \"#utility.yul\":2191:2192   */\n      0x00\n        /* \"#utility.yul\":2182:2188   */\n      dup4\n        /* \"#utility.yul\":2177:2180   */\n      dup4\n        /* \"#utility.yul\":2173:2189   */\n      add\n        /* \"#utility.yul\":2166:2193   */\n      mstore\n        /* \"#utility.yul\":2045:2199   */\n      pop\n      pop\n      pop\n      jump\t// out\n        /* \"#utility.yul\":2205:2617   */\n    tag_58:\n        /* \"#utility.yul\":2283:2288   */\n      0x00\n        /* \"#utility.yul\":2308:2374   */\n      tag_95\n        /* \"#utility.yul\":2324:2373   */\n      tag_96\n        /* \"#utility.yul\":2366:2372   */\n      dup5\n        /* \"#utility.yul\":2324:2373   */\n      tag_56\n      jump\t// in\n    tag_96:\n        /* \"#utility.yul\":2308:2374   */\n      tag_55\n      jump\t// in\n    tag_95:\n        /* \"#utility.yul\":2299:2374   */\n      swap1\n      pop\n        /* \"#utility.yul\":2397:2403   */\n      dup3\n        /* \"#utility.yul\":2390:2395   */\n      dup2\n        /* \"#utility.yul\":2383:2404   */\n      mstore\n        /* \"#utility.yul\":2435:2439   */\n      0x20\n        /* \"#utility.yul\":2428:2433   */\n      dup2\n        /* \"#utility.yul\":2424:2440   */\n      add\n        /* \"#utility.yul\":2473:2476   */\n      dup5\n        /* \"#utility.yul\":2464:2470   */\n      dup5\n        /* \"#utility.yul\":2459:2462   */\n      dup5\n        /* \"#utility.yul\":2455:2471   */\n      add\n        /* \"#utility.yul\":2452:2477   */\n      gt\n        /* \"#utility.yul\":2449:2561   */\n      iszero\n      tag_97\n      jumpi\n        /* \"#utility.yul\":2480:2559   */\n      tag_98\n      tag_51\n      jump\t// in\n    tag_98:\n        /* \"#utility.yul\":2449:2561   */\n    tag_97:\n        /* \"#utility.yul\":2570:2611   */\n      tag_99\n        /* \"#utility.yul\":2604:2610   */\n      dup5\n        /* \"#utility.yul\":2599:2602   */\n      dup3\n        /* \"#utility.yul\":2594:2597   */\n      dup6\n        /* \"#utility.yul\":2570:2611   */\n      tag_57\n      jump\t// in\n    tag_99:\n        /* \"#utility.yul\":2289:2617   */\n      pop\n        /* \"#utility.yul\":2205:2617   */\n      swap4\n      swap3\n      pop\n      pop\n      pop\n      jump\t// out\n        /* \"#utility.yul\":2637:2977   */\n    tag_59:\n        /* \"#utility.yul\":2693:2698   */\n      0x00\n        /* \"#utility.yul\":2742:2745   */\n      dup3\n        /* \"#utility.yul\":2735:2739   */\n      0x1f\n        /* \"#utility.yul\":2727:2733   */\n      dup4\n        /* \"#utility.yul\":2723:2740   */\n      add\n        /* \"#utility.yul\":2719:2746   */\n      slt\n        /* \"#utility.yul\":2709:2831   */\n      tag_101\n      jumpi\n        /* \"#utility.yul\":2750:2829   */\n      tag_102\n      tag_50\n      jump\t// in\n    tag_102:\n        /* \"#utility.yul\":2709:2831   */\n    tag_101:\n        /* \"#utility.yul\":2867:2873   */\n      dup2\n        /* \"#utility.yul\":2854:2874   */\n      calldataload\n        /* \"#utility.yul\":2892:2971   */\n      tag_103\n        /* \"#utility.yul\":2967:2970   */\n      dup5\n        /* \"#utility.yul\":2959:2965   */\n      dup3\n        /* \"#utility.yul\":2952:2956   */\n      0x20\n        /* \"#utility.yul\":2944:2950   */\n      dup7\n        /* \"#utility.yul\":2940:2957   */\n      add\n        /* \"#utility.yul\":2892:2971   */\n      tag_58\n      jump\t// in\n    tag_103:\n        /* \"#utility.yul\":2883:2971   */\n      swap2\n      pop\n        /* \"#utility.yul\":2699:2977   */\n      pop\n        /* \"#utility.yul\":2637:2977   */\n      swap3\n      swap2\n      pop\n      pop\n      jump\t// out\n        /* \"#utility.yul\":2983:3105   */\n    tag_60:\n        /* \"#utility.yul\":3056:3080   */\n      tag_105\n        /* \"#utility.yul\":3074:3079   */\n      dup2\n        /* \"#utility.yul\":3056:3080   */\n      tag_45\n      jump\t// in\n    tag_105:\n        /* \"#utility.yul\":3049:3054   */\n      dup2\n        /* \"#utility.yul\":3046:3081   */\n      eq\n        /* \"#utility.yul\":3036:3099   */\n      tag_106\n      jumpi\n        /* \"#utility.yul\":3095:3096   */\n      0x00\n        /* \"#utility.yul\":3092:3093   */\n      dup1\n        /* \"#utility.yul\":3085:3097   */\n      revert\n        /* \"#utility.yul\":3036:3099   */\n    tag_106:\n        /* \"#utility.yul\":2983:3105   */\n      pop\n      jump\t// out\n        /* \"#utility.yul\":3111:3250   */\n    tag_61:\n        /* \"#utility.yul\":3157:3162   */\n      0x00\n        /* \"#utility.yul\":3195:3201   */\n      dup2\n        /* \"#utility.yul\":3182:3202   */\n      calldataload\n        /* \"#utility.yul\":3173:3202   */\n      swap1\n      pop\n        /* \"#utility.yul\":3211:3244   */\n      tag_108\n        /* \"#utility.yul\":3238:3243   */\n      dup2\n        /* \"#utility.yul\":3211:3244   */\n      tag_60\n      jump\t// in\n    tag_108:\n        /* \"#utility.yul\":3111:3250   */\n      swap3\n      swap2\n      pop\n      pop\n      jump\t// out\n        /* \"#utility.yul\":3256:4055   */\n    tag_13:\n        /* \"#utility.yul\":3343:3349   */\n      0x00\n        /* \"#utility.yul\":3351:3357   */\n      dup1\n        /* \"#utility.yul\":3359:3365   */\n      0x00\n        /* \"#utility.yul\":3408:3410   */\n      0x60\n        /* \"#utility.yul\":3396:3405   */\n      dup5\n        /* \"#utility.yul\":3387:3394   */\n      dup7\n        /* \"#utility.yul\":3383:3406   */\n      sub\n        /* \"#utility.yul\":3379:3411   */\n      slt\n        /* \"#utility.yul\":3376:3495   */\n      iszero\n      tag_110\n      jumpi\n        /* \"#utility.yul\":3414:3493   */\n      tag_111\n      tag_48\n      jump\t// in\n    tag_111:\n        /* \"#utility.yul\":3376:3495   */\n    tag_110:\n        /* \"#utility.yul\":3562:3563   */\n      0x00\n        /* \"#utility.yul\":3551:3560   */\n      dup5\n        /* \"#utility.yul\":3547:3564   */\n      add\n        /* \"#utility.yul\":3534:3565   */\n      calldataload\n        /* \"#utility.yul\":3592:3610   */\n      0xffffffffffffffff\n        /* \"#utility.yul\":3584:3590   */\n      dup2\n        /* \"#utility.yul\":3581:3611   */\n      gt\n        /* \"#utility.yul\":3578:3695   */\n      iszero\n      tag_112\n      jumpi\n        /* \"#utility.yul\":3614:3693   */\n      tag_113\n      tag_49\n      jump\t// in\n    tag_113:\n        /* \"#utility.yul\":3578:3695   */\n    tag_112:\n        /* \"#utility.yul\":3719:3782   */\n      tag_114\n        /* \"#utility.yul\":3774:3781   */\n      dup7\n        /* \"#utility.yul\":3765:3771   */\n      dup3\n        /* \"#utility.yul\":3754:3763   */\n      dup8\n        /* \"#utility.yul\":3750:3772   */\n      add\n        /* \"#utility.yul\":3719:3782   */\n      tag_59\n      jump\t// in\n    tag_114:\n        /* \"#utility.yul\":3709:3782   */\n      swap4\n      pop\n        /* \"#utility.yul\":3505:3792   */\n      pop\n        /* \"#utility.yul\":3831:3833   */\n      0x20\n        /* \"#utility.yul\":3857:3910   */\n      tag_115\n        /* \"#utility.yul\":3902:3909   */\n      dup7\n        /* \"#utility.yul\":3893:3899   */\n      dup3\n        /* \"#utility.yul\":3882:3891   */\n      dup8\n        /* \"#utility.yul\":3878:3900   */\n      add\n        /* \"#utility.yul\":3857:3910   */\n      tag_61\n      jump\t// in\n    tag_115:\n        /* \"#utility.yul\":3847:3910   */\n      swap3\n      pop\n        /* \"#utility.yul\":3802:3920   */\n      pop\n        /* \"#utility.yul\":3959:3961   */\n      0x40\n        /* \"#utility.yul\":3985:4038   */\n      tag_116\n        /* \"#utility.yul\":4030:4037   */\n      dup7\n        /* \"#utility.yul\":4021:4027   */\n      dup3\n        /* \"#utility.yul\":4010:4019   */\n      dup8\n        /* \"#utility.yul\":4006:4028   */\n      add\n        /* \"#utility.yul\":3985:4038   */\n      tag_61\n      jump\t// in\n    tag_116:\n        /* \"#utility.yul\":3975:4038   */\n      swap2\n      pop\n        /* \"#utility.yul\":3930:4048   */\n      pop\n        /* \"#utility.yul\":3256:4055   */\n      swap3\n      pop\n      swap3\n      pop\n      swap3\n      jump\t// out\n        /* \"#utility.yul\":4061:4160   */\n    tag_62:\n        /* \"#utility.yul\":4113:4119   */\n      0x00\n        /* \"#utility.yul\":4147:4152   */\n      dup2\n        /* \"#utility.yul\":4141:4153   */\n      mload\n        /* \"#utility.yul\":4131:4153   */\n      swap1\n      pop\n        /* \"#utility.yul\":4061:4160   */\n      swap2\n      swap1\n      pop\n      jump\t// out\n        /* \"#utility.yul\":4166:4335   */\n    tag_63:\n        /* \"#utility.yul\":4250:4261   */\n      0x00\n        /* \"#utility.yul\":4284:4290   */\n      dup3\n        /* \"#utility.yul\":4279:4282   */\n      dup3\n        /* \"#utility.yul\":4272:4291   */\n      mstore\n        /* \"#utility.yul\":4324:4328   */\n      0x20\n        /* \"#utility.yul\":4319:4322   */\n      dup3\n        /* \"#utility.yul\":4315:4329   */\n      add\n        /* \"#utility.yul\":4300:4329   */\n      swap1\n      pop\n        /* \"#utility.yul\":4166:4335   */\n      swap3\n      swap2\n      pop\n      pop\n      jump\t// out\n        /* \"#utility.yul\":4341:4648   */\n    tag_64:\n        /* \"#utility.yul\":4409:4410   */\n      0x00\n        /* \"#utility.yul\":4419:4532   */\n    tag_120:\n        /* \"#utility.yul\":4433:4439   */\n      dup4\n        /* \"#utility.yul\":4430:4431   */\n      dup2\n        /* \"#utility.yul\":4427:4440   */\n      lt\n        /* \"#utility.yul\":4419:4532   */\n      iszero\n      tag_122\n      jumpi\n        /* \"#utility.yul\":4518:4519   */\n      dup1\n        /* \"#utility.yul\":4513:4516   */\n      dup3\n        /* \"#utility.yul\":4509:4520   */\n      add\n        /* \"#utility.yul\":4503:4521   */\n      mload\n        /* \"#utility.yul\":4499:4500   */\n      dup2\n        /* \"#utility.yul\":4494:4497   */\n      dup5\n        /* \"#utility.yul\":4490:4501   */\n      add\n        /* \"#utility.yul\":4483:4522   */\n      mstore\n        /* \"#utility.yul\":4455:4457   */\n      0x20\n        /* \"#utility.yul\":4452:4453   */\n      dup2\n        /* \"#utility.yul\":4448:4458   */\n      add\n        /* \"#utility.yul\":4443:4458   */\n      swap1\n      pop\n        /* \"#utility.yul\":4419:4532   */\n      jump(tag_120)\n    tag_122:\n        /* \"#utility.yul\":4550:4556   */\n      dup4\n        /* \"#utility.yul\":4547:4548   */\n      dup2\n        /* \"#utility.yul\":4544:4557   */\n      gt\n        /* \"#utility.yul\":4541:4642   */\n      iszero\n      tag_123\n      jumpi\n        /* \"#utility.yul\":4630:4631   */\n      0x00\n        /* \"#utility.yul\":4621:4627   */\n      dup5\n        /* \"#utility.yul\":4616:4619   */\n      dup5\n        /* \"#utility.yul\":4612:4628   */\n      add\n        /* \"#utility.yul\":4605:4632   */\n      mstore\n        /* \"#utility.yul\":4541:4642   */\n    tag_123:\n        /* \"#utility.yul\":4390:4648   */\n      pop\n        /* \"#utility.yul\":4341:4648   */\n      pop\n      pop\n      pop\n      jump\t// out\n        /* \"#utility.yul\":4654:5018   */\n    tag_65:\n        /* \"#utility.yul\":4742:4745   */\n      0x00\n        /* \"#utility.yul\":4770:4809   */\n      tag_125\n        /* \"#utility.yul\":4803:4808   */\n      dup3\n        /* \"#utility.yul\":4770:4809   */\n      tag_62\n      jump\t// in\n    tag_125:\n        /* \"#utility.yul\":4825:4896   */\n      tag_126\n        /* \"#utility.yul\":4889:4895   */\n      dup2\n        /* \"#utility.yul\":4884:4887   */\n      dup6\n        /* \"#utility.yul\":4825:4896   */\n      tag_63\n      jump\t// in\n    tag_126:\n        /* \"#utility.yul\":4818:4896   */\n      swap4\n      pop\n        /* \"#utility.yul\":4905:4957   */\n      tag_127\n        /* \"#utility.yul\":4950:4956   */\n      dup2\n        /* \"#utility.yul\":4945:4948   */\n      dup6\n        /* \"#utility.yul\":4938:4942   */\n      0x20\n        /* \"#utility.yul\":4931:4936   */\n      dup7\n        /* \"#utility.yul\":4927:4943   */\n      add\n        /* \"#utility.yul\":4905:4957   */\n      tag_64\n      jump\t// in\n    tag_127:\n        /* \"#utility.yul\":4982:5011   */\n      tag_128\n        /* \"#utility.yul\":5004:5010   */\n      dup2\n        /* \"#utility.yul\":4982:5011   */\n      tag_52\n      jump\t// in\n    tag_128:\n        /* \"#utility.yul\":4977:4980   */\n      dup5\n        /* \"#utility.yul\":4973:5012   */\n      add\n        /* \"#utility.yul\":4966:5012   */\n      swap2\n      pop\n        /* \"#utility.yul\":4746:5018   */\n      pop\n        /* \"#utility.yul\":4654:5018   */\n      swap3\n      swap2\n      pop\n      pop\n      jump\t// out\n        /* \"#utility.yul\":5024:5337   */\n    tag_18:\n        /* \"#utility.yul\":5137:5141   */\n      0x00\n        /* \"#utility.yul\":5175:5177   */\n      0x20\n        /* \"#utility.yul\":5164:5173   */\n      dup3\n        /* \"#utility.yul\":5160:5178   */\n      add\n        /* \"#utility.yul\":5152:5178   */\n      swap1\n      pop\n        /* \"#utility.yul\":5224:5233   */\n      dup2\n        /* \"#utility.yul\":5218:5222   */\n      dup2\n        /* \"#utility.yul\":5214:5234   */\n      sub\n        /* \"#utility.yul\":5210:5211   */\n      0x00\n        /* \"#utility.yul\":5199:5208   */\n      dup4\n        /* \"#utility.yul\":5195:5212   */\n      add\n        /* \"#utility.yul\":5188:5235   */\n      mstore\n        /* \"#utility.yul\":5252:5330   */\n      tag_130\n        /* \"#utility.yul\":5325:5329   */\n      dup2\n        /* \"#utility.yul\":5316:5322   */\n      dup5\n        /* \"#utility.yul\":5252:5330   */\n      tag_65\n      jump\t// in\n    tag_130:\n        /* \"#utility.yul\":5244:5330   */\n      swap1\n      pop\n        /* \"#utility.yul\":5024:5337   */\n      swap3\n      swap2\n      pop\n      pop\n      jump\t// out\n        /* \"#utility.yul\":5343:5569   */\n    tag_66:\n        /* \"#utility.yul\":5483:5517   */\n      0x4f6e6c792061756374696f6e6565722063616e2063616c6c2074686973206675\n        /* \"#utility.yul\":5479:5480   */\n      0x00\n        /* \"#utility.yul\":5471:5477   */\n      dup3\n        /* \"#utility.yul\":5467:5481   */\n      add\n        /* \"#utility.yul\":5460:5518   */\n      mstore\n        /* \"#utility.yul\":5552:5561   */\n      0x6e6374696f6e2e00000000000000000000000000000000000000000000000000\n        /* \"#utility.yul\":5547:5549   */\n      0x20\n        /* \"#utility.yul\":5539:5545   */\n      dup3\n        /* \"#utility.yul\":5535:5550   */\n      add\n        /* \"#utility.yul\":5528:5562   */\n      mstore\n        /* \"#utility.yul\":5343:5569   */\n      pop\n      jump\t// out\n        /* \"#utility.yul\":5575:5941   */\n    tag_67:\n        /* \"#utility.yul\":5717:5720   */\n      0x00\n        /* \"#utility.yul\":5738:5805   */\n      tag_133\n        /* \"#utility.yul\":5802:5804   */\n      0x27\n        /* \"#utility.yul\":5797:5800   */\n      dup4\n        /* \"#utility.yul\":5738:5805   */\n      tag_63\n      jump\t// in\n    tag_133:\n        /* \"#utility.yul\":5731:5805   */\n      swap2\n      pop\n        /* \"#utility.yul\":5814:5907   */\n      tag_134\n        /* \"#utility.yul\":5903:5906   */\n      dup3\n        /* \"#utility.yul\":5814:5907   */\n      tag_66\n      jump\t// in\n    tag_134:\n        /* \"#utility.yul\":5932:5934   */\n      0x40\n        /* \"#utility.yul\":5927:5930   */\n      dup3\n        /* \"#utility.yul\":5923:5935   */\n      add\n        /* \"#utility.yul\":5916:5935   */\n      swap1\n      pop\n        /* \"#utility.yul\":5575:5941   */\n      swap2\n      swap1\n      pop\n      jump\t// out\n        /* \"#utility.yul\":5947:6366   */\n    tag_25:\n        /* \"#utility.yul\":6113:6117   */\n      0x00\n        /* \"#utility.yul\":6151:6153   */\n      0x20\n        /* \"#utility.yul\":6140:6149   */\n      dup3\n        /* \"#utility.yul\":6136:6154   */\n      add\n        /* \"#utility.yul\":6128:6154   */\n      swap1\n      pop\n        /* \"#utility.yul\":6200:6209   */\n      dup2\n        /* \"#utility.yul\":6194:6198   */\n      dup2\n        /* \"#utility.yul\":6190:6210   */\n      sub\n        /* \"#utility.yul\":6186:6187   */\n      0x00\n        /* \"#utility.yul\":6175:6184   */\n      dup4\n        /* \"#utility.yul\":6171:6188   */\n      add\n        /* \"#utility.yul\":6164:6211   */\n      mstore\n        /* \"#utility.yul\":6228:6359   */\n      tag_136\n        /* \"#utility.yul\":6354:6358   */\n      dup2\n        /* \"#utility.yul\":6228:6359   */\n      tag_67\n      jump\t// in\n    tag_136:\n        /* \"#utility.yul\":6220:6359   */\n      swap1\n      pop\n        /* \"#utility.yul\":5947:6366   */\n      swap2\n      swap1\n      pop\n      jump\t// out\n        /* \"#utility.yul\":6372:6552   */\n    tag_68:\n        /* \"#utility.yul\":6420:6497   */\n      0x4e487b7100000000000000000000000000000000000000000000000000000000\n        /* \"#utility.yul\":6417:6418   */\n      0x00\n        /* \"#utility.yul\":6410:6498   */\n      mstore\n        /* \"#utility.yul\":6517:6521   */\n      0x22\n        /* \"#utility.yul\":6514:6515   */\n      0x04\n        /* \"#utility.yul\":6507:6522   */\n      mstore\n        /* \"#utility.yul\":6541:6545   */\n      0x24\n        /* \"#utility.yul\":6538:6539   */\n      0x00\n        /* \"#utility.yul\":6531:6546   */\n      revert\n        /* \"#utility.yul\":6558:6878   */\n    tag_30:\n        /* \"#utility.yul\":6602:6608   */\n      0x00\n        /* \"#utility.yul\":6639:6640   */\n      0x02\n        /* \"#utility.yul\":6633:6637   */\n      dup3\n        /* \"#utility.yul\":6629:6641   */\n      div\n        /* \"#utility.yul\":6619:6641   */\n      swap1\n      pop\n        /* \"#utility.yul\":6686:6687   */\n      0x01\n        /* \"#utility.yul\":6680:6684   */\n      dup3\n        /* \"#utility.yul\":6676:6688   */\n      and\n        /* \"#utility.yul\":6707:6725   */\n      dup1\n        /* \"#utility.yul\":6697:6778   */\n      tag_139\n      jumpi\n        /* \"#utility.yul\":6763:6767   */\n      0x7f\n        /* \"#utility.yul\":6755:6761   */\n      dup3\n        /* \"#utility.yul\":6751:6768   */\n      and\n        /* \"#utility.yul\":6741:6768   */\n      swap2\n      pop\n        /* \"#utility.yul\":6697:6778   */\n    tag_139:\n        /* \"#utility.yul\":6825:6827   */\n      0x20\n        /* \"#utility.yul\":6817:6823   */\n      dup3\n        /* \"#utility.yul\":6814:6828   */\n      lt\n        /* \"#utility.yul\":6794:6812   */\n      dup2\n        /* \"#utility.yul\":6791:6829   */\n      sub\n        /* \"#utility.yul\":6788:6872   */\n      tag_140\n      jumpi\n        /* \"#utility.yul\":6844:6862   */\n      tag_141\n      tag_68\n      jump\t// in\n    tag_141:\n        /* \"#utility.yul\":6788:6872   */\n    tag_140:\n        /* \"#utility.yul\":6609:6878   */\n      pop\n        /* \"#utility.yul\":6558:6878   */\n      swap2\n      swap1\n      pop\n      jump\t// out\n\n    auxdata: 0xa26469706673582212209dab6474d0df19561f7e97433f2d33ec0d1fff46b5b6f999e9fea29d49acb0a764736f6c634300080e0033\n}\n",
				"bytecode": {
					"linkReferences": {},
					"object": "608060405234801561001057600080fd5b50336000806101000a81548173ffffffffffffffffffffffffffffffffffffffff021916908373ffffffffffffffffffffffffffffffffffffffff1602179055506106b7806100606000396000f3fe608060405234801561001057600080fd5b506004361061004c5760003560e01c806334eb86a21461005157806390a9f8371461006f578063938626c21461008b578063daa0218f146100a9575b600080fd5b6100596100c7565b60405161006691906102d5565b60405180910390f35b61008960048036038101906100849190610476565b6100cd565b005b610093610185565b6040516100a0919061056d565b60405180910390f35b6100b1610213565b6040516100be91906102d5565b60405180910390f35b60035481565b60008054906101000a900473ffffffffffffffffffffffffffffffffffffffff1673ffffffffffffffffffffffffffffffffffffffff163373ffffffffffffffffffffffffffffffffffffffff161461015b576040517f08c379a000000000000000000000000000000000000000000000000000000000815260040161015290610601565b60405180910390fd5b8260029080519060200190610171929190610219565b508160038190555080600481905550505050565b6002805461019290610650565b80601f01602080910402602001604051908101604052809291908181526020018280546101be90610650565b801561020b5780601f106101e05761010080835404028352916020019161020b565b820191906000526020600020905b8154815290600101906020018083116101ee57829003601f168201915b505050505081565b60045481565b82805461022590610650565b90600052602060002090601f016020900481019282610247576000855561028e565b82601f1061026057805160ff191683800117855561028e565b8280016001018555821561028e579182015b8281111561028d578251825591602001919060010190610272565b5b50905061029b919061029f565b5090565b5b808211156102b85760008160009055506001016102a0565b5090565b6000819050919050565b6102cf816102bc565b82525050565b60006020820190506102ea60008301846102c6565b92915050565b6000604051905090565b600080fd5b600080fd5b600080fd5b600080fd5b6000601f19601f8301169050919050565b7f4e487b7100000000000000000000000000000000000000000000000000000000600052604160045260246000fd5b6103578261030e565b810181811067ffffffffffffffff821117156103765761037561031f565b5b80604052505050565b60006103896102f0565b9050610395828261034e565b919050565b600067ffffffffffffffff8211156103b5576103b461031f565b5b6103be8261030e565b9050602081019050919050565b82818337600083830152505050565b60006103ed6103e88461039a565b61037f565b90508281526020810184848401111561040957610408610309565b5b6104148482856103cb565b509392505050565b600082601f83011261043157610430610304565b5b81356104418482602086016103da565b91505092915050565b610453816102bc565b811461045e57600080fd5b50565b6000813590506104708161044a565b92915050565b60008060006060848603121561048f5761048e6102fa565b5b600084013567ffffffffffffffff8111156104ad576104ac6102ff565b5b6104b98682870161041c565b93505060206104ca86828701610461565b92505060406104db86828701610461565b9150509250925092565b600081519050919050565b600082825260208201905092915050565b60005b8381101561051f578082015181840152602081019050610504565b8381111561052e576000848401525b50505050565b600061053f826104e5565b61054981856104f0565b9350610559818560208601610501565b6105628161030e565b840191505092915050565b600060208201905081810360008301526105878184610534565b905092915050565b7f4f6e6c792061756374696f6e6565722063616e2063616c6c207468697320667560008201527f6e6374696f6e2e00000000000000000000000000000000000000000000000000602082015250565b60006105eb6027836104f0565b91506105f68261058f565b604082019050919050565b6000602082019050818103600083015261061a816105de565b9050919050565b7f4e487b7100000000000000000000000000000000000000000000000000000000600052602260045260246000fd5b6000600282049050600182168061066857607f821691505b60208210810361067b5761067a610621565b5b5091905056fea26469706673582212209dab6474d0df19561f7e97433f2d33ec0d1fff46b5b6f999e9fea29d49acb0a764736f6c634300080e0033",
					"opcodes": "PUSH1 0x80 PUSH1 0x40 MSTORE CALLVALUE DUP1 ISZERO PUSH2 0x10 JUMPI PUSH1 0x0 DUP1 REVERT JUMPDEST POP CALLER PUSH1 0x0 DUP1 PUSH2 0x100 EXP DUP2 SLOAD DUP2 PUSH20 0xFFFFFFFFFFFFFFFFFFFFFFFFFFFFFFFFFFFFFFFF MUL NOT AND SWAP1 DUP4 PUSH20 0xFFFFFFFFFFFFFFFFFFFFFFFFFFFFFFFFFFFFFFFF AND MUL OR SWAP1 SSTORE POP PUSH2 0x6B7 DUP1 PUSH2 0x60 PUSH1 0x0 CODECOPY PUSH1 0x0 RETURN INVALID PUSH1 0x80 PUSH1 0x40 MSTORE CALLVALUE DUP1 ISZERO PUSH2 0x10 JUMPI PUSH1 0x0 DUP1 REVERT JUMPDEST POP PUSH1 0x4 CALLDATASIZE LT PUSH2 0x4C JUMPI PUSH1 0x0 CALLDATALOAD PUSH1 0xE0 SHR DUP1 PUSH4 0x34EB86A2 EQ PUSH2 0x51 JUMPI DUP1 PUSH4 0x90A9F837 EQ PUSH2 0x6F JUMPI DUP1 PUSH4 0x938626C2 EQ PUSH2 0x8B JUMPI DUP1 PUSH4 0xDAA0218F EQ PUSH2 0xA9 JUMPI JUMPDEST PUSH1 0x0 DUP1 REVERT JUMPDEST PUSH2 0x59 PUSH2 0xC7 JUMP JUMPDEST PUSH1 0x40 MLOAD PUSH2 0x66 SWAP2 SWAP1 PUSH2 0x2D5 JUMP JUMPDEST PUSH1 0x40 MLOAD DUP1 SWAP2 SUB SWAP1 RETURN JUMPDEST PUSH2 0x89 PUSH1 0x4 DUP1 CALLDATASIZE SUB DUP2 ADD SWAP1 PUSH2 0x84 SWAP2 SWAP1 PUSH2 0x476 JUMP JUMPDEST PUSH2 0xCD JUMP JUMPDEST STOP JUMPDEST PUSH2 0x93 PUSH2 0x185 JUMP JUMPDEST PUSH1 0x40 MLOAD PUSH2 0xA0 SWAP2 SWAP1 PUSH2 0x56D JUMP JUMPDEST PUSH1 0x40 MLOAD DUP1 SWAP2 SUB SWAP1 RETURN JUMPDEST PUSH2 0xB1 PUSH2 0x213 JUMP JUMPDEST PUSH1 0x40 MLOAD PUSH2 0xBE SWAP2 SWAP1 PUSH2 0x2D5 JUMP JUMPDEST PUSH1 0x40 MLOAD DUP1 SWAP2 SUB SWAP1 RETURN JUMPDEST PUSH1 0x3 SLOAD DUP2 JUMP JUMPDEST PUSH1 0x0 DUP1 SLOAD SWAP1 PUSH2 0x100 EXP SWAP1 DIV PUSH20 0xFFFFFFFFFFFFFFFFFFFFFFFFFFFFFFFFFFFFFFFF AND PUSH20 0xFFFFFFFFFFFFFFFFFFFFFFFFFFFFFFFFFFFFFFFF AND CALLER PUSH20 0xFFFFFFFFFFFFFFFFFFFFFFFFFFFFFFFFFFFFFFFF AND EQ PUSH2 0x15B JUMPI PUSH1 0x40 MLOAD PUSH32 0x8C379A000000000000000000000000000000000000000000000000000000000 DUP2 MSTORE PUSH1 0x4 ADD PUSH2 0x152 SWAP1 PUSH2 0x601 JUMP JUMPDEST PUSH1 0x40 MLOAD DUP1 SWAP2 SUB SWAP1 REVERT JUMPDEST DUP3 PUSH1 0x2 SWAP1 DUP1 MLOAD SWAP1 PUSH1 0x20 ADD SWAP1 PUSH2 0x171 SWAP3 SWAP2 SWAP1 PUSH2 0x219 JUMP JUMPDEST POP DUP2 PUSH1 0x3 DUP2 SWAP1 SSTORE POP DUP1 PUSH1 0x4 DUP2 SWAP1 SSTORE POP POP POP POP JUMP JUMPDEST PUSH1 0x2 DUP1 SLOAD PUSH2 0x192 SWAP1 PUSH2 0x650 JUMP JUMPDEST DUP1 PUSH1 0x1F ADD PUSH1 0x20 DUP1 SWAP2 DIV MUL PUSH1 0x20 ADD PUSH1 0x40 MLOAD SWAP1 DUP2 ADD PUSH1 0x40 MSTORE DUP1 SWAP3 SWAP2 SWAP1 DUP2 DUP2 MSTORE PUSH1 0x20 ADD DUP3 DUP1 SLOAD PUSH2 0x1BE SWAP1 PUSH2 0x650 JUMP JUMPDEST DUP1 ISZERO PUSH2 0x20B JUMPI DUP1 PUSH1 0x1F LT PUSH2 0x1E0 JUMPI PUSH2 0x100 DUP1 DUP4 SLOAD DIV MUL DUP4 MSTORE SWAP2 PUSH1 0x20 ADD SWAP2 PUSH2 0x20B JUMP JUMPDEST DUP3 ADD SWAP2 SWAP1 PUSH1 0x0 MSTORE PUSH1 0x20 PUSH1 0x0 KECCAK256 SWAP1 JUMPDEST DUP2 SLOAD DUP2 MSTORE SWAP1 PUSH1 0x1 ADD SWAP1 PUSH1 0x20 ADD DUP1 DUP4 GT PUSH2 0x1EE JUMPI DUP3 SWAP1 SUB PUSH1 0x1F AND DUP3 ADD SWAP2 JUMPDEST POP POP POP POP POP DUP2 JUMP JUMPDEST PUSH1 0x4 SLOAD DUP2 JUMP JUMPDEST DUP3 DUP1 SLOAD PUSH2 0x225 SWAP1 PUSH2 0x650 JUMP JUMPDEST SWAP1 PUSH1 0x0 MSTORE PUSH1 0x20 PUSH1 0x0 KECCAK256 SWAP1 PUSH1 0x1F ADD PUSH1 0x20 SWAP1 DIV DUP2 ADD SWAP3 DUP3 PUSH2 0x247 JUMPI PUSH1 0x0 DUP6 SSTORE PUSH2 0x28E JUMP JUMPDEST DUP3 PUSH1 0x1F LT PUSH2 0x260 JUMPI DUP1 MLOAD PUSH1 0xFF NOT AND DUP4 DUP1 ADD OR DUP6 SSTORE PUSH2 0x28E JUMP JUMPDEST DUP3 DUP1 ADD PUSH1 0x1 ADD DUP6 SSTORE DUP3 ISZERO PUSH2 0x28E JUMPI SWAP2 DUP3 ADD JUMPDEST DUP3 DUP2 GT ISZERO PUSH2 0x28D JUMPI DUP3 MLOAD DUP3 SSTORE SWAP2 PUSH1 0x20 ADD SWAP2 SWAP1 PUSH1 0x1 ADD SWAP1 PUSH2 0x272 JUMP JUMPDEST JUMPDEST POP SWAP1 POP PUSH2 0x29B SWAP2 SWAP1 PUSH2 0x29F JUMP JUMPDEST POP SWAP1 JUMP JUMPDEST JUMPDEST DUP1 DUP3 GT ISZERO PUSH2 0x2B8 JUMPI PUSH1 0x0 DUP2 PUSH1 0x0 SWAP1 SSTORE POP PUSH1 0x1 ADD PUSH2 0x2A0 JUMP JUMPDEST POP SWAP1 JUMP JUMPDEST PUSH1 0x0 DUP2 SWAP1 POP SWAP2 SWAP1 POP JUMP JUMPDEST PUSH2 0x2CF DUP2 PUSH2 0x2BC JUMP JUMPDEST DUP3 MSTORE POP POP JUMP JUMPDEST PUSH1 0x0 PUSH1 0x20 DUP3 ADD SWAP1 POP PUSH2 0x2EA PUSH1 0x0 DUP4 ADD DUP5 PUSH2 0x2C6 JUMP JUMPDEST SWAP3 SWAP2 POP POP JUMP JUMPDEST PUSH1 0x0 PUSH1 0x40 MLOAD SWAP1 POP SWAP1 JUMP JUMPDEST PUSH1 0x0 DUP1 REVERT JUMPDEST PUSH1 0x0 DUP1 REVERT JUMPDEST PUSH1 0x0 DUP1 REVERT JUMPDEST PUSH1 0x0 DUP1 REVERT JUMPDEST PUSH1 0x0 PUSH1 0x1F NOT PUSH1 0x1F DUP4 ADD AND SWAP1 POP SWAP2 SWAP1 POP JUMP JUMPDEST PUSH32 0x4E487B7100000000000000000000000000000000000000000000000000000000 PUSH1 0x0 MSTORE PUSH1 0x41 PUSH1 0x4 MSTORE PUSH1 0x24 PUSH1 0x0 REVERT JUMPDEST PUSH2 0x357 DUP3 PUSH2 0x30E JUMP JUMPDEST DUP2 ADD DUP2 DUP2 LT PUSH8 0xFFFFFFFFFFFFFFFF DUP3 GT OR ISZERO PUSH2 0x376 JUMPI PUSH2 0x375 PUSH2 0x31F JUMP JUMPDEST JUMPDEST DUP1 PUSH1 0x40 MSTORE POP POP POP JUMP JUMPDEST PUSH1 0x0 PUSH2 0x389 PUSH2 0x2F0 JUMP JUMPDEST SWAP1 POP PUSH2 0x395 DUP3 DUP3 PUSH2 0x34E JUMP JUMPDEST SWAP2 SWAP1 POP JUMP JUMPDEST PUSH1 0x0 PUSH8 0xFFFFFFFFFFFFFFFF DUP3 GT ISZERO PUSH2 0x3B5 JUMPI PUSH2 0x3B4 PUSH2 0x31F JUMP JUMPDEST JUMPDEST PUSH2 0x3BE DUP3 PUSH2 0x30E JUMP JUMPDEST SWAP1 POP PUSH1 0x20 DUP2 ADD SWAP1 POP SWAP2 SWAP1 POP JUMP JUMPDEST DUP3 DUP2 DUP4 CALLDATACOPY PUSH1 0x0 DUP4 DUP4 ADD MSTORE POP POP POP JUMP JUMPDEST PUSH1 0x0 PUSH2 0x3ED PUSH2 0x3E8 DUP5 PUSH2 0x39A JUMP JUMPDEST PUSH2 0x37F JUMP JUMPDEST SWAP1 POP DUP3 DUP2 MSTORE PUSH1 0x20 DUP2 ADD DUP5 DUP5 DUP5 ADD GT ISZERO PUSH2 0x409 JUMPI PUSH2 0x408 PUSH2 0x309 JUMP JUMPDEST JUMPDEST PUSH2 0x414 DUP5 DUP3 DUP6 PUSH2 0x3CB JUMP JUMPDEST POP SWAP4 SWAP3 POP POP POP JUMP JUMPDEST PUSH1 0x0 DUP3 PUSH1 0x1F DUP4 ADD SLT PUSH2 0x431 JUMPI PUSH2 0x430 PUSH2 0x304 JUMP JUMPDEST JUMPDEST DUP2 CALLDATALOAD PUSH2 0x441 DUP5 DUP3 PUSH1 0x20 DUP7 ADD PUSH2 0x3DA JUMP JUMPDEST SWAP2 POP POP SWAP3 SWAP2 POP POP JUMP JUMPDEST PUSH2 0x453 DUP2 PUSH2 0x2BC JUMP JUMPDEST DUP2 EQ PUSH2 0x45E JUMPI PUSH1 0x0 DUP1 REVERT JUMPDEST POP JUMP JUMPDEST PUSH1 0x0 DUP2 CALLDATALOAD SWAP1 POP PUSH2 0x470 DUP2 PUSH2 0x44A JUMP JUMPDEST SWAP3 SWAP2 POP POP JUMP JUMPDEST PUSH1 0x0 DUP1 PUSH1 0x0 PUSH1 0x60 DUP5 DUP7 SUB SLT ISZERO PUSH2 0x48F JUMPI PUSH2 0x48E PUSH2 0x2FA JUMP JUMPDEST JUMPDEST PUSH1 0x0 DUP5 ADD CALLDATALOAD PUSH8 0xFFFFFFFFFFFFFFFF DUP2 GT ISZERO PUSH2 0x4AD JUMPI PUSH2 0x4AC PUSH2 0x2FF JUMP JUMPDEST JUMPDEST PUSH2 0x4B9 DUP7 DUP3 DUP8 ADD PUSH2 0x41C JUMP JUMPDEST SWAP4 POP POP PUSH1 0x20 PUSH2 0x4CA DUP7 DUP3 DUP8 ADD PUSH2 0x461 JUMP JUMPDEST SWAP3 POP POP PUSH1 0x40 PUSH2 0x4DB DUP7 DUP3 DUP8 ADD PUSH2 0x461 JUMP JUMPDEST SWAP2 POP POP SWAP3 POP SWAP3 POP SWAP3 JUMP JUMPDEST PUSH1 0x0 DUP2 MLOAD SWAP1 POP SWAP2 SWAP1 POP JUMP JUMPDEST PUSH1 0x0 DUP3 DUP3 MSTORE PUSH1 0x20 DUP3 ADD SWAP1 POP SWAP3 SWAP2 POP POP JUMP JUMPDEST PUSH1 0x0 JUMPDEST DUP4 DUP2 LT ISZERO PUSH2 0x51F JUMPI DUP1 DUP3 ADD MLOAD DUP2 DUP5 ADD MSTORE PUSH1 0x20 DUP2 ADD SWAP1 POP PUSH2 0x504 JUMP JUMPDEST DUP4 DUP2 GT ISZERO PUSH2 0x52E JUMPI PUSH1 0x0 DUP5 DUP5 ADD MSTORE JUMPDEST POP POP POP POP JUMP JUMPDEST PUSH1 0x0 PUSH2 0x53F DUP3 PUSH2 0x4E5 JUMP JUMPDEST PUSH2 0x549 DUP2 DUP6 PUSH2 0x4F0 JUMP JUMPDEST SWAP4 POP PUSH2 0x559 DUP2 DUP6 PUSH1 0x20 DUP7 ADD PUSH2 0x501 JUMP JUMPDEST PUSH2 0x562 DUP2 PUSH2 0x30E JUMP JUMPDEST DUP5 ADD SWAP2 POP POP SWAP3 SWAP2 POP POP JUMP JUMPDEST PUSH1 0x0 PUSH1 0x20 DUP3 ADD SWAP1 POP DUP2 DUP2 SUB PUSH1 0x0 DUP4 ADD MSTORE PUSH2 0x587 DUP2 DUP5 PUSH2 0x534 JUMP JUMPDEST SWAP1 POP SWAP3 SWAP2 POP POP JUMP JUMPDEST PUSH32 0x4F6E6C792061756374696F6E6565722063616E2063616C6C2074686973206675 PUSH1 0x0 DUP3 ADD MSTORE PUSH32 0x6E6374696F6E2E00000000000000000000000000000000000000000000000000 PUSH1 0x20 DUP3 ADD MSTORE POP JUMP JUMPDEST PUSH1 0x0 PUSH2 0x5EB PUSH1 0x27 DUP4 PUSH2 0x4F0 JUMP JUMPDEST SWAP2 POP PUSH2 0x5F6 DUP3 PUSH2 0x58F JUMP JUMPDEST PUSH1 0x40 DUP3 ADD SWAP1 POP SWAP2 SWAP1 POP JUMP JUMPDEST PUSH1 0x0 PUSH1 0x20 DUP3 ADD SWAP1 POP DUP2 DUP2 SUB PUSH1 0x0 DUP4 ADD MSTORE PUSH2 0x61A DUP2 PUSH2 0x5DE JUMP JUMPDEST SWAP1 POP SWAP2 SWAP1 POP JUMP JUMPDEST PUSH32 0x4E487B7100000000000000000000000000000000000000000000000000000000 PUSH1 0x0 MSTORE PUSH1 0x22 PUSH1 0x4 MSTORE PUSH1 0x24 PUSH1 0x0 REVERT JUMPDEST PUSH1 0x0 PUSH1 0x2 DUP3 DIV SWAP1 POP PUSH1 0x1 DUP3 AND DUP1 PUSH2 0x668 JUMPI PUSH1 0x7F DUP3 AND SWAP2 POP JUMPDEST PUSH1 0x20 DUP3 LT DUP2 SUB PUSH2 0x67B JUMPI PUSH2 0x67A PUSH2 0x621 JUMP JUMPDEST JUMPDEST POP SWAP2 SWAP1 POP JUMP INVALID LOG2 PUSH5 0x6970667358 0x22 SLT KECCAK256 SWAP14 0xAB PUSH5 0x74D0DF1956 0x1F PUSH31 0x97433F2D33EC0D1FFF46B5B6F999E9FEA29D49ACB0A764736F6C634300080E STOP CALLER "
				},
				"gasEstimates": {
					"creation": {
						"codeDepositCost": "343800",
						"executionCost": "24646",
						"totalCost": "368446"
					},
					"external": {
						"assetDescription()": "infinite",
						"minBidPrice()": "2407",
						"minNumberOfBidders()": "2473",
						"register(string,uint256,uint256)": "infinite"
					}
				},
				"methodIdentifiers": {
					"assetDescription()": "938626c2",
					"minBidPrice()": "34eb86a2",
					"minNumberOfBidders()": "daa0218f",
					"register(string,uint256,uint256)": "90a9f837"
				}
			},
			"storageLayout": {
				"storage": [
					{
						"astId": 3,
						"contract": "Contracts/AKEB.sol:AKEB",
						"label": "auctioneer",
						"offset": 0,
						"slot": "0",
						"type": "t_address"
					},
					{
						"astId": 6,
						"contract": "Contracts/AKEB.sol:AKEB",
						"label": "bidders",
						"offset": 0,
						"slot": "1",
						"type": "t_array(t_address)dyn_storage"
					},
					{
						"astId": 8,
						"contract": "Contracts/AKEB.sol:AKEB",
						"label": "assetDescription",
						"offset": 0,
						"slot": "2",
						"type": "t_string_storage"
					},
					{
						"astId": 10,
						"contract": "Contracts/AKEB.sol:AKEB",
						"label": "minBidPrice",
						"offset": 0,
						"slot": "3",
						"type": "t_uint256"
					},
					{
						"astId": 12,
						"contract": "Contracts/AKEB.sol:AKEB",
						"label": "minNumberOfBidders",
						"offset": 0,
						"slot": "4",
						"type": "t_uint256"
					}
				],
				"types": {
					"t_address": {
						"encoding": "inplace",
						"label": "address",
						"numberOfBytes": "20"
					},
					"t_array(t_address)dyn_storage": {
						"base": "t_address",
						"encoding": "dynamic_array",
						"label": "address[]",
						"numberOfBytes": "32"
					},
					"t_string_storage": {
						"encoding": "bytes",
						"label": "string",
						"numberOfBytes": "32"
					},
					"t_uint256": {
						"encoding": "inplace",
						"label": "uint256",
						"numberOfBytes": "32"
					}
				}
			},
			"userdoc": {
				"kind": "user",
				"methods": {},
				"version": 1
			}
		}
	}
}