{
	"Contracts/AKEB.sol": {
		"AKEB": {
			"abi": [
				{
					"inputs": [],
					"stateMutability": "nonpayable",
					"type": "constructor"
				},
				{
					"inputs": [],
					"name": "assetDescription",
					"outputs": [
						{
							"internalType": "string",
							"name": "",
							"type": "string"
						}
					],
					"stateMutability": "view",
					"type": "function"
				},
				{
					"inputs": [],
					"name": "assetName",
					"outputs": [
						{
							"internalType": "string",
							"name": "",
							"type": "string"
						}
					],
					"stateMutability": "view",
					"type": "function"
				},
				{
					"inputs": [],
					"name": "auctioneer",
					"outputs": [
						{
							"internalType": "address",
							"name": "",
							"type": "address"
						}
					],
					"stateMutability": "view",
					"type": "function"
				},
				{
					"inputs": [
						{
							"internalType": "uint256",
							"name": "",
							"type": "uint256"
						}
					],
					"name": "bidders",
					"outputs": [
						{
							"internalType": "address",
							"name": "",
							"type": "address"
						}
					],
					"stateMutability": "view",
					"type": "function"
				},
				{
					"inputs": [
						{
							"internalType": "uint256",
							"name": "inputDisputedBid",
							"type": "uint256"
						},
						{
							"internalType": "string",
							"name": "inputDisputedNonce",
							"type": "string"
						}
					],
					"name": "dispute",
					"outputs": [],
					"stateMutability": "nonpayable",
					"type": "function"
				},
				{
					"inputs": [
						{
							"internalType": "uint256",
							"name": "",
							"type": "uint256"
						}
					],
					"name": "disputedBidders",
					"outputs": [
						{
							"internalType": "uint256",
							"name": "bid",
							"type": "uint256"
						},
						{
							"internalType": "address",
							"name": "disputeAddress",
							"type": "address"
						},
						{
							"internalType": "string",
							"name": "nonce",
							"type": "string"
						}
					],
					"stateMutability": "view",
					"type": "function"
				},
				{
					"inputs": [
						{
							"internalType": "address",
							"name": "",
							"type": "address"
						}
					],
					"name": "encodedBids",
					"outputs": [
						{
							"internalType": "bytes32",
							"name": "",
							"type": "bytes32"
						}
					],
					"stateMutability": "view",
					"type": "function"
				},
				{
					"inputs": [
						{
							"internalType": "string",
							"name": "assetNameInput",
							"type": "string"
						},
						{
							"internalType": "string",
							"name": "assetDescriptionInput",
							"type": "string"
						}
					],
					"name": "registerAuctionInfo",
					"outputs": [],
					"stateMutability": "nonpayable",
					"type": "function"
				},
				{
					"inputs": [],
					"name": "registerBidder",
					"outputs": [],
					"stateMutability": "nonpayable",
					"type": "function"
				},
				{
					"inputs": [],
					"name": "reset",
					"outputs": [],
					"stateMutability": "nonpayable",
					"type": "function"
				},
				{
					"inputs": [],
					"name": "resetEncodedBids",
					"outputs": [],
					"stateMutability": "nonpayable",
					"type": "function"
				},
				{
					"inputs": [],
					"name": "seller",
					"outputs": [
						{
							"internalType": "address",
							"name": "",
							"type": "address"
						}
					],
					"stateMutability": "view",
					"type": "function"
				},
				{
					"inputs": [
						{
							"internalType": "bytes32",
							"name": "inputEncodedBid",
							"type": "bytes32"
						}
					],
					"name": "submitEncodedBid",
					"outputs": [],
					"stateMutability": "nonpayable",
					"type": "function"
				},
				{
					"inputs": [
						{
							"internalType": "uint256",
							"name": "inputWinnerBid",
							"type": "uint256"
						},
						{
							"internalType": "string",
							"name": "inputwinnerNonce",
							"type": "string"
						}
					],
					"name": "submitWinner",
					"outputs": [],
					"stateMutability": "nonpayable",
					"type": "function"
				},
				{
					"inputs": [
						{
							"internalType": "uint256",
							"name": "",
							"type": "uint256"
						}
					],
					"name": "winners",
					"outputs": [
						{
							"internalType": "address",
							"name": "winnerAddress",
							"type": "address"
						},
						{
							"internalType": "uint256",
							"name": "bid",
							"type": "uint256"
						},
						{
							"internalType": "string",
							"name": "nonce",
							"type": "string"
						}
					],
					"stateMutability": "view",
					"type": "function"
				}
			],
			"devdoc": {
				"kind": "dev",
				"methods": {},
				"version": 1
			},
			"evm": {
				"assembly": "    /* \"Contracts/AKEB.sol\":111:7048  contract AKEB {... */\n  mstore(0x40, 0x80)\n    /* \"Contracts/AKEB.sol\":492:493  1 */\n  0x01\n    /* \"Contracts/AKEB.sol\":474:493  uint periodTime = 1 */\n  0x07\n  sstore\n    /* \"Contracts/AKEB.sol\":523:528  false */\n  0x00\n    /* \"Contracts/AKEB.sol\":499:528  bool isAuctionStarted = false */\n  0x08\n  exp(0x0100, 0x00)\n  dup2\n  sload\n  dup2\n  0xff\n  mul\n  not\n  and\n  swap1\n  dup4\n  iszero\n  iszero\n  mul\n  or\n  swap1\n  sstore\n  pop\n    /* \"Contracts/AKEB.sol\":1076:1129  constructor(){... */\n  callvalue\n  dup1\n  iszero\n  tag_1\n  jumpi\n  0x00\n  dup1\n  revert\ntag_1:\n  pop\n    /* \"Contracts/AKEB.sol\":1112:1122  msg.sender */\n  caller\n    /* \"Contracts/AKEB.sol\":1099:1109  auctioneer */\n  0x01\n  0x00\n    /* \"Contracts/AKEB.sol\":1099:1122  auctioneer = msg.sender */\n  0x0100\n  exp\n  dup2\n  sload\n  dup2\n  0xffffffffffffffffffffffffffffffffffffffff\n  mul\n  not\n  and\n  swap1\n  dup4\n  0xffffffffffffffffffffffffffffffffffffffff\n  and\n  mul\n  or\n  swap1\n  sstore\n  pop\n    /* \"Contracts/AKEB.sol\":111:7048  contract AKEB {... */\n  dataSize(sub_0)\n  dup1\n  dataOffset(sub_0)\n  0x00\n  codecopy\n  0x00\n  return\nstop\n\nsub_0: assembly {\n        /* \"Contracts/AKEB.sol\":111:7048  contract AKEB {... */\n      mstore(0x40, 0x80)\n      callvalue\n      dup1\n      iszero\n      tag_1\n      jumpi\n      0x00\n      dup1\n      revert\n    tag_1:\n      pop\n      jumpi(tag_2, lt(calldatasize, 0x04))\n      shr(0xe0, calldataload(0x00))\n      dup1\n      0x938626c2\n      gt\n      tag_18\n      jumpi\n      dup1\n      0xcff29dfd\n      gt\n      tag_19\n      jumpi\n      dup1\n      0xcff29dfd\n      eq\n      tag_14\n      jumpi\n      dup1\n      0xd826f88f\n      eq\n      tag_15\n      jumpi\n      dup1\n      0xec5d0ab2\n      eq\n      tag_16\n      jumpi\n      dup1\n      0xf356733c\n      eq\n      tag_17\n      jumpi\n      jump(tag_2)\n    tag_19:\n      dup1\n      0x938626c2\n      eq\n      tag_10\n      jumpi\n      dup1\n      0xa2ebc656\n      eq\n      tag_11\n      jumpi\n      dup1\n      0xa2fb1175\n      eq\n      tag_12\n      jumpi\n      dup1\n      0xc9230c5d\n      eq\n      tag_13\n      jumpi\n      jump(tag_2)\n    tag_18:\n      dup1\n      0x40bd5937\n      gt\n      tag_20\n      jumpi\n      dup1\n      0x40bd5937\n      eq\n      tag_6\n      jumpi\n      dup1\n      0x5ec2c7bf\n      eq\n      tag_7\n      jumpi\n      dup1\n      0x66c85dee\n      eq\n      tag_8\n      jumpi\n      dup1\n      0x8f772f96\n      eq\n      tag_9\n      jumpi\n      jump(tag_2)\n    tag_20:\n      dup1\n      0x08551a53\n      eq\n      tag_3\n      jumpi\n      dup1\n      0x1744e03b\n      eq\n      tag_4\n      jumpi\n      dup1\n      0x3817df4c\n      eq\n      tag_5\n      jumpi\n    tag_2:\n      0x00\n      dup1\n      revert\n        /* \"Contracts/AKEB.sol\":184:205  address public seller */\n    tag_3:\n      tag_21\n      tag_22\n      jump\t// in\n    tag_21:\n      mload(0x40)\n      tag_23\n      swap2\n      swap1\n      tag_24\n      jump\t// in\n    tag_23:\n      mload(0x40)\n      dup1\n      swap2\n      sub\n      swap1\n      return\n        /* \"Contracts/AKEB.sol\":3584:4160  function submitWinner(uint256 inputWinnerBid, ... */\n    tag_4:\n      tag_25\n      0x04\n      dup1\n      calldatasize\n      sub\n      dup2\n      add\n      swap1\n      tag_26\n      swap2\n      swap1\n      tag_27\n      jump\t// in\n    tag_26:\n      tag_28\n      jump\t// in\n    tag_25:\n      stop\n        /* \"Contracts/AKEB.sol\":610:656  mapping(address => bytes32) public encodedBids */\n    tag_5:\n      tag_29\n      0x04\n      dup1\n      calldatasize\n      sub\n      dup2\n      add\n      swap1\n      tag_30\n      swap2\n      swap1\n      tag_31\n      jump\t// in\n    tag_30:\n      tag_32\n      jump\t// in\n    tag_29:\n      mload(0x40)\n      tag_33\n      swap2\n      swap1\n      tag_34\n      jump\t// in\n    tag_33:\n      mload(0x40)\n      dup1\n      swap2\n      sub\n      swap1\n      return\n        /* \"Contracts/AKEB.sol\":5825:6157  function resetEncodedBids()... */\n    tag_6:\n      tag_35\n      tag_36\n      jump\t// in\n    tag_35:\n      stop\n        /* \"Contracts/AKEB.sol\":211:236  address public auctioneer */\n    tag_7:\n      tag_37\n      tag_38\n      jump\t// in\n    tag_37:\n      mload(0x40)\n      tag_39\n      swap2\n      swap1\n      tag_24\n      jump\t// in\n    tag_39:\n      mload(0x40)\n      dup1\n      swap2\n      sub\n      swap1\n      return\n        /* \"Contracts/AKEB.sol\":4230:5315  function dispute(uint256 inputDisputedBid, ... */\n    tag_8:\n      tag_40\n      0x04\n      dup1\n      calldatasize\n      sub\n      dup2\n      add\n      swap1\n      tag_41\n      swap2\n      swap1\n      tag_27\n      jump\t// in\n    tag_41:\n      tag_42\n      jump\t// in\n    tag_40:\n      stop\n        /* \"Contracts/AKEB.sol\":1029:1069  DisputedBidders[] public disputedBidders */\n    tag_9:\n      tag_43\n      0x04\n      dup1\n      calldatasize\n      sub\n      dup2\n      add\n      swap1\n      tag_44\n      swap2\n      swap1\n      tag_45\n      jump\t// in\n    tag_44:\n      tag_46\n      jump\t// in\n    tag_43:\n      mload(0x40)\n      tag_47\n      swap4\n      swap3\n      swap2\n      swap1\n      tag_48\n      jump\t// in\n    tag_47:\n      mload(0x40)\n      dup1\n      swap2\n      sub\n      swap1\n      return\n        /* \"Contracts/AKEB.sol\":267:297  string public assetDescription */\n    tag_10:\n      tag_49\n      tag_50\n      jump\t// in\n    tag_49:\n      mload(0x40)\n      tag_51\n      swap2\n      swap1\n      tag_52\n      jump\t// in\n    tag_51:\n      mload(0x40)\n      dup1\n      swap2\n      sub\n      swap1\n      return\n        /* \"Contracts/AKEB.sol\":2295:2601  function registerAuctionInfo(string memory assetNameInput, ... */\n    tag_11:\n      tag_53\n      0x04\n      dup1\n      calldatasize\n      sub\n      dup2\n      add\n      swap1\n      tag_54\n      swap2\n      swap1\n      tag_55\n      jump\t// in\n    tag_54:\n      tag_56\n      jump\t// in\n    tag_53:\n      stop\n        /* \"Contracts/AKEB.sol\":857:880  winner[] public winners */\n    tag_12:\n      tag_57\n      0x04\n      dup1\n      calldatasize\n      sub\n      dup2\n      add\n      swap1\n      tag_58\n      swap2\n      swap1\n      tag_45\n      jump\t// in\n    tag_58:\n      tag_59\n      jump\t// in\n    tag_57:\n      mload(0x40)\n      tag_60\n      swap4\n      swap3\n      swap2\n      swap1\n      tag_61\n      jump\t// in\n    tag_60:\n      mload(0x40)\n      dup1\n      swap2\n      sub\n      swap1\n      return\n        /* \"Contracts/AKEB.sol\":303:326  string public assetName */\n    tag_13:\n      tag_62\n      tag_63\n      jump\t// in\n    tag_62:\n      mload(0x40)\n      tag_64\n      swap2\n      swap1\n      tag_52\n      jump\t// in\n    tag_64:\n      mload(0x40)\n      dup1\n      swap2\n      sub\n      swap1\n      return\n        /* \"Contracts/AKEB.sol\":558:582  address[] public bidders */\n    tag_14:\n      tag_65\n      0x04\n      dup1\n      calldatasize\n      sub\n      dup2\n      add\n      swap1\n      tag_66\n      swap2\n      swap1\n      tag_45\n      jump\t// in\n    tag_66:\n      tag_67\n      jump\t// in\n    tag_65:\n      mload(0x40)\n      tag_68\n      swap2\n      swap1\n      tag_24\n      jump\t// in\n    tag_68:\n      mload(0x40)\n      dup1\n      swap2\n      sub\n      swap1\n      return\n        /* \"Contracts/AKEB.sol\":5399:5761  function reset() ... */\n    tag_15:\n      tag_69\n      tag_70\n      jump\t// in\n    tag_69:\n      stop\n        /* \"Contracts/AKEB.sol\":3036:3518  function submitEncodedBid(bytes32 inputEncodedBid) ... */\n    tag_16:\n      tag_71\n      0x04\n      dup1\n      calldatasize\n      sub\n      dup2\n      add\n      swap1\n      tag_72\n      swap2\n      swap1\n      tag_73\n      jump\t// in\n    tag_72:\n      tag_74\n      jump\t// in\n    tag_71:\n      stop\n        /* \"Contracts/AKEB.sol\":2660:2951  function registerBidder() ... */\n    tag_17:\n      tag_75\n      tag_76\n      jump\t// in\n    tag_75:\n      stop\n        /* \"Contracts/AKEB.sol\":184:205  address public seller */\n    tag_22:\n      0x00\n      dup1\n      sload\n      swap1\n      0x0100\n      exp\n      swap1\n      div\n      0xffffffffffffffffffffffffffffffffffffffff\n      and\n      dup2\n      jump\t// out\n        /* \"Contracts/AKEB.sol\":3584:4160  function submitWinner(uint256 inputWinnerBid, ... */\n    tag_28:\n        /* \"Contracts/AKEB.sol\":1226:1230  true */\n      0x01\n        /* \"Contracts/AKEB.sol\":1206:1230  isAuctionStarted == true */\n      iszero\n      iszero\n        /* \"Contracts/AKEB.sol\":1206:1222  isAuctionStarted */\n      0x08\n      0x00\n      swap1\n      sload\n      swap1\n      0x0100\n      exp\n      swap1\n      div\n      0xff\n      and\n        /* \"Contracts/AKEB.sol\":1206:1230  isAuctionStarted == true */\n      iszero\n      iszero\n      eq\n        /* \"Contracts/AKEB.sol\":1198:1266  require(isAuctionStarted == true, \"There is no started auction now\") */\n      tag_78\n      jumpi\n      mload(0x40)\n      0x08c379a000000000000000000000000000000000000000000000000000000000\n      dup2\n      mstore\n      0x04\n      add\n      tag_79\n      swap1\n      tag_80\n      jump\t// in\n    tag_79:\n      mload(0x40)\n      dup1\n      swap2\n      sub\n      swap1\n      revert\n    tag_78:\n        /* \"Contracts/AKEB.sol\":1568:1572  true */\n      0x01\n        /* \"Contracts/AKEB.sol\":1554:1572  isBidder() == true */\n      iszero\n      iszero\n        /* \"Contracts/AKEB.sol\":1554:1564  isBidder() */\n      tag_82\n        /* \"Contracts/AKEB.sol\":1554:1562  isBidder */\n      tag_83\n        /* \"Contracts/AKEB.sol\":1554:1564  isBidder() */\n      jump\t// in\n    tag_82:\n        /* \"Contracts/AKEB.sol\":1554:1572  isBidder() == true */\n      iszero\n      iszero\n      eq\n        /* \"Contracts/AKEB.sol\":1546:1621  require(isBidder() == true, \"Only registerd bidder can call this function\") */\n      tag_84\n      jumpi\n      mload(0x40)\n      0x08c379a000000000000000000000000000000000000000000000000000000000\n      dup2\n      mstore\n      0x04\n      add\n      tag_85\n      swap1\n      tag_86\n      jump\t// in\n    tag_85:\n      mload(0x40)\n      dup1\n      swap2\n      sub\n      swap1\n      revert\n    tag_84:\n        /* \"Contracts/AKEB.sol\":4051:4069  winner memory temp */\n      0x00\n        /* \"Contracts/AKEB.sol\":4072:4124  winner(msg.sender, inputWinnerBid, inputwinnerNonce) */\n      mload(0x40)\n      dup1\n      0x60\n      add\n      0x40\n      mstore\n      dup1\n        /* \"Contracts/AKEB.sol\":4079:4089  msg.sender */\n      caller\n        /* \"Contracts/AKEB.sol\":4072:4124  winner(msg.sender, inputWinnerBid, inputwinnerNonce) */\n      0xffffffffffffffffffffffffffffffffffffffff\n      and\n      dup2\n      mstore\n      0x20\n      add\n        /* \"Contracts/AKEB.sol\":4091:4105  inputWinnerBid */\n      dup5\n        /* \"Contracts/AKEB.sol\":4072:4124  winner(msg.sender, inputWinnerBid, inputwinnerNonce) */\n      dup2\n      mstore\n      0x20\n      add\n        /* \"Contracts/AKEB.sol\":4107:4123  inputwinnerNonce */\n      dup4\n        /* \"Contracts/AKEB.sol\":4072:4124  winner(msg.sender, inputWinnerBid, inputwinnerNonce) */\n      dup2\n      mstore\n      pop\n        /* \"Contracts/AKEB.sol\":4051:4124  winner memory temp = winner(msg.sender, inputWinnerBid, inputwinnerNonce) */\n      swap1\n      pop\n        /* \"Contracts/AKEB.sol\":4135:4142  winners */\n      0x0b\n        /* \"Contracts/AKEB.sol\":4148:4152  temp */\n      dup2\n        /* \"Contracts/AKEB.sol\":4135:4153  winners.push(temp) */\n      swap1\n      dup1\n      0x01\n      dup2\n      sload\n      add\n      dup1\n      dup3\n      sstore\n      dup1\n      swap2\n      pop\n      pop\n      0x01\n      swap1\n      sub\n      swap1\n      0x00\n      mstore\n      keccak256(0x00, 0x20)\n      swap1\n      0x03\n      mul\n      add\n      0x00\n      swap1\n      swap2\n      swap1\n      swap2\n      swap1\n      swap2\n      pop\n      0x00\n      dup3\n      add\n      mload\n      dup2\n      0x00\n      add\n      exp(0x0100, 0x00)\n      dup2\n      sload\n      dup2\n      0xffffffffffffffffffffffffffffffffffffffff\n      mul\n      not\n      and\n      swap1\n      dup4\n      0xffffffffffffffffffffffffffffffffffffffff\n      and\n      mul\n      or\n      swap1\n      sstore\n      pop\n      0x20\n      dup3\n      add\n      mload\n      dup2\n      0x01\n      add\n      sstore\n      0x40\n      dup3\n      add\n      mload\n      dup2\n      0x02\n      add\n      swap1\n      dup2\n      tag_89\n      swap2\n      swap1\n      tag_90\n      jump\t// in\n    tag_89:\n      pop\n      pop\n      pop\n        /* \"Contracts/AKEB.sol\":3725:4160  {... */\n      pop\n        /* \"Contracts/AKEB.sol\":3584:4160  function submitWinner(uint256 inputWinnerBid, ... */\n      pop\n      pop\n      jump\t// out\n        /* \"Contracts/AKEB.sol\":610:656  mapping(address => bytes32) public encodedBids */\n    tag_32:\n      mstore(0x20, 0x0a)\n      dup1\n      0x00\n      mstore\n      keccak256(0x00, 0x40)\n      0x00\n      swap2\n      pop\n      swap1\n      pop\n      sload\n      dup2\n      jump\t// out\n        /* \"Contracts/AKEB.sol\":5825:6157  function resetEncodedBids()... */\n    tag_36:\n        /* \"Contracts/AKEB.sol\":1693:1703  auctioneer */\n      0x01\n      0x00\n      swap1\n      sload\n      swap1\n      0x0100\n      exp\n      swap1\n      div\n      0xffffffffffffffffffffffffffffffffffffffff\n      and\n        /* \"Contracts/AKEB.sol\":1679:1703  msg.sender == auctioneer */\n      0xffffffffffffffffffffffffffffffffffffffff\n      and\n        /* \"Contracts/AKEB.sol\":1679:1689  msg.sender */\n      caller\n        /* \"Contracts/AKEB.sol\":1679:1703  msg.sender == auctioneer */\n      0xffffffffffffffffffffffffffffffffffffffff\n      and\n      eq\n        /* \"Contracts/AKEB.sol\":1671:1746  require(msg.sender == auctioneer, \"Only auctioneer can call this function\") */\n      tag_92\n      jumpi\n      mload(0x40)\n      0x08c379a000000000000000000000000000000000000000000000000000000000\n      dup2\n      mstore\n      0x04\n      add\n      tag_93\n      swap1\n      tag_94\n      jump\t// in\n    tag_93:\n      mload(0x40)\n      dup1\n      swap2\n      sub\n      swap1\n      revert\n    tag_92:\n        /* \"Contracts/AKEB.sol\":5922:5954  winnerAndDisputeSubmissionPeriod */\n      sload(0x06)\n        /* \"Contracts/AKEB.sol\":5904:5919  block.timestamp */\n      timestamp\n        /* \"Contracts/AKEB.sol\":5904:5954  block.timestamp > winnerAndDisputeSubmissionPeriod */\n      gt\n        /* \"Contracts/AKEB.sol\":5896:5988  require(block.timestamp > winnerAndDisputeSubmissionPeriod, \"Auction is not completed yet.\") */\n      tag_96\n      jumpi\n      mload(0x40)\n      0x08c379a000000000000000000000000000000000000000000000000000000000\n      dup2\n      mstore\n      0x04\n      add\n      tag_97\n      swap1\n      tag_98\n      jump\t// in\n    tag_97:\n      mload(0x40)\n      dup1\n      swap2\n      sub\n      swap1\n      revert\n    tag_96:\n        /* \"Contracts/AKEB.sol\":6003:6012  uint256 i */\n      0x00\n        /* \"Contracts/AKEB.sol\":5998:6151  for (uint256 i = 0 ; i < bidders.length; i +=1){... */\n    tag_99:\n        /* \"Contracts/AKEB.sol\":6023:6030  bidders */\n      0x09\n        /* \"Contracts/AKEB.sol\":6023:6037  bidders.length */\n      dup1\n      sload\n      swap1\n      pop\n        /* \"Contracts/AKEB.sol\":6019:6020  i */\n      dup2\n        /* \"Contracts/AKEB.sol\":6019:6037  i < bidders.length */\n      lt\n        /* \"Contracts/AKEB.sol\":5998:6151  for (uint256 i = 0 ; i < bidders.length; i +=1){... */\n      iszero\n      tag_100\n      jumpi\n        /* \"Contracts/AKEB.sol\":6059:6080  address bidderAddress */\n      0x00\n        /* \"Contracts/AKEB.sol\":6083:6090  bidders */\n      0x09\n        /* \"Contracts/AKEB.sol\":6091:6092  i */\n      dup3\n        /* \"Contracts/AKEB.sol\":6083:6093  bidders[i] */\n      dup2\n      sload\n      dup2\n      lt\n      tag_102\n      jumpi\n      tag_103\n      tag_104\n      jump\t// in\n    tag_103:\n    tag_102:\n      swap1\n      0x00\n      mstore\n      keccak256(0x00, 0x20)\n      add\n      0x00\n      swap1\n      sload\n      swap1\n      0x0100\n      exp\n      swap1\n      div\n      0xffffffffffffffffffffffffffffffffffffffff\n      and\n        /* \"Contracts/AKEB.sol\":6059:6093  address bidderAddress = bidders[i] */\n      swap1\n      pop\n        /* \"Contracts/AKEB.sol\":6114:6125  encodedBids */\n      0x0a\n        /* \"Contracts/AKEB.sol\":6114:6140  encodedBids[bidderAddress] */\n      0x00\n        /* \"Contracts/AKEB.sol\":6126:6139  bidderAddress */\n      dup3\n        /* \"Contracts/AKEB.sol\":6114:6140  encodedBids[bidderAddress] */\n      0xffffffffffffffffffffffffffffffffffffffff\n      and\n      0xffffffffffffffffffffffffffffffffffffffff\n      and\n      dup2\n      mstore\n      0x20\n      add\n      swap1\n      dup2\n      mstore\n      0x20\n      add\n      0x00\n      keccak256\n        /* \"Contracts/AKEB.sol\":6107:6140  delete encodedBids[bidderAddress] */\n      0x00\n      swap1\n      sstore\n        /* \"Contracts/AKEB.sol\":6045:6151  {... */\n      pop\n        /* \"Contracts/AKEB.sol\":6043:6044  1 */\n      0x01\n        /* \"Contracts/AKEB.sol\":6039:6044  i +=1 */\n      dup2\n      tag_106\n      swap2\n      swap1\n      tag_107\n      jump\t// in\n    tag_106:\n      swap1\n      pop\n        /* \"Contracts/AKEB.sol\":5998:6151  for (uint256 i = 0 ; i < bidders.length; i +=1){... */\n      jump(tag_99)\n    tag_100:\n      pop\n        /* \"Contracts/AKEB.sol\":5825:6157  function resetEncodedBids()... */\n      jump\t// out\n        /* \"Contracts/AKEB.sol\":211:236  address public auctioneer */\n    tag_38:\n      0x01\n      0x00\n      swap1\n      sload\n      swap1\n      0x0100\n      exp\n      swap1\n      div\n      0xffffffffffffffffffffffffffffffffffffffff\n      and\n      dup2\n      jump\t// out\n        /* \"Contracts/AKEB.sol\":4230:5315  function dispute(uint256 inputDisputedBid, ... */\n    tag_42:\n        /* \"Contracts/AKEB.sol\":1226:1230  true */\n      0x01\n        /* \"Contracts/AKEB.sol\":1206:1230  isAuctionStarted == true */\n      iszero\n      iszero\n        /* \"Contracts/AKEB.sol\":1206:1222  isAuctionStarted */\n      0x08\n      0x00\n      swap1\n      sload\n      swap1\n      0x0100\n      exp\n      swap1\n      div\n      0xff\n      and\n        /* \"Contracts/AKEB.sol\":1206:1230  isAuctionStarted == true */\n      iszero\n      iszero\n      eq\n        /* \"Contracts/AKEB.sol\":1198:1266  require(isAuctionStarted == true, \"There is no started auction now\") */\n      tag_109\n      jumpi\n      mload(0x40)\n      0x08c379a000000000000000000000000000000000000000000000000000000000\n      dup2\n      mstore\n      0x04\n      add\n      tag_110\n      swap1\n      tag_80\n      jump\t// in\n    tag_110:\n      mload(0x40)\n      dup1\n      swap2\n      sub\n      swap1\n      revert\n    tag_109:\n        /* \"Contracts/AKEB.sol\":1568:1572  true */\n      0x01\n        /* \"Contracts/AKEB.sol\":1554:1572  isBidder() == true */\n      iszero\n      iszero\n        /* \"Contracts/AKEB.sol\":1554:1564  isBidder() */\n      tag_112\n        /* \"Contracts/AKEB.sol\":1554:1562  isBidder */\n      tag_83\n        /* \"Contracts/AKEB.sol\":1554:1564  isBidder() */\n      jump\t// in\n    tag_112:\n        /* \"Contracts/AKEB.sol\":1554:1572  isBidder() == true */\n      iszero\n      iszero\n      eq\n        /* \"Contracts/AKEB.sol\":1546:1621  require(isBidder() == true, \"Only registerd bidder can call this function\") */\n      tag_113\n      jumpi\n      mload(0x40)\n      0x08c379a000000000000000000000000000000000000000000000000000000000\n      dup2\n      mstore\n      0x04\n      add\n      tag_114\n      swap1\n      tag_86\n      jump\t// in\n    tag_114:\n      mload(0x40)\n      dup1\n      swap2\n      sub\n      swap1\n      revert\n    tag_113:\n        /* \"Contracts/AKEB.sol\":4677:4697  bytes32 disputerHash */\n      0x00\n        /* \"Contracts/AKEB.sol\":4700:4749  computeHash(inputDisputedBid, inputDisputedNonce) */\n      tag_116\n        /* \"Contracts/AKEB.sol\":4712:4728  inputDisputedBid */\n      dup4\n        /* \"Contracts/AKEB.sol\":4730:4748  inputDisputedNonce */\n      dup4\n        /* \"Contracts/AKEB.sol\":4700:4711  computeHash */\n      tag_117\n        /* \"Contracts/AKEB.sol\":4700:4749  computeHash(inputDisputedBid, inputDisputedNonce) */\n      jump\t// in\n    tag_116:\n        /* \"Contracts/AKEB.sol\":4677:4749  bytes32 disputerHash = computeHash(inputDisputedBid, inputDisputedNonce) */\n      swap1\n      pop\n        /* \"Contracts/AKEB.sol\":4795:4807  disputerHash */\n      dup1\n        /* \"Contracts/AKEB.sol\":4768:4779  encodedBids */\n      0x0a\n        /* \"Contracts/AKEB.sol\":4768:4791  encodedBids[msg.sender] */\n      0x00\n        /* \"Contracts/AKEB.sol\":4780:4790  msg.sender */\n      caller\n        /* \"Contracts/AKEB.sol\":4768:4791  encodedBids[msg.sender] */\n      0xffffffffffffffffffffffffffffffffffffffff\n      and\n      0xffffffffffffffffffffffffffffffffffffffff\n      and\n      dup2\n      mstore\n      0x20\n      add\n      swap1\n      dup2\n      mstore\n      0x20\n      add\n      0x00\n      keccak256\n      sload\n        /* \"Contracts/AKEB.sol\":4768:4807  encodedBids[msg.sender] == disputerHash */\n      eq\n        /* \"Contracts/AKEB.sol\":4760:4858  require(encodedBids[msg.sender] == disputerHash, \"The bid and nonce you submitted are not valid.\") */\n      tag_118\n      jumpi\n      mload(0x40)\n      0x08c379a000000000000000000000000000000000000000000000000000000000\n      dup2\n      mstore\n      0x04\n      add\n      tag_119\n      swap1\n      tag_120\n      jump\t// in\n    tag_119:\n      mload(0x40)\n      dup1\n      swap2\n      sub\n      swap1\n      revert\n    tag_118:\n        /* \"Contracts/AKEB.sol\":4932:4936  true */\n      0x01\n        /* \"Contracts/AKEB.sol\":4876:4936  isDiputeBidGreaterThanOneWinnerBid(inputDisputedBid) == true */\n      iszero\n      iszero\n        /* \"Contracts/AKEB.sol\":4876:4928  isDiputeBidGreaterThanOneWinnerBid(inputDisputedBid) */\n      tag_121\n        /* \"Contracts/AKEB.sol\":4911:4927  inputDisputedBid */\n      dup5\n        /* \"Contracts/AKEB.sol\":4876:4910  isDiputeBidGreaterThanOneWinnerBid */\n      tag_122\n        /* \"Contracts/AKEB.sol\":4876:4928  isDiputeBidGreaterThanOneWinnerBid(inputDisputedBid) */\n      jump\t// in\n    tag_121:\n        /* \"Contracts/AKEB.sol\":4876:4936  isDiputeBidGreaterThanOneWinnerBid(inputDisputedBid) == true */\n      iszero\n      iszero\n      eq\n        /* \"Contracts/AKEB.sol\":4868:5016  require(isDiputeBidGreaterThanOneWinnerBid(inputDisputedBid) == true, \"Your dispute is not valid since it is not greater than at least one winner.\") */\n      tag_123\n      jumpi\n      mload(0x40)\n      0x08c379a000000000000000000000000000000000000000000000000000000000\n      dup2\n      mstore\n      0x04\n      add\n      tag_124\n      swap1\n      tag_125\n      jump\t// in\n    tag_124:\n      mload(0x40)\n      dup1\n      swap2\n      sub\n      swap1\n      revert\n    tag_123:\n        /* \"Contracts/AKEB.sol\":5027:5041  clearWinners() */\n      tag_126\n        /* \"Contracts/AKEB.sol\":5027:5039  clearWinners */\n      tag_127\n        /* \"Contracts/AKEB.sol\":5027:5041  clearWinners() */\n      jump\t// in\n    tag_126:\n        /* \"Contracts/AKEB.sol\":5052:5099  addWinner(inputDisputedBid, inputDisputedNonce) */\n      tag_128\n        /* \"Contracts/AKEB.sol\":5062:5078  inputDisputedBid */\n      dup4\n        /* \"Contracts/AKEB.sol\":5080:5098  inputDisputedNonce */\n      dup4\n        /* \"Contracts/AKEB.sol\":5052:5061  addWinner */\n      tag_129\n        /* \"Contracts/AKEB.sol\":5052:5099  addWinner(inputDisputedBid, inputDisputedNonce) */\n      jump\t// in\n    tag_128:\n        /* \"Contracts/AKEB.sol\":5110:5147  DisputedBidders memory disputedBidder */\n      0x00\n        /* \"Contracts/AKEB.sol\":5150:5261  DisputedBidders(... */\n      mload(0x40)\n      dup1\n      0x60\n      add\n      0x40\n      mstore\n      dup1\n        /* \"Contracts/AKEB.sol\":5179:5195  inputDisputedBid */\n      dup6\n        /* \"Contracts/AKEB.sol\":5150:5261  DisputedBidders(... */\n      dup2\n      mstore\n      0x20\n      add\n        /* \"Contracts/AKEB.sol\":5209:5219  msg.sender */\n      caller\n        /* \"Contracts/AKEB.sol\":5150:5261  DisputedBidders(... */\n      0xffffffffffffffffffffffffffffffffffffffff\n      and\n      dup2\n      mstore\n      0x20\n      add\n        /* \"Contracts/AKEB.sol\":5233:5251  inputDisputedNonce */\n      dup5\n        /* \"Contracts/AKEB.sol\":5150:5261  DisputedBidders(... */\n      dup2\n      mstore\n      pop\n        /* \"Contracts/AKEB.sol\":5110:5261  DisputedBidders memory disputedBidder = DisputedBidders(... */\n      swap1\n      pop\n        /* \"Contracts/AKEB.sol\":5272:5287  disputedBidders */\n      0x0c\n        /* \"Contracts/AKEB.sol\":5293:5307  disputedBidder */\n      dup2\n        /* \"Contracts/AKEB.sol\":5272:5308  disputedBidders.push(disputedBidder) */\n      swap1\n      dup1\n      0x01\n      dup2\n      sload\n      add\n      dup1\n      dup3\n      sstore\n      dup1\n      swap2\n      pop\n      pop\n      0x01\n      swap1\n      sub\n      swap1\n      0x00\n      mstore\n      keccak256(0x00, 0x20)\n      swap1\n      0x03\n      mul\n      add\n      0x00\n      swap1\n      swap2\n      swap1\n      swap2\n      swap1\n      swap2\n      pop\n      0x00\n      dup3\n      add\n      mload\n      dup2\n      0x00\n      add\n      sstore\n      0x20\n      dup3\n      add\n      mload\n      dup2\n      0x01\n      add\n      exp(0x0100, 0x00)\n      dup2\n      sload\n      dup2\n      0xffffffffffffffffffffffffffffffffffffffff\n      mul\n      not\n      and\n      swap1\n      dup4\n      0xffffffffffffffffffffffffffffffffffffffff\n      and\n      mul\n      or\n      swap1\n      sstore\n      pop\n      0x40\n      dup3\n      add\n      mload\n      dup2\n      0x02\n      add\n      swap1\n      dup2\n      tag_131\n      swap2\n      swap1\n      tag_90\n      jump\t// in\n    tag_131:\n      pop\n      pop\n      pop\n        /* \"Contracts/AKEB.sol\":4370:5315  {... */\n      pop\n      pop\n        /* \"Contracts/AKEB.sol\":4230:5315  function dispute(uint256 inputDisputedBid, ... */\n      pop\n      pop\n      jump\t// out\n        /* \"Contracts/AKEB.sol\":1029:1069  DisputedBidders[] public disputedBidders */\n    tag_46:\n      0x0c\n      dup2\n      dup2\n      sload\n      dup2\n      lt\n      tag_132\n      jumpi\n      0x00\n      dup1\n      revert\n    tag_132:\n      swap1\n      0x00\n      mstore\n      keccak256(0x00, 0x20)\n      swap1\n      0x03\n      mul\n      add\n      0x00\n      swap2\n      pop\n      swap1\n      pop\n      dup1\n      0x00\n      add\n      sload\n      swap1\n      dup1\n      0x01\n      add\n      0x00\n      swap1\n      sload\n      swap1\n      0x0100\n      exp\n      swap1\n      div\n      0xffffffffffffffffffffffffffffffffffffffff\n      and\n      swap1\n      dup1\n      0x02\n      add\n      dup1\n      sload\n      tag_134\n      swap1\n      tag_135\n      jump\t// in\n    tag_134:\n      dup1\n      0x1f\n      add\n      0x20\n      dup1\n      swap2\n      div\n      mul\n      0x20\n      add\n      mload(0x40)\n      swap1\n      dup2\n      add\n      0x40\n      mstore\n      dup1\n      swap3\n      swap2\n      swap1\n      dup2\n      dup2\n      mstore\n      0x20\n      add\n      dup3\n      dup1\n      sload\n      tag_136\n      swap1\n      tag_135\n      jump\t// in\n    tag_136:\n      dup1\n      iszero\n      tag_137\n      jumpi\n      dup1\n      0x1f\n      lt\n      tag_138\n      jumpi\n      0x0100\n      dup1\n      dup4\n      sload\n      div\n      mul\n      dup4\n      mstore\n      swap2\n      0x20\n      add\n      swap2\n      jump(tag_137)\n    tag_138:\n      dup3\n      add\n      swap2\n      swap1\n      0x00\n      mstore\n      keccak256(0x00, 0x20)\n      swap1\n    tag_139:\n      dup2\n      sload\n      dup2\n      mstore\n      swap1\n      0x01\n      add\n      swap1\n      0x20\n      add\n      dup1\n      dup4\n      gt\n      tag_139\n      jumpi\n      dup3\n      swap1\n      sub\n      0x1f\n      and\n      dup3\n      add\n      swap2\n    tag_137:\n      pop\n      pop\n      pop\n      pop\n      pop\n      swap1\n      pop\n      dup4\n      jump\t// out\n        /* \"Contracts/AKEB.sol\":267:297  string public assetDescription */\n    tag_50:\n      0x02\n      dup1\n      sload\n      tag_140\n      swap1\n      tag_135\n      jump\t// in\n    tag_140:\n      dup1\n      0x1f\n      add\n      0x20\n      dup1\n      swap2\n      div\n      mul\n      0x20\n      add\n      mload(0x40)\n      swap1\n      dup2\n      add\n      0x40\n      mstore\n      dup1\n      swap3\n      swap2\n      swap1\n      dup2\n      dup2\n      mstore\n      0x20\n      add\n      dup3\n      dup1\n      sload\n      tag_141\n      swap1\n      tag_135\n      jump\t// in\n    tag_141:\n      dup1\n      iszero\n      tag_142\n      jumpi\n      dup1\n      0x1f\n      lt\n      tag_143\n      jumpi\n      0x0100\n      dup1\n      dup4\n      sload\n      div\n      mul\n      dup4\n      mstore\n      swap2\n      0x20\n      add\n      swap2\n      jump(tag_142)\n    tag_143:\n      dup3\n      add\n      swap2\n      swap1\n      0x00\n      mstore\n      keccak256(0x00, 0x20)\n      swap1\n    tag_144:\n      dup2\n      sload\n      dup2\n      mstore\n      swap1\n      0x01\n      add\n      swap1\n      0x20\n      add\n      dup1\n      dup4\n      gt\n      tag_144\n      jumpi\n      dup3\n      swap1\n      sub\n      0x1f\n      and\n      dup3\n      add\n      swap2\n    tag_142:\n      pop\n      pop\n      pop\n      pop\n      pop\n      dup2\n      jump\t// out\n        /* \"Contracts/AKEB.sol\":2295:2601  function registerAuctionInfo(string memory assetNameInput, ... */\n    tag_56:\n        /* \"Contracts/AKEB.sol\":2431:2441  msg.sender */\n      caller\n        /* \"Contracts/AKEB.sol\":2422:2428  seller */\n      0x00\n      dup1\n        /* \"Contracts/AKEB.sol\":2422:2441  seller = msg.sender */\n      0x0100\n      exp\n      dup2\n      sload\n      dup2\n      0xffffffffffffffffffffffffffffffffffffffff\n      mul\n      not\n      and\n      swap1\n      dup4\n      0xffffffffffffffffffffffffffffffffffffffff\n      and\n      mul\n      or\n      swap1\n      sstore\n      pop\n        /* \"Contracts/AKEB.sol\":2463:2477  assetNameInput */\n      dup2\n        /* \"Contracts/AKEB.sol\":2451:2460  assetName */\n      0x03\n        /* \"Contracts/AKEB.sol\":2451:2477  assetName = assetNameInput */\n      swap1\n      dup2\n      tag_146\n      swap2\n      swap1\n      tag_90\n      jump\t// in\n    tag_146:\n      pop\n        /* \"Contracts/AKEB.sol\":2506:2527  assetDescriptionInput */\n      dup1\n        /* \"Contracts/AKEB.sol\":2487:2503  assetDescription */\n      0x02\n        /* \"Contracts/AKEB.sol\":2487:2527  assetDescription = assetDescriptionInput */\n      swap1\n      dup2\n      tag_147\n      swap2\n      swap1\n      tag_90\n      jump\t// in\n    tag_147:\n      pop\n        /* \"Contracts/AKEB.sol\":2537:2561  setUpPhasesTimePeriods() */\n      tag_148\n        /* \"Contracts/AKEB.sol\":2537:2559  setUpPhasesTimePeriods */\n      tag_149\n        /* \"Contracts/AKEB.sol\":2537:2561  setUpPhasesTimePeriods() */\n      jump\t// in\n    tag_148:\n        /* \"Contracts/AKEB.sol\":2590:2594  true */\n      0x01\n        /* \"Contracts/AKEB.sol\":2571:2587  isAuctionStarted */\n      0x08\n      0x00\n        /* \"Contracts/AKEB.sol\":2571:2594  isAuctionStarted = true */\n      0x0100\n      exp\n      dup2\n      sload\n      dup2\n      0xff\n      mul\n      not\n      and\n      swap1\n      dup4\n      iszero\n      iszero\n      mul\n      or\n      swap1\n      sstore\n      pop\n        /* \"Contracts/AKEB.sol\":2295:2601  function registerAuctionInfo(string memory assetNameInput, ... */\n      pop\n      pop\n      jump\t// out\n        /* \"Contracts/AKEB.sol\":857:880  winner[] public winners */\n    tag_59:\n      0x0b\n      dup2\n      dup2\n      sload\n      dup2\n      lt\n      tag_150\n      jumpi\n      0x00\n      dup1\n      revert\n    tag_150:\n      swap1\n      0x00\n      mstore\n      keccak256(0x00, 0x20)\n      swap1\n      0x03\n      mul\n      add\n      0x00\n      swap2\n      pop\n      swap1\n      pop\n      dup1\n      0x00\n      add\n      0x00\n      swap1\n      sload\n      swap1\n      0x0100\n      exp\n      swap1\n      div\n      0xffffffffffffffffffffffffffffffffffffffff\n      and\n      swap1\n      dup1\n      0x01\n      add\n      sload\n      swap1\n      dup1\n      0x02\n      add\n      dup1\n      sload\n      tag_152\n      swap1\n      tag_135\n      jump\t// in\n    tag_152:\n      dup1\n      0x1f\n      add\n      0x20\n      dup1\n      swap2\n      div\n      mul\n      0x20\n      add\n      mload(0x40)\n      swap1\n      dup2\n      add\n      0x40\n      mstore\n      dup1\n      swap3\n      swap2\n      swap1\n      dup2\n      dup2\n      mstore\n      0x20\n      add\n      dup3\n      dup1\n      sload\n      tag_153\n      swap1\n      tag_135\n      jump\t// in\n    tag_153:\n      dup1\n      iszero\n      tag_154\n      jumpi\n      dup1\n      0x1f\n      lt\n      tag_155\n      jumpi\n      0x0100\n      dup1\n      dup4\n      sload\n      div\n      mul\n      dup4\n      mstore\n      swap2\n      0x20\n      add\n      swap2\n      jump(tag_154)\n    tag_155:\n      dup3\n      add\n      swap2\n      swap1\n      0x00\n      mstore\n      keccak256(0x00, 0x20)\n      swap1\n    tag_156:\n      dup2\n      sload\n      dup2\n      mstore\n      swap1\n      0x01\n      add\n      swap1\n      0x20\n      add\n      dup1\n      dup4\n      gt\n      tag_156\n      jumpi\n      dup3\n      swap1\n      sub\n      0x1f\n      and\n      dup3\n      add\n      swap2\n    tag_154:\n      pop\n      pop\n      pop\n      pop\n      pop\n      swap1\n      pop\n      dup4\n      jump\t// out\n        /* \"Contracts/AKEB.sol\":303:326  string public assetName */\n    tag_63:\n      0x03\n      dup1\n      sload\n      tag_157\n      swap1\n      tag_135\n      jump\t// in\n    tag_157:\n      dup1\n      0x1f\n      add\n      0x20\n      dup1\n      swap2\n      div\n      mul\n      0x20\n      add\n      mload(0x40)\n      swap1\n      dup2\n      add\n      0x40\n      mstore\n      dup1\n      swap3\n      swap2\n      swap1\n      dup2\n      dup2\n      mstore\n      0x20\n      add\n      dup3\n      dup1\n      sload\n      tag_158\n      swap1\n      tag_135\n      jump\t// in\n    tag_158:\n      dup1\n      iszero\n      tag_159\n      jumpi\n      dup1\n      0x1f\n      lt\n      tag_160\n      jumpi\n      0x0100\n      dup1\n      dup4\n      sload\n      div\n      mul\n      dup4\n      mstore\n      swap2\n      0x20\n      add\n      swap2\n      jump(tag_159)\n    tag_160:\n      dup3\n      add\n      swap2\n      swap1\n      0x00\n      mstore\n      keccak256(0x00, 0x20)\n      swap1\n    tag_161:\n      dup2\n      sload\n      dup2\n      mstore\n      swap1\n      0x01\n      add\n      swap1\n      0x20\n      add\n      dup1\n      dup4\n      gt\n      tag_161\n      jumpi\n      dup3\n      swap1\n      sub\n      0x1f\n      and\n      dup3\n      add\n      swap2\n    tag_159:\n      pop\n      pop\n      pop\n      pop\n      pop\n      dup2\n      jump\t// out\n        /* \"Contracts/AKEB.sol\":558:582  address[] public bidders */\n    tag_67:\n      0x09\n      dup2\n      dup2\n      sload\n      dup2\n      lt\n      tag_162\n      jumpi\n      0x00\n      dup1\n      revert\n    tag_162:\n      swap1\n      0x00\n      mstore\n      keccak256(0x00, 0x20)\n      add\n      0x00\n      swap2\n      pop\n      sload\n      swap1\n      0x0100\n      exp\n      swap1\n      div\n      0xffffffffffffffffffffffffffffffffffffffff\n      and\n      dup2\n      jump\t// out\n        /* \"Contracts/AKEB.sol\":5399:5761  function reset() ... */\n    tag_70:\n        /* \"Contracts/AKEB.sol\":1693:1703  auctioneer */\n      0x01\n      0x00\n      swap1\n      sload\n      swap1\n      0x0100\n      exp\n      swap1\n      div\n      0xffffffffffffffffffffffffffffffffffffffff\n      and\n        /* \"Contracts/AKEB.sol\":1679:1703  msg.sender == auctioneer */\n      0xffffffffffffffffffffffffffffffffffffffff\n      and\n        /* \"Contracts/AKEB.sol\":1679:1689  msg.sender */\n      caller\n        /* \"Contracts/AKEB.sol\":1679:1703  msg.sender == auctioneer */\n      0xffffffffffffffffffffffffffffffffffffffff\n      and\n      eq\n        /* \"Contracts/AKEB.sol\":1671:1746  require(msg.sender == auctioneer, \"Only auctioneer can call this function\") */\n      tag_165\n      jumpi\n      mload(0x40)\n      0x08c379a000000000000000000000000000000000000000000000000000000000\n      dup2\n      mstore\n      0x04\n      add\n      tag_166\n      swap1\n      tag_94\n      jump\t// in\n    tag_166:\n      mload(0x40)\n      dup1\n      swap2\n      sub\n      swap1\n      revert\n    tag_165:\n        /* \"Contracts/AKEB.sol\":5485:5517  winnerAndDisputeSubmissionPeriod */\n      sload(0x06)\n        /* \"Contracts/AKEB.sol\":5467:5482  block.timestamp */\n      timestamp\n        /* \"Contracts/AKEB.sol\":5467:5517  block.timestamp > winnerAndDisputeSubmissionPeriod */\n      gt\n        /* \"Contracts/AKEB.sol\":5459:5551  require(block.timestamp > winnerAndDisputeSubmissionPeriod, \"Auction is not completed yet.\") */\n      tag_168\n      jumpi\n      mload(0x40)\n      0x08c379a000000000000000000000000000000000000000000000000000000000\n      dup2\n      mstore\n      0x04\n      add\n      tag_169\n      swap1\n      tag_98\n      jump\t// in\n    tag_169:\n      mload(0x40)\n      dup1\n      swap2\n      sub\n      swap1\n      revert\n    tag_168:\n        /* \"Contracts/AKEB.sol\":5569:5576  winners */\n      0x0b\n      0x00\n        /* \"Contracts/AKEB.sol\":5562:5576  delete winners */\n      tag_170\n      swap2\n      swap1\n      tag_171\n      jump\t// in\n    tag_170:\n        /* \"Contracts/AKEB.sol\":5587:5608  assetDescription = \"\" */\n      mload(0x40)\n      dup1\n      0x20\n      add\n      0x40\n      mstore\n      dup1\n      0x00\n      dup2\n      mstore\n      pop\n        /* \"Contracts/AKEB.sol\":5587:5603  assetDescription */\n      0x02\n        /* \"Contracts/AKEB.sol\":5587:5608  assetDescription = \"\" */\n      swap1\n      dup2\n      tag_172\n      swap2\n      swap1\n      tag_90\n      jump\t// in\n    tag_172:\n      pop\n        /* \"Contracts/AKEB.sol\":5618:5632  assetName = \"\" */\n      mload(0x40)\n      dup1\n      0x20\n      add\n      0x40\n      mstore\n      dup1\n      0x00\n      dup2\n      mstore\n      pop\n        /* \"Contracts/AKEB.sol\":5618:5627  assetName */\n      0x03\n        /* \"Contracts/AKEB.sol\":5618:5632  assetName = \"\" */\n      swap1\n      dup2\n      tag_173\n      swap2\n      swap1\n      tag_90\n      jump\t// in\n    tag_173:\n      pop\n        /* \"Contracts/AKEB.sol\":5643:5661  resetEncodedBids() */\n      tag_174\n        /* \"Contracts/AKEB.sol\":5643:5659  resetEncodedBids */\n      tag_36\n        /* \"Contracts/AKEB.sol\":5643:5661  resetEncodedBids() */\n      jump\t// in\n    tag_174:\n        /* \"Contracts/AKEB.sol\":5679:5686  bidders */\n      0x09\n      0x00\n        /* \"Contracts/AKEB.sol\":5672:5686  delete bidders */\n      tag_175\n      swap2\n      swap1\n      tag_176\n      jump\t// in\n    tag_175:\n        /* \"Contracts/AKEB.sol\":5704:5719  disputedBidders */\n      0x0c\n      0x00\n        /* \"Contracts/AKEB.sol\":5697:5719  delete disputedBidders */\n      tag_177\n      swap2\n      swap1\n      tag_178\n      jump\t// in\n    tag_177:\n        /* \"Contracts/AKEB.sol\":5749:5754  false */\n      0x00\n        /* \"Contracts/AKEB.sol\":5730:5746  isAuctionStarted */\n      0x08\n      0x00\n        /* \"Contracts/AKEB.sol\":5730:5754  isAuctionStarted = false */\n      0x0100\n      exp\n      dup2\n      sload\n      dup2\n      0xff\n      mul\n      not\n      and\n      swap1\n      dup4\n      iszero\n      iszero\n      mul\n      or\n      swap1\n      sstore\n      pop\n        /* \"Contracts/AKEB.sol\":5399:5761  function reset() ... */\n      jump\t// out\n        /* \"Contracts/AKEB.sol\":3036:3518  function submitEncodedBid(bytes32 inputEncodedBid) ... */\n    tag_74:\n        /* \"Contracts/AKEB.sol\":1226:1230  true */\n      0x01\n        /* \"Contracts/AKEB.sol\":1206:1230  isAuctionStarted == true */\n      iszero\n      iszero\n        /* \"Contracts/AKEB.sol\":1206:1222  isAuctionStarted */\n      0x08\n      0x00\n      swap1\n      sload\n      swap1\n      0x0100\n      exp\n      swap1\n      div\n      0xff\n      and\n        /* \"Contracts/AKEB.sol\":1206:1230  isAuctionStarted == true */\n      iszero\n      iszero\n      eq\n        /* \"Contracts/AKEB.sol\":1198:1266  require(isAuctionStarted == true, \"There is no started auction now\") */\n      tag_180\n      jumpi\n      mload(0x40)\n      0x08c379a000000000000000000000000000000000000000000000000000000000\n      dup2\n      mstore\n      0x04\n      add\n      tag_181\n      swap1\n      tag_80\n      jump\t// in\n    tag_181:\n      mload(0x40)\n      dup1\n      swap2\n      sub\n      swap1\n      revert\n    tag_180:\n        /* \"Contracts/AKEB.sol\":1568:1572  true */\n      0x01\n        /* \"Contracts/AKEB.sol\":1554:1572  isBidder() == true */\n      iszero\n      iszero\n        /* \"Contracts/AKEB.sol\":1554:1564  isBidder() */\n      tag_183\n        /* \"Contracts/AKEB.sol\":1554:1562  isBidder */\n      tag_83\n        /* \"Contracts/AKEB.sol\":1554:1564  isBidder() */\n      jump\t// in\n    tag_183:\n        /* \"Contracts/AKEB.sol\":1554:1572  isBidder() == true */\n      iszero\n      iszero\n      eq\n        /* \"Contracts/AKEB.sol\":1546:1621  require(isBidder() == true, \"Only registerd bidder can call this function\") */\n      tag_184\n      jumpi\n      mload(0x40)\n      0x08c379a000000000000000000000000000000000000000000000000000000000\n      dup2\n      mstore\n      0x04\n      add\n      tag_185\n      swap1\n      tag_86\n      jump\t// in\n    tag_185:\n      mload(0x40)\n      dup1\n      swap2\n      sub\n      swap1\n      revert\n    tag_184:\n        /* \"Contracts/AKEB.sol\":3496:3511  inputEncodedBid */\n      dup1\n        /* \"Contracts/AKEB.sol\":3470:3481  encodedBids */\n      0x0a\n        /* \"Contracts/AKEB.sol\":3470:3493  encodedBids[msg.sender] */\n      0x00\n        /* \"Contracts/AKEB.sol\":3482:3492  msg.sender */\n      caller\n        /* \"Contracts/AKEB.sol\":3470:3493  encodedBids[msg.sender] */\n      0xffffffffffffffffffffffffffffffffffffffff\n      and\n      0xffffffffffffffffffffffffffffffffffffffff\n      and\n      dup2\n      mstore\n      0x20\n      add\n      swap1\n      dup2\n      mstore\n      0x20\n      add\n      0x00\n      keccak256\n        /* \"Contracts/AKEB.sol\":3470:3511  encodedBids[msg.sender] = inputEncodedBid */\n      dup2\n      swap1\n      sstore\n      pop\n        /* \"Contracts/AKEB.sol\":3036:3518  function submitEncodedBid(bytes32 inputEncodedBid) ... */\n      pop\n      jump\t// out\n        /* \"Contracts/AKEB.sol\":2660:2951  function registerBidder() ... */\n    tag_76:\n        /* \"Contracts/AKEB.sol\":1226:1230  true */\n      0x01\n        /* \"Contracts/AKEB.sol\":1206:1230  isAuctionStarted == true */\n      iszero\n      iszero\n        /* \"Contracts/AKEB.sol\":1206:1222  isAuctionStarted */\n      0x08\n      0x00\n      swap1\n      sload\n      swap1\n      0x0100\n      exp\n      swap1\n      div\n      0xff\n      and\n        /* \"Contracts/AKEB.sol\":1206:1230  isAuctionStarted == true */\n      iszero\n      iszero\n      eq\n        /* \"Contracts/AKEB.sol\":1198:1266  require(isAuctionStarted == true, \"There is no started auction now\") */\n      tag_188\n      jumpi\n      mload(0x40)\n      0x08c379a000000000000000000000000000000000000000000000000000000000\n      dup2\n      mstore\n      0x04\n      add\n      tag_189\n      swap1\n      tag_80\n      jump\t// in\n    tag_189:\n      mload(0x40)\n      dup1\n      swap2\n      sub\n      swap1\n      revert\n    tag_188:\n        /* \"Contracts/AKEB.sol\":2761:2767  seller */\n      0x00\n      dup1\n      sload\n      swap1\n      0x0100\n      exp\n      swap1\n      div\n      0xffffffffffffffffffffffffffffffffffffffff\n      and\n        /* \"Contracts/AKEB.sol\":2747:2767  msg.sender != seller */\n      0xffffffffffffffffffffffffffffffffffffffff\n      and\n        /* \"Contracts/AKEB.sol\":2747:2757  msg.sender */\n      caller\n        /* \"Contracts/AKEB.sol\":2747:2767  msg.sender != seller */\n      0xffffffffffffffffffffffffffffffffffffffff\n      and\n      sub\n        /* \"Contracts/AKEB.sol\":2739:2806  require(msg.sender != seller , \"Seller can not register as bidder\") */\n      tag_191\n      jumpi\n      mload(0x40)\n      0x08c379a000000000000000000000000000000000000000000000000000000000\n      dup2\n      mstore\n      0x04\n      add\n      tag_192\n      swap1\n      tag_193\n      jump\t// in\n    tag_192:\n      mload(0x40)\n      dup1\n      swap2\n      sub\n      swap1\n      revert\n    tag_191:\n        /* \"Contracts/AKEB.sol\":2842:2862  registerBidderPeriod */\n      sload(0x04)\n        /* \"Contracts/AKEB.sol\":2824:2839  block.timestamp */\n      timestamp\n        /* \"Contracts/AKEB.sol\":2824:2862  block.timestamp < registerBidderPeriod */\n      lt\n        /* \"Contracts/AKEB.sol\":2816:2910  require(block.timestamp < registerBidderPeriod, \"Time for registering as a bidder is passed.\") */\n      tag_194\n      jumpi\n      mload(0x40)\n      0x08c379a000000000000000000000000000000000000000000000000000000000\n      dup2\n      mstore\n      0x04\n      add\n      tag_195\n      swap1\n      tag_196\n      jump\t// in\n    tag_195:\n      mload(0x40)\n      dup1\n      swap2\n      sub\n      swap1\n      revert\n    tag_194:\n        /* \"Contracts/AKEB.sol\":2920:2927  bidders */\n      0x09\n        /* \"Contracts/AKEB.sol\":2933:2943  msg.sender */\n      caller\n        /* \"Contracts/AKEB.sol\":2920:2944  bidders.push(msg.sender) */\n      swap1\n      dup1\n      0x01\n      dup2\n      sload\n      add\n      dup1\n      dup3\n      sstore\n      dup1\n      swap2\n      pop\n      pop\n      0x01\n      swap1\n      sub\n      swap1\n      0x00\n      mstore\n      keccak256(0x00, 0x20)\n      add\n      0x00\n      swap1\n      swap2\n      swap1\n      swap2\n      swap1\n      swap2\n      0x0100\n      exp\n      dup2\n      sload\n      dup2\n      0xffffffffffffffffffffffffffffffffffffffff\n      mul\n      not\n      and\n      swap1\n      dup4\n      0xffffffffffffffffffffffffffffffffffffffff\n      and\n      mul\n      or\n      swap1\n      sstore\n      pop\n        /* \"Contracts/AKEB.sol\":2660:2951  function registerBidder() ... */\n      jump\t// out\n        /* \"Contracts/AKEB.sol\":1281:1508  function isBidder() internal view returns(bool) {... */\n    tag_83:\n        /* \"Contracts/AKEB.sol\":1323:1327  bool */\n      0x00\n        /* \"Contracts/AKEB.sol\":1344:1353  uint256 i */\n      dup1\n        /* \"Contracts/AKEB.sol\":1356:1357  0 */\n      0x00\n        /* \"Contracts/AKEB.sol\":1344:1357  uint256 i = 0 */\n      swap1\n      pop\n        /* \"Contracts/AKEB.sol\":1339:1480  for (uint256 i = 0 ; i < bidders.length; i++){... */\n    tag_199:\n        /* \"Contracts/AKEB.sol\":1364:1371  bidders */\n      0x09\n        /* \"Contracts/AKEB.sol\":1364:1378  bidders.length */\n      dup1\n      sload\n      swap1\n      pop\n        /* \"Contracts/AKEB.sol\":1360:1361  i */\n      dup2\n        /* \"Contracts/AKEB.sol\":1360:1378  i < bidders.length */\n      lt\n        /* \"Contracts/AKEB.sol\":1339:1480  for (uint256 i = 0 ; i < bidders.length; i++){... */\n      iszero\n      tag_200\n      jumpi\n        /* \"Contracts/AKEB.sol\":1415:1422  bidders */\n      0x09\n        /* \"Contracts/AKEB.sol\":1423:1424  i */\n      dup2\n        /* \"Contracts/AKEB.sol\":1415:1425  bidders[i] */\n      dup2\n      sload\n      dup2\n      lt\n      tag_202\n      jumpi\n      tag_203\n      tag_104\n      jump\t// in\n    tag_203:\n    tag_202:\n      swap1\n      0x00\n      mstore\n      keccak256(0x00, 0x20)\n      add\n      0x00\n      swap1\n      sload\n      swap1\n      0x0100\n      exp\n      swap1\n      div\n      0xffffffffffffffffffffffffffffffffffffffff\n      and\n        /* \"Contracts/AKEB.sol\":1401:1425  msg.sender == bidders[i] */\n      0xffffffffffffffffffffffffffffffffffffffff\n      and\n        /* \"Contracts/AKEB.sol\":1401:1411  msg.sender */\n      caller\n        /* \"Contracts/AKEB.sol\":1401:1425  msg.sender == bidders[i] */\n      0xffffffffffffffffffffffffffffffffffffffff\n      and\n      sub\n        /* \"Contracts/AKEB.sol\":1398:1470  if(msg.sender == bidders[i]){... */\n      tag_205\n      jumpi\n        /* \"Contracts/AKEB.sol\":1451:1455  true */\n      0x01\n        /* \"Contracts/AKEB.sol\":1444:1455  return true */\n      swap2\n      pop\n      pop\n      jump(tag_198)\n        /* \"Contracts/AKEB.sol\":1398:1470  if(msg.sender == bidders[i]){... */\n    tag_205:\n        /* \"Contracts/AKEB.sol\":1380:1383  i++ */\n      dup1\n      dup1\n      tag_206\n      swap1\n      tag_207\n      jump\t// in\n    tag_206:\n      swap2\n      pop\n      pop\n        /* \"Contracts/AKEB.sol\":1339:1480  for (uint256 i = 0 ; i < bidders.length; i++){... */\n      jump(tag_199)\n    tag_200:\n      pop\n        /* \"Contracts/AKEB.sol\":1496:1501  false */\n      0x00\n        /* \"Contracts/AKEB.sol\":1489:1501  return false */\n      swap1\n      pop\n        /* \"Contracts/AKEB.sol\":1281:1508  function isBidder() internal view returns(bool) {... */\n    tag_198:\n      swap1\n      jump\t// out\n        /* \"Contracts/AKEB.sol\":6728:7046  function computeHash(uint256 bid, string memory nonce)... */\n    tag_117:\n        /* \"Contracts/AKEB.sol\":6820:6827  bytes32 */\n      0x00\n        /* \"Contracts/AKEB.sol\":6839:6864  string memory bidInString */\n      dup1\n        /* \"Contracts/AKEB.sol\":6867:6888  Strings.toString(bid) */\n      tag_209\n        /* \"Contracts/AKEB.sol\":6884:6887  bid */\n      dup5\n        /* \"Contracts/AKEB.sol\":6867:6883  Strings.toString */\n      tag_210\n        /* \"Contracts/AKEB.sol\":6867:6888  Strings.toString(bid) */\n      jump\t// in\n    tag_209:\n        /* \"Contracts/AKEB.sol\":6839:6888  string memory bidInString = Strings.toString(bid) */\n      swap1\n      pop\n        /* \"Contracts/AKEB.sol\":6898:6936  string memory bidAndNonceConcatenation */\n      0x00\n        /* \"Contracts/AKEB.sol\":6953:6964  bidInString */\n      dup2\n        /* \"Contracts/AKEB.sol\":6966:6971  nonce */\n      dup5\n        /* \"Contracts/AKEB.sol\":6939:6972  string.concat(bidInString, nonce) */\n      add(0x20, mload(0x40))\n      tag_211\n      swap3\n      swap2\n      swap1\n      tag_212\n      jump\t// in\n    tag_211:\n      mload(0x40)\n      0x20\n      dup2\n      dup4\n      sub\n      sub\n      dup2\n      mstore\n      swap1\n      0x40\n      mstore\n        /* \"Contracts/AKEB.sol\":6898:6972  string memory bidAndNonceConcatenation = string.concat(bidInString, nonce) */\n      swap1\n      pop\n        /* \"Contracts/AKEB.sol\":6989:7039  sha256(abi.encodePacked(bidAndNonceConcatenation)) */\n      0x02\n        /* \"Contracts/AKEB.sol\":7013:7037  bidAndNonceConcatenation */\n      dup2\n        /* \"Contracts/AKEB.sol\":6996:7038  abi.encodePacked(bidAndNonceConcatenation) */\n      add(0x20, mload(0x40))\n      tag_213\n      swap2\n      swap1\n      tag_214\n      jump\t// in\n    tag_213:\n      mload(0x40)\n      0x20\n      dup2\n      dup4\n      sub\n      sub\n      dup2\n      mstore\n      swap1\n      0x40\n      mstore\n        /* \"Contracts/AKEB.sol\":6989:7039  sha256(abi.encodePacked(bidAndNonceConcatenation)) */\n      mload(0x40)\n      tag_215\n      swap2\n      swap1\n      tag_216\n      jump\t// in\n    tag_215:\n      0x20\n      mload(0x40)\n      dup1\n      dup4\n      sub\n      dup2\n      dup6\n      gas\n      staticcall\n      iszero\n      dup1\n      iszero\n      tag_218\n      jumpi\n      returndatasize\n      0x00\n      dup1\n      returndatacopy\n      revert(0x00, returndatasize)\n    tag_218:\n      pop\n      pop\n      pop\n      mload(0x40)\n      returndatasize\n      not(0x1f)\n      0x1f\n      dup3\n      add\n      and\n      dup3\n      add\n      dup1\n      0x40\n      mstore\n      pop\n      dup2\n      add\n      swap1\n      tag_219\n      swap2\n      swap1\n      tag_220\n      jump\t// in\n    tag_219:\n        /* \"Contracts/AKEB.sol\":6982:7039  return sha256(abi.encodePacked(bidAndNonceConcatenation)) */\n      swap3\n      pop\n      pop\n      pop\n        /* \"Contracts/AKEB.sol\":6728:7046  function computeHash(uint256 bid, string memory nonce)... */\n      swap3\n      swap2\n      pop\n      pop\n      jump\t// out\n        /* \"Contracts/AKEB.sol\":6436:6722  function isDiputeBidGreaterThanOneWinnerBid(uint256 disputeBid) ... */\n    tag_122:\n        /* \"Contracts/AKEB.sol\":6536:6540  bool */\n      0x00\n        /* \"Contracts/AKEB.sol\":6555:6564  uint256 i */\n      dup1\n        /* \"Contracts/AKEB.sol\":6567:6568  0 */\n      0x00\n        /* \"Contracts/AKEB.sol\":6555:6568  uint256 i = 0 */\n      swap1\n      pop\n        /* \"Contracts/AKEB.sol\":6551:6694  for(uint256 i = 0 ; i < winners.length;i++){... */\n    tag_222:\n        /* \"Contracts/AKEB.sol\":6575:6582  winners */\n      0x0b\n        /* \"Contracts/AKEB.sol\":6575:6589  winners.length */\n      dup1\n      sload\n      swap1\n      pop\n        /* \"Contracts/AKEB.sol\":6571:6572  i */\n      dup2\n        /* \"Contracts/AKEB.sol\":6571:6589  i < winners.length */\n      lt\n        /* \"Contracts/AKEB.sol\":6551:6694  for(uint256 i = 0 ; i < winners.length;i++){... */\n      iszero\n      tag_223\n      jumpi\n        /* \"Contracts/AKEB.sol\":6624:6631  winners */\n      0x0b\n        /* \"Contracts/AKEB.sol\":6632:6633  i */\n      dup2\n        /* \"Contracts/AKEB.sol\":6624:6634  winners[i] */\n      dup2\n      sload\n      dup2\n      lt\n      tag_225\n      jumpi\n      tag_226\n      tag_104\n      jump\t// in\n    tag_226:\n    tag_225:\n      swap1\n      0x00\n      mstore\n      keccak256(0x00, 0x20)\n      swap1\n      0x03\n      mul\n      add\n        /* \"Contracts/AKEB.sol\":6624:6638  winners[i].bid */\n      0x01\n      add\n      sload\n        /* \"Contracts/AKEB.sol\":6611:6621  disputeBid */\n      dup4\n        /* \"Contracts/AKEB.sol\":6611:6638  disputeBid > winners[i].bid */\n      gt\n        /* \"Contracts/AKEB.sol\":6608:6684  if(disputeBid > winners[i].bid) {... */\n      iszero\n      tag_228\n      jumpi\n        /* \"Contracts/AKEB.sol\":6665:6669  true */\n      0x01\n        /* \"Contracts/AKEB.sol\":6658:6669  return true */\n      swap2\n      pop\n      pop\n      jump(tag_221)\n        /* \"Contracts/AKEB.sol\":6608:6684  if(disputeBid > winners[i].bid) {... */\n    tag_228:\n        /* \"Contracts/AKEB.sol\":6590:6593  i++ */\n      dup1\n      dup1\n      tag_229\n      swap1\n      tag_207\n      jump\t// in\n    tag_229:\n      swap2\n      pop\n      pop\n        /* \"Contracts/AKEB.sol\":6551:6694  for(uint256 i = 0 ; i < winners.length;i++){... */\n      jump(tag_222)\n    tag_223:\n      pop\n        /* \"Contracts/AKEB.sol\":6710:6715  false */\n      0x00\n        /* \"Contracts/AKEB.sol\":6703:6715  return false */\n      swap1\n      pop\n        /* \"Contracts/AKEB.sol\":6436:6722  function isDiputeBidGreaterThanOneWinnerBid(uint256 disputeBid) ... */\n    tag_221:\n      swap2\n      swap1\n      pop\n      jump\t// out\n        /* \"Contracts/AKEB.sol\":6193:6261  function clearWinners() ... */\n    tag_127:\n        /* \"Contracts/AKEB.sol\":6247:6254  winners */\n      0x0b\n      0x00\n        /* \"Contracts/AKEB.sol\":6240:6254  delete winners */\n      tag_231\n      swap2\n      swap1\n      tag_171\n      jump\t// in\n    tag_231:\n        /* \"Contracts/AKEB.sol\":6193:6261  function clearWinners() ... */\n      jump\t// out\n        /* \"Contracts/AKEB.sol\":6267:6430  function addWinner(uint256 bid, string memory nonce) ... */\n    tag_129:\n        /* \"Contracts/AKEB.sol\":6343:6361  winner memory temp */\n      0x00\n        /* \"Contracts/AKEB.sol\":6364:6394  winner(msg.sender, bid, nonce) */\n      mload(0x40)\n      dup1\n      0x60\n      add\n      0x40\n      mstore\n      dup1\n        /* \"Contracts/AKEB.sol\":6371:6381  msg.sender */\n      caller\n        /* \"Contracts/AKEB.sol\":6364:6394  winner(msg.sender, bid, nonce) */\n      0xffffffffffffffffffffffffffffffffffffffff\n      and\n      dup2\n      mstore\n      0x20\n      add\n        /* \"Contracts/AKEB.sol\":6383:6386  bid */\n      dup5\n        /* \"Contracts/AKEB.sol\":6364:6394  winner(msg.sender, bid, nonce) */\n      dup2\n      mstore\n      0x20\n      add\n        /* \"Contracts/AKEB.sol\":6388:6393  nonce */\n      dup4\n        /* \"Contracts/AKEB.sol\":6364:6394  winner(msg.sender, bid, nonce) */\n      dup2\n      mstore\n      pop\n        /* \"Contracts/AKEB.sol\":6343:6394  winner memory temp = winner(msg.sender, bid, nonce) */\n      swap1\n      pop\n        /* \"Contracts/AKEB.sol\":6405:6412  winners */\n      0x0b\n        /* \"Contracts/AKEB.sol\":6418:6422  temp */\n      dup2\n        /* \"Contracts/AKEB.sol\":6405:6423  winners.push(temp) */\n      swap1\n      dup1\n      0x01\n      dup2\n      sload\n      add\n      dup1\n      dup3\n      sstore\n      dup1\n      swap2\n      pop\n      pop\n      0x01\n      swap1\n      sub\n      swap1\n      0x00\n      mstore\n      keccak256(0x00, 0x20)\n      swap1\n      0x03\n      mul\n      add\n      0x00\n      swap1\n      swap2\n      swap1\n      swap2\n      swap1\n      swap2\n      pop\n      0x00\n      dup3\n      add\n      mload\n      dup2\n      0x00\n      add\n      exp(0x0100, 0x00)\n      dup2\n      sload\n      dup2\n      0xffffffffffffffffffffffffffffffffffffffff\n      mul\n      not\n      and\n      swap1\n      dup4\n      0xffffffffffffffffffffffffffffffffffffffff\n      and\n      mul\n      or\n      swap1\n      sstore\n      pop\n      0x20\n      dup3\n      add\n      mload\n      dup2\n      0x01\n      add\n      sstore\n      0x40\n      dup3\n      add\n      mload\n      dup2\n      0x02\n      add\n      swap1\n      dup2\n      tag_234\n      swap2\n      swap1\n      tag_90\n      jump\t// in\n    tag_234:\n      pop\n      pop\n      pop\n        /* \"Contracts/AKEB.sol\":6333:6430  {... */\n      pop\n        /* \"Contracts/AKEB.sol\":6267:6430  function addWinner(uint256 bid, string memory nonce) ... */\n      pop\n      pop\n      jump\t// out\n        /* \"Contracts/AKEB.sol\":1780:2209  function setUpPhasesTimePeriods() private {... */\n    tag_149:\n        /* \"Contracts/AKEB.sol\":1929:1931  60 */\n      0x3c\n        /* \"Contracts/AKEB.sol\":1916:1926  periodTime */\n      sload(0x07)\n        /* \"Contracts/AKEB.sol\":1916:1931  periodTime * 60 */\n      tag_236\n      swap2\n      swap1\n      tag_237\n      jump\t// in\n    tag_236:\n        /* \"Contracts/AKEB.sol\":1897:1912  block.timestamp */\n      timestamp\n        /* \"Contracts/AKEB.sol\":1897:1932  block.timestamp + (periodTime * 60) */\n      tag_238\n      swap2\n      swap1\n      tag_107\n      jump\t// in\n    tag_238:\n        /* \"Contracts/AKEB.sol\":1874:1894  registerBidderPeriod */\n      0x04\n        /* \"Contracts/AKEB.sol\":1874:1932  registerBidderPeriod = block.timestamp + (periodTime * 60) */\n      dup2\n      swap1\n      sstore\n      pop\n        /* \"Contracts/AKEB.sol\":2056:2058  60 */\n      0x3c\n        /* \"Contracts/AKEB.sol\":2043:2053  periodTime */\n      sload(0x07)\n        /* \"Contracts/AKEB.sol\":2039:2040  2 */\n      0x02\n        /* \"Contracts/AKEB.sol\":2039:2053  2 * periodTime */\n      tag_239\n      swap2\n      swap1\n      tag_237\n      jump\t// in\n    tag_239:\n        /* \"Contracts/AKEB.sol\":2039:2058  2 * periodTime * 60 */\n      tag_240\n      swap2\n      swap1\n      tag_237\n      jump\t// in\n    tag_240:\n        /* \"Contracts/AKEB.sol\":2020:2035  block.timestamp */\n      timestamp\n        /* \"Contracts/AKEB.sol\":2020:2059  block.timestamp + (2 * periodTime * 60) */\n      tag_241\n      swap2\n      swap1\n      tag_107\n      jump\t// in\n    tag_241:\n        /* \"Contracts/AKEB.sol\":1992:2017  hashedBidSubmissionPeriod */\n      0x05\n        /* \"Contracts/AKEB.sol\":1992:2059  hashedBidSubmissionPeriod = block.timestamp + (2 * periodTime * 60) */\n      dup2\n      swap1\n      sstore\n      pop\n        /* \"Contracts/AKEB.sol\":2199:2201  60 */\n      0x3c\n        /* \"Contracts/AKEB.sol\":2186:2196  periodTime */\n      sload(0x07)\n        /* \"Contracts/AKEB.sol\":2182:2183  3 */\n      0x03\n        /* \"Contracts/AKEB.sol\":2182:2196  3 * periodTime */\n      tag_242\n      swap2\n      swap1\n      tag_237\n      jump\t// in\n    tag_242:\n        /* \"Contracts/AKEB.sol\":2182:2201  3 * periodTime * 60 */\n      tag_243\n      swap2\n      swap1\n      tag_237\n      jump\t// in\n    tag_243:\n        /* \"Contracts/AKEB.sol\":2163:2178  block.timestamp */\n      timestamp\n        /* \"Contracts/AKEB.sol\":2163:2202  block.timestamp + (3 * periodTime * 60) */\n      tag_244\n      swap2\n      swap1\n      tag_107\n      jump\t// in\n    tag_244:\n        /* \"Contracts/AKEB.sol\":2128:2160  winnerAndDisputeSubmissionPeriod */\n      0x06\n        /* \"Contracts/AKEB.sol\":2128:2202  winnerAndDisputeSubmissionPeriod = block.timestamp + (3 * periodTime * 60) */\n      dup2\n      swap1\n      sstore\n      pop\n        /* \"Contracts/AKEB.sol\":1780:2209  function setUpPhasesTimePeriods() private {... */\n      jump\t// out\n        /* \"@openzeppelin/contracts/utils/Strings.sol\":415:1111  function toString(uint256 value) internal pure returns (string memory) {... */\n    tag_210:\n        /* \"@openzeppelin/contracts/utils/Strings.sol\":471:484  string memory */\n      0x60\n        /* \"@openzeppelin/contracts/utils/Strings.sol\":520:534  uint256 length */\n      0x00\n        /* \"@openzeppelin/contracts/utils/Strings.sol\":557:558  1 */\n      0x01\n        /* \"@openzeppelin/contracts/utils/Strings.sol\":537:554  Math.log10(value) */\n      tag_246\n        /* \"@openzeppelin/contracts/utils/Strings.sol\":548:553  value */\n      dup5\n        /* \"@openzeppelin/contracts/utils/Strings.sol\":537:547  Math.log10 */\n      tag_247\n        /* \"@openzeppelin/contracts/utils/Strings.sol\":537:554  Math.log10(value) */\n      jump\t// in\n    tag_246:\n        /* \"@openzeppelin/contracts/utils/Strings.sol\":537:558  Math.log10(value) + 1 */\n      add\n        /* \"@openzeppelin/contracts/utils/Strings.sol\":520:558  uint256 length = Math.log10(value) + 1 */\n      swap1\n      pop\n        /* \"@openzeppelin/contracts/utils/Strings.sol\":572:592  string memory buffer */\n      0x00\n        /* \"@openzeppelin/contracts/utils/Strings.sol\":606:612  length */\n      dup2\n        /* \"@openzeppelin/contracts/utils/Strings.sol\":595:613  new string(length) */\n      0xffffffffffffffff\n      dup2\n      gt\n      iszero\n      tag_248\n      jumpi\n      tag_249\n      tag_250\n      jump\t// in\n    tag_249:\n    tag_248:\n      mload(0x40)\n      swap1\n      dup1\n      dup3\n      mstore\n      dup1\n      0x1f\n      add\n      not(0x1f)\n      and\n      0x20\n      add\n      dup3\n      add\n      0x40\n      mstore\n      dup1\n      iszero\n      tag_251\n      jumpi\n      dup2\n      0x20\n      add\n      0x01\n      dup3\n      mul\n      dup1\n      calldatasize\n      dup4\n      calldatacopy\n      dup1\n      dup3\n      add\n      swap2\n      pop\n      pop\n      swap1\n      pop\n    tag_251:\n      pop\n        /* \"@openzeppelin/contracts/utils/Strings.sol\":572:613  string memory buffer = new string(length) */\n      swap1\n      pop\n        /* \"@openzeppelin/contracts/utils/Strings.sol\":627:638  uint256 ptr */\n      0x00\n        /* \"@openzeppelin/contracts/utils/Strings.sol\":753:759  length */\n      dup3\n        /* \"@openzeppelin/contracts/utils/Strings.sol\":749:751  32 */\n      0x20\n        /* \"@openzeppelin/contracts/utils/Strings.sol\":745:760  add(32, length) */\n      add\n        /* \"@openzeppelin/contracts/utils/Strings.sol\":737:743  buffer */\n      dup3\n        /* \"@openzeppelin/contracts/utils/Strings.sol\":733:761  add(buffer, add(32, length)) */\n      add\n        /* \"@openzeppelin/contracts/utils/Strings.sol\":726:761  ptr := add(buffer, add(32, length)) */\n      swap1\n      pop\n        /* \"@openzeppelin/contracts/utils/Strings.sol\":788:1068  while (true) {... */\n    tag_252:\n        /* \"@openzeppelin/contracts/utils/Strings.sol\":795:799  true */\n      0x01\n        /* \"@openzeppelin/contracts/utils/Strings.sol\":788:1068  while (true) {... */\n      iszero\n      tag_253\n      jumpi\n        /* \"@openzeppelin/contracts/utils/Strings.sol\":819:824  ptr-- */\n      dup1\n      dup1\n      0x01\n      swap1\n      sub\n      swap2\n      pop\n      pop\n        /* \"@openzeppelin/contracts/utils/Strings.sol\":958:966  _SYMBOLS */\n      0x3031323334353637383961626364656600000000000000000000000000000000\n        /* \"@openzeppelin/contracts/utils/Strings.sol\":953:955  10 */\n      0x0a\n        /* \"@openzeppelin/contracts/utils/Strings.sol\":946:951  value */\n      dup7\n        /* \"@openzeppelin/contracts/utils/Strings.sol\":942:956  mod(value, 10) */\n      mod\n        /* \"@openzeppelin/contracts/utils/Strings.sol\":937:967  byte(mod(value, 10), _SYMBOLS) */\n      byte\n        /* \"@openzeppelin/contracts/utils/Strings.sol\":932:935  ptr */\n      dup2\n        /* \"@openzeppelin/contracts/utils/Strings.sol\":924:968  mstore8(ptr, byte(mod(value, 10), _SYMBOLS)) */\n      mstore8\n        /* \"@openzeppelin/contracts/utils/Strings.sol\":1012:1014  10 */\n      0x0a\n        /* \"@openzeppelin/contracts/utils/Strings.sol\":1003:1014  value /= 10 */\n      dup6\n      dup2\n      tag_254\n      jumpi\n      tag_255\n      tag_256\n      jump\t// in\n    tag_255:\n    tag_254:\n      div\n      swap5\n      pop\n        /* \"@openzeppelin/contracts/utils/Strings.sol\":1045:1046  0 */\n      0x00\n        /* \"@openzeppelin/contracts/utils/Strings.sol\":1036:1041  value */\n      dup6\n        /* \"@openzeppelin/contracts/utils/Strings.sol\":1036:1046  value == 0 */\n      sub\n        /* \"@openzeppelin/contracts/utils/Strings.sol\":788:1068  while (true) {... */\n      tag_252\n        /* \"@openzeppelin/contracts/utils/Strings.sol\":1032:1053  if (value == 0) break */\n      jumpi\n        /* \"@openzeppelin/contracts/utils/Strings.sol\":788:1068  while (true) {... */\n    tag_253:\n        /* \"@openzeppelin/contracts/utils/Strings.sol\":1088:1094  buffer */\n      dup2\n        /* \"@openzeppelin/contracts/utils/Strings.sol\":1081:1094  return buffer */\n      swap4\n      pop\n      pop\n      pop\n      pop\n        /* \"@openzeppelin/contracts/utils/Strings.sol\":415:1111  function toString(uint256 value) internal pure returns (string memory) {... */\n      swap2\n      swap1\n      pop\n      jump\t// out\n        /* \"@openzeppelin/contracts/utils/math/Math.sol\":9889:10779  function log10(uint256 value) internal pure returns (uint256) {... */\n    tag_247:\n        /* \"@openzeppelin/contracts/utils/math/Math.sol\":9942:9949  uint256 */\n      0x00\n        /* \"@openzeppelin/contracts/utils/math/Math.sol\":9961:9975  uint256 result */\n      dup1\n        /* \"@openzeppelin/contracts/utils/math/Math.sol\":9978:9979  0 */\n      0x00\n        /* \"@openzeppelin/contracts/utils/math/Math.sol\":9961:9979  uint256 result = 0 */\n      swap1\n      pop\n        /* \"@openzeppelin/contracts/utils/math/Math.sol\":10026:10032  10**64 */\n      0x184f03e93ff9f4daa797ed6e38ed64bf6a1f010000000000000000\n        /* \"@openzeppelin/contracts/utils/math/Math.sol\":10017:10022  value */\n      dup4\n        /* \"@openzeppelin/contracts/utils/math/Math.sol\":10017:10032  value >= 10**64 */\n      lt\n        /* \"@openzeppelin/contracts/utils/math/Math.sol\":10013:10112  if (value >= 10**64) {... */\n      tag_259\n      jumpi\n        /* \"@openzeppelin/contracts/utils/math/Math.sol\":10061:10067  10**64 */\n      0x184f03e93ff9f4daa797ed6e38ed64bf6a1f010000000000000000\n        /* \"@openzeppelin/contracts/utils/math/Math.sol\":10052:10067  value /= 10**64 */\n      dup4\n      dup2\n      tag_260\n      jumpi\n      tag_261\n      tag_256\n      jump\t// in\n    tag_261:\n    tag_260:\n      div\n      swap3\n      pop\n        /* \"@openzeppelin/contracts/utils/math/Math.sol\":10095:10097  64 */\n      0x40\n        /* \"@openzeppelin/contracts/utils/math/Math.sol\":10085:10097  result += 64 */\n      dup2\n      add\n      swap1\n      pop\n        /* \"@openzeppelin/contracts/utils/math/Math.sol\":10013:10112  if (value >= 10**64) {... */\n    tag_259:\n        /* \"@openzeppelin/contracts/utils/math/Math.sol\":10138:10144  10**32 */\n      0x04ee2d6d415b85acef8100000000\n        /* \"@openzeppelin/contracts/utils/math/Math.sol\":10129:10134  value */\n      dup4\n        /* \"@openzeppelin/contracts/utils/math/Math.sol\":10129:10144  value >= 10**32 */\n      lt\n        /* \"@openzeppelin/contracts/utils/math/Math.sol\":10125:10224  if (value >= 10**32) {... */\n      tag_262\n      jumpi\n        /* \"@openzeppelin/contracts/utils/math/Math.sol\":10173:10179  10**32 */\n      0x04ee2d6d415b85acef8100000000\n        /* \"@openzeppelin/contracts/utils/math/Math.sol\":10164:10179  value /= 10**32 */\n      dup4\n      dup2\n      tag_263\n      jumpi\n      tag_264\n      tag_256\n      jump\t// in\n    tag_264:\n    tag_263:\n      div\n      swap3\n      pop\n        /* \"@openzeppelin/contracts/utils/math/Math.sol\":10207:10209  32 */\n      0x20\n        /* \"@openzeppelin/contracts/utils/math/Math.sol\":10197:10209  result += 32 */\n      dup2\n      add\n      swap1\n      pop\n        /* \"@openzeppelin/contracts/utils/math/Math.sol\":10125:10224  if (value >= 10**32) {... */\n    tag_262:\n        /* \"@openzeppelin/contracts/utils/math/Math.sol\":10250:10256  10**16 */\n      0x2386f26fc10000\n        /* \"@openzeppelin/contracts/utils/math/Math.sol\":10241:10246  value */\n      dup4\n        /* \"@openzeppelin/contracts/utils/math/Math.sol\":10241:10256  value >= 10**16 */\n      lt\n        /* \"@openzeppelin/contracts/utils/math/Math.sol\":10237:10336  if (value >= 10**16) {... */\n      tag_265\n      jumpi\n        /* \"@openzeppelin/contracts/utils/math/Math.sol\":10285:10291  10**16 */\n      0x2386f26fc10000\n        /* \"@openzeppelin/contracts/utils/math/Math.sol\":10276:10291  value /= 10**16 */\n      dup4\n      dup2\n      tag_266\n      jumpi\n      tag_267\n      tag_256\n      jump\t// in\n    tag_267:\n    tag_266:\n      div\n      swap3\n      pop\n        /* \"@openzeppelin/contracts/utils/math/Math.sol\":10319:10321  16 */\n      0x10\n        /* \"@openzeppelin/contracts/utils/math/Math.sol\":10309:10321  result += 16 */\n      dup2\n      add\n      swap1\n      pop\n        /* \"@openzeppelin/contracts/utils/math/Math.sol\":10237:10336  if (value >= 10**16) {... */\n    tag_265:\n        /* \"@openzeppelin/contracts/utils/math/Math.sol\":10362:10367  10**8 */\n      0x05f5e100\n        /* \"@openzeppelin/contracts/utils/math/Math.sol\":10353:10358  value */\n      dup4\n        /* \"@openzeppelin/contracts/utils/math/Math.sol\":10353:10367  value >= 10**8 */\n      lt\n        /* \"@openzeppelin/contracts/utils/math/Math.sol\":10349:10445  if (value >= 10**8) {... */\n      tag_268\n      jumpi\n        /* \"@openzeppelin/contracts/utils/math/Math.sol\":10396:10401  10**8 */\n      0x05f5e100\n        /* \"@openzeppelin/contracts/utils/math/Math.sol\":10387:10401  value /= 10**8 */\n      dup4\n      dup2\n      tag_269\n      jumpi\n      tag_270\n      tag_256\n      jump\t// in\n    tag_270:\n    tag_269:\n      div\n      swap3\n      pop\n        /* \"@openzeppelin/contracts/utils/math/Math.sol\":10429:10430  8 */\n      0x08\n        /* \"@openzeppelin/contracts/utils/math/Math.sol\":10419:10430  result += 8 */\n      dup2\n      add\n      swap1\n      pop\n        /* \"@openzeppelin/contracts/utils/math/Math.sol\":10349:10445  if (value >= 10**8) {... */\n    tag_268:\n        /* \"@openzeppelin/contracts/utils/math/Math.sol\":10471:10476  10**4 */\n      0x2710\n        /* \"@openzeppelin/contracts/utils/math/Math.sol\":10462:10467  value */\n      dup4\n        /* \"@openzeppelin/contracts/utils/math/Math.sol\":10462:10476  value >= 10**4 */\n      lt\n        /* \"@openzeppelin/contracts/utils/math/Math.sol\":10458:10554  if (value >= 10**4) {... */\n      tag_271\n      jumpi\n        /* \"@openzeppelin/contracts/utils/math/Math.sol\":10505:10510  10**4 */\n      0x2710\n        /* \"@openzeppelin/contracts/utils/math/Math.sol\":10496:10510  value /= 10**4 */\n      dup4\n      dup2\n      tag_272\n      jumpi\n      tag_273\n      tag_256\n      jump\t// in\n    tag_273:\n    tag_272:\n      div\n      swap3\n      pop\n        /* \"@openzeppelin/contracts/utils/math/Math.sol\":10538:10539  4 */\n      0x04\n        /* \"@openzeppelin/contracts/utils/math/Math.sol\":10528:10539  result += 4 */\n      dup2\n      add\n      swap1\n      pop\n        /* \"@openzeppelin/contracts/utils/math/Math.sol\":10458:10554  if (value >= 10**4) {... */\n    tag_271:\n        /* \"@openzeppelin/contracts/utils/math/Math.sol\":10580:10585  10**2 */\n      0x64\n        /* \"@openzeppelin/contracts/utils/math/Math.sol\":10571:10576  value */\n      dup4\n        /* \"@openzeppelin/contracts/utils/math/Math.sol\":10571:10585  value >= 10**2 */\n      lt\n        /* \"@openzeppelin/contracts/utils/math/Math.sol\":10567:10663  if (value >= 10**2) {... */\n      tag_274\n      jumpi\n        /* \"@openzeppelin/contracts/utils/math/Math.sol\":10614:10619  10**2 */\n      0x64\n        /* \"@openzeppelin/contracts/utils/math/Math.sol\":10605:10619  value /= 10**2 */\n      dup4\n      dup2\n      tag_275\n      jumpi\n      tag_276\n      tag_256\n      jump\t// in\n    tag_276:\n    tag_275:\n      div\n      swap3\n      pop\n        /* \"@openzeppelin/contracts/utils/math/Math.sol\":10647:10648  2 */\n      0x02\n        /* \"@openzeppelin/contracts/utils/math/Math.sol\":10637:10648  result += 2 */\n      dup2\n      add\n      swap1\n      pop\n        /* \"@openzeppelin/contracts/utils/math/Math.sol\":10567:10663  if (value >= 10**2) {... */\n    tag_274:\n        /* \"@openzeppelin/contracts/utils/math/Math.sol\":10689:10694  10**1 */\n      0x0a\n        /* \"@openzeppelin/contracts/utils/math/Math.sol\":10680:10685  value */\n      dup4\n        /* \"@openzeppelin/contracts/utils/math/Math.sol\":10680:10694  value >= 10**1 */\n      lt\n        /* \"@openzeppelin/contracts/utils/math/Math.sol\":10676:10740  if (value >= 10**1) {... */\n      tag_277\n      jumpi\n        /* \"@openzeppelin/contracts/utils/math/Math.sol\":10724:10725  1 */\n      0x01\n        /* \"@openzeppelin/contracts/utils/math/Math.sol\":10714:10725  result += 1 */\n      dup2\n      add\n      swap1\n      pop\n        /* \"@openzeppelin/contracts/utils/math/Math.sol\":10676:10740  if (value >= 10**1) {... */\n    tag_277:\n        /* \"@openzeppelin/contracts/utils/math/Math.sol\":10766:10772  result */\n      dup1\n        /* \"@openzeppelin/contracts/utils/math/Math.sol\":10759:10772  return result */\n      swap2\n      pop\n      pop\n        /* \"@openzeppelin/contracts/utils/math/Math.sol\":9889:10779  function log10(uint256 value) internal pure returns (uint256) {... */\n      swap2\n      swap1\n      pop\n      jump\t// out\n    tag_171:\n      pop\n      dup1\n      sload\n      0x00\n      dup3\n      sstore\n      0x03\n      mul\n      swap1\n      0x00\n      mstore\n      keccak256(0x00, 0x20)\n      swap1\n      dup2\n      add\n      swap1\n      tag_279\n      swap2\n      swap1\n      tag_280\n      jump\t// in\n    tag_279:\n      pop\n      jump\t// out\n    tag_176:\n      pop\n      dup1\n      sload\n      0x00\n      dup3\n      sstore\n      swap1\n      0x00\n      mstore\n      keccak256(0x00, 0x20)\n      swap1\n      dup2\n      add\n      swap1\n      tag_282\n      swap2\n      swap1\n      tag_283\n      jump\t// in\n    tag_282:\n      pop\n      jump\t// out\n    tag_178:\n      pop\n      dup1\n      sload\n      0x00\n      dup3\n      sstore\n      0x03\n      mul\n      swap1\n      0x00\n      mstore\n      keccak256(0x00, 0x20)\n      swap1\n      dup2\n      add\n      swap1\n      tag_285\n      swap2\n      swap1\n      tag_286\n      jump\t// in\n    tag_285:\n      pop\n      jump\t// out\n    tag_280:\n    tag_287:\n      dup1\n      dup3\n      gt\n      iszero\n      tag_288\n      jumpi\n      0x00\n      dup1\n      dup3\n      add\n      exp(0x0100, 0x00)\n      dup2\n      sload\n      swap1\n      0xffffffffffffffffffffffffffffffffffffffff\n      mul\n      not\n      and\n      swap1\n      sstore\n      0x01\n      dup3\n      add\n      0x00\n      swap1\n      sstore\n      0x02\n      dup3\n      add\n      0x00\n      tag_289\n      swap2\n      swap1\n      tag_290\n      jump\t// in\n    tag_289:\n      pop\n      0x03\n      add\n      jump(tag_287)\n    tag_288:\n      pop\n      swap1\n      jump\t// out\n    tag_283:\n    tag_291:\n      dup1\n      dup3\n      gt\n      iszero\n      tag_292\n      jumpi\n      0x00\n      dup2\n      0x00\n      swap1\n      sstore\n      pop\n      0x01\n      add\n      jump(tag_291)\n    tag_292:\n      pop\n      swap1\n      jump\t// out\n    tag_286:\n    tag_293:\n      dup1\n      dup3\n      gt\n      iszero\n      tag_294\n      jumpi\n      0x00\n      dup1\n      dup3\n      add\n      0x00\n      swap1\n      sstore\n      0x01\n      dup3\n      add\n      exp(0x0100, 0x00)\n      dup2\n      sload\n      swap1\n      0xffffffffffffffffffffffffffffffffffffffff\n      mul\n      not\n      and\n      swap1\n      sstore\n      0x02\n      dup3\n      add\n      0x00\n      tag_295\n      swap2\n      swap1\n      tag_290\n      jump\t// in\n    tag_295:\n      pop\n      0x03\n      add\n      jump(tag_293)\n    tag_294:\n      pop\n      swap1\n      jump\t// out\n    tag_290:\n      pop\n      dup1\n      sload\n      tag_296\n      swap1\n      tag_135\n      jump\t// in\n    tag_296:\n      0x00\n      dup3\n      sstore\n      dup1\n      0x1f\n      lt\n      tag_298\n      jumpi\n      pop\n      jump(tag_297)\n    tag_298:\n      0x1f\n      add\n      0x20\n      swap1\n      div\n      swap1\n      0x00\n      mstore\n      keccak256(0x00, 0x20)\n      swap1\n      dup2\n      add\n      swap1\n      tag_299\n      swap2\n      swap1\n      tag_283\n      jump\t// in\n    tag_299:\n    tag_297:\n      pop\n      jump\t// out\n        /* \"#utility.yul\":7:133   */\n    tag_300:\n        /* \"#utility.yul\":44:51   */\n      0x00\n        /* \"#utility.yul\":84:126   */\n      0xffffffffffffffffffffffffffffffffffffffff\n        /* \"#utility.yul\":77:82   */\n      dup3\n        /* \"#utility.yul\":73:127   */\n      and\n        /* \"#utility.yul\":62:127   */\n      swap1\n      pop\n        /* \"#utility.yul\":7:133   */\n      swap2\n      swap1\n      pop\n      jump\t// out\n        /* \"#utility.yul\":139:235   */\n    tag_301:\n        /* \"#utility.yul\":176:183   */\n      0x00\n        /* \"#utility.yul\":205:229   */\n      tag_371\n        /* \"#utility.yul\":223:228   */\n      dup3\n        /* \"#utility.yul\":205:229   */\n      tag_300\n      jump\t// in\n    tag_371:\n        /* \"#utility.yul\":194:229   */\n      swap1\n      pop\n        /* \"#utility.yul\":139:235   */\n      swap2\n      swap1\n      pop\n      jump\t// out\n        /* \"#utility.yul\":241:359   */\n    tag_302:\n        /* \"#utility.yul\":328:352   */\n      tag_373\n        /* \"#utility.yul\":346:351   */\n      dup2\n        /* \"#utility.yul\":328:352   */\n      tag_301\n      jump\t// in\n    tag_373:\n        /* \"#utility.yul\":323:326   */\n      dup3\n        /* \"#utility.yul\":316:353   */\n      mstore\n        /* \"#utility.yul\":241:359   */\n      pop\n      pop\n      jump\t// out\n        /* \"#utility.yul\":365:587   */\n    tag_24:\n        /* \"#utility.yul\":458:462   */\n      0x00\n        /* \"#utility.yul\":496:498   */\n      0x20\n        /* \"#utility.yul\":485:494   */\n      dup3\n        /* \"#utility.yul\":481:499   */\n      add\n        /* \"#utility.yul\":473:499   */\n      swap1\n      pop\n        /* \"#utility.yul\":509:580   */\n      tag_375\n        /* \"#utility.yul\":577:578   */\n      0x00\n        /* \"#utility.yul\":566:575   */\n      dup4\n        /* \"#utility.yul\":562:579   */\n      add\n        /* \"#utility.yul\":553:559   */\n      dup5\n        /* \"#utility.yul\":509:580   */\n      tag_302\n      jump\t// in\n    tag_375:\n        /* \"#utility.yul\":365:587   */\n      swap3\n      swap2\n      pop\n      pop\n      jump\t// out\n        /* \"#utility.yul\":593:668   */\n    tag_303:\n        /* \"#utility.yul\":626:632   */\n      0x00\n        /* \"#utility.yul\":659:661   */\n      0x40\n        /* \"#utility.yul\":653:662   */\n      mload\n        /* \"#utility.yul\":643:662   */\n      swap1\n      pop\n        /* \"#utility.yul\":593:668   */\n      swap1\n      jump\t// out\n        /* \"#utility.yul\":674:791   */\n    tag_304:\n        /* \"#utility.yul\":783:784   */\n      0x00\n        /* \"#utility.yul\":780:781   */\n      dup1\n        /* \"#utility.yul\":773:785   */\n      revert\n        /* \"#utility.yul\":797:914   */\n    tag_305:\n        /* \"#utility.yul\":906:907   */\n      0x00\n        /* \"#utility.yul\":903:904   */\n      dup1\n        /* \"#utility.yul\":896:908   */\n      revert\n        /* \"#utility.yul\":920:997   */\n    tag_306:\n        /* \"#utility.yul\":957:964   */\n      0x00\n        /* \"#utility.yul\":986:991   */\n      dup2\n        /* \"#utility.yul\":975:991   */\n      swap1\n      pop\n        /* \"#utility.yul\":920:997   */\n      swap2\n      swap1\n      pop\n      jump\t// out\n        /* \"#utility.yul\":1003:1125   */\n    tag_307:\n        /* \"#utility.yul\":1076:1100   */\n      tag_381\n        /* \"#utility.yul\":1094:1099   */\n      dup2\n        /* \"#utility.yul\":1076:1100   */\n      tag_306\n      jump\t// in\n    tag_381:\n        /* \"#utility.yul\":1069:1074   */\n      dup2\n        /* \"#utility.yul\":1066:1101   */\n      eq\n        /* \"#utility.yul\":1056:1119   */\n      tag_382\n      jumpi\n        /* \"#utility.yul\":1115:1116   */\n      0x00\n        /* \"#utility.yul\":1112:1113   */\n      dup1\n        /* \"#utility.yul\":1105:1117   */\n      revert\n        /* \"#utility.yul\":1056:1119   */\n    tag_382:\n        /* \"#utility.yul\":1003:1125   */\n      pop\n      jump\t// out\n        /* \"#utility.yul\":1131:1270   */\n    tag_308:\n        /* \"#utility.yul\":1177:1182   */\n      0x00\n        /* \"#utility.yul\":1215:1221   */\n      dup2\n        /* \"#utility.yul\":1202:1222   */\n      calldataload\n        /* \"#utility.yul\":1193:1222   */\n      swap1\n      pop\n        /* \"#utility.yul\":1231:1264   */\n      tag_384\n        /* \"#utility.yul\":1258:1263   */\n      dup2\n        /* \"#utility.yul\":1231:1264   */\n      tag_307\n      jump\t// in\n    tag_384:\n        /* \"#utility.yul\":1131:1270   */\n      swap3\n      swap2\n      pop\n      pop\n      jump\t// out\n        /* \"#utility.yul\":1276:1393   */\n    tag_309:\n        /* \"#utility.yul\":1385:1386   */\n      0x00\n        /* \"#utility.yul\":1382:1383   */\n      dup1\n        /* \"#utility.yul\":1375:1387   */\n      revert\n        /* \"#utility.yul\":1399:1516   */\n    tag_310:\n        /* \"#utility.yul\":1508:1509   */\n      0x00\n        /* \"#utility.yul\":1505:1506   */\n      dup1\n        /* \"#utility.yul\":1498:1510   */\n      revert\n        /* \"#utility.yul\":1522:1624   */\n    tag_311:\n        /* \"#utility.yul\":1563:1569   */\n      0x00\n        /* \"#utility.yul\":1614:1616   */\n      0x1f\n        /* \"#utility.yul\":1610:1617   */\n      not\n        /* \"#utility.yul\":1605:1607   */\n      0x1f\n        /* \"#utility.yul\":1598:1603   */\n      dup4\n        /* \"#utility.yul\":1594:1608   */\n      add\n        /* \"#utility.yul\":1590:1618   */\n      and\n        /* \"#utility.yul\":1580:1618   */\n      swap1\n      pop\n        /* \"#utility.yul\":1522:1624   */\n      swap2\n      swap1\n      pop\n      jump\t// out\n        /* \"#utility.yul\":1630:1810   */\n    tag_250:\n        /* \"#utility.yul\":1678:1755   */\n      0x4e487b7100000000000000000000000000000000000000000000000000000000\n        /* \"#utility.yul\":1675:1676   */\n      0x00\n        /* \"#utility.yul\":1668:1756   */\n      mstore\n        /* \"#utility.yul\":1775:1779   */\n      0x41\n        /* \"#utility.yul\":1772:1773   */\n      0x04\n        /* \"#utility.yul\":1765:1780   */\n      mstore\n        /* \"#utility.yul\":1799:1803   */\n      0x24\n        /* \"#utility.yul\":1796:1797   */\n      0x00\n        /* \"#utility.yul\":1789:1804   */\n      revert\n        /* \"#utility.yul\":1816:2097   */\n    tag_312:\n        /* \"#utility.yul\":1899:1926   */\n      tag_390\n        /* \"#utility.yul\":1921:1925   */\n      dup3\n        /* \"#utility.yul\":1899:1926   */\n      tag_311\n      jump\t// in\n    tag_390:\n        /* \"#utility.yul\":1891:1897   */\n      dup2\n        /* \"#utility.yul\":1887:1927   */\n      add\n        /* \"#utility.yul\":2029:2035   */\n      dup2\n        /* \"#utility.yul\":2017:2027   */\n      dup2\n        /* \"#utility.yul\":2014:2036   */\n      lt\n        /* \"#utility.yul\":1993:2011   */\n      0xffffffffffffffff\n        /* \"#utility.yul\":1981:1991   */\n      dup3\n        /* \"#utility.yul\":1978:2012   */\n      gt\n        /* \"#utility.yul\":1975:2037   */\n      or\n        /* \"#utility.yul\":1972:2060   */\n      iszero\n      tag_391\n      jumpi\n        /* \"#utility.yul\":2040:2058   */\n      tag_392\n      tag_250\n      jump\t// in\n    tag_392:\n        /* \"#utility.yul\":1972:2060   */\n    tag_391:\n        /* \"#utility.yul\":2080:2090   */\n      dup1\n        /* \"#utility.yul\":2076:2078   */\n      0x40\n        /* \"#utility.yul\":2069:2091   */\n      mstore\n        /* \"#utility.yul\":1859:2097   */\n      pop\n        /* \"#utility.yul\":1816:2097   */\n      pop\n      pop\n      jump\t// out\n        /* \"#utility.yul\":2103:2232   */\n    tag_313:\n        /* \"#utility.yul\":2137:2143   */\n      0x00\n        /* \"#utility.yul\":2164:2184   */\n      tag_394\n      tag_303\n      jump\t// in\n    tag_394:\n        /* \"#utility.yul\":2154:2184   */\n      swap1\n      pop\n        /* \"#utility.yul\":2193:2226   */\n      tag_395\n        /* \"#utility.yul\":2221:2225   */\n      dup3\n        /* \"#utility.yul\":2213:2219   */\n      dup3\n        /* \"#utility.yul\":2193:2226   */\n      tag_312\n      jump\t// in\n    tag_395:\n        /* \"#utility.yul\":2103:2232   */\n      swap2\n      swap1\n      pop\n      jump\t// out\n        /* \"#utility.yul\":2238:2546   */\n    tag_314:\n        /* \"#utility.yul\":2300:2304   */\n      0x00\n        /* \"#utility.yul\":2390:2408   */\n      0xffffffffffffffff\n        /* \"#utility.yul\":2382:2388   */\n      dup3\n        /* \"#utility.yul\":2379:2409   */\n      gt\n        /* \"#utility.yul\":2376:2432   */\n      iszero\n      tag_397\n      jumpi\n        /* \"#utility.yul\":2412:2430   */\n      tag_398\n      tag_250\n      jump\t// in\n    tag_398:\n        /* \"#utility.yul\":2376:2432   */\n    tag_397:\n        /* \"#utility.yul\":2450:2479   */\n      tag_399\n        /* \"#utility.yul\":2472:2478   */\n      dup3\n        /* \"#utility.yul\":2450:2479   */\n      tag_311\n      jump\t// in\n    tag_399:\n        /* \"#utility.yul\":2442:2479   */\n      swap1\n      pop\n        /* \"#utility.yul\":2534:2538   */\n      0x20\n        /* \"#utility.yul\":2528:2532   */\n      dup2\n        /* \"#utility.yul\":2524:2539   */\n      add\n        /* \"#utility.yul\":2516:2539   */\n      swap1\n      pop\n        /* \"#utility.yul\":2238:2546   */\n      swap2\n      swap1\n      pop\n      jump\t// out\n        /* \"#utility.yul\":2552:2698   */\n    tag_315:\n        /* \"#utility.yul\":2649:2655   */\n      dup3\n        /* \"#utility.yul\":2644:2647   */\n      dup2\n        /* \"#utility.yul\":2639:2642   */\n      dup4\n        /* \"#utility.yul\":2626:2656   */\n      calldatacopy\n        /* \"#utility.yul\":2690:2691   */\n      0x00\n        /* \"#utility.yul\":2681:2687   */\n      dup4\n        /* \"#utility.yul\":2676:2679   */\n      dup4\n        /* \"#utility.yul\":2672:2688   */\n      add\n        /* \"#utility.yul\":2665:2692   */\n      mstore\n        /* \"#utility.yul\":2552:2698   */\n      pop\n      pop\n      pop\n      jump\t// out\n        /* \"#utility.yul\":2704:3129   */\n    tag_316:\n        /* \"#utility.yul\":2782:2787   */\n      0x00\n        /* \"#utility.yul\":2807:2873   */\n      tag_402\n        /* \"#utility.yul\":2823:2872   */\n      tag_403\n        /* \"#utility.yul\":2865:2871   */\n      dup5\n        /* \"#utility.yul\":2823:2872   */\n      tag_314\n      jump\t// in\n    tag_403:\n        /* \"#utility.yul\":2807:2873   */\n      tag_313\n      jump\t// in\n    tag_402:\n        /* \"#utility.yul\":2798:2873   */\n      swap1\n      pop\n        /* \"#utility.yul\":2896:2902   */\n      dup3\n        /* \"#utility.yul\":2889:2894   */\n      dup2\n        /* \"#utility.yul\":2882:2903   */\n      mstore\n        /* \"#utility.yul\":2934:2938   */\n      0x20\n        /* \"#utility.yul\":2927:2932   */\n      dup2\n        /* \"#utility.yul\":2923:2939   */\n      add\n        /* \"#utility.yul\":2972:2975   */\n      dup5\n        /* \"#utility.yul\":2963:2969   */\n      dup5\n        /* \"#utility.yul\":2958:2961   */\n      dup5\n        /* \"#utility.yul\":2954:2970   */\n      add\n        /* \"#utility.yul\":2951:2976   */\n      gt\n        /* \"#utility.yul\":2948:3060   */\n      iszero\n      tag_404\n      jumpi\n        /* \"#utility.yul\":2979:3058   */\n      tag_405\n      tag_310\n      jump\t// in\n    tag_405:\n        /* \"#utility.yul\":2948:3060   */\n    tag_404:\n        /* \"#utility.yul\":3069:3123   */\n      tag_406\n        /* \"#utility.yul\":3116:3122   */\n      dup5\n        /* \"#utility.yul\":3111:3114   */\n      dup3\n        /* \"#utility.yul\":3106:3109   */\n      dup6\n        /* \"#utility.yul\":3069:3123   */\n      tag_315\n      jump\t// in\n    tag_406:\n        /* \"#utility.yul\":2788:3129   */\n      pop\n        /* \"#utility.yul\":2704:3129   */\n      swap4\n      swap3\n      pop\n      pop\n      pop\n      jump\t// out\n        /* \"#utility.yul\":3149:3489   */\n    tag_317:\n        /* \"#utility.yul\":3205:3210   */\n      0x00\n        /* \"#utility.yul\":3254:3257   */\n      dup3\n        /* \"#utility.yul\":3247:3251   */\n      0x1f\n        /* \"#utility.yul\":3239:3245   */\n      dup4\n        /* \"#utility.yul\":3235:3252   */\n      add\n        /* \"#utility.yul\":3231:3258   */\n      slt\n        /* \"#utility.yul\":3221:3343   */\n      tag_408\n      jumpi\n        /* \"#utility.yul\":3262:3341   */\n      tag_409\n      tag_309\n      jump\t// in\n    tag_409:\n        /* \"#utility.yul\":3221:3343   */\n    tag_408:\n        /* \"#utility.yul\":3379:3385   */\n      dup2\n        /* \"#utility.yul\":3366:3386   */\n      calldataload\n        /* \"#utility.yul\":3404:3483   */\n      tag_410\n        /* \"#utility.yul\":3479:3482   */\n      dup5\n        /* \"#utility.yul\":3471:3477   */\n      dup3\n        /* \"#utility.yul\":3464:3468   */\n      0x20\n        /* \"#utility.yul\":3456:3462   */\n      dup7\n        /* \"#utility.yul\":3452:3469   */\n      add\n        /* \"#utility.yul\":3404:3483   */\n      tag_316\n      jump\t// in\n    tag_410:\n        /* \"#utility.yul\":3395:3483   */\n      swap2\n      pop\n        /* \"#utility.yul\":3211:3489   */\n      pop\n        /* \"#utility.yul\":3149:3489   */\n      swap3\n      swap2\n      pop\n      pop\n      jump\t// out\n        /* \"#utility.yul\":3495:4149   */\n    tag_27:\n        /* \"#utility.yul\":3573:3579   */\n      0x00\n        /* \"#utility.yul\":3581:3587   */\n      dup1\n        /* \"#utility.yul\":3630:3632   */\n      0x40\n        /* \"#utility.yul\":3618:3627   */\n      dup4\n        /* \"#utility.yul\":3609:3616   */\n      dup6\n        /* \"#utility.yul\":3605:3628   */\n      sub\n        /* \"#utility.yul\":3601:3633   */\n      slt\n        /* \"#utility.yul\":3598:3717   */\n      iszero\n      tag_412\n      jumpi\n        /* \"#utility.yul\":3636:3715   */\n      tag_413\n      tag_304\n      jump\t// in\n    tag_413:\n        /* \"#utility.yul\":3598:3717   */\n    tag_412:\n        /* \"#utility.yul\":3756:3757   */\n      0x00\n        /* \"#utility.yul\":3781:3834   */\n      tag_414\n        /* \"#utility.yul\":3826:3833   */\n      dup6\n        /* \"#utility.yul\":3817:3823   */\n      dup3\n        /* \"#utility.yul\":3806:3815   */\n      dup7\n        /* \"#utility.yul\":3802:3824   */\n      add\n        /* \"#utility.yul\":3781:3834   */\n      tag_308\n      jump\t// in\n    tag_414:\n        /* \"#utility.yul\":3771:3834   */\n      swap3\n      pop\n        /* \"#utility.yul\":3727:3844   */\n      pop\n        /* \"#utility.yul\":3911:3913   */\n      0x20\n        /* \"#utility.yul\":3900:3909   */\n      dup4\n        /* \"#utility.yul\":3896:3914   */\n      add\n        /* \"#utility.yul\":3883:3915   */\n      calldataload\n        /* \"#utility.yul\":3942:3960   */\n      0xffffffffffffffff\n        /* \"#utility.yul\":3934:3940   */\n      dup2\n        /* \"#utility.yul\":3931:3961   */\n      gt\n        /* \"#utility.yul\":3928:4045   */\n      iszero\n      tag_415\n      jumpi\n        /* \"#utility.yul\":3964:4043   */\n      tag_416\n      tag_305\n      jump\t// in\n    tag_416:\n        /* \"#utility.yul\":3928:4045   */\n    tag_415:\n        /* \"#utility.yul\":4069:4132   */\n      tag_417\n        /* \"#utility.yul\":4124:4131   */\n      dup6\n        /* \"#utility.yul\":4115:4121   */\n      dup3\n        /* \"#utility.yul\":4104:4113   */\n      dup7\n        /* \"#utility.yul\":4100:4122   */\n      add\n        /* \"#utility.yul\":4069:4132   */\n      tag_317\n      jump\t// in\n    tag_417:\n        /* \"#utility.yul\":4059:4132   */\n      swap2\n      pop\n        /* \"#utility.yul\":3854:4142   */\n      pop\n        /* \"#utility.yul\":3495:4149   */\n      swap3\n      pop\n      swap3\n      swap1\n      pop\n      jump\t// out\n        /* \"#utility.yul\":4155:4277   */\n    tag_318:\n        /* \"#utility.yul\":4228:4252   */\n      tag_419\n        /* \"#utility.yul\":4246:4251   */\n      dup2\n        /* \"#utility.yul\":4228:4252   */\n      tag_301\n      jump\t// in\n    tag_419:\n        /* \"#utility.yul\":4221:4226   */\n      dup2\n        /* \"#utility.yul\":4218:4253   */\n      eq\n        /* \"#utility.yul\":4208:4271   */\n      tag_420\n      jumpi\n        /* \"#utility.yul\":4267:4268   */\n      0x00\n        /* \"#utility.yul\":4264:4265   */\n      dup1\n        /* \"#utility.yul\":4257:4269   */\n      revert\n        /* \"#utility.yul\":4208:4271   */\n    tag_420:\n        /* \"#utility.yul\":4155:4277   */\n      pop\n      jump\t// out\n        /* \"#utility.yul\":4283:4422   */\n    tag_319:\n        /* \"#utility.yul\":4329:4334   */\n      0x00\n        /* \"#utility.yul\":4367:4373   */\n      dup2\n        /* \"#utility.yul\":4354:4374   */\n      calldataload\n        /* \"#utility.yul\":4345:4374   */\n      swap1\n      pop\n        /* \"#utility.yul\":4383:4416   */\n      tag_422\n        /* \"#utility.yul\":4410:4415   */\n      dup2\n        /* \"#utility.yul\":4383:4416   */\n      tag_318\n      jump\t// in\n    tag_422:\n        /* \"#utility.yul\":4283:4422   */\n      swap3\n      swap2\n      pop\n      pop\n      jump\t// out\n        /* \"#utility.yul\":4428:4757   */\n    tag_31:\n        /* \"#utility.yul\":4487:4493   */\n      0x00\n        /* \"#utility.yul\":4536:4538   */\n      0x20\n        /* \"#utility.yul\":4524:4533   */\n      dup3\n        /* \"#utility.yul\":4515:4522   */\n      dup5\n        /* \"#utility.yul\":4511:4534   */\n      sub\n        /* \"#utility.yul\":4507:4539   */\n      slt\n        /* \"#utility.yul\":4504:4623   */\n      iszero\n      tag_424\n      jumpi\n        /* \"#utility.yul\":4542:4621   */\n      tag_425\n      tag_304\n      jump\t// in\n    tag_425:\n        /* \"#utility.yul\":4504:4623   */\n    tag_424:\n        /* \"#utility.yul\":4662:4663   */\n      0x00\n        /* \"#utility.yul\":4687:4740   */\n      tag_426\n        /* \"#utility.yul\":4732:4739   */\n      dup5\n        /* \"#utility.yul\":4723:4729   */\n      dup3\n        /* \"#utility.yul\":4712:4721   */\n      dup6\n        /* \"#utility.yul\":4708:4730   */\n      add\n        /* \"#utility.yul\":4687:4740   */\n      tag_319\n      jump\t// in\n    tag_426:\n        /* \"#utility.yul\":4677:4740   */\n      swap2\n      pop\n        /* \"#utility.yul\":4633:4750   */\n      pop\n        /* \"#utility.yul\":4428:4757   */\n      swap3\n      swap2\n      pop\n      pop\n      jump\t// out\n        /* \"#utility.yul\":4763:4840   */\n    tag_320:\n        /* \"#utility.yul\":4800:4807   */\n      0x00\n        /* \"#utility.yul\":4829:4834   */\n      dup2\n        /* \"#utility.yul\":4818:4834   */\n      swap1\n      pop\n        /* \"#utility.yul\":4763:4840   */\n      swap2\n      swap1\n      pop\n      jump\t// out\n        /* \"#utility.yul\":4846:4964   */\n    tag_321:\n        /* \"#utility.yul\":4933:4957   */\n      tag_429\n        /* \"#utility.yul\":4951:4956   */\n      dup2\n        /* \"#utility.yul\":4933:4957   */\n      tag_320\n      jump\t// in\n    tag_429:\n        /* \"#utility.yul\":4928:4931   */\n      dup3\n        /* \"#utility.yul\":4921:4958   */\n      mstore\n        /* \"#utility.yul\":4846:4964   */\n      pop\n      pop\n      jump\t// out\n        /* \"#utility.yul\":4970:5192   */\n    tag_34:\n        /* \"#utility.yul\":5063:5067   */\n      0x00\n        /* \"#utility.yul\":5101:5103   */\n      0x20\n        /* \"#utility.yul\":5090:5099   */\n      dup3\n        /* \"#utility.yul\":5086:5104   */\n      add\n        /* \"#utility.yul\":5078:5104   */\n      swap1\n      pop\n        /* \"#utility.yul\":5114:5185   */\n      tag_431\n        /* \"#utility.yul\":5182:5183   */\n      0x00\n        /* \"#utility.yul\":5171:5180   */\n      dup4\n        /* \"#utility.yul\":5167:5184   */\n      add\n        /* \"#utility.yul\":5158:5164   */\n      dup5\n        /* \"#utility.yul\":5114:5185   */\n      tag_321\n      jump\t// in\n    tag_431:\n        /* \"#utility.yul\":4970:5192   */\n      swap3\n      swap2\n      pop\n      pop\n      jump\t// out\n        /* \"#utility.yul\":5198:5527   */\n    tag_45:\n        /* \"#utility.yul\":5257:5263   */\n      0x00\n        /* \"#utility.yul\":5306:5308   */\n      0x20\n        /* \"#utility.yul\":5294:5303   */\n      dup3\n        /* \"#utility.yul\":5285:5292   */\n      dup5\n        /* \"#utility.yul\":5281:5304   */\n      sub\n        /* \"#utility.yul\":5277:5309   */\n      slt\n        /* \"#utility.yul\":5274:5393   */\n      iszero\n      tag_433\n      jumpi\n        /* \"#utility.yul\":5312:5391   */\n      tag_434\n      tag_304\n      jump\t// in\n    tag_434:\n        /* \"#utility.yul\":5274:5393   */\n    tag_433:\n        /* \"#utility.yul\":5432:5433   */\n      0x00\n        /* \"#utility.yul\":5457:5510   */\n      tag_435\n        /* \"#utility.yul\":5502:5509   */\n      dup5\n        /* \"#utility.yul\":5493:5499   */\n      dup3\n        /* \"#utility.yul\":5482:5491   */\n      dup6\n        /* \"#utility.yul\":5478:5500   */\n      add\n        /* \"#utility.yul\":5457:5510   */\n      tag_308\n      jump\t// in\n    tag_435:\n        /* \"#utility.yul\":5447:5510   */\n      swap2\n      pop\n        /* \"#utility.yul\":5403:5520   */\n      pop\n        /* \"#utility.yul\":5198:5527   */\n      swap3\n      swap2\n      pop\n      pop\n      jump\t// out\n        /* \"#utility.yul\":5533:5651   */\n    tag_322:\n        /* \"#utility.yul\":5620:5644   */\n      tag_437\n        /* \"#utility.yul\":5638:5643   */\n      dup2\n        /* \"#utility.yul\":5620:5644   */\n      tag_306\n      jump\t// in\n    tag_437:\n        /* \"#utility.yul\":5615:5618   */\n      dup3\n        /* \"#utility.yul\":5608:5645   */\n      mstore\n        /* \"#utility.yul\":5533:5651   */\n      pop\n      pop\n      jump\t// out\n        /* \"#utility.yul\":5657:5756   */\n    tag_323:\n        /* \"#utility.yul\":5709:5715   */\n      0x00\n        /* \"#utility.yul\":5743:5748   */\n      dup2\n        /* \"#utility.yul\":5737:5749   */\n      mload\n        /* \"#utility.yul\":5727:5749   */\n      swap1\n      pop\n        /* \"#utility.yul\":5657:5756   */\n      swap2\n      swap1\n      pop\n      jump\t// out\n        /* \"#utility.yul\":5762:5931   */\n    tag_324:\n        /* \"#utility.yul\":5846:5857   */\n      0x00\n        /* \"#utility.yul\":5880:5886   */\n      dup3\n        /* \"#utility.yul\":5875:5878   */\n      dup3\n        /* \"#utility.yul\":5868:5887   */\n      mstore\n        /* \"#utility.yul\":5920:5924   */\n      0x20\n        /* \"#utility.yul\":5915:5918   */\n      dup3\n        /* \"#utility.yul\":5911:5925   */\n      add\n        /* \"#utility.yul\":5896:5925   */\n      swap1\n      pop\n        /* \"#utility.yul\":5762:5931   */\n      swap3\n      swap2\n      pop\n      pop\n      jump\t// out\n        /* \"#utility.yul\":5937:6183   */\n    tag_325:\n        /* \"#utility.yul\":6018:6019   */\n      0x00\n        /* \"#utility.yul\":6028:6141   */\n    tag_441:\n        /* \"#utility.yul\":6042:6048   */\n      dup4\n        /* \"#utility.yul\":6039:6040   */\n      dup2\n        /* \"#utility.yul\":6036:6049   */\n      lt\n        /* \"#utility.yul\":6028:6141   */\n      iszero\n      tag_443\n      jumpi\n        /* \"#utility.yul\":6127:6128   */\n      dup1\n        /* \"#utility.yul\":6122:6125   */\n      dup3\n        /* \"#utility.yul\":6118:6129   */\n      add\n        /* \"#utility.yul\":6112:6130   */\n      mload\n        /* \"#utility.yul\":6108:6109   */\n      dup2\n        /* \"#utility.yul\":6103:6106   */\n      dup5\n        /* \"#utility.yul\":6099:6110   */\n      add\n        /* \"#utility.yul\":6092:6131   */\n      mstore\n        /* \"#utility.yul\":6064:6066   */\n      0x20\n        /* \"#utility.yul\":6061:6062   */\n      dup2\n        /* \"#utility.yul\":6057:6067   */\n      add\n        /* \"#utility.yul\":6052:6067   */\n      swap1\n      pop\n        /* \"#utility.yul\":6028:6141   */\n      jump(tag_441)\n    tag_443:\n        /* \"#utility.yul\":6175:6176   */\n      0x00\n        /* \"#utility.yul\":6166:6172   */\n      dup5\n        /* \"#utility.yul\":6161:6164   */\n      dup5\n        /* \"#utility.yul\":6157:6173   */\n      add\n        /* \"#utility.yul\":6150:6177   */\n      mstore\n        /* \"#utility.yul\":5999:6183   */\n      pop\n        /* \"#utility.yul\":5937:6183   */\n      pop\n      pop\n      pop\n      jump\t// out\n        /* \"#utility.yul\":6189:6566   */\n    tag_326:\n        /* \"#utility.yul\":6277:6280   */\n      0x00\n        /* \"#utility.yul\":6305:6344   */\n      tag_445\n        /* \"#utility.yul\":6338:6343   */\n      dup3\n        /* \"#utility.yul\":6305:6344   */\n      tag_323\n      jump\t// in\n    tag_445:\n        /* \"#utility.yul\":6360:6431   */\n      tag_446\n        /* \"#utility.yul\":6424:6430   */\n      dup2\n        /* \"#utility.yul\":6419:6422   */\n      dup6\n        /* \"#utility.yul\":6360:6431   */\n      tag_324\n      jump\t// in\n    tag_446:\n        /* \"#utility.yul\":6353:6431   */\n      swap4\n      pop\n        /* \"#utility.yul\":6440:6505   */\n      tag_447\n        /* \"#utility.yul\":6498:6504   */\n      dup2\n        /* \"#utility.yul\":6493:6496   */\n      dup6\n        /* \"#utility.yul\":6486:6490   */\n      0x20\n        /* \"#utility.yul\":6479:6484   */\n      dup7\n        /* \"#utility.yul\":6475:6491   */\n      add\n        /* \"#utility.yul\":6440:6505   */\n      tag_325\n      jump\t// in\n    tag_447:\n        /* \"#utility.yul\":6530:6559   */\n      tag_448\n        /* \"#utility.yul\":6552:6558   */\n      dup2\n        /* \"#utility.yul\":6530:6559   */\n      tag_311\n      jump\t// in\n    tag_448:\n        /* \"#utility.yul\":6525:6528   */\n      dup5\n        /* \"#utility.yul\":6521:6560   */\n      add\n        /* \"#utility.yul\":6514:6560   */\n      swap2\n      pop\n        /* \"#utility.yul\":6281:6566   */\n      pop\n        /* \"#utility.yul\":6189:6566   */\n      swap3\n      swap2\n      pop\n      pop\n      jump\t// out\n        /* \"#utility.yul\":6572:7105   */\n    tag_48:\n        /* \"#utility.yul\":6741:6745   */\n      0x00\n        /* \"#utility.yul\":6779:6781   */\n      0x60\n        /* \"#utility.yul\":6768:6777   */\n      dup3\n        /* \"#utility.yul\":6764:6782   */\n      add\n        /* \"#utility.yul\":6756:6782   */\n      swap1\n      pop\n        /* \"#utility.yul\":6792:6863   */\n      tag_450\n        /* \"#utility.yul\":6860:6861   */\n      0x00\n        /* \"#utility.yul\":6849:6858   */\n      dup4\n        /* \"#utility.yul\":6845:6862   */\n      add\n        /* \"#utility.yul\":6836:6842   */\n      dup7\n        /* \"#utility.yul\":6792:6863   */\n      tag_322\n      jump\t// in\n    tag_450:\n        /* \"#utility.yul\":6873:6945   */\n      tag_451\n        /* \"#utility.yul\":6941:6943   */\n      0x20\n        /* \"#utility.yul\":6930:6939   */\n      dup4\n        /* \"#utility.yul\":6926:6944   */\n      add\n        /* \"#utility.yul\":6917:6923   */\n      dup6\n        /* \"#utility.yul\":6873:6945   */\n      tag_302\n      jump\t// in\n    tag_451:\n        /* \"#utility.yul\":6992:7001   */\n      dup2\n        /* \"#utility.yul\":6986:6990   */\n      dup2\n        /* \"#utility.yul\":6982:7002   */\n      sub\n        /* \"#utility.yul\":6977:6979   */\n      0x40\n        /* \"#utility.yul\":6966:6975   */\n      dup4\n        /* \"#utility.yul\":6962:6980   */\n      add\n        /* \"#utility.yul\":6955:7003   */\n      mstore\n        /* \"#utility.yul\":7020:7098   */\n      tag_452\n        /* \"#utility.yul\":7093:7097   */\n      dup2\n        /* \"#utility.yul\":7084:7090   */\n      dup5\n        /* \"#utility.yul\":7020:7098   */\n      tag_326\n      jump\t// in\n    tag_452:\n        /* \"#utility.yul\":7012:7098   */\n      swap1\n      pop\n        /* \"#utility.yul\":6572:7105   */\n      swap5\n      swap4\n      pop\n      pop\n      pop\n      pop\n      jump\t// out\n        /* \"#utility.yul\":7111:7424   */\n    tag_52:\n        /* \"#utility.yul\":7224:7228   */\n      0x00\n        /* \"#utility.yul\":7262:7264   */\n      0x20\n        /* \"#utility.yul\":7251:7260   */\n      dup3\n        /* \"#utility.yul\":7247:7265   */\n      add\n        /* \"#utility.yul\":7239:7265   */\n      swap1\n      pop\n        /* \"#utility.yul\":7311:7320   */\n      dup2\n        /* \"#utility.yul\":7305:7309   */\n      dup2\n        /* \"#utility.yul\":7301:7321   */\n      sub\n        /* \"#utility.yul\":7297:7298   */\n      0x00\n        /* \"#utility.yul\":7286:7295   */\n      dup4\n        /* \"#utility.yul\":7282:7299   */\n      add\n        /* \"#utility.yul\":7275:7322   */\n      mstore\n        /* \"#utility.yul\":7339:7417   */\n      tag_454\n        /* \"#utility.yul\":7412:7416   */\n      dup2\n        /* \"#utility.yul\":7403:7409   */\n      dup5\n        /* \"#utility.yul\":7339:7417   */\n      tag_326\n      jump\t// in\n    tag_454:\n        /* \"#utility.yul\":7331:7417   */\n      swap1\n      pop\n        /* \"#utility.yul\":7111:7424   */\n      swap3\n      swap2\n      pop\n      pop\n      jump\t// out\n        /* \"#utility.yul\":7430:8264   */\n    tag_55:\n        /* \"#utility.yul\":7518:7524   */\n      0x00\n        /* \"#utility.yul\":7526:7532   */\n      dup1\n        /* \"#utility.yul\":7575:7577   */\n      0x40\n        /* \"#utility.yul\":7563:7572   */\n      dup4\n        /* \"#utility.yul\":7554:7561   */\n      dup6\n        /* \"#utility.yul\":7550:7573   */\n      sub\n        /* \"#utility.yul\":7546:7578   */\n      slt\n        /* \"#utility.yul\":7543:7662   */\n      iszero\n      tag_456\n      jumpi\n        /* \"#utility.yul\":7581:7660   */\n      tag_457\n      tag_304\n      jump\t// in\n    tag_457:\n        /* \"#utility.yul\":7543:7662   */\n    tag_456:\n        /* \"#utility.yul\":7729:7730   */\n      0x00\n        /* \"#utility.yul\":7718:7727   */\n      dup4\n        /* \"#utility.yul\":7714:7731   */\n      add\n        /* \"#utility.yul\":7701:7732   */\n      calldataload\n        /* \"#utility.yul\":7759:7777   */\n      0xffffffffffffffff\n        /* \"#utility.yul\":7751:7757   */\n      dup2\n        /* \"#utility.yul\":7748:7778   */\n      gt\n        /* \"#utility.yul\":7745:7862   */\n      iszero\n      tag_458\n      jumpi\n        /* \"#utility.yul\":7781:7860   */\n      tag_459\n      tag_305\n      jump\t// in\n    tag_459:\n        /* \"#utility.yul\":7745:7862   */\n    tag_458:\n        /* \"#utility.yul\":7886:7949   */\n      tag_460\n        /* \"#utility.yul\":7941:7948   */\n      dup6\n        /* \"#utility.yul\":7932:7938   */\n      dup3\n        /* \"#utility.yul\":7921:7930   */\n      dup7\n        /* \"#utility.yul\":7917:7939   */\n      add\n        /* \"#utility.yul\":7886:7949   */\n      tag_317\n      jump\t// in\n    tag_460:\n        /* \"#utility.yul\":7876:7949   */\n      swap3\n      pop\n        /* \"#utility.yul\":7672:7959   */\n      pop\n        /* \"#utility.yul\":8026:8028   */\n      0x20\n        /* \"#utility.yul\":8015:8024   */\n      dup4\n        /* \"#utility.yul\":8011:8029   */\n      add\n        /* \"#utility.yul\":7998:8030   */\n      calldataload\n        /* \"#utility.yul\":8057:8075   */\n      0xffffffffffffffff\n        /* \"#utility.yul\":8049:8055   */\n      dup2\n        /* \"#utility.yul\":8046:8076   */\n      gt\n        /* \"#utility.yul\":8043:8160   */\n      iszero\n      tag_461\n      jumpi\n        /* \"#utility.yul\":8079:8158   */\n      tag_462\n      tag_305\n      jump\t// in\n    tag_462:\n        /* \"#utility.yul\":8043:8160   */\n    tag_461:\n        /* \"#utility.yul\":8184:8247   */\n      tag_463\n        /* \"#utility.yul\":8239:8246   */\n      dup6\n        /* \"#utility.yul\":8230:8236   */\n      dup3\n        /* \"#utility.yul\":8219:8228   */\n      dup7\n        /* \"#utility.yul\":8215:8237   */\n      add\n        /* \"#utility.yul\":8184:8247   */\n      tag_317\n      jump\t// in\n    tag_463:\n        /* \"#utility.yul\":8174:8247   */\n      swap2\n      pop\n        /* \"#utility.yul\":7969:8257   */\n      pop\n        /* \"#utility.yul\":7430:8264   */\n      swap3\n      pop\n      swap3\n      swap1\n      pop\n      jump\t// out\n        /* \"#utility.yul\":8270:8803   */\n    tag_61:\n        /* \"#utility.yul\":8439:8443   */\n      0x00\n        /* \"#utility.yul\":8477:8479   */\n      0x60\n        /* \"#utility.yul\":8466:8475   */\n      dup3\n        /* \"#utility.yul\":8462:8480   */\n      add\n        /* \"#utility.yul\":8454:8480   */\n      swap1\n      pop\n        /* \"#utility.yul\":8490:8561   */\n      tag_465\n        /* \"#utility.yul\":8558:8559   */\n      0x00\n        /* \"#utility.yul\":8547:8556   */\n      dup4\n        /* \"#utility.yul\":8543:8560   */\n      add\n        /* \"#utility.yul\":8534:8540   */\n      dup7\n        /* \"#utility.yul\":8490:8561   */\n      tag_302\n      jump\t// in\n    tag_465:\n        /* \"#utility.yul\":8571:8643   */\n      tag_466\n        /* \"#utility.yul\":8639:8641   */\n      0x20\n        /* \"#utility.yul\":8628:8637   */\n      dup4\n        /* \"#utility.yul\":8624:8642   */\n      add\n        /* \"#utility.yul\":8615:8621   */\n      dup6\n        /* \"#utility.yul\":8571:8643   */\n      tag_322\n      jump\t// in\n    tag_466:\n        /* \"#utility.yul\":8690:8699   */\n      dup2\n        /* \"#utility.yul\":8684:8688   */\n      dup2\n        /* \"#utility.yul\":8680:8700   */\n      sub\n        /* \"#utility.yul\":8675:8677   */\n      0x40\n        /* \"#utility.yul\":8664:8673   */\n      dup4\n        /* \"#utility.yul\":8660:8678   */\n      add\n        /* \"#utility.yul\":8653:8701   */\n      mstore\n        /* \"#utility.yul\":8718:8796   */\n      tag_467\n        /* \"#utility.yul\":8791:8795   */\n      dup2\n        /* \"#utility.yul\":8782:8788   */\n      dup5\n        /* \"#utility.yul\":8718:8796   */\n      tag_326\n      jump\t// in\n    tag_467:\n        /* \"#utility.yul\":8710:8796   */\n      swap1\n      pop\n        /* \"#utility.yul\":8270:8803   */\n      swap5\n      swap4\n      pop\n      pop\n      pop\n      pop\n      jump\t// out\n        /* \"#utility.yul\":8809:8931   */\n    tag_327:\n        /* \"#utility.yul\":8882:8906   */\n      tag_469\n        /* \"#utility.yul\":8900:8905   */\n      dup2\n        /* \"#utility.yul\":8882:8906   */\n      tag_320\n      jump\t// in\n    tag_469:\n        /* \"#utility.yul\":8875:8880   */\n      dup2\n        /* \"#utility.yul\":8872:8907   */\n      eq\n        /* \"#utility.yul\":8862:8925   */\n      tag_470\n      jumpi\n        /* \"#utility.yul\":8921:8922   */\n      0x00\n        /* \"#utility.yul\":8918:8919   */\n      dup1\n        /* \"#utility.yul\":8911:8923   */\n      revert\n        /* \"#utility.yul\":8862:8925   */\n    tag_470:\n        /* \"#utility.yul\":8809:8931   */\n      pop\n      jump\t// out\n        /* \"#utility.yul\":8937:9076   */\n    tag_328:\n        /* \"#utility.yul\":8983:8988   */\n      0x00\n        /* \"#utility.yul\":9021:9027   */\n      dup2\n        /* \"#utility.yul\":9008:9028   */\n      calldataload\n        /* \"#utility.yul\":8999:9028   */\n      swap1\n      pop\n        /* \"#utility.yul\":9037:9070   */\n      tag_472\n        /* \"#utility.yul\":9064:9069   */\n      dup2\n        /* \"#utility.yul\":9037:9070   */\n      tag_327\n      jump\t// in\n    tag_472:\n        /* \"#utility.yul\":8937:9076   */\n      swap3\n      swap2\n      pop\n      pop\n      jump\t// out\n        /* \"#utility.yul\":9082:9411   */\n    tag_73:\n        /* \"#utility.yul\":9141:9147   */\n      0x00\n        /* \"#utility.yul\":9190:9192   */\n      0x20\n        /* \"#utility.yul\":9178:9187   */\n      dup3\n        /* \"#utility.yul\":9169:9176   */\n      dup5\n        /* \"#utility.yul\":9165:9188   */\n      sub\n        /* \"#utility.yul\":9161:9193   */\n      slt\n        /* \"#utility.yul\":9158:9277   */\n      iszero\n      tag_474\n      jumpi\n        /* \"#utility.yul\":9196:9275   */\n      tag_475\n      tag_304\n      jump\t// in\n    tag_475:\n        /* \"#utility.yul\":9158:9277   */\n    tag_474:\n        /* \"#utility.yul\":9316:9317   */\n      0x00\n        /* \"#utility.yul\":9341:9394   */\n      tag_476\n        /* \"#utility.yul\":9386:9393   */\n      dup5\n        /* \"#utility.yul\":9377:9383   */\n      dup3\n        /* \"#utility.yul\":9366:9375   */\n      dup6\n        /* \"#utility.yul\":9362:9384   */\n      add\n        /* \"#utility.yul\":9341:9394   */\n      tag_328\n      jump\t// in\n    tag_476:\n        /* \"#utility.yul\":9331:9394   */\n      swap2\n      pop\n        /* \"#utility.yul\":9287:9404   */\n      pop\n        /* \"#utility.yul\":9082:9411   */\n      swap3\n      swap2\n      pop\n      pop\n      jump\t// out\n        /* \"#utility.yul\":9417:9598   */\n    tag_329:\n        /* \"#utility.yul\":9557:9590   */\n      0x5468657265206973206e6f20737461727465642061756374696f6e206e6f7700\n        /* \"#utility.yul\":9553:9554   */\n      0x00\n        /* \"#utility.yul\":9545:9551   */\n      dup3\n        /* \"#utility.yul\":9541:9555   */\n      add\n        /* \"#utility.yul\":9534:9591   */\n      mstore\n        /* \"#utility.yul\":9417:9598   */\n      pop\n      jump\t// out\n        /* \"#utility.yul\":9604:9970   */\n    tag_330:\n        /* \"#utility.yul\":9746:9749   */\n      0x00\n        /* \"#utility.yul\":9767:9834   */\n      tag_479\n        /* \"#utility.yul\":9831:9833   */\n      0x1f\n        /* \"#utility.yul\":9826:9829   */\n      dup4\n        /* \"#utility.yul\":9767:9834   */\n      tag_324\n      jump\t// in\n    tag_479:\n        /* \"#utility.yul\":9760:9834   */\n      swap2\n      pop\n        /* \"#utility.yul\":9843:9936   */\n      tag_480\n        /* \"#utility.yul\":9932:9935   */\n      dup3\n        /* \"#utility.yul\":9843:9936   */\n      tag_329\n      jump\t// in\n    tag_480:\n        /* \"#utility.yul\":9961:9963   */\n      0x20\n        /* \"#utility.yul\":9956:9959   */\n      dup3\n        /* \"#utility.yul\":9952:9964   */\n      add\n        /* \"#utility.yul\":9945:9964   */\n      swap1\n      pop\n        /* \"#utility.yul\":9604:9970   */\n      swap2\n      swap1\n      pop\n      jump\t// out\n        /* \"#utility.yul\":9976:10395   */\n    tag_80:\n        /* \"#utility.yul\":10142:10146   */\n      0x00\n        /* \"#utility.yul\":10180:10182   */\n      0x20\n        /* \"#utility.yul\":10169:10178   */\n      dup3\n        /* \"#utility.yul\":10165:10183   */\n      add\n        /* \"#utility.yul\":10157:10183   */\n      swap1\n      pop\n        /* \"#utility.yul\":10229:10238   */\n      dup2\n        /* \"#utility.yul\":10223:10227   */\n      dup2\n        /* \"#utility.yul\":10219:10239   */\n      sub\n        /* \"#utility.yul\":10215:10216   */\n      0x00\n        /* \"#utility.yul\":10204:10213   */\n      dup4\n        /* \"#utility.yul\":10200:10217   */\n      add\n        /* \"#utility.yul\":10193:10240   */\n      mstore\n        /* \"#utility.yul\":10257:10388   */\n      tag_482\n        /* \"#utility.yul\":10383:10387   */\n      dup2\n        /* \"#utility.yul\":10257:10388   */\n      tag_330\n      jump\t// in\n    tag_482:\n        /* \"#utility.yul\":10249:10388   */\n      swap1\n      pop\n        /* \"#utility.yul\":9976:10395   */\n      swap2\n      swap1\n      pop\n      jump\t// out\n        /* \"#utility.yul\":10401:10632   */\n    tag_331:\n        /* \"#utility.yul\":10541:10575   */\n      0x4f6e6c7920726567697374657264206269646465722063616e2063616c6c2074\n        /* \"#utility.yul\":10537:10538   */\n      0x00\n        /* \"#utility.yul\":10529:10535   */\n      dup3\n        /* \"#utility.yul\":10525:10539   */\n      add\n        /* \"#utility.yul\":10518:10576   */\n      mstore\n        /* \"#utility.yul\":10610:10624   */\n      0x6869732066756e6374696f6e0000000000000000000000000000000000000000\n        /* \"#utility.yul\":10605:10607   */\n      0x20\n        /* \"#utility.yul\":10597:10603   */\n      dup3\n        /* \"#utility.yul\":10593:10608   */\n      add\n        /* \"#utility.yul\":10586:10625   */\n      mstore\n        /* \"#utility.yul\":10401:10632   */\n      pop\n      jump\t// out\n        /* \"#utility.yul\":10638:11004   */\n    tag_332:\n        /* \"#utility.yul\":10780:10783   */\n      0x00\n        /* \"#utility.yul\":10801:10868   */\n      tag_485\n        /* \"#utility.yul\":10865:10867   */\n      0x2c\n        /* \"#utility.yul\":10860:10863   */\n      dup4\n        /* \"#utility.yul\":10801:10868   */\n      tag_324\n      jump\t// in\n    tag_485:\n        /* \"#utility.yul\":10794:10868   */\n      swap2\n      pop\n        /* \"#utility.yul\":10877:10970   */\n      tag_486\n        /* \"#utility.yul\":10966:10969   */\n      dup3\n        /* \"#utility.yul\":10877:10970   */\n      tag_331\n      jump\t// in\n    tag_486:\n        /* \"#utility.yul\":10995:10997   */\n      0x40\n        /* \"#utility.yul\":10990:10993   */\n      dup3\n        /* \"#utility.yul\":10986:10998   */\n      add\n        /* \"#utility.yul\":10979:10998   */\n      swap1\n      pop\n        /* \"#utility.yul\":10638:11004   */\n      swap2\n      swap1\n      pop\n      jump\t// out\n        /* \"#utility.yul\":11010:11429   */\n    tag_86:\n        /* \"#utility.yul\":11176:11180   */\n      0x00\n        /* \"#utility.yul\":11214:11216   */\n      0x20\n        /* \"#utility.yul\":11203:11212   */\n      dup3\n        /* \"#utility.yul\":11199:11217   */\n      add\n        /* \"#utility.yul\":11191:11217   */\n      swap1\n      pop\n        /* \"#utility.yul\":11263:11272   */\n      dup2\n        /* \"#utility.yul\":11257:11261   */\n      dup2\n        /* \"#utility.yul\":11253:11273   */\n      sub\n        /* \"#utility.yul\":11249:11250   */\n      0x00\n        /* \"#utility.yul\":11238:11247   */\n      dup4\n        /* \"#utility.yul\":11234:11251   */\n      add\n        /* \"#utility.yul\":11227:11274   */\n      mstore\n        /* \"#utility.yul\":11291:11422   */\n      tag_488\n        /* \"#utility.yul\":11417:11421   */\n      dup2\n        /* \"#utility.yul\":11291:11422   */\n      tag_332\n      jump\t// in\n    tag_488:\n        /* \"#utility.yul\":11283:11422   */\n      swap1\n      pop\n        /* \"#utility.yul\":11010:11429   */\n      swap2\n      swap1\n      pop\n      jump\t// out\n        /* \"#utility.yul\":11435:11615   */\n    tag_333:\n        /* \"#utility.yul\":11483:11560   */\n      0x4e487b7100000000000000000000000000000000000000000000000000000000\n        /* \"#utility.yul\":11480:11481   */\n      0x00\n        /* \"#utility.yul\":11473:11561   */\n      mstore\n        /* \"#utility.yul\":11580:11584   */\n      0x22\n        /* \"#utility.yul\":11577:11578   */\n      0x04\n        /* \"#utility.yul\":11570:11585   */\n      mstore\n        /* \"#utility.yul\":11604:11608   */\n      0x24\n        /* \"#utility.yul\":11601:11602   */\n      0x00\n        /* \"#utility.yul\":11594:11609   */\n      revert\n        /* \"#utility.yul\":11621:11941   */\n    tag_135:\n        /* \"#utility.yul\":11665:11671   */\n      0x00\n        /* \"#utility.yul\":11702:11703   */\n      0x02\n        /* \"#utility.yul\":11696:11700   */\n      dup3\n        /* \"#utility.yul\":11692:11704   */\n      div\n        /* \"#utility.yul\":11682:11704   */\n      swap1\n      pop\n        /* \"#utility.yul\":11749:11750   */\n      0x01\n        /* \"#utility.yul\":11743:11747   */\n      dup3\n        /* \"#utility.yul\":11739:11751   */\n      and\n        /* \"#utility.yul\":11770:11788   */\n      dup1\n        /* \"#utility.yul\":11760:11841   */\n      tag_491\n      jumpi\n        /* \"#utility.yul\":11826:11830   */\n      0x7f\n        /* \"#utility.yul\":11818:11824   */\n      dup3\n        /* \"#utility.yul\":11814:11831   */\n      and\n        /* \"#utility.yul\":11804:11831   */\n      swap2\n      pop\n        /* \"#utility.yul\":11760:11841   */\n    tag_491:\n        /* \"#utility.yul\":11888:11890   */\n      0x20\n        /* \"#utility.yul\":11880:11886   */\n      dup3\n        /* \"#utility.yul\":11877:11891   */\n      lt\n        /* \"#utility.yul\":11857:11875   */\n      dup2\n        /* \"#utility.yul\":11854:11892   */\n      sub\n        /* \"#utility.yul\":11851:11935   */\n      tag_492\n      jumpi\n        /* \"#utility.yul\":11907:11925   */\n      tag_493\n      tag_333\n      jump\t// in\n    tag_493:\n        /* \"#utility.yul\":11851:11935   */\n    tag_492:\n        /* \"#utility.yul\":11672:11941   */\n      pop\n        /* \"#utility.yul\":11621:11941   */\n      swap2\n      swap1\n      pop\n      jump\t// out\n        /* \"#utility.yul\":11947:12088   */\n    tag_334:\n        /* \"#utility.yul\":11996:12000   */\n      0x00\n        /* \"#utility.yul\":12019:12022   */\n      dup2\n        /* \"#utility.yul\":12011:12022   */\n      swap1\n      pop\n        /* \"#utility.yul\":12042:12045   */\n      dup2\n        /* \"#utility.yul\":12039:12040   */\n      0x00\n        /* \"#utility.yul\":12032:12046   */\n      mstore\n        /* \"#utility.yul\":12076:12080   */\n      0x20\n        /* \"#utility.yul\":12073:12074   */\n      0x00\n        /* \"#utility.yul\":12063:12081   */\n      keccak256\n        /* \"#utility.yul\":12055:12081   */\n      swap1\n      pop\n        /* \"#utility.yul\":11947:12088   */\n      swap2\n      swap1\n      pop\n      jump\t// out\n        /* \"#utility.yul\":12094:12187   */\n    tag_335:\n        /* \"#utility.yul\":12131:12137   */\n      0x00\n        /* \"#utility.yul\":12178:12180   */\n      0x20\n        /* \"#utility.yul\":12173:12175   */\n      0x1f\n        /* \"#utility.yul\":12166:12171   */\n      dup4\n        /* \"#utility.yul\":12162:12176   */\n      add\n        /* \"#utility.yul\":12158:12181   */\n      div\n        /* \"#utility.yul\":12148:12181   */\n      swap1\n      pop\n        /* \"#utility.yul\":12094:12187   */\n      swap2\n      swap1\n      pop\n      jump\t// out\n        /* \"#utility.yul\":12193:12300   */\n    tag_336:\n        /* \"#utility.yul\":12237:12245   */\n      0x00\n        /* \"#utility.yul\":12287:12292   */\n      dup3\n        /* \"#utility.yul\":12281:12285   */\n      dup3\n        /* \"#utility.yul\":12277:12293   */\n      shl\n        /* \"#utility.yul\":12256:12293   */\n      swap1\n      pop\n        /* \"#utility.yul\":12193:12300   */\n      swap3\n      swap2\n      pop\n      pop\n      jump\t// out\n        /* \"#utility.yul\":12306:12699   */\n    tag_337:\n        /* \"#utility.yul\":12375:12381   */\n      0x00\n        /* \"#utility.yul\":12425:12426   */\n      0x08\n        /* \"#utility.yul\":12413:12423   */\n      dup4\n        /* \"#utility.yul\":12409:12427   */\n      mul\n        /* \"#utility.yul\":12448:12545   */\n      tag_498\n        /* \"#utility.yul\":12478:12544   */\n      0xffffffffffffffffffffffffffffffffffffffffffffffffffffffffffffffff\n        /* \"#utility.yul\":12467:12476   */\n      dup3\n        /* \"#utility.yul\":12448:12545   */\n      tag_336\n      jump\t// in\n    tag_498:\n        /* \"#utility.yul\":12566:12605   */\n      tag_499\n        /* \"#utility.yul\":12596:12604   */\n      dup7\n        /* \"#utility.yul\":12585:12594   */\n      dup4\n        /* \"#utility.yul\":12566:12605   */\n      tag_336\n      jump\t// in\n    tag_499:\n        /* \"#utility.yul\":12554:12605   */\n      swap6\n      pop\n        /* \"#utility.yul\":12638:12642   */\n      dup1\n        /* \"#utility.yul\":12634:12643   */\n      not\n        /* \"#utility.yul\":12627:12632   */\n      dup5\n        /* \"#utility.yul\":12623:12644   */\n      and\n        /* \"#utility.yul\":12614:12644   */\n      swap4\n      pop\n        /* \"#utility.yul\":12687:12691   */\n      dup1\n        /* \"#utility.yul\":12677:12685   */\n      dup7\n        /* \"#utility.yul\":12673:12692   */\n      and\n        /* \"#utility.yul\":12666:12671   */\n      dup5\n        /* \"#utility.yul\":12663:12693   */\n      or\n        /* \"#utility.yul\":12653:12693   */\n      swap3\n      pop\n        /* \"#utility.yul\":12382:12699   */\n      pop\n      pop\n        /* \"#utility.yul\":12306:12699   */\n      swap4\n      swap3\n      pop\n      pop\n      pop\n      jump\t// out\n        /* \"#utility.yul\":12705:12765   */\n    tag_338:\n        /* \"#utility.yul\":12733:12736   */\n      0x00\n        /* \"#utility.yul\":12754:12759   */\n      dup2\n        /* \"#utility.yul\":12747:12759   */\n      swap1\n      pop\n        /* \"#utility.yul\":12705:12765   */\n      swap2\n      swap1\n      pop\n      jump\t// out\n        /* \"#utility.yul\":12771:12913   */\n    tag_339:\n        /* \"#utility.yul\":12821:12830   */\n      0x00\n        /* \"#utility.yul\":12854:12907   */\n      tag_502\n        /* \"#utility.yul\":12872:12906   */\n      tag_503\n        /* \"#utility.yul\":12881:12905   */\n      tag_504\n        /* \"#utility.yul\":12899:12904   */\n      dup5\n        /* \"#utility.yul\":12881:12905   */\n      tag_306\n      jump\t// in\n    tag_504:\n        /* \"#utility.yul\":12872:12906   */\n      tag_338\n      jump\t// in\n    tag_503:\n        /* \"#utility.yul\":12854:12907   */\n      tag_306\n      jump\t// in\n    tag_502:\n        /* \"#utility.yul\":12841:12907   */\n      swap1\n      pop\n        /* \"#utility.yul\":12771:12913   */\n      swap2\n      swap1\n      pop\n      jump\t// out\n        /* \"#utility.yul\":12919:12994   */\n    tag_340:\n        /* \"#utility.yul\":12962:12965   */\n      0x00\n        /* \"#utility.yul\":12983:12988   */\n      dup2\n        /* \"#utility.yul\":12976:12988   */\n      swap1\n      pop\n        /* \"#utility.yul\":12919:12994   */\n      swap2\n      swap1\n      pop\n      jump\t// out\n        /* \"#utility.yul\":13000:13269   */\n    tag_341:\n        /* \"#utility.yul\":13110:13149   */\n      tag_507\n        /* \"#utility.yul\":13141:13148   */\n      dup4\n        /* \"#utility.yul\":13110:13149   */\n      tag_339\n      jump\t// in\n    tag_507:\n        /* \"#utility.yul\":13171:13262   */\n      tag_508\n        /* \"#utility.yul\":13220:13261   */\n      tag_509\n        /* \"#utility.yul\":13244:13260   */\n      dup3\n        /* \"#utility.yul\":13220:13261   */\n      tag_340\n      jump\t// in\n    tag_509:\n        /* \"#utility.yul\":13212:13218   */\n      dup5\n        /* \"#utility.yul\":13205:13209   */\n      dup5\n        /* \"#utility.yul\":13199:13210   */\n      sload\n        /* \"#utility.yul\":13171:13262   */\n      tag_337\n      jump\t// in\n    tag_508:\n        /* \"#utility.yul\":13165:13169   */\n      dup3\n        /* \"#utility.yul\":13158:13263   */\n      sstore\n        /* \"#utility.yul\":13076:13269   */\n      pop\n        /* \"#utility.yul\":13000:13269   */\n      pop\n      pop\n      pop\n      jump\t// out\n        /* \"#utility.yul\":13275:13348   */\n    tag_342:\n        /* \"#utility.yul\":13320:13323   */\n      0x00\n        /* \"#utility.yul\":13275:13348   */\n      swap1\n      jump\t// out\n        /* \"#utility.yul\":13354:13543   */\n    tag_343:\n        /* \"#utility.yul\":13431:13463   */\n      tag_512\n      tag_342\n      jump\t// in\n    tag_512:\n        /* \"#utility.yul\":13472:13537   */\n      tag_513\n        /* \"#utility.yul\":13530:13536   */\n      dup2\n        /* \"#utility.yul\":13522:13528   */\n      dup5\n        /* \"#utility.yul\":13516:13520   */\n      dup5\n        /* \"#utility.yul\":13472:13537   */\n      tag_341\n      jump\t// in\n    tag_513:\n        /* \"#utility.yul\":13407:13543   */\n      pop\n        /* \"#utility.yul\":13354:13543   */\n      pop\n      pop\n      jump\t// out\n        /* \"#utility.yul\":13549:13735   */\n    tag_344:\n        /* \"#utility.yul\":13609:13729   */\n    tag_515:\n        /* \"#utility.yul\":13626:13629   */\n      dup2\n        /* \"#utility.yul\":13619:13624   */\n      dup2\n        /* \"#utility.yul\":13616:13630   */\n      lt\n        /* \"#utility.yul\":13609:13729   */\n      iszero\n      tag_517\n      jumpi\n        /* \"#utility.yul\":13680:13719   */\n      tag_518\n        /* \"#utility.yul\":13717:13718   */\n      0x00\n        /* \"#utility.yul\":13710:13715   */\n      dup3\n        /* \"#utility.yul\":13680:13719   */\n      tag_343\n      jump\t// in\n    tag_518:\n        /* \"#utility.yul\":13653:13654   */\n      0x01\n        /* \"#utility.yul\":13646:13651   */\n      dup2\n        /* \"#utility.yul\":13642:13655   */\n      add\n        /* \"#utility.yul\":13633:13655   */\n      swap1\n      pop\n        /* \"#utility.yul\":13609:13729   */\n      jump(tag_515)\n    tag_517:\n        /* \"#utility.yul\":13549:13735   */\n      pop\n      pop\n      jump\t// out\n        /* \"#utility.yul\":13741:14284   */\n    tag_345:\n        /* \"#utility.yul\":13842:13844   */\n      0x1f\n        /* \"#utility.yul\":13837:13840   */\n      dup3\n        /* \"#utility.yul\":13834:13845   */\n      gt\n        /* \"#utility.yul\":13831:14277   */\n      iszero\n      tag_520\n      jumpi\n        /* \"#utility.yul\":13876:13914   */\n      tag_521\n        /* \"#utility.yul\":13908:13913   */\n      dup2\n        /* \"#utility.yul\":13876:13914   */\n      tag_334\n      jump\t// in\n    tag_521:\n        /* \"#utility.yul\":13960:13989   */\n      tag_522\n        /* \"#utility.yul\":13978:13988   */\n      dup5\n        /* \"#utility.yul\":13960:13989   */\n      tag_335\n      jump\t// in\n    tag_522:\n        /* \"#utility.yul\":13950:13958   */\n      dup2\n        /* \"#utility.yul\":13946:13990   */\n      add\n        /* \"#utility.yul\":14143:14145   */\n      0x20\n        /* \"#utility.yul\":14131:14141   */\n      dup6\n        /* \"#utility.yul\":14128:14146   */\n      lt\n        /* \"#utility.yul\":14125:14174   */\n      iszero\n      tag_523\n      jumpi\n        /* \"#utility.yul\":14164:14172   */\n      dup2\n        /* \"#utility.yul\":14149:14172   */\n      swap1\n      pop\n        /* \"#utility.yul\":14125:14174   */\n    tag_523:\n        /* \"#utility.yul\":14187:14267   */\n      tag_524\n        /* \"#utility.yul\":14243:14265   */\n      tag_525\n        /* \"#utility.yul\":14261:14264   */\n      dup6\n        /* \"#utility.yul\":14243:14265   */\n      tag_335\n      jump\t// in\n    tag_525:\n        /* \"#utility.yul\":14233:14241   */\n      dup4\n        /* \"#utility.yul\":14229:14266   */\n      add\n        /* \"#utility.yul\":14216:14227   */\n      dup3\n        /* \"#utility.yul\":14187:14267   */\n      tag_344\n      jump\t// in\n    tag_524:\n        /* \"#utility.yul\":13846:14277   */\n      pop\n      pop\n        /* \"#utility.yul\":13831:14277   */\n    tag_520:\n        /* \"#utility.yul\":13741:14284   */\n      pop\n      pop\n      pop\n      jump\t// out\n        /* \"#utility.yul\":14290:14407   */\n    tag_346:\n        /* \"#utility.yul\":14344:14352   */\n      0x00\n        /* \"#utility.yul\":14394:14399   */\n      dup3\n        /* \"#utility.yul\":14388:14392   */\n      dup3\n        /* \"#utility.yul\":14384:14400   */\n      shr\n        /* \"#utility.yul\":14363:14400   */\n      swap1\n      pop\n        /* \"#utility.yul\":14290:14407   */\n      swap3\n      swap2\n      pop\n      pop\n      jump\t// out\n        /* \"#utility.yul\":14413:14582   */\n    tag_347:\n        /* \"#utility.yul\":14457:14463   */\n      0x00\n        /* \"#utility.yul\":14490:14541   */\n      tag_528\n        /* \"#utility.yul\":14538:14539   */\n      0x00\n        /* \"#utility.yul\":14534:14540   */\n      not\n        /* \"#utility.yul\":14526:14531   */\n      dup5\n        /* \"#utility.yul\":14523:14524   */\n      0x08\n        /* \"#utility.yul\":14519:14532   */\n      mul\n        /* \"#utility.yul\":14490:14541   */\n      tag_346\n      jump\t// in\n    tag_528:\n        /* \"#utility.yul\":14486:14542   */\n      not\n        /* \"#utility.yul\":14571:14575   */\n      dup1\n        /* \"#utility.yul\":14565:14569   */\n      dup4\n        /* \"#utility.yul\":14561:14576   */\n      and\n        /* \"#utility.yul\":14551:14576   */\n      swap2\n      pop\n        /* \"#utility.yul\":14464:14582   */\n      pop\n        /* \"#utility.yul\":14413:14582   */\n      swap3\n      swap2\n      pop\n      pop\n      jump\t// out\n        /* \"#utility.yul\":14587:14882   */\n    tag_348:\n        /* \"#utility.yul\":14663:14667   */\n      0x00\n        /* \"#utility.yul\":14809:14838   */\n      tag_530\n        /* \"#utility.yul\":14834:14837   */\n      dup4\n        /* \"#utility.yul\":14828:14832   */\n      dup4\n        /* \"#utility.yul\":14809:14838   */\n      tag_347\n      jump\t// in\n    tag_530:\n        /* \"#utility.yul\":14801:14838   */\n      swap2\n      pop\n        /* \"#utility.yul\":14871:14874   */\n      dup3\n        /* \"#utility.yul\":14868:14869   */\n      0x02\n        /* \"#utility.yul\":14864:14875   */\n      mul\n        /* \"#utility.yul\":14858:14862   */\n      dup3\n        /* \"#utility.yul\":14855:14876   */\n      or\n        /* \"#utility.yul\":14847:14876   */\n      swap1\n      pop\n        /* \"#utility.yul\":14587:14882   */\n      swap3\n      swap2\n      pop\n      pop\n      jump\t// out\n        /* \"#utility.yul\":14887:16282   */\n    tag_90:\n        /* \"#utility.yul\":15004:15041   */\n      tag_532\n        /* \"#utility.yul\":15037:15040   */\n      dup3\n        /* \"#utility.yul\":15004:15041   */\n      tag_323\n      jump\t// in\n    tag_532:\n        /* \"#utility.yul\":15106:15124   */\n      0xffffffffffffffff\n        /* \"#utility.yul\":15098:15104   */\n      dup2\n        /* \"#utility.yul\":15095:15125   */\n      gt\n        /* \"#utility.yul\":15092:15148   */\n      iszero\n      tag_533\n      jumpi\n        /* \"#utility.yul\":15128:15146   */\n      tag_534\n      tag_250\n      jump\t// in\n    tag_534:\n        /* \"#utility.yul\":15092:15148   */\n    tag_533:\n        /* \"#utility.yul\":15172:15210   */\n      tag_535\n        /* \"#utility.yul\":15204:15208   */\n      dup3\n        /* \"#utility.yul\":15198:15209   */\n      sload\n        /* \"#utility.yul\":15172:15210   */\n      tag_135\n      jump\t// in\n    tag_535:\n        /* \"#utility.yul\":15257:15324   */\n      tag_536\n        /* \"#utility.yul\":15317:15323   */\n      dup3\n        /* \"#utility.yul\":15309:15315   */\n      dup3\n        /* \"#utility.yul\":15303:15307   */\n      dup6\n        /* \"#utility.yul\":15257:15324   */\n      tag_345\n      jump\t// in\n    tag_536:\n        /* \"#utility.yul\":15351:15352   */\n      0x00\n        /* \"#utility.yul\":15375:15379   */\n      0x20\n        /* \"#utility.yul\":15362:15379   */\n      swap1\n      pop\n        /* \"#utility.yul\":15407:15409   */\n      0x1f\n        /* \"#utility.yul\":15399:15405   */\n      dup4\n        /* \"#utility.yul\":15396:15410   */\n      gt\n        /* \"#utility.yul\":15424:15425   */\n      0x01\n        /* \"#utility.yul\":15419:16037   */\n      dup2\n      eq\n      tag_538\n      jumpi\n        /* \"#utility.yul\":16081:16082   */\n      0x00\n        /* \"#utility.yul\":16098:16104   */\n      dup5\n        /* \"#utility.yul\":16095:16172   */\n      iszero\n      tag_539\n      jumpi\n        /* \"#utility.yul\":16147:16156   */\n      dup3\n        /* \"#utility.yul\":16142:16145   */\n      dup8\n        /* \"#utility.yul\":16138:16157   */\n      add\n        /* \"#utility.yul\":16132:16158   */\n      mload\n        /* \"#utility.yul\":16123:16158   */\n      swap1\n      pop\n        /* \"#utility.yul\":16095:16172   */\n    tag_539:\n        /* \"#utility.yul\":16198:16265   */\n      tag_540\n        /* \"#utility.yul\":16258:16264   */\n      dup6\n        /* \"#utility.yul\":16251:16256   */\n      dup3\n        /* \"#utility.yul\":16198:16265   */\n      tag_348\n      jump\t// in\n    tag_540:\n        /* \"#utility.yul\":16192:16196   */\n      dup7\n        /* \"#utility.yul\":16185:16266   */\n      sstore\n        /* \"#utility.yul\":16054:16276   */\n      pop\n        /* \"#utility.yul\":15389:16276   */\n      jump(tag_537)\n        /* \"#utility.yul\":15419:16037   */\n    tag_538:\n        /* \"#utility.yul\":15471:15475   */\n      0x1f\n        /* \"#utility.yul\":15467:15476   */\n      not\n        /* \"#utility.yul\":15459:15465   */\n      dup5\n        /* \"#utility.yul\":15455:15477   */\n      and\n        /* \"#utility.yul\":15505:15542   */\n      tag_541\n        /* \"#utility.yul\":15537:15541   */\n      dup7\n        /* \"#utility.yul\":15505:15542   */\n      tag_334\n      jump\t// in\n    tag_541:\n        /* \"#utility.yul\":15564:15565   */\n      0x00\n        /* \"#utility.yul\":15578:15786   */\n    tag_542:\n        /* \"#utility.yul\":15592:15599   */\n      dup3\n        /* \"#utility.yul\":15589:15590   */\n      dup2\n        /* \"#utility.yul\":15586:15600   */\n      lt\n        /* \"#utility.yul\":15578:15786   */\n      iszero\n      tag_544\n      jumpi\n        /* \"#utility.yul\":15671:15680   */\n      dup5\n        /* \"#utility.yul\":15666:15669   */\n      dup10\n        /* \"#utility.yul\":15662:15681   */\n      add\n        /* \"#utility.yul\":15656:15682   */\n      mload\n        /* \"#utility.yul\":15648:15654   */\n      dup3\n        /* \"#utility.yul\":15641:15683   */\n      sstore\n        /* \"#utility.yul\":15722:15723   */\n      0x01\n        /* \"#utility.yul\":15714:15720   */\n      dup3\n        /* \"#utility.yul\":15710:15724   */\n      add\n        /* \"#utility.yul\":15700:15724   */\n      swap2\n      pop\n        /* \"#utility.yul\":15769:15771   */\n      0x20\n        /* \"#utility.yul\":15758:15767   */\n      dup6\n        /* \"#utility.yul\":15754:15772   */\n      add\n        /* \"#utility.yul\":15741:15772   */\n      swap5\n      pop\n        /* \"#utility.yul\":15615:15619   */\n      0x20\n        /* \"#utility.yul\":15612:15613   */\n      dup2\n        /* \"#utility.yul\":15608:15620   */\n      add\n        /* \"#utility.yul\":15603:15620   */\n      swap1\n      pop\n        /* \"#utility.yul\":15578:15786   */\n      jump(tag_542)\n    tag_544:\n        /* \"#utility.yul\":15814:15820   */\n      dup7\n        /* \"#utility.yul\":15805:15812   */\n      dup4\n        /* \"#utility.yul\":15802:15821   */\n      lt\n        /* \"#utility.yul\":15799:15978   */\n      iszero\n      tag_545\n      jumpi\n        /* \"#utility.yul\":15872:15881   */\n      dup5\n        /* \"#utility.yul\":15867:15870   */\n      dup10\n        /* \"#utility.yul\":15863:15882   */\n      add\n        /* \"#utility.yul\":15857:15883   */\n      mload\n        /* \"#utility.yul\":15915:15963   */\n      tag_546\n        /* \"#utility.yul\":15957:15961   */\n      0x1f\n        /* \"#utility.yul\":15949:15955   */\n      dup10\n        /* \"#utility.yul\":15945:15962   */\n      and\n        /* \"#utility.yul\":15934:15943   */\n      dup3\n        /* \"#utility.yul\":15915:15963   */\n      tag_347\n      jump\t// in\n    tag_546:\n        /* \"#utility.yul\":15907:15913   */\n      dup4\n        /* \"#utility.yul\":15900:15964   */\n      sstore\n        /* \"#utility.yul\":15822:15978   */\n      pop\n        /* \"#utility.yul\":15799:15978   */\n    tag_545:\n        /* \"#utility.yul\":16024:16025   */\n      0x01\n        /* \"#utility.yul\":16020:16021   */\n      0x02\n        /* \"#utility.yul\":16012:16018   */\n      dup9\n        /* \"#utility.yul\":16008:16022   */\n      mul\n        /* \"#utility.yul\":16004:16026   */\n      add\n        /* \"#utility.yul\":15998:16002   */\n      dup9\n        /* \"#utility.yul\":15991:16027   */\n      sstore\n        /* \"#utility.yul\":15426:16037   */\n      pop\n      pop\n      pop\n        /* \"#utility.yul\":15389:16276   */\n    tag_537:\n      pop\n        /* \"#utility.yul\":14979:16282   */\n      pop\n      pop\n      pop\n        /* \"#utility.yul\":14887:16282   */\n      pop\n      pop\n      jump\t// out\n        /* \"#utility.yul\":16288:16513   */\n    tag_349:\n        /* \"#utility.yul\":16428:16462   */\n      0x4f6e6c792061756374696f6e6565722063616e2063616c6c2074686973206675\n        /* \"#utility.yul\":16424:16425   */\n      0x00\n        /* \"#utility.yul\":16416:16422   */\n      dup3\n        /* \"#utility.yul\":16412:16426   */\n      add\n        /* \"#utility.yul\":16405:16463   */\n      mstore\n        /* \"#utility.yul\":16497:16505   */\n      0x6e6374696f6e0000000000000000000000000000000000000000000000000000\n        /* \"#utility.yul\":16492:16494   */\n      0x20\n        /* \"#utility.yul\":16484:16490   */\n      dup3\n        /* \"#utility.yul\":16480:16495   */\n      add\n        /* \"#utility.yul\":16473:16506   */\n      mstore\n        /* \"#utility.yul\":16288:16513   */\n      pop\n      jump\t// out\n        /* \"#utility.yul\":16519:16885   */\n    tag_350:\n        /* \"#utility.yul\":16661:16664   */\n      0x00\n        /* \"#utility.yul\":16682:16749   */\n      tag_549\n        /* \"#utility.yul\":16746:16748   */\n      0x26\n        /* \"#utility.yul\":16741:16744   */\n      dup4\n        /* \"#utility.yul\":16682:16749   */\n      tag_324\n      jump\t// in\n    tag_549:\n        /* \"#utility.yul\":16675:16749   */\n      swap2\n      pop\n        /* \"#utility.yul\":16758:16851   */\n      tag_550\n        /* \"#utility.yul\":16847:16850   */\n      dup3\n        /* \"#utility.yul\":16758:16851   */\n      tag_349\n      jump\t// in\n    tag_550:\n        /* \"#utility.yul\":16876:16878   */\n      0x40\n        /* \"#utility.yul\":16871:16874   */\n      dup3\n        /* \"#utility.yul\":16867:16879   */\n      add\n        /* \"#utility.yul\":16860:16879   */\n      swap1\n      pop\n        /* \"#utility.yul\":16519:16885   */\n      swap2\n      swap1\n      pop\n      jump\t// out\n        /* \"#utility.yul\":16891:17310   */\n    tag_94:\n        /* \"#utility.yul\":17057:17061   */\n      0x00\n        /* \"#utility.yul\":17095:17097   */\n      0x20\n        /* \"#utility.yul\":17084:17093   */\n      dup3\n        /* \"#utility.yul\":17080:17098   */\n      add\n        /* \"#utility.yul\":17072:17098   */\n      swap1\n      pop\n        /* \"#utility.yul\":17144:17153   */\n      dup2\n        /* \"#utility.yul\":17138:17142   */\n      dup2\n        /* \"#utility.yul\":17134:17154   */\n      sub\n        /* \"#utility.yul\":17130:17131   */\n      0x00\n        /* \"#utility.yul\":17119:17128   */\n      dup4\n        /* \"#utility.yul\":17115:17132   */\n      add\n        /* \"#utility.yul\":17108:17155   */\n      mstore\n        /* \"#utility.yul\":17172:17303   */\n      tag_552\n        /* \"#utility.yul\":17298:17302   */\n      dup2\n        /* \"#utility.yul\":17172:17303   */\n      tag_350\n      jump\t// in\n    tag_552:\n        /* \"#utility.yul\":17164:17303   */\n      swap1\n      pop\n        /* \"#utility.yul\":16891:17310   */\n      swap2\n      swap1\n      pop\n      jump\t// out\n        /* \"#utility.yul\":17316:17495   */\n    tag_351:\n        /* \"#utility.yul\":17456:17487   */\n      0x41756374696f6e206973206e6f7420636f6d706c65746564207965742e000000\n        /* \"#utility.yul\":17452:17453   */\n      0x00\n        /* \"#utility.yul\":17444:17450   */\n      dup3\n        /* \"#utility.yul\":17440:17454   */\n      add\n        /* \"#utility.yul\":17433:17488   */\n      mstore\n        /* \"#utility.yul\":17316:17495   */\n      pop\n      jump\t// out\n        /* \"#utility.yul\":17501:17867   */\n    tag_352:\n        /* \"#utility.yul\":17643:17646   */\n      0x00\n        /* \"#utility.yul\":17664:17731   */\n      tag_555\n        /* \"#utility.yul\":17728:17730   */\n      0x1d\n        /* \"#utility.yul\":17723:17726   */\n      dup4\n        /* \"#utility.yul\":17664:17731   */\n      tag_324\n      jump\t// in\n    tag_555:\n        /* \"#utility.yul\":17657:17731   */\n      swap2\n      pop\n        /* \"#utility.yul\":17740:17833   */\n      tag_556\n        /* \"#utility.yul\":17829:17832   */\n      dup3\n        /* \"#utility.yul\":17740:17833   */\n      tag_351\n      jump\t// in\n    tag_556:\n        /* \"#utility.yul\":17858:17860   */\n      0x20\n        /* \"#utility.yul\":17853:17856   */\n      dup3\n        /* \"#utility.yul\":17849:17861   */\n      add\n        /* \"#utility.yul\":17842:17861   */\n      swap1\n      pop\n        /* \"#utility.yul\":17501:17867   */\n      swap2\n      swap1\n      pop\n      jump\t// out\n        /* \"#utility.yul\":17873:18292   */\n    tag_98:\n        /* \"#utility.yul\":18039:18043   */\n      0x00\n        /* \"#utility.yul\":18077:18079   */\n      0x20\n        /* \"#utility.yul\":18066:18075   */\n      dup3\n        /* \"#utility.yul\":18062:18080   */\n      add\n        /* \"#utility.yul\":18054:18080   */\n      swap1\n      pop\n        /* \"#utility.yul\":18126:18135   */\n      dup2\n        /* \"#utility.yul\":18120:18124   */\n      dup2\n        /* \"#utility.yul\":18116:18136   */\n      sub\n        /* \"#utility.yul\":18112:18113   */\n      0x00\n        /* \"#utility.yul\":18101:18110   */\n      dup4\n        /* \"#utility.yul\":18097:18114   */\n      add\n        /* \"#utility.yul\":18090:18137   */\n      mstore\n        /* \"#utility.yul\":18154:18285   */\n      tag_558\n        /* \"#utility.yul\":18280:18284   */\n      dup2\n        /* \"#utility.yul\":18154:18285   */\n      tag_352\n      jump\t// in\n    tag_558:\n        /* \"#utility.yul\":18146:18285   */\n      swap1\n      pop\n        /* \"#utility.yul\":17873:18292   */\n      swap2\n      swap1\n      pop\n      jump\t// out\n        /* \"#utility.yul\":18298:18478   */\n    tag_104:\n        /* \"#utility.yul\":18346:18423   */\n      0x4e487b7100000000000000000000000000000000000000000000000000000000\n        /* \"#utility.yul\":18343:18344   */\n      0x00\n        /* \"#utility.yul\":18336:18424   */\n      mstore\n        /* \"#utility.yul\":18443:18447   */\n      0x32\n        /* \"#utility.yul\":18440:18441   */\n      0x04\n        /* \"#utility.yul\":18433:18448   */\n      mstore\n        /* \"#utility.yul\":18467:18471   */\n      0x24\n        /* \"#utility.yul\":18464:18465   */\n      0x00\n        /* \"#utility.yul\":18457:18472   */\n      revert\n        /* \"#utility.yul\":18484:18664   */\n    tag_353:\n        /* \"#utility.yul\":18532:18609   */\n      0x4e487b7100000000000000000000000000000000000000000000000000000000\n        /* \"#utility.yul\":18529:18530   */\n      0x00\n        /* \"#utility.yul\":18522:18610   */\n      mstore\n        /* \"#utility.yul\":18629:18633   */\n      0x11\n        /* \"#utility.yul\":18626:18627   */\n      0x04\n        /* \"#utility.yul\":18619:18634   */\n      mstore\n        /* \"#utility.yul\":18653:18657   */\n      0x24\n        /* \"#utility.yul\":18650:18651   */\n      0x00\n        /* \"#utility.yul\":18643:18658   */\n      revert\n        /* \"#utility.yul\":18670:18861   */\n    tag_107:\n        /* \"#utility.yul\":18710:18713   */\n      0x00\n        /* \"#utility.yul\":18729:18749   */\n      tag_562\n        /* \"#utility.yul\":18747:18748   */\n      dup3\n        /* \"#utility.yul\":18729:18749   */\n      tag_306\n      jump\t// in\n    tag_562:\n        /* \"#utility.yul\":18724:18749   */\n      swap2\n      pop\n        /* \"#utility.yul\":18763:18783   */\n      tag_563\n        /* \"#utility.yul\":18781:18782   */\n      dup4\n        /* \"#utility.yul\":18763:18783   */\n      tag_306\n      jump\t// in\n    tag_563:\n        /* \"#utility.yul\":18758:18783   */\n      swap3\n      pop\n        /* \"#utility.yul\":18806:18807   */\n      dup3\n        /* \"#utility.yul\":18803:18804   */\n      dup3\n        /* \"#utility.yul\":18799:18808   */\n      add\n        /* \"#utility.yul\":18792:18808   */\n      swap1\n      pop\n        /* \"#utility.yul\":18827:18830   */\n      dup1\n        /* \"#utility.yul\":18824:18825   */\n      dup3\n        /* \"#utility.yul\":18821:18831   */\n      gt\n        /* \"#utility.yul\":18818:18854   */\n      iszero\n      tag_564\n      jumpi\n        /* \"#utility.yul\":18834:18852   */\n      tag_565\n      tag_353\n      jump\t// in\n    tag_565:\n        /* \"#utility.yul\":18818:18854   */\n    tag_564:\n        /* \"#utility.yul\":18670:18861   */\n      swap3\n      swap2\n      pop\n      pop\n      jump\t// out\n        /* \"#utility.yul\":18867:19100   */\n    tag_354:\n        /* \"#utility.yul\":19007:19041   */\n      0x5468652062696420616e64206e6f6e636520796f75207375626d697474656420\n        /* \"#utility.yul\":19003:19004   */\n      0x00\n        /* \"#utility.yul\":18995:19001   */\n      dup3\n        /* \"#utility.yul\":18991:19005   */\n      add\n        /* \"#utility.yul\":18984:19042   */\n      mstore\n        /* \"#utility.yul\":19076:19092   */\n      0x617265206e6f742076616c69642e000000000000000000000000000000000000\n        /* \"#utility.yul\":19071:19073   */\n      0x20\n        /* \"#utility.yul\":19063:19069   */\n      dup3\n        /* \"#utility.yul\":19059:19074   */\n      add\n        /* \"#utility.yul\":19052:19093   */\n      mstore\n        /* \"#utility.yul\":18867:19100   */\n      pop\n      jump\t// out\n        /* \"#utility.yul\":19106:19472   */\n    tag_355:\n        /* \"#utility.yul\":19248:19251   */\n      0x00\n        /* \"#utility.yul\":19269:19336   */\n      tag_568\n        /* \"#utility.yul\":19333:19335   */\n      0x2e\n        /* \"#utility.yul\":19328:19331   */\n      dup4\n        /* \"#utility.yul\":19269:19336   */\n      tag_324\n      jump\t// in\n    tag_568:\n        /* \"#utility.yul\":19262:19336   */\n      swap2\n      pop\n        /* \"#utility.yul\":19345:19438   */\n      tag_569\n        /* \"#utility.yul\":19434:19437   */\n      dup3\n        /* \"#utility.yul\":19345:19438   */\n      tag_354\n      jump\t// in\n    tag_569:\n        /* \"#utility.yul\":19463:19465   */\n      0x40\n        /* \"#utility.yul\":19458:19461   */\n      dup3\n        /* \"#utility.yul\":19454:19466   */\n      add\n        /* \"#utility.yul\":19447:19466   */\n      swap1\n      pop\n        /* \"#utility.yul\":19106:19472   */\n      swap2\n      swap1\n      pop\n      jump\t// out\n        /* \"#utility.yul\":19478:19897   */\n    tag_120:\n        /* \"#utility.yul\":19644:19648   */\n      0x00\n        /* \"#utility.yul\":19682:19684   */\n      0x20\n        /* \"#utility.yul\":19671:19680   */\n      dup3\n        /* \"#utility.yul\":19667:19685   */\n      add\n        /* \"#utility.yul\":19659:19685   */\n      swap1\n      pop\n        /* \"#utility.yul\":19731:19740   */\n      dup2\n        /* \"#utility.yul\":19725:19729   */\n      dup2\n        /* \"#utility.yul\":19721:19741   */\n      sub\n        /* \"#utility.yul\":19717:19718   */\n      0x00\n        /* \"#utility.yul\":19706:19715   */\n      dup4\n        /* \"#utility.yul\":19702:19719   */\n      add\n        /* \"#utility.yul\":19695:19742   */\n      mstore\n        /* \"#utility.yul\":19759:19890   */\n      tag_571\n        /* \"#utility.yul\":19885:19889   */\n      dup2\n        /* \"#utility.yul\":19759:19890   */\n      tag_355\n      jump\t// in\n    tag_571:\n        /* \"#utility.yul\":19751:19890   */\n      swap1\n      pop\n        /* \"#utility.yul\":19478:19897   */\n      swap2\n      swap1\n      pop\n      jump\t// out\n        /* \"#utility.yul\":19903:20202   */\n    tag_356:\n        /* \"#utility.yul\":20043:20077   */\n      0x596f75722064697370757465206973206e6f742076616c69642073696e636520\n        /* \"#utility.yul\":20039:20040   */\n      0x00\n        /* \"#utility.yul\":20031:20037   */\n      dup3\n        /* \"#utility.yul\":20027:20041   */\n      add\n        /* \"#utility.yul\":20020:20078   */\n      mstore\n        /* \"#utility.yul\":20112:20146   */\n      0x6974206973206e6f742067726561746572207468616e206174206c6561737420\n        /* \"#utility.yul\":20107:20109   */\n      0x20\n        /* \"#utility.yul\":20099:20105   */\n      dup3\n        /* \"#utility.yul\":20095:20110   */\n      add\n        /* \"#utility.yul\":20088:20147   */\n      mstore\n        /* \"#utility.yul\":20181:20194   */\n      0x6f6e652077696e6e65722e000000000000000000000000000000000000000000\n        /* \"#utility.yul\":20176:20178   */\n      0x40\n        /* \"#utility.yul\":20168:20174   */\n      dup3\n        /* \"#utility.yul\":20164:20179   */\n      add\n        /* \"#utility.yul\":20157:20195   */\n      mstore\n        /* \"#utility.yul\":19903:20202   */\n      pop\n      jump\t// out\n        /* \"#utility.yul\":20208:20574   */\n    tag_357:\n        /* \"#utility.yul\":20350:20353   */\n      0x00\n        /* \"#utility.yul\":20371:20438   */\n      tag_574\n        /* \"#utility.yul\":20435:20437   */\n      0x4b\n        /* \"#utility.yul\":20430:20433   */\n      dup4\n        /* \"#utility.yul\":20371:20438   */\n      tag_324\n      jump\t// in\n    tag_574:\n        /* \"#utility.yul\":20364:20438   */\n      swap2\n      pop\n        /* \"#utility.yul\":20447:20540   */\n      tag_575\n        /* \"#utility.yul\":20536:20539   */\n      dup3\n        /* \"#utility.yul\":20447:20540   */\n      tag_356\n      jump\t// in\n    tag_575:\n        /* \"#utility.yul\":20565:20567   */\n      0x60\n        /* \"#utility.yul\":20560:20563   */\n      dup3\n        /* \"#utility.yul\":20556:20568   */\n      add\n        /* \"#utility.yul\":20549:20568   */\n      swap1\n      pop\n        /* \"#utility.yul\":20208:20574   */\n      swap2\n      swap1\n      pop\n      jump\t// out\n        /* \"#utility.yul\":20580:20999   */\n    tag_125:\n        /* \"#utility.yul\":20746:20750   */\n      0x00\n        /* \"#utility.yul\":20784:20786   */\n      0x20\n        /* \"#utility.yul\":20773:20782   */\n      dup3\n        /* \"#utility.yul\":20769:20787   */\n      add\n        /* \"#utility.yul\":20761:20787   */\n      swap1\n      pop\n        /* \"#utility.yul\":20833:20842   */\n      dup2\n        /* \"#utility.yul\":20827:20831   */\n      dup2\n        /* \"#utility.yul\":20823:20843   */\n      sub\n        /* \"#utility.yul\":20819:20820   */\n      0x00\n        /* \"#utility.yul\":20808:20817   */\n      dup4\n        /* \"#utility.yul\":20804:20821   */\n      add\n        /* \"#utility.yul\":20797:20844   */\n      mstore\n        /* \"#utility.yul\":20861:20992   */\n      tag_577\n        /* \"#utility.yul\":20987:20991   */\n      dup2\n        /* \"#utility.yul\":20861:20992   */\n      tag_357\n      jump\t// in\n    tag_577:\n        /* \"#utility.yul\":20853:20992   */\n      swap1\n      pop\n        /* \"#utility.yul\":20580:20999   */\n      swap2\n      swap1\n      pop\n      jump\t// out\n        /* \"#utility.yul\":21005:21225   */\n    tag_358:\n        /* \"#utility.yul\":21145:21179   */\n      0x53656c6c65722063616e206e6f74207265676973746572206173206269646465\n        /* \"#utility.yul\":21141:21142   */\n      0x00\n        /* \"#utility.yul\":21133:21139   */\n      dup3\n        /* \"#utility.yul\":21129:21143   */\n      add\n        /* \"#utility.yul\":21122:21180   */\n      mstore\n        /* \"#utility.yul\":21214:21217   */\n      0x7200000000000000000000000000000000000000000000000000000000000000\n        /* \"#utility.yul\":21209:21211   */\n      0x20\n        /* \"#utility.yul\":21201:21207   */\n      dup3\n        /* \"#utility.yul\":21197:21212   */\n      add\n        /* \"#utility.yul\":21190:21218   */\n      mstore\n        /* \"#utility.yul\":21005:21225   */\n      pop\n      jump\t// out\n        /* \"#utility.yul\":21231:21597   */\n    tag_359:\n        /* \"#utility.yul\":21373:21376   */\n      0x00\n        /* \"#utility.yul\":21394:21461   */\n      tag_580\n        /* \"#utility.yul\":21458:21460   */\n      0x21\n        /* \"#utility.yul\":21453:21456   */\n      dup4\n        /* \"#utility.yul\":21394:21461   */\n      tag_324\n      jump\t// in\n    tag_580:\n        /* \"#utility.yul\":21387:21461   */\n      swap2\n      pop\n        /* \"#utility.yul\":21470:21563   */\n      tag_581\n        /* \"#utility.yul\":21559:21562   */\n      dup3\n        /* \"#utility.yul\":21470:21563   */\n      tag_358\n      jump\t// in\n    tag_581:\n        /* \"#utility.yul\":21588:21590   */\n      0x40\n        /* \"#utility.yul\":21583:21586   */\n      dup3\n        /* \"#utility.yul\":21579:21591   */\n      add\n        /* \"#utility.yul\":21572:21591   */\n      swap1\n      pop\n        /* \"#utility.yul\":21231:21597   */\n      swap2\n      swap1\n      pop\n      jump\t// out\n        /* \"#utility.yul\":21603:22022   */\n    tag_193:\n        /* \"#utility.yul\":21769:21773   */\n      0x00\n        /* \"#utility.yul\":21807:21809   */\n      0x20\n        /* \"#utility.yul\":21796:21805   */\n      dup3\n        /* \"#utility.yul\":21792:21810   */\n      add\n        /* \"#utility.yul\":21784:21810   */\n      swap1\n      pop\n        /* \"#utility.yul\":21856:21865   */\n      dup2\n        /* \"#utility.yul\":21850:21854   */\n      dup2\n        /* \"#utility.yul\":21846:21866   */\n      sub\n        /* \"#utility.yul\":21842:21843   */\n      0x00\n        /* \"#utility.yul\":21831:21840   */\n      dup4\n        /* \"#utility.yul\":21827:21844   */\n      add\n        /* \"#utility.yul\":21820:21867   */\n      mstore\n        /* \"#utility.yul\":21884:22015   */\n      tag_583\n        /* \"#utility.yul\":22010:22014   */\n      dup2\n        /* \"#utility.yul\":21884:22015   */\n      tag_359\n      jump\t// in\n    tag_583:\n        /* \"#utility.yul\":21876:22015   */\n      swap1\n      pop\n        /* \"#utility.yul\":21603:22022   */\n      swap2\n      swap1\n      pop\n      jump\t// out\n        /* \"#utility.yul\":22028:22258   */\n    tag_360:\n        /* \"#utility.yul\":22168:22202   */\n      0x54696d6520666f72207265676973746572696e67206173206120626964646572\n        /* \"#utility.yul\":22164:22165   */\n      0x00\n        /* \"#utility.yul\":22156:22162   */\n      dup3\n        /* \"#utility.yul\":22152:22166   */\n      add\n        /* \"#utility.yul\":22145:22203   */\n      mstore\n        /* \"#utility.yul\":22237:22250   */\n      0x206973207061737365642e000000000000000000000000000000000000000000\n        /* \"#utility.yul\":22232:22234   */\n      0x20\n        /* \"#utility.yul\":22224:22230   */\n      dup3\n        /* \"#utility.yul\":22220:22235   */\n      add\n        /* \"#utility.yul\":22213:22251   */\n      mstore\n        /* \"#utility.yul\":22028:22258   */\n      pop\n      jump\t// out\n        /* \"#utility.yul\":22264:22630   */\n    tag_361:\n        /* \"#utility.yul\":22406:22409   */\n      0x00\n        /* \"#utility.yul\":22427:22494   */\n      tag_586\n        /* \"#utility.yul\":22491:22493   */\n      0x2b\n        /* \"#utility.yul\":22486:22489   */\n      dup4\n        /* \"#utility.yul\":22427:22494   */\n      tag_324\n      jump\t// in\n    tag_586:\n        /* \"#utility.yul\":22420:22494   */\n      swap2\n      pop\n        /* \"#utility.yul\":22503:22596   */\n      tag_587\n        /* \"#utility.yul\":22592:22595   */\n      dup3\n        /* \"#utility.yul\":22503:22596   */\n      tag_360\n      jump\t// in\n    tag_587:\n        /* \"#utility.yul\":22621:22623   */\n      0x40\n        /* \"#utility.yul\":22616:22619   */\n      dup3\n        /* \"#utility.yul\":22612:22624   */\n      add\n        /* \"#utility.yul\":22605:22624   */\n      swap1\n      pop\n        /* \"#utility.yul\":22264:22630   */\n      swap2\n      swap1\n      pop\n      jump\t// out\n        /* \"#utility.yul\":22636:23055   */\n    tag_196:\n        /* \"#utility.yul\":22802:22806   */\n      0x00\n        /* \"#utility.yul\":22840:22842   */\n      0x20\n        /* \"#utility.yul\":22829:22838   */\n      dup3\n        /* \"#utility.yul\":22825:22843   */\n      add\n        /* \"#utility.yul\":22817:22843   */\n      swap1\n      pop\n        /* \"#utility.yul\":22889:22898   */\n      dup2\n        /* \"#utility.yul\":22883:22887   */\n      dup2\n        /* \"#utility.yul\":22879:22899   */\n      sub\n        /* \"#utility.yul\":22875:22876   */\n      0x00\n        /* \"#utility.yul\":22864:22873   */\n      dup4\n        /* \"#utility.yul\":22860:22877   */\n      add\n        /* \"#utility.yul\":22853:22900   */\n      mstore\n        /* \"#utility.yul\":22917:23048   */\n      tag_589\n        /* \"#utility.yul\":23043:23047   */\n      dup2\n        /* \"#utility.yul\":22917:23048   */\n      tag_361\n      jump\t// in\n    tag_589:\n        /* \"#utility.yul\":22909:23048   */\n      swap1\n      pop\n        /* \"#utility.yul\":22636:23055   */\n      swap2\n      swap1\n      pop\n      jump\t// out\n        /* \"#utility.yul\":23061:23294   */\n    tag_207:\n        /* \"#utility.yul\":23100:23103   */\n      0x00\n        /* \"#utility.yul\":23123:23147   */\n      tag_591\n        /* \"#utility.yul\":23141:23146   */\n      dup3\n        /* \"#utility.yul\":23123:23147   */\n      tag_306\n      jump\t// in\n    tag_591:\n        /* \"#utility.yul\":23114:23147   */\n      swap2\n      pop\n        /* \"#utility.yul\":23169:23235   */\n      0xffffffffffffffffffffffffffffffffffffffffffffffffffffffffffffffff\n        /* \"#utility.yul\":23162:23167   */\n      dup3\n        /* \"#utility.yul\":23159:23236   */\n      sub\n        /* \"#utility.yul\":23156:23259   */\n      tag_592\n      jumpi\n        /* \"#utility.yul\":23239:23257   */\n      tag_593\n      tag_353\n      jump\t// in\n    tag_593:\n        /* \"#utility.yul\":23156:23259   */\n    tag_592:\n        /* \"#utility.yul\":23286:23287   */\n      0x01\n        /* \"#utility.yul\":23279:23284   */\n      dup3\n        /* \"#utility.yul\":23275:23288   */\n      add\n        /* \"#utility.yul\":23268:23288   */\n      swap1\n      pop\n        /* \"#utility.yul\":23061:23294   */\n      swap2\n      swap1\n      pop\n      jump\t// out\n        /* \"#utility.yul\":23300:23448   */\n    tag_362:\n        /* \"#utility.yul\":23402:23413   */\n      0x00\n        /* \"#utility.yul\":23439:23442   */\n      dup2\n        /* \"#utility.yul\":23424:23442   */\n      swap1\n      pop\n        /* \"#utility.yul\":23300:23448   */\n      swap3\n      swap2\n      pop\n      pop\n      jump\t// out\n        /* \"#utility.yul\":23454:23844   */\n    tag_363:\n        /* \"#utility.yul\":23560:23563   */\n      0x00\n        /* \"#utility.yul\":23588:23627   */\n      tag_596\n        /* \"#utility.yul\":23621:23626   */\n      dup3\n        /* \"#utility.yul\":23588:23627   */\n      tag_323\n      jump\t// in\n    tag_596:\n        /* \"#utility.yul\":23643:23732   */\n      tag_597\n        /* \"#utility.yul\":23725:23731   */\n      dup2\n        /* \"#utility.yul\":23720:23723   */\n      dup6\n        /* \"#utility.yul\":23643:23732   */\n      tag_362\n      jump\t// in\n    tag_597:\n        /* \"#utility.yul\":23636:23732   */\n      swap4\n      pop\n        /* \"#utility.yul\":23741:23806   */\n      tag_598\n        /* \"#utility.yul\":23799:23805   */\n      dup2\n        /* \"#utility.yul\":23794:23797   */\n      dup6\n        /* \"#utility.yul\":23787:23791   */\n      0x20\n        /* \"#utility.yul\":23780:23785   */\n      dup7\n        /* \"#utility.yul\":23776:23792   */\n      add\n        /* \"#utility.yul\":23741:23806   */\n      tag_325\n      jump\t// in\n    tag_598:\n        /* \"#utility.yul\":23831:23837   */\n      dup1\n        /* \"#utility.yul\":23826:23829   */\n      dup5\n        /* \"#utility.yul\":23822:23838   */\n      add\n        /* \"#utility.yul\":23815:23838   */\n      swap2\n      pop\n        /* \"#utility.yul\":23564:23844   */\n      pop\n        /* \"#utility.yul\":23454:23844   */\n      swap3\n      swap2\n      pop\n      pop\n      jump\t// out\n        /* \"#utility.yul\":23850:24285   */\n    tag_212:\n        /* \"#utility.yul\":24030:24033   */\n      0x00\n        /* \"#utility.yul\":24052:24147   */\n      tag_600\n        /* \"#utility.yul\":24143:24146   */\n      dup3\n        /* \"#utility.yul\":24134:24140   */\n      dup6\n        /* \"#utility.yul\":24052:24147   */\n      tag_363\n      jump\t// in\n    tag_600:\n        /* \"#utility.yul\":24045:24147   */\n      swap2\n      pop\n        /* \"#utility.yul\":24164:24259   */\n      tag_601\n        /* \"#utility.yul\":24255:24258   */\n      dup3\n        /* \"#utility.yul\":24246:24252   */\n      dup5\n        /* \"#utility.yul\":24164:24259   */\n      tag_363\n      jump\t// in\n    tag_601:\n        /* \"#utility.yul\":24157:24259   */\n      swap2\n      pop\n        /* \"#utility.yul\":24276:24279   */\n      dup2\n        /* \"#utility.yul\":24269:24279   */\n      swap1\n      pop\n        /* \"#utility.yul\":23850:24285   */\n      swap4\n      swap3\n      pop\n      pop\n      pop\n      jump\t// out\n        /* \"#utility.yul\":24291:24566   */\n    tag_214:\n        /* \"#utility.yul\":24423:24426   */\n      0x00\n        /* \"#utility.yul\":24445:24540   */\n      tag_603\n        /* \"#utility.yul\":24536:24539   */\n      dup3\n        /* \"#utility.yul\":24527:24533   */\n      dup5\n        /* \"#utility.yul\":24445:24540   */\n      tag_363\n      jump\t// in\n    tag_603:\n        /* \"#utility.yul\":24438:24540   */\n      swap2\n      pop\n        /* \"#utility.yul\":24557:24560   */\n      dup2\n        /* \"#utility.yul\":24550:24560   */\n      swap1\n      pop\n        /* \"#utility.yul\":24291:24566   */\n      swap3\n      swap2\n      pop\n      pop\n      jump\t// out\n        /* \"#utility.yul\":24572:24670   */\n    tag_364:\n        /* \"#utility.yul\":24623:24629   */\n      0x00\n        /* \"#utility.yul\":24657:24662   */\n      dup2\n        /* \"#utility.yul\":24651:24663   */\n      mload\n        /* \"#utility.yul\":24641:24663   */\n      swap1\n      pop\n        /* \"#utility.yul\":24572:24670   */\n      swap2\n      swap1\n      pop\n      jump\t// out\n        /* \"#utility.yul\":24676:24823   */\n    tag_365:\n        /* \"#utility.yul\":24777:24788   */\n      0x00\n        /* \"#utility.yul\":24814:24817   */\n      dup2\n        /* \"#utility.yul\":24799:24817   */\n      swap1\n      pop\n        /* \"#utility.yul\":24676:24823   */\n      swap3\n      swap2\n      pop\n      pop\n      jump\t// out\n        /* \"#utility.yul\":24829:25215   */\n    tag_366:\n        /* \"#utility.yul\":24933:24936   */\n      0x00\n        /* \"#utility.yul\":24961:24999   */\n      tag_607\n        /* \"#utility.yul\":24993:24998   */\n      dup3\n        /* \"#utility.yul\":24961:24999   */\n      tag_364\n      jump\t// in\n    tag_607:\n        /* \"#utility.yul\":25015:25103   */\n      tag_608\n        /* \"#utility.yul\":25096:25102   */\n      dup2\n        /* \"#utility.yul\":25091:25094   */\n      dup6\n        /* \"#utility.yul\":25015:25103   */\n      tag_365\n      jump\t// in\n    tag_608:\n        /* \"#utility.yul\":25008:25103   */\n      swap4\n      pop\n        /* \"#utility.yul\":25112:25177   */\n      tag_609\n        /* \"#utility.yul\":25170:25176   */\n      dup2\n        /* \"#utility.yul\":25165:25168   */\n      dup6\n        /* \"#utility.yul\":25158:25162   */\n      0x20\n        /* \"#utility.yul\":25151:25156   */\n      dup7\n        /* \"#utility.yul\":25147:25163   */\n      add\n        /* \"#utility.yul\":25112:25177   */\n      tag_325\n      jump\t// in\n    tag_609:\n        /* \"#utility.yul\":25202:25208   */\n      dup1\n        /* \"#utility.yul\":25197:25200   */\n      dup5\n        /* \"#utility.yul\":25193:25209   */\n      add\n        /* \"#utility.yul\":25186:25209   */\n      swap2\n      pop\n        /* \"#utility.yul\":24937:25215   */\n      pop\n        /* \"#utility.yul\":24829:25215   */\n      swap3\n      swap2\n      pop\n      pop\n      jump\t// out\n        /* \"#utility.yul\":25221:25492   */\n    tag_216:\n        /* \"#utility.yul\":25351:25354   */\n      0x00\n        /* \"#utility.yul\":25373:25466   */\n      tag_611\n        /* \"#utility.yul\":25462:25465   */\n      dup3\n        /* \"#utility.yul\":25453:25459   */\n      dup5\n        /* \"#utility.yul\":25373:25466   */\n      tag_366\n      jump\t// in\n    tag_611:\n        /* \"#utility.yul\":25366:25466   */\n      swap2\n      pop\n        /* \"#utility.yul\":25483:25486   */\n      dup2\n        /* \"#utility.yul\":25476:25486   */\n      swap1\n      pop\n        /* \"#utility.yul\":25221:25492   */\n      swap3\n      swap2\n      pop\n      pop\n      jump\t// out\n        /* \"#utility.yul\":25498:25641   */\n    tag_367:\n        /* \"#utility.yul\":25555:25560   */\n      0x00\n        /* \"#utility.yul\":25586:25592   */\n      dup2\n        /* \"#utility.yul\":25580:25593   */\n      mload\n        /* \"#utility.yul\":25571:25593   */\n      swap1\n      pop\n        /* \"#utility.yul\":25602:25635   */\n      tag_613\n        /* \"#utility.yul\":25629:25634   */\n      dup2\n        /* \"#utility.yul\":25602:25635   */\n      tag_327\n      jump\t// in\n    tag_613:\n        /* \"#utility.yul\":25498:25641   */\n      swap3\n      swap2\n      pop\n      pop\n      jump\t// out\n        /* \"#utility.yul\":25647:25998   */\n    tag_220:\n        /* \"#utility.yul\":25717:25723   */\n      0x00\n        /* \"#utility.yul\":25766:25768   */\n      0x20\n        /* \"#utility.yul\":25754:25763   */\n      dup3\n        /* \"#utility.yul\":25745:25752   */\n      dup5\n        /* \"#utility.yul\":25741:25764   */\n      sub\n        /* \"#utility.yul\":25737:25769   */\n      slt\n        /* \"#utility.yul\":25734:25853   */\n      iszero\n      tag_615\n      jumpi\n        /* \"#utility.yul\":25772:25851   */\n      tag_616\n      tag_304\n      jump\t// in\n    tag_616:\n        /* \"#utility.yul\":25734:25853   */\n    tag_615:\n        /* \"#utility.yul\":25892:25893   */\n      0x00\n        /* \"#utility.yul\":25917:25981   */\n      tag_617\n        /* \"#utility.yul\":25973:25980   */\n      dup5\n        /* \"#utility.yul\":25964:25970   */\n      dup3\n        /* \"#utility.yul\":25953:25962   */\n      dup6\n        /* \"#utility.yul\":25949:25971   */\n      add\n        /* \"#utility.yul\":25917:25981   */\n      tag_367\n      jump\t// in\n    tag_617:\n        /* \"#utility.yul\":25907:25981   */\n      swap2\n      pop\n        /* \"#utility.yul\":25863:25991   */\n      pop\n        /* \"#utility.yul\":25647:25998   */\n      swap3\n      swap2\n      pop\n      pop\n      jump\t// out\n        /* \"#utility.yul\":26004:26414   */\n    tag_237:\n        /* \"#utility.yul\":26044:26051   */\n      0x00\n        /* \"#utility.yul\":26067:26087   */\n      tag_619\n        /* \"#utility.yul\":26085:26086   */\n      dup3\n        /* \"#utility.yul\":26067:26087   */\n      tag_306\n      jump\t// in\n    tag_619:\n        /* \"#utility.yul\":26062:26087   */\n      swap2\n      pop\n        /* \"#utility.yul\":26101:26121   */\n      tag_620\n        /* \"#utility.yul\":26119:26120   */\n      dup4\n        /* \"#utility.yul\":26101:26121   */\n      tag_306\n      jump\t// in\n    tag_620:\n        /* \"#utility.yul\":26096:26121   */\n      swap3\n      pop\n        /* \"#utility.yul\":26156:26157   */\n      dup3\n        /* \"#utility.yul\":26153:26154   */\n      dup3\n        /* \"#utility.yul\":26149:26158   */\n      mul\n        /* \"#utility.yul\":26178:26208   */\n      tag_621\n        /* \"#utility.yul\":26196:26207   */\n      dup2\n        /* \"#utility.yul\":26178:26208   */\n      tag_306\n      jump\t// in\n    tag_621:\n        /* \"#utility.yul\":26167:26208   */\n      swap2\n      pop\n        /* \"#utility.yul\":26357:26358   */\n      dup3\n        /* \"#utility.yul\":26348:26355   */\n      dup3\n        /* \"#utility.yul\":26344:26359   */\n      div\n        /* \"#utility.yul\":26341:26342   */\n      dup5\n        /* \"#utility.yul\":26338:26360   */\n      eq\n        /* \"#utility.yul\":26318:26319   */\n      dup4\n        /* \"#utility.yul\":26311:26320   */\n      iszero\n        /* \"#utility.yul\":26291:26374   */\n      or\n        /* \"#utility.yul\":26268:26407   */\n      tag_622\n      jumpi\n        /* \"#utility.yul\":26387:26405   */\n      tag_623\n      tag_353\n      jump\t// in\n    tag_623:\n        /* \"#utility.yul\":26268:26407   */\n    tag_622:\n        /* \"#utility.yul\":26052:26414   */\n      pop\n        /* \"#utility.yul\":26004:26414   */\n      swap3\n      swap2\n      pop\n      pop\n      jump\t// out\n        /* \"#utility.yul\":26420:26600   */\n    tag_256:\n        /* \"#utility.yul\":26468:26545   */\n      0x4e487b7100000000000000000000000000000000000000000000000000000000\n        /* \"#utility.yul\":26465:26466   */\n      0x00\n        /* \"#utility.yul\":26458:26546   */\n      mstore\n        /* \"#utility.yul\":26565:26569   */\n      0x12\n        /* \"#utility.yul\":26562:26563   */\n      0x04\n        /* \"#utility.yul\":26555:26570   */\n      mstore\n        /* \"#utility.yul\":26589:26593   */\n      0x24\n        /* \"#utility.yul\":26586:26587   */\n      0x00\n        /* \"#utility.yul\":26579:26594   */\n      revert\n\n    auxdata: 0xa26469706673582212204946cdeced21c7266b01dfec0c6658fede2bbf84acd8c36b2456a38b602cd0f764736f6c63430008120033\n}\n",
				"bytecode": {
					"linkReferences": {},
					"object": "608060405260016007556000600860006101000a81548160ff02191690831515021790555034801561003057600080fd5b5033600160006101000a81548173ffffffffffffffffffffffffffffffffffffffff021916908373ffffffffffffffffffffffffffffffffffffffff16021790555061258c806100816000396000f3fe608060405234801561001057600080fd5b50600436106100f55760003560e01c8063938626c211610097578063cff29dfd11610066578063cff29dfd14610264578063d826f88f14610294578063ec5d0ab21461029e578063f356733c146102ba576100f5565b8063938626c2146101da578063a2ebc656146101f8578063a2fb117514610214578063c9230c5d14610246576100f5565b806340bd5937116100d357806340bd5937146101645780635ec2c7bf1461016e57806366c85dee1461018c5780638f772f96146101a8576100f5565b806308551a53146100fa5780631744e03b146101185780633817df4c14610134575b600080fd5b6101026102c4565b60405161010f91906116ee565b60405180910390f35b610132600480360381019061012d9190611899565b6102e8565b005b61014e60048036038101906101499190611921565b61045b565b60405161015b9190611967565b60405180910390f35b61016c610473565b005b6101766105f5565b60405161018391906116ee565b60405180910390f35b6101a660048036038101906101a19190611899565b61061b565b005b6101c260048036038101906101bd9190611982565b61087f565b6040516101d193929190611a3d565b60405180910390f35b6101e2610961565b6040516101ef9190611a7b565b60405180910390f35b610212600480360381019061020d9190611a9d565b6109ef565b005b61022e60048036038101906102299190611982565b610a76565b60405161023d93929190611b15565b60405180910390f35b61024e610b58565b60405161025b9190611a7b565b60405180910390f35b61027e60048036038101906102799190611982565b610be6565b60405161028b91906116ee565b60405180910390f35b61029c610c25565b005b6102b860048036038101906102b39190611b7f565b610d86565b005b6102c2610e71565b005b60008054906101000a900473ffffffffffffffffffffffffffffffffffffffff1681565b60011515600860009054906101000a900460ff1615151461033e576040517f08c379a000000000000000000000000000000000000000000000000000000000815260040161033590611bf8565b60405180910390fd5b6001151561034a610ffe565b15151461038c576040517f08c379a000000000000000000000000000000000000000000000000000000000815260040161038390611c8a565b60405180910390fd5b600060405180606001604052803373ffffffffffffffffffffffffffffffffffffffff168152602001848152602001838152509050600b81908060018154018082558091505060019003906000526020600020906003020160009091909190915060008201518160000160006101000a81548173ffffffffffffffffffffffffffffffffffffffff021916908373ffffffffffffffffffffffffffffffffffffffff1602179055506020820151816001015560408201518160020190816104539190611eb6565b505050505050565b600a6020528060005260406000206000915090505481565b600160009054906101000a900473ffffffffffffffffffffffffffffffffffffffff1673ffffffffffffffffffffffffffffffffffffffff163373ffffffffffffffffffffffffffffffffffffffff1614610503576040517f08c379a00000000000000000000000000000000000000000000000000000000081526004016104fa90611ffa565b60405180910390fd5b6006544211610547576040517f08c379a000000000000000000000000000000000000000000000000000000000815260040161053e90612066565b60405180910390fd5b60005b6009805490508110156105f25760006009828154811061056d5761056c612086565b5b9060005260206000200160009054906101000a900473ffffffffffffffffffffffffffffffffffffffff169050600a60008273ffffffffffffffffffffffffffffffffffffffff1673ffffffffffffffffffffffffffffffffffffffff16815260200190815260200160002060009055506001816105eb91906120e4565b905061054a565b50565b600160009054906101000a900473ffffffffffffffffffffffffffffffffffffffff1681565b60011515600860009054906101000a900460ff16151514610671576040517f08c379a000000000000000000000000000000000000000000000000000000000815260040161066890611bf8565b60405180910390fd5b6001151561067d610ffe565b1515146106bf576040517f08c379a00000000000000000000000000000000000000000000000000000000081526004016106b690611c8a565b60405180910390fd5b60006106cb83836110aa565b905080600a60003373ffffffffffffffffffffffffffffffffffffffff1673ffffffffffffffffffffffffffffffffffffffff168152602001908152602001600020541461074e576040517f08c379a00000000000000000000000000000000000000000000000000000000081526004016107459061218a565b60405180910390fd5b6001151561075b84611157565b15151461079d576040517f08c379a000000000000000000000000000000000000000000000000000000000815260040161079490612242565b60405180910390fd5b6107a56111c1565b6107af83836111d1565b600060405180606001604052808581526020013373ffffffffffffffffffffffffffffffffffffffff168152602001848152509050600c8190806001815401808255809150506001900390600052602060002090600302016000909190919091506000820151816000015560208201518160010160006101000a81548173ffffffffffffffffffffffffffffffffffffffff021916908373ffffffffffffffffffffffffffffffffffffffff16021790555060408201518160020190816108769190611eb6565b50505050505050565b600c818154811061088f57600080fd5b90600052602060002090600302016000915090508060000154908060010160009054906101000a900473ffffffffffffffffffffffffffffffffffffffff16908060020180546108de90611cd9565b80601f016020809104026020016040519081016040528092919081815260200182805461090a90611cd9565b80156109575780601f1061092c57610100808354040283529160200191610957565b820191906000526020600020905b81548152906001019060200180831161093a57829003601f168201915b5050505050905083565b6002805461096e90611cd9565b80601f016020809104026020016040519081016040528092919081815260200182805461099a90611cd9565b80156109e75780601f106109bc576101008083540402835291602001916109e7565b820191906000526020600020905b8154815290600101906020018083116109ca57829003601f168201915b505050505081565b336000806101000a81548173ffffffffffffffffffffffffffffffffffffffff021916908373ffffffffffffffffffffffffffffffffffffffff1602179055508160039081610a3e9190611eb6565b508060029081610a4e9190611eb6565b50610a576112a0565b6001600860006101000a81548160ff0219169083151502179055505050565b600b8181548110610a8657600080fd5b90600052602060002090600302016000915090508060000160009054906101000a900473ffffffffffffffffffffffffffffffffffffffff1690806001015490806002018054610ad590611cd9565b80601f0160208091040260200160405190810160405280929190818152602001828054610b0190611cd9565b8015610b4e5780601f10610b2357610100808354040283529160200191610b4e565b820191906000526020600020905b815481529060010190602001808311610b3157829003601f168201915b5050505050905083565b60038054610b6590611cd9565b80601f0160208091040260200160405190810160405280929190818152602001828054610b9190611cd9565b8015610bde5780601f10610bb357610100808354040283529160200191610bde565b820191906000526020600020905b815481529060010190602001808311610bc157829003601f168201915b505050505081565b60098181548110610bf657600080fd5b906000526020600020016000915054906101000a900473ffffffffffffffffffffffffffffffffffffffff1681565b600160009054906101000a900473ffffffffffffffffffffffffffffffffffffffff1673ffffffffffffffffffffffffffffffffffffffff163373ffffffffffffffffffffffffffffffffffffffff1614610cb5576040517f08c379a0000000000000000000000000000000000000000000000000000000008152600401610cac90611ffa565b60405180910390fd5b6006544211610cf9576040517f08c379a0000000000000000000000000000000000000000000000000000000008152600401610cf090612066565b60405180910390fd5b600b6000610d07919061153b565b6040518060200160405280600081525060029081610d259190611eb6565b506040518060200160405280600081525060039081610d449190611eb6565b50610d4d610473565b60096000610d5b919061155f565b600c6000610d699190611580565b6000600860006101000a81548160ff021916908315150217905550565b60011515600860009054906101000a900460ff16151514610ddc576040517f08c379a0000000000000000000000000000000000000000000000000000000008152600401610dd390611bf8565b60405180910390fd5b60011515610de8610ffe565b151514610e2a576040517f08c379a0000000000000000000000000000000000000000000000000000000008152600401610e2190611c8a565b60405180910390fd5b80600a60003373ffffffffffffffffffffffffffffffffffffffff1673ffffffffffffffffffffffffffffffffffffffff1681526020019081526020016000208190555050565b60011515600860009054906101000a900460ff16151514610ec7576040517f08c379a0000000000000000000000000000000000000000000000000000000008152600401610ebe90611bf8565b60405180910390fd5b60008054906101000a900473ffffffffffffffffffffffffffffffffffffffff1673ffffffffffffffffffffffffffffffffffffffff163373ffffffffffffffffffffffffffffffffffffffff1603610f55576040517f08c379a0000000000000000000000000000000000000000000000000000000008152600401610f4c906122d4565b60405180910390fd5b6004544210610f99576040517f08c379a0000000000000000000000000000000000000000000000000000000008152600401610f9090612366565b60405180910390fd5b6009339080600181540180825580915050600190039060005260206000200160009091909190916101000a81548173ffffffffffffffffffffffffffffffffffffffff021916908373ffffffffffffffffffffffffffffffffffffffff160217905550565b600080600090505b6009805490508110156110a1576009818154811061102757611026612086565b5b9060005260206000200160009054906101000a900473ffffffffffffffffffffffffffffffffffffffff1673ffffffffffffffffffffffffffffffffffffffff163373ffffffffffffffffffffffffffffffffffffffff160361108e5760019150506110a7565b808061109990612386565b915050611006565b50600090505b90565b6000806110b68461131a565b9050600081846040516020016110cd92919061240a565b60405160208183030381529060405290506002816040516020016110f1919061242e565b60405160208183030381529060405260405161110d919061248c565b602060405180830381855afa15801561112a573d6000803e3d6000fd5b5050506040513d601f19601f8201168201806040525081019061114d91906124b8565b9250505092915050565b600080600090505b600b805490508110156111b657600b81815481106111805761117f612086565b5b9060005260206000209060030201600101548311156111a35760019150506111bc565b80806111ae90612386565b91505061115f565b50600090505b919050565b600b60006111cf919061153b565b565b600060405180606001604052803373ffffffffffffffffffffffffffffffffffffffff168152602001848152602001838152509050600b81908060018154018082558091505060019003906000526020600020906003020160009091909190915060008201518160000160006101000a81548173ffffffffffffffffffffffffffffffffffffffff021916908373ffffffffffffffffffffffffffffffffffffffff1602179055506020820151816001015560408201518160020190816112989190611eb6565b505050505050565b603c6007546112af91906124e5565b426112ba91906120e4565b600481905550603c60075460026112d191906124e5565b6112db91906124e5565b426112e691906120e4565b600581905550603c60075460036112fd91906124e5565b61130791906124e5565b4261131291906120e4565b600681905550565b606060006001611329846113e8565b01905060008167ffffffffffffffff8111156113485761134761176e565b5b6040519080825280601f01601f19166020018201604052801561137a5781602001600182028036833780820191505090505b509050600082602001820190505b6001156113dd578080600190039150507f3031323334353637383961626364656600000000000000000000000000000000600a86061a8153600a85816113d1576113d0612527565b5b04945060008503611388575b819350505050919050565b600080600090507a184f03e93ff9f4daa797ed6e38ed64bf6a1f0100000000000000008310611446577a184f03e93ff9f4daa797ed6e38ed64bf6a1f010000000000000000838161143c5761143b612527565b5b0492506040810190505b6d04ee2d6d415b85acef81000000008310611483576d04ee2d6d415b85acef8100000000838161147957611478612527565b5b0492506020810190505b662386f26fc1000083106114b257662386f26fc1000083816114a8576114a7612527565b5b0492506010810190505b6305f5e10083106114db576305f5e10083816114d1576114d0612527565b5b0492506008810190505b61271083106115005761271083816114f6576114f5612527565b5b0492506004810190505b60648310611523576064838161151957611518612527565b5b0492506002810190505b600a8310611532576001810190505b80915050919050565b508054600082556003029060005260206000209081019061155c91906115a4565b50565b508054600082559060005260206000209081019061157d91906115fa565b50565b50805460008255600302906000526020600020908101906115a19190611617565b50565b5b808211156115f657600080820160006101000a81549073ffffffffffffffffffffffffffffffffffffffff021916905560018201600090556002820160006115ed919061166d565b506003016115a5565b5090565b5b808211156116135760008160009055506001016115fb565b5090565b5b80821115611669576000808201600090556001820160006101000a81549073ffffffffffffffffffffffffffffffffffffffff0219169055600282016000611660919061166d565b50600301611618565b5090565b50805461167990611cd9565b6000825580601f1061168b57506116aa565b601f0160209004906000526020600020908101906116a991906115fa565b5b50565b600073ffffffffffffffffffffffffffffffffffffffff82169050919050565b60006116d8826116ad565b9050919050565b6116e8816116cd565b82525050565b600060208201905061170360008301846116df565b92915050565b6000604051905090565b600080fd5b600080fd5b6000819050919050565b6117308161171d565b811461173b57600080fd5b50565b60008135905061174d81611727565b92915050565b600080fd5b600080fd5b6000601f19601f8301169050919050565b7f4e487b7100000000000000000000000000000000000000000000000000000000600052604160045260246000fd5b6117a68261175d565b810181811067ffffffffffffffff821117156117c5576117c461176e565b5b80604052505050565b60006117d8611709565b90506117e4828261179d565b919050565b600067ffffffffffffffff8211156118045761180361176e565b5b61180d8261175d565b9050602081019050919050565b82818337600083830152505050565b600061183c611837846117e9565b6117ce565b90508281526020810184848401111561185857611857611758565b5b61186384828561181a565b509392505050565b600082601f8301126118805761187f611753565b5b8135611890848260208601611829565b91505092915050565b600080604083850312156118b0576118af611713565b5b60006118be8582860161173e565b925050602083013567ffffffffffffffff8111156118df576118de611718565b5b6118eb8582860161186b565b9150509250929050565b6118fe816116cd565b811461190957600080fd5b50565b60008135905061191b816118f5565b92915050565b60006020828403121561193757611936611713565b5b60006119458482850161190c565b91505092915050565b6000819050919050565b6119618161194e565b82525050565b600060208201905061197c6000830184611958565b92915050565b60006020828403121561199857611997611713565b5b60006119a68482850161173e565b91505092915050565b6119b88161171d565b82525050565b600081519050919050565b600082825260208201905092915050565b60005b838110156119f85780820151818401526020810190506119dd565b60008484015250505050565b6000611a0f826119be565b611a1981856119c9565b9350611a298185602086016119da565b611a328161175d565b840191505092915050565b6000606082019050611a5260008301866119af565b611a5f60208301856116df565b8181036040830152611a718184611a04565b9050949350505050565b60006020820190508181036000830152611a958184611a04565b905092915050565b60008060408385031215611ab457611ab3611713565b5b600083013567ffffffffffffffff811115611ad257611ad1611718565b5b611ade8582860161186b565b925050602083013567ffffffffffffffff811115611aff57611afe611718565b5b611b0b8582860161186b565b9150509250929050565b6000606082019050611b2a60008301866116df565b611b3760208301856119af565b8181036040830152611b498184611a04565b9050949350505050565b611b5c8161194e565b8114611b6757600080fd5b50565b600081359050611b7981611b53565b92915050565b600060208284031215611b9557611b94611713565b5b6000611ba384828501611b6a565b91505092915050565b7f5468657265206973206e6f20737461727465642061756374696f6e206e6f7700600082015250565b6000611be2601f836119c9565b9150611bed82611bac565b602082019050919050565b60006020820190508181036000830152611c1181611bd5565b9050919050565b7f4f6e6c7920726567697374657264206269646465722063616e2063616c6c207460008201527f6869732066756e6374696f6e0000000000000000000000000000000000000000602082015250565b6000611c74602c836119c9565b9150611c7f82611c18565b604082019050919050565b60006020820190508181036000830152611ca381611c67565b9050919050565b7f4e487b7100000000000000000000000000000000000000000000000000000000600052602260045260246000fd5b60006002820490506001821680611cf157607f821691505b602082108103611d0457611d03611caa565b5b50919050565b60008190508160005260206000209050919050565b60006020601f8301049050919050565b600082821b905092915050565b600060088302611d6c7fffffffffffffffffffffffffffffffffffffffffffffffffffffffffffffffff82611d2f565b611d768683611d2f565b95508019841693508086168417925050509392505050565b6000819050919050565b6000611db3611dae611da98461171d565b611d8e565b61171d565b9050919050565b6000819050919050565b611dcd83611d98565b611de1611dd982611dba565b848454611d3c565b825550505050565b600090565b611df6611de9565b611e01818484611dc4565b505050565b5b81811015611e2557611e1a600082611dee565b600181019050611e07565b5050565b601f821115611e6a57611e3b81611d0a565b611e4484611d1f565b81016020851015611e53578190505b611e67611e5f85611d1f565b830182611e06565b50505b505050565b600082821c905092915050565b6000611e8d60001984600802611e6f565b1980831691505092915050565b6000611ea68383611e7c565b9150826002028217905092915050565b611ebf826119be565b67ffffffffffffffff811115611ed857611ed761176e565b5b611ee28254611cd9565b611eed828285611e29565b600060209050601f831160018114611f205760008415611f0e578287015190505b611f188582611e9a565b865550611f80565b601f198416611f2e86611d0a565b60005b82811015611f5657848901518255600182019150602085019450602081019050611f31565b86831015611f735784890151611f6f601f891682611e7c565b8355505b6001600288020188555050505b505050505050565b7f4f6e6c792061756374696f6e6565722063616e2063616c6c207468697320667560008201527f6e6374696f6e0000000000000000000000000000000000000000000000000000602082015250565b6000611fe46026836119c9565b9150611fef82611f88565b604082019050919050565b6000602082019050818103600083015261201381611fd7565b9050919050565b7f41756374696f6e206973206e6f7420636f6d706c65746564207965742e000000600082015250565b6000612050601d836119c9565b915061205b8261201a565b602082019050919050565b6000602082019050818103600083015261207f81612043565b9050919050565b7f4e487b7100000000000000000000000000000000000000000000000000000000600052603260045260246000fd5b7f4e487b7100000000000000000000000000000000000000000000000000000000600052601160045260246000fd5b60006120ef8261171d565b91506120fa8361171d565b9250828201905080821115612112576121116120b5565b5b92915050565b7f5468652062696420616e64206e6f6e636520796f75207375626d69747465642060008201527f617265206e6f742076616c69642e000000000000000000000000000000000000602082015250565b6000612174602e836119c9565b915061217f82612118565b604082019050919050565b600060208201905081810360008301526121a381612167565b9050919050565b7f596f75722064697370757465206973206e6f742076616c69642073696e63652060008201527f6974206973206e6f742067726561746572207468616e206174206c656173742060208201527f6f6e652077696e6e65722e000000000000000000000000000000000000000000604082015250565b600061222c604b836119c9565b9150612237826121aa565b606082019050919050565b6000602082019050818103600083015261225b8161221f565b9050919050565b7f53656c6c65722063616e206e6f7420726567697374657220617320626964646560008201527f7200000000000000000000000000000000000000000000000000000000000000602082015250565b60006122be6021836119c9565b91506122c982612262565b604082019050919050565b600060208201905081810360008301526122ed816122b1565b9050919050565b7f54696d6520666f72207265676973746572696e6720617320612062696464657260008201527f206973207061737365642e000000000000000000000000000000000000000000602082015250565b6000612350602b836119c9565b915061235b826122f4565b604082019050919050565b6000602082019050818103600083015261237f81612343565b9050919050565b60006123918261171d565b91507fffffffffffffffffffffffffffffffffffffffffffffffffffffffffffffffff82036123c3576123c26120b5565b5b600182019050919050565b600081905092915050565b60006123e4826119be565b6123ee81856123ce565b93506123fe8185602086016119da565b80840191505092915050565b600061241682856123d9565b915061242282846123d9565b91508190509392505050565b600061243a82846123d9565b915081905092915050565b600081519050919050565b600081905092915050565b600061246682612445565b6124708185612450565b93506124808185602086016119da565b80840191505092915050565b6000612498828461245b565b915081905092915050565b6000815190506124b281611b53565b92915050565b6000602082840312156124ce576124cd611713565b5b60006124dc848285016124a3565b91505092915050565b60006124f08261171d565b91506124fb8361171d565b92508282026125098161171d565b915082820484148315176125205761251f6120b5565b5b5092915050565b7f4e487b7100000000000000000000000000000000000000000000000000000000600052601260045260246000fdfea26469706673582212204946cdeced21c7266b01dfec0c6658fede2bbf84acd8c36b2456a38b602cd0f764736f6c63430008120033",
					"opcodes": "PUSH1 0x80 PUSH1 0x40 MSTORE PUSH1 0x1 PUSH1 0x7 SSTORE PUSH1 0x0 PUSH1 0x8 PUSH1 0x0 PUSH2 0x100 EXP DUP2 SLOAD DUP2 PUSH1 0xFF MUL NOT AND SWAP1 DUP4 ISZERO ISZERO MUL OR SWAP1 SSTORE POP CALLVALUE DUP1 ISZERO PUSH2 0x30 JUMPI PUSH1 0x0 DUP1 REVERT JUMPDEST POP CALLER PUSH1 0x1 PUSH1 0x0 PUSH2 0x100 EXP DUP2 SLOAD DUP2 PUSH20 0xFFFFFFFFFFFFFFFFFFFFFFFFFFFFFFFFFFFFFFFF MUL NOT AND SWAP1 DUP4 PUSH20 0xFFFFFFFFFFFFFFFFFFFFFFFFFFFFFFFFFFFFFFFF AND MUL OR SWAP1 SSTORE POP PUSH2 0x258C DUP1 PUSH2 0x81 PUSH1 0x0 CODECOPY PUSH1 0x0 RETURN INVALID PUSH1 0x80 PUSH1 0x40 MSTORE CALLVALUE DUP1 ISZERO PUSH2 0x10 JUMPI PUSH1 0x0 DUP1 REVERT JUMPDEST POP PUSH1 0x4 CALLDATASIZE LT PUSH2 0xF5 JUMPI PUSH1 0x0 CALLDATALOAD PUSH1 0xE0 SHR DUP1 PUSH4 0x938626C2 GT PUSH2 0x97 JUMPI DUP1 PUSH4 0xCFF29DFD GT PUSH2 0x66 JUMPI DUP1 PUSH4 0xCFF29DFD EQ PUSH2 0x264 JUMPI DUP1 PUSH4 0xD826F88F EQ PUSH2 0x294 JUMPI DUP1 PUSH4 0xEC5D0AB2 EQ PUSH2 0x29E JUMPI DUP1 PUSH4 0xF356733C EQ PUSH2 0x2BA JUMPI PUSH2 0xF5 JUMP JUMPDEST DUP1 PUSH4 0x938626C2 EQ PUSH2 0x1DA JUMPI DUP1 PUSH4 0xA2EBC656 EQ PUSH2 0x1F8 JUMPI DUP1 PUSH4 0xA2FB1175 EQ PUSH2 0x214 JUMPI DUP1 PUSH4 0xC9230C5D EQ PUSH2 0x246 JUMPI PUSH2 0xF5 JUMP JUMPDEST DUP1 PUSH4 0x40BD5937 GT PUSH2 0xD3 JUMPI DUP1 PUSH4 0x40BD5937 EQ PUSH2 0x164 JUMPI DUP1 PUSH4 0x5EC2C7BF EQ PUSH2 0x16E JUMPI DUP1 PUSH4 0x66C85DEE EQ PUSH2 0x18C JUMPI DUP1 PUSH4 0x8F772F96 EQ PUSH2 0x1A8 JUMPI PUSH2 0xF5 JUMP JUMPDEST DUP1 PUSH4 0x8551A53 EQ PUSH2 0xFA JUMPI DUP1 PUSH4 0x1744E03B EQ PUSH2 0x118 JUMPI DUP1 PUSH4 0x3817DF4C EQ PUSH2 0x134 JUMPI JUMPDEST PUSH1 0x0 DUP1 REVERT JUMPDEST PUSH2 0x102 PUSH2 0x2C4 JUMP JUMPDEST PUSH1 0x40 MLOAD PUSH2 0x10F SWAP2 SWAP1 PUSH2 0x16EE JUMP JUMPDEST PUSH1 0x40 MLOAD DUP1 SWAP2 SUB SWAP1 RETURN JUMPDEST PUSH2 0x132 PUSH1 0x4 DUP1 CALLDATASIZE SUB DUP2 ADD SWAP1 PUSH2 0x12D SWAP2 SWAP1 PUSH2 0x1899 JUMP JUMPDEST PUSH2 0x2E8 JUMP JUMPDEST STOP JUMPDEST PUSH2 0x14E PUSH1 0x4 DUP1 CALLDATASIZE SUB DUP2 ADD SWAP1 PUSH2 0x149 SWAP2 SWAP1 PUSH2 0x1921 JUMP JUMPDEST PUSH2 0x45B JUMP JUMPDEST PUSH1 0x40 MLOAD PUSH2 0x15B SWAP2 SWAP1 PUSH2 0x1967 JUMP JUMPDEST PUSH1 0x40 MLOAD DUP1 SWAP2 SUB SWAP1 RETURN JUMPDEST PUSH2 0x16C PUSH2 0x473 JUMP JUMPDEST STOP JUMPDEST PUSH2 0x176 PUSH2 0x5F5 JUMP JUMPDEST PUSH1 0x40 MLOAD PUSH2 0x183 SWAP2 SWAP1 PUSH2 0x16EE JUMP JUMPDEST PUSH1 0x40 MLOAD DUP1 SWAP2 SUB SWAP1 RETURN JUMPDEST PUSH2 0x1A6 PUSH1 0x4 DUP1 CALLDATASIZE SUB DUP2 ADD SWAP1 PUSH2 0x1A1 SWAP2 SWAP1 PUSH2 0x1899 JUMP JUMPDEST PUSH2 0x61B JUMP JUMPDEST STOP JUMPDEST PUSH2 0x1C2 PUSH1 0x4 DUP1 CALLDATASIZE SUB DUP2 ADD SWAP1 PUSH2 0x1BD SWAP2 SWAP1 PUSH2 0x1982 JUMP JUMPDEST PUSH2 0x87F JUMP JUMPDEST PUSH1 0x40 MLOAD PUSH2 0x1D1 SWAP4 SWAP3 SWAP2 SWAP1 PUSH2 0x1A3D JUMP JUMPDEST PUSH1 0x40 MLOAD DUP1 SWAP2 SUB SWAP1 RETURN JUMPDEST PUSH2 0x1E2 PUSH2 0x961 JUMP JUMPDEST PUSH1 0x40 MLOAD PUSH2 0x1EF SWAP2 SWAP1 PUSH2 0x1A7B JUMP JUMPDEST PUSH1 0x40 MLOAD DUP1 SWAP2 SUB SWAP1 RETURN JUMPDEST PUSH2 0x212 PUSH1 0x4 DUP1 CALLDATASIZE SUB DUP2 ADD SWAP1 PUSH2 0x20D SWAP2 SWAP1 PUSH2 0x1A9D JUMP JUMPDEST PUSH2 0x9EF JUMP JUMPDEST STOP JUMPDEST PUSH2 0x22E PUSH1 0x4 DUP1 CALLDATASIZE SUB DUP2 ADD SWAP1 PUSH2 0x229 SWAP2 SWAP1 PUSH2 0x1982 JUMP JUMPDEST PUSH2 0xA76 JUMP JUMPDEST PUSH1 0x40 MLOAD PUSH2 0x23D SWAP4 SWAP3 SWAP2 SWAP1 PUSH2 0x1B15 JUMP JUMPDEST PUSH1 0x40 MLOAD DUP1 SWAP2 SUB SWAP1 RETURN JUMPDEST PUSH2 0x24E PUSH2 0xB58 JUMP JUMPDEST PUSH1 0x40 MLOAD PUSH2 0x25B SWAP2 SWAP1 PUSH2 0x1A7B JUMP JUMPDEST PUSH1 0x40 MLOAD DUP1 SWAP2 SUB SWAP1 RETURN JUMPDEST PUSH2 0x27E PUSH1 0x4 DUP1 CALLDATASIZE SUB DUP2 ADD SWAP1 PUSH2 0x279 SWAP2 SWAP1 PUSH2 0x1982 JUMP JUMPDEST PUSH2 0xBE6 JUMP JUMPDEST PUSH1 0x40 MLOAD PUSH2 0x28B SWAP2 SWAP1 PUSH2 0x16EE JUMP JUMPDEST PUSH1 0x40 MLOAD DUP1 SWAP2 SUB SWAP1 RETURN JUMPDEST PUSH2 0x29C PUSH2 0xC25 JUMP JUMPDEST STOP JUMPDEST PUSH2 0x2B8 PUSH1 0x4 DUP1 CALLDATASIZE SUB DUP2 ADD SWAP1 PUSH2 0x2B3 SWAP2 SWAP1 PUSH2 0x1B7F JUMP JUMPDEST PUSH2 0xD86 JUMP JUMPDEST STOP JUMPDEST PUSH2 0x2C2 PUSH2 0xE71 JUMP JUMPDEST STOP JUMPDEST PUSH1 0x0 DUP1 SLOAD SWAP1 PUSH2 0x100 EXP SWAP1 DIV PUSH20 0xFFFFFFFFFFFFFFFFFFFFFFFFFFFFFFFFFFFFFFFF AND DUP2 JUMP JUMPDEST PUSH1 0x1 ISZERO ISZERO PUSH1 0x8 PUSH1 0x0 SWAP1 SLOAD SWAP1 PUSH2 0x100 EXP SWAP1 DIV PUSH1 0xFF AND ISZERO ISZERO EQ PUSH2 0x33E JUMPI PUSH1 0x40 MLOAD PUSH32 0x8C379A000000000000000000000000000000000000000000000000000000000 DUP2 MSTORE PUSH1 0x4 ADD PUSH2 0x335 SWAP1 PUSH2 0x1BF8 JUMP JUMPDEST PUSH1 0x40 MLOAD DUP1 SWAP2 SUB SWAP1 REVERT JUMPDEST PUSH1 0x1 ISZERO ISZERO PUSH2 0x34A PUSH2 0xFFE JUMP JUMPDEST ISZERO ISZERO EQ PUSH2 0x38C JUMPI PUSH1 0x40 MLOAD PUSH32 0x8C379A000000000000000000000000000000000000000000000000000000000 DUP2 MSTORE PUSH1 0x4 ADD PUSH2 0x383 SWAP1 PUSH2 0x1C8A JUMP JUMPDEST PUSH1 0x40 MLOAD DUP1 SWAP2 SUB SWAP1 REVERT JUMPDEST PUSH1 0x0 PUSH1 0x40 MLOAD DUP1 PUSH1 0x60 ADD PUSH1 0x40 MSTORE DUP1 CALLER PUSH20 0xFFFFFFFFFFFFFFFFFFFFFFFFFFFFFFFFFFFFFFFF AND DUP2 MSTORE PUSH1 0x20 ADD DUP5 DUP2 MSTORE PUSH1 0x20 ADD DUP4 DUP2 MSTORE POP SWAP1 POP PUSH1 0xB DUP2 SWAP1 DUP1 PUSH1 0x1 DUP2 SLOAD ADD DUP1 DUP3 SSTORE DUP1 SWAP2 POP POP PUSH1 0x1 SWAP1 SUB SWAP1 PUSH1 0x0 MSTORE PUSH1 0x20 PUSH1 0x0 KECCAK256 SWAP1 PUSH1 0x3 MUL ADD PUSH1 0x0 SWAP1 SWAP2 SWAP1 SWAP2 SWAP1 SWAP2 POP PUSH1 0x0 DUP3 ADD MLOAD DUP2 PUSH1 0x0 ADD PUSH1 0x0 PUSH2 0x100 EXP DUP2 SLOAD DUP2 PUSH20 0xFFFFFFFFFFFFFFFFFFFFFFFFFFFFFFFFFFFFFFFF MUL NOT AND SWAP1 DUP4 PUSH20 0xFFFFFFFFFFFFFFFFFFFFFFFFFFFFFFFFFFFFFFFF AND MUL OR SWAP1 SSTORE POP PUSH1 0x20 DUP3 ADD MLOAD DUP2 PUSH1 0x1 ADD SSTORE PUSH1 0x40 DUP3 ADD MLOAD DUP2 PUSH1 0x2 ADD SWAP1 DUP2 PUSH2 0x453 SWAP2 SWAP1 PUSH2 0x1EB6 JUMP JUMPDEST POP POP POP POP POP POP JUMP JUMPDEST PUSH1 0xA PUSH1 0x20 MSTORE DUP1 PUSH1 0x0 MSTORE PUSH1 0x40 PUSH1 0x0 KECCAK256 PUSH1 0x0 SWAP2 POP SWAP1 POP SLOAD DUP2 JUMP JUMPDEST PUSH1 0x1 PUSH1 0x0 SWAP1 SLOAD SWAP1 PUSH2 0x100 EXP SWAP1 DIV PUSH20 0xFFFFFFFFFFFFFFFFFFFFFFFFFFFFFFFFFFFFFFFF AND PUSH20 0xFFFFFFFFFFFFFFFFFFFFFFFFFFFFFFFFFFFFFFFF AND CALLER PUSH20 0xFFFFFFFFFFFFFFFFFFFFFFFFFFFFFFFFFFFFFFFF AND EQ PUSH2 0x503 JUMPI PUSH1 0x40 MLOAD PUSH32 0x8C379A000000000000000000000000000000000000000000000000000000000 DUP2 MSTORE PUSH1 0x4 ADD PUSH2 0x4FA SWAP1 PUSH2 0x1FFA JUMP JUMPDEST PUSH1 0x40 MLOAD DUP1 SWAP2 SUB SWAP1 REVERT JUMPDEST PUSH1 0x6 SLOAD TIMESTAMP GT PUSH2 0x547 JUMPI PUSH1 0x40 MLOAD PUSH32 0x8C379A000000000000000000000000000000000000000000000000000000000 DUP2 MSTORE PUSH1 0x4 ADD PUSH2 0x53E SWAP1 PUSH2 0x2066 JUMP JUMPDEST PUSH1 0x40 MLOAD DUP1 SWAP2 SUB SWAP1 REVERT JUMPDEST PUSH1 0x0 JUMPDEST PUSH1 0x9 DUP1 SLOAD SWAP1 POP DUP2 LT ISZERO PUSH2 0x5F2 JUMPI PUSH1 0x0 PUSH1 0x9 DUP3 DUP2 SLOAD DUP2 LT PUSH2 0x56D JUMPI PUSH2 0x56C PUSH2 0x2086 JUMP JUMPDEST JUMPDEST SWAP1 PUSH1 0x0 MSTORE PUSH1 0x20 PUSH1 0x0 KECCAK256 ADD PUSH1 0x0 SWAP1 SLOAD SWAP1 PUSH2 0x100 EXP SWAP1 DIV PUSH20 0xFFFFFFFFFFFFFFFFFFFFFFFFFFFFFFFFFFFFFFFF AND SWAP1 POP PUSH1 0xA PUSH1 0x0 DUP3 PUSH20 0xFFFFFFFFFFFFFFFFFFFFFFFFFFFFFFFFFFFFFFFF AND PUSH20 0xFFFFFFFFFFFFFFFFFFFFFFFFFFFFFFFFFFFFFFFF AND DUP2 MSTORE PUSH1 0x20 ADD SWAP1 DUP2 MSTORE PUSH1 0x20 ADD PUSH1 0x0 KECCAK256 PUSH1 0x0 SWAP1 SSTORE POP PUSH1 0x1 DUP2 PUSH2 0x5EB SWAP2 SWAP1 PUSH2 0x20E4 JUMP JUMPDEST SWAP1 POP PUSH2 0x54A JUMP JUMPDEST POP JUMP JUMPDEST PUSH1 0x1 PUSH1 0x0 SWAP1 SLOAD SWAP1 PUSH2 0x100 EXP SWAP1 DIV PUSH20 0xFFFFFFFFFFFFFFFFFFFFFFFFFFFFFFFFFFFFFFFF AND DUP2 JUMP JUMPDEST PUSH1 0x1 ISZERO ISZERO PUSH1 0x8 PUSH1 0x0 SWAP1 SLOAD SWAP1 PUSH2 0x100 EXP SWAP1 DIV PUSH1 0xFF AND ISZERO ISZERO EQ PUSH2 0x671 JUMPI PUSH1 0x40 MLOAD PUSH32 0x8C379A000000000000000000000000000000000000000000000000000000000 DUP2 MSTORE PUSH1 0x4 ADD PUSH2 0x668 SWAP1 PUSH2 0x1BF8 JUMP JUMPDEST PUSH1 0x40 MLOAD DUP1 SWAP2 SUB SWAP1 REVERT JUMPDEST PUSH1 0x1 ISZERO ISZERO PUSH2 0x67D PUSH2 0xFFE JUMP JUMPDEST ISZERO ISZERO EQ PUSH2 0x6BF JUMPI PUSH1 0x40 MLOAD PUSH32 0x8C379A000000000000000000000000000000000000000000000000000000000 DUP2 MSTORE PUSH1 0x4 ADD PUSH2 0x6B6 SWAP1 PUSH2 0x1C8A JUMP JUMPDEST PUSH1 0x40 MLOAD DUP1 SWAP2 SUB SWAP1 REVERT JUMPDEST PUSH1 0x0 PUSH2 0x6CB DUP4 DUP4 PUSH2 0x10AA JUMP JUMPDEST SWAP1 POP DUP1 PUSH1 0xA PUSH1 0x0 CALLER PUSH20 0xFFFFFFFFFFFFFFFFFFFFFFFFFFFFFFFFFFFFFFFF AND PUSH20 0xFFFFFFFFFFFFFFFFFFFFFFFFFFFFFFFFFFFFFFFF AND DUP2 MSTORE PUSH1 0x20 ADD SWAP1 DUP2 MSTORE PUSH1 0x20 ADD PUSH1 0x0 KECCAK256 SLOAD EQ PUSH2 0x74E JUMPI PUSH1 0x40 MLOAD PUSH32 0x8C379A000000000000000000000000000000000000000000000000000000000 DUP2 MSTORE PUSH1 0x4 ADD PUSH2 0x745 SWAP1 PUSH2 0x218A JUMP JUMPDEST PUSH1 0x40 MLOAD DUP1 SWAP2 SUB SWAP1 REVERT JUMPDEST PUSH1 0x1 ISZERO ISZERO PUSH2 0x75B DUP5 PUSH2 0x1157 JUMP JUMPDEST ISZERO ISZERO EQ PUSH2 0x79D JUMPI PUSH1 0x40 MLOAD PUSH32 0x8C379A000000000000000000000000000000000000000000000000000000000 DUP2 MSTORE PUSH1 0x4 ADD PUSH2 0x794 SWAP1 PUSH2 0x2242 JUMP JUMPDEST PUSH1 0x40 MLOAD DUP1 SWAP2 SUB SWAP1 REVERT JUMPDEST PUSH2 0x7A5 PUSH2 0x11C1 JUMP JUMPDEST PUSH2 0x7AF DUP4 DUP4 PUSH2 0x11D1 JUMP JUMPDEST PUSH1 0x0 PUSH1 0x40 MLOAD DUP1 PUSH1 0x60 ADD PUSH1 0x40 MSTORE DUP1 DUP6 DUP2 MSTORE PUSH1 0x20 ADD CALLER PUSH20 0xFFFFFFFFFFFFFFFFFFFFFFFFFFFFFFFFFFFFFFFF AND DUP2 MSTORE PUSH1 0x20 ADD DUP5 DUP2 MSTORE POP SWAP1 POP PUSH1 0xC DUP2 SWAP1 DUP1 PUSH1 0x1 DUP2 SLOAD ADD DUP1 DUP3 SSTORE DUP1 SWAP2 POP POP PUSH1 0x1 SWAP1 SUB SWAP1 PUSH1 0x0 MSTORE PUSH1 0x20 PUSH1 0x0 KECCAK256 SWAP1 PUSH1 0x3 MUL ADD PUSH1 0x0 SWAP1 SWAP2 SWAP1 SWAP2 SWAP1 SWAP2 POP PUSH1 0x0 DUP3 ADD MLOAD DUP2 PUSH1 0x0 ADD SSTORE PUSH1 0x20 DUP3 ADD MLOAD DUP2 PUSH1 0x1 ADD PUSH1 0x0 PUSH2 0x100 EXP DUP2 SLOAD DUP2 PUSH20 0xFFFFFFFFFFFFFFFFFFFFFFFFFFFFFFFFFFFFFFFF MUL NOT AND SWAP1 DUP4 PUSH20 0xFFFFFFFFFFFFFFFFFFFFFFFFFFFFFFFFFFFFFFFF AND MUL OR SWAP1 SSTORE POP PUSH1 0x40 DUP3 ADD MLOAD DUP2 PUSH1 0x2 ADD SWAP1 DUP2 PUSH2 0x876 SWAP2 SWAP1 PUSH2 0x1EB6 JUMP JUMPDEST POP POP POP POP POP POP POP JUMP JUMPDEST PUSH1 0xC DUP2 DUP2 SLOAD DUP2 LT PUSH2 0x88F JUMPI PUSH1 0x0 DUP1 REVERT JUMPDEST SWAP1 PUSH1 0x0 MSTORE PUSH1 0x20 PUSH1 0x0 KECCAK256 SWAP1 PUSH1 0x3 MUL ADD PUSH1 0x0 SWAP2 POP SWAP1 POP DUP1 PUSH1 0x0 ADD SLOAD SWAP1 DUP1 PUSH1 0x1 ADD PUSH1 0x0 SWAP1 SLOAD SWAP1 PUSH2 0x100 EXP SWAP1 DIV PUSH20 0xFFFFFFFFFFFFFFFFFFFFFFFFFFFFFFFFFFFFFFFF AND SWAP1 DUP1 PUSH1 0x2 ADD DUP1 SLOAD PUSH2 0x8DE SWAP1 PUSH2 0x1CD9 JUMP JUMPDEST DUP1 PUSH1 0x1F ADD PUSH1 0x20 DUP1 SWAP2 DIV MUL PUSH1 0x20 ADD PUSH1 0x40 MLOAD SWAP1 DUP2 ADD PUSH1 0x40 MSTORE DUP1 SWAP3 SWAP2 SWAP1 DUP2 DUP2 MSTORE PUSH1 0x20 ADD DUP3 DUP1 SLOAD PUSH2 0x90A SWAP1 PUSH2 0x1CD9 JUMP JUMPDEST DUP1 ISZERO PUSH2 0x957 JUMPI DUP1 PUSH1 0x1F LT PUSH2 0x92C JUMPI PUSH2 0x100 DUP1 DUP4 SLOAD DIV MUL DUP4 MSTORE SWAP2 PUSH1 0x20 ADD SWAP2 PUSH2 0x957 JUMP JUMPDEST DUP3 ADD SWAP2 SWAP1 PUSH1 0x0 MSTORE PUSH1 0x20 PUSH1 0x0 KECCAK256 SWAP1 JUMPDEST DUP2 SLOAD DUP2 MSTORE SWAP1 PUSH1 0x1 ADD SWAP1 PUSH1 0x20 ADD DUP1 DUP4 GT PUSH2 0x93A JUMPI DUP3 SWAP1 SUB PUSH1 0x1F AND DUP3 ADD SWAP2 JUMPDEST POP POP POP POP POP SWAP1 POP DUP4 JUMP JUMPDEST PUSH1 0x2 DUP1 SLOAD PUSH2 0x96E SWAP1 PUSH2 0x1CD9 JUMP JUMPDEST DUP1 PUSH1 0x1F ADD PUSH1 0x20 DUP1 SWAP2 DIV MUL PUSH1 0x20 ADD PUSH1 0x40 MLOAD SWAP1 DUP2 ADD PUSH1 0x40 MSTORE DUP1 SWAP3 SWAP2 SWAP1 DUP2 DUP2 MSTORE PUSH1 0x20 ADD DUP3 DUP1 SLOAD PUSH2 0x99A SWAP1 PUSH2 0x1CD9 JUMP JUMPDEST DUP1 ISZERO PUSH2 0x9E7 JUMPI DUP1 PUSH1 0x1F LT PUSH2 0x9BC JUMPI PUSH2 0x100 DUP1 DUP4 SLOAD DIV MUL DUP4 MSTORE SWAP2 PUSH1 0x20 ADD SWAP2 PUSH2 0x9E7 JUMP JUMPDEST DUP3 ADD SWAP2 SWAP1 PUSH1 0x0 MSTORE PUSH1 0x20 PUSH1 0x0 KECCAK256 SWAP1 JUMPDEST DUP2 SLOAD DUP2 MSTORE SWAP1 PUSH1 0x1 ADD SWAP1 PUSH1 0x20 ADD DUP1 DUP4 GT PUSH2 0x9CA JUMPI DUP3 SWAP1 SUB PUSH1 0x1F AND DUP3 ADD SWAP2 JUMPDEST POP POP POP POP POP DUP2 JUMP JUMPDEST CALLER PUSH1 0x0 DUP1 PUSH2 0x100 EXP DUP2 SLOAD DUP2 PUSH20 0xFFFFFFFFFFFFFFFFFFFFFFFFFFFFFFFFFFFFFFFF MUL NOT AND SWAP1 DUP4 PUSH20 0xFFFFFFFFFFFFFFFFFFFFFFFFFFFFFFFFFFFFFFFF AND MUL OR SWAP1 SSTORE POP DUP2 PUSH1 0x3 SWAP1 DUP2 PUSH2 0xA3E SWAP2 SWAP1 PUSH2 0x1EB6 JUMP JUMPDEST POP DUP1 PUSH1 0x2 SWAP1 DUP2 PUSH2 0xA4E SWAP2 SWAP1 PUSH2 0x1EB6 JUMP JUMPDEST POP PUSH2 0xA57 PUSH2 0x12A0 JUMP JUMPDEST PUSH1 0x1 PUSH1 0x8 PUSH1 0x0 PUSH2 0x100 EXP DUP2 SLOAD DUP2 PUSH1 0xFF MUL NOT AND SWAP1 DUP4 ISZERO ISZERO MUL OR SWAP1 SSTORE POP POP POP JUMP JUMPDEST PUSH1 0xB DUP2 DUP2 SLOAD DUP2 LT PUSH2 0xA86 JUMPI PUSH1 0x0 DUP1 REVERT JUMPDEST SWAP1 PUSH1 0x0 MSTORE PUSH1 0x20 PUSH1 0x0 KECCAK256 SWAP1 PUSH1 0x3 MUL ADD PUSH1 0x0 SWAP2 POP SWAP1 POP DUP1 PUSH1 0x0 ADD PUSH1 0x0 SWAP1 SLOAD SWAP1 PUSH2 0x100 EXP SWAP1 DIV PUSH20 0xFFFFFFFFFFFFFFFFFFFFFFFFFFFFFFFFFFFFFFFF AND SWAP1 DUP1 PUSH1 0x1 ADD SLOAD SWAP1 DUP1 PUSH1 0x2 ADD DUP1 SLOAD PUSH2 0xAD5 SWAP1 PUSH2 0x1CD9 JUMP JUMPDEST DUP1 PUSH1 0x1F ADD PUSH1 0x20 DUP1 SWAP2 DIV MUL PUSH1 0x20 ADD PUSH1 0x40 MLOAD SWAP1 DUP2 ADD PUSH1 0x40 MSTORE DUP1 SWAP3 SWAP2 SWAP1 DUP2 DUP2 MSTORE PUSH1 0x20 ADD DUP3 DUP1 SLOAD PUSH2 0xB01 SWAP1 PUSH2 0x1CD9 JUMP JUMPDEST DUP1 ISZERO PUSH2 0xB4E JUMPI DUP1 PUSH1 0x1F LT PUSH2 0xB23 JUMPI PUSH2 0x100 DUP1 DUP4 SLOAD DIV MUL DUP4 MSTORE SWAP2 PUSH1 0x20 ADD SWAP2 PUSH2 0xB4E JUMP JUMPDEST DUP3 ADD SWAP2 SWAP1 PUSH1 0x0 MSTORE PUSH1 0x20 PUSH1 0x0 KECCAK256 SWAP1 JUMPDEST DUP2 SLOAD DUP2 MSTORE SWAP1 PUSH1 0x1 ADD SWAP1 PUSH1 0x20 ADD DUP1 DUP4 GT PUSH2 0xB31 JUMPI DUP3 SWAP1 SUB PUSH1 0x1F AND DUP3 ADD SWAP2 JUMPDEST POP POP POP POP POP SWAP1 POP DUP4 JUMP JUMPDEST PUSH1 0x3 DUP1 SLOAD PUSH2 0xB65 SWAP1 PUSH2 0x1CD9 JUMP JUMPDEST DUP1 PUSH1 0x1F ADD PUSH1 0x20 DUP1 SWAP2 DIV MUL PUSH1 0x20 ADD PUSH1 0x40 MLOAD SWAP1 DUP2 ADD PUSH1 0x40 MSTORE DUP1 SWAP3 SWAP2 SWAP1 DUP2 DUP2 MSTORE PUSH1 0x20 ADD DUP3 DUP1 SLOAD PUSH2 0xB91 SWAP1 PUSH2 0x1CD9 JUMP JUMPDEST DUP1 ISZERO PUSH2 0xBDE JUMPI DUP1 PUSH1 0x1F LT PUSH2 0xBB3 JUMPI PUSH2 0x100 DUP1 DUP4 SLOAD DIV MUL DUP4 MSTORE SWAP2 PUSH1 0x20 ADD SWAP2 PUSH2 0xBDE JUMP JUMPDEST DUP3 ADD SWAP2 SWAP1 PUSH1 0x0 MSTORE PUSH1 0x20 PUSH1 0x0 KECCAK256 SWAP1 JUMPDEST DUP2 SLOAD DUP2 MSTORE SWAP1 PUSH1 0x1 ADD SWAP1 PUSH1 0x20 ADD DUP1 DUP4 GT PUSH2 0xBC1 JUMPI DUP3 SWAP1 SUB PUSH1 0x1F AND DUP3 ADD SWAP2 JUMPDEST POP POP POP POP POP DUP2 JUMP JUMPDEST PUSH1 0x9 DUP2 DUP2 SLOAD DUP2 LT PUSH2 0xBF6 JUMPI PUSH1 0x0 DUP1 REVERT JUMPDEST SWAP1 PUSH1 0x0 MSTORE PUSH1 0x20 PUSH1 0x0 KECCAK256 ADD PUSH1 0x0 SWAP2 POP SLOAD SWAP1 PUSH2 0x100 EXP SWAP1 DIV PUSH20 0xFFFFFFFFFFFFFFFFFFFFFFFFFFFFFFFFFFFFFFFF AND DUP2 JUMP JUMPDEST PUSH1 0x1 PUSH1 0x0 SWAP1 SLOAD SWAP1 PUSH2 0x100 EXP SWAP1 DIV PUSH20 0xFFFFFFFFFFFFFFFFFFFFFFFFFFFFFFFFFFFFFFFF AND PUSH20 0xFFFFFFFFFFFFFFFFFFFFFFFFFFFFFFFFFFFFFFFF AND CALLER PUSH20 0xFFFFFFFFFFFFFFFFFFFFFFFFFFFFFFFFFFFFFFFF AND EQ PUSH2 0xCB5 JUMPI PUSH1 0x40 MLOAD PUSH32 0x8C379A000000000000000000000000000000000000000000000000000000000 DUP2 MSTORE PUSH1 0x4 ADD PUSH2 0xCAC SWAP1 PUSH2 0x1FFA JUMP JUMPDEST PUSH1 0x40 MLOAD DUP1 SWAP2 SUB SWAP1 REVERT JUMPDEST PUSH1 0x6 SLOAD TIMESTAMP GT PUSH2 0xCF9 JUMPI PUSH1 0x40 MLOAD PUSH32 0x8C379A000000000000000000000000000000000000000000000000000000000 DUP2 MSTORE PUSH1 0x4 ADD PUSH2 0xCF0 SWAP1 PUSH2 0x2066 JUMP JUMPDEST PUSH1 0x40 MLOAD DUP1 SWAP2 SUB SWAP1 REVERT JUMPDEST PUSH1 0xB PUSH1 0x0 PUSH2 0xD07 SWAP2 SWAP1 PUSH2 0x153B JUMP JUMPDEST PUSH1 0x40 MLOAD DUP1 PUSH1 0x20 ADD PUSH1 0x40 MSTORE DUP1 PUSH1 0x0 DUP2 MSTORE POP PUSH1 0x2 SWAP1 DUP2 PUSH2 0xD25 SWAP2 SWAP1 PUSH2 0x1EB6 JUMP JUMPDEST POP PUSH1 0x40 MLOAD DUP1 PUSH1 0x20 ADD PUSH1 0x40 MSTORE DUP1 PUSH1 0x0 DUP2 MSTORE POP PUSH1 0x3 SWAP1 DUP2 PUSH2 0xD44 SWAP2 SWAP1 PUSH2 0x1EB6 JUMP JUMPDEST POP PUSH2 0xD4D PUSH2 0x473 JUMP JUMPDEST PUSH1 0x9 PUSH1 0x0 PUSH2 0xD5B SWAP2 SWAP1 PUSH2 0x155F JUMP JUMPDEST PUSH1 0xC PUSH1 0x0 PUSH2 0xD69 SWAP2 SWAP1 PUSH2 0x1580 JUMP JUMPDEST PUSH1 0x0 PUSH1 0x8 PUSH1 0x0 PUSH2 0x100 EXP DUP2 SLOAD DUP2 PUSH1 0xFF MUL NOT AND SWAP1 DUP4 ISZERO ISZERO MUL OR SWAP1 SSTORE POP JUMP JUMPDEST PUSH1 0x1 ISZERO ISZERO PUSH1 0x8 PUSH1 0x0 SWAP1 SLOAD SWAP1 PUSH2 0x100 EXP SWAP1 DIV PUSH1 0xFF AND ISZERO ISZERO EQ PUSH2 0xDDC JUMPI PUSH1 0x40 MLOAD PUSH32 0x8C379A000000000000000000000000000000000000000000000000000000000 DUP2 MSTORE PUSH1 0x4 ADD PUSH2 0xDD3 SWAP1 PUSH2 0x1BF8 JUMP JUMPDEST PUSH1 0x40 MLOAD DUP1 SWAP2 SUB SWAP1 REVERT JUMPDEST PUSH1 0x1 ISZERO ISZERO PUSH2 0xDE8 PUSH2 0xFFE JUMP JUMPDEST ISZERO ISZERO EQ PUSH2 0xE2A JUMPI PUSH1 0x40 MLOAD PUSH32 0x8C379A000000000000000000000000000000000000000000000000000000000 DUP2 MSTORE PUSH1 0x4 ADD PUSH2 0xE21 SWAP1 PUSH2 0x1C8A JUMP JUMPDEST PUSH1 0x40 MLOAD DUP1 SWAP2 SUB SWAP1 REVERT JUMPDEST DUP1 PUSH1 0xA PUSH1 0x0 CALLER PUSH20 0xFFFFFFFFFFFFFFFFFFFFFFFFFFFFFFFFFFFFFFFF AND PUSH20 0xFFFFFFFFFFFFFFFFFFFFFFFFFFFFFFFFFFFFFFFF AND DUP2 MSTORE PUSH1 0x20 ADD SWAP1 DUP2 MSTORE PUSH1 0x20 ADD PUSH1 0x0 KECCAK256 DUP2 SWAP1 SSTORE POP POP JUMP JUMPDEST PUSH1 0x1 ISZERO ISZERO PUSH1 0x8 PUSH1 0x0 SWAP1 SLOAD SWAP1 PUSH2 0x100 EXP SWAP1 DIV PUSH1 0xFF AND ISZERO ISZERO EQ PUSH2 0xEC7 JUMPI PUSH1 0x40 MLOAD PUSH32 0x8C379A000000000000000000000000000000000000000000000000000000000 DUP2 MSTORE PUSH1 0x4 ADD PUSH2 0xEBE SWAP1 PUSH2 0x1BF8 JUMP JUMPDEST PUSH1 0x40 MLOAD DUP1 SWAP2 SUB SWAP1 REVERT JUMPDEST PUSH1 0x0 DUP1 SLOAD SWAP1 PUSH2 0x100 EXP SWAP1 DIV PUSH20 0xFFFFFFFFFFFFFFFFFFFFFFFFFFFFFFFFFFFFFFFF AND PUSH20 0xFFFFFFFFFFFFFFFFFFFFFFFFFFFFFFFFFFFFFFFF AND CALLER PUSH20 0xFFFFFFFFFFFFFFFFFFFFFFFFFFFFFFFFFFFFFFFF AND SUB PUSH2 0xF55 JUMPI PUSH1 0x40 MLOAD PUSH32 0x8C379A000000000000000000000000000000000000000000000000000000000 DUP2 MSTORE PUSH1 0x4 ADD PUSH2 0xF4C SWAP1 PUSH2 0x22D4 JUMP JUMPDEST PUSH1 0x40 MLOAD DUP1 SWAP2 SUB SWAP1 REVERT JUMPDEST PUSH1 0x4 SLOAD TIMESTAMP LT PUSH2 0xF99 JUMPI PUSH1 0x40 MLOAD PUSH32 0x8C379A000000000000000000000000000000000000000000000000000000000 DUP2 MSTORE PUSH1 0x4 ADD PUSH2 0xF90 SWAP1 PUSH2 0x2366 JUMP JUMPDEST PUSH1 0x40 MLOAD DUP1 SWAP2 SUB SWAP1 REVERT JUMPDEST PUSH1 0x9 CALLER SWAP1 DUP1 PUSH1 0x1 DUP2 SLOAD ADD DUP1 DUP3 SSTORE DUP1 SWAP2 POP POP PUSH1 0x1 SWAP1 SUB SWAP1 PUSH1 0x0 MSTORE PUSH1 0x20 PUSH1 0x0 KECCAK256 ADD PUSH1 0x0 SWAP1 SWAP2 SWAP1 SWAP2 SWAP1 SWAP2 PUSH2 0x100 EXP DUP2 SLOAD DUP2 PUSH20 0xFFFFFFFFFFFFFFFFFFFFFFFFFFFFFFFFFFFFFFFF MUL NOT AND SWAP1 DUP4 PUSH20 0xFFFFFFFFFFFFFFFFFFFFFFFFFFFFFFFFFFFFFFFF AND MUL OR SWAP1 SSTORE POP JUMP JUMPDEST PUSH1 0x0 DUP1 PUSH1 0x0 SWAP1 POP JUMPDEST PUSH1 0x9 DUP1 SLOAD SWAP1 POP DUP2 LT ISZERO PUSH2 0x10A1 JUMPI PUSH1 0x9 DUP2 DUP2 SLOAD DUP2 LT PUSH2 0x1027 JUMPI PUSH2 0x1026 PUSH2 0x2086 JUMP JUMPDEST JUMPDEST SWAP1 PUSH1 0x0 MSTORE PUSH1 0x20 PUSH1 0x0 KECCAK256 ADD PUSH1 0x0 SWAP1 SLOAD SWAP1 PUSH2 0x100 EXP SWAP1 DIV PUSH20 0xFFFFFFFFFFFFFFFFFFFFFFFFFFFFFFFFFFFFFFFF AND PUSH20 0xFFFFFFFFFFFFFFFFFFFFFFFFFFFFFFFFFFFFFFFF AND CALLER PUSH20 0xFFFFFFFFFFFFFFFFFFFFFFFFFFFFFFFFFFFFFFFF AND SUB PUSH2 0x108E JUMPI PUSH1 0x1 SWAP2 POP POP PUSH2 0x10A7 JUMP JUMPDEST DUP1 DUP1 PUSH2 0x1099 SWAP1 PUSH2 0x2386 JUMP JUMPDEST SWAP2 POP POP PUSH2 0x1006 JUMP JUMPDEST POP PUSH1 0x0 SWAP1 POP JUMPDEST SWAP1 JUMP JUMPDEST PUSH1 0x0 DUP1 PUSH2 0x10B6 DUP5 PUSH2 0x131A JUMP JUMPDEST SWAP1 POP PUSH1 0x0 DUP2 DUP5 PUSH1 0x40 MLOAD PUSH1 0x20 ADD PUSH2 0x10CD SWAP3 SWAP2 SWAP1 PUSH2 0x240A JUMP JUMPDEST PUSH1 0x40 MLOAD PUSH1 0x20 DUP2 DUP4 SUB SUB DUP2 MSTORE SWAP1 PUSH1 0x40 MSTORE SWAP1 POP PUSH1 0x2 DUP2 PUSH1 0x40 MLOAD PUSH1 0x20 ADD PUSH2 0x10F1 SWAP2 SWAP1 PUSH2 0x242E JUMP JUMPDEST PUSH1 0x40 MLOAD PUSH1 0x20 DUP2 DUP4 SUB SUB DUP2 MSTORE SWAP1 PUSH1 0x40 MSTORE PUSH1 0x40 MLOAD PUSH2 0x110D SWAP2 SWAP1 PUSH2 0x248C JUMP JUMPDEST PUSH1 0x20 PUSH1 0x40 MLOAD DUP1 DUP4 SUB DUP2 DUP6 GAS STATICCALL ISZERO DUP1 ISZERO PUSH2 0x112A JUMPI RETURNDATASIZE PUSH1 0x0 DUP1 RETURNDATACOPY RETURNDATASIZE PUSH1 0x0 REVERT JUMPDEST POP POP POP PUSH1 0x40 MLOAD RETURNDATASIZE PUSH1 0x1F NOT PUSH1 0x1F DUP3 ADD AND DUP3 ADD DUP1 PUSH1 0x40 MSTORE POP DUP2 ADD SWAP1 PUSH2 0x114D SWAP2 SWAP1 PUSH2 0x24B8 JUMP JUMPDEST SWAP3 POP POP POP SWAP3 SWAP2 POP POP JUMP JUMPDEST PUSH1 0x0 DUP1 PUSH1 0x0 SWAP1 POP JUMPDEST PUSH1 0xB DUP1 SLOAD SWAP1 POP DUP2 LT ISZERO PUSH2 0x11B6 JUMPI PUSH1 0xB DUP2 DUP2 SLOAD DUP2 LT PUSH2 0x1180 JUMPI PUSH2 0x117F PUSH2 0x2086 JUMP JUMPDEST JUMPDEST SWAP1 PUSH1 0x0 MSTORE PUSH1 0x20 PUSH1 0x0 KECCAK256 SWAP1 PUSH1 0x3 MUL ADD PUSH1 0x1 ADD SLOAD DUP4 GT ISZERO PUSH2 0x11A3 JUMPI PUSH1 0x1 SWAP2 POP POP PUSH2 0x11BC JUMP JUMPDEST DUP1 DUP1 PUSH2 0x11AE SWAP1 PUSH2 0x2386 JUMP JUMPDEST SWAP2 POP POP PUSH2 0x115F JUMP JUMPDEST POP PUSH1 0x0 SWAP1 POP JUMPDEST SWAP2 SWAP1 POP JUMP JUMPDEST PUSH1 0xB PUSH1 0x0 PUSH2 0x11CF SWAP2 SWAP1 PUSH2 0x153B JUMP JUMPDEST JUMP JUMPDEST PUSH1 0x0 PUSH1 0x40 MLOAD DUP1 PUSH1 0x60 ADD PUSH1 0x40 MSTORE DUP1 CALLER PUSH20 0xFFFFFFFFFFFFFFFFFFFFFFFFFFFFFFFFFFFFFFFF AND DUP2 MSTORE PUSH1 0x20 ADD DUP5 DUP2 MSTORE PUSH1 0x20 ADD DUP4 DUP2 MSTORE POP SWAP1 POP PUSH1 0xB DUP2 SWAP1 DUP1 PUSH1 0x1 DUP2 SLOAD ADD DUP1 DUP3 SSTORE DUP1 SWAP2 POP POP PUSH1 0x1 SWAP1 SUB SWAP1 PUSH1 0x0 MSTORE PUSH1 0x20 PUSH1 0x0 KECCAK256 SWAP1 PUSH1 0x3 MUL ADD PUSH1 0x0 SWAP1 SWAP2 SWAP1 SWAP2 SWAP1 SWAP2 POP PUSH1 0x0 DUP3 ADD MLOAD DUP2 PUSH1 0x0 ADD PUSH1 0x0 PUSH2 0x100 EXP DUP2 SLOAD DUP2 PUSH20 0xFFFFFFFFFFFFFFFFFFFFFFFFFFFFFFFFFFFFFFFF MUL NOT AND SWAP1 DUP4 PUSH20 0xFFFFFFFFFFFFFFFFFFFFFFFFFFFFFFFFFFFFFFFF AND MUL OR SWAP1 SSTORE POP PUSH1 0x20 DUP3 ADD MLOAD DUP2 PUSH1 0x1 ADD SSTORE PUSH1 0x40 DUP3 ADD MLOAD DUP2 PUSH1 0x2 ADD SWAP1 DUP2 PUSH2 0x1298 SWAP2 SWAP1 PUSH2 0x1EB6 JUMP JUMPDEST POP POP POP POP POP POP JUMP JUMPDEST PUSH1 0x3C PUSH1 0x7 SLOAD PUSH2 0x12AF SWAP2 SWAP1 PUSH2 0x24E5 JUMP JUMPDEST TIMESTAMP PUSH2 0x12BA SWAP2 SWAP1 PUSH2 0x20E4 JUMP JUMPDEST PUSH1 0x4 DUP2 SWAP1 SSTORE POP PUSH1 0x3C PUSH1 0x7 SLOAD PUSH1 0x2 PUSH2 0x12D1 SWAP2 SWAP1 PUSH2 0x24E5 JUMP JUMPDEST PUSH2 0x12DB SWAP2 SWAP1 PUSH2 0x24E5 JUMP JUMPDEST TIMESTAMP PUSH2 0x12E6 SWAP2 SWAP1 PUSH2 0x20E4 JUMP JUMPDEST PUSH1 0x5 DUP2 SWAP1 SSTORE POP PUSH1 0x3C PUSH1 0x7 SLOAD PUSH1 0x3 PUSH2 0x12FD SWAP2 SWAP1 PUSH2 0x24E5 JUMP JUMPDEST PUSH2 0x1307 SWAP2 SWAP1 PUSH2 0x24E5 JUMP JUMPDEST TIMESTAMP PUSH2 0x1312 SWAP2 SWAP1 PUSH2 0x20E4 JUMP JUMPDEST PUSH1 0x6 DUP2 SWAP1 SSTORE POP JUMP JUMPDEST PUSH1 0x60 PUSH1 0x0 PUSH1 0x1 PUSH2 0x1329 DUP5 PUSH2 0x13E8 JUMP JUMPDEST ADD SWAP1 POP PUSH1 0x0 DUP2 PUSH8 0xFFFFFFFFFFFFFFFF DUP2 GT ISZERO PUSH2 0x1348 JUMPI PUSH2 0x1347 PUSH2 0x176E JUMP JUMPDEST JUMPDEST PUSH1 0x40 MLOAD SWAP1 DUP1 DUP3 MSTORE DUP1 PUSH1 0x1F ADD PUSH1 0x1F NOT AND PUSH1 0x20 ADD DUP3 ADD PUSH1 0x40 MSTORE DUP1 ISZERO PUSH2 0x137A JUMPI DUP2 PUSH1 0x20 ADD PUSH1 0x1 DUP3 MUL DUP1 CALLDATASIZE DUP4 CALLDATACOPY DUP1 DUP3 ADD SWAP2 POP POP SWAP1 POP JUMPDEST POP SWAP1 POP PUSH1 0x0 DUP3 PUSH1 0x20 ADD DUP3 ADD SWAP1 POP JUMPDEST PUSH1 0x1 ISZERO PUSH2 0x13DD JUMPI DUP1 DUP1 PUSH1 0x1 SWAP1 SUB SWAP2 POP POP PUSH32 0x3031323334353637383961626364656600000000000000000000000000000000 PUSH1 0xA DUP7 MOD BYTE DUP2 MSTORE8 PUSH1 0xA DUP6 DUP2 PUSH2 0x13D1 JUMPI PUSH2 0x13D0 PUSH2 0x2527 JUMP JUMPDEST JUMPDEST DIV SWAP5 POP PUSH1 0x0 DUP6 SUB PUSH2 0x1388 JUMPI JUMPDEST DUP2 SWAP4 POP POP POP POP SWAP2 SWAP1 POP JUMP JUMPDEST PUSH1 0x0 DUP1 PUSH1 0x0 SWAP1 POP PUSH27 0x184F03E93FF9F4DAA797ED6E38ED64BF6A1F010000000000000000 DUP4 LT PUSH2 0x1446 JUMPI PUSH27 0x184F03E93FF9F4DAA797ED6E38ED64BF6A1F010000000000000000 DUP4 DUP2 PUSH2 0x143C JUMPI PUSH2 0x143B PUSH2 0x2527 JUMP JUMPDEST JUMPDEST DIV SWAP3 POP PUSH1 0x40 DUP2 ADD SWAP1 POP JUMPDEST PUSH14 0x4EE2D6D415B85ACEF8100000000 DUP4 LT PUSH2 0x1483 JUMPI PUSH14 0x4EE2D6D415B85ACEF8100000000 DUP4 DUP2 PUSH2 0x1479 JUMPI PUSH2 0x1478 PUSH2 0x2527 JUMP JUMPDEST JUMPDEST DIV SWAP3 POP PUSH1 0x20 DUP2 ADD SWAP1 POP JUMPDEST PUSH7 0x2386F26FC10000 DUP4 LT PUSH2 0x14B2 JUMPI PUSH7 0x2386F26FC10000 DUP4 DUP2 PUSH2 0x14A8 JUMPI PUSH2 0x14A7 PUSH2 0x2527 JUMP JUMPDEST JUMPDEST DIV SWAP3 POP PUSH1 0x10 DUP2 ADD SWAP1 POP JUMPDEST PUSH4 0x5F5E100 DUP4 LT PUSH2 0x14DB JUMPI PUSH4 0x5F5E100 DUP4 DUP2 PUSH2 0x14D1 JUMPI PUSH2 0x14D0 PUSH2 0x2527 JUMP JUMPDEST JUMPDEST DIV SWAP3 POP PUSH1 0x8 DUP2 ADD SWAP1 POP JUMPDEST PUSH2 0x2710 DUP4 LT PUSH2 0x1500 JUMPI PUSH2 0x2710 DUP4 DUP2 PUSH2 0x14F6 JUMPI PUSH2 0x14F5 PUSH2 0x2527 JUMP JUMPDEST JUMPDEST DIV SWAP3 POP PUSH1 0x4 DUP2 ADD SWAP1 POP JUMPDEST PUSH1 0x64 DUP4 LT PUSH2 0x1523 JUMPI PUSH1 0x64 DUP4 DUP2 PUSH2 0x1519 JUMPI PUSH2 0x1518 PUSH2 0x2527 JUMP JUMPDEST JUMPDEST DIV SWAP3 POP PUSH1 0x2 DUP2 ADD SWAP1 POP JUMPDEST PUSH1 0xA DUP4 LT PUSH2 0x1532 JUMPI PUSH1 0x1 DUP2 ADD SWAP1 POP JUMPDEST DUP1 SWAP2 POP POP SWAP2 SWAP1 POP JUMP JUMPDEST POP DUP1 SLOAD PUSH1 0x0 DUP3 SSTORE PUSH1 0x3 MUL SWAP1 PUSH1 0x0 MSTORE PUSH1 0x20 PUSH1 0x0 KECCAK256 SWAP1 DUP2 ADD SWAP1 PUSH2 0x155C SWAP2 SWAP1 PUSH2 0x15A4 JUMP JUMPDEST POP JUMP JUMPDEST POP DUP1 SLOAD PUSH1 0x0 DUP3 SSTORE SWAP1 PUSH1 0x0 MSTORE PUSH1 0x20 PUSH1 0x0 KECCAK256 SWAP1 DUP2 ADD SWAP1 PUSH2 0x157D SWAP2 SWAP1 PUSH2 0x15FA JUMP JUMPDEST POP JUMP JUMPDEST POP DUP1 SLOAD PUSH1 0x0 DUP3 SSTORE PUSH1 0x3 MUL SWAP1 PUSH1 0x0 MSTORE PUSH1 0x20 PUSH1 0x0 KECCAK256 SWAP1 DUP2 ADD SWAP1 PUSH2 0x15A1 SWAP2 SWAP1 PUSH2 0x1617 JUMP JUMPDEST POP JUMP JUMPDEST JUMPDEST DUP1 DUP3 GT ISZERO PUSH2 0x15F6 JUMPI PUSH1 0x0 DUP1 DUP3 ADD PUSH1 0x0 PUSH2 0x100 EXP DUP2 SLOAD SWAP1 PUSH20 0xFFFFFFFFFFFFFFFFFFFFFFFFFFFFFFFFFFFFFFFF MUL NOT AND SWAP1 SSTORE PUSH1 0x1 DUP3 ADD PUSH1 0x0 SWAP1 SSTORE PUSH1 0x2 DUP3 ADD PUSH1 0x0 PUSH2 0x15ED SWAP2 SWAP1 PUSH2 0x166D JUMP JUMPDEST POP PUSH1 0x3 ADD PUSH2 0x15A5 JUMP JUMPDEST POP SWAP1 JUMP JUMPDEST JUMPDEST DUP1 DUP3 GT ISZERO PUSH2 0x1613 JUMPI PUSH1 0x0 DUP2 PUSH1 0x0 SWAP1 SSTORE POP PUSH1 0x1 ADD PUSH2 0x15FB JUMP JUMPDEST POP SWAP1 JUMP JUMPDEST JUMPDEST DUP1 DUP3 GT ISZERO PUSH2 0x1669 JUMPI PUSH1 0x0 DUP1 DUP3 ADD PUSH1 0x0 SWAP1 SSTORE PUSH1 0x1 DUP3 ADD PUSH1 0x0 PUSH2 0x100 EXP DUP2 SLOAD SWAP1 PUSH20 0xFFFFFFFFFFFFFFFFFFFFFFFFFFFFFFFFFFFFFFFF MUL NOT AND SWAP1 SSTORE PUSH1 0x2 DUP3 ADD PUSH1 0x0 PUSH2 0x1660 SWAP2 SWAP1 PUSH2 0x166D JUMP JUMPDEST POP PUSH1 0x3 ADD PUSH2 0x1618 JUMP JUMPDEST POP SWAP1 JUMP JUMPDEST POP DUP1 SLOAD PUSH2 0x1679 SWAP1 PUSH2 0x1CD9 JUMP JUMPDEST PUSH1 0x0 DUP3 SSTORE DUP1 PUSH1 0x1F LT PUSH2 0x168B JUMPI POP PUSH2 0x16AA JUMP JUMPDEST PUSH1 0x1F ADD PUSH1 0x20 SWAP1 DIV SWAP1 PUSH1 0x0 MSTORE PUSH1 0x20 PUSH1 0x0 KECCAK256 SWAP1 DUP2 ADD SWAP1 PUSH2 0x16A9 SWAP2 SWAP1 PUSH2 0x15FA JUMP JUMPDEST JUMPDEST POP JUMP JUMPDEST PUSH1 0x0 PUSH20 0xFFFFFFFFFFFFFFFFFFFFFFFFFFFFFFFFFFFFFFFF DUP3 AND SWAP1 POP SWAP2 SWAP1 POP JUMP JUMPDEST PUSH1 0x0 PUSH2 0x16D8 DUP3 PUSH2 0x16AD JUMP JUMPDEST SWAP1 POP SWAP2 SWAP1 POP JUMP JUMPDEST PUSH2 0x16E8 DUP2 PUSH2 0x16CD JUMP JUMPDEST DUP3 MSTORE POP POP JUMP JUMPDEST PUSH1 0x0 PUSH1 0x20 DUP3 ADD SWAP1 POP PUSH2 0x1703 PUSH1 0x0 DUP4 ADD DUP5 PUSH2 0x16DF JUMP JUMPDEST SWAP3 SWAP2 POP POP JUMP JUMPDEST PUSH1 0x0 PUSH1 0x40 MLOAD SWAP1 POP SWAP1 JUMP JUMPDEST PUSH1 0x0 DUP1 REVERT JUMPDEST PUSH1 0x0 DUP1 REVERT JUMPDEST PUSH1 0x0 DUP2 SWAP1 POP SWAP2 SWAP1 POP JUMP JUMPDEST PUSH2 0x1730 DUP2 PUSH2 0x171D JUMP JUMPDEST DUP2 EQ PUSH2 0x173B JUMPI PUSH1 0x0 DUP1 REVERT JUMPDEST POP JUMP JUMPDEST PUSH1 0x0 DUP2 CALLDATALOAD SWAP1 POP PUSH2 0x174D DUP2 PUSH2 0x1727 JUMP JUMPDEST SWAP3 SWAP2 POP POP JUMP JUMPDEST PUSH1 0x0 DUP1 REVERT JUMPDEST PUSH1 0x0 DUP1 REVERT JUMPDEST PUSH1 0x0 PUSH1 0x1F NOT PUSH1 0x1F DUP4 ADD AND SWAP1 POP SWAP2 SWAP1 POP JUMP JUMPDEST PUSH32 0x4E487B7100000000000000000000000000000000000000000000000000000000 PUSH1 0x0 MSTORE PUSH1 0x41 PUSH1 0x4 MSTORE PUSH1 0x24 PUSH1 0x0 REVERT JUMPDEST PUSH2 0x17A6 DUP3 PUSH2 0x175D JUMP JUMPDEST DUP2 ADD DUP2 DUP2 LT PUSH8 0xFFFFFFFFFFFFFFFF DUP3 GT OR ISZERO PUSH2 0x17C5 JUMPI PUSH2 0x17C4 PUSH2 0x176E JUMP JUMPDEST JUMPDEST DUP1 PUSH1 0x40 MSTORE POP POP POP JUMP JUMPDEST PUSH1 0x0 PUSH2 0x17D8 PUSH2 0x1709 JUMP JUMPDEST SWAP1 POP PUSH2 0x17E4 DUP3 DUP3 PUSH2 0x179D JUMP JUMPDEST SWAP2 SWAP1 POP JUMP JUMPDEST PUSH1 0x0 PUSH8 0xFFFFFFFFFFFFFFFF DUP3 GT ISZERO PUSH2 0x1804 JUMPI PUSH2 0x1803 PUSH2 0x176E JUMP JUMPDEST JUMPDEST PUSH2 0x180D DUP3 PUSH2 0x175D JUMP JUMPDEST SWAP1 POP PUSH1 0x20 DUP2 ADD SWAP1 POP SWAP2 SWAP1 POP JUMP JUMPDEST DUP3 DUP2 DUP4 CALLDATACOPY PUSH1 0x0 DUP4 DUP4 ADD MSTORE POP POP POP JUMP JUMPDEST PUSH1 0x0 PUSH2 0x183C PUSH2 0x1837 DUP5 PUSH2 0x17E9 JUMP JUMPDEST PUSH2 0x17CE JUMP JUMPDEST SWAP1 POP DUP3 DUP2 MSTORE PUSH1 0x20 DUP2 ADD DUP5 DUP5 DUP5 ADD GT ISZERO PUSH2 0x1858 JUMPI PUSH2 0x1857 PUSH2 0x1758 JUMP JUMPDEST JUMPDEST PUSH2 0x1863 DUP5 DUP3 DUP6 PUSH2 0x181A JUMP JUMPDEST POP SWAP4 SWAP3 POP POP POP JUMP JUMPDEST PUSH1 0x0 DUP3 PUSH1 0x1F DUP4 ADD SLT PUSH2 0x1880 JUMPI PUSH2 0x187F PUSH2 0x1753 JUMP JUMPDEST JUMPDEST DUP2 CALLDATALOAD PUSH2 0x1890 DUP5 DUP3 PUSH1 0x20 DUP7 ADD PUSH2 0x1829 JUMP JUMPDEST SWAP2 POP POP SWAP3 SWAP2 POP POP JUMP JUMPDEST PUSH1 0x0 DUP1 PUSH1 0x40 DUP4 DUP6 SUB SLT ISZERO PUSH2 0x18B0 JUMPI PUSH2 0x18AF PUSH2 0x1713 JUMP JUMPDEST JUMPDEST PUSH1 0x0 PUSH2 0x18BE DUP6 DUP3 DUP7 ADD PUSH2 0x173E JUMP JUMPDEST SWAP3 POP POP PUSH1 0x20 DUP4 ADD CALLDATALOAD PUSH8 0xFFFFFFFFFFFFFFFF DUP2 GT ISZERO PUSH2 0x18DF JUMPI PUSH2 0x18DE PUSH2 0x1718 JUMP JUMPDEST JUMPDEST PUSH2 0x18EB DUP6 DUP3 DUP7 ADD PUSH2 0x186B JUMP JUMPDEST SWAP2 POP POP SWAP3 POP SWAP3 SWAP1 POP JUMP JUMPDEST PUSH2 0x18FE DUP2 PUSH2 0x16CD JUMP JUMPDEST DUP2 EQ PUSH2 0x1909 JUMPI PUSH1 0x0 DUP1 REVERT JUMPDEST POP JUMP JUMPDEST PUSH1 0x0 DUP2 CALLDATALOAD SWAP1 POP PUSH2 0x191B DUP2 PUSH2 0x18F5 JUMP JUMPDEST SWAP3 SWAP2 POP POP JUMP JUMPDEST PUSH1 0x0 PUSH1 0x20 DUP3 DUP5 SUB SLT ISZERO PUSH2 0x1937 JUMPI PUSH2 0x1936 PUSH2 0x1713 JUMP JUMPDEST JUMPDEST PUSH1 0x0 PUSH2 0x1945 DUP5 DUP3 DUP6 ADD PUSH2 0x190C JUMP JUMPDEST SWAP2 POP POP SWAP3 SWAP2 POP POP JUMP JUMPDEST PUSH1 0x0 DUP2 SWAP1 POP SWAP2 SWAP1 POP JUMP JUMPDEST PUSH2 0x1961 DUP2 PUSH2 0x194E JUMP JUMPDEST DUP3 MSTORE POP POP JUMP JUMPDEST PUSH1 0x0 PUSH1 0x20 DUP3 ADD SWAP1 POP PUSH2 0x197C PUSH1 0x0 DUP4 ADD DUP5 PUSH2 0x1958 JUMP JUMPDEST SWAP3 SWAP2 POP POP JUMP JUMPDEST PUSH1 0x0 PUSH1 0x20 DUP3 DUP5 SUB SLT ISZERO PUSH2 0x1998 JUMPI PUSH2 0x1997 PUSH2 0x1713 JUMP JUMPDEST JUMPDEST PUSH1 0x0 PUSH2 0x19A6 DUP5 DUP3 DUP6 ADD PUSH2 0x173E JUMP JUMPDEST SWAP2 POP POP SWAP3 SWAP2 POP POP JUMP JUMPDEST PUSH2 0x19B8 DUP2 PUSH2 0x171D JUMP JUMPDEST DUP3 MSTORE POP POP JUMP JUMPDEST PUSH1 0x0 DUP2 MLOAD SWAP1 POP SWAP2 SWAP1 POP JUMP JUMPDEST PUSH1 0x0 DUP3 DUP3 MSTORE PUSH1 0x20 DUP3 ADD SWAP1 POP SWAP3 SWAP2 POP POP JUMP JUMPDEST PUSH1 0x0 JUMPDEST DUP4 DUP2 LT ISZERO PUSH2 0x19F8 JUMPI DUP1 DUP3 ADD MLOAD DUP2 DUP5 ADD MSTORE PUSH1 0x20 DUP2 ADD SWAP1 POP PUSH2 0x19DD JUMP JUMPDEST PUSH1 0x0 DUP5 DUP5 ADD MSTORE POP POP POP POP JUMP JUMPDEST PUSH1 0x0 PUSH2 0x1A0F DUP3 PUSH2 0x19BE JUMP JUMPDEST PUSH2 0x1A19 DUP2 DUP6 PUSH2 0x19C9 JUMP JUMPDEST SWAP4 POP PUSH2 0x1A29 DUP2 DUP6 PUSH1 0x20 DUP7 ADD PUSH2 0x19DA JUMP JUMPDEST PUSH2 0x1A32 DUP2 PUSH2 0x175D JUMP JUMPDEST DUP5 ADD SWAP2 POP POP SWAP3 SWAP2 POP POP JUMP JUMPDEST PUSH1 0x0 PUSH1 0x60 DUP3 ADD SWAP1 POP PUSH2 0x1A52 PUSH1 0x0 DUP4 ADD DUP7 PUSH2 0x19AF JUMP JUMPDEST PUSH2 0x1A5F PUSH1 0x20 DUP4 ADD DUP6 PUSH2 0x16DF JUMP JUMPDEST DUP2 DUP2 SUB PUSH1 0x40 DUP4 ADD MSTORE PUSH2 0x1A71 DUP2 DUP5 PUSH2 0x1A04 JUMP JUMPDEST SWAP1 POP SWAP5 SWAP4 POP POP POP POP JUMP JUMPDEST PUSH1 0x0 PUSH1 0x20 DUP3 ADD SWAP1 POP DUP2 DUP2 SUB PUSH1 0x0 DUP4 ADD MSTORE PUSH2 0x1A95 DUP2 DUP5 PUSH2 0x1A04 JUMP JUMPDEST SWAP1 POP SWAP3 SWAP2 POP POP JUMP JUMPDEST PUSH1 0x0 DUP1 PUSH1 0x40 DUP4 DUP6 SUB SLT ISZERO PUSH2 0x1AB4 JUMPI PUSH2 0x1AB3 PUSH2 0x1713 JUMP JUMPDEST JUMPDEST PUSH1 0x0 DUP4 ADD CALLDATALOAD PUSH8 0xFFFFFFFFFFFFFFFF DUP2 GT ISZERO PUSH2 0x1AD2 JUMPI PUSH2 0x1AD1 PUSH2 0x1718 JUMP JUMPDEST JUMPDEST PUSH2 0x1ADE DUP6 DUP3 DUP7 ADD PUSH2 0x186B JUMP JUMPDEST SWAP3 POP POP PUSH1 0x20 DUP4 ADD CALLDATALOAD PUSH8 0xFFFFFFFFFFFFFFFF DUP2 GT ISZERO PUSH2 0x1AFF JUMPI PUSH2 0x1AFE PUSH2 0x1718 JUMP JUMPDEST JUMPDEST PUSH2 0x1B0B DUP6 DUP3 DUP7 ADD PUSH2 0x186B JUMP JUMPDEST SWAP2 POP POP SWAP3 POP SWAP3 SWAP1 POP JUMP JUMPDEST PUSH1 0x0 PUSH1 0x60 DUP3 ADD SWAP1 POP PUSH2 0x1B2A PUSH1 0x0 DUP4 ADD DUP7 PUSH2 0x16DF JUMP JUMPDEST PUSH2 0x1B37 PUSH1 0x20 DUP4 ADD DUP6 PUSH2 0x19AF JUMP JUMPDEST DUP2 DUP2 SUB PUSH1 0x40 DUP4 ADD MSTORE PUSH2 0x1B49 DUP2 DUP5 PUSH2 0x1A04 JUMP JUMPDEST SWAP1 POP SWAP5 SWAP4 POP POP POP POP JUMP JUMPDEST PUSH2 0x1B5C DUP2 PUSH2 0x194E JUMP JUMPDEST DUP2 EQ PUSH2 0x1B67 JUMPI PUSH1 0x0 DUP1 REVERT JUMPDEST POP JUMP JUMPDEST PUSH1 0x0 DUP2 CALLDATALOAD SWAP1 POP PUSH2 0x1B79 DUP2 PUSH2 0x1B53 JUMP JUMPDEST SWAP3 SWAP2 POP POP JUMP JUMPDEST PUSH1 0x0 PUSH1 0x20 DUP3 DUP5 SUB SLT ISZERO PUSH2 0x1B95 JUMPI PUSH2 0x1B94 PUSH2 0x1713 JUMP JUMPDEST JUMPDEST PUSH1 0x0 PUSH2 0x1BA3 DUP5 DUP3 DUP6 ADD PUSH2 0x1B6A JUMP JUMPDEST SWAP2 POP POP SWAP3 SWAP2 POP POP JUMP JUMPDEST PUSH32 0x5468657265206973206E6F20737461727465642061756374696F6E206E6F7700 PUSH1 0x0 DUP3 ADD MSTORE POP JUMP JUMPDEST PUSH1 0x0 PUSH2 0x1BE2 PUSH1 0x1F DUP4 PUSH2 0x19C9 JUMP JUMPDEST SWAP2 POP PUSH2 0x1BED DUP3 PUSH2 0x1BAC JUMP JUMPDEST PUSH1 0x20 DUP3 ADD SWAP1 POP SWAP2 SWAP1 POP JUMP JUMPDEST PUSH1 0x0 PUSH1 0x20 DUP3 ADD SWAP1 POP DUP2 DUP2 SUB PUSH1 0x0 DUP4 ADD MSTORE PUSH2 0x1C11 DUP2 PUSH2 0x1BD5 JUMP JUMPDEST SWAP1 POP SWAP2 SWAP1 POP JUMP JUMPDEST PUSH32 0x4F6E6C7920726567697374657264206269646465722063616E2063616C6C2074 PUSH1 0x0 DUP3 ADD MSTORE PUSH32 0x6869732066756E6374696F6E0000000000000000000000000000000000000000 PUSH1 0x20 DUP3 ADD MSTORE POP JUMP JUMPDEST PUSH1 0x0 PUSH2 0x1C74 PUSH1 0x2C DUP4 PUSH2 0x19C9 JUMP JUMPDEST SWAP2 POP PUSH2 0x1C7F DUP3 PUSH2 0x1C18 JUMP JUMPDEST PUSH1 0x40 DUP3 ADD SWAP1 POP SWAP2 SWAP1 POP JUMP JUMPDEST PUSH1 0x0 PUSH1 0x20 DUP3 ADD SWAP1 POP DUP2 DUP2 SUB PUSH1 0x0 DUP4 ADD MSTORE PUSH2 0x1CA3 DUP2 PUSH2 0x1C67 JUMP JUMPDEST SWAP1 POP SWAP2 SWAP1 POP JUMP JUMPDEST PUSH32 0x4E487B7100000000000000000000000000000000000000000000000000000000 PUSH1 0x0 MSTORE PUSH1 0x22 PUSH1 0x4 MSTORE PUSH1 0x24 PUSH1 0x0 REVERT JUMPDEST PUSH1 0x0 PUSH1 0x2 DUP3 DIV SWAP1 POP PUSH1 0x1 DUP3 AND DUP1 PUSH2 0x1CF1 JUMPI PUSH1 0x7F DUP3 AND SWAP2 POP JUMPDEST PUSH1 0x20 DUP3 LT DUP2 SUB PUSH2 0x1D04 JUMPI PUSH2 0x1D03 PUSH2 0x1CAA JUMP JUMPDEST JUMPDEST POP SWAP2 SWAP1 POP JUMP JUMPDEST PUSH1 0x0 DUP2 SWAP1 POP DUP2 PUSH1 0x0 MSTORE PUSH1 0x20 PUSH1 0x0 KECCAK256 SWAP1 POP SWAP2 SWAP1 POP JUMP JUMPDEST PUSH1 0x0 PUSH1 0x20 PUSH1 0x1F DUP4 ADD DIV SWAP1 POP SWAP2 SWAP1 POP JUMP JUMPDEST PUSH1 0x0 DUP3 DUP3 SHL SWAP1 POP SWAP3 SWAP2 POP POP JUMP JUMPDEST PUSH1 0x0 PUSH1 0x8 DUP4 MUL PUSH2 0x1D6C PUSH32 0xFFFFFFFFFFFFFFFFFFFFFFFFFFFFFFFFFFFFFFFFFFFFFFFFFFFFFFFFFFFFFFFF DUP3 PUSH2 0x1D2F JUMP JUMPDEST PUSH2 0x1D76 DUP7 DUP4 PUSH2 0x1D2F JUMP JUMPDEST SWAP6 POP DUP1 NOT DUP5 AND SWAP4 POP DUP1 DUP7 AND DUP5 OR SWAP3 POP POP POP SWAP4 SWAP3 POP POP POP JUMP JUMPDEST PUSH1 0x0 DUP2 SWAP1 POP SWAP2 SWAP1 POP JUMP JUMPDEST PUSH1 0x0 PUSH2 0x1DB3 PUSH2 0x1DAE PUSH2 0x1DA9 DUP5 PUSH2 0x171D JUMP JUMPDEST PUSH2 0x1D8E JUMP JUMPDEST PUSH2 0x171D JUMP JUMPDEST SWAP1 POP SWAP2 SWAP1 POP JUMP JUMPDEST PUSH1 0x0 DUP2 SWAP1 POP SWAP2 SWAP1 POP JUMP JUMPDEST PUSH2 0x1DCD DUP4 PUSH2 0x1D98 JUMP JUMPDEST PUSH2 0x1DE1 PUSH2 0x1DD9 DUP3 PUSH2 0x1DBA JUMP JUMPDEST DUP5 DUP5 SLOAD PUSH2 0x1D3C JUMP JUMPDEST DUP3 SSTORE POP POP POP POP JUMP JUMPDEST PUSH1 0x0 SWAP1 JUMP JUMPDEST PUSH2 0x1DF6 PUSH2 0x1DE9 JUMP JUMPDEST PUSH2 0x1E01 DUP2 DUP5 DUP5 PUSH2 0x1DC4 JUMP JUMPDEST POP POP POP JUMP JUMPDEST JUMPDEST DUP2 DUP2 LT ISZERO PUSH2 0x1E25 JUMPI PUSH2 0x1E1A PUSH1 0x0 DUP3 PUSH2 0x1DEE JUMP JUMPDEST PUSH1 0x1 DUP2 ADD SWAP1 POP PUSH2 0x1E07 JUMP JUMPDEST POP POP JUMP JUMPDEST PUSH1 0x1F DUP3 GT ISZERO PUSH2 0x1E6A JUMPI PUSH2 0x1E3B DUP2 PUSH2 0x1D0A JUMP JUMPDEST PUSH2 0x1E44 DUP5 PUSH2 0x1D1F JUMP JUMPDEST DUP2 ADD PUSH1 0x20 DUP6 LT ISZERO PUSH2 0x1E53 JUMPI DUP2 SWAP1 POP JUMPDEST PUSH2 0x1E67 PUSH2 0x1E5F DUP6 PUSH2 0x1D1F JUMP JUMPDEST DUP4 ADD DUP3 PUSH2 0x1E06 JUMP JUMPDEST POP POP JUMPDEST POP POP POP JUMP JUMPDEST PUSH1 0x0 DUP3 DUP3 SHR SWAP1 POP SWAP3 SWAP2 POP POP JUMP JUMPDEST PUSH1 0x0 PUSH2 0x1E8D PUSH1 0x0 NOT DUP5 PUSH1 0x8 MUL PUSH2 0x1E6F JUMP JUMPDEST NOT DUP1 DUP4 AND SWAP2 POP POP SWAP3 SWAP2 POP POP JUMP JUMPDEST PUSH1 0x0 PUSH2 0x1EA6 DUP4 DUP4 PUSH2 0x1E7C JUMP JUMPDEST SWAP2 POP DUP3 PUSH1 0x2 MUL DUP3 OR SWAP1 POP SWAP3 SWAP2 POP POP JUMP JUMPDEST PUSH2 0x1EBF DUP3 PUSH2 0x19BE JUMP JUMPDEST PUSH8 0xFFFFFFFFFFFFFFFF DUP2 GT ISZERO PUSH2 0x1ED8 JUMPI PUSH2 0x1ED7 PUSH2 0x176E JUMP JUMPDEST JUMPDEST PUSH2 0x1EE2 DUP3 SLOAD PUSH2 0x1CD9 JUMP JUMPDEST PUSH2 0x1EED DUP3 DUP3 DUP6 PUSH2 0x1E29 JUMP JUMPDEST PUSH1 0x0 PUSH1 0x20 SWAP1 POP PUSH1 0x1F DUP4 GT PUSH1 0x1 DUP2 EQ PUSH2 0x1F20 JUMPI PUSH1 0x0 DUP5 ISZERO PUSH2 0x1F0E JUMPI DUP3 DUP8 ADD MLOAD SWAP1 POP JUMPDEST PUSH2 0x1F18 DUP6 DUP3 PUSH2 0x1E9A JUMP JUMPDEST DUP7 SSTORE POP PUSH2 0x1F80 JUMP JUMPDEST PUSH1 0x1F NOT DUP5 AND PUSH2 0x1F2E DUP7 PUSH2 0x1D0A JUMP JUMPDEST PUSH1 0x0 JUMPDEST DUP3 DUP2 LT ISZERO PUSH2 0x1F56 JUMPI DUP5 DUP10 ADD MLOAD DUP3 SSTORE PUSH1 0x1 DUP3 ADD SWAP2 POP PUSH1 0x20 DUP6 ADD SWAP5 POP PUSH1 0x20 DUP2 ADD SWAP1 POP PUSH2 0x1F31 JUMP JUMPDEST DUP7 DUP4 LT ISZERO PUSH2 0x1F73 JUMPI DUP5 DUP10 ADD MLOAD PUSH2 0x1F6F PUSH1 0x1F DUP10 AND DUP3 PUSH2 0x1E7C JUMP JUMPDEST DUP4 SSTORE POP JUMPDEST PUSH1 0x1 PUSH1 0x2 DUP9 MUL ADD DUP9 SSTORE POP POP POP JUMPDEST POP POP POP POP POP POP JUMP JUMPDEST PUSH32 0x4F6E6C792061756374696F6E6565722063616E2063616C6C2074686973206675 PUSH1 0x0 DUP3 ADD MSTORE PUSH32 0x6E6374696F6E0000000000000000000000000000000000000000000000000000 PUSH1 0x20 DUP3 ADD MSTORE POP JUMP JUMPDEST PUSH1 0x0 PUSH2 0x1FE4 PUSH1 0x26 DUP4 PUSH2 0x19C9 JUMP JUMPDEST SWAP2 POP PUSH2 0x1FEF DUP3 PUSH2 0x1F88 JUMP JUMPDEST PUSH1 0x40 DUP3 ADD SWAP1 POP SWAP2 SWAP1 POP JUMP JUMPDEST PUSH1 0x0 PUSH1 0x20 DUP3 ADD SWAP1 POP DUP2 DUP2 SUB PUSH1 0x0 DUP4 ADD MSTORE PUSH2 0x2013 DUP2 PUSH2 0x1FD7 JUMP JUMPDEST SWAP1 POP SWAP2 SWAP1 POP JUMP JUMPDEST PUSH32 0x41756374696F6E206973206E6F7420636F6D706C65746564207965742E000000 PUSH1 0x0 DUP3 ADD MSTORE POP JUMP JUMPDEST PUSH1 0x0 PUSH2 0x2050 PUSH1 0x1D DUP4 PUSH2 0x19C9 JUMP JUMPDEST SWAP2 POP PUSH2 0x205B DUP3 PUSH2 0x201A JUMP JUMPDEST PUSH1 0x20 DUP3 ADD SWAP1 POP SWAP2 SWAP1 POP JUMP JUMPDEST PUSH1 0x0 PUSH1 0x20 DUP3 ADD SWAP1 POP DUP2 DUP2 SUB PUSH1 0x0 DUP4 ADD MSTORE PUSH2 0x207F DUP2 PUSH2 0x2043 JUMP JUMPDEST SWAP1 POP SWAP2 SWAP1 POP JUMP JUMPDEST PUSH32 0x4E487B7100000000000000000000000000000000000000000000000000000000 PUSH1 0x0 MSTORE PUSH1 0x32 PUSH1 0x4 MSTORE PUSH1 0x24 PUSH1 0x0 REVERT JUMPDEST PUSH32 0x4E487B7100000000000000000000000000000000000000000000000000000000 PUSH1 0x0 MSTORE PUSH1 0x11 PUSH1 0x4 MSTORE PUSH1 0x24 PUSH1 0x0 REVERT JUMPDEST PUSH1 0x0 PUSH2 0x20EF DUP3 PUSH2 0x171D JUMP JUMPDEST SWAP2 POP PUSH2 0x20FA DUP4 PUSH2 0x171D JUMP JUMPDEST SWAP3 POP DUP3 DUP3 ADD SWAP1 POP DUP1 DUP3 GT ISZERO PUSH2 0x2112 JUMPI PUSH2 0x2111 PUSH2 0x20B5 JUMP JUMPDEST JUMPDEST SWAP3 SWAP2 POP POP JUMP JUMPDEST PUSH32 0x5468652062696420616E64206E6F6E636520796F75207375626D697474656420 PUSH1 0x0 DUP3 ADD MSTORE PUSH32 0x617265206E6F742076616C69642E000000000000000000000000000000000000 PUSH1 0x20 DUP3 ADD MSTORE POP JUMP JUMPDEST PUSH1 0x0 PUSH2 0x2174 PUSH1 0x2E DUP4 PUSH2 0x19C9 JUMP JUMPDEST SWAP2 POP PUSH2 0x217F DUP3 PUSH2 0x2118 JUMP JUMPDEST PUSH1 0x40 DUP3 ADD SWAP1 POP SWAP2 SWAP1 POP JUMP JUMPDEST PUSH1 0x0 PUSH1 0x20 DUP3 ADD SWAP1 POP DUP2 DUP2 SUB PUSH1 0x0 DUP4 ADD MSTORE PUSH2 0x21A3 DUP2 PUSH2 0x2167 JUMP JUMPDEST SWAP1 POP SWAP2 SWAP1 POP JUMP JUMPDEST PUSH32 0x596F75722064697370757465206973206E6F742076616C69642073696E636520 PUSH1 0x0 DUP3 ADD MSTORE PUSH32 0x6974206973206E6F742067726561746572207468616E206174206C6561737420 PUSH1 0x20 DUP3 ADD MSTORE PUSH32 0x6F6E652077696E6E65722E000000000000000000000000000000000000000000 PUSH1 0x40 DUP3 ADD MSTORE POP JUMP JUMPDEST PUSH1 0x0 PUSH2 0x222C PUSH1 0x4B DUP4 PUSH2 0x19C9 JUMP JUMPDEST SWAP2 POP PUSH2 0x2237 DUP3 PUSH2 0x21AA JUMP JUMPDEST PUSH1 0x60 DUP3 ADD SWAP1 POP SWAP2 SWAP1 POP JUMP JUMPDEST PUSH1 0x0 PUSH1 0x20 DUP3 ADD SWAP1 POP DUP2 DUP2 SUB PUSH1 0x0 DUP4 ADD MSTORE PUSH2 0x225B DUP2 PUSH2 0x221F JUMP JUMPDEST SWAP1 POP SWAP2 SWAP1 POP JUMP JUMPDEST PUSH32 0x53656C6C65722063616E206E6F74207265676973746572206173206269646465 PUSH1 0x0 DUP3 ADD MSTORE PUSH32 0x7200000000000000000000000000000000000000000000000000000000000000 PUSH1 0x20 DUP3 ADD MSTORE POP JUMP JUMPDEST PUSH1 0x0 PUSH2 0x22BE PUSH1 0x21 DUP4 PUSH2 0x19C9 JUMP JUMPDEST SWAP2 POP PUSH2 0x22C9 DUP3 PUSH2 0x2262 JUMP JUMPDEST PUSH1 0x40 DUP3 ADD SWAP1 POP SWAP2 SWAP1 POP JUMP JUMPDEST PUSH1 0x0 PUSH1 0x20 DUP3 ADD SWAP1 POP DUP2 DUP2 SUB PUSH1 0x0 DUP4 ADD MSTORE PUSH2 0x22ED DUP2 PUSH2 0x22B1 JUMP JUMPDEST SWAP1 POP SWAP2 SWAP1 POP JUMP JUMPDEST PUSH32 0x54696D6520666F72207265676973746572696E67206173206120626964646572 PUSH1 0x0 DUP3 ADD MSTORE PUSH32 0x206973207061737365642E000000000000000000000000000000000000000000 PUSH1 0x20 DUP3 ADD MSTORE POP JUMP JUMPDEST PUSH1 0x0 PUSH2 0x2350 PUSH1 0x2B DUP4 PUSH2 0x19C9 JUMP JUMPDEST SWAP2 POP PUSH2 0x235B DUP3 PUSH2 0x22F4 JUMP JUMPDEST PUSH1 0x40 DUP3 ADD SWAP1 POP SWAP2 SWAP1 POP JUMP JUMPDEST PUSH1 0x0 PUSH1 0x20 DUP3 ADD SWAP1 POP DUP2 DUP2 SUB PUSH1 0x0 DUP4 ADD MSTORE PUSH2 0x237F DUP2 PUSH2 0x2343 JUMP JUMPDEST SWAP1 POP SWAP2 SWAP1 POP JUMP JUMPDEST PUSH1 0x0 PUSH2 0x2391 DUP3 PUSH2 0x171D JUMP JUMPDEST SWAP2 POP PUSH32 0xFFFFFFFFFFFFFFFFFFFFFFFFFFFFFFFFFFFFFFFFFFFFFFFFFFFFFFFFFFFFFFFF DUP3 SUB PUSH2 0x23C3 JUMPI PUSH2 0x23C2 PUSH2 0x20B5 JUMP JUMPDEST JUMPDEST PUSH1 0x1 DUP3 ADD SWAP1 POP SWAP2 SWAP1 POP JUMP JUMPDEST PUSH1 0x0 DUP2 SWAP1 POP SWAP3 SWAP2 POP POP JUMP JUMPDEST PUSH1 0x0 PUSH2 0x23E4 DUP3 PUSH2 0x19BE JUMP JUMPDEST PUSH2 0x23EE DUP2 DUP6 PUSH2 0x23CE JUMP JUMPDEST SWAP4 POP PUSH2 0x23FE DUP2 DUP6 PUSH1 0x20 DUP7 ADD PUSH2 0x19DA JUMP JUMPDEST DUP1 DUP5 ADD SWAP2 POP POP SWAP3 SWAP2 POP POP JUMP JUMPDEST PUSH1 0x0 PUSH2 0x2416 DUP3 DUP6 PUSH2 0x23D9 JUMP JUMPDEST SWAP2 POP PUSH2 0x2422 DUP3 DUP5 PUSH2 0x23D9 JUMP JUMPDEST SWAP2 POP DUP2 SWAP1 POP SWAP4 SWAP3 POP POP POP JUMP JUMPDEST PUSH1 0x0 PUSH2 0x243A DUP3 DUP5 PUSH2 0x23D9 JUMP JUMPDEST SWAP2 POP DUP2 SWAP1 POP SWAP3 SWAP2 POP POP JUMP JUMPDEST PUSH1 0x0 DUP2 MLOAD SWAP1 POP SWAP2 SWAP1 POP JUMP JUMPDEST PUSH1 0x0 DUP2 SWAP1 POP SWAP3 SWAP2 POP POP JUMP JUMPDEST PUSH1 0x0 PUSH2 0x2466 DUP3 PUSH2 0x2445 JUMP JUMPDEST PUSH2 0x2470 DUP2 DUP6 PUSH2 0x2450 JUMP JUMPDEST SWAP4 POP PUSH2 0x2480 DUP2 DUP6 PUSH1 0x20 DUP7 ADD PUSH2 0x19DA JUMP JUMPDEST DUP1 DUP5 ADD SWAP2 POP POP SWAP3 SWAP2 POP POP JUMP JUMPDEST PUSH1 0x0 PUSH2 0x2498 DUP3 DUP5 PUSH2 0x245B JUMP JUMPDEST SWAP2 POP DUP2 SWAP1 POP SWAP3 SWAP2 POP POP JUMP JUMPDEST PUSH1 0x0 DUP2 MLOAD SWAP1 POP PUSH2 0x24B2 DUP2 PUSH2 0x1B53 JUMP JUMPDEST SWAP3 SWAP2 POP POP JUMP JUMPDEST PUSH1 0x0 PUSH1 0x20 DUP3 DUP5 SUB SLT ISZERO PUSH2 0x24CE JUMPI PUSH2 0x24CD PUSH2 0x1713 JUMP JUMPDEST JUMPDEST PUSH1 0x0 PUSH2 0x24DC DUP5 DUP3 DUP6 ADD PUSH2 0x24A3 JUMP JUMPDEST SWAP2 POP POP SWAP3 SWAP2 POP POP JUMP JUMPDEST PUSH1 0x0 PUSH2 0x24F0 DUP3 PUSH2 0x171D JUMP JUMPDEST SWAP2 POP PUSH2 0x24FB DUP4 PUSH2 0x171D JUMP JUMPDEST SWAP3 POP DUP3 DUP3 MUL PUSH2 0x2509 DUP2 PUSH2 0x171D JUMP JUMPDEST SWAP2 POP DUP3 DUP3 DIV DUP5 EQ DUP4 ISZERO OR PUSH2 0x2520 JUMPI PUSH2 0x251F PUSH2 0x20B5 JUMP JUMPDEST JUMPDEST POP SWAP3 SWAP2 POP POP JUMP JUMPDEST PUSH32 0x4E487B7100000000000000000000000000000000000000000000000000000000 PUSH1 0x0 MSTORE PUSH1 0x12 PUSH1 0x4 MSTORE PUSH1 0x24 PUSH1 0x0 REVERT INVALID LOG2 PUSH5 0x6970667358 0x22 SLT KECCAK256 0x49 CHAINID 0xCD 0xEC 0xED 0x21 0xC7 0x26 PUSH12 0x1DFEC0C6658FEDE2BBF84AC 0xD8 0xC3 PUSH12 0x2456A38B602CD0F764736F6C PUSH4 0x43000812 STOP CALLER "
				},
				"gasEstimates": {
					"creation": {
						"codeDepositCost": "1922400",
						"executionCost": "72672",
						"totalCost": "1995072"
					},
					"external": {
						"assetDescription()": "infinite",
						"assetName()": "infinite",
						"auctioneer()": "2559",
						"bidders(uint256)": "4978",
						"dispute(uint256,string)": "infinite",
						"disputedBidders(uint256)": "infinite",
						"encodedBids(address)": "2882",
						"registerAuctionInfo(string,string)": "infinite",
						"registerBidder()": "55270",
						"reset()": "infinite",
						"resetEncodedBids()": "infinite",
						"seller()": "2535",
						"submitEncodedBid(bytes32)": "infinite",
						"submitWinner(uint256,string)": "infinite",
						"winners(uint256)": "infinite"
					},
					"internal": {
						"addWinner(uint256,string memory)": "infinite",
						"clearWinners()": "infinite",
						"computeHash(uint256,string memory)": "infinite",
						"isBidder()": "infinite",
						"isDiputeBidGreaterThanOneWinnerBid(uint256)": "infinite",
						"setUpPhasesTimePeriods()": "infinite"
					}
				},
				"methodIdentifiers": {
					"assetDescription()": "938626c2",
					"assetName()": "c9230c5d",
					"auctioneer()": "5ec2c7bf",
					"bidders(uint256)": "cff29dfd",
					"dispute(uint256,string)": "66c85dee",
					"disputedBidders(uint256)": "8f772f96",
					"encodedBids(address)": "3817df4c",
					"registerAuctionInfo(string,string)": "a2ebc656",
					"registerBidder()": "f356733c",
					"reset()": "d826f88f",
					"resetEncodedBids()": "40bd5937",
					"seller()": "08551a53",
					"submitEncodedBid(bytes32)": "ec5d0ab2",
					"submitWinner(uint256,string)": "1744e03b",
					"winners(uint256)": "a2fb1175"
				}
			},
			"storageLayout": {
				"storage": [
					{
						"astId": 1044,
						"contract": "Contracts/AKEB.sol:AKEB",
						"label": "seller",
						"offset": 0,
						"slot": "0",
						"type": "t_address"
					},
					{
						"astId": 1046,
						"contract": "Contracts/AKEB.sol:AKEB",
						"label": "auctioneer",
						"offset": 0,
						"slot": "1",
						"type": "t_address"
					},
					{
						"astId": 1048,
						"contract": "Contracts/AKEB.sol:AKEB",
						"label": "assetDescription",
						"offset": 0,
						"slot": "2",
						"type": "t_string_storage"
					},
					{
						"astId": 1050,
						"contract": "Contracts/AKEB.sol:AKEB",
						"label": "assetName",
						"offset": 0,
						"slot": "3",
						"type": "t_string_storage"
					},
					{
						"astId": 1052,
						"contract": "Contracts/AKEB.sol:AKEB",
						"label": "registerBidderPeriod",
						"offset": 0,
						"slot": "4",
						"type": "t_uint256"
					},
					{
						"astId": 1054,
						"contract": "Contracts/AKEB.sol:AKEB",
						"label": "hashedBidSubmissionPeriod",
						"offset": 0,
						"slot": "5",
						"type": "t_uint256"
					},
					{
						"astId": 1056,
						"contract": "Contracts/AKEB.sol:AKEB",
						"label": "winnerAndDisputeSubmissionPeriod",
						"offset": 0,
						"slot": "6",
						"type": "t_uint256"
					},
					{
						"astId": 1059,
						"contract": "Contracts/AKEB.sol:AKEB",
						"label": "periodTime",
						"offset": 0,
						"slot": "7",
						"type": "t_uint256"
					},
					{
						"astId": 1062,
						"contract": "Contracts/AKEB.sol:AKEB",
						"label": "isAuctionStarted",
						"offset": 0,
						"slot": "8",
						"type": "t_bool"
					},
					{
						"astId": 1065,
						"contract": "Contracts/AKEB.sol:AKEB",
						"label": "bidders",
						"offset": 0,
						"slot": "9",
						"type": "t_array(t_address)dyn_storage"
					},
					{
						"astId": 1069,
						"contract": "Contracts/AKEB.sol:AKEB",
						"label": "encodedBids",
						"offset": 0,
						"slot": "10",
						"type": "t_mapping(t_address,t_bytes32)"
					},
					{
						"astId": 1080,
						"contract": "Contracts/AKEB.sol:AKEB",
						"label": "winners",
						"offset": 0,
						"slot": "11",
						"type": "t_array(t_struct(winner)1076_storage)dyn_storage"
					},
					{
						"astId": 1091,
						"contract": "Contracts/AKEB.sol:AKEB",
						"label": "disputedBidders",
						"offset": 0,
						"slot": "12",
						"type": "t_array(t_struct(DisputedBidders)1087_storage)dyn_storage"
					}
				],
				"types": {
					"t_address": {
						"encoding": "inplace",
						"label": "address",
						"numberOfBytes": "20"
					},
					"t_array(t_address)dyn_storage": {
						"base": "t_address",
						"encoding": "dynamic_array",
						"label": "address[]",
						"numberOfBytes": "32"
					},
					"t_array(t_struct(DisputedBidders)1087_storage)dyn_storage": {
						"base": "t_struct(DisputedBidders)1087_storage",
						"encoding": "dynamic_array",
						"label": "struct AKEB.DisputedBidders[]",
						"numberOfBytes": "32"
					},
					"t_array(t_struct(winner)1076_storage)dyn_storage": {
						"base": "t_struct(winner)1076_storage",
						"encoding": "dynamic_array",
						"label": "struct AKEB.winner[]",
						"numberOfBytes": "32"
					},
					"t_bool": {
						"encoding": "inplace",
						"label": "bool",
						"numberOfBytes": "1"
					},
					"t_bytes32": {
						"encoding": "inplace",
						"label": "bytes32",
						"numberOfBytes": "32"
					},
					"t_mapping(t_address,t_bytes32)": {
						"encoding": "mapping",
						"key": "t_address",
						"label": "mapping(address => bytes32)",
						"numberOfBytes": "32",
						"value": "t_bytes32"
					},
					"t_string_storage": {
						"encoding": "bytes",
						"label": "string",
						"numberOfBytes": "32"
					},
					"t_struct(DisputedBidders)1087_storage": {
						"encoding": "inplace",
						"label": "struct AKEB.DisputedBidders",
						"members": [
							{
								"astId": 1082,
								"contract": "Contracts/AKEB.sol:AKEB",
								"label": "bid",
								"offset": 0,
								"slot": "0",
								"type": "t_uint256"
							},
							{
								"astId": 1084,
								"contract": "Contracts/AKEB.sol:AKEB",
								"label": "disputeAddress",
								"offset": 0,
								"slot": "1",
								"type": "t_address"
							},
							{
								"astId": 1086,
								"contract": "Contracts/AKEB.sol:AKEB",
								"label": "nonce",
								"offset": 0,
								"slot": "2",
								"type": "t_string_storage"
							}
						],
						"numberOfBytes": "96"
					},
					"t_struct(winner)1076_storage": {
						"encoding": "inplace",
						"label": "struct AKEB.winner",
						"members": [
							{
								"astId": 1071,
								"contract": "Contracts/AKEB.sol:AKEB",
								"label": "winnerAddress",
								"offset": 0,
								"slot": "0",
								"type": "t_address"
							},
							{
								"astId": 1073,
								"contract": "Contracts/AKEB.sol:AKEB",
								"label": "bid",
								"offset": 0,
								"slot": "1",
								"type": "t_uint256"
							},
							{
								"astId": 1075,
								"contract": "Contracts/AKEB.sol:AKEB",
								"label": "nonce",
								"offset": 0,
								"slot": "2",
								"type": "t_string_storage"
							}
						],
						"numberOfBytes": "96"
					},
					"t_uint256": {
						"encoding": "inplace",
						"label": "uint256",
						"numberOfBytes": "32"
					}
				}
			},
			"userdoc": {
				"kind": "user",
				"methods": {},
				"version": 1
			}
		}
	}
}