{
	"Contracts/AKEB.sol": {
		"AKEB": {
			"abi": [
				{
					"inputs": [],
					"stateMutability": "nonpayable",
					"type": "constructor"
				},
				{
					"inputs": [],
					"name": "assetDescription",
					"outputs": [
						{
							"internalType": "string",
							"name": "",
							"type": "string"
						}
					],
					"stateMutability": "view",
					"type": "function"
				},
				{
					"inputs": [],
					"name": "assetName",
					"outputs": [
						{
							"internalType": "string",
							"name": "",
							"type": "string"
						}
					],
					"stateMutability": "view",
					"type": "function"
				},
				{
					"inputs": [],
					"name": "auctioneer",
					"outputs": [
						{
							"internalType": "address",
							"name": "",
							"type": "address"
						}
					],
					"stateMutability": "view",
					"type": "function"
				},
				{
					"inputs": [
						{
							"internalType": "uint256",
							"name": "",
							"type": "uint256"
						}
					],
					"name": "bidders",
					"outputs": [
						{
							"internalType": "address",
							"name": "",
							"type": "address"
						}
					],
					"stateMutability": "view",
					"type": "function"
				},
				{
					"inputs": [
						{
							"internalType": "uint256",
							"name": "inputDisputedBid",
							"type": "uint256"
						},
						{
							"internalType": "string",
							"name": "inputDisputedNonce",
							"type": "string"
						}
					],
					"name": "dispute",
					"outputs": [],
					"stateMutability": "nonpayable",
					"type": "function"
				},
				{
					"inputs": [
						{
							"internalType": "uint256",
							"name": "",
							"type": "uint256"
						}
					],
					"name": "disputedBidders",
					"outputs": [
						{
							"internalType": "uint256",
							"name": "bid",
							"type": "uint256"
						},
						{
							"internalType": "address",
							"name": "disputeAddress",
							"type": "address"
						},
						{
							"internalType": "string",
							"name": "nonce",
							"type": "string"
						}
					],
					"stateMutability": "view",
					"type": "function"
				},
				{
					"inputs": [
						{
							"internalType": "address",
							"name": "",
							"type": "address"
						}
					],
					"name": "encodedBids",
					"outputs": [
						{
							"internalType": "bytes32",
							"name": "",
							"type": "bytes32"
						}
					],
					"stateMutability": "view",
					"type": "function"
				},
				{
					"inputs": [],
					"name": "getAllDisputers",
					"outputs": [
						{
							"components": [
								{
									"internalType": "uint256",
									"name": "bid",
									"type": "uint256"
								},
								{
									"internalType": "address",
									"name": "disputeAddress",
									"type": "address"
								},
								{
									"internalType": "string",
									"name": "nonce",
									"type": "string"
								}
							],
							"internalType": "struct AKEB.DisputedBidders[]",
							"name": "",
							"type": "tuple[]"
						}
					],
					"stateMutability": "view",
					"type": "function"
				},
				{
					"inputs": [],
					"name": "getAllWinners",
					"outputs": [
						{
							"components": [
								{
									"internalType": "address",
									"name": "winnerAddress",
									"type": "address"
								},
								{
									"internalType": "uint256",
									"name": "bid",
									"type": "uint256"
								},
								{
									"internalType": "string",
									"name": "nonce",
									"type": "string"
								}
							],
							"internalType": "struct AKEB.winner[]",
							"name": "",
							"type": "tuple[]"
						}
					],
					"stateMutability": "view",
					"type": "function"
				},
				{
					"inputs": [],
					"name": "getAuctionInfo",
					"outputs": [
						{
							"internalType": "string",
							"name": "",
							"type": "string"
						},
						{
							"internalType": "string",
							"name": "",
							"type": "string"
						}
					],
					"stateMutability": "view",
					"type": "function"
				},
				{
					"inputs": [
						{
							"internalType": "uint256",
							"name": "index",
							"type": "uint256"
						}
					],
					"name": "getBidders",
					"outputs": [
						{
							"internalType": "address",
							"name": "",
							"type": "address"
						}
					],
					"stateMutability": "view",
					"type": "function"
				},
				{
					"inputs": [
						{
							"internalType": "string",
							"name": "assetNameInput",
							"type": "string"
						},
						{
							"internalType": "string",
							"name": "assetDescriptionInput",
							"type": "string"
						}
					],
					"name": "registerAuctionInfo",
					"outputs": [],
					"stateMutability": "nonpayable",
					"type": "function"
				},
				{
					"inputs": [],
					"name": "registerBidder",
					"outputs": [],
					"stateMutability": "nonpayable",
					"type": "function"
				},
				{
					"inputs": [],
					"name": "reset",
					"outputs": [],
					"stateMutability": "nonpayable",
					"type": "function"
				},
				{
					"inputs": [],
					"name": "resetEncodedBids",
					"outputs": [],
					"stateMutability": "nonpayable",
					"type": "function"
				},
				{
					"inputs": [],
					"name": "seller",
					"outputs": [
						{
							"internalType": "address",
							"name": "",
							"type": "address"
						}
					],
					"stateMutability": "view",
					"type": "function"
				},
				{
					"inputs": [
						{
							"internalType": "bytes32",
							"name": "inputEncodedBid",
							"type": "bytes32"
						}
					],
					"name": "submitEncodedBid",
					"outputs": [],
					"stateMutability": "nonpayable",
					"type": "function"
				},
				{
					"inputs": [
						{
							"internalType": "uint256",
							"name": "inputWinnerBid",
							"type": "uint256"
						},
						{
							"internalType": "string",
							"name": "inputwinnerNonce",
							"type": "string"
						}
					],
					"name": "submitWinner",
					"outputs": [],
					"stateMutability": "nonpayable",
					"type": "function"
				},
				{
					"inputs": [
						{
							"internalType": "uint256",
							"name": "",
							"type": "uint256"
						}
					],
					"name": "winners",
					"outputs": [
						{
							"internalType": "address",
							"name": "winnerAddress",
							"type": "address"
						},
						{
							"internalType": "uint256",
							"name": "bid",
							"type": "uint256"
						},
						{
							"internalType": "string",
							"name": "nonce",
							"type": "string"
						}
					],
					"stateMutability": "view",
					"type": "function"
				}
			],
			"devdoc": {
				"kind": "dev",
				"methods": {},
				"version": 1
			},
			"evm": {
				"assembly": "    /* \"Contracts/AKEB.sol\":111:8058  contract AKEB {... */\n  mstore(0x40, 0x80)\n    /* \"Contracts/AKEB.sol\":476:477  1 */\n  0x01\n    /* \"Contracts/AKEB.sol\":458:477  uint periodTime = 1 */\n  0x07\n  sstore\n    /* \"Contracts/AKEB.sol\":507:512  false */\n  0x00\n    /* \"Contracts/AKEB.sol\":483:512  bool isAuctionStarted = false */\n  0x08\n  exp(0x0100, 0x00)\n  dup2\n  sload\n  dup2\n  0xff\n  mul\n  not\n  and\n  swap1\n  dup4\n  iszero\n  iszero\n  mul\n  or\n  swap1\n  sstore\n  pop\n    /* \"Contracts/AKEB.sol\":1478:1531  constructor(){... */\n  callvalue\n  dup1\n  iszero\n  tag_1\n  jumpi\n  0x00\n  dup1\n  revert\ntag_1:\n  pop\n    /* \"Contracts/AKEB.sol\":1514:1524  msg.sender */\n  caller\n    /* \"Contracts/AKEB.sol\":1501:1511  auctioneer */\n  0x01\n  0x00\n    /* \"Contracts/AKEB.sol\":1501:1524  auctioneer = msg.sender */\n  0x0100\n  exp\n  dup2\n  sload\n  dup2\n  0xffffffffffffffffffffffffffffffffffffffff\n  mul\n  not\n  and\n  swap1\n  dup4\n  0xffffffffffffffffffffffffffffffffffffffff\n  and\n  mul\n  or\n  swap1\n  sstore\n  pop\n    /* \"Contracts/AKEB.sol\":111:8058  contract AKEB {... */\n  dataSize(sub_0)\n  dup1\n  dataOffset(sub_0)\n  0x00\n  codecopy\n  0x00\n  return\nstop\n\nsub_0: assembly {\n        /* \"Contracts/AKEB.sol\":111:8058  contract AKEB {... */\n      mstore(0x40, 0x80)\n      callvalue\n      dup1\n      iszero\n      tag_1\n      jumpi\n      0x00\n      dup1\n      revert\n    tag_1:\n      pop\n      jumpi(tag_2, lt(calldatasize, 0x04))\n      shr(0xe0, calldataload(0x00))\n      dup1\n      0x938626c2\n      gt\n      tag_22\n      jumpi\n      dup1\n      0xd826f88f\n      gt\n      tag_23\n      jumpi\n      dup1\n      0xd826f88f\n      eq\n      tag_17\n      jumpi\n      dup1\n      0xd94a3505\n      eq\n      tag_18\n      jumpi\n      dup1\n      0xdc6b8627\n      eq\n      tag_19\n      jumpi\n      dup1\n      0xec5d0ab2\n      eq\n      tag_20\n      jumpi\n      dup1\n      0xf356733c\n      eq\n      tag_21\n      jumpi\n      jump(tag_2)\n    tag_23:\n      dup1\n      0x938626c2\n      eq\n      tag_12\n      jumpi\n      dup1\n      0xa2ebc656\n      eq\n      tag_13\n      jumpi\n      dup1\n      0xa2fb1175\n      eq\n      tag_14\n      jumpi\n      dup1\n      0xc9230c5d\n      eq\n      tag_15\n      jumpi\n      dup1\n      0xcff29dfd\n      eq\n      tag_16\n      jumpi\n      jump(tag_2)\n    tag_22:\n      dup1\n      0x40bd5937\n      gt\n      tag_24\n      jumpi\n      dup1\n      0x40bd5937\n      eq\n      tag_7\n      jumpi\n      dup1\n      0x4fa7b507\n      eq\n      tag_8\n      jumpi\n      dup1\n      0x5ec2c7bf\n      eq\n      tag_9\n      jumpi\n      dup1\n      0x66c85dee\n      eq\n      tag_10\n      jumpi\n      dup1\n      0x8f772f96\n      eq\n      tag_11\n      jumpi\n      jump(tag_2)\n    tag_24:\n      dup1\n      0x08551a53\n      eq\n      tag_3\n      jumpi\n      dup1\n      0x1744e03b\n      eq\n      tag_4\n      jumpi\n      dup1\n      0x35abd160\n      eq\n      tag_5\n      jumpi\n      dup1\n      0x3817df4c\n      eq\n      tag_6\n      jumpi\n    tag_2:\n      0x00\n      dup1\n      revert\n        /* \"Contracts/AKEB.sol\":168:189  address public seller */\n    tag_3:\n      tag_25\n      tag_26\n      jump\t// in\n    tag_25:\n      mload(0x40)\n      tag_27\n      swap2\n      swap1\n      tag_28\n      jump\t// in\n    tag_27:\n      mload(0x40)\n      dup1\n      swap2\n      sub\n      swap1\n      return\n        /* \"Contracts/AKEB.sol\":4449:5025  function submitWinner(uint256 inputWinnerBid, ... */\n    tag_4:\n      tag_29\n      0x04\n      dup1\n      calldatasize\n      sub\n      dup2\n      add\n      swap1\n      tag_30\n      swap2\n      swap1\n      tag_31\n      jump\t// in\n    tag_30:\n      tag_32\n      jump\t// in\n    tag_29:\n      stop\n        /* \"Contracts/AKEB.sol\":3659:3816  function getAllDisputers() ... */\n    tag_5:\n      tag_33\n      tag_34\n      jump\t// in\n    tag_33:\n      mload(0x40)\n      tag_35\n      swap2\n      swap1\n      tag_36\n      jump\t// in\n    tag_35:\n      mload(0x40)\n      dup1\n      swap2\n      sub\n      swap1\n      return\n        /* \"Contracts/AKEB.sol\":594:640  mapping(address => bytes32) public encodedBids */\n    tag_6:\n      tag_37\n      0x04\n      dup1\n      calldatasize\n      sub\n      dup2\n      add\n      swap1\n      tag_38\n      swap2\n      swap1\n      tag_39\n      jump\t// in\n    tag_38:\n      tag_40\n      jump\t// in\n    tag_37:\n      mload(0x40)\n      tag_41\n      swap2\n      swap1\n      tag_42\n      jump\t// in\n    tag_41:\n      mload(0x40)\n      dup1\n      swap2\n      sub\n      swap1\n      return\n        /* \"Contracts/AKEB.sol\":7745:8056  function resetEncodedBids() ... */\n    tag_7:\n      tag_43\n      tag_44\n      jump\t// in\n    tag_43:\n      stop\n        /* \"Contracts/AKEB.sol\":3415:3528  function getBidders(uint index) ... */\n    tag_8:\n      tag_45\n      0x04\n      dup1\n      calldatasize\n      sub\n      dup2\n      add\n      swap1\n      tag_46\n      swap2\n      swap1\n      tag_47\n      jump\t// in\n    tag_46:\n      tag_48\n      jump\t// in\n    tag_45:\n      mload(0x40)\n      tag_49\n      swap2\n      swap1\n      tag_28\n      jump\t// in\n    tag_49:\n      mload(0x40)\n      dup1\n      swap2\n      sub\n      swap1\n      return\n        /* \"Contracts/AKEB.sol\":195:220  address public auctioneer */\n    tag_9:\n      tag_50\n      tag_51\n      jump\t// in\n    tag_50:\n      mload(0x40)\n      tag_52\n      swap2\n      swap1\n      tag_28\n      jump\t// in\n    tag_52:\n      mload(0x40)\n      dup1\n      swap2\n      sub\n      swap1\n      return\n        /* \"Contracts/AKEB.sol\":5312:6397  function dispute(uint256 inputDisputedBid, ... */\n    tag_10:\n      tag_53\n      0x04\n      dup1\n      calldatasize\n      sub\n      dup2\n      add\n      swap1\n      tag_54\n      swap2\n      swap1\n      tag_31\n      jump\t// in\n    tag_54:\n      tag_55\n      jump\t// in\n    tag_53:\n      stop\n        /* \"Contracts/AKEB.sol\":1013:1053  DisputedBidders[] public disputedBidders */\n    tag_11:\n      tag_56\n      0x04\n      dup1\n      calldatasize\n      sub\n      dup2\n      add\n      swap1\n      tag_57\n      swap2\n      swap1\n      tag_47\n      jump\t// in\n    tag_57:\n      tag_58\n      jump\t// in\n    tag_56:\n      mload(0x40)\n      tag_59\n      swap4\n      swap3\n      swap2\n      swap1\n      tag_60\n      jump\t// in\n    tag_59:\n      mload(0x40)\n      dup1\n      swap2\n      sub\n      swap1\n      return\n        /* \"Contracts/AKEB.sol\":251:281  string public assetDescription */\n    tag_12:\n      tag_61\n      tag_62\n      jump\t// in\n    tag_61:\n      mload(0x40)\n      tag_63\n      swap2\n      swap1\n      tag_64\n      jump\t// in\n    tag_63:\n      mload(0x40)\n      dup1\n      swap2\n      sub\n      swap1\n      return\n        /* \"Contracts/AKEB.sol\":2535:2841  function registerAuctionInfo(string memory assetNameInput, ... */\n    tag_13:\n      tag_65\n      0x04\n      dup1\n      calldatasize\n      sub\n      dup2\n      add\n      swap1\n      tag_66\n      swap2\n      swap1\n      tag_67\n      jump\t// in\n    tag_66:\n      tag_68\n      jump\t// in\n    tag_65:\n      stop\n        /* \"Contracts/AKEB.sol\":841:864  winner[] public winners */\n    tag_14:\n      tag_69\n      0x04\n      dup1\n      calldatasize\n      sub\n      dup2\n      add\n      swap1\n      tag_70\n      swap2\n      swap1\n      tag_47\n      jump\t// in\n    tag_70:\n      tag_71\n      jump\t// in\n    tag_69:\n      mload(0x40)\n      tag_72\n      swap4\n      swap3\n      swap2\n      swap1\n      tag_73\n      jump\t// in\n    tag_72:\n      mload(0x40)\n      dup1\n      swap2\n      sub\n      swap1\n      return\n        /* \"Contracts/AKEB.sol\":287:310  string public assetName */\n    tag_15:\n      tag_74\n      tag_75\n      jump\t// in\n    tag_74:\n      mload(0x40)\n      tag_76\n      swap2\n      swap1\n      tag_64\n      jump\t// in\n    tag_76:\n      mload(0x40)\n      dup1\n      swap2\n      sub\n      swap1\n      return\n        /* \"Contracts/AKEB.sol\":542:566  address[] public bidders */\n    tag_16:\n      tag_77\n      0x04\n      dup1\n      calldatasize\n      sub\n      dup2\n      add\n      swap1\n      tag_78\n      swap2\n      swap1\n      tag_47\n      jump\t// in\n    tag_78:\n      tag_79\n      jump\t// in\n    tag_77:\n      mload(0x40)\n      tag_80\n      swap2\n      swap1\n      tag_28\n      jump\t// in\n    tag_80:\n      mload(0x40)\n      dup1\n      swap2\n      sub\n      swap1\n      return\n        /* \"Contracts/AKEB.sol\":7340:7681  function reset() ... */\n    tag_17:\n      tag_81\n      tag_82\n      jump\t// in\n    tag_81:\n      stop\n        /* \"Contracts/AKEB.sol\":2884:3059  function getAuctionInfo() ... */\n    tag_18:\n      tag_83\n      tag_84\n      jump\t// in\n    tag_83:\n      mload(0x40)\n      tag_85\n      swap3\n      swap2\n      swap1\n      tag_86\n      jump\t// in\n    tag_85:\n      mload(0x40)\n      dup1\n      swap2\n      sub\n      swap1\n      return\n        /* \"Contracts/AKEB.sol\":5104:5242  function getAllWinners() ... */\n    tag_19:\n      tag_87\n      tag_88\n      jump\t// in\n    tag_87:\n      mload(0x40)\n      tag_89\n      swap2\n      swap1\n      tag_90\n      jump\t// in\n    tag_89:\n      mload(0x40)\n      dup1\n      swap2\n      sub\n      swap1\n      return\n        /* \"Contracts/AKEB.sol\":3901:4383  function submitEncodedBid(bytes32 inputEncodedBid) ... */\n    tag_20:\n      tag_91\n      0x04\n      dup1\n      calldatasize\n      sub\n      dup2\n      add\n      swap1\n      tag_92\n      swap2\n      swap1\n      tag_93\n      jump\t// in\n    tag_92:\n      tag_94\n      jump\t// in\n    tag_91:\n      stop\n        /* \"Contracts/AKEB.sol\":3118:3409  function registerBidder() ... */\n    tag_21:\n      tag_95\n      tag_96\n      jump\t// in\n    tag_95:\n      stop\n        /* \"Contracts/AKEB.sol\":168:189  address public seller */\n    tag_26:\n      0x00\n      dup1\n      sload\n      swap1\n      0x0100\n      exp\n      swap1\n      div\n      0xffffffffffffffffffffffffffffffffffffffff\n      and\n      dup2\n      jump\t// out\n        /* \"Contracts/AKEB.sol\":4449:5025  function submitWinner(uint256 inputWinnerBid, ... */\n    tag_32:\n        /* \"Contracts/AKEB.sol\":1610:1614  true */\n      0x01\n        /* \"Contracts/AKEB.sol\":1590:1614  isAuctionStarted == true */\n      iszero\n      iszero\n        /* \"Contracts/AKEB.sol\":1590:1606  isAuctionStarted */\n      0x08\n      0x00\n      swap1\n      sload\n      swap1\n      0x0100\n      exp\n      swap1\n      div\n      0xff\n      and\n        /* \"Contracts/AKEB.sol\":1590:1614  isAuctionStarted == true */\n      iszero\n      iszero\n      eq\n        /* \"Contracts/AKEB.sol\":1582:1650  require(isAuctionStarted == true, \"There is no started auction now\") */\n      tag_98\n      jumpi\n      mload(0x40)\n      0x08c379a000000000000000000000000000000000000000000000000000000000\n      dup2\n      mstore\n      0x04\n      add\n      tag_99\n      swap1\n      tag_100\n      jump\t// in\n    tag_99:\n      mload(0x40)\n      dup1\n      swap2\n      sub\n      swap1\n      revert\n    tag_98:\n        /* \"Contracts/AKEB.sol\":1952:1956  true */\n      0x01\n        /* \"Contracts/AKEB.sol\":1938:1956  isBidder() == true */\n      iszero\n      iszero\n        /* \"Contracts/AKEB.sol\":1938:1948  isBidder() */\n      tag_102\n        /* \"Contracts/AKEB.sol\":1938:1946  isBidder */\n      tag_103\n        /* \"Contracts/AKEB.sol\":1938:1948  isBidder() */\n      jump\t// in\n    tag_102:\n        /* \"Contracts/AKEB.sol\":1938:1956  isBidder() == true */\n      iszero\n      iszero\n      eq\n        /* \"Contracts/AKEB.sol\":1930:2005  require(isBidder() == true, \"Only registerd bidder can call this function\") */\n      tag_104\n      jumpi\n      mload(0x40)\n      0x08c379a000000000000000000000000000000000000000000000000000000000\n      dup2\n      mstore\n      0x04\n      add\n      tag_105\n      swap1\n      tag_106\n      jump\t// in\n    tag_105:\n      mload(0x40)\n      dup1\n      swap2\n      sub\n      swap1\n      revert\n    tag_104:\n        /* \"Contracts/AKEB.sol\":4916:4934  winner memory temp */\n      0x00\n        /* \"Contracts/AKEB.sol\":4937:4989  winner(msg.sender, inputWinnerBid, inputwinnerNonce) */\n      mload(0x40)\n      dup1\n      0x60\n      add\n      0x40\n      mstore\n      dup1\n        /* \"Contracts/AKEB.sol\":4944:4954  msg.sender */\n      caller\n        /* \"Contracts/AKEB.sol\":4937:4989  winner(msg.sender, inputWinnerBid, inputwinnerNonce) */\n      0xffffffffffffffffffffffffffffffffffffffff\n      and\n      dup2\n      mstore\n      0x20\n      add\n        /* \"Contracts/AKEB.sol\":4956:4970  inputWinnerBid */\n      dup5\n        /* \"Contracts/AKEB.sol\":4937:4989  winner(msg.sender, inputWinnerBid, inputwinnerNonce) */\n      dup2\n      mstore\n      0x20\n      add\n        /* \"Contracts/AKEB.sol\":4972:4988  inputwinnerNonce */\n      dup4\n        /* \"Contracts/AKEB.sol\":4937:4989  winner(msg.sender, inputWinnerBid, inputwinnerNonce) */\n      dup2\n      mstore\n      pop\n        /* \"Contracts/AKEB.sol\":4916:4989  winner memory temp = winner(msg.sender, inputWinnerBid, inputwinnerNonce) */\n      swap1\n      pop\n        /* \"Contracts/AKEB.sol\":5000:5007  winners */\n      0x0b\n        /* \"Contracts/AKEB.sol\":5013:5017  temp */\n      dup2\n        /* \"Contracts/AKEB.sol\":5000:5018  winners.push(temp) */\n      swap1\n      dup1\n      0x01\n      dup2\n      sload\n      add\n      dup1\n      dup3\n      sstore\n      dup1\n      swap2\n      pop\n      pop\n      0x01\n      swap1\n      sub\n      swap1\n      0x00\n      mstore\n      keccak256(0x00, 0x20)\n      swap1\n      0x03\n      mul\n      add\n      0x00\n      swap1\n      swap2\n      swap1\n      swap2\n      swap1\n      swap2\n      pop\n      0x00\n      dup3\n      add\n      mload\n      dup2\n      0x00\n      add\n      exp(0x0100, 0x00)\n      dup2\n      sload\n      dup2\n      0xffffffffffffffffffffffffffffffffffffffff\n      mul\n      not\n      and\n      swap1\n      dup4\n      0xffffffffffffffffffffffffffffffffffffffff\n      and\n      mul\n      or\n      swap1\n      sstore\n      pop\n      0x20\n      dup3\n      add\n      mload\n      dup2\n      0x01\n      add\n      sstore\n      0x40\n      dup3\n      add\n      mload\n      dup2\n      0x02\n      add\n      swap1\n      dup2\n      tag_109\n      swap2\n      swap1\n      tag_110\n      jump\t// in\n    tag_109:\n      pop\n      pop\n      pop\n        /* \"Contracts/AKEB.sol\":4590:5025  {... */\n      pop\n        /* \"Contracts/AKEB.sol\":4449:5025  function submitWinner(uint256 inputWinnerBid, ... */\n      pop\n      pop\n      jump\t// out\n        /* \"Contracts/AKEB.sol\":3659:3816  function getAllDisputers() ... */\n    tag_34:\n        /* \"Contracts/AKEB.sol\":3752:3776  DisputedBidders[] memory */\n      0x60\n        /* \"Contracts/AKEB.sol\":1610:1614  true */\n      0x01\n        /* \"Contracts/AKEB.sol\":1590:1614  isAuctionStarted == true */\n      iszero\n      iszero\n        /* \"Contracts/AKEB.sol\":1590:1606  isAuctionStarted */\n      0x08\n      0x00\n      swap1\n      sload\n      swap1\n      0x0100\n      exp\n      swap1\n      div\n      0xff\n      and\n        /* \"Contracts/AKEB.sol\":1590:1614  isAuctionStarted == true */\n      iszero\n      iszero\n      eq\n        /* \"Contracts/AKEB.sol\":1582:1650  require(isAuctionStarted == true, \"There is no started auction now\") */\n      tag_112\n      jumpi\n      mload(0x40)\n      0x08c379a000000000000000000000000000000000000000000000000000000000\n      dup2\n      mstore\n      0x04\n      add\n      tag_113\n      swap1\n      tag_100\n      jump\t// in\n    tag_113:\n      mload(0x40)\n      dup1\n      swap2\n      sub\n      swap1\n      revert\n    tag_112:\n        /* \"Contracts/AKEB.sol\":3794:3809  disputedBidders */\n      0x0c\n        /* \"Contracts/AKEB.sol\":3787:3809  return disputedBidders */\n      dup1\n      sload\n      dup1\n      0x20\n      mul\n      0x20\n      add\n      mload(0x40)\n      swap1\n      dup2\n      add\n      0x40\n      mstore\n      dup1\n      swap3\n      swap2\n      swap1\n      dup2\n      dup2\n      mstore\n      0x20\n      add\n      0x00\n      swap1\n    tag_115:\n      dup3\n      dup3\n      lt\n      iszero\n      tag_116\n      jumpi\n      dup4\n      dup3\n      swap1\n      0x00\n      mstore\n      keccak256(0x00, 0x20)\n      swap1\n      0x03\n      mul\n      add\n      mload(0x40)\n      dup1\n      0x60\n      add\n      0x40\n      mstore\n      swap1\n      dup2\n      0x00\n      dup3\n      add\n      sload\n      dup2\n      mstore\n      0x20\n      add\n      0x01\n      dup3\n      add\n      0x00\n      swap1\n      sload\n      swap1\n      0x0100\n      exp\n      swap1\n      div\n      0xffffffffffffffffffffffffffffffffffffffff\n      and\n      0xffffffffffffffffffffffffffffffffffffffff\n      and\n      0xffffffffffffffffffffffffffffffffffffffff\n      and\n      dup2\n      mstore\n      0x20\n      add\n      0x02\n      dup3\n      add\n      dup1\n      sload\n      tag_118\n      swap1\n      tag_119\n      jump\t// in\n    tag_118:\n      dup1\n      0x1f\n      add\n      0x20\n      dup1\n      swap2\n      div\n      mul\n      0x20\n      add\n      mload(0x40)\n      swap1\n      dup2\n      add\n      0x40\n      mstore\n      dup1\n      swap3\n      swap2\n      swap1\n      dup2\n      dup2\n      mstore\n      0x20\n      add\n      dup3\n      dup1\n      sload\n      tag_120\n      swap1\n      tag_119\n      jump\t// in\n    tag_120:\n      dup1\n      iszero\n      tag_121\n      jumpi\n      dup1\n      0x1f\n      lt\n      tag_122\n      jumpi\n      0x0100\n      dup1\n      dup4\n      sload\n      div\n      mul\n      dup4\n      mstore\n      swap2\n      0x20\n      add\n      swap2\n      jump(tag_121)\n    tag_122:\n      dup3\n      add\n      swap2\n      swap1\n      0x00\n      mstore\n      keccak256(0x00, 0x20)\n      swap1\n    tag_123:\n      dup2\n      sload\n      dup2\n      mstore\n      swap1\n      0x01\n      add\n      swap1\n      0x20\n      add\n      dup1\n      dup4\n      gt\n      tag_123\n      jumpi\n      dup3\n      swap1\n      sub\n      0x1f\n      and\n      dup3\n      add\n      swap2\n    tag_121:\n      pop\n      pop\n      pop\n      pop\n      pop\n      dup2\n      mstore\n      pop\n      pop\n      dup2\n      mstore\n      0x20\n      add\n      swap1\n      0x01\n      add\n      swap1\n      jump(tag_115)\n    tag_116:\n      pop\n      pop\n      pop\n      pop\n      swap1\n      pop\n        /* \"Contracts/AKEB.sol\":3659:3816  function getAllDisputers() ... */\n      swap1\n      jump\t// out\n        /* \"Contracts/AKEB.sol\":594:640  mapping(address => bytes32) public encodedBids */\n    tag_40:\n      mstore(0x20, 0x0a)\n      dup1\n      0x00\n      mstore\n      keccak256(0x00, 0x40)\n      0x00\n      swap2\n      pop\n      swap1\n      pop\n      sload\n      dup2\n      jump\t// out\n        /* \"Contracts/AKEB.sol\":7745:8056  function resetEncodedBids() ... */\n    tag_44:\n        /* \"Contracts/AKEB.sol\":7821:7853  winnerAndDisputeSubmissionPeriod */\n      sload(0x06)\n        /* \"Contracts/AKEB.sol\":7803:7818  block.timestamp */\n      timestamp\n        /* \"Contracts/AKEB.sol\":7803:7853  block.timestamp > winnerAndDisputeSubmissionPeriod */\n      gt\n        /* \"Contracts/AKEB.sol\":7795:7887  require(block.timestamp > winnerAndDisputeSubmissionPeriod, \"Auction is not completed yet.\") */\n      tag_125\n      jumpi\n      mload(0x40)\n      0x08c379a000000000000000000000000000000000000000000000000000000000\n      dup2\n      mstore\n      0x04\n      add\n      tag_126\n      swap1\n      tag_127\n      jump\t// in\n    tag_126:\n      mload(0x40)\n      dup1\n      swap2\n      sub\n      swap1\n      revert\n    tag_125:\n        /* \"Contracts/AKEB.sol\":7902:7911  uint256 i */\n      0x00\n        /* \"Contracts/AKEB.sol\":7897:8050  for (uint256 i = 0 ; i < bidders.length; i +=1){... */\n    tag_128:\n        /* \"Contracts/AKEB.sol\":7922:7929  bidders */\n      0x09\n        /* \"Contracts/AKEB.sol\":7922:7936  bidders.length */\n      dup1\n      sload\n      swap1\n      pop\n        /* \"Contracts/AKEB.sol\":7918:7919  i */\n      dup2\n        /* \"Contracts/AKEB.sol\":7918:7936  i < bidders.length */\n      lt\n        /* \"Contracts/AKEB.sol\":7897:8050  for (uint256 i = 0 ; i < bidders.length; i +=1){... */\n      iszero\n      tag_129\n      jumpi\n        /* \"Contracts/AKEB.sol\":7958:7979  address bidderAddress */\n      0x00\n        /* \"Contracts/AKEB.sol\":7982:7989  bidders */\n      0x09\n        /* \"Contracts/AKEB.sol\":7990:7991  i */\n      dup3\n        /* \"Contracts/AKEB.sol\":7982:7992  bidders[i] */\n      dup2\n      sload\n      dup2\n      lt\n      tag_131\n      jumpi\n      tag_132\n      tag_133\n      jump\t// in\n    tag_132:\n    tag_131:\n      swap1\n      0x00\n      mstore\n      keccak256(0x00, 0x20)\n      add\n      0x00\n      swap1\n      sload\n      swap1\n      0x0100\n      exp\n      swap1\n      div\n      0xffffffffffffffffffffffffffffffffffffffff\n      and\n        /* \"Contracts/AKEB.sol\":7958:7992  address bidderAddress = bidders[i] */\n      swap1\n      pop\n        /* \"Contracts/AKEB.sol\":8013:8024  encodedBids */\n      0x0a\n        /* \"Contracts/AKEB.sol\":8013:8039  encodedBids[bidderAddress] */\n      0x00\n        /* \"Contracts/AKEB.sol\":8025:8038  bidderAddress */\n      dup3\n        /* \"Contracts/AKEB.sol\":8013:8039  encodedBids[bidderAddress] */\n      0xffffffffffffffffffffffffffffffffffffffff\n      and\n      0xffffffffffffffffffffffffffffffffffffffff\n      and\n      dup2\n      mstore\n      0x20\n      add\n      swap1\n      dup2\n      mstore\n      0x20\n      add\n      0x00\n      keccak256\n        /* \"Contracts/AKEB.sol\":8006:8039  delete encodedBids[bidderAddress] */\n      0x00\n      swap1\n      sstore\n        /* \"Contracts/AKEB.sol\":7944:8050  {... */\n      pop\n        /* \"Contracts/AKEB.sol\":7942:7943  1 */\n      0x01\n        /* \"Contracts/AKEB.sol\":7938:7943  i +=1 */\n      dup2\n      tag_135\n      swap2\n      swap1\n      tag_136\n      jump\t// in\n    tag_135:\n      swap1\n      pop\n        /* \"Contracts/AKEB.sol\":7897:8050  for (uint256 i = 0 ; i < bidders.length; i +=1){... */\n      jump(tag_128)\n    tag_129:\n      pop\n        /* \"Contracts/AKEB.sol\":7745:8056  function resetEncodedBids() ... */\n      jump\t// out\n        /* \"Contracts/AKEB.sol\":3415:3528  function getBidders(uint index) ... */\n    tag_48:\n        /* \"Contracts/AKEB.sol\":3482:3489  address */\n      0x00\n        /* \"Contracts/AKEB.sol\":3507:3514  bidders */\n      0x09\n        /* \"Contracts/AKEB.sol\":3515:3520  index */\n      dup3\n        /* \"Contracts/AKEB.sol\":3507:3521  bidders[index] */\n      dup2\n      sload\n      dup2\n      lt\n      tag_138\n      jumpi\n      tag_139\n      tag_133\n      jump\t// in\n    tag_139:\n    tag_138:\n      swap1\n      0x00\n      mstore\n      keccak256(0x00, 0x20)\n      add\n      0x00\n      swap1\n      sload\n      swap1\n      0x0100\n      exp\n      swap1\n      div\n      0xffffffffffffffffffffffffffffffffffffffff\n      and\n        /* \"Contracts/AKEB.sol\":3500:3521  return bidders[index] */\n      swap1\n      pop\n        /* \"Contracts/AKEB.sol\":3415:3528  function getBidders(uint index) ... */\n      swap2\n      swap1\n      pop\n      jump\t// out\n        /* \"Contracts/AKEB.sol\":195:220  address public auctioneer */\n    tag_51:\n      0x01\n      0x00\n      swap1\n      sload\n      swap1\n      0x0100\n      exp\n      swap1\n      div\n      0xffffffffffffffffffffffffffffffffffffffff\n      and\n      dup2\n      jump\t// out\n        /* \"Contracts/AKEB.sol\":5312:6397  function dispute(uint256 inputDisputedBid, ... */\n    tag_55:\n        /* \"Contracts/AKEB.sol\":1610:1614  true */\n      0x01\n        /* \"Contracts/AKEB.sol\":1590:1614  isAuctionStarted == true */\n      iszero\n      iszero\n        /* \"Contracts/AKEB.sol\":1590:1606  isAuctionStarted */\n      0x08\n      0x00\n      swap1\n      sload\n      swap1\n      0x0100\n      exp\n      swap1\n      div\n      0xff\n      and\n        /* \"Contracts/AKEB.sol\":1590:1614  isAuctionStarted == true */\n      iszero\n      iszero\n      eq\n        /* \"Contracts/AKEB.sol\":1582:1650  require(isAuctionStarted == true, \"There is no started auction now\") */\n      tag_142\n      jumpi\n      mload(0x40)\n      0x08c379a000000000000000000000000000000000000000000000000000000000\n      dup2\n      mstore\n      0x04\n      add\n      tag_143\n      swap1\n      tag_100\n      jump\t// in\n    tag_143:\n      mload(0x40)\n      dup1\n      swap2\n      sub\n      swap1\n      revert\n    tag_142:\n        /* \"Contracts/AKEB.sol\":1952:1956  true */\n      0x01\n        /* \"Contracts/AKEB.sol\":1938:1956  isBidder() == true */\n      iszero\n      iszero\n        /* \"Contracts/AKEB.sol\":1938:1948  isBidder() */\n      tag_145\n        /* \"Contracts/AKEB.sol\":1938:1946  isBidder */\n      tag_103\n        /* \"Contracts/AKEB.sol\":1938:1948  isBidder() */\n      jump\t// in\n    tag_145:\n        /* \"Contracts/AKEB.sol\":1938:1956  isBidder() == true */\n      iszero\n      iszero\n      eq\n        /* \"Contracts/AKEB.sol\":1930:2005  require(isBidder() == true, \"Only registerd bidder can call this function\") */\n      tag_146\n      jumpi\n      mload(0x40)\n      0x08c379a000000000000000000000000000000000000000000000000000000000\n      dup2\n      mstore\n      0x04\n      add\n      tag_147\n      swap1\n      tag_106\n      jump\t// in\n    tag_147:\n      mload(0x40)\n      dup1\n      swap2\n      sub\n      swap1\n      revert\n    tag_146:\n        /* \"Contracts/AKEB.sol\":5759:5779  bytes32 disputerHash */\n      0x00\n        /* \"Contracts/AKEB.sol\":5782:5831  computeHash(inputDisputedBid, inputDisputedNonce) */\n      tag_149\n        /* \"Contracts/AKEB.sol\":5794:5810  inputDisputedBid */\n      dup4\n        /* \"Contracts/AKEB.sol\":5812:5830  inputDisputedNonce */\n      dup4\n        /* \"Contracts/AKEB.sol\":5782:5793  computeHash */\n      tag_150\n        /* \"Contracts/AKEB.sol\":5782:5831  computeHash(inputDisputedBid, inputDisputedNonce) */\n      jump\t// in\n    tag_149:\n        /* \"Contracts/AKEB.sol\":5759:5831  bytes32 disputerHash = computeHash(inputDisputedBid, inputDisputedNonce) */\n      swap1\n      pop\n        /* \"Contracts/AKEB.sol\":5877:5889  disputerHash */\n      dup1\n        /* \"Contracts/AKEB.sol\":5850:5861  encodedBids */\n      0x0a\n        /* \"Contracts/AKEB.sol\":5850:5873  encodedBids[msg.sender] */\n      0x00\n        /* \"Contracts/AKEB.sol\":5862:5872  msg.sender */\n      caller\n        /* \"Contracts/AKEB.sol\":5850:5873  encodedBids[msg.sender] */\n      0xffffffffffffffffffffffffffffffffffffffff\n      and\n      0xffffffffffffffffffffffffffffffffffffffff\n      and\n      dup2\n      mstore\n      0x20\n      add\n      swap1\n      dup2\n      mstore\n      0x20\n      add\n      0x00\n      keccak256\n      sload\n        /* \"Contracts/AKEB.sol\":5850:5889  encodedBids[msg.sender] == disputerHash */\n      eq\n        /* \"Contracts/AKEB.sol\":5842:5940  require(encodedBids[msg.sender] == disputerHash, \"The bid and nonce you submitted are not valid.\") */\n      tag_151\n      jumpi\n      mload(0x40)\n      0x08c379a000000000000000000000000000000000000000000000000000000000\n      dup2\n      mstore\n      0x04\n      add\n      tag_152\n      swap1\n      tag_153\n      jump\t// in\n    tag_152:\n      mload(0x40)\n      dup1\n      swap2\n      sub\n      swap1\n      revert\n    tag_151:\n        /* \"Contracts/AKEB.sol\":6014:6018  true */\n      0x01\n        /* \"Contracts/AKEB.sol\":5958:6018  isDiputeBidGreaterThanOneWinnerBid(inputDisputedBid) == true */\n      iszero\n      iszero\n        /* \"Contracts/AKEB.sol\":5958:6010  isDiputeBidGreaterThanOneWinnerBid(inputDisputedBid) */\n      tag_154\n        /* \"Contracts/AKEB.sol\":5993:6009  inputDisputedBid */\n      dup5\n        /* \"Contracts/AKEB.sol\":5958:5992  isDiputeBidGreaterThanOneWinnerBid */\n      tag_155\n        /* \"Contracts/AKEB.sol\":5958:6010  isDiputeBidGreaterThanOneWinnerBid(inputDisputedBid) */\n      jump\t// in\n    tag_154:\n        /* \"Contracts/AKEB.sol\":5958:6018  isDiputeBidGreaterThanOneWinnerBid(inputDisputedBid) == true */\n      iszero\n      iszero\n      eq\n        /* \"Contracts/AKEB.sol\":5950:6098  require(isDiputeBidGreaterThanOneWinnerBid(inputDisputedBid) == true, \"Your dispute is not valid since it is not greater than at least one winner.\") */\n      tag_156\n      jumpi\n      mload(0x40)\n      0x08c379a000000000000000000000000000000000000000000000000000000000\n      dup2\n      mstore\n      0x04\n      add\n      tag_157\n      swap1\n      tag_158\n      jump\t// in\n    tag_157:\n      mload(0x40)\n      dup1\n      swap2\n      sub\n      swap1\n      revert\n    tag_156:\n        /* \"Contracts/AKEB.sol\":6109:6123  clearWinners() */\n      tag_159\n        /* \"Contracts/AKEB.sol\":6109:6121  clearWinners */\n      tag_160\n        /* \"Contracts/AKEB.sol\":6109:6123  clearWinners() */\n      jump\t// in\n    tag_159:\n        /* \"Contracts/AKEB.sol\":6134:6181  addWinner(inputDisputedBid, inputDisputedNonce) */\n      tag_161\n        /* \"Contracts/AKEB.sol\":6144:6160  inputDisputedBid */\n      dup4\n        /* \"Contracts/AKEB.sol\":6162:6180  inputDisputedNonce */\n      dup4\n        /* \"Contracts/AKEB.sol\":6134:6143  addWinner */\n      tag_162\n        /* \"Contracts/AKEB.sol\":6134:6181  addWinner(inputDisputedBid, inputDisputedNonce) */\n      jump\t// in\n    tag_161:\n        /* \"Contracts/AKEB.sol\":6192:6229  DisputedBidders memory disputedBidder */\n      0x00\n        /* \"Contracts/AKEB.sol\":6232:6343  DisputedBidders(... */\n      mload(0x40)\n      dup1\n      0x60\n      add\n      0x40\n      mstore\n      dup1\n        /* \"Contracts/AKEB.sol\":6261:6277  inputDisputedBid */\n      dup6\n        /* \"Contracts/AKEB.sol\":6232:6343  DisputedBidders(... */\n      dup2\n      mstore\n      0x20\n      add\n        /* \"Contracts/AKEB.sol\":6291:6301  msg.sender */\n      caller\n        /* \"Contracts/AKEB.sol\":6232:6343  DisputedBidders(... */\n      0xffffffffffffffffffffffffffffffffffffffff\n      and\n      dup2\n      mstore\n      0x20\n      add\n        /* \"Contracts/AKEB.sol\":6315:6333  inputDisputedNonce */\n      dup5\n        /* \"Contracts/AKEB.sol\":6232:6343  DisputedBidders(... */\n      dup2\n      mstore\n      pop\n        /* \"Contracts/AKEB.sol\":6192:6343  DisputedBidders memory disputedBidder = DisputedBidders(... */\n      swap1\n      pop\n        /* \"Contracts/AKEB.sol\":6354:6369  disputedBidders */\n      0x0c\n        /* \"Contracts/AKEB.sol\":6375:6389  disputedBidder */\n      dup2\n        /* \"Contracts/AKEB.sol\":6354:6390  disputedBidders.push(disputedBidder) */\n      swap1\n      dup1\n      0x01\n      dup2\n      sload\n      add\n      dup1\n      dup3\n      sstore\n      dup1\n      swap2\n      pop\n      pop\n      0x01\n      swap1\n      sub\n      swap1\n      0x00\n      mstore\n      keccak256(0x00, 0x20)\n      swap1\n      0x03\n      mul\n      add\n      0x00\n      swap1\n      swap2\n      swap1\n      swap2\n      swap1\n      swap2\n      pop\n      0x00\n      dup3\n      add\n      mload\n      dup2\n      0x00\n      add\n      sstore\n      0x20\n      dup3\n      add\n      mload\n      dup2\n      0x01\n      add\n      exp(0x0100, 0x00)\n      dup2\n      sload\n      dup2\n      0xffffffffffffffffffffffffffffffffffffffff\n      mul\n      not\n      and\n      swap1\n      dup4\n      0xffffffffffffffffffffffffffffffffffffffff\n      and\n      mul\n      or\n      swap1\n      sstore\n      pop\n      0x40\n      dup3\n      add\n      mload\n      dup2\n      0x02\n      add\n      swap1\n      dup2\n      tag_164\n      swap2\n      swap1\n      tag_110\n      jump\t// in\n    tag_164:\n      pop\n      pop\n      pop\n        /* \"Contracts/AKEB.sol\":5452:6397  {... */\n      pop\n      pop\n        /* \"Contracts/AKEB.sol\":5312:6397  function dispute(uint256 inputDisputedBid, ... */\n      pop\n      pop\n      jump\t// out\n        /* \"Contracts/AKEB.sol\":1013:1053  DisputedBidders[] public disputedBidders */\n    tag_58:\n      0x0c\n      dup2\n      dup2\n      sload\n      dup2\n      lt\n      tag_165\n      jumpi\n      0x00\n      dup1\n      revert\n    tag_165:\n      swap1\n      0x00\n      mstore\n      keccak256(0x00, 0x20)\n      swap1\n      0x03\n      mul\n      add\n      0x00\n      swap2\n      pop\n      swap1\n      pop\n      dup1\n      0x00\n      add\n      sload\n      swap1\n      dup1\n      0x01\n      add\n      0x00\n      swap1\n      sload\n      swap1\n      0x0100\n      exp\n      swap1\n      div\n      0xffffffffffffffffffffffffffffffffffffffff\n      and\n      swap1\n      dup1\n      0x02\n      add\n      dup1\n      sload\n      tag_167\n      swap1\n      tag_119\n      jump\t// in\n    tag_167:\n      dup1\n      0x1f\n      add\n      0x20\n      dup1\n      swap2\n      div\n      mul\n      0x20\n      add\n      mload(0x40)\n      swap1\n      dup2\n      add\n      0x40\n      mstore\n      dup1\n      swap3\n      swap2\n      swap1\n      dup2\n      dup2\n      mstore\n      0x20\n      add\n      dup3\n      dup1\n      sload\n      tag_168\n      swap1\n      tag_119\n      jump\t// in\n    tag_168:\n      dup1\n      iszero\n      tag_169\n      jumpi\n      dup1\n      0x1f\n      lt\n      tag_170\n      jumpi\n      0x0100\n      dup1\n      dup4\n      sload\n      div\n      mul\n      dup4\n      mstore\n      swap2\n      0x20\n      add\n      swap2\n      jump(tag_169)\n    tag_170:\n      dup3\n      add\n      swap2\n      swap1\n      0x00\n      mstore\n      keccak256(0x00, 0x20)\n      swap1\n    tag_171:\n      dup2\n      sload\n      dup2\n      mstore\n      swap1\n      0x01\n      add\n      swap1\n      0x20\n      add\n      dup1\n      dup4\n      gt\n      tag_171\n      jumpi\n      dup3\n      swap1\n      sub\n      0x1f\n      and\n      dup3\n      add\n      swap2\n    tag_169:\n      pop\n      pop\n      pop\n      pop\n      pop\n      swap1\n      pop\n      dup4\n      jump\t// out\n        /* \"Contracts/AKEB.sol\":251:281  string public assetDescription */\n    tag_62:\n      0x02\n      dup1\n      sload\n      tag_172\n      swap1\n      tag_119\n      jump\t// in\n    tag_172:\n      dup1\n      0x1f\n      add\n      0x20\n      dup1\n      swap2\n      div\n      mul\n      0x20\n      add\n      mload(0x40)\n      swap1\n      dup2\n      add\n      0x40\n      mstore\n      dup1\n      swap3\n      swap2\n      swap1\n      dup2\n      dup2\n      mstore\n      0x20\n      add\n      dup3\n      dup1\n      sload\n      tag_173\n      swap1\n      tag_119\n      jump\t// in\n    tag_173:\n      dup1\n      iszero\n      tag_174\n      jumpi\n      dup1\n      0x1f\n      lt\n      tag_175\n      jumpi\n      0x0100\n      dup1\n      dup4\n      sload\n      div\n      mul\n      dup4\n      mstore\n      swap2\n      0x20\n      add\n      swap2\n      jump(tag_174)\n    tag_175:\n      dup3\n      add\n      swap2\n      swap1\n      0x00\n      mstore\n      keccak256(0x00, 0x20)\n      swap1\n    tag_176:\n      dup2\n      sload\n      dup2\n      mstore\n      swap1\n      0x01\n      add\n      swap1\n      0x20\n      add\n      dup1\n      dup4\n      gt\n      tag_176\n      jumpi\n      dup3\n      swap1\n      sub\n      0x1f\n      and\n      dup3\n      add\n      swap2\n    tag_174:\n      pop\n      pop\n      pop\n      pop\n      pop\n      dup2\n      jump\t// out\n        /* \"Contracts/AKEB.sol\":2535:2841  function registerAuctionInfo(string memory assetNameInput, ... */\n    tag_68:\n        /* \"Contracts/AKEB.sol\":2671:2681  msg.sender */\n      caller\n        /* \"Contracts/AKEB.sol\":2662:2668  seller */\n      0x00\n      dup1\n        /* \"Contracts/AKEB.sol\":2662:2681  seller = msg.sender */\n      0x0100\n      exp\n      dup2\n      sload\n      dup2\n      0xffffffffffffffffffffffffffffffffffffffff\n      mul\n      not\n      and\n      swap1\n      dup4\n      0xffffffffffffffffffffffffffffffffffffffff\n      and\n      mul\n      or\n      swap1\n      sstore\n      pop\n        /* \"Contracts/AKEB.sol\":2703:2717  assetNameInput */\n      dup2\n        /* \"Contracts/AKEB.sol\":2691:2700  assetName */\n      0x03\n        /* \"Contracts/AKEB.sol\":2691:2717  assetName = assetNameInput */\n      swap1\n      dup2\n      tag_178\n      swap2\n      swap1\n      tag_110\n      jump\t// in\n    tag_178:\n      pop\n        /* \"Contracts/AKEB.sol\":2746:2767  assetDescriptionInput */\n      dup1\n        /* \"Contracts/AKEB.sol\":2727:2743  assetDescription */\n      0x02\n        /* \"Contracts/AKEB.sol\":2727:2767  assetDescription = assetDescriptionInput */\n      swap1\n      dup2\n      tag_179\n      swap2\n      swap1\n      tag_110\n      jump\t// in\n    tag_179:\n      pop\n        /* \"Contracts/AKEB.sol\":2777:2801  setUpPhasesTimePeriods() */\n      tag_180\n        /* \"Contracts/AKEB.sol\":2777:2799  setUpPhasesTimePeriods */\n      tag_181\n        /* \"Contracts/AKEB.sol\":2777:2801  setUpPhasesTimePeriods() */\n      jump\t// in\n    tag_180:\n        /* \"Contracts/AKEB.sol\":2830:2834  true */\n      0x01\n        /* \"Contracts/AKEB.sol\":2811:2827  isAuctionStarted */\n      0x08\n      0x00\n        /* \"Contracts/AKEB.sol\":2811:2834  isAuctionStarted = true */\n      0x0100\n      exp\n      dup2\n      sload\n      dup2\n      0xff\n      mul\n      not\n      and\n      swap1\n      dup4\n      iszero\n      iszero\n      mul\n      or\n      swap1\n      sstore\n      pop\n        /* \"Contracts/AKEB.sol\":2535:2841  function registerAuctionInfo(string memory assetNameInput, ... */\n      pop\n      pop\n      jump\t// out\n        /* \"Contracts/AKEB.sol\":841:864  winner[] public winners */\n    tag_71:\n      0x0b\n      dup2\n      dup2\n      sload\n      dup2\n      lt\n      tag_182\n      jumpi\n      0x00\n      dup1\n      revert\n    tag_182:\n      swap1\n      0x00\n      mstore\n      keccak256(0x00, 0x20)\n      swap1\n      0x03\n      mul\n      add\n      0x00\n      swap2\n      pop\n      swap1\n      pop\n      dup1\n      0x00\n      add\n      0x00\n      swap1\n      sload\n      swap1\n      0x0100\n      exp\n      swap1\n      div\n      0xffffffffffffffffffffffffffffffffffffffff\n      and\n      swap1\n      dup1\n      0x01\n      add\n      sload\n      swap1\n      dup1\n      0x02\n      add\n      dup1\n      sload\n      tag_184\n      swap1\n      tag_119\n      jump\t// in\n    tag_184:\n      dup1\n      0x1f\n      add\n      0x20\n      dup1\n      swap2\n      div\n      mul\n      0x20\n      add\n      mload(0x40)\n      swap1\n      dup2\n      add\n      0x40\n      mstore\n      dup1\n      swap3\n      swap2\n      swap1\n      dup2\n      dup2\n      mstore\n      0x20\n      add\n      dup3\n      dup1\n      sload\n      tag_185\n      swap1\n      tag_119\n      jump\t// in\n    tag_185:\n      dup1\n      iszero\n      tag_186\n      jumpi\n      dup1\n      0x1f\n      lt\n      tag_187\n      jumpi\n      0x0100\n      dup1\n      dup4\n      sload\n      div\n      mul\n      dup4\n      mstore\n      swap2\n      0x20\n      add\n      swap2\n      jump(tag_186)\n    tag_187:\n      dup3\n      add\n      swap2\n      swap1\n      0x00\n      mstore\n      keccak256(0x00, 0x20)\n      swap1\n    tag_188:\n      dup2\n      sload\n      dup2\n      mstore\n      swap1\n      0x01\n      add\n      swap1\n      0x20\n      add\n      dup1\n      dup4\n      gt\n      tag_188\n      jumpi\n      dup3\n      swap1\n      sub\n      0x1f\n      and\n      dup3\n      add\n      swap2\n    tag_186:\n      pop\n      pop\n      pop\n      pop\n      pop\n      swap1\n      pop\n      dup4\n      jump\t// out\n        /* \"Contracts/AKEB.sol\":287:310  string public assetName */\n    tag_75:\n      0x03\n      dup1\n      sload\n      tag_189\n      swap1\n      tag_119\n      jump\t// in\n    tag_189:\n      dup1\n      0x1f\n      add\n      0x20\n      dup1\n      swap2\n      div\n      mul\n      0x20\n      add\n      mload(0x40)\n      swap1\n      dup2\n      add\n      0x40\n      mstore\n      dup1\n      swap3\n      swap2\n      swap1\n      dup2\n      dup2\n      mstore\n      0x20\n      add\n      dup3\n      dup1\n      sload\n      tag_190\n      swap1\n      tag_119\n      jump\t// in\n    tag_190:\n      dup1\n      iszero\n      tag_191\n      jumpi\n      dup1\n      0x1f\n      lt\n      tag_192\n      jumpi\n      0x0100\n      dup1\n      dup4\n      sload\n      div\n      mul\n      dup4\n      mstore\n      swap2\n      0x20\n      add\n      swap2\n      jump(tag_191)\n    tag_192:\n      dup3\n      add\n      swap2\n      swap1\n      0x00\n      mstore\n      keccak256(0x00, 0x20)\n      swap1\n    tag_193:\n      dup2\n      sload\n      dup2\n      mstore\n      swap1\n      0x01\n      add\n      swap1\n      0x20\n      add\n      dup1\n      dup4\n      gt\n      tag_193\n      jumpi\n      dup3\n      swap1\n      sub\n      0x1f\n      and\n      dup3\n      add\n      swap2\n    tag_191:\n      pop\n      pop\n      pop\n      pop\n      pop\n      dup2\n      jump\t// out\n        /* \"Contracts/AKEB.sol\":542:566  address[] public bidders */\n    tag_79:\n      0x09\n      dup2\n      dup2\n      sload\n      dup2\n      lt\n      tag_194\n      jumpi\n      0x00\n      dup1\n      revert\n    tag_194:\n      swap1\n      0x00\n      mstore\n      keccak256(0x00, 0x20)\n      add\n      0x00\n      swap2\n      pop\n      sload\n      swap1\n      0x0100\n      exp\n      swap1\n      div\n      0xffffffffffffffffffffffffffffffffffffffff\n      and\n      dup2\n      jump\t// out\n        /* \"Contracts/AKEB.sol\":7340:7681  function reset() ... */\n    tag_82:\n        /* \"Contracts/AKEB.sol\":7405:7437  winnerAndDisputeSubmissionPeriod */\n      sload(0x06)\n        /* \"Contracts/AKEB.sol\":7387:7402  block.timestamp */\n      timestamp\n        /* \"Contracts/AKEB.sol\":7387:7437  block.timestamp > winnerAndDisputeSubmissionPeriod */\n      gt\n        /* \"Contracts/AKEB.sol\":7379:7471  require(block.timestamp > winnerAndDisputeSubmissionPeriod, \"Auction is not completed yet.\") */\n      tag_197\n      jumpi\n      mload(0x40)\n      0x08c379a000000000000000000000000000000000000000000000000000000000\n      dup2\n      mstore\n      0x04\n      add\n      tag_198\n      swap1\n      tag_127\n      jump\t// in\n    tag_198:\n      mload(0x40)\n      dup1\n      swap2\n      sub\n      swap1\n      revert\n    tag_197:\n        /* \"Contracts/AKEB.sol\":7489:7496  winners */\n      0x0b\n      0x00\n        /* \"Contracts/AKEB.sol\":7482:7496  delete winners */\n      tag_199\n      swap2\n      swap1\n      tag_200\n      jump\t// in\n    tag_199:\n        /* \"Contracts/AKEB.sol\":7507:7528  assetDescription = \"\" */\n      mload(0x40)\n      dup1\n      0x20\n      add\n      0x40\n      mstore\n      dup1\n      0x00\n      dup2\n      mstore\n      pop\n        /* \"Contracts/AKEB.sol\":7507:7523  assetDescription */\n      0x02\n        /* \"Contracts/AKEB.sol\":7507:7528  assetDescription = \"\" */\n      swap1\n      dup2\n      tag_201\n      swap2\n      swap1\n      tag_110\n      jump\t// in\n    tag_201:\n      pop\n        /* \"Contracts/AKEB.sol\":7538:7552  assetName = \"\" */\n      mload(0x40)\n      dup1\n      0x20\n      add\n      0x40\n      mstore\n      dup1\n      0x00\n      dup2\n      mstore\n      pop\n        /* \"Contracts/AKEB.sol\":7538:7547  assetName */\n      0x03\n        /* \"Contracts/AKEB.sol\":7538:7552  assetName = \"\" */\n      swap1\n      dup2\n      tag_202\n      swap2\n      swap1\n      tag_110\n      jump\t// in\n    tag_202:\n      pop\n        /* \"Contracts/AKEB.sol\":7563:7581  resetEncodedBids() */\n      tag_203\n        /* \"Contracts/AKEB.sol\":7563:7579  resetEncodedBids */\n      tag_44\n        /* \"Contracts/AKEB.sol\":7563:7581  resetEncodedBids() */\n      jump\t// in\n    tag_203:\n        /* \"Contracts/AKEB.sol\":7599:7606  bidders */\n      0x09\n      0x00\n        /* \"Contracts/AKEB.sol\":7592:7606  delete bidders */\n      tag_204\n      swap2\n      swap1\n      tag_205\n      jump\t// in\n    tag_204:\n        /* \"Contracts/AKEB.sol\":7624:7639  disputedBidders */\n      0x0c\n      0x00\n        /* \"Contracts/AKEB.sol\":7617:7639  delete disputedBidders */\n      tag_206\n      swap2\n      swap1\n      tag_207\n      jump\t// in\n    tag_206:\n        /* \"Contracts/AKEB.sol\":7669:7674  false */\n      0x00\n        /* \"Contracts/AKEB.sol\":7650:7666  isAuctionStarted */\n      0x08\n      0x00\n        /* \"Contracts/AKEB.sol\":7650:7674  isAuctionStarted = false */\n      0x0100\n      exp\n      dup2\n      sload\n      dup2\n      0xff\n      mul\n      not\n      and\n      swap1\n      dup4\n      iszero\n      iszero\n      mul\n      or\n      swap1\n      sstore\n      pop\n        /* \"Contracts/AKEB.sol\":7340:7681  function reset() ... */\n      jump\t// out\n        /* \"Contracts/AKEB.sol\":2884:3059  function getAuctionInfo() ... */\n    tag_84:\n        /* \"Contracts/AKEB.sol\":2976:2989  string memory */\n      0x60\n        /* \"Contracts/AKEB.sol\":2991:3004  string memory */\n      dup1\n        /* \"Contracts/AKEB.sol\":1610:1614  true */\n      0x01\n        /* \"Contracts/AKEB.sol\":1590:1614  isAuctionStarted == true */\n      iszero\n      iszero\n        /* \"Contracts/AKEB.sol\":1590:1606  isAuctionStarted */\n      0x08\n      0x00\n      swap1\n      sload\n      swap1\n      0x0100\n      exp\n      swap1\n      div\n      0xff\n      and\n        /* \"Contracts/AKEB.sol\":1590:1614  isAuctionStarted == true */\n      iszero\n      iszero\n      eq\n        /* \"Contracts/AKEB.sol\":1582:1650  require(isAuctionStarted == true, \"There is no started auction now\") */\n      tag_209\n      jumpi\n      mload(0x40)\n      0x08c379a000000000000000000000000000000000000000000000000000000000\n      dup2\n      mstore\n      0x04\n      add\n      tag_210\n      swap1\n      tag_100\n      jump\t// in\n    tag_210:\n      mload(0x40)\n      dup1\n      swap2\n      sub\n      swap1\n      revert\n    tag_209:\n        /* \"Contracts/AKEB.sol\":3024:3033  assetName */\n      0x03\n        /* \"Contracts/AKEB.sol\":3035:3051  assetDescription */\n      0x02\n        /* \"Contracts/AKEB.sol\":3016:3052  return (assetName, assetDescription) */\n      dup2\n      dup1\n      sload\n      tag_212\n      swap1\n      tag_119\n      jump\t// in\n    tag_212:\n      dup1\n      0x1f\n      add\n      0x20\n      dup1\n      swap2\n      div\n      mul\n      0x20\n      add\n      mload(0x40)\n      swap1\n      dup2\n      add\n      0x40\n      mstore\n      dup1\n      swap3\n      swap2\n      swap1\n      dup2\n      dup2\n      mstore\n      0x20\n      add\n      dup3\n      dup1\n      sload\n      tag_213\n      swap1\n      tag_119\n      jump\t// in\n    tag_213:\n      dup1\n      iszero\n      tag_214\n      jumpi\n      dup1\n      0x1f\n      lt\n      tag_215\n      jumpi\n      0x0100\n      dup1\n      dup4\n      sload\n      div\n      mul\n      dup4\n      mstore\n      swap2\n      0x20\n      add\n      swap2\n      jump(tag_214)\n    tag_215:\n      dup3\n      add\n      swap2\n      swap1\n      0x00\n      mstore\n      keccak256(0x00, 0x20)\n      swap1\n    tag_216:\n      dup2\n      sload\n      dup2\n      mstore\n      swap1\n      0x01\n      add\n      swap1\n      0x20\n      add\n      dup1\n      dup4\n      gt\n      tag_216\n      jumpi\n      dup3\n      swap1\n      sub\n      0x1f\n      and\n      dup3\n      add\n      swap2\n    tag_214:\n      pop\n      pop\n      pop\n      pop\n      pop\n      swap2\n      pop\n      dup1\n      dup1\n      sload\n      tag_217\n      swap1\n      tag_119\n      jump\t// in\n    tag_217:\n      dup1\n      0x1f\n      add\n      0x20\n      dup1\n      swap2\n      div\n      mul\n      0x20\n      add\n      mload(0x40)\n      swap1\n      dup2\n      add\n      0x40\n      mstore\n      dup1\n      swap3\n      swap2\n      swap1\n      dup2\n      dup2\n      mstore\n      0x20\n      add\n      dup3\n      dup1\n      sload\n      tag_218\n      swap1\n      tag_119\n      jump\t// in\n    tag_218:\n      dup1\n      iszero\n      tag_219\n      jumpi\n      dup1\n      0x1f\n      lt\n      tag_220\n      jumpi\n      0x0100\n      dup1\n      dup4\n      sload\n      div\n      mul\n      dup4\n      mstore\n      swap2\n      0x20\n      add\n      swap2\n      jump(tag_219)\n    tag_220:\n      dup3\n      add\n      swap2\n      swap1\n      0x00\n      mstore\n      keccak256(0x00, 0x20)\n      swap1\n    tag_221:\n      dup2\n      sload\n      dup2\n      mstore\n      swap1\n      0x01\n      add\n      swap1\n      0x20\n      add\n      dup1\n      dup4\n      gt\n      tag_221\n      jumpi\n      dup3\n      swap1\n      sub\n      0x1f\n      and\n      dup3\n      add\n      swap2\n    tag_219:\n      pop\n      pop\n      pop\n      pop\n      pop\n      swap1\n      pop\n      swap2\n      pop\n      swap2\n      pop\n        /* \"Contracts/AKEB.sol\":2884:3059  function getAuctionInfo() ... */\n      swap1\n      swap2\n      jump\t// out\n        /* \"Contracts/AKEB.sol\":5104:5242  function getAllWinners() ... */\n    tag_88:\n        /* \"Contracts/AKEB.sol\":5194:5209  winner[] memory */\n      0x60\n        /* \"Contracts/AKEB.sol\":1610:1614  true */\n      0x01\n        /* \"Contracts/AKEB.sol\":1590:1614  isAuctionStarted == true */\n      iszero\n      iszero\n        /* \"Contracts/AKEB.sol\":1590:1606  isAuctionStarted */\n      0x08\n      0x00\n      swap1\n      sload\n      swap1\n      0x0100\n      exp\n      swap1\n      div\n      0xff\n      and\n        /* \"Contracts/AKEB.sol\":1590:1614  isAuctionStarted == true */\n      iszero\n      iszero\n      eq\n        /* \"Contracts/AKEB.sol\":1582:1650  require(isAuctionStarted == true, \"There is no started auction now\") */\n      tag_223\n      jumpi\n      mload(0x40)\n      0x08c379a000000000000000000000000000000000000000000000000000000000\n      dup2\n      mstore\n      0x04\n      add\n      tag_224\n      swap1\n      tag_100\n      jump\t// in\n    tag_224:\n      mload(0x40)\n      dup1\n      swap2\n      sub\n      swap1\n      revert\n    tag_223:\n        /* \"Contracts/AKEB.sol\":5228:5235  winners */\n      0x0b\n        /* \"Contracts/AKEB.sol\":5221:5235  return winners */\n      dup1\n      sload\n      dup1\n      0x20\n      mul\n      0x20\n      add\n      mload(0x40)\n      swap1\n      dup2\n      add\n      0x40\n      mstore\n      dup1\n      swap3\n      swap2\n      swap1\n      dup2\n      dup2\n      mstore\n      0x20\n      add\n      0x00\n      swap1\n    tag_226:\n      dup3\n      dup3\n      lt\n      iszero\n      tag_227\n      jumpi\n      dup4\n      dup3\n      swap1\n      0x00\n      mstore\n      keccak256(0x00, 0x20)\n      swap1\n      0x03\n      mul\n      add\n      mload(0x40)\n      dup1\n      0x60\n      add\n      0x40\n      mstore\n      swap1\n      dup2\n      0x00\n      dup3\n      add\n      0x00\n      swap1\n      sload\n      swap1\n      0x0100\n      exp\n      swap1\n      div\n      0xffffffffffffffffffffffffffffffffffffffff\n      and\n      0xffffffffffffffffffffffffffffffffffffffff\n      and\n      0xffffffffffffffffffffffffffffffffffffffff\n      and\n      dup2\n      mstore\n      0x20\n      add\n      0x01\n      dup3\n      add\n      sload\n      dup2\n      mstore\n      0x20\n      add\n      0x02\n      dup3\n      add\n      dup1\n      sload\n      tag_229\n      swap1\n      tag_119\n      jump\t// in\n    tag_229:\n      dup1\n      0x1f\n      add\n      0x20\n      dup1\n      swap2\n      div\n      mul\n      0x20\n      add\n      mload(0x40)\n      swap1\n      dup2\n      add\n      0x40\n      mstore\n      dup1\n      swap3\n      swap2\n      swap1\n      dup2\n      dup2\n      mstore\n      0x20\n      add\n      dup3\n      dup1\n      sload\n      tag_230\n      swap1\n      tag_119\n      jump\t// in\n    tag_230:\n      dup1\n      iszero\n      tag_231\n      jumpi\n      dup1\n      0x1f\n      lt\n      tag_232\n      jumpi\n      0x0100\n      dup1\n      dup4\n      sload\n      div\n      mul\n      dup4\n      mstore\n      swap2\n      0x20\n      add\n      swap2\n      jump(tag_231)\n    tag_232:\n      dup3\n      add\n      swap2\n      swap1\n      0x00\n      mstore\n      keccak256(0x00, 0x20)\n      swap1\n    tag_233:\n      dup2\n      sload\n      dup2\n      mstore\n      swap1\n      0x01\n      add\n      swap1\n      0x20\n      add\n      dup1\n      dup4\n      gt\n      tag_233\n      jumpi\n      dup3\n      swap1\n      sub\n      0x1f\n      and\n      dup3\n      add\n      swap2\n    tag_231:\n      pop\n      pop\n      pop\n      pop\n      pop\n      dup2\n      mstore\n      pop\n      pop\n      dup2\n      mstore\n      0x20\n      add\n      swap1\n      0x01\n      add\n      swap1\n      jump(tag_226)\n    tag_227:\n      pop\n      pop\n      pop\n      pop\n      swap1\n      pop\n        /* \"Contracts/AKEB.sol\":5104:5242  function getAllWinners() ... */\n      swap1\n      jump\t// out\n        /* \"Contracts/AKEB.sol\":3901:4383  function submitEncodedBid(bytes32 inputEncodedBid) ... */\n    tag_94:\n        /* \"Contracts/AKEB.sol\":1610:1614  true */\n      0x01\n        /* \"Contracts/AKEB.sol\":1590:1614  isAuctionStarted == true */\n      iszero\n      iszero\n        /* \"Contracts/AKEB.sol\":1590:1606  isAuctionStarted */\n      0x08\n      0x00\n      swap1\n      sload\n      swap1\n      0x0100\n      exp\n      swap1\n      div\n      0xff\n      and\n        /* \"Contracts/AKEB.sol\":1590:1614  isAuctionStarted == true */\n      iszero\n      iszero\n      eq\n        /* \"Contracts/AKEB.sol\":1582:1650  require(isAuctionStarted == true, \"There is no started auction now\") */\n      tag_235\n      jumpi\n      mload(0x40)\n      0x08c379a000000000000000000000000000000000000000000000000000000000\n      dup2\n      mstore\n      0x04\n      add\n      tag_236\n      swap1\n      tag_100\n      jump\t// in\n    tag_236:\n      mload(0x40)\n      dup1\n      swap2\n      sub\n      swap1\n      revert\n    tag_235:\n        /* \"Contracts/AKEB.sol\":1952:1956  true */\n      0x01\n        /* \"Contracts/AKEB.sol\":1938:1956  isBidder() == true */\n      iszero\n      iszero\n        /* \"Contracts/AKEB.sol\":1938:1948  isBidder() */\n      tag_238\n        /* \"Contracts/AKEB.sol\":1938:1946  isBidder */\n      tag_103\n        /* \"Contracts/AKEB.sol\":1938:1948  isBidder() */\n      jump\t// in\n    tag_238:\n        /* \"Contracts/AKEB.sol\":1938:1956  isBidder() == true */\n      iszero\n      iszero\n      eq\n        /* \"Contracts/AKEB.sol\":1930:2005  require(isBidder() == true, \"Only registerd bidder can call this function\") */\n      tag_239\n      jumpi\n      mload(0x40)\n      0x08c379a000000000000000000000000000000000000000000000000000000000\n      dup2\n      mstore\n      0x04\n      add\n      tag_240\n      swap1\n      tag_106\n      jump\t// in\n    tag_240:\n      mload(0x40)\n      dup1\n      swap2\n      sub\n      swap1\n      revert\n    tag_239:\n        /* \"Contracts/AKEB.sol\":4361:4376  inputEncodedBid */\n      dup1\n        /* \"Contracts/AKEB.sol\":4335:4346  encodedBids */\n      0x0a\n        /* \"Contracts/AKEB.sol\":4335:4358  encodedBids[msg.sender] */\n      0x00\n        /* \"Contracts/AKEB.sol\":4347:4357  msg.sender */\n      caller\n        /* \"Contracts/AKEB.sol\":4335:4358  encodedBids[msg.sender] */\n      0xffffffffffffffffffffffffffffffffffffffff\n      and\n      0xffffffffffffffffffffffffffffffffffffffff\n      and\n      dup2\n      mstore\n      0x20\n      add\n      swap1\n      dup2\n      mstore\n      0x20\n      add\n      0x00\n      keccak256\n        /* \"Contracts/AKEB.sol\":4335:4376  encodedBids[msg.sender] = inputEncodedBid */\n      dup2\n      swap1\n      sstore\n      pop\n        /* \"Contracts/AKEB.sol\":3901:4383  function submitEncodedBid(bytes32 inputEncodedBid) ... */\n      pop\n      jump\t// out\n        /* \"Contracts/AKEB.sol\":3118:3409  function registerBidder() ... */\n    tag_96:\n        /* \"Contracts/AKEB.sol\":1610:1614  true */\n      0x01\n        /* \"Contracts/AKEB.sol\":1590:1614  isAuctionStarted == true */\n      iszero\n      iszero\n        /* \"Contracts/AKEB.sol\":1590:1606  isAuctionStarted */\n      0x08\n      0x00\n      swap1\n      sload\n      swap1\n      0x0100\n      exp\n      swap1\n      div\n      0xff\n      and\n        /* \"Contracts/AKEB.sol\":1590:1614  isAuctionStarted == true */\n      iszero\n      iszero\n      eq\n        /* \"Contracts/AKEB.sol\":1582:1650  require(isAuctionStarted == true, \"There is no started auction now\") */\n      tag_243\n      jumpi\n      mload(0x40)\n      0x08c379a000000000000000000000000000000000000000000000000000000000\n      dup2\n      mstore\n      0x04\n      add\n      tag_244\n      swap1\n      tag_100\n      jump\t// in\n    tag_244:\n      mload(0x40)\n      dup1\n      swap2\n      sub\n      swap1\n      revert\n    tag_243:\n        /* \"Contracts/AKEB.sol\":3219:3225  seller */\n      0x00\n      dup1\n      sload\n      swap1\n      0x0100\n      exp\n      swap1\n      div\n      0xffffffffffffffffffffffffffffffffffffffff\n      and\n        /* \"Contracts/AKEB.sol\":3205:3225  msg.sender != seller */\n      0xffffffffffffffffffffffffffffffffffffffff\n      and\n        /* \"Contracts/AKEB.sol\":3205:3215  msg.sender */\n      caller\n        /* \"Contracts/AKEB.sol\":3205:3225  msg.sender != seller */\n      0xffffffffffffffffffffffffffffffffffffffff\n      and\n      sub\n        /* \"Contracts/AKEB.sol\":3197:3264  require(msg.sender != seller , \"Seller can not register as bidder\") */\n      tag_246\n      jumpi\n      mload(0x40)\n      0x08c379a000000000000000000000000000000000000000000000000000000000\n      dup2\n      mstore\n      0x04\n      add\n      tag_247\n      swap1\n      tag_248\n      jump\t// in\n    tag_247:\n      mload(0x40)\n      dup1\n      swap2\n      sub\n      swap1\n      revert\n    tag_246:\n        /* \"Contracts/AKEB.sol\":3300:3320  registerBidderPeriod */\n      sload(0x04)\n        /* \"Contracts/AKEB.sol\":3282:3297  block.timestamp */\n      timestamp\n        /* \"Contracts/AKEB.sol\":3282:3320  block.timestamp < registerBidderPeriod */\n      lt\n        /* \"Contracts/AKEB.sol\":3274:3368  require(block.timestamp < registerBidderPeriod, \"Time for registering as a bidder is passed.\") */\n      tag_249\n      jumpi\n      mload(0x40)\n      0x08c379a000000000000000000000000000000000000000000000000000000000\n      dup2\n      mstore\n      0x04\n      add\n      tag_250\n      swap1\n      tag_251\n      jump\t// in\n    tag_250:\n      mload(0x40)\n      dup1\n      swap2\n      sub\n      swap1\n      revert\n    tag_249:\n        /* \"Contracts/AKEB.sol\":3378:3385  bidders */\n      0x09\n        /* \"Contracts/AKEB.sol\":3391:3401  msg.sender */\n      caller\n        /* \"Contracts/AKEB.sol\":3378:3402  bidders.push(msg.sender) */\n      swap1\n      dup1\n      0x01\n      dup2\n      sload\n      add\n      dup1\n      dup3\n      sstore\n      dup1\n      swap2\n      pop\n      pop\n      0x01\n      swap1\n      sub\n      swap1\n      0x00\n      mstore\n      keccak256(0x00, 0x20)\n      add\n      0x00\n      swap1\n      swap2\n      swap1\n      swap2\n      swap1\n      swap2\n      0x0100\n      exp\n      dup2\n      sload\n      dup2\n      0xffffffffffffffffffffffffffffffffffffffff\n      mul\n      not\n      and\n      swap1\n      dup4\n      0xffffffffffffffffffffffffffffffffffffffff\n      and\n      mul\n      or\n      swap1\n      sstore\n      pop\n        /* \"Contracts/AKEB.sol\":3118:3409  function registerBidder() ... */\n      jump\t// out\n        /* \"Contracts/AKEB.sol\":1665:1892  function isBidder() internal view returns(bool) {... */\n    tag_103:\n        /* \"Contracts/AKEB.sol\":1707:1711  bool */\n      0x00\n        /* \"Contracts/AKEB.sol\":1728:1737  uint256 i */\n      dup1\n        /* \"Contracts/AKEB.sol\":1740:1741  0 */\n      0x00\n        /* \"Contracts/AKEB.sol\":1728:1741  uint256 i = 0 */\n      swap1\n      pop\n        /* \"Contracts/AKEB.sol\":1723:1864  for (uint256 i = 0 ; i < bidders.length; i++){... */\n    tag_254:\n        /* \"Contracts/AKEB.sol\":1748:1755  bidders */\n      0x09\n        /* \"Contracts/AKEB.sol\":1748:1762  bidders.length */\n      dup1\n      sload\n      swap1\n      pop\n        /* \"Contracts/AKEB.sol\":1744:1745  i */\n      dup2\n        /* \"Contracts/AKEB.sol\":1744:1762  i < bidders.length */\n      lt\n        /* \"Contracts/AKEB.sol\":1723:1864  for (uint256 i = 0 ; i < bidders.length; i++){... */\n      iszero\n      tag_255\n      jumpi\n        /* \"Contracts/AKEB.sol\":1799:1806  bidders */\n      0x09\n        /* \"Contracts/AKEB.sol\":1807:1808  i */\n      dup2\n        /* \"Contracts/AKEB.sol\":1799:1809  bidders[i] */\n      dup2\n      sload\n      dup2\n      lt\n      tag_257\n      jumpi\n      tag_258\n      tag_133\n      jump\t// in\n    tag_258:\n    tag_257:\n      swap1\n      0x00\n      mstore\n      keccak256(0x00, 0x20)\n      add\n      0x00\n      swap1\n      sload\n      swap1\n      0x0100\n      exp\n      swap1\n      div\n      0xffffffffffffffffffffffffffffffffffffffff\n      and\n        /* \"Contracts/AKEB.sol\":1785:1809  msg.sender == bidders[i] */\n      0xffffffffffffffffffffffffffffffffffffffff\n      and\n        /* \"Contracts/AKEB.sol\":1785:1795  msg.sender */\n      caller\n        /* \"Contracts/AKEB.sol\":1785:1809  msg.sender == bidders[i] */\n      0xffffffffffffffffffffffffffffffffffffffff\n      and\n      sub\n        /* \"Contracts/AKEB.sol\":1782:1854  if(msg.sender == bidders[i]){... */\n      tag_260\n      jumpi\n        /* \"Contracts/AKEB.sol\":1835:1839  true */\n      0x01\n        /* \"Contracts/AKEB.sol\":1828:1839  return true */\n      swap2\n      pop\n      pop\n      jump(tag_253)\n        /* \"Contracts/AKEB.sol\":1782:1854  if(msg.sender == bidders[i]){... */\n    tag_260:\n        /* \"Contracts/AKEB.sol\":1764:1767  i++ */\n      dup1\n      dup1\n      tag_261\n      swap1\n      tag_262\n      jump\t// in\n    tag_261:\n      swap2\n      pop\n      pop\n        /* \"Contracts/AKEB.sol\":1723:1864  for (uint256 i = 0 ; i < bidders.length; i++){... */\n      jump(tag_254)\n    tag_255:\n      pop\n        /* \"Contracts/AKEB.sol\":1880:1885  false */\n      0x00\n        /* \"Contracts/AKEB.sol\":1873:1885  return false */\n      swap1\n      pop\n        /* \"Contracts/AKEB.sol\":1665:1892  function isBidder() internal view returns(bool) {... */\n    tag_253:\n      swap1\n      jump\t// out\n        /* \"Contracts/AKEB.sol\":6938:7256  function computeHash(uint256 bid, string memory nonce)... */\n    tag_150:\n        /* \"Contracts/AKEB.sol\":7030:7037  bytes32 */\n      0x00\n        /* \"Contracts/AKEB.sol\":7049:7074  string memory bidInString */\n      dup1\n        /* \"Contracts/AKEB.sol\":7077:7098  Strings.toString(bid) */\n      tag_264\n        /* \"Contracts/AKEB.sol\":7094:7097  bid */\n      dup5\n        /* \"Contracts/AKEB.sol\":7077:7093  Strings.toString */\n      tag_265\n        /* \"Contracts/AKEB.sol\":7077:7098  Strings.toString(bid) */\n      jump\t// in\n    tag_264:\n        /* \"Contracts/AKEB.sol\":7049:7098  string memory bidInString = Strings.toString(bid) */\n      swap1\n      pop\n        /* \"Contracts/AKEB.sol\":7108:7146  string memory bidAndNonceConcatenation */\n      0x00\n        /* \"Contracts/AKEB.sol\":7163:7174  bidInString */\n      dup2\n        /* \"Contracts/AKEB.sol\":7176:7181  nonce */\n      dup5\n        /* \"Contracts/AKEB.sol\":7149:7182  string.concat(bidInString, nonce) */\n      add(0x20, mload(0x40))\n      tag_266\n      swap3\n      swap2\n      swap1\n      tag_267\n      jump\t// in\n    tag_266:\n      mload(0x40)\n      0x20\n      dup2\n      dup4\n      sub\n      sub\n      dup2\n      mstore\n      swap1\n      0x40\n      mstore\n        /* \"Contracts/AKEB.sol\":7108:7182  string memory bidAndNonceConcatenation = string.concat(bidInString, nonce) */\n      swap1\n      pop\n        /* \"Contracts/AKEB.sol\":7199:7249  sha256(abi.encodePacked(bidAndNonceConcatenation)) */\n      0x02\n        /* \"Contracts/AKEB.sol\":7223:7247  bidAndNonceConcatenation */\n      dup2\n        /* \"Contracts/AKEB.sol\":7206:7248  abi.encodePacked(bidAndNonceConcatenation) */\n      add(0x20, mload(0x40))\n      tag_268\n      swap2\n      swap1\n      tag_269\n      jump\t// in\n    tag_268:\n      mload(0x40)\n      0x20\n      dup2\n      dup4\n      sub\n      sub\n      dup2\n      mstore\n      swap1\n      0x40\n      mstore\n        /* \"Contracts/AKEB.sol\":7199:7249  sha256(abi.encodePacked(bidAndNonceConcatenation)) */\n      mload(0x40)\n      tag_270\n      swap2\n      swap1\n      tag_271\n      jump\t// in\n    tag_270:\n      0x20\n      mload(0x40)\n      dup1\n      dup4\n      sub\n      dup2\n      dup6\n      gas\n      staticcall\n      iszero\n      dup1\n      iszero\n      tag_273\n      jumpi\n      returndatasize\n      0x00\n      dup1\n      returndatacopy\n      revert(0x00, returndatasize)\n    tag_273:\n      pop\n      pop\n      pop\n      mload(0x40)\n      returndatasize\n      not(0x1f)\n      0x1f\n      dup3\n      add\n      and\n      dup3\n      add\n      dup1\n      0x40\n      mstore\n      pop\n      dup2\n      add\n      swap1\n      tag_274\n      swap2\n      swap1\n      tag_275\n      jump\t// in\n    tag_274:\n        /* \"Contracts/AKEB.sol\":7192:7249  return sha256(abi.encodePacked(bidAndNonceConcatenation)) */\n      swap3\n      pop\n      pop\n      pop\n        /* \"Contracts/AKEB.sol\":6938:7256  function computeHash(uint256 bid, string memory nonce)... */\n      swap3\n      swap2\n      pop\n      pop\n      jump\t// out\n        /* \"Contracts/AKEB.sol\":6646:6932  function isDiputeBidGreaterThanOneWinnerBid(uint256 disputeBid) ... */\n    tag_155:\n        /* \"Contracts/AKEB.sol\":6746:6750  bool */\n      0x00\n        /* \"Contracts/AKEB.sol\":6765:6774  uint256 i */\n      dup1\n        /* \"Contracts/AKEB.sol\":6777:6778  0 */\n      0x00\n        /* \"Contracts/AKEB.sol\":6765:6778  uint256 i = 0 */\n      swap1\n      pop\n        /* \"Contracts/AKEB.sol\":6761:6904  for(uint256 i = 0 ; i < winners.length;i++){... */\n    tag_277:\n        /* \"Contracts/AKEB.sol\":6785:6792  winners */\n      0x0b\n        /* \"Contracts/AKEB.sol\":6785:6799  winners.length */\n      dup1\n      sload\n      swap1\n      pop\n        /* \"Contracts/AKEB.sol\":6781:6782  i */\n      dup2\n        /* \"Contracts/AKEB.sol\":6781:6799  i < winners.length */\n      lt\n        /* \"Contracts/AKEB.sol\":6761:6904  for(uint256 i = 0 ; i < winners.length;i++){... */\n      iszero\n      tag_278\n      jumpi\n        /* \"Contracts/AKEB.sol\":6834:6841  winners */\n      0x0b\n        /* \"Contracts/AKEB.sol\":6842:6843  i */\n      dup2\n        /* \"Contracts/AKEB.sol\":6834:6844  winners[i] */\n      dup2\n      sload\n      dup2\n      lt\n      tag_280\n      jumpi\n      tag_281\n      tag_133\n      jump\t// in\n    tag_281:\n    tag_280:\n      swap1\n      0x00\n      mstore\n      keccak256(0x00, 0x20)\n      swap1\n      0x03\n      mul\n      add\n        /* \"Contracts/AKEB.sol\":6834:6848  winners[i].bid */\n      0x01\n      add\n      sload\n        /* \"Contracts/AKEB.sol\":6821:6831  disputeBid */\n      dup4\n        /* \"Contracts/AKEB.sol\":6821:6848  disputeBid > winners[i].bid */\n      gt\n        /* \"Contracts/AKEB.sol\":6818:6894  if(disputeBid > winners[i].bid) {... */\n      iszero\n      tag_283\n      jumpi\n        /* \"Contracts/AKEB.sol\":6875:6879  true */\n      0x01\n        /* \"Contracts/AKEB.sol\":6868:6879  return true */\n      swap2\n      pop\n      pop\n      jump(tag_276)\n        /* \"Contracts/AKEB.sol\":6818:6894  if(disputeBid > winners[i].bid) {... */\n    tag_283:\n        /* \"Contracts/AKEB.sol\":6800:6803  i++ */\n      dup1\n      dup1\n      tag_284\n      swap1\n      tag_262\n      jump\t// in\n    tag_284:\n      swap2\n      pop\n      pop\n        /* \"Contracts/AKEB.sol\":6761:6904  for(uint256 i = 0 ; i < winners.length;i++){... */\n      jump(tag_277)\n    tag_278:\n      pop\n        /* \"Contracts/AKEB.sol\":6920:6925  false */\n      0x00\n        /* \"Contracts/AKEB.sol\":6913:6925  return false */\n      swap1\n      pop\n        /* \"Contracts/AKEB.sol\":6646:6932  function isDiputeBidGreaterThanOneWinnerBid(uint256 disputeBid) ... */\n    tag_276:\n      swap2\n      swap1\n      pop\n      jump\t// out\n        /* \"Contracts/AKEB.sol\":6403:6471  function clearWinners() ... */\n    tag_160:\n        /* \"Contracts/AKEB.sol\":6457:6464  winners */\n      0x0b\n      0x00\n        /* \"Contracts/AKEB.sol\":6450:6464  delete winners */\n      tag_286\n      swap2\n      swap1\n      tag_200\n      jump\t// in\n    tag_286:\n        /* \"Contracts/AKEB.sol\":6403:6471  function clearWinners() ... */\n      jump\t// out\n        /* \"Contracts/AKEB.sol\":6477:6640  function addWinner(uint256 bid, string memory nonce) ... */\n    tag_162:\n        /* \"Contracts/AKEB.sol\":6553:6571  winner memory temp */\n      0x00\n        /* \"Contracts/AKEB.sol\":6574:6604  winner(msg.sender, bid, nonce) */\n      mload(0x40)\n      dup1\n      0x60\n      add\n      0x40\n      mstore\n      dup1\n        /* \"Contracts/AKEB.sol\":6581:6591  msg.sender */\n      caller\n        /* \"Contracts/AKEB.sol\":6574:6604  winner(msg.sender, bid, nonce) */\n      0xffffffffffffffffffffffffffffffffffffffff\n      and\n      dup2\n      mstore\n      0x20\n      add\n        /* \"Contracts/AKEB.sol\":6593:6596  bid */\n      dup5\n        /* \"Contracts/AKEB.sol\":6574:6604  winner(msg.sender, bid, nonce) */\n      dup2\n      mstore\n      0x20\n      add\n        /* \"Contracts/AKEB.sol\":6598:6603  nonce */\n      dup4\n        /* \"Contracts/AKEB.sol\":6574:6604  winner(msg.sender, bid, nonce) */\n      dup2\n      mstore\n      pop\n        /* \"Contracts/AKEB.sol\":6553:6604  winner memory temp = winner(msg.sender, bid, nonce) */\n      swap1\n      pop\n        /* \"Contracts/AKEB.sol\":6615:6622  winners */\n      0x0b\n        /* \"Contracts/AKEB.sol\":6628:6632  temp */\n      dup2\n        /* \"Contracts/AKEB.sol\":6615:6633  winners.push(temp) */\n      swap1\n      dup1\n      0x01\n      dup2\n      sload\n      add\n      dup1\n      dup3\n      sstore\n      dup1\n      swap2\n      pop\n      pop\n      0x01\n      swap1\n      sub\n      swap1\n      0x00\n      mstore\n      keccak256(0x00, 0x20)\n      swap1\n      0x03\n      mul\n      add\n      0x00\n      swap1\n      swap2\n      swap1\n      swap2\n      swap1\n      swap2\n      pop\n      0x00\n      dup3\n      add\n      mload\n      dup2\n      0x00\n      add\n      exp(0x0100, 0x00)\n      dup2\n      sload\n      dup2\n      0xffffffffffffffffffffffffffffffffffffffff\n      mul\n      not\n      and\n      swap1\n      dup4\n      0xffffffffffffffffffffffffffffffffffffffff\n      and\n      mul\n      or\n      swap1\n      sstore\n      pop\n      0x20\n      dup3\n      add\n      mload\n      dup2\n      0x01\n      add\n      sstore\n      0x40\n      dup3\n      add\n      mload\n      dup2\n      0x02\n      add\n      swap1\n      dup2\n      tag_289\n      swap2\n      swap1\n      tag_110\n      jump\t// in\n    tag_289:\n      pop\n      pop\n      pop\n        /* \"Contracts/AKEB.sol\":6543:6640  {... */\n      pop\n        /* \"Contracts/AKEB.sol\":6477:6640  function addWinner(uint256 bid, string memory nonce) ... */\n      pop\n      pop\n      jump\t// out\n        /* \"Contracts/AKEB.sol\":2020:2449  function setUpPhasesTimePeriods() private {... */\n    tag_181:\n        /* \"Contracts/AKEB.sol\":2169:2171  60 */\n      0x3c\n        /* \"Contracts/AKEB.sol\":2156:2166  periodTime */\n      sload(0x07)\n        /* \"Contracts/AKEB.sol\":2156:2171  periodTime * 60 */\n      tag_291\n      swap2\n      swap1\n      tag_292\n      jump\t// in\n    tag_291:\n        /* \"Contracts/AKEB.sol\":2137:2152  block.timestamp */\n      timestamp\n        /* \"Contracts/AKEB.sol\":2137:2172  block.timestamp + (periodTime * 60) */\n      tag_293\n      swap2\n      swap1\n      tag_136\n      jump\t// in\n    tag_293:\n        /* \"Contracts/AKEB.sol\":2114:2134  registerBidderPeriod */\n      0x04\n        /* \"Contracts/AKEB.sol\":2114:2172  registerBidderPeriod = block.timestamp + (periodTime * 60) */\n      dup2\n      swap1\n      sstore\n      pop\n        /* \"Contracts/AKEB.sol\":2296:2298  60 */\n      0x3c\n        /* \"Contracts/AKEB.sol\":2283:2293  periodTime */\n      sload(0x07)\n        /* \"Contracts/AKEB.sol\":2279:2280  2 */\n      0x02\n        /* \"Contracts/AKEB.sol\":2279:2293  2 * periodTime */\n      tag_294\n      swap2\n      swap1\n      tag_292\n      jump\t// in\n    tag_294:\n        /* \"Contracts/AKEB.sol\":2279:2298  2 * periodTime * 60 */\n      tag_295\n      swap2\n      swap1\n      tag_292\n      jump\t// in\n    tag_295:\n        /* \"Contracts/AKEB.sol\":2260:2275  block.timestamp */\n      timestamp\n        /* \"Contracts/AKEB.sol\":2260:2299  block.timestamp + (2 * periodTime * 60) */\n      tag_296\n      swap2\n      swap1\n      tag_136\n      jump\t// in\n    tag_296:\n        /* \"Contracts/AKEB.sol\":2232:2257  hashedBidSubmissionPeriod */\n      0x05\n        /* \"Contracts/AKEB.sol\":2232:2299  hashedBidSubmissionPeriod = block.timestamp + (2 * periodTime * 60) */\n      dup2\n      swap1\n      sstore\n      pop\n        /* \"Contracts/AKEB.sol\":2439:2441  60 */\n      0x3c\n        /* \"Contracts/AKEB.sol\":2426:2436  periodTime */\n      sload(0x07)\n        /* \"Contracts/AKEB.sol\":2422:2423  3 */\n      0x03\n        /* \"Contracts/AKEB.sol\":2422:2436  3 * periodTime */\n      tag_297\n      swap2\n      swap1\n      tag_292\n      jump\t// in\n    tag_297:\n        /* \"Contracts/AKEB.sol\":2422:2441  3 * periodTime * 60 */\n      tag_298\n      swap2\n      swap1\n      tag_292\n      jump\t// in\n    tag_298:\n        /* \"Contracts/AKEB.sol\":2403:2418  block.timestamp */\n      timestamp\n        /* \"Contracts/AKEB.sol\":2403:2442  block.timestamp + (3 * periodTime * 60) */\n      tag_299\n      swap2\n      swap1\n      tag_136\n      jump\t// in\n    tag_299:\n        /* \"Contracts/AKEB.sol\":2368:2400  winnerAndDisputeSubmissionPeriod */\n      0x06\n        /* \"Contracts/AKEB.sol\":2368:2442  winnerAndDisputeSubmissionPeriod = block.timestamp + (3 * periodTime * 60) */\n      dup2\n      swap1\n      sstore\n      pop\n        /* \"Contracts/AKEB.sol\":2020:2449  function setUpPhasesTimePeriods() private {... */\n      jump\t// out\n        /* \"@openzeppelin/contracts/utils/Strings.sol\":415:1111  function toString(uint256 value) internal pure returns (string memory) {... */\n    tag_265:\n        /* \"@openzeppelin/contracts/utils/Strings.sol\":471:484  string memory */\n      0x60\n        /* \"@openzeppelin/contracts/utils/Strings.sol\":520:534  uint256 length */\n      0x00\n        /* \"@openzeppelin/contracts/utils/Strings.sol\":557:558  1 */\n      0x01\n        /* \"@openzeppelin/contracts/utils/Strings.sol\":537:554  Math.log10(value) */\n      tag_301\n        /* \"@openzeppelin/contracts/utils/Strings.sol\":548:553  value */\n      dup5\n        /* \"@openzeppelin/contracts/utils/Strings.sol\":537:547  Math.log10 */\n      tag_302\n        /* \"@openzeppelin/contracts/utils/Strings.sol\":537:554  Math.log10(value) */\n      jump\t// in\n    tag_301:\n        /* \"@openzeppelin/contracts/utils/Strings.sol\":537:558  Math.log10(value) + 1 */\n      add\n        /* \"@openzeppelin/contracts/utils/Strings.sol\":520:558  uint256 length = Math.log10(value) + 1 */\n      swap1\n      pop\n        /* \"@openzeppelin/contracts/utils/Strings.sol\":572:592  string memory buffer */\n      0x00\n        /* \"@openzeppelin/contracts/utils/Strings.sol\":606:612  length */\n      dup2\n        /* \"@openzeppelin/contracts/utils/Strings.sol\":595:613  new string(length) */\n      0xffffffffffffffff\n      dup2\n      gt\n      iszero\n      tag_303\n      jumpi\n      tag_304\n      tag_305\n      jump\t// in\n    tag_304:\n    tag_303:\n      mload(0x40)\n      swap1\n      dup1\n      dup3\n      mstore\n      dup1\n      0x1f\n      add\n      not(0x1f)\n      and\n      0x20\n      add\n      dup3\n      add\n      0x40\n      mstore\n      dup1\n      iszero\n      tag_306\n      jumpi\n      dup2\n      0x20\n      add\n      0x01\n      dup3\n      mul\n      dup1\n      calldatasize\n      dup4\n      calldatacopy\n      dup1\n      dup3\n      add\n      swap2\n      pop\n      pop\n      swap1\n      pop\n    tag_306:\n      pop\n        /* \"@openzeppelin/contracts/utils/Strings.sol\":572:613  string memory buffer = new string(length) */\n      swap1\n      pop\n        /* \"@openzeppelin/contracts/utils/Strings.sol\":627:638  uint256 ptr */\n      0x00\n        /* \"@openzeppelin/contracts/utils/Strings.sol\":753:759  length */\n      dup3\n        /* \"@openzeppelin/contracts/utils/Strings.sol\":749:751  32 */\n      0x20\n        /* \"@openzeppelin/contracts/utils/Strings.sol\":745:760  add(32, length) */\n      add\n        /* \"@openzeppelin/contracts/utils/Strings.sol\":737:743  buffer */\n      dup3\n        /* \"@openzeppelin/contracts/utils/Strings.sol\":733:761  add(buffer, add(32, length)) */\n      add\n        /* \"@openzeppelin/contracts/utils/Strings.sol\":726:761  ptr := add(buffer, add(32, length)) */\n      swap1\n      pop\n        /* \"@openzeppelin/contracts/utils/Strings.sol\":788:1068  while (true) {... */\n    tag_307:\n        /* \"@openzeppelin/contracts/utils/Strings.sol\":795:799  true */\n      0x01\n        /* \"@openzeppelin/contracts/utils/Strings.sol\":788:1068  while (true) {... */\n      iszero\n      tag_308\n      jumpi\n        /* \"@openzeppelin/contracts/utils/Strings.sol\":819:824  ptr-- */\n      dup1\n      dup1\n      0x01\n      swap1\n      sub\n      swap2\n      pop\n      pop\n        /* \"@openzeppelin/contracts/utils/Strings.sol\":958:966  _SYMBOLS */\n      0x3031323334353637383961626364656600000000000000000000000000000000\n        /* \"@openzeppelin/contracts/utils/Strings.sol\":953:955  10 */\n      0x0a\n        /* \"@openzeppelin/contracts/utils/Strings.sol\":946:951  value */\n      dup7\n        /* \"@openzeppelin/contracts/utils/Strings.sol\":942:956  mod(value, 10) */\n      mod\n        /* \"@openzeppelin/contracts/utils/Strings.sol\":937:967  byte(mod(value, 10), _SYMBOLS) */\n      byte\n        /* \"@openzeppelin/contracts/utils/Strings.sol\":932:935  ptr */\n      dup2\n        /* \"@openzeppelin/contracts/utils/Strings.sol\":924:968  mstore8(ptr, byte(mod(value, 10), _SYMBOLS)) */\n      mstore8\n        /* \"@openzeppelin/contracts/utils/Strings.sol\":1012:1014  10 */\n      0x0a\n        /* \"@openzeppelin/contracts/utils/Strings.sol\":1003:1014  value /= 10 */\n      dup6\n      dup2\n      tag_309\n      jumpi\n      tag_310\n      tag_311\n      jump\t// in\n    tag_310:\n    tag_309:\n      div\n      swap5\n      pop\n        /* \"@openzeppelin/contracts/utils/Strings.sol\":1045:1046  0 */\n      0x00\n        /* \"@openzeppelin/contracts/utils/Strings.sol\":1036:1041  value */\n      dup6\n        /* \"@openzeppelin/contracts/utils/Strings.sol\":1036:1046  value == 0 */\n      sub\n        /* \"@openzeppelin/contracts/utils/Strings.sol\":788:1068  while (true) {... */\n      tag_307\n        /* \"@openzeppelin/contracts/utils/Strings.sol\":1032:1053  if (value == 0) break */\n      jumpi\n        /* \"@openzeppelin/contracts/utils/Strings.sol\":788:1068  while (true) {... */\n    tag_308:\n        /* \"@openzeppelin/contracts/utils/Strings.sol\":1088:1094  buffer */\n      dup2\n        /* \"@openzeppelin/contracts/utils/Strings.sol\":1081:1094  return buffer */\n      swap4\n      pop\n      pop\n      pop\n      pop\n        /* \"@openzeppelin/contracts/utils/Strings.sol\":415:1111  function toString(uint256 value) internal pure returns (string memory) {... */\n      swap2\n      swap1\n      pop\n      jump\t// out\n        /* \"@openzeppelin/contracts/utils/math/Math.sol\":9889:10779  function log10(uint256 value) internal pure returns (uint256) {... */\n    tag_302:\n        /* \"@openzeppelin/contracts/utils/math/Math.sol\":9942:9949  uint256 */\n      0x00\n        /* \"@openzeppelin/contracts/utils/math/Math.sol\":9961:9975  uint256 result */\n      dup1\n        /* \"@openzeppelin/contracts/utils/math/Math.sol\":9978:9979  0 */\n      0x00\n        /* \"@openzeppelin/contracts/utils/math/Math.sol\":9961:9979  uint256 result = 0 */\n      swap1\n      pop\n        /* \"@openzeppelin/contracts/utils/math/Math.sol\":10026:10032  10**64 */\n      0x184f03e93ff9f4daa797ed6e38ed64bf6a1f010000000000000000\n        /* \"@openzeppelin/contracts/utils/math/Math.sol\":10017:10022  value */\n      dup4\n        /* \"@openzeppelin/contracts/utils/math/Math.sol\":10017:10032  value >= 10**64 */\n      lt\n        /* \"@openzeppelin/contracts/utils/math/Math.sol\":10013:10112  if (value >= 10**64) {... */\n      tag_314\n      jumpi\n        /* \"@openzeppelin/contracts/utils/math/Math.sol\":10061:10067  10**64 */\n      0x184f03e93ff9f4daa797ed6e38ed64bf6a1f010000000000000000\n        /* \"@openzeppelin/contracts/utils/math/Math.sol\":10052:10067  value /= 10**64 */\n      dup4\n      dup2\n      tag_315\n      jumpi\n      tag_316\n      tag_311\n      jump\t// in\n    tag_316:\n    tag_315:\n      div\n      swap3\n      pop\n        /* \"@openzeppelin/contracts/utils/math/Math.sol\":10095:10097  64 */\n      0x40\n        /* \"@openzeppelin/contracts/utils/math/Math.sol\":10085:10097  result += 64 */\n      dup2\n      add\n      swap1\n      pop\n        /* \"@openzeppelin/contracts/utils/math/Math.sol\":10013:10112  if (value >= 10**64) {... */\n    tag_314:\n        /* \"@openzeppelin/contracts/utils/math/Math.sol\":10138:10144  10**32 */\n      0x04ee2d6d415b85acef8100000000\n        /* \"@openzeppelin/contracts/utils/math/Math.sol\":10129:10134  value */\n      dup4\n        /* \"@openzeppelin/contracts/utils/math/Math.sol\":10129:10144  value >= 10**32 */\n      lt\n        /* \"@openzeppelin/contracts/utils/math/Math.sol\":10125:10224  if (value >= 10**32) {... */\n      tag_317\n      jumpi\n        /* \"@openzeppelin/contracts/utils/math/Math.sol\":10173:10179  10**32 */\n      0x04ee2d6d415b85acef8100000000\n        /* \"@openzeppelin/contracts/utils/math/Math.sol\":10164:10179  value /= 10**32 */\n      dup4\n      dup2\n      tag_318\n      jumpi\n      tag_319\n      tag_311\n      jump\t// in\n    tag_319:\n    tag_318:\n      div\n      swap3\n      pop\n        /* \"@openzeppelin/contracts/utils/math/Math.sol\":10207:10209  32 */\n      0x20\n        /* \"@openzeppelin/contracts/utils/math/Math.sol\":10197:10209  result += 32 */\n      dup2\n      add\n      swap1\n      pop\n        /* \"@openzeppelin/contracts/utils/math/Math.sol\":10125:10224  if (value >= 10**32) {... */\n    tag_317:\n        /* \"@openzeppelin/contracts/utils/math/Math.sol\":10250:10256  10**16 */\n      0x2386f26fc10000\n        /* \"@openzeppelin/contracts/utils/math/Math.sol\":10241:10246  value */\n      dup4\n        /* \"@openzeppelin/contracts/utils/math/Math.sol\":10241:10256  value >= 10**16 */\n      lt\n        /* \"@openzeppelin/contracts/utils/math/Math.sol\":10237:10336  if (value >= 10**16) {... */\n      tag_320\n      jumpi\n        /* \"@openzeppelin/contracts/utils/math/Math.sol\":10285:10291  10**16 */\n      0x2386f26fc10000\n        /* \"@openzeppelin/contracts/utils/math/Math.sol\":10276:10291  value /= 10**16 */\n      dup4\n      dup2\n      tag_321\n      jumpi\n      tag_322\n      tag_311\n      jump\t// in\n    tag_322:\n    tag_321:\n      div\n      swap3\n      pop\n        /* \"@openzeppelin/contracts/utils/math/Math.sol\":10319:10321  16 */\n      0x10\n        /* \"@openzeppelin/contracts/utils/math/Math.sol\":10309:10321  result += 16 */\n      dup2\n      add\n      swap1\n      pop\n        /* \"@openzeppelin/contracts/utils/math/Math.sol\":10237:10336  if (value >= 10**16) {... */\n    tag_320:\n        /* \"@openzeppelin/contracts/utils/math/Math.sol\":10362:10367  10**8 */\n      0x05f5e100\n        /* \"@openzeppelin/contracts/utils/math/Math.sol\":10353:10358  value */\n      dup4\n        /* \"@openzeppelin/contracts/utils/math/Math.sol\":10353:10367  value >= 10**8 */\n      lt\n        /* \"@openzeppelin/contracts/utils/math/Math.sol\":10349:10445  if (value >= 10**8) {... */\n      tag_323\n      jumpi\n        /* \"@openzeppelin/contracts/utils/math/Math.sol\":10396:10401  10**8 */\n      0x05f5e100\n        /* \"@openzeppelin/contracts/utils/math/Math.sol\":10387:10401  value /= 10**8 */\n      dup4\n      dup2\n      tag_324\n      jumpi\n      tag_325\n      tag_311\n      jump\t// in\n    tag_325:\n    tag_324:\n      div\n      swap3\n      pop\n        /* \"@openzeppelin/contracts/utils/math/Math.sol\":10429:10430  8 */\n      0x08\n        /* \"@openzeppelin/contracts/utils/math/Math.sol\":10419:10430  result += 8 */\n      dup2\n      add\n      swap1\n      pop\n        /* \"@openzeppelin/contracts/utils/math/Math.sol\":10349:10445  if (value >= 10**8) {... */\n    tag_323:\n        /* \"@openzeppelin/contracts/utils/math/Math.sol\":10471:10476  10**4 */\n      0x2710\n        /* \"@openzeppelin/contracts/utils/math/Math.sol\":10462:10467  value */\n      dup4\n        /* \"@openzeppelin/contracts/utils/math/Math.sol\":10462:10476  value >= 10**4 */\n      lt\n        /* \"@openzeppelin/contracts/utils/math/Math.sol\":10458:10554  if (value >= 10**4) {... */\n      tag_326\n      jumpi\n        /* \"@openzeppelin/contracts/utils/math/Math.sol\":10505:10510  10**4 */\n      0x2710\n        /* \"@openzeppelin/contracts/utils/math/Math.sol\":10496:10510  value /= 10**4 */\n      dup4\n      dup2\n      tag_327\n      jumpi\n      tag_328\n      tag_311\n      jump\t// in\n    tag_328:\n    tag_327:\n      div\n      swap3\n      pop\n        /* \"@openzeppelin/contracts/utils/math/Math.sol\":10538:10539  4 */\n      0x04\n        /* \"@openzeppelin/contracts/utils/math/Math.sol\":10528:10539  result += 4 */\n      dup2\n      add\n      swap1\n      pop\n        /* \"@openzeppelin/contracts/utils/math/Math.sol\":10458:10554  if (value >= 10**4) {... */\n    tag_326:\n        /* \"@openzeppelin/contracts/utils/math/Math.sol\":10580:10585  10**2 */\n      0x64\n        /* \"@openzeppelin/contracts/utils/math/Math.sol\":10571:10576  value */\n      dup4\n        /* \"@openzeppelin/contracts/utils/math/Math.sol\":10571:10585  value >= 10**2 */\n      lt\n        /* \"@openzeppelin/contracts/utils/math/Math.sol\":10567:10663  if (value >= 10**2) {... */\n      tag_329\n      jumpi\n        /* \"@openzeppelin/contracts/utils/math/Math.sol\":10614:10619  10**2 */\n      0x64\n        /* \"@openzeppelin/contracts/utils/math/Math.sol\":10605:10619  value /= 10**2 */\n      dup4\n      dup2\n      tag_330\n      jumpi\n      tag_331\n      tag_311\n      jump\t// in\n    tag_331:\n    tag_330:\n      div\n      swap3\n      pop\n        /* \"@openzeppelin/contracts/utils/math/Math.sol\":10647:10648  2 */\n      0x02\n        /* \"@openzeppelin/contracts/utils/math/Math.sol\":10637:10648  result += 2 */\n      dup2\n      add\n      swap1\n      pop\n        /* \"@openzeppelin/contracts/utils/math/Math.sol\":10567:10663  if (value >= 10**2) {... */\n    tag_329:\n        /* \"@openzeppelin/contracts/utils/math/Math.sol\":10689:10694  10**1 */\n      0x0a\n        /* \"@openzeppelin/contracts/utils/math/Math.sol\":10680:10685  value */\n      dup4\n        /* \"@openzeppelin/contracts/utils/math/Math.sol\":10680:10694  value >= 10**1 */\n      lt\n        /* \"@openzeppelin/contracts/utils/math/Math.sol\":10676:10740  if (value >= 10**1) {... */\n      tag_332\n      jumpi\n        /* \"@openzeppelin/contracts/utils/math/Math.sol\":10724:10725  1 */\n      0x01\n        /* \"@openzeppelin/contracts/utils/math/Math.sol\":10714:10725  result += 1 */\n      dup2\n      add\n      swap1\n      pop\n        /* \"@openzeppelin/contracts/utils/math/Math.sol\":10676:10740  if (value >= 10**1) {... */\n    tag_332:\n        /* \"@openzeppelin/contracts/utils/math/Math.sol\":10766:10772  result */\n      dup1\n        /* \"@openzeppelin/contracts/utils/math/Math.sol\":10759:10772  return result */\n      swap2\n      pop\n      pop\n        /* \"@openzeppelin/contracts/utils/math/Math.sol\":9889:10779  function log10(uint256 value) internal pure returns (uint256) {... */\n      swap2\n      swap1\n      pop\n      jump\t// out\n    tag_200:\n      pop\n      dup1\n      sload\n      0x00\n      dup3\n      sstore\n      0x03\n      mul\n      swap1\n      0x00\n      mstore\n      keccak256(0x00, 0x20)\n      swap1\n      dup2\n      add\n      swap1\n      tag_334\n      swap2\n      swap1\n      tag_335\n      jump\t// in\n    tag_334:\n      pop\n      jump\t// out\n    tag_205:\n      pop\n      dup1\n      sload\n      0x00\n      dup3\n      sstore\n      swap1\n      0x00\n      mstore\n      keccak256(0x00, 0x20)\n      swap1\n      dup2\n      add\n      swap1\n      tag_337\n      swap2\n      swap1\n      tag_338\n      jump\t// in\n    tag_337:\n      pop\n      jump\t// out\n    tag_207:\n      pop\n      dup1\n      sload\n      0x00\n      dup3\n      sstore\n      0x03\n      mul\n      swap1\n      0x00\n      mstore\n      keccak256(0x00, 0x20)\n      swap1\n      dup2\n      add\n      swap1\n      tag_340\n      swap2\n      swap1\n      tag_341\n      jump\t// in\n    tag_340:\n      pop\n      jump\t// out\n    tag_335:\n    tag_342:\n      dup1\n      dup3\n      gt\n      iszero\n      tag_343\n      jumpi\n      0x00\n      dup1\n      dup3\n      add\n      exp(0x0100, 0x00)\n      dup2\n      sload\n      swap1\n      0xffffffffffffffffffffffffffffffffffffffff\n      mul\n      not\n      and\n      swap1\n      sstore\n      0x01\n      dup3\n      add\n      0x00\n      swap1\n      sstore\n      0x02\n      dup3\n      add\n      0x00\n      tag_344\n      swap2\n      swap1\n      tag_345\n      jump\t// in\n    tag_344:\n      pop\n      0x03\n      add\n      jump(tag_342)\n    tag_343:\n      pop\n      swap1\n      jump\t// out\n    tag_338:\n    tag_346:\n      dup1\n      dup3\n      gt\n      iszero\n      tag_347\n      jumpi\n      0x00\n      dup2\n      0x00\n      swap1\n      sstore\n      pop\n      0x01\n      add\n      jump(tag_346)\n    tag_347:\n      pop\n      swap1\n      jump\t// out\n    tag_341:\n    tag_348:\n      dup1\n      dup3\n      gt\n      iszero\n      tag_349\n      jumpi\n      0x00\n      dup1\n      dup3\n      add\n      0x00\n      swap1\n      sstore\n      0x01\n      dup3\n      add\n      exp(0x0100, 0x00)\n      dup2\n      sload\n      swap1\n      0xffffffffffffffffffffffffffffffffffffffff\n      mul\n      not\n      and\n      swap1\n      sstore\n      0x02\n      dup3\n      add\n      0x00\n      tag_350\n      swap2\n      swap1\n      tag_345\n      jump\t// in\n    tag_350:\n      pop\n      0x03\n      add\n      jump(tag_348)\n    tag_349:\n      pop\n      swap1\n      jump\t// out\n    tag_345:\n      pop\n      dup1\n      sload\n      tag_351\n      swap1\n      tag_119\n      jump\t// in\n    tag_351:\n      0x00\n      dup3\n      sstore\n      dup1\n      0x1f\n      lt\n      tag_353\n      jumpi\n      pop\n      jump(tag_352)\n    tag_353:\n      0x1f\n      add\n      0x20\n      swap1\n      div\n      swap1\n      0x00\n      mstore\n      keccak256(0x00, 0x20)\n      swap1\n      dup2\n      add\n      swap1\n      tag_354\n      swap2\n      swap1\n      tag_338\n      jump\t// in\n    tag_354:\n    tag_352:\n      pop\n      jump\t// out\n        /* \"#utility.yul\":7:133   */\n    tag_355:\n        /* \"#utility.yul\":44:51   */\n      0x00\n        /* \"#utility.yul\":84:126   */\n      0xffffffffffffffffffffffffffffffffffffffff\n        /* \"#utility.yul\":77:82   */\n      dup3\n        /* \"#utility.yul\":73:127   */\n      and\n        /* \"#utility.yul\":62:127   */\n      swap1\n      pop\n        /* \"#utility.yul\":7:133   */\n      swap2\n      swap1\n      pop\n      jump\t// out\n        /* \"#utility.yul\":139:235   */\n    tag_356:\n        /* \"#utility.yul\":176:183   */\n      0x00\n        /* \"#utility.yul\":205:229   */\n      tag_442\n        /* \"#utility.yul\":223:228   */\n      dup3\n        /* \"#utility.yul\":205:229   */\n      tag_355\n      jump\t// in\n    tag_442:\n        /* \"#utility.yul\":194:229   */\n      swap1\n      pop\n        /* \"#utility.yul\":139:235   */\n      swap2\n      swap1\n      pop\n      jump\t// out\n        /* \"#utility.yul\":241:359   */\n    tag_357:\n        /* \"#utility.yul\":328:352   */\n      tag_444\n        /* \"#utility.yul\":346:351   */\n      dup2\n        /* \"#utility.yul\":328:352   */\n      tag_356\n      jump\t// in\n    tag_444:\n        /* \"#utility.yul\":323:326   */\n      dup3\n        /* \"#utility.yul\":316:353   */\n      mstore\n        /* \"#utility.yul\":241:359   */\n      pop\n      pop\n      jump\t// out\n        /* \"#utility.yul\":365:587   */\n    tag_28:\n        /* \"#utility.yul\":458:462   */\n      0x00\n        /* \"#utility.yul\":496:498   */\n      0x20\n        /* \"#utility.yul\":485:494   */\n      dup3\n        /* \"#utility.yul\":481:499   */\n      add\n        /* \"#utility.yul\":473:499   */\n      swap1\n      pop\n        /* \"#utility.yul\":509:580   */\n      tag_446\n        /* \"#utility.yul\":577:578   */\n      0x00\n        /* \"#utility.yul\":566:575   */\n      dup4\n        /* \"#utility.yul\":562:579   */\n      add\n        /* \"#utility.yul\":553:559   */\n      dup5\n        /* \"#utility.yul\":509:580   */\n      tag_357\n      jump\t// in\n    tag_446:\n        /* \"#utility.yul\":365:587   */\n      swap3\n      swap2\n      pop\n      pop\n      jump\t// out\n        /* \"#utility.yul\":593:668   */\n    tag_358:\n        /* \"#utility.yul\":626:632   */\n      0x00\n        /* \"#utility.yul\":659:661   */\n      0x40\n        /* \"#utility.yul\":653:662   */\n      mload\n        /* \"#utility.yul\":643:662   */\n      swap1\n      pop\n        /* \"#utility.yul\":593:668   */\n      swap1\n      jump\t// out\n        /* \"#utility.yul\":674:791   */\n    tag_359:\n        /* \"#utility.yul\":783:784   */\n      0x00\n        /* \"#utility.yul\":780:781   */\n      dup1\n        /* \"#utility.yul\":773:785   */\n      revert\n        /* \"#utility.yul\":797:914   */\n    tag_360:\n        /* \"#utility.yul\":906:907   */\n      0x00\n        /* \"#utility.yul\":903:904   */\n      dup1\n        /* \"#utility.yul\":896:908   */\n      revert\n        /* \"#utility.yul\":920:997   */\n    tag_361:\n        /* \"#utility.yul\":957:964   */\n      0x00\n        /* \"#utility.yul\":986:991   */\n      dup2\n        /* \"#utility.yul\":975:991   */\n      swap1\n      pop\n        /* \"#utility.yul\":920:997   */\n      swap2\n      swap1\n      pop\n      jump\t// out\n        /* \"#utility.yul\":1003:1125   */\n    tag_362:\n        /* \"#utility.yul\":1076:1100   */\n      tag_452\n        /* \"#utility.yul\":1094:1099   */\n      dup2\n        /* \"#utility.yul\":1076:1100   */\n      tag_361\n      jump\t// in\n    tag_452:\n        /* \"#utility.yul\":1069:1074   */\n      dup2\n        /* \"#utility.yul\":1066:1101   */\n      eq\n        /* \"#utility.yul\":1056:1119   */\n      tag_453\n      jumpi\n        /* \"#utility.yul\":1115:1116   */\n      0x00\n        /* \"#utility.yul\":1112:1113   */\n      dup1\n        /* \"#utility.yul\":1105:1117   */\n      revert\n        /* \"#utility.yul\":1056:1119   */\n    tag_453:\n        /* \"#utility.yul\":1003:1125   */\n      pop\n      jump\t// out\n        /* \"#utility.yul\":1131:1270   */\n    tag_363:\n        /* \"#utility.yul\":1177:1182   */\n      0x00\n        /* \"#utility.yul\":1215:1221   */\n      dup2\n        /* \"#utility.yul\":1202:1222   */\n      calldataload\n        /* \"#utility.yul\":1193:1222   */\n      swap1\n      pop\n        /* \"#utility.yul\":1231:1264   */\n      tag_455\n        /* \"#utility.yul\":1258:1263   */\n      dup2\n        /* \"#utility.yul\":1231:1264   */\n      tag_362\n      jump\t// in\n    tag_455:\n        /* \"#utility.yul\":1131:1270   */\n      swap3\n      swap2\n      pop\n      pop\n      jump\t// out\n        /* \"#utility.yul\":1276:1393   */\n    tag_364:\n        /* \"#utility.yul\":1385:1386   */\n      0x00\n        /* \"#utility.yul\":1382:1383   */\n      dup1\n        /* \"#utility.yul\":1375:1387   */\n      revert\n        /* \"#utility.yul\":1399:1516   */\n    tag_365:\n        /* \"#utility.yul\":1508:1509   */\n      0x00\n        /* \"#utility.yul\":1505:1506   */\n      dup1\n        /* \"#utility.yul\":1498:1510   */\n      revert\n        /* \"#utility.yul\":1522:1624   */\n    tag_366:\n        /* \"#utility.yul\":1563:1569   */\n      0x00\n        /* \"#utility.yul\":1614:1616   */\n      0x1f\n        /* \"#utility.yul\":1610:1617   */\n      not\n        /* \"#utility.yul\":1605:1607   */\n      0x1f\n        /* \"#utility.yul\":1598:1603   */\n      dup4\n        /* \"#utility.yul\":1594:1608   */\n      add\n        /* \"#utility.yul\":1590:1618   */\n      and\n        /* \"#utility.yul\":1580:1618   */\n      swap1\n      pop\n        /* \"#utility.yul\":1522:1624   */\n      swap2\n      swap1\n      pop\n      jump\t// out\n        /* \"#utility.yul\":1630:1810   */\n    tag_305:\n        /* \"#utility.yul\":1678:1755   */\n      0x4e487b7100000000000000000000000000000000000000000000000000000000\n        /* \"#utility.yul\":1675:1676   */\n      0x00\n        /* \"#utility.yul\":1668:1756   */\n      mstore\n        /* \"#utility.yul\":1775:1779   */\n      0x41\n        /* \"#utility.yul\":1772:1773   */\n      0x04\n        /* \"#utility.yul\":1765:1780   */\n      mstore\n        /* \"#utility.yul\":1799:1803   */\n      0x24\n        /* \"#utility.yul\":1796:1797   */\n      0x00\n        /* \"#utility.yul\":1789:1804   */\n      revert\n        /* \"#utility.yul\":1816:2097   */\n    tag_367:\n        /* \"#utility.yul\":1899:1926   */\n      tag_461\n        /* \"#utility.yul\":1921:1925   */\n      dup3\n        /* \"#utility.yul\":1899:1926   */\n      tag_366\n      jump\t// in\n    tag_461:\n        /* \"#utility.yul\":1891:1897   */\n      dup2\n        /* \"#utility.yul\":1887:1927   */\n      add\n        /* \"#utility.yul\":2029:2035   */\n      dup2\n        /* \"#utility.yul\":2017:2027   */\n      dup2\n        /* \"#utility.yul\":2014:2036   */\n      lt\n        /* \"#utility.yul\":1993:2011   */\n      0xffffffffffffffff\n        /* \"#utility.yul\":1981:1991   */\n      dup3\n        /* \"#utility.yul\":1978:2012   */\n      gt\n        /* \"#utility.yul\":1975:2037   */\n      or\n        /* \"#utility.yul\":1972:2060   */\n      iszero\n      tag_462\n      jumpi\n        /* \"#utility.yul\":2040:2058   */\n      tag_463\n      tag_305\n      jump\t// in\n    tag_463:\n        /* \"#utility.yul\":1972:2060   */\n    tag_462:\n        /* \"#utility.yul\":2080:2090   */\n      dup1\n        /* \"#utility.yul\":2076:2078   */\n      0x40\n        /* \"#utility.yul\":2069:2091   */\n      mstore\n        /* \"#utility.yul\":1859:2097   */\n      pop\n        /* \"#utility.yul\":1816:2097   */\n      pop\n      pop\n      jump\t// out\n        /* \"#utility.yul\":2103:2232   */\n    tag_368:\n        /* \"#utility.yul\":2137:2143   */\n      0x00\n        /* \"#utility.yul\":2164:2184   */\n      tag_465\n      tag_358\n      jump\t// in\n    tag_465:\n        /* \"#utility.yul\":2154:2184   */\n      swap1\n      pop\n        /* \"#utility.yul\":2193:2226   */\n      tag_466\n        /* \"#utility.yul\":2221:2225   */\n      dup3\n        /* \"#utility.yul\":2213:2219   */\n      dup3\n        /* \"#utility.yul\":2193:2226   */\n      tag_367\n      jump\t// in\n    tag_466:\n        /* \"#utility.yul\":2103:2232   */\n      swap2\n      swap1\n      pop\n      jump\t// out\n        /* \"#utility.yul\":2238:2546   */\n    tag_369:\n        /* \"#utility.yul\":2300:2304   */\n      0x00\n        /* \"#utility.yul\":2390:2408   */\n      0xffffffffffffffff\n        /* \"#utility.yul\":2382:2388   */\n      dup3\n        /* \"#utility.yul\":2379:2409   */\n      gt\n        /* \"#utility.yul\":2376:2432   */\n      iszero\n      tag_468\n      jumpi\n        /* \"#utility.yul\":2412:2430   */\n      tag_469\n      tag_305\n      jump\t// in\n    tag_469:\n        /* \"#utility.yul\":2376:2432   */\n    tag_468:\n        /* \"#utility.yul\":2450:2479   */\n      tag_470\n        /* \"#utility.yul\":2472:2478   */\n      dup3\n        /* \"#utility.yul\":2450:2479   */\n      tag_366\n      jump\t// in\n    tag_470:\n        /* \"#utility.yul\":2442:2479   */\n      swap1\n      pop\n        /* \"#utility.yul\":2534:2538   */\n      0x20\n        /* \"#utility.yul\":2528:2532   */\n      dup2\n        /* \"#utility.yul\":2524:2539   */\n      add\n        /* \"#utility.yul\":2516:2539   */\n      swap1\n      pop\n        /* \"#utility.yul\":2238:2546   */\n      swap2\n      swap1\n      pop\n      jump\t// out\n        /* \"#utility.yul\":2552:2698   */\n    tag_370:\n        /* \"#utility.yul\":2649:2655   */\n      dup3\n        /* \"#utility.yul\":2644:2647   */\n      dup2\n        /* \"#utility.yul\":2639:2642   */\n      dup4\n        /* \"#utility.yul\":2626:2656   */\n      calldatacopy\n        /* \"#utility.yul\":2690:2691   */\n      0x00\n        /* \"#utility.yul\":2681:2687   */\n      dup4\n        /* \"#utility.yul\":2676:2679   */\n      dup4\n        /* \"#utility.yul\":2672:2688   */\n      add\n        /* \"#utility.yul\":2665:2692   */\n      mstore\n        /* \"#utility.yul\":2552:2698   */\n      pop\n      pop\n      pop\n      jump\t// out\n        /* \"#utility.yul\":2704:3129   */\n    tag_371:\n        /* \"#utility.yul\":2782:2787   */\n      0x00\n        /* \"#utility.yul\":2807:2873   */\n      tag_473\n        /* \"#utility.yul\":2823:2872   */\n      tag_474\n        /* \"#utility.yul\":2865:2871   */\n      dup5\n        /* \"#utility.yul\":2823:2872   */\n      tag_369\n      jump\t// in\n    tag_474:\n        /* \"#utility.yul\":2807:2873   */\n      tag_368\n      jump\t// in\n    tag_473:\n        /* \"#utility.yul\":2798:2873   */\n      swap1\n      pop\n        /* \"#utility.yul\":2896:2902   */\n      dup3\n        /* \"#utility.yul\":2889:2894   */\n      dup2\n        /* \"#utility.yul\":2882:2903   */\n      mstore\n        /* \"#utility.yul\":2934:2938   */\n      0x20\n        /* \"#utility.yul\":2927:2932   */\n      dup2\n        /* \"#utility.yul\":2923:2939   */\n      add\n        /* \"#utility.yul\":2972:2975   */\n      dup5\n        /* \"#utility.yul\":2963:2969   */\n      dup5\n        /* \"#utility.yul\":2958:2961   */\n      dup5\n        /* \"#utility.yul\":2954:2970   */\n      add\n        /* \"#utility.yul\":2951:2976   */\n      gt\n        /* \"#utility.yul\":2948:3060   */\n      iszero\n      tag_475\n      jumpi\n        /* \"#utility.yul\":2979:3058   */\n      tag_476\n      tag_365\n      jump\t// in\n    tag_476:\n        /* \"#utility.yul\":2948:3060   */\n    tag_475:\n        /* \"#utility.yul\":3069:3123   */\n      tag_477\n        /* \"#utility.yul\":3116:3122   */\n      dup5\n        /* \"#utility.yul\":3111:3114   */\n      dup3\n        /* \"#utility.yul\":3106:3109   */\n      dup6\n        /* \"#utility.yul\":3069:3123   */\n      tag_370\n      jump\t// in\n    tag_477:\n        /* \"#utility.yul\":2788:3129   */\n      pop\n        /* \"#utility.yul\":2704:3129   */\n      swap4\n      swap3\n      pop\n      pop\n      pop\n      jump\t// out\n        /* \"#utility.yul\":3149:3489   */\n    tag_372:\n        /* \"#utility.yul\":3205:3210   */\n      0x00\n        /* \"#utility.yul\":3254:3257   */\n      dup3\n        /* \"#utility.yul\":3247:3251   */\n      0x1f\n        /* \"#utility.yul\":3239:3245   */\n      dup4\n        /* \"#utility.yul\":3235:3252   */\n      add\n        /* \"#utility.yul\":3231:3258   */\n      slt\n        /* \"#utility.yul\":3221:3343   */\n      tag_479\n      jumpi\n        /* \"#utility.yul\":3262:3341   */\n      tag_480\n      tag_364\n      jump\t// in\n    tag_480:\n        /* \"#utility.yul\":3221:3343   */\n    tag_479:\n        /* \"#utility.yul\":3379:3385   */\n      dup2\n        /* \"#utility.yul\":3366:3386   */\n      calldataload\n        /* \"#utility.yul\":3404:3483   */\n      tag_481\n        /* \"#utility.yul\":3479:3482   */\n      dup5\n        /* \"#utility.yul\":3471:3477   */\n      dup3\n        /* \"#utility.yul\":3464:3468   */\n      0x20\n        /* \"#utility.yul\":3456:3462   */\n      dup7\n        /* \"#utility.yul\":3452:3469   */\n      add\n        /* \"#utility.yul\":3404:3483   */\n      tag_371\n      jump\t// in\n    tag_481:\n        /* \"#utility.yul\":3395:3483   */\n      swap2\n      pop\n        /* \"#utility.yul\":3211:3489   */\n      pop\n        /* \"#utility.yul\":3149:3489   */\n      swap3\n      swap2\n      pop\n      pop\n      jump\t// out\n        /* \"#utility.yul\":3495:4149   */\n    tag_31:\n        /* \"#utility.yul\":3573:3579   */\n      0x00\n        /* \"#utility.yul\":3581:3587   */\n      dup1\n        /* \"#utility.yul\":3630:3632   */\n      0x40\n        /* \"#utility.yul\":3618:3627   */\n      dup4\n        /* \"#utility.yul\":3609:3616   */\n      dup6\n        /* \"#utility.yul\":3605:3628   */\n      sub\n        /* \"#utility.yul\":3601:3633   */\n      slt\n        /* \"#utility.yul\":3598:3717   */\n      iszero\n      tag_483\n      jumpi\n        /* \"#utility.yul\":3636:3715   */\n      tag_484\n      tag_359\n      jump\t// in\n    tag_484:\n        /* \"#utility.yul\":3598:3717   */\n    tag_483:\n        /* \"#utility.yul\":3756:3757   */\n      0x00\n        /* \"#utility.yul\":3781:3834   */\n      tag_485\n        /* \"#utility.yul\":3826:3833   */\n      dup6\n        /* \"#utility.yul\":3817:3823   */\n      dup3\n        /* \"#utility.yul\":3806:3815   */\n      dup7\n        /* \"#utility.yul\":3802:3824   */\n      add\n        /* \"#utility.yul\":3781:3834   */\n      tag_363\n      jump\t// in\n    tag_485:\n        /* \"#utility.yul\":3771:3834   */\n      swap3\n      pop\n        /* \"#utility.yul\":3727:3844   */\n      pop\n        /* \"#utility.yul\":3911:3913   */\n      0x20\n        /* \"#utility.yul\":3900:3909   */\n      dup4\n        /* \"#utility.yul\":3896:3914   */\n      add\n        /* \"#utility.yul\":3883:3915   */\n      calldataload\n        /* \"#utility.yul\":3942:3960   */\n      0xffffffffffffffff\n        /* \"#utility.yul\":3934:3940   */\n      dup2\n        /* \"#utility.yul\":3931:3961   */\n      gt\n        /* \"#utility.yul\":3928:4045   */\n      iszero\n      tag_486\n      jumpi\n        /* \"#utility.yul\":3964:4043   */\n      tag_487\n      tag_360\n      jump\t// in\n    tag_487:\n        /* \"#utility.yul\":3928:4045   */\n    tag_486:\n        /* \"#utility.yul\":4069:4132   */\n      tag_488\n        /* \"#utility.yul\":4124:4131   */\n      dup6\n        /* \"#utility.yul\":4115:4121   */\n      dup3\n        /* \"#utility.yul\":4104:4113   */\n      dup7\n        /* \"#utility.yul\":4100:4122   */\n      add\n        /* \"#utility.yul\":4069:4132   */\n      tag_372\n      jump\t// in\n    tag_488:\n        /* \"#utility.yul\":4059:4132   */\n      swap2\n      pop\n        /* \"#utility.yul\":3854:4142   */\n      pop\n        /* \"#utility.yul\":3495:4149   */\n      swap3\n      pop\n      swap3\n      swap1\n      pop\n      jump\t// out\n        /* \"#utility.yul\":4155:4302   */\n    tag_373:\n        /* \"#utility.yul\":4255:4261   */\n      0x00\n        /* \"#utility.yul\":4289:4294   */\n      dup2\n        /* \"#utility.yul\":4283:4295   */\n      mload\n        /* \"#utility.yul\":4273:4295   */\n      swap1\n      pop\n        /* \"#utility.yul\":4155:4302   */\n      swap2\n      swap1\n      pop\n      jump\t// out\n        /* \"#utility.yul\":4308:4525   */\n    tag_374:\n        /* \"#utility.yul\":4440:4451   */\n      0x00\n        /* \"#utility.yul\":4474:4480   */\n      dup3\n        /* \"#utility.yul\":4469:4472   */\n      dup3\n        /* \"#utility.yul\":4462:4481   */\n      mstore\n        /* \"#utility.yul\":4514:4518   */\n      0x20\n        /* \"#utility.yul\":4509:4512   */\n      dup3\n        /* \"#utility.yul\":4505:4519   */\n      add\n        /* \"#utility.yul\":4490:4519   */\n      swap1\n      pop\n        /* \"#utility.yul\":4308:4525   */\n      swap3\n      swap2\n      pop\n      pop\n      jump\t// out\n        /* \"#utility.yul\":4531:4696   */\n    tag_375:\n        /* \"#utility.yul\":4631:4635   */\n      0x00\n        /* \"#utility.yul\":4654:4657   */\n      dup2\n        /* \"#utility.yul\":4646:4657   */\n      swap1\n      pop\n        /* \"#utility.yul\":4684:4688   */\n      0x20\n        /* \"#utility.yul\":4679:4682   */\n      dup3\n        /* \"#utility.yul\":4675:4689   */\n      add\n        /* \"#utility.yul\":4667:4689   */\n      swap1\n      pop\n        /* \"#utility.yul\":4531:4696   */\n      swap2\n      swap1\n      pop\n      jump\t// out\n        /* \"#utility.yul\":4702:4810   */\n    tag_376:\n        /* \"#utility.yul\":4779:4803   */\n      tag_493\n        /* \"#utility.yul\":4797:4802   */\n      dup2\n        /* \"#utility.yul\":4779:4803   */\n      tag_361\n      jump\t// in\n    tag_493:\n        /* \"#utility.yul\":4774:4777   */\n      dup3\n        /* \"#utility.yul\":4767:4804   */\n      mstore\n        /* \"#utility.yul\":4702:4810   */\n      pop\n      pop\n      jump\t// out\n        /* \"#utility.yul\":4816:4924   */\n    tag_377:\n        /* \"#utility.yul\":4893:4917   */\n      tag_495\n        /* \"#utility.yul\":4911:4916   */\n      dup2\n        /* \"#utility.yul\":4893:4917   */\n      tag_356\n      jump\t// in\n    tag_495:\n        /* \"#utility.yul\":4888:4891   */\n      dup3\n        /* \"#utility.yul\":4881:4918   */\n      mstore\n        /* \"#utility.yul\":4816:4924   */\n      pop\n      pop\n      jump\t// out\n        /* \"#utility.yul\":4930:5029   */\n    tag_378:\n        /* \"#utility.yul\":4982:4988   */\n      0x00\n        /* \"#utility.yul\":5016:5021   */\n      dup2\n        /* \"#utility.yul\":5010:5022   */\n      mload\n        /* \"#utility.yul\":5000:5022   */\n      swap1\n      pop\n        /* \"#utility.yul\":4930:5029   */\n      swap2\n      swap1\n      pop\n      jump\t// out\n        /* \"#utility.yul\":5035:5194   */\n    tag_379:\n        /* \"#utility.yul\":5109:5120   */\n      0x00\n        /* \"#utility.yul\":5143:5149   */\n      dup3\n        /* \"#utility.yul\":5138:5141   */\n      dup3\n        /* \"#utility.yul\":5131:5150   */\n      mstore\n        /* \"#utility.yul\":5183:5187   */\n      0x20\n        /* \"#utility.yul\":5178:5181   */\n      dup3\n        /* \"#utility.yul\":5174:5188   */\n      add\n        /* \"#utility.yul\":5159:5188   */\n      swap1\n      pop\n        /* \"#utility.yul\":5035:5194   */\n      swap3\n      swap2\n      pop\n      pop\n      jump\t// out\n        /* \"#utility.yul\":5200:5446   */\n    tag_380:\n        /* \"#utility.yul\":5281:5282   */\n      0x00\n        /* \"#utility.yul\":5291:5404   */\n    tag_499:\n        /* \"#utility.yul\":5305:5311   */\n      dup4\n        /* \"#utility.yul\":5302:5303   */\n      dup2\n        /* \"#utility.yul\":5299:5312   */\n      lt\n        /* \"#utility.yul\":5291:5404   */\n      iszero\n      tag_501\n      jumpi\n        /* \"#utility.yul\":5390:5391   */\n      dup1\n        /* \"#utility.yul\":5385:5388   */\n      dup3\n        /* \"#utility.yul\":5381:5392   */\n      add\n        /* \"#utility.yul\":5375:5393   */\n      mload\n        /* \"#utility.yul\":5371:5372   */\n      dup2\n        /* \"#utility.yul\":5366:5369   */\n      dup5\n        /* \"#utility.yul\":5362:5373   */\n      add\n        /* \"#utility.yul\":5355:5394   */\n      mstore\n        /* \"#utility.yul\":5327:5329   */\n      0x20\n        /* \"#utility.yul\":5324:5325   */\n      dup2\n        /* \"#utility.yul\":5320:5330   */\n      add\n        /* \"#utility.yul\":5315:5330   */\n      swap1\n      pop\n        /* \"#utility.yul\":5291:5404   */\n      jump(tag_499)\n    tag_501:\n        /* \"#utility.yul\":5438:5439   */\n      0x00\n        /* \"#utility.yul\":5429:5435   */\n      dup5\n        /* \"#utility.yul\":5424:5427   */\n      dup5\n        /* \"#utility.yul\":5420:5436   */\n      add\n        /* \"#utility.yul\":5413:5440   */\n      mstore\n        /* \"#utility.yul\":5262:5446   */\n      pop\n        /* \"#utility.yul\":5200:5446   */\n      pop\n      pop\n      pop\n      jump\t// out\n        /* \"#utility.yul\":5452:5809   */\n    tag_381:\n        /* \"#utility.yul\":5530:5533   */\n      0x00\n        /* \"#utility.yul\":5558:5597   */\n      tag_503\n        /* \"#utility.yul\":5591:5596   */\n      dup3\n        /* \"#utility.yul\":5558:5597   */\n      tag_378\n      jump\t// in\n    tag_503:\n        /* \"#utility.yul\":5613:5674   */\n      tag_504\n        /* \"#utility.yul\":5667:5673   */\n      dup2\n        /* \"#utility.yul\":5662:5665   */\n      dup6\n        /* \"#utility.yul\":5613:5674   */\n      tag_379\n      jump\t// in\n    tag_504:\n        /* \"#utility.yul\":5606:5674   */\n      swap4\n      pop\n        /* \"#utility.yul\":5683:5748   */\n      tag_505\n        /* \"#utility.yul\":5741:5747   */\n      dup2\n        /* \"#utility.yul\":5736:5739   */\n      dup6\n        /* \"#utility.yul\":5729:5733   */\n      0x20\n        /* \"#utility.yul\":5722:5727   */\n      dup7\n        /* \"#utility.yul\":5718:5734   */\n      add\n        /* \"#utility.yul\":5683:5748   */\n      tag_380\n      jump\t// in\n    tag_505:\n        /* \"#utility.yul\":5773:5802   */\n      tag_506\n        /* \"#utility.yul\":5795:5801   */\n      dup2\n        /* \"#utility.yul\":5773:5802   */\n      tag_366\n      jump\t// in\n    tag_506:\n        /* \"#utility.yul\":5768:5771   */\n      dup5\n        /* \"#utility.yul\":5764:5803   */\n      add\n        /* \"#utility.yul\":5757:5803   */\n      swap2\n      pop\n        /* \"#utility.yul\":5534:5809   */\n      pop\n        /* \"#utility.yul\":5452:5809   */\n      swap3\n      swap2\n      pop\n      pop\n      jump\t// out\n        /* \"#utility.yul\":5881:6677   */\n    tag_382:\n        /* \"#utility.yul\":6006:6009   */\n      0x00\n        /* \"#utility.yul\":6042:6046   */\n      0x60\n        /* \"#utility.yul\":6037:6040   */\n      dup4\n        /* \"#utility.yul\":6033:6047   */\n      add\n        /* \"#utility.yul\":6128:6132   */\n      0x00\n        /* \"#utility.yul\":6121:6126   */\n      dup4\n        /* \"#utility.yul\":6117:6133   */\n      add\n        /* \"#utility.yul\":6111:6134   */\n      mload\n        /* \"#utility.yul\":6147:6210   */\n      tag_508\n        /* \"#utility.yul\":6204:6208   */\n      0x00\n        /* \"#utility.yul\":6199:6202   */\n      dup7\n        /* \"#utility.yul\":6195:6209   */\n      add\n        /* \"#utility.yul\":6181:6193   */\n      dup3\n        /* \"#utility.yul\":6147:6210   */\n      tag_376\n      jump\t// in\n    tag_508:\n        /* \"#utility.yul\":6057:6220   */\n      pop\n        /* \"#utility.yul\":6312:6316   */\n      0x20\n        /* \"#utility.yul\":6305:6310   */\n      dup4\n        /* \"#utility.yul\":6301:6317   */\n      add\n        /* \"#utility.yul\":6295:6318   */\n      mload\n        /* \"#utility.yul\":6331:6394   */\n      tag_509\n        /* \"#utility.yul\":6388:6392   */\n      0x20\n        /* \"#utility.yul\":6383:6386   */\n      dup7\n        /* \"#utility.yul\":6379:6393   */\n      add\n        /* \"#utility.yul\":6365:6377   */\n      dup3\n        /* \"#utility.yul\":6331:6394   */\n      tag_377\n      jump\t// in\n    tag_509:\n        /* \"#utility.yul\":6230:6404   */\n      pop\n        /* \"#utility.yul\":6487:6491   */\n      0x40\n        /* \"#utility.yul\":6480:6485   */\n      dup4\n        /* \"#utility.yul\":6476:6492   */\n      add\n        /* \"#utility.yul\":6470:6493   */\n      mload\n        /* \"#utility.yul\":6540:6543   */\n      dup5\n        /* \"#utility.yul\":6534:6538   */\n      dup3\n        /* \"#utility.yul\":6530:6544   */\n      sub\n        /* \"#utility.yul\":6523:6527   */\n      0x40\n        /* \"#utility.yul\":6518:6521   */\n      dup7\n        /* \"#utility.yul\":6514:6528   */\n      add\n        /* \"#utility.yul\":6507:6545   */\n      mstore\n        /* \"#utility.yul\":6566:6639   */\n      tag_510\n        /* \"#utility.yul\":6634:6638   */\n      dup3\n        /* \"#utility.yul\":6620:6632   */\n      dup3\n        /* \"#utility.yul\":6566:6639   */\n      tag_381\n      jump\t// in\n    tag_510:\n        /* \"#utility.yul\":6558:6639   */\n      swap2\n      pop\n        /* \"#utility.yul\":6414:6650   */\n      pop\n        /* \"#utility.yul\":6667:6671   */\n      dup1\n        /* \"#utility.yul\":6660:6671   */\n      swap2\n      pop\n        /* \"#utility.yul\":6011:6677   */\n      pop\n        /* \"#utility.yul\":5881:6677   */\n      swap3\n      swap2\n      pop\n      pop\n      jump\t// out\n        /* \"#utility.yul\":6683:6971   */\n    tag_383:\n        /* \"#utility.yul\":6818:6828   */\n      0x00\n        /* \"#utility.yul\":6853:6965   */\n      tag_512\n        /* \"#utility.yul\":6961:6964   */\n      dup4\n        /* \"#utility.yul\":6953:6959   */\n      dup4\n        /* \"#utility.yul\":6853:6965   */\n      tag_382\n      jump\t// in\n    tag_512:\n        /* \"#utility.yul\":6839:6965   */\n      swap1\n      pop\n        /* \"#utility.yul\":6683:6971   */\n      swap3\n      swap2\n      pop\n      pop\n      jump\t// out\n        /* \"#utility.yul\":6977:7123   */\n    tag_384:\n        /* \"#utility.yul\":7080:7084   */\n      0x00\n        /* \"#utility.yul\":7112:7116   */\n      0x20\n        /* \"#utility.yul\":7107:7110   */\n      dup3\n        /* \"#utility.yul\":7103:7117   */\n      add\n        /* \"#utility.yul\":7095:7117   */\n      swap1\n      pop\n        /* \"#utility.yul\":6977:7123   */\n      swap2\n      swap1\n      pop\n      jump\t// out\n        /* \"#utility.yul\":7199:8374   */\n    tag_385:\n        /* \"#utility.yul\":7384:7387   */\n      0x00\n        /* \"#utility.yul\":7413:7500   */\n      tag_515\n        /* \"#utility.yul\":7494:7499   */\n      dup3\n        /* \"#utility.yul\":7413:7500   */\n      tag_373\n      jump\t// in\n    tag_515:\n        /* \"#utility.yul\":7516:7635   */\n      tag_516\n        /* \"#utility.yul\":7628:7634   */\n      dup2\n        /* \"#utility.yul\":7623:7626   */\n      dup6\n        /* \"#utility.yul\":7516:7635   */\n      tag_374\n      jump\t// in\n    tag_516:\n        /* \"#utility.yul\":7509:7635   */\n      swap4\n      pop\n        /* \"#utility.yul\":7661:7664   */\n      dup4\n        /* \"#utility.yul\":7706:7710   */\n      0x20\n        /* \"#utility.yul\":7698:7704   */\n      dup3\n        /* \"#utility.yul\":7694:7711   */\n      mul\n        /* \"#utility.yul\":7689:7692   */\n      dup6\n        /* \"#utility.yul\":7685:7712   */\n      add\n        /* \"#utility.yul\":7736:7825   */\n      tag_517\n        /* \"#utility.yul\":7819:7824   */\n      dup6\n        /* \"#utility.yul\":7736:7825   */\n      tag_375\n      jump\t// in\n    tag_517:\n        /* \"#utility.yul\":7848:7855   */\n      dup1\n        /* \"#utility.yul\":7879:7880   */\n      0x00\n        /* \"#utility.yul\":7864:8329   */\n    tag_518:\n        /* \"#utility.yul\":7889:7895   */\n      dup6\n        /* \"#utility.yul\":7886:7887   */\n      dup2\n        /* \"#utility.yul\":7883:7896   */\n      lt\n        /* \"#utility.yul\":7864:8329   */\n      iszero\n      tag_520\n      jumpi\n        /* \"#utility.yul\":7960:7969   */\n      dup5\n        /* \"#utility.yul\":7954:7958   */\n      dup5\n        /* \"#utility.yul\":7950:7970   */\n      sub\n        /* \"#utility.yul\":7945:7948   */\n      dup10\n        /* \"#utility.yul\":7938:7971   */\n      mstore\n        /* \"#utility.yul\":8011:8017   */\n      dup2\n        /* \"#utility.yul\":8005:8018   */\n      mload\n        /* \"#utility.yul\":8039:8169   */\n      tag_521\n        /* \"#utility.yul\":8164:8168   */\n      dup6\n        /* \"#utility.yul\":8149:8162   */\n      dup3\n        /* \"#utility.yul\":8039:8169   */\n      tag_383\n      jump\t// in\n    tag_521:\n        /* \"#utility.yul\":8031:8169   */\n      swap5\n      pop\n        /* \"#utility.yul\":8192:8285   */\n      tag_522\n        /* \"#utility.yul\":8278:8284   */\n      dup4\n        /* \"#utility.yul\":8192:8285   */\n      tag_384\n      jump\t// in\n    tag_522:\n        /* \"#utility.yul\":8182:8285   */\n      swap3\n      pop\n        /* \"#utility.yul\":8314:8318   */\n      0x20\n        /* \"#utility.yul\":8309:8312   */\n      dup11\n        /* \"#utility.yul\":8305:8319   */\n      add\n        /* \"#utility.yul\":8298:8319   */\n      swap10\n      pop\n        /* \"#utility.yul\":7924:8329   */\n      pop\n        /* \"#utility.yul\":7911:7912   */\n      0x01\n        /* \"#utility.yul\":7908:7909   */\n      dup2\n        /* \"#utility.yul\":7904:7913   */\n      add\n        /* \"#utility.yul\":7899:7913   */\n      swap1\n      pop\n        /* \"#utility.yul\":7864:8329   */\n      jump(tag_518)\n    tag_520:\n        /* \"#utility.yul\":7868:7882   */\n      pop\n        /* \"#utility.yul\":8345:8349   */\n      dup3\n        /* \"#utility.yul\":8338:8349   */\n      swap8\n      pop\n        /* \"#utility.yul\":8365:8368   */\n      dup8\n        /* \"#utility.yul\":8358:8368   */\n      swap6\n      pop\n        /* \"#utility.yul\":7389:8374   */\n      pop\n      pop\n      pop\n      pop\n      pop\n        /* \"#utility.yul\":7199:8374   */\n      swap3\n      swap2\n      pop\n      pop\n      jump\t// out\n        /* \"#utility.yul\":8380:8885   */\n    tag_36:\n        /* \"#utility.yul\":8589:8593   */\n      0x00\n        /* \"#utility.yul\":8627:8629   */\n      0x20\n        /* \"#utility.yul\":8616:8625   */\n      dup3\n        /* \"#utility.yul\":8612:8630   */\n      add\n        /* \"#utility.yul\":8604:8630   */\n      swap1\n      pop\n        /* \"#utility.yul\":8676:8685   */\n      dup2\n        /* \"#utility.yul\":8670:8674   */\n      dup2\n        /* \"#utility.yul\":8666:8686   */\n      sub\n        /* \"#utility.yul\":8662:8663   */\n      0x00\n        /* \"#utility.yul\":8651:8660   */\n      dup4\n        /* \"#utility.yul\":8647:8664   */\n      add\n        /* \"#utility.yul\":8640:8687   */\n      mstore\n        /* \"#utility.yul\":8704:8878   */\n      tag_524\n        /* \"#utility.yul\":8873:8877   */\n      dup2\n        /* \"#utility.yul\":8864:8870   */\n      dup5\n        /* \"#utility.yul\":8704:8878   */\n      tag_385\n      jump\t// in\n    tag_524:\n        /* \"#utility.yul\":8696:8878   */\n      swap1\n      pop\n        /* \"#utility.yul\":8380:8885   */\n      swap3\n      swap2\n      pop\n      pop\n      jump\t// out\n        /* \"#utility.yul\":8891:9013   */\n    tag_386:\n        /* \"#utility.yul\":8964:8988   */\n      tag_526\n        /* \"#utility.yul\":8982:8987   */\n      dup2\n        /* \"#utility.yul\":8964:8988   */\n      tag_356\n      jump\t// in\n    tag_526:\n        /* \"#utility.yul\":8957:8962   */\n      dup2\n        /* \"#utility.yul\":8954:8989   */\n      eq\n        /* \"#utility.yul\":8944:9007   */\n      tag_527\n      jumpi\n        /* \"#utility.yul\":9003:9004   */\n      0x00\n        /* \"#utility.yul\":9000:9001   */\n      dup1\n        /* \"#utility.yul\":8993:9005   */\n      revert\n        /* \"#utility.yul\":8944:9007   */\n    tag_527:\n        /* \"#utility.yul\":8891:9013   */\n      pop\n      jump\t// out\n        /* \"#utility.yul\":9019:9158   */\n    tag_387:\n        /* \"#utility.yul\":9065:9070   */\n      0x00\n        /* \"#utility.yul\":9103:9109   */\n      dup2\n        /* \"#utility.yul\":9090:9110   */\n      calldataload\n        /* \"#utility.yul\":9081:9110   */\n      swap1\n      pop\n        /* \"#utility.yul\":9119:9152   */\n      tag_529\n        /* \"#utility.yul\":9146:9151   */\n      dup2\n        /* \"#utility.yul\":9119:9152   */\n      tag_386\n      jump\t// in\n    tag_529:\n        /* \"#utility.yul\":9019:9158   */\n      swap3\n      swap2\n      pop\n      pop\n      jump\t// out\n        /* \"#utility.yul\":9164:9493   */\n    tag_39:\n        /* \"#utility.yul\":9223:9229   */\n      0x00\n        /* \"#utility.yul\":9272:9274   */\n      0x20\n        /* \"#utility.yul\":9260:9269   */\n      dup3\n        /* \"#utility.yul\":9251:9258   */\n      dup5\n        /* \"#utility.yul\":9247:9270   */\n      sub\n        /* \"#utility.yul\":9243:9275   */\n      slt\n        /* \"#utility.yul\":9240:9359   */\n      iszero\n      tag_531\n      jumpi\n        /* \"#utility.yul\":9278:9357   */\n      tag_532\n      tag_359\n      jump\t// in\n    tag_532:\n        /* \"#utility.yul\":9240:9359   */\n    tag_531:\n        /* \"#utility.yul\":9398:9399   */\n      0x00\n        /* \"#utility.yul\":9423:9476   */\n      tag_533\n        /* \"#utility.yul\":9468:9475   */\n      dup5\n        /* \"#utility.yul\":9459:9465   */\n      dup3\n        /* \"#utility.yul\":9448:9457   */\n      dup6\n        /* \"#utility.yul\":9444:9466   */\n      add\n        /* \"#utility.yul\":9423:9476   */\n      tag_387\n      jump\t// in\n    tag_533:\n        /* \"#utility.yul\":9413:9476   */\n      swap2\n      pop\n        /* \"#utility.yul\":9369:9486   */\n      pop\n        /* \"#utility.yul\":9164:9493   */\n      swap3\n      swap2\n      pop\n      pop\n      jump\t// out\n        /* \"#utility.yul\":9499:9576   */\n    tag_388:\n        /* \"#utility.yul\":9536:9543   */\n      0x00\n        /* \"#utility.yul\":9565:9570   */\n      dup2\n        /* \"#utility.yul\":9554:9570   */\n      swap1\n      pop\n        /* \"#utility.yul\":9499:9576   */\n      swap2\n      swap1\n      pop\n      jump\t// out\n        /* \"#utility.yul\":9582:9700   */\n    tag_389:\n        /* \"#utility.yul\":9669:9693   */\n      tag_536\n        /* \"#utility.yul\":9687:9692   */\n      dup2\n        /* \"#utility.yul\":9669:9693   */\n      tag_388\n      jump\t// in\n    tag_536:\n        /* \"#utility.yul\":9664:9667   */\n      dup3\n        /* \"#utility.yul\":9657:9694   */\n      mstore\n        /* \"#utility.yul\":9582:9700   */\n      pop\n      pop\n      jump\t// out\n        /* \"#utility.yul\":9706:9928   */\n    tag_42:\n        /* \"#utility.yul\":9799:9803   */\n      0x00\n        /* \"#utility.yul\":9837:9839   */\n      0x20\n        /* \"#utility.yul\":9826:9835   */\n      dup3\n        /* \"#utility.yul\":9822:9840   */\n      add\n        /* \"#utility.yul\":9814:9840   */\n      swap1\n      pop\n        /* \"#utility.yul\":9850:9921   */\n      tag_538\n        /* \"#utility.yul\":9918:9919   */\n      0x00\n        /* \"#utility.yul\":9907:9916   */\n      dup4\n        /* \"#utility.yul\":9903:9920   */\n      add\n        /* \"#utility.yul\":9894:9900   */\n      dup5\n        /* \"#utility.yul\":9850:9921   */\n      tag_389\n      jump\t// in\n    tag_538:\n        /* \"#utility.yul\":9706:9928   */\n      swap3\n      swap2\n      pop\n      pop\n      jump\t// out\n        /* \"#utility.yul\":9934:10263   */\n    tag_47:\n        /* \"#utility.yul\":9993:9999   */\n      0x00\n        /* \"#utility.yul\":10042:10044   */\n      0x20\n        /* \"#utility.yul\":10030:10039   */\n      dup3\n        /* \"#utility.yul\":10021:10028   */\n      dup5\n        /* \"#utility.yul\":10017:10040   */\n      sub\n        /* \"#utility.yul\":10013:10045   */\n      slt\n        /* \"#utility.yul\":10010:10129   */\n      iszero\n      tag_540\n      jumpi\n        /* \"#utility.yul\":10048:10127   */\n      tag_541\n      tag_359\n      jump\t// in\n    tag_541:\n        /* \"#utility.yul\":10010:10129   */\n    tag_540:\n        /* \"#utility.yul\":10168:10169   */\n      0x00\n        /* \"#utility.yul\":10193:10246   */\n      tag_542\n        /* \"#utility.yul\":10238:10245   */\n      dup5\n        /* \"#utility.yul\":10229:10235   */\n      dup3\n        /* \"#utility.yul\":10218:10227   */\n      dup6\n        /* \"#utility.yul\":10214:10236   */\n      add\n        /* \"#utility.yul\":10193:10246   */\n      tag_363\n      jump\t// in\n    tag_542:\n        /* \"#utility.yul\":10183:10246   */\n      swap2\n      pop\n        /* \"#utility.yul\":10139:10256   */\n      pop\n        /* \"#utility.yul\":9934:10263   */\n      swap3\n      swap2\n      pop\n      pop\n      jump\t// out\n        /* \"#utility.yul\":10269:10387   */\n    tag_390:\n        /* \"#utility.yul\":10356:10380   */\n      tag_544\n        /* \"#utility.yul\":10374:10379   */\n      dup2\n        /* \"#utility.yul\":10356:10380   */\n      tag_361\n      jump\t// in\n    tag_544:\n        /* \"#utility.yul\":10351:10354   */\n      dup3\n        /* \"#utility.yul\":10344:10381   */\n      mstore\n        /* \"#utility.yul\":10269:10387   */\n      pop\n      pop\n      jump\t// out\n        /* \"#utility.yul\":10393:10562   */\n    tag_391:\n        /* \"#utility.yul\":10477:10488   */\n      0x00\n        /* \"#utility.yul\":10511:10517   */\n      dup3\n        /* \"#utility.yul\":10506:10509   */\n      dup3\n        /* \"#utility.yul\":10499:10518   */\n      mstore\n        /* \"#utility.yul\":10551:10555   */\n      0x20\n        /* \"#utility.yul\":10546:10549   */\n      dup3\n        /* \"#utility.yul\":10542:10556   */\n      add\n        /* \"#utility.yul\":10527:10556   */\n      swap1\n      pop\n        /* \"#utility.yul\":10393:10562   */\n      swap3\n      swap2\n      pop\n      pop\n      jump\t// out\n        /* \"#utility.yul\":10568:10945   */\n    tag_392:\n        /* \"#utility.yul\":10656:10659   */\n      0x00\n        /* \"#utility.yul\":10684:10723   */\n      tag_547\n        /* \"#utility.yul\":10717:10722   */\n      dup3\n        /* \"#utility.yul\":10684:10723   */\n      tag_378\n      jump\t// in\n    tag_547:\n        /* \"#utility.yul\":10739:10810   */\n      tag_548\n        /* \"#utility.yul\":10803:10809   */\n      dup2\n        /* \"#utility.yul\":10798:10801   */\n      dup6\n        /* \"#utility.yul\":10739:10810   */\n      tag_391\n      jump\t// in\n    tag_548:\n        /* \"#utility.yul\":10732:10810   */\n      swap4\n      pop\n        /* \"#utility.yul\":10819:10884   */\n      tag_549\n        /* \"#utility.yul\":10877:10883   */\n      dup2\n        /* \"#utility.yul\":10872:10875   */\n      dup6\n        /* \"#utility.yul\":10865:10869   */\n      0x20\n        /* \"#utility.yul\":10858:10863   */\n      dup7\n        /* \"#utility.yul\":10854:10870   */\n      add\n        /* \"#utility.yul\":10819:10884   */\n      tag_380\n      jump\t// in\n    tag_549:\n        /* \"#utility.yul\":10909:10938   */\n      tag_550\n        /* \"#utility.yul\":10931:10937   */\n      dup2\n        /* \"#utility.yul\":10909:10938   */\n      tag_366\n      jump\t// in\n    tag_550:\n        /* \"#utility.yul\":10904:10907   */\n      dup5\n        /* \"#utility.yul\":10900:10939   */\n      add\n        /* \"#utility.yul\":10893:10939   */\n      swap2\n      pop\n        /* \"#utility.yul\":10660:10945   */\n      pop\n        /* \"#utility.yul\":10568:10945   */\n      swap3\n      swap2\n      pop\n      pop\n      jump\t// out\n        /* \"#utility.yul\":10951:11484   */\n    tag_60:\n        /* \"#utility.yul\":11120:11124   */\n      0x00\n        /* \"#utility.yul\":11158:11160   */\n      0x60\n        /* \"#utility.yul\":11147:11156   */\n      dup3\n        /* \"#utility.yul\":11143:11161   */\n      add\n        /* \"#utility.yul\":11135:11161   */\n      swap1\n      pop\n        /* \"#utility.yul\":11171:11242   */\n      tag_552\n        /* \"#utility.yul\":11239:11240   */\n      0x00\n        /* \"#utility.yul\":11228:11237   */\n      dup4\n        /* \"#utility.yul\":11224:11241   */\n      add\n        /* \"#utility.yul\":11215:11221   */\n      dup7\n        /* \"#utility.yul\":11171:11242   */\n      tag_390\n      jump\t// in\n    tag_552:\n        /* \"#utility.yul\":11252:11324   */\n      tag_553\n        /* \"#utility.yul\":11320:11322   */\n      0x20\n        /* \"#utility.yul\":11309:11318   */\n      dup4\n        /* \"#utility.yul\":11305:11323   */\n      add\n        /* \"#utility.yul\":11296:11302   */\n      dup6\n        /* \"#utility.yul\":11252:11324   */\n      tag_357\n      jump\t// in\n    tag_553:\n        /* \"#utility.yul\":11371:11380   */\n      dup2\n        /* \"#utility.yul\":11365:11369   */\n      dup2\n        /* \"#utility.yul\":11361:11381   */\n      sub\n        /* \"#utility.yul\":11356:11358   */\n      0x40\n        /* \"#utility.yul\":11345:11354   */\n      dup4\n        /* \"#utility.yul\":11341:11359   */\n      add\n        /* \"#utility.yul\":11334:11382   */\n      mstore\n        /* \"#utility.yul\":11399:11477   */\n      tag_554\n        /* \"#utility.yul\":11472:11476   */\n      dup2\n        /* \"#utility.yul\":11463:11469   */\n      dup5\n        /* \"#utility.yul\":11399:11477   */\n      tag_392\n      jump\t// in\n    tag_554:\n        /* \"#utility.yul\":11391:11477   */\n      swap1\n      pop\n        /* \"#utility.yul\":10951:11484   */\n      swap5\n      swap4\n      pop\n      pop\n      pop\n      pop\n      jump\t// out\n        /* \"#utility.yul\":11490:11803   */\n    tag_64:\n        /* \"#utility.yul\":11603:11607   */\n      0x00\n        /* \"#utility.yul\":11641:11643   */\n      0x20\n        /* \"#utility.yul\":11630:11639   */\n      dup3\n        /* \"#utility.yul\":11626:11644   */\n      add\n        /* \"#utility.yul\":11618:11644   */\n      swap1\n      pop\n        /* \"#utility.yul\":11690:11699   */\n      dup2\n        /* \"#utility.yul\":11684:11688   */\n      dup2\n        /* \"#utility.yul\":11680:11700   */\n      sub\n        /* \"#utility.yul\":11676:11677   */\n      0x00\n        /* \"#utility.yul\":11665:11674   */\n      dup4\n        /* \"#utility.yul\":11661:11678   */\n      add\n        /* \"#utility.yul\":11654:11701   */\n      mstore\n        /* \"#utility.yul\":11718:11796   */\n      tag_556\n        /* \"#utility.yul\":11791:11795   */\n      dup2\n        /* \"#utility.yul\":11782:11788   */\n      dup5\n        /* \"#utility.yul\":11718:11796   */\n      tag_392\n      jump\t// in\n    tag_556:\n        /* \"#utility.yul\":11710:11796   */\n      swap1\n      pop\n        /* \"#utility.yul\":11490:11803   */\n      swap3\n      swap2\n      pop\n      pop\n      jump\t// out\n        /* \"#utility.yul\":11809:12643   */\n    tag_67:\n        /* \"#utility.yul\":11897:11903   */\n      0x00\n        /* \"#utility.yul\":11905:11911   */\n      dup1\n        /* \"#utility.yul\":11954:11956   */\n      0x40\n        /* \"#utility.yul\":11942:11951   */\n      dup4\n        /* \"#utility.yul\":11933:11940   */\n      dup6\n        /* \"#utility.yul\":11929:11952   */\n      sub\n        /* \"#utility.yul\":11925:11957   */\n      slt\n        /* \"#utility.yul\":11922:12041   */\n      iszero\n      tag_558\n      jumpi\n        /* \"#utility.yul\":11960:12039   */\n      tag_559\n      tag_359\n      jump\t// in\n    tag_559:\n        /* \"#utility.yul\":11922:12041   */\n    tag_558:\n        /* \"#utility.yul\":12108:12109   */\n      0x00\n        /* \"#utility.yul\":12097:12106   */\n      dup4\n        /* \"#utility.yul\":12093:12110   */\n      add\n        /* \"#utility.yul\":12080:12111   */\n      calldataload\n        /* \"#utility.yul\":12138:12156   */\n      0xffffffffffffffff\n        /* \"#utility.yul\":12130:12136   */\n      dup2\n        /* \"#utility.yul\":12127:12157   */\n      gt\n        /* \"#utility.yul\":12124:12241   */\n      iszero\n      tag_560\n      jumpi\n        /* \"#utility.yul\":12160:12239   */\n      tag_561\n      tag_360\n      jump\t// in\n    tag_561:\n        /* \"#utility.yul\":12124:12241   */\n    tag_560:\n        /* \"#utility.yul\":12265:12328   */\n      tag_562\n        /* \"#utility.yul\":12320:12327   */\n      dup6\n        /* \"#utility.yul\":12311:12317   */\n      dup3\n        /* \"#utility.yul\":12300:12309   */\n      dup7\n        /* \"#utility.yul\":12296:12318   */\n      add\n        /* \"#utility.yul\":12265:12328   */\n      tag_372\n      jump\t// in\n    tag_562:\n        /* \"#utility.yul\":12255:12328   */\n      swap3\n      pop\n        /* \"#utility.yul\":12051:12338   */\n      pop\n        /* \"#utility.yul\":12405:12407   */\n      0x20\n        /* \"#utility.yul\":12394:12403   */\n      dup4\n        /* \"#utility.yul\":12390:12408   */\n      add\n        /* \"#utility.yul\":12377:12409   */\n      calldataload\n        /* \"#utility.yul\":12436:12454   */\n      0xffffffffffffffff\n        /* \"#utility.yul\":12428:12434   */\n      dup2\n        /* \"#utility.yul\":12425:12455   */\n      gt\n        /* \"#utility.yul\":12422:12539   */\n      iszero\n      tag_563\n      jumpi\n        /* \"#utility.yul\":12458:12537   */\n      tag_564\n      tag_360\n      jump\t// in\n    tag_564:\n        /* \"#utility.yul\":12422:12539   */\n    tag_563:\n        /* \"#utility.yul\":12563:12626   */\n      tag_565\n        /* \"#utility.yul\":12618:12625   */\n      dup6\n        /* \"#utility.yul\":12609:12615   */\n      dup3\n        /* \"#utility.yul\":12598:12607   */\n      dup7\n        /* \"#utility.yul\":12594:12616   */\n      add\n        /* \"#utility.yul\":12563:12626   */\n      tag_372\n      jump\t// in\n    tag_565:\n        /* \"#utility.yul\":12553:12626   */\n      swap2\n      pop\n        /* \"#utility.yul\":12348:12636   */\n      pop\n        /* \"#utility.yul\":11809:12643   */\n      swap3\n      pop\n      swap3\n      swap1\n      pop\n      jump\t// out\n        /* \"#utility.yul\":12649:13182   */\n    tag_73:\n        /* \"#utility.yul\":12818:12822   */\n      0x00\n        /* \"#utility.yul\":12856:12858   */\n      0x60\n        /* \"#utility.yul\":12845:12854   */\n      dup3\n        /* \"#utility.yul\":12841:12859   */\n      add\n        /* \"#utility.yul\":12833:12859   */\n      swap1\n      pop\n        /* \"#utility.yul\":12869:12940   */\n      tag_567\n        /* \"#utility.yul\":12937:12938   */\n      0x00\n        /* \"#utility.yul\":12926:12935   */\n      dup4\n        /* \"#utility.yul\":12922:12939   */\n      add\n        /* \"#utility.yul\":12913:12919   */\n      dup7\n        /* \"#utility.yul\":12869:12940   */\n      tag_357\n      jump\t// in\n    tag_567:\n        /* \"#utility.yul\":12950:13022   */\n      tag_568\n        /* \"#utility.yul\":13018:13020   */\n      0x20\n        /* \"#utility.yul\":13007:13016   */\n      dup4\n        /* \"#utility.yul\":13003:13021   */\n      add\n        /* \"#utility.yul\":12994:13000   */\n      dup6\n        /* \"#utility.yul\":12950:13022   */\n      tag_390\n      jump\t// in\n    tag_568:\n        /* \"#utility.yul\":13069:13078   */\n      dup2\n        /* \"#utility.yul\":13063:13067   */\n      dup2\n        /* \"#utility.yul\":13059:13079   */\n      sub\n        /* \"#utility.yul\":13054:13056   */\n      0x40\n        /* \"#utility.yul\":13043:13052   */\n      dup4\n        /* \"#utility.yul\":13039:13057   */\n      add\n        /* \"#utility.yul\":13032:13080   */\n      mstore\n        /* \"#utility.yul\":13097:13175   */\n      tag_569\n        /* \"#utility.yul\":13170:13174   */\n      dup2\n        /* \"#utility.yul\":13161:13167   */\n      dup5\n        /* \"#utility.yul\":13097:13175   */\n      tag_392\n      jump\t// in\n    tag_569:\n        /* \"#utility.yul\":13089:13175   */\n      swap1\n      pop\n        /* \"#utility.yul\":12649:13182   */\n      swap5\n      swap4\n      pop\n      pop\n      pop\n      pop\n      jump\t// out\n        /* \"#utility.yul\":13188:13702   */\n    tag_86:\n        /* \"#utility.yul\":13349:13353   */\n      0x00\n        /* \"#utility.yul\":13387:13389   */\n      0x40\n        /* \"#utility.yul\":13376:13385   */\n      dup3\n        /* \"#utility.yul\":13372:13390   */\n      add\n        /* \"#utility.yul\":13364:13390   */\n      swap1\n      pop\n        /* \"#utility.yul\":13436:13445   */\n      dup2\n        /* \"#utility.yul\":13430:13434   */\n      dup2\n        /* \"#utility.yul\":13426:13446   */\n      sub\n        /* \"#utility.yul\":13422:13423   */\n      0x00\n        /* \"#utility.yul\":13411:13420   */\n      dup4\n        /* \"#utility.yul\":13407:13424   */\n      add\n        /* \"#utility.yul\":13400:13447   */\n      mstore\n        /* \"#utility.yul\":13464:13542   */\n      tag_571\n        /* \"#utility.yul\":13537:13541   */\n      dup2\n        /* \"#utility.yul\":13528:13534   */\n      dup6\n        /* \"#utility.yul\":13464:13542   */\n      tag_392\n      jump\t// in\n    tag_571:\n        /* \"#utility.yul\":13456:13542   */\n      swap1\n      pop\n        /* \"#utility.yul\":13589:13598   */\n      dup2\n        /* \"#utility.yul\":13583:13587   */\n      dup2\n        /* \"#utility.yul\":13579:13599   */\n      sub\n        /* \"#utility.yul\":13574:13576   */\n      0x20\n        /* \"#utility.yul\":13563:13572   */\n      dup4\n        /* \"#utility.yul\":13559:13577   */\n      add\n        /* \"#utility.yul\":13552:13600   */\n      mstore\n        /* \"#utility.yul\":13617:13695   */\n      tag_572\n        /* \"#utility.yul\":13690:13694   */\n      dup2\n        /* \"#utility.yul\":13681:13687   */\n      dup5\n        /* \"#utility.yul\":13617:13695   */\n      tag_392\n      jump\t// in\n    tag_572:\n        /* \"#utility.yul\":13609:13695   */\n      swap1\n      pop\n        /* \"#utility.yul\":13188:13702   */\n      swap4\n      swap3\n      pop\n      pop\n      pop\n      jump\t// out\n        /* \"#utility.yul\":13708:13846   */\n    tag_393:\n        /* \"#utility.yul\":13799:13805   */\n      0x00\n        /* \"#utility.yul\":13833:13838   */\n      dup2\n        /* \"#utility.yul\":13827:13839   */\n      mload\n        /* \"#utility.yul\":13817:13839   */\n      swap1\n      pop\n        /* \"#utility.yul\":13708:13846   */\n      swap2\n      swap1\n      pop\n      jump\t// out\n        /* \"#utility.yul\":13852:14060   */\n    tag_394:\n        /* \"#utility.yul\":13975:13986   */\n      0x00\n        /* \"#utility.yul\":14009:14015   */\n      dup3\n        /* \"#utility.yul\":14004:14007   */\n      dup3\n        /* \"#utility.yul\":13997:14016   */\n      mstore\n        /* \"#utility.yul\":14049:14053   */\n      0x20\n        /* \"#utility.yul\":14044:14047   */\n      dup3\n        /* \"#utility.yul\":14040:14054   */\n      add\n        /* \"#utility.yul\":14025:14054   */\n      swap1\n      pop\n        /* \"#utility.yul\":13852:14060   */\n      swap3\n      swap2\n      pop\n      pop\n      jump\t// out\n        /* \"#utility.yul\":14066:14222   */\n    tag_395:\n        /* \"#utility.yul\":14157:14161   */\n      0x00\n        /* \"#utility.yul\":14180:14183   */\n      dup2\n        /* \"#utility.yul\":14172:14183   */\n      swap1\n      pop\n        /* \"#utility.yul\":14210:14214   */\n      0x20\n        /* \"#utility.yul\":14205:14208   */\n      dup3\n        /* \"#utility.yul\":14201:14215   */\n      add\n        /* \"#utility.yul\":14193:14215   */\n      swap1\n      pop\n        /* \"#utility.yul\":14066:14222   */\n      swap2\n      swap1\n      pop\n      jump\t// out\n        /* \"#utility.yul\":14276:15053   */\n    tag_396:\n        /* \"#utility.yul\":14383:14386   */\n      0x00\n        /* \"#utility.yul\":14419:14423   */\n      0x60\n        /* \"#utility.yul\":14414:14417   */\n      dup4\n        /* \"#utility.yul\":14410:14424   */\n      add\n        /* \"#utility.yul\":14515:14519   */\n      0x00\n        /* \"#utility.yul\":14508:14513   */\n      dup4\n        /* \"#utility.yul\":14504:14520   */\n      add\n        /* \"#utility.yul\":14498:14521   */\n      mload\n        /* \"#utility.yul\":14534:14597   */\n      tag_577\n        /* \"#utility.yul\":14591:14595   */\n      0x00\n        /* \"#utility.yul\":14586:14589   */\n      dup7\n        /* \"#utility.yul\":14582:14596   */\n      add\n        /* \"#utility.yul\":14568:14580   */\n      dup3\n        /* \"#utility.yul\":14534:14597   */\n      tag_377\n      jump\t// in\n    tag_577:\n        /* \"#utility.yul\":14434:14607   */\n      pop\n        /* \"#utility.yul\":14688:14692   */\n      0x20\n        /* \"#utility.yul\":14681:14686   */\n      dup4\n        /* \"#utility.yul\":14677:14693   */\n      add\n        /* \"#utility.yul\":14671:14694   */\n      mload\n        /* \"#utility.yul\":14707:14770   */\n      tag_578\n        /* \"#utility.yul\":14764:14768   */\n      0x20\n        /* \"#utility.yul\":14759:14762   */\n      dup7\n        /* \"#utility.yul\":14755:14769   */\n      add\n        /* \"#utility.yul\":14741:14753   */\n      dup3\n        /* \"#utility.yul\":14707:14770   */\n      tag_376\n      jump\t// in\n    tag_578:\n        /* \"#utility.yul\":14617:14780   */\n      pop\n        /* \"#utility.yul\":14863:14867   */\n      0x40\n        /* \"#utility.yul\":14856:14861   */\n      dup4\n        /* \"#utility.yul\":14852:14868   */\n      add\n        /* \"#utility.yul\":14846:14869   */\n      mload\n        /* \"#utility.yul\":14916:14919   */\n      dup5\n        /* \"#utility.yul\":14910:14914   */\n      dup3\n        /* \"#utility.yul\":14906:14920   */\n      sub\n        /* \"#utility.yul\":14899:14903   */\n      0x40\n        /* \"#utility.yul\":14894:14897   */\n      dup7\n        /* \"#utility.yul\":14890:14904   */\n      add\n        /* \"#utility.yul\":14883:14921   */\n      mstore\n        /* \"#utility.yul\":14942:15015   */\n      tag_579\n        /* \"#utility.yul\":15010:15014   */\n      dup3\n        /* \"#utility.yul\":14996:15008   */\n      dup3\n        /* \"#utility.yul\":14942:15015   */\n      tag_381\n      jump\t// in\n    tag_579:\n        /* \"#utility.yul\":14934:15015   */\n      swap2\n      pop\n        /* \"#utility.yul\":14790:15026   */\n      pop\n        /* \"#utility.yul\":15043:15047   */\n      dup1\n        /* \"#utility.yul\":15036:15047   */\n      swap2\n      pop\n        /* \"#utility.yul\":14388:15053   */\n      pop\n        /* \"#utility.yul\":14276:15053   */\n      swap3\n      swap2\n      pop\n      pop\n      jump\t// out\n        /* \"#utility.yul\":15059:15311   */\n    tag_397:\n        /* \"#utility.yul\":15176:15186   */\n      0x00\n        /* \"#utility.yul\":15211:15305   */\n      tag_581\n        /* \"#utility.yul\":15301:15304   */\n      dup4\n        /* \"#utility.yul\":15293:15299   */\n      dup4\n        /* \"#utility.yul\":15211:15305   */\n      tag_396\n      jump\t// in\n    tag_581:\n        /* \"#utility.yul\":15197:15305   */\n      swap1\n      pop\n        /* \"#utility.yul\":15059:15311   */\n      swap3\n      swap2\n      pop\n      pop\n      jump\t// out\n        /* \"#utility.yul\":15317:15454   */\n    tag_398:\n        /* \"#utility.yul\":15411:15415   */\n      0x00\n        /* \"#utility.yul\":15443:15447   */\n      0x20\n        /* \"#utility.yul\":15438:15441   */\n      dup3\n        /* \"#utility.yul\":15434:15448   */\n      add\n        /* \"#utility.yul\":15426:15448   */\n      swap1\n      pop\n        /* \"#utility.yul\":15317:15454   */\n      swap2\n      swap1\n      pop\n      jump\t// out\n        /* \"#utility.yul\":15512:16615   */\n    tag_399:\n        /* \"#utility.yul\":15679:15682   */\n      0x00\n        /* \"#utility.yul\":15708:15786   */\n      tag_584\n        /* \"#utility.yul\":15780:15785   */\n      dup3\n        /* \"#utility.yul\":15708:15786   */\n      tag_393\n      jump\t// in\n    tag_584:\n        /* \"#utility.yul\":15802:15912   */\n      tag_585\n        /* \"#utility.yul\":15905:15911   */\n      dup2\n        /* \"#utility.yul\":15900:15903   */\n      dup6\n        /* \"#utility.yul\":15802:15912   */\n      tag_394\n      jump\t// in\n    tag_585:\n        /* \"#utility.yul\":15795:15912   */\n      swap4\n      pop\n        /* \"#utility.yul\":15938:15941   */\n      dup4\n        /* \"#utility.yul\":15983:15987   */\n      0x20\n        /* \"#utility.yul\":15975:15981   */\n      dup3\n        /* \"#utility.yul\":15971:15988   */\n      mul\n        /* \"#utility.yul\":15966:15969   */\n      dup6\n        /* \"#utility.yul\":15962:15989   */\n      add\n        /* \"#utility.yul\":16013:16093   */\n      tag_586\n        /* \"#utility.yul\":16087:16092   */\n      dup6\n        /* \"#utility.yul\":16013:16093   */\n      tag_395\n      jump\t// in\n    tag_586:\n        /* \"#utility.yul\":16116:16123   */\n      dup1\n        /* \"#utility.yul\":16147:16148   */\n      0x00\n        /* \"#utility.yul\":16132:16570   */\n    tag_587:\n        /* \"#utility.yul\":16157:16163   */\n      dup6\n        /* \"#utility.yul\":16154:16155   */\n      dup2\n        /* \"#utility.yul\":16151:16164   */\n      lt\n        /* \"#utility.yul\":16132:16570   */\n      iszero\n      tag_589\n      jumpi\n        /* \"#utility.yul\":16228:16237   */\n      dup5\n        /* \"#utility.yul\":16222:16226   */\n      dup5\n        /* \"#utility.yul\":16218:16238   */\n      sub\n        /* \"#utility.yul\":16213:16216   */\n      dup10\n        /* \"#utility.yul\":16206:16239   */\n      mstore\n        /* \"#utility.yul\":16279:16285   */\n      dup2\n        /* \"#utility.yul\":16273:16286   */\n      mload\n        /* \"#utility.yul\":16307:16419   */\n      tag_590\n        /* \"#utility.yul\":16414:16418   */\n      dup6\n        /* \"#utility.yul\":16399:16412   */\n      dup3\n        /* \"#utility.yul\":16307:16419   */\n      tag_397\n      jump\t// in\n    tag_590:\n        /* \"#utility.yul\":16299:16419   */\n      swap5\n      pop\n        /* \"#utility.yul\":16442:16526   */\n      tag_591\n        /* \"#utility.yul\":16519:16525   */\n      dup4\n        /* \"#utility.yul\":16442:16526   */\n      tag_398\n      jump\t// in\n    tag_591:\n        /* \"#utility.yul\":16432:16526   */\n      swap3\n      pop\n        /* \"#utility.yul\":16555:16559   */\n      0x20\n        /* \"#utility.yul\":16550:16553   */\n      dup11\n        /* \"#utility.yul\":16546:16560   */\n      add\n        /* \"#utility.yul\":16539:16560   */\n      swap10\n      pop\n        /* \"#utility.yul\":16192:16570   */\n      pop\n        /* \"#utility.yul\":16179:16180   */\n      0x01\n        /* \"#utility.yul\":16176:16177   */\n      dup2\n        /* \"#utility.yul\":16172:16181   */\n      add\n        /* \"#utility.yul\":16167:16181   */\n      swap1\n      pop\n        /* \"#utility.yul\":16132:16570   */\n      jump(tag_587)\n    tag_589:\n        /* \"#utility.yul\":16136:16150   */\n      pop\n        /* \"#utility.yul\":16586:16590   */\n      dup3\n        /* \"#utility.yul\":16579:16590   */\n      swap8\n      pop\n        /* \"#utility.yul\":16606:16609   */\n      dup8\n        /* \"#utility.yul\":16599:16609   */\n      swap6\n      pop\n        /* \"#utility.yul\":15684:16615   */\n      pop\n      pop\n      pop\n      pop\n      pop\n        /* \"#utility.yul\":15512:16615   */\n      swap3\n      swap2\n      pop\n      pop\n      jump\t// out\n        /* \"#utility.yul\":16621:17090   */\n    tag_90:\n        /* \"#utility.yul\":16812:16816   */\n      0x00\n        /* \"#utility.yul\":16850:16852   */\n      0x20\n        /* \"#utility.yul\":16839:16848   */\n      dup3\n        /* \"#utility.yul\":16835:16853   */\n      add\n        /* \"#utility.yul\":16827:16853   */\n      swap1\n      pop\n        /* \"#utility.yul\":16899:16908   */\n      dup2\n        /* \"#utility.yul\":16893:16897   */\n      dup2\n        /* \"#utility.yul\":16889:16909   */\n      sub\n        /* \"#utility.yul\":16885:16886   */\n      0x00\n        /* \"#utility.yul\":16874:16883   */\n      dup4\n        /* \"#utility.yul\":16870:16887   */\n      add\n        /* \"#utility.yul\":16863:16910   */\n      mstore\n        /* \"#utility.yul\":16927:17083   */\n      tag_593\n        /* \"#utility.yul\":17078:17082   */\n      dup2\n        /* \"#utility.yul\":17069:17075   */\n      dup5\n        /* \"#utility.yul\":16927:17083   */\n      tag_399\n      jump\t// in\n    tag_593:\n        /* \"#utility.yul\":16919:17083   */\n      swap1\n      pop\n        /* \"#utility.yul\":16621:17090   */\n      swap3\n      swap2\n      pop\n      pop\n      jump\t// out\n        /* \"#utility.yul\":17096:17218   */\n    tag_400:\n        /* \"#utility.yul\":17169:17193   */\n      tag_595\n        /* \"#utility.yul\":17187:17192   */\n      dup2\n        /* \"#utility.yul\":17169:17193   */\n      tag_388\n      jump\t// in\n    tag_595:\n        /* \"#utility.yul\":17162:17167   */\n      dup2\n        /* \"#utility.yul\":17159:17194   */\n      eq\n        /* \"#utility.yul\":17149:17212   */\n      tag_596\n      jumpi\n        /* \"#utility.yul\":17208:17209   */\n      0x00\n        /* \"#utility.yul\":17205:17206   */\n      dup1\n        /* \"#utility.yul\":17198:17210   */\n      revert\n        /* \"#utility.yul\":17149:17212   */\n    tag_596:\n        /* \"#utility.yul\":17096:17218   */\n      pop\n      jump\t// out\n        /* \"#utility.yul\":17224:17363   */\n    tag_401:\n        /* \"#utility.yul\":17270:17275   */\n      0x00\n        /* \"#utility.yul\":17308:17314   */\n      dup2\n        /* \"#utility.yul\":17295:17315   */\n      calldataload\n        /* \"#utility.yul\":17286:17315   */\n      swap1\n      pop\n        /* \"#utility.yul\":17324:17357   */\n      tag_598\n        /* \"#utility.yul\":17351:17356   */\n      dup2\n        /* \"#utility.yul\":17324:17357   */\n      tag_400\n      jump\t// in\n    tag_598:\n        /* \"#utility.yul\":17224:17363   */\n      swap3\n      swap2\n      pop\n      pop\n      jump\t// out\n        /* \"#utility.yul\":17369:17698   */\n    tag_93:\n        /* \"#utility.yul\":17428:17434   */\n      0x00\n        /* \"#utility.yul\":17477:17479   */\n      0x20\n        /* \"#utility.yul\":17465:17474   */\n      dup3\n        /* \"#utility.yul\":17456:17463   */\n      dup5\n        /* \"#utility.yul\":17452:17475   */\n      sub\n        /* \"#utility.yul\":17448:17480   */\n      slt\n        /* \"#utility.yul\":17445:17564   */\n      iszero\n      tag_600\n      jumpi\n        /* \"#utility.yul\":17483:17562   */\n      tag_601\n      tag_359\n      jump\t// in\n    tag_601:\n        /* \"#utility.yul\":17445:17564   */\n    tag_600:\n        /* \"#utility.yul\":17603:17604   */\n      0x00\n        /* \"#utility.yul\":17628:17681   */\n      tag_602\n        /* \"#utility.yul\":17673:17680   */\n      dup5\n        /* \"#utility.yul\":17664:17670   */\n      dup3\n        /* \"#utility.yul\":17653:17662   */\n      dup6\n        /* \"#utility.yul\":17649:17671   */\n      add\n        /* \"#utility.yul\":17628:17681   */\n      tag_401\n      jump\t// in\n    tag_602:\n        /* \"#utility.yul\":17618:17681   */\n      swap2\n      pop\n        /* \"#utility.yul\":17574:17691   */\n      pop\n        /* \"#utility.yul\":17369:17698   */\n      swap3\n      swap2\n      pop\n      pop\n      jump\t// out\n        /* \"#utility.yul\":17704:17885   */\n    tag_402:\n        /* \"#utility.yul\":17844:17877   */\n      0x5468657265206973206e6f20737461727465642061756374696f6e206e6f7700\n        /* \"#utility.yul\":17840:17841   */\n      0x00\n        /* \"#utility.yul\":17832:17838   */\n      dup3\n        /* \"#utility.yul\":17828:17842   */\n      add\n        /* \"#utility.yul\":17821:17878   */\n      mstore\n        /* \"#utility.yul\":17704:17885   */\n      pop\n      jump\t// out\n        /* \"#utility.yul\":17891:18257   */\n    tag_403:\n        /* \"#utility.yul\":18033:18036   */\n      0x00\n        /* \"#utility.yul\":18054:18121   */\n      tag_605\n        /* \"#utility.yul\":18118:18120   */\n      0x1f\n        /* \"#utility.yul\":18113:18116   */\n      dup4\n        /* \"#utility.yul\":18054:18121   */\n      tag_391\n      jump\t// in\n    tag_605:\n        /* \"#utility.yul\":18047:18121   */\n      swap2\n      pop\n        /* \"#utility.yul\":18130:18223   */\n      tag_606\n        /* \"#utility.yul\":18219:18222   */\n      dup3\n        /* \"#utility.yul\":18130:18223   */\n      tag_402\n      jump\t// in\n    tag_606:\n        /* \"#utility.yul\":18248:18250   */\n      0x20\n        /* \"#utility.yul\":18243:18246   */\n      dup3\n        /* \"#utility.yul\":18239:18251   */\n      add\n        /* \"#utility.yul\":18232:18251   */\n      swap1\n      pop\n        /* \"#utility.yul\":17891:18257   */\n      swap2\n      swap1\n      pop\n      jump\t// out\n        /* \"#utility.yul\":18263:18682   */\n    tag_100:\n        /* \"#utility.yul\":18429:18433   */\n      0x00\n        /* \"#utility.yul\":18467:18469   */\n      0x20\n        /* \"#utility.yul\":18456:18465   */\n      dup3\n        /* \"#utility.yul\":18452:18470   */\n      add\n        /* \"#utility.yul\":18444:18470   */\n      swap1\n      pop\n        /* \"#utility.yul\":18516:18525   */\n      dup2\n        /* \"#utility.yul\":18510:18514   */\n      dup2\n        /* \"#utility.yul\":18506:18526   */\n      sub\n        /* \"#utility.yul\":18502:18503   */\n      0x00\n        /* \"#utility.yul\":18491:18500   */\n      dup4\n        /* \"#utility.yul\":18487:18504   */\n      add\n        /* \"#utility.yul\":18480:18527   */\n      mstore\n        /* \"#utility.yul\":18544:18675   */\n      tag_608\n        /* \"#utility.yul\":18670:18674   */\n      dup2\n        /* \"#utility.yul\":18544:18675   */\n      tag_403\n      jump\t// in\n    tag_608:\n        /* \"#utility.yul\":18536:18675   */\n      swap1\n      pop\n        /* \"#utility.yul\":18263:18682   */\n      swap2\n      swap1\n      pop\n      jump\t// out\n        /* \"#utility.yul\":18688:18919   */\n    tag_404:\n        /* \"#utility.yul\":18828:18862   */\n      0x4f6e6c7920726567697374657264206269646465722063616e2063616c6c2074\n        /* \"#utility.yul\":18824:18825   */\n      0x00\n        /* \"#utility.yul\":18816:18822   */\n      dup3\n        /* \"#utility.yul\":18812:18826   */\n      add\n        /* \"#utility.yul\":18805:18863   */\n      mstore\n        /* \"#utility.yul\":18897:18911   */\n      0x6869732066756e6374696f6e0000000000000000000000000000000000000000\n        /* \"#utility.yul\":18892:18894   */\n      0x20\n        /* \"#utility.yul\":18884:18890   */\n      dup3\n        /* \"#utility.yul\":18880:18895   */\n      add\n        /* \"#utility.yul\":18873:18912   */\n      mstore\n        /* \"#utility.yul\":18688:18919   */\n      pop\n      jump\t// out\n        /* \"#utility.yul\":18925:19291   */\n    tag_405:\n        /* \"#utility.yul\":19067:19070   */\n      0x00\n        /* \"#utility.yul\":19088:19155   */\n      tag_611\n        /* \"#utility.yul\":19152:19154   */\n      0x2c\n        /* \"#utility.yul\":19147:19150   */\n      dup4\n        /* \"#utility.yul\":19088:19155   */\n      tag_391\n      jump\t// in\n    tag_611:\n        /* \"#utility.yul\":19081:19155   */\n      swap2\n      pop\n        /* \"#utility.yul\":19164:19257   */\n      tag_612\n        /* \"#utility.yul\":19253:19256   */\n      dup3\n        /* \"#utility.yul\":19164:19257   */\n      tag_404\n      jump\t// in\n    tag_612:\n        /* \"#utility.yul\":19282:19284   */\n      0x40\n        /* \"#utility.yul\":19277:19280   */\n      dup3\n        /* \"#utility.yul\":19273:19285   */\n      add\n        /* \"#utility.yul\":19266:19285   */\n      swap1\n      pop\n        /* \"#utility.yul\":18925:19291   */\n      swap2\n      swap1\n      pop\n      jump\t// out\n        /* \"#utility.yul\":19297:19716   */\n    tag_106:\n        /* \"#utility.yul\":19463:19467   */\n      0x00\n        /* \"#utility.yul\":19501:19503   */\n      0x20\n        /* \"#utility.yul\":19490:19499   */\n      dup3\n        /* \"#utility.yul\":19486:19504   */\n      add\n        /* \"#utility.yul\":19478:19504   */\n      swap1\n      pop\n        /* \"#utility.yul\":19550:19559   */\n      dup2\n        /* \"#utility.yul\":19544:19548   */\n      dup2\n        /* \"#utility.yul\":19540:19560   */\n      sub\n        /* \"#utility.yul\":19536:19537   */\n      0x00\n        /* \"#utility.yul\":19525:19534   */\n      dup4\n        /* \"#utility.yul\":19521:19538   */\n      add\n        /* \"#utility.yul\":19514:19561   */\n      mstore\n        /* \"#utility.yul\":19578:19709   */\n      tag_614\n        /* \"#utility.yul\":19704:19708   */\n      dup2\n        /* \"#utility.yul\":19578:19709   */\n      tag_405\n      jump\t// in\n    tag_614:\n        /* \"#utility.yul\":19570:19709   */\n      swap1\n      pop\n        /* \"#utility.yul\":19297:19716   */\n      swap2\n      swap1\n      pop\n      jump\t// out\n        /* \"#utility.yul\":19722:19902   */\n    tag_406:\n        /* \"#utility.yul\":19770:19847   */\n      0x4e487b7100000000000000000000000000000000000000000000000000000000\n        /* \"#utility.yul\":19767:19768   */\n      0x00\n        /* \"#utility.yul\":19760:19848   */\n      mstore\n        /* \"#utility.yul\":19867:19871   */\n      0x22\n        /* \"#utility.yul\":19864:19865   */\n      0x04\n        /* \"#utility.yul\":19857:19872   */\n      mstore\n        /* \"#utility.yul\":19891:19895   */\n      0x24\n        /* \"#utility.yul\":19888:19889   */\n      0x00\n        /* \"#utility.yul\":19881:19896   */\n      revert\n        /* \"#utility.yul\":19908:20228   */\n    tag_119:\n        /* \"#utility.yul\":19952:19958   */\n      0x00\n        /* \"#utility.yul\":19989:19990   */\n      0x02\n        /* \"#utility.yul\":19983:19987   */\n      dup3\n        /* \"#utility.yul\":19979:19991   */\n      div\n        /* \"#utility.yul\":19969:19991   */\n      swap1\n      pop\n        /* \"#utility.yul\":20036:20037   */\n      0x01\n        /* \"#utility.yul\":20030:20034   */\n      dup3\n        /* \"#utility.yul\":20026:20038   */\n      and\n        /* \"#utility.yul\":20057:20075   */\n      dup1\n        /* \"#utility.yul\":20047:20128   */\n      tag_617\n      jumpi\n        /* \"#utility.yul\":20113:20117   */\n      0x7f\n        /* \"#utility.yul\":20105:20111   */\n      dup3\n        /* \"#utility.yul\":20101:20118   */\n      and\n        /* \"#utility.yul\":20091:20118   */\n      swap2\n      pop\n        /* \"#utility.yul\":20047:20128   */\n    tag_617:\n        /* \"#utility.yul\":20175:20177   */\n      0x20\n        /* \"#utility.yul\":20167:20173   */\n      dup3\n        /* \"#utility.yul\":20164:20178   */\n      lt\n        /* \"#utility.yul\":20144:20162   */\n      dup2\n        /* \"#utility.yul\":20141:20179   */\n      sub\n        /* \"#utility.yul\":20138:20222   */\n      tag_618\n      jumpi\n        /* \"#utility.yul\":20194:20212   */\n      tag_619\n      tag_406\n      jump\t// in\n    tag_619:\n        /* \"#utility.yul\":20138:20222   */\n    tag_618:\n        /* \"#utility.yul\":19959:20228   */\n      pop\n        /* \"#utility.yul\":19908:20228   */\n      swap2\n      swap1\n      pop\n      jump\t// out\n        /* \"#utility.yul\":20234:20375   */\n    tag_407:\n        /* \"#utility.yul\":20283:20287   */\n      0x00\n        /* \"#utility.yul\":20306:20309   */\n      dup2\n        /* \"#utility.yul\":20298:20309   */\n      swap1\n      pop\n        /* \"#utility.yul\":20329:20332   */\n      dup2\n        /* \"#utility.yul\":20326:20327   */\n      0x00\n        /* \"#utility.yul\":20319:20333   */\n      mstore\n        /* \"#utility.yul\":20363:20367   */\n      0x20\n        /* \"#utility.yul\":20360:20361   */\n      0x00\n        /* \"#utility.yul\":20350:20368   */\n      keccak256\n        /* \"#utility.yul\":20342:20368   */\n      swap1\n      pop\n        /* \"#utility.yul\":20234:20375   */\n      swap2\n      swap1\n      pop\n      jump\t// out\n        /* \"#utility.yul\":20381:20474   */\n    tag_408:\n        /* \"#utility.yul\":20418:20424   */\n      0x00\n        /* \"#utility.yul\":20465:20467   */\n      0x20\n        /* \"#utility.yul\":20460:20462   */\n      0x1f\n        /* \"#utility.yul\":20453:20458   */\n      dup4\n        /* \"#utility.yul\":20449:20463   */\n      add\n        /* \"#utility.yul\":20445:20468   */\n      div\n        /* \"#utility.yul\":20435:20468   */\n      swap1\n      pop\n        /* \"#utility.yul\":20381:20474   */\n      swap2\n      swap1\n      pop\n      jump\t// out\n        /* \"#utility.yul\":20480:20587   */\n    tag_409:\n        /* \"#utility.yul\":20524:20532   */\n      0x00\n        /* \"#utility.yul\":20574:20579   */\n      dup3\n        /* \"#utility.yul\":20568:20572   */\n      dup3\n        /* \"#utility.yul\":20564:20580   */\n      shl\n        /* \"#utility.yul\":20543:20580   */\n      swap1\n      pop\n        /* \"#utility.yul\":20480:20587   */\n      swap3\n      swap2\n      pop\n      pop\n      jump\t// out\n        /* \"#utility.yul\":20593:20986   */\n    tag_410:\n        /* \"#utility.yul\":20662:20668   */\n      0x00\n        /* \"#utility.yul\":20712:20713   */\n      0x08\n        /* \"#utility.yul\":20700:20710   */\n      dup4\n        /* \"#utility.yul\":20696:20714   */\n      mul\n        /* \"#utility.yul\":20735:20832   */\n      tag_624\n        /* \"#utility.yul\":20765:20831   */\n      0xffffffffffffffffffffffffffffffffffffffffffffffffffffffffffffffff\n        /* \"#utility.yul\":20754:20763   */\n      dup3\n        /* \"#utility.yul\":20735:20832   */\n      tag_409\n      jump\t// in\n    tag_624:\n        /* \"#utility.yul\":20853:20892   */\n      tag_625\n        /* \"#utility.yul\":20883:20891   */\n      dup7\n        /* \"#utility.yul\":20872:20881   */\n      dup4\n        /* \"#utility.yul\":20853:20892   */\n      tag_409\n      jump\t// in\n    tag_625:\n        /* \"#utility.yul\":20841:20892   */\n      swap6\n      pop\n        /* \"#utility.yul\":20925:20929   */\n      dup1\n        /* \"#utility.yul\":20921:20930   */\n      not\n        /* \"#utility.yul\":20914:20919   */\n      dup5\n        /* \"#utility.yul\":20910:20931   */\n      and\n        /* \"#utility.yul\":20901:20931   */\n      swap4\n      pop\n        /* \"#utility.yul\":20974:20978   */\n      dup1\n        /* \"#utility.yul\":20964:20972   */\n      dup7\n        /* \"#utility.yul\":20960:20979   */\n      and\n        /* \"#utility.yul\":20953:20958   */\n      dup5\n        /* \"#utility.yul\":20950:20980   */\n      or\n        /* \"#utility.yul\":20940:20980   */\n      swap3\n      pop\n        /* \"#utility.yul\":20669:20986   */\n      pop\n      pop\n        /* \"#utility.yul\":20593:20986   */\n      swap4\n      swap3\n      pop\n      pop\n      pop\n      jump\t// out\n        /* \"#utility.yul\":20992:21052   */\n    tag_411:\n        /* \"#utility.yul\":21020:21023   */\n      0x00\n        /* \"#utility.yul\":21041:21046   */\n      dup2\n        /* \"#utility.yul\":21034:21046   */\n      swap1\n      pop\n        /* \"#utility.yul\":20992:21052   */\n      swap2\n      swap1\n      pop\n      jump\t// out\n        /* \"#utility.yul\":21058:21200   */\n    tag_412:\n        /* \"#utility.yul\":21108:21117   */\n      0x00\n        /* \"#utility.yul\":21141:21194   */\n      tag_628\n        /* \"#utility.yul\":21159:21193   */\n      tag_629\n        /* \"#utility.yul\":21168:21192   */\n      tag_630\n        /* \"#utility.yul\":21186:21191   */\n      dup5\n        /* \"#utility.yul\":21168:21192   */\n      tag_361\n      jump\t// in\n    tag_630:\n        /* \"#utility.yul\":21159:21193   */\n      tag_411\n      jump\t// in\n    tag_629:\n        /* \"#utility.yul\":21141:21194   */\n      tag_361\n      jump\t// in\n    tag_628:\n        /* \"#utility.yul\":21128:21194   */\n      swap1\n      pop\n        /* \"#utility.yul\":21058:21200   */\n      swap2\n      swap1\n      pop\n      jump\t// out\n        /* \"#utility.yul\":21206:21281   */\n    tag_413:\n        /* \"#utility.yul\":21249:21252   */\n      0x00\n        /* \"#utility.yul\":21270:21275   */\n      dup2\n        /* \"#utility.yul\":21263:21275   */\n      swap1\n      pop\n        /* \"#utility.yul\":21206:21281   */\n      swap2\n      swap1\n      pop\n      jump\t// out\n        /* \"#utility.yul\":21287:21556   */\n    tag_414:\n        /* \"#utility.yul\":21397:21436   */\n      tag_633\n        /* \"#utility.yul\":21428:21435   */\n      dup4\n        /* \"#utility.yul\":21397:21436   */\n      tag_412\n      jump\t// in\n    tag_633:\n        /* \"#utility.yul\":21458:21549   */\n      tag_634\n        /* \"#utility.yul\":21507:21548   */\n      tag_635\n        /* \"#utility.yul\":21531:21547   */\n      dup3\n        /* \"#utility.yul\":21507:21548   */\n      tag_413\n      jump\t// in\n    tag_635:\n        /* \"#utility.yul\":21499:21505   */\n      dup5\n        /* \"#utility.yul\":21492:21496   */\n      dup5\n        /* \"#utility.yul\":21486:21497   */\n      sload\n        /* \"#utility.yul\":21458:21549   */\n      tag_410\n      jump\t// in\n    tag_634:\n        /* \"#utility.yul\":21452:21456   */\n      dup3\n        /* \"#utility.yul\":21445:21550   */\n      sstore\n        /* \"#utility.yul\":21363:21556   */\n      pop\n        /* \"#utility.yul\":21287:21556   */\n      pop\n      pop\n      pop\n      jump\t// out\n        /* \"#utility.yul\":21562:21635   */\n    tag_415:\n        /* \"#utility.yul\":21607:21610   */\n      0x00\n        /* \"#utility.yul\":21562:21635   */\n      swap1\n      jump\t// out\n        /* \"#utility.yul\":21641:21830   */\n    tag_416:\n        /* \"#utility.yul\":21718:21750   */\n      tag_638\n      tag_415\n      jump\t// in\n    tag_638:\n        /* \"#utility.yul\":21759:21824   */\n      tag_639\n        /* \"#utility.yul\":21817:21823   */\n      dup2\n        /* \"#utility.yul\":21809:21815   */\n      dup5\n        /* \"#utility.yul\":21803:21807   */\n      dup5\n        /* \"#utility.yul\":21759:21824   */\n      tag_414\n      jump\t// in\n    tag_639:\n        /* \"#utility.yul\":21694:21830   */\n      pop\n        /* \"#utility.yul\":21641:21830   */\n      pop\n      pop\n      jump\t// out\n        /* \"#utility.yul\":21836:22022   */\n    tag_417:\n        /* \"#utility.yul\":21896:22016   */\n    tag_641:\n        /* \"#utility.yul\":21913:21916   */\n      dup2\n        /* \"#utility.yul\":21906:21911   */\n      dup2\n        /* \"#utility.yul\":21903:21917   */\n      lt\n        /* \"#utility.yul\":21896:22016   */\n      iszero\n      tag_643\n      jumpi\n        /* \"#utility.yul\":21967:22006   */\n      tag_644\n        /* \"#utility.yul\":22004:22005   */\n      0x00\n        /* \"#utility.yul\":21997:22002   */\n      dup3\n        /* \"#utility.yul\":21967:22006   */\n      tag_416\n      jump\t// in\n    tag_644:\n        /* \"#utility.yul\":21940:21941   */\n      0x01\n        /* \"#utility.yul\":21933:21938   */\n      dup2\n        /* \"#utility.yul\":21929:21942   */\n      add\n        /* \"#utility.yul\":21920:21942   */\n      swap1\n      pop\n        /* \"#utility.yul\":21896:22016   */\n      jump(tag_641)\n    tag_643:\n        /* \"#utility.yul\":21836:22022   */\n      pop\n      pop\n      jump\t// out\n        /* \"#utility.yul\":22028:22571   */\n    tag_418:\n        /* \"#utility.yul\":22129:22131   */\n      0x1f\n        /* \"#utility.yul\":22124:22127   */\n      dup3\n        /* \"#utility.yul\":22121:22132   */\n      gt\n        /* \"#utility.yul\":22118:22564   */\n      iszero\n      tag_646\n      jumpi\n        /* \"#utility.yul\":22163:22201   */\n      tag_647\n        /* \"#utility.yul\":22195:22200   */\n      dup2\n        /* \"#utility.yul\":22163:22201   */\n      tag_407\n      jump\t// in\n    tag_647:\n        /* \"#utility.yul\":22247:22276   */\n      tag_648\n        /* \"#utility.yul\":22265:22275   */\n      dup5\n        /* \"#utility.yul\":22247:22276   */\n      tag_408\n      jump\t// in\n    tag_648:\n        /* \"#utility.yul\":22237:22245   */\n      dup2\n        /* \"#utility.yul\":22233:22277   */\n      add\n        /* \"#utility.yul\":22430:22432   */\n      0x20\n        /* \"#utility.yul\":22418:22428   */\n      dup6\n        /* \"#utility.yul\":22415:22433   */\n      lt\n        /* \"#utility.yul\":22412:22461   */\n      iszero\n      tag_649\n      jumpi\n        /* \"#utility.yul\":22451:22459   */\n      dup2\n        /* \"#utility.yul\":22436:22459   */\n      swap1\n      pop\n        /* \"#utility.yul\":22412:22461   */\n    tag_649:\n        /* \"#utility.yul\":22474:22554   */\n      tag_650\n        /* \"#utility.yul\":22530:22552   */\n      tag_651\n        /* \"#utility.yul\":22548:22551   */\n      dup6\n        /* \"#utility.yul\":22530:22552   */\n      tag_408\n      jump\t// in\n    tag_651:\n        /* \"#utility.yul\":22520:22528   */\n      dup4\n        /* \"#utility.yul\":22516:22553   */\n      add\n        /* \"#utility.yul\":22503:22514   */\n      dup3\n        /* \"#utility.yul\":22474:22554   */\n      tag_417\n      jump\t// in\n    tag_650:\n        /* \"#utility.yul\":22133:22564   */\n      pop\n      pop\n        /* \"#utility.yul\":22118:22564   */\n    tag_646:\n        /* \"#utility.yul\":22028:22571   */\n      pop\n      pop\n      pop\n      jump\t// out\n        /* \"#utility.yul\":22577:22694   */\n    tag_419:\n        /* \"#utility.yul\":22631:22639   */\n      0x00\n        /* \"#utility.yul\":22681:22686   */\n      dup3\n        /* \"#utility.yul\":22675:22679   */\n      dup3\n        /* \"#utility.yul\":22671:22687   */\n      shr\n        /* \"#utility.yul\":22650:22687   */\n      swap1\n      pop\n        /* \"#utility.yul\":22577:22694   */\n      swap3\n      swap2\n      pop\n      pop\n      jump\t// out\n        /* \"#utility.yul\":22700:22869   */\n    tag_420:\n        /* \"#utility.yul\":22744:22750   */\n      0x00\n        /* \"#utility.yul\":22777:22828   */\n      tag_654\n        /* \"#utility.yul\":22825:22826   */\n      0x00\n        /* \"#utility.yul\":22821:22827   */\n      not\n        /* \"#utility.yul\":22813:22818   */\n      dup5\n        /* \"#utility.yul\":22810:22811   */\n      0x08\n        /* \"#utility.yul\":22806:22819   */\n      mul\n        /* \"#utility.yul\":22777:22828   */\n      tag_419\n      jump\t// in\n    tag_654:\n        /* \"#utility.yul\":22773:22829   */\n      not\n        /* \"#utility.yul\":22858:22862   */\n      dup1\n        /* \"#utility.yul\":22852:22856   */\n      dup4\n        /* \"#utility.yul\":22848:22863   */\n      and\n        /* \"#utility.yul\":22838:22863   */\n      swap2\n      pop\n        /* \"#utility.yul\":22751:22869   */\n      pop\n        /* \"#utility.yul\":22700:22869   */\n      swap3\n      swap2\n      pop\n      pop\n      jump\t// out\n        /* \"#utility.yul\":22874:23169   */\n    tag_421:\n        /* \"#utility.yul\":22950:22954   */\n      0x00\n        /* \"#utility.yul\":23096:23125   */\n      tag_656\n        /* \"#utility.yul\":23121:23124   */\n      dup4\n        /* \"#utility.yul\":23115:23119   */\n      dup4\n        /* \"#utility.yul\":23096:23125   */\n      tag_420\n      jump\t// in\n    tag_656:\n        /* \"#utility.yul\":23088:23125   */\n      swap2\n      pop\n        /* \"#utility.yul\":23158:23161   */\n      dup3\n        /* \"#utility.yul\":23155:23156   */\n      0x02\n        /* \"#utility.yul\":23151:23162   */\n      mul\n        /* \"#utility.yul\":23145:23149   */\n      dup3\n        /* \"#utility.yul\":23142:23163   */\n      or\n        /* \"#utility.yul\":23134:23163   */\n      swap1\n      pop\n        /* \"#utility.yul\":22874:23169   */\n      swap3\n      swap2\n      pop\n      pop\n      jump\t// out\n        /* \"#utility.yul\":23174:24569   */\n    tag_110:\n        /* \"#utility.yul\":23291:23328   */\n      tag_658\n        /* \"#utility.yul\":23324:23327   */\n      dup3\n        /* \"#utility.yul\":23291:23328   */\n      tag_378\n      jump\t// in\n    tag_658:\n        /* \"#utility.yul\":23393:23411   */\n      0xffffffffffffffff\n        /* \"#utility.yul\":23385:23391   */\n      dup2\n        /* \"#utility.yul\":23382:23412   */\n      gt\n        /* \"#utility.yul\":23379:23435   */\n      iszero\n      tag_659\n      jumpi\n        /* \"#utility.yul\":23415:23433   */\n      tag_660\n      tag_305\n      jump\t// in\n    tag_660:\n        /* \"#utility.yul\":23379:23435   */\n    tag_659:\n        /* \"#utility.yul\":23459:23497   */\n      tag_661\n        /* \"#utility.yul\":23491:23495   */\n      dup3\n        /* \"#utility.yul\":23485:23496   */\n      sload\n        /* \"#utility.yul\":23459:23497   */\n      tag_119\n      jump\t// in\n    tag_661:\n        /* \"#utility.yul\":23544:23611   */\n      tag_662\n        /* \"#utility.yul\":23604:23610   */\n      dup3\n        /* \"#utility.yul\":23596:23602   */\n      dup3\n        /* \"#utility.yul\":23590:23594   */\n      dup6\n        /* \"#utility.yul\":23544:23611   */\n      tag_418\n      jump\t// in\n    tag_662:\n        /* \"#utility.yul\":23638:23639   */\n      0x00\n        /* \"#utility.yul\":23662:23666   */\n      0x20\n        /* \"#utility.yul\":23649:23666   */\n      swap1\n      pop\n        /* \"#utility.yul\":23694:23696   */\n      0x1f\n        /* \"#utility.yul\":23686:23692   */\n      dup4\n        /* \"#utility.yul\":23683:23697   */\n      gt\n        /* \"#utility.yul\":23711:23712   */\n      0x01\n        /* \"#utility.yul\":23706:24324   */\n      dup2\n      eq\n      tag_664\n      jumpi\n        /* \"#utility.yul\":24368:24369   */\n      0x00\n        /* \"#utility.yul\":24385:24391   */\n      dup5\n        /* \"#utility.yul\":24382:24459   */\n      iszero\n      tag_665\n      jumpi\n        /* \"#utility.yul\":24434:24443   */\n      dup3\n        /* \"#utility.yul\":24429:24432   */\n      dup8\n        /* \"#utility.yul\":24425:24444   */\n      add\n        /* \"#utility.yul\":24419:24445   */\n      mload\n        /* \"#utility.yul\":24410:24445   */\n      swap1\n      pop\n        /* \"#utility.yul\":24382:24459   */\n    tag_665:\n        /* \"#utility.yul\":24485:24552   */\n      tag_666\n        /* \"#utility.yul\":24545:24551   */\n      dup6\n        /* \"#utility.yul\":24538:24543   */\n      dup3\n        /* \"#utility.yul\":24485:24552   */\n      tag_421\n      jump\t// in\n    tag_666:\n        /* \"#utility.yul\":24479:24483   */\n      dup7\n        /* \"#utility.yul\":24472:24553   */\n      sstore\n        /* \"#utility.yul\":24341:24563   */\n      pop\n        /* \"#utility.yul\":23676:24563   */\n      jump(tag_663)\n        /* \"#utility.yul\":23706:24324   */\n    tag_664:\n        /* \"#utility.yul\":23758:23762   */\n      0x1f\n        /* \"#utility.yul\":23754:23763   */\n      not\n        /* \"#utility.yul\":23746:23752   */\n      dup5\n        /* \"#utility.yul\":23742:23764   */\n      and\n        /* \"#utility.yul\":23792:23829   */\n      tag_667\n        /* \"#utility.yul\":23824:23828   */\n      dup7\n        /* \"#utility.yul\":23792:23829   */\n      tag_407\n      jump\t// in\n    tag_667:\n        /* \"#utility.yul\":23851:23852   */\n      0x00\n        /* \"#utility.yul\":23865:24073   */\n    tag_668:\n        /* \"#utility.yul\":23879:23886   */\n      dup3\n        /* \"#utility.yul\":23876:23877   */\n      dup2\n        /* \"#utility.yul\":23873:23887   */\n      lt\n        /* \"#utility.yul\":23865:24073   */\n      iszero\n      tag_670\n      jumpi\n        /* \"#utility.yul\":23958:23967   */\n      dup5\n        /* \"#utility.yul\":23953:23956   */\n      dup10\n        /* \"#utility.yul\":23949:23968   */\n      add\n        /* \"#utility.yul\":23943:23969   */\n      mload\n        /* \"#utility.yul\":23935:23941   */\n      dup3\n        /* \"#utility.yul\":23928:23970   */\n      sstore\n        /* \"#utility.yul\":24009:24010   */\n      0x01\n        /* \"#utility.yul\":24001:24007   */\n      dup3\n        /* \"#utility.yul\":23997:24011   */\n      add\n        /* \"#utility.yul\":23987:24011   */\n      swap2\n      pop\n        /* \"#utility.yul\":24056:24058   */\n      0x20\n        /* \"#utility.yul\":24045:24054   */\n      dup6\n        /* \"#utility.yul\":24041:24059   */\n      add\n        /* \"#utility.yul\":24028:24059   */\n      swap5\n      pop\n        /* \"#utility.yul\":23902:23906   */\n      0x20\n        /* \"#utility.yul\":23899:23900   */\n      dup2\n        /* \"#utility.yul\":23895:23907   */\n      add\n        /* \"#utility.yul\":23890:23907   */\n      swap1\n      pop\n        /* \"#utility.yul\":23865:24073   */\n      jump(tag_668)\n    tag_670:\n        /* \"#utility.yul\":24101:24107   */\n      dup7\n        /* \"#utility.yul\":24092:24099   */\n      dup4\n        /* \"#utility.yul\":24089:24108   */\n      lt\n        /* \"#utility.yul\":24086:24265   */\n      iszero\n      tag_671\n      jumpi\n        /* \"#utility.yul\":24159:24168   */\n      dup5\n        /* \"#utility.yul\":24154:24157   */\n      dup10\n        /* \"#utility.yul\":24150:24169   */\n      add\n        /* \"#utility.yul\":24144:24170   */\n      mload\n        /* \"#utility.yul\":24202:24250   */\n      tag_672\n        /* \"#utility.yul\":24244:24248   */\n      0x1f\n        /* \"#utility.yul\":24236:24242   */\n      dup10\n        /* \"#utility.yul\":24232:24249   */\n      and\n        /* \"#utility.yul\":24221:24230   */\n      dup3\n        /* \"#utility.yul\":24202:24250   */\n      tag_420\n      jump\t// in\n    tag_672:\n        /* \"#utility.yul\":24194:24200   */\n      dup4\n        /* \"#utility.yul\":24187:24251   */\n      sstore\n        /* \"#utility.yul\":24109:24265   */\n      pop\n        /* \"#utility.yul\":24086:24265   */\n    tag_671:\n        /* \"#utility.yul\":24311:24312   */\n      0x01\n        /* \"#utility.yul\":24307:24308   */\n      0x02\n        /* \"#utility.yul\":24299:24305   */\n      dup9\n        /* \"#utility.yul\":24295:24309   */\n      mul\n        /* \"#utility.yul\":24291:24313   */\n      add\n        /* \"#utility.yul\":24285:24289   */\n      dup9\n        /* \"#utility.yul\":24278:24314   */\n      sstore\n        /* \"#utility.yul\":23713:24324   */\n      pop\n      pop\n      pop\n        /* \"#utility.yul\":23676:24563   */\n    tag_663:\n      pop\n        /* \"#utility.yul\":23266:24569   */\n      pop\n      pop\n      pop\n        /* \"#utility.yul\":23174:24569   */\n      pop\n      pop\n      jump\t// out\n        /* \"#utility.yul\":24575:24754   */\n    tag_422:\n        /* \"#utility.yul\":24715:24746   */\n      0x41756374696f6e206973206e6f7420636f6d706c65746564207965742e000000\n        /* \"#utility.yul\":24711:24712   */\n      0x00\n        /* \"#utility.yul\":24703:24709   */\n      dup3\n        /* \"#utility.yul\":24699:24713   */\n      add\n        /* \"#utility.yul\":24692:24747   */\n      mstore\n        /* \"#utility.yul\":24575:24754   */\n      pop\n      jump\t// out\n        /* \"#utility.yul\":24760:25126   */\n    tag_423:\n        /* \"#utility.yul\":24902:24905   */\n      0x00\n        /* \"#utility.yul\":24923:24990   */\n      tag_675\n        /* \"#utility.yul\":24987:24989   */\n      0x1d\n        /* \"#utility.yul\":24982:24985   */\n      dup4\n        /* \"#utility.yul\":24923:24990   */\n      tag_391\n      jump\t// in\n    tag_675:\n        /* \"#utility.yul\":24916:24990   */\n      swap2\n      pop\n        /* \"#utility.yul\":24999:25092   */\n      tag_676\n        /* \"#utility.yul\":25088:25091   */\n      dup3\n        /* \"#utility.yul\":24999:25092   */\n      tag_422\n      jump\t// in\n    tag_676:\n        /* \"#utility.yul\":25117:25119   */\n      0x20\n        /* \"#utility.yul\":25112:25115   */\n      dup3\n        /* \"#utility.yul\":25108:25120   */\n      add\n        /* \"#utility.yul\":25101:25120   */\n      swap1\n      pop\n        /* \"#utility.yul\":24760:25126   */\n      swap2\n      swap1\n      pop\n      jump\t// out\n        /* \"#utility.yul\":25132:25551   */\n    tag_127:\n        /* \"#utility.yul\":25298:25302   */\n      0x00\n        /* \"#utility.yul\":25336:25338   */\n      0x20\n        /* \"#utility.yul\":25325:25334   */\n      dup3\n        /* \"#utility.yul\":25321:25339   */\n      add\n        /* \"#utility.yul\":25313:25339   */\n      swap1\n      pop\n        /* \"#utility.yul\":25385:25394   */\n      dup2\n        /* \"#utility.yul\":25379:25383   */\n      dup2\n        /* \"#utility.yul\":25375:25395   */\n      sub\n        /* \"#utility.yul\":25371:25372   */\n      0x00\n        /* \"#utility.yul\":25360:25369   */\n      dup4\n        /* \"#utility.yul\":25356:25373   */\n      add\n        /* \"#utility.yul\":25349:25396   */\n      mstore\n        /* \"#utility.yul\":25413:25544   */\n      tag_678\n        /* \"#utility.yul\":25539:25543   */\n      dup2\n        /* \"#utility.yul\":25413:25544   */\n      tag_423\n      jump\t// in\n    tag_678:\n        /* \"#utility.yul\":25405:25544   */\n      swap1\n      pop\n        /* \"#utility.yul\":25132:25551   */\n      swap2\n      swap1\n      pop\n      jump\t// out\n        /* \"#utility.yul\":25557:25737   */\n    tag_133:\n        /* \"#utility.yul\":25605:25682   */\n      0x4e487b7100000000000000000000000000000000000000000000000000000000\n        /* \"#utility.yul\":25602:25603   */\n      0x00\n        /* \"#utility.yul\":25595:25683   */\n      mstore\n        /* \"#utility.yul\":25702:25706   */\n      0x32\n        /* \"#utility.yul\":25699:25700   */\n      0x04\n        /* \"#utility.yul\":25692:25707   */\n      mstore\n        /* \"#utility.yul\":25726:25730   */\n      0x24\n        /* \"#utility.yul\":25723:25724   */\n      0x00\n        /* \"#utility.yul\":25716:25731   */\n      revert\n        /* \"#utility.yul\":25743:25923   */\n    tag_424:\n        /* \"#utility.yul\":25791:25868   */\n      0x4e487b7100000000000000000000000000000000000000000000000000000000\n        /* \"#utility.yul\":25788:25789   */\n      0x00\n        /* \"#utility.yul\":25781:25869   */\n      mstore\n        /* \"#utility.yul\":25888:25892   */\n      0x11\n        /* \"#utility.yul\":25885:25886   */\n      0x04\n        /* \"#utility.yul\":25878:25893   */\n      mstore\n        /* \"#utility.yul\":25912:25916   */\n      0x24\n        /* \"#utility.yul\":25909:25910   */\n      0x00\n        /* \"#utility.yul\":25902:25917   */\n      revert\n        /* \"#utility.yul\":25929:26120   */\n    tag_136:\n        /* \"#utility.yul\":25969:25972   */\n      0x00\n        /* \"#utility.yul\":25988:26008   */\n      tag_682\n        /* \"#utility.yul\":26006:26007   */\n      dup3\n        /* \"#utility.yul\":25988:26008   */\n      tag_361\n      jump\t// in\n    tag_682:\n        /* \"#utility.yul\":25983:26008   */\n      swap2\n      pop\n        /* \"#utility.yul\":26022:26042   */\n      tag_683\n        /* \"#utility.yul\":26040:26041   */\n      dup4\n        /* \"#utility.yul\":26022:26042   */\n      tag_361\n      jump\t// in\n    tag_683:\n        /* \"#utility.yul\":26017:26042   */\n      swap3\n      pop\n        /* \"#utility.yul\":26065:26066   */\n      dup3\n        /* \"#utility.yul\":26062:26063   */\n      dup3\n        /* \"#utility.yul\":26058:26067   */\n      add\n        /* \"#utility.yul\":26051:26067   */\n      swap1\n      pop\n        /* \"#utility.yul\":26086:26089   */\n      dup1\n        /* \"#utility.yul\":26083:26084   */\n      dup3\n        /* \"#utility.yul\":26080:26090   */\n      gt\n        /* \"#utility.yul\":26077:26113   */\n      iszero\n      tag_684\n      jumpi\n        /* \"#utility.yul\":26093:26111   */\n      tag_685\n      tag_424\n      jump\t// in\n    tag_685:\n        /* \"#utility.yul\":26077:26113   */\n    tag_684:\n        /* \"#utility.yul\":25929:26120   */\n      swap3\n      swap2\n      pop\n      pop\n      jump\t// out\n        /* \"#utility.yul\":26126:26359   */\n    tag_425:\n        /* \"#utility.yul\":26266:26300   */\n      0x5468652062696420616e64206e6f6e636520796f75207375626d697474656420\n        /* \"#utility.yul\":26262:26263   */\n      0x00\n        /* \"#utility.yul\":26254:26260   */\n      dup3\n        /* \"#utility.yul\":26250:26264   */\n      add\n        /* \"#utility.yul\":26243:26301   */\n      mstore\n        /* \"#utility.yul\":26335:26351   */\n      0x617265206e6f742076616c69642e000000000000000000000000000000000000\n        /* \"#utility.yul\":26330:26332   */\n      0x20\n        /* \"#utility.yul\":26322:26328   */\n      dup3\n        /* \"#utility.yul\":26318:26333   */\n      add\n        /* \"#utility.yul\":26311:26352   */\n      mstore\n        /* \"#utility.yul\":26126:26359   */\n      pop\n      jump\t// out\n        /* \"#utility.yul\":26365:26731   */\n    tag_426:\n        /* \"#utility.yul\":26507:26510   */\n      0x00\n        /* \"#utility.yul\":26528:26595   */\n      tag_688\n        /* \"#utility.yul\":26592:26594   */\n      0x2e\n        /* \"#utility.yul\":26587:26590   */\n      dup4\n        /* \"#utility.yul\":26528:26595   */\n      tag_391\n      jump\t// in\n    tag_688:\n        /* \"#utility.yul\":26521:26595   */\n      swap2\n      pop\n        /* \"#utility.yul\":26604:26697   */\n      tag_689\n        /* \"#utility.yul\":26693:26696   */\n      dup3\n        /* \"#utility.yul\":26604:26697   */\n      tag_425\n      jump\t// in\n    tag_689:\n        /* \"#utility.yul\":26722:26724   */\n      0x40\n        /* \"#utility.yul\":26717:26720   */\n      dup3\n        /* \"#utility.yul\":26713:26725   */\n      add\n        /* \"#utility.yul\":26706:26725   */\n      swap1\n      pop\n        /* \"#utility.yul\":26365:26731   */\n      swap2\n      swap1\n      pop\n      jump\t// out\n        /* \"#utility.yul\":26737:27156   */\n    tag_153:\n        /* \"#utility.yul\":26903:26907   */\n      0x00\n        /* \"#utility.yul\":26941:26943   */\n      0x20\n        /* \"#utility.yul\":26930:26939   */\n      dup3\n        /* \"#utility.yul\":26926:26944   */\n      add\n        /* \"#utility.yul\":26918:26944   */\n      swap1\n      pop\n        /* \"#utility.yul\":26990:26999   */\n      dup2\n        /* \"#utility.yul\":26984:26988   */\n      dup2\n        /* \"#utility.yul\":26980:27000   */\n      sub\n        /* \"#utility.yul\":26976:26977   */\n      0x00\n        /* \"#utility.yul\":26965:26974   */\n      dup4\n        /* \"#utility.yul\":26961:26978   */\n      add\n        /* \"#utility.yul\":26954:27001   */\n      mstore\n        /* \"#utility.yul\":27018:27149   */\n      tag_691\n        /* \"#utility.yul\":27144:27148   */\n      dup2\n        /* \"#utility.yul\":27018:27149   */\n      tag_426\n      jump\t// in\n    tag_691:\n        /* \"#utility.yul\":27010:27149   */\n      swap1\n      pop\n        /* \"#utility.yul\":26737:27156   */\n      swap2\n      swap1\n      pop\n      jump\t// out\n        /* \"#utility.yul\":27162:27461   */\n    tag_427:\n        /* \"#utility.yul\":27302:27336   */\n      0x596f75722064697370757465206973206e6f742076616c69642073696e636520\n        /* \"#utility.yul\":27298:27299   */\n      0x00\n        /* \"#utility.yul\":27290:27296   */\n      dup3\n        /* \"#utility.yul\":27286:27300   */\n      add\n        /* \"#utility.yul\":27279:27337   */\n      mstore\n        /* \"#utility.yul\":27371:27405   */\n      0x6974206973206e6f742067726561746572207468616e206174206c6561737420\n        /* \"#utility.yul\":27366:27368   */\n      0x20\n        /* \"#utility.yul\":27358:27364   */\n      dup3\n        /* \"#utility.yul\":27354:27369   */\n      add\n        /* \"#utility.yul\":27347:27406   */\n      mstore\n        /* \"#utility.yul\":27440:27453   */\n      0x6f6e652077696e6e65722e000000000000000000000000000000000000000000\n        /* \"#utility.yul\":27435:27437   */\n      0x40\n        /* \"#utility.yul\":27427:27433   */\n      dup3\n        /* \"#utility.yul\":27423:27438   */\n      add\n        /* \"#utility.yul\":27416:27454   */\n      mstore\n        /* \"#utility.yul\":27162:27461   */\n      pop\n      jump\t// out\n        /* \"#utility.yul\":27467:27833   */\n    tag_428:\n        /* \"#utility.yul\":27609:27612   */\n      0x00\n        /* \"#utility.yul\":27630:27697   */\n      tag_694\n        /* \"#utility.yul\":27694:27696   */\n      0x4b\n        /* \"#utility.yul\":27689:27692   */\n      dup4\n        /* \"#utility.yul\":27630:27697   */\n      tag_391\n      jump\t// in\n    tag_694:\n        /* \"#utility.yul\":27623:27697   */\n      swap2\n      pop\n        /* \"#utility.yul\":27706:27799   */\n      tag_695\n        /* \"#utility.yul\":27795:27798   */\n      dup3\n        /* \"#utility.yul\":27706:27799   */\n      tag_427\n      jump\t// in\n    tag_695:\n        /* \"#utility.yul\":27824:27826   */\n      0x60\n        /* \"#utility.yul\":27819:27822   */\n      dup3\n        /* \"#utility.yul\":27815:27827   */\n      add\n        /* \"#utility.yul\":27808:27827   */\n      swap1\n      pop\n        /* \"#utility.yul\":27467:27833   */\n      swap2\n      swap1\n      pop\n      jump\t// out\n        /* \"#utility.yul\":27839:28258   */\n    tag_158:\n        /* \"#utility.yul\":28005:28009   */\n      0x00\n        /* \"#utility.yul\":28043:28045   */\n      0x20\n        /* \"#utility.yul\":28032:28041   */\n      dup3\n        /* \"#utility.yul\":28028:28046   */\n      add\n        /* \"#utility.yul\":28020:28046   */\n      swap1\n      pop\n        /* \"#utility.yul\":28092:28101   */\n      dup2\n        /* \"#utility.yul\":28086:28090   */\n      dup2\n        /* \"#utility.yul\":28082:28102   */\n      sub\n        /* \"#utility.yul\":28078:28079   */\n      0x00\n        /* \"#utility.yul\":28067:28076   */\n      dup4\n        /* \"#utility.yul\":28063:28080   */\n      add\n        /* \"#utility.yul\":28056:28103   */\n      mstore\n        /* \"#utility.yul\":28120:28251   */\n      tag_697\n        /* \"#utility.yul\":28246:28250   */\n      dup2\n        /* \"#utility.yul\":28120:28251   */\n      tag_428\n      jump\t// in\n    tag_697:\n        /* \"#utility.yul\":28112:28251   */\n      swap1\n      pop\n        /* \"#utility.yul\":27839:28258   */\n      swap2\n      swap1\n      pop\n      jump\t// out\n        /* \"#utility.yul\":28264:28484   */\n    tag_429:\n        /* \"#utility.yul\":28404:28438   */\n      0x53656c6c65722063616e206e6f74207265676973746572206173206269646465\n        /* \"#utility.yul\":28400:28401   */\n      0x00\n        /* \"#utility.yul\":28392:28398   */\n      dup3\n        /* \"#utility.yul\":28388:28402   */\n      add\n        /* \"#utility.yul\":28381:28439   */\n      mstore\n        /* \"#utility.yul\":28473:28476   */\n      0x7200000000000000000000000000000000000000000000000000000000000000\n        /* \"#utility.yul\":28468:28470   */\n      0x20\n        /* \"#utility.yul\":28460:28466   */\n      dup3\n        /* \"#utility.yul\":28456:28471   */\n      add\n        /* \"#utility.yul\":28449:28477   */\n      mstore\n        /* \"#utility.yul\":28264:28484   */\n      pop\n      jump\t// out\n        /* \"#utility.yul\":28490:28856   */\n    tag_430:\n        /* \"#utility.yul\":28632:28635   */\n      0x00\n        /* \"#utility.yul\":28653:28720   */\n      tag_700\n        /* \"#utility.yul\":28717:28719   */\n      0x21\n        /* \"#utility.yul\":28712:28715   */\n      dup4\n        /* \"#utility.yul\":28653:28720   */\n      tag_391\n      jump\t// in\n    tag_700:\n        /* \"#utility.yul\":28646:28720   */\n      swap2\n      pop\n        /* \"#utility.yul\":28729:28822   */\n      tag_701\n        /* \"#utility.yul\":28818:28821   */\n      dup3\n        /* \"#utility.yul\":28729:28822   */\n      tag_429\n      jump\t// in\n    tag_701:\n        /* \"#utility.yul\":28847:28849   */\n      0x40\n        /* \"#utility.yul\":28842:28845   */\n      dup3\n        /* \"#utility.yul\":28838:28850   */\n      add\n        /* \"#utility.yul\":28831:28850   */\n      swap1\n      pop\n        /* \"#utility.yul\":28490:28856   */\n      swap2\n      swap1\n      pop\n      jump\t// out\n        /* \"#utility.yul\":28862:29281   */\n    tag_248:\n        /* \"#utility.yul\":29028:29032   */\n      0x00\n        /* \"#utility.yul\":29066:29068   */\n      0x20\n        /* \"#utility.yul\":29055:29064   */\n      dup3\n        /* \"#utility.yul\":29051:29069   */\n      add\n        /* \"#utility.yul\":29043:29069   */\n      swap1\n      pop\n        /* \"#utility.yul\":29115:29124   */\n      dup2\n        /* \"#utility.yul\":29109:29113   */\n      dup2\n        /* \"#utility.yul\":29105:29125   */\n      sub\n        /* \"#utility.yul\":29101:29102   */\n      0x00\n        /* \"#utility.yul\":29090:29099   */\n      dup4\n        /* \"#utility.yul\":29086:29103   */\n      add\n        /* \"#utility.yul\":29079:29126   */\n      mstore\n        /* \"#utility.yul\":29143:29274   */\n      tag_703\n        /* \"#utility.yul\":29269:29273   */\n      dup2\n        /* \"#utility.yul\":29143:29274   */\n      tag_430\n      jump\t// in\n    tag_703:\n        /* \"#utility.yul\":29135:29274   */\n      swap1\n      pop\n        /* \"#utility.yul\":28862:29281   */\n      swap2\n      swap1\n      pop\n      jump\t// out\n        /* \"#utility.yul\":29287:29517   */\n    tag_431:\n        /* \"#utility.yul\":29427:29461   */\n      0x54696d6520666f72207265676973746572696e67206173206120626964646572\n        /* \"#utility.yul\":29423:29424   */\n      0x00\n        /* \"#utility.yul\":29415:29421   */\n      dup3\n        /* \"#utility.yul\":29411:29425   */\n      add\n        /* \"#utility.yul\":29404:29462   */\n      mstore\n        /* \"#utility.yul\":29496:29509   */\n      0x206973207061737365642e000000000000000000000000000000000000000000\n        /* \"#utility.yul\":29491:29493   */\n      0x20\n        /* \"#utility.yul\":29483:29489   */\n      dup3\n        /* \"#utility.yul\":29479:29494   */\n      add\n        /* \"#utility.yul\":29472:29510   */\n      mstore\n        /* \"#utility.yul\":29287:29517   */\n      pop\n      jump\t// out\n        /* \"#utility.yul\":29523:29889   */\n    tag_432:\n        /* \"#utility.yul\":29665:29668   */\n      0x00\n        /* \"#utility.yul\":29686:29753   */\n      tag_706\n        /* \"#utility.yul\":29750:29752   */\n      0x2b\n        /* \"#utility.yul\":29745:29748   */\n      dup4\n        /* \"#utility.yul\":29686:29753   */\n      tag_391\n      jump\t// in\n    tag_706:\n        /* \"#utility.yul\":29679:29753   */\n      swap2\n      pop\n        /* \"#utility.yul\":29762:29855   */\n      tag_707\n        /* \"#utility.yul\":29851:29854   */\n      dup3\n        /* \"#utility.yul\":29762:29855   */\n      tag_431\n      jump\t// in\n    tag_707:\n        /* \"#utility.yul\":29880:29882   */\n      0x40\n        /* \"#utility.yul\":29875:29878   */\n      dup3\n        /* \"#utility.yul\":29871:29883   */\n      add\n        /* \"#utility.yul\":29864:29883   */\n      swap1\n      pop\n        /* \"#utility.yul\":29523:29889   */\n      swap2\n      swap1\n      pop\n      jump\t// out\n        /* \"#utility.yul\":29895:30314   */\n    tag_251:\n        /* \"#utility.yul\":30061:30065   */\n      0x00\n        /* \"#utility.yul\":30099:30101   */\n      0x20\n        /* \"#utility.yul\":30088:30097   */\n      dup3\n        /* \"#utility.yul\":30084:30102   */\n      add\n        /* \"#utility.yul\":30076:30102   */\n      swap1\n      pop\n        /* \"#utility.yul\":30148:30157   */\n      dup2\n        /* \"#utility.yul\":30142:30146   */\n      dup2\n        /* \"#utility.yul\":30138:30158   */\n      sub\n        /* \"#utility.yul\":30134:30135   */\n      0x00\n        /* \"#utility.yul\":30123:30132   */\n      dup4\n        /* \"#utility.yul\":30119:30136   */\n      add\n        /* \"#utility.yul\":30112:30159   */\n      mstore\n        /* \"#utility.yul\":30176:30307   */\n      tag_709\n        /* \"#utility.yul\":30302:30306   */\n      dup2\n        /* \"#utility.yul\":30176:30307   */\n      tag_432\n      jump\t// in\n    tag_709:\n        /* \"#utility.yul\":30168:30307   */\n      swap1\n      pop\n        /* \"#utility.yul\":29895:30314   */\n      swap2\n      swap1\n      pop\n      jump\t// out\n        /* \"#utility.yul\":30320:30553   */\n    tag_262:\n        /* \"#utility.yul\":30359:30362   */\n      0x00\n        /* \"#utility.yul\":30382:30406   */\n      tag_711\n        /* \"#utility.yul\":30400:30405   */\n      dup3\n        /* \"#utility.yul\":30382:30406   */\n      tag_361\n      jump\t// in\n    tag_711:\n        /* \"#utility.yul\":30373:30406   */\n      swap2\n      pop\n        /* \"#utility.yul\":30428:30494   */\n      0xffffffffffffffffffffffffffffffffffffffffffffffffffffffffffffffff\n        /* \"#utility.yul\":30421:30426   */\n      dup3\n        /* \"#utility.yul\":30418:30495   */\n      sub\n        /* \"#utility.yul\":30415:30518   */\n      tag_712\n      jumpi\n        /* \"#utility.yul\":30498:30516   */\n      tag_713\n      tag_424\n      jump\t// in\n    tag_713:\n        /* \"#utility.yul\":30415:30518   */\n    tag_712:\n        /* \"#utility.yul\":30545:30546   */\n      0x01\n        /* \"#utility.yul\":30538:30543   */\n      dup3\n        /* \"#utility.yul\":30534:30547   */\n      add\n        /* \"#utility.yul\":30527:30547   */\n      swap1\n      pop\n        /* \"#utility.yul\":30320:30553   */\n      swap2\n      swap1\n      pop\n      jump\t// out\n        /* \"#utility.yul\":30559:30707   */\n    tag_433:\n        /* \"#utility.yul\":30661:30672   */\n      0x00\n        /* \"#utility.yul\":30698:30701   */\n      dup2\n        /* \"#utility.yul\":30683:30701   */\n      swap1\n      pop\n        /* \"#utility.yul\":30559:30707   */\n      swap3\n      swap2\n      pop\n      pop\n      jump\t// out\n        /* \"#utility.yul\":30713:31103   */\n    tag_434:\n        /* \"#utility.yul\":30819:30822   */\n      0x00\n        /* \"#utility.yul\":30847:30886   */\n      tag_716\n        /* \"#utility.yul\":30880:30885   */\n      dup3\n        /* \"#utility.yul\":30847:30886   */\n      tag_378\n      jump\t// in\n    tag_716:\n        /* \"#utility.yul\":30902:30991   */\n      tag_717\n        /* \"#utility.yul\":30984:30990   */\n      dup2\n        /* \"#utility.yul\":30979:30982   */\n      dup6\n        /* \"#utility.yul\":30902:30991   */\n      tag_433\n      jump\t// in\n    tag_717:\n        /* \"#utility.yul\":30895:30991   */\n      swap4\n      pop\n        /* \"#utility.yul\":31000:31065   */\n      tag_718\n        /* \"#utility.yul\":31058:31064   */\n      dup2\n        /* \"#utility.yul\":31053:31056   */\n      dup6\n        /* \"#utility.yul\":31046:31050   */\n      0x20\n        /* \"#utility.yul\":31039:31044   */\n      dup7\n        /* \"#utility.yul\":31035:31051   */\n      add\n        /* \"#utility.yul\":31000:31065   */\n      tag_380\n      jump\t// in\n    tag_718:\n        /* \"#utility.yul\":31090:31096   */\n      dup1\n        /* \"#utility.yul\":31085:31088   */\n      dup5\n        /* \"#utility.yul\":31081:31097   */\n      add\n        /* \"#utility.yul\":31074:31097   */\n      swap2\n      pop\n        /* \"#utility.yul\":30823:31103   */\n      pop\n        /* \"#utility.yul\":30713:31103   */\n      swap3\n      swap2\n      pop\n      pop\n      jump\t// out\n        /* \"#utility.yul\":31109:31544   */\n    tag_267:\n        /* \"#utility.yul\":31289:31292   */\n      0x00\n        /* \"#utility.yul\":31311:31406   */\n      tag_720\n        /* \"#utility.yul\":31402:31405   */\n      dup3\n        /* \"#utility.yul\":31393:31399   */\n      dup6\n        /* \"#utility.yul\":31311:31406   */\n      tag_434\n      jump\t// in\n    tag_720:\n        /* \"#utility.yul\":31304:31406   */\n      swap2\n      pop\n        /* \"#utility.yul\":31423:31518   */\n      tag_721\n        /* \"#utility.yul\":31514:31517   */\n      dup3\n        /* \"#utility.yul\":31505:31511   */\n      dup5\n        /* \"#utility.yul\":31423:31518   */\n      tag_434\n      jump\t// in\n    tag_721:\n        /* \"#utility.yul\":31416:31518   */\n      swap2\n      pop\n        /* \"#utility.yul\":31535:31538   */\n      dup2\n        /* \"#utility.yul\":31528:31538   */\n      swap1\n      pop\n        /* \"#utility.yul\":31109:31544   */\n      swap4\n      swap3\n      pop\n      pop\n      pop\n      jump\t// out\n        /* \"#utility.yul\":31550:31825   */\n    tag_269:\n        /* \"#utility.yul\":31682:31685   */\n      0x00\n        /* \"#utility.yul\":31704:31799   */\n      tag_723\n        /* \"#utility.yul\":31795:31798   */\n      dup3\n        /* \"#utility.yul\":31786:31792   */\n      dup5\n        /* \"#utility.yul\":31704:31799   */\n      tag_434\n      jump\t// in\n    tag_723:\n        /* \"#utility.yul\":31697:31799   */\n      swap2\n      pop\n        /* \"#utility.yul\":31816:31819   */\n      dup2\n        /* \"#utility.yul\":31809:31819   */\n      swap1\n      pop\n        /* \"#utility.yul\":31550:31825   */\n      swap3\n      swap2\n      pop\n      pop\n      jump\t// out\n        /* \"#utility.yul\":31831:31929   */\n    tag_435:\n        /* \"#utility.yul\":31882:31888   */\n      0x00\n        /* \"#utility.yul\":31916:31921   */\n      dup2\n        /* \"#utility.yul\":31910:31922   */\n      mload\n        /* \"#utility.yul\":31900:31922   */\n      swap1\n      pop\n        /* \"#utility.yul\":31831:31929   */\n      swap2\n      swap1\n      pop\n      jump\t// out\n        /* \"#utility.yul\":31935:32082   */\n    tag_436:\n        /* \"#utility.yul\":32036:32047   */\n      0x00\n        /* \"#utility.yul\":32073:32076   */\n      dup2\n        /* \"#utility.yul\":32058:32076   */\n      swap1\n      pop\n        /* \"#utility.yul\":31935:32082   */\n      swap3\n      swap2\n      pop\n      pop\n      jump\t// out\n        /* \"#utility.yul\":32088:32474   */\n    tag_437:\n        /* \"#utility.yul\":32192:32195   */\n      0x00\n        /* \"#utility.yul\":32220:32258   */\n      tag_727\n        /* \"#utility.yul\":32252:32257   */\n      dup3\n        /* \"#utility.yul\":32220:32258   */\n      tag_435\n      jump\t// in\n    tag_727:\n        /* \"#utility.yul\":32274:32362   */\n      tag_728\n        /* \"#utility.yul\":32355:32361   */\n      dup2\n        /* \"#utility.yul\":32350:32353   */\n      dup6\n        /* \"#utility.yul\":32274:32362   */\n      tag_436\n      jump\t// in\n    tag_728:\n        /* \"#utility.yul\":32267:32362   */\n      swap4\n      pop\n        /* \"#utility.yul\":32371:32436   */\n      tag_729\n        /* \"#utility.yul\":32429:32435   */\n      dup2\n        /* \"#utility.yul\":32424:32427   */\n      dup6\n        /* \"#utility.yul\":32417:32421   */\n      0x20\n        /* \"#utility.yul\":32410:32415   */\n      dup7\n        /* \"#utility.yul\":32406:32422   */\n      add\n        /* \"#utility.yul\":32371:32436   */\n      tag_380\n      jump\t// in\n    tag_729:\n        /* \"#utility.yul\":32461:32467   */\n      dup1\n        /* \"#utility.yul\":32456:32459   */\n      dup5\n        /* \"#utility.yul\":32452:32468   */\n      add\n        /* \"#utility.yul\":32445:32468   */\n      swap2\n      pop\n        /* \"#utility.yul\":32196:32474   */\n      pop\n        /* \"#utility.yul\":32088:32474   */\n      swap3\n      swap2\n      pop\n      pop\n      jump\t// out\n        /* \"#utility.yul\":32480:32751   */\n    tag_271:\n        /* \"#utility.yul\":32610:32613   */\n      0x00\n        /* \"#utility.yul\":32632:32725   */\n      tag_731\n        /* \"#utility.yul\":32721:32724   */\n      dup3\n        /* \"#utility.yul\":32712:32718   */\n      dup5\n        /* \"#utility.yul\":32632:32725   */\n      tag_437\n      jump\t// in\n    tag_731:\n        /* \"#utility.yul\":32625:32725   */\n      swap2\n      pop\n        /* \"#utility.yul\":32742:32745   */\n      dup2\n        /* \"#utility.yul\":32735:32745   */\n      swap1\n      pop\n        /* \"#utility.yul\":32480:32751   */\n      swap3\n      swap2\n      pop\n      pop\n      jump\t// out\n        /* \"#utility.yul\":32757:32900   */\n    tag_438:\n        /* \"#utility.yul\":32814:32819   */\n      0x00\n        /* \"#utility.yul\":32845:32851   */\n      dup2\n        /* \"#utility.yul\":32839:32852   */\n      mload\n        /* \"#utility.yul\":32830:32852   */\n      swap1\n      pop\n        /* \"#utility.yul\":32861:32894   */\n      tag_733\n        /* \"#utility.yul\":32888:32893   */\n      dup2\n        /* \"#utility.yul\":32861:32894   */\n      tag_400\n      jump\t// in\n    tag_733:\n        /* \"#utility.yul\":32757:32900   */\n      swap3\n      swap2\n      pop\n      pop\n      jump\t// out\n        /* \"#utility.yul\":32906:33257   */\n    tag_275:\n        /* \"#utility.yul\":32976:32982   */\n      0x00\n        /* \"#utility.yul\":33025:33027   */\n      0x20\n        /* \"#utility.yul\":33013:33022   */\n      dup3\n        /* \"#utility.yul\":33004:33011   */\n      dup5\n        /* \"#utility.yul\":33000:33023   */\n      sub\n        /* \"#utility.yul\":32996:33028   */\n      slt\n        /* \"#utility.yul\":32993:33112   */\n      iszero\n      tag_735\n      jumpi\n        /* \"#utility.yul\":33031:33110   */\n      tag_736\n      tag_359\n      jump\t// in\n    tag_736:\n        /* \"#utility.yul\":32993:33112   */\n    tag_735:\n        /* \"#utility.yul\":33151:33152   */\n      0x00\n        /* \"#utility.yul\":33176:33240   */\n      tag_737\n        /* \"#utility.yul\":33232:33239   */\n      dup5\n        /* \"#utility.yul\":33223:33229   */\n      dup3\n        /* \"#utility.yul\":33212:33221   */\n      dup6\n        /* \"#utility.yul\":33208:33230   */\n      add\n        /* \"#utility.yul\":33176:33240   */\n      tag_438\n      jump\t// in\n    tag_737:\n        /* \"#utility.yul\":33166:33240   */\n      swap2\n      pop\n        /* \"#utility.yul\":33122:33250   */\n      pop\n        /* \"#utility.yul\":32906:33257   */\n      swap3\n      swap2\n      pop\n      pop\n      jump\t// out\n        /* \"#utility.yul\":33263:33673   */\n    tag_292:\n        /* \"#utility.yul\":33303:33310   */\n      0x00\n        /* \"#utility.yul\":33326:33346   */\n      tag_739\n        /* \"#utility.yul\":33344:33345   */\n      dup3\n        /* \"#utility.yul\":33326:33346   */\n      tag_361\n      jump\t// in\n    tag_739:\n        /* \"#utility.yul\":33321:33346   */\n      swap2\n      pop\n        /* \"#utility.yul\":33360:33380   */\n      tag_740\n        /* \"#utility.yul\":33378:33379   */\n      dup4\n        /* \"#utility.yul\":33360:33380   */\n      tag_361\n      jump\t// in\n    tag_740:\n        /* \"#utility.yul\":33355:33380   */\n      swap3\n      pop\n        /* \"#utility.yul\":33415:33416   */\n      dup3\n        /* \"#utility.yul\":33412:33413   */\n      dup3\n        /* \"#utility.yul\":33408:33417   */\n      mul\n        /* \"#utility.yul\":33437:33467   */\n      tag_741\n        /* \"#utility.yul\":33455:33466   */\n      dup2\n        /* \"#utility.yul\":33437:33467   */\n      tag_361\n      jump\t// in\n    tag_741:\n        /* \"#utility.yul\":33426:33467   */\n      swap2\n      pop\n        /* \"#utility.yul\":33616:33617   */\n      dup3\n        /* \"#utility.yul\":33607:33614   */\n      dup3\n        /* \"#utility.yul\":33603:33618   */\n      div\n        /* \"#utility.yul\":33600:33601   */\n      dup5\n        /* \"#utility.yul\":33597:33619   */\n      eq\n        /* \"#utility.yul\":33577:33578   */\n      dup4\n        /* \"#utility.yul\":33570:33579   */\n      iszero\n        /* \"#utility.yul\":33550:33633   */\n      or\n        /* \"#utility.yul\":33527:33666   */\n      tag_742\n      jumpi\n        /* \"#utility.yul\":33646:33664   */\n      tag_743\n      tag_424\n      jump\t// in\n    tag_743:\n        /* \"#utility.yul\":33527:33666   */\n    tag_742:\n        /* \"#utility.yul\":33311:33673   */\n      pop\n        /* \"#utility.yul\":33263:33673   */\n      swap3\n      swap2\n      pop\n      pop\n      jump\t// out\n        /* \"#utility.yul\":33679:33859   */\n    tag_311:\n        /* \"#utility.yul\":33727:33804   */\n      0x4e487b7100000000000000000000000000000000000000000000000000000000\n        /* \"#utility.yul\":33724:33725   */\n      0x00\n        /* \"#utility.yul\":33717:33805   */\n      mstore\n        /* \"#utility.yul\":33824:33828   */\n      0x12\n        /* \"#utility.yul\":33821:33822   */\n      0x04\n        /* \"#utility.yul\":33814:33829   */\n      mstore\n        /* \"#utility.yul\":33848:33852   */\n      0x24\n        /* \"#utility.yul\":33845:33846   */\n      0x00\n        /* \"#utility.yul\":33838:33853   */\n      revert\n\n    auxdata: 0xa2646970667358221220b8575766c4618cb7af6e3db5a30b5796dda1d0e12a1c0d97a890a05a7235094e64736f6c63430008120033\n}\n",
				"bytecode": {
					"linkReferences": {},
					"object": "608060405260016007556000600860006101000a81548160ff02191690831515021790555034801561003057600080fd5b5033600160006101000a81548173ffffffffffffffffffffffffffffffffffffffff021916908373ffffffffffffffffffffffffffffffffffffffff160217905550612cab806100816000396000f3fe608060405234801561001057600080fd5b50600436106101215760003560e01c8063938626c2116100ad578063d826f88f11610071578063d826f88f1461030e578063d94a350514610318578063dc6b862714610337578063ec5d0ab214610355578063f356733c1461037157610121565b8063938626c214610254578063a2ebc65614610272578063a2fb11751461028e578063c9230c5d146102c0578063cff29dfd146102de57610121565b806340bd5937116100f457806340bd5937146101ae5780634fa7b507146101b85780635ec2c7bf146101e857806366c85dee146102065780638f772f961461022257610121565b806308551a53146101265780631744e03b1461014457806335abd160146101605780633817df4c1461017e575b600080fd5b61012e61037b565b60405161013b9190611b98565b60405180910390f35b61015e60048036038101906101599190611d43565b61039f565b005b610168610512565b6040516101759190611f4e565b60405180910390f35b61019860048036038101906101939190611f9c565b6106b9565b6040516101a59190611fe2565b60405180910390f35b6101b66106d1565b005b6101d260048036038101906101cd9190611ffd565b6107c3565b6040516101df9190611b98565b60405180910390f35b6101f061080b565b6040516101fd9190611b98565b60405180910390f35b610220600480360381019061021b9190611d43565b610831565b005b61023c60048036038101906102379190611ffd565b610a95565b60405161024b93929190612083565b60405180910390f35b61025c610b77565b60405161026991906120c1565b60405180910390f35b61028c600480360381019061028791906120e3565b610c05565b005b6102a860048036038101906102a39190611ffd565b610c8c565b6040516102b79392919061215b565b60405180910390f35b6102c8610d6e565b6040516102d591906120c1565b60405180910390f35b6102f860048036038101906102f39190611ffd565b610dfc565b6040516103059190611b98565b60405180910390f35b610316610e3b565b005b610320610f0c565b60405161032e929190612199565b60405180910390f35b61033f611089565b60405161034c91906122e2565b60405180910390f35b61036f600480360381019061036a9190612330565b611230565b005b61037961131b565b005b60008054906101000a900473ffffffffffffffffffffffffffffffffffffffff1681565b60011515600860009054906101000a900460ff161515146103f5576040517f08c379a00000000000000000000000000000000000000000000000000000000081526004016103ec906123a9565b60405180910390fd5b600115156104016114a8565b151514610443576040517f08c379a000000000000000000000000000000000000000000000000000000000815260040161043a9061243b565b60405180910390fd5b600060405180606001604052803373ffffffffffffffffffffffffffffffffffffffff168152602001848152602001838152509050600b81908060018154018082558091505060019003906000526020600020906003020160009091909190915060008201518160000160006101000a81548173ffffffffffffffffffffffffffffffffffffffff021916908373ffffffffffffffffffffffffffffffffffffffff16021790555060208201518160010155604082015181600201908161050a9190612667565b505050505050565b606060011515600860009054906101000a900460ff1615151461056a576040517f08c379a0000000000000000000000000000000000000000000000000000000008152600401610561906123a9565b60405180910390fd5b600c805480602002602001604051908101604052809291908181526020016000905b828210156106b05783829060005260206000209060030201604051806060016040529081600082015481526020016001820160009054906101000a900473ffffffffffffffffffffffffffffffffffffffff1673ffffffffffffffffffffffffffffffffffffffff1673ffffffffffffffffffffffffffffffffffffffff16815260200160028201805461061f9061248a565b80601f016020809104026020016040519081016040528092919081815260200182805461064b9061248a565b80156106985780601f1061066d57610100808354040283529160200191610698565b820191906000526020600020905b81548152906001019060200180831161067b57829003601f168201915b5050505050815250508152602001906001019061058c565b50505050905090565b600a6020528060005260406000206000915090505481565b6006544211610715576040517f08c379a000000000000000000000000000000000000000000000000000000000815260040161070c90612785565b60405180910390fd5b60005b6009805490508110156107c05760006009828154811061073b5761073a6127a5565b5b9060005260206000200160009054906101000a900473ffffffffffffffffffffffffffffffffffffffff169050600a60008273ffffffffffffffffffffffffffffffffffffffff1673ffffffffffffffffffffffffffffffffffffffff16815260200190815260200160002060009055506001816107b99190612803565b9050610718565b50565b6000600982815481106107d9576107d86127a5565b5b9060005260206000200160009054906101000a900473ffffffffffffffffffffffffffffffffffffffff169050919050565b600160009054906101000a900473ffffffffffffffffffffffffffffffffffffffff1681565b60011515600860009054906101000a900460ff16151514610887576040517f08c379a000000000000000000000000000000000000000000000000000000000815260040161087e906123a9565b60405180910390fd5b600115156108936114a8565b1515146108d5576040517f08c379a00000000000000000000000000000000000000000000000000000000081526004016108cc9061243b565b60405180910390fd5b60006108e18383611554565b905080600a60003373ffffffffffffffffffffffffffffffffffffffff1673ffffffffffffffffffffffffffffffffffffffff1681526020019081526020016000205414610964576040517f08c379a000000000000000000000000000000000000000000000000000000000815260040161095b906128a9565b60405180910390fd5b6001151561097184611601565b1515146109b3576040517f08c379a00000000000000000000000000000000000000000000000000000000081526004016109aa90612961565b60405180910390fd5b6109bb61166b565b6109c5838361167b565b600060405180606001604052808581526020013373ffffffffffffffffffffffffffffffffffffffff168152602001848152509050600c8190806001815401808255809150506001900390600052602060002090600302016000909190919091506000820151816000015560208201518160010160006101000a81548173ffffffffffffffffffffffffffffffffffffffff021916908373ffffffffffffffffffffffffffffffffffffffff1602179055506040820151816002019081610a8c9190612667565b50505050505050565b600c8181548110610aa557600080fd5b90600052602060002090600302016000915090508060000154908060010160009054906101000a900473ffffffffffffffffffffffffffffffffffffffff1690806002018054610af49061248a565b80601f0160208091040260200160405190810160405280929190818152602001828054610b209061248a565b8015610b6d5780601f10610b4257610100808354040283529160200191610b6d565b820191906000526020600020905b815481529060010190602001808311610b5057829003601f168201915b5050505050905083565b60028054610b849061248a565b80601f0160208091040260200160405190810160405280929190818152602001828054610bb09061248a565b8015610bfd5780601f10610bd257610100808354040283529160200191610bfd565b820191906000526020600020905b815481529060010190602001808311610be057829003601f168201915b505050505081565b336000806101000a81548173ffffffffffffffffffffffffffffffffffffffff021916908373ffffffffffffffffffffffffffffffffffffffff1602179055508160039081610c549190612667565b508060029081610c649190612667565b50610c6d61174a565b6001600860006101000a81548160ff0219169083151502179055505050565b600b8181548110610c9c57600080fd5b90600052602060002090600302016000915090508060000160009054906101000a900473ffffffffffffffffffffffffffffffffffffffff1690806001015490806002018054610ceb9061248a565b80601f0160208091040260200160405190810160405280929190818152602001828054610d179061248a565b8015610d645780601f10610d3957610100808354040283529160200191610d64565b820191906000526020600020905b815481529060010190602001808311610d4757829003601f168201915b5050505050905083565b60038054610d7b9061248a565b80601f0160208091040260200160405190810160405280929190818152602001828054610da79061248a565b8015610df45780601f10610dc957610100808354040283529160200191610df4565b820191906000526020600020905b815481529060010190602001808311610dd757829003601f168201915b505050505081565b60098181548110610e0c57600080fd5b906000526020600020016000915054906101000a900473ffffffffffffffffffffffffffffffffffffffff1681565b6006544211610e7f576040517f08c379a0000000000000000000000000000000000000000000000000000000008152600401610e7690612785565b60405180910390fd5b600b6000610e8d91906119e5565b6040518060200160405280600081525060029081610eab9190612667565b506040518060200160405280600081525060039081610eca9190612667565b50610ed36106d1565b60096000610ee19190611a09565b600c6000610eef9190611a2a565b6000600860006101000a81548160ff021916908315150217905550565b60608060011515600860009054906101000a900460ff16151514610f65576040517f08c379a0000000000000000000000000000000000000000000000000000000008152600401610f5c906123a9565b60405180910390fd5b60036002818054610f759061248a565b80601f0160208091040260200160405190810160405280929190818152602001828054610fa19061248a565b8015610fee5780601f10610fc357610100808354040283529160200191610fee565b820191906000526020600020905b815481529060010190602001808311610fd157829003601f168201915b505050505091508080546110019061248a565b80601f016020809104026020016040519081016040528092919081815260200182805461102d9061248a565b801561107a5780601f1061104f5761010080835404028352916020019161107a565b820191906000526020600020905b81548152906001019060200180831161105d57829003601f168201915b50505050509050915091509091565b606060011515600860009054906101000a900460ff161515146110e1576040517f08c379a00000000000000000000000000000000000000000000000000000000081526004016110d8906123a9565b60405180910390fd5b600b805480602002602001604051908101604052809291908181526020016000905b8282101561122757838290600052602060002090600302016040518060600160405290816000820160009054906101000a900473ffffffffffffffffffffffffffffffffffffffff1673ffffffffffffffffffffffffffffffffffffffff1673ffffffffffffffffffffffffffffffffffffffff168152602001600182015481526020016002820180546111969061248a565b80601f01602080910402602001604051908101604052809291908181526020018280546111c29061248a565b801561120f5780601f106111e45761010080835404028352916020019161120f565b820191906000526020600020905b8154815290600101906020018083116111f257829003601f168201915b50505050508152505081526020019060010190611103565b50505050905090565b60011515600860009054906101000a900460ff16151514611286576040517f08c379a000000000000000000000000000000000000000000000000000000000815260040161127d906123a9565b60405180910390fd5b600115156112926114a8565b1515146112d4576040517f08c379a00000000000000000000000000000000000000000000000000000000081526004016112cb9061243b565b60405180910390fd5b80600a60003373ffffffffffffffffffffffffffffffffffffffff1673ffffffffffffffffffffffffffffffffffffffff1681526020019081526020016000208190555050565b60011515600860009054906101000a900460ff16151514611371576040517f08c379a0000000000000000000000000000000000000000000000000000000008152600401611368906123a9565b60405180910390fd5b60008054906101000a900473ffffffffffffffffffffffffffffffffffffffff1673ffffffffffffffffffffffffffffffffffffffff163373ffffffffffffffffffffffffffffffffffffffff16036113ff576040517f08c379a00000000000000000000000000000000000000000000000000000000081526004016113f6906129f3565b60405180910390fd5b6004544210611443576040517f08c379a000000000000000000000000000000000000000000000000000000000815260040161143a90612a85565b60405180910390fd5b6009339080600181540180825580915050600190039060005260206000200160009091909190916101000a81548173ffffffffffffffffffffffffffffffffffffffff021916908373ffffffffffffffffffffffffffffffffffffffff160217905550565b600080600090505b60098054905081101561154b57600981815481106114d1576114d06127a5565b5b9060005260206000200160009054906101000a900473ffffffffffffffffffffffffffffffffffffffff1673ffffffffffffffffffffffffffffffffffffffff163373ffffffffffffffffffffffffffffffffffffffff1603611538576001915050611551565b808061154390612aa5565b9150506114b0565b50600090505b90565b600080611560846117c4565b905060008184604051602001611577929190612b29565b604051602081830303815290604052905060028160405160200161159b9190612b4d565b6040516020818303038152906040526040516115b79190612bab565b602060405180830381855afa1580156115d4573d6000803e3d6000fd5b5050506040513d601f19601f820116820180604052508101906115f79190612bd7565b9250505092915050565b600080600090505b600b8054905081101561166057600b818154811061162a576116296127a5565b5b90600052602060002090600302016001015483111561164d576001915050611666565b808061165890612aa5565b915050611609565b50600090505b919050565b600b600061167991906119e5565b565b600060405180606001604052803373ffffffffffffffffffffffffffffffffffffffff168152602001848152602001838152509050600b81908060018154018082558091505060019003906000526020600020906003020160009091909190915060008201518160000160006101000a81548173ffffffffffffffffffffffffffffffffffffffff021916908373ffffffffffffffffffffffffffffffffffffffff1602179055506020820151816001015560408201518160020190816117429190612667565b505050505050565b603c6007546117599190612c04565b426117649190612803565b600481905550603c600754600261177b9190612c04565b6117859190612c04565b426117909190612803565b600581905550603c60075460036117a79190612c04565b6117b19190612c04565b426117bc9190612803565b600681905550565b6060600060016117d384611892565b01905060008167ffffffffffffffff8111156117f2576117f1611c18565b5b6040519080825280601f01601f1916602001820160405280156118245781602001600182028036833780820191505090505b509050600082602001820190505b600115611887578080600190039150507f3031323334353637383961626364656600000000000000000000000000000000600a86061a8153600a858161187b5761187a612c46565b5b04945060008503611832575b819350505050919050565b600080600090507a184f03e93ff9f4daa797ed6e38ed64bf6a1f01000000000000000083106118f0577a184f03e93ff9f4daa797ed6e38ed64bf6a1f01000000000000000083816118e6576118e5612c46565b5b0492506040810190505b6d04ee2d6d415b85acef8100000000831061192d576d04ee2d6d415b85acef8100000000838161192357611922612c46565b5b0492506020810190505b662386f26fc10000831061195c57662386f26fc10000838161195257611951612c46565b5b0492506010810190505b6305f5e1008310611985576305f5e100838161197b5761197a612c46565b5b0492506008810190505b61271083106119aa5761271083816119a05761199f612c46565b5b0492506004810190505b606483106119cd57606483816119c3576119c2612c46565b5b0492506002810190505b600a83106119dc576001810190505b80915050919050565b5080546000825560030290600052602060002090810190611a069190611a4e565b50565b5080546000825590600052602060002090810190611a279190611aa4565b50565b5080546000825560030290600052602060002090810190611a4b9190611ac1565b50565b5b80821115611aa057600080820160006101000a81549073ffffffffffffffffffffffffffffffffffffffff02191690556001820160009055600282016000611a979190611b17565b50600301611a4f565b5090565b5b80821115611abd576000816000905550600101611aa5565b5090565b5b80821115611b13576000808201600090556001820160006101000a81549073ffffffffffffffffffffffffffffffffffffffff0219169055600282016000611b0a9190611b17565b50600301611ac2565b5090565b508054611b239061248a565b6000825580601f10611b355750611b54565b601f016020900490600052602060002090810190611b539190611aa4565b5b50565b600073ffffffffffffffffffffffffffffffffffffffff82169050919050565b6000611b8282611b57565b9050919050565b611b9281611b77565b82525050565b6000602082019050611bad6000830184611b89565b92915050565b6000604051905090565b600080fd5b600080fd5b6000819050919050565b611bda81611bc7565b8114611be557600080fd5b50565b600081359050611bf781611bd1565b92915050565b600080fd5b600080fd5b6000601f19601f8301169050919050565b7f4e487b7100000000000000000000000000000000000000000000000000000000600052604160045260246000fd5b611c5082611c07565b810181811067ffffffffffffffff82111715611c6f57611c6e611c18565b5b80604052505050565b6000611c82611bb3565b9050611c8e8282611c47565b919050565b600067ffffffffffffffff821115611cae57611cad611c18565b5b611cb782611c07565b9050602081019050919050565b82818337600083830152505050565b6000611ce6611ce184611c93565b611c78565b905082815260208101848484011115611d0257611d01611c02565b5b611d0d848285611cc4565b509392505050565b600082601f830112611d2a57611d29611bfd565b5b8135611d3a848260208601611cd3565b91505092915050565b60008060408385031215611d5a57611d59611bbd565b5b6000611d6885828601611be8565b925050602083013567ffffffffffffffff811115611d8957611d88611bc2565b5b611d9585828601611d15565b9150509250929050565b600081519050919050565b600082825260208201905092915050565b6000819050602082019050919050565b611dd481611bc7565b82525050565b611de381611b77565b82525050565b600081519050919050565b600082825260208201905092915050565b60005b83811015611e23578082015181840152602081019050611e08565b60008484015250505050565b6000611e3a82611de9565b611e448185611df4565b9350611e54818560208601611e05565b611e5d81611c07565b840191505092915050565b6000606083016000830151611e806000860182611dcb565b506020830151611e936020860182611dda565b5060408301518482036040860152611eab8282611e2f565b9150508091505092915050565b6000611ec48383611e68565b905092915050565b6000602082019050919050565b6000611ee482611d9f565b611eee8185611daa565b935083602082028501611f0085611dbb565b8060005b85811015611f3c5784840389528151611f1d8582611eb8565b9450611f2883611ecc565b925060208a01995050600181019050611f04565b50829750879550505050505092915050565b60006020820190508181036000830152611f688184611ed9565b905092915050565b611f7981611b77565b8114611f8457600080fd5b50565b600081359050611f9681611f70565b92915050565b600060208284031215611fb257611fb1611bbd565b5b6000611fc084828501611f87565b91505092915050565b6000819050919050565b611fdc81611fc9565b82525050565b6000602082019050611ff76000830184611fd3565b92915050565b60006020828403121561201357612012611bbd565b5b600061202184828501611be8565b91505092915050565b61203381611bc7565b82525050565b600082825260208201905092915050565b600061205582611de9565b61205f8185612039565b935061206f818560208601611e05565b61207881611c07565b840191505092915050565b6000606082019050612098600083018661202a565b6120a56020830185611b89565b81810360408301526120b7818461204a565b9050949350505050565b600060208201905081810360008301526120db818461204a565b905092915050565b600080604083850312156120fa576120f9611bbd565b5b600083013567ffffffffffffffff81111561211857612117611bc2565b5b61212485828601611d15565b925050602083013567ffffffffffffffff81111561214557612144611bc2565b5b61215185828601611d15565b9150509250929050565b60006060820190506121706000830186611b89565b61217d602083018561202a565b818103604083015261218f818461204a565b9050949350505050565b600060408201905081810360008301526121b3818561204a565b905081810360208301526121c7818461204a565b90509392505050565b600081519050919050565b600082825260208201905092915050565b6000819050602082019050919050565b60006060830160008301516122146000860182611dda565b5060208301516122276020860182611dcb565b506040830151848203604086015261223f8282611e2f565b9150508091505092915050565b600061225883836121fc565b905092915050565b6000602082019050919050565b6000612278826121d0565b61228281856121db565b935083602082028501612294856121ec565b8060005b858110156122d057848403895281516122b1858261224c565b94506122bc83612260565b925060208a01995050600181019050612298565b50829750879550505050505092915050565b600060208201905081810360008301526122fc818461226d565b905092915050565b61230d81611fc9565b811461231857600080fd5b50565b60008135905061232a81612304565b92915050565b60006020828403121561234657612345611bbd565b5b60006123548482850161231b565b91505092915050565b7f5468657265206973206e6f20737461727465642061756374696f6e206e6f7700600082015250565b6000612393601f83612039565b915061239e8261235d565b602082019050919050565b600060208201905081810360008301526123c281612386565b9050919050565b7f4f6e6c7920726567697374657264206269646465722063616e2063616c6c207460008201527f6869732066756e6374696f6e0000000000000000000000000000000000000000602082015250565b6000612425602c83612039565b9150612430826123c9565b604082019050919050565b6000602082019050818103600083015261245481612418565b9050919050565b7f4e487b7100000000000000000000000000000000000000000000000000000000600052602260045260246000fd5b600060028204905060018216806124a257607f821691505b6020821081036124b5576124b461245b565b5b50919050565b60008190508160005260206000209050919050565b60006020601f8301049050919050565b600082821b905092915050565b60006008830261251d7fffffffffffffffffffffffffffffffffffffffffffffffffffffffffffffffff826124e0565b61252786836124e0565b95508019841693508086168417925050509392505050565b6000819050919050565b600061256461255f61255a84611bc7565b61253f565b611bc7565b9050919050565b6000819050919050565b61257e83612549565b61259261258a8261256b565b8484546124ed565b825550505050565b600090565b6125a761259a565b6125b2818484612575565b505050565b5b818110156125d6576125cb60008261259f565b6001810190506125b8565b5050565b601f82111561261b576125ec816124bb565b6125f5846124d0565b81016020851015612604578190505b612618612610856124d0565b8301826125b7565b50505b505050565b600082821c905092915050565b600061263e60001984600802612620565b1980831691505092915050565b6000612657838361262d565b9150826002028217905092915050565b61267082611de9565b67ffffffffffffffff81111561268957612688611c18565b5b612693825461248a565b61269e8282856125da565b600060209050601f8311600181146126d157600084156126bf578287015190505b6126c9858261264b565b865550612731565b601f1984166126df866124bb565b60005b82811015612707578489015182556001820191506020850194506020810190506126e2565b868310156127245784890151612720601f89168261262d565b8355505b6001600288020188555050505b505050505050565b7f41756374696f6e206973206e6f7420636f6d706c65746564207965742e000000600082015250565b600061276f601d83612039565b915061277a82612739565b602082019050919050565b6000602082019050818103600083015261279e81612762565b9050919050565b7f4e487b7100000000000000000000000000000000000000000000000000000000600052603260045260246000fd5b7f4e487b7100000000000000000000000000000000000000000000000000000000600052601160045260246000fd5b600061280e82611bc7565b915061281983611bc7565b9250828201905080821115612831576128306127d4565b5b92915050565b7f5468652062696420616e64206e6f6e636520796f75207375626d69747465642060008201527f617265206e6f742076616c69642e000000000000000000000000000000000000602082015250565b6000612893602e83612039565b915061289e82612837565b604082019050919050565b600060208201905081810360008301526128c281612886565b9050919050565b7f596f75722064697370757465206973206e6f742076616c69642073696e63652060008201527f6974206973206e6f742067726561746572207468616e206174206c656173742060208201527f6f6e652077696e6e65722e000000000000000000000000000000000000000000604082015250565b600061294b604b83612039565b9150612956826128c9565b606082019050919050565b6000602082019050818103600083015261297a8161293e565b9050919050565b7f53656c6c65722063616e206e6f7420726567697374657220617320626964646560008201527f7200000000000000000000000000000000000000000000000000000000000000602082015250565b60006129dd602183612039565b91506129e882612981565b604082019050919050565b60006020820190508181036000830152612a0c816129d0565b9050919050565b7f54696d6520666f72207265676973746572696e6720617320612062696464657260008201527f206973207061737365642e000000000000000000000000000000000000000000602082015250565b6000612a6f602b83612039565b9150612a7a82612a13565b604082019050919050565b60006020820190508181036000830152612a9e81612a62565b9050919050565b6000612ab082611bc7565b91507fffffffffffffffffffffffffffffffffffffffffffffffffffffffffffffffff8203612ae257612ae16127d4565b5b600182019050919050565b600081905092915050565b6000612b0382611de9565b612b0d8185612aed565b9350612b1d818560208601611e05565b80840191505092915050565b6000612b358285612af8565b9150612b418284612af8565b91508190509392505050565b6000612b598284612af8565b915081905092915050565b600081519050919050565b600081905092915050565b6000612b8582612b64565b612b8f8185612b6f565b9350612b9f818560208601611e05565b80840191505092915050565b6000612bb78284612b7a565b915081905092915050565b600081519050612bd181612304565b92915050565b600060208284031215612bed57612bec611bbd565b5b6000612bfb84828501612bc2565b91505092915050565b6000612c0f82611bc7565b9150612c1a83611bc7565b9250828202612c2881611bc7565b91508282048414831517612c3f57612c3e6127d4565b5b5092915050565b7f4e487b7100000000000000000000000000000000000000000000000000000000600052601260045260246000fdfea2646970667358221220b8575766c4618cb7af6e3db5a30b5796dda1d0e12a1c0d97a890a05a7235094e64736f6c63430008120033",
					"opcodes": "PUSH1 0x80 PUSH1 0x40 MSTORE PUSH1 0x1 PUSH1 0x7 SSTORE PUSH1 0x0 PUSH1 0x8 PUSH1 0x0 PUSH2 0x100 EXP DUP2 SLOAD DUP2 PUSH1 0xFF MUL NOT AND SWAP1 DUP4 ISZERO ISZERO MUL OR SWAP1 SSTORE POP CALLVALUE DUP1 ISZERO PUSH2 0x30 JUMPI PUSH1 0x0 DUP1 REVERT JUMPDEST POP CALLER PUSH1 0x1 PUSH1 0x0 PUSH2 0x100 EXP DUP2 SLOAD DUP2 PUSH20 0xFFFFFFFFFFFFFFFFFFFFFFFFFFFFFFFFFFFFFFFF MUL NOT AND SWAP1 DUP4 PUSH20 0xFFFFFFFFFFFFFFFFFFFFFFFFFFFFFFFFFFFFFFFF AND MUL OR SWAP1 SSTORE POP PUSH2 0x2CAB DUP1 PUSH2 0x81 PUSH1 0x0 CODECOPY PUSH1 0x0 RETURN INVALID PUSH1 0x80 PUSH1 0x40 MSTORE CALLVALUE DUP1 ISZERO PUSH2 0x10 JUMPI PUSH1 0x0 DUP1 REVERT JUMPDEST POP PUSH1 0x4 CALLDATASIZE LT PUSH2 0x121 JUMPI PUSH1 0x0 CALLDATALOAD PUSH1 0xE0 SHR DUP1 PUSH4 0x938626C2 GT PUSH2 0xAD JUMPI DUP1 PUSH4 0xD826F88F GT PUSH2 0x71 JUMPI DUP1 PUSH4 0xD826F88F EQ PUSH2 0x30E JUMPI DUP1 PUSH4 0xD94A3505 EQ PUSH2 0x318 JUMPI DUP1 PUSH4 0xDC6B8627 EQ PUSH2 0x337 JUMPI DUP1 PUSH4 0xEC5D0AB2 EQ PUSH2 0x355 JUMPI DUP1 PUSH4 0xF356733C EQ PUSH2 0x371 JUMPI PUSH2 0x121 JUMP JUMPDEST DUP1 PUSH4 0x938626C2 EQ PUSH2 0x254 JUMPI DUP1 PUSH4 0xA2EBC656 EQ PUSH2 0x272 JUMPI DUP1 PUSH4 0xA2FB1175 EQ PUSH2 0x28E JUMPI DUP1 PUSH4 0xC9230C5D EQ PUSH2 0x2C0 JUMPI DUP1 PUSH4 0xCFF29DFD EQ PUSH2 0x2DE JUMPI PUSH2 0x121 JUMP JUMPDEST DUP1 PUSH4 0x40BD5937 GT PUSH2 0xF4 JUMPI DUP1 PUSH4 0x40BD5937 EQ PUSH2 0x1AE JUMPI DUP1 PUSH4 0x4FA7B507 EQ PUSH2 0x1B8 JUMPI DUP1 PUSH4 0x5EC2C7BF EQ PUSH2 0x1E8 JUMPI DUP1 PUSH4 0x66C85DEE EQ PUSH2 0x206 JUMPI DUP1 PUSH4 0x8F772F96 EQ PUSH2 0x222 JUMPI PUSH2 0x121 JUMP JUMPDEST DUP1 PUSH4 0x8551A53 EQ PUSH2 0x126 JUMPI DUP1 PUSH4 0x1744E03B EQ PUSH2 0x144 JUMPI DUP1 PUSH4 0x35ABD160 EQ PUSH2 0x160 JUMPI DUP1 PUSH4 0x3817DF4C EQ PUSH2 0x17E JUMPI JUMPDEST PUSH1 0x0 DUP1 REVERT JUMPDEST PUSH2 0x12E PUSH2 0x37B JUMP JUMPDEST PUSH1 0x40 MLOAD PUSH2 0x13B SWAP2 SWAP1 PUSH2 0x1B98 JUMP JUMPDEST PUSH1 0x40 MLOAD DUP1 SWAP2 SUB SWAP1 RETURN JUMPDEST PUSH2 0x15E PUSH1 0x4 DUP1 CALLDATASIZE SUB DUP2 ADD SWAP1 PUSH2 0x159 SWAP2 SWAP1 PUSH2 0x1D43 JUMP JUMPDEST PUSH2 0x39F JUMP JUMPDEST STOP JUMPDEST PUSH2 0x168 PUSH2 0x512 JUMP JUMPDEST PUSH1 0x40 MLOAD PUSH2 0x175 SWAP2 SWAP1 PUSH2 0x1F4E JUMP JUMPDEST PUSH1 0x40 MLOAD DUP1 SWAP2 SUB SWAP1 RETURN JUMPDEST PUSH2 0x198 PUSH1 0x4 DUP1 CALLDATASIZE SUB DUP2 ADD SWAP1 PUSH2 0x193 SWAP2 SWAP1 PUSH2 0x1F9C JUMP JUMPDEST PUSH2 0x6B9 JUMP JUMPDEST PUSH1 0x40 MLOAD PUSH2 0x1A5 SWAP2 SWAP1 PUSH2 0x1FE2 JUMP JUMPDEST PUSH1 0x40 MLOAD DUP1 SWAP2 SUB SWAP1 RETURN JUMPDEST PUSH2 0x1B6 PUSH2 0x6D1 JUMP JUMPDEST STOP JUMPDEST PUSH2 0x1D2 PUSH1 0x4 DUP1 CALLDATASIZE SUB DUP2 ADD SWAP1 PUSH2 0x1CD SWAP2 SWAP1 PUSH2 0x1FFD JUMP JUMPDEST PUSH2 0x7C3 JUMP JUMPDEST PUSH1 0x40 MLOAD PUSH2 0x1DF SWAP2 SWAP1 PUSH2 0x1B98 JUMP JUMPDEST PUSH1 0x40 MLOAD DUP1 SWAP2 SUB SWAP1 RETURN JUMPDEST PUSH2 0x1F0 PUSH2 0x80B JUMP JUMPDEST PUSH1 0x40 MLOAD PUSH2 0x1FD SWAP2 SWAP1 PUSH2 0x1B98 JUMP JUMPDEST PUSH1 0x40 MLOAD DUP1 SWAP2 SUB SWAP1 RETURN JUMPDEST PUSH2 0x220 PUSH1 0x4 DUP1 CALLDATASIZE SUB DUP2 ADD SWAP1 PUSH2 0x21B SWAP2 SWAP1 PUSH2 0x1D43 JUMP JUMPDEST PUSH2 0x831 JUMP JUMPDEST STOP JUMPDEST PUSH2 0x23C PUSH1 0x4 DUP1 CALLDATASIZE SUB DUP2 ADD SWAP1 PUSH2 0x237 SWAP2 SWAP1 PUSH2 0x1FFD JUMP JUMPDEST PUSH2 0xA95 JUMP JUMPDEST PUSH1 0x40 MLOAD PUSH2 0x24B SWAP4 SWAP3 SWAP2 SWAP1 PUSH2 0x2083 JUMP JUMPDEST PUSH1 0x40 MLOAD DUP1 SWAP2 SUB SWAP1 RETURN JUMPDEST PUSH2 0x25C PUSH2 0xB77 JUMP JUMPDEST PUSH1 0x40 MLOAD PUSH2 0x269 SWAP2 SWAP1 PUSH2 0x20C1 JUMP JUMPDEST PUSH1 0x40 MLOAD DUP1 SWAP2 SUB SWAP1 RETURN JUMPDEST PUSH2 0x28C PUSH1 0x4 DUP1 CALLDATASIZE SUB DUP2 ADD SWAP1 PUSH2 0x287 SWAP2 SWAP1 PUSH2 0x20E3 JUMP JUMPDEST PUSH2 0xC05 JUMP JUMPDEST STOP JUMPDEST PUSH2 0x2A8 PUSH1 0x4 DUP1 CALLDATASIZE SUB DUP2 ADD SWAP1 PUSH2 0x2A3 SWAP2 SWAP1 PUSH2 0x1FFD JUMP JUMPDEST PUSH2 0xC8C JUMP JUMPDEST PUSH1 0x40 MLOAD PUSH2 0x2B7 SWAP4 SWAP3 SWAP2 SWAP1 PUSH2 0x215B JUMP JUMPDEST PUSH1 0x40 MLOAD DUP1 SWAP2 SUB SWAP1 RETURN JUMPDEST PUSH2 0x2C8 PUSH2 0xD6E JUMP JUMPDEST PUSH1 0x40 MLOAD PUSH2 0x2D5 SWAP2 SWAP1 PUSH2 0x20C1 JUMP JUMPDEST PUSH1 0x40 MLOAD DUP1 SWAP2 SUB SWAP1 RETURN JUMPDEST PUSH2 0x2F8 PUSH1 0x4 DUP1 CALLDATASIZE SUB DUP2 ADD SWAP1 PUSH2 0x2F3 SWAP2 SWAP1 PUSH2 0x1FFD JUMP JUMPDEST PUSH2 0xDFC JUMP JUMPDEST PUSH1 0x40 MLOAD PUSH2 0x305 SWAP2 SWAP1 PUSH2 0x1B98 JUMP JUMPDEST PUSH1 0x40 MLOAD DUP1 SWAP2 SUB SWAP1 RETURN JUMPDEST PUSH2 0x316 PUSH2 0xE3B JUMP JUMPDEST STOP JUMPDEST PUSH2 0x320 PUSH2 0xF0C JUMP JUMPDEST PUSH1 0x40 MLOAD PUSH2 0x32E SWAP3 SWAP2 SWAP1 PUSH2 0x2199 JUMP JUMPDEST PUSH1 0x40 MLOAD DUP1 SWAP2 SUB SWAP1 RETURN JUMPDEST PUSH2 0x33F PUSH2 0x1089 JUMP JUMPDEST PUSH1 0x40 MLOAD PUSH2 0x34C SWAP2 SWAP1 PUSH2 0x22E2 JUMP JUMPDEST PUSH1 0x40 MLOAD DUP1 SWAP2 SUB SWAP1 RETURN JUMPDEST PUSH2 0x36F PUSH1 0x4 DUP1 CALLDATASIZE SUB DUP2 ADD SWAP1 PUSH2 0x36A SWAP2 SWAP1 PUSH2 0x2330 JUMP JUMPDEST PUSH2 0x1230 JUMP JUMPDEST STOP JUMPDEST PUSH2 0x379 PUSH2 0x131B JUMP JUMPDEST STOP JUMPDEST PUSH1 0x0 DUP1 SLOAD SWAP1 PUSH2 0x100 EXP SWAP1 DIV PUSH20 0xFFFFFFFFFFFFFFFFFFFFFFFFFFFFFFFFFFFFFFFF AND DUP2 JUMP JUMPDEST PUSH1 0x1 ISZERO ISZERO PUSH1 0x8 PUSH1 0x0 SWAP1 SLOAD SWAP1 PUSH2 0x100 EXP SWAP1 DIV PUSH1 0xFF AND ISZERO ISZERO EQ PUSH2 0x3F5 JUMPI PUSH1 0x40 MLOAD PUSH32 0x8C379A000000000000000000000000000000000000000000000000000000000 DUP2 MSTORE PUSH1 0x4 ADD PUSH2 0x3EC SWAP1 PUSH2 0x23A9 JUMP JUMPDEST PUSH1 0x40 MLOAD DUP1 SWAP2 SUB SWAP1 REVERT JUMPDEST PUSH1 0x1 ISZERO ISZERO PUSH2 0x401 PUSH2 0x14A8 JUMP JUMPDEST ISZERO ISZERO EQ PUSH2 0x443 JUMPI PUSH1 0x40 MLOAD PUSH32 0x8C379A000000000000000000000000000000000000000000000000000000000 DUP2 MSTORE PUSH1 0x4 ADD PUSH2 0x43A SWAP1 PUSH2 0x243B JUMP JUMPDEST PUSH1 0x40 MLOAD DUP1 SWAP2 SUB SWAP1 REVERT JUMPDEST PUSH1 0x0 PUSH1 0x40 MLOAD DUP1 PUSH1 0x60 ADD PUSH1 0x40 MSTORE DUP1 CALLER PUSH20 0xFFFFFFFFFFFFFFFFFFFFFFFFFFFFFFFFFFFFFFFF AND DUP2 MSTORE PUSH1 0x20 ADD DUP5 DUP2 MSTORE PUSH1 0x20 ADD DUP4 DUP2 MSTORE POP SWAP1 POP PUSH1 0xB DUP2 SWAP1 DUP1 PUSH1 0x1 DUP2 SLOAD ADD DUP1 DUP3 SSTORE DUP1 SWAP2 POP POP PUSH1 0x1 SWAP1 SUB SWAP1 PUSH1 0x0 MSTORE PUSH1 0x20 PUSH1 0x0 KECCAK256 SWAP1 PUSH1 0x3 MUL ADD PUSH1 0x0 SWAP1 SWAP2 SWAP1 SWAP2 SWAP1 SWAP2 POP PUSH1 0x0 DUP3 ADD MLOAD DUP2 PUSH1 0x0 ADD PUSH1 0x0 PUSH2 0x100 EXP DUP2 SLOAD DUP2 PUSH20 0xFFFFFFFFFFFFFFFFFFFFFFFFFFFFFFFFFFFFFFFF MUL NOT AND SWAP1 DUP4 PUSH20 0xFFFFFFFFFFFFFFFFFFFFFFFFFFFFFFFFFFFFFFFF AND MUL OR SWAP1 SSTORE POP PUSH1 0x20 DUP3 ADD MLOAD DUP2 PUSH1 0x1 ADD SSTORE PUSH1 0x40 DUP3 ADD MLOAD DUP2 PUSH1 0x2 ADD SWAP1 DUP2 PUSH2 0x50A SWAP2 SWAP1 PUSH2 0x2667 JUMP JUMPDEST POP POP POP POP POP POP JUMP JUMPDEST PUSH1 0x60 PUSH1 0x1 ISZERO ISZERO PUSH1 0x8 PUSH1 0x0 SWAP1 SLOAD SWAP1 PUSH2 0x100 EXP SWAP1 DIV PUSH1 0xFF AND ISZERO ISZERO EQ PUSH2 0x56A JUMPI PUSH1 0x40 MLOAD PUSH32 0x8C379A000000000000000000000000000000000000000000000000000000000 DUP2 MSTORE PUSH1 0x4 ADD PUSH2 0x561 SWAP1 PUSH2 0x23A9 JUMP JUMPDEST PUSH1 0x40 MLOAD DUP1 SWAP2 SUB SWAP1 REVERT JUMPDEST PUSH1 0xC DUP1 SLOAD DUP1 PUSH1 0x20 MUL PUSH1 0x20 ADD PUSH1 0x40 MLOAD SWAP1 DUP2 ADD PUSH1 0x40 MSTORE DUP1 SWAP3 SWAP2 SWAP1 DUP2 DUP2 MSTORE PUSH1 0x20 ADD PUSH1 0x0 SWAP1 JUMPDEST DUP3 DUP3 LT ISZERO PUSH2 0x6B0 JUMPI DUP4 DUP3 SWAP1 PUSH1 0x0 MSTORE PUSH1 0x20 PUSH1 0x0 KECCAK256 SWAP1 PUSH1 0x3 MUL ADD PUSH1 0x40 MLOAD DUP1 PUSH1 0x60 ADD PUSH1 0x40 MSTORE SWAP1 DUP2 PUSH1 0x0 DUP3 ADD SLOAD DUP2 MSTORE PUSH1 0x20 ADD PUSH1 0x1 DUP3 ADD PUSH1 0x0 SWAP1 SLOAD SWAP1 PUSH2 0x100 EXP SWAP1 DIV PUSH20 0xFFFFFFFFFFFFFFFFFFFFFFFFFFFFFFFFFFFFFFFF AND PUSH20 0xFFFFFFFFFFFFFFFFFFFFFFFFFFFFFFFFFFFFFFFF AND PUSH20 0xFFFFFFFFFFFFFFFFFFFFFFFFFFFFFFFFFFFFFFFF AND DUP2 MSTORE PUSH1 0x20 ADD PUSH1 0x2 DUP3 ADD DUP1 SLOAD PUSH2 0x61F SWAP1 PUSH2 0x248A JUMP JUMPDEST DUP1 PUSH1 0x1F ADD PUSH1 0x20 DUP1 SWAP2 DIV MUL PUSH1 0x20 ADD PUSH1 0x40 MLOAD SWAP1 DUP2 ADD PUSH1 0x40 MSTORE DUP1 SWAP3 SWAP2 SWAP1 DUP2 DUP2 MSTORE PUSH1 0x20 ADD DUP3 DUP1 SLOAD PUSH2 0x64B SWAP1 PUSH2 0x248A JUMP JUMPDEST DUP1 ISZERO PUSH2 0x698 JUMPI DUP1 PUSH1 0x1F LT PUSH2 0x66D JUMPI PUSH2 0x100 DUP1 DUP4 SLOAD DIV MUL DUP4 MSTORE SWAP2 PUSH1 0x20 ADD SWAP2 PUSH2 0x698 JUMP JUMPDEST DUP3 ADD SWAP2 SWAP1 PUSH1 0x0 MSTORE PUSH1 0x20 PUSH1 0x0 KECCAK256 SWAP1 JUMPDEST DUP2 SLOAD DUP2 MSTORE SWAP1 PUSH1 0x1 ADD SWAP1 PUSH1 0x20 ADD DUP1 DUP4 GT PUSH2 0x67B JUMPI DUP3 SWAP1 SUB PUSH1 0x1F AND DUP3 ADD SWAP2 JUMPDEST POP POP POP POP POP DUP2 MSTORE POP POP DUP2 MSTORE PUSH1 0x20 ADD SWAP1 PUSH1 0x1 ADD SWAP1 PUSH2 0x58C JUMP JUMPDEST POP POP POP POP SWAP1 POP SWAP1 JUMP JUMPDEST PUSH1 0xA PUSH1 0x20 MSTORE DUP1 PUSH1 0x0 MSTORE PUSH1 0x40 PUSH1 0x0 KECCAK256 PUSH1 0x0 SWAP2 POP SWAP1 POP SLOAD DUP2 JUMP JUMPDEST PUSH1 0x6 SLOAD TIMESTAMP GT PUSH2 0x715 JUMPI PUSH1 0x40 MLOAD PUSH32 0x8C379A000000000000000000000000000000000000000000000000000000000 DUP2 MSTORE PUSH1 0x4 ADD PUSH2 0x70C SWAP1 PUSH2 0x2785 JUMP JUMPDEST PUSH1 0x40 MLOAD DUP1 SWAP2 SUB SWAP1 REVERT JUMPDEST PUSH1 0x0 JUMPDEST PUSH1 0x9 DUP1 SLOAD SWAP1 POP DUP2 LT ISZERO PUSH2 0x7C0 JUMPI PUSH1 0x0 PUSH1 0x9 DUP3 DUP2 SLOAD DUP2 LT PUSH2 0x73B JUMPI PUSH2 0x73A PUSH2 0x27A5 JUMP JUMPDEST JUMPDEST SWAP1 PUSH1 0x0 MSTORE PUSH1 0x20 PUSH1 0x0 KECCAK256 ADD PUSH1 0x0 SWAP1 SLOAD SWAP1 PUSH2 0x100 EXP SWAP1 DIV PUSH20 0xFFFFFFFFFFFFFFFFFFFFFFFFFFFFFFFFFFFFFFFF AND SWAP1 POP PUSH1 0xA PUSH1 0x0 DUP3 PUSH20 0xFFFFFFFFFFFFFFFFFFFFFFFFFFFFFFFFFFFFFFFF AND PUSH20 0xFFFFFFFFFFFFFFFFFFFFFFFFFFFFFFFFFFFFFFFF AND DUP2 MSTORE PUSH1 0x20 ADD SWAP1 DUP2 MSTORE PUSH1 0x20 ADD PUSH1 0x0 KECCAK256 PUSH1 0x0 SWAP1 SSTORE POP PUSH1 0x1 DUP2 PUSH2 0x7B9 SWAP2 SWAP1 PUSH2 0x2803 JUMP JUMPDEST SWAP1 POP PUSH2 0x718 JUMP JUMPDEST POP JUMP JUMPDEST PUSH1 0x0 PUSH1 0x9 DUP3 DUP2 SLOAD DUP2 LT PUSH2 0x7D9 JUMPI PUSH2 0x7D8 PUSH2 0x27A5 JUMP JUMPDEST JUMPDEST SWAP1 PUSH1 0x0 MSTORE PUSH1 0x20 PUSH1 0x0 KECCAK256 ADD PUSH1 0x0 SWAP1 SLOAD SWAP1 PUSH2 0x100 EXP SWAP1 DIV PUSH20 0xFFFFFFFFFFFFFFFFFFFFFFFFFFFFFFFFFFFFFFFF AND SWAP1 POP SWAP2 SWAP1 POP JUMP JUMPDEST PUSH1 0x1 PUSH1 0x0 SWAP1 SLOAD SWAP1 PUSH2 0x100 EXP SWAP1 DIV PUSH20 0xFFFFFFFFFFFFFFFFFFFFFFFFFFFFFFFFFFFFFFFF AND DUP2 JUMP JUMPDEST PUSH1 0x1 ISZERO ISZERO PUSH1 0x8 PUSH1 0x0 SWAP1 SLOAD SWAP1 PUSH2 0x100 EXP SWAP1 DIV PUSH1 0xFF AND ISZERO ISZERO EQ PUSH2 0x887 JUMPI PUSH1 0x40 MLOAD PUSH32 0x8C379A000000000000000000000000000000000000000000000000000000000 DUP2 MSTORE PUSH1 0x4 ADD PUSH2 0x87E SWAP1 PUSH2 0x23A9 JUMP JUMPDEST PUSH1 0x40 MLOAD DUP1 SWAP2 SUB SWAP1 REVERT JUMPDEST PUSH1 0x1 ISZERO ISZERO PUSH2 0x893 PUSH2 0x14A8 JUMP JUMPDEST ISZERO ISZERO EQ PUSH2 0x8D5 JUMPI PUSH1 0x40 MLOAD PUSH32 0x8C379A000000000000000000000000000000000000000000000000000000000 DUP2 MSTORE PUSH1 0x4 ADD PUSH2 0x8CC SWAP1 PUSH2 0x243B JUMP JUMPDEST PUSH1 0x40 MLOAD DUP1 SWAP2 SUB SWAP1 REVERT JUMPDEST PUSH1 0x0 PUSH2 0x8E1 DUP4 DUP4 PUSH2 0x1554 JUMP JUMPDEST SWAP1 POP DUP1 PUSH1 0xA PUSH1 0x0 CALLER PUSH20 0xFFFFFFFFFFFFFFFFFFFFFFFFFFFFFFFFFFFFFFFF AND PUSH20 0xFFFFFFFFFFFFFFFFFFFFFFFFFFFFFFFFFFFFFFFF AND DUP2 MSTORE PUSH1 0x20 ADD SWAP1 DUP2 MSTORE PUSH1 0x20 ADD PUSH1 0x0 KECCAK256 SLOAD EQ PUSH2 0x964 JUMPI PUSH1 0x40 MLOAD PUSH32 0x8C379A000000000000000000000000000000000000000000000000000000000 DUP2 MSTORE PUSH1 0x4 ADD PUSH2 0x95B SWAP1 PUSH2 0x28A9 JUMP JUMPDEST PUSH1 0x40 MLOAD DUP1 SWAP2 SUB SWAP1 REVERT JUMPDEST PUSH1 0x1 ISZERO ISZERO PUSH2 0x971 DUP5 PUSH2 0x1601 JUMP JUMPDEST ISZERO ISZERO EQ PUSH2 0x9B3 JUMPI PUSH1 0x40 MLOAD PUSH32 0x8C379A000000000000000000000000000000000000000000000000000000000 DUP2 MSTORE PUSH1 0x4 ADD PUSH2 0x9AA SWAP1 PUSH2 0x2961 JUMP JUMPDEST PUSH1 0x40 MLOAD DUP1 SWAP2 SUB SWAP1 REVERT JUMPDEST PUSH2 0x9BB PUSH2 0x166B JUMP JUMPDEST PUSH2 0x9C5 DUP4 DUP4 PUSH2 0x167B JUMP JUMPDEST PUSH1 0x0 PUSH1 0x40 MLOAD DUP1 PUSH1 0x60 ADD PUSH1 0x40 MSTORE DUP1 DUP6 DUP2 MSTORE PUSH1 0x20 ADD CALLER PUSH20 0xFFFFFFFFFFFFFFFFFFFFFFFFFFFFFFFFFFFFFFFF AND DUP2 MSTORE PUSH1 0x20 ADD DUP5 DUP2 MSTORE POP SWAP1 POP PUSH1 0xC DUP2 SWAP1 DUP1 PUSH1 0x1 DUP2 SLOAD ADD DUP1 DUP3 SSTORE DUP1 SWAP2 POP POP PUSH1 0x1 SWAP1 SUB SWAP1 PUSH1 0x0 MSTORE PUSH1 0x20 PUSH1 0x0 KECCAK256 SWAP1 PUSH1 0x3 MUL ADD PUSH1 0x0 SWAP1 SWAP2 SWAP1 SWAP2 SWAP1 SWAP2 POP PUSH1 0x0 DUP3 ADD MLOAD DUP2 PUSH1 0x0 ADD SSTORE PUSH1 0x20 DUP3 ADD MLOAD DUP2 PUSH1 0x1 ADD PUSH1 0x0 PUSH2 0x100 EXP DUP2 SLOAD DUP2 PUSH20 0xFFFFFFFFFFFFFFFFFFFFFFFFFFFFFFFFFFFFFFFF MUL NOT AND SWAP1 DUP4 PUSH20 0xFFFFFFFFFFFFFFFFFFFFFFFFFFFFFFFFFFFFFFFF AND MUL OR SWAP1 SSTORE POP PUSH1 0x40 DUP3 ADD MLOAD DUP2 PUSH1 0x2 ADD SWAP1 DUP2 PUSH2 0xA8C SWAP2 SWAP1 PUSH2 0x2667 JUMP JUMPDEST POP POP POP POP POP POP POP JUMP JUMPDEST PUSH1 0xC DUP2 DUP2 SLOAD DUP2 LT PUSH2 0xAA5 JUMPI PUSH1 0x0 DUP1 REVERT JUMPDEST SWAP1 PUSH1 0x0 MSTORE PUSH1 0x20 PUSH1 0x0 KECCAK256 SWAP1 PUSH1 0x3 MUL ADD PUSH1 0x0 SWAP2 POP SWAP1 POP DUP1 PUSH1 0x0 ADD SLOAD SWAP1 DUP1 PUSH1 0x1 ADD PUSH1 0x0 SWAP1 SLOAD SWAP1 PUSH2 0x100 EXP SWAP1 DIV PUSH20 0xFFFFFFFFFFFFFFFFFFFFFFFFFFFFFFFFFFFFFFFF AND SWAP1 DUP1 PUSH1 0x2 ADD DUP1 SLOAD PUSH2 0xAF4 SWAP1 PUSH2 0x248A JUMP JUMPDEST DUP1 PUSH1 0x1F ADD PUSH1 0x20 DUP1 SWAP2 DIV MUL PUSH1 0x20 ADD PUSH1 0x40 MLOAD SWAP1 DUP2 ADD PUSH1 0x40 MSTORE DUP1 SWAP3 SWAP2 SWAP1 DUP2 DUP2 MSTORE PUSH1 0x20 ADD DUP3 DUP1 SLOAD PUSH2 0xB20 SWAP1 PUSH2 0x248A JUMP JUMPDEST DUP1 ISZERO PUSH2 0xB6D JUMPI DUP1 PUSH1 0x1F LT PUSH2 0xB42 JUMPI PUSH2 0x100 DUP1 DUP4 SLOAD DIV MUL DUP4 MSTORE SWAP2 PUSH1 0x20 ADD SWAP2 PUSH2 0xB6D JUMP JUMPDEST DUP3 ADD SWAP2 SWAP1 PUSH1 0x0 MSTORE PUSH1 0x20 PUSH1 0x0 KECCAK256 SWAP1 JUMPDEST DUP2 SLOAD DUP2 MSTORE SWAP1 PUSH1 0x1 ADD SWAP1 PUSH1 0x20 ADD DUP1 DUP4 GT PUSH2 0xB50 JUMPI DUP3 SWAP1 SUB PUSH1 0x1F AND DUP3 ADD SWAP2 JUMPDEST POP POP POP POP POP SWAP1 POP DUP4 JUMP JUMPDEST PUSH1 0x2 DUP1 SLOAD PUSH2 0xB84 SWAP1 PUSH2 0x248A JUMP JUMPDEST DUP1 PUSH1 0x1F ADD PUSH1 0x20 DUP1 SWAP2 DIV MUL PUSH1 0x20 ADD PUSH1 0x40 MLOAD SWAP1 DUP2 ADD PUSH1 0x40 MSTORE DUP1 SWAP3 SWAP2 SWAP1 DUP2 DUP2 MSTORE PUSH1 0x20 ADD DUP3 DUP1 SLOAD PUSH2 0xBB0 SWAP1 PUSH2 0x248A JUMP JUMPDEST DUP1 ISZERO PUSH2 0xBFD JUMPI DUP1 PUSH1 0x1F LT PUSH2 0xBD2 JUMPI PUSH2 0x100 DUP1 DUP4 SLOAD DIV MUL DUP4 MSTORE SWAP2 PUSH1 0x20 ADD SWAP2 PUSH2 0xBFD JUMP JUMPDEST DUP3 ADD SWAP2 SWAP1 PUSH1 0x0 MSTORE PUSH1 0x20 PUSH1 0x0 KECCAK256 SWAP1 JUMPDEST DUP2 SLOAD DUP2 MSTORE SWAP1 PUSH1 0x1 ADD SWAP1 PUSH1 0x20 ADD DUP1 DUP4 GT PUSH2 0xBE0 JUMPI DUP3 SWAP1 SUB PUSH1 0x1F AND DUP3 ADD SWAP2 JUMPDEST POP POP POP POP POP DUP2 JUMP JUMPDEST CALLER PUSH1 0x0 DUP1 PUSH2 0x100 EXP DUP2 SLOAD DUP2 PUSH20 0xFFFFFFFFFFFFFFFFFFFFFFFFFFFFFFFFFFFFFFFF MUL NOT AND SWAP1 DUP4 PUSH20 0xFFFFFFFFFFFFFFFFFFFFFFFFFFFFFFFFFFFFFFFF AND MUL OR SWAP1 SSTORE POP DUP2 PUSH1 0x3 SWAP1 DUP2 PUSH2 0xC54 SWAP2 SWAP1 PUSH2 0x2667 JUMP JUMPDEST POP DUP1 PUSH1 0x2 SWAP1 DUP2 PUSH2 0xC64 SWAP2 SWAP1 PUSH2 0x2667 JUMP JUMPDEST POP PUSH2 0xC6D PUSH2 0x174A JUMP JUMPDEST PUSH1 0x1 PUSH1 0x8 PUSH1 0x0 PUSH2 0x100 EXP DUP2 SLOAD DUP2 PUSH1 0xFF MUL NOT AND SWAP1 DUP4 ISZERO ISZERO MUL OR SWAP1 SSTORE POP POP POP JUMP JUMPDEST PUSH1 0xB DUP2 DUP2 SLOAD DUP2 LT PUSH2 0xC9C JUMPI PUSH1 0x0 DUP1 REVERT JUMPDEST SWAP1 PUSH1 0x0 MSTORE PUSH1 0x20 PUSH1 0x0 KECCAK256 SWAP1 PUSH1 0x3 MUL ADD PUSH1 0x0 SWAP2 POP SWAP1 POP DUP1 PUSH1 0x0 ADD PUSH1 0x0 SWAP1 SLOAD SWAP1 PUSH2 0x100 EXP SWAP1 DIV PUSH20 0xFFFFFFFFFFFFFFFFFFFFFFFFFFFFFFFFFFFFFFFF AND SWAP1 DUP1 PUSH1 0x1 ADD SLOAD SWAP1 DUP1 PUSH1 0x2 ADD DUP1 SLOAD PUSH2 0xCEB SWAP1 PUSH2 0x248A JUMP JUMPDEST DUP1 PUSH1 0x1F ADD PUSH1 0x20 DUP1 SWAP2 DIV MUL PUSH1 0x20 ADD PUSH1 0x40 MLOAD SWAP1 DUP2 ADD PUSH1 0x40 MSTORE DUP1 SWAP3 SWAP2 SWAP1 DUP2 DUP2 MSTORE PUSH1 0x20 ADD DUP3 DUP1 SLOAD PUSH2 0xD17 SWAP1 PUSH2 0x248A JUMP JUMPDEST DUP1 ISZERO PUSH2 0xD64 JUMPI DUP1 PUSH1 0x1F LT PUSH2 0xD39 JUMPI PUSH2 0x100 DUP1 DUP4 SLOAD DIV MUL DUP4 MSTORE SWAP2 PUSH1 0x20 ADD SWAP2 PUSH2 0xD64 JUMP JUMPDEST DUP3 ADD SWAP2 SWAP1 PUSH1 0x0 MSTORE PUSH1 0x20 PUSH1 0x0 KECCAK256 SWAP1 JUMPDEST DUP2 SLOAD DUP2 MSTORE SWAP1 PUSH1 0x1 ADD SWAP1 PUSH1 0x20 ADD DUP1 DUP4 GT PUSH2 0xD47 JUMPI DUP3 SWAP1 SUB PUSH1 0x1F AND DUP3 ADD SWAP2 JUMPDEST POP POP POP POP POP SWAP1 POP DUP4 JUMP JUMPDEST PUSH1 0x3 DUP1 SLOAD PUSH2 0xD7B SWAP1 PUSH2 0x248A JUMP JUMPDEST DUP1 PUSH1 0x1F ADD PUSH1 0x20 DUP1 SWAP2 DIV MUL PUSH1 0x20 ADD PUSH1 0x40 MLOAD SWAP1 DUP2 ADD PUSH1 0x40 MSTORE DUP1 SWAP3 SWAP2 SWAP1 DUP2 DUP2 MSTORE PUSH1 0x20 ADD DUP3 DUP1 SLOAD PUSH2 0xDA7 SWAP1 PUSH2 0x248A JUMP JUMPDEST DUP1 ISZERO PUSH2 0xDF4 JUMPI DUP1 PUSH1 0x1F LT PUSH2 0xDC9 JUMPI PUSH2 0x100 DUP1 DUP4 SLOAD DIV MUL DUP4 MSTORE SWAP2 PUSH1 0x20 ADD SWAP2 PUSH2 0xDF4 JUMP JUMPDEST DUP3 ADD SWAP2 SWAP1 PUSH1 0x0 MSTORE PUSH1 0x20 PUSH1 0x0 KECCAK256 SWAP1 JUMPDEST DUP2 SLOAD DUP2 MSTORE SWAP1 PUSH1 0x1 ADD SWAP1 PUSH1 0x20 ADD DUP1 DUP4 GT PUSH2 0xDD7 JUMPI DUP3 SWAP1 SUB PUSH1 0x1F AND DUP3 ADD SWAP2 JUMPDEST POP POP POP POP POP DUP2 JUMP JUMPDEST PUSH1 0x9 DUP2 DUP2 SLOAD DUP2 LT PUSH2 0xE0C JUMPI PUSH1 0x0 DUP1 REVERT JUMPDEST SWAP1 PUSH1 0x0 MSTORE PUSH1 0x20 PUSH1 0x0 KECCAK256 ADD PUSH1 0x0 SWAP2 POP SLOAD SWAP1 PUSH2 0x100 EXP SWAP1 DIV PUSH20 0xFFFFFFFFFFFFFFFFFFFFFFFFFFFFFFFFFFFFFFFF AND DUP2 JUMP JUMPDEST PUSH1 0x6 SLOAD TIMESTAMP GT PUSH2 0xE7F JUMPI PUSH1 0x40 MLOAD PUSH32 0x8C379A000000000000000000000000000000000000000000000000000000000 DUP2 MSTORE PUSH1 0x4 ADD PUSH2 0xE76 SWAP1 PUSH2 0x2785 JUMP JUMPDEST PUSH1 0x40 MLOAD DUP1 SWAP2 SUB SWAP1 REVERT JUMPDEST PUSH1 0xB PUSH1 0x0 PUSH2 0xE8D SWAP2 SWAP1 PUSH2 0x19E5 JUMP JUMPDEST PUSH1 0x40 MLOAD DUP1 PUSH1 0x20 ADD PUSH1 0x40 MSTORE DUP1 PUSH1 0x0 DUP2 MSTORE POP PUSH1 0x2 SWAP1 DUP2 PUSH2 0xEAB SWAP2 SWAP1 PUSH2 0x2667 JUMP JUMPDEST POP PUSH1 0x40 MLOAD DUP1 PUSH1 0x20 ADD PUSH1 0x40 MSTORE DUP1 PUSH1 0x0 DUP2 MSTORE POP PUSH1 0x3 SWAP1 DUP2 PUSH2 0xECA SWAP2 SWAP1 PUSH2 0x2667 JUMP JUMPDEST POP PUSH2 0xED3 PUSH2 0x6D1 JUMP JUMPDEST PUSH1 0x9 PUSH1 0x0 PUSH2 0xEE1 SWAP2 SWAP1 PUSH2 0x1A09 JUMP JUMPDEST PUSH1 0xC PUSH1 0x0 PUSH2 0xEEF SWAP2 SWAP1 PUSH2 0x1A2A JUMP JUMPDEST PUSH1 0x0 PUSH1 0x8 PUSH1 0x0 PUSH2 0x100 EXP DUP2 SLOAD DUP2 PUSH1 0xFF MUL NOT AND SWAP1 DUP4 ISZERO ISZERO MUL OR SWAP1 SSTORE POP JUMP JUMPDEST PUSH1 0x60 DUP1 PUSH1 0x1 ISZERO ISZERO PUSH1 0x8 PUSH1 0x0 SWAP1 SLOAD SWAP1 PUSH2 0x100 EXP SWAP1 DIV PUSH1 0xFF AND ISZERO ISZERO EQ PUSH2 0xF65 JUMPI PUSH1 0x40 MLOAD PUSH32 0x8C379A000000000000000000000000000000000000000000000000000000000 DUP2 MSTORE PUSH1 0x4 ADD PUSH2 0xF5C SWAP1 PUSH2 0x23A9 JUMP JUMPDEST PUSH1 0x40 MLOAD DUP1 SWAP2 SUB SWAP1 REVERT JUMPDEST PUSH1 0x3 PUSH1 0x2 DUP2 DUP1 SLOAD PUSH2 0xF75 SWAP1 PUSH2 0x248A JUMP JUMPDEST DUP1 PUSH1 0x1F ADD PUSH1 0x20 DUP1 SWAP2 DIV MUL PUSH1 0x20 ADD PUSH1 0x40 MLOAD SWAP1 DUP2 ADD PUSH1 0x40 MSTORE DUP1 SWAP3 SWAP2 SWAP1 DUP2 DUP2 MSTORE PUSH1 0x20 ADD DUP3 DUP1 SLOAD PUSH2 0xFA1 SWAP1 PUSH2 0x248A JUMP JUMPDEST DUP1 ISZERO PUSH2 0xFEE JUMPI DUP1 PUSH1 0x1F LT PUSH2 0xFC3 JUMPI PUSH2 0x100 DUP1 DUP4 SLOAD DIV MUL DUP4 MSTORE SWAP2 PUSH1 0x20 ADD SWAP2 PUSH2 0xFEE JUMP JUMPDEST DUP3 ADD SWAP2 SWAP1 PUSH1 0x0 MSTORE PUSH1 0x20 PUSH1 0x0 KECCAK256 SWAP1 JUMPDEST DUP2 SLOAD DUP2 MSTORE SWAP1 PUSH1 0x1 ADD SWAP1 PUSH1 0x20 ADD DUP1 DUP4 GT PUSH2 0xFD1 JUMPI DUP3 SWAP1 SUB PUSH1 0x1F AND DUP3 ADD SWAP2 JUMPDEST POP POP POP POP POP SWAP2 POP DUP1 DUP1 SLOAD PUSH2 0x1001 SWAP1 PUSH2 0x248A JUMP JUMPDEST DUP1 PUSH1 0x1F ADD PUSH1 0x20 DUP1 SWAP2 DIV MUL PUSH1 0x20 ADD PUSH1 0x40 MLOAD SWAP1 DUP2 ADD PUSH1 0x40 MSTORE DUP1 SWAP3 SWAP2 SWAP1 DUP2 DUP2 MSTORE PUSH1 0x20 ADD DUP3 DUP1 SLOAD PUSH2 0x102D SWAP1 PUSH2 0x248A JUMP JUMPDEST DUP1 ISZERO PUSH2 0x107A JUMPI DUP1 PUSH1 0x1F LT PUSH2 0x104F JUMPI PUSH2 0x100 DUP1 DUP4 SLOAD DIV MUL DUP4 MSTORE SWAP2 PUSH1 0x20 ADD SWAP2 PUSH2 0x107A JUMP JUMPDEST DUP3 ADD SWAP2 SWAP1 PUSH1 0x0 MSTORE PUSH1 0x20 PUSH1 0x0 KECCAK256 SWAP1 JUMPDEST DUP2 SLOAD DUP2 MSTORE SWAP1 PUSH1 0x1 ADD SWAP1 PUSH1 0x20 ADD DUP1 DUP4 GT PUSH2 0x105D JUMPI DUP3 SWAP1 SUB PUSH1 0x1F AND DUP3 ADD SWAP2 JUMPDEST POP POP POP POP POP SWAP1 POP SWAP2 POP SWAP2 POP SWAP1 SWAP2 JUMP JUMPDEST PUSH1 0x60 PUSH1 0x1 ISZERO ISZERO PUSH1 0x8 PUSH1 0x0 SWAP1 SLOAD SWAP1 PUSH2 0x100 EXP SWAP1 DIV PUSH1 0xFF AND ISZERO ISZERO EQ PUSH2 0x10E1 JUMPI PUSH1 0x40 MLOAD PUSH32 0x8C379A000000000000000000000000000000000000000000000000000000000 DUP2 MSTORE PUSH1 0x4 ADD PUSH2 0x10D8 SWAP1 PUSH2 0x23A9 JUMP JUMPDEST PUSH1 0x40 MLOAD DUP1 SWAP2 SUB SWAP1 REVERT JUMPDEST PUSH1 0xB DUP1 SLOAD DUP1 PUSH1 0x20 MUL PUSH1 0x20 ADD PUSH1 0x40 MLOAD SWAP1 DUP2 ADD PUSH1 0x40 MSTORE DUP1 SWAP3 SWAP2 SWAP1 DUP2 DUP2 MSTORE PUSH1 0x20 ADD PUSH1 0x0 SWAP1 JUMPDEST DUP3 DUP3 LT ISZERO PUSH2 0x1227 JUMPI DUP4 DUP3 SWAP1 PUSH1 0x0 MSTORE PUSH1 0x20 PUSH1 0x0 KECCAK256 SWAP1 PUSH1 0x3 MUL ADD PUSH1 0x40 MLOAD DUP1 PUSH1 0x60 ADD PUSH1 0x40 MSTORE SWAP1 DUP2 PUSH1 0x0 DUP3 ADD PUSH1 0x0 SWAP1 SLOAD SWAP1 PUSH2 0x100 EXP SWAP1 DIV PUSH20 0xFFFFFFFFFFFFFFFFFFFFFFFFFFFFFFFFFFFFFFFF AND PUSH20 0xFFFFFFFFFFFFFFFFFFFFFFFFFFFFFFFFFFFFFFFF AND PUSH20 0xFFFFFFFFFFFFFFFFFFFFFFFFFFFFFFFFFFFFFFFF AND DUP2 MSTORE PUSH1 0x20 ADD PUSH1 0x1 DUP3 ADD SLOAD DUP2 MSTORE PUSH1 0x20 ADD PUSH1 0x2 DUP3 ADD DUP1 SLOAD PUSH2 0x1196 SWAP1 PUSH2 0x248A JUMP JUMPDEST DUP1 PUSH1 0x1F ADD PUSH1 0x20 DUP1 SWAP2 DIV MUL PUSH1 0x20 ADD PUSH1 0x40 MLOAD SWAP1 DUP2 ADD PUSH1 0x40 MSTORE DUP1 SWAP3 SWAP2 SWAP1 DUP2 DUP2 MSTORE PUSH1 0x20 ADD DUP3 DUP1 SLOAD PUSH2 0x11C2 SWAP1 PUSH2 0x248A JUMP JUMPDEST DUP1 ISZERO PUSH2 0x120F JUMPI DUP1 PUSH1 0x1F LT PUSH2 0x11E4 JUMPI PUSH2 0x100 DUP1 DUP4 SLOAD DIV MUL DUP4 MSTORE SWAP2 PUSH1 0x20 ADD SWAP2 PUSH2 0x120F JUMP JUMPDEST DUP3 ADD SWAP2 SWAP1 PUSH1 0x0 MSTORE PUSH1 0x20 PUSH1 0x0 KECCAK256 SWAP1 JUMPDEST DUP2 SLOAD DUP2 MSTORE SWAP1 PUSH1 0x1 ADD SWAP1 PUSH1 0x20 ADD DUP1 DUP4 GT PUSH2 0x11F2 JUMPI DUP3 SWAP1 SUB PUSH1 0x1F AND DUP3 ADD SWAP2 JUMPDEST POP POP POP POP POP DUP2 MSTORE POP POP DUP2 MSTORE PUSH1 0x20 ADD SWAP1 PUSH1 0x1 ADD SWAP1 PUSH2 0x1103 JUMP JUMPDEST POP POP POP POP SWAP1 POP SWAP1 JUMP JUMPDEST PUSH1 0x1 ISZERO ISZERO PUSH1 0x8 PUSH1 0x0 SWAP1 SLOAD SWAP1 PUSH2 0x100 EXP SWAP1 DIV PUSH1 0xFF AND ISZERO ISZERO EQ PUSH2 0x1286 JUMPI PUSH1 0x40 MLOAD PUSH32 0x8C379A000000000000000000000000000000000000000000000000000000000 DUP2 MSTORE PUSH1 0x4 ADD PUSH2 0x127D SWAP1 PUSH2 0x23A9 JUMP JUMPDEST PUSH1 0x40 MLOAD DUP1 SWAP2 SUB SWAP1 REVERT JUMPDEST PUSH1 0x1 ISZERO ISZERO PUSH2 0x1292 PUSH2 0x14A8 JUMP JUMPDEST ISZERO ISZERO EQ PUSH2 0x12D4 JUMPI PUSH1 0x40 MLOAD PUSH32 0x8C379A000000000000000000000000000000000000000000000000000000000 DUP2 MSTORE PUSH1 0x4 ADD PUSH2 0x12CB SWAP1 PUSH2 0x243B JUMP JUMPDEST PUSH1 0x40 MLOAD DUP1 SWAP2 SUB SWAP1 REVERT JUMPDEST DUP1 PUSH1 0xA PUSH1 0x0 CALLER PUSH20 0xFFFFFFFFFFFFFFFFFFFFFFFFFFFFFFFFFFFFFFFF AND PUSH20 0xFFFFFFFFFFFFFFFFFFFFFFFFFFFFFFFFFFFFFFFF AND DUP2 MSTORE PUSH1 0x20 ADD SWAP1 DUP2 MSTORE PUSH1 0x20 ADD PUSH1 0x0 KECCAK256 DUP2 SWAP1 SSTORE POP POP JUMP JUMPDEST PUSH1 0x1 ISZERO ISZERO PUSH1 0x8 PUSH1 0x0 SWAP1 SLOAD SWAP1 PUSH2 0x100 EXP SWAP1 DIV PUSH1 0xFF AND ISZERO ISZERO EQ PUSH2 0x1371 JUMPI PUSH1 0x40 MLOAD PUSH32 0x8C379A000000000000000000000000000000000000000000000000000000000 DUP2 MSTORE PUSH1 0x4 ADD PUSH2 0x1368 SWAP1 PUSH2 0x23A9 JUMP JUMPDEST PUSH1 0x40 MLOAD DUP1 SWAP2 SUB SWAP1 REVERT JUMPDEST PUSH1 0x0 DUP1 SLOAD SWAP1 PUSH2 0x100 EXP SWAP1 DIV PUSH20 0xFFFFFFFFFFFFFFFFFFFFFFFFFFFFFFFFFFFFFFFF AND PUSH20 0xFFFFFFFFFFFFFFFFFFFFFFFFFFFFFFFFFFFFFFFF AND CALLER PUSH20 0xFFFFFFFFFFFFFFFFFFFFFFFFFFFFFFFFFFFFFFFF AND SUB PUSH2 0x13FF JUMPI PUSH1 0x40 MLOAD PUSH32 0x8C379A000000000000000000000000000000000000000000000000000000000 DUP2 MSTORE PUSH1 0x4 ADD PUSH2 0x13F6 SWAP1 PUSH2 0x29F3 JUMP JUMPDEST PUSH1 0x40 MLOAD DUP1 SWAP2 SUB SWAP1 REVERT JUMPDEST PUSH1 0x4 SLOAD TIMESTAMP LT PUSH2 0x1443 JUMPI PUSH1 0x40 MLOAD PUSH32 0x8C379A000000000000000000000000000000000000000000000000000000000 DUP2 MSTORE PUSH1 0x4 ADD PUSH2 0x143A SWAP1 PUSH2 0x2A85 JUMP JUMPDEST PUSH1 0x40 MLOAD DUP1 SWAP2 SUB SWAP1 REVERT JUMPDEST PUSH1 0x9 CALLER SWAP1 DUP1 PUSH1 0x1 DUP2 SLOAD ADD DUP1 DUP3 SSTORE DUP1 SWAP2 POP POP PUSH1 0x1 SWAP1 SUB SWAP1 PUSH1 0x0 MSTORE PUSH1 0x20 PUSH1 0x0 KECCAK256 ADD PUSH1 0x0 SWAP1 SWAP2 SWAP1 SWAP2 SWAP1 SWAP2 PUSH2 0x100 EXP DUP2 SLOAD DUP2 PUSH20 0xFFFFFFFFFFFFFFFFFFFFFFFFFFFFFFFFFFFFFFFF MUL NOT AND SWAP1 DUP4 PUSH20 0xFFFFFFFFFFFFFFFFFFFFFFFFFFFFFFFFFFFFFFFF AND MUL OR SWAP1 SSTORE POP JUMP JUMPDEST PUSH1 0x0 DUP1 PUSH1 0x0 SWAP1 POP JUMPDEST PUSH1 0x9 DUP1 SLOAD SWAP1 POP DUP2 LT ISZERO PUSH2 0x154B JUMPI PUSH1 0x9 DUP2 DUP2 SLOAD DUP2 LT PUSH2 0x14D1 JUMPI PUSH2 0x14D0 PUSH2 0x27A5 JUMP JUMPDEST JUMPDEST SWAP1 PUSH1 0x0 MSTORE PUSH1 0x20 PUSH1 0x0 KECCAK256 ADD PUSH1 0x0 SWAP1 SLOAD SWAP1 PUSH2 0x100 EXP SWAP1 DIV PUSH20 0xFFFFFFFFFFFFFFFFFFFFFFFFFFFFFFFFFFFFFFFF AND PUSH20 0xFFFFFFFFFFFFFFFFFFFFFFFFFFFFFFFFFFFFFFFF AND CALLER PUSH20 0xFFFFFFFFFFFFFFFFFFFFFFFFFFFFFFFFFFFFFFFF AND SUB PUSH2 0x1538 JUMPI PUSH1 0x1 SWAP2 POP POP PUSH2 0x1551 JUMP JUMPDEST DUP1 DUP1 PUSH2 0x1543 SWAP1 PUSH2 0x2AA5 JUMP JUMPDEST SWAP2 POP POP PUSH2 0x14B0 JUMP JUMPDEST POP PUSH1 0x0 SWAP1 POP JUMPDEST SWAP1 JUMP JUMPDEST PUSH1 0x0 DUP1 PUSH2 0x1560 DUP5 PUSH2 0x17C4 JUMP JUMPDEST SWAP1 POP PUSH1 0x0 DUP2 DUP5 PUSH1 0x40 MLOAD PUSH1 0x20 ADD PUSH2 0x1577 SWAP3 SWAP2 SWAP1 PUSH2 0x2B29 JUMP JUMPDEST PUSH1 0x40 MLOAD PUSH1 0x20 DUP2 DUP4 SUB SUB DUP2 MSTORE SWAP1 PUSH1 0x40 MSTORE SWAP1 POP PUSH1 0x2 DUP2 PUSH1 0x40 MLOAD PUSH1 0x20 ADD PUSH2 0x159B SWAP2 SWAP1 PUSH2 0x2B4D JUMP JUMPDEST PUSH1 0x40 MLOAD PUSH1 0x20 DUP2 DUP4 SUB SUB DUP2 MSTORE SWAP1 PUSH1 0x40 MSTORE PUSH1 0x40 MLOAD PUSH2 0x15B7 SWAP2 SWAP1 PUSH2 0x2BAB JUMP JUMPDEST PUSH1 0x20 PUSH1 0x40 MLOAD DUP1 DUP4 SUB DUP2 DUP6 GAS STATICCALL ISZERO DUP1 ISZERO PUSH2 0x15D4 JUMPI RETURNDATASIZE PUSH1 0x0 DUP1 RETURNDATACOPY RETURNDATASIZE PUSH1 0x0 REVERT JUMPDEST POP POP POP PUSH1 0x40 MLOAD RETURNDATASIZE PUSH1 0x1F NOT PUSH1 0x1F DUP3 ADD AND DUP3 ADD DUP1 PUSH1 0x40 MSTORE POP DUP2 ADD SWAP1 PUSH2 0x15F7 SWAP2 SWAP1 PUSH2 0x2BD7 JUMP JUMPDEST SWAP3 POP POP POP SWAP3 SWAP2 POP POP JUMP JUMPDEST PUSH1 0x0 DUP1 PUSH1 0x0 SWAP1 POP JUMPDEST PUSH1 0xB DUP1 SLOAD SWAP1 POP DUP2 LT ISZERO PUSH2 0x1660 JUMPI PUSH1 0xB DUP2 DUP2 SLOAD DUP2 LT PUSH2 0x162A JUMPI PUSH2 0x1629 PUSH2 0x27A5 JUMP JUMPDEST JUMPDEST SWAP1 PUSH1 0x0 MSTORE PUSH1 0x20 PUSH1 0x0 KECCAK256 SWAP1 PUSH1 0x3 MUL ADD PUSH1 0x1 ADD SLOAD DUP4 GT ISZERO PUSH2 0x164D JUMPI PUSH1 0x1 SWAP2 POP POP PUSH2 0x1666 JUMP JUMPDEST DUP1 DUP1 PUSH2 0x1658 SWAP1 PUSH2 0x2AA5 JUMP JUMPDEST SWAP2 POP POP PUSH2 0x1609 JUMP JUMPDEST POP PUSH1 0x0 SWAP1 POP JUMPDEST SWAP2 SWAP1 POP JUMP JUMPDEST PUSH1 0xB PUSH1 0x0 PUSH2 0x1679 SWAP2 SWAP1 PUSH2 0x19E5 JUMP JUMPDEST JUMP JUMPDEST PUSH1 0x0 PUSH1 0x40 MLOAD DUP1 PUSH1 0x60 ADD PUSH1 0x40 MSTORE DUP1 CALLER PUSH20 0xFFFFFFFFFFFFFFFFFFFFFFFFFFFFFFFFFFFFFFFF AND DUP2 MSTORE PUSH1 0x20 ADD DUP5 DUP2 MSTORE PUSH1 0x20 ADD DUP4 DUP2 MSTORE POP SWAP1 POP PUSH1 0xB DUP2 SWAP1 DUP1 PUSH1 0x1 DUP2 SLOAD ADD DUP1 DUP3 SSTORE DUP1 SWAP2 POP POP PUSH1 0x1 SWAP1 SUB SWAP1 PUSH1 0x0 MSTORE PUSH1 0x20 PUSH1 0x0 KECCAK256 SWAP1 PUSH1 0x3 MUL ADD PUSH1 0x0 SWAP1 SWAP2 SWAP1 SWAP2 SWAP1 SWAP2 POP PUSH1 0x0 DUP3 ADD MLOAD DUP2 PUSH1 0x0 ADD PUSH1 0x0 PUSH2 0x100 EXP DUP2 SLOAD DUP2 PUSH20 0xFFFFFFFFFFFFFFFFFFFFFFFFFFFFFFFFFFFFFFFF MUL NOT AND SWAP1 DUP4 PUSH20 0xFFFFFFFFFFFFFFFFFFFFFFFFFFFFFFFFFFFFFFFF AND MUL OR SWAP1 SSTORE POP PUSH1 0x20 DUP3 ADD MLOAD DUP2 PUSH1 0x1 ADD SSTORE PUSH1 0x40 DUP3 ADD MLOAD DUP2 PUSH1 0x2 ADD SWAP1 DUP2 PUSH2 0x1742 SWAP2 SWAP1 PUSH2 0x2667 JUMP JUMPDEST POP POP POP POP POP POP JUMP JUMPDEST PUSH1 0x3C PUSH1 0x7 SLOAD PUSH2 0x1759 SWAP2 SWAP1 PUSH2 0x2C04 JUMP JUMPDEST TIMESTAMP PUSH2 0x1764 SWAP2 SWAP1 PUSH2 0x2803 JUMP JUMPDEST PUSH1 0x4 DUP2 SWAP1 SSTORE POP PUSH1 0x3C PUSH1 0x7 SLOAD PUSH1 0x2 PUSH2 0x177B SWAP2 SWAP1 PUSH2 0x2C04 JUMP JUMPDEST PUSH2 0x1785 SWAP2 SWAP1 PUSH2 0x2C04 JUMP JUMPDEST TIMESTAMP PUSH2 0x1790 SWAP2 SWAP1 PUSH2 0x2803 JUMP JUMPDEST PUSH1 0x5 DUP2 SWAP1 SSTORE POP PUSH1 0x3C PUSH1 0x7 SLOAD PUSH1 0x3 PUSH2 0x17A7 SWAP2 SWAP1 PUSH2 0x2C04 JUMP JUMPDEST PUSH2 0x17B1 SWAP2 SWAP1 PUSH2 0x2C04 JUMP JUMPDEST TIMESTAMP PUSH2 0x17BC SWAP2 SWAP1 PUSH2 0x2803 JUMP JUMPDEST PUSH1 0x6 DUP2 SWAP1 SSTORE POP JUMP JUMPDEST PUSH1 0x60 PUSH1 0x0 PUSH1 0x1 PUSH2 0x17D3 DUP5 PUSH2 0x1892 JUMP JUMPDEST ADD SWAP1 POP PUSH1 0x0 DUP2 PUSH8 0xFFFFFFFFFFFFFFFF DUP2 GT ISZERO PUSH2 0x17F2 JUMPI PUSH2 0x17F1 PUSH2 0x1C18 JUMP JUMPDEST JUMPDEST PUSH1 0x40 MLOAD SWAP1 DUP1 DUP3 MSTORE DUP1 PUSH1 0x1F ADD PUSH1 0x1F NOT AND PUSH1 0x20 ADD DUP3 ADD PUSH1 0x40 MSTORE DUP1 ISZERO PUSH2 0x1824 JUMPI DUP2 PUSH1 0x20 ADD PUSH1 0x1 DUP3 MUL DUP1 CALLDATASIZE DUP4 CALLDATACOPY DUP1 DUP3 ADD SWAP2 POP POP SWAP1 POP JUMPDEST POP SWAP1 POP PUSH1 0x0 DUP3 PUSH1 0x20 ADD DUP3 ADD SWAP1 POP JUMPDEST PUSH1 0x1 ISZERO PUSH2 0x1887 JUMPI DUP1 DUP1 PUSH1 0x1 SWAP1 SUB SWAP2 POP POP PUSH32 0x3031323334353637383961626364656600000000000000000000000000000000 PUSH1 0xA DUP7 MOD BYTE DUP2 MSTORE8 PUSH1 0xA DUP6 DUP2 PUSH2 0x187B JUMPI PUSH2 0x187A PUSH2 0x2C46 JUMP JUMPDEST JUMPDEST DIV SWAP5 POP PUSH1 0x0 DUP6 SUB PUSH2 0x1832 JUMPI JUMPDEST DUP2 SWAP4 POP POP POP POP SWAP2 SWAP1 POP JUMP JUMPDEST PUSH1 0x0 DUP1 PUSH1 0x0 SWAP1 POP PUSH27 0x184F03E93FF9F4DAA797ED6E38ED64BF6A1F010000000000000000 DUP4 LT PUSH2 0x18F0 JUMPI PUSH27 0x184F03E93FF9F4DAA797ED6E38ED64BF6A1F010000000000000000 DUP4 DUP2 PUSH2 0x18E6 JUMPI PUSH2 0x18E5 PUSH2 0x2C46 JUMP JUMPDEST JUMPDEST DIV SWAP3 POP PUSH1 0x40 DUP2 ADD SWAP1 POP JUMPDEST PUSH14 0x4EE2D6D415B85ACEF8100000000 DUP4 LT PUSH2 0x192D JUMPI PUSH14 0x4EE2D6D415B85ACEF8100000000 DUP4 DUP2 PUSH2 0x1923 JUMPI PUSH2 0x1922 PUSH2 0x2C46 JUMP JUMPDEST JUMPDEST DIV SWAP3 POP PUSH1 0x20 DUP2 ADD SWAP1 POP JUMPDEST PUSH7 0x2386F26FC10000 DUP4 LT PUSH2 0x195C JUMPI PUSH7 0x2386F26FC10000 DUP4 DUP2 PUSH2 0x1952 JUMPI PUSH2 0x1951 PUSH2 0x2C46 JUMP JUMPDEST JUMPDEST DIV SWAP3 POP PUSH1 0x10 DUP2 ADD SWAP1 POP JUMPDEST PUSH4 0x5F5E100 DUP4 LT PUSH2 0x1985 JUMPI PUSH4 0x5F5E100 DUP4 DUP2 PUSH2 0x197B JUMPI PUSH2 0x197A PUSH2 0x2C46 JUMP JUMPDEST JUMPDEST DIV SWAP3 POP PUSH1 0x8 DUP2 ADD SWAP1 POP JUMPDEST PUSH2 0x2710 DUP4 LT PUSH2 0x19AA JUMPI PUSH2 0x2710 DUP4 DUP2 PUSH2 0x19A0 JUMPI PUSH2 0x199F PUSH2 0x2C46 JUMP JUMPDEST JUMPDEST DIV SWAP3 POP PUSH1 0x4 DUP2 ADD SWAP1 POP JUMPDEST PUSH1 0x64 DUP4 LT PUSH2 0x19CD JUMPI PUSH1 0x64 DUP4 DUP2 PUSH2 0x19C3 JUMPI PUSH2 0x19C2 PUSH2 0x2C46 JUMP JUMPDEST JUMPDEST DIV SWAP3 POP PUSH1 0x2 DUP2 ADD SWAP1 POP JUMPDEST PUSH1 0xA DUP4 LT PUSH2 0x19DC JUMPI PUSH1 0x1 DUP2 ADD SWAP1 POP JUMPDEST DUP1 SWAP2 POP POP SWAP2 SWAP1 POP JUMP JUMPDEST POP DUP1 SLOAD PUSH1 0x0 DUP3 SSTORE PUSH1 0x3 MUL SWAP1 PUSH1 0x0 MSTORE PUSH1 0x20 PUSH1 0x0 KECCAK256 SWAP1 DUP2 ADD SWAP1 PUSH2 0x1A06 SWAP2 SWAP1 PUSH2 0x1A4E JUMP JUMPDEST POP JUMP JUMPDEST POP DUP1 SLOAD PUSH1 0x0 DUP3 SSTORE SWAP1 PUSH1 0x0 MSTORE PUSH1 0x20 PUSH1 0x0 KECCAK256 SWAP1 DUP2 ADD SWAP1 PUSH2 0x1A27 SWAP2 SWAP1 PUSH2 0x1AA4 JUMP JUMPDEST POP JUMP JUMPDEST POP DUP1 SLOAD PUSH1 0x0 DUP3 SSTORE PUSH1 0x3 MUL SWAP1 PUSH1 0x0 MSTORE PUSH1 0x20 PUSH1 0x0 KECCAK256 SWAP1 DUP2 ADD SWAP1 PUSH2 0x1A4B SWAP2 SWAP1 PUSH2 0x1AC1 JUMP JUMPDEST POP JUMP JUMPDEST JUMPDEST DUP1 DUP3 GT ISZERO PUSH2 0x1AA0 JUMPI PUSH1 0x0 DUP1 DUP3 ADD PUSH1 0x0 PUSH2 0x100 EXP DUP2 SLOAD SWAP1 PUSH20 0xFFFFFFFFFFFFFFFFFFFFFFFFFFFFFFFFFFFFFFFF MUL NOT AND SWAP1 SSTORE PUSH1 0x1 DUP3 ADD PUSH1 0x0 SWAP1 SSTORE PUSH1 0x2 DUP3 ADD PUSH1 0x0 PUSH2 0x1A97 SWAP2 SWAP1 PUSH2 0x1B17 JUMP JUMPDEST POP PUSH1 0x3 ADD PUSH2 0x1A4F JUMP JUMPDEST POP SWAP1 JUMP JUMPDEST JUMPDEST DUP1 DUP3 GT ISZERO PUSH2 0x1ABD JUMPI PUSH1 0x0 DUP2 PUSH1 0x0 SWAP1 SSTORE POP PUSH1 0x1 ADD PUSH2 0x1AA5 JUMP JUMPDEST POP SWAP1 JUMP JUMPDEST JUMPDEST DUP1 DUP3 GT ISZERO PUSH2 0x1B13 JUMPI PUSH1 0x0 DUP1 DUP3 ADD PUSH1 0x0 SWAP1 SSTORE PUSH1 0x1 DUP3 ADD PUSH1 0x0 PUSH2 0x100 EXP DUP2 SLOAD SWAP1 PUSH20 0xFFFFFFFFFFFFFFFFFFFFFFFFFFFFFFFFFFFFFFFF MUL NOT AND SWAP1 SSTORE PUSH1 0x2 DUP3 ADD PUSH1 0x0 PUSH2 0x1B0A SWAP2 SWAP1 PUSH2 0x1B17 JUMP JUMPDEST POP PUSH1 0x3 ADD PUSH2 0x1AC2 JUMP JUMPDEST POP SWAP1 JUMP JUMPDEST POP DUP1 SLOAD PUSH2 0x1B23 SWAP1 PUSH2 0x248A JUMP JUMPDEST PUSH1 0x0 DUP3 SSTORE DUP1 PUSH1 0x1F LT PUSH2 0x1B35 JUMPI POP PUSH2 0x1B54 JUMP JUMPDEST PUSH1 0x1F ADD PUSH1 0x20 SWAP1 DIV SWAP1 PUSH1 0x0 MSTORE PUSH1 0x20 PUSH1 0x0 KECCAK256 SWAP1 DUP2 ADD SWAP1 PUSH2 0x1B53 SWAP2 SWAP1 PUSH2 0x1AA4 JUMP JUMPDEST JUMPDEST POP JUMP JUMPDEST PUSH1 0x0 PUSH20 0xFFFFFFFFFFFFFFFFFFFFFFFFFFFFFFFFFFFFFFFF DUP3 AND SWAP1 POP SWAP2 SWAP1 POP JUMP JUMPDEST PUSH1 0x0 PUSH2 0x1B82 DUP3 PUSH2 0x1B57 JUMP JUMPDEST SWAP1 POP SWAP2 SWAP1 POP JUMP JUMPDEST PUSH2 0x1B92 DUP2 PUSH2 0x1B77 JUMP JUMPDEST DUP3 MSTORE POP POP JUMP JUMPDEST PUSH1 0x0 PUSH1 0x20 DUP3 ADD SWAP1 POP PUSH2 0x1BAD PUSH1 0x0 DUP4 ADD DUP5 PUSH2 0x1B89 JUMP JUMPDEST SWAP3 SWAP2 POP POP JUMP JUMPDEST PUSH1 0x0 PUSH1 0x40 MLOAD SWAP1 POP SWAP1 JUMP JUMPDEST PUSH1 0x0 DUP1 REVERT JUMPDEST PUSH1 0x0 DUP1 REVERT JUMPDEST PUSH1 0x0 DUP2 SWAP1 POP SWAP2 SWAP1 POP JUMP JUMPDEST PUSH2 0x1BDA DUP2 PUSH2 0x1BC7 JUMP JUMPDEST DUP2 EQ PUSH2 0x1BE5 JUMPI PUSH1 0x0 DUP1 REVERT JUMPDEST POP JUMP JUMPDEST PUSH1 0x0 DUP2 CALLDATALOAD SWAP1 POP PUSH2 0x1BF7 DUP2 PUSH2 0x1BD1 JUMP JUMPDEST SWAP3 SWAP2 POP POP JUMP JUMPDEST PUSH1 0x0 DUP1 REVERT JUMPDEST PUSH1 0x0 DUP1 REVERT JUMPDEST PUSH1 0x0 PUSH1 0x1F NOT PUSH1 0x1F DUP4 ADD AND SWAP1 POP SWAP2 SWAP1 POP JUMP JUMPDEST PUSH32 0x4E487B7100000000000000000000000000000000000000000000000000000000 PUSH1 0x0 MSTORE PUSH1 0x41 PUSH1 0x4 MSTORE PUSH1 0x24 PUSH1 0x0 REVERT JUMPDEST PUSH2 0x1C50 DUP3 PUSH2 0x1C07 JUMP JUMPDEST DUP2 ADD DUP2 DUP2 LT PUSH8 0xFFFFFFFFFFFFFFFF DUP3 GT OR ISZERO PUSH2 0x1C6F JUMPI PUSH2 0x1C6E PUSH2 0x1C18 JUMP JUMPDEST JUMPDEST DUP1 PUSH1 0x40 MSTORE POP POP POP JUMP JUMPDEST PUSH1 0x0 PUSH2 0x1C82 PUSH2 0x1BB3 JUMP JUMPDEST SWAP1 POP PUSH2 0x1C8E DUP3 DUP3 PUSH2 0x1C47 JUMP JUMPDEST SWAP2 SWAP1 POP JUMP JUMPDEST PUSH1 0x0 PUSH8 0xFFFFFFFFFFFFFFFF DUP3 GT ISZERO PUSH2 0x1CAE JUMPI PUSH2 0x1CAD PUSH2 0x1C18 JUMP JUMPDEST JUMPDEST PUSH2 0x1CB7 DUP3 PUSH2 0x1C07 JUMP JUMPDEST SWAP1 POP PUSH1 0x20 DUP2 ADD SWAP1 POP SWAP2 SWAP1 POP JUMP JUMPDEST DUP3 DUP2 DUP4 CALLDATACOPY PUSH1 0x0 DUP4 DUP4 ADD MSTORE POP POP POP JUMP JUMPDEST PUSH1 0x0 PUSH2 0x1CE6 PUSH2 0x1CE1 DUP5 PUSH2 0x1C93 JUMP JUMPDEST PUSH2 0x1C78 JUMP JUMPDEST SWAP1 POP DUP3 DUP2 MSTORE PUSH1 0x20 DUP2 ADD DUP5 DUP5 DUP5 ADD GT ISZERO PUSH2 0x1D02 JUMPI PUSH2 0x1D01 PUSH2 0x1C02 JUMP JUMPDEST JUMPDEST PUSH2 0x1D0D DUP5 DUP3 DUP6 PUSH2 0x1CC4 JUMP JUMPDEST POP SWAP4 SWAP3 POP POP POP JUMP JUMPDEST PUSH1 0x0 DUP3 PUSH1 0x1F DUP4 ADD SLT PUSH2 0x1D2A JUMPI PUSH2 0x1D29 PUSH2 0x1BFD JUMP JUMPDEST JUMPDEST DUP2 CALLDATALOAD PUSH2 0x1D3A DUP5 DUP3 PUSH1 0x20 DUP7 ADD PUSH2 0x1CD3 JUMP JUMPDEST SWAP2 POP POP SWAP3 SWAP2 POP POP JUMP JUMPDEST PUSH1 0x0 DUP1 PUSH1 0x40 DUP4 DUP6 SUB SLT ISZERO PUSH2 0x1D5A JUMPI PUSH2 0x1D59 PUSH2 0x1BBD JUMP JUMPDEST JUMPDEST PUSH1 0x0 PUSH2 0x1D68 DUP6 DUP3 DUP7 ADD PUSH2 0x1BE8 JUMP JUMPDEST SWAP3 POP POP PUSH1 0x20 DUP4 ADD CALLDATALOAD PUSH8 0xFFFFFFFFFFFFFFFF DUP2 GT ISZERO PUSH2 0x1D89 JUMPI PUSH2 0x1D88 PUSH2 0x1BC2 JUMP JUMPDEST JUMPDEST PUSH2 0x1D95 DUP6 DUP3 DUP7 ADD PUSH2 0x1D15 JUMP JUMPDEST SWAP2 POP POP SWAP3 POP SWAP3 SWAP1 POP JUMP JUMPDEST PUSH1 0x0 DUP2 MLOAD SWAP1 POP SWAP2 SWAP1 POP JUMP JUMPDEST PUSH1 0x0 DUP3 DUP3 MSTORE PUSH1 0x20 DUP3 ADD SWAP1 POP SWAP3 SWAP2 POP POP JUMP JUMPDEST PUSH1 0x0 DUP2 SWAP1 POP PUSH1 0x20 DUP3 ADD SWAP1 POP SWAP2 SWAP1 POP JUMP JUMPDEST PUSH2 0x1DD4 DUP2 PUSH2 0x1BC7 JUMP JUMPDEST DUP3 MSTORE POP POP JUMP JUMPDEST PUSH2 0x1DE3 DUP2 PUSH2 0x1B77 JUMP JUMPDEST DUP3 MSTORE POP POP JUMP JUMPDEST PUSH1 0x0 DUP2 MLOAD SWAP1 POP SWAP2 SWAP1 POP JUMP JUMPDEST PUSH1 0x0 DUP3 DUP3 MSTORE PUSH1 0x20 DUP3 ADD SWAP1 POP SWAP3 SWAP2 POP POP JUMP JUMPDEST PUSH1 0x0 JUMPDEST DUP4 DUP2 LT ISZERO PUSH2 0x1E23 JUMPI DUP1 DUP3 ADD MLOAD DUP2 DUP5 ADD MSTORE PUSH1 0x20 DUP2 ADD SWAP1 POP PUSH2 0x1E08 JUMP JUMPDEST PUSH1 0x0 DUP5 DUP5 ADD MSTORE POP POP POP POP JUMP JUMPDEST PUSH1 0x0 PUSH2 0x1E3A DUP3 PUSH2 0x1DE9 JUMP JUMPDEST PUSH2 0x1E44 DUP2 DUP6 PUSH2 0x1DF4 JUMP JUMPDEST SWAP4 POP PUSH2 0x1E54 DUP2 DUP6 PUSH1 0x20 DUP7 ADD PUSH2 0x1E05 JUMP JUMPDEST PUSH2 0x1E5D DUP2 PUSH2 0x1C07 JUMP JUMPDEST DUP5 ADD SWAP2 POP POP SWAP3 SWAP2 POP POP JUMP JUMPDEST PUSH1 0x0 PUSH1 0x60 DUP4 ADD PUSH1 0x0 DUP4 ADD MLOAD PUSH2 0x1E80 PUSH1 0x0 DUP7 ADD DUP3 PUSH2 0x1DCB JUMP JUMPDEST POP PUSH1 0x20 DUP4 ADD MLOAD PUSH2 0x1E93 PUSH1 0x20 DUP7 ADD DUP3 PUSH2 0x1DDA JUMP JUMPDEST POP PUSH1 0x40 DUP4 ADD MLOAD DUP5 DUP3 SUB PUSH1 0x40 DUP7 ADD MSTORE PUSH2 0x1EAB DUP3 DUP3 PUSH2 0x1E2F JUMP JUMPDEST SWAP2 POP POP DUP1 SWAP2 POP POP SWAP3 SWAP2 POP POP JUMP JUMPDEST PUSH1 0x0 PUSH2 0x1EC4 DUP4 DUP4 PUSH2 0x1E68 JUMP JUMPDEST SWAP1 POP SWAP3 SWAP2 POP POP JUMP JUMPDEST PUSH1 0x0 PUSH1 0x20 DUP3 ADD SWAP1 POP SWAP2 SWAP1 POP JUMP JUMPDEST PUSH1 0x0 PUSH2 0x1EE4 DUP3 PUSH2 0x1D9F JUMP JUMPDEST PUSH2 0x1EEE DUP2 DUP6 PUSH2 0x1DAA JUMP JUMPDEST SWAP4 POP DUP4 PUSH1 0x20 DUP3 MUL DUP6 ADD PUSH2 0x1F00 DUP6 PUSH2 0x1DBB JUMP JUMPDEST DUP1 PUSH1 0x0 JUMPDEST DUP6 DUP2 LT ISZERO PUSH2 0x1F3C JUMPI DUP5 DUP5 SUB DUP10 MSTORE DUP2 MLOAD PUSH2 0x1F1D DUP6 DUP3 PUSH2 0x1EB8 JUMP JUMPDEST SWAP5 POP PUSH2 0x1F28 DUP4 PUSH2 0x1ECC JUMP JUMPDEST SWAP3 POP PUSH1 0x20 DUP11 ADD SWAP10 POP POP PUSH1 0x1 DUP2 ADD SWAP1 POP PUSH2 0x1F04 JUMP JUMPDEST POP DUP3 SWAP8 POP DUP8 SWAP6 POP POP POP POP POP POP SWAP3 SWAP2 POP POP JUMP JUMPDEST PUSH1 0x0 PUSH1 0x20 DUP3 ADD SWAP1 POP DUP2 DUP2 SUB PUSH1 0x0 DUP4 ADD MSTORE PUSH2 0x1F68 DUP2 DUP5 PUSH2 0x1ED9 JUMP JUMPDEST SWAP1 POP SWAP3 SWAP2 POP POP JUMP JUMPDEST PUSH2 0x1F79 DUP2 PUSH2 0x1B77 JUMP JUMPDEST DUP2 EQ PUSH2 0x1F84 JUMPI PUSH1 0x0 DUP1 REVERT JUMPDEST POP JUMP JUMPDEST PUSH1 0x0 DUP2 CALLDATALOAD SWAP1 POP PUSH2 0x1F96 DUP2 PUSH2 0x1F70 JUMP JUMPDEST SWAP3 SWAP2 POP POP JUMP JUMPDEST PUSH1 0x0 PUSH1 0x20 DUP3 DUP5 SUB SLT ISZERO PUSH2 0x1FB2 JUMPI PUSH2 0x1FB1 PUSH2 0x1BBD JUMP JUMPDEST JUMPDEST PUSH1 0x0 PUSH2 0x1FC0 DUP5 DUP3 DUP6 ADD PUSH2 0x1F87 JUMP JUMPDEST SWAP2 POP POP SWAP3 SWAP2 POP POP JUMP JUMPDEST PUSH1 0x0 DUP2 SWAP1 POP SWAP2 SWAP1 POP JUMP JUMPDEST PUSH2 0x1FDC DUP2 PUSH2 0x1FC9 JUMP JUMPDEST DUP3 MSTORE POP POP JUMP JUMPDEST PUSH1 0x0 PUSH1 0x20 DUP3 ADD SWAP1 POP PUSH2 0x1FF7 PUSH1 0x0 DUP4 ADD DUP5 PUSH2 0x1FD3 JUMP JUMPDEST SWAP3 SWAP2 POP POP JUMP JUMPDEST PUSH1 0x0 PUSH1 0x20 DUP3 DUP5 SUB SLT ISZERO PUSH2 0x2013 JUMPI PUSH2 0x2012 PUSH2 0x1BBD JUMP JUMPDEST JUMPDEST PUSH1 0x0 PUSH2 0x2021 DUP5 DUP3 DUP6 ADD PUSH2 0x1BE8 JUMP JUMPDEST SWAP2 POP POP SWAP3 SWAP2 POP POP JUMP JUMPDEST PUSH2 0x2033 DUP2 PUSH2 0x1BC7 JUMP JUMPDEST DUP3 MSTORE POP POP JUMP JUMPDEST PUSH1 0x0 DUP3 DUP3 MSTORE PUSH1 0x20 DUP3 ADD SWAP1 POP SWAP3 SWAP2 POP POP JUMP JUMPDEST PUSH1 0x0 PUSH2 0x2055 DUP3 PUSH2 0x1DE9 JUMP JUMPDEST PUSH2 0x205F DUP2 DUP6 PUSH2 0x2039 JUMP JUMPDEST SWAP4 POP PUSH2 0x206F DUP2 DUP6 PUSH1 0x20 DUP7 ADD PUSH2 0x1E05 JUMP JUMPDEST PUSH2 0x2078 DUP2 PUSH2 0x1C07 JUMP JUMPDEST DUP5 ADD SWAP2 POP POP SWAP3 SWAP2 POP POP JUMP JUMPDEST PUSH1 0x0 PUSH1 0x60 DUP3 ADD SWAP1 POP PUSH2 0x2098 PUSH1 0x0 DUP4 ADD DUP7 PUSH2 0x202A JUMP JUMPDEST PUSH2 0x20A5 PUSH1 0x20 DUP4 ADD DUP6 PUSH2 0x1B89 JUMP JUMPDEST DUP2 DUP2 SUB PUSH1 0x40 DUP4 ADD MSTORE PUSH2 0x20B7 DUP2 DUP5 PUSH2 0x204A JUMP JUMPDEST SWAP1 POP SWAP5 SWAP4 POP POP POP POP JUMP JUMPDEST PUSH1 0x0 PUSH1 0x20 DUP3 ADD SWAP1 POP DUP2 DUP2 SUB PUSH1 0x0 DUP4 ADD MSTORE PUSH2 0x20DB DUP2 DUP5 PUSH2 0x204A JUMP JUMPDEST SWAP1 POP SWAP3 SWAP2 POP POP JUMP JUMPDEST PUSH1 0x0 DUP1 PUSH1 0x40 DUP4 DUP6 SUB SLT ISZERO PUSH2 0x20FA JUMPI PUSH2 0x20F9 PUSH2 0x1BBD JUMP JUMPDEST JUMPDEST PUSH1 0x0 DUP4 ADD CALLDATALOAD PUSH8 0xFFFFFFFFFFFFFFFF DUP2 GT ISZERO PUSH2 0x2118 JUMPI PUSH2 0x2117 PUSH2 0x1BC2 JUMP JUMPDEST JUMPDEST PUSH2 0x2124 DUP6 DUP3 DUP7 ADD PUSH2 0x1D15 JUMP JUMPDEST SWAP3 POP POP PUSH1 0x20 DUP4 ADD CALLDATALOAD PUSH8 0xFFFFFFFFFFFFFFFF DUP2 GT ISZERO PUSH2 0x2145 JUMPI PUSH2 0x2144 PUSH2 0x1BC2 JUMP JUMPDEST JUMPDEST PUSH2 0x2151 DUP6 DUP3 DUP7 ADD PUSH2 0x1D15 JUMP JUMPDEST SWAP2 POP POP SWAP3 POP SWAP3 SWAP1 POP JUMP JUMPDEST PUSH1 0x0 PUSH1 0x60 DUP3 ADD SWAP1 POP PUSH2 0x2170 PUSH1 0x0 DUP4 ADD DUP7 PUSH2 0x1B89 JUMP JUMPDEST PUSH2 0x217D PUSH1 0x20 DUP4 ADD DUP6 PUSH2 0x202A JUMP JUMPDEST DUP2 DUP2 SUB PUSH1 0x40 DUP4 ADD MSTORE PUSH2 0x218F DUP2 DUP5 PUSH2 0x204A JUMP JUMPDEST SWAP1 POP SWAP5 SWAP4 POP POP POP POP JUMP JUMPDEST PUSH1 0x0 PUSH1 0x40 DUP3 ADD SWAP1 POP DUP2 DUP2 SUB PUSH1 0x0 DUP4 ADD MSTORE PUSH2 0x21B3 DUP2 DUP6 PUSH2 0x204A JUMP JUMPDEST SWAP1 POP DUP2 DUP2 SUB PUSH1 0x20 DUP4 ADD MSTORE PUSH2 0x21C7 DUP2 DUP5 PUSH2 0x204A JUMP JUMPDEST SWAP1 POP SWAP4 SWAP3 POP POP POP JUMP JUMPDEST PUSH1 0x0 DUP2 MLOAD SWAP1 POP SWAP2 SWAP1 POP JUMP JUMPDEST PUSH1 0x0 DUP3 DUP3 MSTORE PUSH1 0x20 DUP3 ADD SWAP1 POP SWAP3 SWAP2 POP POP JUMP JUMPDEST PUSH1 0x0 DUP2 SWAP1 POP PUSH1 0x20 DUP3 ADD SWAP1 POP SWAP2 SWAP1 POP JUMP JUMPDEST PUSH1 0x0 PUSH1 0x60 DUP4 ADD PUSH1 0x0 DUP4 ADD MLOAD PUSH2 0x2214 PUSH1 0x0 DUP7 ADD DUP3 PUSH2 0x1DDA JUMP JUMPDEST POP PUSH1 0x20 DUP4 ADD MLOAD PUSH2 0x2227 PUSH1 0x20 DUP7 ADD DUP3 PUSH2 0x1DCB JUMP JUMPDEST POP PUSH1 0x40 DUP4 ADD MLOAD DUP5 DUP3 SUB PUSH1 0x40 DUP7 ADD MSTORE PUSH2 0x223F DUP3 DUP3 PUSH2 0x1E2F JUMP JUMPDEST SWAP2 POP POP DUP1 SWAP2 POP POP SWAP3 SWAP2 POP POP JUMP JUMPDEST PUSH1 0x0 PUSH2 0x2258 DUP4 DUP4 PUSH2 0x21FC JUMP JUMPDEST SWAP1 POP SWAP3 SWAP2 POP POP JUMP JUMPDEST PUSH1 0x0 PUSH1 0x20 DUP3 ADD SWAP1 POP SWAP2 SWAP1 POP JUMP JUMPDEST PUSH1 0x0 PUSH2 0x2278 DUP3 PUSH2 0x21D0 JUMP JUMPDEST PUSH2 0x2282 DUP2 DUP6 PUSH2 0x21DB JUMP JUMPDEST SWAP4 POP DUP4 PUSH1 0x20 DUP3 MUL DUP6 ADD PUSH2 0x2294 DUP6 PUSH2 0x21EC JUMP JUMPDEST DUP1 PUSH1 0x0 JUMPDEST DUP6 DUP2 LT ISZERO PUSH2 0x22D0 JUMPI DUP5 DUP5 SUB DUP10 MSTORE DUP2 MLOAD PUSH2 0x22B1 DUP6 DUP3 PUSH2 0x224C JUMP JUMPDEST SWAP5 POP PUSH2 0x22BC DUP4 PUSH2 0x2260 JUMP JUMPDEST SWAP3 POP PUSH1 0x20 DUP11 ADD SWAP10 POP POP PUSH1 0x1 DUP2 ADD SWAP1 POP PUSH2 0x2298 JUMP JUMPDEST POP DUP3 SWAP8 POP DUP8 SWAP6 POP POP POP POP POP POP SWAP3 SWAP2 POP POP JUMP JUMPDEST PUSH1 0x0 PUSH1 0x20 DUP3 ADD SWAP1 POP DUP2 DUP2 SUB PUSH1 0x0 DUP4 ADD MSTORE PUSH2 0x22FC DUP2 DUP5 PUSH2 0x226D JUMP JUMPDEST SWAP1 POP SWAP3 SWAP2 POP POP JUMP JUMPDEST PUSH2 0x230D DUP2 PUSH2 0x1FC9 JUMP JUMPDEST DUP2 EQ PUSH2 0x2318 JUMPI PUSH1 0x0 DUP1 REVERT JUMPDEST POP JUMP JUMPDEST PUSH1 0x0 DUP2 CALLDATALOAD SWAP1 POP PUSH2 0x232A DUP2 PUSH2 0x2304 JUMP JUMPDEST SWAP3 SWAP2 POP POP JUMP JUMPDEST PUSH1 0x0 PUSH1 0x20 DUP3 DUP5 SUB SLT ISZERO PUSH2 0x2346 JUMPI PUSH2 0x2345 PUSH2 0x1BBD JUMP JUMPDEST JUMPDEST PUSH1 0x0 PUSH2 0x2354 DUP5 DUP3 DUP6 ADD PUSH2 0x231B JUMP JUMPDEST SWAP2 POP POP SWAP3 SWAP2 POP POP JUMP JUMPDEST PUSH32 0x5468657265206973206E6F20737461727465642061756374696F6E206E6F7700 PUSH1 0x0 DUP3 ADD MSTORE POP JUMP JUMPDEST PUSH1 0x0 PUSH2 0x2393 PUSH1 0x1F DUP4 PUSH2 0x2039 JUMP JUMPDEST SWAP2 POP PUSH2 0x239E DUP3 PUSH2 0x235D JUMP JUMPDEST PUSH1 0x20 DUP3 ADD SWAP1 POP SWAP2 SWAP1 POP JUMP JUMPDEST PUSH1 0x0 PUSH1 0x20 DUP3 ADD SWAP1 POP DUP2 DUP2 SUB PUSH1 0x0 DUP4 ADD MSTORE PUSH2 0x23C2 DUP2 PUSH2 0x2386 JUMP JUMPDEST SWAP1 POP SWAP2 SWAP1 POP JUMP JUMPDEST PUSH32 0x4F6E6C7920726567697374657264206269646465722063616E2063616C6C2074 PUSH1 0x0 DUP3 ADD MSTORE PUSH32 0x6869732066756E6374696F6E0000000000000000000000000000000000000000 PUSH1 0x20 DUP3 ADD MSTORE POP JUMP JUMPDEST PUSH1 0x0 PUSH2 0x2425 PUSH1 0x2C DUP4 PUSH2 0x2039 JUMP JUMPDEST SWAP2 POP PUSH2 0x2430 DUP3 PUSH2 0x23C9 JUMP JUMPDEST PUSH1 0x40 DUP3 ADD SWAP1 POP SWAP2 SWAP1 POP JUMP JUMPDEST PUSH1 0x0 PUSH1 0x20 DUP3 ADD SWAP1 POP DUP2 DUP2 SUB PUSH1 0x0 DUP4 ADD MSTORE PUSH2 0x2454 DUP2 PUSH2 0x2418 JUMP JUMPDEST SWAP1 POP SWAP2 SWAP1 POP JUMP JUMPDEST PUSH32 0x4E487B7100000000000000000000000000000000000000000000000000000000 PUSH1 0x0 MSTORE PUSH1 0x22 PUSH1 0x4 MSTORE PUSH1 0x24 PUSH1 0x0 REVERT JUMPDEST PUSH1 0x0 PUSH1 0x2 DUP3 DIV SWAP1 POP PUSH1 0x1 DUP3 AND DUP1 PUSH2 0x24A2 JUMPI PUSH1 0x7F DUP3 AND SWAP2 POP JUMPDEST PUSH1 0x20 DUP3 LT DUP2 SUB PUSH2 0x24B5 JUMPI PUSH2 0x24B4 PUSH2 0x245B JUMP JUMPDEST JUMPDEST POP SWAP2 SWAP1 POP JUMP JUMPDEST PUSH1 0x0 DUP2 SWAP1 POP DUP2 PUSH1 0x0 MSTORE PUSH1 0x20 PUSH1 0x0 KECCAK256 SWAP1 POP SWAP2 SWAP1 POP JUMP JUMPDEST PUSH1 0x0 PUSH1 0x20 PUSH1 0x1F DUP4 ADD DIV SWAP1 POP SWAP2 SWAP1 POP JUMP JUMPDEST PUSH1 0x0 DUP3 DUP3 SHL SWAP1 POP SWAP3 SWAP2 POP POP JUMP JUMPDEST PUSH1 0x0 PUSH1 0x8 DUP4 MUL PUSH2 0x251D PUSH32 0xFFFFFFFFFFFFFFFFFFFFFFFFFFFFFFFFFFFFFFFFFFFFFFFFFFFFFFFFFFFFFFFF DUP3 PUSH2 0x24E0 JUMP JUMPDEST PUSH2 0x2527 DUP7 DUP4 PUSH2 0x24E0 JUMP JUMPDEST SWAP6 POP DUP1 NOT DUP5 AND SWAP4 POP DUP1 DUP7 AND DUP5 OR SWAP3 POP POP POP SWAP4 SWAP3 POP POP POP JUMP JUMPDEST PUSH1 0x0 DUP2 SWAP1 POP SWAP2 SWAP1 POP JUMP JUMPDEST PUSH1 0x0 PUSH2 0x2564 PUSH2 0x255F PUSH2 0x255A DUP5 PUSH2 0x1BC7 JUMP JUMPDEST PUSH2 0x253F JUMP JUMPDEST PUSH2 0x1BC7 JUMP JUMPDEST SWAP1 POP SWAP2 SWAP1 POP JUMP JUMPDEST PUSH1 0x0 DUP2 SWAP1 POP SWAP2 SWAP1 POP JUMP JUMPDEST PUSH2 0x257E DUP4 PUSH2 0x2549 JUMP JUMPDEST PUSH2 0x2592 PUSH2 0x258A DUP3 PUSH2 0x256B JUMP JUMPDEST DUP5 DUP5 SLOAD PUSH2 0x24ED JUMP JUMPDEST DUP3 SSTORE POP POP POP POP JUMP JUMPDEST PUSH1 0x0 SWAP1 JUMP JUMPDEST PUSH2 0x25A7 PUSH2 0x259A JUMP JUMPDEST PUSH2 0x25B2 DUP2 DUP5 DUP5 PUSH2 0x2575 JUMP JUMPDEST POP POP POP JUMP JUMPDEST JUMPDEST DUP2 DUP2 LT ISZERO PUSH2 0x25D6 JUMPI PUSH2 0x25CB PUSH1 0x0 DUP3 PUSH2 0x259F JUMP JUMPDEST PUSH1 0x1 DUP2 ADD SWAP1 POP PUSH2 0x25B8 JUMP JUMPDEST POP POP JUMP JUMPDEST PUSH1 0x1F DUP3 GT ISZERO PUSH2 0x261B JUMPI PUSH2 0x25EC DUP2 PUSH2 0x24BB JUMP JUMPDEST PUSH2 0x25F5 DUP5 PUSH2 0x24D0 JUMP JUMPDEST DUP2 ADD PUSH1 0x20 DUP6 LT ISZERO PUSH2 0x2604 JUMPI DUP2 SWAP1 POP JUMPDEST PUSH2 0x2618 PUSH2 0x2610 DUP6 PUSH2 0x24D0 JUMP JUMPDEST DUP4 ADD DUP3 PUSH2 0x25B7 JUMP JUMPDEST POP POP JUMPDEST POP POP POP JUMP JUMPDEST PUSH1 0x0 DUP3 DUP3 SHR SWAP1 POP SWAP3 SWAP2 POP POP JUMP JUMPDEST PUSH1 0x0 PUSH2 0x263E PUSH1 0x0 NOT DUP5 PUSH1 0x8 MUL PUSH2 0x2620 JUMP JUMPDEST NOT DUP1 DUP4 AND SWAP2 POP POP SWAP3 SWAP2 POP POP JUMP JUMPDEST PUSH1 0x0 PUSH2 0x2657 DUP4 DUP4 PUSH2 0x262D JUMP JUMPDEST SWAP2 POP DUP3 PUSH1 0x2 MUL DUP3 OR SWAP1 POP SWAP3 SWAP2 POP POP JUMP JUMPDEST PUSH2 0x2670 DUP3 PUSH2 0x1DE9 JUMP JUMPDEST PUSH8 0xFFFFFFFFFFFFFFFF DUP2 GT ISZERO PUSH2 0x2689 JUMPI PUSH2 0x2688 PUSH2 0x1C18 JUMP JUMPDEST JUMPDEST PUSH2 0x2693 DUP3 SLOAD PUSH2 0x248A JUMP JUMPDEST PUSH2 0x269E DUP3 DUP3 DUP6 PUSH2 0x25DA JUMP JUMPDEST PUSH1 0x0 PUSH1 0x20 SWAP1 POP PUSH1 0x1F DUP4 GT PUSH1 0x1 DUP2 EQ PUSH2 0x26D1 JUMPI PUSH1 0x0 DUP5 ISZERO PUSH2 0x26BF JUMPI DUP3 DUP8 ADD MLOAD SWAP1 POP JUMPDEST PUSH2 0x26C9 DUP6 DUP3 PUSH2 0x264B JUMP JUMPDEST DUP7 SSTORE POP PUSH2 0x2731 JUMP JUMPDEST PUSH1 0x1F NOT DUP5 AND PUSH2 0x26DF DUP7 PUSH2 0x24BB JUMP JUMPDEST PUSH1 0x0 JUMPDEST DUP3 DUP2 LT ISZERO PUSH2 0x2707 JUMPI DUP5 DUP10 ADD MLOAD DUP3 SSTORE PUSH1 0x1 DUP3 ADD SWAP2 POP PUSH1 0x20 DUP6 ADD SWAP5 POP PUSH1 0x20 DUP2 ADD SWAP1 POP PUSH2 0x26E2 JUMP JUMPDEST DUP7 DUP4 LT ISZERO PUSH2 0x2724 JUMPI DUP5 DUP10 ADD MLOAD PUSH2 0x2720 PUSH1 0x1F DUP10 AND DUP3 PUSH2 0x262D JUMP JUMPDEST DUP4 SSTORE POP JUMPDEST PUSH1 0x1 PUSH1 0x2 DUP9 MUL ADD DUP9 SSTORE POP POP POP JUMPDEST POP POP POP POP POP POP JUMP JUMPDEST PUSH32 0x41756374696F6E206973206E6F7420636F6D706C65746564207965742E000000 PUSH1 0x0 DUP3 ADD MSTORE POP JUMP JUMPDEST PUSH1 0x0 PUSH2 0x276F PUSH1 0x1D DUP4 PUSH2 0x2039 JUMP JUMPDEST SWAP2 POP PUSH2 0x277A DUP3 PUSH2 0x2739 JUMP JUMPDEST PUSH1 0x20 DUP3 ADD SWAP1 POP SWAP2 SWAP1 POP JUMP JUMPDEST PUSH1 0x0 PUSH1 0x20 DUP3 ADD SWAP1 POP DUP2 DUP2 SUB PUSH1 0x0 DUP4 ADD MSTORE PUSH2 0x279E DUP2 PUSH2 0x2762 JUMP JUMPDEST SWAP1 POP SWAP2 SWAP1 POP JUMP JUMPDEST PUSH32 0x4E487B7100000000000000000000000000000000000000000000000000000000 PUSH1 0x0 MSTORE PUSH1 0x32 PUSH1 0x4 MSTORE PUSH1 0x24 PUSH1 0x0 REVERT JUMPDEST PUSH32 0x4E487B7100000000000000000000000000000000000000000000000000000000 PUSH1 0x0 MSTORE PUSH1 0x11 PUSH1 0x4 MSTORE PUSH1 0x24 PUSH1 0x0 REVERT JUMPDEST PUSH1 0x0 PUSH2 0x280E DUP3 PUSH2 0x1BC7 JUMP JUMPDEST SWAP2 POP PUSH2 0x2819 DUP4 PUSH2 0x1BC7 JUMP JUMPDEST SWAP3 POP DUP3 DUP3 ADD SWAP1 POP DUP1 DUP3 GT ISZERO PUSH2 0x2831 JUMPI PUSH2 0x2830 PUSH2 0x27D4 JUMP JUMPDEST JUMPDEST SWAP3 SWAP2 POP POP JUMP JUMPDEST PUSH32 0x5468652062696420616E64206E6F6E636520796F75207375626D697474656420 PUSH1 0x0 DUP3 ADD MSTORE PUSH32 0x617265206E6F742076616C69642E000000000000000000000000000000000000 PUSH1 0x20 DUP3 ADD MSTORE POP JUMP JUMPDEST PUSH1 0x0 PUSH2 0x2893 PUSH1 0x2E DUP4 PUSH2 0x2039 JUMP JUMPDEST SWAP2 POP PUSH2 0x289E DUP3 PUSH2 0x2837 JUMP JUMPDEST PUSH1 0x40 DUP3 ADD SWAP1 POP SWAP2 SWAP1 POP JUMP JUMPDEST PUSH1 0x0 PUSH1 0x20 DUP3 ADD SWAP1 POP DUP2 DUP2 SUB PUSH1 0x0 DUP4 ADD MSTORE PUSH2 0x28C2 DUP2 PUSH2 0x2886 JUMP JUMPDEST SWAP1 POP SWAP2 SWAP1 POP JUMP JUMPDEST PUSH32 0x596F75722064697370757465206973206E6F742076616C69642073696E636520 PUSH1 0x0 DUP3 ADD MSTORE PUSH32 0x6974206973206E6F742067726561746572207468616E206174206C6561737420 PUSH1 0x20 DUP3 ADD MSTORE PUSH32 0x6F6E652077696E6E65722E000000000000000000000000000000000000000000 PUSH1 0x40 DUP3 ADD MSTORE POP JUMP JUMPDEST PUSH1 0x0 PUSH2 0x294B PUSH1 0x4B DUP4 PUSH2 0x2039 JUMP JUMPDEST SWAP2 POP PUSH2 0x2956 DUP3 PUSH2 0x28C9 JUMP JUMPDEST PUSH1 0x60 DUP3 ADD SWAP1 POP SWAP2 SWAP1 POP JUMP JUMPDEST PUSH1 0x0 PUSH1 0x20 DUP3 ADD SWAP1 POP DUP2 DUP2 SUB PUSH1 0x0 DUP4 ADD MSTORE PUSH2 0x297A DUP2 PUSH2 0x293E JUMP JUMPDEST SWAP1 POP SWAP2 SWAP1 POP JUMP JUMPDEST PUSH32 0x53656C6C65722063616E206E6F74207265676973746572206173206269646465 PUSH1 0x0 DUP3 ADD MSTORE PUSH32 0x7200000000000000000000000000000000000000000000000000000000000000 PUSH1 0x20 DUP3 ADD MSTORE POP JUMP JUMPDEST PUSH1 0x0 PUSH2 0x29DD PUSH1 0x21 DUP4 PUSH2 0x2039 JUMP JUMPDEST SWAP2 POP PUSH2 0x29E8 DUP3 PUSH2 0x2981 JUMP JUMPDEST PUSH1 0x40 DUP3 ADD SWAP1 POP SWAP2 SWAP1 POP JUMP JUMPDEST PUSH1 0x0 PUSH1 0x20 DUP3 ADD SWAP1 POP DUP2 DUP2 SUB PUSH1 0x0 DUP4 ADD MSTORE PUSH2 0x2A0C DUP2 PUSH2 0x29D0 JUMP JUMPDEST SWAP1 POP SWAP2 SWAP1 POP JUMP JUMPDEST PUSH32 0x54696D6520666F72207265676973746572696E67206173206120626964646572 PUSH1 0x0 DUP3 ADD MSTORE PUSH32 0x206973207061737365642E000000000000000000000000000000000000000000 PUSH1 0x20 DUP3 ADD MSTORE POP JUMP JUMPDEST PUSH1 0x0 PUSH2 0x2A6F PUSH1 0x2B DUP4 PUSH2 0x2039 JUMP JUMPDEST SWAP2 POP PUSH2 0x2A7A DUP3 PUSH2 0x2A13 JUMP JUMPDEST PUSH1 0x40 DUP3 ADD SWAP1 POP SWAP2 SWAP1 POP JUMP JUMPDEST PUSH1 0x0 PUSH1 0x20 DUP3 ADD SWAP1 POP DUP2 DUP2 SUB PUSH1 0x0 DUP4 ADD MSTORE PUSH2 0x2A9E DUP2 PUSH2 0x2A62 JUMP JUMPDEST SWAP1 POP SWAP2 SWAP1 POP JUMP JUMPDEST PUSH1 0x0 PUSH2 0x2AB0 DUP3 PUSH2 0x1BC7 JUMP JUMPDEST SWAP2 POP PUSH32 0xFFFFFFFFFFFFFFFFFFFFFFFFFFFFFFFFFFFFFFFFFFFFFFFFFFFFFFFFFFFFFFFF DUP3 SUB PUSH2 0x2AE2 JUMPI PUSH2 0x2AE1 PUSH2 0x27D4 JUMP JUMPDEST JUMPDEST PUSH1 0x1 DUP3 ADD SWAP1 POP SWAP2 SWAP1 POP JUMP JUMPDEST PUSH1 0x0 DUP2 SWAP1 POP SWAP3 SWAP2 POP POP JUMP JUMPDEST PUSH1 0x0 PUSH2 0x2B03 DUP3 PUSH2 0x1DE9 JUMP JUMPDEST PUSH2 0x2B0D DUP2 DUP6 PUSH2 0x2AED JUMP JUMPDEST SWAP4 POP PUSH2 0x2B1D DUP2 DUP6 PUSH1 0x20 DUP7 ADD PUSH2 0x1E05 JUMP JUMPDEST DUP1 DUP5 ADD SWAP2 POP POP SWAP3 SWAP2 POP POP JUMP JUMPDEST PUSH1 0x0 PUSH2 0x2B35 DUP3 DUP6 PUSH2 0x2AF8 JUMP JUMPDEST SWAP2 POP PUSH2 0x2B41 DUP3 DUP5 PUSH2 0x2AF8 JUMP JUMPDEST SWAP2 POP DUP2 SWAP1 POP SWAP4 SWAP3 POP POP POP JUMP JUMPDEST PUSH1 0x0 PUSH2 0x2B59 DUP3 DUP5 PUSH2 0x2AF8 JUMP JUMPDEST SWAP2 POP DUP2 SWAP1 POP SWAP3 SWAP2 POP POP JUMP JUMPDEST PUSH1 0x0 DUP2 MLOAD SWAP1 POP SWAP2 SWAP1 POP JUMP JUMPDEST PUSH1 0x0 DUP2 SWAP1 POP SWAP3 SWAP2 POP POP JUMP JUMPDEST PUSH1 0x0 PUSH2 0x2B85 DUP3 PUSH2 0x2B64 JUMP JUMPDEST PUSH2 0x2B8F DUP2 DUP6 PUSH2 0x2B6F JUMP JUMPDEST SWAP4 POP PUSH2 0x2B9F DUP2 DUP6 PUSH1 0x20 DUP7 ADD PUSH2 0x1E05 JUMP JUMPDEST DUP1 DUP5 ADD SWAP2 POP POP SWAP3 SWAP2 POP POP JUMP JUMPDEST PUSH1 0x0 PUSH2 0x2BB7 DUP3 DUP5 PUSH2 0x2B7A JUMP JUMPDEST SWAP2 POP DUP2 SWAP1 POP SWAP3 SWAP2 POP POP JUMP JUMPDEST PUSH1 0x0 DUP2 MLOAD SWAP1 POP PUSH2 0x2BD1 DUP2 PUSH2 0x2304 JUMP JUMPDEST SWAP3 SWAP2 POP POP JUMP JUMPDEST PUSH1 0x0 PUSH1 0x20 DUP3 DUP5 SUB SLT ISZERO PUSH2 0x2BED JUMPI PUSH2 0x2BEC PUSH2 0x1BBD JUMP JUMPDEST JUMPDEST PUSH1 0x0 PUSH2 0x2BFB DUP5 DUP3 DUP6 ADD PUSH2 0x2BC2 JUMP JUMPDEST SWAP2 POP POP SWAP3 SWAP2 POP POP JUMP JUMPDEST PUSH1 0x0 PUSH2 0x2C0F DUP3 PUSH2 0x1BC7 JUMP JUMPDEST SWAP2 POP PUSH2 0x2C1A DUP4 PUSH2 0x1BC7 JUMP JUMPDEST SWAP3 POP DUP3 DUP3 MUL PUSH2 0x2C28 DUP2 PUSH2 0x1BC7 JUMP JUMPDEST SWAP2 POP DUP3 DUP3 DIV DUP5 EQ DUP4 ISZERO OR PUSH2 0x2C3F JUMPI PUSH2 0x2C3E PUSH2 0x27D4 JUMP JUMPDEST JUMPDEST POP SWAP3 SWAP2 POP POP JUMP JUMPDEST PUSH32 0x4E487B7100000000000000000000000000000000000000000000000000000000 PUSH1 0x0 MSTORE PUSH1 0x12 PUSH1 0x4 MSTORE PUSH1 0x24 PUSH1 0x0 REVERT INVALID LOG2 PUSH5 0x6970667358 0x22 SLT KECCAK256 0xB8 JUMPI JUMPI PUSH7 0xC4618CB7AF6E3D 0xB5 LOG3 SIGNEXTEND JUMPI SWAP7 0xDD LOG1 0xD0 0xE1 0x2A SHR 0xD SWAP8 0xA8 SWAP1 LOG0 GAS PUSH19 0x35094E64736F6C634300081200330000000000 "
				},
				"gasEstimates": {
					"creation": {
						"codeDepositCost": "2287000",
						"executionCost": "73088",
						"totalCost": "2360088"
					},
					"external": {
						"assetDescription()": "infinite",
						"assetName()": "infinite",
						"auctioneer()": "2581",
						"bidders(uint256)": "5067",
						"dispute(uint256,string)": "infinite",
						"disputedBidders(uint256)": "infinite",
						"encodedBids(address)": "2904",
						"getAllDisputers()": "infinite",
						"getAllWinners()": "infinite",
						"getAuctionInfo()": "infinite",
						"getBidders(uint256)": "5012",
						"registerAuctionInfo(string,string)": "infinite",
						"registerBidder()": "55292",
						"reset()": "infinite",
						"resetEncodedBids()": "infinite",
						"seller()": "2535",
						"submitEncodedBid(bytes32)": "infinite",
						"submitWinner(uint256,string)": "infinite",
						"winners(uint256)": "infinite"
					},
					"internal": {
						"addWinner(uint256,string memory)": "infinite",
						"clearWinners()": "infinite",
						"computeHash(uint256,string memory)": "infinite",
						"isBidder()": "infinite",
						"isDiputeBidGreaterThanOneWinnerBid(uint256)": "infinite",
						"setUpPhasesTimePeriods()": "infinite"
					}
				},
				"methodIdentifiers": {
					"assetDescription()": "938626c2",
					"assetName()": "c9230c5d",
					"auctioneer()": "5ec2c7bf",
					"bidders(uint256)": "cff29dfd",
					"dispute(uint256,string)": "66c85dee",
					"disputedBidders(uint256)": "8f772f96",
					"encodedBids(address)": "3817df4c",
					"getAllDisputers()": "35abd160",
					"getAllWinners()": "dc6b8627",
					"getAuctionInfo()": "d94a3505",
					"getBidders(uint256)": "4fa7b507",
					"registerAuctionInfo(string,string)": "a2ebc656",
					"registerBidder()": "f356733c",
					"reset()": "d826f88f",
					"resetEncodedBids()": "40bd5937",
					"seller()": "08551a53",
					"submitEncodedBid(bytes32)": "ec5d0ab2",
					"submitWinner(uint256,string)": "1744e03b",
					"winners(uint256)": "a2fb1175"
				}
			},
			"storageLayout": {
				"storage": [
					{
						"astId": 1044,
						"contract": "Contracts/AKEB.sol:AKEB",
						"label": "seller",
						"offset": 0,
						"slot": "0",
						"type": "t_address"
					},
					{
						"astId": 1046,
						"contract": "Contracts/AKEB.sol:AKEB",
						"label": "auctioneer",
						"offset": 0,
						"slot": "1",
						"type": "t_address"
					},
					{
						"astId": 1048,
						"contract": "Contracts/AKEB.sol:AKEB",
						"label": "assetDescription",
						"offset": 0,
						"slot": "2",
						"type": "t_string_storage"
					},
					{
						"astId": 1050,
						"contract": "Contracts/AKEB.sol:AKEB",
						"label": "assetName",
						"offset": 0,
						"slot": "3",
						"type": "t_string_storage"
					},
					{
						"astId": 1052,
						"contract": "Contracts/AKEB.sol:AKEB",
						"label": "registerBidderPeriod",
						"offset": 0,
						"slot": "4",
						"type": "t_uint256"
					},
					{
						"astId": 1054,
						"contract": "Contracts/AKEB.sol:AKEB",
						"label": "hashedBidSubmissionPeriod",
						"offset": 0,
						"slot": "5",
						"type": "t_uint256"
					},
					{
						"astId": 1056,
						"contract": "Contracts/AKEB.sol:AKEB",
						"label": "winnerAndDisputeSubmissionPeriod",
						"offset": 0,
						"slot": "6",
						"type": "t_uint256"
					},
					{
						"astId": 1059,
						"contract": "Contracts/AKEB.sol:AKEB",
						"label": "periodTime",
						"offset": 0,
						"slot": "7",
						"type": "t_uint256"
					},
					{
						"astId": 1062,
						"contract": "Contracts/AKEB.sol:AKEB",
						"label": "isAuctionStarted",
						"offset": 0,
						"slot": "8",
						"type": "t_bool"
					},
					{
						"astId": 1065,
						"contract": "Contracts/AKEB.sol:AKEB",
						"label": "bidders",
						"offset": 0,
						"slot": "9",
						"type": "t_array(t_address)dyn_storage"
					},
					{
						"astId": 1069,
						"contract": "Contracts/AKEB.sol:AKEB",
						"label": "encodedBids",
						"offset": 0,
						"slot": "10",
						"type": "t_mapping(t_address,t_bytes32)"
					},
					{
						"astId": 1080,
						"contract": "Contracts/AKEB.sol:AKEB",
						"label": "winners",
						"offset": 0,
						"slot": "11",
						"type": "t_array(t_struct(winner)1076_storage)dyn_storage"
					},
					{
						"astId": 1091,
						"contract": "Contracts/AKEB.sol:AKEB",
						"label": "disputedBidders",
						"offset": 0,
						"slot": "12",
						"type": "t_array(t_struct(DisputedBidders)1087_storage)dyn_storage"
					}
				],
				"types": {
					"t_address": {
						"encoding": "inplace",
						"label": "address",
						"numberOfBytes": "20"
					},
					"t_array(t_address)dyn_storage": {
						"base": "t_address",
						"encoding": "dynamic_array",
						"label": "address[]",
						"numberOfBytes": "32"
					},
					"t_array(t_struct(DisputedBidders)1087_storage)dyn_storage": {
						"base": "t_struct(DisputedBidders)1087_storage",
						"encoding": "dynamic_array",
						"label": "struct AKEB.DisputedBidders[]",
						"numberOfBytes": "32"
					},
					"t_array(t_struct(winner)1076_storage)dyn_storage": {
						"base": "t_struct(winner)1076_storage",
						"encoding": "dynamic_array",
						"label": "struct AKEB.winner[]",
						"numberOfBytes": "32"
					},
					"t_bool": {
						"encoding": "inplace",
						"label": "bool",
						"numberOfBytes": "1"
					},
					"t_bytes32": {
						"encoding": "inplace",
						"label": "bytes32",
						"numberOfBytes": "32"
					},
					"t_mapping(t_address,t_bytes32)": {
						"encoding": "mapping",
						"key": "t_address",
						"label": "mapping(address => bytes32)",
						"numberOfBytes": "32",
						"value": "t_bytes32"
					},
					"t_string_storage": {
						"encoding": "bytes",
						"label": "string",
						"numberOfBytes": "32"
					},
					"t_struct(DisputedBidders)1087_storage": {
						"encoding": "inplace",
						"label": "struct AKEB.DisputedBidders",
						"members": [
							{
								"astId": 1082,
								"contract": "Contracts/AKEB.sol:AKEB",
								"label": "bid",
								"offset": 0,
								"slot": "0",
								"type": "t_uint256"
							},
							{
								"astId": 1084,
								"contract": "Contracts/AKEB.sol:AKEB",
								"label": "disputeAddress",
								"offset": 0,
								"slot": "1",
								"type": "t_address"
							},
							{
								"astId": 1086,
								"contract": "Contracts/AKEB.sol:AKEB",
								"label": "nonce",
								"offset": 0,
								"slot": "2",
								"type": "t_string_storage"
							}
						],
						"numberOfBytes": "96"
					},
					"t_struct(winner)1076_storage": {
						"encoding": "inplace",
						"label": "struct AKEB.winner",
						"members": [
							{
								"astId": 1071,
								"contract": "Contracts/AKEB.sol:AKEB",
								"label": "winnerAddress",
								"offset": 0,
								"slot": "0",
								"type": "t_address"
							},
							{
								"astId": 1073,
								"contract": "Contracts/AKEB.sol:AKEB",
								"label": "bid",
								"offset": 0,
								"slot": "1",
								"type": "t_uint256"
							},
							{
								"astId": 1075,
								"contract": "Contracts/AKEB.sol:AKEB",
								"label": "nonce",
								"offset": 0,
								"slot": "2",
								"type": "t_string_storage"
							}
						],
						"numberOfBytes": "96"
					},
					"t_uint256": {
						"encoding": "inplace",
						"label": "uint256",
						"numberOfBytes": "32"
					}
				}
			},
			"userdoc": {
				"kind": "user",
				"methods": {},
				"version": 1
			}
		}
	}
}