{
	"Contracts/AKEB.sol": {
		"AKEB": {
			"abi": [
				{
					"inputs": [],
					"stateMutability": "nonpayable",
					"type": "constructor"
				},
				{
					"inputs": [],
					"name": "assetDescription",
					"outputs": [
						{
							"internalType": "string",
							"name": "",
							"type": "string"
						}
					],
					"stateMutability": "view",
					"type": "function"
				},
				{
					"inputs": [
						{
							"internalType": "uint256",
							"name": "",
							"type": "uint256"
						}
					],
					"name": "bidders",
					"outputs": [
						{
							"internalType": "address",
							"name": "",
							"type": "address"
						}
					],
					"stateMutability": "view",
					"type": "function"
				},
				{
					"inputs": [],
					"name": "getMyPublicKey",
					"outputs": [
						{
							"internalType": "string",
							"name": "",
							"type": "string"
						}
					],
					"stateMutability": "view",
					"type": "function"
				},
				{
					"inputs": [],
					"name": "minBidPrice",
					"outputs": [
						{
							"internalType": "uint256",
							"name": "",
							"type": "uint256"
						}
					],
					"stateMutability": "view",
					"type": "function"
				},
				{
					"inputs": [],
					"name": "minNumberOfBidders",
					"outputs": [
						{
							"internalType": "uint256",
							"name": "",
							"type": "uint256"
						}
					],
					"stateMutability": "view",
					"type": "function"
				},
				{
					"inputs": [
						{
							"internalType": "address",
							"name": "",
							"type": "address"
						}
					],
					"name": "publicKeys",
					"outputs": [
						{
							"internalType": "string",
							"name": "",
							"type": "string"
						}
					],
					"stateMutability": "view",
					"type": "function"
				},
				{
					"inputs": [
						{
							"internalType": "string",
							"name": "assetDescriptionInput",
							"type": "string"
						},
						{
							"internalType": "uint256",
							"name": "minBidPriceInput",
							"type": "uint256"
						},
						{
							"internalType": "uint256",
							"name": "minNumberOfBiddersInput",
							"type": "uint256"
						}
					],
					"name": "registerAuctionInfo",
					"outputs": [],
					"stateMutability": "nonpayable",
					"type": "function"
				},
				{
					"inputs": [],
					"name": "registerBidder",
					"outputs": [],
					"stateMutability": "nonpayable",
					"type": "function"
				},
				{
					"inputs": [
						{
							"internalType": "address",
							"name": "inputAddress",
							"type": "address"
						},
						{
							"internalType": "string",
							"name": "inputPublicKey",
							"type": "string"
						}
					],
					"name": "submitPublicKeys",
					"outputs": [],
					"stateMutability": "nonpayable",
					"type": "function"
				}
			],
			"devdoc": {
				"kind": "dev",
				"methods": {},
				"version": 1
			},
			"evm": {
				"assembly": "    /* \"Contracts/AKEB.sol\":58:1381  contract AKEB {... */\n  mstore(0x40, 0x80)\n    /* \"Contracts/AKEB.sol\":290:348  constructor()... */\n  callvalue\n  dup1\n  iszero\n  tag_1\n  jumpi\n  0x00\n  dup1\n  revert\ntag_1:\n  pop\n    /* \"Contracts/AKEB.sol\":331:341  msg.sender */\n  caller\n    /* \"Contracts/AKEB.sol\":318:328  auctioneer */\n  0x00\n  dup1\n    /* \"Contracts/AKEB.sol\":318:341  auctioneer = msg.sender */\n  0x0100\n  exp\n  dup2\n  sload\n  dup2\n  0xffffffffffffffffffffffffffffffffffffffff\n  mul\n  not\n  and\n  swap1\n  dup4\n  0xffffffffffffffffffffffffffffffffffffffff\n  and\n  mul\n  or\n  swap1\n  sstore\n  pop\n    /* \"Contracts/AKEB.sol\":58:1381  contract AKEB {... */\n  dataSize(sub_0)\n  dup1\n  dataOffset(sub_0)\n  0x00\n  codecopy\n  0x00\n  return\nstop\n\nsub_0: assembly {\n        /* \"Contracts/AKEB.sol\":58:1381  contract AKEB {... */\n      mstore(0x40, 0x80)\n      callvalue\n      dup1\n      iszero\n      tag_1\n      jumpi\n      0x00\n      dup1\n      revert\n    tag_1:\n      pop\n      jumpi(tag_2, lt(calldatasize, 0x04))\n      shr(0xe0, calldataload(0x00))\n      dup1\n      0xa3d6f9a9\n      gt\n      tag_12\n      jumpi\n      dup1\n      0xa3d6f9a9\n      eq\n      tag_7\n      jumpi\n      dup1\n      0xcff29dfd\n      eq\n      tag_8\n      jumpi\n      dup1\n      0xdaa0218f\n      eq\n      tag_9\n      jumpi\n      dup1\n      0xe7d2a997\n      eq\n      tag_10\n      jumpi\n      dup1\n      0xf356733c\n      eq\n      tag_11\n      jumpi\n      jump(tag_2)\n    tag_12:\n      dup1\n      0x34eb86a2\n      eq\n      tag_3\n      jumpi\n      dup1\n      0x7d441a6f\n      eq\n      tag_4\n      jumpi\n      dup1\n      0x86b8c34c\n      eq\n      tag_5\n      jumpi\n      dup1\n      0x938626c2\n      eq\n      tag_6\n      jumpi\n    tag_2:\n      0x00\n      dup1\n      revert\n        /* \"Contracts/AKEB.sol\":168:194  uint256 public minBidPrice */\n    tag_3:\n      tag_13\n      tag_14\n      jump\t// in\n    tag_13:\n      mload(0x40)\n      tag_15\n      swap2\n      swap1\n      tag_16\n      jump\t// in\n    tag_15:\n      mload(0x40)\n      dup1\n      swap2\n      sub\n      swap1\n      return\n        /* \"Contracts/AKEB.sol\":1081:1223  function submitPublicKeys(address inputAddress, string memory inputPublicKey) public{... */\n    tag_4:\n      tag_17\n      0x04\n      dup1\n      calldatasize\n      sub\n      dup2\n      add\n      swap1\n      tag_18\n      swap2\n      swap1\n      tag_19\n      jump\t// in\n    tag_18:\n      tag_20\n      jump\t// in\n    tag_17:\n      stop\n        /* \"Contracts/AKEB.sol\":1229:1379  function getMyPublicKey() public view noAuctioneerInBiddersActivities() ... */\n    tag_5:\n      tag_21\n      tag_22\n      jump\t// in\n    tag_21:\n      mload(0x40)\n      tag_23\n      swap2\n      swap1\n      tag_24\n      jump\t// in\n    tag_23:\n      mload(0x40)\n      dup1\n      swap2\n      sub\n      swap1\n      return\n        /* \"Contracts/AKEB.sol\":132:162  string public assetDescription */\n    tag_6:\n      tag_25\n      tag_26\n      jump\t// in\n    tag_25:\n      mload(0x40)\n      tag_27\n      swap2\n      swap1\n      tag_24\n      jump\t// in\n    tag_27:\n      mload(0x40)\n      dup1\n      swap2\n      sub\n      swap1\n      return\n        /* \"Contracts/AKEB.sol\":239:283  mapping(address => string) public publicKeys */\n    tag_7:\n      tag_28\n      0x04\n      dup1\n      calldatasize\n      sub\n      dup2\n      add\n      swap1\n      tag_29\n      swap2\n      swap1\n      tag_30\n      jump\t// in\n    tag_29:\n      tag_31\n      jump\t// in\n    tag_28:\n      mload(0x40)\n      tag_32\n      swap2\n      swap1\n      tag_24\n      jump\t// in\n    tag_32:\n      mload(0x40)\n      dup1\n      swap2\n      sub\n      swap1\n      return\n        /* \"Contracts/AKEB.sol\":102:126  address[] public bidders */\n    tag_8:\n      tag_33\n      0x04\n      dup1\n      calldatasize\n      sub\n      dup2\n      add\n      swap1\n      tag_34\n      swap2\n      swap1\n      tag_35\n      jump\t// in\n    tag_34:\n      tag_36\n      jump\t// in\n    tag_33:\n      mload(0x40)\n      tag_37\n      swap2\n      swap1\n      tag_38\n      jump\t// in\n    tag_37:\n      mload(0x40)\n      dup1\n      swap2\n      sub\n      swap1\n      return\n        /* \"Contracts/AKEB.sol\":200:233  uint256 public minNumberOfBidders */\n    tag_9:\n      tag_39\n      tag_40\n      jump\t// in\n    tag_39:\n      mload(0x40)\n      tag_41\n      swap2\n      swap1\n      tag_16\n      jump\t// in\n    tag_41:\n      mload(0x40)\n      dup1\n      swap2\n      sub\n      swap1\n      return\n        /* \"Contracts/AKEB.sol\":641:961  function registerAuctionInfo(string memory assetDescriptionInput, ... */\n    tag_10:\n      tag_42\n      0x04\n      dup1\n      calldatasize\n      sub\n      dup2\n      add\n      swap1\n      tag_43\n      swap2\n      swap1\n      tag_44\n      jump\t// in\n    tag_43:\n      tag_45\n      jump\t// in\n    tag_42:\n      stop\n        /* \"Contracts/AKEB.sol\":967:1075  function registerBidder() public noAuctioneerInBiddersActivities() {... */\n    tag_11:\n      tag_46\n      tag_47\n      jump\t// in\n    tag_46:\n      stop\n        /* \"Contracts/AKEB.sol\":168:194  uint256 public minBidPrice */\n    tag_14:\n      sload(0x03)\n      dup2\n      jump\t// out\n        /* \"Contracts/AKEB.sol\":1081:1223  function submitPublicKeys(address inputAddress, string memory inputPublicKey) public{... */\n    tag_20:\n        /* \"Contracts/AKEB.sol\":1202:1216  inputPublicKey */\n      dup1\n        /* \"Contracts/AKEB.sol\":1175:1185  publicKeys */\n      0x05\n        /* \"Contracts/AKEB.sol\":1175:1199  publicKeys[inputAddress] */\n      0x00\n        /* \"Contracts/AKEB.sol\":1186:1198  inputAddress */\n      dup5\n        /* \"Contracts/AKEB.sol\":1175:1199  publicKeys[inputAddress] */\n      0xffffffffffffffffffffffffffffffffffffffff\n      and\n      0xffffffffffffffffffffffffffffffffffffffff\n      and\n      dup2\n      mstore\n      0x20\n      add\n      swap1\n      dup2\n      mstore\n      0x20\n      add\n      0x00\n      keccak256\n        /* \"Contracts/AKEB.sol\":1175:1216  publicKeys[inputAddress] = inputPublicKey */\n      swap1\n      dup1\n      mload\n      swap1\n      0x20\n      add\n      swap1\n      tag_49\n      swap3\n      swap2\n      swap1\n      tag_50\n      jump\t// in\n    tag_49:\n      pop\n        /* \"Contracts/AKEB.sol\":1081:1223  function submitPublicKeys(address inputAddress, string memory inputPublicKey) public{... */\n      pop\n      pop\n      jump\t// out\n        /* \"Contracts/AKEB.sol\":1229:1379  function getMyPublicKey() public view noAuctioneerInBiddersActivities() ... */\n    tag_22:\n        /* \"Contracts/AKEB.sol\":1314:1327  string memory */\n      0x60\n        /* \"Contracts/AKEB.sol\":562:572  auctioneer */\n      0x00\n      dup1\n      sload\n      swap1\n      0x0100\n      exp\n      swap1\n      div\n      0xffffffffffffffffffffffffffffffffffffffff\n      and\n        /* \"Contracts/AKEB.sol\":548:572  msg.sender != auctioneer */\n      0xffffffffffffffffffffffffffffffffffffffff\n      and\n        /* \"Contracts/AKEB.sol\":548:558  msg.sender */\n      caller\n        /* \"Contracts/AKEB.sol\":548:572  msg.sender != auctioneer */\n      0xffffffffffffffffffffffffffffffffffffffff\n      and\n      sub\n        /* \"Contracts/AKEB.sol\":540:626  require(msg.sender != auctioneer, \"Auctioneer is not allowed to register as a bidder\") */\n      tag_52\n      jumpi\n      mload(0x40)\n      0x08c379a000000000000000000000000000000000000000000000000000000000\n      dup2\n      mstore\n      0x04\n      add\n      tag_53\n      swap1\n      tag_54\n      jump\t// in\n    tag_53:\n      mload(0x40)\n      dup1\n      swap2\n      sub\n      swap1\n      revert\n    tag_52:\n        /* \"Contracts/AKEB.sol\":1350:1360  publicKeys */\n      0x05\n        /* \"Contracts/AKEB.sol\":1350:1372  publicKeys[msg.sender] */\n      0x00\n        /* \"Contracts/AKEB.sol\":1361:1371  msg.sender */\n      caller\n        /* \"Contracts/AKEB.sol\":1350:1372  publicKeys[msg.sender] */\n      0xffffffffffffffffffffffffffffffffffffffff\n      and\n      0xffffffffffffffffffffffffffffffffffffffff\n      and\n      dup2\n      mstore\n      0x20\n      add\n      swap1\n      dup2\n      mstore\n      0x20\n      add\n      0x00\n      keccak256\n        /* \"Contracts/AKEB.sol\":1343:1372  return publicKeys[msg.sender] */\n      dup1\n      sload\n      tag_56\n      swap1\n      tag_57\n      jump\t// in\n    tag_56:\n      dup1\n      0x1f\n      add\n      0x20\n      dup1\n      swap2\n      div\n      mul\n      0x20\n      add\n      mload(0x40)\n      swap1\n      dup2\n      add\n      0x40\n      mstore\n      dup1\n      swap3\n      swap2\n      swap1\n      dup2\n      dup2\n      mstore\n      0x20\n      add\n      dup3\n      dup1\n      sload\n      tag_58\n      swap1\n      tag_57\n      jump\t// in\n    tag_58:\n      dup1\n      iszero\n      tag_59\n      jumpi\n      dup1\n      0x1f\n      lt\n      tag_60\n      jumpi\n      0x0100\n      dup1\n      dup4\n      sload\n      div\n      mul\n      dup4\n      mstore\n      swap2\n      0x20\n      add\n      swap2\n      jump(tag_59)\n    tag_60:\n      dup3\n      add\n      swap2\n      swap1\n      0x00\n      mstore\n      keccak256(0x00, 0x20)\n      swap1\n    tag_61:\n      dup2\n      sload\n      dup2\n      mstore\n      swap1\n      0x01\n      add\n      swap1\n      0x20\n      add\n      dup1\n      dup4\n      gt\n      tag_61\n      jumpi\n      dup3\n      swap1\n      sub\n      0x1f\n      and\n      dup3\n      add\n      swap2\n    tag_59:\n      pop\n      pop\n      pop\n      pop\n      pop\n      swap1\n      pop\n        /* \"Contracts/AKEB.sol\":1229:1379  function getMyPublicKey() public view noAuctioneerInBiddersActivities() ... */\n      swap1\n      jump\t// out\n        /* \"Contracts/AKEB.sol\":132:162  string public assetDescription */\n    tag_26:\n      0x02\n      dup1\n      sload\n      tag_62\n      swap1\n      tag_57\n      jump\t// in\n    tag_62:\n      dup1\n      0x1f\n      add\n      0x20\n      dup1\n      swap2\n      div\n      mul\n      0x20\n      add\n      mload(0x40)\n      swap1\n      dup2\n      add\n      0x40\n      mstore\n      dup1\n      swap3\n      swap2\n      swap1\n      dup2\n      dup2\n      mstore\n      0x20\n      add\n      dup3\n      dup1\n      sload\n      tag_63\n      swap1\n      tag_57\n      jump\t// in\n    tag_63:\n      dup1\n      iszero\n      tag_64\n      jumpi\n      dup1\n      0x1f\n      lt\n      tag_65\n      jumpi\n      0x0100\n      dup1\n      dup4\n      sload\n      div\n      mul\n      dup4\n      mstore\n      swap2\n      0x20\n      add\n      swap2\n      jump(tag_64)\n    tag_65:\n      dup3\n      add\n      swap2\n      swap1\n      0x00\n      mstore\n      keccak256(0x00, 0x20)\n      swap1\n    tag_66:\n      dup2\n      sload\n      dup2\n      mstore\n      swap1\n      0x01\n      add\n      swap1\n      0x20\n      add\n      dup1\n      dup4\n      gt\n      tag_66\n      jumpi\n      dup3\n      swap1\n      sub\n      0x1f\n      and\n      dup3\n      add\n      swap2\n    tag_64:\n      pop\n      pop\n      pop\n      pop\n      pop\n      dup2\n      jump\t// out\n        /* \"Contracts/AKEB.sol\":239:283  mapping(address => string) public publicKeys */\n    tag_31:\n      mstore(0x20, 0x05)\n      dup1\n      0x00\n      mstore\n      keccak256(0x00, 0x40)\n      0x00\n      swap2\n      pop\n      swap1\n      pop\n      dup1\n      sload\n      tag_67\n      swap1\n      tag_57\n      jump\t// in\n    tag_67:\n      dup1\n      0x1f\n      add\n      0x20\n      dup1\n      swap2\n      div\n      mul\n      0x20\n      add\n      mload(0x40)\n      swap1\n      dup2\n      add\n      0x40\n      mstore\n      dup1\n      swap3\n      swap2\n      swap1\n      dup2\n      dup2\n      mstore\n      0x20\n      add\n      dup3\n      dup1\n      sload\n      tag_68\n      swap1\n      tag_57\n      jump\t// in\n    tag_68:\n      dup1\n      iszero\n      tag_69\n      jumpi\n      dup1\n      0x1f\n      lt\n      tag_70\n      jumpi\n      0x0100\n      dup1\n      dup4\n      sload\n      div\n      mul\n      dup4\n      mstore\n      swap2\n      0x20\n      add\n      swap2\n      jump(tag_69)\n    tag_70:\n      dup3\n      add\n      swap2\n      swap1\n      0x00\n      mstore\n      keccak256(0x00, 0x20)\n      swap1\n    tag_71:\n      dup2\n      sload\n      dup2\n      mstore\n      swap1\n      0x01\n      add\n      swap1\n      0x20\n      add\n      dup1\n      dup4\n      gt\n      tag_71\n      jumpi\n      dup3\n      swap1\n      sub\n      0x1f\n      and\n      dup3\n      add\n      swap2\n    tag_69:\n      pop\n      pop\n      pop\n      pop\n      pop\n      dup2\n      jump\t// out\n        /* \"Contracts/AKEB.sol\":102:126  address[] public bidders */\n    tag_36:\n      0x01\n      dup2\n      dup2\n      sload\n      dup2\n      lt\n      tag_72\n      jumpi\n      0x00\n      dup1\n      revert\n    tag_72:\n      swap1\n      0x00\n      mstore\n      keccak256(0x00, 0x20)\n      add\n      0x00\n      swap2\n      pop\n      sload\n      swap1\n      0x0100\n      exp\n      swap1\n      div\n      0xffffffffffffffffffffffffffffffffffffffff\n      and\n      dup2\n      jump\t// out\n        /* \"Contracts/AKEB.sol\":200:233  uint256 public minNumberOfBidders */\n    tag_40:\n      sload(0x04)\n      dup2\n      jump\t// out\n        /* \"Contracts/AKEB.sol\":641:961  function registerAuctionInfo(string memory assetDescriptionInput, ... */\n    tag_45:\n        /* \"Contracts/AKEB.sol\":418:428  auctioneer */\n      0x00\n      dup1\n      sload\n      swap1\n      0x0100\n      exp\n      swap1\n      div\n      0xffffffffffffffffffffffffffffffffffffffff\n      and\n        /* \"Contracts/AKEB.sol\":404:428  msg.sender == auctioneer */\n      0xffffffffffffffffffffffffffffffffffffffff\n      and\n        /* \"Contracts/AKEB.sol\":404:414  msg.sender */\n      caller\n        /* \"Contracts/AKEB.sol\":404:428  msg.sender == auctioneer */\n      0xffffffffffffffffffffffffffffffffffffffff\n      and\n      eq\n        /* \"Contracts/AKEB.sol\":396:472  require(msg.sender == auctioneer, \"Only auctioneer can call this function.\") */\n      tag_75\n      jumpi\n      mload(0x40)\n      0x08c379a000000000000000000000000000000000000000000000000000000000\n      dup2\n      mstore\n      0x04\n      add\n      tag_76\n      swap1\n      tag_77\n      jump\t// in\n    tag_76:\n      mload(0x40)\n      dup1\n      swap2\n      sub\n      swap1\n      revert\n    tag_75:\n        /* \"Contracts/AKEB.sol\":839:860  assetDescriptionInput */\n      dup3\n        /* \"Contracts/AKEB.sol\":820:836  assetDescription */\n      0x02\n        /* \"Contracts/AKEB.sol\":820:860  assetDescription = assetDescriptionInput */\n      swap1\n      dup1\n      mload\n      swap1\n      0x20\n      add\n      swap1\n      tag_79\n      swap3\n      swap2\n      swap1\n      tag_50\n      jump\t// in\n    tag_79:\n      pop\n        /* \"Contracts/AKEB.sol\":884:900  minBidPriceInput */\n      dup2\n        /* \"Contracts/AKEB.sol\":870:881  minBidPrice */\n      0x03\n        /* \"Contracts/AKEB.sol\":870:900  minBidPrice = minBidPriceInput */\n      dup2\n      swap1\n      sstore\n      pop\n        /* \"Contracts/AKEB.sol\":931:954  minNumberOfBiddersInput */\n      dup1\n        /* \"Contracts/AKEB.sol\":910:928  minNumberOfBidders */\n      0x04\n        /* \"Contracts/AKEB.sol\":910:954  minNumberOfBidders = minNumberOfBiddersInput */\n      dup2\n      swap1\n      sstore\n      pop\n        /* \"Contracts/AKEB.sol\":641:961  function registerAuctionInfo(string memory assetDescriptionInput, ... */\n      pop\n      pop\n      pop\n      jump\t// out\n        /* \"Contracts/AKEB.sol\":967:1075  function registerBidder() public noAuctioneerInBiddersActivities() {... */\n    tag_47:\n        /* \"Contracts/AKEB.sol\":562:572  auctioneer */\n      0x00\n      dup1\n      sload\n      swap1\n      0x0100\n      exp\n      swap1\n      div\n      0xffffffffffffffffffffffffffffffffffffffff\n      and\n        /* \"Contracts/AKEB.sol\":548:572  msg.sender != auctioneer */\n      0xffffffffffffffffffffffffffffffffffffffff\n      and\n        /* \"Contracts/AKEB.sol\":548:558  msg.sender */\n      caller\n        /* \"Contracts/AKEB.sol\":548:572  msg.sender != auctioneer */\n      0xffffffffffffffffffffffffffffffffffffffff\n      and\n      sub\n        /* \"Contracts/AKEB.sol\":540:626  require(msg.sender != auctioneer, \"Auctioneer is not allowed to register as a bidder\") */\n      tag_81\n      jumpi\n      mload(0x40)\n      0x08c379a000000000000000000000000000000000000000000000000000000000\n      dup2\n      mstore\n      0x04\n      add\n      tag_82\n      swap1\n      tag_54\n      jump\t// in\n    tag_82:\n      mload(0x40)\n      dup1\n      swap2\n      sub\n      swap1\n      revert\n    tag_81:\n        /* \"Contracts/AKEB.sol\":1044:1051  bidders */\n      0x01\n        /* \"Contracts/AKEB.sol\":1057:1067  msg.sender */\n      caller\n        /* \"Contracts/AKEB.sol\":1044:1068  bidders.push(msg.sender) */\n      swap1\n      dup1\n      0x01\n      dup2\n      sload\n      add\n      dup1\n      dup3\n      sstore\n      dup1\n      swap2\n      pop\n      pop\n      0x01\n      swap1\n      sub\n      swap1\n      0x00\n      mstore\n      keccak256(0x00, 0x20)\n      add\n      0x00\n      swap1\n      swap2\n      swap1\n      swap2\n      swap1\n      swap2\n      0x0100\n      exp\n      dup2\n      sload\n      dup2\n      0xffffffffffffffffffffffffffffffffffffffff\n      mul\n      not\n      and\n      swap1\n      dup4\n      0xffffffffffffffffffffffffffffffffffffffff\n      and\n      mul\n      or\n      swap1\n      sstore\n      pop\n        /* \"Contracts/AKEB.sol\":967:1075  function registerBidder() public noAuctioneerInBiddersActivities() {... */\n      jump\t// out\n    tag_50:\n      dup3\n      dup1\n      sload\n      tag_85\n      swap1\n      tag_57\n      jump\t// in\n    tag_85:\n      swap1\n      0x00\n      mstore\n      keccak256(0x00, 0x20)\n      swap1\n      0x1f\n      add\n      0x20\n      swap1\n      div\n      dup2\n      add\n      swap3\n      dup3\n      tag_87\n      jumpi\n      0x00\n      dup6\n      sstore\n      jump(tag_86)\n    tag_87:\n      dup3\n      0x1f\n      lt\n      tag_88\n      jumpi\n      dup1\n      mload\n      not(0xff)\n      and\n      dup4\n      dup1\n      add\n      or\n      dup6\n      sstore\n      jump(tag_86)\n    tag_88:\n      dup3\n      dup1\n      add\n      0x01\n      add\n      dup6\n      sstore\n      dup3\n      iszero\n      tag_86\n      jumpi\n      swap2\n      dup3\n      add\n    tag_89:\n      dup3\n      dup2\n      gt\n      iszero\n      tag_90\n      jumpi\n      dup3\n      mload\n      dup3\n      sstore\n      swap2\n      0x20\n      add\n      swap2\n      swap1\n      0x01\n      add\n      swap1\n      jump(tag_89)\n    tag_90:\n    tag_86:\n      pop\n      swap1\n      pop\n      tag_91\n      swap2\n      swap1\n      tag_92\n      jump\t// in\n    tag_91:\n      pop\n      swap1\n      jump\t// out\n    tag_92:\n    tag_93:\n      dup1\n      dup3\n      gt\n      iszero\n      tag_94\n      jumpi\n      0x00\n      dup2\n      0x00\n      swap1\n      sstore\n      pop\n      0x01\n      add\n      jump(tag_93)\n    tag_94:\n      pop\n      swap1\n      jump\t// out\n        /* \"#utility.yul\":7:84   */\n    tag_95:\n        /* \"#utility.yul\":44:51   */\n      0x00\n        /* \"#utility.yul\":73:78   */\n      dup2\n        /* \"#utility.yul\":62:78   */\n      swap1\n      pop\n        /* \"#utility.yul\":7:84   */\n      swap2\n      swap1\n      pop\n      jump\t// out\n        /* \"#utility.yul\":90:208   */\n    tag_96:\n        /* \"#utility.yul\":177:201   */\n      tag_129\n        /* \"#utility.yul\":195:200   */\n      dup2\n        /* \"#utility.yul\":177:201   */\n      tag_95\n      jump\t// in\n    tag_129:\n        /* \"#utility.yul\":172:175   */\n      dup3\n        /* \"#utility.yul\":165:202   */\n      mstore\n        /* \"#utility.yul\":90:208   */\n      pop\n      pop\n      jump\t// out\n        /* \"#utility.yul\":214:436   */\n    tag_16:\n        /* \"#utility.yul\":307:311   */\n      0x00\n        /* \"#utility.yul\":345:347   */\n      0x20\n        /* \"#utility.yul\":334:343   */\n      dup3\n        /* \"#utility.yul\":330:348   */\n      add\n        /* \"#utility.yul\":322:348   */\n      swap1\n      pop\n        /* \"#utility.yul\":358:429   */\n      tag_131\n        /* \"#utility.yul\":426:427   */\n      0x00\n        /* \"#utility.yul\":415:424   */\n      dup4\n        /* \"#utility.yul\":411:428   */\n      add\n        /* \"#utility.yul\":402:408   */\n      dup5\n        /* \"#utility.yul\":358:429   */\n      tag_96\n      jump\t// in\n    tag_131:\n        /* \"#utility.yul\":214:436   */\n      swap3\n      swap2\n      pop\n      pop\n      jump\t// out\n        /* \"#utility.yul\":442:517   */\n    tag_97:\n        /* \"#utility.yul\":475:481   */\n      0x00\n        /* \"#utility.yul\":508:510   */\n      0x40\n        /* \"#utility.yul\":502:511   */\n      mload\n        /* \"#utility.yul\":492:511   */\n      swap1\n      pop\n        /* \"#utility.yul\":442:517   */\n      swap1\n      jump\t// out\n        /* \"#utility.yul\":523:640   */\n    tag_98:\n        /* \"#utility.yul\":632:633   */\n      0x00\n        /* \"#utility.yul\":629:630   */\n      dup1\n        /* \"#utility.yul\":622:634   */\n      revert\n        /* \"#utility.yul\":646:763   */\n    tag_99:\n        /* \"#utility.yul\":755:756   */\n      0x00\n        /* \"#utility.yul\":752:753   */\n      dup1\n        /* \"#utility.yul\":745:757   */\n      revert\n        /* \"#utility.yul\":769:895   */\n    tag_100:\n        /* \"#utility.yul\":806:813   */\n      0x00\n        /* \"#utility.yul\":846:888   */\n      0xffffffffffffffffffffffffffffffffffffffff\n        /* \"#utility.yul\":839:844   */\n      dup3\n        /* \"#utility.yul\":835:889   */\n      and\n        /* \"#utility.yul\":824:889   */\n      swap1\n      pop\n        /* \"#utility.yul\":769:895   */\n      swap2\n      swap1\n      pop\n      jump\t// out\n        /* \"#utility.yul\":901:997   */\n    tag_101:\n        /* \"#utility.yul\":938:945   */\n      0x00\n        /* \"#utility.yul\":967:991   */\n      tag_137\n        /* \"#utility.yul\":985:990   */\n      dup3\n        /* \"#utility.yul\":967:991   */\n      tag_100\n      jump\t// in\n    tag_137:\n        /* \"#utility.yul\":956:991   */\n      swap1\n      pop\n        /* \"#utility.yul\":901:997   */\n      swap2\n      swap1\n      pop\n      jump\t// out\n        /* \"#utility.yul\":1003:1125   */\n    tag_102:\n        /* \"#utility.yul\":1076:1100   */\n      tag_139\n        /* \"#utility.yul\":1094:1099   */\n      dup2\n        /* \"#utility.yul\":1076:1100   */\n      tag_101\n      jump\t// in\n    tag_139:\n        /* \"#utility.yul\":1069:1074   */\n      dup2\n        /* \"#utility.yul\":1066:1101   */\n      eq\n        /* \"#utility.yul\":1056:1119   */\n      tag_140\n      jumpi\n        /* \"#utility.yul\":1115:1116   */\n      0x00\n        /* \"#utility.yul\":1112:1113   */\n      dup1\n        /* \"#utility.yul\":1105:1117   */\n      revert\n        /* \"#utility.yul\":1056:1119   */\n    tag_140:\n        /* \"#utility.yul\":1003:1125   */\n      pop\n      jump\t// out\n        /* \"#utility.yul\":1131:1270   */\n    tag_103:\n        /* \"#utility.yul\":1177:1182   */\n      0x00\n        /* \"#utility.yul\":1215:1221   */\n      dup2\n        /* \"#utility.yul\":1202:1222   */\n      calldataload\n        /* \"#utility.yul\":1193:1222   */\n      swap1\n      pop\n        /* \"#utility.yul\":1231:1264   */\n      tag_142\n        /* \"#utility.yul\":1258:1263   */\n      dup2\n        /* \"#utility.yul\":1231:1264   */\n      tag_102\n      jump\t// in\n    tag_142:\n        /* \"#utility.yul\":1131:1270   */\n      swap3\n      swap2\n      pop\n      pop\n      jump\t// out\n        /* \"#utility.yul\":1276:1393   */\n    tag_104:\n        /* \"#utility.yul\":1385:1386   */\n      0x00\n        /* \"#utility.yul\":1382:1383   */\n      dup1\n        /* \"#utility.yul\":1375:1387   */\n      revert\n        /* \"#utility.yul\":1399:1516   */\n    tag_105:\n        /* \"#utility.yul\":1508:1509   */\n      0x00\n        /* \"#utility.yul\":1505:1506   */\n      dup1\n        /* \"#utility.yul\":1498:1510   */\n      revert\n        /* \"#utility.yul\":1522:1624   */\n    tag_106:\n        /* \"#utility.yul\":1563:1569   */\n      0x00\n        /* \"#utility.yul\":1614:1616   */\n      0x1f\n        /* \"#utility.yul\":1610:1617   */\n      not\n        /* \"#utility.yul\":1605:1607   */\n      0x1f\n        /* \"#utility.yul\":1598:1603   */\n      dup4\n        /* \"#utility.yul\":1594:1608   */\n      add\n        /* \"#utility.yul\":1590:1618   */\n      and\n        /* \"#utility.yul\":1580:1618   */\n      swap1\n      pop\n        /* \"#utility.yul\":1522:1624   */\n      swap2\n      swap1\n      pop\n      jump\t// out\n        /* \"#utility.yul\":1630:1810   */\n    tag_107:\n        /* \"#utility.yul\":1678:1755   */\n      0x4e487b7100000000000000000000000000000000000000000000000000000000\n        /* \"#utility.yul\":1675:1676   */\n      0x00\n        /* \"#utility.yul\":1668:1756   */\n      mstore\n        /* \"#utility.yul\":1775:1779   */\n      0x41\n        /* \"#utility.yul\":1772:1773   */\n      0x04\n        /* \"#utility.yul\":1765:1780   */\n      mstore\n        /* \"#utility.yul\":1799:1803   */\n      0x24\n        /* \"#utility.yul\":1796:1797   */\n      0x00\n        /* \"#utility.yul\":1789:1804   */\n      revert\n        /* \"#utility.yul\":1816:2097   */\n    tag_108:\n        /* \"#utility.yul\":1899:1926   */\n      tag_148\n        /* \"#utility.yul\":1921:1925   */\n      dup3\n        /* \"#utility.yul\":1899:1926   */\n      tag_106\n      jump\t// in\n    tag_148:\n        /* \"#utility.yul\":1891:1897   */\n      dup2\n        /* \"#utility.yul\":1887:1927   */\n      add\n        /* \"#utility.yul\":2029:2035   */\n      dup2\n        /* \"#utility.yul\":2017:2027   */\n      dup2\n        /* \"#utility.yul\":2014:2036   */\n      lt\n        /* \"#utility.yul\":1993:2011   */\n      0xffffffffffffffff\n        /* \"#utility.yul\":1981:1991   */\n      dup3\n        /* \"#utility.yul\":1978:2012   */\n      gt\n        /* \"#utility.yul\":1975:2037   */\n      or\n        /* \"#utility.yul\":1972:2060   */\n      iszero\n      tag_149\n      jumpi\n        /* \"#utility.yul\":2040:2058   */\n      tag_150\n      tag_107\n      jump\t// in\n    tag_150:\n        /* \"#utility.yul\":1972:2060   */\n    tag_149:\n        /* \"#utility.yul\":2080:2090   */\n      dup1\n        /* \"#utility.yul\":2076:2078   */\n      0x40\n        /* \"#utility.yul\":2069:2091   */\n      mstore\n        /* \"#utility.yul\":1859:2097   */\n      pop\n        /* \"#utility.yul\":1816:2097   */\n      pop\n      pop\n      jump\t// out\n        /* \"#utility.yul\":2103:2232   */\n    tag_109:\n        /* \"#utility.yul\":2137:2143   */\n      0x00\n        /* \"#utility.yul\":2164:2184   */\n      tag_152\n      tag_97\n      jump\t// in\n    tag_152:\n        /* \"#utility.yul\":2154:2184   */\n      swap1\n      pop\n        /* \"#utility.yul\":2193:2226   */\n      tag_153\n        /* \"#utility.yul\":2221:2225   */\n      dup3\n        /* \"#utility.yul\":2213:2219   */\n      dup3\n        /* \"#utility.yul\":2193:2226   */\n      tag_108\n      jump\t// in\n    tag_153:\n        /* \"#utility.yul\":2103:2232   */\n      swap2\n      swap1\n      pop\n      jump\t// out\n        /* \"#utility.yul\":2238:2546   */\n    tag_110:\n        /* \"#utility.yul\":2300:2304   */\n      0x00\n        /* \"#utility.yul\":2390:2408   */\n      0xffffffffffffffff\n        /* \"#utility.yul\":2382:2388   */\n      dup3\n        /* \"#utility.yul\":2379:2409   */\n      gt\n        /* \"#utility.yul\":2376:2432   */\n      iszero\n      tag_155\n      jumpi\n        /* \"#utility.yul\":2412:2430   */\n      tag_156\n      tag_107\n      jump\t// in\n    tag_156:\n        /* \"#utility.yul\":2376:2432   */\n    tag_155:\n        /* \"#utility.yul\":2450:2479   */\n      tag_157\n        /* \"#utility.yul\":2472:2478   */\n      dup3\n        /* \"#utility.yul\":2450:2479   */\n      tag_106\n      jump\t// in\n    tag_157:\n        /* \"#utility.yul\":2442:2479   */\n      swap1\n      pop\n        /* \"#utility.yul\":2534:2538   */\n      0x20\n        /* \"#utility.yul\":2528:2532   */\n      dup2\n        /* \"#utility.yul\":2524:2539   */\n      add\n        /* \"#utility.yul\":2516:2539   */\n      swap1\n      pop\n        /* \"#utility.yul\":2238:2546   */\n      swap2\n      swap1\n      pop\n      jump\t// out\n        /* \"#utility.yul\":2552:2706   */\n    tag_111:\n        /* \"#utility.yul\":2636:2642   */\n      dup3\n        /* \"#utility.yul\":2631:2634   */\n      dup2\n        /* \"#utility.yul\":2626:2629   */\n      dup4\n        /* \"#utility.yul\":2613:2643   */\n      calldatacopy\n        /* \"#utility.yul\":2698:2699   */\n      0x00\n        /* \"#utility.yul\":2689:2695   */\n      dup4\n        /* \"#utility.yul\":2684:2687   */\n      dup4\n        /* \"#utility.yul\":2680:2696   */\n      add\n        /* \"#utility.yul\":2673:2700   */\n      mstore\n        /* \"#utility.yul\":2552:2706   */\n      pop\n      pop\n      pop\n      jump\t// out\n        /* \"#utility.yul\":2712:3124   */\n    tag_112:\n        /* \"#utility.yul\":2790:2795   */\n      0x00\n        /* \"#utility.yul\":2815:2881   */\n      tag_160\n        /* \"#utility.yul\":2831:2880   */\n      tag_161\n        /* \"#utility.yul\":2873:2879   */\n      dup5\n        /* \"#utility.yul\":2831:2880   */\n      tag_110\n      jump\t// in\n    tag_161:\n        /* \"#utility.yul\":2815:2881   */\n      tag_109\n      jump\t// in\n    tag_160:\n        /* \"#utility.yul\":2806:2881   */\n      swap1\n      pop\n        /* \"#utility.yul\":2904:2910   */\n      dup3\n        /* \"#utility.yul\":2897:2902   */\n      dup2\n        /* \"#utility.yul\":2890:2911   */\n      mstore\n        /* \"#utility.yul\":2942:2946   */\n      0x20\n        /* \"#utility.yul\":2935:2940   */\n      dup2\n        /* \"#utility.yul\":2931:2947   */\n      add\n        /* \"#utility.yul\":2980:2983   */\n      dup5\n        /* \"#utility.yul\":2971:2977   */\n      dup5\n        /* \"#utility.yul\":2966:2969   */\n      dup5\n        /* \"#utility.yul\":2962:2978   */\n      add\n        /* \"#utility.yul\":2959:2984   */\n      gt\n        /* \"#utility.yul\":2956:3068   */\n      iszero\n      tag_162\n      jumpi\n        /* \"#utility.yul\":2987:3066   */\n      tag_163\n      tag_105\n      jump\t// in\n    tag_163:\n        /* \"#utility.yul\":2956:3068   */\n    tag_162:\n        /* \"#utility.yul\":3077:3118   */\n      tag_164\n        /* \"#utility.yul\":3111:3117   */\n      dup5\n        /* \"#utility.yul\":3106:3109   */\n      dup3\n        /* \"#utility.yul\":3101:3104   */\n      dup6\n        /* \"#utility.yul\":3077:3118   */\n      tag_111\n      jump\t// in\n    tag_164:\n        /* \"#utility.yul\":2796:3124   */\n      pop\n        /* \"#utility.yul\":2712:3124   */\n      swap4\n      swap3\n      pop\n      pop\n      pop\n      jump\t// out\n        /* \"#utility.yul\":3144:3484   */\n    tag_113:\n        /* \"#utility.yul\":3200:3205   */\n      0x00\n        /* \"#utility.yul\":3249:3252   */\n      dup3\n        /* \"#utility.yul\":3242:3246   */\n      0x1f\n        /* \"#utility.yul\":3234:3240   */\n      dup4\n        /* \"#utility.yul\":3230:3247   */\n      add\n        /* \"#utility.yul\":3226:3253   */\n      slt\n        /* \"#utility.yul\":3216:3338   */\n      tag_166\n      jumpi\n        /* \"#utility.yul\":3257:3336   */\n      tag_167\n      tag_104\n      jump\t// in\n    tag_167:\n        /* \"#utility.yul\":3216:3338   */\n    tag_166:\n        /* \"#utility.yul\":3374:3380   */\n      dup2\n        /* \"#utility.yul\":3361:3381   */\n      calldataload\n        /* \"#utility.yul\":3399:3478   */\n      tag_168\n        /* \"#utility.yul\":3474:3477   */\n      dup5\n        /* \"#utility.yul\":3466:3472   */\n      dup3\n        /* \"#utility.yul\":3459:3463   */\n      0x20\n        /* \"#utility.yul\":3451:3457   */\n      dup7\n        /* \"#utility.yul\":3447:3464   */\n      add\n        /* \"#utility.yul\":3399:3478   */\n      tag_112\n      jump\t// in\n    tag_168:\n        /* \"#utility.yul\":3390:3478   */\n      swap2\n      pop\n        /* \"#utility.yul\":3206:3484   */\n      pop\n        /* \"#utility.yul\":3144:3484   */\n      swap3\n      swap2\n      pop\n      pop\n      jump\t// out\n        /* \"#utility.yul\":3490:4144   */\n    tag_19:\n        /* \"#utility.yul\":3568:3574   */\n      0x00\n        /* \"#utility.yul\":3576:3582   */\n      dup1\n        /* \"#utility.yul\":3625:3627   */\n      0x40\n        /* \"#utility.yul\":3613:3622   */\n      dup4\n        /* \"#utility.yul\":3604:3611   */\n      dup6\n        /* \"#utility.yul\":3600:3623   */\n      sub\n        /* \"#utility.yul\":3596:3628   */\n      slt\n        /* \"#utility.yul\":3593:3712   */\n      iszero\n      tag_170\n      jumpi\n        /* \"#utility.yul\":3631:3710   */\n      tag_171\n      tag_98\n      jump\t// in\n    tag_171:\n        /* \"#utility.yul\":3593:3712   */\n    tag_170:\n        /* \"#utility.yul\":3751:3752   */\n      0x00\n        /* \"#utility.yul\":3776:3829   */\n      tag_172\n        /* \"#utility.yul\":3821:3828   */\n      dup6\n        /* \"#utility.yul\":3812:3818   */\n      dup3\n        /* \"#utility.yul\":3801:3810   */\n      dup7\n        /* \"#utility.yul\":3797:3819   */\n      add\n        /* \"#utility.yul\":3776:3829   */\n      tag_103\n      jump\t// in\n    tag_172:\n        /* \"#utility.yul\":3766:3829   */\n      swap3\n      pop\n        /* \"#utility.yul\":3722:3839   */\n      pop\n        /* \"#utility.yul\":3906:3908   */\n      0x20\n        /* \"#utility.yul\":3895:3904   */\n      dup4\n        /* \"#utility.yul\":3891:3909   */\n      add\n        /* \"#utility.yul\":3878:3910   */\n      calldataload\n        /* \"#utility.yul\":3937:3955   */\n      0xffffffffffffffff\n        /* \"#utility.yul\":3929:3935   */\n      dup2\n        /* \"#utility.yul\":3926:3956   */\n      gt\n        /* \"#utility.yul\":3923:4040   */\n      iszero\n      tag_173\n      jumpi\n        /* \"#utility.yul\":3959:4038   */\n      tag_174\n      tag_99\n      jump\t// in\n    tag_174:\n        /* \"#utility.yul\":3923:4040   */\n    tag_173:\n        /* \"#utility.yul\":4064:4127   */\n      tag_175\n        /* \"#utility.yul\":4119:4126   */\n      dup6\n        /* \"#utility.yul\":4110:4116   */\n      dup3\n        /* \"#utility.yul\":4099:4108   */\n      dup7\n        /* \"#utility.yul\":4095:4117   */\n      add\n        /* \"#utility.yul\":4064:4127   */\n      tag_113\n      jump\t// in\n    tag_175:\n        /* \"#utility.yul\":4054:4127   */\n      swap2\n      pop\n        /* \"#utility.yul\":3849:4137   */\n      pop\n        /* \"#utility.yul\":3490:4144   */\n      swap3\n      pop\n      swap3\n      swap1\n      pop\n      jump\t// out\n        /* \"#utility.yul\":4150:4249   */\n    tag_114:\n        /* \"#utility.yul\":4202:4208   */\n      0x00\n        /* \"#utility.yul\":4236:4241   */\n      dup2\n        /* \"#utility.yul\":4230:4242   */\n      mload\n        /* \"#utility.yul\":4220:4242   */\n      swap1\n      pop\n        /* \"#utility.yul\":4150:4249   */\n      swap2\n      swap1\n      pop\n      jump\t// out\n        /* \"#utility.yul\":4255:4424   */\n    tag_115:\n        /* \"#utility.yul\":4339:4350   */\n      0x00\n        /* \"#utility.yul\":4373:4379   */\n      dup3\n        /* \"#utility.yul\":4368:4371   */\n      dup3\n        /* \"#utility.yul\":4361:4380   */\n      mstore\n        /* \"#utility.yul\":4413:4417   */\n      0x20\n        /* \"#utility.yul\":4408:4411   */\n      dup3\n        /* \"#utility.yul\":4404:4418   */\n      add\n        /* \"#utility.yul\":4389:4418   */\n      swap1\n      pop\n        /* \"#utility.yul\":4255:4424   */\n      swap3\n      swap2\n      pop\n      pop\n      jump\t// out\n        /* \"#utility.yul\":4430:4737   */\n    tag_116:\n        /* \"#utility.yul\":4498:4499   */\n      0x00\n        /* \"#utility.yul\":4508:4621   */\n    tag_179:\n        /* \"#utility.yul\":4522:4528   */\n      dup4\n        /* \"#utility.yul\":4519:4520   */\n      dup2\n        /* \"#utility.yul\":4516:4529   */\n      lt\n        /* \"#utility.yul\":4508:4621   */\n      iszero\n      tag_181\n      jumpi\n        /* \"#utility.yul\":4607:4608   */\n      dup1\n        /* \"#utility.yul\":4602:4605   */\n      dup3\n        /* \"#utility.yul\":4598:4609   */\n      add\n        /* \"#utility.yul\":4592:4610   */\n      mload\n        /* \"#utility.yul\":4588:4589   */\n      dup2\n        /* \"#utility.yul\":4583:4586   */\n      dup5\n        /* \"#utility.yul\":4579:4590   */\n      add\n        /* \"#utility.yul\":4572:4611   */\n      mstore\n        /* \"#utility.yul\":4544:4546   */\n      0x20\n        /* \"#utility.yul\":4541:4542   */\n      dup2\n        /* \"#utility.yul\":4537:4547   */\n      add\n        /* \"#utility.yul\":4532:4547   */\n      swap1\n      pop\n        /* \"#utility.yul\":4508:4621   */\n      jump(tag_179)\n    tag_181:\n        /* \"#utility.yul\":4639:4645   */\n      dup4\n        /* \"#utility.yul\":4636:4637   */\n      dup2\n        /* \"#utility.yul\":4633:4646   */\n      gt\n        /* \"#utility.yul\":4630:4731   */\n      iszero\n      tag_182\n      jumpi\n        /* \"#utility.yul\":4719:4720   */\n      0x00\n        /* \"#utility.yul\":4710:4716   */\n      dup5\n        /* \"#utility.yul\":4705:4708   */\n      dup5\n        /* \"#utility.yul\":4701:4717   */\n      add\n        /* \"#utility.yul\":4694:4721   */\n      mstore\n        /* \"#utility.yul\":4630:4731   */\n    tag_182:\n        /* \"#utility.yul\":4479:4737   */\n      pop\n        /* \"#utility.yul\":4430:4737   */\n      pop\n      pop\n      pop\n      jump\t// out\n        /* \"#utility.yul\":4743:5107   */\n    tag_117:\n        /* \"#utility.yul\":4831:4834   */\n      0x00\n        /* \"#utility.yul\":4859:4898   */\n      tag_184\n        /* \"#utility.yul\":4892:4897   */\n      dup3\n        /* \"#utility.yul\":4859:4898   */\n      tag_114\n      jump\t// in\n    tag_184:\n        /* \"#utility.yul\":4914:4985   */\n      tag_185\n        /* \"#utility.yul\":4978:4984   */\n      dup2\n        /* \"#utility.yul\":4973:4976   */\n      dup6\n        /* \"#utility.yul\":4914:4985   */\n      tag_115\n      jump\t// in\n    tag_185:\n        /* \"#utility.yul\":4907:4985   */\n      swap4\n      pop\n        /* \"#utility.yul\":4994:5046   */\n      tag_186\n        /* \"#utility.yul\":5039:5045   */\n      dup2\n        /* \"#utility.yul\":5034:5037   */\n      dup6\n        /* \"#utility.yul\":5027:5031   */\n      0x20\n        /* \"#utility.yul\":5020:5025   */\n      dup7\n        /* \"#utility.yul\":5016:5032   */\n      add\n        /* \"#utility.yul\":4994:5046   */\n      tag_116\n      jump\t// in\n    tag_186:\n        /* \"#utility.yul\":5071:5100   */\n      tag_187\n        /* \"#utility.yul\":5093:5099   */\n      dup2\n        /* \"#utility.yul\":5071:5100   */\n      tag_106\n      jump\t// in\n    tag_187:\n        /* \"#utility.yul\":5066:5069   */\n      dup5\n        /* \"#utility.yul\":5062:5101   */\n      add\n        /* \"#utility.yul\":5055:5101   */\n      swap2\n      pop\n        /* \"#utility.yul\":4835:5107   */\n      pop\n        /* \"#utility.yul\":4743:5107   */\n      swap3\n      swap2\n      pop\n      pop\n      jump\t// out\n        /* \"#utility.yul\":5113:5426   */\n    tag_24:\n        /* \"#utility.yul\":5226:5230   */\n      0x00\n        /* \"#utility.yul\":5264:5266   */\n      0x20\n        /* \"#utility.yul\":5253:5262   */\n      dup3\n        /* \"#utility.yul\":5249:5267   */\n      add\n        /* \"#utility.yul\":5241:5267   */\n      swap1\n      pop\n        /* \"#utility.yul\":5313:5322   */\n      dup2\n        /* \"#utility.yul\":5307:5311   */\n      dup2\n        /* \"#utility.yul\":5303:5323   */\n      sub\n        /* \"#utility.yul\":5299:5300   */\n      0x00\n        /* \"#utility.yul\":5288:5297   */\n      dup4\n        /* \"#utility.yul\":5284:5301   */\n      add\n        /* \"#utility.yul\":5277:5324   */\n      mstore\n        /* \"#utility.yul\":5341:5419   */\n      tag_189\n        /* \"#utility.yul\":5414:5418   */\n      dup2\n        /* \"#utility.yul\":5405:5411   */\n      dup5\n        /* \"#utility.yul\":5341:5419   */\n      tag_117\n      jump\t// in\n    tag_189:\n        /* \"#utility.yul\":5333:5419   */\n      swap1\n      pop\n        /* \"#utility.yul\":5113:5426   */\n      swap3\n      swap2\n      pop\n      pop\n      jump\t// out\n        /* \"#utility.yul\":5432:5761   */\n    tag_30:\n        /* \"#utility.yul\":5491:5497   */\n      0x00\n        /* \"#utility.yul\":5540:5542   */\n      0x20\n        /* \"#utility.yul\":5528:5537   */\n      dup3\n        /* \"#utility.yul\":5519:5526   */\n      dup5\n        /* \"#utility.yul\":5515:5538   */\n      sub\n        /* \"#utility.yul\":5511:5543   */\n      slt\n        /* \"#utility.yul\":5508:5627   */\n      iszero\n      tag_191\n      jumpi\n        /* \"#utility.yul\":5546:5625   */\n      tag_192\n      tag_98\n      jump\t// in\n    tag_192:\n        /* \"#utility.yul\":5508:5627   */\n    tag_191:\n        /* \"#utility.yul\":5666:5667   */\n      0x00\n        /* \"#utility.yul\":5691:5744   */\n      tag_193\n        /* \"#utility.yul\":5736:5743   */\n      dup5\n        /* \"#utility.yul\":5727:5733   */\n      dup3\n        /* \"#utility.yul\":5716:5725   */\n      dup6\n        /* \"#utility.yul\":5712:5734   */\n      add\n        /* \"#utility.yul\":5691:5744   */\n      tag_103\n      jump\t// in\n    tag_193:\n        /* \"#utility.yul\":5681:5744   */\n      swap2\n      pop\n        /* \"#utility.yul\":5637:5754   */\n      pop\n        /* \"#utility.yul\":5432:5761   */\n      swap3\n      swap2\n      pop\n      pop\n      jump\t// out\n        /* \"#utility.yul\":5767:5889   */\n    tag_118:\n        /* \"#utility.yul\":5840:5864   */\n      tag_195\n        /* \"#utility.yul\":5858:5863   */\n      dup2\n        /* \"#utility.yul\":5840:5864   */\n      tag_95\n      jump\t// in\n    tag_195:\n        /* \"#utility.yul\":5833:5838   */\n      dup2\n        /* \"#utility.yul\":5830:5865   */\n      eq\n        /* \"#utility.yul\":5820:5883   */\n      tag_196\n      jumpi\n        /* \"#utility.yul\":5879:5880   */\n      0x00\n        /* \"#utility.yul\":5876:5877   */\n      dup1\n        /* \"#utility.yul\":5869:5881   */\n      revert\n        /* \"#utility.yul\":5820:5883   */\n    tag_196:\n        /* \"#utility.yul\":5767:5889   */\n      pop\n      jump\t// out\n        /* \"#utility.yul\":5895:6034   */\n    tag_119:\n        /* \"#utility.yul\":5941:5946   */\n      0x00\n        /* \"#utility.yul\":5979:5985   */\n      dup2\n        /* \"#utility.yul\":5966:5986   */\n      calldataload\n        /* \"#utility.yul\":5957:5986   */\n      swap1\n      pop\n        /* \"#utility.yul\":5995:6028   */\n      tag_198\n        /* \"#utility.yul\":6022:6027   */\n      dup2\n        /* \"#utility.yul\":5995:6028   */\n      tag_118\n      jump\t// in\n    tag_198:\n        /* \"#utility.yul\":5895:6034   */\n      swap3\n      swap2\n      pop\n      pop\n      jump\t// out\n        /* \"#utility.yul\":6040:6369   */\n    tag_35:\n        /* \"#utility.yul\":6099:6105   */\n      0x00\n        /* \"#utility.yul\":6148:6150   */\n      0x20\n        /* \"#utility.yul\":6136:6145   */\n      dup3\n        /* \"#utility.yul\":6127:6134   */\n      dup5\n        /* \"#utility.yul\":6123:6146   */\n      sub\n        /* \"#utility.yul\":6119:6151   */\n      slt\n        /* \"#utility.yul\":6116:6235   */\n      iszero\n      tag_200\n      jumpi\n        /* \"#utility.yul\":6154:6233   */\n      tag_201\n      tag_98\n      jump\t// in\n    tag_201:\n        /* \"#utility.yul\":6116:6235   */\n    tag_200:\n        /* \"#utility.yul\":6274:6275   */\n      0x00\n        /* \"#utility.yul\":6299:6352   */\n      tag_202\n        /* \"#utility.yul\":6344:6351   */\n      dup5\n        /* \"#utility.yul\":6335:6341   */\n      dup3\n        /* \"#utility.yul\":6324:6333   */\n      dup6\n        /* \"#utility.yul\":6320:6342   */\n      add\n        /* \"#utility.yul\":6299:6352   */\n      tag_119\n      jump\t// in\n    tag_202:\n        /* \"#utility.yul\":6289:6352   */\n      swap2\n      pop\n        /* \"#utility.yul\":6245:6362   */\n      pop\n        /* \"#utility.yul\":6040:6369   */\n      swap3\n      swap2\n      pop\n      pop\n      jump\t// out\n        /* \"#utility.yul\":6375:6493   */\n    tag_120:\n        /* \"#utility.yul\":6462:6486   */\n      tag_204\n        /* \"#utility.yul\":6480:6485   */\n      dup2\n        /* \"#utility.yul\":6462:6486   */\n      tag_101\n      jump\t// in\n    tag_204:\n        /* \"#utility.yul\":6457:6460   */\n      dup3\n        /* \"#utility.yul\":6450:6487   */\n      mstore\n        /* \"#utility.yul\":6375:6493   */\n      pop\n      pop\n      jump\t// out\n        /* \"#utility.yul\":6499:6721   */\n    tag_38:\n        /* \"#utility.yul\":6592:6596   */\n      0x00\n        /* \"#utility.yul\":6630:6632   */\n      0x20\n        /* \"#utility.yul\":6619:6628   */\n      dup3\n        /* \"#utility.yul\":6615:6633   */\n      add\n        /* \"#utility.yul\":6607:6633   */\n      swap1\n      pop\n        /* \"#utility.yul\":6643:6714   */\n      tag_206\n        /* \"#utility.yul\":6711:6712   */\n      0x00\n        /* \"#utility.yul\":6700:6709   */\n      dup4\n        /* \"#utility.yul\":6696:6713   */\n      add\n        /* \"#utility.yul\":6687:6693   */\n      dup5\n        /* \"#utility.yul\":6643:6714   */\n      tag_120\n      jump\t// in\n    tag_206:\n        /* \"#utility.yul\":6499:6721   */\n      swap3\n      swap2\n      pop\n      pop\n      jump\t// out\n        /* \"#utility.yul\":6727:7526   */\n    tag_44:\n        /* \"#utility.yul\":6814:6820   */\n      0x00\n        /* \"#utility.yul\":6822:6828   */\n      dup1\n        /* \"#utility.yul\":6830:6836   */\n      0x00\n        /* \"#utility.yul\":6879:6881   */\n      0x60\n        /* \"#utility.yul\":6867:6876   */\n      dup5\n        /* \"#utility.yul\":6858:6865   */\n      dup7\n        /* \"#utility.yul\":6854:6877   */\n      sub\n        /* \"#utility.yul\":6850:6882   */\n      slt\n        /* \"#utility.yul\":6847:6966   */\n      iszero\n      tag_208\n      jumpi\n        /* \"#utility.yul\":6885:6964   */\n      tag_209\n      tag_98\n      jump\t// in\n    tag_209:\n        /* \"#utility.yul\":6847:6966   */\n    tag_208:\n        /* \"#utility.yul\":7033:7034   */\n      0x00\n        /* \"#utility.yul\":7022:7031   */\n      dup5\n        /* \"#utility.yul\":7018:7035   */\n      add\n        /* \"#utility.yul\":7005:7036   */\n      calldataload\n        /* \"#utility.yul\":7063:7081   */\n      0xffffffffffffffff\n        /* \"#utility.yul\":7055:7061   */\n      dup2\n        /* \"#utility.yul\":7052:7082   */\n      gt\n        /* \"#utility.yul\":7049:7166   */\n      iszero\n      tag_210\n      jumpi\n        /* \"#utility.yul\":7085:7164   */\n      tag_211\n      tag_99\n      jump\t// in\n    tag_211:\n        /* \"#utility.yul\":7049:7166   */\n    tag_210:\n        /* \"#utility.yul\":7190:7253   */\n      tag_212\n        /* \"#utility.yul\":7245:7252   */\n      dup7\n        /* \"#utility.yul\":7236:7242   */\n      dup3\n        /* \"#utility.yul\":7225:7234   */\n      dup8\n        /* \"#utility.yul\":7221:7243   */\n      add\n        /* \"#utility.yul\":7190:7253   */\n      tag_113\n      jump\t// in\n    tag_212:\n        /* \"#utility.yul\":7180:7253   */\n      swap4\n      pop\n        /* \"#utility.yul\":6976:7263   */\n      pop\n        /* \"#utility.yul\":7302:7304   */\n      0x20\n        /* \"#utility.yul\":7328:7381   */\n      tag_213\n        /* \"#utility.yul\":7373:7380   */\n      dup7\n        /* \"#utility.yul\":7364:7370   */\n      dup3\n        /* \"#utility.yul\":7353:7362   */\n      dup8\n        /* \"#utility.yul\":7349:7371   */\n      add\n        /* \"#utility.yul\":7328:7381   */\n      tag_119\n      jump\t// in\n    tag_213:\n        /* \"#utility.yul\":7318:7381   */\n      swap3\n      pop\n        /* \"#utility.yul\":7273:7391   */\n      pop\n        /* \"#utility.yul\":7430:7432   */\n      0x40\n        /* \"#utility.yul\":7456:7509   */\n      tag_214\n        /* \"#utility.yul\":7501:7508   */\n      dup7\n        /* \"#utility.yul\":7492:7498   */\n      dup3\n        /* \"#utility.yul\":7481:7490   */\n      dup8\n        /* \"#utility.yul\":7477:7499   */\n      add\n        /* \"#utility.yul\":7456:7509   */\n      tag_119\n      jump\t// in\n    tag_214:\n        /* \"#utility.yul\":7446:7509   */\n      swap2\n      pop\n        /* \"#utility.yul\":7401:7519   */\n      pop\n        /* \"#utility.yul\":6727:7526   */\n      swap3\n      pop\n      swap3\n      pop\n      swap3\n      jump\t// out\n        /* \"#utility.yul\":7532:7768   */\n    tag_121:\n        /* \"#utility.yul\":7672:7706   */\n      0x41756374696f6e656572206973206e6f7420616c6c6f77656420746f20726567\n        /* \"#utility.yul\":7668:7669   */\n      0x00\n        /* \"#utility.yul\":7660:7666   */\n      dup3\n        /* \"#utility.yul\":7656:7670   */\n      add\n        /* \"#utility.yul\":7649:7707   */\n      mstore\n        /* \"#utility.yul\":7741:7760   */\n      0x6973746572206173206120626964646572000000000000000000000000000000\n        /* \"#utility.yul\":7736:7738   */\n      0x20\n        /* \"#utility.yul\":7728:7734   */\n      dup3\n        /* \"#utility.yul\":7724:7739   */\n      add\n        /* \"#utility.yul\":7717:7761   */\n      mstore\n        /* \"#utility.yul\":7532:7768   */\n      pop\n      jump\t// out\n        /* \"#utility.yul\":7774:8140   */\n    tag_122:\n        /* \"#utility.yul\":7916:7919   */\n      0x00\n        /* \"#utility.yul\":7937:8004   */\n      tag_217\n        /* \"#utility.yul\":8001:8003   */\n      0x31\n        /* \"#utility.yul\":7996:7999   */\n      dup4\n        /* \"#utility.yul\":7937:8004   */\n      tag_115\n      jump\t// in\n    tag_217:\n        /* \"#utility.yul\":7930:8004   */\n      swap2\n      pop\n        /* \"#utility.yul\":8013:8106   */\n      tag_218\n        /* \"#utility.yul\":8102:8105   */\n      dup3\n        /* \"#utility.yul\":8013:8106   */\n      tag_121\n      jump\t// in\n    tag_218:\n        /* \"#utility.yul\":8131:8133   */\n      0x40\n        /* \"#utility.yul\":8126:8129   */\n      dup3\n        /* \"#utility.yul\":8122:8134   */\n      add\n        /* \"#utility.yul\":8115:8134   */\n      swap1\n      pop\n        /* \"#utility.yul\":7774:8140   */\n      swap2\n      swap1\n      pop\n      jump\t// out\n        /* \"#utility.yul\":8146:8565   */\n    tag_54:\n        /* \"#utility.yul\":8312:8316   */\n      0x00\n        /* \"#utility.yul\":8350:8352   */\n      0x20\n        /* \"#utility.yul\":8339:8348   */\n      dup3\n        /* \"#utility.yul\":8335:8353   */\n      add\n        /* \"#utility.yul\":8327:8353   */\n      swap1\n      pop\n        /* \"#utility.yul\":8399:8408   */\n      dup2\n        /* \"#utility.yul\":8393:8397   */\n      dup2\n        /* \"#utility.yul\":8389:8409   */\n      sub\n        /* \"#utility.yul\":8385:8386   */\n      0x00\n        /* \"#utility.yul\":8374:8383   */\n      dup4\n        /* \"#utility.yul\":8370:8387   */\n      add\n        /* \"#utility.yul\":8363:8410   */\n      mstore\n        /* \"#utility.yul\":8427:8558   */\n      tag_220\n        /* \"#utility.yul\":8553:8557   */\n      dup2\n        /* \"#utility.yul\":8427:8558   */\n      tag_122\n      jump\t// in\n    tag_220:\n        /* \"#utility.yul\":8419:8558   */\n      swap1\n      pop\n        /* \"#utility.yul\":8146:8565   */\n      swap2\n      swap1\n      pop\n      jump\t// out\n        /* \"#utility.yul\":8571:8751   */\n    tag_123:\n        /* \"#utility.yul\":8619:8696   */\n      0x4e487b7100000000000000000000000000000000000000000000000000000000\n        /* \"#utility.yul\":8616:8617   */\n      0x00\n        /* \"#utility.yul\":8609:8697   */\n      mstore\n        /* \"#utility.yul\":8716:8720   */\n      0x22\n        /* \"#utility.yul\":8713:8714   */\n      0x04\n        /* \"#utility.yul\":8706:8721   */\n      mstore\n        /* \"#utility.yul\":8740:8744   */\n      0x24\n        /* \"#utility.yul\":8737:8738   */\n      0x00\n        /* \"#utility.yul\":8730:8745   */\n      revert\n        /* \"#utility.yul\":8757:9077   */\n    tag_57:\n        /* \"#utility.yul\":8801:8807   */\n      0x00\n        /* \"#utility.yul\":8838:8839   */\n      0x02\n        /* \"#utility.yul\":8832:8836   */\n      dup3\n        /* \"#utility.yul\":8828:8840   */\n      div\n        /* \"#utility.yul\":8818:8840   */\n      swap1\n      pop\n        /* \"#utility.yul\":8885:8886   */\n      0x01\n        /* \"#utility.yul\":8879:8883   */\n      dup3\n        /* \"#utility.yul\":8875:8887   */\n      and\n        /* \"#utility.yul\":8906:8924   */\n      dup1\n        /* \"#utility.yul\":8896:8977   */\n      tag_223\n      jumpi\n        /* \"#utility.yul\":8962:8966   */\n      0x7f\n        /* \"#utility.yul\":8954:8960   */\n      dup3\n        /* \"#utility.yul\":8950:8967   */\n      and\n        /* \"#utility.yul\":8940:8967   */\n      swap2\n      pop\n        /* \"#utility.yul\":8896:8977   */\n    tag_223:\n        /* \"#utility.yul\":9024:9026   */\n      0x20\n        /* \"#utility.yul\":9016:9022   */\n      dup3\n        /* \"#utility.yul\":9013:9027   */\n      lt\n        /* \"#utility.yul\":8993:9011   */\n      dup2\n        /* \"#utility.yul\":8990:9028   */\n      sub\n        /* \"#utility.yul\":8987:9071   */\n      tag_224\n      jumpi\n        /* \"#utility.yul\":9043:9061   */\n      tag_225\n      tag_123\n      jump\t// in\n    tag_225:\n        /* \"#utility.yul\":8987:9071   */\n    tag_224:\n        /* \"#utility.yul\":8808:9077   */\n      pop\n        /* \"#utility.yul\":8757:9077   */\n      swap2\n      swap1\n      pop\n      jump\t// out\n        /* \"#utility.yul\":9083:9309   */\n    tag_124:\n        /* \"#utility.yul\":9223:9257   */\n      0x4f6e6c792061756374696f6e6565722063616e2063616c6c2074686973206675\n        /* \"#utility.yul\":9219:9220   */\n      0x00\n        /* \"#utility.yul\":9211:9217   */\n      dup3\n        /* \"#utility.yul\":9207:9221   */\n      add\n        /* \"#utility.yul\":9200:9258   */\n      mstore\n        /* \"#utility.yul\":9292:9301   */\n      0x6e6374696f6e2e00000000000000000000000000000000000000000000000000\n        /* \"#utility.yul\":9287:9289   */\n      0x20\n        /* \"#utility.yul\":9279:9285   */\n      dup3\n        /* \"#utility.yul\":9275:9290   */\n      add\n        /* \"#utility.yul\":9268:9302   */\n      mstore\n        /* \"#utility.yul\":9083:9309   */\n      pop\n      jump\t// out\n        /* \"#utility.yul\":9315:9681   */\n    tag_125:\n        /* \"#utility.yul\":9457:9460   */\n      0x00\n        /* \"#utility.yul\":9478:9545   */\n      tag_228\n        /* \"#utility.yul\":9542:9544   */\n      0x27\n        /* \"#utility.yul\":9537:9540   */\n      dup4\n        /* \"#utility.yul\":9478:9545   */\n      tag_115\n      jump\t// in\n    tag_228:\n        /* \"#utility.yul\":9471:9545   */\n      swap2\n      pop\n        /* \"#utility.yul\":9554:9647   */\n      tag_229\n        /* \"#utility.yul\":9643:9646   */\n      dup3\n        /* \"#utility.yul\":9554:9647   */\n      tag_124\n      jump\t// in\n    tag_229:\n        /* \"#utility.yul\":9672:9674   */\n      0x40\n        /* \"#utility.yul\":9667:9670   */\n      dup3\n        /* \"#utility.yul\":9663:9675   */\n      add\n        /* \"#utility.yul\":9656:9675   */\n      swap1\n      pop\n        /* \"#utility.yul\":9315:9681   */\n      swap2\n      swap1\n      pop\n      jump\t// out\n        /* \"#utility.yul\":9687:10106   */\n    tag_77:\n        /* \"#utility.yul\":9853:9857   */\n      0x00\n        /* \"#utility.yul\":9891:9893   */\n      0x20\n        /* \"#utility.yul\":9880:9889   */\n      dup3\n        /* \"#utility.yul\":9876:9894   */\n      add\n        /* \"#utility.yul\":9868:9894   */\n      swap1\n      pop\n        /* \"#utility.yul\":9940:9949   */\n      dup2\n        /* \"#utility.yul\":9934:9938   */\n      dup2\n        /* \"#utility.yul\":9930:9950   */\n      sub\n        /* \"#utility.yul\":9926:9927   */\n      0x00\n        /* \"#utility.yul\":9915:9924   */\n      dup4\n        /* \"#utility.yul\":9911:9928   */\n      add\n        /* \"#utility.yul\":9904:9951   */\n      mstore\n        /* \"#utility.yul\":9968:10099   */\n      tag_231\n        /* \"#utility.yul\":10094:10098   */\n      dup2\n        /* \"#utility.yul\":9968:10099   */\n      tag_125\n      jump\t// in\n    tag_231:\n        /* \"#utility.yul\":9960:10099   */\n      swap1\n      pop\n        /* \"#utility.yul\":9687:10106   */\n      swap2\n      swap1\n      pop\n      jump\t// out\n\n    auxdata: 0xa26469706673582212202e4346b58c9c1bb66a049714a7b3e8a83d0778634e1fdb3c3cbc586ae04594f664736f6c634300080e0033\n}\n",
				"bytecode": {
					"linkReferences": {},
					"object": "608060405234801561001057600080fd5b50336000806101000a81548173ffffffffffffffffffffffffffffffffffffffff021916908373ffffffffffffffffffffffffffffffffffffffff160217905550610cf9806100606000396000f3fe608060405234801561001057600080fd5b50600436106100935760003560e01c8063a3d6f9a911610066578063a3d6f9a91461010e578063cff29dfd1461013e578063daa0218f1461016e578063e7d2a9971461018c578063f356733c146101a857610093565b806334eb86a2146100985780637d441a6f146100b657806386b8c34c146100d2578063938626c2146100f0575b600080fd5b6100a06101b2565b6040516100ad9190610747565b60405180910390f35b6100d060048036038101906100cb919061091a565b6101b8565b005b6100da610210565b6040516100e791906109fe565b60405180910390f35b6100f861036d565b60405161010591906109fe565b60405180910390f35b61012860048036038101906101239190610a20565b6103fb565b60405161013591906109fe565b60405180910390f35b61015860048036038101906101539190610a79565b61049b565b6040516101659190610ab5565b60405180910390f35b6101766104da565b6040516101839190610747565b60405180910390f35b6101a660048036038101906101a19190610ad0565b6104e0565b005b6101b0610598565b005b60035481565b80600560008473ffffffffffffffffffffffffffffffffffffffff1673ffffffffffffffffffffffffffffffffffffffff168152602001908152602001600020908051906020019061020b92919061068b565b505050565b606060008054906101000a900473ffffffffffffffffffffffffffffffffffffffff1673ffffffffffffffffffffffffffffffffffffffff163373ffffffffffffffffffffffffffffffffffffffff16036102a0576040517f08c379a000000000000000000000000000000000000000000000000000000000815260040161029790610bb1565b60405180910390fd5b600560003373ffffffffffffffffffffffffffffffffffffffff1673ffffffffffffffffffffffffffffffffffffffff16815260200190815260200160002080546102ea90610c00565b80601f016020809104026020016040519081016040528092919081815260200182805461031690610c00565b80156103635780601f1061033857610100808354040283529160200191610363565b820191906000526020600020905b81548152906001019060200180831161034657829003601f168201915b5050505050905090565b6002805461037a90610c00565b80601f01602080910402602001604051908101604052809291908181526020018280546103a690610c00565b80156103f35780601f106103c8576101008083540402835291602001916103f3565b820191906000526020600020905b8154815290600101906020018083116103d657829003601f168201915b505050505081565b6005602052806000526040600020600091509050805461041a90610c00565b80601f016020809104026020016040519081016040528092919081815260200182805461044690610c00565b80156104935780601f1061046857610100808354040283529160200191610493565b820191906000526020600020905b81548152906001019060200180831161047657829003601f168201915b505050505081565b600181815481106104ab57600080fd5b906000526020600020016000915054906101000a900473ffffffffffffffffffffffffffffffffffffffff1681565b60045481565b60008054906101000a900473ffffffffffffffffffffffffffffffffffffffff1673ffffffffffffffffffffffffffffffffffffffff163373ffffffffffffffffffffffffffffffffffffffff161461056e576040517f08c379a000000000000000000000000000000000000000000000000000000000815260040161056590610ca3565b60405180910390fd5b826002908051906020019061058492919061068b565b508160038190555080600481905550505050565b60008054906101000a900473ffffffffffffffffffffffffffffffffffffffff1673ffffffffffffffffffffffffffffffffffffffff163373ffffffffffffffffffffffffffffffffffffffff1603610626576040517f08c379a000000000000000000000000000000000000000000000000000000000815260040161061d90610bb1565b60405180910390fd5b6001339080600181540180825580915050600190039060005260206000200160009091909190916101000a81548173ffffffffffffffffffffffffffffffffffffffff021916908373ffffffffffffffffffffffffffffffffffffffff160217905550565b82805461069790610c00565b90600052602060002090601f0160209004810192826106b95760008555610700565b82601f106106d257805160ff1916838001178555610700565b82800160010185558215610700579182015b828111156106ff5782518255916020019190600101906106e4565b5b50905061070d9190610711565b5090565b5b8082111561072a576000816000905550600101610712565b5090565b6000819050919050565b6107418161072e565b82525050565b600060208201905061075c6000830184610738565b92915050565b6000604051905090565b600080fd5b600080fd5b600073ffffffffffffffffffffffffffffffffffffffff82169050919050565b60006107a182610776565b9050919050565b6107b181610796565b81146107bc57600080fd5b50565b6000813590506107ce816107a8565b92915050565b600080fd5b600080fd5b6000601f19601f8301169050919050565b7f4e487b7100000000000000000000000000000000000000000000000000000000600052604160045260246000fd5b610827826107de565b810181811067ffffffffffffffff82111715610846576108456107ef565b5b80604052505050565b6000610859610762565b9050610865828261081e565b919050565b600067ffffffffffffffff821115610885576108846107ef565b5b61088e826107de565b9050602081019050919050565b82818337600083830152505050565b60006108bd6108b88461086a565b61084f565b9050828152602081018484840111156108d9576108d86107d9565b5b6108e484828561089b565b509392505050565b600082601f830112610901576109006107d4565b5b81356109118482602086016108aa565b91505092915050565b600080604083850312156109315761093061076c565b5b600061093f858286016107bf565b925050602083013567ffffffffffffffff8111156109605761095f610771565b5b61096c858286016108ec565b9150509250929050565b600081519050919050565b600082825260208201905092915050565b60005b838110156109b0578082015181840152602081019050610995565b838111156109bf576000848401525b50505050565b60006109d082610976565b6109da8185610981565b93506109ea818560208601610992565b6109f3816107de565b840191505092915050565b60006020820190508181036000830152610a1881846109c5565b905092915050565b600060208284031215610a3657610a3561076c565b5b6000610a44848285016107bf565b91505092915050565b610a568161072e565b8114610a6157600080fd5b50565b600081359050610a7381610a4d565b92915050565b600060208284031215610a8f57610a8e61076c565b5b6000610a9d84828501610a64565b91505092915050565b610aaf81610796565b82525050565b6000602082019050610aca6000830184610aa6565b92915050565b600080600060608486031215610ae957610ae861076c565b5b600084013567ffffffffffffffff811115610b0757610b06610771565b5b610b13868287016108ec565b9350506020610b2486828701610a64565b9250506040610b3586828701610a64565b9150509250925092565b7f41756374696f6e656572206973206e6f7420616c6c6f77656420746f2072656760008201527f6973746572206173206120626964646572000000000000000000000000000000602082015250565b6000610b9b603183610981565b9150610ba682610b3f565b604082019050919050565b60006020820190508181036000830152610bca81610b8e565b9050919050565b7f4e487b7100000000000000000000000000000000000000000000000000000000600052602260045260246000fd5b60006002820490506001821680610c1857607f821691505b602082108103610c2b57610c2a610bd1565b5b50919050565b7f4f6e6c792061756374696f6e6565722063616e2063616c6c207468697320667560008201527f6e6374696f6e2e00000000000000000000000000000000000000000000000000602082015250565b6000610c8d602783610981565b9150610c9882610c31565b604082019050919050565b60006020820190508181036000830152610cbc81610c80565b905091905056fea26469706673582212202e4346b58c9c1bb66a049714a7b3e8a83d0778634e1fdb3c3cbc586ae04594f664736f6c634300080e0033",
					"opcodes": "PUSH1 0x80 PUSH1 0x40 MSTORE CALLVALUE DUP1 ISZERO PUSH2 0x10 JUMPI PUSH1 0x0 DUP1 REVERT JUMPDEST POP CALLER PUSH1 0x0 DUP1 PUSH2 0x100 EXP DUP2 SLOAD DUP2 PUSH20 0xFFFFFFFFFFFFFFFFFFFFFFFFFFFFFFFFFFFFFFFF MUL NOT AND SWAP1 DUP4 PUSH20 0xFFFFFFFFFFFFFFFFFFFFFFFFFFFFFFFFFFFFFFFF AND MUL OR SWAP1 SSTORE POP PUSH2 0xCF9 DUP1 PUSH2 0x60 PUSH1 0x0 CODECOPY PUSH1 0x0 RETURN INVALID PUSH1 0x80 PUSH1 0x40 MSTORE CALLVALUE DUP1 ISZERO PUSH2 0x10 JUMPI PUSH1 0x0 DUP1 REVERT JUMPDEST POP PUSH1 0x4 CALLDATASIZE LT PUSH2 0x93 JUMPI PUSH1 0x0 CALLDATALOAD PUSH1 0xE0 SHR DUP1 PUSH4 0xA3D6F9A9 GT PUSH2 0x66 JUMPI DUP1 PUSH4 0xA3D6F9A9 EQ PUSH2 0x10E JUMPI DUP1 PUSH4 0xCFF29DFD EQ PUSH2 0x13E JUMPI DUP1 PUSH4 0xDAA0218F EQ PUSH2 0x16E JUMPI DUP1 PUSH4 0xE7D2A997 EQ PUSH2 0x18C JUMPI DUP1 PUSH4 0xF356733C EQ PUSH2 0x1A8 JUMPI PUSH2 0x93 JUMP JUMPDEST DUP1 PUSH4 0x34EB86A2 EQ PUSH2 0x98 JUMPI DUP1 PUSH4 0x7D441A6F EQ PUSH2 0xB6 JUMPI DUP1 PUSH4 0x86B8C34C EQ PUSH2 0xD2 JUMPI DUP1 PUSH4 0x938626C2 EQ PUSH2 0xF0 JUMPI JUMPDEST PUSH1 0x0 DUP1 REVERT JUMPDEST PUSH2 0xA0 PUSH2 0x1B2 JUMP JUMPDEST PUSH1 0x40 MLOAD PUSH2 0xAD SWAP2 SWAP1 PUSH2 0x747 JUMP JUMPDEST PUSH1 0x40 MLOAD DUP1 SWAP2 SUB SWAP1 RETURN JUMPDEST PUSH2 0xD0 PUSH1 0x4 DUP1 CALLDATASIZE SUB DUP2 ADD SWAP1 PUSH2 0xCB SWAP2 SWAP1 PUSH2 0x91A JUMP JUMPDEST PUSH2 0x1B8 JUMP JUMPDEST STOP JUMPDEST PUSH2 0xDA PUSH2 0x210 JUMP JUMPDEST PUSH1 0x40 MLOAD PUSH2 0xE7 SWAP2 SWAP1 PUSH2 0x9FE JUMP JUMPDEST PUSH1 0x40 MLOAD DUP1 SWAP2 SUB SWAP1 RETURN JUMPDEST PUSH2 0xF8 PUSH2 0x36D JUMP JUMPDEST PUSH1 0x40 MLOAD PUSH2 0x105 SWAP2 SWAP1 PUSH2 0x9FE JUMP JUMPDEST PUSH1 0x40 MLOAD DUP1 SWAP2 SUB SWAP1 RETURN JUMPDEST PUSH2 0x128 PUSH1 0x4 DUP1 CALLDATASIZE SUB DUP2 ADD SWAP1 PUSH2 0x123 SWAP2 SWAP1 PUSH2 0xA20 JUMP JUMPDEST PUSH2 0x3FB JUMP JUMPDEST PUSH1 0x40 MLOAD PUSH2 0x135 SWAP2 SWAP1 PUSH2 0x9FE JUMP JUMPDEST PUSH1 0x40 MLOAD DUP1 SWAP2 SUB SWAP1 RETURN JUMPDEST PUSH2 0x158 PUSH1 0x4 DUP1 CALLDATASIZE SUB DUP2 ADD SWAP1 PUSH2 0x153 SWAP2 SWAP1 PUSH2 0xA79 JUMP JUMPDEST PUSH2 0x49B JUMP JUMPDEST PUSH1 0x40 MLOAD PUSH2 0x165 SWAP2 SWAP1 PUSH2 0xAB5 JUMP JUMPDEST PUSH1 0x40 MLOAD DUP1 SWAP2 SUB SWAP1 RETURN JUMPDEST PUSH2 0x176 PUSH2 0x4DA JUMP JUMPDEST PUSH1 0x40 MLOAD PUSH2 0x183 SWAP2 SWAP1 PUSH2 0x747 JUMP JUMPDEST PUSH1 0x40 MLOAD DUP1 SWAP2 SUB SWAP1 RETURN JUMPDEST PUSH2 0x1A6 PUSH1 0x4 DUP1 CALLDATASIZE SUB DUP2 ADD SWAP1 PUSH2 0x1A1 SWAP2 SWAP1 PUSH2 0xAD0 JUMP JUMPDEST PUSH2 0x4E0 JUMP JUMPDEST STOP JUMPDEST PUSH2 0x1B0 PUSH2 0x598 JUMP JUMPDEST STOP JUMPDEST PUSH1 0x3 SLOAD DUP2 JUMP JUMPDEST DUP1 PUSH1 0x5 PUSH1 0x0 DUP5 PUSH20 0xFFFFFFFFFFFFFFFFFFFFFFFFFFFFFFFFFFFFFFFF AND PUSH20 0xFFFFFFFFFFFFFFFFFFFFFFFFFFFFFFFFFFFFFFFF AND DUP2 MSTORE PUSH1 0x20 ADD SWAP1 DUP2 MSTORE PUSH1 0x20 ADD PUSH1 0x0 KECCAK256 SWAP1 DUP1 MLOAD SWAP1 PUSH1 0x20 ADD SWAP1 PUSH2 0x20B SWAP3 SWAP2 SWAP1 PUSH2 0x68B JUMP JUMPDEST POP POP POP JUMP JUMPDEST PUSH1 0x60 PUSH1 0x0 DUP1 SLOAD SWAP1 PUSH2 0x100 EXP SWAP1 DIV PUSH20 0xFFFFFFFFFFFFFFFFFFFFFFFFFFFFFFFFFFFFFFFF AND PUSH20 0xFFFFFFFFFFFFFFFFFFFFFFFFFFFFFFFFFFFFFFFF AND CALLER PUSH20 0xFFFFFFFFFFFFFFFFFFFFFFFFFFFFFFFFFFFFFFFF AND SUB PUSH2 0x2A0 JUMPI PUSH1 0x40 MLOAD PUSH32 0x8C379A000000000000000000000000000000000000000000000000000000000 DUP2 MSTORE PUSH1 0x4 ADD PUSH2 0x297 SWAP1 PUSH2 0xBB1 JUMP JUMPDEST PUSH1 0x40 MLOAD DUP1 SWAP2 SUB SWAP1 REVERT JUMPDEST PUSH1 0x5 PUSH1 0x0 CALLER PUSH20 0xFFFFFFFFFFFFFFFFFFFFFFFFFFFFFFFFFFFFFFFF AND PUSH20 0xFFFFFFFFFFFFFFFFFFFFFFFFFFFFFFFFFFFFFFFF AND DUP2 MSTORE PUSH1 0x20 ADD SWAP1 DUP2 MSTORE PUSH1 0x20 ADD PUSH1 0x0 KECCAK256 DUP1 SLOAD PUSH2 0x2EA SWAP1 PUSH2 0xC00 JUMP JUMPDEST DUP1 PUSH1 0x1F ADD PUSH1 0x20 DUP1 SWAP2 DIV MUL PUSH1 0x20 ADD PUSH1 0x40 MLOAD SWAP1 DUP2 ADD PUSH1 0x40 MSTORE DUP1 SWAP3 SWAP2 SWAP1 DUP2 DUP2 MSTORE PUSH1 0x20 ADD DUP3 DUP1 SLOAD PUSH2 0x316 SWAP1 PUSH2 0xC00 JUMP JUMPDEST DUP1 ISZERO PUSH2 0x363 JUMPI DUP1 PUSH1 0x1F LT PUSH2 0x338 JUMPI PUSH2 0x100 DUP1 DUP4 SLOAD DIV MUL DUP4 MSTORE SWAP2 PUSH1 0x20 ADD SWAP2 PUSH2 0x363 JUMP JUMPDEST DUP3 ADD SWAP2 SWAP1 PUSH1 0x0 MSTORE PUSH1 0x20 PUSH1 0x0 KECCAK256 SWAP1 JUMPDEST DUP2 SLOAD DUP2 MSTORE SWAP1 PUSH1 0x1 ADD SWAP1 PUSH1 0x20 ADD DUP1 DUP4 GT PUSH2 0x346 JUMPI DUP3 SWAP1 SUB PUSH1 0x1F AND DUP3 ADD SWAP2 JUMPDEST POP POP POP POP POP SWAP1 POP SWAP1 JUMP JUMPDEST PUSH1 0x2 DUP1 SLOAD PUSH2 0x37A SWAP1 PUSH2 0xC00 JUMP JUMPDEST DUP1 PUSH1 0x1F ADD PUSH1 0x20 DUP1 SWAP2 DIV MUL PUSH1 0x20 ADD PUSH1 0x40 MLOAD SWAP1 DUP2 ADD PUSH1 0x40 MSTORE DUP1 SWAP3 SWAP2 SWAP1 DUP2 DUP2 MSTORE PUSH1 0x20 ADD DUP3 DUP1 SLOAD PUSH2 0x3A6 SWAP1 PUSH2 0xC00 JUMP JUMPDEST DUP1 ISZERO PUSH2 0x3F3 JUMPI DUP1 PUSH1 0x1F LT PUSH2 0x3C8 JUMPI PUSH2 0x100 DUP1 DUP4 SLOAD DIV MUL DUP4 MSTORE SWAP2 PUSH1 0x20 ADD SWAP2 PUSH2 0x3F3 JUMP JUMPDEST DUP3 ADD SWAP2 SWAP1 PUSH1 0x0 MSTORE PUSH1 0x20 PUSH1 0x0 KECCAK256 SWAP1 JUMPDEST DUP2 SLOAD DUP2 MSTORE SWAP1 PUSH1 0x1 ADD SWAP1 PUSH1 0x20 ADD DUP1 DUP4 GT PUSH2 0x3D6 JUMPI DUP3 SWAP1 SUB PUSH1 0x1F AND DUP3 ADD SWAP2 JUMPDEST POP POP POP POP POP DUP2 JUMP JUMPDEST PUSH1 0x5 PUSH1 0x20 MSTORE DUP1 PUSH1 0x0 MSTORE PUSH1 0x40 PUSH1 0x0 KECCAK256 PUSH1 0x0 SWAP2 POP SWAP1 POP DUP1 SLOAD PUSH2 0x41A SWAP1 PUSH2 0xC00 JUMP JUMPDEST DUP1 PUSH1 0x1F ADD PUSH1 0x20 DUP1 SWAP2 DIV MUL PUSH1 0x20 ADD PUSH1 0x40 MLOAD SWAP1 DUP2 ADD PUSH1 0x40 MSTORE DUP1 SWAP3 SWAP2 SWAP1 DUP2 DUP2 MSTORE PUSH1 0x20 ADD DUP3 DUP1 SLOAD PUSH2 0x446 SWAP1 PUSH2 0xC00 JUMP JUMPDEST DUP1 ISZERO PUSH2 0x493 JUMPI DUP1 PUSH1 0x1F LT PUSH2 0x468 JUMPI PUSH2 0x100 DUP1 DUP4 SLOAD DIV MUL DUP4 MSTORE SWAP2 PUSH1 0x20 ADD SWAP2 PUSH2 0x493 JUMP JUMPDEST DUP3 ADD SWAP2 SWAP1 PUSH1 0x0 MSTORE PUSH1 0x20 PUSH1 0x0 KECCAK256 SWAP1 JUMPDEST DUP2 SLOAD DUP2 MSTORE SWAP1 PUSH1 0x1 ADD SWAP1 PUSH1 0x20 ADD DUP1 DUP4 GT PUSH2 0x476 JUMPI DUP3 SWAP1 SUB PUSH1 0x1F AND DUP3 ADD SWAP2 JUMPDEST POP POP POP POP POP DUP2 JUMP JUMPDEST PUSH1 0x1 DUP2 DUP2 SLOAD DUP2 LT PUSH2 0x4AB JUMPI PUSH1 0x0 DUP1 REVERT JUMPDEST SWAP1 PUSH1 0x0 MSTORE PUSH1 0x20 PUSH1 0x0 KECCAK256 ADD PUSH1 0x0 SWAP2 POP SLOAD SWAP1 PUSH2 0x100 EXP SWAP1 DIV PUSH20 0xFFFFFFFFFFFFFFFFFFFFFFFFFFFFFFFFFFFFFFFF AND DUP2 JUMP JUMPDEST PUSH1 0x4 SLOAD DUP2 JUMP JUMPDEST PUSH1 0x0 DUP1 SLOAD SWAP1 PUSH2 0x100 EXP SWAP1 DIV PUSH20 0xFFFFFFFFFFFFFFFFFFFFFFFFFFFFFFFFFFFFFFFF AND PUSH20 0xFFFFFFFFFFFFFFFFFFFFFFFFFFFFFFFFFFFFFFFF AND CALLER PUSH20 0xFFFFFFFFFFFFFFFFFFFFFFFFFFFFFFFFFFFFFFFF AND EQ PUSH2 0x56E JUMPI PUSH1 0x40 MLOAD PUSH32 0x8C379A000000000000000000000000000000000000000000000000000000000 DUP2 MSTORE PUSH1 0x4 ADD PUSH2 0x565 SWAP1 PUSH2 0xCA3 JUMP JUMPDEST PUSH1 0x40 MLOAD DUP1 SWAP2 SUB SWAP1 REVERT JUMPDEST DUP3 PUSH1 0x2 SWAP1 DUP1 MLOAD SWAP1 PUSH1 0x20 ADD SWAP1 PUSH2 0x584 SWAP3 SWAP2 SWAP1 PUSH2 0x68B JUMP JUMPDEST POP DUP2 PUSH1 0x3 DUP2 SWAP1 SSTORE POP DUP1 PUSH1 0x4 DUP2 SWAP1 SSTORE POP POP POP POP JUMP JUMPDEST PUSH1 0x0 DUP1 SLOAD SWAP1 PUSH2 0x100 EXP SWAP1 DIV PUSH20 0xFFFFFFFFFFFFFFFFFFFFFFFFFFFFFFFFFFFFFFFF AND PUSH20 0xFFFFFFFFFFFFFFFFFFFFFFFFFFFFFFFFFFFFFFFF AND CALLER PUSH20 0xFFFFFFFFFFFFFFFFFFFFFFFFFFFFFFFFFFFFFFFF AND SUB PUSH2 0x626 JUMPI PUSH1 0x40 MLOAD PUSH32 0x8C379A000000000000000000000000000000000000000000000000000000000 DUP2 MSTORE PUSH1 0x4 ADD PUSH2 0x61D SWAP1 PUSH2 0xBB1 JUMP JUMPDEST PUSH1 0x40 MLOAD DUP1 SWAP2 SUB SWAP1 REVERT JUMPDEST PUSH1 0x1 CALLER SWAP1 DUP1 PUSH1 0x1 DUP2 SLOAD ADD DUP1 DUP3 SSTORE DUP1 SWAP2 POP POP PUSH1 0x1 SWAP1 SUB SWAP1 PUSH1 0x0 MSTORE PUSH1 0x20 PUSH1 0x0 KECCAK256 ADD PUSH1 0x0 SWAP1 SWAP2 SWAP1 SWAP2 SWAP1 SWAP2 PUSH2 0x100 EXP DUP2 SLOAD DUP2 PUSH20 0xFFFFFFFFFFFFFFFFFFFFFFFFFFFFFFFFFFFFFFFF MUL NOT AND SWAP1 DUP4 PUSH20 0xFFFFFFFFFFFFFFFFFFFFFFFFFFFFFFFFFFFFFFFF AND MUL OR SWAP1 SSTORE POP JUMP JUMPDEST DUP3 DUP1 SLOAD PUSH2 0x697 SWAP1 PUSH2 0xC00 JUMP JUMPDEST SWAP1 PUSH1 0x0 MSTORE PUSH1 0x20 PUSH1 0x0 KECCAK256 SWAP1 PUSH1 0x1F ADD PUSH1 0x20 SWAP1 DIV DUP2 ADD SWAP3 DUP3 PUSH2 0x6B9 JUMPI PUSH1 0x0 DUP6 SSTORE PUSH2 0x700 JUMP JUMPDEST DUP3 PUSH1 0x1F LT PUSH2 0x6D2 JUMPI DUP1 MLOAD PUSH1 0xFF NOT AND DUP4 DUP1 ADD OR DUP6 SSTORE PUSH2 0x700 JUMP JUMPDEST DUP3 DUP1 ADD PUSH1 0x1 ADD DUP6 SSTORE DUP3 ISZERO PUSH2 0x700 JUMPI SWAP2 DUP3 ADD JUMPDEST DUP3 DUP2 GT ISZERO PUSH2 0x6FF JUMPI DUP3 MLOAD DUP3 SSTORE SWAP2 PUSH1 0x20 ADD SWAP2 SWAP1 PUSH1 0x1 ADD SWAP1 PUSH2 0x6E4 JUMP JUMPDEST JUMPDEST POP SWAP1 POP PUSH2 0x70D SWAP2 SWAP1 PUSH2 0x711 JUMP JUMPDEST POP SWAP1 JUMP JUMPDEST JUMPDEST DUP1 DUP3 GT ISZERO PUSH2 0x72A JUMPI PUSH1 0x0 DUP2 PUSH1 0x0 SWAP1 SSTORE POP PUSH1 0x1 ADD PUSH2 0x712 JUMP JUMPDEST POP SWAP1 JUMP JUMPDEST PUSH1 0x0 DUP2 SWAP1 POP SWAP2 SWAP1 POP JUMP JUMPDEST PUSH2 0x741 DUP2 PUSH2 0x72E JUMP JUMPDEST DUP3 MSTORE POP POP JUMP JUMPDEST PUSH1 0x0 PUSH1 0x20 DUP3 ADD SWAP1 POP PUSH2 0x75C PUSH1 0x0 DUP4 ADD DUP5 PUSH2 0x738 JUMP JUMPDEST SWAP3 SWAP2 POP POP JUMP JUMPDEST PUSH1 0x0 PUSH1 0x40 MLOAD SWAP1 POP SWAP1 JUMP JUMPDEST PUSH1 0x0 DUP1 REVERT JUMPDEST PUSH1 0x0 DUP1 REVERT JUMPDEST PUSH1 0x0 PUSH20 0xFFFFFFFFFFFFFFFFFFFFFFFFFFFFFFFFFFFFFFFF DUP3 AND SWAP1 POP SWAP2 SWAP1 POP JUMP JUMPDEST PUSH1 0x0 PUSH2 0x7A1 DUP3 PUSH2 0x776 JUMP JUMPDEST SWAP1 POP SWAP2 SWAP1 POP JUMP JUMPDEST PUSH2 0x7B1 DUP2 PUSH2 0x796 JUMP JUMPDEST DUP2 EQ PUSH2 0x7BC JUMPI PUSH1 0x0 DUP1 REVERT JUMPDEST POP JUMP JUMPDEST PUSH1 0x0 DUP2 CALLDATALOAD SWAP1 POP PUSH2 0x7CE DUP2 PUSH2 0x7A8 JUMP JUMPDEST SWAP3 SWAP2 POP POP JUMP JUMPDEST PUSH1 0x0 DUP1 REVERT JUMPDEST PUSH1 0x0 DUP1 REVERT JUMPDEST PUSH1 0x0 PUSH1 0x1F NOT PUSH1 0x1F DUP4 ADD AND SWAP1 POP SWAP2 SWAP1 POP JUMP JUMPDEST PUSH32 0x4E487B7100000000000000000000000000000000000000000000000000000000 PUSH1 0x0 MSTORE PUSH1 0x41 PUSH1 0x4 MSTORE PUSH1 0x24 PUSH1 0x0 REVERT JUMPDEST PUSH2 0x827 DUP3 PUSH2 0x7DE JUMP JUMPDEST DUP2 ADD DUP2 DUP2 LT PUSH8 0xFFFFFFFFFFFFFFFF DUP3 GT OR ISZERO PUSH2 0x846 JUMPI PUSH2 0x845 PUSH2 0x7EF JUMP JUMPDEST JUMPDEST DUP1 PUSH1 0x40 MSTORE POP POP POP JUMP JUMPDEST PUSH1 0x0 PUSH2 0x859 PUSH2 0x762 JUMP JUMPDEST SWAP1 POP PUSH2 0x865 DUP3 DUP3 PUSH2 0x81E JUMP JUMPDEST SWAP2 SWAP1 POP JUMP JUMPDEST PUSH1 0x0 PUSH8 0xFFFFFFFFFFFFFFFF DUP3 GT ISZERO PUSH2 0x885 JUMPI PUSH2 0x884 PUSH2 0x7EF JUMP JUMPDEST JUMPDEST PUSH2 0x88E DUP3 PUSH2 0x7DE JUMP JUMPDEST SWAP1 POP PUSH1 0x20 DUP2 ADD SWAP1 POP SWAP2 SWAP1 POP JUMP JUMPDEST DUP3 DUP2 DUP4 CALLDATACOPY PUSH1 0x0 DUP4 DUP4 ADD MSTORE POP POP POP JUMP JUMPDEST PUSH1 0x0 PUSH2 0x8BD PUSH2 0x8B8 DUP5 PUSH2 0x86A JUMP JUMPDEST PUSH2 0x84F JUMP JUMPDEST SWAP1 POP DUP3 DUP2 MSTORE PUSH1 0x20 DUP2 ADD DUP5 DUP5 DUP5 ADD GT ISZERO PUSH2 0x8D9 JUMPI PUSH2 0x8D8 PUSH2 0x7D9 JUMP JUMPDEST JUMPDEST PUSH2 0x8E4 DUP5 DUP3 DUP6 PUSH2 0x89B JUMP JUMPDEST POP SWAP4 SWAP3 POP POP POP JUMP JUMPDEST PUSH1 0x0 DUP3 PUSH1 0x1F DUP4 ADD SLT PUSH2 0x901 JUMPI PUSH2 0x900 PUSH2 0x7D4 JUMP JUMPDEST JUMPDEST DUP2 CALLDATALOAD PUSH2 0x911 DUP5 DUP3 PUSH1 0x20 DUP7 ADD PUSH2 0x8AA JUMP JUMPDEST SWAP2 POP POP SWAP3 SWAP2 POP POP JUMP JUMPDEST PUSH1 0x0 DUP1 PUSH1 0x40 DUP4 DUP6 SUB SLT ISZERO PUSH2 0x931 JUMPI PUSH2 0x930 PUSH2 0x76C JUMP JUMPDEST JUMPDEST PUSH1 0x0 PUSH2 0x93F DUP6 DUP3 DUP7 ADD PUSH2 0x7BF JUMP JUMPDEST SWAP3 POP POP PUSH1 0x20 DUP4 ADD CALLDATALOAD PUSH8 0xFFFFFFFFFFFFFFFF DUP2 GT ISZERO PUSH2 0x960 JUMPI PUSH2 0x95F PUSH2 0x771 JUMP JUMPDEST JUMPDEST PUSH2 0x96C DUP6 DUP3 DUP7 ADD PUSH2 0x8EC JUMP JUMPDEST SWAP2 POP POP SWAP3 POP SWAP3 SWAP1 POP JUMP JUMPDEST PUSH1 0x0 DUP2 MLOAD SWAP1 POP SWAP2 SWAP1 POP JUMP JUMPDEST PUSH1 0x0 DUP3 DUP3 MSTORE PUSH1 0x20 DUP3 ADD SWAP1 POP SWAP3 SWAP2 POP POP JUMP JUMPDEST PUSH1 0x0 JUMPDEST DUP4 DUP2 LT ISZERO PUSH2 0x9B0 JUMPI DUP1 DUP3 ADD MLOAD DUP2 DUP5 ADD MSTORE PUSH1 0x20 DUP2 ADD SWAP1 POP PUSH2 0x995 JUMP JUMPDEST DUP4 DUP2 GT ISZERO PUSH2 0x9BF JUMPI PUSH1 0x0 DUP5 DUP5 ADD MSTORE JUMPDEST POP POP POP POP JUMP JUMPDEST PUSH1 0x0 PUSH2 0x9D0 DUP3 PUSH2 0x976 JUMP JUMPDEST PUSH2 0x9DA DUP2 DUP6 PUSH2 0x981 JUMP JUMPDEST SWAP4 POP PUSH2 0x9EA DUP2 DUP6 PUSH1 0x20 DUP7 ADD PUSH2 0x992 JUMP JUMPDEST PUSH2 0x9F3 DUP2 PUSH2 0x7DE JUMP JUMPDEST DUP5 ADD SWAP2 POP POP SWAP3 SWAP2 POP POP JUMP JUMPDEST PUSH1 0x0 PUSH1 0x20 DUP3 ADD SWAP1 POP DUP2 DUP2 SUB PUSH1 0x0 DUP4 ADD MSTORE PUSH2 0xA18 DUP2 DUP5 PUSH2 0x9C5 JUMP JUMPDEST SWAP1 POP SWAP3 SWAP2 POP POP JUMP JUMPDEST PUSH1 0x0 PUSH1 0x20 DUP3 DUP5 SUB SLT ISZERO PUSH2 0xA36 JUMPI PUSH2 0xA35 PUSH2 0x76C JUMP JUMPDEST JUMPDEST PUSH1 0x0 PUSH2 0xA44 DUP5 DUP3 DUP6 ADD PUSH2 0x7BF JUMP JUMPDEST SWAP2 POP POP SWAP3 SWAP2 POP POP JUMP JUMPDEST PUSH2 0xA56 DUP2 PUSH2 0x72E JUMP JUMPDEST DUP2 EQ PUSH2 0xA61 JUMPI PUSH1 0x0 DUP1 REVERT JUMPDEST POP JUMP JUMPDEST PUSH1 0x0 DUP2 CALLDATALOAD SWAP1 POP PUSH2 0xA73 DUP2 PUSH2 0xA4D JUMP JUMPDEST SWAP3 SWAP2 POP POP JUMP JUMPDEST PUSH1 0x0 PUSH1 0x20 DUP3 DUP5 SUB SLT ISZERO PUSH2 0xA8F JUMPI PUSH2 0xA8E PUSH2 0x76C JUMP JUMPDEST JUMPDEST PUSH1 0x0 PUSH2 0xA9D DUP5 DUP3 DUP6 ADD PUSH2 0xA64 JUMP JUMPDEST SWAP2 POP POP SWAP3 SWAP2 POP POP JUMP JUMPDEST PUSH2 0xAAF DUP2 PUSH2 0x796 JUMP JUMPDEST DUP3 MSTORE POP POP JUMP JUMPDEST PUSH1 0x0 PUSH1 0x20 DUP3 ADD SWAP1 POP PUSH2 0xACA PUSH1 0x0 DUP4 ADD DUP5 PUSH2 0xAA6 JUMP JUMPDEST SWAP3 SWAP2 POP POP JUMP JUMPDEST PUSH1 0x0 DUP1 PUSH1 0x0 PUSH1 0x60 DUP5 DUP7 SUB SLT ISZERO PUSH2 0xAE9 JUMPI PUSH2 0xAE8 PUSH2 0x76C JUMP JUMPDEST JUMPDEST PUSH1 0x0 DUP5 ADD CALLDATALOAD PUSH8 0xFFFFFFFFFFFFFFFF DUP2 GT ISZERO PUSH2 0xB07 JUMPI PUSH2 0xB06 PUSH2 0x771 JUMP JUMPDEST JUMPDEST PUSH2 0xB13 DUP7 DUP3 DUP8 ADD PUSH2 0x8EC JUMP JUMPDEST SWAP4 POP POP PUSH1 0x20 PUSH2 0xB24 DUP7 DUP3 DUP8 ADD PUSH2 0xA64 JUMP JUMPDEST SWAP3 POP POP PUSH1 0x40 PUSH2 0xB35 DUP7 DUP3 DUP8 ADD PUSH2 0xA64 JUMP JUMPDEST SWAP2 POP POP SWAP3 POP SWAP3 POP SWAP3 JUMP JUMPDEST PUSH32 0x41756374696F6E656572206973206E6F7420616C6C6F77656420746F20726567 PUSH1 0x0 DUP3 ADD MSTORE PUSH32 0x6973746572206173206120626964646572000000000000000000000000000000 PUSH1 0x20 DUP3 ADD MSTORE POP JUMP JUMPDEST PUSH1 0x0 PUSH2 0xB9B PUSH1 0x31 DUP4 PUSH2 0x981 JUMP JUMPDEST SWAP2 POP PUSH2 0xBA6 DUP3 PUSH2 0xB3F JUMP JUMPDEST PUSH1 0x40 DUP3 ADD SWAP1 POP SWAP2 SWAP1 POP JUMP JUMPDEST PUSH1 0x0 PUSH1 0x20 DUP3 ADD SWAP1 POP DUP2 DUP2 SUB PUSH1 0x0 DUP4 ADD MSTORE PUSH2 0xBCA DUP2 PUSH2 0xB8E JUMP JUMPDEST SWAP1 POP SWAP2 SWAP1 POP JUMP JUMPDEST PUSH32 0x4E487B7100000000000000000000000000000000000000000000000000000000 PUSH1 0x0 MSTORE PUSH1 0x22 PUSH1 0x4 MSTORE PUSH1 0x24 PUSH1 0x0 REVERT JUMPDEST PUSH1 0x0 PUSH1 0x2 DUP3 DIV SWAP1 POP PUSH1 0x1 DUP3 AND DUP1 PUSH2 0xC18 JUMPI PUSH1 0x7F DUP3 AND SWAP2 POP JUMPDEST PUSH1 0x20 DUP3 LT DUP2 SUB PUSH2 0xC2B JUMPI PUSH2 0xC2A PUSH2 0xBD1 JUMP JUMPDEST JUMPDEST POP SWAP2 SWAP1 POP JUMP JUMPDEST PUSH32 0x4F6E6C792061756374696F6E6565722063616E2063616C6C2074686973206675 PUSH1 0x0 DUP3 ADD MSTORE PUSH32 0x6E6374696F6E2E00000000000000000000000000000000000000000000000000 PUSH1 0x20 DUP3 ADD MSTORE POP JUMP JUMPDEST PUSH1 0x0 PUSH2 0xC8D PUSH1 0x27 DUP4 PUSH2 0x981 JUMP JUMPDEST SWAP2 POP PUSH2 0xC98 DUP3 PUSH2 0xC31 JUMP JUMPDEST PUSH1 0x40 DUP3 ADD SWAP1 POP SWAP2 SWAP1 POP JUMP JUMPDEST PUSH1 0x0 PUSH1 0x20 DUP3 ADD SWAP1 POP DUP2 DUP2 SUB PUSH1 0x0 DUP4 ADD MSTORE PUSH2 0xCBC DUP2 PUSH2 0xC80 JUMP JUMPDEST SWAP1 POP SWAP2 SWAP1 POP JUMP INVALID LOG2 PUSH5 0x6970667358 0x22 SLT KECCAK256 0x2E NUMBER CHAINID 0xB5 DUP13 SWAP13 SHL 0xB6 PUSH11 0x49714A7B3E8A83D077863 0x4E 0x1F 0xDB EXTCODECOPY EXTCODECOPY 0xBC PC PUSH11 0xE04594F664736F6C634300 ADDMOD 0xE STOP CALLER "
				},
				"gasEstimates": {
					"creation": {
						"codeDepositCost": "664200",
						"executionCost": "24962",
						"totalCost": "689162"
					},
					"external": {
						"assetDescription()": "infinite",
						"bidders(uint256)": "4978",
						"getMyPublicKey()": "infinite",
						"minBidPrice()": "2430",
						"minNumberOfBidders()": "2473",
						"publicKeys(address)": "infinite",
						"registerAuctionInfo(string,uint256,uint256)": "infinite",
						"registerBidder()": "50977",
						"submitPublicKeys(address,string)": "infinite"
					}
				},
				"methodIdentifiers": {
					"assetDescription()": "938626c2",
					"bidders(uint256)": "cff29dfd",
					"getMyPublicKey()": "86b8c34c",
					"minBidPrice()": "34eb86a2",
					"minNumberOfBidders()": "daa0218f",
					"publicKeys(address)": "a3d6f9a9",
					"registerAuctionInfo(string,uint256,uint256)": "e7d2a997",
					"registerBidder()": "f356733c",
					"submitPublicKeys(address,string)": "7d441a6f"
				}
			},
			"storageLayout": {
				"storage": [
					{
						"astId": 3,
						"contract": "Contracts/AKEB.sol:AKEB",
						"label": "auctioneer",
						"offset": 0,
						"slot": "0",
						"type": "t_address"
					},
					{
						"astId": 6,
						"contract": "Contracts/AKEB.sol:AKEB",
						"label": "bidders",
						"offset": 0,
						"slot": "1",
						"type": "t_array(t_address)dyn_storage"
					},
					{
						"astId": 8,
						"contract": "Contracts/AKEB.sol:AKEB",
						"label": "assetDescription",
						"offset": 0,
						"slot": "2",
						"type": "t_string_storage"
					},
					{
						"astId": 10,
						"contract": "Contracts/AKEB.sol:AKEB",
						"label": "minBidPrice",
						"offset": 0,
						"slot": "3",
						"type": "t_uint256"
					},
					{
						"astId": 12,
						"contract": "Contracts/AKEB.sol:AKEB",
						"label": "minNumberOfBidders",
						"offset": 0,
						"slot": "4",
						"type": "t_uint256"
					},
					{
						"astId": 16,
						"contract": "Contracts/AKEB.sol:AKEB",
						"label": "publicKeys",
						"offset": 0,
						"slot": "5",
						"type": "t_mapping(t_address,t_string_storage)"
					}
				],
				"types": {
					"t_address": {
						"encoding": "inplace",
						"label": "address",
						"numberOfBytes": "20"
					},
					"t_array(t_address)dyn_storage": {
						"base": "t_address",
						"encoding": "dynamic_array",
						"label": "address[]",
						"numberOfBytes": "32"
					},
					"t_mapping(t_address,t_string_storage)": {
						"encoding": "mapping",
						"key": "t_address",
						"label": "mapping(address => string)",
						"numberOfBytes": "32",
						"value": "t_string_storage"
					},
					"t_string_storage": {
						"encoding": "bytes",
						"label": "string",
						"numberOfBytes": "32"
					},
					"t_uint256": {
						"encoding": "inplace",
						"label": "uint256",
						"numberOfBytes": "32"
					}
				}
			},
			"userdoc": {
				"kind": "user",
				"methods": {},
				"version": 1
			}
		}
	}
}