{
	"Contracts/AKEB.sol": {
		"AKEB": {
			"abi": [
				{
					"inputs": [],
					"stateMutability": "nonpayable",
					"type": "constructor"
				},
				{
					"inputs": [],
					"name": "assetDescription",
					"outputs": [
						{
							"internalType": "string",
							"name": "",
							"type": "string"
						}
					],
					"stateMutability": "view",
					"type": "function"
				},
				{
					"inputs": [
						{
							"internalType": "uint256",
							"name": "",
							"type": "uint256"
						}
					],
					"name": "bidders",
					"outputs": [
						{
							"internalType": "address",
							"name": "",
							"type": "address"
						}
					],
					"stateMutability": "view",
					"type": "function"
				},
				{
					"inputs": [],
					"name": "minBidPrice",
					"outputs": [
						{
							"internalType": "uint256",
							"name": "",
							"type": "uint256"
						}
					],
					"stateMutability": "view",
					"type": "function"
				},
				{
					"inputs": [],
					"name": "minNumberOfBidders",
					"outputs": [
						{
							"internalType": "uint256",
							"name": "",
							"type": "uint256"
						}
					],
					"stateMutability": "view",
					"type": "function"
				},
				{
					"inputs": [
						{
							"internalType": "address",
							"name": "",
							"type": "address"
						}
					],
					"name": "publicKeys",
					"outputs": [
						{
							"internalType": "uint256",
							"name": "",
							"type": "uint256"
						}
					],
					"stateMutability": "view",
					"type": "function"
				},
				{
					"inputs": [
						{
							"internalType": "string",
							"name": "assetDescriptionInput",
							"type": "string"
						},
						{
							"internalType": "uint256",
							"name": "minBidPriceInput",
							"type": "uint256"
						},
						{
							"internalType": "uint256",
							"name": "minNumberOfBiddersInput",
							"type": "uint256"
						}
					],
					"name": "registerAuctionInfo",
					"outputs": [],
					"stateMutability": "nonpayable",
					"type": "function"
				},
				{
					"inputs": [],
					"name": "registerBidder",
					"outputs": [],
					"stateMutability": "nonpayable",
					"type": "function"
				},
				{
					"inputs": [
						{
							"internalType": "address",
							"name": "inputAddress",
							"type": "address"
						},
						{
							"internalType": "uint256",
							"name": "inputPublicKey",
							"type": "uint256"
						}
					],
					"name": "submitPublicKeys",
					"outputs": [],
					"stateMutability": "nonpayable",
					"type": "function"
				}
			],
			"devdoc": {
				"kind": "dev",
				"methods": {},
				"version": 1
			},
			"evm": {
				"assembly": "    /* \"Contracts/AKEB.sol\":58:1210  contract AKEB {... */\n  mstore(0x40, 0x80)\n    /* \"Contracts/AKEB.sol\":291:349  constructor()... */\n  callvalue\n  dup1\n  iszero\n  tag_1\n  jumpi\n  0x00\n  dup1\n  revert\ntag_1:\n  pop\n    /* \"Contracts/AKEB.sol\":332:342  msg.sender */\n  caller\n    /* \"Contracts/AKEB.sol\":319:329  auctioneer */\n  0x00\n  dup1\n    /* \"Contracts/AKEB.sol\":319:342  auctioneer = msg.sender */\n  0x0100\n  exp\n  dup2\n  sload\n  dup2\n  0xffffffffffffffffffffffffffffffffffffffff\n  mul\n  not\n  and\n  swap1\n  dup4\n  0xffffffffffffffffffffffffffffffffffffffff\n  and\n  mul\n  or\n  swap1\n  sstore\n  pop\n    /* \"Contracts/AKEB.sol\":58:1210  contract AKEB {... */\n  dataSize(sub_0)\n  dup1\n  dataOffset(sub_0)\n  0x00\n  codecopy\n  0x00\n  return\nstop\n\nsub_0: assembly {\n        /* \"Contracts/AKEB.sol\":58:1210  contract AKEB {... */\n      mstore(0x40, 0x80)\n      callvalue\n      dup1\n      iszero\n      tag_1\n      jumpi\n      0x00\n      dup1\n      revert\n    tag_1:\n      pop\n      jumpi(tag_2, lt(calldatasize, 0x04))\n      shr(0xe0, calldataload(0x00))\n      dup1\n      0xcff29dfd\n      gt\n      tag_11\n      jumpi\n      dup1\n      0xcff29dfd\n      eq\n      tag_7\n      jumpi\n      dup1\n      0xdaa0218f\n      eq\n      tag_8\n      jumpi\n      dup1\n      0xe7d2a997\n      eq\n      tag_9\n      jumpi\n      dup1\n      0xf356733c\n      eq\n      tag_10\n      jumpi\n      jump(tag_2)\n    tag_11:\n      dup1\n      0x34eb86a2\n      eq\n      tag_3\n      jumpi\n      dup1\n      0x4d896bf7\n      eq\n      tag_4\n      jumpi\n      dup1\n      0x938626c2\n      eq\n      tag_5\n      jumpi\n      dup1\n      0xa3d6f9a9\n      eq\n      tag_6\n      jumpi\n    tag_2:\n      0x00\n      dup1\n      revert\n        /* \"Contracts/AKEB.sol\":168:194  uint256 public minBidPrice */\n    tag_3:\n      tag_12\n      tag_13\n      jump\t// in\n    tag_12:\n      mload(0x40)\n      tag_14\n      swap2\n      swap1\n      tag_15\n      jump\t// in\n    tag_14:\n      mload(0x40)\n      dup1\n      swap2\n      sub\n      swap1\n      return\n        /* \"Contracts/AKEB.sol\":1072:1208  function submitPublicKeys(address inputAddress, uint256 inputPublicKey) public{... */\n    tag_4:\n      tag_16\n      0x04\n      dup1\n      calldatasize\n      sub\n      dup2\n      add\n      swap1\n      tag_17\n      swap2\n      swap1\n      tag_18\n      jump\t// in\n    tag_17:\n      tag_19\n      jump\t// in\n    tag_16:\n      stop\n        /* \"Contracts/AKEB.sol\":132:162  string public assetDescription */\n    tag_5:\n      tag_20\n      tag_21\n      jump\t// in\n    tag_20:\n      mload(0x40)\n      tag_22\n      swap2\n      swap1\n      tag_23\n      jump\t// in\n    tag_22:\n      mload(0x40)\n      dup1\n      swap2\n      sub\n      swap1\n      return\n        /* \"Contracts/AKEB.sol\":239:284  mapping(address => uint256) public publicKeys */\n    tag_6:\n      tag_24\n      0x04\n      dup1\n      calldatasize\n      sub\n      dup2\n      add\n      swap1\n      tag_25\n      swap2\n      swap1\n      tag_26\n      jump\t// in\n    tag_25:\n      tag_27\n      jump\t// in\n    tag_24:\n      mload(0x40)\n      tag_28\n      swap2\n      swap1\n      tag_15\n      jump\t// in\n    tag_28:\n      mload(0x40)\n      dup1\n      swap2\n      sub\n      swap1\n      return\n        /* \"Contracts/AKEB.sol\":102:126  address[] public bidders */\n    tag_7:\n      tag_29\n      0x04\n      dup1\n      calldatasize\n      sub\n      dup2\n      add\n      swap1\n      tag_30\n      swap2\n      swap1\n      tag_31\n      jump\t// in\n    tag_30:\n      tag_32\n      jump\t// in\n    tag_29:\n      mload(0x40)\n      tag_33\n      swap2\n      swap1\n      tag_34\n      jump\t// in\n    tag_33:\n      mload(0x40)\n      dup1\n      swap2\n      sub\n      swap1\n      return\n        /* \"Contracts/AKEB.sol\":200:233  uint256 public minNumberOfBidders */\n    tag_8:\n      tag_35\n      tag_36\n      jump\t// in\n    tag_35:\n      mload(0x40)\n      tag_37\n      swap2\n      swap1\n      tag_15\n      jump\t// in\n    tag_37:\n      mload(0x40)\n      dup1\n      swap2\n      sub\n      swap1\n      return\n        /* \"Contracts/AKEB.sol\":637:952  function registerAuctionInfo(string memory assetDescriptionInput, ... */\n    tag_9:\n      tag_38\n      0x04\n      dup1\n      calldatasize\n      sub\n      dup2\n      add\n      swap1\n      tag_39\n      swap2\n      swap1\n      tag_40\n      jump\t// in\n    tag_39:\n      tag_41\n      jump\t// in\n    tag_38:\n      stop\n        /* \"Contracts/AKEB.sol\":958:1066  function registerBidder() public noAuctioneerInBidderRegistering() {... */\n    tag_10:\n      tag_42\n      tag_43\n      jump\t// in\n    tag_42:\n      stop\n        /* \"Contracts/AKEB.sol\":168:194  uint256 public minBidPrice */\n    tag_13:\n      sload(0x03)\n      dup2\n      jump\t// out\n        /* \"Contracts/AKEB.sol\":1072:1208  function submitPublicKeys(address inputAddress, uint256 inputPublicKey) public{... */\n    tag_19:\n        /* \"Contracts/AKEB.sol\":1187:1201  inputPublicKey */\n      dup1\n        /* \"Contracts/AKEB.sol\":1160:1170  publicKeys */\n      0x05\n        /* \"Contracts/AKEB.sol\":1160:1184  publicKeys[inputAddress] */\n      0x00\n        /* \"Contracts/AKEB.sol\":1171:1183  inputAddress */\n      dup5\n        /* \"Contracts/AKEB.sol\":1160:1184  publicKeys[inputAddress] */\n      0xffffffffffffffffffffffffffffffffffffffff\n      and\n      0xffffffffffffffffffffffffffffffffffffffff\n      and\n      dup2\n      mstore\n      0x20\n      add\n      swap1\n      dup2\n      mstore\n      0x20\n      add\n      0x00\n      keccak256\n        /* \"Contracts/AKEB.sol\":1160:1201  publicKeys[inputAddress] = inputPublicKey */\n      dup2\n      swap1\n      sstore\n      pop\n        /* \"Contracts/AKEB.sol\":1072:1208  function submitPublicKeys(address inputAddress, uint256 inputPublicKey) public{... */\n      pop\n      pop\n      jump\t// out\n        /* \"Contracts/AKEB.sol\":132:162  string public assetDescription */\n    tag_21:\n      0x02\n      dup1\n      sload\n      tag_45\n      swap1\n      tag_46\n      jump\t// in\n    tag_45:\n      dup1\n      0x1f\n      add\n      0x20\n      dup1\n      swap2\n      div\n      mul\n      0x20\n      add\n      mload(0x40)\n      swap1\n      dup2\n      add\n      0x40\n      mstore\n      dup1\n      swap3\n      swap2\n      swap1\n      dup2\n      dup2\n      mstore\n      0x20\n      add\n      dup3\n      dup1\n      sload\n      tag_47\n      swap1\n      tag_46\n      jump\t// in\n    tag_47:\n      dup1\n      iszero\n      tag_48\n      jumpi\n      dup1\n      0x1f\n      lt\n      tag_49\n      jumpi\n      0x0100\n      dup1\n      dup4\n      sload\n      div\n      mul\n      dup4\n      mstore\n      swap2\n      0x20\n      add\n      swap2\n      jump(tag_48)\n    tag_49:\n      dup3\n      add\n      swap2\n      swap1\n      0x00\n      mstore\n      keccak256(0x00, 0x20)\n      swap1\n    tag_50:\n      dup2\n      sload\n      dup2\n      mstore\n      swap1\n      0x01\n      add\n      swap1\n      0x20\n      add\n      dup1\n      dup4\n      gt\n      tag_50\n      jumpi\n      dup3\n      swap1\n      sub\n      0x1f\n      and\n      dup3\n      add\n      swap2\n    tag_48:\n      pop\n      pop\n      pop\n      pop\n      pop\n      dup2\n      jump\t// out\n        /* \"Contracts/AKEB.sol\":239:284  mapping(address => uint256) public publicKeys */\n    tag_27:\n      mstore(0x20, 0x05)\n      dup1\n      0x00\n      mstore\n      keccak256(0x00, 0x40)\n      0x00\n      swap2\n      pop\n      swap1\n      pop\n      sload\n      dup2\n      jump\t// out\n        /* \"Contracts/AKEB.sol\":102:126  address[] public bidders */\n    tag_32:\n      0x01\n      dup2\n      dup2\n      sload\n      dup2\n      lt\n      tag_51\n      jumpi\n      0x00\n      dup1\n      revert\n    tag_51:\n      swap1\n      0x00\n      mstore\n      keccak256(0x00, 0x20)\n      add\n      0x00\n      swap2\n      pop\n      sload\n      swap1\n      0x0100\n      exp\n      swap1\n      div\n      0xffffffffffffffffffffffffffffffffffffffff\n      and\n      dup2\n      jump\t// out\n        /* \"Contracts/AKEB.sol\":200:233  uint256 public minNumberOfBidders */\n    tag_36:\n      sload(0x04)\n      dup2\n      jump\t// out\n        /* \"Contracts/AKEB.sol\":637:952  function registerAuctionInfo(string memory assetDescriptionInput, ... */\n    tag_41:\n        /* \"Contracts/AKEB.sol\":414:424  auctioneer */\n      0x00\n      dup1\n      sload\n      swap1\n      0x0100\n      exp\n      swap1\n      div\n      0xffffffffffffffffffffffffffffffffffffffff\n      and\n        /* \"Contracts/AKEB.sol\":400:424  msg.sender == auctioneer */\n      0xffffffffffffffffffffffffffffffffffffffff\n      and\n        /* \"Contracts/AKEB.sol\":400:410  msg.sender */\n      caller\n        /* \"Contracts/AKEB.sol\":400:424  msg.sender == auctioneer */\n      0xffffffffffffffffffffffffffffffffffffffff\n      and\n      eq\n        /* \"Contracts/AKEB.sol\":392:468  require(msg.sender == auctioneer, \"Only auctioneer can call this function.\") */\n      tag_54\n      jumpi\n      mload(0x40)\n      0x08c379a000000000000000000000000000000000000000000000000000000000\n      dup2\n      mstore\n      0x04\n      add\n      tag_55\n      swap1\n      tag_56\n      jump\t// in\n    tag_55:\n      mload(0x40)\n      dup1\n      swap2\n      sub\n      swap1\n      revert\n    tag_54:\n        /* \"Contracts/AKEB.sol\":830:851  assetDescriptionInput */\n      dup3\n        /* \"Contracts/AKEB.sol\":811:827  assetDescription */\n      0x02\n        /* \"Contracts/AKEB.sol\":811:851  assetDescription = assetDescriptionInput */\n      swap1\n      dup1\n      mload\n      swap1\n      0x20\n      add\n      swap1\n      tag_58\n      swap3\n      swap2\n      swap1\n      tag_59\n      jump\t// in\n    tag_58:\n      pop\n        /* \"Contracts/AKEB.sol\":875:891  minBidPriceInput */\n      dup2\n        /* \"Contracts/AKEB.sol\":861:872  minBidPrice */\n      0x03\n        /* \"Contracts/AKEB.sol\":861:891  minBidPrice = minBidPriceInput */\n      dup2\n      swap1\n      sstore\n      pop\n        /* \"Contracts/AKEB.sol\":922:945  minNumberOfBiddersInput */\n      dup1\n        /* \"Contracts/AKEB.sol\":901:919  minNumberOfBidders */\n      0x04\n        /* \"Contracts/AKEB.sol\":901:945  minNumberOfBidders = minNumberOfBiddersInput */\n      dup2\n      swap1\n      sstore\n      pop\n        /* \"Contracts/AKEB.sol\":637:952  function registerAuctionInfo(string memory assetDescriptionInput, ... */\n      pop\n      pop\n      pop\n      jump\t// out\n        /* \"Contracts/AKEB.sol\":958:1066  function registerBidder() public noAuctioneerInBidderRegistering() {... */\n    tag_43:\n        /* \"Contracts/AKEB.sol\":558:568  auctioneer */\n      0x00\n      dup1\n      sload\n      swap1\n      0x0100\n      exp\n      swap1\n      div\n      0xffffffffffffffffffffffffffffffffffffffff\n      and\n        /* \"Contracts/AKEB.sol\":544:568  msg.sender != auctioneer */\n      0xffffffffffffffffffffffffffffffffffffffff\n      and\n        /* \"Contracts/AKEB.sol\":544:554  msg.sender */\n      caller\n        /* \"Contracts/AKEB.sol\":544:568  msg.sender != auctioneer */\n      0xffffffffffffffffffffffffffffffffffffffff\n      and\n      sub\n        /* \"Contracts/AKEB.sol\":536:622  require(msg.sender != auctioneer, \"Auctioneer is not allowed to register as a bidder\") */\n      tag_61\n      jumpi\n      mload(0x40)\n      0x08c379a000000000000000000000000000000000000000000000000000000000\n      dup2\n      mstore\n      0x04\n      add\n      tag_62\n      swap1\n      tag_63\n      jump\t// in\n    tag_62:\n      mload(0x40)\n      dup1\n      swap2\n      sub\n      swap1\n      revert\n    tag_61:\n        /* \"Contracts/AKEB.sol\":1035:1042  bidders */\n      0x01\n        /* \"Contracts/AKEB.sol\":1048:1058  msg.sender */\n      caller\n        /* \"Contracts/AKEB.sol\":1035:1059  bidders.push(msg.sender) */\n      swap1\n      dup1\n      0x01\n      dup2\n      sload\n      add\n      dup1\n      dup3\n      sstore\n      dup1\n      swap2\n      pop\n      pop\n      0x01\n      swap1\n      sub\n      swap1\n      0x00\n      mstore\n      keccak256(0x00, 0x20)\n      add\n      0x00\n      swap1\n      swap2\n      swap1\n      swap2\n      swap1\n      swap2\n      0x0100\n      exp\n      dup2\n      sload\n      dup2\n      0xffffffffffffffffffffffffffffffffffffffff\n      mul\n      not\n      and\n      swap1\n      dup4\n      0xffffffffffffffffffffffffffffffffffffffff\n      and\n      mul\n      or\n      swap1\n      sstore\n      pop\n        /* \"Contracts/AKEB.sol\":958:1066  function registerBidder() public noAuctioneerInBidderRegistering() {... */\n      jump\t// out\n    tag_59:\n      dup3\n      dup1\n      sload\n      tag_66\n      swap1\n      tag_46\n      jump\t// in\n    tag_66:\n      swap1\n      0x00\n      mstore\n      keccak256(0x00, 0x20)\n      swap1\n      0x1f\n      add\n      0x20\n      swap1\n      div\n      dup2\n      add\n      swap3\n      dup3\n      tag_68\n      jumpi\n      0x00\n      dup6\n      sstore\n      jump(tag_67)\n    tag_68:\n      dup3\n      0x1f\n      lt\n      tag_69\n      jumpi\n      dup1\n      mload\n      not(0xff)\n      and\n      dup4\n      dup1\n      add\n      or\n      dup6\n      sstore\n      jump(tag_67)\n    tag_69:\n      dup3\n      dup1\n      add\n      0x01\n      add\n      dup6\n      sstore\n      dup3\n      iszero\n      tag_67\n      jumpi\n      swap2\n      dup3\n      add\n    tag_70:\n      dup3\n      dup2\n      gt\n      iszero\n      tag_71\n      jumpi\n      dup3\n      mload\n      dup3\n      sstore\n      swap2\n      0x20\n      add\n      swap2\n      swap1\n      0x01\n      add\n      swap1\n      jump(tag_70)\n    tag_71:\n    tag_67:\n      pop\n      swap1\n      pop\n      tag_72\n      swap2\n      swap1\n      tag_73\n      jump\t// in\n    tag_72:\n      pop\n      swap1\n      jump\t// out\n    tag_73:\n    tag_74:\n      dup1\n      dup3\n      gt\n      iszero\n      tag_75\n      jumpi\n      0x00\n      dup2\n      0x00\n      swap1\n      sstore\n      pop\n      0x01\n      add\n      jump(tag_74)\n    tag_75:\n      pop\n      swap1\n      jump\t// out\n        /* \"#utility.yul\":7:84   */\n    tag_76:\n        /* \"#utility.yul\":44:51   */\n      0x00\n        /* \"#utility.yul\":73:78   */\n      dup2\n        /* \"#utility.yul\":62:78   */\n      swap1\n      pop\n        /* \"#utility.yul\":7:84   */\n      swap2\n      swap1\n      pop\n      jump\t// out\n        /* \"#utility.yul\":90:208   */\n    tag_77:\n        /* \"#utility.yul\":177:201   */\n      tag_110\n        /* \"#utility.yul\":195:200   */\n      dup2\n        /* \"#utility.yul\":177:201   */\n      tag_76\n      jump\t// in\n    tag_110:\n        /* \"#utility.yul\":172:175   */\n      dup3\n        /* \"#utility.yul\":165:202   */\n      mstore\n        /* \"#utility.yul\":90:208   */\n      pop\n      pop\n      jump\t// out\n        /* \"#utility.yul\":214:436   */\n    tag_15:\n        /* \"#utility.yul\":307:311   */\n      0x00\n        /* \"#utility.yul\":345:347   */\n      0x20\n        /* \"#utility.yul\":334:343   */\n      dup3\n        /* \"#utility.yul\":330:348   */\n      add\n        /* \"#utility.yul\":322:348   */\n      swap1\n      pop\n        /* \"#utility.yul\":358:429   */\n      tag_112\n        /* \"#utility.yul\":426:427   */\n      0x00\n        /* \"#utility.yul\":415:424   */\n      dup4\n        /* \"#utility.yul\":411:428   */\n      add\n        /* \"#utility.yul\":402:408   */\n      dup5\n        /* \"#utility.yul\":358:429   */\n      tag_77\n      jump\t// in\n    tag_112:\n        /* \"#utility.yul\":214:436   */\n      swap3\n      swap2\n      pop\n      pop\n      jump\t// out\n        /* \"#utility.yul\":442:517   */\n    tag_78:\n        /* \"#utility.yul\":475:481   */\n      0x00\n        /* \"#utility.yul\":508:510   */\n      0x40\n        /* \"#utility.yul\":502:511   */\n      mload\n        /* \"#utility.yul\":492:511   */\n      swap1\n      pop\n        /* \"#utility.yul\":442:517   */\n      swap1\n      jump\t// out\n        /* \"#utility.yul\":523:640   */\n    tag_79:\n        /* \"#utility.yul\":632:633   */\n      0x00\n        /* \"#utility.yul\":629:630   */\n      dup1\n        /* \"#utility.yul\":622:634   */\n      revert\n        /* \"#utility.yul\":646:763   */\n    tag_80:\n        /* \"#utility.yul\":755:756   */\n      0x00\n        /* \"#utility.yul\":752:753   */\n      dup1\n        /* \"#utility.yul\":745:757   */\n      revert\n        /* \"#utility.yul\":769:895   */\n    tag_81:\n        /* \"#utility.yul\":806:813   */\n      0x00\n        /* \"#utility.yul\":846:888   */\n      0xffffffffffffffffffffffffffffffffffffffff\n        /* \"#utility.yul\":839:844   */\n      dup3\n        /* \"#utility.yul\":835:889   */\n      and\n        /* \"#utility.yul\":824:889   */\n      swap1\n      pop\n        /* \"#utility.yul\":769:895   */\n      swap2\n      swap1\n      pop\n      jump\t// out\n        /* \"#utility.yul\":901:997   */\n    tag_82:\n        /* \"#utility.yul\":938:945   */\n      0x00\n        /* \"#utility.yul\":967:991   */\n      tag_118\n        /* \"#utility.yul\":985:990   */\n      dup3\n        /* \"#utility.yul\":967:991   */\n      tag_81\n      jump\t// in\n    tag_118:\n        /* \"#utility.yul\":956:991   */\n      swap1\n      pop\n        /* \"#utility.yul\":901:997   */\n      swap2\n      swap1\n      pop\n      jump\t// out\n        /* \"#utility.yul\":1003:1125   */\n    tag_83:\n        /* \"#utility.yul\":1076:1100   */\n      tag_120\n        /* \"#utility.yul\":1094:1099   */\n      dup2\n        /* \"#utility.yul\":1076:1100   */\n      tag_82\n      jump\t// in\n    tag_120:\n        /* \"#utility.yul\":1069:1074   */\n      dup2\n        /* \"#utility.yul\":1066:1101   */\n      eq\n        /* \"#utility.yul\":1056:1119   */\n      tag_121\n      jumpi\n        /* \"#utility.yul\":1115:1116   */\n      0x00\n        /* \"#utility.yul\":1112:1113   */\n      dup1\n        /* \"#utility.yul\":1105:1117   */\n      revert\n        /* \"#utility.yul\":1056:1119   */\n    tag_121:\n        /* \"#utility.yul\":1003:1125   */\n      pop\n      jump\t// out\n        /* \"#utility.yul\":1131:1270   */\n    tag_84:\n        /* \"#utility.yul\":1177:1182   */\n      0x00\n        /* \"#utility.yul\":1215:1221   */\n      dup2\n        /* \"#utility.yul\":1202:1222   */\n      calldataload\n        /* \"#utility.yul\":1193:1222   */\n      swap1\n      pop\n        /* \"#utility.yul\":1231:1264   */\n      tag_123\n        /* \"#utility.yul\":1258:1263   */\n      dup2\n        /* \"#utility.yul\":1231:1264   */\n      tag_83\n      jump\t// in\n    tag_123:\n        /* \"#utility.yul\":1131:1270   */\n      swap3\n      swap2\n      pop\n      pop\n      jump\t// out\n        /* \"#utility.yul\":1276:1398   */\n    tag_85:\n        /* \"#utility.yul\":1349:1373   */\n      tag_125\n        /* \"#utility.yul\":1367:1372   */\n      dup2\n        /* \"#utility.yul\":1349:1373   */\n      tag_76\n      jump\t// in\n    tag_125:\n        /* \"#utility.yul\":1342:1347   */\n      dup2\n        /* \"#utility.yul\":1339:1374   */\n      eq\n        /* \"#utility.yul\":1329:1392   */\n      tag_126\n      jumpi\n        /* \"#utility.yul\":1388:1389   */\n      0x00\n        /* \"#utility.yul\":1385:1386   */\n      dup1\n        /* \"#utility.yul\":1378:1390   */\n      revert\n        /* \"#utility.yul\":1329:1392   */\n    tag_126:\n        /* \"#utility.yul\":1276:1398   */\n      pop\n      jump\t// out\n        /* \"#utility.yul\":1404:1543   */\n    tag_86:\n        /* \"#utility.yul\":1450:1455   */\n      0x00\n        /* \"#utility.yul\":1488:1494   */\n      dup2\n        /* \"#utility.yul\":1475:1495   */\n      calldataload\n        /* \"#utility.yul\":1466:1495   */\n      swap1\n      pop\n        /* \"#utility.yul\":1504:1537   */\n      tag_128\n        /* \"#utility.yul\":1531:1536   */\n      dup2\n        /* \"#utility.yul\":1504:1537   */\n      tag_85\n      jump\t// in\n    tag_128:\n        /* \"#utility.yul\":1404:1543   */\n      swap3\n      swap2\n      pop\n      pop\n      jump\t// out\n        /* \"#utility.yul\":1549:2023   */\n    tag_18:\n        /* \"#utility.yul\":1617:1623   */\n      0x00\n        /* \"#utility.yul\":1625:1631   */\n      dup1\n        /* \"#utility.yul\":1674:1676   */\n      0x40\n        /* \"#utility.yul\":1662:1671   */\n      dup4\n        /* \"#utility.yul\":1653:1660   */\n      dup6\n        /* \"#utility.yul\":1649:1672   */\n      sub\n        /* \"#utility.yul\":1645:1677   */\n      slt\n        /* \"#utility.yul\":1642:1761   */\n      iszero\n      tag_130\n      jumpi\n        /* \"#utility.yul\":1680:1759   */\n      tag_131\n      tag_79\n      jump\t// in\n    tag_131:\n        /* \"#utility.yul\":1642:1761   */\n    tag_130:\n        /* \"#utility.yul\":1800:1801   */\n      0x00\n        /* \"#utility.yul\":1825:1878   */\n      tag_132\n        /* \"#utility.yul\":1870:1877   */\n      dup6\n        /* \"#utility.yul\":1861:1867   */\n      dup3\n        /* \"#utility.yul\":1850:1859   */\n      dup7\n        /* \"#utility.yul\":1846:1868   */\n      add\n        /* \"#utility.yul\":1825:1878   */\n      tag_84\n      jump\t// in\n    tag_132:\n        /* \"#utility.yul\":1815:1878   */\n      swap3\n      pop\n        /* \"#utility.yul\":1771:1888   */\n      pop\n        /* \"#utility.yul\":1927:1929   */\n      0x20\n        /* \"#utility.yul\":1953:2006   */\n      tag_133\n        /* \"#utility.yul\":1998:2005   */\n      dup6\n        /* \"#utility.yul\":1989:1995   */\n      dup3\n        /* \"#utility.yul\":1978:1987   */\n      dup7\n        /* \"#utility.yul\":1974:1996   */\n      add\n        /* \"#utility.yul\":1953:2006   */\n      tag_86\n      jump\t// in\n    tag_133:\n        /* \"#utility.yul\":1943:2006   */\n      swap2\n      pop\n        /* \"#utility.yul\":1898:2016   */\n      pop\n        /* \"#utility.yul\":1549:2023   */\n      swap3\n      pop\n      swap3\n      swap1\n      pop\n      jump\t// out\n        /* \"#utility.yul\":2029:2128   */\n    tag_87:\n        /* \"#utility.yul\":2081:2087   */\n      0x00\n        /* \"#utility.yul\":2115:2120   */\n      dup2\n        /* \"#utility.yul\":2109:2121   */\n      mload\n        /* \"#utility.yul\":2099:2121   */\n      swap1\n      pop\n        /* \"#utility.yul\":2029:2128   */\n      swap2\n      swap1\n      pop\n      jump\t// out\n        /* \"#utility.yul\":2134:2303   */\n    tag_88:\n        /* \"#utility.yul\":2218:2229   */\n      0x00\n        /* \"#utility.yul\":2252:2258   */\n      dup3\n        /* \"#utility.yul\":2247:2250   */\n      dup3\n        /* \"#utility.yul\":2240:2259   */\n      mstore\n        /* \"#utility.yul\":2292:2296   */\n      0x20\n        /* \"#utility.yul\":2287:2290   */\n      dup3\n        /* \"#utility.yul\":2283:2297   */\n      add\n        /* \"#utility.yul\":2268:2297   */\n      swap1\n      pop\n        /* \"#utility.yul\":2134:2303   */\n      swap3\n      swap2\n      pop\n      pop\n      jump\t// out\n        /* \"#utility.yul\":2309:2616   */\n    tag_89:\n        /* \"#utility.yul\":2377:2378   */\n      0x00\n        /* \"#utility.yul\":2387:2500   */\n    tag_137:\n        /* \"#utility.yul\":2401:2407   */\n      dup4\n        /* \"#utility.yul\":2398:2399   */\n      dup2\n        /* \"#utility.yul\":2395:2408   */\n      lt\n        /* \"#utility.yul\":2387:2500   */\n      iszero\n      tag_139\n      jumpi\n        /* \"#utility.yul\":2486:2487   */\n      dup1\n        /* \"#utility.yul\":2481:2484   */\n      dup3\n        /* \"#utility.yul\":2477:2488   */\n      add\n        /* \"#utility.yul\":2471:2489   */\n      mload\n        /* \"#utility.yul\":2467:2468   */\n      dup2\n        /* \"#utility.yul\":2462:2465   */\n      dup5\n        /* \"#utility.yul\":2458:2469   */\n      add\n        /* \"#utility.yul\":2451:2490   */\n      mstore\n        /* \"#utility.yul\":2423:2425   */\n      0x20\n        /* \"#utility.yul\":2420:2421   */\n      dup2\n        /* \"#utility.yul\":2416:2426   */\n      add\n        /* \"#utility.yul\":2411:2426   */\n      swap1\n      pop\n        /* \"#utility.yul\":2387:2500   */\n      jump(tag_137)\n    tag_139:\n        /* \"#utility.yul\":2518:2524   */\n      dup4\n        /* \"#utility.yul\":2515:2516   */\n      dup2\n        /* \"#utility.yul\":2512:2525   */\n      gt\n        /* \"#utility.yul\":2509:2610   */\n      iszero\n      tag_140\n      jumpi\n        /* \"#utility.yul\":2598:2599   */\n      0x00\n        /* \"#utility.yul\":2589:2595   */\n      dup5\n        /* \"#utility.yul\":2584:2587   */\n      dup5\n        /* \"#utility.yul\":2580:2596   */\n      add\n        /* \"#utility.yul\":2573:2600   */\n      mstore\n        /* \"#utility.yul\":2509:2610   */\n    tag_140:\n        /* \"#utility.yul\":2358:2616   */\n      pop\n        /* \"#utility.yul\":2309:2616   */\n      pop\n      pop\n      pop\n      jump\t// out\n        /* \"#utility.yul\":2622:2724   */\n    tag_90:\n        /* \"#utility.yul\":2663:2669   */\n      0x00\n        /* \"#utility.yul\":2714:2716   */\n      0x1f\n        /* \"#utility.yul\":2710:2717   */\n      not\n        /* \"#utility.yul\":2705:2707   */\n      0x1f\n        /* \"#utility.yul\":2698:2703   */\n      dup4\n        /* \"#utility.yul\":2694:2708   */\n      add\n        /* \"#utility.yul\":2690:2718   */\n      and\n        /* \"#utility.yul\":2680:2718   */\n      swap1\n      pop\n        /* \"#utility.yul\":2622:2724   */\n      swap2\n      swap1\n      pop\n      jump\t// out\n        /* \"#utility.yul\":2730:3094   */\n    tag_91:\n        /* \"#utility.yul\":2818:2821   */\n      0x00\n        /* \"#utility.yul\":2846:2885   */\n      tag_143\n        /* \"#utility.yul\":2879:2884   */\n      dup3\n        /* \"#utility.yul\":2846:2885   */\n      tag_87\n      jump\t// in\n    tag_143:\n        /* \"#utility.yul\":2901:2972   */\n      tag_144\n        /* \"#utility.yul\":2965:2971   */\n      dup2\n        /* \"#utility.yul\":2960:2963   */\n      dup6\n        /* \"#utility.yul\":2901:2972   */\n      tag_88\n      jump\t// in\n    tag_144:\n        /* \"#utility.yul\":2894:2972   */\n      swap4\n      pop\n        /* \"#utility.yul\":2981:3033   */\n      tag_145\n        /* \"#utility.yul\":3026:3032   */\n      dup2\n        /* \"#utility.yul\":3021:3024   */\n      dup6\n        /* \"#utility.yul\":3014:3018   */\n      0x20\n        /* \"#utility.yul\":3007:3012   */\n      dup7\n        /* \"#utility.yul\":3003:3019   */\n      add\n        /* \"#utility.yul\":2981:3033   */\n      tag_89\n      jump\t// in\n    tag_145:\n        /* \"#utility.yul\":3058:3087   */\n      tag_146\n        /* \"#utility.yul\":3080:3086   */\n      dup2\n        /* \"#utility.yul\":3058:3087   */\n      tag_90\n      jump\t// in\n    tag_146:\n        /* \"#utility.yul\":3053:3056   */\n      dup5\n        /* \"#utility.yul\":3049:3088   */\n      add\n        /* \"#utility.yul\":3042:3088   */\n      swap2\n      pop\n        /* \"#utility.yul\":2822:3094   */\n      pop\n        /* \"#utility.yul\":2730:3094   */\n      swap3\n      swap2\n      pop\n      pop\n      jump\t// out\n        /* \"#utility.yul\":3100:3413   */\n    tag_23:\n        /* \"#utility.yul\":3213:3217   */\n      0x00\n        /* \"#utility.yul\":3251:3253   */\n      0x20\n        /* \"#utility.yul\":3240:3249   */\n      dup3\n        /* \"#utility.yul\":3236:3254   */\n      add\n        /* \"#utility.yul\":3228:3254   */\n      swap1\n      pop\n        /* \"#utility.yul\":3300:3309   */\n      dup2\n        /* \"#utility.yul\":3294:3298   */\n      dup2\n        /* \"#utility.yul\":3290:3310   */\n      sub\n        /* \"#utility.yul\":3286:3287   */\n      0x00\n        /* \"#utility.yul\":3275:3284   */\n      dup4\n        /* \"#utility.yul\":3271:3288   */\n      add\n        /* \"#utility.yul\":3264:3311   */\n      mstore\n        /* \"#utility.yul\":3328:3406   */\n      tag_148\n        /* \"#utility.yul\":3401:3405   */\n      dup2\n        /* \"#utility.yul\":3392:3398   */\n      dup5\n        /* \"#utility.yul\":3328:3406   */\n      tag_91\n      jump\t// in\n    tag_148:\n        /* \"#utility.yul\":3320:3406   */\n      swap1\n      pop\n        /* \"#utility.yul\":3100:3413   */\n      swap3\n      swap2\n      pop\n      pop\n      jump\t// out\n        /* \"#utility.yul\":3419:3748   */\n    tag_26:\n        /* \"#utility.yul\":3478:3484   */\n      0x00\n        /* \"#utility.yul\":3527:3529   */\n      0x20\n        /* \"#utility.yul\":3515:3524   */\n      dup3\n        /* \"#utility.yul\":3506:3513   */\n      dup5\n        /* \"#utility.yul\":3502:3525   */\n      sub\n        /* \"#utility.yul\":3498:3530   */\n      slt\n        /* \"#utility.yul\":3495:3614   */\n      iszero\n      tag_150\n      jumpi\n        /* \"#utility.yul\":3533:3612   */\n      tag_151\n      tag_79\n      jump\t// in\n    tag_151:\n        /* \"#utility.yul\":3495:3614   */\n    tag_150:\n        /* \"#utility.yul\":3653:3654   */\n      0x00\n        /* \"#utility.yul\":3678:3731   */\n      tag_152\n        /* \"#utility.yul\":3723:3730   */\n      dup5\n        /* \"#utility.yul\":3714:3720   */\n      dup3\n        /* \"#utility.yul\":3703:3712   */\n      dup6\n        /* \"#utility.yul\":3699:3721   */\n      add\n        /* \"#utility.yul\":3678:3731   */\n      tag_84\n      jump\t// in\n    tag_152:\n        /* \"#utility.yul\":3668:3731   */\n      swap2\n      pop\n        /* \"#utility.yul\":3624:3741   */\n      pop\n        /* \"#utility.yul\":3419:3748   */\n      swap3\n      swap2\n      pop\n      pop\n      jump\t// out\n        /* \"#utility.yul\":3754:4083   */\n    tag_31:\n        /* \"#utility.yul\":3813:3819   */\n      0x00\n        /* \"#utility.yul\":3862:3864   */\n      0x20\n        /* \"#utility.yul\":3850:3859   */\n      dup3\n        /* \"#utility.yul\":3841:3848   */\n      dup5\n        /* \"#utility.yul\":3837:3860   */\n      sub\n        /* \"#utility.yul\":3833:3865   */\n      slt\n        /* \"#utility.yul\":3830:3949   */\n      iszero\n      tag_154\n      jumpi\n        /* \"#utility.yul\":3868:3947   */\n      tag_155\n      tag_79\n      jump\t// in\n    tag_155:\n        /* \"#utility.yul\":3830:3949   */\n    tag_154:\n        /* \"#utility.yul\":3988:3989   */\n      0x00\n        /* \"#utility.yul\":4013:4066   */\n      tag_156\n        /* \"#utility.yul\":4058:4065   */\n      dup5\n        /* \"#utility.yul\":4049:4055   */\n      dup3\n        /* \"#utility.yul\":4038:4047   */\n      dup6\n        /* \"#utility.yul\":4034:4056   */\n      add\n        /* \"#utility.yul\":4013:4066   */\n      tag_86\n      jump\t// in\n    tag_156:\n        /* \"#utility.yul\":4003:4066   */\n      swap2\n      pop\n        /* \"#utility.yul\":3959:4076   */\n      pop\n        /* \"#utility.yul\":3754:4083   */\n      swap3\n      swap2\n      pop\n      pop\n      jump\t// out\n        /* \"#utility.yul\":4089:4207   */\n    tag_92:\n        /* \"#utility.yul\":4176:4200   */\n      tag_158\n        /* \"#utility.yul\":4194:4199   */\n      dup2\n        /* \"#utility.yul\":4176:4200   */\n      tag_82\n      jump\t// in\n    tag_158:\n        /* \"#utility.yul\":4171:4174   */\n      dup3\n        /* \"#utility.yul\":4164:4201   */\n      mstore\n        /* \"#utility.yul\":4089:4207   */\n      pop\n      pop\n      jump\t// out\n        /* \"#utility.yul\":4213:4435   */\n    tag_34:\n        /* \"#utility.yul\":4306:4310   */\n      0x00\n        /* \"#utility.yul\":4344:4346   */\n      0x20\n        /* \"#utility.yul\":4333:4342   */\n      dup3\n        /* \"#utility.yul\":4329:4347   */\n      add\n        /* \"#utility.yul\":4321:4347   */\n      swap1\n      pop\n        /* \"#utility.yul\":4357:4428   */\n      tag_160\n        /* \"#utility.yul\":4425:4426   */\n      0x00\n        /* \"#utility.yul\":4414:4423   */\n      dup4\n        /* \"#utility.yul\":4410:4427   */\n      add\n        /* \"#utility.yul\":4401:4407   */\n      dup5\n        /* \"#utility.yul\":4357:4428   */\n      tag_92\n      jump\t// in\n    tag_160:\n        /* \"#utility.yul\":4213:4435   */\n      swap3\n      swap2\n      pop\n      pop\n      jump\t// out\n        /* \"#utility.yul\":4441:4558   */\n    tag_93:\n        /* \"#utility.yul\":4550:4551   */\n      0x00\n        /* \"#utility.yul\":4547:4548   */\n      dup1\n        /* \"#utility.yul\":4540:4552   */\n      revert\n        /* \"#utility.yul\":4564:4681   */\n    tag_94:\n        /* \"#utility.yul\":4673:4674   */\n      0x00\n        /* \"#utility.yul\":4670:4671   */\n      dup1\n        /* \"#utility.yul\":4663:4675   */\n      revert\n        /* \"#utility.yul\":4687:4867   */\n    tag_95:\n        /* \"#utility.yul\":4735:4812   */\n      0x4e487b7100000000000000000000000000000000000000000000000000000000\n        /* \"#utility.yul\":4732:4733   */\n      0x00\n        /* \"#utility.yul\":4725:4813   */\n      mstore\n        /* \"#utility.yul\":4832:4836   */\n      0x41\n        /* \"#utility.yul\":4829:4830   */\n      0x04\n        /* \"#utility.yul\":4822:4837   */\n      mstore\n        /* \"#utility.yul\":4856:4860   */\n      0x24\n        /* \"#utility.yul\":4853:4854   */\n      0x00\n        /* \"#utility.yul\":4846:4861   */\n      revert\n        /* \"#utility.yul\":4873:5154   */\n    tag_96:\n        /* \"#utility.yul\":4956:4983   */\n      tag_165\n        /* \"#utility.yul\":4978:4982   */\n      dup3\n        /* \"#utility.yul\":4956:4983   */\n      tag_90\n      jump\t// in\n    tag_165:\n        /* \"#utility.yul\":4948:4954   */\n      dup2\n        /* \"#utility.yul\":4944:4984   */\n      add\n        /* \"#utility.yul\":5086:5092   */\n      dup2\n        /* \"#utility.yul\":5074:5084   */\n      dup2\n        /* \"#utility.yul\":5071:5093   */\n      lt\n        /* \"#utility.yul\":5050:5068   */\n      0xffffffffffffffff\n        /* \"#utility.yul\":5038:5048   */\n      dup3\n        /* \"#utility.yul\":5035:5069   */\n      gt\n        /* \"#utility.yul\":5032:5094   */\n      or\n        /* \"#utility.yul\":5029:5117   */\n      iszero\n      tag_166\n      jumpi\n        /* \"#utility.yul\":5097:5115   */\n      tag_167\n      tag_95\n      jump\t// in\n    tag_167:\n        /* \"#utility.yul\":5029:5117   */\n    tag_166:\n        /* \"#utility.yul\":5137:5147   */\n      dup1\n        /* \"#utility.yul\":5133:5135   */\n      0x40\n        /* \"#utility.yul\":5126:5148   */\n      mstore\n        /* \"#utility.yul\":4916:5154   */\n      pop\n        /* \"#utility.yul\":4873:5154   */\n      pop\n      pop\n      jump\t// out\n        /* \"#utility.yul\":5160:5289   */\n    tag_97:\n        /* \"#utility.yul\":5194:5200   */\n      0x00\n        /* \"#utility.yul\":5221:5241   */\n      tag_169\n      tag_78\n      jump\t// in\n    tag_169:\n        /* \"#utility.yul\":5211:5241   */\n      swap1\n      pop\n        /* \"#utility.yul\":5250:5283   */\n      tag_170\n        /* \"#utility.yul\":5278:5282   */\n      dup3\n        /* \"#utility.yul\":5270:5276   */\n      dup3\n        /* \"#utility.yul\":5250:5283   */\n      tag_96\n      jump\t// in\n    tag_170:\n        /* \"#utility.yul\":5160:5289   */\n      swap2\n      swap1\n      pop\n      jump\t// out\n        /* \"#utility.yul\":5295:5603   */\n    tag_98:\n        /* \"#utility.yul\":5357:5361   */\n      0x00\n        /* \"#utility.yul\":5447:5465   */\n      0xffffffffffffffff\n        /* \"#utility.yul\":5439:5445   */\n      dup3\n        /* \"#utility.yul\":5436:5466   */\n      gt\n        /* \"#utility.yul\":5433:5489   */\n      iszero\n      tag_172\n      jumpi\n        /* \"#utility.yul\":5469:5487   */\n      tag_173\n      tag_95\n      jump\t// in\n    tag_173:\n        /* \"#utility.yul\":5433:5489   */\n    tag_172:\n        /* \"#utility.yul\":5507:5536   */\n      tag_174\n        /* \"#utility.yul\":5529:5535   */\n      dup3\n        /* \"#utility.yul\":5507:5536   */\n      tag_90\n      jump\t// in\n    tag_174:\n        /* \"#utility.yul\":5499:5536   */\n      swap1\n      pop\n        /* \"#utility.yul\":5591:5595   */\n      0x20\n        /* \"#utility.yul\":5585:5589   */\n      dup2\n        /* \"#utility.yul\":5581:5596   */\n      add\n        /* \"#utility.yul\":5573:5596   */\n      swap1\n      pop\n        /* \"#utility.yul\":5295:5603   */\n      swap2\n      swap1\n      pop\n      jump\t// out\n        /* \"#utility.yul\":5609:5763   */\n    tag_99:\n        /* \"#utility.yul\":5693:5699   */\n      dup3\n        /* \"#utility.yul\":5688:5691   */\n      dup2\n        /* \"#utility.yul\":5683:5686   */\n      dup4\n        /* \"#utility.yul\":5670:5700   */\n      calldatacopy\n        /* \"#utility.yul\":5755:5756   */\n      0x00\n        /* \"#utility.yul\":5746:5752   */\n      dup4\n        /* \"#utility.yul\":5741:5744   */\n      dup4\n        /* \"#utility.yul\":5737:5753   */\n      add\n        /* \"#utility.yul\":5730:5757   */\n      mstore\n        /* \"#utility.yul\":5609:5763   */\n      pop\n      pop\n      pop\n      jump\t// out\n        /* \"#utility.yul\":5769:6181   */\n    tag_100:\n        /* \"#utility.yul\":5847:5852   */\n      0x00\n        /* \"#utility.yul\":5872:5938   */\n      tag_177\n        /* \"#utility.yul\":5888:5937   */\n      tag_178\n        /* \"#utility.yul\":5930:5936   */\n      dup5\n        /* \"#utility.yul\":5888:5937   */\n      tag_98\n      jump\t// in\n    tag_178:\n        /* \"#utility.yul\":5872:5938   */\n      tag_97\n      jump\t// in\n    tag_177:\n        /* \"#utility.yul\":5863:5938   */\n      swap1\n      pop\n        /* \"#utility.yul\":5961:5967   */\n      dup3\n        /* \"#utility.yul\":5954:5959   */\n      dup2\n        /* \"#utility.yul\":5947:5968   */\n      mstore\n        /* \"#utility.yul\":5999:6003   */\n      0x20\n        /* \"#utility.yul\":5992:5997   */\n      dup2\n        /* \"#utility.yul\":5988:6004   */\n      add\n        /* \"#utility.yul\":6037:6040   */\n      dup5\n        /* \"#utility.yul\":6028:6034   */\n      dup5\n        /* \"#utility.yul\":6023:6026   */\n      dup5\n        /* \"#utility.yul\":6019:6035   */\n      add\n        /* \"#utility.yul\":6016:6041   */\n      gt\n        /* \"#utility.yul\":6013:6125   */\n      iszero\n      tag_179\n      jumpi\n        /* \"#utility.yul\":6044:6123   */\n      tag_180\n      tag_94\n      jump\t// in\n    tag_180:\n        /* \"#utility.yul\":6013:6125   */\n    tag_179:\n        /* \"#utility.yul\":6134:6175   */\n      tag_181\n        /* \"#utility.yul\":6168:6174   */\n      dup5\n        /* \"#utility.yul\":6163:6166   */\n      dup3\n        /* \"#utility.yul\":6158:6161   */\n      dup6\n        /* \"#utility.yul\":6134:6175   */\n      tag_99\n      jump\t// in\n    tag_181:\n        /* \"#utility.yul\":5853:6181   */\n      pop\n        /* \"#utility.yul\":5769:6181   */\n      swap4\n      swap3\n      pop\n      pop\n      pop\n      jump\t// out\n        /* \"#utility.yul\":6201:6541   */\n    tag_101:\n        /* \"#utility.yul\":6257:6262   */\n      0x00\n        /* \"#utility.yul\":6306:6309   */\n      dup3\n        /* \"#utility.yul\":6299:6303   */\n      0x1f\n        /* \"#utility.yul\":6291:6297   */\n      dup4\n        /* \"#utility.yul\":6287:6304   */\n      add\n        /* \"#utility.yul\":6283:6310   */\n      slt\n        /* \"#utility.yul\":6273:6395   */\n      tag_183\n      jumpi\n        /* \"#utility.yul\":6314:6393   */\n      tag_184\n      tag_93\n      jump\t// in\n    tag_184:\n        /* \"#utility.yul\":6273:6395   */\n    tag_183:\n        /* \"#utility.yul\":6431:6437   */\n      dup2\n        /* \"#utility.yul\":6418:6438   */\n      calldataload\n        /* \"#utility.yul\":6456:6535   */\n      tag_185\n        /* \"#utility.yul\":6531:6534   */\n      dup5\n        /* \"#utility.yul\":6523:6529   */\n      dup3\n        /* \"#utility.yul\":6516:6520   */\n      0x20\n        /* \"#utility.yul\":6508:6514   */\n      dup7\n        /* \"#utility.yul\":6504:6521   */\n      add\n        /* \"#utility.yul\":6456:6535   */\n      tag_100\n      jump\t// in\n    tag_185:\n        /* \"#utility.yul\":6447:6535   */\n      swap2\n      pop\n        /* \"#utility.yul\":6263:6541   */\n      pop\n        /* \"#utility.yul\":6201:6541   */\n      swap3\n      swap2\n      pop\n      pop\n      jump\t// out\n        /* \"#utility.yul\":6547:7346   */\n    tag_40:\n        /* \"#utility.yul\":6634:6640   */\n      0x00\n        /* \"#utility.yul\":6642:6648   */\n      dup1\n        /* \"#utility.yul\":6650:6656   */\n      0x00\n        /* \"#utility.yul\":6699:6701   */\n      0x60\n        /* \"#utility.yul\":6687:6696   */\n      dup5\n        /* \"#utility.yul\":6678:6685   */\n      dup7\n        /* \"#utility.yul\":6674:6697   */\n      sub\n        /* \"#utility.yul\":6670:6702   */\n      slt\n        /* \"#utility.yul\":6667:6786   */\n      iszero\n      tag_187\n      jumpi\n        /* \"#utility.yul\":6705:6784   */\n      tag_188\n      tag_79\n      jump\t// in\n    tag_188:\n        /* \"#utility.yul\":6667:6786   */\n    tag_187:\n        /* \"#utility.yul\":6853:6854   */\n      0x00\n        /* \"#utility.yul\":6842:6851   */\n      dup5\n        /* \"#utility.yul\":6838:6855   */\n      add\n        /* \"#utility.yul\":6825:6856   */\n      calldataload\n        /* \"#utility.yul\":6883:6901   */\n      0xffffffffffffffff\n        /* \"#utility.yul\":6875:6881   */\n      dup2\n        /* \"#utility.yul\":6872:6902   */\n      gt\n        /* \"#utility.yul\":6869:6986   */\n      iszero\n      tag_189\n      jumpi\n        /* \"#utility.yul\":6905:6984   */\n      tag_190\n      tag_80\n      jump\t// in\n    tag_190:\n        /* \"#utility.yul\":6869:6986   */\n    tag_189:\n        /* \"#utility.yul\":7010:7073   */\n      tag_191\n        /* \"#utility.yul\":7065:7072   */\n      dup7\n        /* \"#utility.yul\":7056:7062   */\n      dup3\n        /* \"#utility.yul\":7045:7054   */\n      dup8\n        /* \"#utility.yul\":7041:7063   */\n      add\n        /* \"#utility.yul\":7010:7073   */\n      tag_101\n      jump\t// in\n    tag_191:\n        /* \"#utility.yul\":7000:7073   */\n      swap4\n      pop\n        /* \"#utility.yul\":6796:7083   */\n      pop\n        /* \"#utility.yul\":7122:7124   */\n      0x20\n        /* \"#utility.yul\":7148:7201   */\n      tag_192\n        /* \"#utility.yul\":7193:7200   */\n      dup7\n        /* \"#utility.yul\":7184:7190   */\n      dup3\n        /* \"#utility.yul\":7173:7182   */\n      dup8\n        /* \"#utility.yul\":7169:7191   */\n      add\n        /* \"#utility.yul\":7148:7201   */\n      tag_86\n      jump\t// in\n    tag_192:\n        /* \"#utility.yul\":7138:7201   */\n      swap3\n      pop\n        /* \"#utility.yul\":7093:7211   */\n      pop\n        /* \"#utility.yul\":7250:7252   */\n      0x40\n        /* \"#utility.yul\":7276:7329   */\n      tag_193\n        /* \"#utility.yul\":7321:7328   */\n      dup7\n        /* \"#utility.yul\":7312:7318   */\n      dup3\n        /* \"#utility.yul\":7301:7310   */\n      dup8\n        /* \"#utility.yul\":7297:7319   */\n      add\n        /* \"#utility.yul\":7276:7329   */\n      tag_86\n      jump\t// in\n    tag_193:\n        /* \"#utility.yul\":7266:7329   */\n      swap2\n      pop\n        /* \"#utility.yul\":7221:7339   */\n      pop\n        /* \"#utility.yul\":6547:7346   */\n      swap3\n      pop\n      swap3\n      pop\n      swap3\n      jump\t// out\n        /* \"#utility.yul\":7352:7532   */\n    tag_102:\n        /* \"#utility.yul\":7400:7477   */\n      0x4e487b7100000000000000000000000000000000000000000000000000000000\n        /* \"#utility.yul\":7397:7398   */\n      0x00\n        /* \"#utility.yul\":7390:7478   */\n      mstore\n        /* \"#utility.yul\":7497:7501   */\n      0x22\n        /* \"#utility.yul\":7494:7495   */\n      0x04\n        /* \"#utility.yul\":7487:7502   */\n      mstore\n        /* \"#utility.yul\":7521:7525   */\n      0x24\n        /* \"#utility.yul\":7518:7519   */\n      0x00\n        /* \"#utility.yul\":7511:7526   */\n      revert\n        /* \"#utility.yul\":7538:7858   */\n    tag_46:\n        /* \"#utility.yul\":7582:7588   */\n      0x00\n        /* \"#utility.yul\":7619:7620   */\n      0x02\n        /* \"#utility.yul\":7613:7617   */\n      dup3\n        /* \"#utility.yul\":7609:7621   */\n      div\n        /* \"#utility.yul\":7599:7621   */\n      swap1\n      pop\n        /* \"#utility.yul\":7666:7667   */\n      0x01\n        /* \"#utility.yul\":7660:7664   */\n      dup3\n        /* \"#utility.yul\":7656:7668   */\n      and\n        /* \"#utility.yul\":7687:7705   */\n      dup1\n        /* \"#utility.yul\":7677:7758   */\n      tag_196\n      jumpi\n        /* \"#utility.yul\":7743:7747   */\n      0x7f\n        /* \"#utility.yul\":7735:7741   */\n      dup3\n        /* \"#utility.yul\":7731:7748   */\n      and\n        /* \"#utility.yul\":7721:7748   */\n      swap2\n      pop\n        /* \"#utility.yul\":7677:7758   */\n    tag_196:\n        /* \"#utility.yul\":7805:7807   */\n      0x20\n        /* \"#utility.yul\":7797:7803   */\n      dup3\n        /* \"#utility.yul\":7794:7808   */\n      lt\n        /* \"#utility.yul\":7774:7792   */\n      dup2\n        /* \"#utility.yul\":7771:7809   */\n      sub\n        /* \"#utility.yul\":7768:7852   */\n      tag_197\n      jumpi\n        /* \"#utility.yul\":7824:7842   */\n      tag_198\n      tag_102\n      jump\t// in\n    tag_198:\n        /* \"#utility.yul\":7768:7852   */\n    tag_197:\n        /* \"#utility.yul\":7589:7858   */\n      pop\n        /* \"#utility.yul\":7538:7858   */\n      swap2\n      swap1\n      pop\n      jump\t// out\n        /* \"#utility.yul\":7864:8090   */\n    tag_103:\n        /* \"#utility.yul\":8004:8038   */\n      0x4f6e6c792061756374696f6e6565722063616e2063616c6c2074686973206675\n        /* \"#utility.yul\":8000:8001   */\n      0x00\n        /* \"#utility.yul\":7992:7998   */\n      dup3\n        /* \"#utility.yul\":7988:8002   */\n      add\n        /* \"#utility.yul\":7981:8039   */\n      mstore\n        /* \"#utility.yul\":8073:8082   */\n      0x6e6374696f6e2e00000000000000000000000000000000000000000000000000\n        /* \"#utility.yul\":8068:8070   */\n      0x20\n        /* \"#utility.yul\":8060:8066   */\n      dup3\n        /* \"#utility.yul\":8056:8071   */\n      add\n        /* \"#utility.yul\":8049:8083   */\n      mstore\n        /* \"#utility.yul\":7864:8090   */\n      pop\n      jump\t// out\n        /* \"#utility.yul\":8096:8462   */\n    tag_104:\n        /* \"#utility.yul\":8238:8241   */\n      0x00\n        /* \"#utility.yul\":8259:8326   */\n      tag_201\n        /* \"#utility.yul\":8323:8325   */\n      0x27\n        /* \"#utility.yul\":8318:8321   */\n      dup4\n        /* \"#utility.yul\":8259:8326   */\n      tag_88\n      jump\t// in\n    tag_201:\n        /* \"#utility.yul\":8252:8326   */\n      swap2\n      pop\n        /* \"#utility.yul\":8335:8428   */\n      tag_202\n        /* \"#utility.yul\":8424:8427   */\n      dup3\n        /* \"#utility.yul\":8335:8428   */\n      tag_103\n      jump\t// in\n    tag_202:\n        /* \"#utility.yul\":8453:8455   */\n      0x40\n        /* \"#utility.yul\":8448:8451   */\n      dup3\n        /* \"#utility.yul\":8444:8456   */\n      add\n        /* \"#utility.yul\":8437:8456   */\n      swap1\n      pop\n        /* \"#utility.yul\":8096:8462   */\n      swap2\n      swap1\n      pop\n      jump\t// out\n        /* \"#utility.yul\":8468:8887   */\n    tag_56:\n        /* \"#utility.yul\":8634:8638   */\n      0x00\n        /* \"#utility.yul\":8672:8674   */\n      0x20\n        /* \"#utility.yul\":8661:8670   */\n      dup3\n        /* \"#utility.yul\":8657:8675   */\n      add\n        /* \"#utility.yul\":8649:8675   */\n      swap1\n      pop\n        /* \"#utility.yul\":8721:8730   */\n      dup2\n        /* \"#utility.yul\":8715:8719   */\n      dup2\n        /* \"#utility.yul\":8711:8731   */\n      sub\n        /* \"#utility.yul\":8707:8708   */\n      0x00\n        /* \"#utility.yul\":8696:8705   */\n      dup4\n        /* \"#utility.yul\":8692:8709   */\n      add\n        /* \"#utility.yul\":8685:8732   */\n      mstore\n        /* \"#utility.yul\":8749:8880   */\n      tag_204\n        /* \"#utility.yul\":8875:8879   */\n      dup2\n        /* \"#utility.yul\":8749:8880   */\n      tag_104\n      jump\t// in\n    tag_204:\n        /* \"#utility.yul\":8741:8880   */\n      swap1\n      pop\n        /* \"#utility.yul\":8468:8887   */\n      swap2\n      swap1\n      pop\n      jump\t// out\n        /* \"#utility.yul\":8893:9129   */\n    tag_105:\n        /* \"#utility.yul\":9033:9067   */\n      0x41756374696f6e656572206973206e6f7420616c6c6f77656420746f20726567\n        /* \"#utility.yul\":9029:9030   */\n      0x00\n        /* \"#utility.yul\":9021:9027   */\n      dup3\n        /* \"#utility.yul\":9017:9031   */\n      add\n        /* \"#utility.yul\":9010:9068   */\n      mstore\n        /* \"#utility.yul\":9102:9121   */\n      0x6973746572206173206120626964646572000000000000000000000000000000\n        /* \"#utility.yul\":9097:9099   */\n      0x20\n        /* \"#utility.yul\":9089:9095   */\n      dup3\n        /* \"#utility.yul\":9085:9100   */\n      add\n        /* \"#utility.yul\":9078:9122   */\n      mstore\n        /* \"#utility.yul\":8893:9129   */\n      pop\n      jump\t// out\n        /* \"#utility.yul\":9135:9501   */\n    tag_106:\n        /* \"#utility.yul\":9277:9280   */\n      0x00\n        /* \"#utility.yul\":9298:9365   */\n      tag_207\n        /* \"#utility.yul\":9362:9364   */\n      0x31\n        /* \"#utility.yul\":9357:9360   */\n      dup4\n        /* \"#utility.yul\":9298:9365   */\n      tag_88\n      jump\t// in\n    tag_207:\n        /* \"#utility.yul\":9291:9365   */\n      swap2\n      pop\n        /* \"#utility.yul\":9374:9467   */\n      tag_208\n        /* \"#utility.yul\":9463:9466   */\n      dup3\n        /* \"#utility.yul\":9374:9467   */\n      tag_105\n      jump\t// in\n    tag_208:\n        /* \"#utility.yul\":9492:9494   */\n      0x40\n        /* \"#utility.yul\":9487:9490   */\n      dup3\n        /* \"#utility.yul\":9483:9495   */\n      add\n        /* \"#utility.yul\":9476:9495   */\n      swap1\n      pop\n        /* \"#utility.yul\":9135:9501   */\n      swap2\n      swap1\n      pop\n      jump\t// out\n        /* \"#utility.yul\":9507:9926   */\n    tag_63:\n        /* \"#utility.yul\":9673:9677   */\n      0x00\n        /* \"#utility.yul\":9711:9713   */\n      0x20\n        /* \"#utility.yul\":9700:9709   */\n      dup3\n        /* \"#utility.yul\":9696:9714   */\n      add\n        /* \"#utility.yul\":9688:9714   */\n      swap1\n      pop\n        /* \"#utility.yul\":9760:9769   */\n      dup2\n        /* \"#utility.yul\":9754:9758   */\n      dup2\n        /* \"#utility.yul\":9750:9770   */\n      sub\n        /* \"#utility.yul\":9746:9747   */\n      0x00\n        /* \"#utility.yul\":9735:9744   */\n      dup4\n        /* \"#utility.yul\":9731:9748   */\n      add\n        /* \"#utility.yul\":9724:9771   */\n      mstore\n        /* \"#utility.yul\":9788:9919   */\n      tag_210\n        /* \"#utility.yul\":9914:9918   */\n      dup2\n        /* \"#utility.yul\":9788:9919   */\n      tag_106\n      jump\t// in\n    tag_210:\n        /* \"#utility.yul\":9780:9919   */\n      swap1\n      pop\n        /* \"#utility.yul\":9507:9926   */\n      swap2\n      swap1\n      pop\n      jump\t// out\n\n    auxdata: 0xa2646970667358221220ba1b99848748f5ce06ddfd3df02038b94a336c01e60ee4aeb922de512cb9db6864736f6c634300080e0033\n}\n",
				"bytecode": {
					"linkReferences": {},
					"object": "608060405234801561001057600080fd5b50336000806101000a81548173ffffffffffffffffffffffffffffffffffffffff021916908373ffffffffffffffffffffffffffffffffffffffff160217905550610abf806100606000396000f3fe608060405234801561001057600080fd5b50600436106100885760003560e01c8063cff29dfd1161005b578063cff29dfd14610115578063daa0218f14610145578063e7d2a99714610163578063f356733c1461017f57610088565b806334eb86a21461008d5780634d896bf7146100ab578063938626c2146100c7578063a3d6f9a9146100e5575b600080fd5b610095610189565b6040516100a29190610529565b60405180910390f35b6100c560048036038101906100c091906105e2565b61018f565b005b6100cf6101d7565b6040516100dc91906106bb565b60405180910390f35b6100ff60048036038101906100fa91906106dd565b610265565b60405161010c9190610529565b60405180910390f35b61012f600480360381019061012a919061070a565b61027d565b60405161013c9190610746565b60405180910390f35b61014d6102bc565b60405161015a9190610529565b60405180910390f35b61017d60048036038101906101789190610896565b6102c2565b005b61018761037a565b005b60035481565b80600560008473ffffffffffffffffffffffffffffffffffffffff1673ffffffffffffffffffffffffffffffffffffffff168152602001908152602001600020819055505050565b600280546101e490610934565b80601f016020809104026020016040519081016040528092919081815260200182805461021090610934565b801561025d5780601f106102325761010080835404028352916020019161025d565b820191906000526020600020905b81548152906001019060200180831161024057829003601f168201915b505050505081565b60056020528060005260406000206000915090505481565b6001818154811061028d57600080fd5b906000526020600020016000915054906101000a900473ffffffffffffffffffffffffffffffffffffffff1681565b60045481565b60008054906101000a900473ffffffffffffffffffffffffffffffffffffffff1673ffffffffffffffffffffffffffffffffffffffff163373ffffffffffffffffffffffffffffffffffffffff1614610350576040517f08c379a0000000000000000000000000000000000000000000000000000000008152600401610347906109d7565b60405180910390fd5b826002908051906020019061036692919061046d565b508160038190555080600481905550505050565b60008054906101000a900473ffffffffffffffffffffffffffffffffffffffff1673ffffffffffffffffffffffffffffffffffffffff163373ffffffffffffffffffffffffffffffffffffffff1603610408576040517f08c379a00000000000000000000000000000000000000000000000000000000081526004016103ff90610a69565b60405180910390fd5b6001339080600181540180825580915050600190039060005260206000200160009091909190916101000a81548173ffffffffffffffffffffffffffffffffffffffff021916908373ffffffffffffffffffffffffffffffffffffffff160217905550565b82805461047990610934565b90600052602060002090601f01602090048101928261049b57600085556104e2565b82601f106104b457805160ff19168380011785556104e2565b828001600101855582156104e2579182015b828111156104e15782518255916020019190600101906104c6565b5b5090506104ef91906104f3565b5090565b5b8082111561050c5760008160009055506001016104f4565b5090565b6000819050919050565b61052381610510565b82525050565b600060208201905061053e600083018461051a565b92915050565b6000604051905090565b600080fd5b600080fd5b600073ffffffffffffffffffffffffffffffffffffffff82169050919050565b600061058382610558565b9050919050565b61059381610578565b811461059e57600080fd5b50565b6000813590506105b08161058a565b92915050565b6105bf81610510565b81146105ca57600080fd5b50565b6000813590506105dc816105b6565b92915050565b600080604083850312156105f9576105f861054e565b5b6000610607858286016105a1565b9250506020610618858286016105cd565b9150509250929050565b600081519050919050565b600082825260208201905092915050565b60005b8381101561065c578082015181840152602081019050610641565b8381111561066b576000848401525b50505050565b6000601f19601f8301169050919050565b600061068d82610622565b610697818561062d565b93506106a781856020860161063e565b6106b081610671565b840191505092915050565b600060208201905081810360008301526106d58184610682565b905092915050565b6000602082840312156106f3576106f261054e565b5b6000610701848285016105a1565b91505092915050565b6000602082840312156107205761071f61054e565b5b600061072e848285016105cd565b91505092915050565b61074081610578565b82525050565b600060208201905061075b6000830184610737565b92915050565b600080fd5b600080fd5b7f4e487b7100000000000000000000000000000000000000000000000000000000600052604160045260246000fd5b6107a382610671565b810181811067ffffffffffffffff821117156107c2576107c161076b565b5b80604052505050565b60006107d5610544565b90506107e1828261079a565b919050565b600067ffffffffffffffff8211156108015761080061076b565b5b61080a82610671565b9050602081019050919050565b82818337600083830152505050565b6000610839610834846107e6565b6107cb565b90508281526020810184848401111561085557610854610766565b5b610860848285610817565b509392505050565b600082601f83011261087d5761087c610761565b5b813561088d848260208601610826565b91505092915050565b6000806000606084860312156108af576108ae61054e565b5b600084013567ffffffffffffffff8111156108cd576108cc610553565b5b6108d986828701610868565b93505060206108ea868287016105cd565b92505060406108fb868287016105cd565b9150509250925092565b7f4e487b7100000000000000000000000000000000000000000000000000000000600052602260045260246000fd5b6000600282049050600182168061094c57607f821691505b60208210810361095f5761095e610905565b5b50919050565b7f4f6e6c792061756374696f6e6565722063616e2063616c6c207468697320667560008201527f6e6374696f6e2e00000000000000000000000000000000000000000000000000602082015250565b60006109c160278361062d565b91506109cc82610965565b604082019050919050565b600060208201905081810360008301526109f0816109b4565b9050919050565b7f41756374696f6e656572206973206e6f7420616c6c6f77656420746f2072656760008201527f6973746572206173206120626964646572000000000000000000000000000000602082015250565b6000610a5360318361062d565b9150610a5e826109f7565b604082019050919050565b60006020820190508181036000830152610a8281610a46565b905091905056fea2646970667358221220ba1b99848748f5ce06ddfd3df02038b94a336c01e60ee4aeb922de512cb9db6864736f6c634300080e0033",
					"opcodes": "PUSH1 0x80 PUSH1 0x40 MSTORE CALLVALUE DUP1 ISZERO PUSH2 0x10 JUMPI PUSH1 0x0 DUP1 REVERT JUMPDEST POP CALLER PUSH1 0x0 DUP1 PUSH2 0x100 EXP DUP2 SLOAD DUP2 PUSH20 0xFFFFFFFFFFFFFFFFFFFFFFFFFFFFFFFFFFFFFFFF MUL NOT AND SWAP1 DUP4 PUSH20 0xFFFFFFFFFFFFFFFFFFFFFFFFFFFFFFFFFFFFFFFF AND MUL OR SWAP1 SSTORE POP PUSH2 0xABF DUP1 PUSH2 0x60 PUSH1 0x0 CODECOPY PUSH1 0x0 RETURN INVALID PUSH1 0x80 PUSH1 0x40 MSTORE CALLVALUE DUP1 ISZERO PUSH2 0x10 JUMPI PUSH1 0x0 DUP1 REVERT JUMPDEST POP PUSH1 0x4 CALLDATASIZE LT PUSH2 0x88 JUMPI PUSH1 0x0 CALLDATALOAD PUSH1 0xE0 SHR DUP1 PUSH4 0xCFF29DFD GT PUSH2 0x5B JUMPI DUP1 PUSH4 0xCFF29DFD EQ PUSH2 0x115 JUMPI DUP1 PUSH4 0xDAA0218F EQ PUSH2 0x145 JUMPI DUP1 PUSH4 0xE7D2A997 EQ PUSH2 0x163 JUMPI DUP1 PUSH4 0xF356733C EQ PUSH2 0x17F JUMPI PUSH2 0x88 JUMP JUMPDEST DUP1 PUSH4 0x34EB86A2 EQ PUSH2 0x8D JUMPI DUP1 PUSH4 0x4D896BF7 EQ PUSH2 0xAB JUMPI DUP1 PUSH4 0x938626C2 EQ PUSH2 0xC7 JUMPI DUP1 PUSH4 0xA3D6F9A9 EQ PUSH2 0xE5 JUMPI JUMPDEST PUSH1 0x0 DUP1 REVERT JUMPDEST PUSH2 0x95 PUSH2 0x189 JUMP JUMPDEST PUSH1 0x40 MLOAD PUSH2 0xA2 SWAP2 SWAP1 PUSH2 0x529 JUMP JUMPDEST PUSH1 0x40 MLOAD DUP1 SWAP2 SUB SWAP1 RETURN JUMPDEST PUSH2 0xC5 PUSH1 0x4 DUP1 CALLDATASIZE SUB DUP2 ADD SWAP1 PUSH2 0xC0 SWAP2 SWAP1 PUSH2 0x5E2 JUMP JUMPDEST PUSH2 0x18F JUMP JUMPDEST STOP JUMPDEST PUSH2 0xCF PUSH2 0x1D7 JUMP JUMPDEST PUSH1 0x40 MLOAD PUSH2 0xDC SWAP2 SWAP1 PUSH2 0x6BB JUMP JUMPDEST PUSH1 0x40 MLOAD DUP1 SWAP2 SUB SWAP1 RETURN JUMPDEST PUSH2 0xFF PUSH1 0x4 DUP1 CALLDATASIZE SUB DUP2 ADD SWAP1 PUSH2 0xFA SWAP2 SWAP1 PUSH2 0x6DD JUMP JUMPDEST PUSH2 0x265 JUMP JUMPDEST PUSH1 0x40 MLOAD PUSH2 0x10C SWAP2 SWAP1 PUSH2 0x529 JUMP JUMPDEST PUSH1 0x40 MLOAD DUP1 SWAP2 SUB SWAP1 RETURN JUMPDEST PUSH2 0x12F PUSH1 0x4 DUP1 CALLDATASIZE SUB DUP2 ADD SWAP1 PUSH2 0x12A SWAP2 SWAP1 PUSH2 0x70A JUMP JUMPDEST PUSH2 0x27D JUMP JUMPDEST PUSH1 0x40 MLOAD PUSH2 0x13C SWAP2 SWAP1 PUSH2 0x746 JUMP JUMPDEST PUSH1 0x40 MLOAD DUP1 SWAP2 SUB SWAP1 RETURN JUMPDEST PUSH2 0x14D PUSH2 0x2BC JUMP JUMPDEST PUSH1 0x40 MLOAD PUSH2 0x15A SWAP2 SWAP1 PUSH2 0x529 JUMP JUMPDEST PUSH1 0x40 MLOAD DUP1 SWAP2 SUB SWAP1 RETURN JUMPDEST PUSH2 0x17D PUSH1 0x4 DUP1 CALLDATASIZE SUB DUP2 ADD SWAP1 PUSH2 0x178 SWAP2 SWAP1 PUSH2 0x896 JUMP JUMPDEST PUSH2 0x2C2 JUMP JUMPDEST STOP JUMPDEST PUSH2 0x187 PUSH2 0x37A JUMP JUMPDEST STOP JUMPDEST PUSH1 0x3 SLOAD DUP2 JUMP JUMPDEST DUP1 PUSH1 0x5 PUSH1 0x0 DUP5 PUSH20 0xFFFFFFFFFFFFFFFFFFFFFFFFFFFFFFFFFFFFFFFF AND PUSH20 0xFFFFFFFFFFFFFFFFFFFFFFFFFFFFFFFFFFFFFFFF AND DUP2 MSTORE PUSH1 0x20 ADD SWAP1 DUP2 MSTORE PUSH1 0x20 ADD PUSH1 0x0 KECCAK256 DUP2 SWAP1 SSTORE POP POP POP JUMP JUMPDEST PUSH1 0x2 DUP1 SLOAD PUSH2 0x1E4 SWAP1 PUSH2 0x934 JUMP JUMPDEST DUP1 PUSH1 0x1F ADD PUSH1 0x20 DUP1 SWAP2 DIV MUL PUSH1 0x20 ADD PUSH1 0x40 MLOAD SWAP1 DUP2 ADD PUSH1 0x40 MSTORE DUP1 SWAP3 SWAP2 SWAP1 DUP2 DUP2 MSTORE PUSH1 0x20 ADD DUP3 DUP1 SLOAD PUSH2 0x210 SWAP1 PUSH2 0x934 JUMP JUMPDEST DUP1 ISZERO PUSH2 0x25D JUMPI DUP1 PUSH1 0x1F LT PUSH2 0x232 JUMPI PUSH2 0x100 DUP1 DUP4 SLOAD DIV MUL DUP4 MSTORE SWAP2 PUSH1 0x20 ADD SWAP2 PUSH2 0x25D JUMP JUMPDEST DUP3 ADD SWAP2 SWAP1 PUSH1 0x0 MSTORE PUSH1 0x20 PUSH1 0x0 KECCAK256 SWAP1 JUMPDEST DUP2 SLOAD DUP2 MSTORE SWAP1 PUSH1 0x1 ADD SWAP1 PUSH1 0x20 ADD DUP1 DUP4 GT PUSH2 0x240 JUMPI DUP3 SWAP1 SUB PUSH1 0x1F AND DUP3 ADD SWAP2 JUMPDEST POP POP POP POP POP DUP2 JUMP JUMPDEST PUSH1 0x5 PUSH1 0x20 MSTORE DUP1 PUSH1 0x0 MSTORE PUSH1 0x40 PUSH1 0x0 KECCAK256 PUSH1 0x0 SWAP2 POP SWAP1 POP SLOAD DUP2 JUMP JUMPDEST PUSH1 0x1 DUP2 DUP2 SLOAD DUP2 LT PUSH2 0x28D JUMPI PUSH1 0x0 DUP1 REVERT JUMPDEST SWAP1 PUSH1 0x0 MSTORE PUSH1 0x20 PUSH1 0x0 KECCAK256 ADD PUSH1 0x0 SWAP2 POP SLOAD SWAP1 PUSH2 0x100 EXP SWAP1 DIV PUSH20 0xFFFFFFFFFFFFFFFFFFFFFFFFFFFFFFFFFFFFFFFF AND DUP2 JUMP JUMPDEST PUSH1 0x4 SLOAD DUP2 JUMP JUMPDEST PUSH1 0x0 DUP1 SLOAD SWAP1 PUSH2 0x100 EXP SWAP1 DIV PUSH20 0xFFFFFFFFFFFFFFFFFFFFFFFFFFFFFFFFFFFFFFFF AND PUSH20 0xFFFFFFFFFFFFFFFFFFFFFFFFFFFFFFFFFFFFFFFF AND CALLER PUSH20 0xFFFFFFFFFFFFFFFFFFFFFFFFFFFFFFFFFFFFFFFF AND EQ PUSH2 0x350 JUMPI PUSH1 0x40 MLOAD PUSH32 0x8C379A000000000000000000000000000000000000000000000000000000000 DUP2 MSTORE PUSH1 0x4 ADD PUSH2 0x347 SWAP1 PUSH2 0x9D7 JUMP JUMPDEST PUSH1 0x40 MLOAD DUP1 SWAP2 SUB SWAP1 REVERT JUMPDEST DUP3 PUSH1 0x2 SWAP1 DUP1 MLOAD SWAP1 PUSH1 0x20 ADD SWAP1 PUSH2 0x366 SWAP3 SWAP2 SWAP1 PUSH2 0x46D JUMP JUMPDEST POP DUP2 PUSH1 0x3 DUP2 SWAP1 SSTORE POP DUP1 PUSH1 0x4 DUP2 SWAP1 SSTORE POP POP POP POP JUMP JUMPDEST PUSH1 0x0 DUP1 SLOAD SWAP1 PUSH2 0x100 EXP SWAP1 DIV PUSH20 0xFFFFFFFFFFFFFFFFFFFFFFFFFFFFFFFFFFFFFFFF AND PUSH20 0xFFFFFFFFFFFFFFFFFFFFFFFFFFFFFFFFFFFFFFFF AND CALLER PUSH20 0xFFFFFFFFFFFFFFFFFFFFFFFFFFFFFFFFFFFFFFFF AND SUB PUSH2 0x408 JUMPI PUSH1 0x40 MLOAD PUSH32 0x8C379A000000000000000000000000000000000000000000000000000000000 DUP2 MSTORE PUSH1 0x4 ADD PUSH2 0x3FF SWAP1 PUSH2 0xA69 JUMP JUMPDEST PUSH1 0x40 MLOAD DUP1 SWAP2 SUB SWAP1 REVERT JUMPDEST PUSH1 0x1 CALLER SWAP1 DUP1 PUSH1 0x1 DUP2 SLOAD ADD DUP1 DUP3 SSTORE DUP1 SWAP2 POP POP PUSH1 0x1 SWAP1 SUB SWAP1 PUSH1 0x0 MSTORE PUSH1 0x20 PUSH1 0x0 KECCAK256 ADD PUSH1 0x0 SWAP1 SWAP2 SWAP1 SWAP2 SWAP1 SWAP2 PUSH2 0x100 EXP DUP2 SLOAD DUP2 PUSH20 0xFFFFFFFFFFFFFFFFFFFFFFFFFFFFFFFFFFFFFFFF MUL NOT AND SWAP1 DUP4 PUSH20 0xFFFFFFFFFFFFFFFFFFFFFFFFFFFFFFFFFFFFFFFF AND MUL OR SWAP1 SSTORE POP JUMP JUMPDEST DUP3 DUP1 SLOAD PUSH2 0x479 SWAP1 PUSH2 0x934 JUMP JUMPDEST SWAP1 PUSH1 0x0 MSTORE PUSH1 0x20 PUSH1 0x0 KECCAK256 SWAP1 PUSH1 0x1F ADD PUSH1 0x20 SWAP1 DIV DUP2 ADD SWAP3 DUP3 PUSH2 0x49B JUMPI PUSH1 0x0 DUP6 SSTORE PUSH2 0x4E2 JUMP JUMPDEST DUP3 PUSH1 0x1F LT PUSH2 0x4B4 JUMPI DUP1 MLOAD PUSH1 0xFF NOT AND DUP4 DUP1 ADD OR DUP6 SSTORE PUSH2 0x4E2 JUMP JUMPDEST DUP3 DUP1 ADD PUSH1 0x1 ADD DUP6 SSTORE DUP3 ISZERO PUSH2 0x4E2 JUMPI SWAP2 DUP3 ADD JUMPDEST DUP3 DUP2 GT ISZERO PUSH2 0x4E1 JUMPI DUP3 MLOAD DUP3 SSTORE SWAP2 PUSH1 0x20 ADD SWAP2 SWAP1 PUSH1 0x1 ADD SWAP1 PUSH2 0x4C6 JUMP JUMPDEST JUMPDEST POP SWAP1 POP PUSH2 0x4EF SWAP2 SWAP1 PUSH2 0x4F3 JUMP JUMPDEST POP SWAP1 JUMP JUMPDEST JUMPDEST DUP1 DUP3 GT ISZERO PUSH2 0x50C JUMPI PUSH1 0x0 DUP2 PUSH1 0x0 SWAP1 SSTORE POP PUSH1 0x1 ADD PUSH2 0x4F4 JUMP JUMPDEST POP SWAP1 JUMP JUMPDEST PUSH1 0x0 DUP2 SWAP1 POP SWAP2 SWAP1 POP JUMP JUMPDEST PUSH2 0x523 DUP2 PUSH2 0x510 JUMP JUMPDEST DUP3 MSTORE POP POP JUMP JUMPDEST PUSH1 0x0 PUSH1 0x20 DUP3 ADD SWAP1 POP PUSH2 0x53E PUSH1 0x0 DUP4 ADD DUP5 PUSH2 0x51A JUMP JUMPDEST SWAP3 SWAP2 POP POP JUMP JUMPDEST PUSH1 0x0 PUSH1 0x40 MLOAD SWAP1 POP SWAP1 JUMP JUMPDEST PUSH1 0x0 DUP1 REVERT JUMPDEST PUSH1 0x0 DUP1 REVERT JUMPDEST PUSH1 0x0 PUSH20 0xFFFFFFFFFFFFFFFFFFFFFFFFFFFFFFFFFFFFFFFF DUP3 AND SWAP1 POP SWAP2 SWAP1 POP JUMP JUMPDEST PUSH1 0x0 PUSH2 0x583 DUP3 PUSH2 0x558 JUMP JUMPDEST SWAP1 POP SWAP2 SWAP1 POP JUMP JUMPDEST PUSH2 0x593 DUP2 PUSH2 0x578 JUMP JUMPDEST DUP2 EQ PUSH2 0x59E JUMPI PUSH1 0x0 DUP1 REVERT JUMPDEST POP JUMP JUMPDEST PUSH1 0x0 DUP2 CALLDATALOAD SWAP1 POP PUSH2 0x5B0 DUP2 PUSH2 0x58A JUMP JUMPDEST SWAP3 SWAP2 POP POP JUMP JUMPDEST PUSH2 0x5BF DUP2 PUSH2 0x510 JUMP JUMPDEST DUP2 EQ PUSH2 0x5CA JUMPI PUSH1 0x0 DUP1 REVERT JUMPDEST POP JUMP JUMPDEST PUSH1 0x0 DUP2 CALLDATALOAD SWAP1 POP PUSH2 0x5DC DUP2 PUSH2 0x5B6 JUMP JUMPDEST SWAP3 SWAP2 POP POP JUMP JUMPDEST PUSH1 0x0 DUP1 PUSH1 0x40 DUP4 DUP6 SUB SLT ISZERO PUSH2 0x5F9 JUMPI PUSH2 0x5F8 PUSH2 0x54E JUMP JUMPDEST JUMPDEST PUSH1 0x0 PUSH2 0x607 DUP6 DUP3 DUP7 ADD PUSH2 0x5A1 JUMP JUMPDEST SWAP3 POP POP PUSH1 0x20 PUSH2 0x618 DUP6 DUP3 DUP7 ADD PUSH2 0x5CD JUMP JUMPDEST SWAP2 POP POP SWAP3 POP SWAP3 SWAP1 POP JUMP JUMPDEST PUSH1 0x0 DUP2 MLOAD SWAP1 POP SWAP2 SWAP1 POP JUMP JUMPDEST PUSH1 0x0 DUP3 DUP3 MSTORE PUSH1 0x20 DUP3 ADD SWAP1 POP SWAP3 SWAP2 POP POP JUMP JUMPDEST PUSH1 0x0 JUMPDEST DUP4 DUP2 LT ISZERO PUSH2 0x65C JUMPI DUP1 DUP3 ADD MLOAD DUP2 DUP5 ADD MSTORE PUSH1 0x20 DUP2 ADD SWAP1 POP PUSH2 0x641 JUMP JUMPDEST DUP4 DUP2 GT ISZERO PUSH2 0x66B JUMPI PUSH1 0x0 DUP5 DUP5 ADD MSTORE JUMPDEST POP POP POP POP JUMP JUMPDEST PUSH1 0x0 PUSH1 0x1F NOT PUSH1 0x1F DUP4 ADD AND SWAP1 POP SWAP2 SWAP1 POP JUMP JUMPDEST PUSH1 0x0 PUSH2 0x68D DUP3 PUSH2 0x622 JUMP JUMPDEST PUSH2 0x697 DUP2 DUP6 PUSH2 0x62D JUMP JUMPDEST SWAP4 POP PUSH2 0x6A7 DUP2 DUP6 PUSH1 0x20 DUP7 ADD PUSH2 0x63E JUMP JUMPDEST PUSH2 0x6B0 DUP2 PUSH2 0x671 JUMP JUMPDEST DUP5 ADD SWAP2 POP POP SWAP3 SWAP2 POP POP JUMP JUMPDEST PUSH1 0x0 PUSH1 0x20 DUP3 ADD SWAP1 POP DUP2 DUP2 SUB PUSH1 0x0 DUP4 ADD MSTORE PUSH2 0x6D5 DUP2 DUP5 PUSH2 0x682 JUMP JUMPDEST SWAP1 POP SWAP3 SWAP2 POP POP JUMP JUMPDEST PUSH1 0x0 PUSH1 0x20 DUP3 DUP5 SUB SLT ISZERO PUSH2 0x6F3 JUMPI PUSH2 0x6F2 PUSH2 0x54E JUMP JUMPDEST JUMPDEST PUSH1 0x0 PUSH2 0x701 DUP5 DUP3 DUP6 ADD PUSH2 0x5A1 JUMP JUMPDEST SWAP2 POP POP SWAP3 SWAP2 POP POP JUMP JUMPDEST PUSH1 0x0 PUSH1 0x20 DUP3 DUP5 SUB SLT ISZERO PUSH2 0x720 JUMPI PUSH2 0x71F PUSH2 0x54E JUMP JUMPDEST JUMPDEST PUSH1 0x0 PUSH2 0x72E DUP5 DUP3 DUP6 ADD PUSH2 0x5CD JUMP JUMPDEST SWAP2 POP POP SWAP3 SWAP2 POP POP JUMP JUMPDEST PUSH2 0x740 DUP2 PUSH2 0x578 JUMP JUMPDEST DUP3 MSTORE POP POP JUMP JUMPDEST PUSH1 0x0 PUSH1 0x20 DUP3 ADD SWAP1 POP PUSH2 0x75B PUSH1 0x0 DUP4 ADD DUP5 PUSH2 0x737 JUMP JUMPDEST SWAP3 SWAP2 POP POP JUMP JUMPDEST PUSH1 0x0 DUP1 REVERT JUMPDEST PUSH1 0x0 DUP1 REVERT JUMPDEST PUSH32 0x4E487B7100000000000000000000000000000000000000000000000000000000 PUSH1 0x0 MSTORE PUSH1 0x41 PUSH1 0x4 MSTORE PUSH1 0x24 PUSH1 0x0 REVERT JUMPDEST PUSH2 0x7A3 DUP3 PUSH2 0x671 JUMP JUMPDEST DUP2 ADD DUP2 DUP2 LT PUSH8 0xFFFFFFFFFFFFFFFF DUP3 GT OR ISZERO PUSH2 0x7C2 JUMPI PUSH2 0x7C1 PUSH2 0x76B JUMP JUMPDEST JUMPDEST DUP1 PUSH1 0x40 MSTORE POP POP POP JUMP JUMPDEST PUSH1 0x0 PUSH2 0x7D5 PUSH2 0x544 JUMP JUMPDEST SWAP1 POP PUSH2 0x7E1 DUP3 DUP3 PUSH2 0x79A JUMP JUMPDEST SWAP2 SWAP1 POP JUMP JUMPDEST PUSH1 0x0 PUSH8 0xFFFFFFFFFFFFFFFF DUP3 GT ISZERO PUSH2 0x801 JUMPI PUSH2 0x800 PUSH2 0x76B JUMP JUMPDEST JUMPDEST PUSH2 0x80A DUP3 PUSH2 0x671 JUMP JUMPDEST SWAP1 POP PUSH1 0x20 DUP2 ADD SWAP1 POP SWAP2 SWAP1 POP JUMP JUMPDEST DUP3 DUP2 DUP4 CALLDATACOPY PUSH1 0x0 DUP4 DUP4 ADD MSTORE POP POP POP JUMP JUMPDEST PUSH1 0x0 PUSH2 0x839 PUSH2 0x834 DUP5 PUSH2 0x7E6 JUMP JUMPDEST PUSH2 0x7CB JUMP JUMPDEST SWAP1 POP DUP3 DUP2 MSTORE PUSH1 0x20 DUP2 ADD DUP5 DUP5 DUP5 ADD GT ISZERO PUSH2 0x855 JUMPI PUSH2 0x854 PUSH2 0x766 JUMP JUMPDEST JUMPDEST PUSH2 0x860 DUP5 DUP3 DUP6 PUSH2 0x817 JUMP JUMPDEST POP SWAP4 SWAP3 POP POP POP JUMP JUMPDEST PUSH1 0x0 DUP3 PUSH1 0x1F DUP4 ADD SLT PUSH2 0x87D JUMPI PUSH2 0x87C PUSH2 0x761 JUMP JUMPDEST JUMPDEST DUP2 CALLDATALOAD PUSH2 0x88D DUP5 DUP3 PUSH1 0x20 DUP7 ADD PUSH2 0x826 JUMP JUMPDEST SWAP2 POP POP SWAP3 SWAP2 POP POP JUMP JUMPDEST PUSH1 0x0 DUP1 PUSH1 0x0 PUSH1 0x60 DUP5 DUP7 SUB SLT ISZERO PUSH2 0x8AF JUMPI PUSH2 0x8AE PUSH2 0x54E JUMP JUMPDEST JUMPDEST PUSH1 0x0 DUP5 ADD CALLDATALOAD PUSH8 0xFFFFFFFFFFFFFFFF DUP2 GT ISZERO PUSH2 0x8CD JUMPI PUSH2 0x8CC PUSH2 0x553 JUMP JUMPDEST JUMPDEST PUSH2 0x8D9 DUP7 DUP3 DUP8 ADD PUSH2 0x868 JUMP JUMPDEST SWAP4 POP POP PUSH1 0x20 PUSH2 0x8EA DUP7 DUP3 DUP8 ADD PUSH2 0x5CD JUMP JUMPDEST SWAP3 POP POP PUSH1 0x40 PUSH2 0x8FB DUP7 DUP3 DUP8 ADD PUSH2 0x5CD JUMP JUMPDEST SWAP2 POP POP SWAP3 POP SWAP3 POP SWAP3 JUMP JUMPDEST PUSH32 0x4E487B7100000000000000000000000000000000000000000000000000000000 PUSH1 0x0 MSTORE PUSH1 0x22 PUSH1 0x4 MSTORE PUSH1 0x24 PUSH1 0x0 REVERT JUMPDEST PUSH1 0x0 PUSH1 0x2 DUP3 DIV SWAP1 POP PUSH1 0x1 DUP3 AND DUP1 PUSH2 0x94C JUMPI PUSH1 0x7F DUP3 AND SWAP2 POP JUMPDEST PUSH1 0x20 DUP3 LT DUP2 SUB PUSH2 0x95F JUMPI PUSH2 0x95E PUSH2 0x905 JUMP JUMPDEST JUMPDEST POP SWAP2 SWAP1 POP JUMP JUMPDEST PUSH32 0x4F6E6C792061756374696F6E6565722063616E2063616C6C2074686973206675 PUSH1 0x0 DUP3 ADD MSTORE PUSH32 0x6E6374696F6E2E00000000000000000000000000000000000000000000000000 PUSH1 0x20 DUP3 ADD MSTORE POP JUMP JUMPDEST PUSH1 0x0 PUSH2 0x9C1 PUSH1 0x27 DUP4 PUSH2 0x62D JUMP JUMPDEST SWAP2 POP PUSH2 0x9CC DUP3 PUSH2 0x965 JUMP JUMPDEST PUSH1 0x40 DUP3 ADD SWAP1 POP SWAP2 SWAP1 POP JUMP JUMPDEST PUSH1 0x0 PUSH1 0x20 DUP3 ADD SWAP1 POP DUP2 DUP2 SUB PUSH1 0x0 DUP4 ADD MSTORE PUSH2 0x9F0 DUP2 PUSH2 0x9B4 JUMP JUMPDEST SWAP1 POP SWAP2 SWAP1 POP JUMP JUMPDEST PUSH32 0x41756374696F6E656572206973206E6F7420616C6C6F77656420746F20726567 PUSH1 0x0 DUP3 ADD MSTORE PUSH32 0x6973746572206173206120626964646572000000000000000000000000000000 PUSH1 0x20 DUP3 ADD MSTORE POP JUMP JUMPDEST PUSH1 0x0 PUSH2 0xA53 PUSH1 0x31 DUP4 PUSH2 0x62D JUMP JUMPDEST SWAP2 POP PUSH2 0xA5E DUP3 PUSH2 0x9F7 JUMP JUMPDEST PUSH1 0x40 DUP3 ADD SWAP1 POP SWAP2 SWAP1 POP JUMP JUMPDEST PUSH1 0x0 PUSH1 0x20 DUP3 ADD SWAP1 POP DUP2 DUP2 SUB PUSH1 0x0 DUP4 ADD MSTORE PUSH2 0xA82 DUP2 PUSH2 0xA46 JUMP JUMPDEST SWAP1 POP SWAP2 SWAP1 POP JUMP INVALID LOG2 PUSH5 0x6970667358 0x22 SLT KECCAK256 0xBA SHL SWAP10 DUP5 DUP8 BASEFEE CREATE2 0xCE MOD 0xDD REVERT RETURNDATASIZE CREATE KECCAK256 CODESIZE 0xB9 0x4A CALLER PUSH13 0x1E60EE4AEB922DE512CB9DB68 PUSH5 0x736F6C6343 STOP ADDMOD 0xE STOP CALLER "
				},
				"gasEstimates": {
					"creation": {
						"codeDepositCost": "550200",
						"executionCost": "24847",
						"totalCost": "575047"
					},
					"external": {
						"assetDescription()": "infinite",
						"bidders(uint256)": "4956",
						"minBidPrice()": "2430",
						"minNumberOfBidders()": "2451",
						"publicKeys(address)": "2881",
						"registerAuctionInfo(string,uint256,uint256)": "infinite",
						"registerBidder()": "50955",
						"submitPublicKeys(address,uint256)": "22855"
					}
				},
				"methodIdentifiers": {
					"assetDescription()": "938626c2",
					"bidders(uint256)": "cff29dfd",
					"minBidPrice()": "34eb86a2",
					"minNumberOfBidders()": "daa0218f",
					"publicKeys(address)": "a3d6f9a9",
					"registerAuctionInfo(string,uint256,uint256)": "e7d2a997",
					"registerBidder()": "f356733c",
					"submitPublicKeys(address,uint256)": "4d896bf7"
				}
			},
			"storageLayout": {
				"storage": [
					{
						"astId": 3,
						"contract": "Contracts/AKEB.sol:AKEB",
						"label": "auctioneer",
						"offset": 0,
						"slot": "0",
						"type": "t_address"
					},
					{
						"astId": 6,
						"contract": "Contracts/AKEB.sol:AKEB",
						"label": "bidders",
						"offset": 0,
						"slot": "1",
						"type": "t_array(t_address)dyn_storage"
					},
					{
						"astId": 8,
						"contract": "Contracts/AKEB.sol:AKEB",
						"label": "assetDescription",
						"offset": 0,
						"slot": "2",
						"type": "t_string_storage"
					},
					{
						"astId": 10,
						"contract": "Contracts/AKEB.sol:AKEB",
						"label": "minBidPrice",
						"offset": 0,
						"slot": "3",
						"type": "t_uint256"
					},
					{
						"astId": 12,
						"contract": "Contracts/AKEB.sol:AKEB",
						"label": "minNumberOfBidders",
						"offset": 0,
						"slot": "4",
						"type": "t_uint256"
					},
					{
						"astId": 16,
						"contract": "Contracts/AKEB.sol:AKEB",
						"label": "publicKeys",
						"offset": 0,
						"slot": "5",
						"type": "t_mapping(t_address,t_uint256)"
					}
				],
				"types": {
					"t_address": {
						"encoding": "inplace",
						"label": "address",
						"numberOfBytes": "20"
					},
					"t_array(t_address)dyn_storage": {
						"base": "t_address",
						"encoding": "dynamic_array",
						"label": "address[]",
						"numberOfBytes": "32"
					},
					"t_mapping(t_address,t_uint256)": {
						"encoding": "mapping",
						"key": "t_address",
						"label": "mapping(address => uint256)",
						"numberOfBytes": "32",
						"value": "t_uint256"
					},
					"t_string_storage": {
						"encoding": "bytes",
						"label": "string",
						"numberOfBytes": "32"
					},
					"t_uint256": {
						"encoding": "inplace",
						"label": "uint256",
						"numberOfBytes": "32"
					}
				}
			},
			"userdoc": {
				"kind": "user",
				"methods": {},
				"version": 1
			}
		}
	}
}