{
	"Contracts/AKEB.sol": {
		"AKEB": {
			"abi": [
				{
					"inputs": [],
					"name": "assetDescription",
					"outputs": [
						{
							"internalType": "string",
							"name": "",
							"type": "string"
						}
					],
					"stateMutability": "view",
					"type": "function"
				},
				{
					"inputs": [
						{
							"internalType": "uint256",
							"name": "",
							"type": "uint256"
						}
					],
					"name": "bidders",
					"outputs": [
						{
							"internalType": "address",
							"name": "",
							"type": "address"
						}
					],
					"stateMutability": "view",
					"type": "function"
				},
				{
					"inputs": [
						{
							"internalType": "uint256",
							"name": "inputDisputedBid",
							"type": "uint256"
						},
						{
							"internalType": "string",
							"name": "inputDisputedNonce",
							"type": "string"
						}
					],
					"name": "dispute",
					"outputs": [],
					"stateMutability": "nonpayable",
					"type": "function"
				},
				{
					"inputs": [
						{
							"internalType": "uint256",
							"name": "",
							"type": "uint256"
						}
					],
					"name": "disputedBidders",
					"outputs": [
						{
							"internalType": "uint256",
							"name": "bid",
							"type": "uint256"
						},
						{
							"internalType": "address",
							"name": "disputeAddress",
							"type": "address"
						},
						{
							"internalType": "string",
							"name": "nonce",
							"type": "string"
						}
					],
					"stateMutability": "view",
					"type": "function"
				},
				{
					"inputs": [
						{
							"internalType": "address",
							"name": "",
							"type": "address"
						}
					],
					"name": "encodedBids",
					"outputs": [
						{
							"internalType": "string",
							"name": "",
							"type": "string"
						}
					],
					"stateMutability": "view",
					"type": "function"
				},
				{
					"inputs": [],
					"name": "getAllBidders",
					"outputs": [
						{
							"internalType": "address[]",
							"name": "",
							"type": "address[]"
						}
					],
					"stateMutability": "view",
					"type": "function"
				},
				{
					"inputs": [],
					"name": "getAllDisputers",
					"outputs": [
						{
							"components": [
								{
									"internalType": "uint256",
									"name": "bid",
									"type": "uint256"
								},
								{
									"internalType": "address",
									"name": "disputeAddress",
									"type": "address"
								},
								{
									"internalType": "string",
									"name": "nonce",
									"type": "string"
								}
							],
							"internalType": "struct AKEB.DisputedBidders[]",
							"name": "",
							"type": "tuple[]"
						}
					],
					"stateMutability": "view",
					"type": "function"
				},
				{
					"inputs": [
						{
							"internalType": "uint256",
							"name": "index",
							"type": "uint256"
						}
					],
					"name": "getBidderAddress",
					"outputs": [
						{
							"internalType": "address",
							"name": "",
							"type": "address"
						}
					],
					"stateMutability": "view",
					"type": "function"
				},
				{
					"inputs": [
						{
							"internalType": "address",
							"name": "inputAddress",
							"type": "address"
						}
					],
					"name": "getEncodedBid",
					"outputs": [
						{
							"internalType": "string",
							"name": "",
							"type": "string"
						}
					],
					"stateMutability": "view",
					"type": "function"
				},
				{
					"inputs": [],
					"name": "getSampleString",
					"outputs": [
						{
							"internalType": "string",
							"name": "",
							"type": "string"
						}
					],
					"stateMutability": "pure",
					"type": "function"
				},
				{
					"inputs": [],
					"name": "getWinner",
					"outputs": [
						{
							"internalType": "address",
							"name": "",
							"type": "address"
						},
						{
							"internalType": "uint256",
							"name": "",
							"type": "uint256"
						},
						{
							"internalType": "string",
							"name": "",
							"type": "string"
						}
					],
					"stateMutability": "view",
					"type": "function"
				},
				{
					"inputs": [],
					"name": "getWinnerAddress",
					"outputs": [
						{
							"internalType": "address",
							"name": "",
							"type": "address"
						}
					],
					"stateMutability": "view",
					"type": "function"
				},
				{
					"inputs": [],
					"name": "getWinnerBid",
					"outputs": [
						{
							"internalType": "uint256",
							"name": "",
							"type": "uint256"
						}
					],
					"stateMutability": "view",
					"type": "function"
				},
				{
					"inputs": [],
					"name": "getwinnerNonce",
					"outputs": [
						{
							"internalType": "string",
							"name": "",
							"type": "string"
						}
					],
					"stateMutability": "view",
					"type": "function"
				},
				{
					"inputs": [],
					"name": "minBidPrice",
					"outputs": [
						{
							"internalType": "uint256",
							"name": "",
							"type": "uint256"
						}
					],
					"stateMutability": "view",
					"type": "function"
				},
				{
					"inputs": [],
					"name": "minNumberOfBidders",
					"outputs": [
						{
							"internalType": "uint256",
							"name": "",
							"type": "uint256"
						}
					],
					"stateMutability": "view",
					"type": "function"
				},
				{
					"inputs": [
						{
							"internalType": "string",
							"name": "assetDescriptionInput",
							"type": "string"
						},
						{
							"internalType": "uint256",
							"name": "minBidPriceInput",
							"type": "uint256"
						},
						{
							"internalType": "uint256",
							"name": "minNumberOfBiddersInput",
							"type": "uint256"
						}
					],
					"name": "registerAuctionInfo",
					"outputs": [],
					"stateMutability": "nonpayable",
					"type": "function"
				},
				{
					"inputs": [],
					"name": "registerBidder",
					"outputs": [],
					"stateMutability": "nonpayable",
					"type": "function"
				},
				{
					"inputs": [],
					"name": "reset",
					"outputs": [],
					"stateMutability": "nonpayable",
					"type": "function"
				},
				{
					"inputs": [],
					"name": "resetEncodedBids",
					"outputs": [],
					"stateMutability": "nonpayable",
					"type": "function"
				},
				{
					"inputs": [
						{
							"internalType": "string",
							"name": "inputEncodedBid",
							"type": "string"
						}
					],
					"name": "submitEncodedBid",
					"outputs": [],
					"stateMutability": "nonpayable",
					"type": "function"
				},
				{
					"inputs": [
						{
							"internalType": "uint256",
							"name": "inputWinnerBid",
							"type": "uint256"
						},
						{
							"internalType": "string",
							"name": "inputwinnerNonce",
							"type": "string"
						}
					],
					"name": "submitWinner",
					"outputs": [],
					"stateMutability": "nonpayable",
					"type": "function"
				},
				{
					"inputs": [],
					"name": "winnerAddress",
					"outputs": [
						{
							"internalType": "address",
							"name": "",
							"type": "address"
						}
					],
					"stateMutability": "view",
					"type": "function"
				},
				{
					"inputs": [],
					"name": "winnerBid",
					"outputs": [
						{
							"internalType": "uint256",
							"name": "",
							"type": "uint256"
						}
					],
					"stateMutability": "view",
					"type": "function"
				},
				{
					"inputs": [],
					"name": "winnerNonce",
					"outputs": [
						{
							"internalType": "string",
							"name": "",
							"type": "string"
						}
					],
					"stateMutability": "view",
					"type": "function"
				}
			],
			"devdoc": {
				"kind": "dev",
				"methods": {},
				"version": 1
			},
			"evm": {
				"assembly": "    /* \"Contracts/AKEB.sol\":58:3432  contract AKEB {... */\n  mstore(0x40, 0x80)\n  callvalue\n  dup1\n  iszero\n  tag_1\n  jumpi\n  0x00\n  dup1\n  revert\ntag_1:\n  pop\n  dataSize(sub_0)\n  dup1\n  dataOffset(sub_0)\n  0x00\n  codecopy\n  0x00\n  return\nstop\n\nsub_0: assembly {\n        /* \"Contracts/AKEB.sol\":58:3432  contract AKEB {... */\n      mstore(0x40, 0x80)\n      callvalue\n      dup1\n      iszero\n      tag_1\n      jumpi\n      0x00\n      dup1\n      revert\n    tag_1:\n      pop\n      jumpi(tag_2, lt(calldatasize, 0x04))\n      shr(0xe0, calldataload(0x00))\n      dup1\n      0x8e7ea5b2\n      gt\n      tag_28\n      jumpi\n      dup1\n      0xcff29dfd\n      gt\n      tag_29\n      jumpi\n      dup1\n      0xdca49f4a\n      gt\n      tag_30\n      jumpi\n      dup1\n      0xdca49f4a\n      eq\n      tag_24\n      jumpi\n      dup1\n      0xe7d2a997\n      eq\n      tag_25\n      jumpi\n      dup1\n      0xed7a4e0b\n      eq\n      tag_26\n      jumpi\n      dup1\n      0xf356733c\n      eq\n      tag_27\n      jumpi\n      jump(tag_2)\n    tag_30:\n      dup1\n      0xcff29dfd\n      eq\n      tag_21\n      jumpi\n      dup1\n      0xd826f88f\n      eq\n      tag_22\n      jumpi\n      dup1\n      0xdaa0218f\n      eq\n      tag_23\n      jumpi\n      jump(tag_2)\n    tag_29:\n      dup1\n      0x8e7ea5b2\n      eq\n      tag_15\n      jumpi\n      dup1\n      0x8f772f96\n      eq\n      tag_16\n      jumpi\n      dup1\n      0x938626c2\n      eq\n      tag_17\n      jumpi\n      dup1\n      0xc8bca732\n      eq\n      tag_18\n      jumpi\n      dup1\n      0xca142b56\n      eq\n      tag_19\n      jumpi\n      dup1\n      0xceb98f6e\n      eq\n      tag_20\n      jumpi\n      jump(tag_2)\n    tag_28:\n      dup1\n      0x3817df4c\n      gt\n      tag_31\n      jumpi\n      dup1\n      0x3817df4c\n      eq\n      tag_9\n      jumpi\n      dup1\n      0x3a79d2e5\n      eq\n      tag_10\n      jumpi\n      dup1\n      0x40bd5937\n      eq\n      tag_11\n      jumpi\n      dup1\n      0x5fa38280\n      eq\n      tag_12\n      jumpi\n      dup1\n      0x66c85dee\n      eq\n      tag_13\n      jumpi\n      dup1\n      0x83050daa\n      eq\n      tag_14\n      jumpi\n      jump(tag_2)\n    tag_31:\n      dup1\n      0x05fb23cf\n      eq\n      tag_3\n      jumpi\n      dup1\n      0x10a37c26\n      eq\n      tag_4\n      jumpi\n      dup1\n      0x11631d06\n      eq\n      tag_5\n      jumpi\n      dup1\n      0x1744e03b\n      eq\n      tag_6\n      jumpi\n      dup1\n      0x34eb86a2\n      eq\n      tag_7\n      jumpi\n      dup1\n      0x35abd160\n      eq\n      tag_8\n      jumpi\n    tag_2:\n      0x00\n      dup1\n      revert\n        /* \"Contracts/AKEB.sol\":1801:1929  function getEncodedBid(address inputAddress) public view returns(string memory){... */\n    tag_3:\n      tag_32\n      0x04\n      dup1\n      calldatasize\n      sub\n      dup2\n      add\n      swap1\n      tag_33\n      swap2\n      swap1\n      tag_34\n      jump\t// in\n    tag_33:\n      tag_35\n      jump\t// in\n    tag_32:\n      mload(0x40)\n      tag_36\n      swap2\n      swap1\n      tag_37\n      jump\t// in\n    tag_36:\n      mload(0x40)\n      dup1\n      swap2\n      sub\n      swap1\n      return\n        /* \"Contracts/AKEB.sol\":2292:2386  function getWinnerAddress() public view returns(address) {... */\n    tag_4:\n      tag_38\n      tag_39\n      jump\t// in\n    tag_38:\n      mload(0x40)\n      tag_40\n      swap2\n      swap1\n      tag_41\n      jump\t// in\n    tag_40:\n      mload(0x40)\n      dup1\n      swap2\n      sub\n      swap1\n      return\n        /* \"Contracts/AKEB.sol\":326:350  uint256 public winnerBid */\n    tag_5:\n      tag_42\n      tag_43\n      jump\t// in\n    tag_42:\n      mload(0x40)\n      tag_44\n      swap2\n      swap1\n      tag_45\n      jump\t// in\n    tag_44:\n      mload(0x40)\n      dup1\n      swap2\n      sub\n      swap1\n      return\n        /* \"Contracts/AKEB.sol\":1935:2143  function submitWinner(uint256 inputWinnerBid, ... */\n    tag_6:\n      tag_46\n      0x04\n      dup1\n      calldatasize\n      sub\n      dup2\n      add\n      swap1\n      tag_47\n      swap2\n      swap1\n      tag_48\n      jump\t// in\n    tag_47:\n      tag_49\n      jump\t// in\n    tag_46:\n      stop\n        /* \"Contracts/AKEB.sol\":168:194  uint256 public minBidPrice */\n    tag_7:\n      tag_50\n      tag_51\n      jump\t// in\n    tag_50:\n      mload(0x40)\n      tag_52\n      swap2\n      swap1\n      tag_45\n      jump\t// in\n    tag_52:\n      mload(0x40)\n      dup1\n      swap2\n      sub\n      swap1\n      return\n        /* \"Contracts/AKEB.sol\":1552:1663  function getAllDisputers() public view returns(DisputedBidders[] memory){... */\n    tag_8:\n      tag_53\n      tag_54\n      jump\t// in\n    tag_53:\n      mload(0x40)\n      tag_55\n      swap2\n      swap1\n      tag_56\n      jump\t// in\n    tag_55:\n      mload(0x40)\n      dup1\n      swap2\n      sub\n      swap1\n      return\n        /* \"Contracts/AKEB.sol\":240:285  mapping(address => string) public encodedBids */\n    tag_9:\n      tag_57\n      0x04\n      dup1\n      calldatasize\n      sub\n      dup2\n      add\n      swap1\n      tag_58\n      swap2\n      swap1\n      tag_34\n      jump\t// in\n    tag_58:\n      tag_59\n      jump\t// in\n    tag_57:\n      mload(0x40)\n      tag_60\n      swap2\n      swap1\n      tag_37\n      jump\t// in\n    tag_60:\n      mload(0x40)\n      dup1\n      swap2\n      sub\n      swap1\n      return\n        /* \"Contracts/AKEB.sol\":1452:1546  function getAllBidders() public view returns(address[] memory) {... */\n    tag_10:\n      tag_61\n      tag_62\n      jump\t// in\n    tag_61:\n      mload(0x40)\n      tag_63\n      swap2\n      swap1\n      tag_64\n      jump\t// in\n    tag_63:\n      mload(0x40)\n      dup1\n      swap2\n      sub\n      swap1\n      return\n        /* \"Contracts/AKEB.sol\":3226:3430  function resetEncodedBids() public {... */\n    tag_11:\n      tag_65\n      tag_66\n      jump\t// in\n    tag_65:\n      stop\n        /* \"Contracts/AKEB.sol\":1341:1446  function getBidderAddress(uint index) public view returns(address) {... */\n    tag_12:\n      tag_67\n      0x04\n      dup1\n      calldatasize\n      sub\n      dup2\n      add\n      swap1\n      tag_68\n      swap2\n      swap1\n      tag_69\n      jump\t// in\n    tag_68:\n      tag_70\n      jump\t// in\n    tag_67:\n      mload(0x40)\n      tag_71\n      swap2\n      swap1\n      tag_41\n      jump\t// in\n    tag_71:\n      mload(0x40)\n      dup1\n      swap2\n      sub\n      swap1\n      return\n        /* \"Contracts/AKEB.sol\":2585:2889  function dispute(uint256 inputDisputedBid, ... */\n    tag_13:\n      tag_72\n      0x04\n      dup1\n      calldatasize\n      sub\n      dup2\n      add\n      swap1\n      tag_73\n      swap2\n      swap1\n      tag_48\n      jump\t// in\n    tag_73:\n      tag_74\n      jump\t// in\n    tag_72:\n      stop\n        /* \"Contracts/AKEB.sol\":819:929  function getSampleString() public pure returns(string memory){... */\n    tag_14:\n      tag_75\n      tag_76\n      jump\t// in\n    tag_75:\n      mload(0x40)\n      tag_77\n      swap2\n      swap1\n      tag_37\n      jump\t// in\n    tag_77:\n      mload(0x40)\n      dup1\n      swap2\n      sub\n      swap1\n      return\n        /* \"Contracts/AKEB.sol\":2149:2286  function getWinner() public view returns(address, uint256, string memory) {... */\n    tag_15:\n      tag_78\n      tag_79\n      jump\t// in\n    tag_78:\n      mload(0x40)\n      tag_80\n      swap4\n      swap3\n      swap2\n      swap1\n      tag_81\n      jump\t// in\n    tag_80:\n      mload(0x40)\n      dup1\n      swap2\n      sub\n      swap1\n      return\n        /* \"Contracts/AKEB.sol\":499:539  DisputedBidders[] public disputedBidders */\n    tag_16:\n      tag_82\n      0x04\n      dup1\n      calldatasize\n      sub\n      dup2\n      add\n      swap1\n      tag_83\n      swap2\n      swap1\n      tag_69\n      jump\t// in\n    tag_83:\n      tag_84\n      jump\t// in\n    tag_82:\n      mload(0x40)\n      tag_85\n      swap4\n      swap3\n      swap2\n      swap1\n      tag_86\n      jump\t// in\n    tag_85:\n      mload(0x40)\n      dup1\n      swap2\n      sub\n      swap1\n      return\n        /* \"Contracts/AKEB.sol\":132:162  string public assetDescription */\n    tag_17:\n      tag_87\n      tag_88\n      jump\t// in\n    tag_87:\n      mload(0x40)\n      tag_89\n      swap2\n      swap1\n      tag_37\n      jump\t// in\n    tag_89:\n      mload(0x40)\n      dup1\n      swap2\n      sub\n      swap1\n      return\n        /* \"Contracts/AKEB.sol\":2484:2579  function getwinnerNonce() public view returns(string memory){... */\n    tag_18:\n      tag_90\n      tag_91\n      jump\t// in\n    tag_90:\n      mload(0x40)\n      tag_92\n      swap2\n      swap1\n      tag_37\n      jump\t// in\n    tag_92:\n      mload(0x40)\n      dup1\n      swap2\n      sub\n      swap1\n      return\n        /* \"Contracts/AKEB.sol\":1669:1795  function submitEncodedBid(string memory inputEncodedBid)... */\n    tag_19:\n      tag_93\n      0x04\n      dup1\n      calldatasize\n      sub\n      dup2\n      add\n      swap1\n      tag_94\n      swap2\n      swap1\n      tag_95\n      jump\t// in\n    tag_94:\n      tag_96\n      jump\t// in\n    tag_93:\n      stop\n        /* \"Contracts/AKEB.sol\":2392:2478  function getWinnerBid() public view returns(uint256) {... */\n    tag_20:\n      tag_97\n      tag_98\n      jump\t// in\n    tag_97:\n      mload(0x40)\n      tag_99\n      swap2\n      swap1\n      tag_45\n      jump\t// in\n    tag_99:\n      mload(0x40)\n      dup1\n      swap2\n      sub\n      swap1\n      return\n        /* \"Contracts/AKEB.sol\":102:126  address[] public bidders */\n    tag_21:\n      tag_100\n      0x04\n      dup1\n      calldatasize\n      sub\n      dup2\n      add\n      swap1\n      tag_101\n      swap2\n      swap1\n      tag_69\n      jump\t// in\n    tag_101:\n      tag_102\n      jump\t// in\n    tag_100:\n      mload(0x40)\n      tag_103\n      swap2\n      swap1\n      tag_41\n      jump\t// in\n    tag_103:\n      mload(0x40)\n      dup1\n      swap2\n      sub\n      swap1\n      return\n        /* \"Contracts/AKEB.sol\":2895:3220  function reset() public {... */\n    tag_22:\n      tag_104\n      tag_105\n      jump\t// in\n    tag_104:\n      stop\n        /* \"Contracts/AKEB.sol\":200:233  uint256 public minNumberOfBidders */\n    tag_23:\n      tag_106\n      tag_107\n      jump\t// in\n    tag_106:\n      mload(0x40)\n      tag_108\n      swap2\n      swap1\n      tag_45\n      jump\t// in\n    tag_108:\n      mload(0x40)\n      dup1\n      swap2\n      sub\n      swap1\n      return\n        /* \"Contracts/AKEB.sol\":356:381  string public winnerNonce */\n    tag_24:\n      tag_109\n      tag_110\n      jump\t// in\n    tag_109:\n      mload(0x40)\n      tag_111\n      swap2\n      swap1\n      tag_37\n      jump\t// in\n    tag_111:\n      mload(0x40)\n      dup1\n      swap2\n      sub\n      swap1\n      return\n        /* \"Contracts/AKEB.sol\":935:1255  function registerAuctionInfo(string memory assetDescriptionInput, ... */\n    tag_25:\n      tag_112\n      0x04\n      dup1\n      calldatasize\n      sub\n      dup2\n      add\n      swap1\n      tag_113\n      swap2\n      swap1\n      tag_114\n      jump\t// in\n    tag_113:\n      tag_115\n      jump\t// in\n    tag_112:\n      stop\n        /* \"Contracts/AKEB.sol\":292:320  address public winnerAddress */\n    tag_26:\n      tag_116\n      tag_117\n      jump\t// in\n    tag_116:\n      mload(0x40)\n      tag_118\n      swap2\n      swap1\n      tag_41\n      jump\t// in\n    tag_118:\n      mload(0x40)\n      dup1\n      swap2\n      sub\n      swap1\n      return\n        /* \"Contracts/AKEB.sol\":1261:1335  function registerBidder() public {... */\n    tag_27:\n      tag_119\n      tag_120\n      jump\t// in\n    tag_119:\n      stop\n        /* \"Contracts/AKEB.sol\":1801:1929  function getEncodedBid(address inputAddress) public view returns(string memory){... */\n    tag_35:\n        /* \"Contracts/AKEB.sol\":1866:1879  string memory */\n      0x60\n        /* \"Contracts/AKEB.sol\":1897:1908  encodedBids */\n      0x05\n        /* \"Contracts/AKEB.sol\":1897:1922  encodedBids[inputAddress] */\n      0x00\n        /* \"Contracts/AKEB.sol\":1909:1921  inputAddress */\n      dup4\n        /* \"Contracts/AKEB.sol\":1897:1922  encodedBids[inputAddress] */\n      0xffffffffffffffffffffffffffffffffffffffff\n      and\n      0xffffffffffffffffffffffffffffffffffffffff\n      and\n      dup2\n      mstore\n      0x20\n      add\n      swap1\n      dup2\n      mstore\n      0x20\n      add\n      0x00\n      keccak256\n        /* \"Contracts/AKEB.sol\":1890:1922  return encodedBids[inputAddress] */\n      dup1\n      sload\n      tag_122\n      swap1\n      tag_123\n      jump\t// in\n    tag_122:\n      dup1\n      0x1f\n      add\n      0x20\n      dup1\n      swap2\n      div\n      mul\n      0x20\n      add\n      mload(0x40)\n      swap1\n      dup2\n      add\n      0x40\n      mstore\n      dup1\n      swap3\n      swap2\n      swap1\n      dup2\n      dup2\n      mstore\n      0x20\n      add\n      dup3\n      dup1\n      sload\n      tag_124\n      swap1\n      tag_123\n      jump\t// in\n    tag_124:\n      dup1\n      iszero\n      tag_125\n      jumpi\n      dup1\n      0x1f\n      lt\n      tag_126\n      jumpi\n      0x0100\n      dup1\n      dup4\n      sload\n      div\n      mul\n      dup4\n      mstore\n      swap2\n      0x20\n      add\n      swap2\n      jump(tag_125)\n    tag_126:\n      dup3\n      add\n      swap2\n      swap1\n      0x00\n      mstore\n      keccak256(0x00, 0x20)\n      swap1\n    tag_127:\n      dup2\n      sload\n      dup2\n      mstore\n      swap1\n      0x01\n      add\n      swap1\n      0x20\n      add\n      dup1\n      dup4\n      gt\n      tag_127\n      jumpi\n      dup3\n      swap1\n      sub\n      0x1f\n      and\n      dup3\n      add\n      swap2\n    tag_125:\n      pop\n      pop\n      pop\n      pop\n      pop\n      swap1\n      pop\n        /* \"Contracts/AKEB.sol\":1801:1929  function getEncodedBid(address inputAddress) public view returns(string memory){... */\n      swap2\n      swap1\n      pop\n      jump\t// out\n        /* \"Contracts/AKEB.sol\":2292:2386  function getWinnerAddress() public view returns(address) {... */\n    tag_39:\n        /* \"Contracts/AKEB.sol\":2340:2347  address */\n      0x00\n        /* \"Contracts/AKEB.sol\":2366:2379  winnerAddress */\n      0x06\n      0x00\n      swap1\n      sload\n      swap1\n      0x0100\n      exp\n      swap1\n      div\n      0xffffffffffffffffffffffffffffffffffffffff\n      and\n        /* \"Contracts/AKEB.sol\":2359:2379  return winnerAddress */\n      swap1\n      pop\n        /* \"Contracts/AKEB.sol\":2292:2386  function getWinnerAddress() public view returns(address) {... */\n      swap1\n      jump\t// out\n        /* \"Contracts/AKEB.sol\":326:350  uint256 public winnerBid */\n    tag_43:\n      sload(0x07)\n      dup2\n      jump\t// out\n        /* \"Contracts/AKEB.sol\":1935:2143  function submitWinner(uint256 inputWinnerBid, ... */\n    tag_49:\n        /* \"Contracts/AKEB.sol\":2050:2060  msg.sender */\n      caller\n        /* \"Contracts/AKEB.sol\":2034:2047  winnerAddress */\n      0x06\n      0x00\n        /* \"Contracts/AKEB.sol\":2034:2060  winnerAddress = msg.sender */\n      0x0100\n      exp\n      dup2\n      sload\n      dup2\n      0xffffffffffffffffffffffffffffffffffffffff\n      mul\n      not\n      and\n      swap1\n      dup4\n      0xffffffffffffffffffffffffffffffffffffffff\n      and\n      mul\n      or\n      swap1\n      sstore\n      pop\n        /* \"Contracts/AKEB.sol\":2082:2096  inputWinnerBid */\n      dup2\n        /* \"Contracts/AKEB.sol\":2070:2079  winnerBid */\n      0x07\n        /* \"Contracts/AKEB.sol\":2070:2096  winnerBid = inputWinnerBid */\n      dup2\n      swap1\n      sstore\n      pop\n        /* \"Contracts/AKEB.sol\":2120:2136  inputwinnerNonce */\n      dup1\n        /* \"Contracts/AKEB.sol\":2106:2117  winnerNonce */\n      0x08\n        /* \"Contracts/AKEB.sol\":2106:2136  winnerNonce = inputwinnerNonce */\n      swap1\n      dup1\n      mload\n      swap1\n      0x20\n      add\n      swap1\n      tag_130\n      swap3\n      swap2\n      swap1\n      tag_131\n      jump\t// in\n    tag_130:\n      pop\n        /* \"Contracts/AKEB.sol\":1935:2143  function submitWinner(uint256 inputWinnerBid, ... */\n      pop\n      pop\n      jump\t// out\n        /* \"Contracts/AKEB.sol\":168:194  uint256 public minBidPrice */\n    tag_51:\n      sload(0x03)\n      dup2\n      jump\t// out\n        /* \"Contracts/AKEB.sol\":1552:1663  function getAllDisputers() public view returns(DisputedBidders[] memory){... */\n    tag_54:\n        /* \"Contracts/AKEB.sol\":1599:1623  DisputedBidders[] memory */\n      0x60\n        /* \"Contracts/AKEB.sol\":1641:1656  disputedBidders */\n      0x09\n        /* \"Contracts/AKEB.sol\":1634:1656  return disputedBidders */\n      dup1\n      sload\n      dup1\n      0x20\n      mul\n      0x20\n      add\n      mload(0x40)\n      swap1\n      dup2\n      add\n      0x40\n      mstore\n      dup1\n      swap3\n      swap2\n      swap1\n      dup2\n      dup2\n      mstore\n      0x20\n      add\n      0x00\n      swap1\n    tag_133:\n      dup3\n      dup3\n      lt\n      iszero\n      tag_134\n      jumpi\n      dup4\n      dup3\n      swap1\n      0x00\n      mstore\n      keccak256(0x00, 0x20)\n      swap1\n      0x03\n      mul\n      add\n      mload(0x40)\n      dup1\n      0x60\n      add\n      0x40\n      mstore\n      swap1\n      dup2\n      0x00\n      dup3\n      add\n      sload\n      dup2\n      mstore\n      0x20\n      add\n      0x01\n      dup3\n      add\n      0x00\n      swap1\n      sload\n      swap1\n      0x0100\n      exp\n      swap1\n      div\n      0xffffffffffffffffffffffffffffffffffffffff\n      and\n      0xffffffffffffffffffffffffffffffffffffffff\n      and\n      0xffffffffffffffffffffffffffffffffffffffff\n      and\n      dup2\n      mstore\n      0x20\n      add\n      0x02\n      dup3\n      add\n      dup1\n      sload\n      tag_136\n      swap1\n      tag_123\n      jump\t// in\n    tag_136:\n      dup1\n      0x1f\n      add\n      0x20\n      dup1\n      swap2\n      div\n      mul\n      0x20\n      add\n      mload(0x40)\n      swap1\n      dup2\n      add\n      0x40\n      mstore\n      dup1\n      swap3\n      swap2\n      swap1\n      dup2\n      dup2\n      mstore\n      0x20\n      add\n      dup3\n      dup1\n      sload\n      tag_137\n      swap1\n      tag_123\n      jump\t// in\n    tag_137:\n      dup1\n      iszero\n      tag_138\n      jumpi\n      dup1\n      0x1f\n      lt\n      tag_139\n      jumpi\n      0x0100\n      dup1\n      dup4\n      sload\n      div\n      mul\n      dup4\n      mstore\n      swap2\n      0x20\n      add\n      swap2\n      jump(tag_138)\n    tag_139:\n      dup3\n      add\n      swap2\n      swap1\n      0x00\n      mstore\n      keccak256(0x00, 0x20)\n      swap1\n    tag_140:\n      dup2\n      sload\n      dup2\n      mstore\n      swap1\n      0x01\n      add\n      swap1\n      0x20\n      add\n      dup1\n      dup4\n      gt\n      tag_140\n      jumpi\n      dup3\n      swap1\n      sub\n      0x1f\n      and\n      dup3\n      add\n      swap2\n    tag_138:\n      pop\n      pop\n      pop\n      pop\n      pop\n      dup2\n      mstore\n      pop\n      pop\n      dup2\n      mstore\n      0x20\n      add\n      swap1\n      0x01\n      add\n      swap1\n      jump(tag_133)\n    tag_134:\n      pop\n      pop\n      pop\n      pop\n      swap1\n      pop\n        /* \"Contracts/AKEB.sol\":1552:1663  function getAllDisputers() public view returns(DisputedBidders[] memory){... */\n      swap1\n      jump\t// out\n        /* \"Contracts/AKEB.sol\":240:285  mapping(address => string) public encodedBids */\n    tag_59:\n      mstore(0x20, 0x05)\n      dup1\n      0x00\n      mstore\n      keccak256(0x00, 0x40)\n      0x00\n      swap2\n      pop\n      swap1\n      pop\n      dup1\n      sload\n      tag_141\n      swap1\n      tag_123\n      jump\t// in\n    tag_141:\n      dup1\n      0x1f\n      add\n      0x20\n      dup1\n      swap2\n      div\n      mul\n      0x20\n      add\n      mload(0x40)\n      swap1\n      dup2\n      add\n      0x40\n      mstore\n      dup1\n      swap3\n      swap2\n      swap1\n      dup2\n      dup2\n      mstore\n      0x20\n      add\n      dup3\n      dup1\n      sload\n      tag_142\n      swap1\n      tag_123\n      jump\t// in\n    tag_142:\n      dup1\n      iszero\n      tag_143\n      jumpi\n      dup1\n      0x1f\n      lt\n      tag_144\n      jumpi\n      0x0100\n      dup1\n      dup4\n      sload\n      div\n      mul\n      dup4\n      mstore\n      swap2\n      0x20\n      add\n      swap2\n      jump(tag_143)\n    tag_144:\n      dup3\n      add\n      swap2\n      swap1\n      0x00\n      mstore\n      keccak256(0x00, 0x20)\n      swap1\n    tag_145:\n      dup2\n      sload\n      dup2\n      mstore\n      swap1\n      0x01\n      add\n      swap1\n      0x20\n      add\n      dup1\n      dup4\n      gt\n      tag_145\n      jumpi\n      dup3\n      swap1\n      sub\n      0x1f\n      and\n      dup3\n      add\n      swap2\n    tag_143:\n      pop\n      pop\n      pop\n      pop\n      pop\n      dup2\n      jump\t// out\n        /* \"Contracts/AKEB.sol\":1452:1546  function getAllBidders() public view returns(address[] memory) {... */\n    tag_62:\n        /* \"Contracts/AKEB.sol\":1497:1513  address[] memory */\n      0x60\n        /* \"Contracts/AKEB.sol\":1532:1539  bidders */\n      0x01\n        /* \"Contracts/AKEB.sol\":1525:1539  return bidders */\n      dup1\n      sload\n      dup1\n      0x20\n      mul\n      0x20\n      add\n      mload(0x40)\n      swap1\n      dup2\n      add\n      0x40\n      mstore\n      dup1\n      swap3\n      swap2\n      swap1\n      dup2\n      dup2\n      mstore\n      0x20\n      add\n      dup3\n      dup1\n      sload\n      dup1\n      iszero\n      tag_147\n      jumpi\n      0x20\n      mul\n      dup3\n      add\n      swap2\n      swap1\n      0x00\n      mstore\n      keccak256(0x00, 0x20)\n      swap1\n    tag_148:\n      dup2\n      0x00\n      swap1\n      sload\n      swap1\n      0x0100\n      exp\n      swap1\n      div\n      0xffffffffffffffffffffffffffffffffffffffff\n      and\n      0xffffffffffffffffffffffffffffffffffffffff\n      and\n      dup2\n      mstore\n      0x20\n      add\n      swap1\n      0x01\n      add\n      swap1\n      dup1\n      dup4\n      gt\n      tag_148\n      jumpi\n    tag_147:\n      pop\n      pop\n      pop\n      pop\n      pop\n      swap1\n      pop\n        /* \"Contracts/AKEB.sol\":1452:1546  function getAllBidders() public view returns(address[] memory) {... */\n      swap1\n      jump\t// out\n        /* \"Contracts/AKEB.sol\":3226:3430  function resetEncodedBids() public {... */\n    tag_66:\n        /* \"Contracts/AKEB.sol\":3276:3285  uint256 i */\n      0x00\n        /* \"Contracts/AKEB.sol\":3271:3424  for (uint256 i = 0 ; i < bidders.length; i +=1){... */\n    tag_150:\n        /* \"Contracts/AKEB.sol\":3296:3303  bidders */\n      0x01\n        /* \"Contracts/AKEB.sol\":3296:3310  bidders.length */\n      dup1\n      sload\n      swap1\n      pop\n        /* \"Contracts/AKEB.sol\":3292:3293  i */\n      dup2\n        /* \"Contracts/AKEB.sol\":3292:3310  i < bidders.length */\n      lt\n        /* \"Contracts/AKEB.sol\":3271:3424  for (uint256 i = 0 ; i < bidders.length; i +=1){... */\n      iszero\n      tag_151\n      jumpi\n        /* \"Contracts/AKEB.sol\":3332:3353  address bidderAddress */\n      0x00\n        /* \"Contracts/AKEB.sol\":3356:3363  bidders */\n      0x01\n        /* \"Contracts/AKEB.sol\":3364:3365  i */\n      dup3\n        /* \"Contracts/AKEB.sol\":3356:3366  bidders[i] */\n      dup2\n      sload\n      dup2\n      lt\n      tag_153\n      jumpi\n      tag_154\n      tag_155\n      jump\t// in\n    tag_154:\n    tag_153:\n      swap1\n      0x00\n      mstore\n      keccak256(0x00, 0x20)\n      add\n      0x00\n      swap1\n      sload\n      swap1\n      0x0100\n      exp\n      swap1\n      div\n      0xffffffffffffffffffffffffffffffffffffffff\n      and\n        /* \"Contracts/AKEB.sol\":3332:3366  address bidderAddress = bidders[i] */\n      swap1\n      pop\n        /* \"Contracts/AKEB.sol\":3387:3398  encodedBids */\n      0x05\n        /* \"Contracts/AKEB.sol\":3387:3413  encodedBids[bidderAddress] */\n      0x00\n        /* \"Contracts/AKEB.sol\":3399:3412  bidderAddress */\n      dup3\n        /* \"Contracts/AKEB.sol\":3387:3413  encodedBids[bidderAddress] */\n      0xffffffffffffffffffffffffffffffffffffffff\n      and\n      0xffffffffffffffffffffffffffffffffffffffff\n      and\n      dup2\n      mstore\n      0x20\n      add\n      swap1\n      dup2\n      mstore\n      0x20\n      add\n      0x00\n      keccak256\n      0x00\n        /* \"Contracts/AKEB.sol\":3380:3413  delete encodedBids[bidderAddress] */\n      tag_157\n      swap2\n      swap1\n      tag_158\n      jump\t// in\n    tag_157:\n        /* \"Contracts/AKEB.sol\":3318:3424  {... */\n      pop\n        /* \"Contracts/AKEB.sol\":3316:3317  1 */\n      0x01\n        /* \"Contracts/AKEB.sol\":3312:3317  i +=1 */\n      dup2\n      tag_159\n      swap2\n      swap1\n      tag_160\n      jump\t// in\n    tag_159:\n      swap1\n      pop\n        /* \"Contracts/AKEB.sol\":3271:3424  for (uint256 i = 0 ; i < bidders.length; i +=1){... */\n      jump(tag_150)\n    tag_151:\n      pop\n        /* \"Contracts/AKEB.sol\":3226:3430  function resetEncodedBids() public {... */\n      jump\t// out\n        /* \"Contracts/AKEB.sol\":1341:1446  function getBidderAddress(uint index) public view returns(address) {... */\n    tag_70:\n        /* \"Contracts/AKEB.sol\":1399:1406  address */\n      0x00\n        /* \"Contracts/AKEB.sol\":1425:1432  bidders */\n      0x01\n        /* \"Contracts/AKEB.sol\":1433:1438  index */\n      dup3\n        /* \"Contracts/AKEB.sol\":1425:1439  bidders[index] */\n      dup2\n      sload\n      dup2\n      lt\n      tag_162\n      jumpi\n      tag_163\n      tag_155\n      jump\t// in\n    tag_163:\n    tag_162:\n      swap1\n      0x00\n      mstore\n      keccak256(0x00, 0x20)\n      add\n      0x00\n      swap1\n      sload\n      swap1\n      0x0100\n      exp\n      swap1\n      div\n      0xffffffffffffffffffffffffffffffffffffffff\n      and\n        /* \"Contracts/AKEB.sol\":1418:1439  return bidders[index] */\n      swap1\n      pop\n        /* \"Contracts/AKEB.sol\":1341:1446  function getBidderAddress(uint index) public view returns(address) {... */\n      swap2\n      swap1\n      pop\n      jump\t// out\n        /* \"Contracts/AKEB.sol\":2585:2889  function dispute(uint256 inputDisputedBid, ... */\n    tag_74:\n        /* \"Contracts/AKEB.sol\":2684:2721  DisputedBidders memory disputedBidder */\n      0x00\n        /* \"Contracts/AKEB.sol\":2724:2835  DisputedBidders(... */\n      mload(0x40)\n      dup1\n      0x60\n      add\n      0x40\n      mstore\n      dup1\n        /* \"Contracts/AKEB.sol\":2753:2769  inputDisputedBid */\n      dup5\n        /* \"Contracts/AKEB.sol\":2724:2835  DisputedBidders(... */\n      dup2\n      mstore\n      0x20\n      add\n        /* \"Contracts/AKEB.sol\":2783:2793  msg.sender */\n      caller\n        /* \"Contracts/AKEB.sol\":2724:2835  DisputedBidders(... */\n      0xffffffffffffffffffffffffffffffffffffffff\n      and\n      dup2\n      mstore\n      0x20\n      add\n        /* \"Contracts/AKEB.sol\":2807:2825  inputDisputedNonce */\n      dup4\n        /* \"Contracts/AKEB.sol\":2724:2835  DisputedBidders(... */\n      dup2\n      mstore\n      pop\n        /* \"Contracts/AKEB.sol\":2684:2835  DisputedBidders memory disputedBidder = DisputedBidders(... */\n      swap1\n      pop\n        /* \"Contracts/AKEB.sol\":2846:2861  disputedBidders */\n      0x09\n        /* \"Contracts/AKEB.sol\":2867:2881  disputedBidder */\n      dup2\n        /* \"Contracts/AKEB.sol\":2846:2882  disputedBidders.push(disputedBidder) */\n      swap1\n      dup1\n      0x01\n      dup2\n      sload\n      add\n      dup1\n      dup3\n      sstore\n      dup1\n      swap2\n      pop\n      pop\n      0x01\n      swap1\n      sub\n      swap1\n      0x00\n      mstore\n      keccak256(0x00, 0x20)\n      swap1\n      0x03\n      mul\n      add\n      0x00\n      swap1\n      swap2\n      swap1\n      swap2\n      swap1\n      swap2\n      pop\n      0x00\n      dup3\n      add\n      mload\n      dup2\n      0x00\n      add\n      sstore\n      0x20\n      dup3\n      add\n      mload\n      dup2\n      0x01\n      add\n      exp(0x0100, 0x00)\n      dup2\n      sload\n      dup2\n      0xffffffffffffffffffffffffffffffffffffffff\n      mul\n      not\n      and\n      swap1\n      dup4\n      0xffffffffffffffffffffffffffffffffffffffff\n      and\n      mul\n      or\n      swap1\n      sstore\n      pop\n      0x40\n      dup3\n      add\n      mload\n      dup2\n      0x02\n      add\n      swap1\n      dup1\n      mload\n      swap1\n      0x20\n      add\n      swap1\n      tag_167\n      swap3\n      swap2\n      swap1\n      tag_131\n      jump\t// in\n    tag_167:\n      pop\n      pop\n      pop\n        /* \"Contracts/AKEB.sol\":2674:2889  {... */\n      pop\n        /* \"Contracts/AKEB.sol\":2585:2889  function dispute(uint256 inputDisputedBid, ... */\n      pop\n      pop\n      jump\t// out\n        /* \"Contracts/AKEB.sol\":819:929  function getSampleString() public pure returns(string memory){... */\n    tag_76:\n        /* \"Contracts/AKEB.sol\":866:879  string memory */\n      0x60\n        /* \"Contracts/AKEB.sol\":890:922  return \"sample string from AKEB\" */\n      mload(0x40)\n      dup1\n      0x40\n      add\n      0x40\n      mstore\n      dup1\n      0x17\n      dup2\n      mstore\n      0x20\n      add\n      0x73616d706c6520737472696e672066726f6d20414b4542000000000000000000\n      dup2\n      mstore\n      pop\n      swap1\n      pop\n        /* \"Contracts/AKEB.sol\":819:929  function getSampleString() public pure returns(string memory){... */\n      swap1\n      jump\t// out\n        /* \"Contracts/AKEB.sol\":2149:2286  function getWinner() public view returns(address, uint256, string memory) {... */\n    tag_79:\n        /* \"Contracts/AKEB.sol\":2190:2197  address */\n      0x00\n        /* \"Contracts/AKEB.sol\":2199:2206  uint256 */\n      dup1\n        /* \"Contracts/AKEB.sol\":2208:2221  string memory */\n      0x60\n        /* \"Contracts/AKEB.sol\":2241:2254  winnerAddress */\n      0x06\n      0x00\n      swap1\n      sload\n      swap1\n      0x0100\n      exp\n      swap1\n      div\n      0xffffffffffffffffffffffffffffffffffffffff\n      and\n        /* \"Contracts/AKEB.sol\":2256:2265  winnerBid */\n      sload(0x07)\n        /* \"Contracts/AKEB.sol\":2267:2278  winnerNonce */\n      0x08\n        /* \"Contracts/AKEB.sol\":2233:2279  return (winnerAddress, winnerBid, winnerNonce) */\n      dup1\n      dup1\n      sload\n      tag_170\n      swap1\n      tag_123\n      jump\t// in\n    tag_170:\n      dup1\n      0x1f\n      add\n      0x20\n      dup1\n      swap2\n      div\n      mul\n      0x20\n      add\n      mload(0x40)\n      swap1\n      dup2\n      add\n      0x40\n      mstore\n      dup1\n      swap3\n      swap2\n      swap1\n      dup2\n      dup2\n      mstore\n      0x20\n      add\n      dup3\n      dup1\n      sload\n      tag_171\n      swap1\n      tag_123\n      jump\t// in\n    tag_171:\n      dup1\n      iszero\n      tag_172\n      jumpi\n      dup1\n      0x1f\n      lt\n      tag_173\n      jumpi\n      0x0100\n      dup1\n      dup4\n      sload\n      div\n      mul\n      dup4\n      mstore\n      swap2\n      0x20\n      add\n      swap2\n      jump(tag_172)\n    tag_173:\n      dup3\n      add\n      swap2\n      swap1\n      0x00\n      mstore\n      keccak256(0x00, 0x20)\n      swap1\n    tag_174:\n      dup2\n      sload\n      dup2\n      mstore\n      swap1\n      0x01\n      add\n      swap1\n      0x20\n      add\n      dup1\n      dup4\n      gt\n      tag_174\n      jumpi\n      dup3\n      swap1\n      sub\n      0x1f\n      and\n      dup3\n      add\n      swap2\n    tag_172:\n      pop\n      pop\n      pop\n      pop\n      pop\n      swap1\n      pop\n      swap3\n      pop\n      swap3\n      pop\n      swap3\n      pop\n        /* \"Contracts/AKEB.sol\":2149:2286  function getWinner() public view returns(address, uint256, string memory) {... */\n      swap1\n      swap2\n      swap3\n      jump\t// out\n        /* \"Contracts/AKEB.sol\":499:539  DisputedBidders[] public disputedBidders */\n    tag_84:\n      0x09\n      dup2\n      dup2\n      sload\n      dup2\n      lt\n      tag_175\n      jumpi\n      0x00\n      dup1\n      revert\n    tag_175:\n      swap1\n      0x00\n      mstore\n      keccak256(0x00, 0x20)\n      swap1\n      0x03\n      mul\n      add\n      0x00\n      swap2\n      pop\n      swap1\n      pop\n      dup1\n      0x00\n      add\n      sload\n      swap1\n      dup1\n      0x01\n      add\n      0x00\n      swap1\n      sload\n      swap1\n      0x0100\n      exp\n      swap1\n      div\n      0xffffffffffffffffffffffffffffffffffffffff\n      and\n      swap1\n      dup1\n      0x02\n      add\n      dup1\n      sload\n      tag_177\n      swap1\n      tag_123\n      jump\t// in\n    tag_177:\n      dup1\n      0x1f\n      add\n      0x20\n      dup1\n      swap2\n      div\n      mul\n      0x20\n      add\n      mload(0x40)\n      swap1\n      dup2\n      add\n      0x40\n      mstore\n      dup1\n      swap3\n      swap2\n      swap1\n      dup2\n      dup2\n      mstore\n      0x20\n      add\n      dup3\n      dup1\n      sload\n      tag_178\n      swap1\n      tag_123\n      jump\t// in\n    tag_178:\n      dup1\n      iszero\n      tag_179\n      jumpi\n      dup1\n      0x1f\n      lt\n      tag_180\n      jumpi\n      0x0100\n      dup1\n      dup4\n      sload\n      div\n      mul\n      dup4\n      mstore\n      swap2\n      0x20\n      add\n      swap2\n      jump(tag_179)\n    tag_180:\n      dup3\n      add\n      swap2\n      swap1\n      0x00\n      mstore\n      keccak256(0x00, 0x20)\n      swap1\n    tag_181:\n      dup2\n      sload\n      dup2\n      mstore\n      swap1\n      0x01\n      add\n      swap1\n      0x20\n      add\n      dup1\n      dup4\n      gt\n      tag_181\n      jumpi\n      dup3\n      swap1\n      sub\n      0x1f\n      and\n      dup3\n      add\n      swap2\n    tag_179:\n      pop\n      pop\n      pop\n      pop\n      pop\n      swap1\n      pop\n      dup4\n      jump\t// out\n        /* \"Contracts/AKEB.sol\":132:162  string public assetDescription */\n    tag_88:\n      0x02\n      dup1\n      sload\n      tag_182\n      swap1\n      tag_123\n      jump\t// in\n    tag_182:\n      dup1\n      0x1f\n      add\n      0x20\n      dup1\n      swap2\n      div\n      mul\n      0x20\n      add\n      mload(0x40)\n      swap1\n      dup2\n      add\n      0x40\n      mstore\n      dup1\n      swap3\n      swap2\n      swap1\n      dup2\n      dup2\n      mstore\n      0x20\n      add\n      dup3\n      dup1\n      sload\n      tag_183\n      swap1\n      tag_123\n      jump\t// in\n    tag_183:\n      dup1\n      iszero\n      tag_184\n      jumpi\n      dup1\n      0x1f\n      lt\n      tag_185\n      jumpi\n      0x0100\n      dup1\n      dup4\n      sload\n      div\n      mul\n      dup4\n      mstore\n      swap2\n      0x20\n      add\n      swap2\n      jump(tag_184)\n    tag_185:\n      dup3\n      add\n      swap2\n      swap1\n      0x00\n      mstore\n      keccak256(0x00, 0x20)\n      swap1\n    tag_186:\n      dup2\n      sload\n      dup2\n      mstore\n      swap1\n      0x01\n      add\n      swap1\n      0x20\n      add\n      dup1\n      dup4\n      gt\n      tag_186\n      jumpi\n      dup3\n      swap1\n      sub\n      0x1f\n      and\n      dup3\n      add\n      swap2\n    tag_184:\n      pop\n      pop\n      pop\n      pop\n      pop\n      dup2\n      jump\t// out\n        /* \"Contracts/AKEB.sol\":2484:2579  function getwinnerNonce() public view returns(string memory){... */\n    tag_91:\n        /* \"Contracts/AKEB.sol\":2530:2543  string memory */\n      0x60\n        /* \"Contracts/AKEB.sol\":2561:2572  winnerNonce */\n      0x08\n        /* \"Contracts/AKEB.sol\":2554:2572  return winnerNonce */\n      dup1\n      sload\n      tag_188\n      swap1\n      tag_123\n      jump\t// in\n    tag_188:\n      dup1\n      0x1f\n      add\n      0x20\n      dup1\n      swap2\n      div\n      mul\n      0x20\n      add\n      mload(0x40)\n      swap1\n      dup2\n      add\n      0x40\n      mstore\n      dup1\n      swap3\n      swap2\n      swap1\n      dup2\n      dup2\n      mstore\n      0x20\n      add\n      dup3\n      dup1\n      sload\n      tag_189\n      swap1\n      tag_123\n      jump\t// in\n    tag_189:\n      dup1\n      iszero\n      tag_190\n      jumpi\n      dup1\n      0x1f\n      lt\n      tag_191\n      jumpi\n      0x0100\n      dup1\n      dup4\n      sload\n      div\n      mul\n      dup4\n      mstore\n      swap2\n      0x20\n      add\n      swap2\n      jump(tag_190)\n    tag_191:\n      dup3\n      add\n      swap2\n      swap1\n      0x00\n      mstore\n      keccak256(0x00, 0x20)\n      swap1\n    tag_192:\n      dup2\n      sload\n      dup2\n      mstore\n      swap1\n      0x01\n      add\n      swap1\n      0x20\n      add\n      dup1\n      dup4\n      gt\n      tag_192\n      jumpi\n      dup3\n      swap1\n      sub\n      0x1f\n      and\n      dup3\n      add\n      swap2\n    tag_190:\n      pop\n      pop\n      pop\n      pop\n      pop\n      swap1\n      pop\n        /* \"Contracts/AKEB.sol\":2484:2579  function getwinnerNonce() public view returns(string memory){... */\n      swap1\n      jump\t// out\n        /* \"Contracts/AKEB.sol\":1669:1795  function submitEncodedBid(string memory inputEncodedBid)... */\n    tag_96:\n        /* \"Contracts/AKEB.sol\":1773:1788  inputEncodedBid */\n      dup1\n        /* \"Contracts/AKEB.sol\":1747:1758  encodedBids */\n      0x05\n        /* \"Contracts/AKEB.sol\":1747:1770  encodedBids[msg.sender] */\n      0x00\n        /* \"Contracts/AKEB.sol\":1759:1769  msg.sender */\n      caller\n        /* \"Contracts/AKEB.sol\":1747:1770  encodedBids[msg.sender] */\n      0xffffffffffffffffffffffffffffffffffffffff\n      and\n      0xffffffffffffffffffffffffffffffffffffffff\n      and\n      dup2\n      mstore\n      0x20\n      add\n      swap1\n      dup2\n      mstore\n      0x20\n      add\n      0x00\n      keccak256\n        /* \"Contracts/AKEB.sol\":1747:1788  encodedBids[msg.sender] = inputEncodedBid */\n      swap1\n      dup1\n      mload\n      swap1\n      0x20\n      add\n      swap1\n      tag_194\n      swap3\n      swap2\n      swap1\n      tag_131\n      jump\t// in\n    tag_194:\n      pop\n        /* \"Contracts/AKEB.sol\":1669:1795  function submitEncodedBid(string memory inputEncodedBid)... */\n      pop\n      jump\t// out\n        /* \"Contracts/AKEB.sol\":2392:2478  function getWinnerBid() public view returns(uint256) {... */\n    tag_98:\n        /* \"Contracts/AKEB.sol\":2436:2443  uint256 */\n      0x00\n        /* \"Contracts/AKEB.sol\":2462:2471  winnerBid */\n      sload(0x07)\n        /* \"Contracts/AKEB.sol\":2455:2471  return winnerBid */\n      swap1\n      pop\n        /* \"Contracts/AKEB.sol\":2392:2478  function getWinnerBid() public view returns(uint256) {... */\n      swap1\n      jump\t// out\n        /* \"Contracts/AKEB.sol\":102:126  address[] public bidders */\n    tag_102:\n      0x01\n      dup2\n      dup2\n      sload\n      dup2\n      lt\n      tag_196\n      jumpi\n      0x00\n      dup1\n      revert\n    tag_196:\n      swap1\n      0x00\n      mstore\n      keccak256(0x00, 0x20)\n      add\n      0x00\n      swap2\n      pop\n      sload\n      swap1\n      0x0100\n      exp\n      swap1\n      div\n      0xffffffffffffffffffffffffffffffffffffffff\n      and\n      dup2\n      jump\t// out\n        /* \"Contracts/AKEB.sol\":2895:3220  function reset() public {... */\n    tag_105:\n        /* \"Contracts/AKEB.sol\":2946:2988  0x0000000000000000000000000000000000000000 */\n      0x00\n        /* \"Contracts/AKEB.sol\":2929:2942  winnerAddress */\n      0x06\n      0x00\n        /* \"Contracts/AKEB.sol\":2929:2988  winnerAddress =  0x0000000000000000000000000000000000000000 */\n      0x0100\n      exp\n      dup2\n      sload\n      dup2\n      0xffffffffffffffffffffffffffffffffffffffff\n      mul\n      not\n      and\n      swap1\n      dup4\n      0xffffffffffffffffffffffffffffffffffffffff\n      and\n      mul\n      or\n      swap1\n      sstore\n      pop\n        /* \"Contracts/AKEB.sol\":3010:3011  0 */\n      0x00\n        /* \"Contracts/AKEB.sol\":2998:3007  winnerBid */\n      0x07\n        /* \"Contracts/AKEB.sol\":2998:3011  winnerBid = 0 */\n      dup2\n      swap1\n      sstore\n      pop\n        /* \"Contracts/AKEB.sol\":3021:3037  winnerNonce = \"\" */\n      mload(0x40)\n      dup1\n      0x20\n      add\n      0x40\n      mstore\n      dup1\n      0x00\n      dup2\n      mstore\n      pop\n        /* \"Contracts/AKEB.sol\":3021:3032  winnerNonce */\n      0x08\n        /* \"Contracts/AKEB.sol\":3021:3037  winnerNonce = \"\" */\n      swap1\n      dup1\n      mload\n      swap1\n      0x20\n      add\n      swap1\n      tag_199\n      swap3\n      swap2\n      swap1\n      tag_131\n      jump\t// in\n    tag_199:\n      pop\n        /* \"Contracts/AKEB.sol\":3048:3069  assetDescription = \"\" */\n      mload(0x40)\n      dup1\n      0x20\n      add\n      0x40\n      mstore\n      dup1\n      0x00\n      dup2\n      mstore\n      pop\n        /* \"Contracts/AKEB.sol\":3048:3064  assetDescription */\n      0x02\n        /* \"Contracts/AKEB.sol\":3048:3069  assetDescription = \"\" */\n      swap1\n      dup1\n      mload\n      swap1\n      0x20\n      add\n      swap1\n      tag_200\n      swap3\n      swap2\n      swap1\n      tag_131\n      jump\t// in\n    tag_200:\n      pop\n        /* \"Contracts/AKEB.sol\":3093:3094  0 */\n      0x00\n        /* \"Contracts/AKEB.sol\":3079:3090  minBidPrice */\n      0x03\n        /* \"Contracts/AKEB.sol\":3079:3094  minBidPrice = 0 */\n      dup2\n      swap1\n      sstore\n      pop\n        /* \"Contracts/AKEB.sol\":3125:3126  0 */\n      0x00\n        /* \"Contracts/AKEB.sol\":3104:3122  minNumberOfBidders */\n      0x04\n        /* \"Contracts/AKEB.sol\":3104:3126  minNumberOfBidders = 0 */\n      dup2\n      swap1\n      sstore\n      pop\n        /* \"Contracts/AKEB.sol\":3137:3155  resetEncodedBids() */\n      tag_201\n        /* \"Contracts/AKEB.sol\":3137:3153  resetEncodedBids */\n      tag_66\n        /* \"Contracts/AKEB.sol\":3137:3155  resetEncodedBids() */\n      jump\t// in\n    tag_201:\n        /* \"Contracts/AKEB.sol\":3173:3180  bidders */\n      0x01\n      0x00\n        /* \"Contracts/AKEB.sol\":3166:3180  delete bidders */\n      tag_202\n      swap2\n      swap1\n      tag_203\n      jump\t// in\n    tag_202:\n        /* \"Contracts/AKEB.sol\":3198:3213  disputedBidders */\n      0x09\n      0x00\n        /* \"Contracts/AKEB.sol\":3191:3213  delete disputedBidders */\n      tag_204\n      swap2\n      swap1\n      tag_205\n      jump\t// in\n    tag_204:\n        /* \"Contracts/AKEB.sol\":2895:3220  function reset() public {... */\n      jump\t// out\n        /* \"Contracts/AKEB.sol\":200:233  uint256 public minNumberOfBidders */\n    tag_107:\n      sload(0x04)\n      dup2\n      jump\t// out\n        /* \"Contracts/AKEB.sol\":356:381  string public winnerNonce */\n    tag_110:\n      0x08\n      dup1\n      sload\n      tag_206\n      swap1\n      tag_123\n      jump\t// in\n    tag_206:\n      dup1\n      0x1f\n      add\n      0x20\n      dup1\n      swap2\n      div\n      mul\n      0x20\n      add\n      mload(0x40)\n      swap1\n      dup2\n      add\n      0x40\n      mstore\n      dup1\n      swap3\n      swap2\n      swap1\n      dup2\n      dup2\n      mstore\n      0x20\n      add\n      dup3\n      dup1\n      sload\n      tag_207\n      swap1\n      tag_123\n      jump\t// in\n    tag_207:\n      dup1\n      iszero\n      tag_208\n      jumpi\n      dup1\n      0x1f\n      lt\n      tag_209\n      jumpi\n      0x0100\n      dup1\n      dup4\n      sload\n      div\n      mul\n      dup4\n      mstore\n      swap2\n      0x20\n      add\n      swap2\n      jump(tag_208)\n    tag_209:\n      dup3\n      add\n      swap2\n      swap1\n      0x00\n      mstore\n      keccak256(0x00, 0x20)\n      swap1\n    tag_210:\n      dup2\n      sload\n      dup2\n      mstore\n      swap1\n      0x01\n      add\n      swap1\n      0x20\n      add\n      dup1\n      dup4\n      gt\n      tag_210\n      jumpi\n      dup3\n      swap1\n      sub\n      0x1f\n      and\n      dup3\n      add\n      swap2\n    tag_208:\n      pop\n      pop\n      pop\n      pop\n      pop\n      dup2\n      jump\t// out\n        /* \"Contracts/AKEB.sol\":935:1255  function registerAuctionInfo(string memory assetDescriptionInput, ... */\n    tag_115:\n        /* \"Contracts/AKEB.sol\":610:620  auctioneer */\n      0x00\n      dup1\n      sload\n      swap1\n      0x0100\n      exp\n      swap1\n      div\n      0xffffffffffffffffffffffffffffffffffffffff\n      and\n        /* \"Contracts/AKEB.sol\":596:620  msg.sender == auctioneer */\n      0xffffffffffffffffffffffffffffffffffffffff\n      and\n        /* \"Contracts/AKEB.sol\":596:606  msg.sender */\n      caller\n        /* \"Contracts/AKEB.sol\":596:620  msg.sender == auctioneer */\n      0xffffffffffffffffffffffffffffffffffffffff\n      and\n      eq\n        /* \"Contracts/AKEB.sol\":588:664  require(msg.sender == auctioneer, \"Only auctioneer can call this function.\") */\n      tag_212\n      jumpi\n      mload(0x40)\n      0x08c379a000000000000000000000000000000000000000000000000000000000\n      dup2\n      mstore\n      0x04\n      add\n      tag_213\n      swap1\n      tag_214\n      jump\t// in\n    tag_213:\n      mload(0x40)\n      dup1\n      swap2\n      sub\n      swap1\n      revert\n    tag_212:\n        /* \"Contracts/AKEB.sol\":1133:1154  assetDescriptionInput */\n      dup3\n        /* \"Contracts/AKEB.sol\":1114:1130  assetDescription */\n      0x02\n        /* \"Contracts/AKEB.sol\":1114:1154  assetDescription = assetDescriptionInput */\n      swap1\n      dup1\n      mload\n      swap1\n      0x20\n      add\n      swap1\n      tag_216\n      swap3\n      swap2\n      swap1\n      tag_131\n      jump\t// in\n    tag_216:\n      pop\n        /* \"Contracts/AKEB.sol\":1178:1194  minBidPriceInput */\n      dup2\n        /* \"Contracts/AKEB.sol\":1164:1175  minBidPrice */\n      0x03\n        /* \"Contracts/AKEB.sol\":1164:1194  minBidPrice = minBidPriceInput */\n      dup2\n      swap1\n      sstore\n      pop\n        /* \"Contracts/AKEB.sol\":1225:1248  minNumberOfBiddersInput */\n      dup1\n        /* \"Contracts/AKEB.sol\":1204:1222  minNumberOfBidders */\n      0x04\n        /* \"Contracts/AKEB.sol\":1204:1248  minNumberOfBidders = minNumberOfBiddersInput */\n      dup2\n      swap1\n      sstore\n      pop\n        /* \"Contracts/AKEB.sol\":935:1255  function registerAuctionInfo(string memory assetDescriptionInput, ... */\n      pop\n      pop\n      pop\n      jump\t// out\n        /* \"Contracts/AKEB.sol\":292:320  address public winnerAddress */\n    tag_117:\n      0x06\n      0x00\n      swap1\n      sload\n      swap1\n      0x0100\n      exp\n      swap1\n      div\n      0xffffffffffffffffffffffffffffffffffffffff\n      and\n      dup2\n      jump\t// out\n        /* \"Contracts/AKEB.sol\":1261:1335  function registerBidder() public {... */\n    tag_120:\n        /* \"Contracts/AKEB.sol\":1304:1311  bidders */\n      0x01\n        /* \"Contracts/AKEB.sol\":1317:1327  msg.sender */\n      caller\n        /* \"Contracts/AKEB.sol\":1304:1328  bidders.push(msg.sender) */\n      swap1\n      dup1\n      0x01\n      dup2\n      sload\n      add\n      dup1\n      dup3\n      sstore\n      dup1\n      swap2\n      pop\n      pop\n      0x01\n      swap1\n      sub\n      swap1\n      0x00\n      mstore\n      keccak256(0x00, 0x20)\n      add\n      0x00\n      swap1\n      swap2\n      swap1\n      swap2\n      swap1\n      swap2\n      0x0100\n      exp\n      dup2\n      sload\n      dup2\n      0xffffffffffffffffffffffffffffffffffffffff\n      mul\n      not\n      and\n      swap1\n      dup4\n      0xffffffffffffffffffffffffffffffffffffffff\n      and\n      mul\n      or\n      swap1\n      sstore\n      pop\n        /* \"Contracts/AKEB.sol\":1261:1335  function registerBidder() public {... */\n      jump\t// out\n    tag_131:\n      dup3\n      dup1\n      sload\n      tag_219\n      swap1\n      tag_123\n      jump\t// in\n    tag_219:\n      swap1\n      0x00\n      mstore\n      keccak256(0x00, 0x20)\n      swap1\n      0x1f\n      add\n      0x20\n      swap1\n      div\n      dup2\n      add\n      swap3\n      dup3\n      tag_221\n      jumpi\n      0x00\n      dup6\n      sstore\n      jump(tag_220)\n    tag_221:\n      dup3\n      0x1f\n      lt\n      tag_222\n      jumpi\n      dup1\n      mload\n      not(0xff)\n      and\n      dup4\n      dup1\n      add\n      or\n      dup6\n      sstore\n      jump(tag_220)\n    tag_222:\n      dup3\n      dup1\n      add\n      0x01\n      add\n      dup6\n      sstore\n      dup3\n      iszero\n      tag_220\n      jumpi\n      swap2\n      dup3\n      add\n    tag_223:\n      dup3\n      dup2\n      gt\n      iszero\n      tag_224\n      jumpi\n      dup3\n      mload\n      dup3\n      sstore\n      swap2\n      0x20\n      add\n      swap2\n      swap1\n      0x01\n      add\n      swap1\n      jump(tag_223)\n    tag_224:\n    tag_220:\n      pop\n      swap1\n      pop\n      tag_225\n      swap2\n      swap1\n      tag_226\n      jump\t// in\n    tag_225:\n      pop\n      swap1\n      jump\t// out\n    tag_158:\n      pop\n      dup1\n      sload\n      tag_227\n      swap1\n      tag_123\n      jump\t// in\n    tag_227:\n      0x00\n      dup3\n      sstore\n      dup1\n      0x1f\n      lt\n      tag_229\n      jumpi\n      pop\n      jump(tag_228)\n    tag_229:\n      0x1f\n      add\n      0x20\n      swap1\n      div\n      swap1\n      0x00\n      mstore\n      keccak256(0x00, 0x20)\n      swap1\n      dup2\n      add\n      swap1\n      tag_230\n      swap2\n      swap1\n      tag_226\n      jump\t// in\n    tag_230:\n    tag_228:\n      pop\n      jump\t// out\n    tag_203:\n      pop\n      dup1\n      sload\n      0x00\n      dup3\n      sstore\n      swap1\n      0x00\n      mstore\n      keccak256(0x00, 0x20)\n      swap1\n      dup2\n      add\n      swap1\n      tag_232\n      swap2\n      swap1\n      tag_226\n      jump\t// in\n    tag_232:\n      pop\n      jump\t// out\n    tag_205:\n      pop\n      dup1\n      sload\n      0x00\n      dup3\n      sstore\n      0x03\n      mul\n      swap1\n      0x00\n      mstore\n      keccak256(0x00, 0x20)\n      swap1\n      dup2\n      add\n      swap1\n      tag_234\n      swap2\n      swap1\n      tag_235\n      jump\t// in\n    tag_234:\n      pop\n      jump\t// out\n    tag_226:\n    tag_236:\n      dup1\n      dup3\n      gt\n      iszero\n      tag_237\n      jumpi\n      0x00\n      dup2\n      0x00\n      swap1\n      sstore\n      pop\n      0x01\n      add\n      jump(tag_236)\n    tag_237:\n      pop\n      swap1\n      jump\t// out\n    tag_235:\n    tag_238:\n      dup1\n      dup3\n      gt\n      iszero\n      tag_239\n      jumpi\n      0x00\n      dup1\n      dup3\n      add\n      0x00\n      swap1\n      sstore\n      0x01\n      dup3\n      add\n      exp(0x0100, 0x00)\n      dup2\n      sload\n      swap1\n      0xffffffffffffffffffffffffffffffffffffffff\n      mul\n      not\n      and\n      swap1\n      sstore\n      0x02\n      dup3\n      add\n      0x00\n      tag_240\n      swap2\n      swap1\n      tag_158\n      jump\t// in\n    tag_240:\n      pop\n      0x03\n      add\n      jump(tag_238)\n    tag_239:\n      pop\n      swap1\n      jump\t// out\n        /* \"#utility.yul\":7:82   */\n    tag_241:\n        /* \"#utility.yul\":40:46   */\n      0x00\n        /* \"#utility.yul\":73:75   */\n      0x40\n        /* \"#utility.yul\":67:76   */\n      mload\n        /* \"#utility.yul\":57:76   */\n      swap1\n      pop\n        /* \"#utility.yul\":7:82   */\n      swap1\n      jump\t// out\n        /* \"#utility.yul\":88:205   */\n    tag_242:\n        /* \"#utility.yul\":197:198   */\n      0x00\n        /* \"#utility.yul\":194:195   */\n      dup1\n        /* \"#utility.yul\":187:199   */\n      revert\n        /* \"#utility.yul\":211:328   */\n    tag_243:\n        /* \"#utility.yul\":320:321   */\n      0x00\n        /* \"#utility.yul\":317:318   */\n      dup1\n        /* \"#utility.yul\":310:322   */\n      revert\n        /* \"#utility.yul\":334:460   */\n    tag_244:\n        /* \"#utility.yul\":371:378   */\n      0x00\n        /* \"#utility.yul\":411:453   */\n      0xffffffffffffffffffffffffffffffffffffffff\n        /* \"#utility.yul\":404:409   */\n      dup3\n        /* \"#utility.yul\":400:454   */\n      and\n        /* \"#utility.yul\":389:454   */\n      swap1\n      pop\n        /* \"#utility.yul\":334:460   */\n      swap2\n      swap1\n      pop\n      jump\t// out\n        /* \"#utility.yul\":466:562   */\n    tag_245:\n        /* \"#utility.yul\":503:510   */\n      0x00\n        /* \"#utility.yul\":532:556   */\n      tag_294\n        /* \"#utility.yul\":550:555   */\n      dup3\n        /* \"#utility.yul\":532:556   */\n      tag_244\n      jump\t// in\n    tag_294:\n        /* \"#utility.yul\":521:556   */\n      swap1\n      pop\n        /* \"#utility.yul\":466:562   */\n      swap2\n      swap1\n      pop\n      jump\t// out\n        /* \"#utility.yul\":568:690   */\n    tag_246:\n        /* \"#utility.yul\":641:665   */\n      tag_296\n        /* \"#utility.yul\":659:664   */\n      dup2\n        /* \"#utility.yul\":641:665   */\n      tag_245\n      jump\t// in\n    tag_296:\n        /* \"#utility.yul\":634:639   */\n      dup2\n        /* \"#utility.yul\":631:666   */\n      eq\n        /* \"#utility.yul\":621:684   */\n      tag_297\n      jumpi\n        /* \"#utility.yul\":680:681   */\n      0x00\n        /* \"#utility.yul\":677:678   */\n      dup1\n        /* \"#utility.yul\":670:682   */\n      revert\n        /* \"#utility.yul\":621:684   */\n    tag_297:\n        /* \"#utility.yul\":568:690   */\n      pop\n      jump\t// out\n        /* \"#utility.yul\":696:835   */\n    tag_247:\n        /* \"#utility.yul\":742:747   */\n      0x00\n        /* \"#utility.yul\":780:786   */\n      dup2\n        /* \"#utility.yul\":767:787   */\n      calldataload\n        /* \"#utility.yul\":758:787   */\n      swap1\n      pop\n        /* \"#utility.yul\":796:829   */\n      tag_299\n        /* \"#utility.yul\":823:828   */\n      dup2\n        /* \"#utility.yul\":796:829   */\n      tag_246\n      jump\t// in\n    tag_299:\n        /* \"#utility.yul\":696:835   */\n      swap3\n      swap2\n      pop\n      pop\n      jump\t// out\n        /* \"#utility.yul\":841:1170   */\n    tag_34:\n        /* \"#utility.yul\":900:906   */\n      0x00\n        /* \"#utility.yul\":949:951   */\n      0x20\n        /* \"#utility.yul\":937:946   */\n      dup3\n        /* \"#utility.yul\":928:935   */\n      dup5\n        /* \"#utility.yul\":924:947   */\n      sub\n        /* \"#utility.yul\":920:952   */\n      slt\n        /* \"#utility.yul\":917:1036   */\n      iszero\n      tag_301\n      jumpi\n        /* \"#utility.yul\":955:1034   */\n      tag_302\n      tag_242\n      jump\t// in\n    tag_302:\n        /* \"#utility.yul\":917:1036   */\n    tag_301:\n        /* \"#utility.yul\":1075:1076   */\n      0x00\n        /* \"#utility.yul\":1100:1153   */\n      tag_303\n        /* \"#utility.yul\":1145:1152   */\n      dup5\n        /* \"#utility.yul\":1136:1142   */\n      dup3\n        /* \"#utility.yul\":1125:1134   */\n      dup6\n        /* \"#utility.yul\":1121:1143   */\n      add\n        /* \"#utility.yul\":1100:1153   */\n      tag_247\n      jump\t// in\n    tag_303:\n        /* \"#utility.yul\":1090:1153   */\n      swap2\n      pop\n        /* \"#utility.yul\":1046:1163   */\n      pop\n        /* \"#utility.yul\":841:1170   */\n      swap3\n      swap2\n      pop\n      pop\n      jump\t// out\n        /* \"#utility.yul\":1176:1275   */\n    tag_248:\n        /* \"#utility.yul\":1228:1234   */\n      0x00\n        /* \"#utility.yul\":1262:1267   */\n      dup2\n        /* \"#utility.yul\":1256:1268   */\n      mload\n        /* \"#utility.yul\":1246:1268   */\n      swap1\n      pop\n        /* \"#utility.yul\":1176:1275   */\n      swap2\n      swap1\n      pop\n      jump\t// out\n        /* \"#utility.yul\":1281:1450   */\n    tag_249:\n        /* \"#utility.yul\":1365:1376   */\n      0x00\n        /* \"#utility.yul\":1399:1405   */\n      dup3\n        /* \"#utility.yul\":1394:1397   */\n      dup3\n        /* \"#utility.yul\":1387:1406   */\n      mstore\n        /* \"#utility.yul\":1439:1443   */\n      0x20\n        /* \"#utility.yul\":1434:1437   */\n      dup3\n        /* \"#utility.yul\":1430:1444   */\n      add\n        /* \"#utility.yul\":1415:1444   */\n      swap1\n      pop\n        /* \"#utility.yul\":1281:1450   */\n      swap3\n      swap2\n      pop\n      pop\n      jump\t// out\n        /* \"#utility.yul\":1456:1763   */\n    tag_250:\n        /* \"#utility.yul\":1524:1525   */\n      0x00\n        /* \"#utility.yul\":1534:1647   */\n    tag_307:\n        /* \"#utility.yul\":1548:1554   */\n      dup4\n        /* \"#utility.yul\":1545:1546   */\n      dup2\n        /* \"#utility.yul\":1542:1555   */\n      lt\n        /* \"#utility.yul\":1534:1647   */\n      iszero\n      tag_309\n      jumpi\n        /* \"#utility.yul\":1633:1634   */\n      dup1\n        /* \"#utility.yul\":1628:1631   */\n      dup3\n        /* \"#utility.yul\":1624:1635   */\n      add\n        /* \"#utility.yul\":1618:1636   */\n      mload\n        /* \"#utility.yul\":1614:1615   */\n      dup2\n        /* \"#utility.yul\":1609:1612   */\n      dup5\n        /* \"#utility.yul\":1605:1616   */\n      add\n        /* \"#utility.yul\":1598:1637   */\n      mstore\n        /* \"#utility.yul\":1570:1572   */\n      0x20\n        /* \"#utility.yul\":1567:1568   */\n      dup2\n        /* \"#utility.yul\":1563:1573   */\n      add\n        /* \"#utility.yul\":1558:1573   */\n      swap1\n      pop\n        /* \"#utility.yul\":1534:1647   */\n      jump(tag_307)\n    tag_309:\n        /* \"#utility.yul\":1665:1671   */\n      dup4\n        /* \"#utility.yul\":1662:1663   */\n      dup2\n        /* \"#utility.yul\":1659:1672   */\n      gt\n        /* \"#utility.yul\":1656:1757   */\n      iszero\n      tag_310\n      jumpi\n        /* \"#utility.yul\":1745:1746   */\n      0x00\n        /* \"#utility.yul\":1736:1742   */\n      dup5\n        /* \"#utility.yul\":1731:1734   */\n      dup5\n        /* \"#utility.yul\":1727:1743   */\n      add\n        /* \"#utility.yul\":1720:1747   */\n      mstore\n        /* \"#utility.yul\":1656:1757   */\n    tag_310:\n        /* \"#utility.yul\":1505:1763   */\n      pop\n        /* \"#utility.yul\":1456:1763   */\n      pop\n      pop\n      pop\n      jump\t// out\n        /* \"#utility.yul\":1769:1871   */\n    tag_251:\n        /* \"#utility.yul\":1810:1816   */\n      0x00\n        /* \"#utility.yul\":1861:1863   */\n      0x1f\n        /* \"#utility.yul\":1857:1864   */\n      not\n        /* \"#utility.yul\":1852:1854   */\n      0x1f\n        /* \"#utility.yul\":1845:1850   */\n      dup4\n        /* \"#utility.yul\":1841:1855   */\n      add\n        /* \"#utility.yul\":1837:1865   */\n      and\n        /* \"#utility.yul\":1827:1865   */\n      swap1\n      pop\n        /* \"#utility.yul\":1769:1871   */\n      swap2\n      swap1\n      pop\n      jump\t// out\n        /* \"#utility.yul\":1877:2241   */\n    tag_252:\n        /* \"#utility.yul\":1965:1968   */\n      0x00\n        /* \"#utility.yul\":1993:2032   */\n      tag_313\n        /* \"#utility.yul\":2026:2031   */\n      dup3\n        /* \"#utility.yul\":1993:2032   */\n      tag_248\n      jump\t// in\n    tag_313:\n        /* \"#utility.yul\":2048:2119   */\n      tag_314\n        /* \"#utility.yul\":2112:2118   */\n      dup2\n        /* \"#utility.yul\":2107:2110   */\n      dup6\n        /* \"#utility.yul\":2048:2119   */\n      tag_249\n      jump\t// in\n    tag_314:\n        /* \"#utility.yul\":2041:2119   */\n      swap4\n      pop\n        /* \"#utility.yul\":2128:2180   */\n      tag_315\n        /* \"#utility.yul\":2173:2179   */\n      dup2\n        /* \"#utility.yul\":2168:2171   */\n      dup6\n        /* \"#utility.yul\":2161:2165   */\n      0x20\n        /* \"#utility.yul\":2154:2159   */\n      dup7\n        /* \"#utility.yul\":2150:2166   */\n      add\n        /* \"#utility.yul\":2128:2180   */\n      tag_250\n      jump\t// in\n    tag_315:\n        /* \"#utility.yul\":2205:2234   */\n      tag_316\n        /* \"#utility.yul\":2227:2233   */\n      dup2\n        /* \"#utility.yul\":2205:2234   */\n      tag_251\n      jump\t// in\n    tag_316:\n        /* \"#utility.yul\":2200:2203   */\n      dup5\n        /* \"#utility.yul\":2196:2235   */\n      add\n        /* \"#utility.yul\":2189:2235   */\n      swap2\n      pop\n        /* \"#utility.yul\":1969:2241   */\n      pop\n        /* \"#utility.yul\":1877:2241   */\n      swap3\n      swap2\n      pop\n      pop\n      jump\t// out\n        /* \"#utility.yul\":2247:2560   */\n    tag_37:\n        /* \"#utility.yul\":2360:2364   */\n      0x00\n        /* \"#utility.yul\":2398:2400   */\n      0x20\n        /* \"#utility.yul\":2387:2396   */\n      dup3\n        /* \"#utility.yul\":2383:2401   */\n      add\n        /* \"#utility.yul\":2375:2401   */\n      swap1\n      pop\n        /* \"#utility.yul\":2447:2456   */\n      dup2\n        /* \"#utility.yul\":2441:2445   */\n      dup2\n        /* \"#utility.yul\":2437:2457   */\n      sub\n        /* \"#utility.yul\":2433:2434   */\n      0x00\n        /* \"#utility.yul\":2422:2431   */\n      dup4\n        /* \"#utility.yul\":2418:2435   */\n      add\n        /* \"#utility.yul\":2411:2458   */\n      mstore\n        /* \"#utility.yul\":2475:2553   */\n      tag_318\n        /* \"#utility.yul\":2548:2552   */\n      dup2\n        /* \"#utility.yul\":2539:2545   */\n      dup5\n        /* \"#utility.yul\":2475:2553   */\n      tag_252\n      jump\t// in\n    tag_318:\n        /* \"#utility.yul\":2467:2553   */\n      swap1\n      pop\n        /* \"#utility.yul\":2247:2560   */\n      swap3\n      swap2\n      pop\n      pop\n      jump\t// out\n        /* \"#utility.yul\":2566:2684   */\n    tag_253:\n        /* \"#utility.yul\":2653:2677   */\n      tag_320\n        /* \"#utility.yul\":2671:2676   */\n      dup2\n        /* \"#utility.yul\":2653:2677   */\n      tag_245\n      jump\t// in\n    tag_320:\n        /* \"#utility.yul\":2648:2651   */\n      dup3\n        /* \"#utility.yul\":2641:2678   */\n      mstore\n        /* \"#utility.yul\":2566:2684   */\n      pop\n      pop\n      jump\t// out\n        /* \"#utility.yul\":2690:2912   */\n    tag_41:\n        /* \"#utility.yul\":2783:2787   */\n      0x00\n        /* \"#utility.yul\":2821:2823   */\n      0x20\n        /* \"#utility.yul\":2810:2819   */\n      dup3\n        /* \"#utility.yul\":2806:2824   */\n      add\n        /* \"#utility.yul\":2798:2824   */\n      swap1\n      pop\n        /* \"#utility.yul\":2834:2905   */\n      tag_322\n        /* \"#utility.yul\":2902:2903   */\n      0x00\n        /* \"#utility.yul\":2891:2900   */\n      dup4\n        /* \"#utility.yul\":2887:2904   */\n      add\n        /* \"#utility.yul\":2878:2884   */\n      dup5\n        /* \"#utility.yul\":2834:2905   */\n      tag_253\n      jump\t// in\n    tag_322:\n        /* \"#utility.yul\":2690:2912   */\n      swap3\n      swap2\n      pop\n      pop\n      jump\t// out\n        /* \"#utility.yul\":2918:2995   */\n    tag_254:\n        /* \"#utility.yul\":2955:2962   */\n      0x00\n        /* \"#utility.yul\":2984:2989   */\n      dup2\n        /* \"#utility.yul\":2973:2989   */\n      swap1\n      pop\n        /* \"#utility.yul\":2918:2995   */\n      swap2\n      swap1\n      pop\n      jump\t// out\n        /* \"#utility.yul\":3001:3119   */\n    tag_255:\n        /* \"#utility.yul\":3088:3112   */\n      tag_325\n        /* \"#utility.yul\":3106:3111   */\n      dup2\n        /* \"#utility.yul\":3088:3112   */\n      tag_254\n      jump\t// in\n    tag_325:\n        /* \"#utility.yul\":3083:3086   */\n      dup3\n        /* \"#utility.yul\":3076:3113   */\n      mstore\n        /* \"#utility.yul\":3001:3119   */\n      pop\n      pop\n      jump\t// out\n        /* \"#utility.yul\":3125:3347   */\n    tag_45:\n        /* \"#utility.yul\":3218:3222   */\n      0x00\n        /* \"#utility.yul\":3256:3258   */\n      0x20\n        /* \"#utility.yul\":3245:3254   */\n      dup3\n        /* \"#utility.yul\":3241:3259   */\n      add\n        /* \"#utility.yul\":3233:3259   */\n      swap1\n      pop\n        /* \"#utility.yul\":3269:3340   */\n      tag_327\n        /* \"#utility.yul\":3337:3338   */\n      0x00\n        /* \"#utility.yul\":3326:3335   */\n      dup4\n        /* \"#utility.yul\":3322:3339   */\n      add\n        /* \"#utility.yul\":3313:3319   */\n      dup5\n        /* \"#utility.yul\":3269:3340   */\n      tag_255\n      jump\t// in\n    tag_327:\n        /* \"#utility.yul\":3125:3347   */\n      swap3\n      swap2\n      pop\n      pop\n      jump\t// out\n        /* \"#utility.yul\":3353:3475   */\n    tag_256:\n        /* \"#utility.yul\":3426:3450   */\n      tag_329\n        /* \"#utility.yul\":3444:3449   */\n      dup2\n        /* \"#utility.yul\":3426:3450   */\n      tag_254\n      jump\t// in\n    tag_329:\n        /* \"#utility.yul\":3419:3424   */\n      dup2\n        /* \"#utility.yul\":3416:3451   */\n      eq\n        /* \"#utility.yul\":3406:3469   */\n      tag_330\n      jumpi\n        /* \"#utility.yul\":3465:3466   */\n      0x00\n        /* \"#utility.yul\":3462:3463   */\n      dup1\n        /* \"#utility.yul\":3455:3467   */\n      revert\n        /* \"#utility.yul\":3406:3469   */\n    tag_330:\n        /* \"#utility.yul\":3353:3475   */\n      pop\n      jump\t// out\n        /* \"#utility.yul\":3481:3620   */\n    tag_257:\n        /* \"#utility.yul\":3527:3532   */\n      0x00\n        /* \"#utility.yul\":3565:3571   */\n      dup2\n        /* \"#utility.yul\":3552:3572   */\n      calldataload\n        /* \"#utility.yul\":3543:3572   */\n      swap1\n      pop\n        /* \"#utility.yul\":3581:3614   */\n      tag_332\n        /* \"#utility.yul\":3608:3613   */\n      dup2\n        /* \"#utility.yul\":3581:3614   */\n      tag_256\n      jump\t// in\n    tag_332:\n        /* \"#utility.yul\":3481:3620   */\n      swap3\n      swap2\n      pop\n      pop\n      jump\t// out\n        /* \"#utility.yul\":3626:3743   */\n    tag_258:\n        /* \"#utility.yul\":3735:3736   */\n      0x00\n        /* \"#utility.yul\":3732:3733   */\n      dup1\n        /* \"#utility.yul\":3725:3737   */\n      revert\n        /* \"#utility.yul\":3749:3866   */\n    tag_259:\n        /* \"#utility.yul\":3858:3859   */\n      0x00\n        /* \"#utility.yul\":3855:3856   */\n      dup1\n        /* \"#utility.yul\":3848:3860   */\n      revert\n        /* \"#utility.yul\":3872:4052   */\n    tag_260:\n        /* \"#utility.yul\":3920:3997   */\n      0x4e487b7100000000000000000000000000000000000000000000000000000000\n        /* \"#utility.yul\":3917:3918   */\n      0x00\n        /* \"#utility.yul\":3910:3998   */\n      mstore\n        /* \"#utility.yul\":4017:4021   */\n      0x41\n        /* \"#utility.yul\":4014:4015   */\n      0x04\n        /* \"#utility.yul\":4007:4022   */\n      mstore\n        /* \"#utility.yul\":4041:4045   */\n      0x24\n        /* \"#utility.yul\":4038:4039   */\n      0x00\n        /* \"#utility.yul\":4031:4046   */\n      revert\n        /* \"#utility.yul\":4058:4339   */\n    tag_261:\n        /* \"#utility.yul\":4141:4168   */\n      tag_337\n        /* \"#utility.yul\":4163:4167   */\n      dup3\n        /* \"#utility.yul\":4141:4168   */\n      tag_251\n      jump\t// in\n    tag_337:\n        /* \"#utility.yul\":4133:4139   */\n      dup2\n        /* \"#utility.yul\":4129:4169   */\n      add\n        /* \"#utility.yul\":4271:4277   */\n      dup2\n        /* \"#utility.yul\":4259:4269   */\n      dup2\n        /* \"#utility.yul\":4256:4278   */\n      lt\n        /* \"#utility.yul\":4235:4253   */\n      0xffffffffffffffff\n        /* \"#utility.yul\":4223:4233   */\n      dup3\n        /* \"#utility.yul\":4220:4254   */\n      gt\n        /* \"#utility.yul\":4217:4279   */\n      or\n        /* \"#utility.yul\":4214:4302   */\n      iszero\n      tag_338\n      jumpi\n        /* \"#utility.yul\":4282:4300   */\n      tag_339\n      tag_260\n      jump\t// in\n    tag_339:\n        /* \"#utility.yul\":4214:4302   */\n    tag_338:\n        /* \"#utility.yul\":4322:4332   */\n      dup1\n        /* \"#utility.yul\":4318:4320   */\n      0x40\n        /* \"#utility.yul\":4311:4333   */\n      mstore\n        /* \"#utility.yul\":4101:4339   */\n      pop\n        /* \"#utility.yul\":4058:4339   */\n      pop\n      pop\n      jump\t// out\n        /* \"#utility.yul\":4345:4474   */\n    tag_262:\n        /* \"#utility.yul\":4379:4385   */\n      0x00\n        /* \"#utility.yul\":4406:4426   */\n      tag_341\n      tag_241\n      jump\t// in\n    tag_341:\n        /* \"#utility.yul\":4396:4426   */\n      swap1\n      pop\n        /* \"#utility.yul\":4435:4468   */\n      tag_342\n        /* \"#utility.yul\":4463:4467   */\n      dup3\n        /* \"#utility.yul\":4455:4461   */\n      dup3\n        /* \"#utility.yul\":4435:4468   */\n      tag_261\n      jump\t// in\n    tag_342:\n        /* \"#utility.yul\":4345:4474   */\n      swap2\n      swap1\n      pop\n      jump\t// out\n        /* \"#utility.yul\":4480:4788   */\n    tag_263:\n        /* \"#utility.yul\":4542:4546   */\n      0x00\n        /* \"#utility.yul\":4632:4650   */\n      0xffffffffffffffff\n        /* \"#utility.yul\":4624:4630   */\n      dup3\n        /* \"#utility.yul\":4621:4651   */\n      gt\n        /* \"#utility.yul\":4618:4674   */\n      iszero\n      tag_344\n      jumpi\n        /* \"#utility.yul\":4654:4672   */\n      tag_345\n      tag_260\n      jump\t// in\n    tag_345:\n        /* \"#utility.yul\":4618:4674   */\n    tag_344:\n        /* \"#utility.yul\":4692:4721   */\n      tag_346\n        /* \"#utility.yul\":4714:4720   */\n      dup3\n        /* \"#utility.yul\":4692:4721   */\n      tag_251\n      jump\t// in\n    tag_346:\n        /* \"#utility.yul\":4684:4721   */\n      swap1\n      pop\n        /* \"#utility.yul\":4776:4780   */\n      0x20\n        /* \"#utility.yul\":4770:4774   */\n      dup2\n        /* \"#utility.yul\":4766:4781   */\n      add\n        /* \"#utility.yul\":4758:4781   */\n      swap1\n      pop\n        /* \"#utility.yul\":4480:4788   */\n      swap2\n      swap1\n      pop\n      jump\t// out\n        /* \"#utility.yul\":4794:4948   */\n    tag_264:\n        /* \"#utility.yul\":4878:4884   */\n      dup3\n        /* \"#utility.yul\":4873:4876   */\n      dup2\n        /* \"#utility.yul\":4868:4871   */\n      dup4\n        /* \"#utility.yul\":4855:4885   */\n      calldatacopy\n        /* \"#utility.yul\":4940:4941   */\n      0x00\n        /* \"#utility.yul\":4931:4937   */\n      dup4\n        /* \"#utility.yul\":4926:4929   */\n      dup4\n        /* \"#utility.yul\":4922:4938   */\n      add\n        /* \"#utility.yul\":4915:4942   */\n      mstore\n        /* \"#utility.yul\":4794:4948   */\n      pop\n      pop\n      pop\n      jump\t// out\n        /* \"#utility.yul\":4954:5366   */\n    tag_265:\n        /* \"#utility.yul\":5032:5037   */\n      0x00\n        /* \"#utility.yul\":5057:5123   */\n      tag_349\n        /* \"#utility.yul\":5073:5122   */\n      tag_350\n        /* \"#utility.yul\":5115:5121   */\n      dup5\n        /* \"#utility.yul\":5073:5122   */\n      tag_263\n      jump\t// in\n    tag_350:\n        /* \"#utility.yul\":5057:5123   */\n      tag_262\n      jump\t// in\n    tag_349:\n        /* \"#utility.yul\":5048:5123   */\n      swap1\n      pop\n        /* \"#utility.yul\":5146:5152   */\n      dup3\n        /* \"#utility.yul\":5139:5144   */\n      dup2\n        /* \"#utility.yul\":5132:5153   */\n      mstore\n        /* \"#utility.yul\":5184:5188   */\n      0x20\n        /* \"#utility.yul\":5177:5182   */\n      dup2\n        /* \"#utility.yul\":5173:5189   */\n      add\n        /* \"#utility.yul\":5222:5225   */\n      dup5\n        /* \"#utility.yul\":5213:5219   */\n      dup5\n        /* \"#utility.yul\":5208:5211   */\n      dup5\n        /* \"#utility.yul\":5204:5220   */\n      add\n        /* \"#utility.yul\":5201:5226   */\n      gt\n        /* \"#utility.yul\":5198:5310   */\n      iszero\n      tag_351\n      jumpi\n        /* \"#utility.yul\":5229:5308   */\n      tag_352\n      tag_259\n      jump\t// in\n    tag_352:\n        /* \"#utility.yul\":5198:5310   */\n    tag_351:\n        /* \"#utility.yul\":5319:5360   */\n      tag_353\n        /* \"#utility.yul\":5353:5359   */\n      dup5\n        /* \"#utility.yul\":5348:5351   */\n      dup3\n        /* \"#utility.yul\":5343:5346   */\n      dup6\n        /* \"#utility.yul\":5319:5360   */\n      tag_264\n      jump\t// in\n    tag_353:\n        /* \"#utility.yul\":5038:5366   */\n      pop\n        /* \"#utility.yul\":4954:5366   */\n      swap4\n      swap3\n      pop\n      pop\n      pop\n      jump\t// out\n        /* \"#utility.yul\":5386:5726   */\n    tag_266:\n        /* \"#utility.yul\":5442:5447   */\n      0x00\n        /* \"#utility.yul\":5491:5494   */\n      dup3\n        /* \"#utility.yul\":5484:5488   */\n      0x1f\n        /* \"#utility.yul\":5476:5482   */\n      dup4\n        /* \"#utility.yul\":5472:5489   */\n      add\n        /* \"#utility.yul\":5468:5495   */\n      slt\n        /* \"#utility.yul\":5458:5580   */\n      tag_355\n      jumpi\n        /* \"#utility.yul\":5499:5578   */\n      tag_356\n      tag_258\n      jump\t// in\n    tag_356:\n        /* \"#utility.yul\":5458:5580   */\n    tag_355:\n        /* \"#utility.yul\":5616:5622   */\n      dup2\n        /* \"#utility.yul\":5603:5623   */\n      calldataload\n        /* \"#utility.yul\":5641:5720   */\n      tag_357\n        /* \"#utility.yul\":5716:5719   */\n      dup5\n        /* \"#utility.yul\":5708:5714   */\n      dup3\n        /* \"#utility.yul\":5701:5705   */\n      0x20\n        /* \"#utility.yul\":5693:5699   */\n      dup7\n        /* \"#utility.yul\":5689:5706   */\n      add\n        /* \"#utility.yul\":5641:5720   */\n      tag_265\n      jump\t// in\n    tag_357:\n        /* \"#utility.yul\":5632:5720   */\n      swap2\n      pop\n        /* \"#utility.yul\":5448:5726   */\n      pop\n        /* \"#utility.yul\":5386:5726   */\n      swap3\n      swap2\n      pop\n      pop\n      jump\t// out\n        /* \"#utility.yul\":5732:6386   */\n    tag_48:\n        /* \"#utility.yul\":5810:5816   */\n      0x00\n        /* \"#utility.yul\":5818:5824   */\n      dup1\n        /* \"#utility.yul\":5867:5869   */\n      0x40\n        /* \"#utility.yul\":5855:5864   */\n      dup4\n        /* \"#utility.yul\":5846:5853   */\n      dup6\n        /* \"#utility.yul\":5842:5865   */\n      sub\n        /* \"#utility.yul\":5838:5870   */\n      slt\n        /* \"#utility.yul\":5835:5954   */\n      iszero\n      tag_359\n      jumpi\n        /* \"#utility.yul\":5873:5952   */\n      tag_360\n      tag_242\n      jump\t// in\n    tag_360:\n        /* \"#utility.yul\":5835:5954   */\n    tag_359:\n        /* \"#utility.yul\":5993:5994   */\n      0x00\n        /* \"#utility.yul\":6018:6071   */\n      tag_361\n        /* \"#utility.yul\":6063:6070   */\n      dup6\n        /* \"#utility.yul\":6054:6060   */\n      dup3\n        /* \"#utility.yul\":6043:6052   */\n      dup7\n        /* \"#utility.yul\":6039:6061   */\n      add\n        /* \"#utility.yul\":6018:6071   */\n      tag_257\n      jump\t// in\n    tag_361:\n        /* \"#utility.yul\":6008:6071   */\n      swap3\n      pop\n        /* \"#utility.yul\":5964:6081   */\n      pop\n        /* \"#utility.yul\":6148:6150   */\n      0x20\n        /* \"#utility.yul\":6137:6146   */\n      dup4\n        /* \"#utility.yul\":6133:6151   */\n      add\n        /* \"#utility.yul\":6120:6152   */\n      calldataload\n        /* \"#utility.yul\":6179:6197   */\n      0xffffffffffffffff\n        /* \"#utility.yul\":6171:6177   */\n      dup2\n        /* \"#utility.yul\":6168:6198   */\n      gt\n        /* \"#utility.yul\":6165:6282   */\n      iszero\n      tag_362\n      jumpi\n        /* \"#utility.yul\":6201:6280   */\n      tag_363\n      tag_243\n      jump\t// in\n    tag_363:\n        /* \"#utility.yul\":6165:6282   */\n    tag_362:\n        /* \"#utility.yul\":6306:6369   */\n      tag_364\n        /* \"#utility.yul\":6361:6368   */\n      dup6\n        /* \"#utility.yul\":6352:6358   */\n      dup3\n        /* \"#utility.yul\":6341:6350   */\n      dup7\n        /* \"#utility.yul\":6337:6359   */\n      add\n        /* \"#utility.yul\":6306:6369   */\n      tag_266\n      jump\t// in\n    tag_364:\n        /* \"#utility.yul\":6296:6369   */\n      swap2\n      pop\n        /* \"#utility.yul\":6091:6379   */\n      pop\n        /* \"#utility.yul\":5732:6386   */\n      swap3\n      pop\n      swap3\n      swap1\n      pop\n      jump\t// out\n        /* \"#utility.yul\":6392:6537   */\n    tag_267:\n        /* \"#utility.yul\":6490:6496   */\n      0x00\n        /* \"#utility.yul\":6524:6529   */\n      dup2\n        /* \"#utility.yul\":6518:6530   */\n      mload\n        /* \"#utility.yul\":6508:6530   */\n      swap1\n      pop\n        /* \"#utility.yul\":6392:6537   */\n      swap2\n      swap1\n      pop\n      jump\t// out\n        /* \"#utility.yul\":6543:6758   */\n    tag_268:\n        /* \"#utility.yul\":6673:6684   */\n      0x00\n        /* \"#utility.yul\":6707:6713   */\n      dup3\n        /* \"#utility.yul\":6702:6705   */\n      dup3\n        /* \"#utility.yul\":6695:6714   */\n      mstore\n        /* \"#utility.yul\":6747:6751   */\n      0x20\n        /* \"#utility.yul\":6742:6745   */\n      dup3\n        /* \"#utility.yul\":6738:6752   */\n      add\n        /* \"#utility.yul\":6723:6752   */\n      swap1\n      pop\n        /* \"#utility.yul\":6543:6758   */\n      swap3\n      swap2\n      pop\n      pop\n      jump\t// out\n        /* \"#utility.yul\":6764:6927   */\n    tag_269:\n        /* \"#utility.yul\":6862:6866   */\n      0x00\n        /* \"#utility.yul\":6885:6888   */\n      dup2\n        /* \"#utility.yul\":6877:6888   */\n      swap1\n      pop\n        /* \"#utility.yul\":6915:6919   */\n      0x20\n        /* \"#utility.yul\":6910:6913   */\n      dup3\n        /* \"#utility.yul\":6906:6920   */\n      add\n        /* \"#utility.yul\":6898:6920   */\n      swap1\n      pop\n        /* \"#utility.yul\":6764:6927   */\n      swap2\n      swap1\n      pop\n      jump\t// out\n        /* \"#utility.yul\":6933:7041   */\n    tag_270:\n        /* \"#utility.yul\":7010:7034   */\n      tag_369\n        /* \"#utility.yul\":7028:7033   */\n      dup2\n        /* \"#utility.yul\":7010:7034   */\n      tag_254\n      jump\t// in\n    tag_369:\n        /* \"#utility.yul\":7005:7008   */\n      dup3\n        /* \"#utility.yul\":6998:7035   */\n      mstore\n        /* \"#utility.yul\":6933:7041   */\n      pop\n      pop\n      jump\t// out\n        /* \"#utility.yul\":7047:7155   */\n    tag_271:\n        /* \"#utility.yul\":7124:7148   */\n      tag_371\n        /* \"#utility.yul\":7142:7147   */\n      dup2\n        /* \"#utility.yul\":7124:7148   */\n      tag_245\n      jump\t// in\n    tag_371:\n        /* \"#utility.yul\":7119:7122   */\n      dup3\n        /* \"#utility.yul\":7112:7149   */\n      mstore\n        /* \"#utility.yul\":7047:7155   */\n      pop\n      pop\n      jump\t// out\n        /* \"#utility.yul\":7161:7320   */\n    tag_272:\n        /* \"#utility.yul\":7235:7246   */\n      0x00\n        /* \"#utility.yul\":7269:7275   */\n      dup3\n        /* \"#utility.yul\":7264:7267   */\n      dup3\n        /* \"#utility.yul\":7257:7276   */\n      mstore\n        /* \"#utility.yul\":7309:7313   */\n      0x20\n        /* \"#utility.yul\":7304:7307   */\n      dup3\n        /* \"#utility.yul\":7300:7314   */\n      add\n        /* \"#utility.yul\":7285:7314   */\n      swap1\n      pop\n        /* \"#utility.yul\":7161:7320   */\n      swap3\n      swap2\n      pop\n      pop\n      jump\t// out\n        /* \"#utility.yul\":7326:7670   */\n    tag_273:\n        /* \"#utility.yul\":7404:7407   */\n      0x00\n        /* \"#utility.yul\":7432:7471   */\n      tag_374\n        /* \"#utility.yul\":7465:7470   */\n      dup3\n        /* \"#utility.yul\":7432:7471   */\n      tag_248\n      jump\t// in\n    tag_374:\n        /* \"#utility.yul\":7487:7548   */\n      tag_375\n        /* \"#utility.yul\":7541:7547   */\n      dup2\n        /* \"#utility.yul\":7536:7539   */\n      dup6\n        /* \"#utility.yul\":7487:7548   */\n      tag_272\n      jump\t// in\n    tag_375:\n        /* \"#utility.yul\":7480:7548   */\n      swap4\n      pop\n        /* \"#utility.yul\":7557:7609   */\n      tag_376\n        /* \"#utility.yul\":7602:7608   */\n      dup2\n        /* \"#utility.yul\":7597:7600   */\n      dup6\n        /* \"#utility.yul\":7590:7594   */\n      0x20\n        /* \"#utility.yul\":7583:7588   */\n      dup7\n        /* \"#utility.yul\":7579:7595   */\n      add\n        /* \"#utility.yul\":7557:7609   */\n      tag_250\n      jump\t// in\n    tag_376:\n        /* \"#utility.yul\":7634:7663   */\n      tag_377\n        /* \"#utility.yul\":7656:7662   */\n      dup2\n        /* \"#utility.yul\":7634:7663   */\n      tag_251\n      jump\t// in\n    tag_377:\n        /* \"#utility.yul\":7629:7632   */\n      dup5\n        /* \"#utility.yul\":7625:7664   */\n      add\n        /* \"#utility.yul\":7618:7664   */\n      swap2\n      pop\n        /* \"#utility.yul\":7408:7670   */\n      pop\n        /* \"#utility.yul\":7326:7670   */\n      swap3\n      swap2\n      pop\n      pop\n      jump\t// out\n        /* \"#utility.yul\":7742:8534   */\n    tag_274:\n        /* \"#utility.yul\":7863:7866   */\n      0x00\n        /* \"#utility.yul\":7899:7903   */\n      0x60\n        /* \"#utility.yul\":7894:7897   */\n      dup4\n        /* \"#utility.yul\":7890:7904   */\n      add\n        /* \"#utility.yul\":7985:7989   */\n      0x00\n        /* \"#utility.yul\":7978:7983   */\n      dup4\n        /* \"#utility.yul\":7974:7990   */\n      add\n        /* \"#utility.yul\":7968:7991   */\n      mload\n        /* \"#utility.yul\":8004:8067   */\n      tag_379\n        /* \"#utility.yul\":8061:8065   */\n      0x00\n        /* \"#utility.yul\":8056:8059   */\n      dup7\n        /* \"#utility.yul\":8052:8066   */\n      add\n        /* \"#utility.yul\":8038:8050   */\n      dup3\n        /* \"#utility.yul\":8004:8067   */\n      tag_270\n      jump\t// in\n    tag_379:\n        /* \"#utility.yul\":7914:8077   */\n      pop\n        /* \"#utility.yul\":8169:8173   */\n      0x20\n        /* \"#utility.yul\":8162:8167   */\n      dup4\n        /* \"#utility.yul\":8158:8174   */\n      add\n        /* \"#utility.yul\":8152:8175   */\n      mload\n        /* \"#utility.yul\":8188:8251   */\n      tag_380\n        /* \"#utility.yul\":8245:8249   */\n      0x20\n        /* \"#utility.yul\":8240:8243   */\n      dup7\n        /* \"#utility.yul\":8236:8250   */\n      add\n        /* \"#utility.yul\":8222:8234   */\n      dup3\n        /* \"#utility.yul\":8188:8251   */\n      tag_271\n      jump\t// in\n    tag_380:\n        /* \"#utility.yul\":8087:8261   */\n      pop\n        /* \"#utility.yul\":8344:8348   */\n      0x40\n        /* \"#utility.yul\":8337:8342   */\n      dup4\n        /* \"#utility.yul\":8333:8349   */\n      add\n        /* \"#utility.yul\":8327:8350   */\n      mload\n        /* \"#utility.yul\":8397:8400   */\n      dup5\n        /* \"#utility.yul\":8391:8395   */\n      dup3\n        /* \"#utility.yul\":8387:8401   */\n      sub\n        /* \"#utility.yul\":8380:8384   */\n      0x40\n        /* \"#utility.yul\":8375:8378   */\n      dup7\n        /* \"#utility.yul\":8371:8385   */\n      add\n        /* \"#utility.yul\":8364:8402   */\n      mstore\n        /* \"#utility.yul\":8423:8496   */\n      tag_381\n        /* \"#utility.yul\":8491:8495   */\n      dup3\n        /* \"#utility.yul\":8477:8489   */\n      dup3\n        /* \"#utility.yul\":8423:8496   */\n      tag_273\n      jump\t// in\n    tag_381:\n        /* \"#utility.yul\":8415:8496   */\n      swap2\n      pop\n        /* \"#utility.yul\":8271:8507   */\n      pop\n        /* \"#utility.yul\":8524:8528   */\n      dup1\n        /* \"#utility.yul\":8517:8528   */\n      swap2\n      pop\n        /* \"#utility.yul\":7868:8534   */\n      pop\n        /* \"#utility.yul\":7742:8534   */\n      swap3\n      swap2\n      pop\n      pop\n      jump\t// out\n        /* \"#utility.yul\":8540:8820   */\n    tag_275:\n        /* \"#utility.yul\":8671:8681   */\n      0x00\n        /* \"#utility.yul\":8706:8814   */\n      tag_383\n        /* \"#utility.yul\":8810:8813   */\n      dup4\n        /* \"#utility.yul\":8802:8808   */\n      dup4\n        /* \"#utility.yul\":8706:8814   */\n      tag_274\n      jump\t// in\n    tag_383:\n        /* \"#utility.yul\":8692:8814   */\n      swap1\n      pop\n        /* \"#utility.yul\":8540:8820   */\n      swap3\n      swap2\n      pop\n      pop\n      jump\t// out\n        /* \"#utility.yul\":8826:8970   */\n    tag_276:\n        /* \"#utility.yul\":8927:8931   */\n      0x00\n        /* \"#utility.yul\":8959:8963   */\n      0x20\n        /* \"#utility.yul\":8954:8957   */\n      dup3\n        /* \"#utility.yul\":8950:8964   */\n      add\n        /* \"#utility.yul\":8942:8964   */\n      swap1\n      pop\n        /* \"#utility.yul\":8826:8970   */\n      swap2\n      swap1\n      pop\n      jump\t// out\n        /* \"#utility.yul\":9046:10205   */\n    tag_277:\n        /* \"#utility.yul\":9227:9230   */\n      0x00\n        /* \"#utility.yul\":9256:9341   */\n      tag_386\n        /* \"#utility.yul\":9335:9340   */\n      dup3\n        /* \"#utility.yul\":9256:9341   */\n      tag_267\n      jump\t// in\n    tag_386:\n        /* \"#utility.yul\":9357:9474   */\n      tag_387\n        /* \"#utility.yul\":9467:9473   */\n      dup2\n        /* \"#utility.yul\":9462:9465   */\n      dup6\n        /* \"#utility.yul\":9357:9474   */\n      tag_268\n      jump\t// in\n    tag_387:\n        /* \"#utility.yul\":9350:9474   */\n      swap4\n      pop\n        /* \"#utility.yul\":9500:9503   */\n      dup4\n        /* \"#utility.yul\":9545:9549   */\n      0x20\n        /* \"#utility.yul\":9537:9543   */\n      dup3\n        /* \"#utility.yul\":9533:9550   */\n      mul\n        /* \"#utility.yul\":9528:9531   */\n      dup6\n        /* \"#utility.yul\":9524:9551   */\n      add\n        /* \"#utility.yul\":9575:9662   */\n      tag_388\n        /* \"#utility.yul\":9656:9661   */\n      dup6\n        /* \"#utility.yul\":9575:9662   */\n      tag_269\n      jump\t// in\n    tag_388:\n        /* \"#utility.yul\":9685:9692   */\n      dup1\n        /* \"#utility.yul\":9716:9717   */\n      0x00\n        /* \"#utility.yul\":9701:10160   */\n    tag_389:\n        /* \"#utility.yul\":9726:9732   */\n      dup6\n        /* \"#utility.yul\":9723:9724   */\n      dup2\n        /* \"#utility.yul\":9720:9733   */\n      lt\n        /* \"#utility.yul\":9701:10160   */\n      iszero\n      tag_391\n      jumpi\n        /* \"#utility.yul\":9797:9806   */\n      dup5\n        /* \"#utility.yul\":9791:9795   */\n      dup5\n        /* \"#utility.yul\":9787:9807   */\n      sub\n        /* \"#utility.yul\":9782:9785   */\n      dup10\n        /* \"#utility.yul\":9775:9808   */\n      mstore\n        /* \"#utility.yul\":9848:9854   */\n      dup2\n        /* \"#utility.yul\":9842:9855   */\n      mload\n        /* \"#utility.yul\":9876:10002   */\n      tag_392\n        /* \"#utility.yul\":9997:10001   */\n      dup6\n        /* \"#utility.yul\":9982:9995   */\n      dup3\n        /* \"#utility.yul\":9876:10002   */\n      tag_275\n      jump\t// in\n    tag_392:\n        /* \"#utility.yul\":9868:10002   */\n      swap5\n      pop\n        /* \"#utility.yul\":10025:10116   */\n      tag_393\n        /* \"#utility.yul\":10109:10115   */\n      dup4\n        /* \"#utility.yul\":10025:10116   */\n      tag_276\n      jump\t// in\n    tag_393:\n        /* \"#utility.yul\":10015:10116   */\n      swap3\n      pop\n        /* \"#utility.yul\":10145:10149   */\n      0x20\n        /* \"#utility.yul\":10140:10143   */\n      dup11\n        /* \"#utility.yul\":10136:10150   */\n      add\n        /* \"#utility.yul\":10129:10150   */\n      swap10\n      pop\n        /* \"#utility.yul\":9761:10160   */\n      pop\n        /* \"#utility.yul\":9748:9749   */\n      0x01\n        /* \"#utility.yul\":9745:9746   */\n      dup2\n        /* \"#utility.yul\":9741:9750   */\n      add\n        /* \"#utility.yul\":9736:9750   */\n      swap1\n      pop\n        /* \"#utility.yul\":9701:10160   */\n      jump(tag_389)\n    tag_391:\n        /* \"#utility.yul\":9705:9719   */\n      pop\n        /* \"#utility.yul\":10176:10180   */\n      dup3\n        /* \"#utility.yul\":10169:10180   */\n      swap8\n      pop\n        /* \"#utility.yul\":10196:10199   */\n      dup8\n        /* \"#utility.yul\":10189:10199   */\n      swap6\n      pop\n        /* \"#utility.yul\":9232:10205   */\n      pop\n      pop\n      pop\n      pop\n      pop\n        /* \"#utility.yul\":9046:10205   */\n      swap3\n      swap2\n      pop\n      pop\n      jump\t// out\n        /* \"#utility.yul\":10211:10708   */\n    tag_56:\n        /* \"#utility.yul\":10416:10420   */\n      0x00\n        /* \"#utility.yul\":10454:10456   */\n      0x20\n        /* \"#utility.yul\":10443:10452   */\n      dup3\n        /* \"#utility.yul\":10439:10457   */\n      add\n        /* \"#utility.yul\":10431:10457   */\n      swap1\n      pop\n        /* \"#utility.yul\":10503:10512   */\n      dup2\n        /* \"#utility.yul\":10497:10501   */\n      dup2\n        /* \"#utility.yul\":10493:10513   */\n      sub\n        /* \"#utility.yul\":10489:10490   */\n      0x00\n        /* \"#utility.yul\":10478:10487   */\n      dup4\n        /* \"#utility.yul\":10474:10491   */\n      add\n        /* \"#utility.yul\":10467:10514   */\n      mstore\n        /* \"#utility.yul\":10531:10701   */\n      tag_395\n        /* \"#utility.yul\":10696:10700   */\n      dup2\n        /* \"#utility.yul\":10687:10693   */\n      dup5\n        /* \"#utility.yul\":10531:10701   */\n      tag_277\n      jump\t// in\n    tag_395:\n        /* \"#utility.yul\":10523:10701   */\n      swap1\n      pop\n        /* \"#utility.yul\":10211:10708   */\n      swap3\n      swap2\n      pop\n      pop\n      jump\t// out\n        /* \"#utility.yul\":10714:10828   */\n    tag_278:\n        /* \"#utility.yul\":10781:10787   */\n      0x00\n        /* \"#utility.yul\":10815:10820   */\n      dup2\n        /* \"#utility.yul\":10809:10821   */\n      mload\n        /* \"#utility.yul\":10799:10821   */\n      swap1\n      pop\n        /* \"#utility.yul\":10714:10828   */\n      swap2\n      swap1\n      pop\n      jump\t// out\n        /* \"#utility.yul\":10834:11018   */\n    tag_279:\n        /* \"#utility.yul\":10933:10944   */\n      0x00\n        /* \"#utility.yul\":10967:10973   */\n      dup3\n        /* \"#utility.yul\":10962:10965   */\n      dup3\n        /* \"#utility.yul\":10955:10974   */\n      mstore\n        /* \"#utility.yul\":11007:11011   */\n      0x20\n        /* \"#utility.yul\":11002:11005   */\n      dup3\n        /* \"#utility.yul\":10998:11012   */\n      add\n        /* \"#utility.yul\":10983:11012   */\n      swap1\n      pop\n        /* \"#utility.yul\":10834:11018   */\n      swap3\n      swap2\n      pop\n      pop\n      jump\t// out\n        /* \"#utility.yul\":11024:11156   */\n    tag_280:\n        /* \"#utility.yul\":11091:11095   */\n      0x00\n        /* \"#utility.yul\":11114:11117   */\n      dup2\n        /* \"#utility.yul\":11106:11117   */\n      swap1\n      pop\n        /* \"#utility.yul\":11144:11148   */\n      0x20\n        /* \"#utility.yul\":11139:11142   */\n      dup3\n        /* \"#utility.yul\":11135:11149   */\n      add\n        /* \"#utility.yul\":11127:11149   */\n      swap1\n      pop\n        /* \"#utility.yul\":11024:11156   */\n      swap2\n      swap1\n      pop\n      jump\t// out\n        /* \"#utility.yul\":11162:11341   */\n    tag_281:\n        /* \"#utility.yul\":11231:11241   */\n      0x00\n        /* \"#utility.yul\":11252:11298   */\n      tag_400\n        /* \"#utility.yul\":11294:11297   */\n      dup4\n        /* \"#utility.yul\":11286:11292   */\n      dup4\n        /* \"#utility.yul\":11252:11298   */\n      tag_271\n      jump\t// in\n    tag_400:\n        /* \"#utility.yul\":11330:11334   */\n      0x20\n        /* \"#utility.yul\":11325:11328   */\n      dup4\n        /* \"#utility.yul\":11321:11335   */\n      add\n        /* \"#utility.yul\":11307:11335   */\n      swap1\n      pop\n        /* \"#utility.yul\":11162:11341   */\n      swap3\n      swap2\n      pop\n      pop\n      jump\t// out\n        /* \"#utility.yul\":11347:11460   */\n    tag_282:\n        /* \"#utility.yul\":11417:11421   */\n      0x00\n        /* \"#utility.yul\":11449:11453   */\n      0x20\n        /* \"#utility.yul\":11444:11447   */\n      dup3\n        /* \"#utility.yul\":11440:11454   */\n      add\n        /* \"#utility.yul\":11432:11454   */\n      swap1\n      pop\n        /* \"#utility.yul\":11347:11460   */\n      swap2\n      swap1\n      pop\n      jump\t// out\n        /* \"#utility.yul\":11496:12228   */\n    tag_283:\n        /* \"#utility.yul\":11615:11618   */\n      0x00\n        /* \"#utility.yul\":11644:11698   */\n      tag_403\n        /* \"#utility.yul\":11692:11697   */\n      dup3\n        /* \"#utility.yul\":11644:11698   */\n      tag_278\n      jump\t// in\n    tag_403:\n        /* \"#utility.yul\":11714:11800   */\n      tag_404\n        /* \"#utility.yul\":11793:11799   */\n      dup2\n        /* \"#utility.yul\":11788:11791   */\n      dup6\n        /* \"#utility.yul\":11714:11800   */\n      tag_279\n      jump\t// in\n    tag_404:\n        /* \"#utility.yul\":11707:11800   */\n      swap4\n      pop\n        /* \"#utility.yul\":11824:11880   */\n      tag_405\n        /* \"#utility.yul\":11874:11879   */\n      dup4\n        /* \"#utility.yul\":11824:11880   */\n      tag_280\n      jump\t// in\n    tag_405:\n        /* \"#utility.yul\":11903:11910   */\n      dup1\n        /* \"#utility.yul\":11934:11935   */\n      0x00\n        /* \"#utility.yul\":11919:12203   */\n    tag_406:\n        /* \"#utility.yul\":11944:11950   */\n      dup4\n        /* \"#utility.yul\":11941:11942   */\n      dup2\n        /* \"#utility.yul\":11938:11951   */\n      lt\n        /* \"#utility.yul\":11919:12203   */\n      iszero\n      tag_408\n      jumpi\n        /* \"#utility.yul\":12020:12026   */\n      dup2\n        /* \"#utility.yul\":12014:12027   */\n      mload\n        /* \"#utility.yul\":12047:12110   */\n      tag_409\n        /* \"#utility.yul\":12106:12109   */\n      dup9\n        /* \"#utility.yul\":12091:12104   */\n      dup3\n        /* \"#utility.yul\":12047:12110   */\n      tag_281\n      jump\t// in\n    tag_409:\n        /* \"#utility.yul\":12040:12110   */\n      swap8\n      pop\n        /* \"#utility.yul\":12133:12193   */\n      tag_410\n        /* \"#utility.yul\":12186:12192   */\n      dup4\n        /* \"#utility.yul\":12133:12193   */\n      tag_282\n      jump\t// in\n    tag_410:\n        /* \"#utility.yul\":12123:12193   */\n      swap3\n      pop\n        /* \"#utility.yul\":11979:12203   */\n      pop\n        /* \"#utility.yul\":11966:11967   */\n      0x01\n        /* \"#utility.yul\":11963:11964   */\n      dup2\n        /* \"#utility.yul\":11959:11968   */\n      add\n        /* \"#utility.yul\":11954:11968   */\n      swap1\n      pop\n        /* \"#utility.yul\":11919:12203   */\n      jump(tag_406)\n    tag_408:\n        /* \"#utility.yul\":11923:11937   */\n      pop\n        /* \"#utility.yul\":12219:12222   */\n      dup6\n        /* \"#utility.yul\":12212:12222   */\n      swap4\n      pop\n        /* \"#utility.yul\":11620:12228   */\n      pop\n      pop\n      pop\n        /* \"#utility.yul\":11496:12228   */\n      swap3\n      swap2\n      pop\n      pop\n      jump\t// out\n        /* \"#utility.yul\":12234:12607   */\n    tag_64:\n        /* \"#utility.yul\":12377:12381   */\n      0x00\n        /* \"#utility.yul\":12415:12417   */\n      0x20\n        /* \"#utility.yul\":12404:12413   */\n      dup3\n        /* \"#utility.yul\":12400:12418   */\n      add\n        /* \"#utility.yul\":12392:12418   */\n      swap1\n      pop\n        /* \"#utility.yul\":12464:12473   */\n      dup2\n        /* \"#utility.yul\":12458:12462   */\n      dup2\n        /* \"#utility.yul\":12454:12474   */\n      sub\n        /* \"#utility.yul\":12450:12451   */\n      0x00\n        /* \"#utility.yul\":12439:12448   */\n      dup4\n        /* \"#utility.yul\":12435:12452   */\n      add\n        /* \"#utility.yul\":12428:12475   */\n      mstore\n        /* \"#utility.yul\":12492:12600   */\n      tag_412\n        /* \"#utility.yul\":12595:12599   */\n      dup2\n        /* \"#utility.yul\":12586:12592   */\n      dup5\n        /* \"#utility.yul\":12492:12600   */\n      tag_283\n      jump\t// in\n    tag_412:\n        /* \"#utility.yul\":12484:12600   */\n      swap1\n      pop\n        /* \"#utility.yul\":12234:12607   */\n      swap3\n      swap2\n      pop\n      pop\n      jump\t// out\n        /* \"#utility.yul\":12613:12942   */\n    tag_69:\n        /* \"#utility.yul\":12672:12678   */\n      0x00\n        /* \"#utility.yul\":12721:12723   */\n      0x20\n        /* \"#utility.yul\":12709:12718   */\n      dup3\n        /* \"#utility.yul\":12700:12707   */\n      dup5\n        /* \"#utility.yul\":12696:12719   */\n      sub\n        /* \"#utility.yul\":12692:12724   */\n      slt\n        /* \"#utility.yul\":12689:12808   */\n      iszero\n      tag_414\n      jumpi\n        /* \"#utility.yul\":12727:12806   */\n      tag_415\n      tag_242\n      jump\t// in\n    tag_415:\n        /* \"#utility.yul\":12689:12808   */\n    tag_414:\n        /* \"#utility.yul\":12847:12848   */\n      0x00\n        /* \"#utility.yul\":12872:12925   */\n      tag_416\n        /* \"#utility.yul\":12917:12924   */\n      dup5\n        /* \"#utility.yul\":12908:12914   */\n      dup3\n        /* \"#utility.yul\":12897:12906   */\n      dup6\n        /* \"#utility.yul\":12893:12915   */\n      add\n        /* \"#utility.yul\":12872:12925   */\n      tag_257\n      jump\t// in\n    tag_416:\n        /* \"#utility.yul\":12862:12925   */\n      swap2\n      pop\n        /* \"#utility.yul\":12818:12935   */\n      pop\n        /* \"#utility.yul\":12613:12942   */\n      swap3\n      swap2\n      pop\n      pop\n      jump\t// out\n        /* \"#utility.yul\":12948:13481   */\n    tag_81:\n        /* \"#utility.yul\":13117:13121   */\n      0x00\n        /* \"#utility.yul\":13155:13157   */\n      0x60\n        /* \"#utility.yul\":13144:13153   */\n      dup3\n        /* \"#utility.yul\":13140:13158   */\n      add\n        /* \"#utility.yul\":13132:13158   */\n      swap1\n      pop\n        /* \"#utility.yul\":13168:13239   */\n      tag_418\n        /* \"#utility.yul\":13236:13237   */\n      0x00\n        /* \"#utility.yul\":13225:13234   */\n      dup4\n        /* \"#utility.yul\":13221:13238   */\n      add\n        /* \"#utility.yul\":13212:13218   */\n      dup7\n        /* \"#utility.yul\":13168:13239   */\n      tag_253\n      jump\t// in\n    tag_418:\n        /* \"#utility.yul\":13249:13321   */\n      tag_419\n        /* \"#utility.yul\":13317:13319   */\n      0x20\n        /* \"#utility.yul\":13306:13315   */\n      dup4\n        /* \"#utility.yul\":13302:13320   */\n      add\n        /* \"#utility.yul\":13293:13299   */\n      dup6\n        /* \"#utility.yul\":13249:13321   */\n      tag_255\n      jump\t// in\n    tag_419:\n        /* \"#utility.yul\":13368:13377   */\n      dup2\n        /* \"#utility.yul\":13362:13366   */\n      dup2\n        /* \"#utility.yul\":13358:13378   */\n      sub\n        /* \"#utility.yul\":13353:13355   */\n      0x40\n        /* \"#utility.yul\":13342:13351   */\n      dup4\n        /* \"#utility.yul\":13338:13356   */\n      add\n        /* \"#utility.yul\":13331:13379   */\n      mstore\n        /* \"#utility.yul\":13396:13474   */\n      tag_420\n        /* \"#utility.yul\":13469:13473   */\n      dup2\n        /* \"#utility.yul\":13460:13466   */\n      dup5\n        /* \"#utility.yul\":13396:13474   */\n      tag_252\n      jump\t// in\n    tag_420:\n        /* \"#utility.yul\":13388:13474   */\n      swap1\n      pop\n        /* \"#utility.yul\":12948:13481   */\n      swap5\n      swap4\n      pop\n      pop\n      pop\n      pop\n      jump\t// out\n        /* \"#utility.yul\":13487:14020   */\n    tag_86:\n        /* \"#utility.yul\":13656:13660   */\n      0x00\n        /* \"#utility.yul\":13694:13696   */\n      0x60\n        /* \"#utility.yul\":13683:13692   */\n      dup3\n        /* \"#utility.yul\":13679:13697   */\n      add\n        /* \"#utility.yul\":13671:13697   */\n      swap1\n      pop\n        /* \"#utility.yul\":13707:13778   */\n      tag_422\n        /* \"#utility.yul\":13775:13776   */\n      0x00\n        /* \"#utility.yul\":13764:13773   */\n      dup4\n        /* \"#utility.yul\":13760:13777   */\n      add\n        /* \"#utility.yul\":13751:13757   */\n      dup7\n        /* \"#utility.yul\":13707:13778   */\n      tag_255\n      jump\t// in\n    tag_422:\n        /* \"#utility.yul\":13788:13860   */\n      tag_423\n        /* \"#utility.yul\":13856:13858   */\n      0x20\n        /* \"#utility.yul\":13845:13854   */\n      dup4\n        /* \"#utility.yul\":13841:13859   */\n      add\n        /* \"#utility.yul\":13832:13838   */\n      dup6\n        /* \"#utility.yul\":13788:13860   */\n      tag_253\n      jump\t// in\n    tag_423:\n        /* \"#utility.yul\":13907:13916   */\n      dup2\n        /* \"#utility.yul\":13901:13905   */\n      dup2\n        /* \"#utility.yul\":13897:13917   */\n      sub\n        /* \"#utility.yul\":13892:13894   */\n      0x40\n        /* \"#utility.yul\":13881:13890   */\n      dup4\n        /* \"#utility.yul\":13877:13895   */\n      add\n        /* \"#utility.yul\":13870:13918   */\n      mstore\n        /* \"#utility.yul\":13935:14013   */\n      tag_424\n        /* \"#utility.yul\":14008:14012   */\n      dup2\n        /* \"#utility.yul\":13999:14005   */\n      dup5\n        /* \"#utility.yul\":13935:14013   */\n      tag_252\n      jump\t// in\n    tag_424:\n        /* \"#utility.yul\":13927:14013   */\n      swap1\n      pop\n        /* \"#utility.yul\":13487:14020   */\n      swap5\n      swap4\n      pop\n      pop\n      pop\n      pop\n      jump\t// out\n        /* \"#utility.yul\":14026:14535   */\n    tag_95:\n        /* \"#utility.yul\":14095:14101   */\n      0x00\n        /* \"#utility.yul\":14144:14146   */\n      0x20\n        /* \"#utility.yul\":14132:14141   */\n      dup3\n        /* \"#utility.yul\":14123:14130   */\n      dup5\n        /* \"#utility.yul\":14119:14142   */\n      sub\n        /* \"#utility.yul\":14115:14147   */\n      slt\n        /* \"#utility.yul\":14112:14231   */\n      iszero\n      tag_426\n      jumpi\n        /* \"#utility.yul\":14150:14229   */\n      tag_427\n      tag_242\n      jump\t// in\n    tag_427:\n        /* \"#utility.yul\":14112:14231   */\n    tag_426:\n        /* \"#utility.yul\":14298:14299   */\n      0x00\n        /* \"#utility.yul\":14287:14296   */\n      dup3\n        /* \"#utility.yul\":14283:14300   */\n      add\n        /* \"#utility.yul\":14270:14301   */\n      calldataload\n        /* \"#utility.yul\":14328:14346   */\n      0xffffffffffffffff\n        /* \"#utility.yul\":14320:14326   */\n      dup2\n        /* \"#utility.yul\":14317:14347   */\n      gt\n        /* \"#utility.yul\":14314:14431   */\n      iszero\n      tag_428\n      jumpi\n        /* \"#utility.yul\":14350:14429   */\n      tag_429\n      tag_243\n      jump\t// in\n    tag_429:\n        /* \"#utility.yul\":14314:14431   */\n    tag_428:\n        /* \"#utility.yul\":14455:14518   */\n      tag_430\n        /* \"#utility.yul\":14510:14517   */\n      dup5\n        /* \"#utility.yul\":14501:14507   */\n      dup3\n        /* \"#utility.yul\":14490:14499   */\n      dup6\n        /* \"#utility.yul\":14486:14508   */\n      add\n        /* \"#utility.yul\":14455:14518   */\n      tag_266\n      jump\t// in\n    tag_430:\n        /* \"#utility.yul\":14445:14518   */\n      swap2\n      pop\n        /* \"#utility.yul\":14241:14528   */\n      pop\n        /* \"#utility.yul\":14026:14535   */\n      swap3\n      swap2\n      pop\n      pop\n      jump\t// out\n        /* \"#utility.yul\":14541:15340   */\n    tag_114:\n        /* \"#utility.yul\":14628:14634   */\n      0x00\n        /* \"#utility.yul\":14636:14642   */\n      dup1\n        /* \"#utility.yul\":14644:14650   */\n      0x00\n        /* \"#utility.yul\":14693:14695   */\n      0x60\n        /* \"#utility.yul\":14681:14690   */\n      dup5\n        /* \"#utility.yul\":14672:14679   */\n      dup7\n        /* \"#utility.yul\":14668:14691   */\n      sub\n        /* \"#utility.yul\":14664:14696   */\n      slt\n        /* \"#utility.yul\":14661:14780   */\n      iszero\n      tag_432\n      jumpi\n        /* \"#utility.yul\":14699:14778   */\n      tag_433\n      tag_242\n      jump\t// in\n    tag_433:\n        /* \"#utility.yul\":14661:14780   */\n    tag_432:\n        /* \"#utility.yul\":14847:14848   */\n      0x00\n        /* \"#utility.yul\":14836:14845   */\n      dup5\n        /* \"#utility.yul\":14832:14849   */\n      add\n        /* \"#utility.yul\":14819:14850   */\n      calldataload\n        /* \"#utility.yul\":14877:14895   */\n      0xffffffffffffffff\n        /* \"#utility.yul\":14869:14875   */\n      dup2\n        /* \"#utility.yul\":14866:14896   */\n      gt\n        /* \"#utility.yul\":14863:14980   */\n      iszero\n      tag_434\n      jumpi\n        /* \"#utility.yul\":14899:14978   */\n      tag_435\n      tag_243\n      jump\t// in\n    tag_435:\n        /* \"#utility.yul\":14863:14980   */\n    tag_434:\n        /* \"#utility.yul\":15004:15067   */\n      tag_436\n        /* \"#utility.yul\":15059:15066   */\n      dup7\n        /* \"#utility.yul\":15050:15056   */\n      dup3\n        /* \"#utility.yul\":15039:15048   */\n      dup8\n        /* \"#utility.yul\":15035:15057   */\n      add\n        /* \"#utility.yul\":15004:15067   */\n      tag_266\n      jump\t// in\n    tag_436:\n        /* \"#utility.yul\":14994:15067   */\n      swap4\n      pop\n        /* \"#utility.yul\":14790:15077   */\n      pop\n        /* \"#utility.yul\":15116:15118   */\n      0x20\n        /* \"#utility.yul\":15142:15195   */\n      tag_437\n        /* \"#utility.yul\":15187:15194   */\n      dup7\n        /* \"#utility.yul\":15178:15184   */\n      dup3\n        /* \"#utility.yul\":15167:15176   */\n      dup8\n        /* \"#utility.yul\":15163:15185   */\n      add\n        /* \"#utility.yul\":15142:15195   */\n      tag_257\n      jump\t// in\n    tag_437:\n        /* \"#utility.yul\":15132:15195   */\n      swap3\n      pop\n        /* \"#utility.yul\":15087:15205   */\n      pop\n        /* \"#utility.yul\":15244:15246   */\n      0x40\n        /* \"#utility.yul\":15270:15323   */\n      tag_438\n        /* \"#utility.yul\":15315:15322   */\n      dup7\n        /* \"#utility.yul\":15306:15312   */\n      dup3\n        /* \"#utility.yul\":15295:15304   */\n      dup8\n        /* \"#utility.yul\":15291:15313   */\n      add\n        /* \"#utility.yul\":15270:15323   */\n      tag_257\n      jump\t// in\n    tag_438:\n        /* \"#utility.yul\":15260:15323   */\n      swap2\n      pop\n        /* \"#utility.yul\":15215:15333   */\n      pop\n        /* \"#utility.yul\":14541:15340   */\n      swap3\n      pop\n      swap3\n      pop\n      swap3\n      jump\t// out\n        /* \"#utility.yul\":15346:15526   */\n    tag_284:\n        /* \"#utility.yul\":15394:15471   */\n      0x4e487b7100000000000000000000000000000000000000000000000000000000\n        /* \"#utility.yul\":15391:15392   */\n      0x00\n        /* \"#utility.yul\":15384:15472   */\n      mstore\n        /* \"#utility.yul\":15491:15495   */\n      0x22\n        /* \"#utility.yul\":15488:15489   */\n      0x04\n        /* \"#utility.yul\":15481:15496   */\n      mstore\n        /* \"#utility.yul\":15515:15519   */\n      0x24\n        /* \"#utility.yul\":15512:15513   */\n      0x00\n        /* \"#utility.yul\":15505:15520   */\n      revert\n        /* \"#utility.yul\":15532:15852   */\n    tag_123:\n        /* \"#utility.yul\":15576:15582   */\n      0x00\n        /* \"#utility.yul\":15613:15614   */\n      0x02\n        /* \"#utility.yul\":15607:15611   */\n      dup3\n        /* \"#utility.yul\":15603:15615   */\n      div\n        /* \"#utility.yul\":15593:15615   */\n      swap1\n      pop\n        /* \"#utility.yul\":15660:15661   */\n      0x01\n        /* \"#utility.yul\":15654:15658   */\n      dup3\n        /* \"#utility.yul\":15650:15662   */\n      and\n        /* \"#utility.yul\":15681:15699   */\n      dup1\n        /* \"#utility.yul\":15671:15752   */\n      tag_441\n      jumpi\n        /* \"#utility.yul\":15737:15741   */\n      0x7f\n        /* \"#utility.yul\":15729:15735   */\n      dup3\n        /* \"#utility.yul\":15725:15742   */\n      and\n        /* \"#utility.yul\":15715:15742   */\n      swap2\n      pop\n        /* \"#utility.yul\":15671:15752   */\n    tag_441:\n        /* \"#utility.yul\":15799:15801   */\n      0x20\n        /* \"#utility.yul\":15791:15797   */\n      dup3\n        /* \"#utility.yul\":15788:15802   */\n      lt\n        /* \"#utility.yul\":15768:15786   */\n      dup2\n        /* \"#utility.yul\":15765:15803   */\n      sub\n        /* \"#utility.yul\":15762:15846   */\n      tag_442\n      jumpi\n        /* \"#utility.yul\":15818:15836   */\n      tag_443\n      tag_284\n      jump\t// in\n    tag_443:\n        /* \"#utility.yul\":15762:15846   */\n    tag_442:\n        /* \"#utility.yul\":15583:15852   */\n      pop\n        /* \"#utility.yul\":15532:15852   */\n      swap2\n      swap1\n      pop\n      jump\t// out\n        /* \"#utility.yul\":15858:16038   */\n    tag_155:\n        /* \"#utility.yul\":15906:15983   */\n      0x4e487b7100000000000000000000000000000000000000000000000000000000\n        /* \"#utility.yul\":15903:15904   */\n      0x00\n        /* \"#utility.yul\":15896:15984   */\n      mstore\n        /* \"#utility.yul\":16003:16007   */\n      0x32\n        /* \"#utility.yul\":16000:16001   */\n      0x04\n        /* \"#utility.yul\":15993:16008   */\n      mstore\n        /* \"#utility.yul\":16027:16031   */\n      0x24\n        /* \"#utility.yul\":16024:16025   */\n      0x00\n        /* \"#utility.yul\":16017:16032   */\n      revert\n        /* \"#utility.yul\":16044:16224   */\n    tag_285:\n        /* \"#utility.yul\":16092:16169   */\n      0x4e487b7100000000000000000000000000000000000000000000000000000000\n        /* \"#utility.yul\":16089:16090   */\n      0x00\n        /* \"#utility.yul\":16082:16170   */\n      mstore\n        /* \"#utility.yul\":16189:16193   */\n      0x11\n        /* \"#utility.yul\":16186:16187   */\n      0x04\n        /* \"#utility.yul\":16179:16194   */\n      mstore\n        /* \"#utility.yul\":16213:16217   */\n      0x24\n        /* \"#utility.yul\":16210:16211   */\n      0x00\n        /* \"#utility.yul\":16203:16218   */\n      revert\n        /* \"#utility.yul\":16230:16535   */\n    tag_160:\n        /* \"#utility.yul\":16270:16273   */\n      0x00\n        /* \"#utility.yul\":16289:16309   */\n      tag_447\n        /* \"#utility.yul\":16307:16308   */\n      dup3\n        /* \"#utility.yul\":16289:16309   */\n      tag_254\n      jump\t// in\n    tag_447:\n        /* \"#utility.yul\":16284:16309   */\n      swap2\n      pop\n        /* \"#utility.yul\":16323:16343   */\n      tag_448\n        /* \"#utility.yul\":16341:16342   */\n      dup4\n        /* \"#utility.yul\":16323:16343   */\n      tag_254\n      jump\t// in\n    tag_448:\n        /* \"#utility.yul\":16318:16343   */\n      swap3\n      pop\n        /* \"#utility.yul\":16477:16478   */\n      dup3\n        /* \"#utility.yul\":16409:16475   */\n      0xffffffffffffffffffffffffffffffffffffffffffffffffffffffffffffffff\n        /* \"#utility.yul\":16405:16479   */\n      sub\n        /* \"#utility.yul\":16402:16403   */\n      dup3\n        /* \"#utility.yul\":16399:16480   */\n      gt\n        /* \"#utility.yul\":16396:16503   */\n      iszero\n      tag_449\n      jumpi\n        /* \"#utility.yul\":16483:16501   */\n      tag_450\n      tag_285\n      jump\t// in\n    tag_450:\n        /* \"#utility.yul\":16396:16503   */\n    tag_449:\n        /* \"#utility.yul\":16527:16528   */\n      dup3\n        /* \"#utility.yul\":16524:16525   */\n      dup3\n        /* \"#utility.yul\":16520:16529   */\n      add\n        /* \"#utility.yul\":16513:16529   */\n      swap1\n      pop\n        /* \"#utility.yul\":16230:16535   */\n      swap3\n      swap2\n      pop\n      pop\n      jump\t// out\n        /* \"#utility.yul\":16541:16767   */\n    tag_286:\n        /* \"#utility.yul\":16681:16715   */\n      0x4f6e6c792061756374696f6e6565722063616e2063616c6c2074686973206675\n        /* \"#utility.yul\":16677:16678   */\n      0x00\n        /* \"#utility.yul\":16669:16675   */\n      dup3\n        /* \"#utility.yul\":16665:16679   */\n      add\n        /* \"#utility.yul\":16658:16716   */\n      mstore\n        /* \"#utility.yul\":16750:16759   */\n      0x6e6374696f6e2e00000000000000000000000000000000000000000000000000\n        /* \"#utility.yul\":16745:16747   */\n      0x20\n        /* \"#utility.yul\":16737:16743   */\n      dup3\n        /* \"#utility.yul\":16733:16748   */\n      add\n        /* \"#utility.yul\":16726:16760   */\n      mstore\n        /* \"#utility.yul\":16541:16767   */\n      pop\n      jump\t// out\n        /* \"#utility.yul\":16773:17139   */\n    tag_287:\n        /* \"#utility.yul\":16915:16918   */\n      0x00\n        /* \"#utility.yul\":16936:17003   */\n      tag_453\n        /* \"#utility.yul\":17000:17002   */\n      0x27\n        /* \"#utility.yul\":16995:16998   */\n      dup4\n        /* \"#utility.yul\":16936:17003   */\n      tag_249\n      jump\t// in\n    tag_453:\n        /* \"#utility.yul\":16929:17003   */\n      swap2\n      pop\n        /* \"#utility.yul\":17012:17105   */\n      tag_454\n        /* \"#utility.yul\":17101:17104   */\n      dup3\n        /* \"#utility.yul\":17012:17105   */\n      tag_286\n      jump\t// in\n    tag_454:\n        /* \"#utility.yul\":17130:17132   */\n      0x40\n        /* \"#utility.yul\":17125:17128   */\n      dup3\n        /* \"#utility.yul\":17121:17133   */\n      add\n        /* \"#utility.yul\":17114:17133   */\n      swap1\n      pop\n        /* \"#utility.yul\":16773:17139   */\n      swap2\n      swap1\n      pop\n      jump\t// out\n        /* \"#utility.yul\":17145:17564   */\n    tag_214:\n        /* \"#utility.yul\":17311:17315   */\n      0x00\n        /* \"#utility.yul\":17349:17351   */\n      0x20\n        /* \"#utility.yul\":17338:17347   */\n      dup3\n        /* \"#utility.yul\":17334:17352   */\n      add\n        /* \"#utility.yul\":17326:17352   */\n      swap1\n      pop\n        /* \"#utility.yul\":17398:17407   */\n      dup2\n        /* \"#utility.yul\":17392:17396   */\n      dup2\n        /* \"#utility.yul\":17388:17408   */\n      sub\n        /* \"#utility.yul\":17384:17385   */\n      0x00\n        /* \"#utility.yul\":17373:17382   */\n      dup4\n        /* \"#utility.yul\":17369:17386   */\n      add\n        /* \"#utility.yul\":17362:17409   */\n      mstore\n        /* \"#utility.yul\":17426:17557   */\n      tag_456\n        /* \"#utility.yul\":17552:17556   */\n      dup2\n        /* \"#utility.yul\":17426:17557   */\n      tag_287\n      jump\t// in\n    tag_456:\n        /* \"#utility.yul\":17418:17557   */\n      swap1\n      pop\n        /* \"#utility.yul\":17145:17564   */\n      swap2\n      swap1\n      pop\n      jump\t// out\n\n    auxdata: 0xa2646970667358221220cd3f93a8a4ca2b3a1f20ab11d0a4a6d1f9cd57fca7dee53470623c72c8fa069164736f6c634300080e0033\n}\n",
				"bytecode": {
					"linkReferences": {},
					"object": "608060405234801561001057600080fd5b50611b20806100206000396000f3fe608060405234801561001057600080fd5b50600436106101735760003560e01c80638e7ea5b2116100de578063cff29dfd11610097578063dca49f4a11610071578063dca49f4a1461041e578063e7d2a9971461043c578063ed7a4e0b14610458578063f356733c1461047657610173565b8063cff29dfd146103c6578063d826f88f146103f6578063daa0218f1461040057610173565b80638e7ea5b2146102fe5780638f772f961461031e578063938626c214610350578063c8bca7321461036e578063ca142b561461038c578063ceb98f6e146103a857610173565b80633817df4c116101305780633817df4c1461023c5780633a79d2e51461026c57806340bd59371461028a5780635fa382801461029457806366c85dee146102c457806383050daa146102e057610173565b806305fb23cf1461017857806310a37c26146101a857806311631d06146101c65780631744e03b146101e457806334eb86a21461020057806335abd1601461021e575b600080fd5b610192600480360381019061018d9190611273565b610480565b60405161019f9190611339565b60405180910390f35b6101b0610551565b6040516101bd919061136a565b60405180910390f35b6101ce61057b565b6040516101db919061139e565b60405180910390f35b6101fe60048036038101906101f9919061151a565b610581565b005b6102086105e4565b604051610215919061139e565b60405180910390f35b6102266105ea565b60405161023391906116f0565b60405180910390f35b61025660048036038101906102519190611273565b61073b565b6040516102639190611339565b60405180910390f35b6102746107db565b60405161028191906117c1565b60405180910390f35b610292610869565b005b6102ae60048036038101906102a991906117e3565b61091f565b6040516102bb919061136a565b60405180910390f35b6102de60048036038101906102d9919061151a565b610967565b005b6102e8610a3d565b6040516102f59190611339565b60405180910390f35b610306610a7a565b60405161031593929190611810565b60405180910390f35b610338600480360381019061033391906117e3565b610b3e565b6040516103479392919061184e565b60405180910390f35b610358610c20565b6040516103659190611339565b60405180910390f35b610376610cae565b6040516103839190611339565b60405180910390f35b6103a660048036038101906103a1919061188c565b610d40565b005b6103b0610d97565b6040516103bd919061139e565b60405180910390f35b6103e060048036038101906103db91906117e3565b610da1565b6040516103ed919061136a565b60405180910390f35b6103fe610de0565b005b610408610eac565b604051610415919061139e565b60405180910390f35b610426610eb2565b6040516104339190611339565b60405180910390f35b610456600480360381019061045191906118d5565b610f40565b005b610460610ff8565b60405161046d919061136a565b60405180910390f35b61047e61101e565b005b6060600560008373ffffffffffffffffffffffffffffffffffffffff1673ffffffffffffffffffffffffffffffffffffffff16815260200190815260200160002080546104cc90611973565b80601f01602080910402602001604051908101604052809291908181526020018280546104f890611973565b80156105455780601f1061051a57610100808354040283529160200191610545565b820191906000526020600020905b81548152906001019060200180831161052857829003601f168201915b50505050509050919050565b6000600660009054906101000a900473ffffffffffffffffffffffffffffffffffffffff16905090565b60075481565b33600660006101000a81548173ffffffffffffffffffffffffffffffffffffffff021916908373ffffffffffffffffffffffffffffffffffffffff1602179055508160078190555080600890805190602001906105df929190611083565b505050565b60035481565b60606009805480602002602001604051908101604052809291908181526020016000905b828210156107325783829060005260206000209060030201604051806060016040529081600082015481526020016001820160009054906101000a900473ffffffffffffffffffffffffffffffffffffffff1673ffffffffffffffffffffffffffffffffffffffff1673ffffffffffffffffffffffffffffffffffffffff1681526020016002820180546106a190611973565b80601f01602080910402602001604051908101604052809291908181526020018280546106cd90611973565b801561071a5780601f106106ef5761010080835404028352916020019161071a565b820191906000526020600020905b8154815290600101906020018083116106fd57829003601f168201915b5050505050815250508152602001906001019061060e565b50505050905090565b6005602052806000526040600020600091509050805461075a90611973565b80601f016020809104026020016040519081016040528092919081815260200182805461078690611973565b80156107d35780601f106107a8576101008083540402835291602001916107d3565b820191906000526020600020905b8154815290600101906020018083116107b657829003601f168201915b505050505081565b6060600180548060200260200160405190810160405280929190818152602001828054801561085f57602002820191906000526020600020905b8160009054906101000a900473ffffffffffffffffffffffffffffffffffffffff1673ffffffffffffffffffffffffffffffffffffffff1681526020019060010190808311610815575b5050505050905090565b60005b60018054905081101561091c5760006001828154811061088f5761088e6119a4565b5b9060005260206000200160009054906101000a900473ffffffffffffffffffffffffffffffffffffffff169050600560008273ffffffffffffffffffffffffffffffffffffffff1673ffffffffffffffffffffffffffffffffffffffff16815260200190815260200160002060006109079190611109565b506001816109159190611a02565b905061086c565b50565b600060018281548110610935576109346119a4565b5b9060005260206000200160009054906101000a900473ffffffffffffffffffffffffffffffffffffffff169050919050565b600060405180606001604052808481526020013373ffffffffffffffffffffffffffffffffffffffff16815260200183815250905060098190806001815401808255809150506001900390600052602060002090600302016000909190919091506000820151816000015560208201518160010160006101000a81548173ffffffffffffffffffffffffffffffffffffffff021916908373ffffffffffffffffffffffffffffffffffffffff1602179055506040820151816002019080519060200190610a35929190611083565b505050505050565b60606040518060400160405280601781526020017f73616d706c6520737472696e672066726f6d20414b4542000000000000000000815250905090565b6000806060600660009054906101000a900473ffffffffffffffffffffffffffffffffffffffff166007546008808054610ab390611973565b80601f0160208091040260200160405190810160405280929190818152602001828054610adf90611973565b8015610b2c5780601f10610b0157610100808354040283529160200191610b2c565b820191906000526020600020905b815481529060010190602001808311610b0f57829003601f168201915b50505050509050925092509250909192565b60098181548110610b4e57600080fd5b90600052602060002090600302016000915090508060000154908060010160009054906101000a900473ffffffffffffffffffffffffffffffffffffffff1690806002018054610b9d90611973565b80601f0160208091040260200160405190810160405280929190818152602001828054610bc990611973565b8015610c165780601f10610beb57610100808354040283529160200191610c16565b820191906000526020600020905b815481529060010190602001808311610bf957829003601f168201915b5050505050905083565b60028054610c2d90611973565b80601f0160208091040260200160405190810160405280929190818152602001828054610c5990611973565b8015610ca65780601f10610c7b57610100808354040283529160200191610ca6565b820191906000526020600020905b815481529060010190602001808311610c8957829003601f168201915b505050505081565b606060088054610cbd90611973565b80601f0160208091040260200160405190810160405280929190818152602001828054610ce990611973565b8015610d365780601f10610d0b57610100808354040283529160200191610d36565b820191906000526020600020905b815481529060010190602001808311610d1957829003601f168201915b5050505050905090565b80600560003373ffffffffffffffffffffffffffffffffffffffff1673ffffffffffffffffffffffffffffffffffffffff1681526020019081526020016000209080519060200190610d93929190611083565b5050565b6000600754905090565b60018181548110610db157600080fd5b906000526020600020016000915054906101000a900473ffffffffffffffffffffffffffffffffffffffff1681565b6000600660006101000a81548173ffffffffffffffffffffffffffffffffffffffff021916908373ffffffffffffffffffffffffffffffffffffffff16021790555060006007819055506040518060200160405280600081525060089080519060200190610e4f929190611083565b506040518060200160405280600081525060029080519060200190610e75929190611083565b5060006003819055506000600481905550610e8e610869565b60016000610e9c9190611149565b60096000610eaa919061116a565b565b60045481565b60088054610ebf90611973565b80601f0160208091040260200160405190810160405280929190818152602001828054610eeb90611973565b8015610f385780601f10610f0d57610100808354040283529160200191610f38565b820191906000526020600020905b815481529060010190602001808311610f1b57829003601f168201915b505050505081565b60008054906101000a900473ffffffffffffffffffffffffffffffffffffffff1673ffffffffffffffffffffffffffffffffffffffff163373ffffffffffffffffffffffffffffffffffffffff1614610fce576040517f08c379a0000000000000000000000000000000000000000000000000000000008152600401610fc590611aca565b60405180910390fd5b8260029080519060200190610fe4929190611083565b508160038190555080600481905550505050565b600660009054906101000a900473ffffffffffffffffffffffffffffffffffffffff1681565b6001339080600181540180825580915050600190039060005260206000200160009091909190916101000a81548173ffffffffffffffffffffffffffffffffffffffff021916908373ffffffffffffffffffffffffffffffffffffffff160217905550565b82805461108f90611973565b90600052602060002090601f0160209004810192826110b157600085556110f8565b82601f106110ca57805160ff19168380011785556110f8565b828001600101855582156110f8579182015b828111156110f75782518255916020019190600101906110dc565b5b509050611105919061118e565b5090565b50805461111590611973565b6000825580601f106111275750611146565b601f016020900490600052602060002090810190611145919061118e565b5b50565b5080546000825590600052602060002090810190611167919061118e565b50565b508054600082556003029060005260206000209081019061118b91906111ab565b50565b5b808211156111a757600081600090555060010161118f565b5090565b5b808211156111fd576000808201600090556001820160006101000a81549073ffffffffffffffffffffffffffffffffffffffff02191690556002820160006111f49190611109565b506003016111ac565b5090565b6000604051905090565b600080fd5b600080fd5b600073ffffffffffffffffffffffffffffffffffffffff82169050919050565b600061124082611215565b9050919050565b61125081611235565b811461125b57600080fd5b50565b60008135905061126d81611247565b92915050565b6000602082840312156112895761128861120b565b5b60006112978482850161125e565b91505092915050565b600081519050919050565b600082825260208201905092915050565b60005b838110156112da5780820151818401526020810190506112bf565b838111156112e9576000848401525b50505050565b6000601f19601f8301169050919050565b600061130b826112a0565b61131581856112ab565b93506113258185602086016112bc565b61132e816112ef565b840191505092915050565b600060208201905081810360008301526113538184611300565b905092915050565b61136481611235565b82525050565b600060208201905061137f600083018461135b565b92915050565b6000819050919050565b61139881611385565b82525050565b60006020820190506113b3600083018461138f565b92915050565b6113c281611385565b81146113cd57600080fd5b50565b6000813590506113df816113b9565b92915050565b600080fd5b600080fd5b7f4e487b7100000000000000000000000000000000000000000000000000000000600052604160045260246000fd5b611427826112ef565b810181811067ffffffffffffffff82111715611446576114456113ef565b5b80604052505050565b6000611459611201565b9050611465828261141e565b919050565b600067ffffffffffffffff821115611485576114846113ef565b5b61148e826112ef565b9050602081019050919050565b82818337600083830152505050565b60006114bd6114b88461146a565b61144f565b9050828152602081018484840111156114d9576114d86113ea565b5b6114e484828561149b565b509392505050565b600082601f830112611501576115006113e5565b5b81356115118482602086016114aa565b91505092915050565b600080604083850312156115315761153061120b565b5b600061153f858286016113d0565b925050602083013567ffffffffffffffff8111156115605761155f611210565b5b61156c858286016114ec565b9150509250929050565b600081519050919050565b600082825260208201905092915050565b6000819050602082019050919050565b6115ab81611385565b82525050565b6115ba81611235565b82525050565b600082825260208201905092915050565b60006115dc826112a0565b6115e681856115c0565b93506115f68185602086016112bc565b6115ff816112ef565b840191505092915050565b600060608301600083015161162260008601826115a2565b50602083015161163560208601826115b1565b506040830151848203604086015261164d82826115d1565b9150508091505092915050565b6000611666838361160a565b905092915050565b6000602082019050919050565b600061168682611576565b6116908185611581565b9350836020820285016116a285611592565b8060005b858110156116de57848403895281516116bf858261165a565b94506116ca8361166e565b925060208a019950506001810190506116a6565b50829750879550505050505092915050565b6000602082019050818103600083015261170a818461167b565b905092915050565b600081519050919050565b600082825260208201905092915050565b6000819050602082019050919050565b600061174a83836115b1565b60208301905092915050565b6000602082019050919050565b600061176e82611712565b611778818561171d565b93506117838361172e565b8060005b838110156117b457815161179b888261173e565b97506117a683611756565b925050600181019050611787565b5085935050505092915050565b600060208201905081810360008301526117db8184611763565b905092915050565b6000602082840312156117f9576117f861120b565b5b6000611807848285016113d0565b91505092915050565b6000606082019050611825600083018661135b565b611832602083018561138f565b81810360408301526118448184611300565b9050949350505050565b6000606082019050611863600083018661138f565b611870602083018561135b565b81810360408301526118828184611300565b9050949350505050565b6000602082840312156118a2576118a161120b565b5b600082013567ffffffffffffffff8111156118c0576118bf611210565b5b6118cc848285016114ec565b91505092915050565b6000806000606084860312156118ee576118ed61120b565b5b600084013567ffffffffffffffff81111561190c5761190b611210565b5b611918868287016114ec565b9350506020611929868287016113d0565b925050604061193a868287016113d0565b9150509250925092565b7f4e487b7100000000000000000000000000000000000000000000000000000000600052602260045260246000fd5b6000600282049050600182168061198b57607f821691505b60208210810361199e5761199d611944565b5b50919050565b7f4e487b7100000000000000000000000000000000000000000000000000000000600052603260045260246000fd5b7f4e487b7100000000000000000000000000000000000000000000000000000000600052601160045260246000fd5b6000611a0d82611385565b9150611a1883611385565b9250827fffffffffffffffffffffffffffffffffffffffffffffffffffffffffffffffff03821115611a4d57611a4c6119d3565b5b828201905092915050565b7f4f6e6c792061756374696f6e6565722063616e2063616c6c207468697320667560008201527f6e6374696f6e2e00000000000000000000000000000000000000000000000000602082015250565b6000611ab46027836112ab565b9150611abf82611a58565b604082019050919050565b60006020820190508181036000830152611ae381611aa7565b905091905056fea2646970667358221220cd3f93a8a4ca2b3a1f20ab11d0a4a6d1f9cd57fca7dee53470623c72c8fa069164736f6c634300080e0033",
					"opcodes": "PUSH1 0x80 PUSH1 0x40 MSTORE CALLVALUE DUP1 ISZERO PUSH2 0x10 JUMPI PUSH1 0x0 DUP1 REVERT JUMPDEST POP PUSH2 0x1B20 DUP1 PUSH2 0x20 PUSH1 0x0 CODECOPY PUSH1 0x0 RETURN INVALID PUSH1 0x80 PUSH1 0x40 MSTORE CALLVALUE DUP1 ISZERO PUSH2 0x10 JUMPI PUSH1 0x0 DUP1 REVERT JUMPDEST POP PUSH1 0x4 CALLDATASIZE LT PUSH2 0x173 JUMPI PUSH1 0x0 CALLDATALOAD PUSH1 0xE0 SHR DUP1 PUSH4 0x8E7EA5B2 GT PUSH2 0xDE JUMPI DUP1 PUSH4 0xCFF29DFD GT PUSH2 0x97 JUMPI DUP1 PUSH4 0xDCA49F4A GT PUSH2 0x71 JUMPI DUP1 PUSH4 0xDCA49F4A EQ PUSH2 0x41E JUMPI DUP1 PUSH4 0xE7D2A997 EQ PUSH2 0x43C JUMPI DUP1 PUSH4 0xED7A4E0B EQ PUSH2 0x458 JUMPI DUP1 PUSH4 0xF356733C EQ PUSH2 0x476 JUMPI PUSH2 0x173 JUMP JUMPDEST DUP1 PUSH4 0xCFF29DFD EQ PUSH2 0x3C6 JUMPI DUP1 PUSH4 0xD826F88F EQ PUSH2 0x3F6 JUMPI DUP1 PUSH4 0xDAA0218F EQ PUSH2 0x400 JUMPI PUSH2 0x173 JUMP JUMPDEST DUP1 PUSH4 0x8E7EA5B2 EQ PUSH2 0x2FE JUMPI DUP1 PUSH4 0x8F772F96 EQ PUSH2 0x31E JUMPI DUP1 PUSH4 0x938626C2 EQ PUSH2 0x350 JUMPI DUP1 PUSH4 0xC8BCA732 EQ PUSH2 0x36E JUMPI DUP1 PUSH4 0xCA142B56 EQ PUSH2 0x38C JUMPI DUP1 PUSH4 0xCEB98F6E EQ PUSH2 0x3A8 JUMPI PUSH2 0x173 JUMP JUMPDEST DUP1 PUSH4 0x3817DF4C GT PUSH2 0x130 JUMPI DUP1 PUSH4 0x3817DF4C EQ PUSH2 0x23C JUMPI DUP1 PUSH4 0x3A79D2E5 EQ PUSH2 0x26C JUMPI DUP1 PUSH4 0x40BD5937 EQ PUSH2 0x28A JUMPI DUP1 PUSH4 0x5FA38280 EQ PUSH2 0x294 JUMPI DUP1 PUSH4 0x66C85DEE EQ PUSH2 0x2C4 JUMPI DUP1 PUSH4 0x83050DAA EQ PUSH2 0x2E0 JUMPI PUSH2 0x173 JUMP JUMPDEST DUP1 PUSH4 0x5FB23CF EQ PUSH2 0x178 JUMPI DUP1 PUSH4 0x10A37C26 EQ PUSH2 0x1A8 JUMPI DUP1 PUSH4 0x11631D06 EQ PUSH2 0x1C6 JUMPI DUP1 PUSH4 0x1744E03B EQ PUSH2 0x1E4 JUMPI DUP1 PUSH4 0x34EB86A2 EQ PUSH2 0x200 JUMPI DUP1 PUSH4 0x35ABD160 EQ PUSH2 0x21E JUMPI JUMPDEST PUSH1 0x0 DUP1 REVERT JUMPDEST PUSH2 0x192 PUSH1 0x4 DUP1 CALLDATASIZE SUB DUP2 ADD SWAP1 PUSH2 0x18D SWAP2 SWAP1 PUSH2 0x1273 JUMP JUMPDEST PUSH2 0x480 JUMP JUMPDEST PUSH1 0x40 MLOAD PUSH2 0x19F SWAP2 SWAP1 PUSH2 0x1339 JUMP JUMPDEST PUSH1 0x40 MLOAD DUP1 SWAP2 SUB SWAP1 RETURN JUMPDEST PUSH2 0x1B0 PUSH2 0x551 JUMP JUMPDEST PUSH1 0x40 MLOAD PUSH2 0x1BD SWAP2 SWAP1 PUSH2 0x136A JUMP JUMPDEST PUSH1 0x40 MLOAD DUP1 SWAP2 SUB SWAP1 RETURN JUMPDEST PUSH2 0x1CE PUSH2 0x57B JUMP JUMPDEST PUSH1 0x40 MLOAD PUSH2 0x1DB SWAP2 SWAP1 PUSH2 0x139E JUMP JUMPDEST PUSH1 0x40 MLOAD DUP1 SWAP2 SUB SWAP1 RETURN JUMPDEST PUSH2 0x1FE PUSH1 0x4 DUP1 CALLDATASIZE SUB DUP2 ADD SWAP1 PUSH2 0x1F9 SWAP2 SWAP1 PUSH2 0x151A JUMP JUMPDEST PUSH2 0x581 JUMP JUMPDEST STOP JUMPDEST PUSH2 0x208 PUSH2 0x5E4 JUMP JUMPDEST PUSH1 0x40 MLOAD PUSH2 0x215 SWAP2 SWAP1 PUSH2 0x139E JUMP JUMPDEST PUSH1 0x40 MLOAD DUP1 SWAP2 SUB SWAP1 RETURN JUMPDEST PUSH2 0x226 PUSH2 0x5EA JUMP JUMPDEST PUSH1 0x40 MLOAD PUSH2 0x233 SWAP2 SWAP1 PUSH2 0x16F0 JUMP JUMPDEST PUSH1 0x40 MLOAD DUP1 SWAP2 SUB SWAP1 RETURN JUMPDEST PUSH2 0x256 PUSH1 0x4 DUP1 CALLDATASIZE SUB DUP2 ADD SWAP1 PUSH2 0x251 SWAP2 SWAP1 PUSH2 0x1273 JUMP JUMPDEST PUSH2 0x73B JUMP JUMPDEST PUSH1 0x40 MLOAD PUSH2 0x263 SWAP2 SWAP1 PUSH2 0x1339 JUMP JUMPDEST PUSH1 0x40 MLOAD DUP1 SWAP2 SUB SWAP1 RETURN JUMPDEST PUSH2 0x274 PUSH2 0x7DB JUMP JUMPDEST PUSH1 0x40 MLOAD PUSH2 0x281 SWAP2 SWAP1 PUSH2 0x17C1 JUMP JUMPDEST PUSH1 0x40 MLOAD DUP1 SWAP2 SUB SWAP1 RETURN JUMPDEST PUSH2 0x292 PUSH2 0x869 JUMP JUMPDEST STOP JUMPDEST PUSH2 0x2AE PUSH1 0x4 DUP1 CALLDATASIZE SUB DUP2 ADD SWAP1 PUSH2 0x2A9 SWAP2 SWAP1 PUSH2 0x17E3 JUMP JUMPDEST PUSH2 0x91F JUMP JUMPDEST PUSH1 0x40 MLOAD PUSH2 0x2BB SWAP2 SWAP1 PUSH2 0x136A JUMP JUMPDEST PUSH1 0x40 MLOAD DUP1 SWAP2 SUB SWAP1 RETURN JUMPDEST PUSH2 0x2DE PUSH1 0x4 DUP1 CALLDATASIZE SUB DUP2 ADD SWAP1 PUSH2 0x2D9 SWAP2 SWAP1 PUSH2 0x151A JUMP JUMPDEST PUSH2 0x967 JUMP JUMPDEST STOP JUMPDEST PUSH2 0x2E8 PUSH2 0xA3D JUMP JUMPDEST PUSH1 0x40 MLOAD PUSH2 0x2F5 SWAP2 SWAP1 PUSH2 0x1339 JUMP JUMPDEST PUSH1 0x40 MLOAD DUP1 SWAP2 SUB SWAP1 RETURN JUMPDEST PUSH2 0x306 PUSH2 0xA7A JUMP JUMPDEST PUSH1 0x40 MLOAD PUSH2 0x315 SWAP4 SWAP3 SWAP2 SWAP1 PUSH2 0x1810 JUMP JUMPDEST PUSH1 0x40 MLOAD DUP1 SWAP2 SUB SWAP1 RETURN JUMPDEST PUSH2 0x338 PUSH1 0x4 DUP1 CALLDATASIZE SUB DUP2 ADD SWAP1 PUSH2 0x333 SWAP2 SWAP1 PUSH2 0x17E3 JUMP JUMPDEST PUSH2 0xB3E JUMP JUMPDEST PUSH1 0x40 MLOAD PUSH2 0x347 SWAP4 SWAP3 SWAP2 SWAP1 PUSH2 0x184E JUMP JUMPDEST PUSH1 0x40 MLOAD DUP1 SWAP2 SUB SWAP1 RETURN JUMPDEST PUSH2 0x358 PUSH2 0xC20 JUMP JUMPDEST PUSH1 0x40 MLOAD PUSH2 0x365 SWAP2 SWAP1 PUSH2 0x1339 JUMP JUMPDEST PUSH1 0x40 MLOAD DUP1 SWAP2 SUB SWAP1 RETURN JUMPDEST PUSH2 0x376 PUSH2 0xCAE JUMP JUMPDEST PUSH1 0x40 MLOAD PUSH2 0x383 SWAP2 SWAP1 PUSH2 0x1339 JUMP JUMPDEST PUSH1 0x40 MLOAD DUP1 SWAP2 SUB SWAP1 RETURN JUMPDEST PUSH2 0x3A6 PUSH1 0x4 DUP1 CALLDATASIZE SUB DUP2 ADD SWAP1 PUSH2 0x3A1 SWAP2 SWAP1 PUSH2 0x188C JUMP JUMPDEST PUSH2 0xD40 JUMP JUMPDEST STOP JUMPDEST PUSH2 0x3B0 PUSH2 0xD97 JUMP JUMPDEST PUSH1 0x40 MLOAD PUSH2 0x3BD SWAP2 SWAP1 PUSH2 0x139E JUMP JUMPDEST PUSH1 0x40 MLOAD DUP1 SWAP2 SUB SWAP1 RETURN JUMPDEST PUSH2 0x3E0 PUSH1 0x4 DUP1 CALLDATASIZE SUB DUP2 ADD SWAP1 PUSH2 0x3DB SWAP2 SWAP1 PUSH2 0x17E3 JUMP JUMPDEST PUSH2 0xDA1 JUMP JUMPDEST PUSH1 0x40 MLOAD PUSH2 0x3ED SWAP2 SWAP1 PUSH2 0x136A JUMP JUMPDEST PUSH1 0x40 MLOAD DUP1 SWAP2 SUB SWAP1 RETURN JUMPDEST PUSH2 0x3FE PUSH2 0xDE0 JUMP JUMPDEST STOP JUMPDEST PUSH2 0x408 PUSH2 0xEAC JUMP JUMPDEST PUSH1 0x40 MLOAD PUSH2 0x415 SWAP2 SWAP1 PUSH2 0x139E JUMP JUMPDEST PUSH1 0x40 MLOAD DUP1 SWAP2 SUB SWAP1 RETURN JUMPDEST PUSH2 0x426 PUSH2 0xEB2 JUMP JUMPDEST PUSH1 0x40 MLOAD PUSH2 0x433 SWAP2 SWAP1 PUSH2 0x1339 JUMP JUMPDEST PUSH1 0x40 MLOAD DUP1 SWAP2 SUB SWAP1 RETURN JUMPDEST PUSH2 0x456 PUSH1 0x4 DUP1 CALLDATASIZE SUB DUP2 ADD SWAP1 PUSH2 0x451 SWAP2 SWAP1 PUSH2 0x18D5 JUMP JUMPDEST PUSH2 0xF40 JUMP JUMPDEST STOP JUMPDEST PUSH2 0x460 PUSH2 0xFF8 JUMP JUMPDEST PUSH1 0x40 MLOAD PUSH2 0x46D SWAP2 SWAP1 PUSH2 0x136A JUMP JUMPDEST PUSH1 0x40 MLOAD DUP1 SWAP2 SUB SWAP1 RETURN JUMPDEST PUSH2 0x47E PUSH2 0x101E JUMP JUMPDEST STOP JUMPDEST PUSH1 0x60 PUSH1 0x5 PUSH1 0x0 DUP4 PUSH20 0xFFFFFFFFFFFFFFFFFFFFFFFFFFFFFFFFFFFFFFFF AND PUSH20 0xFFFFFFFFFFFFFFFFFFFFFFFFFFFFFFFFFFFFFFFF AND DUP2 MSTORE PUSH1 0x20 ADD SWAP1 DUP2 MSTORE PUSH1 0x20 ADD PUSH1 0x0 KECCAK256 DUP1 SLOAD PUSH2 0x4CC SWAP1 PUSH2 0x1973 JUMP JUMPDEST DUP1 PUSH1 0x1F ADD PUSH1 0x20 DUP1 SWAP2 DIV MUL PUSH1 0x20 ADD PUSH1 0x40 MLOAD SWAP1 DUP2 ADD PUSH1 0x40 MSTORE DUP1 SWAP3 SWAP2 SWAP1 DUP2 DUP2 MSTORE PUSH1 0x20 ADD DUP3 DUP1 SLOAD PUSH2 0x4F8 SWAP1 PUSH2 0x1973 JUMP JUMPDEST DUP1 ISZERO PUSH2 0x545 JUMPI DUP1 PUSH1 0x1F LT PUSH2 0x51A JUMPI PUSH2 0x100 DUP1 DUP4 SLOAD DIV MUL DUP4 MSTORE SWAP2 PUSH1 0x20 ADD SWAP2 PUSH2 0x545 JUMP JUMPDEST DUP3 ADD SWAP2 SWAP1 PUSH1 0x0 MSTORE PUSH1 0x20 PUSH1 0x0 KECCAK256 SWAP1 JUMPDEST DUP2 SLOAD DUP2 MSTORE SWAP1 PUSH1 0x1 ADD SWAP1 PUSH1 0x20 ADD DUP1 DUP4 GT PUSH2 0x528 JUMPI DUP3 SWAP1 SUB PUSH1 0x1F AND DUP3 ADD SWAP2 JUMPDEST POP POP POP POP POP SWAP1 POP SWAP2 SWAP1 POP JUMP JUMPDEST PUSH1 0x0 PUSH1 0x6 PUSH1 0x0 SWAP1 SLOAD SWAP1 PUSH2 0x100 EXP SWAP1 DIV PUSH20 0xFFFFFFFFFFFFFFFFFFFFFFFFFFFFFFFFFFFFFFFF AND SWAP1 POP SWAP1 JUMP JUMPDEST PUSH1 0x7 SLOAD DUP2 JUMP JUMPDEST CALLER PUSH1 0x6 PUSH1 0x0 PUSH2 0x100 EXP DUP2 SLOAD DUP2 PUSH20 0xFFFFFFFFFFFFFFFFFFFFFFFFFFFFFFFFFFFFFFFF MUL NOT AND SWAP1 DUP4 PUSH20 0xFFFFFFFFFFFFFFFFFFFFFFFFFFFFFFFFFFFFFFFF AND MUL OR SWAP1 SSTORE POP DUP2 PUSH1 0x7 DUP2 SWAP1 SSTORE POP DUP1 PUSH1 0x8 SWAP1 DUP1 MLOAD SWAP1 PUSH1 0x20 ADD SWAP1 PUSH2 0x5DF SWAP3 SWAP2 SWAP1 PUSH2 0x1083 JUMP JUMPDEST POP POP POP JUMP JUMPDEST PUSH1 0x3 SLOAD DUP2 JUMP JUMPDEST PUSH1 0x60 PUSH1 0x9 DUP1 SLOAD DUP1 PUSH1 0x20 MUL PUSH1 0x20 ADD PUSH1 0x40 MLOAD SWAP1 DUP2 ADD PUSH1 0x40 MSTORE DUP1 SWAP3 SWAP2 SWAP1 DUP2 DUP2 MSTORE PUSH1 0x20 ADD PUSH1 0x0 SWAP1 JUMPDEST DUP3 DUP3 LT ISZERO PUSH2 0x732 JUMPI DUP4 DUP3 SWAP1 PUSH1 0x0 MSTORE PUSH1 0x20 PUSH1 0x0 KECCAK256 SWAP1 PUSH1 0x3 MUL ADD PUSH1 0x40 MLOAD DUP1 PUSH1 0x60 ADD PUSH1 0x40 MSTORE SWAP1 DUP2 PUSH1 0x0 DUP3 ADD SLOAD DUP2 MSTORE PUSH1 0x20 ADD PUSH1 0x1 DUP3 ADD PUSH1 0x0 SWAP1 SLOAD SWAP1 PUSH2 0x100 EXP SWAP1 DIV PUSH20 0xFFFFFFFFFFFFFFFFFFFFFFFFFFFFFFFFFFFFFFFF AND PUSH20 0xFFFFFFFFFFFFFFFFFFFFFFFFFFFFFFFFFFFFFFFF AND PUSH20 0xFFFFFFFFFFFFFFFFFFFFFFFFFFFFFFFFFFFFFFFF AND DUP2 MSTORE PUSH1 0x20 ADD PUSH1 0x2 DUP3 ADD DUP1 SLOAD PUSH2 0x6A1 SWAP1 PUSH2 0x1973 JUMP JUMPDEST DUP1 PUSH1 0x1F ADD PUSH1 0x20 DUP1 SWAP2 DIV MUL PUSH1 0x20 ADD PUSH1 0x40 MLOAD SWAP1 DUP2 ADD PUSH1 0x40 MSTORE DUP1 SWAP3 SWAP2 SWAP1 DUP2 DUP2 MSTORE PUSH1 0x20 ADD DUP3 DUP1 SLOAD PUSH2 0x6CD SWAP1 PUSH2 0x1973 JUMP JUMPDEST DUP1 ISZERO PUSH2 0x71A JUMPI DUP1 PUSH1 0x1F LT PUSH2 0x6EF JUMPI PUSH2 0x100 DUP1 DUP4 SLOAD DIV MUL DUP4 MSTORE SWAP2 PUSH1 0x20 ADD SWAP2 PUSH2 0x71A JUMP JUMPDEST DUP3 ADD SWAP2 SWAP1 PUSH1 0x0 MSTORE PUSH1 0x20 PUSH1 0x0 KECCAK256 SWAP1 JUMPDEST DUP2 SLOAD DUP2 MSTORE SWAP1 PUSH1 0x1 ADD SWAP1 PUSH1 0x20 ADD DUP1 DUP4 GT PUSH2 0x6FD JUMPI DUP3 SWAP1 SUB PUSH1 0x1F AND DUP3 ADD SWAP2 JUMPDEST POP POP POP POP POP DUP2 MSTORE POP POP DUP2 MSTORE PUSH1 0x20 ADD SWAP1 PUSH1 0x1 ADD SWAP1 PUSH2 0x60E JUMP JUMPDEST POP POP POP POP SWAP1 POP SWAP1 JUMP JUMPDEST PUSH1 0x5 PUSH1 0x20 MSTORE DUP1 PUSH1 0x0 MSTORE PUSH1 0x40 PUSH1 0x0 KECCAK256 PUSH1 0x0 SWAP2 POP SWAP1 POP DUP1 SLOAD PUSH2 0x75A SWAP1 PUSH2 0x1973 JUMP JUMPDEST DUP1 PUSH1 0x1F ADD PUSH1 0x20 DUP1 SWAP2 DIV MUL PUSH1 0x20 ADD PUSH1 0x40 MLOAD SWAP1 DUP2 ADD PUSH1 0x40 MSTORE DUP1 SWAP3 SWAP2 SWAP1 DUP2 DUP2 MSTORE PUSH1 0x20 ADD DUP3 DUP1 SLOAD PUSH2 0x786 SWAP1 PUSH2 0x1973 JUMP JUMPDEST DUP1 ISZERO PUSH2 0x7D3 JUMPI DUP1 PUSH1 0x1F LT PUSH2 0x7A8 JUMPI PUSH2 0x100 DUP1 DUP4 SLOAD DIV MUL DUP4 MSTORE SWAP2 PUSH1 0x20 ADD SWAP2 PUSH2 0x7D3 JUMP JUMPDEST DUP3 ADD SWAP2 SWAP1 PUSH1 0x0 MSTORE PUSH1 0x20 PUSH1 0x0 KECCAK256 SWAP1 JUMPDEST DUP2 SLOAD DUP2 MSTORE SWAP1 PUSH1 0x1 ADD SWAP1 PUSH1 0x20 ADD DUP1 DUP4 GT PUSH2 0x7B6 JUMPI DUP3 SWAP1 SUB PUSH1 0x1F AND DUP3 ADD SWAP2 JUMPDEST POP POP POP POP POP DUP2 JUMP JUMPDEST PUSH1 0x60 PUSH1 0x1 DUP1 SLOAD DUP1 PUSH1 0x20 MUL PUSH1 0x20 ADD PUSH1 0x40 MLOAD SWAP1 DUP2 ADD PUSH1 0x40 MSTORE DUP1 SWAP3 SWAP2 SWAP1 DUP2 DUP2 MSTORE PUSH1 0x20 ADD DUP3 DUP1 SLOAD DUP1 ISZERO PUSH2 0x85F JUMPI PUSH1 0x20 MUL DUP3 ADD SWAP2 SWAP1 PUSH1 0x0 MSTORE PUSH1 0x20 PUSH1 0x0 KECCAK256 SWAP1 JUMPDEST DUP2 PUSH1 0x0 SWAP1 SLOAD SWAP1 PUSH2 0x100 EXP SWAP1 DIV PUSH20 0xFFFFFFFFFFFFFFFFFFFFFFFFFFFFFFFFFFFFFFFF AND PUSH20 0xFFFFFFFFFFFFFFFFFFFFFFFFFFFFFFFFFFFFFFFF AND DUP2 MSTORE PUSH1 0x20 ADD SWAP1 PUSH1 0x1 ADD SWAP1 DUP1 DUP4 GT PUSH2 0x815 JUMPI JUMPDEST POP POP POP POP POP SWAP1 POP SWAP1 JUMP JUMPDEST PUSH1 0x0 JUMPDEST PUSH1 0x1 DUP1 SLOAD SWAP1 POP DUP2 LT ISZERO PUSH2 0x91C JUMPI PUSH1 0x0 PUSH1 0x1 DUP3 DUP2 SLOAD DUP2 LT PUSH2 0x88F JUMPI PUSH2 0x88E PUSH2 0x19A4 JUMP JUMPDEST JUMPDEST SWAP1 PUSH1 0x0 MSTORE PUSH1 0x20 PUSH1 0x0 KECCAK256 ADD PUSH1 0x0 SWAP1 SLOAD SWAP1 PUSH2 0x100 EXP SWAP1 DIV PUSH20 0xFFFFFFFFFFFFFFFFFFFFFFFFFFFFFFFFFFFFFFFF AND SWAP1 POP PUSH1 0x5 PUSH1 0x0 DUP3 PUSH20 0xFFFFFFFFFFFFFFFFFFFFFFFFFFFFFFFFFFFFFFFF AND PUSH20 0xFFFFFFFFFFFFFFFFFFFFFFFFFFFFFFFFFFFFFFFF AND DUP2 MSTORE PUSH1 0x20 ADD SWAP1 DUP2 MSTORE PUSH1 0x20 ADD PUSH1 0x0 KECCAK256 PUSH1 0x0 PUSH2 0x907 SWAP2 SWAP1 PUSH2 0x1109 JUMP JUMPDEST POP PUSH1 0x1 DUP2 PUSH2 0x915 SWAP2 SWAP1 PUSH2 0x1A02 JUMP JUMPDEST SWAP1 POP PUSH2 0x86C JUMP JUMPDEST POP JUMP JUMPDEST PUSH1 0x0 PUSH1 0x1 DUP3 DUP2 SLOAD DUP2 LT PUSH2 0x935 JUMPI PUSH2 0x934 PUSH2 0x19A4 JUMP JUMPDEST JUMPDEST SWAP1 PUSH1 0x0 MSTORE PUSH1 0x20 PUSH1 0x0 KECCAK256 ADD PUSH1 0x0 SWAP1 SLOAD SWAP1 PUSH2 0x100 EXP SWAP1 DIV PUSH20 0xFFFFFFFFFFFFFFFFFFFFFFFFFFFFFFFFFFFFFFFF AND SWAP1 POP SWAP2 SWAP1 POP JUMP JUMPDEST PUSH1 0x0 PUSH1 0x40 MLOAD DUP1 PUSH1 0x60 ADD PUSH1 0x40 MSTORE DUP1 DUP5 DUP2 MSTORE PUSH1 0x20 ADD CALLER PUSH20 0xFFFFFFFFFFFFFFFFFFFFFFFFFFFFFFFFFFFFFFFF AND DUP2 MSTORE PUSH1 0x20 ADD DUP4 DUP2 MSTORE POP SWAP1 POP PUSH1 0x9 DUP2 SWAP1 DUP1 PUSH1 0x1 DUP2 SLOAD ADD DUP1 DUP3 SSTORE DUP1 SWAP2 POP POP PUSH1 0x1 SWAP1 SUB SWAP1 PUSH1 0x0 MSTORE PUSH1 0x20 PUSH1 0x0 KECCAK256 SWAP1 PUSH1 0x3 MUL ADD PUSH1 0x0 SWAP1 SWAP2 SWAP1 SWAP2 SWAP1 SWAP2 POP PUSH1 0x0 DUP3 ADD MLOAD DUP2 PUSH1 0x0 ADD SSTORE PUSH1 0x20 DUP3 ADD MLOAD DUP2 PUSH1 0x1 ADD PUSH1 0x0 PUSH2 0x100 EXP DUP2 SLOAD DUP2 PUSH20 0xFFFFFFFFFFFFFFFFFFFFFFFFFFFFFFFFFFFFFFFF MUL NOT AND SWAP1 DUP4 PUSH20 0xFFFFFFFFFFFFFFFFFFFFFFFFFFFFFFFFFFFFFFFF AND MUL OR SWAP1 SSTORE POP PUSH1 0x40 DUP3 ADD MLOAD DUP2 PUSH1 0x2 ADD SWAP1 DUP1 MLOAD SWAP1 PUSH1 0x20 ADD SWAP1 PUSH2 0xA35 SWAP3 SWAP2 SWAP1 PUSH2 0x1083 JUMP JUMPDEST POP POP POP POP POP POP JUMP JUMPDEST PUSH1 0x60 PUSH1 0x40 MLOAD DUP1 PUSH1 0x40 ADD PUSH1 0x40 MSTORE DUP1 PUSH1 0x17 DUP2 MSTORE PUSH1 0x20 ADD PUSH32 0x73616D706C6520737472696E672066726F6D20414B4542000000000000000000 DUP2 MSTORE POP SWAP1 POP SWAP1 JUMP JUMPDEST PUSH1 0x0 DUP1 PUSH1 0x60 PUSH1 0x6 PUSH1 0x0 SWAP1 SLOAD SWAP1 PUSH2 0x100 EXP SWAP1 DIV PUSH20 0xFFFFFFFFFFFFFFFFFFFFFFFFFFFFFFFFFFFFFFFF AND PUSH1 0x7 SLOAD PUSH1 0x8 DUP1 DUP1 SLOAD PUSH2 0xAB3 SWAP1 PUSH2 0x1973 JUMP JUMPDEST DUP1 PUSH1 0x1F ADD PUSH1 0x20 DUP1 SWAP2 DIV MUL PUSH1 0x20 ADD PUSH1 0x40 MLOAD SWAP1 DUP2 ADD PUSH1 0x40 MSTORE DUP1 SWAP3 SWAP2 SWAP1 DUP2 DUP2 MSTORE PUSH1 0x20 ADD DUP3 DUP1 SLOAD PUSH2 0xADF SWAP1 PUSH2 0x1973 JUMP JUMPDEST DUP1 ISZERO PUSH2 0xB2C JUMPI DUP1 PUSH1 0x1F LT PUSH2 0xB01 JUMPI PUSH2 0x100 DUP1 DUP4 SLOAD DIV MUL DUP4 MSTORE SWAP2 PUSH1 0x20 ADD SWAP2 PUSH2 0xB2C JUMP JUMPDEST DUP3 ADD SWAP2 SWAP1 PUSH1 0x0 MSTORE PUSH1 0x20 PUSH1 0x0 KECCAK256 SWAP1 JUMPDEST DUP2 SLOAD DUP2 MSTORE SWAP1 PUSH1 0x1 ADD SWAP1 PUSH1 0x20 ADD DUP1 DUP4 GT PUSH2 0xB0F JUMPI DUP3 SWAP1 SUB PUSH1 0x1F AND DUP3 ADD SWAP2 JUMPDEST POP POP POP POP POP SWAP1 POP SWAP3 POP SWAP3 POP SWAP3 POP SWAP1 SWAP2 SWAP3 JUMP JUMPDEST PUSH1 0x9 DUP2 DUP2 SLOAD DUP2 LT PUSH2 0xB4E JUMPI PUSH1 0x0 DUP1 REVERT JUMPDEST SWAP1 PUSH1 0x0 MSTORE PUSH1 0x20 PUSH1 0x0 KECCAK256 SWAP1 PUSH1 0x3 MUL ADD PUSH1 0x0 SWAP2 POP SWAP1 POP DUP1 PUSH1 0x0 ADD SLOAD SWAP1 DUP1 PUSH1 0x1 ADD PUSH1 0x0 SWAP1 SLOAD SWAP1 PUSH2 0x100 EXP SWAP1 DIV PUSH20 0xFFFFFFFFFFFFFFFFFFFFFFFFFFFFFFFFFFFFFFFF AND SWAP1 DUP1 PUSH1 0x2 ADD DUP1 SLOAD PUSH2 0xB9D SWAP1 PUSH2 0x1973 JUMP JUMPDEST DUP1 PUSH1 0x1F ADD PUSH1 0x20 DUP1 SWAP2 DIV MUL PUSH1 0x20 ADD PUSH1 0x40 MLOAD SWAP1 DUP2 ADD PUSH1 0x40 MSTORE DUP1 SWAP3 SWAP2 SWAP1 DUP2 DUP2 MSTORE PUSH1 0x20 ADD DUP3 DUP1 SLOAD PUSH2 0xBC9 SWAP1 PUSH2 0x1973 JUMP JUMPDEST DUP1 ISZERO PUSH2 0xC16 JUMPI DUP1 PUSH1 0x1F LT PUSH2 0xBEB JUMPI PUSH2 0x100 DUP1 DUP4 SLOAD DIV MUL DUP4 MSTORE SWAP2 PUSH1 0x20 ADD SWAP2 PUSH2 0xC16 JUMP JUMPDEST DUP3 ADD SWAP2 SWAP1 PUSH1 0x0 MSTORE PUSH1 0x20 PUSH1 0x0 KECCAK256 SWAP1 JUMPDEST DUP2 SLOAD DUP2 MSTORE SWAP1 PUSH1 0x1 ADD SWAP1 PUSH1 0x20 ADD DUP1 DUP4 GT PUSH2 0xBF9 JUMPI DUP3 SWAP1 SUB PUSH1 0x1F AND DUP3 ADD SWAP2 JUMPDEST POP POP POP POP POP SWAP1 POP DUP4 JUMP JUMPDEST PUSH1 0x2 DUP1 SLOAD PUSH2 0xC2D SWAP1 PUSH2 0x1973 JUMP JUMPDEST DUP1 PUSH1 0x1F ADD PUSH1 0x20 DUP1 SWAP2 DIV MUL PUSH1 0x20 ADD PUSH1 0x40 MLOAD SWAP1 DUP2 ADD PUSH1 0x40 MSTORE DUP1 SWAP3 SWAP2 SWAP1 DUP2 DUP2 MSTORE PUSH1 0x20 ADD DUP3 DUP1 SLOAD PUSH2 0xC59 SWAP1 PUSH2 0x1973 JUMP JUMPDEST DUP1 ISZERO PUSH2 0xCA6 JUMPI DUP1 PUSH1 0x1F LT PUSH2 0xC7B JUMPI PUSH2 0x100 DUP1 DUP4 SLOAD DIV MUL DUP4 MSTORE SWAP2 PUSH1 0x20 ADD SWAP2 PUSH2 0xCA6 JUMP JUMPDEST DUP3 ADD SWAP2 SWAP1 PUSH1 0x0 MSTORE PUSH1 0x20 PUSH1 0x0 KECCAK256 SWAP1 JUMPDEST DUP2 SLOAD DUP2 MSTORE SWAP1 PUSH1 0x1 ADD SWAP1 PUSH1 0x20 ADD DUP1 DUP4 GT PUSH2 0xC89 JUMPI DUP3 SWAP1 SUB PUSH1 0x1F AND DUP3 ADD SWAP2 JUMPDEST POP POP POP POP POP DUP2 JUMP JUMPDEST PUSH1 0x60 PUSH1 0x8 DUP1 SLOAD PUSH2 0xCBD SWAP1 PUSH2 0x1973 JUMP JUMPDEST DUP1 PUSH1 0x1F ADD PUSH1 0x20 DUP1 SWAP2 DIV MUL PUSH1 0x20 ADD PUSH1 0x40 MLOAD SWAP1 DUP2 ADD PUSH1 0x40 MSTORE DUP1 SWAP3 SWAP2 SWAP1 DUP2 DUP2 MSTORE PUSH1 0x20 ADD DUP3 DUP1 SLOAD PUSH2 0xCE9 SWAP1 PUSH2 0x1973 JUMP JUMPDEST DUP1 ISZERO PUSH2 0xD36 JUMPI DUP1 PUSH1 0x1F LT PUSH2 0xD0B JUMPI PUSH2 0x100 DUP1 DUP4 SLOAD DIV MUL DUP4 MSTORE SWAP2 PUSH1 0x20 ADD SWAP2 PUSH2 0xD36 JUMP JUMPDEST DUP3 ADD SWAP2 SWAP1 PUSH1 0x0 MSTORE PUSH1 0x20 PUSH1 0x0 KECCAK256 SWAP1 JUMPDEST DUP2 SLOAD DUP2 MSTORE SWAP1 PUSH1 0x1 ADD SWAP1 PUSH1 0x20 ADD DUP1 DUP4 GT PUSH2 0xD19 JUMPI DUP3 SWAP1 SUB PUSH1 0x1F AND DUP3 ADD SWAP2 JUMPDEST POP POP POP POP POP SWAP1 POP SWAP1 JUMP JUMPDEST DUP1 PUSH1 0x5 PUSH1 0x0 CALLER PUSH20 0xFFFFFFFFFFFFFFFFFFFFFFFFFFFFFFFFFFFFFFFF AND PUSH20 0xFFFFFFFFFFFFFFFFFFFFFFFFFFFFFFFFFFFFFFFF AND DUP2 MSTORE PUSH1 0x20 ADD SWAP1 DUP2 MSTORE PUSH1 0x20 ADD PUSH1 0x0 KECCAK256 SWAP1 DUP1 MLOAD SWAP1 PUSH1 0x20 ADD SWAP1 PUSH2 0xD93 SWAP3 SWAP2 SWAP1 PUSH2 0x1083 JUMP JUMPDEST POP POP JUMP JUMPDEST PUSH1 0x0 PUSH1 0x7 SLOAD SWAP1 POP SWAP1 JUMP JUMPDEST PUSH1 0x1 DUP2 DUP2 SLOAD DUP2 LT PUSH2 0xDB1 JUMPI PUSH1 0x0 DUP1 REVERT JUMPDEST SWAP1 PUSH1 0x0 MSTORE PUSH1 0x20 PUSH1 0x0 KECCAK256 ADD PUSH1 0x0 SWAP2 POP SLOAD SWAP1 PUSH2 0x100 EXP SWAP1 DIV PUSH20 0xFFFFFFFFFFFFFFFFFFFFFFFFFFFFFFFFFFFFFFFF AND DUP2 JUMP JUMPDEST PUSH1 0x0 PUSH1 0x6 PUSH1 0x0 PUSH2 0x100 EXP DUP2 SLOAD DUP2 PUSH20 0xFFFFFFFFFFFFFFFFFFFFFFFFFFFFFFFFFFFFFFFF MUL NOT AND SWAP1 DUP4 PUSH20 0xFFFFFFFFFFFFFFFFFFFFFFFFFFFFFFFFFFFFFFFF AND MUL OR SWAP1 SSTORE POP PUSH1 0x0 PUSH1 0x7 DUP2 SWAP1 SSTORE POP PUSH1 0x40 MLOAD DUP1 PUSH1 0x20 ADD PUSH1 0x40 MSTORE DUP1 PUSH1 0x0 DUP2 MSTORE POP PUSH1 0x8 SWAP1 DUP1 MLOAD SWAP1 PUSH1 0x20 ADD SWAP1 PUSH2 0xE4F SWAP3 SWAP2 SWAP1 PUSH2 0x1083 JUMP JUMPDEST POP PUSH1 0x40 MLOAD DUP1 PUSH1 0x20 ADD PUSH1 0x40 MSTORE DUP1 PUSH1 0x0 DUP2 MSTORE POP PUSH1 0x2 SWAP1 DUP1 MLOAD SWAP1 PUSH1 0x20 ADD SWAP1 PUSH2 0xE75 SWAP3 SWAP2 SWAP1 PUSH2 0x1083 JUMP JUMPDEST POP PUSH1 0x0 PUSH1 0x3 DUP2 SWAP1 SSTORE POP PUSH1 0x0 PUSH1 0x4 DUP2 SWAP1 SSTORE POP PUSH2 0xE8E PUSH2 0x869 JUMP JUMPDEST PUSH1 0x1 PUSH1 0x0 PUSH2 0xE9C SWAP2 SWAP1 PUSH2 0x1149 JUMP JUMPDEST PUSH1 0x9 PUSH1 0x0 PUSH2 0xEAA SWAP2 SWAP1 PUSH2 0x116A JUMP JUMPDEST JUMP JUMPDEST PUSH1 0x4 SLOAD DUP2 JUMP JUMPDEST PUSH1 0x8 DUP1 SLOAD PUSH2 0xEBF SWAP1 PUSH2 0x1973 JUMP JUMPDEST DUP1 PUSH1 0x1F ADD PUSH1 0x20 DUP1 SWAP2 DIV MUL PUSH1 0x20 ADD PUSH1 0x40 MLOAD SWAP1 DUP2 ADD PUSH1 0x40 MSTORE DUP1 SWAP3 SWAP2 SWAP1 DUP2 DUP2 MSTORE PUSH1 0x20 ADD DUP3 DUP1 SLOAD PUSH2 0xEEB SWAP1 PUSH2 0x1973 JUMP JUMPDEST DUP1 ISZERO PUSH2 0xF38 JUMPI DUP1 PUSH1 0x1F LT PUSH2 0xF0D JUMPI PUSH2 0x100 DUP1 DUP4 SLOAD DIV MUL DUP4 MSTORE SWAP2 PUSH1 0x20 ADD SWAP2 PUSH2 0xF38 JUMP JUMPDEST DUP3 ADD SWAP2 SWAP1 PUSH1 0x0 MSTORE PUSH1 0x20 PUSH1 0x0 KECCAK256 SWAP1 JUMPDEST DUP2 SLOAD DUP2 MSTORE SWAP1 PUSH1 0x1 ADD SWAP1 PUSH1 0x20 ADD DUP1 DUP4 GT PUSH2 0xF1B JUMPI DUP3 SWAP1 SUB PUSH1 0x1F AND DUP3 ADD SWAP2 JUMPDEST POP POP POP POP POP DUP2 JUMP JUMPDEST PUSH1 0x0 DUP1 SLOAD SWAP1 PUSH2 0x100 EXP SWAP1 DIV PUSH20 0xFFFFFFFFFFFFFFFFFFFFFFFFFFFFFFFFFFFFFFFF AND PUSH20 0xFFFFFFFFFFFFFFFFFFFFFFFFFFFFFFFFFFFFFFFF AND CALLER PUSH20 0xFFFFFFFFFFFFFFFFFFFFFFFFFFFFFFFFFFFFFFFF AND EQ PUSH2 0xFCE JUMPI PUSH1 0x40 MLOAD PUSH32 0x8C379A000000000000000000000000000000000000000000000000000000000 DUP2 MSTORE PUSH1 0x4 ADD PUSH2 0xFC5 SWAP1 PUSH2 0x1ACA JUMP JUMPDEST PUSH1 0x40 MLOAD DUP1 SWAP2 SUB SWAP1 REVERT JUMPDEST DUP3 PUSH1 0x2 SWAP1 DUP1 MLOAD SWAP1 PUSH1 0x20 ADD SWAP1 PUSH2 0xFE4 SWAP3 SWAP2 SWAP1 PUSH2 0x1083 JUMP JUMPDEST POP DUP2 PUSH1 0x3 DUP2 SWAP1 SSTORE POP DUP1 PUSH1 0x4 DUP2 SWAP1 SSTORE POP POP POP POP JUMP JUMPDEST PUSH1 0x6 PUSH1 0x0 SWAP1 SLOAD SWAP1 PUSH2 0x100 EXP SWAP1 DIV PUSH20 0xFFFFFFFFFFFFFFFFFFFFFFFFFFFFFFFFFFFFFFFF AND DUP2 JUMP JUMPDEST PUSH1 0x1 CALLER SWAP1 DUP1 PUSH1 0x1 DUP2 SLOAD ADD DUP1 DUP3 SSTORE DUP1 SWAP2 POP POP PUSH1 0x1 SWAP1 SUB SWAP1 PUSH1 0x0 MSTORE PUSH1 0x20 PUSH1 0x0 KECCAK256 ADD PUSH1 0x0 SWAP1 SWAP2 SWAP1 SWAP2 SWAP1 SWAP2 PUSH2 0x100 EXP DUP2 SLOAD DUP2 PUSH20 0xFFFFFFFFFFFFFFFFFFFFFFFFFFFFFFFFFFFFFFFF MUL NOT AND SWAP1 DUP4 PUSH20 0xFFFFFFFFFFFFFFFFFFFFFFFFFFFFFFFFFFFFFFFF AND MUL OR SWAP1 SSTORE POP JUMP JUMPDEST DUP3 DUP1 SLOAD PUSH2 0x108F SWAP1 PUSH2 0x1973 JUMP JUMPDEST SWAP1 PUSH1 0x0 MSTORE PUSH1 0x20 PUSH1 0x0 KECCAK256 SWAP1 PUSH1 0x1F ADD PUSH1 0x20 SWAP1 DIV DUP2 ADD SWAP3 DUP3 PUSH2 0x10B1 JUMPI PUSH1 0x0 DUP6 SSTORE PUSH2 0x10F8 JUMP JUMPDEST DUP3 PUSH1 0x1F LT PUSH2 0x10CA JUMPI DUP1 MLOAD PUSH1 0xFF NOT AND DUP4 DUP1 ADD OR DUP6 SSTORE PUSH2 0x10F8 JUMP JUMPDEST DUP3 DUP1 ADD PUSH1 0x1 ADD DUP6 SSTORE DUP3 ISZERO PUSH2 0x10F8 JUMPI SWAP2 DUP3 ADD JUMPDEST DUP3 DUP2 GT ISZERO PUSH2 0x10F7 JUMPI DUP3 MLOAD DUP3 SSTORE SWAP2 PUSH1 0x20 ADD SWAP2 SWAP1 PUSH1 0x1 ADD SWAP1 PUSH2 0x10DC JUMP JUMPDEST JUMPDEST POP SWAP1 POP PUSH2 0x1105 SWAP2 SWAP1 PUSH2 0x118E JUMP JUMPDEST POP SWAP1 JUMP JUMPDEST POP DUP1 SLOAD PUSH2 0x1115 SWAP1 PUSH2 0x1973 JUMP JUMPDEST PUSH1 0x0 DUP3 SSTORE DUP1 PUSH1 0x1F LT PUSH2 0x1127 JUMPI POP PUSH2 0x1146 JUMP JUMPDEST PUSH1 0x1F ADD PUSH1 0x20 SWAP1 DIV SWAP1 PUSH1 0x0 MSTORE PUSH1 0x20 PUSH1 0x0 KECCAK256 SWAP1 DUP2 ADD SWAP1 PUSH2 0x1145 SWAP2 SWAP1 PUSH2 0x118E JUMP JUMPDEST JUMPDEST POP JUMP JUMPDEST POP DUP1 SLOAD PUSH1 0x0 DUP3 SSTORE SWAP1 PUSH1 0x0 MSTORE PUSH1 0x20 PUSH1 0x0 KECCAK256 SWAP1 DUP2 ADD SWAP1 PUSH2 0x1167 SWAP2 SWAP1 PUSH2 0x118E JUMP JUMPDEST POP JUMP JUMPDEST POP DUP1 SLOAD PUSH1 0x0 DUP3 SSTORE PUSH1 0x3 MUL SWAP1 PUSH1 0x0 MSTORE PUSH1 0x20 PUSH1 0x0 KECCAK256 SWAP1 DUP2 ADD SWAP1 PUSH2 0x118B SWAP2 SWAP1 PUSH2 0x11AB JUMP JUMPDEST POP JUMP JUMPDEST JUMPDEST DUP1 DUP3 GT ISZERO PUSH2 0x11A7 JUMPI PUSH1 0x0 DUP2 PUSH1 0x0 SWAP1 SSTORE POP PUSH1 0x1 ADD PUSH2 0x118F JUMP JUMPDEST POP SWAP1 JUMP JUMPDEST JUMPDEST DUP1 DUP3 GT ISZERO PUSH2 0x11FD JUMPI PUSH1 0x0 DUP1 DUP3 ADD PUSH1 0x0 SWAP1 SSTORE PUSH1 0x1 DUP3 ADD PUSH1 0x0 PUSH2 0x100 EXP DUP2 SLOAD SWAP1 PUSH20 0xFFFFFFFFFFFFFFFFFFFFFFFFFFFFFFFFFFFFFFFF MUL NOT AND SWAP1 SSTORE PUSH1 0x2 DUP3 ADD PUSH1 0x0 PUSH2 0x11F4 SWAP2 SWAP1 PUSH2 0x1109 JUMP JUMPDEST POP PUSH1 0x3 ADD PUSH2 0x11AC JUMP JUMPDEST POP SWAP1 JUMP JUMPDEST PUSH1 0x0 PUSH1 0x40 MLOAD SWAP1 POP SWAP1 JUMP JUMPDEST PUSH1 0x0 DUP1 REVERT JUMPDEST PUSH1 0x0 DUP1 REVERT JUMPDEST PUSH1 0x0 PUSH20 0xFFFFFFFFFFFFFFFFFFFFFFFFFFFFFFFFFFFFFFFF DUP3 AND SWAP1 POP SWAP2 SWAP1 POP JUMP JUMPDEST PUSH1 0x0 PUSH2 0x1240 DUP3 PUSH2 0x1215 JUMP JUMPDEST SWAP1 POP SWAP2 SWAP1 POP JUMP JUMPDEST PUSH2 0x1250 DUP2 PUSH2 0x1235 JUMP JUMPDEST DUP2 EQ PUSH2 0x125B JUMPI PUSH1 0x0 DUP1 REVERT JUMPDEST POP JUMP JUMPDEST PUSH1 0x0 DUP2 CALLDATALOAD SWAP1 POP PUSH2 0x126D DUP2 PUSH2 0x1247 JUMP JUMPDEST SWAP3 SWAP2 POP POP JUMP JUMPDEST PUSH1 0x0 PUSH1 0x20 DUP3 DUP5 SUB SLT ISZERO PUSH2 0x1289 JUMPI PUSH2 0x1288 PUSH2 0x120B JUMP JUMPDEST JUMPDEST PUSH1 0x0 PUSH2 0x1297 DUP5 DUP3 DUP6 ADD PUSH2 0x125E JUMP JUMPDEST SWAP2 POP POP SWAP3 SWAP2 POP POP JUMP JUMPDEST PUSH1 0x0 DUP2 MLOAD SWAP1 POP SWAP2 SWAP1 POP JUMP JUMPDEST PUSH1 0x0 DUP3 DUP3 MSTORE PUSH1 0x20 DUP3 ADD SWAP1 POP SWAP3 SWAP2 POP POP JUMP JUMPDEST PUSH1 0x0 JUMPDEST DUP4 DUP2 LT ISZERO PUSH2 0x12DA JUMPI DUP1 DUP3 ADD MLOAD DUP2 DUP5 ADD MSTORE PUSH1 0x20 DUP2 ADD SWAP1 POP PUSH2 0x12BF JUMP JUMPDEST DUP4 DUP2 GT ISZERO PUSH2 0x12E9 JUMPI PUSH1 0x0 DUP5 DUP5 ADD MSTORE JUMPDEST POP POP POP POP JUMP JUMPDEST PUSH1 0x0 PUSH1 0x1F NOT PUSH1 0x1F DUP4 ADD AND SWAP1 POP SWAP2 SWAP1 POP JUMP JUMPDEST PUSH1 0x0 PUSH2 0x130B DUP3 PUSH2 0x12A0 JUMP JUMPDEST PUSH2 0x1315 DUP2 DUP6 PUSH2 0x12AB JUMP JUMPDEST SWAP4 POP PUSH2 0x1325 DUP2 DUP6 PUSH1 0x20 DUP7 ADD PUSH2 0x12BC JUMP JUMPDEST PUSH2 0x132E DUP2 PUSH2 0x12EF JUMP JUMPDEST DUP5 ADD SWAP2 POP POP SWAP3 SWAP2 POP POP JUMP JUMPDEST PUSH1 0x0 PUSH1 0x20 DUP3 ADD SWAP1 POP DUP2 DUP2 SUB PUSH1 0x0 DUP4 ADD MSTORE PUSH2 0x1353 DUP2 DUP5 PUSH2 0x1300 JUMP JUMPDEST SWAP1 POP SWAP3 SWAP2 POP POP JUMP JUMPDEST PUSH2 0x1364 DUP2 PUSH2 0x1235 JUMP JUMPDEST DUP3 MSTORE POP POP JUMP JUMPDEST PUSH1 0x0 PUSH1 0x20 DUP3 ADD SWAP1 POP PUSH2 0x137F PUSH1 0x0 DUP4 ADD DUP5 PUSH2 0x135B JUMP JUMPDEST SWAP3 SWAP2 POP POP JUMP JUMPDEST PUSH1 0x0 DUP2 SWAP1 POP SWAP2 SWAP1 POP JUMP JUMPDEST PUSH2 0x1398 DUP2 PUSH2 0x1385 JUMP JUMPDEST DUP3 MSTORE POP POP JUMP JUMPDEST PUSH1 0x0 PUSH1 0x20 DUP3 ADD SWAP1 POP PUSH2 0x13B3 PUSH1 0x0 DUP4 ADD DUP5 PUSH2 0x138F JUMP JUMPDEST SWAP3 SWAP2 POP POP JUMP JUMPDEST PUSH2 0x13C2 DUP2 PUSH2 0x1385 JUMP JUMPDEST DUP2 EQ PUSH2 0x13CD JUMPI PUSH1 0x0 DUP1 REVERT JUMPDEST POP JUMP JUMPDEST PUSH1 0x0 DUP2 CALLDATALOAD SWAP1 POP PUSH2 0x13DF DUP2 PUSH2 0x13B9 JUMP JUMPDEST SWAP3 SWAP2 POP POP JUMP JUMPDEST PUSH1 0x0 DUP1 REVERT JUMPDEST PUSH1 0x0 DUP1 REVERT JUMPDEST PUSH32 0x4E487B7100000000000000000000000000000000000000000000000000000000 PUSH1 0x0 MSTORE PUSH1 0x41 PUSH1 0x4 MSTORE PUSH1 0x24 PUSH1 0x0 REVERT JUMPDEST PUSH2 0x1427 DUP3 PUSH2 0x12EF JUMP JUMPDEST DUP2 ADD DUP2 DUP2 LT PUSH8 0xFFFFFFFFFFFFFFFF DUP3 GT OR ISZERO PUSH2 0x1446 JUMPI PUSH2 0x1445 PUSH2 0x13EF JUMP JUMPDEST JUMPDEST DUP1 PUSH1 0x40 MSTORE POP POP POP JUMP JUMPDEST PUSH1 0x0 PUSH2 0x1459 PUSH2 0x1201 JUMP JUMPDEST SWAP1 POP PUSH2 0x1465 DUP3 DUP3 PUSH2 0x141E JUMP JUMPDEST SWAP2 SWAP1 POP JUMP JUMPDEST PUSH1 0x0 PUSH8 0xFFFFFFFFFFFFFFFF DUP3 GT ISZERO PUSH2 0x1485 JUMPI PUSH2 0x1484 PUSH2 0x13EF JUMP JUMPDEST JUMPDEST PUSH2 0x148E DUP3 PUSH2 0x12EF JUMP JUMPDEST SWAP1 POP PUSH1 0x20 DUP2 ADD SWAP1 POP SWAP2 SWAP1 POP JUMP JUMPDEST DUP3 DUP2 DUP4 CALLDATACOPY PUSH1 0x0 DUP4 DUP4 ADD MSTORE POP POP POP JUMP JUMPDEST PUSH1 0x0 PUSH2 0x14BD PUSH2 0x14B8 DUP5 PUSH2 0x146A JUMP JUMPDEST PUSH2 0x144F JUMP JUMPDEST SWAP1 POP DUP3 DUP2 MSTORE PUSH1 0x20 DUP2 ADD DUP5 DUP5 DUP5 ADD GT ISZERO PUSH2 0x14D9 JUMPI PUSH2 0x14D8 PUSH2 0x13EA JUMP JUMPDEST JUMPDEST PUSH2 0x14E4 DUP5 DUP3 DUP6 PUSH2 0x149B JUMP JUMPDEST POP SWAP4 SWAP3 POP POP POP JUMP JUMPDEST PUSH1 0x0 DUP3 PUSH1 0x1F DUP4 ADD SLT PUSH2 0x1501 JUMPI PUSH2 0x1500 PUSH2 0x13E5 JUMP JUMPDEST JUMPDEST DUP2 CALLDATALOAD PUSH2 0x1511 DUP5 DUP3 PUSH1 0x20 DUP7 ADD PUSH2 0x14AA JUMP JUMPDEST SWAP2 POP POP SWAP3 SWAP2 POP POP JUMP JUMPDEST PUSH1 0x0 DUP1 PUSH1 0x40 DUP4 DUP6 SUB SLT ISZERO PUSH2 0x1531 JUMPI PUSH2 0x1530 PUSH2 0x120B JUMP JUMPDEST JUMPDEST PUSH1 0x0 PUSH2 0x153F DUP6 DUP3 DUP7 ADD PUSH2 0x13D0 JUMP JUMPDEST SWAP3 POP POP PUSH1 0x20 DUP4 ADD CALLDATALOAD PUSH8 0xFFFFFFFFFFFFFFFF DUP2 GT ISZERO PUSH2 0x1560 JUMPI PUSH2 0x155F PUSH2 0x1210 JUMP JUMPDEST JUMPDEST PUSH2 0x156C DUP6 DUP3 DUP7 ADD PUSH2 0x14EC JUMP JUMPDEST SWAP2 POP POP SWAP3 POP SWAP3 SWAP1 POP JUMP JUMPDEST PUSH1 0x0 DUP2 MLOAD SWAP1 POP SWAP2 SWAP1 POP JUMP JUMPDEST PUSH1 0x0 DUP3 DUP3 MSTORE PUSH1 0x20 DUP3 ADD SWAP1 POP SWAP3 SWAP2 POP POP JUMP JUMPDEST PUSH1 0x0 DUP2 SWAP1 POP PUSH1 0x20 DUP3 ADD SWAP1 POP SWAP2 SWAP1 POP JUMP JUMPDEST PUSH2 0x15AB DUP2 PUSH2 0x1385 JUMP JUMPDEST DUP3 MSTORE POP POP JUMP JUMPDEST PUSH2 0x15BA DUP2 PUSH2 0x1235 JUMP JUMPDEST DUP3 MSTORE POP POP JUMP JUMPDEST PUSH1 0x0 DUP3 DUP3 MSTORE PUSH1 0x20 DUP3 ADD SWAP1 POP SWAP3 SWAP2 POP POP JUMP JUMPDEST PUSH1 0x0 PUSH2 0x15DC DUP3 PUSH2 0x12A0 JUMP JUMPDEST PUSH2 0x15E6 DUP2 DUP6 PUSH2 0x15C0 JUMP JUMPDEST SWAP4 POP PUSH2 0x15F6 DUP2 DUP6 PUSH1 0x20 DUP7 ADD PUSH2 0x12BC JUMP JUMPDEST PUSH2 0x15FF DUP2 PUSH2 0x12EF JUMP JUMPDEST DUP5 ADD SWAP2 POP POP SWAP3 SWAP2 POP POP JUMP JUMPDEST PUSH1 0x0 PUSH1 0x60 DUP4 ADD PUSH1 0x0 DUP4 ADD MLOAD PUSH2 0x1622 PUSH1 0x0 DUP7 ADD DUP3 PUSH2 0x15A2 JUMP JUMPDEST POP PUSH1 0x20 DUP4 ADD MLOAD PUSH2 0x1635 PUSH1 0x20 DUP7 ADD DUP3 PUSH2 0x15B1 JUMP JUMPDEST POP PUSH1 0x40 DUP4 ADD MLOAD DUP5 DUP3 SUB PUSH1 0x40 DUP7 ADD MSTORE PUSH2 0x164D DUP3 DUP3 PUSH2 0x15D1 JUMP JUMPDEST SWAP2 POP POP DUP1 SWAP2 POP POP SWAP3 SWAP2 POP POP JUMP JUMPDEST PUSH1 0x0 PUSH2 0x1666 DUP4 DUP4 PUSH2 0x160A JUMP JUMPDEST SWAP1 POP SWAP3 SWAP2 POP POP JUMP JUMPDEST PUSH1 0x0 PUSH1 0x20 DUP3 ADD SWAP1 POP SWAP2 SWAP1 POP JUMP JUMPDEST PUSH1 0x0 PUSH2 0x1686 DUP3 PUSH2 0x1576 JUMP JUMPDEST PUSH2 0x1690 DUP2 DUP6 PUSH2 0x1581 JUMP JUMPDEST SWAP4 POP DUP4 PUSH1 0x20 DUP3 MUL DUP6 ADD PUSH2 0x16A2 DUP6 PUSH2 0x1592 JUMP JUMPDEST DUP1 PUSH1 0x0 JUMPDEST DUP6 DUP2 LT ISZERO PUSH2 0x16DE JUMPI DUP5 DUP5 SUB DUP10 MSTORE DUP2 MLOAD PUSH2 0x16BF DUP6 DUP3 PUSH2 0x165A JUMP JUMPDEST SWAP5 POP PUSH2 0x16CA DUP4 PUSH2 0x166E JUMP JUMPDEST SWAP3 POP PUSH1 0x20 DUP11 ADD SWAP10 POP POP PUSH1 0x1 DUP2 ADD SWAP1 POP PUSH2 0x16A6 JUMP JUMPDEST POP DUP3 SWAP8 POP DUP8 SWAP6 POP POP POP POP POP POP SWAP3 SWAP2 POP POP JUMP JUMPDEST PUSH1 0x0 PUSH1 0x20 DUP3 ADD SWAP1 POP DUP2 DUP2 SUB PUSH1 0x0 DUP4 ADD MSTORE PUSH2 0x170A DUP2 DUP5 PUSH2 0x167B JUMP JUMPDEST SWAP1 POP SWAP3 SWAP2 POP POP JUMP JUMPDEST PUSH1 0x0 DUP2 MLOAD SWAP1 POP SWAP2 SWAP1 POP JUMP JUMPDEST PUSH1 0x0 DUP3 DUP3 MSTORE PUSH1 0x20 DUP3 ADD SWAP1 POP SWAP3 SWAP2 POP POP JUMP JUMPDEST PUSH1 0x0 DUP2 SWAP1 POP PUSH1 0x20 DUP3 ADD SWAP1 POP SWAP2 SWAP1 POP JUMP JUMPDEST PUSH1 0x0 PUSH2 0x174A DUP4 DUP4 PUSH2 0x15B1 JUMP JUMPDEST PUSH1 0x20 DUP4 ADD SWAP1 POP SWAP3 SWAP2 POP POP JUMP JUMPDEST PUSH1 0x0 PUSH1 0x20 DUP3 ADD SWAP1 POP SWAP2 SWAP1 POP JUMP JUMPDEST PUSH1 0x0 PUSH2 0x176E DUP3 PUSH2 0x1712 JUMP JUMPDEST PUSH2 0x1778 DUP2 DUP6 PUSH2 0x171D JUMP JUMPDEST SWAP4 POP PUSH2 0x1783 DUP4 PUSH2 0x172E JUMP JUMPDEST DUP1 PUSH1 0x0 JUMPDEST DUP4 DUP2 LT ISZERO PUSH2 0x17B4 JUMPI DUP2 MLOAD PUSH2 0x179B DUP9 DUP3 PUSH2 0x173E JUMP JUMPDEST SWAP8 POP PUSH2 0x17A6 DUP4 PUSH2 0x1756 JUMP JUMPDEST SWAP3 POP POP PUSH1 0x1 DUP2 ADD SWAP1 POP PUSH2 0x1787 JUMP JUMPDEST POP DUP6 SWAP4 POP POP POP POP SWAP3 SWAP2 POP POP JUMP JUMPDEST PUSH1 0x0 PUSH1 0x20 DUP3 ADD SWAP1 POP DUP2 DUP2 SUB PUSH1 0x0 DUP4 ADD MSTORE PUSH2 0x17DB DUP2 DUP5 PUSH2 0x1763 JUMP JUMPDEST SWAP1 POP SWAP3 SWAP2 POP POP JUMP JUMPDEST PUSH1 0x0 PUSH1 0x20 DUP3 DUP5 SUB SLT ISZERO PUSH2 0x17F9 JUMPI PUSH2 0x17F8 PUSH2 0x120B JUMP JUMPDEST JUMPDEST PUSH1 0x0 PUSH2 0x1807 DUP5 DUP3 DUP6 ADD PUSH2 0x13D0 JUMP JUMPDEST SWAP2 POP POP SWAP3 SWAP2 POP POP JUMP JUMPDEST PUSH1 0x0 PUSH1 0x60 DUP3 ADD SWAP1 POP PUSH2 0x1825 PUSH1 0x0 DUP4 ADD DUP7 PUSH2 0x135B JUMP JUMPDEST PUSH2 0x1832 PUSH1 0x20 DUP4 ADD DUP6 PUSH2 0x138F JUMP JUMPDEST DUP2 DUP2 SUB PUSH1 0x40 DUP4 ADD MSTORE PUSH2 0x1844 DUP2 DUP5 PUSH2 0x1300 JUMP JUMPDEST SWAP1 POP SWAP5 SWAP4 POP POP POP POP JUMP JUMPDEST PUSH1 0x0 PUSH1 0x60 DUP3 ADD SWAP1 POP PUSH2 0x1863 PUSH1 0x0 DUP4 ADD DUP7 PUSH2 0x138F JUMP JUMPDEST PUSH2 0x1870 PUSH1 0x20 DUP4 ADD DUP6 PUSH2 0x135B JUMP JUMPDEST DUP2 DUP2 SUB PUSH1 0x40 DUP4 ADD MSTORE PUSH2 0x1882 DUP2 DUP5 PUSH2 0x1300 JUMP JUMPDEST SWAP1 POP SWAP5 SWAP4 POP POP POP POP JUMP JUMPDEST PUSH1 0x0 PUSH1 0x20 DUP3 DUP5 SUB SLT ISZERO PUSH2 0x18A2 JUMPI PUSH2 0x18A1 PUSH2 0x120B JUMP JUMPDEST JUMPDEST PUSH1 0x0 DUP3 ADD CALLDATALOAD PUSH8 0xFFFFFFFFFFFFFFFF DUP2 GT ISZERO PUSH2 0x18C0 JUMPI PUSH2 0x18BF PUSH2 0x1210 JUMP JUMPDEST JUMPDEST PUSH2 0x18CC DUP5 DUP3 DUP6 ADD PUSH2 0x14EC JUMP JUMPDEST SWAP2 POP POP SWAP3 SWAP2 POP POP JUMP JUMPDEST PUSH1 0x0 DUP1 PUSH1 0x0 PUSH1 0x60 DUP5 DUP7 SUB SLT ISZERO PUSH2 0x18EE JUMPI PUSH2 0x18ED PUSH2 0x120B JUMP JUMPDEST JUMPDEST PUSH1 0x0 DUP5 ADD CALLDATALOAD PUSH8 0xFFFFFFFFFFFFFFFF DUP2 GT ISZERO PUSH2 0x190C JUMPI PUSH2 0x190B PUSH2 0x1210 JUMP JUMPDEST JUMPDEST PUSH2 0x1918 DUP7 DUP3 DUP8 ADD PUSH2 0x14EC JUMP JUMPDEST SWAP4 POP POP PUSH1 0x20 PUSH2 0x1929 DUP7 DUP3 DUP8 ADD PUSH2 0x13D0 JUMP JUMPDEST SWAP3 POP POP PUSH1 0x40 PUSH2 0x193A DUP7 DUP3 DUP8 ADD PUSH2 0x13D0 JUMP JUMPDEST SWAP2 POP POP SWAP3 POP SWAP3 POP SWAP3 JUMP JUMPDEST PUSH32 0x4E487B7100000000000000000000000000000000000000000000000000000000 PUSH1 0x0 MSTORE PUSH1 0x22 PUSH1 0x4 MSTORE PUSH1 0x24 PUSH1 0x0 REVERT JUMPDEST PUSH1 0x0 PUSH1 0x2 DUP3 DIV SWAP1 POP PUSH1 0x1 DUP3 AND DUP1 PUSH2 0x198B JUMPI PUSH1 0x7F DUP3 AND SWAP2 POP JUMPDEST PUSH1 0x20 DUP3 LT DUP2 SUB PUSH2 0x199E JUMPI PUSH2 0x199D PUSH2 0x1944 JUMP JUMPDEST JUMPDEST POP SWAP2 SWAP1 POP JUMP JUMPDEST PUSH32 0x4E487B7100000000000000000000000000000000000000000000000000000000 PUSH1 0x0 MSTORE PUSH1 0x32 PUSH1 0x4 MSTORE PUSH1 0x24 PUSH1 0x0 REVERT JUMPDEST PUSH32 0x4E487B7100000000000000000000000000000000000000000000000000000000 PUSH1 0x0 MSTORE PUSH1 0x11 PUSH1 0x4 MSTORE PUSH1 0x24 PUSH1 0x0 REVERT JUMPDEST PUSH1 0x0 PUSH2 0x1A0D DUP3 PUSH2 0x1385 JUMP JUMPDEST SWAP2 POP PUSH2 0x1A18 DUP4 PUSH2 0x1385 JUMP JUMPDEST SWAP3 POP DUP3 PUSH32 0xFFFFFFFFFFFFFFFFFFFFFFFFFFFFFFFFFFFFFFFFFFFFFFFFFFFFFFFFFFFFFFFF SUB DUP3 GT ISZERO PUSH2 0x1A4D JUMPI PUSH2 0x1A4C PUSH2 0x19D3 JUMP JUMPDEST JUMPDEST DUP3 DUP3 ADD SWAP1 POP SWAP3 SWAP2 POP POP JUMP JUMPDEST PUSH32 0x4F6E6C792061756374696F6E6565722063616E2063616C6C2074686973206675 PUSH1 0x0 DUP3 ADD MSTORE PUSH32 0x6E6374696F6E2E00000000000000000000000000000000000000000000000000 PUSH1 0x20 DUP3 ADD MSTORE POP JUMP JUMPDEST PUSH1 0x0 PUSH2 0x1AB4 PUSH1 0x27 DUP4 PUSH2 0x12AB JUMP JUMPDEST SWAP2 POP PUSH2 0x1ABF DUP3 PUSH2 0x1A58 JUMP JUMPDEST PUSH1 0x40 DUP3 ADD SWAP1 POP SWAP2 SWAP1 POP JUMP JUMPDEST PUSH1 0x0 PUSH1 0x20 DUP3 ADD SWAP1 POP DUP2 DUP2 SUB PUSH1 0x0 DUP4 ADD MSTORE PUSH2 0x1AE3 DUP2 PUSH2 0x1AA7 JUMP JUMPDEST SWAP1 POP SWAP2 SWAP1 POP JUMP INVALID LOG2 PUSH5 0x6970667358 0x22 SLT KECCAK256 0xCD EXTCODEHASH SWAP4 0xA8 LOG4 0xCA 0x2B GASPRICE 0x1F KECCAK256 0xAB GT 0xD0 LOG4 0xA6 0xD1 0xF9 0xCD JUMPI 0xFC 0xA7 0xDE 0xE5 CALLVALUE PUSH17 0x623C72C8FA069164736F6C634300080E00 CALLER "
				},
				"gasEstimates": {
					"creation": {
						"codeDepositCost": "1388800",
						"executionCost": "1444",
						"totalCost": "1390244"
					},
					"external": {
						"assetDescription()": "infinite",
						"bidders(uint256)": "5001",
						"dispute(uint256,string)": "infinite",
						"disputedBidders(uint256)": "infinite",
						"encodedBids(address)": "infinite",
						"getAllBidders()": "infinite",
						"getAllDisputers()": "infinite",
						"getBidderAddress(uint256)": "5056",
						"getEncodedBid(address)": "infinite",
						"getSampleString()": "infinite",
						"getWinner()": "infinite",
						"getWinnerAddress()": "2568",
						"getWinnerBid()": "2570",
						"getwinnerNonce()": "infinite",
						"minBidPrice()": "2541",
						"minNumberOfBidders()": "2518",
						"registerAuctionInfo(string,uint256,uint256)": "infinite",
						"registerBidder()": "48832",
						"reset()": "infinite",
						"resetEncodedBids()": "infinite",
						"submitEncodedBid(string)": "infinite",
						"submitWinner(uint256,string)": "infinite",
						"winnerAddress()": "2602",
						"winnerBid()": "2497",
						"winnerNonce()": "infinite"
					}
				},
				"methodIdentifiers": {
					"assetDescription()": "938626c2",
					"bidders(uint256)": "cff29dfd",
					"dispute(uint256,string)": "66c85dee",
					"disputedBidders(uint256)": "8f772f96",
					"encodedBids(address)": "3817df4c",
					"getAllBidders()": "3a79d2e5",
					"getAllDisputers()": "35abd160",
					"getBidderAddress(uint256)": "5fa38280",
					"getEncodedBid(address)": "05fb23cf",
					"getSampleString()": "83050daa",
					"getWinner()": "8e7ea5b2",
					"getWinnerAddress()": "10a37c26",
					"getWinnerBid()": "ceb98f6e",
					"getwinnerNonce()": "c8bca732",
					"minBidPrice()": "34eb86a2",
					"minNumberOfBidders()": "daa0218f",
					"registerAuctionInfo(string,uint256,uint256)": "e7d2a997",
					"registerBidder()": "f356733c",
					"reset()": "d826f88f",
					"resetEncodedBids()": "40bd5937",
					"submitEncodedBid(string)": "ca142b56",
					"submitWinner(uint256,string)": "1744e03b",
					"winnerAddress()": "ed7a4e0b",
					"winnerBid()": "11631d06",
					"winnerNonce()": "dca49f4a"
				}
			},
			"storageLayout": {
				"storage": [
					{
						"astId": 3,
						"contract": "Contracts/AKEB.sol:AKEB",
						"label": "auctioneer",
						"offset": 0,
						"slot": "0",
						"type": "t_address"
					},
					{
						"astId": 6,
						"contract": "Contracts/AKEB.sol:AKEB",
						"label": "bidders",
						"offset": 0,
						"slot": "1",
						"type": "t_array(t_address)dyn_storage"
					},
					{
						"astId": 8,
						"contract": "Contracts/AKEB.sol:AKEB",
						"label": "assetDescription",
						"offset": 0,
						"slot": "2",
						"type": "t_string_storage"
					},
					{
						"astId": 10,
						"contract": "Contracts/AKEB.sol:AKEB",
						"label": "minBidPrice",
						"offset": 0,
						"slot": "3",
						"type": "t_uint256"
					},
					{
						"astId": 12,
						"contract": "Contracts/AKEB.sol:AKEB",
						"label": "minNumberOfBidders",
						"offset": 0,
						"slot": "4",
						"type": "t_uint256"
					},
					{
						"astId": 16,
						"contract": "Contracts/AKEB.sol:AKEB",
						"label": "encodedBids",
						"offset": 0,
						"slot": "5",
						"type": "t_mapping(t_address,t_string_storage)"
					},
					{
						"astId": 18,
						"contract": "Contracts/AKEB.sol:AKEB",
						"label": "winnerAddress",
						"offset": 0,
						"slot": "6",
						"type": "t_address"
					},
					{
						"astId": 20,
						"contract": "Contracts/AKEB.sol:AKEB",
						"label": "winnerBid",
						"offset": 0,
						"slot": "7",
						"type": "t_uint256"
					},
					{
						"astId": 22,
						"contract": "Contracts/AKEB.sol:AKEB",
						"label": "winnerNonce",
						"offset": 0,
						"slot": "8",
						"type": "t_string_storage"
					},
					{
						"astId": 33,
						"contract": "Contracts/AKEB.sol:AKEB",
						"label": "disputedBidders",
						"offset": 0,
						"slot": "9",
						"type": "t_array(t_struct(DisputedBidders)29_storage)dyn_storage"
					}
				],
				"types": {
					"t_address": {
						"encoding": "inplace",
						"label": "address",
						"numberOfBytes": "20"
					},
					"t_array(t_address)dyn_storage": {
						"base": "t_address",
						"encoding": "dynamic_array",
						"label": "address[]",
						"numberOfBytes": "32"
					},
					"t_array(t_struct(DisputedBidders)29_storage)dyn_storage": {
						"base": "t_struct(DisputedBidders)29_storage",
						"encoding": "dynamic_array",
						"label": "struct AKEB.DisputedBidders[]",
						"numberOfBytes": "32"
					},
					"t_mapping(t_address,t_string_storage)": {
						"encoding": "mapping",
						"key": "t_address",
						"label": "mapping(address => string)",
						"numberOfBytes": "32",
						"value": "t_string_storage"
					},
					"t_string_storage": {
						"encoding": "bytes",
						"label": "string",
						"numberOfBytes": "32"
					},
					"t_struct(DisputedBidders)29_storage": {
						"encoding": "inplace",
						"label": "struct AKEB.DisputedBidders",
						"members": [
							{
								"astId": 24,
								"contract": "Contracts/AKEB.sol:AKEB",
								"label": "bid",
								"offset": 0,
								"slot": "0",
								"type": "t_uint256"
							},
							{
								"astId": 26,
								"contract": "Contracts/AKEB.sol:AKEB",
								"label": "disputeAddress",
								"offset": 0,
								"slot": "1",
								"type": "t_address"
							},
							{
								"astId": 28,
								"contract": "Contracts/AKEB.sol:AKEB",
								"label": "nonce",
								"offset": 0,
								"slot": "2",
								"type": "t_string_storage"
							}
						],
						"numberOfBytes": "96"
					},
					"t_uint256": {
						"encoding": "inplace",
						"label": "uint256",
						"numberOfBytes": "32"
					}
				}
			},
			"userdoc": {
				"kind": "user",
				"methods": {},
				"version": 1
			}
		}
	}
}