{
	"Contracts/AKEB.sol": {
		"AKEB": {
			"abi": [
				{
					"inputs": [],
					"name": "assetDescription",
					"outputs": [
						{
							"internalType": "string",
							"name": "",
							"type": "string"
						}
					],
					"stateMutability": "view",
					"type": "function"
				},
				{
					"inputs": [],
					"name": "assetName",
					"outputs": [
						{
							"internalType": "string",
							"name": "",
							"type": "string"
						}
					],
					"stateMutability": "view",
					"type": "function"
				},
				{
					"inputs": [
						{
							"internalType": "uint256",
							"name": "",
							"type": "uint256"
						}
					],
					"name": "bidders",
					"outputs": [
						{
							"internalType": "address",
							"name": "",
							"type": "address"
						}
					],
					"stateMutability": "view",
					"type": "function"
				},
				{
					"inputs": [
						{
							"internalType": "uint256",
							"name": "inputDisputedBid",
							"type": "uint256"
						},
						{
							"internalType": "string",
							"name": "inputDisputedNonce",
							"type": "string"
						}
					],
					"name": "dispute",
					"outputs": [],
					"stateMutability": "nonpayable",
					"type": "function"
				},
				{
					"inputs": [
						{
							"internalType": "uint256",
							"name": "",
							"type": "uint256"
						}
					],
					"name": "disputedBidders",
					"outputs": [
						{
							"internalType": "uint256",
							"name": "bid",
							"type": "uint256"
						},
						{
							"internalType": "address",
							"name": "disputeAddress",
							"type": "address"
						},
						{
							"internalType": "string",
							"name": "nonce",
							"type": "string"
						}
					],
					"stateMutability": "view",
					"type": "function"
				},
				{
					"inputs": [
						{
							"internalType": "address",
							"name": "",
							"type": "address"
						}
					],
					"name": "encodedBids",
					"outputs": [
						{
							"internalType": "string",
							"name": "",
							"type": "string"
						}
					],
					"stateMutability": "view",
					"type": "function"
				},
				{
					"inputs": [],
					"name": "getAllBidders",
					"outputs": [
						{
							"internalType": "address[]",
							"name": "",
							"type": "address[]"
						}
					],
					"stateMutability": "view",
					"type": "function"
				},
				{
					"inputs": [],
					"name": "getAllDisputers",
					"outputs": [
						{
							"components": [
								{
									"internalType": "uint256",
									"name": "bid",
									"type": "uint256"
								},
								{
									"internalType": "address",
									"name": "disputeAddress",
									"type": "address"
								},
								{
									"internalType": "string",
									"name": "nonce",
									"type": "string"
								}
							],
							"internalType": "struct AKEB.DisputedBidders[]",
							"name": "",
							"type": "tuple[]"
						}
					],
					"stateMutability": "view",
					"type": "function"
				},
				{
					"inputs": [],
					"name": "getAllWinners",
					"outputs": [
						{
							"components": [
								{
									"internalType": "address",
									"name": "winnerAddress",
									"type": "address"
								},
								{
									"internalType": "uint256",
									"name": "bid",
									"type": "uint256"
								},
								{
									"internalType": "string",
									"name": "nonce",
									"type": "string"
								}
							],
							"internalType": "struct AKEB.winner[]",
							"name": "",
							"type": "tuple[]"
						}
					],
					"stateMutability": "view",
					"type": "function"
				},
				{
					"inputs": [
						{
							"internalType": "uint256",
							"name": "index",
							"type": "uint256"
						}
					],
					"name": "getBidderAddress",
					"outputs": [
						{
							"internalType": "address",
							"name": "",
							"type": "address"
						}
					],
					"stateMutability": "view",
					"type": "function"
				},
				{
					"inputs": [
						{
							"internalType": "address",
							"name": "inputAddress",
							"type": "address"
						}
					],
					"name": "getEncodedBid",
					"outputs": [
						{
							"internalType": "string",
							"name": "",
							"type": "string"
						}
					],
					"stateMutability": "view",
					"type": "function"
				},
				{
					"inputs": [],
					"name": "getSampleString",
					"outputs": [
						{
							"internalType": "string",
							"name": "",
							"type": "string"
						}
					],
					"stateMutability": "pure",
					"type": "function"
				},
				{
					"inputs": [
						{
							"internalType": "string",
							"name": "assetNameInput",
							"type": "string"
						},
						{
							"internalType": "string",
							"name": "assetDescriptionInput",
							"type": "string"
						}
					],
					"name": "registerAuctionInfo",
					"outputs": [],
					"stateMutability": "nonpayable",
					"type": "function"
				},
				{
					"inputs": [],
					"name": "registerBidder",
					"outputs": [],
					"stateMutability": "nonpayable",
					"type": "function"
				},
				{
					"inputs": [],
					"name": "reset",
					"outputs": [],
					"stateMutability": "nonpayable",
					"type": "function"
				},
				{
					"inputs": [],
					"name": "resetEncodedBids",
					"outputs": [],
					"stateMutability": "nonpayable",
					"type": "function"
				},
				{
					"inputs": [
						{
							"internalType": "string",
							"name": "inputEncodedBid",
							"type": "string"
						}
					],
					"name": "submitEncodedBid",
					"outputs": [],
					"stateMutability": "nonpayable",
					"type": "function"
				},
				{
					"inputs": [
						{
							"internalType": "uint256",
							"name": "inputWinnerBid",
							"type": "uint256"
						},
						{
							"internalType": "string",
							"name": "inputwinnerNonce",
							"type": "string"
						}
					],
					"name": "submitWinner",
					"outputs": [],
					"stateMutability": "nonpayable",
					"type": "function"
				},
				{
					"inputs": [
						{
							"internalType": "uint256",
							"name": "",
							"type": "uint256"
						}
					],
					"name": "winners",
					"outputs": [
						{
							"internalType": "address",
							"name": "winnerAddress",
							"type": "address"
						},
						{
							"internalType": "uint256",
							"name": "bid",
							"type": "uint256"
						},
						{
							"internalType": "string",
							"name": "nonce",
							"type": "string"
						}
					],
					"stateMutability": "view",
					"type": "function"
				}
			],
			"devdoc": {
				"kind": "dev",
				"methods": {},
				"version": 1
			},
			"evm": {
				"assembly": "    /* \"Contracts/AKEB.sol\":58:2863  contract AKEB {... */\n  mstore(0x40, 0x80)\n  callvalue\n  dup1\n  iszero\n  tag_1\n  jumpi\n  0x00\n  dup1\n  revert\ntag_1:\n  pop\n  dataSize(sub_0)\n  dup1\n  dataOffset(sub_0)\n  0x00\n  codecopy\n  0x00\n  return\nstop\n\nsub_0: assembly {\n        /* \"Contracts/AKEB.sol\":58:2863  contract AKEB {... */\n      mstore(0x40, 0x80)\n      callvalue\n      dup1\n      iszero\n      tag_1\n      jumpi\n      0x00\n      dup1\n      revert\n    tag_1:\n      pop\n      jumpi(tag_2, lt(calldatasize, 0x04))\n      shr(0xe0, calldataload(0x00))\n      dup1\n      0x8f772f96\n      gt\n      tag_22\n      jumpi\n      dup1\n      0xca142b56\n      gt\n      tag_23\n      jumpi\n      dup1\n      0xca142b56\n      eq\n      tag_17\n      jumpi\n      dup1\n      0xcff29dfd\n      eq\n      tag_18\n      jumpi\n      dup1\n      0xd826f88f\n      eq\n      tag_19\n      jumpi\n      dup1\n      0xdc6b8627\n      eq\n      tag_20\n      jumpi\n      dup1\n      0xf356733c\n      eq\n      tag_21\n      jumpi\n      jump(tag_2)\n    tag_23:\n      dup1\n      0x8f772f96\n      eq\n      tag_12\n      jumpi\n      dup1\n      0x938626c2\n      eq\n      tag_13\n      jumpi\n      dup1\n      0xa2ebc656\n      eq\n      tag_14\n      jumpi\n      dup1\n      0xa2fb1175\n      eq\n      tag_15\n      jumpi\n      dup1\n      0xc9230c5d\n      eq\n      tag_16\n      jumpi\n      jump(tag_2)\n    tag_22:\n      dup1\n      0x3a79d2e5\n      gt\n      tag_24\n      jumpi\n      dup1\n      0x3a79d2e5\n      eq\n      tag_7\n      jumpi\n      dup1\n      0x40bd5937\n      eq\n      tag_8\n      jumpi\n      dup1\n      0x5fa38280\n      eq\n      tag_9\n      jumpi\n      dup1\n      0x66c85dee\n      eq\n      tag_10\n      jumpi\n      dup1\n      0x83050daa\n      eq\n      tag_11\n      jumpi\n      jump(tag_2)\n    tag_24:\n      dup1\n      0x05fb23cf\n      eq\n      tag_3\n      jumpi\n      dup1\n      0x1744e03b\n      eq\n      tag_4\n      jumpi\n      dup1\n      0x35abd160\n      eq\n      tag_5\n      jumpi\n      dup1\n      0x3817df4c\n      eq\n      tag_6\n      jumpi\n    tag_2:\n      0x00\n      dup1\n      revert\n        /* \"Contracts/AKEB.sol\":1696:1824  function getEncodedBid(address inputAddress) public view returns(string memory){... */\n    tag_3:\n      tag_25\n      0x04\n      dup1\n      calldatasize\n      sub\n      dup2\n      add\n      swap1\n      tag_26\n      swap2\n      swap1\n      tag_27\n      jump\t// in\n    tag_26:\n      tag_28\n      jump\t// in\n    tag_25:\n      mload(0x40)\n      tag_29\n      swap2\n      swap1\n      tag_30\n      jump\t// in\n    tag_29:\n      mload(0x40)\n      dup1\n      swap2\n      sub\n      swap1\n      return\n        /* \"Contracts/AKEB.sol\":1830:2038  function submitWinner(uint256 inputWinnerBid, ... */\n    tag_4:\n      tag_31\n      0x04\n      dup1\n      calldatasize\n      sub\n      dup2\n      add\n      swap1\n      tag_32\n      swap2\n      swap1\n      tag_33\n      jump\t// in\n    tag_32:\n      tag_34\n      jump\t// in\n    tag_31:\n      stop\n        /* \"Contracts/AKEB.sol\":1447:1558  function getAllDisputers() public view returns(DisputedBidders[] memory){... */\n    tag_5:\n      tag_35\n      tag_36\n      jump\t// in\n    tag_35:\n      mload(0x40)\n      tag_37\n      swap2\n      swap1\n      tag_38\n      jump\t// in\n    tag_37:\n      mload(0x40)\n      dup1\n      swap2\n      sub\n      swap1\n      return\n        /* \"Contracts/AKEB.sol\":195:240  mapping(address => string) public encodedBids */\n    tag_6:\n      tag_39\n      0x04\n      dup1\n      calldatasize\n      sub\n      dup2\n      add\n      swap1\n      tag_40\n      swap2\n      swap1\n      tag_27\n      jump\t// in\n    tag_40:\n      tag_41\n      jump\t// in\n    tag_39:\n      mload(0x40)\n      tag_42\n      swap2\n      swap1\n      tag_30\n      jump\t// in\n    tag_42:\n      mload(0x40)\n      dup1\n      swap2\n      sub\n      swap1\n      return\n        /* \"Contracts/AKEB.sol\":1347:1441  function getAllBidders() public view returns(address[] memory) {... */\n    tag_7:\n      tag_43\n      tag_44\n      jump\t// in\n    tag_43:\n      mload(0x40)\n      tag_45\n      swap2\n      swap1\n      tag_46\n      jump\t// in\n    tag_45:\n      mload(0x40)\n      dup1\n      swap2\n      sub\n      swap1\n      return\n        /* \"Contracts/AKEB.sol\":2657:2861  function resetEncodedBids() public {... */\n    tag_8:\n      tag_47\n      tag_48\n      jump\t// in\n    tag_47:\n      stop\n        /* \"Contracts/AKEB.sol\":1236:1341  function getBidderAddress(uint index) public view returns(address) {... */\n    tag_9:\n      tag_49\n      0x04\n      dup1\n      calldatasize\n      sub\n      dup2\n      add\n      swap1\n      tag_50\n      swap2\n      swap1\n      tag_51\n      jump\t// in\n    tag_50:\n      tag_52\n      jump\t// in\n    tag_49:\n      mload(0x40)\n      tag_53\n      swap2\n      swap1\n      tag_54\n      jump\t// in\n    tag_53:\n      mload(0x40)\n      dup1\n      swap2\n      sub\n      swap1\n      return\n        /* \"Contracts/AKEB.sol\":2143:2447  function dispute(uint256 inputDisputedBid, ... */\n    tag_10:\n      tag_55\n      0x04\n      dup1\n      calldatasize\n      sub\n      dup2\n      add\n      swap1\n      tag_56\n      swap2\n      swap1\n      tag_33\n      jump\t// in\n    tag_56:\n      tag_57\n      jump\t// in\n    tag_55:\n      stop\n        /* \"Contracts/AKEB.sol\":801:911  function getSampleString() public pure returns(string memory){... */\n    tag_11:\n      tag_58\n      tag_59\n      jump\t// in\n    tag_58:\n      mload(0x40)\n      tag_60\n      swap2\n      swap1\n      tag_30\n      jump\t// in\n    tag_60:\n      mload(0x40)\n      dup1\n      swap2\n      sub\n      swap1\n      return\n        /* \"Contracts/AKEB.sol\":489:529  DisputedBidders[] public disputedBidders */\n    tag_12:\n      tag_61\n      0x04\n      dup1\n      calldatasize\n      sub\n      dup2\n      add\n      swap1\n      tag_62\n      swap2\n      swap1\n      tag_51\n      jump\t// in\n    tag_62:\n      tag_63\n      jump\t// in\n    tag_61:\n      mload(0x40)\n      tag_64\n      swap4\n      swap3\n      swap2\n      swap1\n      tag_65\n      jump\t// in\n    tag_64:\n      mload(0x40)\n      dup1\n      swap2\n      sub\n      swap1\n      return\n        /* \"Contracts/AKEB.sol\":98:128  string public assetDescription */\n    tag_13:\n      tag_66\n      tag_67\n      jump\t// in\n    tag_66:\n      mload(0x40)\n      tag_68\n      swap2\n      swap1\n      tag_30\n      jump\t// in\n    tag_68:\n      mload(0x40)\n      dup1\n      swap2\n      sub\n      swap1\n      return\n        /* \"Contracts/AKEB.sol\":917:1150  function registerAuctionInfo(string memory assetNameInput, ... */\n    tag_14:\n      tag_69\n      0x04\n      dup1\n      calldatasize\n      sub\n      dup2\n      add\n      swap1\n      tag_70\n      swap2\n      swap1\n      tag_71\n      jump\t// in\n    tag_70:\n      tag_72\n      jump\t// in\n    tag_69:\n      stop\n        /* \"Contracts/AKEB.sol\":348:371  winner[] public winners */\n    tag_15:\n      tag_73\n      0x04\n      dup1\n      calldatasize\n      sub\n      dup2\n      add\n      swap1\n      tag_74\n      swap2\n      swap1\n      tag_51\n      jump\t// in\n    tag_74:\n      tag_75\n      jump\t// in\n    tag_73:\n      mload(0x40)\n      tag_76\n      swap4\n      swap3\n      swap2\n      swap1\n      tag_77\n      jump\t// in\n    tag_76:\n      mload(0x40)\n      dup1\n      swap2\n      sub\n      swap1\n      return\n        /* \"Contracts/AKEB.sol\":134:157  string public assetName */\n    tag_16:\n      tag_78\n      tag_79\n      jump\t// in\n    tag_78:\n      mload(0x40)\n      tag_80\n      swap2\n      swap1\n      tag_30\n      jump\t// in\n    tag_80:\n      mload(0x40)\n      dup1\n      swap2\n      sub\n      swap1\n      return\n        /* \"Contracts/AKEB.sol\":1564:1690  function submitEncodedBid(string memory inputEncodedBid)... */\n    tag_17:\n      tag_81\n      0x04\n      dup1\n      calldatasize\n      sub\n      dup2\n      add\n      swap1\n      tag_82\n      swap2\n      swap1\n      tag_83\n      jump\t// in\n    tag_82:\n      tag_84\n      jump\t// in\n    tag_81:\n      stop\n        /* \"Contracts/AKEB.sol\":164:188  address[] public bidders */\n    tag_18:\n      tag_85\n      0x04\n      dup1\n      calldatasize\n      sub\n      dup2\n      add\n      swap1\n      tag_86\n      swap2\n      swap1\n      tag_51\n      jump\t// in\n    tag_86:\n      tag_87\n      jump\t// in\n    tag_85:\n      mload(0x40)\n      tag_88\n      swap2\n      swap1\n      tag_54\n      jump\t// in\n    tag_88:\n      mload(0x40)\n      dup1\n      swap2\n      sub\n      swap1\n      return\n        /* \"Contracts/AKEB.sol\":2453:2651  function reset() public {... */\n    tag_19:\n      tag_89\n      tag_90\n      jump\t// in\n    tag_89:\n      stop\n        /* \"Contracts/AKEB.sol\":2044:2137  function getAllWinners() public view returns(winner[] memory) {... */\n    tag_20:\n      tag_91\n      tag_92\n      jump\t// in\n    tag_91:\n      mload(0x40)\n      tag_93\n      swap2\n      swap1\n      tag_94\n      jump\t// in\n    tag_93:\n      mload(0x40)\n      dup1\n      swap2\n      sub\n      swap1\n      return\n        /* \"Contracts/AKEB.sol\":1156:1230  function registerBidder() public {... */\n    tag_21:\n      tag_95\n      tag_96\n      jump\t// in\n    tag_95:\n      stop\n        /* \"Contracts/AKEB.sol\":1696:1824  function getEncodedBid(address inputAddress) public view returns(string memory){... */\n    tag_28:\n        /* \"Contracts/AKEB.sol\":1761:1774  string memory */\n      0x60\n        /* \"Contracts/AKEB.sol\":1792:1803  encodedBids */\n      0x04\n        /* \"Contracts/AKEB.sol\":1792:1817  encodedBids[inputAddress] */\n      0x00\n        /* \"Contracts/AKEB.sol\":1804:1816  inputAddress */\n      dup4\n        /* \"Contracts/AKEB.sol\":1792:1817  encodedBids[inputAddress] */\n      0xffffffffffffffffffffffffffffffffffffffff\n      and\n      0xffffffffffffffffffffffffffffffffffffffff\n      and\n      dup2\n      mstore\n      0x20\n      add\n      swap1\n      dup2\n      mstore\n      0x20\n      add\n      0x00\n      keccak256\n        /* \"Contracts/AKEB.sol\":1785:1817  return encodedBids[inputAddress] */\n      dup1\n      sload\n      tag_98\n      swap1\n      tag_99\n      jump\t// in\n    tag_98:\n      dup1\n      0x1f\n      add\n      0x20\n      dup1\n      swap2\n      div\n      mul\n      0x20\n      add\n      mload(0x40)\n      swap1\n      dup2\n      add\n      0x40\n      mstore\n      dup1\n      swap3\n      swap2\n      swap1\n      dup2\n      dup2\n      mstore\n      0x20\n      add\n      dup3\n      dup1\n      sload\n      tag_100\n      swap1\n      tag_99\n      jump\t// in\n    tag_100:\n      dup1\n      iszero\n      tag_101\n      jumpi\n      dup1\n      0x1f\n      lt\n      tag_102\n      jumpi\n      0x0100\n      dup1\n      dup4\n      sload\n      div\n      mul\n      dup4\n      mstore\n      swap2\n      0x20\n      add\n      swap2\n      jump(tag_101)\n    tag_102:\n      dup3\n      add\n      swap2\n      swap1\n      0x00\n      mstore\n      keccak256(0x00, 0x20)\n      swap1\n    tag_103:\n      dup2\n      sload\n      dup2\n      mstore\n      swap1\n      0x01\n      add\n      swap1\n      0x20\n      add\n      dup1\n      dup4\n      gt\n      tag_103\n      jumpi\n      dup3\n      swap1\n      sub\n      0x1f\n      and\n      dup3\n      add\n      swap2\n    tag_101:\n      pop\n      pop\n      pop\n      pop\n      pop\n      swap1\n      pop\n        /* \"Contracts/AKEB.sol\":1696:1824  function getEncodedBid(address inputAddress) public view returns(string memory){... */\n      swap2\n      swap1\n      pop\n      jump\t// out\n        /* \"Contracts/AKEB.sol\":1830:2038  function submitWinner(uint256 inputWinnerBid, ... */\n    tag_34:\n        /* \"Contracts/AKEB.sol\":1929:1947  winner memory temp */\n      0x00\n        /* \"Contracts/AKEB.sol\":1950:2002  winner(msg.sender, inputWinnerBid, inputwinnerNonce) */\n      mload(0x40)\n      dup1\n      0x60\n      add\n      0x40\n      mstore\n      dup1\n        /* \"Contracts/AKEB.sol\":1957:1967  msg.sender */\n      caller\n        /* \"Contracts/AKEB.sol\":1950:2002  winner(msg.sender, inputWinnerBid, inputwinnerNonce) */\n      0xffffffffffffffffffffffffffffffffffffffff\n      and\n      dup2\n      mstore\n      0x20\n      add\n        /* \"Contracts/AKEB.sol\":1969:1983  inputWinnerBid */\n      dup5\n        /* \"Contracts/AKEB.sol\":1950:2002  winner(msg.sender, inputWinnerBid, inputwinnerNonce) */\n      dup2\n      mstore\n      0x20\n      add\n        /* \"Contracts/AKEB.sol\":1985:2001  inputwinnerNonce */\n      dup4\n        /* \"Contracts/AKEB.sol\":1950:2002  winner(msg.sender, inputWinnerBid, inputwinnerNonce) */\n      dup2\n      mstore\n      pop\n        /* \"Contracts/AKEB.sol\":1929:2002  winner memory temp = winner(msg.sender, inputWinnerBid, inputwinnerNonce) */\n      swap1\n      pop\n        /* \"Contracts/AKEB.sol\":2013:2020  winners */\n      0x05\n        /* \"Contracts/AKEB.sol\":2026:2030  temp */\n      dup2\n        /* \"Contracts/AKEB.sol\":2013:2031  winners.push(temp) */\n      swap1\n      dup1\n      0x01\n      dup2\n      sload\n      add\n      dup1\n      dup3\n      sstore\n      dup1\n      swap2\n      pop\n      pop\n      0x01\n      swap1\n      sub\n      swap1\n      0x00\n      mstore\n      keccak256(0x00, 0x20)\n      swap1\n      0x03\n      mul\n      add\n      0x00\n      swap1\n      swap2\n      swap1\n      swap2\n      swap1\n      swap2\n      pop\n      0x00\n      dup3\n      add\n      mload\n      dup2\n      0x00\n      add\n      exp(0x0100, 0x00)\n      dup2\n      sload\n      dup2\n      0xffffffffffffffffffffffffffffffffffffffff\n      mul\n      not\n      and\n      swap1\n      dup4\n      0xffffffffffffffffffffffffffffffffffffffff\n      and\n      mul\n      or\n      swap1\n      sstore\n      pop\n      0x20\n      dup3\n      add\n      mload\n      dup2\n      0x01\n      add\n      sstore\n      0x40\n      dup3\n      add\n      mload\n      dup2\n      0x02\n      add\n      swap1\n      dup1\n      mload\n      swap1\n      0x20\n      add\n      swap1\n      tag_106\n      swap3\n      swap2\n      swap1\n      tag_107\n      jump\t// in\n    tag_106:\n      pop\n      pop\n      pop\n        /* \"Contracts/AKEB.sol\":1919:2038  {... */\n      pop\n        /* \"Contracts/AKEB.sol\":1830:2038  function submitWinner(uint256 inputWinnerBid, ... */\n      pop\n      pop\n      jump\t// out\n        /* \"Contracts/AKEB.sol\":1447:1558  function getAllDisputers() public view returns(DisputedBidders[] memory){... */\n    tag_36:\n        /* \"Contracts/AKEB.sol\":1494:1518  DisputedBidders[] memory */\n      0x60\n        /* \"Contracts/AKEB.sol\":1536:1551  disputedBidders */\n      0x06\n        /* \"Contracts/AKEB.sol\":1529:1551  return disputedBidders */\n      dup1\n      sload\n      dup1\n      0x20\n      mul\n      0x20\n      add\n      mload(0x40)\n      swap1\n      dup2\n      add\n      0x40\n      mstore\n      dup1\n      swap3\n      swap2\n      swap1\n      dup2\n      dup2\n      mstore\n      0x20\n      add\n      0x00\n      swap1\n    tag_109:\n      dup3\n      dup3\n      lt\n      iszero\n      tag_110\n      jumpi\n      dup4\n      dup3\n      swap1\n      0x00\n      mstore\n      keccak256(0x00, 0x20)\n      swap1\n      0x03\n      mul\n      add\n      mload(0x40)\n      dup1\n      0x60\n      add\n      0x40\n      mstore\n      swap1\n      dup2\n      0x00\n      dup3\n      add\n      sload\n      dup2\n      mstore\n      0x20\n      add\n      0x01\n      dup3\n      add\n      0x00\n      swap1\n      sload\n      swap1\n      0x0100\n      exp\n      swap1\n      div\n      0xffffffffffffffffffffffffffffffffffffffff\n      and\n      0xffffffffffffffffffffffffffffffffffffffff\n      and\n      0xffffffffffffffffffffffffffffffffffffffff\n      and\n      dup2\n      mstore\n      0x20\n      add\n      0x02\n      dup3\n      add\n      dup1\n      sload\n      tag_112\n      swap1\n      tag_99\n      jump\t// in\n    tag_112:\n      dup1\n      0x1f\n      add\n      0x20\n      dup1\n      swap2\n      div\n      mul\n      0x20\n      add\n      mload(0x40)\n      swap1\n      dup2\n      add\n      0x40\n      mstore\n      dup1\n      swap3\n      swap2\n      swap1\n      dup2\n      dup2\n      mstore\n      0x20\n      add\n      dup3\n      dup1\n      sload\n      tag_113\n      swap1\n      tag_99\n      jump\t// in\n    tag_113:\n      dup1\n      iszero\n      tag_114\n      jumpi\n      dup1\n      0x1f\n      lt\n      tag_115\n      jumpi\n      0x0100\n      dup1\n      dup4\n      sload\n      div\n      mul\n      dup4\n      mstore\n      swap2\n      0x20\n      add\n      swap2\n      jump(tag_114)\n    tag_115:\n      dup3\n      add\n      swap2\n      swap1\n      0x00\n      mstore\n      keccak256(0x00, 0x20)\n      swap1\n    tag_116:\n      dup2\n      sload\n      dup2\n      mstore\n      swap1\n      0x01\n      add\n      swap1\n      0x20\n      add\n      dup1\n      dup4\n      gt\n      tag_116\n      jumpi\n      dup3\n      swap1\n      sub\n      0x1f\n      and\n      dup3\n      add\n      swap2\n    tag_114:\n      pop\n      pop\n      pop\n      pop\n      pop\n      dup2\n      mstore\n      pop\n      pop\n      dup2\n      mstore\n      0x20\n      add\n      swap1\n      0x01\n      add\n      swap1\n      jump(tag_109)\n    tag_110:\n      pop\n      pop\n      pop\n      pop\n      swap1\n      pop\n        /* \"Contracts/AKEB.sol\":1447:1558  function getAllDisputers() public view returns(DisputedBidders[] memory){... */\n      swap1\n      jump\t// out\n        /* \"Contracts/AKEB.sol\":195:240  mapping(address => string) public encodedBids */\n    tag_41:\n      mstore(0x20, 0x04)\n      dup1\n      0x00\n      mstore\n      keccak256(0x00, 0x40)\n      0x00\n      swap2\n      pop\n      swap1\n      pop\n      dup1\n      sload\n      tag_117\n      swap1\n      tag_99\n      jump\t// in\n    tag_117:\n      dup1\n      0x1f\n      add\n      0x20\n      dup1\n      swap2\n      div\n      mul\n      0x20\n      add\n      mload(0x40)\n      swap1\n      dup2\n      add\n      0x40\n      mstore\n      dup1\n      swap3\n      swap2\n      swap1\n      dup2\n      dup2\n      mstore\n      0x20\n      add\n      dup3\n      dup1\n      sload\n      tag_118\n      swap1\n      tag_99\n      jump\t// in\n    tag_118:\n      dup1\n      iszero\n      tag_119\n      jumpi\n      dup1\n      0x1f\n      lt\n      tag_120\n      jumpi\n      0x0100\n      dup1\n      dup4\n      sload\n      div\n      mul\n      dup4\n      mstore\n      swap2\n      0x20\n      add\n      swap2\n      jump(tag_119)\n    tag_120:\n      dup3\n      add\n      swap2\n      swap1\n      0x00\n      mstore\n      keccak256(0x00, 0x20)\n      swap1\n    tag_121:\n      dup2\n      sload\n      dup2\n      mstore\n      swap1\n      0x01\n      add\n      swap1\n      0x20\n      add\n      dup1\n      dup4\n      gt\n      tag_121\n      jumpi\n      dup3\n      swap1\n      sub\n      0x1f\n      and\n      dup3\n      add\n      swap2\n    tag_119:\n      pop\n      pop\n      pop\n      pop\n      pop\n      dup2\n      jump\t// out\n        /* \"Contracts/AKEB.sol\":1347:1441  function getAllBidders() public view returns(address[] memory) {... */\n    tag_44:\n        /* \"Contracts/AKEB.sol\":1392:1408  address[] memory */\n      0x60\n        /* \"Contracts/AKEB.sol\":1427:1434  bidders */\n      0x03\n        /* \"Contracts/AKEB.sol\":1420:1434  return bidders */\n      dup1\n      sload\n      dup1\n      0x20\n      mul\n      0x20\n      add\n      mload(0x40)\n      swap1\n      dup2\n      add\n      0x40\n      mstore\n      dup1\n      swap3\n      swap2\n      swap1\n      dup2\n      dup2\n      mstore\n      0x20\n      add\n      dup3\n      dup1\n      sload\n      dup1\n      iszero\n      tag_123\n      jumpi\n      0x20\n      mul\n      dup3\n      add\n      swap2\n      swap1\n      0x00\n      mstore\n      keccak256(0x00, 0x20)\n      swap1\n    tag_124:\n      dup2\n      0x00\n      swap1\n      sload\n      swap1\n      0x0100\n      exp\n      swap1\n      div\n      0xffffffffffffffffffffffffffffffffffffffff\n      and\n      0xffffffffffffffffffffffffffffffffffffffff\n      and\n      dup2\n      mstore\n      0x20\n      add\n      swap1\n      0x01\n      add\n      swap1\n      dup1\n      dup4\n      gt\n      tag_124\n      jumpi\n    tag_123:\n      pop\n      pop\n      pop\n      pop\n      pop\n      swap1\n      pop\n        /* \"Contracts/AKEB.sol\":1347:1441  function getAllBidders() public view returns(address[] memory) {... */\n      swap1\n      jump\t// out\n        /* \"Contracts/AKEB.sol\":2657:2861  function resetEncodedBids() public {... */\n    tag_48:\n        /* \"Contracts/AKEB.sol\":2707:2716  uint256 i */\n      0x00\n        /* \"Contracts/AKEB.sol\":2702:2855  for (uint256 i = 0 ; i < bidders.length; i +=1){... */\n    tag_126:\n        /* \"Contracts/AKEB.sol\":2727:2734  bidders */\n      0x03\n        /* \"Contracts/AKEB.sol\":2727:2741  bidders.length */\n      dup1\n      sload\n      swap1\n      pop\n        /* \"Contracts/AKEB.sol\":2723:2724  i */\n      dup2\n        /* \"Contracts/AKEB.sol\":2723:2741  i < bidders.length */\n      lt\n        /* \"Contracts/AKEB.sol\":2702:2855  for (uint256 i = 0 ; i < bidders.length; i +=1){... */\n      iszero\n      tag_127\n      jumpi\n        /* \"Contracts/AKEB.sol\":2763:2784  address bidderAddress */\n      0x00\n        /* \"Contracts/AKEB.sol\":2787:2794  bidders */\n      0x03\n        /* \"Contracts/AKEB.sol\":2795:2796  i */\n      dup3\n        /* \"Contracts/AKEB.sol\":2787:2797  bidders[i] */\n      dup2\n      sload\n      dup2\n      lt\n      tag_129\n      jumpi\n      tag_130\n      tag_131\n      jump\t// in\n    tag_130:\n    tag_129:\n      swap1\n      0x00\n      mstore\n      keccak256(0x00, 0x20)\n      add\n      0x00\n      swap1\n      sload\n      swap1\n      0x0100\n      exp\n      swap1\n      div\n      0xffffffffffffffffffffffffffffffffffffffff\n      and\n        /* \"Contracts/AKEB.sol\":2763:2797  address bidderAddress = bidders[i] */\n      swap1\n      pop\n        /* \"Contracts/AKEB.sol\":2818:2829  encodedBids */\n      0x04\n        /* \"Contracts/AKEB.sol\":2818:2844  encodedBids[bidderAddress] */\n      0x00\n        /* \"Contracts/AKEB.sol\":2830:2843  bidderAddress */\n      dup3\n        /* \"Contracts/AKEB.sol\":2818:2844  encodedBids[bidderAddress] */\n      0xffffffffffffffffffffffffffffffffffffffff\n      and\n      0xffffffffffffffffffffffffffffffffffffffff\n      and\n      dup2\n      mstore\n      0x20\n      add\n      swap1\n      dup2\n      mstore\n      0x20\n      add\n      0x00\n      keccak256\n      0x00\n        /* \"Contracts/AKEB.sol\":2811:2844  delete encodedBids[bidderAddress] */\n      tag_133\n      swap2\n      swap1\n      tag_134\n      jump\t// in\n    tag_133:\n        /* \"Contracts/AKEB.sol\":2749:2855  {... */\n      pop\n        /* \"Contracts/AKEB.sol\":2747:2748  1 */\n      0x01\n        /* \"Contracts/AKEB.sol\":2743:2748  i +=1 */\n      dup2\n      tag_135\n      swap2\n      swap1\n      tag_136\n      jump\t// in\n    tag_135:\n      swap1\n      pop\n        /* \"Contracts/AKEB.sol\":2702:2855  for (uint256 i = 0 ; i < bidders.length; i +=1){... */\n      jump(tag_126)\n    tag_127:\n      pop\n        /* \"Contracts/AKEB.sol\":2657:2861  function resetEncodedBids() public {... */\n      jump\t// out\n        /* \"Contracts/AKEB.sol\":1236:1341  function getBidderAddress(uint index) public view returns(address) {... */\n    tag_52:\n        /* \"Contracts/AKEB.sol\":1294:1301  address */\n      0x00\n        /* \"Contracts/AKEB.sol\":1320:1327  bidders */\n      0x03\n        /* \"Contracts/AKEB.sol\":1328:1333  index */\n      dup3\n        /* \"Contracts/AKEB.sol\":1320:1334  bidders[index] */\n      dup2\n      sload\n      dup2\n      lt\n      tag_138\n      jumpi\n      tag_139\n      tag_131\n      jump\t// in\n    tag_139:\n    tag_138:\n      swap1\n      0x00\n      mstore\n      keccak256(0x00, 0x20)\n      add\n      0x00\n      swap1\n      sload\n      swap1\n      0x0100\n      exp\n      swap1\n      div\n      0xffffffffffffffffffffffffffffffffffffffff\n      and\n        /* \"Contracts/AKEB.sol\":1313:1334  return bidders[index] */\n      swap1\n      pop\n        /* \"Contracts/AKEB.sol\":1236:1341  function getBidderAddress(uint index) public view returns(address) {... */\n      swap2\n      swap1\n      pop\n      jump\t// out\n        /* \"Contracts/AKEB.sol\":2143:2447  function dispute(uint256 inputDisputedBid, ... */\n    tag_57:\n        /* \"Contracts/AKEB.sol\":2242:2279  DisputedBidders memory disputedBidder */\n      0x00\n        /* \"Contracts/AKEB.sol\":2282:2393  DisputedBidders(... */\n      mload(0x40)\n      dup1\n      0x60\n      add\n      0x40\n      mstore\n      dup1\n        /* \"Contracts/AKEB.sol\":2311:2327  inputDisputedBid */\n      dup5\n        /* \"Contracts/AKEB.sol\":2282:2393  DisputedBidders(... */\n      dup2\n      mstore\n      0x20\n      add\n        /* \"Contracts/AKEB.sol\":2341:2351  msg.sender */\n      caller\n        /* \"Contracts/AKEB.sol\":2282:2393  DisputedBidders(... */\n      0xffffffffffffffffffffffffffffffffffffffff\n      and\n      dup2\n      mstore\n      0x20\n      add\n        /* \"Contracts/AKEB.sol\":2365:2383  inputDisputedNonce */\n      dup4\n        /* \"Contracts/AKEB.sol\":2282:2393  DisputedBidders(... */\n      dup2\n      mstore\n      pop\n        /* \"Contracts/AKEB.sol\":2242:2393  DisputedBidders memory disputedBidder = DisputedBidders(... */\n      swap1\n      pop\n        /* \"Contracts/AKEB.sol\":2404:2419  disputedBidders */\n      0x06\n        /* \"Contracts/AKEB.sol\":2425:2439  disputedBidder */\n      dup2\n        /* \"Contracts/AKEB.sol\":2404:2440  disputedBidders.push(disputedBidder) */\n      swap1\n      dup1\n      0x01\n      dup2\n      sload\n      add\n      dup1\n      dup3\n      sstore\n      dup1\n      swap2\n      pop\n      pop\n      0x01\n      swap1\n      sub\n      swap1\n      0x00\n      mstore\n      keccak256(0x00, 0x20)\n      swap1\n      0x03\n      mul\n      add\n      0x00\n      swap1\n      swap2\n      swap1\n      swap2\n      swap1\n      swap2\n      pop\n      0x00\n      dup3\n      add\n      mload\n      dup2\n      0x00\n      add\n      sstore\n      0x20\n      dup3\n      add\n      mload\n      dup2\n      0x01\n      add\n      exp(0x0100, 0x00)\n      dup2\n      sload\n      dup2\n      0xffffffffffffffffffffffffffffffffffffffff\n      mul\n      not\n      and\n      swap1\n      dup4\n      0xffffffffffffffffffffffffffffffffffffffff\n      and\n      mul\n      or\n      swap1\n      sstore\n      pop\n      0x40\n      dup3\n      add\n      mload\n      dup2\n      0x02\n      add\n      swap1\n      dup1\n      mload\n      swap1\n      0x20\n      add\n      swap1\n      tag_143\n      swap3\n      swap2\n      swap1\n      tag_107\n      jump\t// in\n    tag_143:\n      pop\n      pop\n      pop\n        /* \"Contracts/AKEB.sol\":2232:2447  {... */\n      pop\n        /* \"Contracts/AKEB.sol\":2143:2447  function dispute(uint256 inputDisputedBid, ... */\n      pop\n      pop\n      jump\t// out\n        /* \"Contracts/AKEB.sol\":801:911  function getSampleString() public pure returns(string memory){... */\n    tag_59:\n        /* \"Contracts/AKEB.sol\":848:861  string memory */\n      0x60\n        /* \"Contracts/AKEB.sol\":872:904  return \"sample string from AKEB\" */\n      mload(0x40)\n      dup1\n      0x40\n      add\n      0x40\n      mstore\n      dup1\n      0x17\n      dup2\n      mstore\n      0x20\n      add\n      0x73616d706c6520737472696e672066726f6d20414b4542000000000000000000\n      dup2\n      mstore\n      pop\n      swap1\n      pop\n        /* \"Contracts/AKEB.sol\":801:911  function getSampleString() public pure returns(string memory){... */\n      swap1\n      jump\t// out\n        /* \"Contracts/AKEB.sol\":489:529  DisputedBidders[] public disputedBidders */\n    tag_63:\n      0x06\n      dup2\n      dup2\n      sload\n      dup2\n      lt\n      tag_145\n      jumpi\n      0x00\n      dup1\n      revert\n    tag_145:\n      swap1\n      0x00\n      mstore\n      keccak256(0x00, 0x20)\n      swap1\n      0x03\n      mul\n      add\n      0x00\n      swap2\n      pop\n      swap1\n      pop\n      dup1\n      0x00\n      add\n      sload\n      swap1\n      dup1\n      0x01\n      add\n      0x00\n      swap1\n      sload\n      swap1\n      0x0100\n      exp\n      swap1\n      div\n      0xffffffffffffffffffffffffffffffffffffffff\n      and\n      swap1\n      dup1\n      0x02\n      add\n      dup1\n      sload\n      tag_147\n      swap1\n      tag_99\n      jump\t// in\n    tag_147:\n      dup1\n      0x1f\n      add\n      0x20\n      dup1\n      swap2\n      div\n      mul\n      0x20\n      add\n      mload(0x40)\n      swap1\n      dup2\n      add\n      0x40\n      mstore\n      dup1\n      swap3\n      swap2\n      swap1\n      dup2\n      dup2\n      mstore\n      0x20\n      add\n      dup3\n      dup1\n      sload\n      tag_148\n      swap1\n      tag_99\n      jump\t// in\n    tag_148:\n      dup1\n      iszero\n      tag_149\n      jumpi\n      dup1\n      0x1f\n      lt\n      tag_150\n      jumpi\n      0x0100\n      dup1\n      dup4\n      sload\n      div\n      mul\n      dup4\n      mstore\n      swap2\n      0x20\n      add\n      swap2\n      jump(tag_149)\n    tag_150:\n      dup3\n      add\n      swap2\n      swap1\n      0x00\n      mstore\n      keccak256(0x00, 0x20)\n      swap1\n    tag_151:\n      dup2\n      sload\n      dup2\n      mstore\n      swap1\n      0x01\n      add\n      swap1\n      0x20\n      add\n      dup1\n      dup4\n      gt\n      tag_151\n      jumpi\n      dup3\n      swap1\n      sub\n      0x1f\n      and\n      dup3\n      add\n      swap2\n    tag_149:\n      pop\n      pop\n      pop\n      pop\n      pop\n      swap1\n      pop\n      dup4\n      jump\t// out\n        /* \"Contracts/AKEB.sol\":98:128  string public assetDescription */\n    tag_67:\n      0x01\n      dup1\n      sload\n      tag_152\n      swap1\n      tag_99\n      jump\t// in\n    tag_152:\n      dup1\n      0x1f\n      add\n      0x20\n      dup1\n      swap2\n      div\n      mul\n      0x20\n      add\n      mload(0x40)\n      swap1\n      dup2\n      add\n      0x40\n      mstore\n      dup1\n      swap3\n      swap2\n      swap1\n      dup2\n      dup2\n      mstore\n      0x20\n      add\n      dup3\n      dup1\n      sload\n      tag_153\n      swap1\n      tag_99\n      jump\t// in\n    tag_153:\n      dup1\n      iszero\n      tag_154\n      jumpi\n      dup1\n      0x1f\n      lt\n      tag_155\n      jumpi\n      0x0100\n      dup1\n      dup4\n      sload\n      div\n      mul\n      dup4\n      mstore\n      swap2\n      0x20\n      add\n      swap2\n      jump(tag_154)\n    tag_155:\n      dup3\n      add\n      swap2\n      swap1\n      0x00\n      mstore\n      keccak256(0x00, 0x20)\n      swap1\n    tag_156:\n      dup2\n      sload\n      dup2\n      mstore\n      swap1\n      0x01\n      add\n      swap1\n      0x20\n      add\n      dup1\n      dup4\n      gt\n      tag_156\n      jumpi\n      dup3\n      swap1\n      sub\n      0x1f\n      and\n      dup3\n      add\n      swap2\n    tag_154:\n      pop\n      pop\n      pop\n      pop\n      pop\n      dup2\n      jump\t// out\n        /* \"Contracts/AKEB.sol\":917:1150  function registerAuctionInfo(string memory assetNameInput, ... */\n    tag_72:\n        /* \"Contracts/AKEB.sol\":600:606  seller */\n      0x00\n      dup1\n      sload\n      swap1\n      0x0100\n      exp\n      swap1\n      div\n      0xffffffffffffffffffffffffffffffffffffffff\n      and\n        /* \"Contracts/AKEB.sol\":586:606  msg.sender == seller */\n      0xffffffffffffffffffffffffffffffffffffffff\n      and\n        /* \"Contracts/AKEB.sol\":586:596  msg.sender */\n      caller\n        /* \"Contracts/AKEB.sol\":586:606  msg.sender == seller */\n      0xffffffffffffffffffffffffffffffffffffffff\n      and\n      eq\n        /* \"Contracts/AKEB.sol\":578:650  require(msg.sender == seller, \"Only auctioneer can call this function.\") */\n      tag_158\n      jumpi\n      mload(0x40)\n      0x08c379a000000000000000000000000000000000000000000000000000000000\n      dup2\n      mstore\n      0x04\n      add\n      tag_159\n      swap1\n      tag_160\n      jump\t// in\n    tag_159:\n      mload(0x40)\n      dup1\n      swap2\n      sub\n      swap1\n      revert\n    tag_158:\n        /* \"Contracts/AKEB.sol\":1079:1093  assetNameInput */\n      dup2\n        /* \"Contracts/AKEB.sol\":1067:1076  assetName */\n      0x02\n        /* \"Contracts/AKEB.sol\":1067:1093  assetName = assetNameInput */\n      swap1\n      dup1\n      mload\n      swap1\n      0x20\n      add\n      swap1\n      tag_162\n      swap3\n      swap2\n      swap1\n      tag_107\n      jump\t// in\n    tag_162:\n      pop\n        /* \"Contracts/AKEB.sol\":1122:1143  assetDescriptionInput */\n      dup1\n        /* \"Contracts/AKEB.sol\":1103:1119  assetDescription */\n      0x01\n        /* \"Contracts/AKEB.sol\":1103:1143  assetDescription = assetDescriptionInput */\n      swap1\n      dup1\n      mload\n      swap1\n      0x20\n      add\n      swap1\n      tag_163\n      swap3\n      swap2\n      swap1\n      tag_107\n      jump\t// in\n    tag_163:\n      pop\n        /* \"Contracts/AKEB.sol\":917:1150  function registerAuctionInfo(string memory assetNameInput, ... */\n      pop\n      pop\n      jump\t// out\n        /* \"Contracts/AKEB.sol\":348:371  winner[] public winners */\n    tag_75:\n      0x05\n      dup2\n      dup2\n      sload\n      dup2\n      lt\n      tag_164\n      jumpi\n      0x00\n      dup1\n      revert\n    tag_164:\n      swap1\n      0x00\n      mstore\n      keccak256(0x00, 0x20)\n      swap1\n      0x03\n      mul\n      add\n      0x00\n      swap2\n      pop\n      swap1\n      pop\n      dup1\n      0x00\n      add\n      0x00\n      swap1\n      sload\n      swap1\n      0x0100\n      exp\n      swap1\n      div\n      0xffffffffffffffffffffffffffffffffffffffff\n      and\n      swap1\n      dup1\n      0x01\n      add\n      sload\n      swap1\n      dup1\n      0x02\n      add\n      dup1\n      sload\n      tag_166\n      swap1\n      tag_99\n      jump\t// in\n    tag_166:\n      dup1\n      0x1f\n      add\n      0x20\n      dup1\n      swap2\n      div\n      mul\n      0x20\n      add\n      mload(0x40)\n      swap1\n      dup2\n      add\n      0x40\n      mstore\n      dup1\n      swap3\n      swap2\n      swap1\n      dup2\n      dup2\n      mstore\n      0x20\n      add\n      dup3\n      dup1\n      sload\n      tag_167\n      swap1\n      tag_99\n      jump\t// in\n    tag_167:\n      dup1\n      iszero\n      tag_168\n      jumpi\n      dup1\n      0x1f\n      lt\n      tag_169\n      jumpi\n      0x0100\n      dup1\n      dup4\n      sload\n      div\n      mul\n      dup4\n      mstore\n      swap2\n      0x20\n      add\n      swap2\n      jump(tag_168)\n    tag_169:\n      dup3\n      add\n      swap2\n      swap1\n      0x00\n      mstore\n      keccak256(0x00, 0x20)\n      swap1\n    tag_170:\n      dup2\n      sload\n      dup2\n      mstore\n      swap1\n      0x01\n      add\n      swap1\n      0x20\n      add\n      dup1\n      dup4\n      gt\n      tag_170\n      jumpi\n      dup3\n      swap1\n      sub\n      0x1f\n      and\n      dup3\n      add\n      swap2\n    tag_168:\n      pop\n      pop\n      pop\n      pop\n      pop\n      swap1\n      pop\n      dup4\n      jump\t// out\n        /* \"Contracts/AKEB.sol\":134:157  string public assetName */\n    tag_79:\n      0x02\n      dup1\n      sload\n      tag_171\n      swap1\n      tag_99\n      jump\t// in\n    tag_171:\n      dup1\n      0x1f\n      add\n      0x20\n      dup1\n      swap2\n      div\n      mul\n      0x20\n      add\n      mload(0x40)\n      swap1\n      dup2\n      add\n      0x40\n      mstore\n      dup1\n      swap3\n      swap2\n      swap1\n      dup2\n      dup2\n      mstore\n      0x20\n      add\n      dup3\n      dup1\n      sload\n      tag_172\n      swap1\n      tag_99\n      jump\t// in\n    tag_172:\n      dup1\n      iszero\n      tag_173\n      jumpi\n      dup1\n      0x1f\n      lt\n      tag_174\n      jumpi\n      0x0100\n      dup1\n      dup4\n      sload\n      div\n      mul\n      dup4\n      mstore\n      swap2\n      0x20\n      add\n      swap2\n      jump(tag_173)\n    tag_174:\n      dup3\n      add\n      swap2\n      swap1\n      0x00\n      mstore\n      keccak256(0x00, 0x20)\n      swap1\n    tag_175:\n      dup2\n      sload\n      dup2\n      mstore\n      swap1\n      0x01\n      add\n      swap1\n      0x20\n      add\n      dup1\n      dup4\n      gt\n      tag_175\n      jumpi\n      dup3\n      swap1\n      sub\n      0x1f\n      and\n      dup3\n      add\n      swap2\n    tag_173:\n      pop\n      pop\n      pop\n      pop\n      pop\n      dup2\n      jump\t// out\n        /* \"Contracts/AKEB.sol\":1564:1690  function submitEncodedBid(string memory inputEncodedBid)... */\n    tag_84:\n        /* \"Contracts/AKEB.sol\":1668:1683  inputEncodedBid */\n      dup1\n        /* \"Contracts/AKEB.sol\":1642:1653  encodedBids */\n      0x04\n        /* \"Contracts/AKEB.sol\":1642:1665  encodedBids[msg.sender] */\n      0x00\n        /* \"Contracts/AKEB.sol\":1654:1664  msg.sender */\n      caller\n        /* \"Contracts/AKEB.sol\":1642:1665  encodedBids[msg.sender] */\n      0xffffffffffffffffffffffffffffffffffffffff\n      and\n      0xffffffffffffffffffffffffffffffffffffffff\n      and\n      dup2\n      mstore\n      0x20\n      add\n      swap1\n      dup2\n      mstore\n      0x20\n      add\n      0x00\n      keccak256\n        /* \"Contracts/AKEB.sol\":1642:1683  encodedBids[msg.sender] = inputEncodedBid */\n      swap1\n      dup1\n      mload\n      swap1\n      0x20\n      add\n      swap1\n      tag_177\n      swap3\n      swap2\n      swap1\n      tag_107\n      jump\t// in\n    tag_177:\n      pop\n        /* \"Contracts/AKEB.sol\":1564:1690  function submitEncodedBid(string memory inputEncodedBid)... */\n      pop\n      jump\t// out\n        /* \"Contracts/AKEB.sol\":164:188  address[] public bidders */\n    tag_87:\n      0x03\n      dup2\n      dup2\n      sload\n      dup2\n      lt\n      tag_178\n      jumpi\n      0x00\n      dup1\n      revert\n    tag_178:\n      swap1\n      0x00\n      mstore\n      keccak256(0x00, 0x20)\n      add\n      0x00\n      swap2\n      pop\n      sload\n      swap1\n      0x0100\n      exp\n      swap1\n      div\n      0xffffffffffffffffffffffffffffffffffffffff\n      and\n      dup2\n      jump\t// out\n        /* \"Contracts/AKEB.sol\":2453:2651  function reset() public {... */\n    tag_90:\n        /* \"Contracts/AKEB.sol\":2494:2501  winners */\n      0x05\n      0x00\n        /* \"Contracts/AKEB.sol\":2487:2501  delete winners */\n      tag_181\n      swap2\n      swap1\n      tag_182\n      jump\t// in\n    tag_181:\n        /* \"Contracts/AKEB.sol\":2512:2533  assetDescription = \"\" */\n      mload(0x40)\n      dup1\n      0x20\n      add\n      0x40\n      mstore\n      dup1\n      0x00\n      dup2\n      mstore\n      pop\n        /* \"Contracts/AKEB.sol\":2512:2528  assetDescription */\n      0x01\n        /* \"Contracts/AKEB.sol\":2512:2533  assetDescription = \"\" */\n      swap1\n      dup1\n      mload\n      swap1\n      0x20\n      add\n      swap1\n      tag_183\n      swap3\n      swap2\n      swap1\n      tag_107\n      jump\t// in\n    tag_183:\n      pop\n        /* \"Contracts/AKEB.sol\":2543:2557  assetName = \"\" */\n      mload(0x40)\n      dup1\n      0x20\n      add\n      0x40\n      mstore\n      dup1\n      0x00\n      dup2\n      mstore\n      pop\n        /* \"Contracts/AKEB.sol\":2543:2552  assetName */\n      0x02\n        /* \"Contracts/AKEB.sol\":2543:2557  assetName = \"\" */\n      swap1\n      dup1\n      mload\n      swap1\n      0x20\n      add\n      swap1\n      tag_184\n      swap3\n      swap2\n      swap1\n      tag_107\n      jump\t// in\n    tag_184:\n      pop\n        /* \"Contracts/AKEB.sol\":2568:2586  resetEncodedBids() */\n      tag_185\n        /* \"Contracts/AKEB.sol\":2568:2584  resetEncodedBids */\n      tag_48\n        /* \"Contracts/AKEB.sol\":2568:2586  resetEncodedBids() */\n      jump\t// in\n    tag_185:\n        /* \"Contracts/AKEB.sol\":2604:2611  bidders */\n      0x03\n      0x00\n        /* \"Contracts/AKEB.sol\":2597:2611  delete bidders */\n      tag_186\n      swap2\n      swap1\n      tag_187\n      jump\t// in\n    tag_186:\n        /* \"Contracts/AKEB.sol\":2629:2644  disputedBidders */\n      0x06\n      0x00\n        /* \"Contracts/AKEB.sol\":2622:2644  delete disputedBidders */\n      tag_188\n      swap2\n      swap1\n      tag_189\n      jump\t// in\n    tag_188:\n        /* \"Contracts/AKEB.sol\":2453:2651  function reset() public {... */\n      jump\t// out\n        /* \"Contracts/AKEB.sol\":2044:2137  function getAllWinners() public view returns(winner[] memory) {... */\n    tag_92:\n        /* \"Contracts/AKEB.sol\":2089:2104  winner[] memory */\n      0x60\n        /* \"Contracts/AKEB.sol\":2123:2130  winners */\n      0x05\n        /* \"Contracts/AKEB.sol\":2116:2130  return winners */\n      dup1\n      sload\n      dup1\n      0x20\n      mul\n      0x20\n      add\n      mload(0x40)\n      swap1\n      dup2\n      add\n      0x40\n      mstore\n      dup1\n      swap3\n      swap2\n      swap1\n      dup2\n      dup2\n      mstore\n      0x20\n      add\n      0x00\n      swap1\n    tag_191:\n      dup3\n      dup3\n      lt\n      iszero\n      tag_192\n      jumpi\n      dup4\n      dup3\n      swap1\n      0x00\n      mstore\n      keccak256(0x00, 0x20)\n      swap1\n      0x03\n      mul\n      add\n      mload(0x40)\n      dup1\n      0x60\n      add\n      0x40\n      mstore\n      swap1\n      dup2\n      0x00\n      dup3\n      add\n      0x00\n      swap1\n      sload\n      swap1\n      0x0100\n      exp\n      swap1\n      div\n      0xffffffffffffffffffffffffffffffffffffffff\n      and\n      0xffffffffffffffffffffffffffffffffffffffff\n      and\n      0xffffffffffffffffffffffffffffffffffffffff\n      and\n      dup2\n      mstore\n      0x20\n      add\n      0x01\n      dup3\n      add\n      sload\n      dup2\n      mstore\n      0x20\n      add\n      0x02\n      dup3\n      add\n      dup1\n      sload\n      tag_194\n      swap1\n      tag_99\n      jump\t// in\n    tag_194:\n      dup1\n      0x1f\n      add\n      0x20\n      dup1\n      swap2\n      div\n      mul\n      0x20\n      add\n      mload(0x40)\n      swap1\n      dup2\n      add\n      0x40\n      mstore\n      dup1\n      swap3\n      swap2\n      swap1\n      dup2\n      dup2\n      mstore\n      0x20\n      add\n      dup3\n      dup1\n      sload\n      tag_195\n      swap1\n      tag_99\n      jump\t// in\n    tag_195:\n      dup1\n      iszero\n      tag_196\n      jumpi\n      dup1\n      0x1f\n      lt\n      tag_197\n      jumpi\n      0x0100\n      dup1\n      dup4\n      sload\n      div\n      mul\n      dup4\n      mstore\n      swap2\n      0x20\n      add\n      swap2\n      jump(tag_196)\n    tag_197:\n      dup3\n      add\n      swap2\n      swap1\n      0x00\n      mstore\n      keccak256(0x00, 0x20)\n      swap1\n    tag_198:\n      dup2\n      sload\n      dup2\n      mstore\n      swap1\n      0x01\n      add\n      swap1\n      0x20\n      add\n      dup1\n      dup4\n      gt\n      tag_198\n      jumpi\n      dup3\n      swap1\n      sub\n      0x1f\n      and\n      dup3\n      add\n      swap2\n    tag_196:\n      pop\n      pop\n      pop\n      pop\n      pop\n      dup2\n      mstore\n      pop\n      pop\n      dup2\n      mstore\n      0x20\n      add\n      swap1\n      0x01\n      add\n      swap1\n      jump(tag_191)\n    tag_192:\n      pop\n      pop\n      pop\n      pop\n      swap1\n      pop\n        /* \"Contracts/AKEB.sol\":2044:2137  function getAllWinners() public view returns(winner[] memory) {... */\n      swap1\n      jump\t// out\n        /* \"Contracts/AKEB.sol\":1156:1230  function registerBidder() public {... */\n    tag_96:\n        /* \"Contracts/AKEB.sol\":1199:1206  bidders */\n      0x03\n        /* \"Contracts/AKEB.sol\":1212:1222  msg.sender */\n      caller\n        /* \"Contracts/AKEB.sol\":1199:1223  bidders.push(msg.sender) */\n      swap1\n      dup1\n      0x01\n      dup2\n      sload\n      add\n      dup1\n      dup3\n      sstore\n      dup1\n      swap2\n      pop\n      pop\n      0x01\n      swap1\n      sub\n      swap1\n      0x00\n      mstore\n      keccak256(0x00, 0x20)\n      add\n      0x00\n      swap1\n      swap2\n      swap1\n      swap2\n      swap1\n      swap2\n      0x0100\n      exp\n      dup2\n      sload\n      dup2\n      0xffffffffffffffffffffffffffffffffffffffff\n      mul\n      not\n      and\n      swap1\n      dup4\n      0xffffffffffffffffffffffffffffffffffffffff\n      and\n      mul\n      or\n      swap1\n      sstore\n      pop\n        /* \"Contracts/AKEB.sol\":1156:1230  function registerBidder() public {... */\n      jump\t// out\n    tag_107:\n      dup3\n      dup1\n      sload\n      tag_201\n      swap1\n      tag_99\n      jump\t// in\n    tag_201:\n      swap1\n      0x00\n      mstore\n      keccak256(0x00, 0x20)\n      swap1\n      0x1f\n      add\n      0x20\n      swap1\n      div\n      dup2\n      add\n      swap3\n      dup3\n      tag_203\n      jumpi\n      0x00\n      dup6\n      sstore\n      jump(tag_202)\n    tag_203:\n      dup3\n      0x1f\n      lt\n      tag_204\n      jumpi\n      dup1\n      mload\n      not(0xff)\n      and\n      dup4\n      dup1\n      add\n      or\n      dup6\n      sstore\n      jump(tag_202)\n    tag_204:\n      dup3\n      dup1\n      add\n      0x01\n      add\n      dup6\n      sstore\n      dup3\n      iszero\n      tag_202\n      jumpi\n      swap2\n      dup3\n      add\n    tag_205:\n      dup3\n      dup2\n      gt\n      iszero\n      tag_206\n      jumpi\n      dup3\n      mload\n      dup3\n      sstore\n      swap2\n      0x20\n      add\n      swap2\n      swap1\n      0x01\n      add\n      swap1\n      jump(tag_205)\n    tag_206:\n    tag_202:\n      pop\n      swap1\n      pop\n      tag_207\n      swap2\n      swap1\n      tag_208\n      jump\t// in\n    tag_207:\n      pop\n      swap1\n      jump\t// out\n    tag_134:\n      pop\n      dup1\n      sload\n      tag_209\n      swap1\n      tag_99\n      jump\t// in\n    tag_209:\n      0x00\n      dup3\n      sstore\n      dup1\n      0x1f\n      lt\n      tag_211\n      jumpi\n      pop\n      jump(tag_210)\n    tag_211:\n      0x1f\n      add\n      0x20\n      swap1\n      div\n      swap1\n      0x00\n      mstore\n      keccak256(0x00, 0x20)\n      swap1\n      dup2\n      add\n      swap1\n      tag_212\n      swap2\n      swap1\n      tag_208\n      jump\t// in\n    tag_212:\n    tag_210:\n      pop\n      jump\t// out\n    tag_182:\n      pop\n      dup1\n      sload\n      0x00\n      dup3\n      sstore\n      0x03\n      mul\n      swap1\n      0x00\n      mstore\n      keccak256(0x00, 0x20)\n      swap1\n      dup2\n      add\n      swap1\n      tag_214\n      swap2\n      swap1\n      tag_215\n      jump\t// in\n    tag_214:\n      pop\n      jump\t// out\n    tag_187:\n      pop\n      dup1\n      sload\n      0x00\n      dup3\n      sstore\n      swap1\n      0x00\n      mstore\n      keccak256(0x00, 0x20)\n      swap1\n      dup2\n      add\n      swap1\n      tag_217\n      swap2\n      swap1\n      tag_208\n      jump\t// in\n    tag_217:\n      pop\n      jump\t// out\n    tag_189:\n      pop\n      dup1\n      sload\n      0x00\n      dup3\n      sstore\n      0x03\n      mul\n      swap1\n      0x00\n      mstore\n      keccak256(0x00, 0x20)\n      swap1\n      dup2\n      add\n      swap1\n      tag_219\n      swap2\n      swap1\n      tag_220\n      jump\t// in\n    tag_219:\n      pop\n      jump\t// out\n    tag_208:\n    tag_221:\n      dup1\n      dup3\n      gt\n      iszero\n      tag_222\n      jumpi\n      0x00\n      dup2\n      0x00\n      swap1\n      sstore\n      pop\n      0x01\n      add\n      jump(tag_221)\n    tag_222:\n      pop\n      swap1\n      jump\t// out\n    tag_215:\n    tag_223:\n      dup1\n      dup3\n      gt\n      iszero\n      tag_224\n      jumpi\n      0x00\n      dup1\n      dup3\n      add\n      exp(0x0100, 0x00)\n      dup2\n      sload\n      swap1\n      0xffffffffffffffffffffffffffffffffffffffff\n      mul\n      not\n      and\n      swap1\n      sstore\n      0x01\n      dup3\n      add\n      0x00\n      swap1\n      sstore\n      0x02\n      dup3\n      add\n      0x00\n      tag_225\n      swap2\n      swap1\n      tag_134\n      jump\t// in\n    tag_225:\n      pop\n      0x03\n      add\n      jump(tag_223)\n    tag_224:\n      pop\n      swap1\n      jump\t// out\n    tag_220:\n    tag_226:\n      dup1\n      dup3\n      gt\n      iszero\n      tag_227\n      jumpi\n      0x00\n      dup1\n      dup3\n      add\n      0x00\n      swap1\n      sstore\n      0x01\n      dup3\n      add\n      exp(0x0100, 0x00)\n      dup2\n      sload\n      swap1\n      0xffffffffffffffffffffffffffffffffffffffff\n      mul\n      not\n      and\n      swap1\n      sstore\n      0x02\n      dup3\n      add\n      0x00\n      tag_228\n      swap2\n      swap1\n      tag_134\n      jump\t// in\n    tag_228:\n      pop\n      0x03\n      add\n      jump(tag_226)\n    tag_227:\n      pop\n      swap1\n      jump\t// out\n        /* \"#utility.yul\":7:82   */\n    tag_229:\n        /* \"#utility.yul\":40:46   */\n      0x00\n        /* \"#utility.yul\":73:75   */\n      0x40\n        /* \"#utility.yul\":67:76   */\n      mload\n        /* \"#utility.yul\":57:76   */\n      swap1\n      pop\n        /* \"#utility.yul\":7:82   */\n      swap1\n      jump\t// out\n        /* \"#utility.yul\":88:205   */\n    tag_230:\n        /* \"#utility.yul\":197:198   */\n      0x00\n        /* \"#utility.yul\":194:195   */\n      dup1\n        /* \"#utility.yul\":187:199   */\n      revert\n        /* \"#utility.yul\":211:328   */\n    tag_231:\n        /* \"#utility.yul\":320:321   */\n      0x00\n        /* \"#utility.yul\":317:318   */\n      dup1\n        /* \"#utility.yul\":310:322   */\n      revert\n        /* \"#utility.yul\":334:460   */\n    tag_232:\n        /* \"#utility.yul\":371:378   */\n      0x00\n        /* \"#utility.yul\":411:453   */\n      0xffffffffffffffffffffffffffffffffffffffff\n        /* \"#utility.yul\":404:409   */\n      dup3\n        /* \"#utility.yul\":400:454   */\n      and\n        /* \"#utility.yul\":389:454   */\n      swap1\n      pop\n        /* \"#utility.yul\":334:460   */\n      swap2\n      swap1\n      pop\n      jump\t// out\n        /* \"#utility.yul\":466:562   */\n    tag_233:\n        /* \"#utility.yul\":503:510   */\n      0x00\n        /* \"#utility.yul\":532:556   */\n      tag_289\n        /* \"#utility.yul\":550:555   */\n      dup3\n        /* \"#utility.yul\":532:556   */\n      tag_232\n      jump\t// in\n    tag_289:\n        /* \"#utility.yul\":521:556   */\n      swap1\n      pop\n        /* \"#utility.yul\":466:562   */\n      swap2\n      swap1\n      pop\n      jump\t// out\n        /* \"#utility.yul\":568:690   */\n    tag_234:\n        /* \"#utility.yul\":641:665   */\n      tag_291\n        /* \"#utility.yul\":659:664   */\n      dup2\n        /* \"#utility.yul\":641:665   */\n      tag_233\n      jump\t// in\n    tag_291:\n        /* \"#utility.yul\":634:639   */\n      dup2\n        /* \"#utility.yul\":631:666   */\n      eq\n        /* \"#utility.yul\":621:684   */\n      tag_292\n      jumpi\n        /* \"#utility.yul\":680:681   */\n      0x00\n        /* \"#utility.yul\":677:678   */\n      dup1\n        /* \"#utility.yul\":670:682   */\n      revert\n        /* \"#utility.yul\":621:684   */\n    tag_292:\n        /* \"#utility.yul\":568:690   */\n      pop\n      jump\t// out\n        /* \"#utility.yul\":696:835   */\n    tag_235:\n        /* \"#utility.yul\":742:747   */\n      0x00\n        /* \"#utility.yul\":780:786   */\n      dup2\n        /* \"#utility.yul\":767:787   */\n      calldataload\n        /* \"#utility.yul\":758:787   */\n      swap1\n      pop\n        /* \"#utility.yul\":796:829   */\n      tag_294\n        /* \"#utility.yul\":823:828   */\n      dup2\n        /* \"#utility.yul\":796:829   */\n      tag_234\n      jump\t// in\n    tag_294:\n        /* \"#utility.yul\":696:835   */\n      swap3\n      swap2\n      pop\n      pop\n      jump\t// out\n        /* \"#utility.yul\":841:1170   */\n    tag_27:\n        /* \"#utility.yul\":900:906   */\n      0x00\n        /* \"#utility.yul\":949:951   */\n      0x20\n        /* \"#utility.yul\":937:946   */\n      dup3\n        /* \"#utility.yul\":928:935   */\n      dup5\n        /* \"#utility.yul\":924:947   */\n      sub\n        /* \"#utility.yul\":920:952   */\n      slt\n        /* \"#utility.yul\":917:1036   */\n      iszero\n      tag_296\n      jumpi\n        /* \"#utility.yul\":955:1034   */\n      tag_297\n      tag_230\n      jump\t// in\n    tag_297:\n        /* \"#utility.yul\":917:1036   */\n    tag_296:\n        /* \"#utility.yul\":1075:1076   */\n      0x00\n        /* \"#utility.yul\":1100:1153   */\n      tag_298\n        /* \"#utility.yul\":1145:1152   */\n      dup5\n        /* \"#utility.yul\":1136:1142   */\n      dup3\n        /* \"#utility.yul\":1125:1134   */\n      dup6\n        /* \"#utility.yul\":1121:1143   */\n      add\n        /* \"#utility.yul\":1100:1153   */\n      tag_235\n      jump\t// in\n    tag_298:\n        /* \"#utility.yul\":1090:1153   */\n      swap2\n      pop\n        /* \"#utility.yul\":1046:1163   */\n      pop\n        /* \"#utility.yul\":841:1170   */\n      swap3\n      swap2\n      pop\n      pop\n      jump\t// out\n        /* \"#utility.yul\":1176:1275   */\n    tag_236:\n        /* \"#utility.yul\":1228:1234   */\n      0x00\n        /* \"#utility.yul\":1262:1267   */\n      dup2\n        /* \"#utility.yul\":1256:1268   */\n      mload\n        /* \"#utility.yul\":1246:1268   */\n      swap1\n      pop\n        /* \"#utility.yul\":1176:1275   */\n      swap2\n      swap1\n      pop\n      jump\t// out\n        /* \"#utility.yul\":1281:1450   */\n    tag_237:\n        /* \"#utility.yul\":1365:1376   */\n      0x00\n        /* \"#utility.yul\":1399:1405   */\n      dup3\n        /* \"#utility.yul\":1394:1397   */\n      dup3\n        /* \"#utility.yul\":1387:1406   */\n      mstore\n        /* \"#utility.yul\":1439:1443   */\n      0x20\n        /* \"#utility.yul\":1434:1437   */\n      dup3\n        /* \"#utility.yul\":1430:1444   */\n      add\n        /* \"#utility.yul\":1415:1444   */\n      swap1\n      pop\n        /* \"#utility.yul\":1281:1450   */\n      swap3\n      swap2\n      pop\n      pop\n      jump\t// out\n        /* \"#utility.yul\":1456:1763   */\n    tag_238:\n        /* \"#utility.yul\":1524:1525   */\n      0x00\n        /* \"#utility.yul\":1534:1647   */\n    tag_302:\n        /* \"#utility.yul\":1548:1554   */\n      dup4\n        /* \"#utility.yul\":1545:1546   */\n      dup2\n        /* \"#utility.yul\":1542:1555   */\n      lt\n        /* \"#utility.yul\":1534:1647   */\n      iszero\n      tag_304\n      jumpi\n        /* \"#utility.yul\":1633:1634   */\n      dup1\n        /* \"#utility.yul\":1628:1631   */\n      dup3\n        /* \"#utility.yul\":1624:1635   */\n      add\n        /* \"#utility.yul\":1618:1636   */\n      mload\n        /* \"#utility.yul\":1614:1615   */\n      dup2\n        /* \"#utility.yul\":1609:1612   */\n      dup5\n        /* \"#utility.yul\":1605:1616   */\n      add\n        /* \"#utility.yul\":1598:1637   */\n      mstore\n        /* \"#utility.yul\":1570:1572   */\n      0x20\n        /* \"#utility.yul\":1567:1568   */\n      dup2\n        /* \"#utility.yul\":1563:1573   */\n      add\n        /* \"#utility.yul\":1558:1573   */\n      swap1\n      pop\n        /* \"#utility.yul\":1534:1647   */\n      jump(tag_302)\n    tag_304:\n        /* \"#utility.yul\":1665:1671   */\n      dup4\n        /* \"#utility.yul\":1662:1663   */\n      dup2\n        /* \"#utility.yul\":1659:1672   */\n      gt\n        /* \"#utility.yul\":1656:1757   */\n      iszero\n      tag_305\n      jumpi\n        /* \"#utility.yul\":1745:1746   */\n      0x00\n        /* \"#utility.yul\":1736:1742   */\n      dup5\n        /* \"#utility.yul\":1731:1734   */\n      dup5\n        /* \"#utility.yul\":1727:1743   */\n      add\n        /* \"#utility.yul\":1720:1747   */\n      mstore\n        /* \"#utility.yul\":1656:1757   */\n    tag_305:\n        /* \"#utility.yul\":1505:1763   */\n      pop\n        /* \"#utility.yul\":1456:1763   */\n      pop\n      pop\n      pop\n      jump\t// out\n        /* \"#utility.yul\":1769:1871   */\n    tag_239:\n        /* \"#utility.yul\":1810:1816   */\n      0x00\n        /* \"#utility.yul\":1861:1863   */\n      0x1f\n        /* \"#utility.yul\":1857:1864   */\n      not\n        /* \"#utility.yul\":1852:1854   */\n      0x1f\n        /* \"#utility.yul\":1845:1850   */\n      dup4\n        /* \"#utility.yul\":1841:1855   */\n      add\n        /* \"#utility.yul\":1837:1865   */\n      and\n        /* \"#utility.yul\":1827:1865   */\n      swap1\n      pop\n        /* \"#utility.yul\":1769:1871   */\n      swap2\n      swap1\n      pop\n      jump\t// out\n        /* \"#utility.yul\":1877:2241   */\n    tag_240:\n        /* \"#utility.yul\":1965:1968   */\n      0x00\n        /* \"#utility.yul\":1993:2032   */\n      tag_308\n        /* \"#utility.yul\":2026:2031   */\n      dup3\n        /* \"#utility.yul\":1993:2032   */\n      tag_236\n      jump\t// in\n    tag_308:\n        /* \"#utility.yul\":2048:2119   */\n      tag_309\n        /* \"#utility.yul\":2112:2118   */\n      dup2\n        /* \"#utility.yul\":2107:2110   */\n      dup6\n        /* \"#utility.yul\":2048:2119   */\n      tag_237\n      jump\t// in\n    tag_309:\n        /* \"#utility.yul\":2041:2119   */\n      swap4\n      pop\n        /* \"#utility.yul\":2128:2180   */\n      tag_310\n        /* \"#utility.yul\":2173:2179   */\n      dup2\n        /* \"#utility.yul\":2168:2171   */\n      dup6\n        /* \"#utility.yul\":2161:2165   */\n      0x20\n        /* \"#utility.yul\":2154:2159   */\n      dup7\n        /* \"#utility.yul\":2150:2166   */\n      add\n        /* \"#utility.yul\":2128:2180   */\n      tag_238\n      jump\t// in\n    tag_310:\n        /* \"#utility.yul\":2205:2234   */\n      tag_311\n        /* \"#utility.yul\":2227:2233   */\n      dup2\n        /* \"#utility.yul\":2205:2234   */\n      tag_239\n      jump\t// in\n    tag_311:\n        /* \"#utility.yul\":2200:2203   */\n      dup5\n        /* \"#utility.yul\":2196:2235   */\n      add\n        /* \"#utility.yul\":2189:2235   */\n      swap2\n      pop\n        /* \"#utility.yul\":1969:2241   */\n      pop\n        /* \"#utility.yul\":1877:2241   */\n      swap3\n      swap2\n      pop\n      pop\n      jump\t// out\n        /* \"#utility.yul\":2247:2560   */\n    tag_30:\n        /* \"#utility.yul\":2360:2364   */\n      0x00\n        /* \"#utility.yul\":2398:2400   */\n      0x20\n        /* \"#utility.yul\":2387:2396   */\n      dup3\n        /* \"#utility.yul\":2383:2401   */\n      add\n        /* \"#utility.yul\":2375:2401   */\n      swap1\n      pop\n        /* \"#utility.yul\":2447:2456   */\n      dup2\n        /* \"#utility.yul\":2441:2445   */\n      dup2\n        /* \"#utility.yul\":2437:2457   */\n      sub\n        /* \"#utility.yul\":2433:2434   */\n      0x00\n        /* \"#utility.yul\":2422:2431   */\n      dup4\n        /* \"#utility.yul\":2418:2435   */\n      add\n        /* \"#utility.yul\":2411:2458   */\n      mstore\n        /* \"#utility.yul\":2475:2553   */\n      tag_313\n        /* \"#utility.yul\":2548:2552   */\n      dup2\n        /* \"#utility.yul\":2539:2545   */\n      dup5\n        /* \"#utility.yul\":2475:2553   */\n      tag_240\n      jump\t// in\n    tag_313:\n        /* \"#utility.yul\":2467:2553   */\n      swap1\n      pop\n        /* \"#utility.yul\":2247:2560   */\n      swap3\n      swap2\n      pop\n      pop\n      jump\t// out\n        /* \"#utility.yul\":2566:2643   */\n    tag_241:\n        /* \"#utility.yul\":2603:2610   */\n      0x00\n        /* \"#utility.yul\":2632:2637   */\n      dup2\n        /* \"#utility.yul\":2621:2637   */\n      swap1\n      pop\n        /* \"#utility.yul\":2566:2643   */\n      swap2\n      swap1\n      pop\n      jump\t// out\n        /* \"#utility.yul\":2649:2771   */\n    tag_242:\n        /* \"#utility.yul\":2722:2746   */\n      tag_316\n        /* \"#utility.yul\":2740:2745   */\n      dup2\n        /* \"#utility.yul\":2722:2746   */\n      tag_241\n      jump\t// in\n    tag_316:\n        /* \"#utility.yul\":2715:2720   */\n      dup2\n        /* \"#utility.yul\":2712:2747   */\n      eq\n        /* \"#utility.yul\":2702:2765   */\n      tag_317\n      jumpi\n        /* \"#utility.yul\":2761:2762   */\n      0x00\n        /* \"#utility.yul\":2758:2759   */\n      dup1\n        /* \"#utility.yul\":2751:2763   */\n      revert\n        /* \"#utility.yul\":2702:2765   */\n    tag_317:\n        /* \"#utility.yul\":2649:2771   */\n      pop\n      jump\t// out\n        /* \"#utility.yul\":2777:2916   */\n    tag_243:\n        /* \"#utility.yul\":2823:2828   */\n      0x00\n        /* \"#utility.yul\":2861:2867   */\n      dup2\n        /* \"#utility.yul\":2848:2868   */\n      calldataload\n        /* \"#utility.yul\":2839:2868   */\n      swap1\n      pop\n        /* \"#utility.yul\":2877:2910   */\n      tag_319\n        /* \"#utility.yul\":2904:2909   */\n      dup2\n        /* \"#utility.yul\":2877:2910   */\n      tag_242\n      jump\t// in\n    tag_319:\n        /* \"#utility.yul\":2777:2916   */\n      swap3\n      swap2\n      pop\n      pop\n      jump\t// out\n        /* \"#utility.yul\":2922:3039   */\n    tag_244:\n        /* \"#utility.yul\":3031:3032   */\n      0x00\n        /* \"#utility.yul\":3028:3029   */\n      dup1\n        /* \"#utility.yul\":3021:3033   */\n      revert\n        /* \"#utility.yul\":3045:3162   */\n    tag_245:\n        /* \"#utility.yul\":3154:3155   */\n      0x00\n        /* \"#utility.yul\":3151:3152   */\n      dup1\n        /* \"#utility.yul\":3144:3156   */\n      revert\n        /* \"#utility.yul\":3168:3348   */\n    tag_246:\n        /* \"#utility.yul\":3216:3293   */\n      0x4e487b7100000000000000000000000000000000000000000000000000000000\n        /* \"#utility.yul\":3213:3214   */\n      0x00\n        /* \"#utility.yul\":3206:3294   */\n      mstore\n        /* \"#utility.yul\":3313:3317   */\n      0x41\n        /* \"#utility.yul\":3310:3311   */\n      0x04\n        /* \"#utility.yul\":3303:3318   */\n      mstore\n        /* \"#utility.yul\":3337:3341   */\n      0x24\n        /* \"#utility.yul\":3334:3335   */\n      0x00\n        /* \"#utility.yul\":3327:3342   */\n      revert\n        /* \"#utility.yul\":3354:3635   */\n    tag_247:\n        /* \"#utility.yul\":3437:3464   */\n      tag_324\n        /* \"#utility.yul\":3459:3463   */\n      dup3\n        /* \"#utility.yul\":3437:3464   */\n      tag_239\n      jump\t// in\n    tag_324:\n        /* \"#utility.yul\":3429:3435   */\n      dup2\n        /* \"#utility.yul\":3425:3465   */\n      add\n        /* \"#utility.yul\":3567:3573   */\n      dup2\n        /* \"#utility.yul\":3555:3565   */\n      dup2\n        /* \"#utility.yul\":3552:3574   */\n      lt\n        /* \"#utility.yul\":3531:3549   */\n      0xffffffffffffffff\n        /* \"#utility.yul\":3519:3529   */\n      dup3\n        /* \"#utility.yul\":3516:3550   */\n      gt\n        /* \"#utility.yul\":3513:3575   */\n      or\n        /* \"#utility.yul\":3510:3598   */\n      iszero\n      tag_325\n      jumpi\n        /* \"#utility.yul\":3578:3596   */\n      tag_326\n      tag_246\n      jump\t// in\n    tag_326:\n        /* \"#utility.yul\":3510:3598   */\n    tag_325:\n        /* \"#utility.yul\":3618:3628   */\n      dup1\n        /* \"#utility.yul\":3614:3616   */\n      0x40\n        /* \"#utility.yul\":3607:3629   */\n      mstore\n        /* \"#utility.yul\":3397:3635   */\n      pop\n        /* \"#utility.yul\":3354:3635   */\n      pop\n      pop\n      jump\t// out\n        /* \"#utility.yul\":3641:3770   */\n    tag_248:\n        /* \"#utility.yul\":3675:3681   */\n      0x00\n        /* \"#utility.yul\":3702:3722   */\n      tag_328\n      tag_229\n      jump\t// in\n    tag_328:\n        /* \"#utility.yul\":3692:3722   */\n      swap1\n      pop\n        /* \"#utility.yul\":3731:3764   */\n      tag_329\n        /* \"#utility.yul\":3759:3763   */\n      dup3\n        /* \"#utility.yul\":3751:3757   */\n      dup3\n        /* \"#utility.yul\":3731:3764   */\n      tag_247\n      jump\t// in\n    tag_329:\n        /* \"#utility.yul\":3641:3770   */\n      swap2\n      swap1\n      pop\n      jump\t// out\n        /* \"#utility.yul\":3776:4084   */\n    tag_249:\n        /* \"#utility.yul\":3838:3842   */\n      0x00\n        /* \"#utility.yul\":3928:3946   */\n      0xffffffffffffffff\n        /* \"#utility.yul\":3920:3926   */\n      dup3\n        /* \"#utility.yul\":3917:3947   */\n      gt\n        /* \"#utility.yul\":3914:3970   */\n      iszero\n      tag_331\n      jumpi\n        /* \"#utility.yul\":3950:3968   */\n      tag_332\n      tag_246\n      jump\t// in\n    tag_332:\n        /* \"#utility.yul\":3914:3970   */\n    tag_331:\n        /* \"#utility.yul\":3988:4017   */\n      tag_333\n        /* \"#utility.yul\":4010:4016   */\n      dup3\n        /* \"#utility.yul\":3988:4017   */\n      tag_239\n      jump\t// in\n    tag_333:\n        /* \"#utility.yul\":3980:4017   */\n      swap1\n      pop\n        /* \"#utility.yul\":4072:4076   */\n      0x20\n        /* \"#utility.yul\":4066:4070   */\n      dup2\n        /* \"#utility.yul\":4062:4077   */\n      add\n        /* \"#utility.yul\":4054:4077   */\n      swap1\n      pop\n        /* \"#utility.yul\":3776:4084   */\n      swap2\n      swap1\n      pop\n      jump\t// out\n        /* \"#utility.yul\":4090:4244   */\n    tag_250:\n        /* \"#utility.yul\":4174:4180   */\n      dup3\n        /* \"#utility.yul\":4169:4172   */\n      dup2\n        /* \"#utility.yul\":4164:4167   */\n      dup4\n        /* \"#utility.yul\":4151:4181   */\n      calldatacopy\n        /* \"#utility.yul\":4236:4237   */\n      0x00\n        /* \"#utility.yul\":4227:4233   */\n      dup4\n        /* \"#utility.yul\":4222:4225   */\n      dup4\n        /* \"#utility.yul\":4218:4234   */\n      add\n        /* \"#utility.yul\":4211:4238   */\n      mstore\n        /* \"#utility.yul\":4090:4244   */\n      pop\n      pop\n      pop\n      jump\t// out\n        /* \"#utility.yul\":4250:4662   */\n    tag_251:\n        /* \"#utility.yul\":4328:4333   */\n      0x00\n        /* \"#utility.yul\":4353:4419   */\n      tag_336\n        /* \"#utility.yul\":4369:4418   */\n      tag_337\n        /* \"#utility.yul\":4411:4417   */\n      dup5\n        /* \"#utility.yul\":4369:4418   */\n      tag_249\n      jump\t// in\n    tag_337:\n        /* \"#utility.yul\":4353:4419   */\n      tag_248\n      jump\t// in\n    tag_336:\n        /* \"#utility.yul\":4344:4419   */\n      swap1\n      pop\n        /* \"#utility.yul\":4442:4448   */\n      dup3\n        /* \"#utility.yul\":4435:4440   */\n      dup2\n        /* \"#utility.yul\":4428:4449   */\n      mstore\n        /* \"#utility.yul\":4480:4484   */\n      0x20\n        /* \"#utility.yul\":4473:4478   */\n      dup2\n        /* \"#utility.yul\":4469:4485   */\n      add\n        /* \"#utility.yul\":4518:4521   */\n      dup5\n        /* \"#utility.yul\":4509:4515   */\n      dup5\n        /* \"#utility.yul\":4504:4507   */\n      dup5\n        /* \"#utility.yul\":4500:4516   */\n      add\n        /* \"#utility.yul\":4497:4522   */\n      gt\n        /* \"#utility.yul\":4494:4606   */\n      iszero\n      tag_338\n      jumpi\n        /* \"#utility.yul\":4525:4604   */\n      tag_339\n      tag_245\n      jump\t// in\n    tag_339:\n        /* \"#utility.yul\":4494:4606   */\n    tag_338:\n        /* \"#utility.yul\":4615:4656   */\n      tag_340\n        /* \"#utility.yul\":4649:4655   */\n      dup5\n        /* \"#utility.yul\":4644:4647   */\n      dup3\n        /* \"#utility.yul\":4639:4642   */\n      dup6\n        /* \"#utility.yul\":4615:4656   */\n      tag_250\n      jump\t// in\n    tag_340:\n        /* \"#utility.yul\":4334:4662   */\n      pop\n        /* \"#utility.yul\":4250:4662   */\n      swap4\n      swap3\n      pop\n      pop\n      pop\n      jump\t// out\n        /* \"#utility.yul\":4682:5022   */\n    tag_252:\n        /* \"#utility.yul\":4738:4743   */\n      0x00\n        /* \"#utility.yul\":4787:4790   */\n      dup3\n        /* \"#utility.yul\":4780:4784   */\n      0x1f\n        /* \"#utility.yul\":4772:4778   */\n      dup4\n        /* \"#utility.yul\":4768:4785   */\n      add\n        /* \"#utility.yul\":4764:4791   */\n      slt\n        /* \"#utility.yul\":4754:4876   */\n      tag_342\n      jumpi\n        /* \"#utility.yul\":4795:4874   */\n      tag_343\n      tag_244\n      jump\t// in\n    tag_343:\n        /* \"#utility.yul\":4754:4876   */\n    tag_342:\n        /* \"#utility.yul\":4912:4918   */\n      dup2\n        /* \"#utility.yul\":4899:4919   */\n      calldataload\n        /* \"#utility.yul\":4937:5016   */\n      tag_344\n        /* \"#utility.yul\":5012:5015   */\n      dup5\n        /* \"#utility.yul\":5004:5010   */\n      dup3\n        /* \"#utility.yul\":4997:5001   */\n      0x20\n        /* \"#utility.yul\":4989:4995   */\n      dup7\n        /* \"#utility.yul\":4985:5002   */\n      add\n        /* \"#utility.yul\":4937:5016   */\n      tag_251\n      jump\t// in\n    tag_344:\n        /* \"#utility.yul\":4928:5016   */\n      swap2\n      pop\n        /* \"#utility.yul\":4744:5022   */\n      pop\n        /* \"#utility.yul\":4682:5022   */\n      swap3\n      swap2\n      pop\n      pop\n      jump\t// out\n        /* \"#utility.yul\":5028:5682   */\n    tag_33:\n        /* \"#utility.yul\":5106:5112   */\n      0x00\n        /* \"#utility.yul\":5114:5120   */\n      dup1\n        /* \"#utility.yul\":5163:5165   */\n      0x40\n        /* \"#utility.yul\":5151:5160   */\n      dup4\n        /* \"#utility.yul\":5142:5149   */\n      dup6\n        /* \"#utility.yul\":5138:5161   */\n      sub\n        /* \"#utility.yul\":5134:5166   */\n      slt\n        /* \"#utility.yul\":5131:5250   */\n      iszero\n      tag_346\n      jumpi\n        /* \"#utility.yul\":5169:5248   */\n      tag_347\n      tag_230\n      jump\t// in\n    tag_347:\n        /* \"#utility.yul\":5131:5250   */\n    tag_346:\n        /* \"#utility.yul\":5289:5290   */\n      0x00\n        /* \"#utility.yul\":5314:5367   */\n      tag_348\n        /* \"#utility.yul\":5359:5366   */\n      dup6\n        /* \"#utility.yul\":5350:5356   */\n      dup3\n        /* \"#utility.yul\":5339:5348   */\n      dup7\n        /* \"#utility.yul\":5335:5357   */\n      add\n        /* \"#utility.yul\":5314:5367   */\n      tag_243\n      jump\t// in\n    tag_348:\n        /* \"#utility.yul\":5304:5367   */\n      swap3\n      pop\n        /* \"#utility.yul\":5260:5377   */\n      pop\n        /* \"#utility.yul\":5444:5446   */\n      0x20\n        /* \"#utility.yul\":5433:5442   */\n      dup4\n        /* \"#utility.yul\":5429:5447   */\n      add\n        /* \"#utility.yul\":5416:5448   */\n      calldataload\n        /* \"#utility.yul\":5475:5493   */\n      0xffffffffffffffff\n        /* \"#utility.yul\":5467:5473   */\n      dup2\n        /* \"#utility.yul\":5464:5494   */\n      gt\n        /* \"#utility.yul\":5461:5578   */\n      iszero\n      tag_349\n      jumpi\n        /* \"#utility.yul\":5497:5576   */\n      tag_350\n      tag_231\n      jump\t// in\n    tag_350:\n        /* \"#utility.yul\":5461:5578   */\n    tag_349:\n        /* \"#utility.yul\":5602:5665   */\n      tag_351\n        /* \"#utility.yul\":5657:5664   */\n      dup6\n        /* \"#utility.yul\":5648:5654   */\n      dup3\n        /* \"#utility.yul\":5637:5646   */\n      dup7\n        /* \"#utility.yul\":5633:5655   */\n      add\n        /* \"#utility.yul\":5602:5665   */\n      tag_252\n      jump\t// in\n    tag_351:\n        /* \"#utility.yul\":5592:5665   */\n      swap2\n      pop\n        /* \"#utility.yul\":5387:5675   */\n      pop\n        /* \"#utility.yul\":5028:5682   */\n      swap3\n      pop\n      swap3\n      swap1\n      pop\n      jump\t// out\n        /* \"#utility.yul\":5688:5833   */\n    tag_253:\n        /* \"#utility.yul\":5786:5792   */\n      0x00\n        /* \"#utility.yul\":5820:5825   */\n      dup2\n        /* \"#utility.yul\":5814:5826   */\n      mload\n        /* \"#utility.yul\":5804:5826   */\n      swap1\n      pop\n        /* \"#utility.yul\":5688:5833   */\n      swap2\n      swap1\n      pop\n      jump\t// out\n        /* \"#utility.yul\":5839:6054   */\n    tag_254:\n        /* \"#utility.yul\":5969:5980   */\n      0x00\n        /* \"#utility.yul\":6003:6009   */\n      dup3\n        /* \"#utility.yul\":5998:6001   */\n      dup3\n        /* \"#utility.yul\":5991:6010   */\n      mstore\n        /* \"#utility.yul\":6043:6047   */\n      0x20\n        /* \"#utility.yul\":6038:6041   */\n      dup3\n        /* \"#utility.yul\":6034:6048   */\n      add\n        /* \"#utility.yul\":6019:6048   */\n      swap1\n      pop\n        /* \"#utility.yul\":5839:6054   */\n      swap3\n      swap2\n      pop\n      pop\n      jump\t// out\n        /* \"#utility.yul\":6060:6223   */\n    tag_255:\n        /* \"#utility.yul\":6158:6162   */\n      0x00\n        /* \"#utility.yul\":6181:6184   */\n      dup2\n        /* \"#utility.yul\":6173:6184   */\n      swap1\n      pop\n        /* \"#utility.yul\":6211:6215   */\n      0x20\n        /* \"#utility.yul\":6206:6209   */\n      dup3\n        /* \"#utility.yul\":6202:6216   */\n      add\n        /* \"#utility.yul\":6194:6216   */\n      swap1\n      pop\n        /* \"#utility.yul\":6060:6223   */\n      swap2\n      swap1\n      pop\n      jump\t// out\n        /* \"#utility.yul\":6229:6337   */\n    tag_256:\n        /* \"#utility.yul\":6306:6330   */\n      tag_356\n        /* \"#utility.yul\":6324:6329   */\n      dup2\n        /* \"#utility.yul\":6306:6330   */\n      tag_241\n      jump\t// in\n    tag_356:\n        /* \"#utility.yul\":6301:6304   */\n      dup3\n        /* \"#utility.yul\":6294:6331   */\n      mstore\n        /* \"#utility.yul\":6229:6337   */\n      pop\n      pop\n      jump\t// out\n        /* \"#utility.yul\":6343:6451   */\n    tag_257:\n        /* \"#utility.yul\":6420:6444   */\n      tag_358\n        /* \"#utility.yul\":6438:6443   */\n      dup2\n        /* \"#utility.yul\":6420:6444   */\n      tag_233\n      jump\t// in\n    tag_358:\n        /* \"#utility.yul\":6415:6418   */\n      dup3\n        /* \"#utility.yul\":6408:6445   */\n      mstore\n        /* \"#utility.yul\":6343:6451   */\n      pop\n      pop\n      jump\t// out\n        /* \"#utility.yul\":6457:6616   */\n    tag_258:\n        /* \"#utility.yul\":6531:6542   */\n      0x00\n        /* \"#utility.yul\":6565:6571   */\n      dup3\n        /* \"#utility.yul\":6560:6563   */\n      dup3\n        /* \"#utility.yul\":6553:6572   */\n      mstore\n        /* \"#utility.yul\":6605:6609   */\n      0x20\n        /* \"#utility.yul\":6600:6603   */\n      dup3\n        /* \"#utility.yul\":6596:6610   */\n      add\n        /* \"#utility.yul\":6581:6610   */\n      swap1\n      pop\n        /* \"#utility.yul\":6457:6616   */\n      swap3\n      swap2\n      pop\n      pop\n      jump\t// out\n        /* \"#utility.yul\":6622:6966   */\n    tag_259:\n        /* \"#utility.yul\":6700:6703   */\n      0x00\n        /* \"#utility.yul\":6728:6767   */\n      tag_361\n        /* \"#utility.yul\":6761:6766   */\n      dup3\n        /* \"#utility.yul\":6728:6767   */\n      tag_236\n      jump\t// in\n    tag_361:\n        /* \"#utility.yul\":6783:6844   */\n      tag_362\n        /* \"#utility.yul\":6837:6843   */\n      dup2\n        /* \"#utility.yul\":6832:6835   */\n      dup6\n        /* \"#utility.yul\":6783:6844   */\n      tag_258\n      jump\t// in\n    tag_362:\n        /* \"#utility.yul\":6776:6844   */\n      swap4\n      pop\n        /* \"#utility.yul\":6853:6905   */\n      tag_363\n        /* \"#utility.yul\":6898:6904   */\n      dup2\n        /* \"#utility.yul\":6893:6896   */\n      dup6\n        /* \"#utility.yul\":6886:6890   */\n      0x20\n        /* \"#utility.yul\":6879:6884   */\n      dup7\n        /* \"#utility.yul\":6875:6891   */\n      add\n        /* \"#utility.yul\":6853:6905   */\n      tag_238\n      jump\t// in\n    tag_363:\n        /* \"#utility.yul\":6930:6959   */\n      tag_364\n        /* \"#utility.yul\":6952:6958   */\n      dup2\n        /* \"#utility.yul\":6930:6959   */\n      tag_239\n      jump\t// in\n    tag_364:\n        /* \"#utility.yul\":6925:6928   */\n      dup5\n        /* \"#utility.yul\":6921:6960   */\n      add\n        /* \"#utility.yul\":6914:6960   */\n      swap2\n      pop\n        /* \"#utility.yul\":6704:6966   */\n      pop\n        /* \"#utility.yul\":6622:6966   */\n      swap3\n      swap2\n      pop\n      pop\n      jump\t// out\n        /* \"#utility.yul\":7038:7830   */\n    tag_260:\n        /* \"#utility.yul\":7159:7162   */\n      0x00\n        /* \"#utility.yul\":7195:7199   */\n      0x60\n        /* \"#utility.yul\":7190:7193   */\n      dup4\n        /* \"#utility.yul\":7186:7200   */\n      add\n        /* \"#utility.yul\":7281:7285   */\n      0x00\n        /* \"#utility.yul\":7274:7279   */\n      dup4\n        /* \"#utility.yul\":7270:7286   */\n      add\n        /* \"#utility.yul\":7264:7287   */\n      mload\n        /* \"#utility.yul\":7300:7363   */\n      tag_366\n        /* \"#utility.yul\":7357:7361   */\n      0x00\n        /* \"#utility.yul\":7352:7355   */\n      dup7\n        /* \"#utility.yul\":7348:7362   */\n      add\n        /* \"#utility.yul\":7334:7346   */\n      dup3\n        /* \"#utility.yul\":7300:7363   */\n      tag_256\n      jump\t// in\n    tag_366:\n        /* \"#utility.yul\":7210:7373   */\n      pop\n        /* \"#utility.yul\":7465:7469   */\n      0x20\n        /* \"#utility.yul\":7458:7463   */\n      dup4\n        /* \"#utility.yul\":7454:7470   */\n      add\n        /* \"#utility.yul\":7448:7471   */\n      mload\n        /* \"#utility.yul\":7484:7547   */\n      tag_367\n        /* \"#utility.yul\":7541:7545   */\n      0x20\n        /* \"#utility.yul\":7536:7539   */\n      dup7\n        /* \"#utility.yul\":7532:7546   */\n      add\n        /* \"#utility.yul\":7518:7530   */\n      dup3\n        /* \"#utility.yul\":7484:7547   */\n      tag_257\n      jump\t// in\n    tag_367:\n        /* \"#utility.yul\":7383:7557   */\n      pop\n        /* \"#utility.yul\":7640:7644   */\n      0x40\n        /* \"#utility.yul\":7633:7638   */\n      dup4\n        /* \"#utility.yul\":7629:7645   */\n      add\n        /* \"#utility.yul\":7623:7646   */\n      mload\n        /* \"#utility.yul\":7693:7696   */\n      dup5\n        /* \"#utility.yul\":7687:7691   */\n      dup3\n        /* \"#utility.yul\":7683:7697   */\n      sub\n        /* \"#utility.yul\":7676:7680   */\n      0x40\n        /* \"#utility.yul\":7671:7674   */\n      dup7\n        /* \"#utility.yul\":7667:7681   */\n      add\n        /* \"#utility.yul\":7660:7698   */\n      mstore\n        /* \"#utility.yul\":7719:7792   */\n      tag_368\n        /* \"#utility.yul\":7787:7791   */\n      dup3\n        /* \"#utility.yul\":7773:7785   */\n      dup3\n        /* \"#utility.yul\":7719:7792   */\n      tag_259\n      jump\t// in\n    tag_368:\n        /* \"#utility.yul\":7711:7792   */\n      swap2\n      pop\n        /* \"#utility.yul\":7567:7803   */\n      pop\n        /* \"#utility.yul\":7820:7824   */\n      dup1\n        /* \"#utility.yul\":7813:7824   */\n      swap2\n      pop\n        /* \"#utility.yul\":7164:7830   */\n      pop\n        /* \"#utility.yul\":7038:7830   */\n      swap3\n      swap2\n      pop\n      pop\n      jump\t// out\n        /* \"#utility.yul\":7836:8116   */\n    tag_261:\n        /* \"#utility.yul\":7967:7977   */\n      0x00\n        /* \"#utility.yul\":8002:8110   */\n      tag_370\n        /* \"#utility.yul\":8106:8109   */\n      dup4\n        /* \"#utility.yul\":8098:8104   */\n      dup4\n        /* \"#utility.yul\":8002:8110   */\n      tag_260\n      jump\t// in\n    tag_370:\n        /* \"#utility.yul\":7988:8110   */\n      swap1\n      pop\n        /* \"#utility.yul\":7836:8116   */\n      swap3\n      swap2\n      pop\n      pop\n      jump\t// out\n        /* \"#utility.yul\":8122:8266   */\n    tag_262:\n        /* \"#utility.yul\":8223:8227   */\n      0x00\n        /* \"#utility.yul\":8255:8259   */\n      0x20\n        /* \"#utility.yul\":8250:8253   */\n      dup3\n        /* \"#utility.yul\":8246:8260   */\n      add\n        /* \"#utility.yul\":8238:8260   */\n      swap1\n      pop\n        /* \"#utility.yul\":8122:8266   */\n      swap2\n      swap1\n      pop\n      jump\t// out\n        /* \"#utility.yul\":8342:9501   */\n    tag_263:\n        /* \"#utility.yul\":8523:8526   */\n      0x00\n        /* \"#utility.yul\":8552:8637   */\n      tag_373\n        /* \"#utility.yul\":8631:8636   */\n      dup3\n        /* \"#utility.yul\":8552:8637   */\n      tag_253\n      jump\t// in\n    tag_373:\n        /* \"#utility.yul\":8653:8770   */\n      tag_374\n        /* \"#utility.yul\":8763:8769   */\n      dup2\n        /* \"#utility.yul\":8758:8761   */\n      dup6\n        /* \"#utility.yul\":8653:8770   */\n      tag_254\n      jump\t// in\n    tag_374:\n        /* \"#utility.yul\":8646:8770   */\n      swap4\n      pop\n        /* \"#utility.yul\":8796:8799   */\n      dup4\n        /* \"#utility.yul\":8841:8845   */\n      0x20\n        /* \"#utility.yul\":8833:8839   */\n      dup3\n        /* \"#utility.yul\":8829:8846   */\n      mul\n        /* \"#utility.yul\":8824:8827   */\n      dup6\n        /* \"#utility.yul\":8820:8847   */\n      add\n        /* \"#utility.yul\":8871:8958   */\n      tag_375\n        /* \"#utility.yul\":8952:8957   */\n      dup6\n        /* \"#utility.yul\":8871:8958   */\n      tag_255\n      jump\t// in\n    tag_375:\n        /* \"#utility.yul\":8981:8988   */\n      dup1\n        /* \"#utility.yul\":9012:9013   */\n      0x00\n        /* \"#utility.yul\":8997:9456   */\n    tag_376:\n        /* \"#utility.yul\":9022:9028   */\n      dup6\n        /* \"#utility.yul\":9019:9020   */\n      dup2\n        /* \"#utility.yul\":9016:9029   */\n      lt\n        /* \"#utility.yul\":8997:9456   */\n      iszero\n      tag_378\n      jumpi\n        /* \"#utility.yul\":9093:9102   */\n      dup5\n        /* \"#utility.yul\":9087:9091   */\n      dup5\n        /* \"#utility.yul\":9083:9103   */\n      sub\n        /* \"#utility.yul\":9078:9081   */\n      dup10\n        /* \"#utility.yul\":9071:9104   */\n      mstore\n        /* \"#utility.yul\":9144:9150   */\n      dup2\n        /* \"#utility.yul\":9138:9151   */\n      mload\n        /* \"#utility.yul\":9172:9298   */\n      tag_379\n        /* \"#utility.yul\":9293:9297   */\n      dup6\n        /* \"#utility.yul\":9278:9291   */\n      dup3\n        /* \"#utility.yul\":9172:9298   */\n      tag_261\n      jump\t// in\n    tag_379:\n        /* \"#utility.yul\":9164:9298   */\n      swap5\n      pop\n        /* \"#utility.yul\":9321:9412   */\n      tag_380\n        /* \"#utility.yul\":9405:9411   */\n      dup4\n        /* \"#utility.yul\":9321:9412   */\n      tag_262\n      jump\t// in\n    tag_380:\n        /* \"#utility.yul\":9311:9412   */\n      swap3\n      pop\n        /* \"#utility.yul\":9441:9445   */\n      0x20\n        /* \"#utility.yul\":9436:9439   */\n      dup11\n        /* \"#utility.yul\":9432:9446   */\n      add\n        /* \"#utility.yul\":9425:9446   */\n      swap10\n      pop\n        /* \"#utility.yul\":9057:9456   */\n      pop\n        /* \"#utility.yul\":9044:9045   */\n      0x01\n        /* \"#utility.yul\":9041:9042   */\n      dup2\n        /* \"#utility.yul\":9037:9046   */\n      add\n        /* \"#utility.yul\":9032:9046   */\n      swap1\n      pop\n        /* \"#utility.yul\":8997:9456   */\n      jump(tag_376)\n    tag_378:\n        /* \"#utility.yul\":9001:9015   */\n      pop\n        /* \"#utility.yul\":9472:9476   */\n      dup3\n        /* \"#utility.yul\":9465:9476   */\n      swap8\n      pop\n        /* \"#utility.yul\":9492:9495   */\n      dup8\n        /* \"#utility.yul\":9485:9495   */\n      swap6\n      pop\n        /* \"#utility.yul\":8528:9501   */\n      pop\n      pop\n      pop\n      pop\n      pop\n        /* \"#utility.yul\":8342:9501   */\n      swap3\n      swap2\n      pop\n      pop\n      jump\t// out\n        /* \"#utility.yul\":9507:10004   */\n    tag_38:\n        /* \"#utility.yul\":9712:9716   */\n      0x00\n        /* \"#utility.yul\":9750:9752   */\n      0x20\n        /* \"#utility.yul\":9739:9748   */\n      dup3\n        /* \"#utility.yul\":9735:9753   */\n      add\n        /* \"#utility.yul\":9727:9753   */\n      swap1\n      pop\n        /* \"#utility.yul\":9799:9808   */\n      dup2\n        /* \"#utility.yul\":9793:9797   */\n      dup2\n        /* \"#utility.yul\":9789:9809   */\n      sub\n        /* \"#utility.yul\":9785:9786   */\n      0x00\n        /* \"#utility.yul\":9774:9783   */\n      dup4\n        /* \"#utility.yul\":9770:9787   */\n      add\n        /* \"#utility.yul\":9763:9810   */\n      mstore\n        /* \"#utility.yul\":9827:9997   */\n      tag_382\n        /* \"#utility.yul\":9992:9996   */\n      dup2\n        /* \"#utility.yul\":9983:9989   */\n      dup5\n        /* \"#utility.yul\":9827:9997   */\n      tag_263\n      jump\t// in\n    tag_382:\n        /* \"#utility.yul\":9819:9997   */\n      swap1\n      pop\n        /* \"#utility.yul\":9507:10004   */\n      swap3\n      swap2\n      pop\n      pop\n      jump\t// out\n        /* \"#utility.yul\":10010:10124   */\n    tag_264:\n        /* \"#utility.yul\":10077:10083   */\n      0x00\n        /* \"#utility.yul\":10111:10116   */\n      dup2\n        /* \"#utility.yul\":10105:10117   */\n      mload\n        /* \"#utility.yul\":10095:10117   */\n      swap1\n      pop\n        /* \"#utility.yul\":10010:10124   */\n      swap2\n      swap1\n      pop\n      jump\t// out\n        /* \"#utility.yul\":10130:10314   */\n    tag_265:\n        /* \"#utility.yul\":10229:10240   */\n      0x00\n        /* \"#utility.yul\":10263:10269   */\n      dup3\n        /* \"#utility.yul\":10258:10261   */\n      dup3\n        /* \"#utility.yul\":10251:10270   */\n      mstore\n        /* \"#utility.yul\":10303:10307   */\n      0x20\n        /* \"#utility.yul\":10298:10301   */\n      dup3\n        /* \"#utility.yul\":10294:10308   */\n      add\n        /* \"#utility.yul\":10279:10308   */\n      swap1\n      pop\n        /* \"#utility.yul\":10130:10314   */\n      swap3\n      swap2\n      pop\n      pop\n      jump\t// out\n        /* \"#utility.yul\":10320:10452   */\n    tag_266:\n        /* \"#utility.yul\":10387:10391   */\n      0x00\n        /* \"#utility.yul\":10410:10413   */\n      dup2\n        /* \"#utility.yul\":10402:10413   */\n      swap1\n      pop\n        /* \"#utility.yul\":10440:10444   */\n      0x20\n        /* \"#utility.yul\":10435:10438   */\n      dup3\n        /* \"#utility.yul\":10431:10445   */\n      add\n        /* \"#utility.yul\":10423:10445   */\n      swap1\n      pop\n        /* \"#utility.yul\":10320:10452   */\n      swap2\n      swap1\n      pop\n      jump\t// out\n        /* \"#utility.yul\":10458:10637   */\n    tag_267:\n        /* \"#utility.yul\":10527:10537   */\n      0x00\n        /* \"#utility.yul\":10548:10594   */\n      tag_387\n        /* \"#utility.yul\":10590:10593   */\n      dup4\n        /* \"#utility.yul\":10582:10588   */\n      dup4\n        /* \"#utility.yul\":10548:10594   */\n      tag_257\n      jump\t// in\n    tag_387:\n        /* \"#utility.yul\":10626:10630   */\n      0x20\n        /* \"#utility.yul\":10621:10624   */\n      dup4\n        /* \"#utility.yul\":10617:10631   */\n      add\n        /* \"#utility.yul\":10603:10631   */\n      swap1\n      pop\n        /* \"#utility.yul\":10458:10637   */\n      swap3\n      swap2\n      pop\n      pop\n      jump\t// out\n        /* \"#utility.yul\":10643:10756   */\n    tag_268:\n        /* \"#utility.yul\":10713:10717   */\n      0x00\n        /* \"#utility.yul\":10745:10749   */\n      0x20\n        /* \"#utility.yul\":10740:10743   */\n      dup3\n        /* \"#utility.yul\":10736:10750   */\n      add\n        /* \"#utility.yul\":10728:10750   */\n      swap1\n      pop\n        /* \"#utility.yul\":10643:10756   */\n      swap2\n      swap1\n      pop\n      jump\t// out\n        /* \"#utility.yul\":10792:11524   */\n    tag_269:\n        /* \"#utility.yul\":10911:10914   */\n      0x00\n        /* \"#utility.yul\":10940:10994   */\n      tag_390\n        /* \"#utility.yul\":10988:10993   */\n      dup3\n        /* \"#utility.yul\":10940:10994   */\n      tag_264\n      jump\t// in\n    tag_390:\n        /* \"#utility.yul\":11010:11096   */\n      tag_391\n        /* \"#utility.yul\":11089:11095   */\n      dup2\n        /* \"#utility.yul\":11084:11087   */\n      dup6\n        /* \"#utility.yul\":11010:11096   */\n      tag_265\n      jump\t// in\n    tag_391:\n        /* \"#utility.yul\":11003:11096   */\n      swap4\n      pop\n        /* \"#utility.yul\":11120:11176   */\n      tag_392\n        /* \"#utility.yul\":11170:11175   */\n      dup4\n        /* \"#utility.yul\":11120:11176   */\n      tag_266\n      jump\t// in\n    tag_392:\n        /* \"#utility.yul\":11199:11206   */\n      dup1\n        /* \"#utility.yul\":11230:11231   */\n      0x00\n        /* \"#utility.yul\":11215:11499   */\n    tag_393:\n        /* \"#utility.yul\":11240:11246   */\n      dup4\n        /* \"#utility.yul\":11237:11238   */\n      dup2\n        /* \"#utility.yul\":11234:11247   */\n      lt\n        /* \"#utility.yul\":11215:11499   */\n      iszero\n      tag_395\n      jumpi\n        /* \"#utility.yul\":11316:11322   */\n      dup2\n        /* \"#utility.yul\":11310:11323   */\n      mload\n        /* \"#utility.yul\":11343:11406   */\n      tag_396\n        /* \"#utility.yul\":11402:11405   */\n      dup9\n        /* \"#utility.yul\":11387:11400   */\n      dup3\n        /* \"#utility.yul\":11343:11406   */\n      tag_267\n      jump\t// in\n    tag_396:\n        /* \"#utility.yul\":11336:11406   */\n      swap8\n      pop\n        /* \"#utility.yul\":11429:11489   */\n      tag_397\n        /* \"#utility.yul\":11482:11488   */\n      dup4\n        /* \"#utility.yul\":11429:11489   */\n      tag_268\n      jump\t// in\n    tag_397:\n        /* \"#utility.yul\":11419:11489   */\n      swap3\n      pop\n        /* \"#utility.yul\":11275:11499   */\n      pop\n        /* \"#utility.yul\":11262:11263   */\n      0x01\n        /* \"#utility.yul\":11259:11260   */\n      dup2\n        /* \"#utility.yul\":11255:11264   */\n      add\n        /* \"#utility.yul\":11250:11264   */\n      swap1\n      pop\n        /* \"#utility.yul\":11215:11499   */\n      jump(tag_393)\n    tag_395:\n        /* \"#utility.yul\":11219:11233   */\n      pop\n        /* \"#utility.yul\":11515:11518   */\n      dup6\n        /* \"#utility.yul\":11508:11518   */\n      swap4\n      pop\n        /* \"#utility.yul\":10916:11524   */\n      pop\n      pop\n      pop\n        /* \"#utility.yul\":10792:11524   */\n      swap3\n      swap2\n      pop\n      pop\n      jump\t// out\n        /* \"#utility.yul\":11530:11903   */\n    tag_46:\n        /* \"#utility.yul\":11673:11677   */\n      0x00\n        /* \"#utility.yul\":11711:11713   */\n      0x20\n        /* \"#utility.yul\":11700:11709   */\n      dup3\n        /* \"#utility.yul\":11696:11714   */\n      add\n        /* \"#utility.yul\":11688:11714   */\n      swap1\n      pop\n        /* \"#utility.yul\":11760:11769   */\n      dup2\n        /* \"#utility.yul\":11754:11758   */\n      dup2\n        /* \"#utility.yul\":11750:11770   */\n      sub\n        /* \"#utility.yul\":11746:11747   */\n      0x00\n        /* \"#utility.yul\":11735:11744   */\n      dup4\n        /* \"#utility.yul\":11731:11748   */\n      add\n        /* \"#utility.yul\":11724:11771   */\n      mstore\n        /* \"#utility.yul\":11788:11896   */\n      tag_399\n        /* \"#utility.yul\":11891:11895   */\n      dup2\n        /* \"#utility.yul\":11882:11888   */\n      dup5\n        /* \"#utility.yul\":11788:11896   */\n      tag_269\n      jump\t// in\n    tag_399:\n        /* \"#utility.yul\":11780:11896   */\n      swap1\n      pop\n        /* \"#utility.yul\":11530:11903   */\n      swap3\n      swap2\n      pop\n      pop\n      jump\t// out\n        /* \"#utility.yul\":11909:12238   */\n    tag_51:\n        /* \"#utility.yul\":11968:11974   */\n      0x00\n        /* \"#utility.yul\":12017:12019   */\n      0x20\n        /* \"#utility.yul\":12005:12014   */\n      dup3\n        /* \"#utility.yul\":11996:12003   */\n      dup5\n        /* \"#utility.yul\":11992:12015   */\n      sub\n        /* \"#utility.yul\":11988:12020   */\n      slt\n        /* \"#utility.yul\":11985:12104   */\n      iszero\n      tag_401\n      jumpi\n        /* \"#utility.yul\":12023:12102   */\n      tag_402\n      tag_230\n      jump\t// in\n    tag_402:\n        /* \"#utility.yul\":11985:12104   */\n    tag_401:\n        /* \"#utility.yul\":12143:12144   */\n      0x00\n        /* \"#utility.yul\":12168:12221   */\n      tag_403\n        /* \"#utility.yul\":12213:12220   */\n      dup5\n        /* \"#utility.yul\":12204:12210   */\n      dup3\n        /* \"#utility.yul\":12193:12202   */\n      dup6\n        /* \"#utility.yul\":12189:12211   */\n      add\n        /* \"#utility.yul\":12168:12221   */\n      tag_243\n      jump\t// in\n    tag_403:\n        /* \"#utility.yul\":12158:12221   */\n      swap2\n      pop\n        /* \"#utility.yul\":12114:12231   */\n      pop\n        /* \"#utility.yul\":11909:12238   */\n      swap3\n      swap2\n      pop\n      pop\n      jump\t// out\n        /* \"#utility.yul\":12244:12362   */\n    tag_270:\n        /* \"#utility.yul\":12331:12355   */\n      tag_405\n        /* \"#utility.yul\":12349:12354   */\n      dup2\n        /* \"#utility.yul\":12331:12355   */\n      tag_233\n      jump\t// in\n    tag_405:\n        /* \"#utility.yul\":12326:12329   */\n      dup3\n        /* \"#utility.yul\":12319:12356   */\n      mstore\n        /* \"#utility.yul\":12244:12362   */\n      pop\n      pop\n      jump\t// out\n        /* \"#utility.yul\":12368:12590   */\n    tag_54:\n        /* \"#utility.yul\":12461:12465   */\n      0x00\n        /* \"#utility.yul\":12499:12501   */\n      0x20\n        /* \"#utility.yul\":12488:12497   */\n      dup3\n        /* \"#utility.yul\":12484:12502   */\n      add\n        /* \"#utility.yul\":12476:12502   */\n      swap1\n      pop\n        /* \"#utility.yul\":12512:12583   */\n      tag_407\n        /* \"#utility.yul\":12580:12581   */\n      0x00\n        /* \"#utility.yul\":12569:12578   */\n      dup4\n        /* \"#utility.yul\":12565:12582   */\n      add\n        /* \"#utility.yul\":12556:12562   */\n      dup5\n        /* \"#utility.yul\":12512:12583   */\n      tag_270\n      jump\t// in\n    tag_407:\n        /* \"#utility.yul\":12368:12590   */\n      swap3\n      swap2\n      pop\n      pop\n      jump\t// out\n        /* \"#utility.yul\":12596:12714   */\n    tag_271:\n        /* \"#utility.yul\":12683:12707   */\n      tag_409\n        /* \"#utility.yul\":12701:12706   */\n      dup2\n        /* \"#utility.yul\":12683:12707   */\n      tag_241\n      jump\t// in\n    tag_409:\n        /* \"#utility.yul\":12678:12681   */\n      dup3\n        /* \"#utility.yul\":12671:12708   */\n      mstore\n        /* \"#utility.yul\":12596:12714   */\n      pop\n      pop\n      jump\t// out\n        /* \"#utility.yul\":12720:13253   */\n    tag_65:\n        /* \"#utility.yul\":12889:12893   */\n      0x00\n        /* \"#utility.yul\":12927:12929   */\n      0x60\n        /* \"#utility.yul\":12916:12925   */\n      dup3\n        /* \"#utility.yul\":12912:12930   */\n      add\n        /* \"#utility.yul\":12904:12930   */\n      swap1\n      pop\n        /* \"#utility.yul\":12940:13011   */\n      tag_411\n        /* \"#utility.yul\":13008:13009   */\n      0x00\n        /* \"#utility.yul\":12997:13006   */\n      dup4\n        /* \"#utility.yul\":12993:13010   */\n      add\n        /* \"#utility.yul\":12984:12990   */\n      dup7\n        /* \"#utility.yul\":12940:13011   */\n      tag_271\n      jump\t// in\n    tag_411:\n        /* \"#utility.yul\":13021:13093   */\n      tag_412\n        /* \"#utility.yul\":13089:13091   */\n      0x20\n        /* \"#utility.yul\":13078:13087   */\n      dup4\n        /* \"#utility.yul\":13074:13092   */\n      add\n        /* \"#utility.yul\":13065:13071   */\n      dup6\n        /* \"#utility.yul\":13021:13093   */\n      tag_270\n      jump\t// in\n    tag_412:\n        /* \"#utility.yul\":13140:13149   */\n      dup2\n        /* \"#utility.yul\":13134:13138   */\n      dup2\n        /* \"#utility.yul\":13130:13150   */\n      sub\n        /* \"#utility.yul\":13125:13127   */\n      0x40\n        /* \"#utility.yul\":13114:13123   */\n      dup4\n        /* \"#utility.yul\":13110:13128   */\n      add\n        /* \"#utility.yul\":13103:13151   */\n      mstore\n        /* \"#utility.yul\":13168:13246   */\n      tag_413\n        /* \"#utility.yul\":13241:13245   */\n      dup2\n        /* \"#utility.yul\":13232:13238   */\n      dup5\n        /* \"#utility.yul\":13168:13246   */\n      tag_240\n      jump\t// in\n    tag_413:\n        /* \"#utility.yul\":13160:13246   */\n      swap1\n      pop\n        /* \"#utility.yul\":12720:13253   */\n      swap5\n      swap4\n      pop\n      pop\n      pop\n      pop\n      jump\t// out\n        /* \"#utility.yul\":13259:14093   */\n    tag_71:\n        /* \"#utility.yul\":13347:13353   */\n      0x00\n        /* \"#utility.yul\":13355:13361   */\n      dup1\n        /* \"#utility.yul\":13404:13406   */\n      0x40\n        /* \"#utility.yul\":13392:13401   */\n      dup4\n        /* \"#utility.yul\":13383:13390   */\n      dup6\n        /* \"#utility.yul\":13379:13402   */\n      sub\n        /* \"#utility.yul\":13375:13407   */\n      slt\n        /* \"#utility.yul\":13372:13491   */\n      iszero\n      tag_415\n      jumpi\n        /* \"#utility.yul\":13410:13489   */\n      tag_416\n      tag_230\n      jump\t// in\n    tag_416:\n        /* \"#utility.yul\":13372:13491   */\n    tag_415:\n        /* \"#utility.yul\":13558:13559   */\n      0x00\n        /* \"#utility.yul\":13547:13556   */\n      dup4\n        /* \"#utility.yul\":13543:13560   */\n      add\n        /* \"#utility.yul\":13530:13561   */\n      calldataload\n        /* \"#utility.yul\":13588:13606   */\n      0xffffffffffffffff\n        /* \"#utility.yul\":13580:13586   */\n      dup2\n        /* \"#utility.yul\":13577:13607   */\n      gt\n        /* \"#utility.yul\":13574:13691   */\n      iszero\n      tag_417\n      jumpi\n        /* \"#utility.yul\":13610:13689   */\n      tag_418\n      tag_231\n      jump\t// in\n    tag_418:\n        /* \"#utility.yul\":13574:13691   */\n    tag_417:\n        /* \"#utility.yul\":13715:13778   */\n      tag_419\n        /* \"#utility.yul\":13770:13777   */\n      dup6\n        /* \"#utility.yul\":13761:13767   */\n      dup3\n        /* \"#utility.yul\":13750:13759   */\n      dup7\n        /* \"#utility.yul\":13746:13768   */\n      add\n        /* \"#utility.yul\":13715:13778   */\n      tag_252\n      jump\t// in\n    tag_419:\n        /* \"#utility.yul\":13705:13778   */\n      swap3\n      pop\n        /* \"#utility.yul\":13501:13788   */\n      pop\n        /* \"#utility.yul\":13855:13857   */\n      0x20\n        /* \"#utility.yul\":13844:13853   */\n      dup4\n        /* \"#utility.yul\":13840:13858   */\n      add\n        /* \"#utility.yul\":13827:13859   */\n      calldataload\n        /* \"#utility.yul\":13886:13904   */\n      0xffffffffffffffff\n        /* \"#utility.yul\":13878:13884   */\n      dup2\n        /* \"#utility.yul\":13875:13905   */\n      gt\n        /* \"#utility.yul\":13872:13989   */\n      iszero\n      tag_420\n      jumpi\n        /* \"#utility.yul\":13908:13987   */\n      tag_421\n      tag_231\n      jump\t// in\n    tag_421:\n        /* \"#utility.yul\":13872:13989   */\n    tag_420:\n        /* \"#utility.yul\":14013:14076   */\n      tag_422\n        /* \"#utility.yul\":14068:14075   */\n      dup6\n        /* \"#utility.yul\":14059:14065   */\n      dup3\n        /* \"#utility.yul\":14048:14057   */\n      dup7\n        /* \"#utility.yul\":14044:14066   */\n      add\n        /* \"#utility.yul\":14013:14076   */\n      tag_252\n      jump\t// in\n    tag_422:\n        /* \"#utility.yul\":14003:14076   */\n      swap2\n      pop\n        /* \"#utility.yul\":13798:14086   */\n      pop\n        /* \"#utility.yul\":13259:14093   */\n      swap3\n      pop\n      swap3\n      swap1\n      pop\n      jump\t// out\n        /* \"#utility.yul\":14099:14632   */\n    tag_77:\n        /* \"#utility.yul\":14268:14272   */\n      0x00\n        /* \"#utility.yul\":14306:14308   */\n      0x60\n        /* \"#utility.yul\":14295:14304   */\n      dup3\n        /* \"#utility.yul\":14291:14309   */\n      add\n        /* \"#utility.yul\":14283:14309   */\n      swap1\n      pop\n        /* \"#utility.yul\":14319:14390   */\n      tag_424\n        /* \"#utility.yul\":14387:14388   */\n      0x00\n        /* \"#utility.yul\":14376:14385   */\n      dup4\n        /* \"#utility.yul\":14372:14389   */\n      add\n        /* \"#utility.yul\":14363:14369   */\n      dup7\n        /* \"#utility.yul\":14319:14390   */\n      tag_270\n      jump\t// in\n    tag_424:\n        /* \"#utility.yul\":14400:14472   */\n      tag_425\n        /* \"#utility.yul\":14468:14470   */\n      0x20\n        /* \"#utility.yul\":14457:14466   */\n      dup4\n        /* \"#utility.yul\":14453:14471   */\n      add\n        /* \"#utility.yul\":14444:14450   */\n      dup6\n        /* \"#utility.yul\":14400:14472   */\n      tag_271\n      jump\t// in\n    tag_425:\n        /* \"#utility.yul\":14519:14528   */\n      dup2\n        /* \"#utility.yul\":14513:14517   */\n      dup2\n        /* \"#utility.yul\":14509:14529   */\n      sub\n        /* \"#utility.yul\":14504:14506   */\n      0x40\n        /* \"#utility.yul\":14493:14502   */\n      dup4\n        /* \"#utility.yul\":14489:14507   */\n      add\n        /* \"#utility.yul\":14482:14530   */\n      mstore\n        /* \"#utility.yul\":14547:14625   */\n      tag_426\n        /* \"#utility.yul\":14620:14624   */\n      dup2\n        /* \"#utility.yul\":14611:14617   */\n      dup5\n        /* \"#utility.yul\":14547:14625   */\n      tag_240\n      jump\t// in\n    tag_426:\n        /* \"#utility.yul\":14539:14625   */\n      swap1\n      pop\n        /* \"#utility.yul\":14099:14632   */\n      swap5\n      swap4\n      pop\n      pop\n      pop\n      pop\n      jump\t// out\n        /* \"#utility.yul\":14638:15147   */\n    tag_83:\n        /* \"#utility.yul\":14707:14713   */\n      0x00\n        /* \"#utility.yul\":14756:14758   */\n      0x20\n        /* \"#utility.yul\":14744:14753   */\n      dup3\n        /* \"#utility.yul\":14735:14742   */\n      dup5\n        /* \"#utility.yul\":14731:14754   */\n      sub\n        /* \"#utility.yul\":14727:14759   */\n      slt\n        /* \"#utility.yul\":14724:14843   */\n      iszero\n      tag_428\n      jumpi\n        /* \"#utility.yul\":14762:14841   */\n      tag_429\n      tag_230\n      jump\t// in\n    tag_429:\n        /* \"#utility.yul\":14724:14843   */\n    tag_428:\n        /* \"#utility.yul\":14910:14911   */\n      0x00\n        /* \"#utility.yul\":14899:14908   */\n      dup3\n        /* \"#utility.yul\":14895:14912   */\n      add\n        /* \"#utility.yul\":14882:14913   */\n      calldataload\n        /* \"#utility.yul\":14940:14958   */\n      0xffffffffffffffff\n        /* \"#utility.yul\":14932:14938   */\n      dup2\n        /* \"#utility.yul\":14929:14959   */\n      gt\n        /* \"#utility.yul\":14926:15043   */\n      iszero\n      tag_430\n      jumpi\n        /* \"#utility.yul\":14962:15041   */\n      tag_431\n      tag_231\n      jump\t// in\n    tag_431:\n        /* \"#utility.yul\":14926:15043   */\n    tag_430:\n        /* \"#utility.yul\":15067:15130   */\n      tag_432\n        /* \"#utility.yul\":15122:15129   */\n      dup5\n        /* \"#utility.yul\":15113:15119   */\n      dup3\n        /* \"#utility.yul\":15102:15111   */\n      dup6\n        /* \"#utility.yul\":15098:15120   */\n      add\n        /* \"#utility.yul\":15067:15130   */\n      tag_252\n      jump\t// in\n    tag_432:\n        /* \"#utility.yul\":15057:15130   */\n      swap2\n      pop\n        /* \"#utility.yul\":14853:15140   */\n      pop\n        /* \"#utility.yul\":14638:15147   */\n      swap3\n      swap2\n      pop\n      pop\n      jump\t// out\n        /* \"#utility.yul\":15153:15289   */\n    tag_272:\n        /* \"#utility.yul\":15242:15248   */\n      0x00\n        /* \"#utility.yul\":15276:15281   */\n      dup2\n        /* \"#utility.yul\":15270:15282   */\n      mload\n        /* \"#utility.yul\":15260:15282   */\n      swap1\n      pop\n        /* \"#utility.yul\":15153:15289   */\n      swap2\n      swap1\n      pop\n      jump\t// out\n        /* \"#utility.yul\":15295:15501   */\n    tag_273:\n        /* \"#utility.yul\":15416:15427   */\n      0x00\n        /* \"#utility.yul\":15450:15456   */\n      dup3\n        /* \"#utility.yul\":15445:15448   */\n      dup3\n        /* \"#utility.yul\":15438:15457   */\n      mstore\n        /* \"#utility.yul\":15490:15494   */\n      0x20\n        /* \"#utility.yul\":15485:15488   */\n      dup3\n        /* \"#utility.yul\":15481:15495   */\n      add\n        /* \"#utility.yul\":15466:15495   */\n      swap1\n      pop\n        /* \"#utility.yul\":15295:15501   */\n      swap3\n      swap2\n      pop\n      pop\n      jump\t// out\n        /* \"#utility.yul\":15507:15661   */\n    tag_274:\n        /* \"#utility.yul\":15596:15600   */\n      0x00\n        /* \"#utility.yul\":15619:15622   */\n      dup2\n        /* \"#utility.yul\":15611:15622   */\n      swap1\n      pop\n        /* \"#utility.yul\":15649:15653   */\n      0x20\n        /* \"#utility.yul\":15644:15647   */\n      dup3\n        /* \"#utility.yul\":15640:15654   */\n      add\n        /* \"#utility.yul\":15632:15654   */\n      swap1\n      pop\n        /* \"#utility.yul\":15507:15661   */\n      swap2\n      swap1\n      pop\n      jump\t// out\n        /* \"#utility.yul\":15715:16488   */\n    tag_275:\n        /* \"#utility.yul\":15818:15821   */\n      0x00\n        /* \"#utility.yul\":15854:15858   */\n      0x60\n        /* \"#utility.yul\":15849:15852   */\n      dup4\n        /* \"#utility.yul\":15845:15859   */\n      add\n        /* \"#utility.yul\":15950:15954   */\n      0x00\n        /* \"#utility.yul\":15943:15948   */\n      dup4\n        /* \"#utility.yul\":15939:15955   */\n      add\n        /* \"#utility.yul\":15933:15956   */\n      mload\n        /* \"#utility.yul\":15969:16032   */\n      tag_437\n        /* \"#utility.yul\":16026:16030   */\n      0x00\n        /* \"#utility.yul\":16021:16024   */\n      dup7\n        /* \"#utility.yul\":16017:16031   */\n      add\n        /* \"#utility.yul\":16003:16015   */\n      dup3\n        /* \"#utility.yul\":15969:16032   */\n      tag_257\n      jump\t// in\n    tag_437:\n        /* \"#utility.yul\":15869:16042   */\n      pop\n        /* \"#utility.yul\":16123:16127   */\n      0x20\n        /* \"#utility.yul\":16116:16121   */\n      dup4\n        /* \"#utility.yul\":16112:16128   */\n      add\n        /* \"#utility.yul\":16106:16129   */\n      mload\n        /* \"#utility.yul\":16142:16205   */\n      tag_438\n        /* \"#utility.yul\":16199:16203   */\n      0x20\n        /* \"#utility.yul\":16194:16197   */\n      dup7\n        /* \"#utility.yul\":16190:16204   */\n      add\n        /* \"#utility.yul\":16176:16188   */\n      dup3\n        /* \"#utility.yul\":16142:16205   */\n      tag_256\n      jump\t// in\n    tag_438:\n        /* \"#utility.yul\":16052:16215   */\n      pop\n        /* \"#utility.yul\":16298:16302   */\n      0x40\n        /* \"#utility.yul\":16291:16296   */\n      dup4\n        /* \"#utility.yul\":16287:16303   */\n      add\n        /* \"#utility.yul\":16281:16304   */\n      mload\n        /* \"#utility.yul\":16351:16354   */\n      dup5\n        /* \"#utility.yul\":16345:16349   */\n      dup3\n        /* \"#utility.yul\":16341:16355   */\n      sub\n        /* \"#utility.yul\":16334:16338   */\n      0x40\n        /* \"#utility.yul\":16329:16332   */\n      dup7\n        /* \"#utility.yul\":16325:16339   */\n      add\n        /* \"#utility.yul\":16318:16356   */\n      mstore\n        /* \"#utility.yul\":16377:16450   */\n      tag_439\n        /* \"#utility.yul\":16445:16449   */\n      dup3\n        /* \"#utility.yul\":16431:16443   */\n      dup3\n        /* \"#utility.yul\":16377:16450   */\n      tag_259\n      jump\t// in\n    tag_439:\n        /* \"#utility.yul\":16369:16450   */\n      swap2\n      pop\n        /* \"#utility.yul\":16225:16461   */\n      pop\n        /* \"#utility.yul\":16478:16482   */\n      dup1\n        /* \"#utility.yul\":16471:16482   */\n      swap2\n      pop\n        /* \"#utility.yul\":15823:16488   */\n      pop\n        /* \"#utility.yul\":15715:16488   */\n      swap3\n      swap2\n      pop\n      pop\n      jump\t// out\n        /* \"#utility.yul\":16494:16738   */\n    tag_276:\n        /* \"#utility.yul\":16607:16617   */\n      0x00\n        /* \"#utility.yul\":16642:16732   */\n      tag_441\n        /* \"#utility.yul\":16728:16731   */\n      dup4\n        /* \"#utility.yul\":16720:16726   */\n      dup4\n        /* \"#utility.yul\":16642:16732   */\n      tag_275\n      jump\t// in\n    tag_441:\n        /* \"#utility.yul\":16628:16732   */\n      swap1\n      pop\n        /* \"#utility.yul\":16494:16738   */\n      swap3\n      swap2\n      pop\n      pop\n      jump\t// out\n        /* \"#utility.yul\":16744:16879   */\n    tag_277:\n        /* \"#utility.yul\":16836:16840   */\n      0x00\n        /* \"#utility.yul\":16868:16872   */\n      0x20\n        /* \"#utility.yul\":16863:16866   */\n      dup3\n        /* \"#utility.yul\":16859:16873   */\n      add\n        /* \"#utility.yul\":16851:16873   */\n      swap1\n      pop\n        /* \"#utility.yul\":16744:16879   */\n      swap2\n      swap1\n      pop\n      jump\t// out\n        /* \"#utility.yul\":16937:18024   */\n    tag_278:\n        /* \"#utility.yul\":17100:17103   */\n      0x00\n        /* \"#utility.yul\":17129:17205   */\n      tag_444\n        /* \"#utility.yul\":17199:17204   */\n      dup3\n        /* \"#utility.yul\":17129:17205   */\n      tag_272\n      jump\t// in\n    tag_444:\n        /* \"#utility.yul\":17221:17329   */\n      tag_445\n        /* \"#utility.yul\":17322:17328   */\n      dup2\n        /* \"#utility.yul\":17317:17320   */\n      dup6\n        /* \"#utility.yul\":17221:17329   */\n      tag_273\n      jump\t// in\n    tag_445:\n        /* \"#utility.yul\":17214:17329   */\n      swap4\n      pop\n        /* \"#utility.yul\":17355:17358   */\n      dup4\n        /* \"#utility.yul\":17400:17404   */\n      0x20\n        /* \"#utility.yul\":17392:17398   */\n      dup3\n        /* \"#utility.yul\":17388:17405   */\n      mul\n        /* \"#utility.yul\":17383:17386   */\n      dup6\n        /* \"#utility.yul\":17379:17406   */\n      add\n        /* \"#utility.yul\":17430:17508   */\n      tag_446\n        /* \"#utility.yul\":17502:17507   */\n      dup6\n        /* \"#utility.yul\":17430:17508   */\n      tag_274\n      jump\t// in\n    tag_446:\n        /* \"#utility.yul\":17531:17538   */\n      dup1\n        /* \"#utility.yul\":17562:17563   */\n      0x00\n        /* \"#utility.yul\":17547:17979   */\n    tag_447:\n        /* \"#utility.yul\":17572:17578   */\n      dup6\n        /* \"#utility.yul\":17569:17570   */\n      dup2\n        /* \"#utility.yul\":17566:17579   */\n      lt\n        /* \"#utility.yul\":17547:17979   */\n      iszero\n      tag_449\n      jumpi\n        /* \"#utility.yul\":17643:17652   */\n      dup5\n        /* \"#utility.yul\":17637:17641   */\n      dup5\n        /* \"#utility.yul\":17633:17653   */\n      sub\n        /* \"#utility.yul\":17628:17631   */\n      dup10\n        /* \"#utility.yul\":17621:17654   */\n      mstore\n        /* \"#utility.yul\":17694:17700   */\n      dup2\n        /* \"#utility.yul\":17688:17701   */\n      mload\n        /* \"#utility.yul\":17722:17830   */\n      tag_450\n        /* \"#utility.yul\":17825:17829   */\n      dup6\n        /* \"#utility.yul\":17810:17823   */\n      dup3\n        /* \"#utility.yul\":17722:17830   */\n      tag_276\n      jump\t// in\n    tag_450:\n        /* \"#utility.yul\":17714:17830   */\n      swap5\n      pop\n        /* \"#utility.yul\":17853:17935   */\n      tag_451\n        /* \"#utility.yul\":17928:17934   */\n      dup4\n        /* \"#utility.yul\":17853:17935   */\n      tag_277\n      jump\t// in\n    tag_451:\n        /* \"#utility.yul\":17843:17935   */\n      swap3\n      pop\n        /* \"#utility.yul\":17964:17968   */\n      0x20\n        /* \"#utility.yul\":17959:17962   */\n      dup11\n        /* \"#utility.yul\":17955:17969   */\n      add\n        /* \"#utility.yul\":17948:17969   */\n      swap10\n      pop\n        /* \"#utility.yul\":17607:17979   */\n      pop\n        /* \"#utility.yul\":17594:17595   */\n      0x01\n        /* \"#utility.yul\":17591:17592   */\n      dup2\n        /* \"#utility.yul\":17587:17596   */\n      add\n        /* \"#utility.yul\":17582:17596   */\n      swap1\n      pop\n        /* \"#utility.yul\":17547:17979   */\n      jump(tag_447)\n    tag_449:\n        /* \"#utility.yul\":17551:17565   */\n      pop\n        /* \"#utility.yul\":17995:17999   */\n      dup3\n        /* \"#utility.yul\":17988:17999   */\n      swap8\n      pop\n        /* \"#utility.yul\":18015:18018   */\n      dup8\n        /* \"#utility.yul\":18008:18018   */\n      swap6\n      pop\n        /* \"#utility.yul\":17105:18024   */\n      pop\n      pop\n      pop\n      pop\n      pop\n        /* \"#utility.yul\":16937:18024   */\n      swap3\n      swap2\n      pop\n      pop\n      jump\t// out\n        /* \"#utility.yul\":18030:18491   */\n    tag_94:\n        /* \"#utility.yul\":18217:18221   */\n      0x00\n        /* \"#utility.yul\":18255:18257   */\n      0x20\n        /* \"#utility.yul\":18244:18253   */\n      dup3\n        /* \"#utility.yul\":18240:18258   */\n      add\n        /* \"#utility.yul\":18232:18258   */\n      swap1\n      pop\n        /* \"#utility.yul\":18304:18313   */\n      dup2\n        /* \"#utility.yul\":18298:18302   */\n      dup2\n        /* \"#utility.yul\":18294:18314   */\n      sub\n        /* \"#utility.yul\":18290:18291   */\n      0x00\n        /* \"#utility.yul\":18279:18288   */\n      dup4\n        /* \"#utility.yul\":18275:18292   */\n      add\n        /* \"#utility.yul\":18268:18315   */\n      mstore\n        /* \"#utility.yul\":18332:18484   */\n      tag_453\n        /* \"#utility.yul\":18479:18483   */\n      dup2\n        /* \"#utility.yul\":18470:18476   */\n      dup5\n        /* \"#utility.yul\":18332:18484   */\n      tag_278\n      jump\t// in\n    tag_453:\n        /* \"#utility.yul\":18324:18484   */\n      swap1\n      pop\n        /* \"#utility.yul\":18030:18491   */\n      swap3\n      swap2\n      pop\n      pop\n      jump\t// out\n        /* \"#utility.yul\":18497:18677   */\n    tag_279:\n        /* \"#utility.yul\":18545:18622   */\n      0x4e487b7100000000000000000000000000000000000000000000000000000000\n        /* \"#utility.yul\":18542:18543   */\n      0x00\n        /* \"#utility.yul\":18535:18623   */\n      mstore\n        /* \"#utility.yul\":18642:18646   */\n      0x22\n        /* \"#utility.yul\":18639:18640   */\n      0x04\n        /* \"#utility.yul\":18632:18647   */\n      mstore\n        /* \"#utility.yul\":18666:18670   */\n      0x24\n        /* \"#utility.yul\":18663:18664   */\n      0x00\n        /* \"#utility.yul\":18656:18671   */\n      revert\n        /* \"#utility.yul\":18683:19003   */\n    tag_99:\n        /* \"#utility.yul\":18727:18733   */\n      0x00\n        /* \"#utility.yul\":18764:18765   */\n      0x02\n        /* \"#utility.yul\":18758:18762   */\n      dup3\n        /* \"#utility.yul\":18754:18766   */\n      div\n        /* \"#utility.yul\":18744:18766   */\n      swap1\n      pop\n        /* \"#utility.yul\":18811:18812   */\n      0x01\n        /* \"#utility.yul\":18805:18809   */\n      dup3\n        /* \"#utility.yul\":18801:18813   */\n      and\n        /* \"#utility.yul\":18832:18850   */\n      dup1\n        /* \"#utility.yul\":18822:18903   */\n      tag_456\n      jumpi\n        /* \"#utility.yul\":18888:18892   */\n      0x7f\n        /* \"#utility.yul\":18880:18886   */\n      dup3\n        /* \"#utility.yul\":18876:18893   */\n      and\n        /* \"#utility.yul\":18866:18893   */\n      swap2\n      pop\n        /* \"#utility.yul\":18822:18903   */\n    tag_456:\n        /* \"#utility.yul\":18950:18952   */\n      0x20\n        /* \"#utility.yul\":18942:18948   */\n      dup3\n        /* \"#utility.yul\":18939:18953   */\n      lt\n        /* \"#utility.yul\":18919:18937   */\n      dup2\n        /* \"#utility.yul\":18916:18954   */\n      sub\n        /* \"#utility.yul\":18913:18997   */\n      tag_457\n      jumpi\n        /* \"#utility.yul\":18969:18987   */\n      tag_458\n      tag_279\n      jump\t// in\n    tag_458:\n        /* \"#utility.yul\":18913:18997   */\n    tag_457:\n        /* \"#utility.yul\":18734:19003   */\n      pop\n        /* \"#utility.yul\":18683:19003   */\n      swap2\n      swap1\n      pop\n      jump\t// out\n        /* \"#utility.yul\":19009:19189   */\n    tag_131:\n        /* \"#utility.yul\":19057:19134   */\n      0x4e487b7100000000000000000000000000000000000000000000000000000000\n        /* \"#utility.yul\":19054:19055   */\n      0x00\n        /* \"#utility.yul\":19047:19135   */\n      mstore\n        /* \"#utility.yul\":19154:19158   */\n      0x32\n        /* \"#utility.yul\":19151:19152   */\n      0x04\n        /* \"#utility.yul\":19144:19159   */\n      mstore\n        /* \"#utility.yul\":19178:19182   */\n      0x24\n        /* \"#utility.yul\":19175:19176   */\n      0x00\n        /* \"#utility.yul\":19168:19183   */\n      revert\n        /* \"#utility.yul\":19195:19375   */\n    tag_280:\n        /* \"#utility.yul\":19243:19320   */\n      0x4e487b7100000000000000000000000000000000000000000000000000000000\n        /* \"#utility.yul\":19240:19241   */\n      0x00\n        /* \"#utility.yul\":19233:19321   */\n      mstore\n        /* \"#utility.yul\":19340:19344   */\n      0x11\n        /* \"#utility.yul\":19337:19338   */\n      0x04\n        /* \"#utility.yul\":19330:19345   */\n      mstore\n        /* \"#utility.yul\":19364:19368   */\n      0x24\n        /* \"#utility.yul\":19361:19362   */\n      0x00\n        /* \"#utility.yul\":19354:19369   */\n      revert\n        /* \"#utility.yul\":19381:19686   */\n    tag_136:\n        /* \"#utility.yul\":19421:19424   */\n      0x00\n        /* \"#utility.yul\":19440:19460   */\n      tag_462\n        /* \"#utility.yul\":19458:19459   */\n      dup3\n        /* \"#utility.yul\":19440:19460   */\n      tag_241\n      jump\t// in\n    tag_462:\n        /* \"#utility.yul\":19435:19460   */\n      swap2\n      pop\n        /* \"#utility.yul\":19474:19494   */\n      tag_463\n        /* \"#utility.yul\":19492:19493   */\n      dup4\n        /* \"#utility.yul\":19474:19494   */\n      tag_241\n      jump\t// in\n    tag_463:\n        /* \"#utility.yul\":19469:19494   */\n      swap3\n      pop\n        /* \"#utility.yul\":19628:19629   */\n      dup3\n        /* \"#utility.yul\":19560:19626   */\n      0xffffffffffffffffffffffffffffffffffffffffffffffffffffffffffffffff\n        /* \"#utility.yul\":19556:19630   */\n      sub\n        /* \"#utility.yul\":19553:19554   */\n      dup3\n        /* \"#utility.yul\":19550:19631   */\n      gt\n        /* \"#utility.yul\":19547:19654   */\n      iszero\n      tag_464\n      jumpi\n        /* \"#utility.yul\":19634:19652   */\n      tag_465\n      tag_280\n      jump\t// in\n    tag_465:\n        /* \"#utility.yul\":19547:19654   */\n    tag_464:\n        /* \"#utility.yul\":19678:19679   */\n      dup3\n        /* \"#utility.yul\":19675:19676   */\n      dup3\n        /* \"#utility.yul\":19671:19680   */\n      add\n        /* \"#utility.yul\":19664:19680   */\n      swap1\n      pop\n        /* \"#utility.yul\":19381:19686   */\n      swap3\n      swap2\n      pop\n      pop\n      jump\t// out\n        /* \"#utility.yul\":19692:19918   */\n    tag_281:\n        /* \"#utility.yul\":19832:19866   */\n      0x4f6e6c792061756374696f6e6565722063616e2063616c6c2074686973206675\n        /* \"#utility.yul\":19828:19829   */\n      0x00\n        /* \"#utility.yul\":19820:19826   */\n      dup3\n        /* \"#utility.yul\":19816:19830   */\n      add\n        /* \"#utility.yul\":19809:19867   */\n      mstore\n        /* \"#utility.yul\":19901:19910   */\n      0x6e6374696f6e2e00000000000000000000000000000000000000000000000000\n        /* \"#utility.yul\":19896:19898   */\n      0x20\n        /* \"#utility.yul\":19888:19894   */\n      dup3\n        /* \"#utility.yul\":19884:19899   */\n      add\n        /* \"#utility.yul\":19877:19911   */\n      mstore\n        /* \"#utility.yul\":19692:19918   */\n      pop\n      jump\t// out\n        /* \"#utility.yul\":19924:20290   */\n    tag_282:\n        /* \"#utility.yul\":20066:20069   */\n      0x00\n        /* \"#utility.yul\":20087:20154   */\n      tag_468\n        /* \"#utility.yul\":20151:20153   */\n      0x27\n        /* \"#utility.yul\":20146:20149   */\n      dup4\n        /* \"#utility.yul\":20087:20154   */\n      tag_237\n      jump\t// in\n    tag_468:\n        /* \"#utility.yul\":20080:20154   */\n      swap2\n      pop\n        /* \"#utility.yul\":20163:20256   */\n      tag_469\n        /* \"#utility.yul\":20252:20255   */\n      dup3\n        /* \"#utility.yul\":20163:20256   */\n      tag_281\n      jump\t// in\n    tag_469:\n        /* \"#utility.yul\":20281:20283   */\n      0x40\n        /* \"#utility.yul\":20276:20279   */\n      dup3\n        /* \"#utility.yul\":20272:20284   */\n      add\n        /* \"#utility.yul\":20265:20284   */\n      swap1\n      pop\n        /* \"#utility.yul\":19924:20290   */\n      swap2\n      swap1\n      pop\n      jump\t// out\n        /* \"#utility.yul\":20296:20715   */\n    tag_160:\n        /* \"#utility.yul\":20462:20466   */\n      0x00\n        /* \"#utility.yul\":20500:20502   */\n      0x20\n        /* \"#utility.yul\":20489:20498   */\n      dup3\n        /* \"#utility.yul\":20485:20503   */\n      add\n        /* \"#utility.yul\":20477:20503   */\n      swap1\n      pop\n        /* \"#utility.yul\":20549:20558   */\n      dup2\n        /* \"#utility.yul\":20543:20547   */\n      dup2\n        /* \"#utility.yul\":20539:20559   */\n      sub\n        /* \"#utility.yul\":20535:20536   */\n      0x00\n        /* \"#utility.yul\":20524:20533   */\n      dup4\n        /* \"#utility.yul\":20520:20537   */\n      add\n        /* \"#utility.yul\":20513:20560   */\n      mstore\n        /* \"#utility.yul\":20577:20708   */\n      tag_471\n        /* \"#utility.yul\":20703:20707   */\n      dup2\n        /* \"#utility.yul\":20577:20708   */\n      tag_282\n      jump\t// in\n    tag_471:\n        /* \"#utility.yul\":20569:20708   */\n      swap1\n      pop\n        /* \"#utility.yul\":20296:20715   */\n      swap2\n      swap1\n      pop\n      jump\t// out\n\n    auxdata: 0xa2646970667358221220d1f608fc073fb5a6d34b2be441ec4a0822ca26d5f74f4cd22f6c6e9960ef426d64736f6c634300080e0033\n}\n",
				"bytecode": {
					"linkReferences": {},
					"object": "608060405234801561001057600080fd5b50611c68806100206000396000f3fe608060405234801561001057600080fd5b50600436106101215760003560e01c80638f772f96116100ad578063ca142b5611610071578063ca142b561461030e578063cff29dfd1461032a578063d826f88f1461035a578063dc6b862714610364578063f356733c1461038257610121565b80638f772f9614610252578063938626c214610284578063a2ebc656146102a2578063a2fb1175146102be578063c9230c5d146102f057610121565b80633a79d2e5116100f45780633a79d2e5146101c057806340bd5937146101de5780635fa38280146101e857806366c85dee1461021857806383050daa1461023457610121565b806305fb23cf146101265780631744e03b1461015657806335abd160146101725780633817df4c14610190575b600080fd5b610140600480360381019061013b9190611299565b61038c565b60405161014d919061135f565b60405180910390f35b610170600480360381019061016b91906114ec565b61045d565b005b61017a610533565b60405161018791906116c2565b60405180910390f35b6101aa60048036038101906101a59190611299565b610684565b6040516101b7919061135f565b60405180910390f35b6101c8610724565b6040516101d59190611793565b60405180910390f35b6101e66107b2565b005b61020260048036038101906101fd91906117b5565b610868565b60405161020f91906117f1565b60405180910390f35b610232600480360381019061022d91906114ec565b6108b0565b005b61023c610986565b604051610249919061135f565b60405180910390f35b61026c600480360381019061026791906117b5565b6109c3565b60405161027b9392919061181b565b60405180910390f35b61028c610aa5565b604051610299919061135f565b60405180910390f35b6102bc60048036038101906102b79190611859565b610b33565b005b6102d860048036038101906102d391906117b5565b610bf3565b6040516102e7939291906118d1565b60405180910390f35b6102f8610cd5565b604051610305919061135f565b60405180910390f35b6103286004803603810190610323919061190f565b610d63565b005b610344600480360381019061033f91906117b5565b610dba565b60405161035191906117f1565b60405180910390f35b610362610df9565b005b61036c610e79565b6040516103799190611a6a565b60405180910390f35b61038a610fca565b005b6060600460008373ffffffffffffffffffffffffffffffffffffffff1673ffffffffffffffffffffffffffffffffffffffff16815260200190815260200160002080546103d890611abb565b80601f016020809104026020016040519081016040528092919081815260200182805461040490611abb565b80156104515780601f1061042657610100808354040283529160200191610451565b820191906000526020600020905b81548152906001019060200180831161043457829003601f168201915b50505050509050919050565b600060405180606001604052803373ffffffffffffffffffffffffffffffffffffffff168152602001848152602001838152509050600581908060018154018082558091505060019003906000526020600020906003020160009091909190915060008201518160000160006101000a81548173ffffffffffffffffffffffffffffffffffffffff021916908373ffffffffffffffffffffffffffffffffffffffff16021790555060208201518160010155604082015181600201908051906020019061052b92919061102f565b505050505050565b60606006805480602002602001604051908101604052809291908181526020016000905b8282101561067b5783829060005260206000209060030201604051806060016040529081600082015481526020016001820160009054906101000a900473ffffffffffffffffffffffffffffffffffffffff1673ffffffffffffffffffffffffffffffffffffffff1673ffffffffffffffffffffffffffffffffffffffff1681526020016002820180546105ea90611abb565b80601f016020809104026020016040519081016040528092919081815260200182805461061690611abb565b80156106635780601f1061063857610100808354040283529160200191610663565b820191906000526020600020905b81548152906001019060200180831161064657829003601f168201915b50505050508152505081526020019060010190610557565b50505050905090565b600460205280600052604060002060009150905080546106a390611abb565b80601f01602080910402602001604051908101604052809291908181526020018280546106cf90611abb565b801561071c5780601f106106f15761010080835404028352916020019161071c565b820191906000526020600020905b8154815290600101906020018083116106ff57829003601f168201915b505050505081565b606060038054806020026020016040519081016040528092919081815260200182805480156107a857602002820191906000526020600020905b8160009054906101000a900473ffffffffffffffffffffffffffffffffffffffff1673ffffffffffffffffffffffffffffffffffffffff168152602001906001019080831161075e575b5050505050905090565b60005b600380549050811015610865576000600382815481106107d8576107d7611aec565b5b9060005260206000200160009054906101000a900473ffffffffffffffffffffffffffffffffffffffff169050600460008273ffffffffffffffffffffffffffffffffffffffff1673ffffffffffffffffffffffffffffffffffffffff168152602001908152602001600020600061085091906110b5565b5060018161085e9190611b4a565b90506107b5565b50565b60006003828154811061087e5761087d611aec565b5b9060005260206000200160009054906101000a900473ffffffffffffffffffffffffffffffffffffffff169050919050565b600060405180606001604052808481526020013373ffffffffffffffffffffffffffffffffffffffff16815260200183815250905060068190806001815401808255809150506001900390600052602060002090600302016000909190919091506000820151816000015560208201518160010160006101000a81548173ffffffffffffffffffffffffffffffffffffffff021916908373ffffffffffffffffffffffffffffffffffffffff160217905550604082015181600201908051906020019061097e92919061102f565b505050505050565b60606040518060400160405280601781526020017f73616d706c6520737472696e672066726f6d20414b4542000000000000000000815250905090565b600681815481106109d357600080fd5b90600052602060002090600302016000915090508060000154908060010160009054906101000a900473ffffffffffffffffffffffffffffffffffffffff1690806002018054610a2290611abb565b80601f0160208091040260200160405190810160405280929190818152602001828054610a4e90611abb565b8015610a9b5780601f10610a7057610100808354040283529160200191610a9b565b820191906000526020600020905b815481529060010190602001808311610a7e57829003601f168201915b5050505050905083565b60018054610ab290611abb565b80601f0160208091040260200160405190810160405280929190818152602001828054610ade90611abb565b8015610b2b5780601f10610b0057610100808354040283529160200191610b2b565b820191906000526020600020905b815481529060010190602001808311610b0e57829003601f168201915b505050505081565b60008054906101000a900473ffffffffffffffffffffffffffffffffffffffff1673ffffffffffffffffffffffffffffffffffffffff163373ffffffffffffffffffffffffffffffffffffffff1614610bc1576040517f08c379a0000000000000000000000000000000000000000000000000000000008152600401610bb890611c12565b60405180910390fd5b8160029080519060200190610bd792919061102f565b508060019080519060200190610bee92919061102f565b505050565b60058181548110610c0357600080fd5b90600052602060002090600302016000915090508060000160009054906101000a900473ffffffffffffffffffffffffffffffffffffffff1690806001015490806002018054610c5290611abb565b80601f0160208091040260200160405190810160405280929190818152602001828054610c7e90611abb565b8015610ccb5780601f10610ca057610100808354040283529160200191610ccb565b820191906000526020600020905b815481529060010190602001808311610cae57829003601f168201915b5050505050905083565b60028054610ce290611abb565b80601f0160208091040260200160405190810160405280929190818152602001828054610d0e90611abb565b8015610d5b5780601f10610d3057610100808354040283529160200191610d5b565b820191906000526020600020905b815481529060010190602001808311610d3e57829003601f168201915b505050505081565b80600460003373ffffffffffffffffffffffffffffffffffffffff1673ffffffffffffffffffffffffffffffffffffffff1681526020019081526020016000209080519060200190610db692919061102f565b5050565b60038181548110610dca57600080fd5b906000526020600020016000915054906101000a900473ffffffffffffffffffffffffffffffffffffffff1681565b60056000610e0791906110f5565b6040518060200160405280600081525060019080519060200190610e2c92919061102f565b506040518060200160405280600081525060029080519060200190610e5292919061102f565b50610e5b6107b2565b60036000610e699190611119565b60066000610e77919061113a565b565b60606005805480602002602001604051908101604052809291908181526020016000905b82821015610fc157838290600052602060002090600302016040518060600160405290816000820160009054906101000a900473ffffffffffffffffffffffffffffffffffffffff1673ffffffffffffffffffffffffffffffffffffffff1673ffffffffffffffffffffffffffffffffffffffff16815260200160018201548152602001600282018054610f3090611abb565b80601f0160208091040260200160405190810160405280929190818152602001828054610f5c90611abb565b8015610fa95780601f10610f7e57610100808354040283529160200191610fa9565b820191906000526020600020905b815481529060010190602001808311610f8c57829003601f168201915b50505050508152505081526020019060010190610e9d565b50505050905090565b6003339080600181540180825580915050600190039060005260206000200160009091909190916101000a81548173ffffffffffffffffffffffffffffffffffffffff021916908373ffffffffffffffffffffffffffffffffffffffff160217905550565b82805461103b90611abb565b90600052602060002090601f01602090048101928261105d57600085556110a4565b82601f1061107657805160ff19168380011785556110a4565b828001600101855582156110a4579182015b828111156110a3578251825591602001919060010190611088565b5b5090506110b1919061115e565b5090565b5080546110c190611abb565b6000825580601f106110d357506110f2565b601f0160209004906000526020600020908101906110f1919061115e565b5b50565b5080546000825560030290600052602060002090810190611116919061117b565b50565b5080546000825590600052602060002090810190611137919061115e565b50565b508054600082556003029060005260206000209081019061115b91906111d1565b50565b5b8082111561117757600081600090555060010161115f565b5090565b5b808211156111cd57600080820160006101000a81549073ffffffffffffffffffffffffffffffffffffffff021916905560018201600090556002820160006111c491906110b5565b5060030161117c565b5090565b5b80821115611223576000808201600090556001820160006101000a81549073ffffffffffffffffffffffffffffffffffffffff021916905560028201600061121a91906110b5565b506003016111d2565b5090565b6000604051905090565b600080fd5b600080fd5b600073ffffffffffffffffffffffffffffffffffffffff82169050919050565b60006112668261123b565b9050919050565b6112768161125b565b811461128157600080fd5b50565b6000813590506112938161126d565b92915050565b6000602082840312156112af576112ae611231565b5b60006112bd84828501611284565b91505092915050565b600081519050919050565b600082825260208201905092915050565b60005b838110156113005780820151818401526020810190506112e5565b8381111561130f576000848401525b50505050565b6000601f19601f8301169050919050565b6000611331826112c6565b61133b81856112d1565b935061134b8185602086016112e2565b61135481611315565b840191505092915050565b600060208201905081810360008301526113798184611326565b905092915050565b6000819050919050565b61139481611381565b811461139f57600080fd5b50565b6000813590506113b18161138b565b92915050565b600080fd5b600080fd5b7f4e487b7100000000000000000000000000000000000000000000000000000000600052604160045260246000fd5b6113f982611315565b810181811067ffffffffffffffff82111715611418576114176113c1565b5b80604052505050565b600061142b611227565b905061143782826113f0565b919050565b600067ffffffffffffffff821115611457576114566113c1565b5b61146082611315565b9050602081019050919050565b82818337600083830152505050565b600061148f61148a8461143c565b611421565b9050828152602081018484840111156114ab576114aa6113bc565b5b6114b684828561146d565b509392505050565b600082601f8301126114d3576114d26113b7565b5b81356114e384826020860161147c565b91505092915050565b6000806040838503121561150357611502611231565b5b6000611511858286016113a2565b925050602083013567ffffffffffffffff81111561153257611531611236565b5b61153e858286016114be565b9150509250929050565b600081519050919050565b600082825260208201905092915050565b6000819050602082019050919050565b61157d81611381565b82525050565b61158c8161125b565b82525050565b600082825260208201905092915050565b60006115ae826112c6565b6115b88185611592565b93506115c88185602086016112e2565b6115d181611315565b840191505092915050565b60006060830160008301516115f46000860182611574565b5060208301516116076020860182611583565b506040830151848203604086015261161f82826115a3565b9150508091505092915050565b600061163883836115dc565b905092915050565b6000602082019050919050565b600061165882611548565b6116628185611553565b93508360208202850161167485611564565b8060005b858110156116b05784840389528151611691858261162c565b945061169c83611640565b925060208a01995050600181019050611678565b50829750879550505050505092915050565b600060208201905081810360008301526116dc818461164d565b905092915050565b600081519050919050565b600082825260208201905092915050565b6000819050602082019050919050565b600061171c8383611583565b60208301905092915050565b6000602082019050919050565b6000611740826116e4565b61174a81856116ef565b935061175583611700565b8060005b8381101561178657815161176d8882611710565b975061177883611728565b925050600181019050611759565b5085935050505092915050565b600060208201905081810360008301526117ad8184611735565b905092915050565b6000602082840312156117cb576117ca611231565b5b60006117d9848285016113a2565b91505092915050565b6117eb8161125b565b82525050565b600060208201905061180660008301846117e2565b92915050565b61181581611381565b82525050565b6000606082019050611830600083018661180c565b61183d60208301856117e2565b818103604083015261184f8184611326565b9050949350505050565b600080604083850312156118705761186f611231565b5b600083013567ffffffffffffffff81111561188e5761188d611236565b5b61189a858286016114be565b925050602083013567ffffffffffffffff8111156118bb576118ba611236565b5b6118c7858286016114be565b9150509250929050565b60006060820190506118e660008301866117e2565b6118f3602083018561180c565b81810360408301526119058184611326565b9050949350505050565b60006020828403121561192557611924611231565b5b600082013567ffffffffffffffff81111561194357611942611236565b5b61194f848285016114be565b91505092915050565b600081519050919050565b600082825260208201905092915050565b6000819050602082019050919050565b600060608301600083015161199c6000860182611583565b5060208301516119af6020860182611574565b50604083015184820360408601526119c782826115a3565b9150508091505092915050565b60006119e08383611984565b905092915050565b6000602082019050919050565b6000611a0082611958565b611a0a8185611963565b935083602082028501611a1c85611974565b8060005b85811015611a585784840389528151611a3985826119d4565b9450611a44836119e8565b925060208a01995050600181019050611a20565b50829750879550505050505092915050565b60006020820190508181036000830152611a8481846119f5565b905092915050565b7f4e487b7100000000000000000000000000000000000000000000000000000000600052602260045260246000fd5b60006002820490506001821680611ad357607f821691505b602082108103611ae657611ae5611a8c565b5b50919050565b7f4e487b7100000000000000000000000000000000000000000000000000000000600052603260045260246000fd5b7f4e487b7100000000000000000000000000000000000000000000000000000000600052601160045260246000fd5b6000611b5582611381565b9150611b6083611381565b9250827fffffffffffffffffffffffffffffffffffffffffffffffffffffffffffffffff03821115611b9557611b94611b1b565b5b828201905092915050565b7f4f6e6c792061756374696f6e6565722063616e2063616c6c207468697320667560008201527f6e6374696f6e2e00000000000000000000000000000000000000000000000000602082015250565b6000611bfc6027836112d1565b9150611c0782611ba0565b604082019050919050565b60006020820190508181036000830152611c2b81611bef565b905091905056fea2646970667358221220d1f608fc073fb5a6d34b2be441ec4a0822ca26d5f74f4cd22f6c6e9960ef426d64736f6c634300080e0033",
					"opcodes": "PUSH1 0x80 PUSH1 0x40 MSTORE CALLVALUE DUP1 ISZERO PUSH2 0x10 JUMPI PUSH1 0x0 DUP1 REVERT JUMPDEST POP PUSH2 0x1C68 DUP1 PUSH2 0x20 PUSH1 0x0 CODECOPY PUSH1 0x0 RETURN INVALID PUSH1 0x80 PUSH1 0x40 MSTORE CALLVALUE DUP1 ISZERO PUSH2 0x10 JUMPI PUSH1 0x0 DUP1 REVERT JUMPDEST POP PUSH1 0x4 CALLDATASIZE LT PUSH2 0x121 JUMPI PUSH1 0x0 CALLDATALOAD PUSH1 0xE0 SHR DUP1 PUSH4 0x8F772F96 GT PUSH2 0xAD JUMPI DUP1 PUSH4 0xCA142B56 GT PUSH2 0x71 JUMPI DUP1 PUSH4 0xCA142B56 EQ PUSH2 0x30E JUMPI DUP1 PUSH4 0xCFF29DFD EQ PUSH2 0x32A JUMPI DUP1 PUSH4 0xD826F88F EQ PUSH2 0x35A JUMPI DUP1 PUSH4 0xDC6B8627 EQ PUSH2 0x364 JUMPI DUP1 PUSH4 0xF356733C EQ PUSH2 0x382 JUMPI PUSH2 0x121 JUMP JUMPDEST DUP1 PUSH4 0x8F772F96 EQ PUSH2 0x252 JUMPI DUP1 PUSH4 0x938626C2 EQ PUSH2 0x284 JUMPI DUP1 PUSH4 0xA2EBC656 EQ PUSH2 0x2A2 JUMPI DUP1 PUSH4 0xA2FB1175 EQ PUSH2 0x2BE JUMPI DUP1 PUSH4 0xC9230C5D EQ PUSH2 0x2F0 JUMPI PUSH2 0x121 JUMP JUMPDEST DUP1 PUSH4 0x3A79D2E5 GT PUSH2 0xF4 JUMPI DUP1 PUSH4 0x3A79D2E5 EQ PUSH2 0x1C0 JUMPI DUP1 PUSH4 0x40BD5937 EQ PUSH2 0x1DE JUMPI DUP1 PUSH4 0x5FA38280 EQ PUSH2 0x1E8 JUMPI DUP1 PUSH4 0x66C85DEE EQ PUSH2 0x218 JUMPI DUP1 PUSH4 0x83050DAA EQ PUSH2 0x234 JUMPI PUSH2 0x121 JUMP JUMPDEST DUP1 PUSH4 0x5FB23CF EQ PUSH2 0x126 JUMPI DUP1 PUSH4 0x1744E03B EQ PUSH2 0x156 JUMPI DUP1 PUSH4 0x35ABD160 EQ PUSH2 0x172 JUMPI DUP1 PUSH4 0x3817DF4C EQ PUSH2 0x190 JUMPI JUMPDEST PUSH1 0x0 DUP1 REVERT JUMPDEST PUSH2 0x140 PUSH1 0x4 DUP1 CALLDATASIZE SUB DUP2 ADD SWAP1 PUSH2 0x13B SWAP2 SWAP1 PUSH2 0x1299 JUMP JUMPDEST PUSH2 0x38C JUMP JUMPDEST PUSH1 0x40 MLOAD PUSH2 0x14D SWAP2 SWAP1 PUSH2 0x135F JUMP JUMPDEST PUSH1 0x40 MLOAD DUP1 SWAP2 SUB SWAP1 RETURN JUMPDEST PUSH2 0x170 PUSH1 0x4 DUP1 CALLDATASIZE SUB DUP2 ADD SWAP1 PUSH2 0x16B SWAP2 SWAP1 PUSH2 0x14EC JUMP JUMPDEST PUSH2 0x45D JUMP JUMPDEST STOP JUMPDEST PUSH2 0x17A PUSH2 0x533 JUMP JUMPDEST PUSH1 0x40 MLOAD PUSH2 0x187 SWAP2 SWAP1 PUSH2 0x16C2 JUMP JUMPDEST PUSH1 0x40 MLOAD DUP1 SWAP2 SUB SWAP1 RETURN JUMPDEST PUSH2 0x1AA PUSH1 0x4 DUP1 CALLDATASIZE SUB DUP2 ADD SWAP1 PUSH2 0x1A5 SWAP2 SWAP1 PUSH2 0x1299 JUMP JUMPDEST PUSH2 0x684 JUMP JUMPDEST PUSH1 0x40 MLOAD PUSH2 0x1B7 SWAP2 SWAP1 PUSH2 0x135F JUMP JUMPDEST PUSH1 0x40 MLOAD DUP1 SWAP2 SUB SWAP1 RETURN JUMPDEST PUSH2 0x1C8 PUSH2 0x724 JUMP JUMPDEST PUSH1 0x40 MLOAD PUSH2 0x1D5 SWAP2 SWAP1 PUSH2 0x1793 JUMP JUMPDEST PUSH1 0x40 MLOAD DUP1 SWAP2 SUB SWAP1 RETURN JUMPDEST PUSH2 0x1E6 PUSH2 0x7B2 JUMP JUMPDEST STOP JUMPDEST PUSH2 0x202 PUSH1 0x4 DUP1 CALLDATASIZE SUB DUP2 ADD SWAP1 PUSH2 0x1FD SWAP2 SWAP1 PUSH2 0x17B5 JUMP JUMPDEST PUSH2 0x868 JUMP JUMPDEST PUSH1 0x40 MLOAD PUSH2 0x20F SWAP2 SWAP1 PUSH2 0x17F1 JUMP JUMPDEST PUSH1 0x40 MLOAD DUP1 SWAP2 SUB SWAP1 RETURN JUMPDEST PUSH2 0x232 PUSH1 0x4 DUP1 CALLDATASIZE SUB DUP2 ADD SWAP1 PUSH2 0x22D SWAP2 SWAP1 PUSH2 0x14EC JUMP JUMPDEST PUSH2 0x8B0 JUMP JUMPDEST STOP JUMPDEST PUSH2 0x23C PUSH2 0x986 JUMP JUMPDEST PUSH1 0x40 MLOAD PUSH2 0x249 SWAP2 SWAP1 PUSH2 0x135F JUMP JUMPDEST PUSH1 0x40 MLOAD DUP1 SWAP2 SUB SWAP1 RETURN JUMPDEST PUSH2 0x26C PUSH1 0x4 DUP1 CALLDATASIZE SUB DUP2 ADD SWAP1 PUSH2 0x267 SWAP2 SWAP1 PUSH2 0x17B5 JUMP JUMPDEST PUSH2 0x9C3 JUMP JUMPDEST PUSH1 0x40 MLOAD PUSH2 0x27B SWAP4 SWAP3 SWAP2 SWAP1 PUSH2 0x181B JUMP JUMPDEST PUSH1 0x40 MLOAD DUP1 SWAP2 SUB SWAP1 RETURN JUMPDEST PUSH2 0x28C PUSH2 0xAA5 JUMP JUMPDEST PUSH1 0x40 MLOAD PUSH2 0x299 SWAP2 SWAP1 PUSH2 0x135F JUMP JUMPDEST PUSH1 0x40 MLOAD DUP1 SWAP2 SUB SWAP1 RETURN JUMPDEST PUSH2 0x2BC PUSH1 0x4 DUP1 CALLDATASIZE SUB DUP2 ADD SWAP1 PUSH2 0x2B7 SWAP2 SWAP1 PUSH2 0x1859 JUMP JUMPDEST PUSH2 0xB33 JUMP JUMPDEST STOP JUMPDEST PUSH2 0x2D8 PUSH1 0x4 DUP1 CALLDATASIZE SUB DUP2 ADD SWAP1 PUSH2 0x2D3 SWAP2 SWAP1 PUSH2 0x17B5 JUMP JUMPDEST PUSH2 0xBF3 JUMP JUMPDEST PUSH1 0x40 MLOAD PUSH2 0x2E7 SWAP4 SWAP3 SWAP2 SWAP1 PUSH2 0x18D1 JUMP JUMPDEST PUSH1 0x40 MLOAD DUP1 SWAP2 SUB SWAP1 RETURN JUMPDEST PUSH2 0x2F8 PUSH2 0xCD5 JUMP JUMPDEST PUSH1 0x40 MLOAD PUSH2 0x305 SWAP2 SWAP1 PUSH2 0x135F JUMP JUMPDEST PUSH1 0x40 MLOAD DUP1 SWAP2 SUB SWAP1 RETURN JUMPDEST PUSH2 0x328 PUSH1 0x4 DUP1 CALLDATASIZE SUB DUP2 ADD SWAP1 PUSH2 0x323 SWAP2 SWAP1 PUSH2 0x190F JUMP JUMPDEST PUSH2 0xD63 JUMP JUMPDEST STOP JUMPDEST PUSH2 0x344 PUSH1 0x4 DUP1 CALLDATASIZE SUB DUP2 ADD SWAP1 PUSH2 0x33F SWAP2 SWAP1 PUSH2 0x17B5 JUMP JUMPDEST PUSH2 0xDBA JUMP JUMPDEST PUSH1 0x40 MLOAD PUSH2 0x351 SWAP2 SWAP1 PUSH2 0x17F1 JUMP JUMPDEST PUSH1 0x40 MLOAD DUP1 SWAP2 SUB SWAP1 RETURN JUMPDEST PUSH2 0x362 PUSH2 0xDF9 JUMP JUMPDEST STOP JUMPDEST PUSH2 0x36C PUSH2 0xE79 JUMP JUMPDEST PUSH1 0x40 MLOAD PUSH2 0x379 SWAP2 SWAP1 PUSH2 0x1A6A JUMP JUMPDEST PUSH1 0x40 MLOAD DUP1 SWAP2 SUB SWAP1 RETURN JUMPDEST PUSH2 0x38A PUSH2 0xFCA JUMP JUMPDEST STOP JUMPDEST PUSH1 0x60 PUSH1 0x4 PUSH1 0x0 DUP4 PUSH20 0xFFFFFFFFFFFFFFFFFFFFFFFFFFFFFFFFFFFFFFFF AND PUSH20 0xFFFFFFFFFFFFFFFFFFFFFFFFFFFFFFFFFFFFFFFF AND DUP2 MSTORE PUSH1 0x20 ADD SWAP1 DUP2 MSTORE PUSH1 0x20 ADD PUSH1 0x0 KECCAK256 DUP1 SLOAD PUSH2 0x3D8 SWAP1 PUSH2 0x1ABB JUMP JUMPDEST DUP1 PUSH1 0x1F ADD PUSH1 0x20 DUP1 SWAP2 DIV MUL PUSH1 0x20 ADD PUSH1 0x40 MLOAD SWAP1 DUP2 ADD PUSH1 0x40 MSTORE DUP1 SWAP3 SWAP2 SWAP1 DUP2 DUP2 MSTORE PUSH1 0x20 ADD DUP3 DUP1 SLOAD PUSH2 0x404 SWAP1 PUSH2 0x1ABB JUMP JUMPDEST DUP1 ISZERO PUSH2 0x451 JUMPI DUP1 PUSH1 0x1F LT PUSH2 0x426 JUMPI PUSH2 0x100 DUP1 DUP4 SLOAD DIV MUL DUP4 MSTORE SWAP2 PUSH1 0x20 ADD SWAP2 PUSH2 0x451 JUMP JUMPDEST DUP3 ADD SWAP2 SWAP1 PUSH1 0x0 MSTORE PUSH1 0x20 PUSH1 0x0 KECCAK256 SWAP1 JUMPDEST DUP2 SLOAD DUP2 MSTORE SWAP1 PUSH1 0x1 ADD SWAP1 PUSH1 0x20 ADD DUP1 DUP4 GT PUSH2 0x434 JUMPI DUP3 SWAP1 SUB PUSH1 0x1F AND DUP3 ADD SWAP2 JUMPDEST POP POP POP POP POP SWAP1 POP SWAP2 SWAP1 POP JUMP JUMPDEST PUSH1 0x0 PUSH1 0x40 MLOAD DUP1 PUSH1 0x60 ADD PUSH1 0x40 MSTORE DUP1 CALLER PUSH20 0xFFFFFFFFFFFFFFFFFFFFFFFFFFFFFFFFFFFFFFFF AND DUP2 MSTORE PUSH1 0x20 ADD DUP5 DUP2 MSTORE PUSH1 0x20 ADD DUP4 DUP2 MSTORE POP SWAP1 POP PUSH1 0x5 DUP2 SWAP1 DUP1 PUSH1 0x1 DUP2 SLOAD ADD DUP1 DUP3 SSTORE DUP1 SWAP2 POP POP PUSH1 0x1 SWAP1 SUB SWAP1 PUSH1 0x0 MSTORE PUSH1 0x20 PUSH1 0x0 KECCAK256 SWAP1 PUSH1 0x3 MUL ADD PUSH1 0x0 SWAP1 SWAP2 SWAP1 SWAP2 SWAP1 SWAP2 POP PUSH1 0x0 DUP3 ADD MLOAD DUP2 PUSH1 0x0 ADD PUSH1 0x0 PUSH2 0x100 EXP DUP2 SLOAD DUP2 PUSH20 0xFFFFFFFFFFFFFFFFFFFFFFFFFFFFFFFFFFFFFFFF MUL NOT AND SWAP1 DUP4 PUSH20 0xFFFFFFFFFFFFFFFFFFFFFFFFFFFFFFFFFFFFFFFF AND MUL OR SWAP1 SSTORE POP PUSH1 0x20 DUP3 ADD MLOAD DUP2 PUSH1 0x1 ADD SSTORE PUSH1 0x40 DUP3 ADD MLOAD DUP2 PUSH1 0x2 ADD SWAP1 DUP1 MLOAD SWAP1 PUSH1 0x20 ADD SWAP1 PUSH2 0x52B SWAP3 SWAP2 SWAP1 PUSH2 0x102F JUMP JUMPDEST POP POP POP POP POP POP JUMP JUMPDEST PUSH1 0x60 PUSH1 0x6 DUP1 SLOAD DUP1 PUSH1 0x20 MUL PUSH1 0x20 ADD PUSH1 0x40 MLOAD SWAP1 DUP2 ADD PUSH1 0x40 MSTORE DUP1 SWAP3 SWAP2 SWAP1 DUP2 DUP2 MSTORE PUSH1 0x20 ADD PUSH1 0x0 SWAP1 JUMPDEST DUP3 DUP3 LT ISZERO PUSH2 0x67B JUMPI DUP4 DUP3 SWAP1 PUSH1 0x0 MSTORE PUSH1 0x20 PUSH1 0x0 KECCAK256 SWAP1 PUSH1 0x3 MUL ADD PUSH1 0x40 MLOAD DUP1 PUSH1 0x60 ADD PUSH1 0x40 MSTORE SWAP1 DUP2 PUSH1 0x0 DUP3 ADD SLOAD DUP2 MSTORE PUSH1 0x20 ADD PUSH1 0x1 DUP3 ADD PUSH1 0x0 SWAP1 SLOAD SWAP1 PUSH2 0x100 EXP SWAP1 DIV PUSH20 0xFFFFFFFFFFFFFFFFFFFFFFFFFFFFFFFFFFFFFFFF AND PUSH20 0xFFFFFFFFFFFFFFFFFFFFFFFFFFFFFFFFFFFFFFFF AND PUSH20 0xFFFFFFFFFFFFFFFFFFFFFFFFFFFFFFFFFFFFFFFF AND DUP2 MSTORE PUSH1 0x20 ADD PUSH1 0x2 DUP3 ADD DUP1 SLOAD PUSH2 0x5EA SWAP1 PUSH2 0x1ABB JUMP JUMPDEST DUP1 PUSH1 0x1F ADD PUSH1 0x20 DUP1 SWAP2 DIV MUL PUSH1 0x20 ADD PUSH1 0x40 MLOAD SWAP1 DUP2 ADD PUSH1 0x40 MSTORE DUP1 SWAP3 SWAP2 SWAP1 DUP2 DUP2 MSTORE PUSH1 0x20 ADD DUP3 DUP1 SLOAD PUSH2 0x616 SWAP1 PUSH2 0x1ABB JUMP JUMPDEST DUP1 ISZERO PUSH2 0x663 JUMPI DUP1 PUSH1 0x1F LT PUSH2 0x638 JUMPI PUSH2 0x100 DUP1 DUP4 SLOAD DIV MUL DUP4 MSTORE SWAP2 PUSH1 0x20 ADD SWAP2 PUSH2 0x663 JUMP JUMPDEST DUP3 ADD SWAP2 SWAP1 PUSH1 0x0 MSTORE PUSH1 0x20 PUSH1 0x0 KECCAK256 SWAP1 JUMPDEST DUP2 SLOAD DUP2 MSTORE SWAP1 PUSH1 0x1 ADD SWAP1 PUSH1 0x20 ADD DUP1 DUP4 GT PUSH2 0x646 JUMPI DUP3 SWAP1 SUB PUSH1 0x1F AND DUP3 ADD SWAP2 JUMPDEST POP POP POP POP POP DUP2 MSTORE POP POP DUP2 MSTORE PUSH1 0x20 ADD SWAP1 PUSH1 0x1 ADD SWAP1 PUSH2 0x557 JUMP JUMPDEST POP POP POP POP SWAP1 POP SWAP1 JUMP JUMPDEST PUSH1 0x4 PUSH1 0x20 MSTORE DUP1 PUSH1 0x0 MSTORE PUSH1 0x40 PUSH1 0x0 KECCAK256 PUSH1 0x0 SWAP2 POP SWAP1 POP DUP1 SLOAD PUSH2 0x6A3 SWAP1 PUSH2 0x1ABB JUMP JUMPDEST DUP1 PUSH1 0x1F ADD PUSH1 0x20 DUP1 SWAP2 DIV MUL PUSH1 0x20 ADD PUSH1 0x40 MLOAD SWAP1 DUP2 ADD PUSH1 0x40 MSTORE DUP1 SWAP3 SWAP2 SWAP1 DUP2 DUP2 MSTORE PUSH1 0x20 ADD DUP3 DUP1 SLOAD PUSH2 0x6CF SWAP1 PUSH2 0x1ABB JUMP JUMPDEST DUP1 ISZERO PUSH2 0x71C JUMPI DUP1 PUSH1 0x1F LT PUSH2 0x6F1 JUMPI PUSH2 0x100 DUP1 DUP4 SLOAD DIV MUL DUP4 MSTORE SWAP2 PUSH1 0x20 ADD SWAP2 PUSH2 0x71C JUMP JUMPDEST DUP3 ADD SWAP2 SWAP1 PUSH1 0x0 MSTORE PUSH1 0x20 PUSH1 0x0 KECCAK256 SWAP1 JUMPDEST DUP2 SLOAD DUP2 MSTORE SWAP1 PUSH1 0x1 ADD SWAP1 PUSH1 0x20 ADD DUP1 DUP4 GT PUSH2 0x6FF JUMPI DUP3 SWAP1 SUB PUSH1 0x1F AND DUP3 ADD SWAP2 JUMPDEST POP POP POP POP POP DUP2 JUMP JUMPDEST PUSH1 0x60 PUSH1 0x3 DUP1 SLOAD DUP1 PUSH1 0x20 MUL PUSH1 0x20 ADD PUSH1 0x40 MLOAD SWAP1 DUP2 ADD PUSH1 0x40 MSTORE DUP1 SWAP3 SWAP2 SWAP1 DUP2 DUP2 MSTORE PUSH1 0x20 ADD DUP3 DUP1 SLOAD DUP1 ISZERO PUSH2 0x7A8 JUMPI PUSH1 0x20 MUL DUP3 ADD SWAP2 SWAP1 PUSH1 0x0 MSTORE PUSH1 0x20 PUSH1 0x0 KECCAK256 SWAP1 JUMPDEST DUP2 PUSH1 0x0 SWAP1 SLOAD SWAP1 PUSH2 0x100 EXP SWAP1 DIV PUSH20 0xFFFFFFFFFFFFFFFFFFFFFFFFFFFFFFFFFFFFFFFF AND PUSH20 0xFFFFFFFFFFFFFFFFFFFFFFFFFFFFFFFFFFFFFFFF AND DUP2 MSTORE PUSH1 0x20 ADD SWAP1 PUSH1 0x1 ADD SWAP1 DUP1 DUP4 GT PUSH2 0x75E JUMPI JUMPDEST POP POP POP POP POP SWAP1 POP SWAP1 JUMP JUMPDEST PUSH1 0x0 JUMPDEST PUSH1 0x3 DUP1 SLOAD SWAP1 POP DUP2 LT ISZERO PUSH2 0x865 JUMPI PUSH1 0x0 PUSH1 0x3 DUP3 DUP2 SLOAD DUP2 LT PUSH2 0x7D8 JUMPI PUSH2 0x7D7 PUSH2 0x1AEC JUMP JUMPDEST JUMPDEST SWAP1 PUSH1 0x0 MSTORE PUSH1 0x20 PUSH1 0x0 KECCAK256 ADD PUSH1 0x0 SWAP1 SLOAD SWAP1 PUSH2 0x100 EXP SWAP1 DIV PUSH20 0xFFFFFFFFFFFFFFFFFFFFFFFFFFFFFFFFFFFFFFFF AND SWAP1 POP PUSH1 0x4 PUSH1 0x0 DUP3 PUSH20 0xFFFFFFFFFFFFFFFFFFFFFFFFFFFFFFFFFFFFFFFF AND PUSH20 0xFFFFFFFFFFFFFFFFFFFFFFFFFFFFFFFFFFFFFFFF AND DUP2 MSTORE PUSH1 0x20 ADD SWAP1 DUP2 MSTORE PUSH1 0x20 ADD PUSH1 0x0 KECCAK256 PUSH1 0x0 PUSH2 0x850 SWAP2 SWAP1 PUSH2 0x10B5 JUMP JUMPDEST POP PUSH1 0x1 DUP2 PUSH2 0x85E SWAP2 SWAP1 PUSH2 0x1B4A JUMP JUMPDEST SWAP1 POP PUSH2 0x7B5 JUMP JUMPDEST POP JUMP JUMPDEST PUSH1 0x0 PUSH1 0x3 DUP3 DUP2 SLOAD DUP2 LT PUSH2 0x87E JUMPI PUSH2 0x87D PUSH2 0x1AEC JUMP JUMPDEST JUMPDEST SWAP1 PUSH1 0x0 MSTORE PUSH1 0x20 PUSH1 0x0 KECCAK256 ADD PUSH1 0x0 SWAP1 SLOAD SWAP1 PUSH2 0x100 EXP SWAP1 DIV PUSH20 0xFFFFFFFFFFFFFFFFFFFFFFFFFFFFFFFFFFFFFFFF AND SWAP1 POP SWAP2 SWAP1 POP JUMP JUMPDEST PUSH1 0x0 PUSH1 0x40 MLOAD DUP1 PUSH1 0x60 ADD PUSH1 0x40 MSTORE DUP1 DUP5 DUP2 MSTORE PUSH1 0x20 ADD CALLER PUSH20 0xFFFFFFFFFFFFFFFFFFFFFFFFFFFFFFFFFFFFFFFF AND DUP2 MSTORE PUSH1 0x20 ADD DUP4 DUP2 MSTORE POP SWAP1 POP PUSH1 0x6 DUP2 SWAP1 DUP1 PUSH1 0x1 DUP2 SLOAD ADD DUP1 DUP3 SSTORE DUP1 SWAP2 POP POP PUSH1 0x1 SWAP1 SUB SWAP1 PUSH1 0x0 MSTORE PUSH1 0x20 PUSH1 0x0 KECCAK256 SWAP1 PUSH1 0x3 MUL ADD PUSH1 0x0 SWAP1 SWAP2 SWAP1 SWAP2 SWAP1 SWAP2 POP PUSH1 0x0 DUP3 ADD MLOAD DUP2 PUSH1 0x0 ADD SSTORE PUSH1 0x20 DUP3 ADD MLOAD DUP2 PUSH1 0x1 ADD PUSH1 0x0 PUSH2 0x100 EXP DUP2 SLOAD DUP2 PUSH20 0xFFFFFFFFFFFFFFFFFFFFFFFFFFFFFFFFFFFFFFFF MUL NOT AND SWAP1 DUP4 PUSH20 0xFFFFFFFFFFFFFFFFFFFFFFFFFFFFFFFFFFFFFFFF AND MUL OR SWAP1 SSTORE POP PUSH1 0x40 DUP3 ADD MLOAD DUP2 PUSH1 0x2 ADD SWAP1 DUP1 MLOAD SWAP1 PUSH1 0x20 ADD SWAP1 PUSH2 0x97E SWAP3 SWAP2 SWAP1 PUSH2 0x102F JUMP JUMPDEST POP POP POP POP POP POP JUMP JUMPDEST PUSH1 0x60 PUSH1 0x40 MLOAD DUP1 PUSH1 0x40 ADD PUSH1 0x40 MSTORE DUP1 PUSH1 0x17 DUP2 MSTORE PUSH1 0x20 ADD PUSH32 0x73616D706C6520737472696E672066726F6D20414B4542000000000000000000 DUP2 MSTORE POP SWAP1 POP SWAP1 JUMP JUMPDEST PUSH1 0x6 DUP2 DUP2 SLOAD DUP2 LT PUSH2 0x9D3 JUMPI PUSH1 0x0 DUP1 REVERT JUMPDEST SWAP1 PUSH1 0x0 MSTORE PUSH1 0x20 PUSH1 0x0 KECCAK256 SWAP1 PUSH1 0x3 MUL ADD PUSH1 0x0 SWAP2 POP SWAP1 POP DUP1 PUSH1 0x0 ADD SLOAD SWAP1 DUP1 PUSH1 0x1 ADD PUSH1 0x0 SWAP1 SLOAD SWAP1 PUSH2 0x100 EXP SWAP1 DIV PUSH20 0xFFFFFFFFFFFFFFFFFFFFFFFFFFFFFFFFFFFFFFFF AND SWAP1 DUP1 PUSH1 0x2 ADD DUP1 SLOAD PUSH2 0xA22 SWAP1 PUSH2 0x1ABB JUMP JUMPDEST DUP1 PUSH1 0x1F ADD PUSH1 0x20 DUP1 SWAP2 DIV MUL PUSH1 0x20 ADD PUSH1 0x40 MLOAD SWAP1 DUP2 ADD PUSH1 0x40 MSTORE DUP1 SWAP3 SWAP2 SWAP1 DUP2 DUP2 MSTORE PUSH1 0x20 ADD DUP3 DUP1 SLOAD PUSH2 0xA4E SWAP1 PUSH2 0x1ABB JUMP JUMPDEST DUP1 ISZERO PUSH2 0xA9B JUMPI DUP1 PUSH1 0x1F LT PUSH2 0xA70 JUMPI PUSH2 0x100 DUP1 DUP4 SLOAD DIV MUL DUP4 MSTORE SWAP2 PUSH1 0x20 ADD SWAP2 PUSH2 0xA9B JUMP JUMPDEST DUP3 ADD SWAP2 SWAP1 PUSH1 0x0 MSTORE PUSH1 0x20 PUSH1 0x0 KECCAK256 SWAP1 JUMPDEST DUP2 SLOAD DUP2 MSTORE SWAP1 PUSH1 0x1 ADD SWAP1 PUSH1 0x20 ADD DUP1 DUP4 GT PUSH2 0xA7E JUMPI DUP3 SWAP1 SUB PUSH1 0x1F AND DUP3 ADD SWAP2 JUMPDEST POP POP POP POP POP SWAP1 POP DUP4 JUMP JUMPDEST PUSH1 0x1 DUP1 SLOAD PUSH2 0xAB2 SWAP1 PUSH2 0x1ABB JUMP JUMPDEST DUP1 PUSH1 0x1F ADD PUSH1 0x20 DUP1 SWAP2 DIV MUL PUSH1 0x20 ADD PUSH1 0x40 MLOAD SWAP1 DUP2 ADD PUSH1 0x40 MSTORE DUP1 SWAP3 SWAP2 SWAP1 DUP2 DUP2 MSTORE PUSH1 0x20 ADD DUP3 DUP1 SLOAD PUSH2 0xADE SWAP1 PUSH2 0x1ABB JUMP JUMPDEST DUP1 ISZERO PUSH2 0xB2B JUMPI DUP1 PUSH1 0x1F LT PUSH2 0xB00 JUMPI PUSH2 0x100 DUP1 DUP4 SLOAD DIV MUL DUP4 MSTORE SWAP2 PUSH1 0x20 ADD SWAP2 PUSH2 0xB2B JUMP JUMPDEST DUP3 ADD SWAP2 SWAP1 PUSH1 0x0 MSTORE PUSH1 0x20 PUSH1 0x0 KECCAK256 SWAP1 JUMPDEST DUP2 SLOAD DUP2 MSTORE SWAP1 PUSH1 0x1 ADD SWAP1 PUSH1 0x20 ADD DUP1 DUP4 GT PUSH2 0xB0E JUMPI DUP3 SWAP1 SUB PUSH1 0x1F AND DUP3 ADD SWAP2 JUMPDEST POP POP POP POP POP DUP2 JUMP JUMPDEST PUSH1 0x0 DUP1 SLOAD SWAP1 PUSH2 0x100 EXP SWAP1 DIV PUSH20 0xFFFFFFFFFFFFFFFFFFFFFFFFFFFFFFFFFFFFFFFF AND PUSH20 0xFFFFFFFFFFFFFFFFFFFFFFFFFFFFFFFFFFFFFFFF AND CALLER PUSH20 0xFFFFFFFFFFFFFFFFFFFFFFFFFFFFFFFFFFFFFFFF AND EQ PUSH2 0xBC1 JUMPI PUSH1 0x40 MLOAD PUSH32 0x8C379A000000000000000000000000000000000000000000000000000000000 DUP2 MSTORE PUSH1 0x4 ADD PUSH2 0xBB8 SWAP1 PUSH2 0x1C12 JUMP JUMPDEST PUSH1 0x40 MLOAD DUP1 SWAP2 SUB SWAP1 REVERT JUMPDEST DUP2 PUSH1 0x2 SWAP1 DUP1 MLOAD SWAP1 PUSH1 0x20 ADD SWAP1 PUSH2 0xBD7 SWAP3 SWAP2 SWAP1 PUSH2 0x102F JUMP JUMPDEST POP DUP1 PUSH1 0x1 SWAP1 DUP1 MLOAD SWAP1 PUSH1 0x20 ADD SWAP1 PUSH2 0xBEE SWAP3 SWAP2 SWAP1 PUSH2 0x102F JUMP JUMPDEST POP POP POP JUMP JUMPDEST PUSH1 0x5 DUP2 DUP2 SLOAD DUP2 LT PUSH2 0xC03 JUMPI PUSH1 0x0 DUP1 REVERT JUMPDEST SWAP1 PUSH1 0x0 MSTORE PUSH1 0x20 PUSH1 0x0 KECCAK256 SWAP1 PUSH1 0x3 MUL ADD PUSH1 0x0 SWAP2 POP SWAP1 POP DUP1 PUSH1 0x0 ADD PUSH1 0x0 SWAP1 SLOAD SWAP1 PUSH2 0x100 EXP SWAP1 DIV PUSH20 0xFFFFFFFFFFFFFFFFFFFFFFFFFFFFFFFFFFFFFFFF AND SWAP1 DUP1 PUSH1 0x1 ADD SLOAD SWAP1 DUP1 PUSH1 0x2 ADD DUP1 SLOAD PUSH2 0xC52 SWAP1 PUSH2 0x1ABB JUMP JUMPDEST DUP1 PUSH1 0x1F ADD PUSH1 0x20 DUP1 SWAP2 DIV MUL PUSH1 0x20 ADD PUSH1 0x40 MLOAD SWAP1 DUP2 ADD PUSH1 0x40 MSTORE DUP1 SWAP3 SWAP2 SWAP1 DUP2 DUP2 MSTORE PUSH1 0x20 ADD DUP3 DUP1 SLOAD PUSH2 0xC7E SWAP1 PUSH2 0x1ABB JUMP JUMPDEST DUP1 ISZERO PUSH2 0xCCB JUMPI DUP1 PUSH1 0x1F LT PUSH2 0xCA0 JUMPI PUSH2 0x100 DUP1 DUP4 SLOAD DIV MUL DUP4 MSTORE SWAP2 PUSH1 0x20 ADD SWAP2 PUSH2 0xCCB JUMP JUMPDEST DUP3 ADD SWAP2 SWAP1 PUSH1 0x0 MSTORE PUSH1 0x20 PUSH1 0x0 KECCAK256 SWAP1 JUMPDEST DUP2 SLOAD DUP2 MSTORE SWAP1 PUSH1 0x1 ADD SWAP1 PUSH1 0x20 ADD DUP1 DUP4 GT PUSH2 0xCAE JUMPI DUP3 SWAP1 SUB PUSH1 0x1F AND DUP3 ADD SWAP2 JUMPDEST POP POP POP POP POP SWAP1 POP DUP4 JUMP JUMPDEST PUSH1 0x2 DUP1 SLOAD PUSH2 0xCE2 SWAP1 PUSH2 0x1ABB JUMP JUMPDEST DUP1 PUSH1 0x1F ADD PUSH1 0x20 DUP1 SWAP2 DIV MUL PUSH1 0x20 ADD PUSH1 0x40 MLOAD SWAP1 DUP2 ADD PUSH1 0x40 MSTORE DUP1 SWAP3 SWAP2 SWAP1 DUP2 DUP2 MSTORE PUSH1 0x20 ADD DUP3 DUP1 SLOAD PUSH2 0xD0E SWAP1 PUSH2 0x1ABB JUMP JUMPDEST DUP1 ISZERO PUSH2 0xD5B JUMPI DUP1 PUSH1 0x1F LT PUSH2 0xD30 JUMPI PUSH2 0x100 DUP1 DUP4 SLOAD DIV MUL DUP4 MSTORE SWAP2 PUSH1 0x20 ADD SWAP2 PUSH2 0xD5B JUMP JUMPDEST DUP3 ADD SWAP2 SWAP1 PUSH1 0x0 MSTORE PUSH1 0x20 PUSH1 0x0 KECCAK256 SWAP1 JUMPDEST DUP2 SLOAD DUP2 MSTORE SWAP1 PUSH1 0x1 ADD SWAP1 PUSH1 0x20 ADD DUP1 DUP4 GT PUSH2 0xD3E JUMPI DUP3 SWAP1 SUB PUSH1 0x1F AND DUP3 ADD SWAP2 JUMPDEST POP POP POP POP POP DUP2 JUMP JUMPDEST DUP1 PUSH1 0x4 PUSH1 0x0 CALLER PUSH20 0xFFFFFFFFFFFFFFFFFFFFFFFFFFFFFFFFFFFFFFFF AND PUSH20 0xFFFFFFFFFFFFFFFFFFFFFFFFFFFFFFFFFFFFFFFF AND DUP2 MSTORE PUSH1 0x20 ADD SWAP1 DUP2 MSTORE PUSH1 0x20 ADD PUSH1 0x0 KECCAK256 SWAP1 DUP1 MLOAD SWAP1 PUSH1 0x20 ADD SWAP1 PUSH2 0xDB6 SWAP3 SWAP2 SWAP1 PUSH2 0x102F JUMP JUMPDEST POP POP JUMP JUMPDEST PUSH1 0x3 DUP2 DUP2 SLOAD DUP2 LT PUSH2 0xDCA JUMPI PUSH1 0x0 DUP1 REVERT JUMPDEST SWAP1 PUSH1 0x0 MSTORE PUSH1 0x20 PUSH1 0x0 KECCAK256 ADD PUSH1 0x0 SWAP2 POP SLOAD SWAP1 PUSH2 0x100 EXP SWAP1 DIV PUSH20 0xFFFFFFFFFFFFFFFFFFFFFFFFFFFFFFFFFFFFFFFF AND DUP2 JUMP JUMPDEST PUSH1 0x5 PUSH1 0x0 PUSH2 0xE07 SWAP2 SWAP1 PUSH2 0x10F5 JUMP JUMPDEST PUSH1 0x40 MLOAD DUP1 PUSH1 0x20 ADD PUSH1 0x40 MSTORE DUP1 PUSH1 0x0 DUP2 MSTORE POP PUSH1 0x1 SWAP1 DUP1 MLOAD SWAP1 PUSH1 0x20 ADD SWAP1 PUSH2 0xE2C SWAP3 SWAP2 SWAP1 PUSH2 0x102F JUMP JUMPDEST POP PUSH1 0x40 MLOAD DUP1 PUSH1 0x20 ADD PUSH1 0x40 MSTORE DUP1 PUSH1 0x0 DUP2 MSTORE POP PUSH1 0x2 SWAP1 DUP1 MLOAD SWAP1 PUSH1 0x20 ADD SWAP1 PUSH2 0xE52 SWAP3 SWAP2 SWAP1 PUSH2 0x102F JUMP JUMPDEST POP PUSH2 0xE5B PUSH2 0x7B2 JUMP JUMPDEST PUSH1 0x3 PUSH1 0x0 PUSH2 0xE69 SWAP2 SWAP1 PUSH2 0x1119 JUMP JUMPDEST PUSH1 0x6 PUSH1 0x0 PUSH2 0xE77 SWAP2 SWAP1 PUSH2 0x113A JUMP JUMPDEST JUMP JUMPDEST PUSH1 0x60 PUSH1 0x5 DUP1 SLOAD DUP1 PUSH1 0x20 MUL PUSH1 0x20 ADD PUSH1 0x40 MLOAD SWAP1 DUP2 ADD PUSH1 0x40 MSTORE DUP1 SWAP3 SWAP2 SWAP1 DUP2 DUP2 MSTORE PUSH1 0x20 ADD PUSH1 0x0 SWAP1 JUMPDEST DUP3 DUP3 LT ISZERO PUSH2 0xFC1 JUMPI DUP4 DUP3 SWAP1 PUSH1 0x0 MSTORE PUSH1 0x20 PUSH1 0x0 KECCAK256 SWAP1 PUSH1 0x3 MUL ADD PUSH1 0x40 MLOAD DUP1 PUSH1 0x60 ADD PUSH1 0x40 MSTORE SWAP1 DUP2 PUSH1 0x0 DUP3 ADD PUSH1 0x0 SWAP1 SLOAD SWAP1 PUSH2 0x100 EXP SWAP1 DIV PUSH20 0xFFFFFFFFFFFFFFFFFFFFFFFFFFFFFFFFFFFFFFFF AND PUSH20 0xFFFFFFFFFFFFFFFFFFFFFFFFFFFFFFFFFFFFFFFF AND PUSH20 0xFFFFFFFFFFFFFFFFFFFFFFFFFFFFFFFFFFFFFFFF AND DUP2 MSTORE PUSH1 0x20 ADD PUSH1 0x1 DUP3 ADD SLOAD DUP2 MSTORE PUSH1 0x20 ADD PUSH1 0x2 DUP3 ADD DUP1 SLOAD PUSH2 0xF30 SWAP1 PUSH2 0x1ABB JUMP JUMPDEST DUP1 PUSH1 0x1F ADD PUSH1 0x20 DUP1 SWAP2 DIV MUL PUSH1 0x20 ADD PUSH1 0x40 MLOAD SWAP1 DUP2 ADD PUSH1 0x40 MSTORE DUP1 SWAP3 SWAP2 SWAP1 DUP2 DUP2 MSTORE PUSH1 0x20 ADD DUP3 DUP1 SLOAD PUSH2 0xF5C SWAP1 PUSH2 0x1ABB JUMP JUMPDEST DUP1 ISZERO PUSH2 0xFA9 JUMPI DUP1 PUSH1 0x1F LT PUSH2 0xF7E JUMPI PUSH2 0x100 DUP1 DUP4 SLOAD DIV MUL DUP4 MSTORE SWAP2 PUSH1 0x20 ADD SWAP2 PUSH2 0xFA9 JUMP JUMPDEST DUP3 ADD SWAP2 SWAP1 PUSH1 0x0 MSTORE PUSH1 0x20 PUSH1 0x0 KECCAK256 SWAP1 JUMPDEST DUP2 SLOAD DUP2 MSTORE SWAP1 PUSH1 0x1 ADD SWAP1 PUSH1 0x20 ADD DUP1 DUP4 GT PUSH2 0xF8C JUMPI DUP3 SWAP1 SUB PUSH1 0x1F AND DUP3 ADD SWAP2 JUMPDEST POP POP POP POP POP DUP2 MSTORE POP POP DUP2 MSTORE PUSH1 0x20 ADD SWAP1 PUSH1 0x1 ADD SWAP1 PUSH2 0xE9D JUMP JUMPDEST POP POP POP POP SWAP1 POP SWAP1 JUMP JUMPDEST PUSH1 0x3 CALLER SWAP1 DUP1 PUSH1 0x1 DUP2 SLOAD ADD DUP1 DUP3 SSTORE DUP1 SWAP2 POP POP PUSH1 0x1 SWAP1 SUB SWAP1 PUSH1 0x0 MSTORE PUSH1 0x20 PUSH1 0x0 KECCAK256 ADD PUSH1 0x0 SWAP1 SWAP2 SWAP1 SWAP2 SWAP1 SWAP2 PUSH2 0x100 EXP DUP2 SLOAD DUP2 PUSH20 0xFFFFFFFFFFFFFFFFFFFFFFFFFFFFFFFFFFFFFFFF MUL NOT AND SWAP1 DUP4 PUSH20 0xFFFFFFFFFFFFFFFFFFFFFFFFFFFFFFFFFFFFFFFF AND MUL OR SWAP1 SSTORE POP JUMP JUMPDEST DUP3 DUP1 SLOAD PUSH2 0x103B SWAP1 PUSH2 0x1ABB JUMP JUMPDEST SWAP1 PUSH1 0x0 MSTORE PUSH1 0x20 PUSH1 0x0 KECCAK256 SWAP1 PUSH1 0x1F ADD PUSH1 0x20 SWAP1 DIV DUP2 ADD SWAP3 DUP3 PUSH2 0x105D JUMPI PUSH1 0x0 DUP6 SSTORE PUSH2 0x10A4 JUMP JUMPDEST DUP3 PUSH1 0x1F LT PUSH2 0x1076 JUMPI DUP1 MLOAD PUSH1 0xFF NOT AND DUP4 DUP1 ADD OR DUP6 SSTORE PUSH2 0x10A4 JUMP JUMPDEST DUP3 DUP1 ADD PUSH1 0x1 ADD DUP6 SSTORE DUP3 ISZERO PUSH2 0x10A4 JUMPI SWAP2 DUP3 ADD JUMPDEST DUP3 DUP2 GT ISZERO PUSH2 0x10A3 JUMPI DUP3 MLOAD DUP3 SSTORE SWAP2 PUSH1 0x20 ADD SWAP2 SWAP1 PUSH1 0x1 ADD SWAP1 PUSH2 0x1088 JUMP JUMPDEST JUMPDEST POP SWAP1 POP PUSH2 0x10B1 SWAP2 SWAP1 PUSH2 0x115E JUMP JUMPDEST POP SWAP1 JUMP JUMPDEST POP DUP1 SLOAD PUSH2 0x10C1 SWAP1 PUSH2 0x1ABB JUMP JUMPDEST PUSH1 0x0 DUP3 SSTORE DUP1 PUSH1 0x1F LT PUSH2 0x10D3 JUMPI POP PUSH2 0x10F2 JUMP JUMPDEST PUSH1 0x1F ADD PUSH1 0x20 SWAP1 DIV SWAP1 PUSH1 0x0 MSTORE PUSH1 0x20 PUSH1 0x0 KECCAK256 SWAP1 DUP2 ADD SWAP1 PUSH2 0x10F1 SWAP2 SWAP1 PUSH2 0x115E JUMP JUMPDEST JUMPDEST POP JUMP JUMPDEST POP DUP1 SLOAD PUSH1 0x0 DUP3 SSTORE PUSH1 0x3 MUL SWAP1 PUSH1 0x0 MSTORE PUSH1 0x20 PUSH1 0x0 KECCAK256 SWAP1 DUP2 ADD SWAP1 PUSH2 0x1116 SWAP2 SWAP1 PUSH2 0x117B JUMP JUMPDEST POP JUMP JUMPDEST POP DUP1 SLOAD PUSH1 0x0 DUP3 SSTORE SWAP1 PUSH1 0x0 MSTORE PUSH1 0x20 PUSH1 0x0 KECCAK256 SWAP1 DUP2 ADD SWAP1 PUSH2 0x1137 SWAP2 SWAP1 PUSH2 0x115E JUMP JUMPDEST POP JUMP JUMPDEST POP DUP1 SLOAD PUSH1 0x0 DUP3 SSTORE PUSH1 0x3 MUL SWAP1 PUSH1 0x0 MSTORE PUSH1 0x20 PUSH1 0x0 KECCAK256 SWAP1 DUP2 ADD SWAP1 PUSH2 0x115B SWAP2 SWAP1 PUSH2 0x11D1 JUMP JUMPDEST POP JUMP JUMPDEST JUMPDEST DUP1 DUP3 GT ISZERO PUSH2 0x1177 JUMPI PUSH1 0x0 DUP2 PUSH1 0x0 SWAP1 SSTORE POP PUSH1 0x1 ADD PUSH2 0x115F JUMP JUMPDEST POP SWAP1 JUMP JUMPDEST JUMPDEST DUP1 DUP3 GT ISZERO PUSH2 0x11CD JUMPI PUSH1 0x0 DUP1 DUP3 ADD PUSH1 0x0 PUSH2 0x100 EXP DUP2 SLOAD SWAP1 PUSH20 0xFFFFFFFFFFFFFFFFFFFFFFFFFFFFFFFFFFFFFFFF MUL NOT AND SWAP1 SSTORE PUSH1 0x1 DUP3 ADD PUSH1 0x0 SWAP1 SSTORE PUSH1 0x2 DUP3 ADD PUSH1 0x0 PUSH2 0x11C4 SWAP2 SWAP1 PUSH2 0x10B5 JUMP JUMPDEST POP PUSH1 0x3 ADD PUSH2 0x117C JUMP JUMPDEST POP SWAP1 JUMP JUMPDEST JUMPDEST DUP1 DUP3 GT ISZERO PUSH2 0x1223 JUMPI PUSH1 0x0 DUP1 DUP3 ADD PUSH1 0x0 SWAP1 SSTORE PUSH1 0x1 DUP3 ADD PUSH1 0x0 PUSH2 0x100 EXP DUP2 SLOAD SWAP1 PUSH20 0xFFFFFFFFFFFFFFFFFFFFFFFFFFFFFFFFFFFFFFFF MUL NOT AND SWAP1 SSTORE PUSH1 0x2 DUP3 ADD PUSH1 0x0 PUSH2 0x121A SWAP2 SWAP1 PUSH2 0x10B5 JUMP JUMPDEST POP PUSH1 0x3 ADD PUSH2 0x11D2 JUMP JUMPDEST POP SWAP1 JUMP JUMPDEST PUSH1 0x0 PUSH1 0x40 MLOAD SWAP1 POP SWAP1 JUMP JUMPDEST PUSH1 0x0 DUP1 REVERT JUMPDEST PUSH1 0x0 DUP1 REVERT JUMPDEST PUSH1 0x0 PUSH20 0xFFFFFFFFFFFFFFFFFFFFFFFFFFFFFFFFFFFFFFFF DUP3 AND SWAP1 POP SWAP2 SWAP1 POP JUMP JUMPDEST PUSH1 0x0 PUSH2 0x1266 DUP3 PUSH2 0x123B JUMP JUMPDEST SWAP1 POP SWAP2 SWAP1 POP JUMP JUMPDEST PUSH2 0x1276 DUP2 PUSH2 0x125B JUMP JUMPDEST DUP2 EQ PUSH2 0x1281 JUMPI PUSH1 0x0 DUP1 REVERT JUMPDEST POP JUMP JUMPDEST PUSH1 0x0 DUP2 CALLDATALOAD SWAP1 POP PUSH2 0x1293 DUP2 PUSH2 0x126D JUMP JUMPDEST SWAP3 SWAP2 POP POP JUMP JUMPDEST PUSH1 0x0 PUSH1 0x20 DUP3 DUP5 SUB SLT ISZERO PUSH2 0x12AF JUMPI PUSH2 0x12AE PUSH2 0x1231 JUMP JUMPDEST JUMPDEST PUSH1 0x0 PUSH2 0x12BD DUP5 DUP3 DUP6 ADD PUSH2 0x1284 JUMP JUMPDEST SWAP2 POP POP SWAP3 SWAP2 POP POP JUMP JUMPDEST PUSH1 0x0 DUP2 MLOAD SWAP1 POP SWAP2 SWAP1 POP JUMP JUMPDEST PUSH1 0x0 DUP3 DUP3 MSTORE PUSH1 0x20 DUP3 ADD SWAP1 POP SWAP3 SWAP2 POP POP JUMP JUMPDEST PUSH1 0x0 JUMPDEST DUP4 DUP2 LT ISZERO PUSH2 0x1300 JUMPI DUP1 DUP3 ADD MLOAD DUP2 DUP5 ADD MSTORE PUSH1 0x20 DUP2 ADD SWAP1 POP PUSH2 0x12E5 JUMP JUMPDEST DUP4 DUP2 GT ISZERO PUSH2 0x130F JUMPI PUSH1 0x0 DUP5 DUP5 ADD MSTORE JUMPDEST POP POP POP POP JUMP JUMPDEST PUSH1 0x0 PUSH1 0x1F NOT PUSH1 0x1F DUP4 ADD AND SWAP1 POP SWAP2 SWAP1 POP JUMP JUMPDEST PUSH1 0x0 PUSH2 0x1331 DUP3 PUSH2 0x12C6 JUMP JUMPDEST PUSH2 0x133B DUP2 DUP6 PUSH2 0x12D1 JUMP JUMPDEST SWAP4 POP PUSH2 0x134B DUP2 DUP6 PUSH1 0x20 DUP7 ADD PUSH2 0x12E2 JUMP JUMPDEST PUSH2 0x1354 DUP2 PUSH2 0x1315 JUMP JUMPDEST DUP5 ADD SWAP2 POP POP SWAP3 SWAP2 POP POP JUMP JUMPDEST PUSH1 0x0 PUSH1 0x20 DUP3 ADD SWAP1 POP DUP2 DUP2 SUB PUSH1 0x0 DUP4 ADD MSTORE PUSH2 0x1379 DUP2 DUP5 PUSH2 0x1326 JUMP JUMPDEST SWAP1 POP SWAP3 SWAP2 POP POP JUMP JUMPDEST PUSH1 0x0 DUP2 SWAP1 POP SWAP2 SWAP1 POP JUMP JUMPDEST PUSH2 0x1394 DUP2 PUSH2 0x1381 JUMP JUMPDEST DUP2 EQ PUSH2 0x139F JUMPI PUSH1 0x0 DUP1 REVERT JUMPDEST POP JUMP JUMPDEST PUSH1 0x0 DUP2 CALLDATALOAD SWAP1 POP PUSH2 0x13B1 DUP2 PUSH2 0x138B JUMP JUMPDEST SWAP3 SWAP2 POP POP JUMP JUMPDEST PUSH1 0x0 DUP1 REVERT JUMPDEST PUSH1 0x0 DUP1 REVERT JUMPDEST PUSH32 0x4E487B7100000000000000000000000000000000000000000000000000000000 PUSH1 0x0 MSTORE PUSH1 0x41 PUSH1 0x4 MSTORE PUSH1 0x24 PUSH1 0x0 REVERT JUMPDEST PUSH2 0x13F9 DUP3 PUSH2 0x1315 JUMP JUMPDEST DUP2 ADD DUP2 DUP2 LT PUSH8 0xFFFFFFFFFFFFFFFF DUP3 GT OR ISZERO PUSH2 0x1418 JUMPI PUSH2 0x1417 PUSH2 0x13C1 JUMP JUMPDEST JUMPDEST DUP1 PUSH1 0x40 MSTORE POP POP POP JUMP JUMPDEST PUSH1 0x0 PUSH2 0x142B PUSH2 0x1227 JUMP JUMPDEST SWAP1 POP PUSH2 0x1437 DUP3 DUP3 PUSH2 0x13F0 JUMP JUMPDEST SWAP2 SWAP1 POP JUMP JUMPDEST PUSH1 0x0 PUSH8 0xFFFFFFFFFFFFFFFF DUP3 GT ISZERO PUSH2 0x1457 JUMPI PUSH2 0x1456 PUSH2 0x13C1 JUMP JUMPDEST JUMPDEST PUSH2 0x1460 DUP3 PUSH2 0x1315 JUMP JUMPDEST SWAP1 POP PUSH1 0x20 DUP2 ADD SWAP1 POP SWAP2 SWAP1 POP JUMP JUMPDEST DUP3 DUP2 DUP4 CALLDATACOPY PUSH1 0x0 DUP4 DUP4 ADD MSTORE POP POP POP JUMP JUMPDEST PUSH1 0x0 PUSH2 0x148F PUSH2 0x148A DUP5 PUSH2 0x143C JUMP JUMPDEST PUSH2 0x1421 JUMP JUMPDEST SWAP1 POP DUP3 DUP2 MSTORE PUSH1 0x20 DUP2 ADD DUP5 DUP5 DUP5 ADD GT ISZERO PUSH2 0x14AB JUMPI PUSH2 0x14AA PUSH2 0x13BC JUMP JUMPDEST JUMPDEST PUSH2 0x14B6 DUP5 DUP3 DUP6 PUSH2 0x146D JUMP JUMPDEST POP SWAP4 SWAP3 POP POP POP JUMP JUMPDEST PUSH1 0x0 DUP3 PUSH1 0x1F DUP4 ADD SLT PUSH2 0x14D3 JUMPI PUSH2 0x14D2 PUSH2 0x13B7 JUMP JUMPDEST JUMPDEST DUP2 CALLDATALOAD PUSH2 0x14E3 DUP5 DUP3 PUSH1 0x20 DUP7 ADD PUSH2 0x147C JUMP JUMPDEST SWAP2 POP POP SWAP3 SWAP2 POP POP JUMP JUMPDEST PUSH1 0x0 DUP1 PUSH1 0x40 DUP4 DUP6 SUB SLT ISZERO PUSH2 0x1503 JUMPI PUSH2 0x1502 PUSH2 0x1231 JUMP JUMPDEST JUMPDEST PUSH1 0x0 PUSH2 0x1511 DUP6 DUP3 DUP7 ADD PUSH2 0x13A2 JUMP JUMPDEST SWAP3 POP POP PUSH1 0x20 DUP4 ADD CALLDATALOAD PUSH8 0xFFFFFFFFFFFFFFFF DUP2 GT ISZERO PUSH2 0x1532 JUMPI PUSH2 0x1531 PUSH2 0x1236 JUMP JUMPDEST JUMPDEST PUSH2 0x153E DUP6 DUP3 DUP7 ADD PUSH2 0x14BE JUMP JUMPDEST SWAP2 POP POP SWAP3 POP SWAP3 SWAP1 POP JUMP JUMPDEST PUSH1 0x0 DUP2 MLOAD SWAP1 POP SWAP2 SWAP1 POP JUMP JUMPDEST PUSH1 0x0 DUP3 DUP3 MSTORE PUSH1 0x20 DUP3 ADD SWAP1 POP SWAP3 SWAP2 POP POP JUMP JUMPDEST PUSH1 0x0 DUP2 SWAP1 POP PUSH1 0x20 DUP3 ADD SWAP1 POP SWAP2 SWAP1 POP JUMP JUMPDEST PUSH2 0x157D DUP2 PUSH2 0x1381 JUMP JUMPDEST DUP3 MSTORE POP POP JUMP JUMPDEST PUSH2 0x158C DUP2 PUSH2 0x125B JUMP JUMPDEST DUP3 MSTORE POP POP JUMP JUMPDEST PUSH1 0x0 DUP3 DUP3 MSTORE PUSH1 0x20 DUP3 ADD SWAP1 POP SWAP3 SWAP2 POP POP JUMP JUMPDEST PUSH1 0x0 PUSH2 0x15AE DUP3 PUSH2 0x12C6 JUMP JUMPDEST PUSH2 0x15B8 DUP2 DUP6 PUSH2 0x1592 JUMP JUMPDEST SWAP4 POP PUSH2 0x15C8 DUP2 DUP6 PUSH1 0x20 DUP7 ADD PUSH2 0x12E2 JUMP JUMPDEST PUSH2 0x15D1 DUP2 PUSH2 0x1315 JUMP JUMPDEST DUP5 ADD SWAP2 POP POP SWAP3 SWAP2 POP POP JUMP JUMPDEST PUSH1 0x0 PUSH1 0x60 DUP4 ADD PUSH1 0x0 DUP4 ADD MLOAD PUSH2 0x15F4 PUSH1 0x0 DUP7 ADD DUP3 PUSH2 0x1574 JUMP JUMPDEST POP PUSH1 0x20 DUP4 ADD MLOAD PUSH2 0x1607 PUSH1 0x20 DUP7 ADD DUP3 PUSH2 0x1583 JUMP JUMPDEST POP PUSH1 0x40 DUP4 ADD MLOAD DUP5 DUP3 SUB PUSH1 0x40 DUP7 ADD MSTORE PUSH2 0x161F DUP3 DUP3 PUSH2 0x15A3 JUMP JUMPDEST SWAP2 POP POP DUP1 SWAP2 POP POP SWAP3 SWAP2 POP POP JUMP JUMPDEST PUSH1 0x0 PUSH2 0x1638 DUP4 DUP4 PUSH2 0x15DC JUMP JUMPDEST SWAP1 POP SWAP3 SWAP2 POP POP JUMP JUMPDEST PUSH1 0x0 PUSH1 0x20 DUP3 ADD SWAP1 POP SWAP2 SWAP1 POP JUMP JUMPDEST PUSH1 0x0 PUSH2 0x1658 DUP3 PUSH2 0x1548 JUMP JUMPDEST PUSH2 0x1662 DUP2 DUP6 PUSH2 0x1553 JUMP JUMPDEST SWAP4 POP DUP4 PUSH1 0x20 DUP3 MUL DUP6 ADD PUSH2 0x1674 DUP6 PUSH2 0x1564 JUMP JUMPDEST DUP1 PUSH1 0x0 JUMPDEST DUP6 DUP2 LT ISZERO PUSH2 0x16B0 JUMPI DUP5 DUP5 SUB DUP10 MSTORE DUP2 MLOAD PUSH2 0x1691 DUP6 DUP3 PUSH2 0x162C JUMP JUMPDEST SWAP5 POP PUSH2 0x169C DUP4 PUSH2 0x1640 JUMP JUMPDEST SWAP3 POP PUSH1 0x20 DUP11 ADD SWAP10 POP POP PUSH1 0x1 DUP2 ADD SWAP1 POP PUSH2 0x1678 JUMP JUMPDEST POP DUP3 SWAP8 POP DUP8 SWAP6 POP POP POP POP POP POP SWAP3 SWAP2 POP POP JUMP JUMPDEST PUSH1 0x0 PUSH1 0x20 DUP3 ADD SWAP1 POP DUP2 DUP2 SUB PUSH1 0x0 DUP4 ADD MSTORE PUSH2 0x16DC DUP2 DUP5 PUSH2 0x164D JUMP JUMPDEST SWAP1 POP SWAP3 SWAP2 POP POP JUMP JUMPDEST PUSH1 0x0 DUP2 MLOAD SWAP1 POP SWAP2 SWAP1 POP JUMP JUMPDEST PUSH1 0x0 DUP3 DUP3 MSTORE PUSH1 0x20 DUP3 ADD SWAP1 POP SWAP3 SWAP2 POP POP JUMP JUMPDEST PUSH1 0x0 DUP2 SWAP1 POP PUSH1 0x20 DUP3 ADD SWAP1 POP SWAP2 SWAP1 POP JUMP JUMPDEST PUSH1 0x0 PUSH2 0x171C DUP4 DUP4 PUSH2 0x1583 JUMP JUMPDEST PUSH1 0x20 DUP4 ADD SWAP1 POP SWAP3 SWAP2 POP POP JUMP JUMPDEST PUSH1 0x0 PUSH1 0x20 DUP3 ADD SWAP1 POP SWAP2 SWAP1 POP JUMP JUMPDEST PUSH1 0x0 PUSH2 0x1740 DUP3 PUSH2 0x16E4 JUMP JUMPDEST PUSH2 0x174A DUP2 DUP6 PUSH2 0x16EF JUMP JUMPDEST SWAP4 POP PUSH2 0x1755 DUP4 PUSH2 0x1700 JUMP JUMPDEST DUP1 PUSH1 0x0 JUMPDEST DUP4 DUP2 LT ISZERO PUSH2 0x1786 JUMPI DUP2 MLOAD PUSH2 0x176D DUP9 DUP3 PUSH2 0x1710 JUMP JUMPDEST SWAP8 POP PUSH2 0x1778 DUP4 PUSH2 0x1728 JUMP JUMPDEST SWAP3 POP POP PUSH1 0x1 DUP2 ADD SWAP1 POP PUSH2 0x1759 JUMP JUMPDEST POP DUP6 SWAP4 POP POP POP POP SWAP3 SWAP2 POP POP JUMP JUMPDEST PUSH1 0x0 PUSH1 0x20 DUP3 ADD SWAP1 POP DUP2 DUP2 SUB PUSH1 0x0 DUP4 ADD MSTORE PUSH2 0x17AD DUP2 DUP5 PUSH2 0x1735 JUMP JUMPDEST SWAP1 POP SWAP3 SWAP2 POP POP JUMP JUMPDEST PUSH1 0x0 PUSH1 0x20 DUP3 DUP5 SUB SLT ISZERO PUSH2 0x17CB JUMPI PUSH2 0x17CA PUSH2 0x1231 JUMP JUMPDEST JUMPDEST PUSH1 0x0 PUSH2 0x17D9 DUP5 DUP3 DUP6 ADD PUSH2 0x13A2 JUMP JUMPDEST SWAP2 POP POP SWAP3 SWAP2 POP POP JUMP JUMPDEST PUSH2 0x17EB DUP2 PUSH2 0x125B JUMP JUMPDEST DUP3 MSTORE POP POP JUMP JUMPDEST PUSH1 0x0 PUSH1 0x20 DUP3 ADD SWAP1 POP PUSH2 0x1806 PUSH1 0x0 DUP4 ADD DUP5 PUSH2 0x17E2 JUMP JUMPDEST SWAP3 SWAP2 POP POP JUMP JUMPDEST PUSH2 0x1815 DUP2 PUSH2 0x1381 JUMP JUMPDEST DUP3 MSTORE POP POP JUMP JUMPDEST PUSH1 0x0 PUSH1 0x60 DUP3 ADD SWAP1 POP PUSH2 0x1830 PUSH1 0x0 DUP4 ADD DUP7 PUSH2 0x180C JUMP JUMPDEST PUSH2 0x183D PUSH1 0x20 DUP4 ADD DUP6 PUSH2 0x17E2 JUMP JUMPDEST DUP2 DUP2 SUB PUSH1 0x40 DUP4 ADD MSTORE PUSH2 0x184F DUP2 DUP5 PUSH2 0x1326 JUMP JUMPDEST SWAP1 POP SWAP5 SWAP4 POP POP POP POP JUMP JUMPDEST PUSH1 0x0 DUP1 PUSH1 0x40 DUP4 DUP6 SUB SLT ISZERO PUSH2 0x1870 JUMPI PUSH2 0x186F PUSH2 0x1231 JUMP JUMPDEST JUMPDEST PUSH1 0x0 DUP4 ADD CALLDATALOAD PUSH8 0xFFFFFFFFFFFFFFFF DUP2 GT ISZERO PUSH2 0x188E JUMPI PUSH2 0x188D PUSH2 0x1236 JUMP JUMPDEST JUMPDEST PUSH2 0x189A DUP6 DUP3 DUP7 ADD PUSH2 0x14BE JUMP JUMPDEST SWAP3 POP POP PUSH1 0x20 DUP4 ADD CALLDATALOAD PUSH8 0xFFFFFFFFFFFFFFFF DUP2 GT ISZERO PUSH2 0x18BB JUMPI PUSH2 0x18BA PUSH2 0x1236 JUMP JUMPDEST JUMPDEST PUSH2 0x18C7 DUP6 DUP3 DUP7 ADD PUSH2 0x14BE JUMP JUMPDEST SWAP2 POP POP SWAP3 POP SWAP3 SWAP1 POP JUMP JUMPDEST PUSH1 0x0 PUSH1 0x60 DUP3 ADD SWAP1 POP PUSH2 0x18E6 PUSH1 0x0 DUP4 ADD DUP7 PUSH2 0x17E2 JUMP JUMPDEST PUSH2 0x18F3 PUSH1 0x20 DUP4 ADD DUP6 PUSH2 0x180C JUMP JUMPDEST DUP2 DUP2 SUB PUSH1 0x40 DUP4 ADD MSTORE PUSH2 0x1905 DUP2 DUP5 PUSH2 0x1326 JUMP JUMPDEST SWAP1 POP SWAP5 SWAP4 POP POP POP POP JUMP JUMPDEST PUSH1 0x0 PUSH1 0x20 DUP3 DUP5 SUB SLT ISZERO PUSH2 0x1925 JUMPI PUSH2 0x1924 PUSH2 0x1231 JUMP JUMPDEST JUMPDEST PUSH1 0x0 DUP3 ADD CALLDATALOAD PUSH8 0xFFFFFFFFFFFFFFFF DUP2 GT ISZERO PUSH2 0x1943 JUMPI PUSH2 0x1942 PUSH2 0x1236 JUMP JUMPDEST JUMPDEST PUSH2 0x194F DUP5 DUP3 DUP6 ADD PUSH2 0x14BE JUMP JUMPDEST SWAP2 POP POP SWAP3 SWAP2 POP POP JUMP JUMPDEST PUSH1 0x0 DUP2 MLOAD SWAP1 POP SWAP2 SWAP1 POP JUMP JUMPDEST PUSH1 0x0 DUP3 DUP3 MSTORE PUSH1 0x20 DUP3 ADD SWAP1 POP SWAP3 SWAP2 POP POP JUMP JUMPDEST PUSH1 0x0 DUP2 SWAP1 POP PUSH1 0x20 DUP3 ADD SWAP1 POP SWAP2 SWAP1 POP JUMP JUMPDEST PUSH1 0x0 PUSH1 0x60 DUP4 ADD PUSH1 0x0 DUP4 ADD MLOAD PUSH2 0x199C PUSH1 0x0 DUP7 ADD DUP3 PUSH2 0x1583 JUMP JUMPDEST POP PUSH1 0x20 DUP4 ADD MLOAD PUSH2 0x19AF PUSH1 0x20 DUP7 ADD DUP3 PUSH2 0x1574 JUMP JUMPDEST POP PUSH1 0x40 DUP4 ADD MLOAD DUP5 DUP3 SUB PUSH1 0x40 DUP7 ADD MSTORE PUSH2 0x19C7 DUP3 DUP3 PUSH2 0x15A3 JUMP JUMPDEST SWAP2 POP POP DUP1 SWAP2 POP POP SWAP3 SWAP2 POP POP JUMP JUMPDEST PUSH1 0x0 PUSH2 0x19E0 DUP4 DUP4 PUSH2 0x1984 JUMP JUMPDEST SWAP1 POP SWAP3 SWAP2 POP POP JUMP JUMPDEST PUSH1 0x0 PUSH1 0x20 DUP3 ADD SWAP1 POP SWAP2 SWAP1 POP JUMP JUMPDEST PUSH1 0x0 PUSH2 0x1A00 DUP3 PUSH2 0x1958 JUMP JUMPDEST PUSH2 0x1A0A DUP2 DUP6 PUSH2 0x1963 JUMP JUMPDEST SWAP4 POP DUP4 PUSH1 0x20 DUP3 MUL DUP6 ADD PUSH2 0x1A1C DUP6 PUSH2 0x1974 JUMP JUMPDEST DUP1 PUSH1 0x0 JUMPDEST DUP6 DUP2 LT ISZERO PUSH2 0x1A58 JUMPI DUP5 DUP5 SUB DUP10 MSTORE DUP2 MLOAD PUSH2 0x1A39 DUP6 DUP3 PUSH2 0x19D4 JUMP JUMPDEST SWAP5 POP PUSH2 0x1A44 DUP4 PUSH2 0x19E8 JUMP JUMPDEST SWAP3 POP PUSH1 0x20 DUP11 ADD SWAP10 POP POP PUSH1 0x1 DUP2 ADD SWAP1 POP PUSH2 0x1A20 JUMP JUMPDEST POP DUP3 SWAP8 POP DUP8 SWAP6 POP POP POP POP POP POP SWAP3 SWAP2 POP POP JUMP JUMPDEST PUSH1 0x0 PUSH1 0x20 DUP3 ADD SWAP1 POP DUP2 DUP2 SUB PUSH1 0x0 DUP4 ADD MSTORE PUSH2 0x1A84 DUP2 DUP5 PUSH2 0x19F5 JUMP JUMPDEST SWAP1 POP SWAP3 SWAP2 POP POP JUMP JUMPDEST PUSH32 0x4E487B7100000000000000000000000000000000000000000000000000000000 PUSH1 0x0 MSTORE PUSH1 0x22 PUSH1 0x4 MSTORE PUSH1 0x24 PUSH1 0x0 REVERT JUMPDEST PUSH1 0x0 PUSH1 0x2 DUP3 DIV SWAP1 POP PUSH1 0x1 DUP3 AND DUP1 PUSH2 0x1AD3 JUMPI PUSH1 0x7F DUP3 AND SWAP2 POP JUMPDEST PUSH1 0x20 DUP3 LT DUP2 SUB PUSH2 0x1AE6 JUMPI PUSH2 0x1AE5 PUSH2 0x1A8C JUMP JUMPDEST JUMPDEST POP SWAP2 SWAP1 POP JUMP JUMPDEST PUSH32 0x4E487B7100000000000000000000000000000000000000000000000000000000 PUSH1 0x0 MSTORE PUSH1 0x32 PUSH1 0x4 MSTORE PUSH1 0x24 PUSH1 0x0 REVERT JUMPDEST PUSH32 0x4E487B7100000000000000000000000000000000000000000000000000000000 PUSH1 0x0 MSTORE PUSH1 0x11 PUSH1 0x4 MSTORE PUSH1 0x24 PUSH1 0x0 REVERT JUMPDEST PUSH1 0x0 PUSH2 0x1B55 DUP3 PUSH2 0x1381 JUMP JUMPDEST SWAP2 POP PUSH2 0x1B60 DUP4 PUSH2 0x1381 JUMP JUMPDEST SWAP3 POP DUP3 PUSH32 0xFFFFFFFFFFFFFFFFFFFFFFFFFFFFFFFFFFFFFFFFFFFFFFFFFFFFFFFFFFFFFFFF SUB DUP3 GT ISZERO PUSH2 0x1B95 JUMPI PUSH2 0x1B94 PUSH2 0x1B1B JUMP JUMPDEST JUMPDEST DUP3 DUP3 ADD SWAP1 POP SWAP3 SWAP2 POP POP JUMP JUMPDEST PUSH32 0x4F6E6C792061756374696F6E6565722063616E2063616C6C2074686973206675 PUSH1 0x0 DUP3 ADD MSTORE PUSH32 0x6E6374696F6E2E00000000000000000000000000000000000000000000000000 PUSH1 0x20 DUP3 ADD MSTORE POP JUMP JUMPDEST PUSH1 0x0 PUSH2 0x1BFC PUSH1 0x27 DUP4 PUSH2 0x12D1 JUMP JUMPDEST SWAP2 POP PUSH2 0x1C07 DUP3 PUSH2 0x1BA0 JUMP JUMPDEST PUSH1 0x40 DUP3 ADD SWAP1 POP SWAP2 SWAP1 POP JUMP JUMPDEST PUSH1 0x0 PUSH1 0x20 DUP3 ADD SWAP1 POP DUP2 DUP2 SUB PUSH1 0x0 DUP4 ADD MSTORE PUSH2 0x1C2B DUP2 PUSH2 0x1BEF JUMP JUMPDEST SWAP1 POP SWAP2 SWAP1 POP JUMP INVALID LOG2 PUSH5 0x6970667358 0x22 SLT KECCAK256 0xD1 0xF6 ADDMOD 0xFC SMOD EXTCODEHASH 0xB5 0xA6 0xD3 0x4B 0x2B 0xE4 COINBASE 0xEC 0x4A ADDMOD 0x22 0xCA 0x26 0xD5 0xF7 0x4F 0x4C 0xD2 0x2F PUSH13 0x6E9960EF426D64736F6C634300 ADDMOD 0xE STOP CALLER "
				},
				"gasEstimates": {
					"creation": {
						"codeDepositCost": "1454400",
						"executionCost": "1520",
						"totalCost": "1455920"
					},
					"external": {
						"assetDescription()": "infinite",
						"assetName()": "infinite",
						"bidders(uint256)": "5000",
						"dispute(uint256,string)": "infinite",
						"disputedBidders(uint256)": "infinite",
						"encodedBids(address)": "infinite",
						"getAllBidders()": "infinite",
						"getAllDisputers()": "infinite",
						"getAllWinners()": "infinite",
						"getBidderAddress(uint256)": "5034",
						"getEncodedBid(address)": "infinite",
						"getSampleString()": "infinite",
						"registerAuctionInfo(string,string)": "infinite",
						"registerBidder()": "48832",
						"reset()": "infinite",
						"resetEncodedBids()": "infinite",
						"submitEncodedBid(string)": "infinite",
						"submitWinner(uint256,string)": "infinite",
						"winners(uint256)": "infinite"
					}
				},
				"methodIdentifiers": {
					"assetDescription()": "938626c2",
					"assetName()": "c9230c5d",
					"bidders(uint256)": "cff29dfd",
					"dispute(uint256,string)": "66c85dee",
					"disputedBidders(uint256)": "8f772f96",
					"encodedBids(address)": "3817df4c",
					"getAllBidders()": "3a79d2e5",
					"getAllDisputers()": "35abd160",
					"getAllWinners()": "dc6b8627",
					"getBidderAddress(uint256)": "5fa38280",
					"getEncodedBid(address)": "05fb23cf",
					"getSampleString()": "83050daa",
					"registerAuctionInfo(string,string)": "a2ebc656",
					"registerBidder()": "f356733c",
					"reset()": "d826f88f",
					"resetEncodedBids()": "40bd5937",
					"submitEncodedBid(string)": "ca142b56",
					"submitWinner(uint256,string)": "1744e03b",
					"winners(uint256)": "a2fb1175"
				}
			},
			"storageLayout": {
				"storage": [
					{
						"astId": 3,
						"contract": "Contracts/AKEB.sol:AKEB",
						"label": "seller",
						"offset": 0,
						"slot": "0",
						"type": "t_address"
					},
					{
						"astId": 5,
						"contract": "Contracts/AKEB.sol:AKEB",
						"label": "assetDescription",
						"offset": 0,
						"slot": "1",
						"type": "t_string_storage"
					},
					{
						"astId": 7,
						"contract": "Contracts/AKEB.sol:AKEB",
						"label": "assetName",
						"offset": 0,
						"slot": "2",
						"type": "t_string_storage"
					},
					{
						"astId": 10,
						"contract": "Contracts/AKEB.sol:AKEB",
						"label": "bidders",
						"offset": 0,
						"slot": "3",
						"type": "t_array(t_address)dyn_storage"
					},
					{
						"astId": 14,
						"contract": "Contracts/AKEB.sol:AKEB",
						"label": "encodedBids",
						"offset": 0,
						"slot": "4",
						"type": "t_mapping(t_address,t_string_storage)"
					},
					{
						"astId": 25,
						"contract": "Contracts/AKEB.sol:AKEB",
						"label": "winners",
						"offset": 0,
						"slot": "5",
						"type": "t_array(t_struct(winner)21_storage)dyn_storage"
					},
					{
						"astId": 36,
						"contract": "Contracts/AKEB.sol:AKEB",
						"label": "disputedBidders",
						"offset": 0,
						"slot": "6",
						"type": "t_array(t_struct(DisputedBidders)32_storage)dyn_storage"
					}
				],
				"types": {
					"t_address": {
						"encoding": "inplace",
						"label": "address",
						"numberOfBytes": "20"
					},
					"t_array(t_address)dyn_storage": {
						"base": "t_address",
						"encoding": "dynamic_array",
						"label": "address[]",
						"numberOfBytes": "32"
					},
					"t_array(t_struct(DisputedBidders)32_storage)dyn_storage": {
						"base": "t_struct(DisputedBidders)32_storage",
						"encoding": "dynamic_array",
						"label": "struct AKEB.DisputedBidders[]",
						"numberOfBytes": "32"
					},
					"t_array(t_struct(winner)21_storage)dyn_storage": {
						"base": "t_struct(winner)21_storage",
						"encoding": "dynamic_array",
						"label": "struct AKEB.winner[]",
						"numberOfBytes": "32"
					},
					"t_mapping(t_address,t_string_storage)": {
						"encoding": "mapping",
						"key": "t_address",
						"label": "mapping(address => string)",
						"numberOfBytes": "32",
						"value": "t_string_storage"
					},
					"t_string_storage": {
						"encoding": "bytes",
						"label": "string",
						"numberOfBytes": "32"
					},
					"t_struct(DisputedBidders)32_storage": {
						"encoding": "inplace",
						"label": "struct AKEB.DisputedBidders",
						"members": [
							{
								"astId": 27,
								"contract": "Contracts/AKEB.sol:AKEB",
								"label": "bid",
								"offset": 0,
								"slot": "0",
								"type": "t_uint256"
							},
							{
								"astId": 29,
								"contract": "Contracts/AKEB.sol:AKEB",
								"label": "disputeAddress",
								"offset": 0,
								"slot": "1",
								"type": "t_address"
							},
							{
								"astId": 31,
								"contract": "Contracts/AKEB.sol:AKEB",
								"label": "nonce",
								"offset": 0,
								"slot": "2",
								"type": "t_string_storage"
							}
						],
						"numberOfBytes": "96"
					},
					"t_struct(winner)21_storage": {
						"encoding": "inplace",
						"label": "struct AKEB.winner",
						"members": [
							{
								"astId": 16,
								"contract": "Contracts/AKEB.sol:AKEB",
								"label": "winnerAddress",
								"offset": 0,
								"slot": "0",
								"type": "t_address"
							},
							{
								"astId": 18,
								"contract": "Contracts/AKEB.sol:AKEB",
								"label": "bid",
								"offset": 0,
								"slot": "1",
								"type": "t_uint256"
							},
							{
								"astId": 20,
								"contract": "Contracts/AKEB.sol:AKEB",
								"label": "nonce",
								"offset": 0,
								"slot": "2",
								"type": "t_string_storage"
							}
						],
						"numberOfBytes": "96"
					},
					"t_uint256": {
						"encoding": "inplace",
						"label": "uint256",
						"numberOfBytes": "32"
					}
				}
			},
			"userdoc": {
				"kind": "user",
				"methods": {},
				"version": 1
			}
		}
	}
}