{
	"Contracts/AKEB.sol": {
		"AKEB": {
			"abi": [
				{
					"inputs": [],
					"name": "assetDescription",
					"outputs": [
						{
							"internalType": "string",
							"name": "",
							"type": "string"
						}
					],
					"stateMutability": "view",
					"type": "function"
				},
				{
					"inputs": [
						{
							"internalType": "uint256",
							"name": "",
							"type": "uint256"
						}
					],
					"name": "bidders",
					"outputs": [
						{
							"internalType": "address",
							"name": "",
							"type": "address"
						}
					],
					"stateMutability": "view",
					"type": "function"
				},
				{
					"inputs": [
						{
							"internalType": "uint256",
							"name": "inputDisputedBid",
							"type": "uint256"
						},
						{
							"internalType": "string",
							"name": "inputDisputedKey",
							"type": "string"
						}
					],
					"name": "dispute",
					"outputs": [],
					"stateMutability": "nonpayable",
					"type": "function"
				},
				{
					"inputs": [
						{
							"internalType": "uint256",
							"name": "",
							"type": "uint256"
						}
					],
					"name": "disputedBidders",
					"outputs": [
						{
							"internalType": "uint256",
							"name": "bid",
							"type": "uint256"
						},
						{
							"internalType": "address",
							"name": "disputeAddress",
							"type": "address"
						},
						{
							"internalType": "string",
							"name": "key",
							"type": "string"
						}
					],
					"stateMutability": "view",
					"type": "function"
				},
				{
					"inputs": [
						{
							"internalType": "address",
							"name": "",
							"type": "address"
						}
					],
					"name": "encodedBids",
					"outputs": [
						{
							"internalType": "string",
							"name": "",
							"type": "string"
						}
					],
					"stateMutability": "view",
					"type": "function"
				},
				{
					"inputs": [
						{
							"internalType": "uint256",
							"name": "index",
							"type": "uint256"
						}
					],
					"name": "getBidderAddress",
					"outputs": [
						{
							"internalType": "address",
							"name": "",
							"type": "address"
						}
					],
					"stateMutability": "view",
					"type": "function"
				},
				{
					"inputs": [
						{
							"internalType": "address",
							"name": "inputAddress",
							"type": "address"
						}
					],
					"name": "getEncodedBid",
					"outputs": [
						{
							"internalType": "string",
							"name": "",
							"type": "string"
						}
					],
					"stateMutability": "view",
					"type": "function"
				},
				{
					"inputs": [],
					"name": "getSampleString",
					"outputs": [
						{
							"internalType": "string",
							"name": "",
							"type": "string"
						}
					],
					"stateMutability": "pure",
					"type": "function"
				},
				{
					"inputs": [],
					"name": "getWinnerAddress",
					"outputs": [
						{
							"internalType": "address",
							"name": "",
							"type": "address"
						}
					],
					"stateMutability": "view",
					"type": "function"
				},
				{
					"inputs": [],
					"name": "getWinnerBid",
					"outputs": [
						{
							"internalType": "uint256",
							"name": "",
							"type": "uint256"
						}
					],
					"stateMutability": "view",
					"type": "function"
				},
				{
					"inputs": [],
					"name": "getWinnerKey",
					"outputs": [
						{
							"internalType": "string",
							"name": "",
							"type": "string"
						}
					],
					"stateMutability": "view",
					"type": "function"
				},
				{
					"inputs": [],
					"name": "minBidPrice",
					"outputs": [
						{
							"internalType": "uint256",
							"name": "",
							"type": "uint256"
						}
					],
					"stateMutability": "view",
					"type": "function"
				},
				{
					"inputs": [],
					"name": "minNumberOfBidders",
					"outputs": [
						{
							"internalType": "uint256",
							"name": "",
							"type": "uint256"
						}
					],
					"stateMutability": "view",
					"type": "function"
				},
				{
					"inputs": [
						{
							"internalType": "string",
							"name": "assetDescriptionInput",
							"type": "string"
						},
						{
							"internalType": "uint256",
							"name": "minBidPriceInput",
							"type": "uint256"
						},
						{
							"internalType": "uint256",
							"name": "minNumberOfBiddersInput",
							"type": "uint256"
						}
					],
					"name": "registerAuctionInfo",
					"outputs": [],
					"stateMutability": "nonpayable",
					"type": "function"
				},
				{
					"inputs": [],
					"name": "registerBidder",
					"outputs": [],
					"stateMutability": "nonpayable",
					"type": "function"
				},
				{
					"inputs": [
						{
							"internalType": "string",
							"name": "inputEncodedBid",
							"type": "string"
						}
					],
					"name": "submitEncryptedBid",
					"outputs": [],
					"stateMutability": "nonpayable",
					"type": "function"
				},
				{
					"inputs": [
						{
							"internalType": "uint256",
							"name": "inputWinnerBid",
							"type": "uint256"
						},
						{
							"internalType": "string",
							"name": "inputWinnerKey",
							"type": "string"
						}
					],
					"name": "submitWinner",
					"outputs": [],
					"stateMutability": "nonpayable",
					"type": "function"
				},
				{
					"inputs": [],
					"name": "winnerAddress",
					"outputs": [
						{
							"internalType": "address",
							"name": "",
							"type": "address"
						}
					],
					"stateMutability": "view",
					"type": "function"
				},
				{
					"inputs": [],
					"name": "winnerBid",
					"outputs": [
						{
							"internalType": "uint256",
							"name": "",
							"type": "uint256"
						}
					],
					"stateMutability": "view",
					"type": "function"
				},
				{
					"inputs": [],
					"name": "winnerKey",
					"outputs": [
						{
							"internalType": "string",
							"name": "",
							"type": "string"
						}
					],
					"stateMutability": "view",
					"type": "function"
				}
			],
			"devdoc": {
				"kind": "dev",
				"methods": {},
				"version": 1
			},
			"evm": {
				"assembly": "    /* \"Contracts/AKEB.sol\":58:2515  contract AKEB {... */\n  mstore(0x40, 0x80)\n  callvalue\n  dup1\n  iszero\n  tag_1\n  jumpi\n  0x00\n  dup1\n  revert\ntag_1:\n  pop\n  dataSize(sub_0)\n  dup1\n  dataOffset(sub_0)\n  0x00\n  codecopy\n  0x00\n  return\nstop\n\nsub_0: assembly {\n        /* \"Contracts/AKEB.sol\":58:2515  contract AKEB {... */\n      mstore(0x40, 0x80)\n      callvalue\n      dup1\n      iszero\n      tag_1\n      jumpi\n      0x00\n      dup1\n      revert\n    tag_1:\n      pop\n      jumpi(tag_2, lt(calldatasize, 0x04))\n      shr(0xe0, calldataload(0x00))\n      dup1\n      0x8f772f96\n      gt\n      tag_23\n      jumpi\n      dup1\n      0xdaa0218f\n      gt\n      tag_24\n      jumpi\n      dup1\n      0xdaa0218f\n      eq\n      tag_18\n      jumpi\n      dup1\n      0xe7d2a997\n      eq\n      tag_19\n      jumpi\n      dup1\n      0xed7a4e0b\n      eq\n      tag_20\n      jumpi\n      dup1\n      0xf356733c\n      eq\n      tag_21\n      jumpi\n      dup1\n      0xff567d8d\n      eq\n      tag_22\n      jumpi\n      jump(tag_2)\n    tag_24:\n      dup1\n      0x8f772f96\n      eq\n      tag_13\n      jumpi\n      dup1\n      0x938626c2\n      eq\n      tag_14\n      jumpi\n      dup1\n      0xceb98f6e\n      eq\n      tag_15\n      jumpi\n      dup1\n      0xcff29dfd\n      eq\n      tag_16\n      jumpi\n      dup1\n      0xd476620b\n      eq\n      tag_17\n      jumpi\n      jump(tag_2)\n    tag_23:\n      dup1\n      0x3817df4c\n      gt\n      tag_25\n      jumpi\n      dup1\n      0x3817df4c\n      eq\n      tag_8\n      jumpi\n      dup1\n      0x3c68889a\n      eq\n      tag_9\n      jumpi\n      dup1\n      0x5fa38280\n      eq\n      tag_10\n      jumpi\n      dup1\n      0x66c85dee\n      eq\n      tag_11\n      jumpi\n      dup1\n      0x83050daa\n      eq\n      tag_12\n      jumpi\n      jump(tag_2)\n    tag_25:\n      dup1\n      0x05fb23cf\n      eq\n      tag_3\n      jumpi\n      dup1\n      0x10a37c26\n      eq\n      tag_4\n      jumpi\n      dup1\n      0x11631d06\n      eq\n      tag_5\n      jumpi\n      dup1\n      0x1744e03b\n      eq\n      tag_6\n      jumpi\n      dup1\n      0x34eb86a2\n      eq\n      tag_7\n      jumpi\n    tag_2:\n      0x00\n      dup1\n      revert\n        /* \"Contracts/AKEB.sol\":1582:1710  function getEncodedBid(address inputAddress) public view returns(string memory){... */\n    tag_3:\n      tag_26\n      0x04\n      dup1\n      calldatasize\n      sub\n      dup2\n      add\n      swap1\n      tag_27\n      swap2\n      swap1\n      tag_28\n      jump\t// in\n    tag_27:\n      tag_29\n      jump\t// in\n    tag_26:\n      mload(0x40)\n      tag_30\n      swap2\n      swap1\n      tag_31\n      jump\t// in\n    tag_30:\n      mload(0x40)\n      dup1\n      swap2\n      sub\n      swap1\n      return\n        /* \"Contracts/AKEB.sol\":1924:2018  function getWinnerAddress() public view returns(address) {... */\n    tag_4:\n      tag_32\n      tag_33\n      jump\t// in\n    tag_32:\n      mload(0x40)\n      tag_34\n      swap2\n      swap1\n      tag_35\n      jump\t// in\n    tag_34:\n      mload(0x40)\n      dup1\n      swap2\n      sub\n      swap1\n      return\n        /* \"Contracts/AKEB.sol\":326:350  uint256 public winnerBid */\n    tag_5:\n      tag_36\n      tag_37\n      jump\t// in\n    tag_36:\n      mload(0x40)\n      tag_38\n      swap2\n      swap1\n      tag_39\n      jump\t// in\n    tag_38:\n      mload(0x40)\n      dup1\n      swap2\n      sub\n      swap1\n      return\n        /* \"Contracts/AKEB.sol\":1716:1918  function submitWinner(uint256 inputWinnerBid, ... */\n    tag_6:\n      tag_40\n      0x04\n      dup1\n      calldatasize\n      sub\n      dup2\n      add\n      swap1\n      tag_41\n      swap2\n      swap1\n      tag_42\n      jump\t// in\n    tag_41:\n      tag_43\n      jump\t// in\n    tag_40:\n      stop\n        /* \"Contracts/AKEB.sol\":168:194  uint256 public minBidPrice */\n    tag_7:\n      tag_44\n      tag_45\n      jump\t// in\n    tag_44:\n      mload(0x40)\n      tag_46\n      swap2\n      swap1\n      tag_39\n      jump\t// in\n    tag_46:\n      mload(0x40)\n      dup1\n      swap2\n      sub\n      swap1\n      return\n        /* \"Contracts/AKEB.sol\":240:285  mapping(address => string) public encodedBids */\n    tag_8:\n      tag_47\n      0x04\n      dup1\n      calldatasize\n      sub\n      dup2\n      add\n      swap1\n      tag_48\n      swap2\n      swap1\n      tag_28\n      jump\t// in\n    tag_48:\n      tag_49\n      jump\t// in\n    tag_47:\n      mload(0x40)\n      tag_50\n      swap2\n      swap1\n      tag_31\n      jump\t// in\n    tag_50:\n      mload(0x40)\n      dup1\n      swap2\n      sub\n      swap1\n      return\n        /* \"Contracts/AKEB.sol\":2116:2207  function getWinnerKey() public view returns(string memory){... */\n    tag_9:\n      tag_51\n      tag_52\n      jump\t// in\n    tag_51:\n      mload(0x40)\n      tag_53\n      swap2\n      swap1\n      tag_31\n      jump\t// in\n    tag_53:\n      mload(0x40)\n      dup1\n      swap2\n      sub\n      swap1\n      return\n        /* \"Contracts/AKEB.sol\":1337:1442  function getBidderAddress(uint index) public view returns(address) {... */\n    tag_10:\n      tag_54\n      0x04\n      dup1\n      calldatasize\n      sub\n      dup2\n      add\n      swap1\n      tag_55\n      swap2\n      swap1\n      tag_56\n      jump\t// in\n    tag_55:\n      tag_57\n      jump\t// in\n    tag_54:\n      mload(0x40)\n      tag_58\n      swap2\n      swap1\n      tag_35\n      jump\t// in\n    tag_58:\n      mload(0x40)\n      dup1\n      swap2\n      sub\n      swap1\n      return\n        /* \"Contracts/AKEB.sol\":2213:2513  function dispute(uint256 inputDisputedBid, ... */\n    tag_11:\n      tag_59\n      0x04\n      dup1\n      calldatasize\n      sub\n      dup2\n      add\n      swap1\n      tag_60\n      swap2\n      swap1\n      tag_42\n      jump\t// in\n    tag_60:\n      tag_61\n      jump\t// in\n    tag_59:\n      stop\n        /* \"Contracts/AKEB.sol\":815:925  function getSampleString() public pure returns(string memory){... */\n    tag_12:\n      tag_62\n      tag_63\n      jump\t// in\n    tag_62:\n      mload(0x40)\n      tag_64\n      swap2\n      swap1\n      tag_31\n      jump\t// in\n    tag_64:\n      mload(0x40)\n      dup1\n      swap2\n      sub\n      swap1\n      return\n        /* \"Contracts/AKEB.sol\":495:535  DisputedBidders[] public disputedBidders */\n    tag_13:\n      tag_65\n      0x04\n      dup1\n      calldatasize\n      sub\n      dup2\n      add\n      swap1\n      tag_66\n      swap2\n      swap1\n      tag_56\n      jump\t// in\n    tag_66:\n      tag_67\n      jump\t// in\n    tag_65:\n      mload(0x40)\n      tag_68\n      swap4\n      swap3\n      swap2\n      swap1\n      tag_69\n      jump\t// in\n    tag_68:\n      mload(0x40)\n      dup1\n      swap2\n      sub\n      swap1\n      return\n        /* \"Contracts/AKEB.sol\":132:162  string public assetDescription */\n    tag_14:\n      tag_70\n      tag_71\n      jump\t// in\n    tag_70:\n      mload(0x40)\n      tag_72\n      swap2\n      swap1\n      tag_31\n      jump\t// in\n    tag_72:\n      mload(0x40)\n      dup1\n      swap2\n      sub\n      swap1\n      return\n        /* \"Contracts/AKEB.sol\":2024:2110  function getWinnerBid() public view returns(uint256) {... */\n    tag_15:\n      tag_73\n      tag_74\n      jump\t// in\n    tag_73:\n      mload(0x40)\n      tag_75\n      swap2\n      swap1\n      tag_39\n      jump\t// in\n    tag_75:\n      mload(0x40)\n      dup1\n      swap2\n      sub\n      swap1\n      return\n        /* \"Contracts/AKEB.sol\":102:126  address[] public bidders */\n    tag_16:\n      tag_76\n      0x04\n      dup1\n      calldatasize\n      sub\n      dup2\n      add\n      swap1\n      tag_77\n      swap2\n      swap1\n      tag_56\n      jump\t// in\n    tag_77:\n      tag_78\n      jump\t// in\n    tag_76:\n      mload(0x40)\n      tag_79\n      swap2\n      swap1\n      tag_35\n      jump\t// in\n    tag_79:\n      mload(0x40)\n      dup1\n      swap2\n      sub\n      swap1\n      return\n        /* \"Contracts/AKEB.sol\":356:379  string public winnerKey */\n    tag_17:\n      tag_80\n      tag_81\n      jump\t// in\n    tag_80:\n      mload(0x40)\n      tag_82\n      swap2\n      swap1\n      tag_31\n      jump\t// in\n    tag_82:\n      mload(0x40)\n      dup1\n      swap2\n      sub\n      swap1\n      return\n        /* \"Contracts/AKEB.sol\":200:233  uint256 public minNumberOfBidders */\n    tag_18:\n      tag_83\n      tag_84\n      jump\t// in\n    tag_83:\n      mload(0x40)\n      tag_85\n      swap2\n      swap1\n      tag_39\n      jump\t// in\n    tag_85:\n      mload(0x40)\n      dup1\n      swap2\n      sub\n      swap1\n      return\n        /* \"Contracts/AKEB.sol\":931:1251  function registerAuctionInfo(string memory assetDescriptionInput, ... */\n    tag_19:\n      tag_86\n      0x04\n      dup1\n      calldatasize\n      sub\n      dup2\n      add\n      swap1\n      tag_87\n      swap2\n      swap1\n      tag_88\n      jump\t// in\n    tag_87:\n      tag_89\n      jump\t// in\n    tag_86:\n      stop\n        /* \"Contracts/AKEB.sol\":292:320  address public winnerAddress */\n    tag_20:\n      tag_90\n      tag_91\n      jump\t// in\n    tag_90:\n      mload(0x40)\n      tag_92\n      swap2\n      swap1\n      tag_35\n      jump\t// in\n    tag_92:\n      mload(0x40)\n      dup1\n      swap2\n      sub\n      swap1\n      return\n        /* \"Contracts/AKEB.sol\":1257:1331  function registerBidder() public {... */\n    tag_21:\n      tag_93\n      tag_94\n      jump\t// in\n    tag_93:\n      stop\n        /* \"Contracts/AKEB.sol\":1448:1576  function submitEncryptedBid(string memory inputEncodedBid)... */\n    tag_22:\n      tag_95\n      0x04\n      dup1\n      calldatasize\n      sub\n      dup2\n      add\n      swap1\n      tag_96\n      swap2\n      swap1\n      tag_97\n      jump\t// in\n    tag_96:\n      tag_98\n      jump\t// in\n    tag_95:\n      stop\n        /* \"Contracts/AKEB.sol\":1582:1710  function getEncodedBid(address inputAddress) public view returns(string memory){... */\n    tag_29:\n        /* \"Contracts/AKEB.sol\":1647:1660  string memory */\n      0x60\n        /* \"Contracts/AKEB.sol\":1678:1689  encodedBids */\n      0x05\n        /* \"Contracts/AKEB.sol\":1678:1703  encodedBids[inputAddress] */\n      0x00\n        /* \"Contracts/AKEB.sol\":1690:1702  inputAddress */\n      dup4\n        /* \"Contracts/AKEB.sol\":1678:1703  encodedBids[inputAddress] */\n      0xffffffffffffffffffffffffffffffffffffffff\n      and\n      0xffffffffffffffffffffffffffffffffffffffff\n      and\n      dup2\n      mstore\n      0x20\n      add\n      swap1\n      dup2\n      mstore\n      0x20\n      add\n      0x00\n      keccak256\n        /* \"Contracts/AKEB.sol\":1671:1703  return encodedBids[inputAddress] */\n      dup1\n      sload\n      tag_100\n      swap1\n      tag_101\n      jump\t// in\n    tag_100:\n      dup1\n      0x1f\n      add\n      0x20\n      dup1\n      swap2\n      div\n      mul\n      0x20\n      add\n      mload(0x40)\n      swap1\n      dup2\n      add\n      0x40\n      mstore\n      dup1\n      swap3\n      swap2\n      swap1\n      dup2\n      dup2\n      mstore\n      0x20\n      add\n      dup3\n      dup1\n      sload\n      tag_102\n      swap1\n      tag_101\n      jump\t// in\n    tag_102:\n      dup1\n      iszero\n      tag_103\n      jumpi\n      dup1\n      0x1f\n      lt\n      tag_104\n      jumpi\n      0x0100\n      dup1\n      dup4\n      sload\n      div\n      mul\n      dup4\n      mstore\n      swap2\n      0x20\n      add\n      swap2\n      jump(tag_103)\n    tag_104:\n      dup3\n      add\n      swap2\n      swap1\n      0x00\n      mstore\n      keccak256(0x00, 0x20)\n      swap1\n    tag_105:\n      dup2\n      sload\n      dup2\n      mstore\n      swap1\n      0x01\n      add\n      swap1\n      0x20\n      add\n      dup1\n      dup4\n      gt\n      tag_105\n      jumpi\n      dup3\n      swap1\n      sub\n      0x1f\n      and\n      dup3\n      add\n      swap2\n    tag_103:\n      pop\n      pop\n      pop\n      pop\n      pop\n      swap1\n      pop\n        /* \"Contracts/AKEB.sol\":1582:1710  function getEncodedBid(address inputAddress) public view returns(string memory){... */\n      swap2\n      swap1\n      pop\n      jump\t// out\n        /* \"Contracts/AKEB.sol\":1924:2018  function getWinnerAddress() public view returns(address) {... */\n    tag_33:\n        /* \"Contracts/AKEB.sol\":1972:1979  address */\n      0x00\n        /* \"Contracts/AKEB.sol\":1998:2011  winnerAddress */\n      0x06\n      0x00\n      swap1\n      sload\n      swap1\n      0x0100\n      exp\n      swap1\n      div\n      0xffffffffffffffffffffffffffffffffffffffff\n      and\n        /* \"Contracts/AKEB.sol\":1991:2011  return winnerAddress */\n      swap1\n      pop\n        /* \"Contracts/AKEB.sol\":1924:2018  function getWinnerAddress() public view returns(address) {... */\n      swap1\n      jump\t// out\n        /* \"Contracts/AKEB.sol\":326:350  uint256 public winnerBid */\n    tag_37:\n      sload(0x07)\n      dup2\n      jump\t// out\n        /* \"Contracts/AKEB.sol\":1716:1918  function submitWinner(uint256 inputWinnerBid, ... */\n    tag_43:\n        /* \"Contracts/AKEB.sol\":1829:1839  msg.sender */\n      caller\n        /* \"Contracts/AKEB.sol\":1813:1826  winnerAddress */\n      0x06\n      0x00\n        /* \"Contracts/AKEB.sol\":1813:1839  winnerAddress = msg.sender */\n      0x0100\n      exp\n      dup2\n      sload\n      dup2\n      0xffffffffffffffffffffffffffffffffffffffff\n      mul\n      not\n      and\n      swap1\n      dup4\n      0xffffffffffffffffffffffffffffffffffffffff\n      and\n      mul\n      or\n      swap1\n      sstore\n      pop\n        /* \"Contracts/AKEB.sol\":1861:1875  inputWinnerBid */\n      dup2\n        /* \"Contracts/AKEB.sol\":1849:1858  winnerBid */\n      0x07\n        /* \"Contracts/AKEB.sol\":1849:1875  winnerBid = inputWinnerBid */\n      dup2\n      swap1\n      sstore\n      pop\n        /* \"Contracts/AKEB.sol\":1897:1911  inputWinnerKey */\n      dup1\n        /* \"Contracts/AKEB.sol\":1885:1894  winnerKey */\n      0x08\n        /* \"Contracts/AKEB.sol\":1885:1911  winnerKey = inputWinnerKey */\n      swap1\n      dup1\n      mload\n      swap1\n      0x20\n      add\n      swap1\n      tag_108\n      swap3\n      swap2\n      swap1\n      tag_109\n      jump\t// in\n    tag_108:\n      pop\n        /* \"Contracts/AKEB.sol\":1716:1918  function submitWinner(uint256 inputWinnerBid, ... */\n      pop\n      pop\n      jump\t// out\n        /* \"Contracts/AKEB.sol\":168:194  uint256 public minBidPrice */\n    tag_45:\n      sload(0x03)\n      dup2\n      jump\t// out\n        /* \"Contracts/AKEB.sol\":240:285  mapping(address => string) public encodedBids */\n    tag_49:\n      mstore(0x20, 0x05)\n      dup1\n      0x00\n      mstore\n      keccak256(0x00, 0x40)\n      0x00\n      swap2\n      pop\n      swap1\n      pop\n      dup1\n      sload\n      tag_110\n      swap1\n      tag_101\n      jump\t// in\n    tag_110:\n      dup1\n      0x1f\n      add\n      0x20\n      dup1\n      swap2\n      div\n      mul\n      0x20\n      add\n      mload(0x40)\n      swap1\n      dup2\n      add\n      0x40\n      mstore\n      dup1\n      swap3\n      swap2\n      swap1\n      dup2\n      dup2\n      mstore\n      0x20\n      add\n      dup3\n      dup1\n      sload\n      tag_111\n      swap1\n      tag_101\n      jump\t// in\n    tag_111:\n      dup1\n      iszero\n      tag_112\n      jumpi\n      dup1\n      0x1f\n      lt\n      tag_113\n      jumpi\n      0x0100\n      dup1\n      dup4\n      sload\n      div\n      mul\n      dup4\n      mstore\n      swap2\n      0x20\n      add\n      swap2\n      jump(tag_112)\n    tag_113:\n      dup3\n      add\n      swap2\n      swap1\n      0x00\n      mstore\n      keccak256(0x00, 0x20)\n      swap1\n    tag_114:\n      dup2\n      sload\n      dup2\n      mstore\n      swap1\n      0x01\n      add\n      swap1\n      0x20\n      add\n      dup1\n      dup4\n      gt\n      tag_114\n      jumpi\n      dup3\n      swap1\n      sub\n      0x1f\n      and\n      dup3\n      add\n      swap2\n    tag_112:\n      pop\n      pop\n      pop\n      pop\n      pop\n      dup2\n      jump\t// out\n        /* \"Contracts/AKEB.sol\":2116:2207  function getWinnerKey() public view returns(string memory){... */\n    tag_52:\n        /* \"Contracts/AKEB.sol\":2160:2173  string memory */\n      0x60\n        /* \"Contracts/AKEB.sol\":2191:2200  winnerKey */\n      0x08\n        /* \"Contracts/AKEB.sol\":2184:2200  return winnerKey */\n      dup1\n      sload\n      tag_116\n      swap1\n      tag_101\n      jump\t// in\n    tag_116:\n      dup1\n      0x1f\n      add\n      0x20\n      dup1\n      swap2\n      div\n      mul\n      0x20\n      add\n      mload(0x40)\n      swap1\n      dup2\n      add\n      0x40\n      mstore\n      dup1\n      swap3\n      swap2\n      swap1\n      dup2\n      dup2\n      mstore\n      0x20\n      add\n      dup3\n      dup1\n      sload\n      tag_117\n      swap1\n      tag_101\n      jump\t// in\n    tag_117:\n      dup1\n      iszero\n      tag_118\n      jumpi\n      dup1\n      0x1f\n      lt\n      tag_119\n      jumpi\n      0x0100\n      dup1\n      dup4\n      sload\n      div\n      mul\n      dup4\n      mstore\n      swap2\n      0x20\n      add\n      swap2\n      jump(tag_118)\n    tag_119:\n      dup3\n      add\n      swap2\n      swap1\n      0x00\n      mstore\n      keccak256(0x00, 0x20)\n      swap1\n    tag_120:\n      dup2\n      sload\n      dup2\n      mstore\n      swap1\n      0x01\n      add\n      swap1\n      0x20\n      add\n      dup1\n      dup4\n      gt\n      tag_120\n      jumpi\n      dup3\n      swap1\n      sub\n      0x1f\n      and\n      dup3\n      add\n      swap2\n    tag_118:\n      pop\n      pop\n      pop\n      pop\n      pop\n      swap1\n      pop\n        /* \"Contracts/AKEB.sol\":2116:2207  function getWinnerKey() public view returns(string memory){... */\n      swap1\n      jump\t// out\n        /* \"Contracts/AKEB.sol\":1337:1442  function getBidderAddress(uint index) public view returns(address) {... */\n    tag_57:\n        /* \"Contracts/AKEB.sol\":1395:1402  address */\n      0x00\n        /* \"Contracts/AKEB.sol\":1421:1428  bidders */\n      0x01\n        /* \"Contracts/AKEB.sol\":1429:1434  index */\n      dup3\n        /* \"Contracts/AKEB.sol\":1421:1435  bidders[index] */\n      dup2\n      sload\n      dup2\n      lt\n      tag_122\n      jumpi\n      tag_123\n      tag_124\n      jump\t// in\n    tag_123:\n    tag_122:\n      swap1\n      0x00\n      mstore\n      keccak256(0x00, 0x20)\n      add\n      0x00\n      swap1\n      sload\n      swap1\n      0x0100\n      exp\n      swap1\n      div\n      0xffffffffffffffffffffffffffffffffffffffff\n      and\n        /* \"Contracts/AKEB.sol\":1414:1435  return bidders[index] */\n      swap1\n      pop\n        /* \"Contracts/AKEB.sol\":1337:1442  function getBidderAddress(uint index) public view returns(address) {... */\n      swap2\n      swap1\n      pop\n      jump\t// out\n        /* \"Contracts/AKEB.sol\":2213:2513  function dispute(uint256 inputDisputedBid, ... */\n    tag_61:\n        /* \"Contracts/AKEB.sol\":2310:2347  DisputedBidders memory disputedBidder */\n      0x00\n        /* \"Contracts/AKEB.sol\":2350:2459  DisputedBidders(... */\n      mload(0x40)\n      dup1\n      0x60\n      add\n      0x40\n      mstore\n      dup1\n        /* \"Contracts/AKEB.sol\":2379:2395  inputDisputedBid */\n      dup5\n        /* \"Contracts/AKEB.sol\":2350:2459  DisputedBidders(... */\n      dup2\n      mstore\n      0x20\n      add\n        /* \"Contracts/AKEB.sol\":2409:2419  msg.sender */\n      caller\n        /* \"Contracts/AKEB.sol\":2350:2459  DisputedBidders(... */\n      0xffffffffffffffffffffffffffffffffffffffff\n      and\n      dup2\n      mstore\n      0x20\n      add\n        /* \"Contracts/AKEB.sol\":2433:2449  inputDisputedKey */\n      dup4\n        /* \"Contracts/AKEB.sol\":2350:2459  DisputedBidders(... */\n      dup2\n      mstore\n      pop\n        /* \"Contracts/AKEB.sol\":2310:2459  DisputedBidders memory disputedBidder = DisputedBidders(... */\n      swap1\n      pop\n        /* \"Contracts/AKEB.sol\":2470:2485  disputedBidders */\n      0x09\n        /* \"Contracts/AKEB.sol\":2491:2505  disputedBidder */\n      dup2\n        /* \"Contracts/AKEB.sol\":2470:2506  disputedBidders.push(disputedBidder) */\n      swap1\n      dup1\n      0x01\n      dup2\n      sload\n      add\n      dup1\n      dup3\n      sstore\n      dup1\n      swap2\n      pop\n      pop\n      0x01\n      swap1\n      sub\n      swap1\n      0x00\n      mstore\n      keccak256(0x00, 0x20)\n      swap1\n      0x03\n      mul\n      add\n      0x00\n      swap1\n      swap2\n      swap1\n      swap2\n      swap1\n      swap2\n      pop\n      0x00\n      dup3\n      add\n      mload\n      dup2\n      0x00\n      add\n      sstore\n      0x20\n      dup3\n      add\n      mload\n      dup2\n      0x01\n      add\n      exp(0x0100, 0x00)\n      dup2\n      sload\n      dup2\n      0xffffffffffffffffffffffffffffffffffffffff\n      mul\n      not\n      and\n      swap1\n      dup4\n      0xffffffffffffffffffffffffffffffffffffffff\n      and\n      mul\n      or\n      swap1\n      sstore\n      pop\n      0x40\n      dup3\n      add\n      mload\n      dup2\n      0x02\n      add\n      swap1\n      dup1\n      mload\n      swap1\n      0x20\n      add\n      swap1\n      tag_128\n      swap3\n      swap2\n      swap1\n      tag_109\n      jump\t// in\n    tag_128:\n      pop\n      pop\n      pop\n        /* \"Contracts/AKEB.sol\":2300:2513  {... */\n      pop\n        /* \"Contracts/AKEB.sol\":2213:2513  function dispute(uint256 inputDisputedBid, ... */\n      pop\n      pop\n      jump\t// out\n        /* \"Contracts/AKEB.sol\":815:925  function getSampleString() public pure returns(string memory){... */\n    tag_63:\n        /* \"Contracts/AKEB.sol\":862:875  string memory */\n      0x60\n        /* \"Contracts/AKEB.sol\":886:918  return \"sample string from AKEB\" */\n      mload(0x40)\n      dup1\n      0x40\n      add\n      0x40\n      mstore\n      dup1\n      0x17\n      dup2\n      mstore\n      0x20\n      add\n      0x73616d706c6520737472696e672066726f6d20414b4542000000000000000000\n      dup2\n      mstore\n      pop\n      swap1\n      pop\n        /* \"Contracts/AKEB.sol\":815:925  function getSampleString() public pure returns(string memory){... */\n      swap1\n      jump\t// out\n        /* \"Contracts/AKEB.sol\":495:535  DisputedBidders[] public disputedBidders */\n    tag_67:\n      0x09\n      dup2\n      dup2\n      sload\n      dup2\n      lt\n      tag_130\n      jumpi\n      0x00\n      dup1\n      revert\n    tag_130:\n      swap1\n      0x00\n      mstore\n      keccak256(0x00, 0x20)\n      swap1\n      0x03\n      mul\n      add\n      0x00\n      swap2\n      pop\n      swap1\n      pop\n      dup1\n      0x00\n      add\n      sload\n      swap1\n      dup1\n      0x01\n      add\n      0x00\n      swap1\n      sload\n      swap1\n      0x0100\n      exp\n      swap1\n      div\n      0xffffffffffffffffffffffffffffffffffffffff\n      and\n      swap1\n      dup1\n      0x02\n      add\n      dup1\n      sload\n      tag_132\n      swap1\n      tag_101\n      jump\t// in\n    tag_132:\n      dup1\n      0x1f\n      add\n      0x20\n      dup1\n      swap2\n      div\n      mul\n      0x20\n      add\n      mload(0x40)\n      swap1\n      dup2\n      add\n      0x40\n      mstore\n      dup1\n      swap3\n      swap2\n      swap1\n      dup2\n      dup2\n      mstore\n      0x20\n      add\n      dup3\n      dup1\n      sload\n      tag_133\n      swap1\n      tag_101\n      jump\t// in\n    tag_133:\n      dup1\n      iszero\n      tag_134\n      jumpi\n      dup1\n      0x1f\n      lt\n      tag_135\n      jumpi\n      0x0100\n      dup1\n      dup4\n      sload\n      div\n      mul\n      dup4\n      mstore\n      swap2\n      0x20\n      add\n      swap2\n      jump(tag_134)\n    tag_135:\n      dup3\n      add\n      swap2\n      swap1\n      0x00\n      mstore\n      keccak256(0x00, 0x20)\n      swap1\n    tag_136:\n      dup2\n      sload\n      dup2\n      mstore\n      swap1\n      0x01\n      add\n      swap1\n      0x20\n      add\n      dup1\n      dup4\n      gt\n      tag_136\n      jumpi\n      dup3\n      swap1\n      sub\n      0x1f\n      and\n      dup3\n      add\n      swap2\n    tag_134:\n      pop\n      pop\n      pop\n      pop\n      pop\n      swap1\n      pop\n      dup4\n      jump\t// out\n        /* \"Contracts/AKEB.sol\":132:162  string public assetDescription */\n    tag_71:\n      0x02\n      dup1\n      sload\n      tag_137\n      swap1\n      tag_101\n      jump\t// in\n    tag_137:\n      dup1\n      0x1f\n      add\n      0x20\n      dup1\n      swap2\n      div\n      mul\n      0x20\n      add\n      mload(0x40)\n      swap1\n      dup2\n      add\n      0x40\n      mstore\n      dup1\n      swap3\n      swap2\n      swap1\n      dup2\n      dup2\n      mstore\n      0x20\n      add\n      dup3\n      dup1\n      sload\n      tag_138\n      swap1\n      tag_101\n      jump\t// in\n    tag_138:\n      dup1\n      iszero\n      tag_139\n      jumpi\n      dup1\n      0x1f\n      lt\n      tag_140\n      jumpi\n      0x0100\n      dup1\n      dup4\n      sload\n      div\n      mul\n      dup4\n      mstore\n      swap2\n      0x20\n      add\n      swap2\n      jump(tag_139)\n    tag_140:\n      dup3\n      add\n      swap2\n      swap1\n      0x00\n      mstore\n      keccak256(0x00, 0x20)\n      swap1\n    tag_141:\n      dup2\n      sload\n      dup2\n      mstore\n      swap1\n      0x01\n      add\n      swap1\n      0x20\n      add\n      dup1\n      dup4\n      gt\n      tag_141\n      jumpi\n      dup3\n      swap1\n      sub\n      0x1f\n      and\n      dup3\n      add\n      swap2\n    tag_139:\n      pop\n      pop\n      pop\n      pop\n      pop\n      dup2\n      jump\t// out\n        /* \"Contracts/AKEB.sol\":2024:2110  function getWinnerBid() public view returns(uint256) {... */\n    tag_74:\n        /* \"Contracts/AKEB.sol\":2068:2075  uint256 */\n      0x00\n        /* \"Contracts/AKEB.sol\":2094:2103  winnerBid */\n      sload(0x07)\n        /* \"Contracts/AKEB.sol\":2087:2103  return winnerBid */\n      swap1\n      pop\n        /* \"Contracts/AKEB.sol\":2024:2110  function getWinnerBid() public view returns(uint256) {... */\n      swap1\n      jump\t// out\n        /* \"Contracts/AKEB.sol\":102:126  address[] public bidders */\n    tag_78:\n      0x01\n      dup2\n      dup2\n      sload\n      dup2\n      lt\n      tag_143\n      jumpi\n      0x00\n      dup1\n      revert\n    tag_143:\n      swap1\n      0x00\n      mstore\n      keccak256(0x00, 0x20)\n      add\n      0x00\n      swap2\n      pop\n      sload\n      swap1\n      0x0100\n      exp\n      swap1\n      div\n      0xffffffffffffffffffffffffffffffffffffffff\n      and\n      dup2\n      jump\t// out\n        /* \"Contracts/AKEB.sol\":356:379  string public winnerKey */\n    tag_81:\n      0x08\n      dup1\n      sload\n      tag_145\n      swap1\n      tag_101\n      jump\t// in\n    tag_145:\n      dup1\n      0x1f\n      add\n      0x20\n      dup1\n      swap2\n      div\n      mul\n      0x20\n      add\n      mload(0x40)\n      swap1\n      dup2\n      add\n      0x40\n      mstore\n      dup1\n      swap3\n      swap2\n      swap1\n      dup2\n      dup2\n      mstore\n      0x20\n      add\n      dup3\n      dup1\n      sload\n      tag_146\n      swap1\n      tag_101\n      jump\t// in\n    tag_146:\n      dup1\n      iszero\n      tag_147\n      jumpi\n      dup1\n      0x1f\n      lt\n      tag_148\n      jumpi\n      0x0100\n      dup1\n      dup4\n      sload\n      div\n      mul\n      dup4\n      mstore\n      swap2\n      0x20\n      add\n      swap2\n      jump(tag_147)\n    tag_148:\n      dup3\n      add\n      swap2\n      swap1\n      0x00\n      mstore\n      keccak256(0x00, 0x20)\n      swap1\n    tag_149:\n      dup2\n      sload\n      dup2\n      mstore\n      swap1\n      0x01\n      add\n      swap1\n      0x20\n      add\n      dup1\n      dup4\n      gt\n      tag_149\n      jumpi\n      dup3\n      swap1\n      sub\n      0x1f\n      and\n      dup3\n      add\n      swap2\n    tag_147:\n      pop\n      pop\n      pop\n      pop\n      pop\n      dup2\n      jump\t// out\n        /* \"Contracts/AKEB.sol\":200:233  uint256 public minNumberOfBidders */\n    tag_84:\n      sload(0x04)\n      dup2\n      jump\t// out\n        /* \"Contracts/AKEB.sol\":931:1251  function registerAuctionInfo(string memory assetDescriptionInput, ... */\n    tag_89:\n        /* \"Contracts/AKEB.sol\":606:616  auctioneer */\n      0x00\n      dup1\n      sload\n      swap1\n      0x0100\n      exp\n      swap1\n      div\n      0xffffffffffffffffffffffffffffffffffffffff\n      and\n        /* \"Contracts/AKEB.sol\":592:616  msg.sender == auctioneer */\n      0xffffffffffffffffffffffffffffffffffffffff\n      and\n        /* \"Contracts/AKEB.sol\":592:602  msg.sender */\n      caller\n        /* \"Contracts/AKEB.sol\":592:616  msg.sender == auctioneer */\n      0xffffffffffffffffffffffffffffffffffffffff\n      and\n      eq\n        /* \"Contracts/AKEB.sol\":584:660  require(msg.sender == auctioneer, \"Only auctioneer can call this function.\") */\n      tag_151\n      jumpi\n      mload(0x40)\n      0x08c379a000000000000000000000000000000000000000000000000000000000\n      dup2\n      mstore\n      0x04\n      add\n      tag_152\n      swap1\n      tag_153\n      jump\t// in\n    tag_152:\n      mload(0x40)\n      dup1\n      swap2\n      sub\n      swap1\n      revert\n    tag_151:\n        /* \"Contracts/AKEB.sol\":1129:1150  assetDescriptionInput */\n      dup3\n        /* \"Contracts/AKEB.sol\":1110:1126  assetDescription */\n      0x02\n        /* \"Contracts/AKEB.sol\":1110:1150  assetDescription = assetDescriptionInput */\n      swap1\n      dup1\n      mload\n      swap1\n      0x20\n      add\n      swap1\n      tag_155\n      swap3\n      swap2\n      swap1\n      tag_109\n      jump\t// in\n    tag_155:\n      pop\n        /* \"Contracts/AKEB.sol\":1174:1190  minBidPriceInput */\n      dup2\n        /* \"Contracts/AKEB.sol\":1160:1171  minBidPrice */\n      0x03\n        /* \"Contracts/AKEB.sol\":1160:1190  minBidPrice = minBidPriceInput */\n      dup2\n      swap1\n      sstore\n      pop\n        /* \"Contracts/AKEB.sol\":1221:1244  minNumberOfBiddersInput */\n      dup1\n        /* \"Contracts/AKEB.sol\":1200:1218  minNumberOfBidders */\n      0x04\n        /* \"Contracts/AKEB.sol\":1200:1244  minNumberOfBidders = minNumberOfBiddersInput */\n      dup2\n      swap1\n      sstore\n      pop\n        /* \"Contracts/AKEB.sol\":931:1251  function registerAuctionInfo(string memory assetDescriptionInput, ... */\n      pop\n      pop\n      pop\n      jump\t// out\n        /* \"Contracts/AKEB.sol\":292:320  address public winnerAddress */\n    tag_91:\n      0x06\n      0x00\n      swap1\n      sload\n      swap1\n      0x0100\n      exp\n      swap1\n      div\n      0xffffffffffffffffffffffffffffffffffffffff\n      and\n      dup2\n      jump\t// out\n        /* \"Contracts/AKEB.sol\":1257:1331  function registerBidder() public {... */\n    tag_94:\n        /* \"Contracts/AKEB.sol\":1300:1307  bidders */\n      0x01\n        /* \"Contracts/AKEB.sol\":1313:1323  msg.sender */\n      caller\n        /* \"Contracts/AKEB.sol\":1300:1324  bidders.push(msg.sender) */\n      swap1\n      dup1\n      0x01\n      dup2\n      sload\n      add\n      dup1\n      dup3\n      sstore\n      dup1\n      swap2\n      pop\n      pop\n      0x01\n      swap1\n      sub\n      swap1\n      0x00\n      mstore\n      keccak256(0x00, 0x20)\n      add\n      0x00\n      swap1\n      swap2\n      swap1\n      swap2\n      swap1\n      swap2\n      0x0100\n      exp\n      dup2\n      sload\n      dup2\n      0xffffffffffffffffffffffffffffffffffffffff\n      mul\n      not\n      and\n      swap1\n      dup4\n      0xffffffffffffffffffffffffffffffffffffffff\n      and\n      mul\n      or\n      swap1\n      sstore\n      pop\n        /* \"Contracts/AKEB.sol\":1257:1331  function registerBidder() public {... */\n      jump\t// out\n        /* \"Contracts/AKEB.sol\":1448:1576  function submitEncryptedBid(string memory inputEncodedBid)... */\n    tag_98:\n        /* \"Contracts/AKEB.sol\":1554:1569  inputEncodedBid */\n      dup1\n        /* \"Contracts/AKEB.sol\":1528:1539  encodedBids */\n      0x05\n        /* \"Contracts/AKEB.sol\":1528:1551  encodedBids[msg.sender] */\n      0x00\n        /* \"Contracts/AKEB.sol\":1540:1550  msg.sender */\n      caller\n        /* \"Contracts/AKEB.sol\":1528:1551  encodedBids[msg.sender] */\n      0xffffffffffffffffffffffffffffffffffffffff\n      and\n      0xffffffffffffffffffffffffffffffffffffffff\n      and\n      dup2\n      mstore\n      0x20\n      add\n      swap1\n      dup2\n      mstore\n      0x20\n      add\n      0x00\n      keccak256\n        /* \"Contracts/AKEB.sol\":1528:1569  encodedBids[msg.sender] = inputEncodedBid */\n      swap1\n      dup1\n      mload\n      swap1\n      0x20\n      add\n      swap1\n      tag_159\n      swap3\n      swap2\n      swap1\n      tag_109\n      jump\t// in\n    tag_159:\n      pop\n        /* \"Contracts/AKEB.sol\":1448:1576  function submitEncryptedBid(string memory inputEncodedBid)... */\n      pop\n      jump\t// out\n    tag_109:\n      dup3\n      dup1\n      sload\n      tag_160\n      swap1\n      tag_101\n      jump\t// in\n    tag_160:\n      swap1\n      0x00\n      mstore\n      keccak256(0x00, 0x20)\n      swap1\n      0x1f\n      add\n      0x20\n      swap1\n      div\n      dup2\n      add\n      swap3\n      dup3\n      tag_162\n      jumpi\n      0x00\n      dup6\n      sstore\n      jump(tag_161)\n    tag_162:\n      dup3\n      0x1f\n      lt\n      tag_163\n      jumpi\n      dup1\n      mload\n      not(0xff)\n      and\n      dup4\n      dup1\n      add\n      or\n      dup6\n      sstore\n      jump(tag_161)\n    tag_163:\n      dup3\n      dup1\n      add\n      0x01\n      add\n      dup6\n      sstore\n      dup3\n      iszero\n      tag_161\n      jumpi\n      swap2\n      dup3\n      add\n    tag_164:\n      dup3\n      dup2\n      gt\n      iszero\n      tag_165\n      jumpi\n      dup3\n      mload\n      dup3\n      sstore\n      swap2\n      0x20\n      add\n      swap2\n      swap1\n      0x01\n      add\n      swap1\n      jump(tag_164)\n    tag_165:\n    tag_161:\n      pop\n      swap1\n      pop\n      tag_166\n      swap2\n      swap1\n      tag_167\n      jump\t// in\n    tag_166:\n      pop\n      swap1\n      jump\t// out\n    tag_167:\n    tag_168:\n      dup1\n      dup3\n      gt\n      iszero\n      tag_169\n      jumpi\n      0x00\n      dup2\n      0x00\n      swap1\n      sstore\n      pop\n      0x01\n      add\n      jump(tag_168)\n    tag_169:\n      pop\n      swap1\n      jump\t// out\n        /* \"#utility.yul\":7:82   */\n    tag_170:\n        /* \"#utility.yul\":40:46   */\n      0x00\n        /* \"#utility.yul\":73:75   */\n      0x40\n        /* \"#utility.yul\":67:76   */\n      mload\n        /* \"#utility.yul\":57:76   */\n      swap1\n      pop\n        /* \"#utility.yul\":7:82   */\n      swap1\n      jump\t// out\n        /* \"#utility.yul\":88:205   */\n    tag_171:\n        /* \"#utility.yul\":197:198   */\n      0x00\n        /* \"#utility.yul\":194:195   */\n      dup1\n        /* \"#utility.yul\":187:199   */\n      revert\n        /* \"#utility.yul\":211:328   */\n    tag_172:\n        /* \"#utility.yul\":320:321   */\n      0x00\n        /* \"#utility.yul\":317:318   */\n      dup1\n        /* \"#utility.yul\":310:322   */\n      revert\n        /* \"#utility.yul\":334:460   */\n    tag_173:\n        /* \"#utility.yul\":371:378   */\n      0x00\n        /* \"#utility.yul\":411:453   */\n      0xffffffffffffffffffffffffffffffffffffffff\n        /* \"#utility.yul\":404:409   */\n      dup3\n        /* \"#utility.yul\":400:454   */\n      and\n        /* \"#utility.yul\":389:454   */\n      swap1\n      pop\n        /* \"#utility.yul\":334:460   */\n      swap2\n      swap1\n      pop\n      jump\t// out\n        /* \"#utility.yul\":466:562   */\n    tag_174:\n        /* \"#utility.yul\":503:510   */\n      0x00\n        /* \"#utility.yul\":532:556   */\n      tag_205\n        /* \"#utility.yul\":550:555   */\n      dup3\n        /* \"#utility.yul\":532:556   */\n      tag_173\n      jump\t// in\n    tag_205:\n        /* \"#utility.yul\":521:556   */\n      swap1\n      pop\n        /* \"#utility.yul\":466:562   */\n      swap2\n      swap1\n      pop\n      jump\t// out\n        /* \"#utility.yul\":568:690   */\n    tag_175:\n        /* \"#utility.yul\":641:665   */\n      tag_207\n        /* \"#utility.yul\":659:664   */\n      dup2\n        /* \"#utility.yul\":641:665   */\n      tag_174\n      jump\t// in\n    tag_207:\n        /* \"#utility.yul\":634:639   */\n      dup2\n        /* \"#utility.yul\":631:666   */\n      eq\n        /* \"#utility.yul\":621:684   */\n      tag_208\n      jumpi\n        /* \"#utility.yul\":680:681   */\n      0x00\n        /* \"#utility.yul\":677:678   */\n      dup1\n        /* \"#utility.yul\":670:682   */\n      revert\n        /* \"#utility.yul\":621:684   */\n    tag_208:\n        /* \"#utility.yul\":568:690   */\n      pop\n      jump\t// out\n        /* \"#utility.yul\":696:835   */\n    tag_176:\n        /* \"#utility.yul\":742:747   */\n      0x00\n        /* \"#utility.yul\":780:786   */\n      dup2\n        /* \"#utility.yul\":767:787   */\n      calldataload\n        /* \"#utility.yul\":758:787   */\n      swap1\n      pop\n        /* \"#utility.yul\":796:829   */\n      tag_210\n        /* \"#utility.yul\":823:828   */\n      dup2\n        /* \"#utility.yul\":796:829   */\n      tag_175\n      jump\t// in\n    tag_210:\n        /* \"#utility.yul\":696:835   */\n      swap3\n      swap2\n      pop\n      pop\n      jump\t// out\n        /* \"#utility.yul\":841:1170   */\n    tag_28:\n        /* \"#utility.yul\":900:906   */\n      0x00\n        /* \"#utility.yul\":949:951   */\n      0x20\n        /* \"#utility.yul\":937:946   */\n      dup3\n        /* \"#utility.yul\":928:935   */\n      dup5\n        /* \"#utility.yul\":924:947   */\n      sub\n        /* \"#utility.yul\":920:952   */\n      slt\n        /* \"#utility.yul\":917:1036   */\n      iszero\n      tag_212\n      jumpi\n        /* \"#utility.yul\":955:1034   */\n      tag_213\n      tag_171\n      jump\t// in\n    tag_213:\n        /* \"#utility.yul\":917:1036   */\n    tag_212:\n        /* \"#utility.yul\":1075:1076   */\n      0x00\n        /* \"#utility.yul\":1100:1153   */\n      tag_214\n        /* \"#utility.yul\":1145:1152   */\n      dup5\n        /* \"#utility.yul\":1136:1142   */\n      dup3\n        /* \"#utility.yul\":1125:1134   */\n      dup6\n        /* \"#utility.yul\":1121:1143   */\n      add\n        /* \"#utility.yul\":1100:1153   */\n      tag_176\n      jump\t// in\n    tag_214:\n        /* \"#utility.yul\":1090:1153   */\n      swap2\n      pop\n        /* \"#utility.yul\":1046:1163   */\n      pop\n        /* \"#utility.yul\":841:1170   */\n      swap3\n      swap2\n      pop\n      pop\n      jump\t// out\n        /* \"#utility.yul\":1176:1275   */\n    tag_177:\n        /* \"#utility.yul\":1228:1234   */\n      0x00\n        /* \"#utility.yul\":1262:1267   */\n      dup2\n        /* \"#utility.yul\":1256:1268   */\n      mload\n        /* \"#utility.yul\":1246:1268   */\n      swap1\n      pop\n        /* \"#utility.yul\":1176:1275   */\n      swap2\n      swap1\n      pop\n      jump\t// out\n        /* \"#utility.yul\":1281:1450   */\n    tag_178:\n        /* \"#utility.yul\":1365:1376   */\n      0x00\n        /* \"#utility.yul\":1399:1405   */\n      dup3\n        /* \"#utility.yul\":1394:1397   */\n      dup3\n        /* \"#utility.yul\":1387:1406   */\n      mstore\n        /* \"#utility.yul\":1439:1443   */\n      0x20\n        /* \"#utility.yul\":1434:1437   */\n      dup3\n        /* \"#utility.yul\":1430:1444   */\n      add\n        /* \"#utility.yul\":1415:1444   */\n      swap1\n      pop\n        /* \"#utility.yul\":1281:1450   */\n      swap3\n      swap2\n      pop\n      pop\n      jump\t// out\n        /* \"#utility.yul\":1456:1763   */\n    tag_179:\n        /* \"#utility.yul\":1524:1525   */\n      0x00\n        /* \"#utility.yul\":1534:1647   */\n    tag_218:\n        /* \"#utility.yul\":1548:1554   */\n      dup4\n        /* \"#utility.yul\":1545:1546   */\n      dup2\n        /* \"#utility.yul\":1542:1555   */\n      lt\n        /* \"#utility.yul\":1534:1647   */\n      iszero\n      tag_220\n      jumpi\n        /* \"#utility.yul\":1633:1634   */\n      dup1\n        /* \"#utility.yul\":1628:1631   */\n      dup3\n        /* \"#utility.yul\":1624:1635   */\n      add\n        /* \"#utility.yul\":1618:1636   */\n      mload\n        /* \"#utility.yul\":1614:1615   */\n      dup2\n        /* \"#utility.yul\":1609:1612   */\n      dup5\n        /* \"#utility.yul\":1605:1616   */\n      add\n        /* \"#utility.yul\":1598:1637   */\n      mstore\n        /* \"#utility.yul\":1570:1572   */\n      0x20\n        /* \"#utility.yul\":1567:1568   */\n      dup2\n        /* \"#utility.yul\":1563:1573   */\n      add\n        /* \"#utility.yul\":1558:1573   */\n      swap1\n      pop\n        /* \"#utility.yul\":1534:1647   */\n      jump(tag_218)\n    tag_220:\n        /* \"#utility.yul\":1665:1671   */\n      dup4\n        /* \"#utility.yul\":1662:1663   */\n      dup2\n        /* \"#utility.yul\":1659:1672   */\n      gt\n        /* \"#utility.yul\":1656:1757   */\n      iszero\n      tag_221\n      jumpi\n        /* \"#utility.yul\":1745:1746   */\n      0x00\n        /* \"#utility.yul\":1736:1742   */\n      dup5\n        /* \"#utility.yul\":1731:1734   */\n      dup5\n        /* \"#utility.yul\":1727:1743   */\n      add\n        /* \"#utility.yul\":1720:1747   */\n      mstore\n        /* \"#utility.yul\":1656:1757   */\n    tag_221:\n        /* \"#utility.yul\":1505:1763   */\n      pop\n        /* \"#utility.yul\":1456:1763   */\n      pop\n      pop\n      pop\n      jump\t// out\n        /* \"#utility.yul\":1769:1871   */\n    tag_180:\n        /* \"#utility.yul\":1810:1816   */\n      0x00\n        /* \"#utility.yul\":1861:1863   */\n      0x1f\n        /* \"#utility.yul\":1857:1864   */\n      not\n        /* \"#utility.yul\":1852:1854   */\n      0x1f\n        /* \"#utility.yul\":1845:1850   */\n      dup4\n        /* \"#utility.yul\":1841:1855   */\n      add\n        /* \"#utility.yul\":1837:1865   */\n      and\n        /* \"#utility.yul\":1827:1865   */\n      swap1\n      pop\n        /* \"#utility.yul\":1769:1871   */\n      swap2\n      swap1\n      pop\n      jump\t// out\n        /* \"#utility.yul\":1877:2241   */\n    tag_181:\n        /* \"#utility.yul\":1965:1968   */\n      0x00\n        /* \"#utility.yul\":1993:2032   */\n      tag_224\n        /* \"#utility.yul\":2026:2031   */\n      dup3\n        /* \"#utility.yul\":1993:2032   */\n      tag_177\n      jump\t// in\n    tag_224:\n        /* \"#utility.yul\":2048:2119   */\n      tag_225\n        /* \"#utility.yul\":2112:2118   */\n      dup2\n        /* \"#utility.yul\":2107:2110   */\n      dup6\n        /* \"#utility.yul\":2048:2119   */\n      tag_178\n      jump\t// in\n    tag_225:\n        /* \"#utility.yul\":2041:2119   */\n      swap4\n      pop\n        /* \"#utility.yul\":2128:2180   */\n      tag_226\n        /* \"#utility.yul\":2173:2179   */\n      dup2\n        /* \"#utility.yul\":2168:2171   */\n      dup6\n        /* \"#utility.yul\":2161:2165   */\n      0x20\n        /* \"#utility.yul\":2154:2159   */\n      dup7\n        /* \"#utility.yul\":2150:2166   */\n      add\n        /* \"#utility.yul\":2128:2180   */\n      tag_179\n      jump\t// in\n    tag_226:\n        /* \"#utility.yul\":2205:2234   */\n      tag_227\n        /* \"#utility.yul\":2227:2233   */\n      dup2\n        /* \"#utility.yul\":2205:2234   */\n      tag_180\n      jump\t// in\n    tag_227:\n        /* \"#utility.yul\":2200:2203   */\n      dup5\n        /* \"#utility.yul\":2196:2235   */\n      add\n        /* \"#utility.yul\":2189:2235   */\n      swap2\n      pop\n        /* \"#utility.yul\":1969:2241   */\n      pop\n        /* \"#utility.yul\":1877:2241   */\n      swap3\n      swap2\n      pop\n      pop\n      jump\t// out\n        /* \"#utility.yul\":2247:2560   */\n    tag_31:\n        /* \"#utility.yul\":2360:2364   */\n      0x00\n        /* \"#utility.yul\":2398:2400   */\n      0x20\n        /* \"#utility.yul\":2387:2396   */\n      dup3\n        /* \"#utility.yul\":2383:2401   */\n      add\n        /* \"#utility.yul\":2375:2401   */\n      swap1\n      pop\n        /* \"#utility.yul\":2447:2456   */\n      dup2\n        /* \"#utility.yul\":2441:2445   */\n      dup2\n        /* \"#utility.yul\":2437:2457   */\n      sub\n        /* \"#utility.yul\":2433:2434   */\n      0x00\n        /* \"#utility.yul\":2422:2431   */\n      dup4\n        /* \"#utility.yul\":2418:2435   */\n      add\n        /* \"#utility.yul\":2411:2458   */\n      mstore\n        /* \"#utility.yul\":2475:2553   */\n      tag_229\n        /* \"#utility.yul\":2548:2552   */\n      dup2\n        /* \"#utility.yul\":2539:2545   */\n      dup5\n        /* \"#utility.yul\":2475:2553   */\n      tag_181\n      jump\t// in\n    tag_229:\n        /* \"#utility.yul\":2467:2553   */\n      swap1\n      pop\n        /* \"#utility.yul\":2247:2560   */\n      swap3\n      swap2\n      pop\n      pop\n      jump\t// out\n        /* \"#utility.yul\":2566:2684   */\n    tag_182:\n        /* \"#utility.yul\":2653:2677   */\n      tag_231\n        /* \"#utility.yul\":2671:2676   */\n      dup2\n        /* \"#utility.yul\":2653:2677   */\n      tag_174\n      jump\t// in\n    tag_231:\n        /* \"#utility.yul\":2648:2651   */\n      dup3\n        /* \"#utility.yul\":2641:2678   */\n      mstore\n        /* \"#utility.yul\":2566:2684   */\n      pop\n      pop\n      jump\t// out\n        /* \"#utility.yul\":2690:2912   */\n    tag_35:\n        /* \"#utility.yul\":2783:2787   */\n      0x00\n        /* \"#utility.yul\":2821:2823   */\n      0x20\n        /* \"#utility.yul\":2810:2819   */\n      dup3\n        /* \"#utility.yul\":2806:2824   */\n      add\n        /* \"#utility.yul\":2798:2824   */\n      swap1\n      pop\n        /* \"#utility.yul\":2834:2905   */\n      tag_233\n        /* \"#utility.yul\":2902:2903   */\n      0x00\n        /* \"#utility.yul\":2891:2900   */\n      dup4\n        /* \"#utility.yul\":2887:2904   */\n      add\n        /* \"#utility.yul\":2878:2884   */\n      dup5\n        /* \"#utility.yul\":2834:2905   */\n      tag_182\n      jump\t// in\n    tag_233:\n        /* \"#utility.yul\":2690:2912   */\n      swap3\n      swap2\n      pop\n      pop\n      jump\t// out\n        /* \"#utility.yul\":2918:2995   */\n    tag_183:\n        /* \"#utility.yul\":2955:2962   */\n      0x00\n        /* \"#utility.yul\":2984:2989   */\n      dup2\n        /* \"#utility.yul\":2973:2989   */\n      swap1\n      pop\n        /* \"#utility.yul\":2918:2995   */\n      swap2\n      swap1\n      pop\n      jump\t// out\n        /* \"#utility.yul\":3001:3119   */\n    tag_184:\n        /* \"#utility.yul\":3088:3112   */\n      tag_236\n        /* \"#utility.yul\":3106:3111   */\n      dup2\n        /* \"#utility.yul\":3088:3112   */\n      tag_183\n      jump\t// in\n    tag_236:\n        /* \"#utility.yul\":3083:3086   */\n      dup3\n        /* \"#utility.yul\":3076:3113   */\n      mstore\n        /* \"#utility.yul\":3001:3119   */\n      pop\n      pop\n      jump\t// out\n        /* \"#utility.yul\":3125:3347   */\n    tag_39:\n        /* \"#utility.yul\":3218:3222   */\n      0x00\n        /* \"#utility.yul\":3256:3258   */\n      0x20\n        /* \"#utility.yul\":3245:3254   */\n      dup3\n        /* \"#utility.yul\":3241:3259   */\n      add\n        /* \"#utility.yul\":3233:3259   */\n      swap1\n      pop\n        /* \"#utility.yul\":3269:3340   */\n      tag_238\n        /* \"#utility.yul\":3337:3338   */\n      0x00\n        /* \"#utility.yul\":3326:3335   */\n      dup4\n        /* \"#utility.yul\":3322:3339   */\n      add\n        /* \"#utility.yul\":3313:3319   */\n      dup5\n        /* \"#utility.yul\":3269:3340   */\n      tag_184\n      jump\t// in\n    tag_238:\n        /* \"#utility.yul\":3125:3347   */\n      swap3\n      swap2\n      pop\n      pop\n      jump\t// out\n        /* \"#utility.yul\":3353:3475   */\n    tag_185:\n        /* \"#utility.yul\":3426:3450   */\n      tag_240\n        /* \"#utility.yul\":3444:3449   */\n      dup2\n        /* \"#utility.yul\":3426:3450   */\n      tag_183\n      jump\t// in\n    tag_240:\n        /* \"#utility.yul\":3419:3424   */\n      dup2\n        /* \"#utility.yul\":3416:3451   */\n      eq\n        /* \"#utility.yul\":3406:3469   */\n      tag_241\n      jumpi\n        /* \"#utility.yul\":3465:3466   */\n      0x00\n        /* \"#utility.yul\":3462:3463   */\n      dup1\n        /* \"#utility.yul\":3455:3467   */\n      revert\n        /* \"#utility.yul\":3406:3469   */\n    tag_241:\n        /* \"#utility.yul\":3353:3475   */\n      pop\n      jump\t// out\n        /* \"#utility.yul\":3481:3620   */\n    tag_186:\n        /* \"#utility.yul\":3527:3532   */\n      0x00\n        /* \"#utility.yul\":3565:3571   */\n      dup2\n        /* \"#utility.yul\":3552:3572   */\n      calldataload\n        /* \"#utility.yul\":3543:3572   */\n      swap1\n      pop\n        /* \"#utility.yul\":3581:3614   */\n      tag_243\n        /* \"#utility.yul\":3608:3613   */\n      dup2\n        /* \"#utility.yul\":3581:3614   */\n      tag_185\n      jump\t// in\n    tag_243:\n        /* \"#utility.yul\":3481:3620   */\n      swap3\n      swap2\n      pop\n      pop\n      jump\t// out\n        /* \"#utility.yul\":3626:3743   */\n    tag_187:\n        /* \"#utility.yul\":3735:3736   */\n      0x00\n        /* \"#utility.yul\":3732:3733   */\n      dup1\n        /* \"#utility.yul\":3725:3737   */\n      revert\n        /* \"#utility.yul\":3749:3866   */\n    tag_188:\n        /* \"#utility.yul\":3858:3859   */\n      0x00\n        /* \"#utility.yul\":3855:3856   */\n      dup1\n        /* \"#utility.yul\":3848:3860   */\n      revert\n        /* \"#utility.yul\":3872:4052   */\n    tag_189:\n        /* \"#utility.yul\":3920:3997   */\n      0x4e487b7100000000000000000000000000000000000000000000000000000000\n        /* \"#utility.yul\":3917:3918   */\n      0x00\n        /* \"#utility.yul\":3910:3998   */\n      mstore\n        /* \"#utility.yul\":4017:4021   */\n      0x41\n        /* \"#utility.yul\":4014:4015   */\n      0x04\n        /* \"#utility.yul\":4007:4022   */\n      mstore\n        /* \"#utility.yul\":4041:4045   */\n      0x24\n        /* \"#utility.yul\":4038:4039   */\n      0x00\n        /* \"#utility.yul\":4031:4046   */\n      revert\n        /* \"#utility.yul\":4058:4339   */\n    tag_190:\n        /* \"#utility.yul\":4141:4168   */\n      tag_248\n        /* \"#utility.yul\":4163:4167   */\n      dup3\n        /* \"#utility.yul\":4141:4168   */\n      tag_180\n      jump\t// in\n    tag_248:\n        /* \"#utility.yul\":4133:4139   */\n      dup2\n        /* \"#utility.yul\":4129:4169   */\n      add\n        /* \"#utility.yul\":4271:4277   */\n      dup2\n        /* \"#utility.yul\":4259:4269   */\n      dup2\n        /* \"#utility.yul\":4256:4278   */\n      lt\n        /* \"#utility.yul\":4235:4253   */\n      0xffffffffffffffff\n        /* \"#utility.yul\":4223:4233   */\n      dup3\n        /* \"#utility.yul\":4220:4254   */\n      gt\n        /* \"#utility.yul\":4217:4279   */\n      or\n        /* \"#utility.yul\":4214:4302   */\n      iszero\n      tag_249\n      jumpi\n        /* \"#utility.yul\":4282:4300   */\n      tag_250\n      tag_189\n      jump\t// in\n    tag_250:\n        /* \"#utility.yul\":4214:4302   */\n    tag_249:\n        /* \"#utility.yul\":4322:4332   */\n      dup1\n        /* \"#utility.yul\":4318:4320   */\n      0x40\n        /* \"#utility.yul\":4311:4333   */\n      mstore\n        /* \"#utility.yul\":4101:4339   */\n      pop\n        /* \"#utility.yul\":4058:4339   */\n      pop\n      pop\n      jump\t// out\n        /* \"#utility.yul\":4345:4474   */\n    tag_191:\n        /* \"#utility.yul\":4379:4385   */\n      0x00\n        /* \"#utility.yul\":4406:4426   */\n      tag_252\n      tag_170\n      jump\t// in\n    tag_252:\n        /* \"#utility.yul\":4396:4426   */\n      swap1\n      pop\n        /* \"#utility.yul\":4435:4468   */\n      tag_253\n        /* \"#utility.yul\":4463:4467   */\n      dup3\n        /* \"#utility.yul\":4455:4461   */\n      dup3\n        /* \"#utility.yul\":4435:4468   */\n      tag_190\n      jump\t// in\n    tag_253:\n        /* \"#utility.yul\":4345:4474   */\n      swap2\n      swap1\n      pop\n      jump\t// out\n        /* \"#utility.yul\":4480:4788   */\n    tag_192:\n        /* \"#utility.yul\":4542:4546   */\n      0x00\n        /* \"#utility.yul\":4632:4650   */\n      0xffffffffffffffff\n        /* \"#utility.yul\":4624:4630   */\n      dup3\n        /* \"#utility.yul\":4621:4651   */\n      gt\n        /* \"#utility.yul\":4618:4674   */\n      iszero\n      tag_255\n      jumpi\n        /* \"#utility.yul\":4654:4672   */\n      tag_256\n      tag_189\n      jump\t// in\n    tag_256:\n        /* \"#utility.yul\":4618:4674   */\n    tag_255:\n        /* \"#utility.yul\":4692:4721   */\n      tag_257\n        /* \"#utility.yul\":4714:4720   */\n      dup3\n        /* \"#utility.yul\":4692:4721   */\n      tag_180\n      jump\t// in\n    tag_257:\n        /* \"#utility.yul\":4684:4721   */\n      swap1\n      pop\n        /* \"#utility.yul\":4776:4780   */\n      0x20\n        /* \"#utility.yul\":4770:4774   */\n      dup2\n        /* \"#utility.yul\":4766:4781   */\n      add\n        /* \"#utility.yul\":4758:4781   */\n      swap1\n      pop\n        /* \"#utility.yul\":4480:4788   */\n      swap2\n      swap1\n      pop\n      jump\t// out\n        /* \"#utility.yul\":4794:4948   */\n    tag_193:\n        /* \"#utility.yul\":4878:4884   */\n      dup3\n        /* \"#utility.yul\":4873:4876   */\n      dup2\n        /* \"#utility.yul\":4868:4871   */\n      dup4\n        /* \"#utility.yul\":4855:4885   */\n      calldatacopy\n        /* \"#utility.yul\":4940:4941   */\n      0x00\n        /* \"#utility.yul\":4931:4937   */\n      dup4\n        /* \"#utility.yul\":4926:4929   */\n      dup4\n        /* \"#utility.yul\":4922:4938   */\n      add\n        /* \"#utility.yul\":4915:4942   */\n      mstore\n        /* \"#utility.yul\":4794:4948   */\n      pop\n      pop\n      pop\n      jump\t// out\n        /* \"#utility.yul\":4954:5366   */\n    tag_194:\n        /* \"#utility.yul\":5032:5037   */\n      0x00\n        /* \"#utility.yul\":5057:5123   */\n      tag_260\n        /* \"#utility.yul\":5073:5122   */\n      tag_261\n        /* \"#utility.yul\":5115:5121   */\n      dup5\n        /* \"#utility.yul\":5073:5122   */\n      tag_192\n      jump\t// in\n    tag_261:\n        /* \"#utility.yul\":5057:5123   */\n      tag_191\n      jump\t// in\n    tag_260:\n        /* \"#utility.yul\":5048:5123   */\n      swap1\n      pop\n        /* \"#utility.yul\":5146:5152   */\n      dup3\n        /* \"#utility.yul\":5139:5144   */\n      dup2\n        /* \"#utility.yul\":5132:5153   */\n      mstore\n        /* \"#utility.yul\":5184:5188   */\n      0x20\n        /* \"#utility.yul\":5177:5182   */\n      dup2\n        /* \"#utility.yul\":5173:5189   */\n      add\n        /* \"#utility.yul\":5222:5225   */\n      dup5\n        /* \"#utility.yul\":5213:5219   */\n      dup5\n        /* \"#utility.yul\":5208:5211   */\n      dup5\n        /* \"#utility.yul\":5204:5220   */\n      add\n        /* \"#utility.yul\":5201:5226   */\n      gt\n        /* \"#utility.yul\":5198:5310   */\n      iszero\n      tag_262\n      jumpi\n        /* \"#utility.yul\":5229:5308   */\n      tag_263\n      tag_188\n      jump\t// in\n    tag_263:\n        /* \"#utility.yul\":5198:5310   */\n    tag_262:\n        /* \"#utility.yul\":5319:5360   */\n      tag_264\n        /* \"#utility.yul\":5353:5359   */\n      dup5\n        /* \"#utility.yul\":5348:5351   */\n      dup3\n        /* \"#utility.yul\":5343:5346   */\n      dup6\n        /* \"#utility.yul\":5319:5360   */\n      tag_193\n      jump\t// in\n    tag_264:\n        /* \"#utility.yul\":5038:5366   */\n      pop\n        /* \"#utility.yul\":4954:5366   */\n      swap4\n      swap3\n      pop\n      pop\n      pop\n      jump\t// out\n        /* \"#utility.yul\":5386:5726   */\n    tag_195:\n        /* \"#utility.yul\":5442:5447   */\n      0x00\n        /* \"#utility.yul\":5491:5494   */\n      dup3\n        /* \"#utility.yul\":5484:5488   */\n      0x1f\n        /* \"#utility.yul\":5476:5482   */\n      dup4\n        /* \"#utility.yul\":5472:5489   */\n      add\n        /* \"#utility.yul\":5468:5495   */\n      slt\n        /* \"#utility.yul\":5458:5580   */\n      tag_266\n      jumpi\n        /* \"#utility.yul\":5499:5578   */\n      tag_267\n      tag_187\n      jump\t// in\n    tag_267:\n        /* \"#utility.yul\":5458:5580   */\n    tag_266:\n        /* \"#utility.yul\":5616:5622   */\n      dup2\n        /* \"#utility.yul\":5603:5623   */\n      calldataload\n        /* \"#utility.yul\":5641:5720   */\n      tag_268\n        /* \"#utility.yul\":5716:5719   */\n      dup5\n        /* \"#utility.yul\":5708:5714   */\n      dup3\n        /* \"#utility.yul\":5701:5705   */\n      0x20\n        /* \"#utility.yul\":5693:5699   */\n      dup7\n        /* \"#utility.yul\":5689:5706   */\n      add\n        /* \"#utility.yul\":5641:5720   */\n      tag_194\n      jump\t// in\n    tag_268:\n        /* \"#utility.yul\":5632:5720   */\n      swap2\n      pop\n        /* \"#utility.yul\":5448:5726   */\n      pop\n        /* \"#utility.yul\":5386:5726   */\n      swap3\n      swap2\n      pop\n      pop\n      jump\t// out\n        /* \"#utility.yul\":5732:6386   */\n    tag_42:\n        /* \"#utility.yul\":5810:5816   */\n      0x00\n        /* \"#utility.yul\":5818:5824   */\n      dup1\n        /* \"#utility.yul\":5867:5869   */\n      0x40\n        /* \"#utility.yul\":5855:5864   */\n      dup4\n        /* \"#utility.yul\":5846:5853   */\n      dup6\n        /* \"#utility.yul\":5842:5865   */\n      sub\n        /* \"#utility.yul\":5838:5870   */\n      slt\n        /* \"#utility.yul\":5835:5954   */\n      iszero\n      tag_270\n      jumpi\n        /* \"#utility.yul\":5873:5952   */\n      tag_271\n      tag_171\n      jump\t// in\n    tag_271:\n        /* \"#utility.yul\":5835:5954   */\n    tag_270:\n        /* \"#utility.yul\":5993:5994   */\n      0x00\n        /* \"#utility.yul\":6018:6071   */\n      tag_272\n        /* \"#utility.yul\":6063:6070   */\n      dup6\n        /* \"#utility.yul\":6054:6060   */\n      dup3\n        /* \"#utility.yul\":6043:6052   */\n      dup7\n        /* \"#utility.yul\":6039:6061   */\n      add\n        /* \"#utility.yul\":6018:6071   */\n      tag_186\n      jump\t// in\n    tag_272:\n        /* \"#utility.yul\":6008:6071   */\n      swap3\n      pop\n        /* \"#utility.yul\":5964:6081   */\n      pop\n        /* \"#utility.yul\":6148:6150   */\n      0x20\n        /* \"#utility.yul\":6137:6146   */\n      dup4\n        /* \"#utility.yul\":6133:6151   */\n      add\n        /* \"#utility.yul\":6120:6152   */\n      calldataload\n        /* \"#utility.yul\":6179:6197   */\n      0xffffffffffffffff\n        /* \"#utility.yul\":6171:6177   */\n      dup2\n        /* \"#utility.yul\":6168:6198   */\n      gt\n        /* \"#utility.yul\":6165:6282   */\n      iszero\n      tag_273\n      jumpi\n        /* \"#utility.yul\":6201:6280   */\n      tag_274\n      tag_172\n      jump\t// in\n    tag_274:\n        /* \"#utility.yul\":6165:6282   */\n    tag_273:\n        /* \"#utility.yul\":6306:6369   */\n      tag_275\n        /* \"#utility.yul\":6361:6368   */\n      dup6\n        /* \"#utility.yul\":6352:6358   */\n      dup3\n        /* \"#utility.yul\":6341:6350   */\n      dup7\n        /* \"#utility.yul\":6337:6359   */\n      add\n        /* \"#utility.yul\":6306:6369   */\n      tag_195\n      jump\t// in\n    tag_275:\n        /* \"#utility.yul\":6296:6369   */\n      swap2\n      pop\n        /* \"#utility.yul\":6091:6379   */\n      pop\n        /* \"#utility.yul\":5732:6386   */\n      swap3\n      pop\n      swap3\n      swap1\n      pop\n      jump\t// out\n        /* \"#utility.yul\":6392:6721   */\n    tag_56:\n        /* \"#utility.yul\":6451:6457   */\n      0x00\n        /* \"#utility.yul\":6500:6502   */\n      0x20\n        /* \"#utility.yul\":6488:6497   */\n      dup3\n        /* \"#utility.yul\":6479:6486   */\n      dup5\n        /* \"#utility.yul\":6475:6498   */\n      sub\n        /* \"#utility.yul\":6471:6503   */\n      slt\n        /* \"#utility.yul\":6468:6587   */\n      iszero\n      tag_277\n      jumpi\n        /* \"#utility.yul\":6506:6585   */\n      tag_278\n      tag_171\n      jump\t// in\n    tag_278:\n        /* \"#utility.yul\":6468:6587   */\n    tag_277:\n        /* \"#utility.yul\":6626:6627   */\n      0x00\n        /* \"#utility.yul\":6651:6704   */\n      tag_279\n        /* \"#utility.yul\":6696:6703   */\n      dup5\n        /* \"#utility.yul\":6687:6693   */\n      dup3\n        /* \"#utility.yul\":6676:6685   */\n      dup6\n        /* \"#utility.yul\":6672:6694   */\n      add\n        /* \"#utility.yul\":6651:6704   */\n      tag_186\n      jump\t// in\n    tag_279:\n        /* \"#utility.yul\":6641:6704   */\n      swap2\n      pop\n        /* \"#utility.yul\":6597:6714   */\n      pop\n        /* \"#utility.yul\":6392:6721   */\n      swap3\n      swap2\n      pop\n      pop\n      jump\t// out\n        /* \"#utility.yul\":6727:7260   */\n    tag_69:\n        /* \"#utility.yul\":6896:6900   */\n      0x00\n        /* \"#utility.yul\":6934:6936   */\n      0x60\n        /* \"#utility.yul\":6923:6932   */\n      dup3\n        /* \"#utility.yul\":6919:6937   */\n      add\n        /* \"#utility.yul\":6911:6937   */\n      swap1\n      pop\n        /* \"#utility.yul\":6947:7018   */\n      tag_281\n        /* \"#utility.yul\":7015:7016   */\n      0x00\n        /* \"#utility.yul\":7004:7013   */\n      dup4\n        /* \"#utility.yul\":7000:7017   */\n      add\n        /* \"#utility.yul\":6991:6997   */\n      dup7\n        /* \"#utility.yul\":6947:7018   */\n      tag_184\n      jump\t// in\n    tag_281:\n        /* \"#utility.yul\":7028:7100   */\n      tag_282\n        /* \"#utility.yul\":7096:7098   */\n      0x20\n        /* \"#utility.yul\":7085:7094   */\n      dup4\n        /* \"#utility.yul\":7081:7099   */\n      add\n        /* \"#utility.yul\":7072:7078   */\n      dup6\n        /* \"#utility.yul\":7028:7100   */\n      tag_182\n      jump\t// in\n    tag_282:\n        /* \"#utility.yul\":7147:7156   */\n      dup2\n        /* \"#utility.yul\":7141:7145   */\n      dup2\n        /* \"#utility.yul\":7137:7157   */\n      sub\n        /* \"#utility.yul\":7132:7134   */\n      0x40\n        /* \"#utility.yul\":7121:7130   */\n      dup4\n        /* \"#utility.yul\":7117:7135   */\n      add\n        /* \"#utility.yul\":7110:7158   */\n      mstore\n        /* \"#utility.yul\":7175:7253   */\n      tag_283\n        /* \"#utility.yul\":7248:7252   */\n      dup2\n        /* \"#utility.yul\":7239:7245   */\n      dup5\n        /* \"#utility.yul\":7175:7253   */\n      tag_181\n      jump\t// in\n    tag_283:\n        /* \"#utility.yul\":7167:7253   */\n      swap1\n      pop\n        /* \"#utility.yul\":6727:7260   */\n      swap5\n      swap4\n      pop\n      pop\n      pop\n      pop\n      jump\t// out\n        /* \"#utility.yul\":7266:8065   */\n    tag_88:\n        /* \"#utility.yul\":7353:7359   */\n      0x00\n        /* \"#utility.yul\":7361:7367   */\n      dup1\n        /* \"#utility.yul\":7369:7375   */\n      0x00\n        /* \"#utility.yul\":7418:7420   */\n      0x60\n        /* \"#utility.yul\":7406:7415   */\n      dup5\n        /* \"#utility.yul\":7397:7404   */\n      dup7\n        /* \"#utility.yul\":7393:7416   */\n      sub\n        /* \"#utility.yul\":7389:7421   */\n      slt\n        /* \"#utility.yul\":7386:7505   */\n      iszero\n      tag_285\n      jumpi\n        /* \"#utility.yul\":7424:7503   */\n      tag_286\n      tag_171\n      jump\t// in\n    tag_286:\n        /* \"#utility.yul\":7386:7505   */\n    tag_285:\n        /* \"#utility.yul\":7572:7573   */\n      0x00\n        /* \"#utility.yul\":7561:7570   */\n      dup5\n        /* \"#utility.yul\":7557:7574   */\n      add\n        /* \"#utility.yul\":7544:7575   */\n      calldataload\n        /* \"#utility.yul\":7602:7620   */\n      0xffffffffffffffff\n        /* \"#utility.yul\":7594:7600   */\n      dup2\n        /* \"#utility.yul\":7591:7621   */\n      gt\n        /* \"#utility.yul\":7588:7705   */\n      iszero\n      tag_287\n      jumpi\n        /* \"#utility.yul\":7624:7703   */\n      tag_288\n      tag_172\n      jump\t// in\n    tag_288:\n        /* \"#utility.yul\":7588:7705   */\n    tag_287:\n        /* \"#utility.yul\":7729:7792   */\n      tag_289\n        /* \"#utility.yul\":7784:7791   */\n      dup7\n        /* \"#utility.yul\":7775:7781   */\n      dup3\n        /* \"#utility.yul\":7764:7773   */\n      dup8\n        /* \"#utility.yul\":7760:7782   */\n      add\n        /* \"#utility.yul\":7729:7792   */\n      tag_195\n      jump\t// in\n    tag_289:\n        /* \"#utility.yul\":7719:7792   */\n      swap4\n      pop\n        /* \"#utility.yul\":7515:7802   */\n      pop\n        /* \"#utility.yul\":7841:7843   */\n      0x20\n        /* \"#utility.yul\":7867:7920   */\n      tag_290\n        /* \"#utility.yul\":7912:7919   */\n      dup7\n        /* \"#utility.yul\":7903:7909   */\n      dup3\n        /* \"#utility.yul\":7892:7901   */\n      dup8\n        /* \"#utility.yul\":7888:7910   */\n      add\n        /* \"#utility.yul\":7867:7920   */\n      tag_186\n      jump\t// in\n    tag_290:\n        /* \"#utility.yul\":7857:7920   */\n      swap3\n      pop\n        /* \"#utility.yul\":7812:7930   */\n      pop\n        /* \"#utility.yul\":7969:7971   */\n      0x40\n        /* \"#utility.yul\":7995:8048   */\n      tag_291\n        /* \"#utility.yul\":8040:8047   */\n      dup7\n        /* \"#utility.yul\":8031:8037   */\n      dup3\n        /* \"#utility.yul\":8020:8029   */\n      dup8\n        /* \"#utility.yul\":8016:8038   */\n      add\n        /* \"#utility.yul\":7995:8048   */\n      tag_186\n      jump\t// in\n    tag_291:\n        /* \"#utility.yul\":7985:8048   */\n      swap2\n      pop\n        /* \"#utility.yul\":7940:8058   */\n      pop\n        /* \"#utility.yul\":7266:8065   */\n      swap3\n      pop\n      swap3\n      pop\n      swap3\n      jump\t// out\n        /* \"#utility.yul\":8071:8580   */\n    tag_97:\n        /* \"#utility.yul\":8140:8146   */\n      0x00\n        /* \"#utility.yul\":8189:8191   */\n      0x20\n        /* \"#utility.yul\":8177:8186   */\n      dup3\n        /* \"#utility.yul\":8168:8175   */\n      dup5\n        /* \"#utility.yul\":8164:8187   */\n      sub\n        /* \"#utility.yul\":8160:8192   */\n      slt\n        /* \"#utility.yul\":8157:8276   */\n      iszero\n      tag_293\n      jumpi\n        /* \"#utility.yul\":8195:8274   */\n      tag_294\n      tag_171\n      jump\t// in\n    tag_294:\n        /* \"#utility.yul\":8157:8276   */\n    tag_293:\n        /* \"#utility.yul\":8343:8344   */\n      0x00\n        /* \"#utility.yul\":8332:8341   */\n      dup3\n        /* \"#utility.yul\":8328:8345   */\n      add\n        /* \"#utility.yul\":8315:8346   */\n      calldataload\n        /* \"#utility.yul\":8373:8391   */\n      0xffffffffffffffff\n        /* \"#utility.yul\":8365:8371   */\n      dup2\n        /* \"#utility.yul\":8362:8392   */\n      gt\n        /* \"#utility.yul\":8359:8476   */\n      iszero\n      tag_295\n      jumpi\n        /* \"#utility.yul\":8395:8474   */\n      tag_296\n      tag_172\n      jump\t// in\n    tag_296:\n        /* \"#utility.yul\":8359:8476   */\n    tag_295:\n        /* \"#utility.yul\":8500:8563   */\n      tag_297\n        /* \"#utility.yul\":8555:8562   */\n      dup5\n        /* \"#utility.yul\":8546:8552   */\n      dup3\n        /* \"#utility.yul\":8535:8544   */\n      dup6\n        /* \"#utility.yul\":8531:8553   */\n      add\n        /* \"#utility.yul\":8500:8563   */\n      tag_195\n      jump\t// in\n    tag_297:\n        /* \"#utility.yul\":8490:8563   */\n      swap2\n      pop\n        /* \"#utility.yul\":8286:8573   */\n      pop\n        /* \"#utility.yul\":8071:8580   */\n      swap3\n      swap2\n      pop\n      pop\n      jump\t// out\n        /* \"#utility.yul\":8586:8766   */\n    tag_196:\n        /* \"#utility.yul\":8634:8711   */\n      0x4e487b7100000000000000000000000000000000000000000000000000000000\n        /* \"#utility.yul\":8631:8632   */\n      0x00\n        /* \"#utility.yul\":8624:8712   */\n      mstore\n        /* \"#utility.yul\":8731:8735   */\n      0x22\n        /* \"#utility.yul\":8728:8729   */\n      0x04\n        /* \"#utility.yul\":8721:8736   */\n      mstore\n        /* \"#utility.yul\":8755:8759   */\n      0x24\n        /* \"#utility.yul\":8752:8753   */\n      0x00\n        /* \"#utility.yul\":8745:8760   */\n      revert\n        /* \"#utility.yul\":8772:9092   */\n    tag_101:\n        /* \"#utility.yul\":8816:8822   */\n      0x00\n        /* \"#utility.yul\":8853:8854   */\n      0x02\n        /* \"#utility.yul\":8847:8851   */\n      dup3\n        /* \"#utility.yul\":8843:8855   */\n      div\n        /* \"#utility.yul\":8833:8855   */\n      swap1\n      pop\n        /* \"#utility.yul\":8900:8901   */\n      0x01\n        /* \"#utility.yul\":8894:8898   */\n      dup3\n        /* \"#utility.yul\":8890:8902   */\n      and\n        /* \"#utility.yul\":8921:8939   */\n      dup1\n        /* \"#utility.yul\":8911:8992   */\n      tag_300\n      jumpi\n        /* \"#utility.yul\":8977:8981   */\n      0x7f\n        /* \"#utility.yul\":8969:8975   */\n      dup3\n        /* \"#utility.yul\":8965:8982   */\n      and\n        /* \"#utility.yul\":8955:8982   */\n      swap2\n      pop\n        /* \"#utility.yul\":8911:8992   */\n    tag_300:\n        /* \"#utility.yul\":9039:9041   */\n      0x20\n        /* \"#utility.yul\":9031:9037   */\n      dup3\n        /* \"#utility.yul\":9028:9042   */\n      lt\n        /* \"#utility.yul\":9008:9026   */\n      dup2\n        /* \"#utility.yul\":9005:9043   */\n      sub\n        /* \"#utility.yul\":9002:9086   */\n      tag_301\n      jumpi\n        /* \"#utility.yul\":9058:9076   */\n      tag_302\n      tag_196\n      jump\t// in\n    tag_302:\n        /* \"#utility.yul\":9002:9086   */\n    tag_301:\n        /* \"#utility.yul\":8823:9092   */\n      pop\n        /* \"#utility.yul\":8772:9092   */\n      swap2\n      swap1\n      pop\n      jump\t// out\n        /* \"#utility.yul\":9098:9278   */\n    tag_124:\n        /* \"#utility.yul\":9146:9223   */\n      0x4e487b7100000000000000000000000000000000000000000000000000000000\n        /* \"#utility.yul\":9143:9144   */\n      0x00\n        /* \"#utility.yul\":9136:9224   */\n      mstore\n        /* \"#utility.yul\":9243:9247   */\n      0x32\n        /* \"#utility.yul\":9240:9241   */\n      0x04\n        /* \"#utility.yul\":9233:9248   */\n      mstore\n        /* \"#utility.yul\":9267:9271   */\n      0x24\n        /* \"#utility.yul\":9264:9265   */\n      0x00\n        /* \"#utility.yul\":9257:9272   */\n      revert\n        /* \"#utility.yul\":9284:9510   */\n    tag_197:\n        /* \"#utility.yul\":9424:9458   */\n      0x4f6e6c792061756374696f6e6565722063616e2063616c6c2074686973206675\n        /* \"#utility.yul\":9420:9421   */\n      0x00\n        /* \"#utility.yul\":9412:9418   */\n      dup3\n        /* \"#utility.yul\":9408:9422   */\n      add\n        /* \"#utility.yul\":9401:9459   */\n      mstore\n        /* \"#utility.yul\":9493:9502   */\n      0x6e6374696f6e2e00000000000000000000000000000000000000000000000000\n        /* \"#utility.yul\":9488:9490   */\n      0x20\n        /* \"#utility.yul\":9480:9486   */\n      dup3\n        /* \"#utility.yul\":9476:9491   */\n      add\n        /* \"#utility.yul\":9469:9503   */\n      mstore\n        /* \"#utility.yul\":9284:9510   */\n      pop\n      jump\t// out\n        /* \"#utility.yul\":9516:9882   */\n    tag_198:\n        /* \"#utility.yul\":9658:9661   */\n      0x00\n        /* \"#utility.yul\":9679:9746   */\n      tag_306\n        /* \"#utility.yul\":9743:9745   */\n      0x27\n        /* \"#utility.yul\":9738:9741   */\n      dup4\n        /* \"#utility.yul\":9679:9746   */\n      tag_178\n      jump\t// in\n    tag_306:\n        /* \"#utility.yul\":9672:9746   */\n      swap2\n      pop\n        /* \"#utility.yul\":9755:9848   */\n      tag_307\n        /* \"#utility.yul\":9844:9847   */\n      dup3\n        /* \"#utility.yul\":9755:9848   */\n      tag_197\n      jump\t// in\n    tag_307:\n        /* \"#utility.yul\":9873:9875   */\n      0x40\n        /* \"#utility.yul\":9868:9871   */\n      dup3\n        /* \"#utility.yul\":9864:9876   */\n      add\n        /* \"#utility.yul\":9857:9876   */\n      swap1\n      pop\n        /* \"#utility.yul\":9516:9882   */\n      swap2\n      swap1\n      pop\n      jump\t// out\n        /* \"#utility.yul\":9888:10307   */\n    tag_153:\n        /* \"#utility.yul\":10054:10058   */\n      0x00\n        /* \"#utility.yul\":10092:10094   */\n      0x20\n        /* \"#utility.yul\":10081:10090   */\n      dup3\n        /* \"#utility.yul\":10077:10095   */\n      add\n        /* \"#utility.yul\":10069:10095   */\n      swap1\n      pop\n        /* \"#utility.yul\":10141:10150   */\n      dup2\n        /* \"#utility.yul\":10135:10139   */\n      dup2\n        /* \"#utility.yul\":10131:10151   */\n      sub\n        /* \"#utility.yul\":10127:10128   */\n      0x00\n        /* \"#utility.yul\":10116:10125   */\n      dup4\n        /* \"#utility.yul\":10112:10129   */\n      add\n        /* \"#utility.yul\":10105:10152   */\n      mstore\n        /* \"#utility.yul\":10169:10300   */\n      tag_309\n        /* \"#utility.yul\":10295:10299   */\n      dup2\n        /* \"#utility.yul\":10169:10300   */\n      tag_198\n      jump\t// in\n    tag_309:\n        /* \"#utility.yul\":10161:10300   */\n      swap1\n      pop\n        /* \"#utility.yul\":9888:10307   */\n      swap2\n      swap1\n      pop\n      jump\t// out\n\n    auxdata: 0xa26469706673582212203ee2dbbbdc619edc9091366ef1e6b4418128bcf906f58a1e19879daa0af9bc9364736f6c634300080e0033\n}\n",
				"bytecode": {
					"linkReferences": {},
					"object": "608060405234801561001057600080fd5b50611239806100206000396000f3fe608060405234801561001057600080fd5b506004361061012c5760003560e01c80638f772f96116100ad578063daa0218f11610071578063daa0218f1461034b578063e7d2a99714610369578063ed7a4e0b14610385578063f356733c146103a3578063ff567d8d146103ad5761012c565b80638f772f961461028f578063938626c2146102c1578063ceb98f6e146102df578063cff29dfd146102fd578063d476620b1461032d5761012c565b80633817df4c116100f45780633817df4c146101d75780633c68889a146102075780635fa382801461022557806366c85dee1461025557806383050daa146102715761012c565b806305fb23cf1461013157806310a37c261461016157806311631d061461017f5780631744e03b1461019d57806334eb86a2146101b9575b600080fd5b61014b60048036038101906101469190610cbc565b6103c9565b6040516101589190610d82565b60405180910390f35b61016961049a565b6040516101769190610db3565b60405180910390f35b6101876104c4565b6040516101949190610de7565b60405180910390f35b6101b760048036038101906101b29190610f63565b6104ca565b005b6101c161052d565b6040516101ce9190610de7565b60405180910390f35b6101f160048036038101906101ec9190610cbc565b610533565b6040516101fe9190610d82565b60405180910390f35b61020f6105d3565b60405161021c9190610d82565b60405180910390f35b61023f600480360381019061023a9190610fbf565b610665565b60405161024c9190610db3565b60405180910390f35b61026f600480360381019061026a9190610f63565b6106ad565b005b610279610783565b6040516102869190610d82565b60405180910390f35b6102a960048036038101906102a49190610fbf565b6107c0565b6040516102b893929190610fec565b60405180910390f35b6102c96108a2565b6040516102d69190610d82565b60405180910390f35b6102e7610930565b6040516102f49190610de7565b60405180910390f35b61031760048036038101906103129190610fbf565b61093a565b6040516103249190610db3565b60405180910390f35b610335610979565b6040516103429190610d82565b60405180910390f35b610353610a07565b6040516103609190610de7565b60405180910390f35b610383600480360381019061037e919061102a565b610a0d565b005b61038d610ac5565b60405161039a9190610db3565b60405180910390f35b6103ab610aeb565b005b6103c760048036038101906103c29190611099565b610b50565b005b6060600560008373ffffffffffffffffffffffffffffffffffffffff1673ffffffffffffffffffffffffffffffffffffffff168152602001908152602001600020805461041590611111565b80601f016020809104026020016040519081016040528092919081815260200182805461044190611111565b801561048e5780601f106104635761010080835404028352916020019161048e565b820191906000526020600020905b81548152906001019060200180831161047157829003601f168201915b50505050509050919050565b6000600660009054906101000a900473ffffffffffffffffffffffffffffffffffffffff16905090565b60075481565b33600660006101000a81548173ffffffffffffffffffffffffffffffffffffffff021916908373ffffffffffffffffffffffffffffffffffffffff160217905550816007819055508060089080519060200190610528929190610ba7565b505050565b60035481565b6005602052806000526040600020600091509050805461055290611111565b80601f016020809104026020016040519081016040528092919081815260200182805461057e90611111565b80156105cb5780601f106105a0576101008083540402835291602001916105cb565b820191906000526020600020905b8154815290600101906020018083116105ae57829003601f168201915b505050505081565b6060600880546105e290611111565b80601f016020809104026020016040519081016040528092919081815260200182805461060e90611111565b801561065b5780601f106106305761010080835404028352916020019161065b565b820191906000526020600020905b81548152906001019060200180831161063e57829003601f168201915b5050505050905090565b60006001828154811061067b5761067a611142565b5b9060005260206000200160009054906101000a900473ffffffffffffffffffffffffffffffffffffffff169050919050565b600060405180606001604052808481526020013373ffffffffffffffffffffffffffffffffffffffff16815260200183815250905060098190806001815401808255809150506001900390600052602060002090600302016000909190919091506000820151816000015560208201518160010160006101000a81548173ffffffffffffffffffffffffffffffffffffffff021916908373ffffffffffffffffffffffffffffffffffffffff160217905550604082015181600201908051906020019061077b929190610ba7565b505050505050565b60606040518060400160405280601781526020017f73616d706c6520737472696e672066726f6d20414b4542000000000000000000815250905090565b600981815481106107d057600080fd5b90600052602060002090600302016000915090508060000154908060010160009054906101000a900473ffffffffffffffffffffffffffffffffffffffff169080600201805461081f90611111565b80601f016020809104026020016040519081016040528092919081815260200182805461084b90611111565b80156108985780601f1061086d57610100808354040283529160200191610898565b820191906000526020600020905b81548152906001019060200180831161087b57829003601f168201915b5050505050905083565b600280546108af90611111565b80601f01602080910402602001604051908101604052809291908181526020018280546108db90611111565b80156109285780601f106108fd57610100808354040283529160200191610928565b820191906000526020600020905b81548152906001019060200180831161090b57829003601f168201915b505050505081565b6000600754905090565b6001818154811061094a57600080fd5b906000526020600020016000915054906101000a900473ffffffffffffffffffffffffffffffffffffffff1681565b6008805461098690611111565b80601f01602080910402602001604051908101604052809291908181526020018280546109b290611111565b80156109ff5780601f106109d4576101008083540402835291602001916109ff565b820191906000526020600020905b8154815290600101906020018083116109e257829003601f168201915b505050505081565b60045481565b60008054906101000a900473ffffffffffffffffffffffffffffffffffffffff1673ffffffffffffffffffffffffffffffffffffffff163373ffffffffffffffffffffffffffffffffffffffff1614610a9b576040517f08c379a0000000000000000000000000000000000000000000000000000000008152600401610a92906111e3565b60405180910390fd5b8260029080519060200190610ab1929190610ba7565b508160038190555080600481905550505050565b600660009054906101000a900473ffffffffffffffffffffffffffffffffffffffff1681565b6001339080600181540180825580915050600190039060005260206000200160009091909190916101000a81548173ffffffffffffffffffffffffffffffffffffffff021916908373ffffffffffffffffffffffffffffffffffffffff160217905550565b80600560003373ffffffffffffffffffffffffffffffffffffffff1673ffffffffffffffffffffffffffffffffffffffff1681526020019081526020016000209080519060200190610ba3929190610ba7565b5050565b828054610bb390611111565b90600052602060002090601f016020900481019282610bd55760008555610c1c565b82601f10610bee57805160ff1916838001178555610c1c565b82800160010185558215610c1c579182015b82811115610c1b578251825591602001919060010190610c00565b5b509050610c299190610c2d565b5090565b5b80821115610c46576000816000905550600101610c2e565b5090565b6000604051905090565b600080fd5b600080fd5b600073ffffffffffffffffffffffffffffffffffffffff82169050919050565b6000610c8982610c5e565b9050919050565b610c9981610c7e565b8114610ca457600080fd5b50565b600081359050610cb681610c90565b92915050565b600060208284031215610cd257610cd1610c54565b5b6000610ce084828501610ca7565b91505092915050565b600081519050919050565b600082825260208201905092915050565b60005b83811015610d23578082015181840152602081019050610d08565b83811115610d32576000848401525b50505050565b6000601f19601f8301169050919050565b6000610d5482610ce9565b610d5e8185610cf4565b9350610d6e818560208601610d05565b610d7781610d38565b840191505092915050565b60006020820190508181036000830152610d9c8184610d49565b905092915050565b610dad81610c7e565b82525050565b6000602082019050610dc86000830184610da4565b92915050565b6000819050919050565b610de181610dce565b82525050565b6000602082019050610dfc6000830184610dd8565b92915050565b610e0b81610dce565b8114610e1657600080fd5b50565b600081359050610e2881610e02565b92915050565b600080fd5b600080fd5b7f4e487b7100000000000000000000000000000000000000000000000000000000600052604160045260246000fd5b610e7082610d38565b810181811067ffffffffffffffff82111715610e8f57610e8e610e38565b5b80604052505050565b6000610ea2610c4a565b9050610eae8282610e67565b919050565b600067ffffffffffffffff821115610ece57610ecd610e38565b5b610ed782610d38565b9050602081019050919050565b82818337600083830152505050565b6000610f06610f0184610eb3565b610e98565b905082815260208101848484011115610f2257610f21610e33565b5b610f2d848285610ee4565b509392505050565b600082601f830112610f4a57610f49610e2e565b5b8135610f5a848260208601610ef3565b91505092915050565b60008060408385031215610f7a57610f79610c54565b5b6000610f8885828601610e19565b925050602083013567ffffffffffffffff811115610fa957610fa8610c59565b5b610fb585828601610f35565b9150509250929050565b600060208284031215610fd557610fd4610c54565b5b6000610fe384828501610e19565b91505092915050565b60006060820190506110016000830186610dd8565b61100e6020830185610da4565b81810360408301526110208184610d49565b9050949350505050565b60008060006060848603121561104357611042610c54565b5b600084013567ffffffffffffffff81111561106157611060610c59565b5b61106d86828701610f35565b935050602061107e86828701610e19565b925050604061108f86828701610e19565b9150509250925092565b6000602082840312156110af576110ae610c54565b5b600082013567ffffffffffffffff8111156110cd576110cc610c59565b5b6110d984828501610f35565b91505092915050565b7f4e487b7100000000000000000000000000000000000000000000000000000000600052602260045260246000fd5b6000600282049050600182168061112957607f821691505b60208210810361113c5761113b6110e2565b5b50919050565b7f4e487b7100000000000000000000000000000000000000000000000000000000600052603260045260246000fd5b7f4f6e6c792061756374696f6e6565722063616e2063616c6c207468697320667560008201527f6e6374696f6e2e00000000000000000000000000000000000000000000000000602082015250565b60006111cd602783610cf4565b91506111d882611171565b604082019050919050565b600060208201905081810360008301526111fc816111c0565b905091905056fea26469706673582212203ee2dbbbdc619edc9091366ef1e6b4418128bcf906f58a1e19879daa0af9bc9364736f6c634300080e0033",
					"opcodes": "PUSH1 0x80 PUSH1 0x40 MSTORE CALLVALUE DUP1 ISZERO PUSH2 0x10 JUMPI PUSH1 0x0 DUP1 REVERT JUMPDEST POP PUSH2 0x1239 DUP1 PUSH2 0x20 PUSH1 0x0 CODECOPY PUSH1 0x0 RETURN INVALID PUSH1 0x80 PUSH1 0x40 MSTORE CALLVALUE DUP1 ISZERO PUSH2 0x10 JUMPI PUSH1 0x0 DUP1 REVERT JUMPDEST POP PUSH1 0x4 CALLDATASIZE LT PUSH2 0x12C JUMPI PUSH1 0x0 CALLDATALOAD PUSH1 0xE0 SHR DUP1 PUSH4 0x8F772F96 GT PUSH2 0xAD JUMPI DUP1 PUSH4 0xDAA0218F GT PUSH2 0x71 JUMPI DUP1 PUSH4 0xDAA0218F EQ PUSH2 0x34B JUMPI DUP1 PUSH4 0xE7D2A997 EQ PUSH2 0x369 JUMPI DUP1 PUSH4 0xED7A4E0B EQ PUSH2 0x385 JUMPI DUP1 PUSH4 0xF356733C EQ PUSH2 0x3A3 JUMPI DUP1 PUSH4 0xFF567D8D EQ PUSH2 0x3AD JUMPI PUSH2 0x12C JUMP JUMPDEST DUP1 PUSH4 0x8F772F96 EQ PUSH2 0x28F JUMPI DUP1 PUSH4 0x938626C2 EQ PUSH2 0x2C1 JUMPI DUP1 PUSH4 0xCEB98F6E EQ PUSH2 0x2DF JUMPI DUP1 PUSH4 0xCFF29DFD EQ PUSH2 0x2FD JUMPI DUP1 PUSH4 0xD476620B EQ PUSH2 0x32D JUMPI PUSH2 0x12C JUMP JUMPDEST DUP1 PUSH4 0x3817DF4C GT PUSH2 0xF4 JUMPI DUP1 PUSH4 0x3817DF4C EQ PUSH2 0x1D7 JUMPI DUP1 PUSH4 0x3C68889A EQ PUSH2 0x207 JUMPI DUP1 PUSH4 0x5FA38280 EQ PUSH2 0x225 JUMPI DUP1 PUSH4 0x66C85DEE EQ PUSH2 0x255 JUMPI DUP1 PUSH4 0x83050DAA EQ PUSH2 0x271 JUMPI PUSH2 0x12C JUMP JUMPDEST DUP1 PUSH4 0x5FB23CF EQ PUSH2 0x131 JUMPI DUP1 PUSH4 0x10A37C26 EQ PUSH2 0x161 JUMPI DUP1 PUSH4 0x11631D06 EQ PUSH2 0x17F JUMPI DUP1 PUSH4 0x1744E03B EQ PUSH2 0x19D JUMPI DUP1 PUSH4 0x34EB86A2 EQ PUSH2 0x1B9 JUMPI JUMPDEST PUSH1 0x0 DUP1 REVERT JUMPDEST PUSH2 0x14B PUSH1 0x4 DUP1 CALLDATASIZE SUB DUP2 ADD SWAP1 PUSH2 0x146 SWAP2 SWAP1 PUSH2 0xCBC JUMP JUMPDEST PUSH2 0x3C9 JUMP JUMPDEST PUSH1 0x40 MLOAD PUSH2 0x158 SWAP2 SWAP1 PUSH2 0xD82 JUMP JUMPDEST PUSH1 0x40 MLOAD DUP1 SWAP2 SUB SWAP1 RETURN JUMPDEST PUSH2 0x169 PUSH2 0x49A JUMP JUMPDEST PUSH1 0x40 MLOAD PUSH2 0x176 SWAP2 SWAP1 PUSH2 0xDB3 JUMP JUMPDEST PUSH1 0x40 MLOAD DUP1 SWAP2 SUB SWAP1 RETURN JUMPDEST PUSH2 0x187 PUSH2 0x4C4 JUMP JUMPDEST PUSH1 0x40 MLOAD PUSH2 0x194 SWAP2 SWAP1 PUSH2 0xDE7 JUMP JUMPDEST PUSH1 0x40 MLOAD DUP1 SWAP2 SUB SWAP1 RETURN JUMPDEST PUSH2 0x1B7 PUSH1 0x4 DUP1 CALLDATASIZE SUB DUP2 ADD SWAP1 PUSH2 0x1B2 SWAP2 SWAP1 PUSH2 0xF63 JUMP JUMPDEST PUSH2 0x4CA JUMP JUMPDEST STOP JUMPDEST PUSH2 0x1C1 PUSH2 0x52D JUMP JUMPDEST PUSH1 0x40 MLOAD PUSH2 0x1CE SWAP2 SWAP1 PUSH2 0xDE7 JUMP JUMPDEST PUSH1 0x40 MLOAD DUP1 SWAP2 SUB SWAP1 RETURN JUMPDEST PUSH2 0x1F1 PUSH1 0x4 DUP1 CALLDATASIZE SUB DUP2 ADD SWAP1 PUSH2 0x1EC SWAP2 SWAP1 PUSH2 0xCBC JUMP JUMPDEST PUSH2 0x533 JUMP JUMPDEST PUSH1 0x40 MLOAD PUSH2 0x1FE SWAP2 SWAP1 PUSH2 0xD82 JUMP JUMPDEST PUSH1 0x40 MLOAD DUP1 SWAP2 SUB SWAP1 RETURN JUMPDEST PUSH2 0x20F PUSH2 0x5D3 JUMP JUMPDEST PUSH1 0x40 MLOAD PUSH2 0x21C SWAP2 SWAP1 PUSH2 0xD82 JUMP JUMPDEST PUSH1 0x40 MLOAD DUP1 SWAP2 SUB SWAP1 RETURN JUMPDEST PUSH2 0x23F PUSH1 0x4 DUP1 CALLDATASIZE SUB DUP2 ADD SWAP1 PUSH2 0x23A SWAP2 SWAP1 PUSH2 0xFBF JUMP JUMPDEST PUSH2 0x665 JUMP JUMPDEST PUSH1 0x40 MLOAD PUSH2 0x24C SWAP2 SWAP1 PUSH2 0xDB3 JUMP JUMPDEST PUSH1 0x40 MLOAD DUP1 SWAP2 SUB SWAP1 RETURN JUMPDEST PUSH2 0x26F PUSH1 0x4 DUP1 CALLDATASIZE SUB DUP2 ADD SWAP1 PUSH2 0x26A SWAP2 SWAP1 PUSH2 0xF63 JUMP JUMPDEST PUSH2 0x6AD JUMP JUMPDEST STOP JUMPDEST PUSH2 0x279 PUSH2 0x783 JUMP JUMPDEST PUSH1 0x40 MLOAD PUSH2 0x286 SWAP2 SWAP1 PUSH2 0xD82 JUMP JUMPDEST PUSH1 0x40 MLOAD DUP1 SWAP2 SUB SWAP1 RETURN JUMPDEST PUSH2 0x2A9 PUSH1 0x4 DUP1 CALLDATASIZE SUB DUP2 ADD SWAP1 PUSH2 0x2A4 SWAP2 SWAP1 PUSH2 0xFBF JUMP JUMPDEST PUSH2 0x7C0 JUMP JUMPDEST PUSH1 0x40 MLOAD PUSH2 0x2B8 SWAP4 SWAP3 SWAP2 SWAP1 PUSH2 0xFEC JUMP JUMPDEST PUSH1 0x40 MLOAD DUP1 SWAP2 SUB SWAP1 RETURN JUMPDEST PUSH2 0x2C9 PUSH2 0x8A2 JUMP JUMPDEST PUSH1 0x40 MLOAD PUSH2 0x2D6 SWAP2 SWAP1 PUSH2 0xD82 JUMP JUMPDEST PUSH1 0x40 MLOAD DUP1 SWAP2 SUB SWAP1 RETURN JUMPDEST PUSH2 0x2E7 PUSH2 0x930 JUMP JUMPDEST PUSH1 0x40 MLOAD PUSH2 0x2F4 SWAP2 SWAP1 PUSH2 0xDE7 JUMP JUMPDEST PUSH1 0x40 MLOAD DUP1 SWAP2 SUB SWAP1 RETURN JUMPDEST PUSH2 0x317 PUSH1 0x4 DUP1 CALLDATASIZE SUB DUP2 ADD SWAP1 PUSH2 0x312 SWAP2 SWAP1 PUSH2 0xFBF JUMP JUMPDEST PUSH2 0x93A JUMP JUMPDEST PUSH1 0x40 MLOAD PUSH2 0x324 SWAP2 SWAP1 PUSH2 0xDB3 JUMP JUMPDEST PUSH1 0x40 MLOAD DUP1 SWAP2 SUB SWAP1 RETURN JUMPDEST PUSH2 0x335 PUSH2 0x979 JUMP JUMPDEST PUSH1 0x40 MLOAD PUSH2 0x342 SWAP2 SWAP1 PUSH2 0xD82 JUMP JUMPDEST PUSH1 0x40 MLOAD DUP1 SWAP2 SUB SWAP1 RETURN JUMPDEST PUSH2 0x353 PUSH2 0xA07 JUMP JUMPDEST PUSH1 0x40 MLOAD PUSH2 0x360 SWAP2 SWAP1 PUSH2 0xDE7 JUMP JUMPDEST PUSH1 0x40 MLOAD DUP1 SWAP2 SUB SWAP1 RETURN JUMPDEST PUSH2 0x383 PUSH1 0x4 DUP1 CALLDATASIZE SUB DUP2 ADD SWAP1 PUSH2 0x37E SWAP2 SWAP1 PUSH2 0x102A JUMP JUMPDEST PUSH2 0xA0D JUMP JUMPDEST STOP JUMPDEST PUSH2 0x38D PUSH2 0xAC5 JUMP JUMPDEST PUSH1 0x40 MLOAD PUSH2 0x39A SWAP2 SWAP1 PUSH2 0xDB3 JUMP JUMPDEST PUSH1 0x40 MLOAD DUP1 SWAP2 SUB SWAP1 RETURN JUMPDEST PUSH2 0x3AB PUSH2 0xAEB JUMP JUMPDEST STOP JUMPDEST PUSH2 0x3C7 PUSH1 0x4 DUP1 CALLDATASIZE SUB DUP2 ADD SWAP1 PUSH2 0x3C2 SWAP2 SWAP1 PUSH2 0x1099 JUMP JUMPDEST PUSH2 0xB50 JUMP JUMPDEST STOP JUMPDEST PUSH1 0x60 PUSH1 0x5 PUSH1 0x0 DUP4 PUSH20 0xFFFFFFFFFFFFFFFFFFFFFFFFFFFFFFFFFFFFFFFF AND PUSH20 0xFFFFFFFFFFFFFFFFFFFFFFFFFFFFFFFFFFFFFFFF AND DUP2 MSTORE PUSH1 0x20 ADD SWAP1 DUP2 MSTORE PUSH1 0x20 ADD PUSH1 0x0 KECCAK256 DUP1 SLOAD PUSH2 0x415 SWAP1 PUSH2 0x1111 JUMP JUMPDEST DUP1 PUSH1 0x1F ADD PUSH1 0x20 DUP1 SWAP2 DIV MUL PUSH1 0x20 ADD PUSH1 0x40 MLOAD SWAP1 DUP2 ADD PUSH1 0x40 MSTORE DUP1 SWAP3 SWAP2 SWAP1 DUP2 DUP2 MSTORE PUSH1 0x20 ADD DUP3 DUP1 SLOAD PUSH2 0x441 SWAP1 PUSH2 0x1111 JUMP JUMPDEST DUP1 ISZERO PUSH2 0x48E JUMPI DUP1 PUSH1 0x1F LT PUSH2 0x463 JUMPI PUSH2 0x100 DUP1 DUP4 SLOAD DIV MUL DUP4 MSTORE SWAP2 PUSH1 0x20 ADD SWAP2 PUSH2 0x48E JUMP JUMPDEST DUP3 ADD SWAP2 SWAP1 PUSH1 0x0 MSTORE PUSH1 0x20 PUSH1 0x0 KECCAK256 SWAP1 JUMPDEST DUP2 SLOAD DUP2 MSTORE SWAP1 PUSH1 0x1 ADD SWAP1 PUSH1 0x20 ADD DUP1 DUP4 GT PUSH2 0x471 JUMPI DUP3 SWAP1 SUB PUSH1 0x1F AND DUP3 ADD SWAP2 JUMPDEST POP POP POP POP POP SWAP1 POP SWAP2 SWAP1 POP JUMP JUMPDEST PUSH1 0x0 PUSH1 0x6 PUSH1 0x0 SWAP1 SLOAD SWAP1 PUSH2 0x100 EXP SWAP1 DIV PUSH20 0xFFFFFFFFFFFFFFFFFFFFFFFFFFFFFFFFFFFFFFFF AND SWAP1 POP SWAP1 JUMP JUMPDEST PUSH1 0x7 SLOAD DUP2 JUMP JUMPDEST CALLER PUSH1 0x6 PUSH1 0x0 PUSH2 0x100 EXP DUP2 SLOAD DUP2 PUSH20 0xFFFFFFFFFFFFFFFFFFFFFFFFFFFFFFFFFFFFFFFF MUL NOT AND SWAP1 DUP4 PUSH20 0xFFFFFFFFFFFFFFFFFFFFFFFFFFFFFFFFFFFFFFFF AND MUL OR SWAP1 SSTORE POP DUP2 PUSH1 0x7 DUP2 SWAP1 SSTORE POP DUP1 PUSH1 0x8 SWAP1 DUP1 MLOAD SWAP1 PUSH1 0x20 ADD SWAP1 PUSH2 0x528 SWAP3 SWAP2 SWAP1 PUSH2 0xBA7 JUMP JUMPDEST POP POP POP JUMP JUMPDEST PUSH1 0x3 SLOAD DUP2 JUMP JUMPDEST PUSH1 0x5 PUSH1 0x20 MSTORE DUP1 PUSH1 0x0 MSTORE PUSH1 0x40 PUSH1 0x0 KECCAK256 PUSH1 0x0 SWAP2 POP SWAP1 POP DUP1 SLOAD PUSH2 0x552 SWAP1 PUSH2 0x1111 JUMP JUMPDEST DUP1 PUSH1 0x1F ADD PUSH1 0x20 DUP1 SWAP2 DIV MUL PUSH1 0x20 ADD PUSH1 0x40 MLOAD SWAP1 DUP2 ADD PUSH1 0x40 MSTORE DUP1 SWAP3 SWAP2 SWAP1 DUP2 DUP2 MSTORE PUSH1 0x20 ADD DUP3 DUP1 SLOAD PUSH2 0x57E SWAP1 PUSH2 0x1111 JUMP JUMPDEST DUP1 ISZERO PUSH2 0x5CB JUMPI DUP1 PUSH1 0x1F LT PUSH2 0x5A0 JUMPI PUSH2 0x100 DUP1 DUP4 SLOAD DIV MUL DUP4 MSTORE SWAP2 PUSH1 0x20 ADD SWAP2 PUSH2 0x5CB JUMP JUMPDEST DUP3 ADD SWAP2 SWAP1 PUSH1 0x0 MSTORE PUSH1 0x20 PUSH1 0x0 KECCAK256 SWAP1 JUMPDEST DUP2 SLOAD DUP2 MSTORE SWAP1 PUSH1 0x1 ADD SWAP1 PUSH1 0x20 ADD DUP1 DUP4 GT PUSH2 0x5AE JUMPI DUP3 SWAP1 SUB PUSH1 0x1F AND DUP3 ADD SWAP2 JUMPDEST POP POP POP POP POP DUP2 JUMP JUMPDEST PUSH1 0x60 PUSH1 0x8 DUP1 SLOAD PUSH2 0x5E2 SWAP1 PUSH2 0x1111 JUMP JUMPDEST DUP1 PUSH1 0x1F ADD PUSH1 0x20 DUP1 SWAP2 DIV MUL PUSH1 0x20 ADD PUSH1 0x40 MLOAD SWAP1 DUP2 ADD PUSH1 0x40 MSTORE DUP1 SWAP3 SWAP2 SWAP1 DUP2 DUP2 MSTORE PUSH1 0x20 ADD DUP3 DUP1 SLOAD PUSH2 0x60E SWAP1 PUSH2 0x1111 JUMP JUMPDEST DUP1 ISZERO PUSH2 0x65B JUMPI DUP1 PUSH1 0x1F LT PUSH2 0x630 JUMPI PUSH2 0x100 DUP1 DUP4 SLOAD DIV MUL DUP4 MSTORE SWAP2 PUSH1 0x20 ADD SWAP2 PUSH2 0x65B JUMP JUMPDEST DUP3 ADD SWAP2 SWAP1 PUSH1 0x0 MSTORE PUSH1 0x20 PUSH1 0x0 KECCAK256 SWAP1 JUMPDEST DUP2 SLOAD DUP2 MSTORE SWAP1 PUSH1 0x1 ADD SWAP1 PUSH1 0x20 ADD DUP1 DUP4 GT PUSH2 0x63E JUMPI DUP3 SWAP1 SUB PUSH1 0x1F AND DUP3 ADD SWAP2 JUMPDEST POP POP POP POP POP SWAP1 POP SWAP1 JUMP JUMPDEST PUSH1 0x0 PUSH1 0x1 DUP3 DUP2 SLOAD DUP2 LT PUSH2 0x67B JUMPI PUSH2 0x67A PUSH2 0x1142 JUMP JUMPDEST JUMPDEST SWAP1 PUSH1 0x0 MSTORE PUSH1 0x20 PUSH1 0x0 KECCAK256 ADD PUSH1 0x0 SWAP1 SLOAD SWAP1 PUSH2 0x100 EXP SWAP1 DIV PUSH20 0xFFFFFFFFFFFFFFFFFFFFFFFFFFFFFFFFFFFFFFFF AND SWAP1 POP SWAP2 SWAP1 POP JUMP JUMPDEST PUSH1 0x0 PUSH1 0x40 MLOAD DUP1 PUSH1 0x60 ADD PUSH1 0x40 MSTORE DUP1 DUP5 DUP2 MSTORE PUSH1 0x20 ADD CALLER PUSH20 0xFFFFFFFFFFFFFFFFFFFFFFFFFFFFFFFFFFFFFFFF AND DUP2 MSTORE PUSH1 0x20 ADD DUP4 DUP2 MSTORE POP SWAP1 POP PUSH1 0x9 DUP2 SWAP1 DUP1 PUSH1 0x1 DUP2 SLOAD ADD DUP1 DUP3 SSTORE DUP1 SWAP2 POP POP PUSH1 0x1 SWAP1 SUB SWAP1 PUSH1 0x0 MSTORE PUSH1 0x20 PUSH1 0x0 KECCAK256 SWAP1 PUSH1 0x3 MUL ADD PUSH1 0x0 SWAP1 SWAP2 SWAP1 SWAP2 SWAP1 SWAP2 POP PUSH1 0x0 DUP3 ADD MLOAD DUP2 PUSH1 0x0 ADD SSTORE PUSH1 0x20 DUP3 ADD MLOAD DUP2 PUSH1 0x1 ADD PUSH1 0x0 PUSH2 0x100 EXP DUP2 SLOAD DUP2 PUSH20 0xFFFFFFFFFFFFFFFFFFFFFFFFFFFFFFFFFFFFFFFF MUL NOT AND SWAP1 DUP4 PUSH20 0xFFFFFFFFFFFFFFFFFFFFFFFFFFFFFFFFFFFFFFFF AND MUL OR SWAP1 SSTORE POP PUSH1 0x40 DUP3 ADD MLOAD DUP2 PUSH1 0x2 ADD SWAP1 DUP1 MLOAD SWAP1 PUSH1 0x20 ADD SWAP1 PUSH2 0x77B SWAP3 SWAP2 SWAP1 PUSH2 0xBA7 JUMP JUMPDEST POP POP POP POP POP POP JUMP JUMPDEST PUSH1 0x60 PUSH1 0x40 MLOAD DUP1 PUSH1 0x40 ADD PUSH1 0x40 MSTORE DUP1 PUSH1 0x17 DUP2 MSTORE PUSH1 0x20 ADD PUSH32 0x73616D706C6520737472696E672066726F6D20414B4542000000000000000000 DUP2 MSTORE POP SWAP1 POP SWAP1 JUMP JUMPDEST PUSH1 0x9 DUP2 DUP2 SLOAD DUP2 LT PUSH2 0x7D0 JUMPI PUSH1 0x0 DUP1 REVERT JUMPDEST SWAP1 PUSH1 0x0 MSTORE PUSH1 0x20 PUSH1 0x0 KECCAK256 SWAP1 PUSH1 0x3 MUL ADD PUSH1 0x0 SWAP2 POP SWAP1 POP DUP1 PUSH1 0x0 ADD SLOAD SWAP1 DUP1 PUSH1 0x1 ADD PUSH1 0x0 SWAP1 SLOAD SWAP1 PUSH2 0x100 EXP SWAP1 DIV PUSH20 0xFFFFFFFFFFFFFFFFFFFFFFFFFFFFFFFFFFFFFFFF AND SWAP1 DUP1 PUSH1 0x2 ADD DUP1 SLOAD PUSH2 0x81F SWAP1 PUSH2 0x1111 JUMP JUMPDEST DUP1 PUSH1 0x1F ADD PUSH1 0x20 DUP1 SWAP2 DIV MUL PUSH1 0x20 ADD PUSH1 0x40 MLOAD SWAP1 DUP2 ADD PUSH1 0x40 MSTORE DUP1 SWAP3 SWAP2 SWAP1 DUP2 DUP2 MSTORE PUSH1 0x20 ADD DUP3 DUP1 SLOAD PUSH2 0x84B SWAP1 PUSH2 0x1111 JUMP JUMPDEST DUP1 ISZERO PUSH2 0x898 JUMPI DUP1 PUSH1 0x1F LT PUSH2 0x86D JUMPI PUSH2 0x100 DUP1 DUP4 SLOAD DIV MUL DUP4 MSTORE SWAP2 PUSH1 0x20 ADD SWAP2 PUSH2 0x898 JUMP JUMPDEST DUP3 ADD SWAP2 SWAP1 PUSH1 0x0 MSTORE PUSH1 0x20 PUSH1 0x0 KECCAK256 SWAP1 JUMPDEST DUP2 SLOAD DUP2 MSTORE SWAP1 PUSH1 0x1 ADD SWAP1 PUSH1 0x20 ADD DUP1 DUP4 GT PUSH2 0x87B JUMPI DUP3 SWAP1 SUB PUSH1 0x1F AND DUP3 ADD SWAP2 JUMPDEST POP POP POP POP POP SWAP1 POP DUP4 JUMP JUMPDEST PUSH1 0x2 DUP1 SLOAD PUSH2 0x8AF SWAP1 PUSH2 0x1111 JUMP JUMPDEST DUP1 PUSH1 0x1F ADD PUSH1 0x20 DUP1 SWAP2 DIV MUL PUSH1 0x20 ADD PUSH1 0x40 MLOAD SWAP1 DUP2 ADD PUSH1 0x40 MSTORE DUP1 SWAP3 SWAP2 SWAP1 DUP2 DUP2 MSTORE PUSH1 0x20 ADD DUP3 DUP1 SLOAD PUSH2 0x8DB SWAP1 PUSH2 0x1111 JUMP JUMPDEST DUP1 ISZERO PUSH2 0x928 JUMPI DUP1 PUSH1 0x1F LT PUSH2 0x8FD JUMPI PUSH2 0x100 DUP1 DUP4 SLOAD DIV MUL DUP4 MSTORE SWAP2 PUSH1 0x20 ADD SWAP2 PUSH2 0x928 JUMP JUMPDEST DUP3 ADD SWAP2 SWAP1 PUSH1 0x0 MSTORE PUSH1 0x20 PUSH1 0x0 KECCAK256 SWAP1 JUMPDEST DUP2 SLOAD DUP2 MSTORE SWAP1 PUSH1 0x1 ADD SWAP1 PUSH1 0x20 ADD DUP1 DUP4 GT PUSH2 0x90B JUMPI DUP3 SWAP1 SUB PUSH1 0x1F AND DUP3 ADD SWAP2 JUMPDEST POP POP POP POP POP DUP2 JUMP JUMPDEST PUSH1 0x0 PUSH1 0x7 SLOAD SWAP1 POP SWAP1 JUMP JUMPDEST PUSH1 0x1 DUP2 DUP2 SLOAD DUP2 LT PUSH2 0x94A JUMPI PUSH1 0x0 DUP1 REVERT JUMPDEST SWAP1 PUSH1 0x0 MSTORE PUSH1 0x20 PUSH1 0x0 KECCAK256 ADD PUSH1 0x0 SWAP2 POP SLOAD SWAP1 PUSH2 0x100 EXP SWAP1 DIV PUSH20 0xFFFFFFFFFFFFFFFFFFFFFFFFFFFFFFFFFFFFFFFF AND DUP2 JUMP JUMPDEST PUSH1 0x8 DUP1 SLOAD PUSH2 0x986 SWAP1 PUSH2 0x1111 JUMP JUMPDEST DUP1 PUSH1 0x1F ADD PUSH1 0x20 DUP1 SWAP2 DIV MUL PUSH1 0x20 ADD PUSH1 0x40 MLOAD SWAP1 DUP2 ADD PUSH1 0x40 MSTORE DUP1 SWAP3 SWAP2 SWAP1 DUP2 DUP2 MSTORE PUSH1 0x20 ADD DUP3 DUP1 SLOAD PUSH2 0x9B2 SWAP1 PUSH2 0x1111 JUMP JUMPDEST DUP1 ISZERO PUSH2 0x9FF JUMPI DUP1 PUSH1 0x1F LT PUSH2 0x9D4 JUMPI PUSH2 0x100 DUP1 DUP4 SLOAD DIV MUL DUP4 MSTORE SWAP2 PUSH1 0x20 ADD SWAP2 PUSH2 0x9FF JUMP JUMPDEST DUP3 ADD SWAP2 SWAP1 PUSH1 0x0 MSTORE PUSH1 0x20 PUSH1 0x0 KECCAK256 SWAP1 JUMPDEST DUP2 SLOAD DUP2 MSTORE SWAP1 PUSH1 0x1 ADD SWAP1 PUSH1 0x20 ADD DUP1 DUP4 GT PUSH2 0x9E2 JUMPI DUP3 SWAP1 SUB PUSH1 0x1F AND DUP3 ADD SWAP2 JUMPDEST POP POP POP POP POP DUP2 JUMP JUMPDEST PUSH1 0x4 SLOAD DUP2 JUMP JUMPDEST PUSH1 0x0 DUP1 SLOAD SWAP1 PUSH2 0x100 EXP SWAP1 DIV PUSH20 0xFFFFFFFFFFFFFFFFFFFFFFFFFFFFFFFFFFFFFFFF AND PUSH20 0xFFFFFFFFFFFFFFFFFFFFFFFFFFFFFFFFFFFFFFFF AND CALLER PUSH20 0xFFFFFFFFFFFFFFFFFFFFFFFFFFFFFFFFFFFFFFFF AND EQ PUSH2 0xA9B JUMPI PUSH1 0x40 MLOAD PUSH32 0x8C379A000000000000000000000000000000000000000000000000000000000 DUP2 MSTORE PUSH1 0x4 ADD PUSH2 0xA92 SWAP1 PUSH2 0x11E3 JUMP JUMPDEST PUSH1 0x40 MLOAD DUP1 SWAP2 SUB SWAP1 REVERT JUMPDEST DUP3 PUSH1 0x2 SWAP1 DUP1 MLOAD SWAP1 PUSH1 0x20 ADD SWAP1 PUSH2 0xAB1 SWAP3 SWAP2 SWAP1 PUSH2 0xBA7 JUMP JUMPDEST POP DUP2 PUSH1 0x3 DUP2 SWAP1 SSTORE POP DUP1 PUSH1 0x4 DUP2 SWAP1 SSTORE POP POP POP POP JUMP JUMPDEST PUSH1 0x6 PUSH1 0x0 SWAP1 SLOAD SWAP1 PUSH2 0x100 EXP SWAP1 DIV PUSH20 0xFFFFFFFFFFFFFFFFFFFFFFFFFFFFFFFFFFFFFFFF AND DUP2 JUMP JUMPDEST PUSH1 0x1 CALLER SWAP1 DUP1 PUSH1 0x1 DUP2 SLOAD ADD DUP1 DUP3 SSTORE DUP1 SWAP2 POP POP PUSH1 0x1 SWAP1 SUB SWAP1 PUSH1 0x0 MSTORE PUSH1 0x20 PUSH1 0x0 KECCAK256 ADD PUSH1 0x0 SWAP1 SWAP2 SWAP1 SWAP2 SWAP1 SWAP2 PUSH2 0x100 EXP DUP2 SLOAD DUP2 PUSH20 0xFFFFFFFFFFFFFFFFFFFFFFFFFFFFFFFFFFFFFFFF MUL NOT AND SWAP1 DUP4 PUSH20 0xFFFFFFFFFFFFFFFFFFFFFFFFFFFFFFFFFFFFFFFF AND MUL OR SWAP1 SSTORE POP JUMP JUMPDEST DUP1 PUSH1 0x5 PUSH1 0x0 CALLER PUSH20 0xFFFFFFFFFFFFFFFFFFFFFFFFFFFFFFFFFFFFFFFF AND PUSH20 0xFFFFFFFFFFFFFFFFFFFFFFFFFFFFFFFFFFFFFFFF AND DUP2 MSTORE PUSH1 0x20 ADD SWAP1 DUP2 MSTORE PUSH1 0x20 ADD PUSH1 0x0 KECCAK256 SWAP1 DUP1 MLOAD SWAP1 PUSH1 0x20 ADD SWAP1 PUSH2 0xBA3 SWAP3 SWAP2 SWAP1 PUSH2 0xBA7 JUMP JUMPDEST POP POP JUMP JUMPDEST DUP3 DUP1 SLOAD PUSH2 0xBB3 SWAP1 PUSH2 0x1111 JUMP JUMPDEST SWAP1 PUSH1 0x0 MSTORE PUSH1 0x20 PUSH1 0x0 KECCAK256 SWAP1 PUSH1 0x1F ADD PUSH1 0x20 SWAP1 DIV DUP2 ADD SWAP3 DUP3 PUSH2 0xBD5 JUMPI PUSH1 0x0 DUP6 SSTORE PUSH2 0xC1C JUMP JUMPDEST DUP3 PUSH1 0x1F LT PUSH2 0xBEE JUMPI DUP1 MLOAD PUSH1 0xFF NOT AND DUP4 DUP1 ADD OR DUP6 SSTORE PUSH2 0xC1C JUMP JUMPDEST DUP3 DUP1 ADD PUSH1 0x1 ADD DUP6 SSTORE DUP3 ISZERO PUSH2 0xC1C JUMPI SWAP2 DUP3 ADD JUMPDEST DUP3 DUP2 GT ISZERO PUSH2 0xC1B JUMPI DUP3 MLOAD DUP3 SSTORE SWAP2 PUSH1 0x20 ADD SWAP2 SWAP1 PUSH1 0x1 ADD SWAP1 PUSH2 0xC00 JUMP JUMPDEST JUMPDEST POP SWAP1 POP PUSH2 0xC29 SWAP2 SWAP1 PUSH2 0xC2D JUMP JUMPDEST POP SWAP1 JUMP JUMPDEST JUMPDEST DUP1 DUP3 GT ISZERO PUSH2 0xC46 JUMPI PUSH1 0x0 DUP2 PUSH1 0x0 SWAP1 SSTORE POP PUSH1 0x1 ADD PUSH2 0xC2E JUMP JUMPDEST POP SWAP1 JUMP JUMPDEST PUSH1 0x0 PUSH1 0x40 MLOAD SWAP1 POP SWAP1 JUMP JUMPDEST PUSH1 0x0 DUP1 REVERT JUMPDEST PUSH1 0x0 DUP1 REVERT JUMPDEST PUSH1 0x0 PUSH20 0xFFFFFFFFFFFFFFFFFFFFFFFFFFFFFFFFFFFFFFFF DUP3 AND SWAP1 POP SWAP2 SWAP1 POP JUMP JUMPDEST PUSH1 0x0 PUSH2 0xC89 DUP3 PUSH2 0xC5E JUMP JUMPDEST SWAP1 POP SWAP2 SWAP1 POP JUMP JUMPDEST PUSH2 0xC99 DUP2 PUSH2 0xC7E JUMP JUMPDEST DUP2 EQ PUSH2 0xCA4 JUMPI PUSH1 0x0 DUP1 REVERT JUMPDEST POP JUMP JUMPDEST PUSH1 0x0 DUP2 CALLDATALOAD SWAP1 POP PUSH2 0xCB6 DUP2 PUSH2 0xC90 JUMP JUMPDEST SWAP3 SWAP2 POP POP JUMP JUMPDEST PUSH1 0x0 PUSH1 0x20 DUP3 DUP5 SUB SLT ISZERO PUSH2 0xCD2 JUMPI PUSH2 0xCD1 PUSH2 0xC54 JUMP JUMPDEST JUMPDEST PUSH1 0x0 PUSH2 0xCE0 DUP5 DUP3 DUP6 ADD PUSH2 0xCA7 JUMP JUMPDEST SWAP2 POP POP SWAP3 SWAP2 POP POP JUMP JUMPDEST PUSH1 0x0 DUP2 MLOAD SWAP1 POP SWAP2 SWAP1 POP JUMP JUMPDEST PUSH1 0x0 DUP3 DUP3 MSTORE PUSH1 0x20 DUP3 ADD SWAP1 POP SWAP3 SWAP2 POP POP JUMP JUMPDEST PUSH1 0x0 JUMPDEST DUP4 DUP2 LT ISZERO PUSH2 0xD23 JUMPI DUP1 DUP3 ADD MLOAD DUP2 DUP5 ADD MSTORE PUSH1 0x20 DUP2 ADD SWAP1 POP PUSH2 0xD08 JUMP JUMPDEST DUP4 DUP2 GT ISZERO PUSH2 0xD32 JUMPI PUSH1 0x0 DUP5 DUP5 ADD MSTORE JUMPDEST POP POP POP POP JUMP JUMPDEST PUSH1 0x0 PUSH1 0x1F NOT PUSH1 0x1F DUP4 ADD AND SWAP1 POP SWAP2 SWAP1 POP JUMP JUMPDEST PUSH1 0x0 PUSH2 0xD54 DUP3 PUSH2 0xCE9 JUMP JUMPDEST PUSH2 0xD5E DUP2 DUP6 PUSH2 0xCF4 JUMP JUMPDEST SWAP4 POP PUSH2 0xD6E DUP2 DUP6 PUSH1 0x20 DUP7 ADD PUSH2 0xD05 JUMP JUMPDEST PUSH2 0xD77 DUP2 PUSH2 0xD38 JUMP JUMPDEST DUP5 ADD SWAP2 POP POP SWAP3 SWAP2 POP POP JUMP JUMPDEST PUSH1 0x0 PUSH1 0x20 DUP3 ADD SWAP1 POP DUP2 DUP2 SUB PUSH1 0x0 DUP4 ADD MSTORE PUSH2 0xD9C DUP2 DUP5 PUSH2 0xD49 JUMP JUMPDEST SWAP1 POP SWAP3 SWAP2 POP POP JUMP JUMPDEST PUSH2 0xDAD DUP2 PUSH2 0xC7E JUMP JUMPDEST DUP3 MSTORE POP POP JUMP JUMPDEST PUSH1 0x0 PUSH1 0x20 DUP3 ADD SWAP1 POP PUSH2 0xDC8 PUSH1 0x0 DUP4 ADD DUP5 PUSH2 0xDA4 JUMP JUMPDEST SWAP3 SWAP2 POP POP JUMP JUMPDEST PUSH1 0x0 DUP2 SWAP1 POP SWAP2 SWAP1 POP JUMP JUMPDEST PUSH2 0xDE1 DUP2 PUSH2 0xDCE JUMP JUMPDEST DUP3 MSTORE POP POP JUMP JUMPDEST PUSH1 0x0 PUSH1 0x20 DUP3 ADD SWAP1 POP PUSH2 0xDFC PUSH1 0x0 DUP4 ADD DUP5 PUSH2 0xDD8 JUMP JUMPDEST SWAP3 SWAP2 POP POP JUMP JUMPDEST PUSH2 0xE0B DUP2 PUSH2 0xDCE JUMP JUMPDEST DUP2 EQ PUSH2 0xE16 JUMPI PUSH1 0x0 DUP1 REVERT JUMPDEST POP JUMP JUMPDEST PUSH1 0x0 DUP2 CALLDATALOAD SWAP1 POP PUSH2 0xE28 DUP2 PUSH2 0xE02 JUMP JUMPDEST SWAP3 SWAP2 POP POP JUMP JUMPDEST PUSH1 0x0 DUP1 REVERT JUMPDEST PUSH1 0x0 DUP1 REVERT JUMPDEST PUSH32 0x4E487B7100000000000000000000000000000000000000000000000000000000 PUSH1 0x0 MSTORE PUSH1 0x41 PUSH1 0x4 MSTORE PUSH1 0x24 PUSH1 0x0 REVERT JUMPDEST PUSH2 0xE70 DUP3 PUSH2 0xD38 JUMP JUMPDEST DUP2 ADD DUP2 DUP2 LT PUSH8 0xFFFFFFFFFFFFFFFF DUP3 GT OR ISZERO PUSH2 0xE8F JUMPI PUSH2 0xE8E PUSH2 0xE38 JUMP JUMPDEST JUMPDEST DUP1 PUSH1 0x40 MSTORE POP POP POP JUMP JUMPDEST PUSH1 0x0 PUSH2 0xEA2 PUSH2 0xC4A JUMP JUMPDEST SWAP1 POP PUSH2 0xEAE DUP3 DUP3 PUSH2 0xE67 JUMP JUMPDEST SWAP2 SWAP1 POP JUMP JUMPDEST PUSH1 0x0 PUSH8 0xFFFFFFFFFFFFFFFF DUP3 GT ISZERO PUSH2 0xECE JUMPI PUSH2 0xECD PUSH2 0xE38 JUMP JUMPDEST JUMPDEST PUSH2 0xED7 DUP3 PUSH2 0xD38 JUMP JUMPDEST SWAP1 POP PUSH1 0x20 DUP2 ADD SWAP1 POP SWAP2 SWAP1 POP JUMP JUMPDEST DUP3 DUP2 DUP4 CALLDATACOPY PUSH1 0x0 DUP4 DUP4 ADD MSTORE POP POP POP JUMP JUMPDEST PUSH1 0x0 PUSH2 0xF06 PUSH2 0xF01 DUP5 PUSH2 0xEB3 JUMP JUMPDEST PUSH2 0xE98 JUMP JUMPDEST SWAP1 POP DUP3 DUP2 MSTORE PUSH1 0x20 DUP2 ADD DUP5 DUP5 DUP5 ADD GT ISZERO PUSH2 0xF22 JUMPI PUSH2 0xF21 PUSH2 0xE33 JUMP JUMPDEST JUMPDEST PUSH2 0xF2D DUP5 DUP3 DUP6 PUSH2 0xEE4 JUMP JUMPDEST POP SWAP4 SWAP3 POP POP POP JUMP JUMPDEST PUSH1 0x0 DUP3 PUSH1 0x1F DUP4 ADD SLT PUSH2 0xF4A JUMPI PUSH2 0xF49 PUSH2 0xE2E JUMP JUMPDEST JUMPDEST DUP2 CALLDATALOAD PUSH2 0xF5A DUP5 DUP3 PUSH1 0x20 DUP7 ADD PUSH2 0xEF3 JUMP JUMPDEST SWAP2 POP POP SWAP3 SWAP2 POP POP JUMP JUMPDEST PUSH1 0x0 DUP1 PUSH1 0x40 DUP4 DUP6 SUB SLT ISZERO PUSH2 0xF7A JUMPI PUSH2 0xF79 PUSH2 0xC54 JUMP JUMPDEST JUMPDEST PUSH1 0x0 PUSH2 0xF88 DUP6 DUP3 DUP7 ADD PUSH2 0xE19 JUMP JUMPDEST SWAP3 POP POP PUSH1 0x20 DUP4 ADD CALLDATALOAD PUSH8 0xFFFFFFFFFFFFFFFF DUP2 GT ISZERO PUSH2 0xFA9 JUMPI PUSH2 0xFA8 PUSH2 0xC59 JUMP JUMPDEST JUMPDEST PUSH2 0xFB5 DUP6 DUP3 DUP7 ADD PUSH2 0xF35 JUMP JUMPDEST SWAP2 POP POP SWAP3 POP SWAP3 SWAP1 POP JUMP JUMPDEST PUSH1 0x0 PUSH1 0x20 DUP3 DUP5 SUB SLT ISZERO PUSH2 0xFD5 JUMPI PUSH2 0xFD4 PUSH2 0xC54 JUMP JUMPDEST JUMPDEST PUSH1 0x0 PUSH2 0xFE3 DUP5 DUP3 DUP6 ADD PUSH2 0xE19 JUMP JUMPDEST SWAP2 POP POP SWAP3 SWAP2 POP POP JUMP JUMPDEST PUSH1 0x0 PUSH1 0x60 DUP3 ADD SWAP1 POP PUSH2 0x1001 PUSH1 0x0 DUP4 ADD DUP7 PUSH2 0xDD8 JUMP JUMPDEST PUSH2 0x100E PUSH1 0x20 DUP4 ADD DUP6 PUSH2 0xDA4 JUMP JUMPDEST DUP2 DUP2 SUB PUSH1 0x40 DUP4 ADD MSTORE PUSH2 0x1020 DUP2 DUP5 PUSH2 0xD49 JUMP JUMPDEST SWAP1 POP SWAP5 SWAP4 POP POP POP POP JUMP JUMPDEST PUSH1 0x0 DUP1 PUSH1 0x0 PUSH1 0x60 DUP5 DUP7 SUB SLT ISZERO PUSH2 0x1043 JUMPI PUSH2 0x1042 PUSH2 0xC54 JUMP JUMPDEST JUMPDEST PUSH1 0x0 DUP5 ADD CALLDATALOAD PUSH8 0xFFFFFFFFFFFFFFFF DUP2 GT ISZERO PUSH2 0x1061 JUMPI PUSH2 0x1060 PUSH2 0xC59 JUMP JUMPDEST JUMPDEST PUSH2 0x106D DUP7 DUP3 DUP8 ADD PUSH2 0xF35 JUMP JUMPDEST SWAP4 POP POP PUSH1 0x20 PUSH2 0x107E DUP7 DUP3 DUP8 ADD PUSH2 0xE19 JUMP JUMPDEST SWAP3 POP POP PUSH1 0x40 PUSH2 0x108F DUP7 DUP3 DUP8 ADD PUSH2 0xE19 JUMP JUMPDEST SWAP2 POP POP SWAP3 POP SWAP3 POP SWAP3 JUMP JUMPDEST PUSH1 0x0 PUSH1 0x20 DUP3 DUP5 SUB SLT ISZERO PUSH2 0x10AF JUMPI PUSH2 0x10AE PUSH2 0xC54 JUMP JUMPDEST JUMPDEST PUSH1 0x0 DUP3 ADD CALLDATALOAD PUSH8 0xFFFFFFFFFFFFFFFF DUP2 GT ISZERO PUSH2 0x10CD JUMPI PUSH2 0x10CC PUSH2 0xC59 JUMP JUMPDEST JUMPDEST PUSH2 0x10D9 DUP5 DUP3 DUP6 ADD PUSH2 0xF35 JUMP JUMPDEST SWAP2 POP POP SWAP3 SWAP2 POP POP JUMP JUMPDEST PUSH32 0x4E487B7100000000000000000000000000000000000000000000000000000000 PUSH1 0x0 MSTORE PUSH1 0x22 PUSH1 0x4 MSTORE PUSH1 0x24 PUSH1 0x0 REVERT JUMPDEST PUSH1 0x0 PUSH1 0x2 DUP3 DIV SWAP1 POP PUSH1 0x1 DUP3 AND DUP1 PUSH2 0x1129 JUMPI PUSH1 0x7F DUP3 AND SWAP2 POP JUMPDEST PUSH1 0x20 DUP3 LT DUP2 SUB PUSH2 0x113C JUMPI PUSH2 0x113B PUSH2 0x10E2 JUMP JUMPDEST JUMPDEST POP SWAP2 SWAP1 POP JUMP JUMPDEST PUSH32 0x4E487B7100000000000000000000000000000000000000000000000000000000 PUSH1 0x0 MSTORE PUSH1 0x32 PUSH1 0x4 MSTORE PUSH1 0x24 PUSH1 0x0 REVERT JUMPDEST PUSH32 0x4F6E6C792061756374696F6E6565722063616E2063616C6C2074686973206675 PUSH1 0x0 DUP3 ADD MSTORE PUSH32 0x6E6374696F6E2E00000000000000000000000000000000000000000000000000 PUSH1 0x20 DUP3 ADD MSTORE POP JUMP JUMPDEST PUSH1 0x0 PUSH2 0x11CD PUSH1 0x27 DUP4 PUSH2 0xCF4 JUMP JUMPDEST SWAP2 POP PUSH2 0x11D8 DUP3 PUSH2 0x1171 JUMP JUMPDEST PUSH1 0x40 DUP3 ADD SWAP1 POP SWAP2 SWAP1 POP JUMP JUMPDEST PUSH1 0x0 PUSH1 0x20 DUP3 ADD SWAP1 POP DUP2 DUP2 SUB PUSH1 0x0 DUP4 ADD MSTORE PUSH2 0x11FC DUP2 PUSH2 0x11C0 JUMP JUMPDEST SWAP1 POP SWAP2 SWAP1 POP JUMP INVALID LOG2 PUSH5 0x6970667358 0x22 SLT KECCAK256 RETURNDATACOPY 0xE2 0xDB 0xBB 0xDC PUSH2 0x9EDC SWAP1 SWAP2 CALLDATASIZE PUSH15 0xF1E6B4418128BCF906F58A1E19879D 0xAA EXP 0xF9 0xBC SWAP4 PUSH5 0x736F6C6343 STOP ADDMOD 0xE STOP CALLER "
				},
				"gasEstimates": {
					"creation": {
						"codeDepositCost": "933000",
						"executionCost": "968",
						"totalCost": "933968"
					},
					"external": {
						"assetDescription()": "infinite",
						"bidders(uint256)": "5045",
						"dispute(uint256,string)": "infinite",
						"disputedBidders(uint256)": "infinite",
						"encodedBids(address)": "infinite",
						"getBidderAddress(uint256)": "5034",
						"getEncodedBid(address)": "infinite",
						"getSampleString()": "infinite",
						"getWinnerAddress()": "2568",
						"getWinnerBid()": "2504",
						"getWinnerKey()": "infinite",
						"minBidPrice()": "2541",
						"minNumberOfBidders()": "2451",
						"registerAuctionInfo(string,uint256,uint256)": "infinite",
						"registerBidder()": "48810",
						"submitEncryptedBid(string)": "infinite",
						"submitWinner(uint256,string)": "infinite",
						"winnerAddress()": "2580",
						"winnerBid()": "2497",
						"winnerKey()": "infinite"
					}
				},
				"methodIdentifiers": {
					"assetDescription()": "938626c2",
					"bidders(uint256)": "cff29dfd",
					"dispute(uint256,string)": "66c85dee",
					"disputedBidders(uint256)": "8f772f96",
					"encodedBids(address)": "3817df4c",
					"getBidderAddress(uint256)": "5fa38280",
					"getEncodedBid(address)": "05fb23cf",
					"getSampleString()": "83050daa",
					"getWinnerAddress()": "10a37c26",
					"getWinnerBid()": "ceb98f6e",
					"getWinnerKey()": "3c68889a",
					"minBidPrice()": "34eb86a2",
					"minNumberOfBidders()": "daa0218f",
					"registerAuctionInfo(string,uint256,uint256)": "e7d2a997",
					"registerBidder()": "f356733c",
					"submitEncryptedBid(string)": "ff567d8d",
					"submitWinner(uint256,string)": "1744e03b",
					"winnerAddress()": "ed7a4e0b",
					"winnerBid()": "11631d06",
					"winnerKey()": "d476620b"
				}
			},
			"storageLayout": {
				"storage": [
					{
						"astId": 3,
						"contract": "Contracts/AKEB.sol:AKEB",
						"label": "auctioneer",
						"offset": 0,
						"slot": "0",
						"type": "t_address"
					},
					{
						"astId": 6,
						"contract": "Contracts/AKEB.sol:AKEB",
						"label": "bidders",
						"offset": 0,
						"slot": "1",
						"type": "t_array(t_address)dyn_storage"
					},
					{
						"astId": 8,
						"contract": "Contracts/AKEB.sol:AKEB",
						"label": "assetDescription",
						"offset": 0,
						"slot": "2",
						"type": "t_string_storage"
					},
					{
						"astId": 10,
						"contract": "Contracts/AKEB.sol:AKEB",
						"label": "minBidPrice",
						"offset": 0,
						"slot": "3",
						"type": "t_uint256"
					},
					{
						"astId": 12,
						"contract": "Contracts/AKEB.sol:AKEB",
						"label": "minNumberOfBidders",
						"offset": 0,
						"slot": "4",
						"type": "t_uint256"
					},
					{
						"astId": 16,
						"contract": "Contracts/AKEB.sol:AKEB",
						"label": "encodedBids",
						"offset": 0,
						"slot": "5",
						"type": "t_mapping(t_address,t_string_storage)"
					},
					{
						"astId": 18,
						"contract": "Contracts/AKEB.sol:AKEB",
						"label": "winnerAddress",
						"offset": 0,
						"slot": "6",
						"type": "t_address"
					},
					{
						"astId": 20,
						"contract": "Contracts/AKEB.sol:AKEB",
						"label": "winnerBid",
						"offset": 0,
						"slot": "7",
						"type": "t_uint256"
					},
					{
						"astId": 22,
						"contract": "Contracts/AKEB.sol:AKEB",
						"label": "winnerKey",
						"offset": 0,
						"slot": "8",
						"type": "t_string_storage"
					},
					{
						"astId": 33,
						"contract": "Contracts/AKEB.sol:AKEB",
						"label": "disputedBidders",
						"offset": 0,
						"slot": "9",
						"type": "t_array(t_struct(DisputedBidders)29_storage)dyn_storage"
					}
				],
				"types": {
					"t_address": {
						"encoding": "inplace",
						"label": "address",
						"numberOfBytes": "20"
					},
					"t_array(t_address)dyn_storage": {
						"base": "t_address",
						"encoding": "dynamic_array",
						"label": "address[]",
						"numberOfBytes": "32"
					},
					"t_array(t_struct(DisputedBidders)29_storage)dyn_storage": {
						"base": "t_struct(DisputedBidders)29_storage",
						"encoding": "dynamic_array",
						"label": "struct AKEB.DisputedBidders[]",
						"numberOfBytes": "32"
					},
					"t_mapping(t_address,t_string_storage)": {
						"encoding": "mapping",
						"key": "t_address",
						"label": "mapping(address => string)",
						"numberOfBytes": "32",
						"value": "t_string_storage"
					},
					"t_string_storage": {
						"encoding": "bytes",
						"label": "string",
						"numberOfBytes": "32"
					},
					"t_struct(DisputedBidders)29_storage": {
						"encoding": "inplace",
						"label": "struct AKEB.DisputedBidders",
						"members": [
							{
								"astId": 24,
								"contract": "Contracts/AKEB.sol:AKEB",
								"label": "bid",
								"offset": 0,
								"slot": "0",
								"type": "t_uint256"
							},
							{
								"astId": 26,
								"contract": "Contracts/AKEB.sol:AKEB",
								"label": "disputeAddress",
								"offset": 0,
								"slot": "1",
								"type": "t_address"
							},
							{
								"astId": 28,
								"contract": "Contracts/AKEB.sol:AKEB",
								"label": "key",
								"offset": 0,
								"slot": "2",
								"type": "t_string_storage"
							}
						],
						"numberOfBytes": "96"
					},
					"t_uint256": {
						"encoding": "inplace",
						"label": "uint256",
						"numberOfBytes": "32"
					}
				}
			},
			"userdoc": {
				"kind": "user",
				"methods": {},
				"version": 1
			}
		}
	}
}