{
	"Contracts/AKEB.sol": {
		"AKEB": {
			"abi": [
				{
					"inputs": [],
					"name": "assetDescription",
					"outputs": [
						{
							"internalType": "string",
							"name": "",
							"type": "string"
						}
					],
					"stateMutability": "view",
					"type": "function"
				},
				{
					"inputs": [
						{
							"internalType": "uint256",
							"name": "",
							"type": "uint256"
						}
					],
					"name": "bidders",
					"outputs": [
						{
							"internalType": "address",
							"name": "",
							"type": "address"
						}
					],
					"stateMutability": "view",
					"type": "function"
				},
				{
					"inputs": [
						{
							"internalType": "uint256",
							"name": "inputDisputedBid",
							"type": "uint256"
						},
						{
							"internalType": "string",
							"name": "inputDisputedNonce",
							"type": "string"
						}
					],
					"name": "dispute",
					"outputs": [],
					"stateMutability": "nonpayable",
					"type": "function"
				},
				{
					"inputs": [
						{
							"internalType": "uint256",
							"name": "",
							"type": "uint256"
						}
					],
					"name": "disputedBidders",
					"outputs": [
						{
							"internalType": "uint256",
							"name": "bid",
							"type": "uint256"
						},
						{
							"internalType": "address",
							"name": "disputeAddress",
							"type": "address"
						},
						{
							"internalType": "string",
							"name": "nonce",
							"type": "string"
						}
					],
					"stateMutability": "view",
					"type": "function"
				},
				{
					"inputs": [
						{
							"internalType": "address",
							"name": "",
							"type": "address"
						}
					],
					"name": "encodedBids",
					"outputs": [
						{
							"internalType": "string",
							"name": "",
							"type": "string"
						}
					],
					"stateMutability": "view",
					"type": "function"
				},
				{
					"inputs": [],
					"name": "getAllBidders",
					"outputs": [
						{
							"internalType": "address[]",
							"name": "",
							"type": "address[]"
						}
					],
					"stateMutability": "view",
					"type": "function"
				},
				{
					"inputs": [
						{
							"internalType": "uint256",
							"name": "index",
							"type": "uint256"
						}
					],
					"name": "getBidderAddress",
					"outputs": [
						{
							"internalType": "address",
							"name": "",
							"type": "address"
						}
					],
					"stateMutability": "view",
					"type": "function"
				},
				{
					"inputs": [
						{
							"internalType": "address",
							"name": "inputAddress",
							"type": "address"
						}
					],
					"name": "getEncodedBid",
					"outputs": [
						{
							"internalType": "string",
							"name": "",
							"type": "string"
						}
					],
					"stateMutability": "view",
					"type": "function"
				},
				{
					"inputs": [],
					"name": "getSampleString",
					"outputs": [
						{
							"internalType": "string",
							"name": "",
							"type": "string"
						}
					],
					"stateMutability": "pure",
					"type": "function"
				},
				{
					"inputs": [],
					"name": "getWinner",
					"outputs": [
						{
							"internalType": "address",
							"name": "",
							"type": "address"
						},
						{
							"internalType": "uint256",
							"name": "",
							"type": "uint256"
						},
						{
							"internalType": "string",
							"name": "",
							"type": "string"
						}
					],
					"stateMutability": "view",
					"type": "function"
				},
				{
					"inputs": [],
					"name": "getWinnerAddress",
					"outputs": [
						{
							"internalType": "address",
							"name": "",
							"type": "address"
						}
					],
					"stateMutability": "view",
					"type": "function"
				},
				{
					"inputs": [],
					"name": "getWinnerBid",
					"outputs": [
						{
							"internalType": "uint256",
							"name": "",
							"type": "uint256"
						}
					],
					"stateMutability": "view",
					"type": "function"
				},
				{
					"inputs": [],
					"name": "getwinnerNonce",
					"outputs": [
						{
							"internalType": "string",
							"name": "",
							"type": "string"
						}
					],
					"stateMutability": "view",
					"type": "function"
				},
				{
					"inputs": [],
					"name": "minBidPrice",
					"outputs": [
						{
							"internalType": "uint256",
							"name": "",
							"type": "uint256"
						}
					],
					"stateMutability": "view",
					"type": "function"
				},
				{
					"inputs": [],
					"name": "minNumberOfBidders",
					"outputs": [
						{
							"internalType": "uint256",
							"name": "",
							"type": "uint256"
						}
					],
					"stateMutability": "view",
					"type": "function"
				},
				{
					"inputs": [
						{
							"internalType": "string",
							"name": "assetDescriptionInput",
							"type": "string"
						},
						{
							"internalType": "uint256",
							"name": "minBidPriceInput",
							"type": "uint256"
						},
						{
							"internalType": "uint256",
							"name": "minNumberOfBiddersInput",
							"type": "uint256"
						}
					],
					"name": "registerAuctionInfo",
					"outputs": [],
					"stateMutability": "nonpayable",
					"type": "function"
				},
				{
					"inputs": [],
					"name": "registerBidder",
					"outputs": [],
					"stateMutability": "nonpayable",
					"type": "function"
				},
				{
					"inputs": [],
					"name": "reset",
					"outputs": [],
					"stateMutability": "nonpayable",
					"type": "function"
				},
				{
					"inputs": [],
					"name": "resetEncodedBids",
					"outputs": [],
					"stateMutability": "nonpayable",
					"type": "function"
				},
				{
					"inputs": [
						{
							"internalType": "string",
							"name": "inputEncodedBid",
							"type": "string"
						}
					],
					"name": "submitEncodedBid",
					"outputs": [],
					"stateMutability": "nonpayable",
					"type": "function"
				},
				{
					"inputs": [
						{
							"internalType": "uint256",
							"name": "inputWinnerBid",
							"type": "uint256"
						},
						{
							"internalType": "string",
							"name": "inputwinnerNonce",
							"type": "string"
						}
					],
					"name": "submitWinner",
					"outputs": [],
					"stateMutability": "nonpayable",
					"type": "function"
				},
				{
					"inputs": [],
					"name": "winnerAddress",
					"outputs": [
						{
							"internalType": "address",
							"name": "",
							"type": "address"
						}
					],
					"stateMutability": "view",
					"type": "function"
				},
				{
					"inputs": [],
					"name": "winnerBid",
					"outputs": [
						{
							"internalType": "uint256",
							"name": "",
							"type": "uint256"
						}
					],
					"stateMutability": "view",
					"type": "function"
				},
				{
					"inputs": [],
					"name": "winnerNonce",
					"outputs": [
						{
							"internalType": "string",
							"name": "",
							"type": "string"
						}
					],
					"stateMutability": "view",
					"type": "function"
				}
			],
			"devdoc": {
				"kind": "dev",
				"methods": {},
				"version": 1
			},
			"evm": {
				"assembly": "    /* \"Contracts/AKEB.sol\":58:3315  contract AKEB {... */\n  mstore(0x40, 0x80)\n  callvalue\n  dup1\n  iszero\n  tag_1\n  jumpi\n  0x00\n  dup1\n  revert\ntag_1:\n  pop\n  dataSize(sub_0)\n  dup1\n  dataOffset(sub_0)\n  0x00\n  codecopy\n  0x00\n  return\nstop\n\nsub_0: assembly {\n        /* \"Contracts/AKEB.sol\":58:3315  contract AKEB {... */\n      mstore(0x40, 0x80)\n      callvalue\n      dup1\n      iszero\n      tag_1\n      jumpi\n      0x00\n      dup1\n      revert\n    tag_1:\n      pop\n      jumpi(tag_2, lt(calldatasize, 0x04))\n      shr(0xe0, calldataload(0x00))\n      dup1\n      0x8f772f96\n      gt\n      tag_27\n      jumpi\n      dup1\n      0xd826f88f\n      gt\n      tag_28\n      jumpi\n      dup1\n      0xd826f88f\n      eq\n      tag_21\n      jumpi\n      dup1\n      0xdaa0218f\n      eq\n      tag_22\n      jumpi\n      dup1\n      0xdca49f4a\n      eq\n      tag_23\n      jumpi\n      dup1\n      0xe7d2a997\n      eq\n      tag_24\n      jumpi\n      dup1\n      0xed7a4e0b\n      eq\n      tag_25\n      jumpi\n      dup1\n      0xf356733c\n      eq\n      tag_26\n      jumpi\n      jump(tag_2)\n    tag_28:\n      dup1\n      0x8f772f96\n      eq\n      tag_15\n      jumpi\n      dup1\n      0x938626c2\n      eq\n      tag_16\n      jumpi\n      dup1\n      0xc8bca732\n      eq\n      tag_17\n      jumpi\n      dup1\n      0xca142b56\n      eq\n      tag_18\n      jumpi\n      dup1\n      0xceb98f6e\n      eq\n      tag_19\n      jumpi\n      dup1\n      0xcff29dfd\n      eq\n      tag_20\n      jumpi\n      jump(tag_2)\n    tag_27:\n      dup1\n      0x3a79d2e5\n      gt\n      tag_29\n      jumpi\n      dup1\n      0x3a79d2e5\n      eq\n      tag_9\n      jumpi\n      dup1\n      0x40bd5937\n      eq\n      tag_10\n      jumpi\n      dup1\n      0x5fa38280\n      eq\n      tag_11\n      jumpi\n      dup1\n      0x66c85dee\n      eq\n      tag_12\n      jumpi\n      dup1\n      0x83050daa\n      eq\n      tag_13\n      jumpi\n      dup1\n      0x8e7ea5b2\n      eq\n      tag_14\n      jumpi\n      jump(tag_2)\n    tag_29:\n      dup1\n      0x05fb23cf\n      eq\n      tag_3\n      jumpi\n      dup1\n      0x10a37c26\n      eq\n      tag_4\n      jumpi\n      dup1\n      0x11631d06\n      eq\n      tag_5\n      jumpi\n      dup1\n      0x1744e03b\n      eq\n      tag_6\n      jumpi\n      dup1\n      0x34eb86a2\n      eq\n      tag_7\n      jumpi\n      dup1\n      0x3817df4c\n      eq\n      tag_8\n      jumpi\n    tag_2:\n      0x00\n      dup1\n      revert\n        /* \"Contracts/AKEB.sol\":1684:1812  function getEncodedBid(address inputAddress) public view returns(string memory){... */\n    tag_3:\n      tag_30\n      0x04\n      dup1\n      calldatasize\n      sub\n      dup2\n      add\n      swap1\n      tag_31\n      swap2\n      swap1\n      tag_32\n      jump\t// in\n    tag_31:\n      tag_33\n      jump\t// in\n    tag_30:\n      mload(0x40)\n      tag_34\n      swap2\n      swap1\n      tag_35\n      jump\t// in\n    tag_34:\n      mload(0x40)\n      dup1\n      swap2\n      sub\n      swap1\n      return\n        /* \"Contracts/AKEB.sol\":2175:2269  function getWinnerAddress() public view returns(address) {... */\n    tag_4:\n      tag_36\n      tag_37\n      jump\t// in\n    tag_36:\n      mload(0x40)\n      tag_38\n      swap2\n      swap1\n      tag_39\n      jump\t// in\n    tag_38:\n      mload(0x40)\n      dup1\n      swap2\n      sub\n      swap1\n      return\n        /* \"Contracts/AKEB.sol\":326:350  uint256 public winnerBid */\n    tag_5:\n      tag_40\n      tag_41\n      jump\t// in\n    tag_40:\n      mload(0x40)\n      tag_42\n      swap2\n      swap1\n      tag_43\n      jump\t// in\n    tag_42:\n      mload(0x40)\n      dup1\n      swap2\n      sub\n      swap1\n      return\n        /* \"Contracts/AKEB.sol\":1818:2026  function submitWinner(uint256 inputWinnerBid, ... */\n    tag_6:\n      tag_44\n      0x04\n      dup1\n      calldatasize\n      sub\n      dup2\n      add\n      swap1\n      tag_45\n      swap2\n      swap1\n      tag_46\n      jump\t// in\n    tag_45:\n      tag_47\n      jump\t// in\n    tag_44:\n      stop\n        /* \"Contracts/AKEB.sol\":168:194  uint256 public minBidPrice */\n    tag_7:\n      tag_48\n      tag_49\n      jump\t// in\n    tag_48:\n      mload(0x40)\n      tag_50\n      swap2\n      swap1\n      tag_43\n      jump\t// in\n    tag_50:\n      mload(0x40)\n      dup1\n      swap2\n      sub\n      swap1\n      return\n        /* \"Contracts/AKEB.sol\":240:285  mapping(address => string) public encodedBids */\n    tag_8:\n      tag_51\n      0x04\n      dup1\n      calldatasize\n      sub\n      dup2\n      add\n      swap1\n      tag_52\n      swap2\n      swap1\n      tag_32\n      jump\t// in\n    tag_52:\n      tag_53\n      jump\t// in\n    tag_51:\n      mload(0x40)\n      tag_54\n      swap2\n      swap1\n      tag_35\n      jump\t// in\n    tag_54:\n      mload(0x40)\n      dup1\n      swap2\n      sub\n      swap1\n      return\n        /* \"Contracts/AKEB.sol\":1452:1546  function getAllBidders() public view returns(address[] memory) {... */\n    tag_9:\n      tag_55\n      tag_56\n      jump\t// in\n    tag_55:\n      mload(0x40)\n      tag_57\n      swap2\n      swap1\n      tag_58\n      jump\t// in\n    tag_57:\n      mload(0x40)\n      dup1\n      swap2\n      sub\n      swap1\n      return\n        /* \"Contracts/AKEB.sol\":3109:3313  function resetEncodedBids() public {... */\n    tag_10:\n      tag_59\n      tag_60\n      jump\t// in\n    tag_59:\n      stop\n        /* \"Contracts/AKEB.sol\":1341:1446  function getBidderAddress(uint index) public view returns(address) {... */\n    tag_11:\n      tag_61\n      0x04\n      dup1\n      calldatasize\n      sub\n      dup2\n      add\n      swap1\n      tag_62\n      swap2\n      swap1\n      tag_63\n      jump\t// in\n    tag_62:\n      tag_64\n      jump\t// in\n    tag_61:\n      mload(0x40)\n      tag_65\n      swap2\n      swap1\n      tag_39\n      jump\t// in\n    tag_65:\n      mload(0x40)\n      dup1\n      swap2\n      sub\n      swap1\n      return\n        /* \"Contracts/AKEB.sol\":2468:2772  function dispute(uint256 inputDisputedBid, ... */\n    tag_12:\n      tag_66\n      0x04\n      dup1\n      calldatasize\n      sub\n      dup2\n      add\n      swap1\n      tag_67\n      swap2\n      swap1\n      tag_46\n      jump\t// in\n    tag_67:\n      tag_68\n      jump\t// in\n    tag_66:\n      stop\n        /* \"Contracts/AKEB.sol\":819:929  function getSampleString() public pure returns(string memory){... */\n    tag_13:\n      tag_69\n      tag_70\n      jump\t// in\n    tag_69:\n      mload(0x40)\n      tag_71\n      swap2\n      swap1\n      tag_35\n      jump\t// in\n    tag_71:\n      mload(0x40)\n      dup1\n      swap2\n      sub\n      swap1\n      return\n        /* \"Contracts/AKEB.sol\":2032:2169  function getWinner() public view returns(address, uint256, string memory) {... */\n    tag_14:\n      tag_72\n      tag_73\n      jump\t// in\n    tag_72:\n      mload(0x40)\n      tag_74\n      swap4\n      swap3\n      swap2\n      swap1\n      tag_75\n      jump\t// in\n    tag_74:\n      mload(0x40)\n      dup1\n      swap2\n      sub\n      swap1\n      return\n        /* \"Contracts/AKEB.sol\":499:539  DisputedBidders[] public disputedBidders */\n    tag_15:\n      tag_76\n      0x04\n      dup1\n      calldatasize\n      sub\n      dup2\n      add\n      swap1\n      tag_77\n      swap2\n      swap1\n      tag_63\n      jump\t// in\n    tag_77:\n      tag_78\n      jump\t// in\n    tag_76:\n      mload(0x40)\n      tag_79\n      swap4\n      swap3\n      swap2\n      swap1\n      tag_80\n      jump\t// in\n    tag_79:\n      mload(0x40)\n      dup1\n      swap2\n      sub\n      swap1\n      return\n        /* \"Contracts/AKEB.sol\":132:162  string public assetDescription */\n    tag_16:\n      tag_81\n      tag_82\n      jump\t// in\n    tag_81:\n      mload(0x40)\n      tag_83\n      swap2\n      swap1\n      tag_35\n      jump\t// in\n    tag_83:\n      mload(0x40)\n      dup1\n      swap2\n      sub\n      swap1\n      return\n        /* \"Contracts/AKEB.sol\":2367:2462  function getwinnerNonce() public view returns(string memory){... */\n    tag_17:\n      tag_84\n      tag_85\n      jump\t// in\n    tag_84:\n      mload(0x40)\n      tag_86\n      swap2\n      swap1\n      tag_35\n      jump\t// in\n    tag_86:\n      mload(0x40)\n      dup1\n      swap2\n      sub\n      swap1\n      return\n        /* \"Contracts/AKEB.sol\":1552:1678  function submitEncodedBid(string memory inputEncodedBid)... */\n    tag_18:\n      tag_87\n      0x04\n      dup1\n      calldatasize\n      sub\n      dup2\n      add\n      swap1\n      tag_88\n      swap2\n      swap1\n      tag_89\n      jump\t// in\n    tag_88:\n      tag_90\n      jump\t// in\n    tag_87:\n      stop\n        /* \"Contracts/AKEB.sol\":2275:2361  function getWinnerBid() public view returns(uint256) {... */\n    tag_19:\n      tag_91\n      tag_92\n      jump\t// in\n    tag_91:\n      mload(0x40)\n      tag_93\n      swap2\n      swap1\n      tag_43\n      jump\t// in\n    tag_93:\n      mload(0x40)\n      dup1\n      swap2\n      sub\n      swap1\n      return\n        /* \"Contracts/AKEB.sol\":102:126  address[] public bidders */\n    tag_20:\n      tag_94\n      0x04\n      dup1\n      calldatasize\n      sub\n      dup2\n      add\n      swap1\n      tag_95\n      swap2\n      swap1\n      tag_63\n      jump\t// in\n    tag_95:\n      tag_96\n      jump\t// in\n    tag_94:\n      mload(0x40)\n      tag_97\n      swap2\n      swap1\n      tag_39\n      jump\t// in\n    tag_97:\n      mload(0x40)\n      dup1\n      swap2\n      sub\n      swap1\n      return\n        /* \"Contracts/AKEB.sol\":2778:3103  function reset() public {... */\n    tag_21:\n      tag_98\n      tag_99\n      jump\t// in\n    tag_98:\n      stop\n        /* \"Contracts/AKEB.sol\":200:233  uint256 public minNumberOfBidders */\n    tag_22:\n      tag_100\n      tag_101\n      jump\t// in\n    tag_100:\n      mload(0x40)\n      tag_102\n      swap2\n      swap1\n      tag_43\n      jump\t// in\n    tag_102:\n      mload(0x40)\n      dup1\n      swap2\n      sub\n      swap1\n      return\n        /* \"Contracts/AKEB.sol\":356:381  string public winnerNonce */\n    tag_23:\n      tag_103\n      tag_104\n      jump\t// in\n    tag_103:\n      mload(0x40)\n      tag_105\n      swap2\n      swap1\n      tag_35\n      jump\t// in\n    tag_105:\n      mload(0x40)\n      dup1\n      swap2\n      sub\n      swap1\n      return\n        /* \"Contracts/AKEB.sol\":935:1255  function registerAuctionInfo(string memory assetDescriptionInput, ... */\n    tag_24:\n      tag_106\n      0x04\n      dup1\n      calldatasize\n      sub\n      dup2\n      add\n      swap1\n      tag_107\n      swap2\n      swap1\n      tag_108\n      jump\t// in\n    tag_107:\n      tag_109\n      jump\t// in\n    tag_106:\n      stop\n        /* \"Contracts/AKEB.sol\":292:320  address public winnerAddress */\n    tag_25:\n      tag_110\n      tag_111\n      jump\t// in\n    tag_110:\n      mload(0x40)\n      tag_112\n      swap2\n      swap1\n      tag_39\n      jump\t// in\n    tag_112:\n      mload(0x40)\n      dup1\n      swap2\n      sub\n      swap1\n      return\n        /* \"Contracts/AKEB.sol\":1261:1335  function registerBidder() public {... */\n    tag_26:\n      tag_113\n      tag_114\n      jump\t// in\n    tag_113:\n      stop\n        /* \"Contracts/AKEB.sol\":1684:1812  function getEncodedBid(address inputAddress) public view returns(string memory){... */\n    tag_33:\n        /* \"Contracts/AKEB.sol\":1749:1762  string memory */\n      0x60\n        /* \"Contracts/AKEB.sol\":1780:1791  encodedBids */\n      0x05\n        /* \"Contracts/AKEB.sol\":1780:1805  encodedBids[inputAddress] */\n      0x00\n        /* \"Contracts/AKEB.sol\":1792:1804  inputAddress */\n      dup4\n        /* \"Contracts/AKEB.sol\":1780:1805  encodedBids[inputAddress] */\n      0xffffffffffffffffffffffffffffffffffffffff\n      and\n      0xffffffffffffffffffffffffffffffffffffffff\n      and\n      dup2\n      mstore\n      0x20\n      add\n      swap1\n      dup2\n      mstore\n      0x20\n      add\n      0x00\n      keccak256\n        /* \"Contracts/AKEB.sol\":1773:1805  return encodedBids[inputAddress] */\n      dup1\n      sload\n      tag_116\n      swap1\n      tag_117\n      jump\t// in\n    tag_116:\n      dup1\n      0x1f\n      add\n      0x20\n      dup1\n      swap2\n      div\n      mul\n      0x20\n      add\n      mload(0x40)\n      swap1\n      dup2\n      add\n      0x40\n      mstore\n      dup1\n      swap3\n      swap2\n      swap1\n      dup2\n      dup2\n      mstore\n      0x20\n      add\n      dup3\n      dup1\n      sload\n      tag_118\n      swap1\n      tag_117\n      jump\t// in\n    tag_118:\n      dup1\n      iszero\n      tag_119\n      jumpi\n      dup1\n      0x1f\n      lt\n      tag_120\n      jumpi\n      0x0100\n      dup1\n      dup4\n      sload\n      div\n      mul\n      dup4\n      mstore\n      swap2\n      0x20\n      add\n      swap2\n      jump(tag_119)\n    tag_120:\n      dup3\n      add\n      swap2\n      swap1\n      0x00\n      mstore\n      keccak256(0x00, 0x20)\n      swap1\n    tag_121:\n      dup2\n      sload\n      dup2\n      mstore\n      swap1\n      0x01\n      add\n      swap1\n      0x20\n      add\n      dup1\n      dup4\n      gt\n      tag_121\n      jumpi\n      dup3\n      swap1\n      sub\n      0x1f\n      and\n      dup3\n      add\n      swap2\n    tag_119:\n      pop\n      pop\n      pop\n      pop\n      pop\n      swap1\n      pop\n        /* \"Contracts/AKEB.sol\":1684:1812  function getEncodedBid(address inputAddress) public view returns(string memory){... */\n      swap2\n      swap1\n      pop\n      jump\t// out\n        /* \"Contracts/AKEB.sol\":2175:2269  function getWinnerAddress() public view returns(address) {... */\n    tag_37:\n        /* \"Contracts/AKEB.sol\":2223:2230  address */\n      0x00\n        /* \"Contracts/AKEB.sol\":2249:2262  winnerAddress */\n      0x06\n      0x00\n      swap1\n      sload\n      swap1\n      0x0100\n      exp\n      swap1\n      div\n      0xffffffffffffffffffffffffffffffffffffffff\n      and\n        /* \"Contracts/AKEB.sol\":2242:2262  return winnerAddress */\n      swap1\n      pop\n        /* \"Contracts/AKEB.sol\":2175:2269  function getWinnerAddress() public view returns(address) {... */\n      swap1\n      jump\t// out\n        /* \"Contracts/AKEB.sol\":326:350  uint256 public winnerBid */\n    tag_41:\n      sload(0x07)\n      dup2\n      jump\t// out\n        /* \"Contracts/AKEB.sol\":1818:2026  function submitWinner(uint256 inputWinnerBid, ... */\n    tag_47:\n        /* \"Contracts/AKEB.sol\":1933:1943  msg.sender */\n      caller\n        /* \"Contracts/AKEB.sol\":1917:1930  winnerAddress */\n      0x06\n      0x00\n        /* \"Contracts/AKEB.sol\":1917:1943  winnerAddress = msg.sender */\n      0x0100\n      exp\n      dup2\n      sload\n      dup2\n      0xffffffffffffffffffffffffffffffffffffffff\n      mul\n      not\n      and\n      swap1\n      dup4\n      0xffffffffffffffffffffffffffffffffffffffff\n      and\n      mul\n      or\n      swap1\n      sstore\n      pop\n        /* \"Contracts/AKEB.sol\":1965:1979  inputWinnerBid */\n      dup2\n        /* \"Contracts/AKEB.sol\":1953:1962  winnerBid */\n      0x07\n        /* \"Contracts/AKEB.sol\":1953:1979  winnerBid = inputWinnerBid */\n      dup2\n      swap1\n      sstore\n      pop\n        /* \"Contracts/AKEB.sol\":2003:2019  inputwinnerNonce */\n      dup1\n        /* \"Contracts/AKEB.sol\":1989:2000  winnerNonce */\n      0x08\n        /* \"Contracts/AKEB.sol\":1989:2019  winnerNonce = inputwinnerNonce */\n      swap1\n      dup1\n      mload\n      swap1\n      0x20\n      add\n      swap1\n      tag_124\n      swap3\n      swap2\n      swap1\n      tag_125\n      jump\t// in\n    tag_124:\n      pop\n        /* \"Contracts/AKEB.sol\":1818:2026  function submitWinner(uint256 inputWinnerBid, ... */\n      pop\n      pop\n      jump\t// out\n        /* \"Contracts/AKEB.sol\":168:194  uint256 public minBidPrice */\n    tag_49:\n      sload(0x03)\n      dup2\n      jump\t// out\n        /* \"Contracts/AKEB.sol\":240:285  mapping(address => string) public encodedBids */\n    tag_53:\n      mstore(0x20, 0x05)\n      dup1\n      0x00\n      mstore\n      keccak256(0x00, 0x40)\n      0x00\n      swap2\n      pop\n      swap1\n      pop\n      dup1\n      sload\n      tag_126\n      swap1\n      tag_117\n      jump\t// in\n    tag_126:\n      dup1\n      0x1f\n      add\n      0x20\n      dup1\n      swap2\n      div\n      mul\n      0x20\n      add\n      mload(0x40)\n      swap1\n      dup2\n      add\n      0x40\n      mstore\n      dup1\n      swap3\n      swap2\n      swap1\n      dup2\n      dup2\n      mstore\n      0x20\n      add\n      dup3\n      dup1\n      sload\n      tag_127\n      swap1\n      tag_117\n      jump\t// in\n    tag_127:\n      dup1\n      iszero\n      tag_128\n      jumpi\n      dup1\n      0x1f\n      lt\n      tag_129\n      jumpi\n      0x0100\n      dup1\n      dup4\n      sload\n      div\n      mul\n      dup4\n      mstore\n      swap2\n      0x20\n      add\n      swap2\n      jump(tag_128)\n    tag_129:\n      dup3\n      add\n      swap2\n      swap1\n      0x00\n      mstore\n      keccak256(0x00, 0x20)\n      swap1\n    tag_130:\n      dup2\n      sload\n      dup2\n      mstore\n      swap1\n      0x01\n      add\n      swap1\n      0x20\n      add\n      dup1\n      dup4\n      gt\n      tag_130\n      jumpi\n      dup3\n      swap1\n      sub\n      0x1f\n      and\n      dup3\n      add\n      swap2\n    tag_128:\n      pop\n      pop\n      pop\n      pop\n      pop\n      dup2\n      jump\t// out\n        /* \"Contracts/AKEB.sol\":1452:1546  function getAllBidders() public view returns(address[] memory) {... */\n    tag_56:\n        /* \"Contracts/AKEB.sol\":1497:1513  address[] memory */\n      0x60\n        /* \"Contracts/AKEB.sol\":1532:1539  bidders */\n      0x01\n        /* \"Contracts/AKEB.sol\":1525:1539  return bidders */\n      dup1\n      sload\n      dup1\n      0x20\n      mul\n      0x20\n      add\n      mload(0x40)\n      swap1\n      dup2\n      add\n      0x40\n      mstore\n      dup1\n      swap3\n      swap2\n      swap1\n      dup2\n      dup2\n      mstore\n      0x20\n      add\n      dup3\n      dup1\n      sload\n      dup1\n      iszero\n      tag_132\n      jumpi\n      0x20\n      mul\n      dup3\n      add\n      swap2\n      swap1\n      0x00\n      mstore\n      keccak256(0x00, 0x20)\n      swap1\n    tag_133:\n      dup2\n      0x00\n      swap1\n      sload\n      swap1\n      0x0100\n      exp\n      swap1\n      div\n      0xffffffffffffffffffffffffffffffffffffffff\n      and\n      0xffffffffffffffffffffffffffffffffffffffff\n      and\n      dup2\n      mstore\n      0x20\n      add\n      swap1\n      0x01\n      add\n      swap1\n      dup1\n      dup4\n      gt\n      tag_133\n      jumpi\n    tag_132:\n      pop\n      pop\n      pop\n      pop\n      pop\n      swap1\n      pop\n        /* \"Contracts/AKEB.sol\":1452:1546  function getAllBidders() public view returns(address[] memory) {... */\n      swap1\n      jump\t// out\n        /* \"Contracts/AKEB.sol\":3109:3313  function resetEncodedBids() public {... */\n    tag_60:\n        /* \"Contracts/AKEB.sol\":3159:3168  uint256 i */\n      0x00\n        /* \"Contracts/AKEB.sol\":3154:3307  for (uint256 i = 0 ; i < bidders.length; i +=1){... */\n    tag_135:\n        /* \"Contracts/AKEB.sol\":3179:3186  bidders */\n      0x01\n        /* \"Contracts/AKEB.sol\":3179:3193  bidders.length */\n      dup1\n      sload\n      swap1\n      pop\n        /* \"Contracts/AKEB.sol\":3175:3176  i */\n      dup2\n        /* \"Contracts/AKEB.sol\":3175:3193  i < bidders.length */\n      lt\n        /* \"Contracts/AKEB.sol\":3154:3307  for (uint256 i = 0 ; i < bidders.length; i +=1){... */\n      iszero\n      tag_136\n      jumpi\n        /* \"Contracts/AKEB.sol\":3215:3236  address bidderAddress */\n      0x00\n        /* \"Contracts/AKEB.sol\":3239:3246  bidders */\n      0x01\n        /* \"Contracts/AKEB.sol\":3247:3248  i */\n      dup3\n        /* \"Contracts/AKEB.sol\":3239:3249  bidders[i] */\n      dup2\n      sload\n      dup2\n      lt\n      tag_138\n      jumpi\n      tag_139\n      tag_140\n      jump\t// in\n    tag_139:\n    tag_138:\n      swap1\n      0x00\n      mstore\n      keccak256(0x00, 0x20)\n      add\n      0x00\n      swap1\n      sload\n      swap1\n      0x0100\n      exp\n      swap1\n      div\n      0xffffffffffffffffffffffffffffffffffffffff\n      and\n        /* \"Contracts/AKEB.sol\":3215:3249  address bidderAddress = bidders[i] */\n      swap1\n      pop\n        /* \"Contracts/AKEB.sol\":3270:3281  encodedBids */\n      0x05\n        /* \"Contracts/AKEB.sol\":3270:3296  encodedBids[bidderAddress] */\n      0x00\n        /* \"Contracts/AKEB.sol\":3282:3295  bidderAddress */\n      dup3\n        /* \"Contracts/AKEB.sol\":3270:3296  encodedBids[bidderAddress] */\n      0xffffffffffffffffffffffffffffffffffffffff\n      and\n      0xffffffffffffffffffffffffffffffffffffffff\n      and\n      dup2\n      mstore\n      0x20\n      add\n      swap1\n      dup2\n      mstore\n      0x20\n      add\n      0x00\n      keccak256\n      0x00\n        /* \"Contracts/AKEB.sol\":3263:3296  delete encodedBids[bidderAddress] */\n      tag_142\n      swap2\n      swap1\n      tag_143\n      jump\t// in\n    tag_142:\n        /* \"Contracts/AKEB.sol\":3201:3307  {... */\n      pop\n        /* \"Contracts/AKEB.sol\":3199:3200  1 */\n      0x01\n        /* \"Contracts/AKEB.sol\":3195:3200  i +=1 */\n      dup2\n      tag_144\n      swap2\n      swap1\n      tag_145\n      jump\t// in\n    tag_144:\n      swap1\n      pop\n        /* \"Contracts/AKEB.sol\":3154:3307  for (uint256 i = 0 ; i < bidders.length; i +=1){... */\n      jump(tag_135)\n    tag_136:\n      pop\n        /* \"Contracts/AKEB.sol\":3109:3313  function resetEncodedBids() public {... */\n      jump\t// out\n        /* \"Contracts/AKEB.sol\":1341:1446  function getBidderAddress(uint index) public view returns(address) {... */\n    tag_64:\n        /* \"Contracts/AKEB.sol\":1399:1406  address */\n      0x00\n        /* \"Contracts/AKEB.sol\":1425:1432  bidders */\n      0x01\n        /* \"Contracts/AKEB.sol\":1433:1438  index */\n      dup3\n        /* \"Contracts/AKEB.sol\":1425:1439  bidders[index] */\n      dup2\n      sload\n      dup2\n      lt\n      tag_147\n      jumpi\n      tag_148\n      tag_140\n      jump\t// in\n    tag_148:\n    tag_147:\n      swap1\n      0x00\n      mstore\n      keccak256(0x00, 0x20)\n      add\n      0x00\n      swap1\n      sload\n      swap1\n      0x0100\n      exp\n      swap1\n      div\n      0xffffffffffffffffffffffffffffffffffffffff\n      and\n        /* \"Contracts/AKEB.sol\":1418:1439  return bidders[index] */\n      swap1\n      pop\n        /* \"Contracts/AKEB.sol\":1341:1446  function getBidderAddress(uint index) public view returns(address) {... */\n      swap2\n      swap1\n      pop\n      jump\t// out\n        /* \"Contracts/AKEB.sol\":2468:2772  function dispute(uint256 inputDisputedBid, ... */\n    tag_68:\n        /* \"Contracts/AKEB.sol\":2567:2604  DisputedBidders memory disputedBidder */\n      0x00\n        /* \"Contracts/AKEB.sol\":2607:2718  DisputedBidders(... */\n      mload(0x40)\n      dup1\n      0x60\n      add\n      0x40\n      mstore\n      dup1\n        /* \"Contracts/AKEB.sol\":2636:2652  inputDisputedBid */\n      dup5\n        /* \"Contracts/AKEB.sol\":2607:2718  DisputedBidders(... */\n      dup2\n      mstore\n      0x20\n      add\n        /* \"Contracts/AKEB.sol\":2666:2676  msg.sender */\n      caller\n        /* \"Contracts/AKEB.sol\":2607:2718  DisputedBidders(... */\n      0xffffffffffffffffffffffffffffffffffffffff\n      and\n      dup2\n      mstore\n      0x20\n      add\n        /* \"Contracts/AKEB.sol\":2690:2708  inputDisputedNonce */\n      dup4\n        /* \"Contracts/AKEB.sol\":2607:2718  DisputedBidders(... */\n      dup2\n      mstore\n      pop\n        /* \"Contracts/AKEB.sol\":2567:2718  DisputedBidders memory disputedBidder = DisputedBidders(... */\n      swap1\n      pop\n        /* \"Contracts/AKEB.sol\":2729:2744  disputedBidders */\n      0x09\n        /* \"Contracts/AKEB.sol\":2750:2764  disputedBidder */\n      dup2\n        /* \"Contracts/AKEB.sol\":2729:2765  disputedBidders.push(disputedBidder) */\n      swap1\n      dup1\n      0x01\n      dup2\n      sload\n      add\n      dup1\n      dup3\n      sstore\n      dup1\n      swap2\n      pop\n      pop\n      0x01\n      swap1\n      sub\n      swap1\n      0x00\n      mstore\n      keccak256(0x00, 0x20)\n      swap1\n      0x03\n      mul\n      add\n      0x00\n      swap1\n      swap2\n      swap1\n      swap2\n      swap1\n      swap2\n      pop\n      0x00\n      dup3\n      add\n      mload\n      dup2\n      0x00\n      add\n      sstore\n      0x20\n      dup3\n      add\n      mload\n      dup2\n      0x01\n      add\n      exp(0x0100, 0x00)\n      dup2\n      sload\n      dup2\n      0xffffffffffffffffffffffffffffffffffffffff\n      mul\n      not\n      and\n      swap1\n      dup4\n      0xffffffffffffffffffffffffffffffffffffffff\n      and\n      mul\n      or\n      swap1\n      sstore\n      pop\n      0x40\n      dup3\n      add\n      mload\n      dup2\n      0x02\n      add\n      swap1\n      dup1\n      mload\n      swap1\n      0x20\n      add\n      swap1\n      tag_152\n      swap3\n      swap2\n      swap1\n      tag_125\n      jump\t// in\n    tag_152:\n      pop\n      pop\n      pop\n        /* \"Contracts/AKEB.sol\":2557:2772  {... */\n      pop\n        /* \"Contracts/AKEB.sol\":2468:2772  function dispute(uint256 inputDisputedBid, ... */\n      pop\n      pop\n      jump\t// out\n        /* \"Contracts/AKEB.sol\":819:929  function getSampleString() public pure returns(string memory){... */\n    tag_70:\n        /* \"Contracts/AKEB.sol\":866:879  string memory */\n      0x60\n        /* \"Contracts/AKEB.sol\":890:922  return \"sample string from AKEB\" */\n      mload(0x40)\n      dup1\n      0x40\n      add\n      0x40\n      mstore\n      dup1\n      0x17\n      dup2\n      mstore\n      0x20\n      add\n      0x73616d706c6520737472696e672066726f6d20414b4542000000000000000000\n      dup2\n      mstore\n      pop\n      swap1\n      pop\n        /* \"Contracts/AKEB.sol\":819:929  function getSampleString() public pure returns(string memory){... */\n      swap1\n      jump\t// out\n        /* \"Contracts/AKEB.sol\":2032:2169  function getWinner() public view returns(address, uint256, string memory) {... */\n    tag_73:\n        /* \"Contracts/AKEB.sol\":2073:2080  address */\n      0x00\n        /* \"Contracts/AKEB.sol\":2082:2089  uint256 */\n      dup1\n        /* \"Contracts/AKEB.sol\":2091:2104  string memory */\n      0x60\n        /* \"Contracts/AKEB.sol\":2124:2137  winnerAddress */\n      0x06\n      0x00\n      swap1\n      sload\n      swap1\n      0x0100\n      exp\n      swap1\n      div\n      0xffffffffffffffffffffffffffffffffffffffff\n      and\n        /* \"Contracts/AKEB.sol\":2139:2148  winnerBid */\n      sload(0x07)\n        /* \"Contracts/AKEB.sol\":2150:2161  winnerNonce */\n      0x08\n        /* \"Contracts/AKEB.sol\":2116:2162  return (winnerAddress, winnerBid, winnerNonce) */\n      dup1\n      dup1\n      sload\n      tag_155\n      swap1\n      tag_117\n      jump\t// in\n    tag_155:\n      dup1\n      0x1f\n      add\n      0x20\n      dup1\n      swap2\n      div\n      mul\n      0x20\n      add\n      mload(0x40)\n      swap1\n      dup2\n      add\n      0x40\n      mstore\n      dup1\n      swap3\n      swap2\n      swap1\n      dup2\n      dup2\n      mstore\n      0x20\n      add\n      dup3\n      dup1\n      sload\n      tag_156\n      swap1\n      tag_117\n      jump\t// in\n    tag_156:\n      dup1\n      iszero\n      tag_157\n      jumpi\n      dup1\n      0x1f\n      lt\n      tag_158\n      jumpi\n      0x0100\n      dup1\n      dup4\n      sload\n      div\n      mul\n      dup4\n      mstore\n      swap2\n      0x20\n      add\n      swap2\n      jump(tag_157)\n    tag_158:\n      dup3\n      add\n      swap2\n      swap1\n      0x00\n      mstore\n      keccak256(0x00, 0x20)\n      swap1\n    tag_159:\n      dup2\n      sload\n      dup2\n      mstore\n      swap1\n      0x01\n      add\n      swap1\n      0x20\n      add\n      dup1\n      dup4\n      gt\n      tag_159\n      jumpi\n      dup3\n      swap1\n      sub\n      0x1f\n      and\n      dup3\n      add\n      swap2\n    tag_157:\n      pop\n      pop\n      pop\n      pop\n      pop\n      swap1\n      pop\n      swap3\n      pop\n      swap3\n      pop\n      swap3\n      pop\n        /* \"Contracts/AKEB.sol\":2032:2169  function getWinner() public view returns(address, uint256, string memory) {... */\n      swap1\n      swap2\n      swap3\n      jump\t// out\n        /* \"Contracts/AKEB.sol\":499:539  DisputedBidders[] public disputedBidders */\n    tag_78:\n      0x09\n      dup2\n      dup2\n      sload\n      dup2\n      lt\n      tag_160\n      jumpi\n      0x00\n      dup1\n      revert\n    tag_160:\n      swap1\n      0x00\n      mstore\n      keccak256(0x00, 0x20)\n      swap1\n      0x03\n      mul\n      add\n      0x00\n      swap2\n      pop\n      swap1\n      pop\n      dup1\n      0x00\n      add\n      sload\n      swap1\n      dup1\n      0x01\n      add\n      0x00\n      swap1\n      sload\n      swap1\n      0x0100\n      exp\n      swap1\n      div\n      0xffffffffffffffffffffffffffffffffffffffff\n      and\n      swap1\n      dup1\n      0x02\n      add\n      dup1\n      sload\n      tag_162\n      swap1\n      tag_117\n      jump\t// in\n    tag_162:\n      dup1\n      0x1f\n      add\n      0x20\n      dup1\n      swap2\n      div\n      mul\n      0x20\n      add\n      mload(0x40)\n      swap1\n      dup2\n      add\n      0x40\n      mstore\n      dup1\n      swap3\n      swap2\n      swap1\n      dup2\n      dup2\n      mstore\n      0x20\n      add\n      dup3\n      dup1\n      sload\n      tag_163\n      swap1\n      tag_117\n      jump\t// in\n    tag_163:\n      dup1\n      iszero\n      tag_164\n      jumpi\n      dup1\n      0x1f\n      lt\n      tag_165\n      jumpi\n      0x0100\n      dup1\n      dup4\n      sload\n      div\n      mul\n      dup4\n      mstore\n      swap2\n      0x20\n      add\n      swap2\n      jump(tag_164)\n    tag_165:\n      dup3\n      add\n      swap2\n      swap1\n      0x00\n      mstore\n      keccak256(0x00, 0x20)\n      swap1\n    tag_166:\n      dup2\n      sload\n      dup2\n      mstore\n      swap1\n      0x01\n      add\n      swap1\n      0x20\n      add\n      dup1\n      dup4\n      gt\n      tag_166\n      jumpi\n      dup3\n      swap1\n      sub\n      0x1f\n      and\n      dup3\n      add\n      swap2\n    tag_164:\n      pop\n      pop\n      pop\n      pop\n      pop\n      swap1\n      pop\n      dup4\n      jump\t// out\n        /* \"Contracts/AKEB.sol\":132:162  string public assetDescription */\n    tag_82:\n      0x02\n      dup1\n      sload\n      tag_167\n      swap1\n      tag_117\n      jump\t// in\n    tag_167:\n      dup1\n      0x1f\n      add\n      0x20\n      dup1\n      swap2\n      div\n      mul\n      0x20\n      add\n      mload(0x40)\n      swap1\n      dup2\n      add\n      0x40\n      mstore\n      dup1\n      swap3\n      swap2\n      swap1\n      dup2\n      dup2\n      mstore\n      0x20\n      add\n      dup3\n      dup1\n      sload\n      tag_168\n      swap1\n      tag_117\n      jump\t// in\n    tag_168:\n      dup1\n      iszero\n      tag_169\n      jumpi\n      dup1\n      0x1f\n      lt\n      tag_170\n      jumpi\n      0x0100\n      dup1\n      dup4\n      sload\n      div\n      mul\n      dup4\n      mstore\n      swap2\n      0x20\n      add\n      swap2\n      jump(tag_169)\n    tag_170:\n      dup3\n      add\n      swap2\n      swap1\n      0x00\n      mstore\n      keccak256(0x00, 0x20)\n      swap1\n    tag_171:\n      dup2\n      sload\n      dup2\n      mstore\n      swap1\n      0x01\n      add\n      swap1\n      0x20\n      add\n      dup1\n      dup4\n      gt\n      tag_171\n      jumpi\n      dup3\n      swap1\n      sub\n      0x1f\n      and\n      dup3\n      add\n      swap2\n    tag_169:\n      pop\n      pop\n      pop\n      pop\n      pop\n      dup2\n      jump\t// out\n        /* \"Contracts/AKEB.sol\":2367:2462  function getwinnerNonce() public view returns(string memory){... */\n    tag_85:\n        /* \"Contracts/AKEB.sol\":2413:2426  string memory */\n      0x60\n        /* \"Contracts/AKEB.sol\":2444:2455  winnerNonce */\n      0x08\n        /* \"Contracts/AKEB.sol\":2437:2455  return winnerNonce */\n      dup1\n      sload\n      tag_173\n      swap1\n      tag_117\n      jump\t// in\n    tag_173:\n      dup1\n      0x1f\n      add\n      0x20\n      dup1\n      swap2\n      div\n      mul\n      0x20\n      add\n      mload(0x40)\n      swap1\n      dup2\n      add\n      0x40\n      mstore\n      dup1\n      swap3\n      swap2\n      swap1\n      dup2\n      dup2\n      mstore\n      0x20\n      add\n      dup3\n      dup1\n      sload\n      tag_174\n      swap1\n      tag_117\n      jump\t// in\n    tag_174:\n      dup1\n      iszero\n      tag_175\n      jumpi\n      dup1\n      0x1f\n      lt\n      tag_176\n      jumpi\n      0x0100\n      dup1\n      dup4\n      sload\n      div\n      mul\n      dup4\n      mstore\n      swap2\n      0x20\n      add\n      swap2\n      jump(tag_175)\n    tag_176:\n      dup3\n      add\n      swap2\n      swap1\n      0x00\n      mstore\n      keccak256(0x00, 0x20)\n      swap1\n    tag_177:\n      dup2\n      sload\n      dup2\n      mstore\n      swap1\n      0x01\n      add\n      swap1\n      0x20\n      add\n      dup1\n      dup4\n      gt\n      tag_177\n      jumpi\n      dup3\n      swap1\n      sub\n      0x1f\n      and\n      dup3\n      add\n      swap2\n    tag_175:\n      pop\n      pop\n      pop\n      pop\n      pop\n      swap1\n      pop\n        /* \"Contracts/AKEB.sol\":2367:2462  function getwinnerNonce() public view returns(string memory){... */\n      swap1\n      jump\t// out\n        /* \"Contracts/AKEB.sol\":1552:1678  function submitEncodedBid(string memory inputEncodedBid)... */\n    tag_90:\n        /* \"Contracts/AKEB.sol\":1656:1671  inputEncodedBid */\n      dup1\n        /* \"Contracts/AKEB.sol\":1630:1641  encodedBids */\n      0x05\n        /* \"Contracts/AKEB.sol\":1630:1653  encodedBids[msg.sender] */\n      0x00\n        /* \"Contracts/AKEB.sol\":1642:1652  msg.sender */\n      caller\n        /* \"Contracts/AKEB.sol\":1630:1653  encodedBids[msg.sender] */\n      0xffffffffffffffffffffffffffffffffffffffff\n      and\n      0xffffffffffffffffffffffffffffffffffffffff\n      and\n      dup2\n      mstore\n      0x20\n      add\n      swap1\n      dup2\n      mstore\n      0x20\n      add\n      0x00\n      keccak256\n        /* \"Contracts/AKEB.sol\":1630:1671  encodedBids[msg.sender] = inputEncodedBid */\n      swap1\n      dup1\n      mload\n      swap1\n      0x20\n      add\n      swap1\n      tag_179\n      swap3\n      swap2\n      swap1\n      tag_125\n      jump\t// in\n    tag_179:\n      pop\n        /* \"Contracts/AKEB.sol\":1552:1678  function submitEncodedBid(string memory inputEncodedBid)... */\n      pop\n      jump\t// out\n        /* \"Contracts/AKEB.sol\":2275:2361  function getWinnerBid() public view returns(uint256) {... */\n    tag_92:\n        /* \"Contracts/AKEB.sol\":2319:2326  uint256 */\n      0x00\n        /* \"Contracts/AKEB.sol\":2345:2354  winnerBid */\n      sload(0x07)\n        /* \"Contracts/AKEB.sol\":2338:2354  return winnerBid */\n      swap1\n      pop\n        /* \"Contracts/AKEB.sol\":2275:2361  function getWinnerBid() public view returns(uint256) {... */\n      swap1\n      jump\t// out\n        /* \"Contracts/AKEB.sol\":102:126  address[] public bidders */\n    tag_96:\n      0x01\n      dup2\n      dup2\n      sload\n      dup2\n      lt\n      tag_181\n      jumpi\n      0x00\n      dup1\n      revert\n    tag_181:\n      swap1\n      0x00\n      mstore\n      keccak256(0x00, 0x20)\n      add\n      0x00\n      swap2\n      pop\n      sload\n      swap1\n      0x0100\n      exp\n      swap1\n      div\n      0xffffffffffffffffffffffffffffffffffffffff\n      and\n      dup2\n      jump\t// out\n        /* \"Contracts/AKEB.sol\":2778:3103  function reset() public {... */\n    tag_99:\n        /* \"Contracts/AKEB.sol\":2829:2871  0x0000000000000000000000000000000000000000 */\n      0x00\n        /* \"Contracts/AKEB.sol\":2812:2825  winnerAddress */\n      0x06\n      0x00\n        /* \"Contracts/AKEB.sol\":2812:2871  winnerAddress =  0x0000000000000000000000000000000000000000 */\n      0x0100\n      exp\n      dup2\n      sload\n      dup2\n      0xffffffffffffffffffffffffffffffffffffffff\n      mul\n      not\n      and\n      swap1\n      dup4\n      0xffffffffffffffffffffffffffffffffffffffff\n      and\n      mul\n      or\n      swap1\n      sstore\n      pop\n        /* \"Contracts/AKEB.sol\":2893:2894  0 */\n      0x00\n        /* \"Contracts/AKEB.sol\":2881:2890  winnerBid */\n      0x07\n        /* \"Contracts/AKEB.sol\":2881:2894  winnerBid = 0 */\n      dup2\n      swap1\n      sstore\n      pop\n        /* \"Contracts/AKEB.sol\":2904:2920  winnerNonce = \"\" */\n      mload(0x40)\n      dup1\n      0x20\n      add\n      0x40\n      mstore\n      dup1\n      0x00\n      dup2\n      mstore\n      pop\n        /* \"Contracts/AKEB.sol\":2904:2915  winnerNonce */\n      0x08\n        /* \"Contracts/AKEB.sol\":2904:2920  winnerNonce = \"\" */\n      swap1\n      dup1\n      mload\n      swap1\n      0x20\n      add\n      swap1\n      tag_184\n      swap3\n      swap2\n      swap1\n      tag_125\n      jump\t// in\n    tag_184:\n      pop\n        /* \"Contracts/AKEB.sol\":2931:2952  assetDescription = \"\" */\n      mload(0x40)\n      dup1\n      0x20\n      add\n      0x40\n      mstore\n      dup1\n      0x00\n      dup2\n      mstore\n      pop\n        /* \"Contracts/AKEB.sol\":2931:2947  assetDescription */\n      0x02\n        /* \"Contracts/AKEB.sol\":2931:2952  assetDescription = \"\" */\n      swap1\n      dup1\n      mload\n      swap1\n      0x20\n      add\n      swap1\n      tag_185\n      swap3\n      swap2\n      swap1\n      tag_125\n      jump\t// in\n    tag_185:\n      pop\n        /* \"Contracts/AKEB.sol\":2976:2977  0 */\n      0x00\n        /* \"Contracts/AKEB.sol\":2962:2973  minBidPrice */\n      0x03\n        /* \"Contracts/AKEB.sol\":2962:2977  minBidPrice = 0 */\n      dup2\n      swap1\n      sstore\n      pop\n        /* \"Contracts/AKEB.sol\":3008:3009  0 */\n      0x00\n        /* \"Contracts/AKEB.sol\":2987:3005  minNumberOfBidders */\n      0x04\n        /* \"Contracts/AKEB.sol\":2987:3009  minNumberOfBidders = 0 */\n      dup2\n      swap1\n      sstore\n      pop\n        /* \"Contracts/AKEB.sol\":3020:3038  resetEncodedBids() */\n      tag_186\n        /* \"Contracts/AKEB.sol\":3020:3036  resetEncodedBids */\n      tag_60\n        /* \"Contracts/AKEB.sol\":3020:3038  resetEncodedBids() */\n      jump\t// in\n    tag_186:\n        /* \"Contracts/AKEB.sol\":3056:3063  bidders */\n      0x01\n      0x00\n        /* \"Contracts/AKEB.sol\":3049:3063  delete bidders */\n      tag_187\n      swap2\n      swap1\n      tag_188\n      jump\t// in\n    tag_187:\n        /* \"Contracts/AKEB.sol\":3081:3096  disputedBidders */\n      0x09\n      0x00\n        /* \"Contracts/AKEB.sol\":3074:3096  delete disputedBidders */\n      tag_189\n      swap2\n      swap1\n      tag_190\n      jump\t// in\n    tag_189:\n        /* \"Contracts/AKEB.sol\":2778:3103  function reset() public {... */\n      jump\t// out\n        /* \"Contracts/AKEB.sol\":200:233  uint256 public minNumberOfBidders */\n    tag_101:\n      sload(0x04)\n      dup2\n      jump\t// out\n        /* \"Contracts/AKEB.sol\":356:381  string public winnerNonce */\n    tag_104:\n      0x08\n      dup1\n      sload\n      tag_191\n      swap1\n      tag_117\n      jump\t// in\n    tag_191:\n      dup1\n      0x1f\n      add\n      0x20\n      dup1\n      swap2\n      div\n      mul\n      0x20\n      add\n      mload(0x40)\n      swap1\n      dup2\n      add\n      0x40\n      mstore\n      dup1\n      swap3\n      swap2\n      swap1\n      dup2\n      dup2\n      mstore\n      0x20\n      add\n      dup3\n      dup1\n      sload\n      tag_192\n      swap1\n      tag_117\n      jump\t// in\n    tag_192:\n      dup1\n      iszero\n      tag_193\n      jumpi\n      dup1\n      0x1f\n      lt\n      tag_194\n      jumpi\n      0x0100\n      dup1\n      dup4\n      sload\n      div\n      mul\n      dup4\n      mstore\n      swap2\n      0x20\n      add\n      swap2\n      jump(tag_193)\n    tag_194:\n      dup3\n      add\n      swap2\n      swap1\n      0x00\n      mstore\n      keccak256(0x00, 0x20)\n      swap1\n    tag_195:\n      dup2\n      sload\n      dup2\n      mstore\n      swap1\n      0x01\n      add\n      swap1\n      0x20\n      add\n      dup1\n      dup4\n      gt\n      tag_195\n      jumpi\n      dup3\n      swap1\n      sub\n      0x1f\n      and\n      dup3\n      add\n      swap2\n    tag_193:\n      pop\n      pop\n      pop\n      pop\n      pop\n      dup2\n      jump\t// out\n        /* \"Contracts/AKEB.sol\":935:1255  function registerAuctionInfo(string memory assetDescriptionInput, ... */\n    tag_109:\n        /* \"Contracts/AKEB.sol\":610:620  auctioneer */\n      0x00\n      dup1\n      sload\n      swap1\n      0x0100\n      exp\n      swap1\n      div\n      0xffffffffffffffffffffffffffffffffffffffff\n      and\n        /* \"Contracts/AKEB.sol\":596:620  msg.sender == auctioneer */\n      0xffffffffffffffffffffffffffffffffffffffff\n      and\n        /* \"Contracts/AKEB.sol\":596:606  msg.sender */\n      caller\n        /* \"Contracts/AKEB.sol\":596:620  msg.sender == auctioneer */\n      0xffffffffffffffffffffffffffffffffffffffff\n      and\n      eq\n        /* \"Contracts/AKEB.sol\":588:664  require(msg.sender == auctioneer, \"Only auctioneer can call this function.\") */\n      tag_197\n      jumpi\n      mload(0x40)\n      0x08c379a000000000000000000000000000000000000000000000000000000000\n      dup2\n      mstore\n      0x04\n      add\n      tag_198\n      swap1\n      tag_199\n      jump\t// in\n    tag_198:\n      mload(0x40)\n      dup1\n      swap2\n      sub\n      swap1\n      revert\n    tag_197:\n        /* \"Contracts/AKEB.sol\":1133:1154  assetDescriptionInput */\n      dup3\n        /* \"Contracts/AKEB.sol\":1114:1130  assetDescription */\n      0x02\n        /* \"Contracts/AKEB.sol\":1114:1154  assetDescription = assetDescriptionInput */\n      swap1\n      dup1\n      mload\n      swap1\n      0x20\n      add\n      swap1\n      tag_201\n      swap3\n      swap2\n      swap1\n      tag_125\n      jump\t// in\n    tag_201:\n      pop\n        /* \"Contracts/AKEB.sol\":1178:1194  minBidPriceInput */\n      dup2\n        /* \"Contracts/AKEB.sol\":1164:1175  minBidPrice */\n      0x03\n        /* \"Contracts/AKEB.sol\":1164:1194  minBidPrice = minBidPriceInput */\n      dup2\n      swap1\n      sstore\n      pop\n        /* \"Contracts/AKEB.sol\":1225:1248  minNumberOfBiddersInput */\n      dup1\n        /* \"Contracts/AKEB.sol\":1204:1222  minNumberOfBidders */\n      0x04\n        /* \"Contracts/AKEB.sol\":1204:1248  minNumberOfBidders = minNumberOfBiddersInput */\n      dup2\n      swap1\n      sstore\n      pop\n        /* \"Contracts/AKEB.sol\":935:1255  function registerAuctionInfo(string memory assetDescriptionInput, ... */\n      pop\n      pop\n      pop\n      jump\t// out\n        /* \"Contracts/AKEB.sol\":292:320  address public winnerAddress */\n    tag_111:\n      0x06\n      0x00\n      swap1\n      sload\n      swap1\n      0x0100\n      exp\n      swap1\n      div\n      0xffffffffffffffffffffffffffffffffffffffff\n      and\n      dup2\n      jump\t// out\n        /* \"Contracts/AKEB.sol\":1261:1335  function registerBidder() public {... */\n    tag_114:\n        /* \"Contracts/AKEB.sol\":1304:1311  bidders */\n      0x01\n        /* \"Contracts/AKEB.sol\":1317:1327  msg.sender */\n      caller\n        /* \"Contracts/AKEB.sol\":1304:1328  bidders.push(msg.sender) */\n      swap1\n      dup1\n      0x01\n      dup2\n      sload\n      add\n      dup1\n      dup3\n      sstore\n      dup1\n      swap2\n      pop\n      pop\n      0x01\n      swap1\n      sub\n      swap1\n      0x00\n      mstore\n      keccak256(0x00, 0x20)\n      add\n      0x00\n      swap1\n      swap2\n      swap1\n      swap2\n      swap1\n      swap2\n      0x0100\n      exp\n      dup2\n      sload\n      dup2\n      0xffffffffffffffffffffffffffffffffffffffff\n      mul\n      not\n      and\n      swap1\n      dup4\n      0xffffffffffffffffffffffffffffffffffffffff\n      and\n      mul\n      or\n      swap1\n      sstore\n      pop\n        /* \"Contracts/AKEB.sol\":1261:1335  function registerBidder() public {... */\n      jump\t// out\n    tag_125:\n      dup3\n      dup1\n      sload\n      tag_204\n      swap1\n      tag_117\n      jump\t// in\n    tag_204:\n      swap1\n      0x00\n      mstore\n      keccak256(0x00, 0x20)\n      swap1\n      0x1f\n      add\n      0x20\n      swap1\n      div\n      dup2\n      add\n      swap3\n      dup3\n      tag_206\n      jumpi\n      0x00\n      dup6\n      sstore\n      jump(tag_205)\n    tag_206:\n      dup3\n      0x1f\n      lt\n      tag_207\n      jumpi\n      dup1\n      mload\n      not(0xff)\n      and\n      dup4\n      dup1\n      add\n      or\n      dup6\n      sstore\n      jump(tag_205)\n    tag_207:\n      dup3\n      dup1\n      add\n      0x01\n      add\n      dup6\n      sstore\n      dup3\n      iszero\n      tag_205\n      jumpi\n      swap2\n      dup3\n      add\n    tag_208:\n      dup3\n      dup2\n      gt\n      iszero\n      tag_209\n      jumpi\n      dup3\n      mload\n      dup3\n      sstore\n      swap2\n      0x20\n      add\n      swap2\n      swap1\n      0x01\n      add\n      swap1\n      jump(tag_208)\n    tag_209:\n    tag_205:\n      pop\n      swap1\n      pop\n      tag_210\n      swap2\n      swap1\n      tag_211\n      jump\t// in\n    tag_210:\n      pop\n      swap1\n      jump\t// out\n    tag_143:\n      pop\n      dup1\n      sload\n      tag_212\n      swap1\n      tag_117\n      jump\t// in\n    tag_212:\n      0x00\n      dup3\n      sstore\n      dup1\n      0x1f\n      lt\n      tag_214\n      jumpi\n      pop\n      jump(tag_213)\n    tag_214:\n      0x1f\n      add\n      0x20\n      swap1\n      div\n      swap1\n      0x00\n      mstore\n      keccak256(0x00, 0x20)\n      swap1\n      dup2\n      add\n      swap1\n      tag_215\n      swap2\n      swap1\n      tag_211\n      jump\t// in\n    tag_215:\n    tag_213:\n      pop\n      jump\t// out\n    tag_188:\n      pop\n      dup1\n      sload\n      0x00\n      dup3\n      sstore\n      swap1\n      0x00\n      mstore\n      keccak256(0x00, 0x20)\n      swap1\n      dup2\n      add\n      swap1\n      tag_217\n      swap2\n      swap1\n      tag_211\n      jump\t// in\n    tag_217:\n      pop\n      jump\t// out\n    tag_190:\n      pop\n      dup1\n      sload\n      0x00\n      dup3\n      sstore\n      0x03\n      mul\n      swap1\n      0x00\n      mstore\n      keccak256(0x00, 0x20)\n      swap1\n      dup2\n      add\n      swap1\n      tag_219\n      swap2\n      swap1\n      tag_220\n      jump\t// in\n    tag_219:\n      pop\n      jump\t// out\n    tag_211:\n    tag_221:\n      dup1\n      dup3\n      gt\n      iszero\n      tag_222\n      jumpi\n      0x00\n      dup2\n      0x00\n      swap1\n      sstore\n      pop\n      0x01\n      add\n      jump(tag_221)\n    tag_222:\n      pop\n      swap1\n      jump\t// out\n    tag_220:\n    tag_223:\n      dup1\n      dup3\n      gt\n      iszero\n      tag_224\n      jumpi\n      0x00\n      dup1\n      dup3\n      add\n      0x00\n      swap1\n      sstore\n      0x01\n      dup3\n      add\n      exp(0x0100, 0x00)\n      dup2\n      sload\n      swap1\n      0xffffffffffffffffffffffffffffffffffffffff\n      mul\n      not\n      and\n      swap1\n      sstore\n      0x02\n      dup3\n      add\n      0x00\n      tag_225\n      swap2\n      swap1\n      tag_143\n      jump\t// in\n    tag_225:\n      pop\n      0x03\n      add\n      jump(tag_223)\n    tag_224:\n      pop\n      swap1\n      jump\t// out\n        /* \"#utility.yul\":7:82   */\n    tag_226:\n        /* \"#utility.yul\":40:46   */\n      0x00\n        /* \"#utility.yul\":73:75   */\n      0x40\n        /* \"#utility.yul\":67:76   */\n      mload\n        /* \"#utility.yul\":57:76   */\n      swap1\n      pop\n        /* \"#utility.yul\":7:82   */\n      swap1\n      jump\t// out\n        /* \"#utility.yul\":88:205   */\n    tag_227:\n        /* \"#utility.yul\":197:198   */\n      0x00\n        /* \"#utility.yul\":194:195   */\n      dup1\n        /* \"#utility.yul\":187:199   */\n      revert\n        /* \"#utility.yul\":211:328   */\n    tag_228:\n        /* \"#utility.yul\":320:321   */\n      0x00\n        /* \"#utility.yul\":317:318   */\n      dup1\n        /* \"#utility.yul\":310:322   */\n      revert\n        /* \"#utility.yul\":334:460   */\n    tag_229:\n        /* \"#utility.yul\":371:378   */\n      0x00\n        /* \"#utility.yul\":411:453   */\n      0xffffffffffffffffffffffffffffffffffffffff\n        /* \"#utility.yul\":404:409   */\n      dup3\n        /* \"#utility.yul\":400:454   */\n      and\n        /* \"#utility.yul\":389:454   */\n      swap1\n      pop\n        /* \"#utility.yul\":334:460   */\n      swap2\n      swap1\n      pop\n      jump\t// out\n        /* \"#utility.yul\":466:562   */\n    tag_230:\n        /* \"#utility.yul\":503:510   */\n      0x00\n        /* \"#utility.yul\":532:556   */\n      tag_269\n        /* \"#utility.yul\":550:555   */\n      dup3\n        /* \"#utility.yul\":532:556   */\n      tag_229\n      jump\t// in\n    tag_269:\n        /* \"#utility.yul\":521:556   */\n      swap1\n      pop\n        /* \"#utility.yul\":466:562   */\n      swap2\n      swap1\n      pop\n      jump\t// out\n        /* \"#utility.yul\":568:690   */\n    tag_231:\n        /* \"#utility.yul\":641:665   */\n      tag_271\n        /* \"#utility.yul\":659:664   */\n      dup2\n        /* \"#utility.yul\":641:665   */\n      tag_230\n      jump\t// in\n    tag_271:\n        /* \"#utility.yul\":634:639   */\n      dup2\n        /* \"#utility.yul\":631:666   */\n      eq\n        /* \"#utility.yul\":621:684   */\n      tag_272\n      jumpi\n        /* \"#utility.yul\":680:681   */\n      0x00\n        /* \"#utility.yul\":677:678   */\n      dup1\n        /* \"#utility.yul\":670:682   */\n      revert\n        /* \"#utility.yul\":621:684   */\n    tag_272:\n        /* \"#utility.yul\":568:690   */\n      pop\n      jump\t// out\n        /* \"#utility.yul\":696:835   */\n    tag_232:\n        /* \"#utility.yul\":742:747   */\n      0x00\n        /* \"#utility.yul\":780:786   */\n      dup2\n        /* \"#utility.yul\":767:787   */\n      calldataload\n        /* \"#utility.yul\":758:787   */\n      swap1\n      pop\n        /* \"#utility.yul\":796:829   */\n      tag_274\n        /* \"#utility.yul\":823:828   */\n      dup2\n        /* \"#utility.yul\":796:829   */\n      tag_231\n      jump\t// in\n    tag_274:\n        /* \"#utility.yul\":696:835   */\n      swap3\n      swap2\n      pop\n      pop\n      jump\t// out\n        /* \"#utility.yul\":841:1170   */\n    tag_32:\n        /* \"#utility.yul\":900:906   */\n      0x00\n        /* \"#utility.yul\":949:951   */\n      0x20\n        /* \"#utility.yul\":937:946   */\n      dup3\n        /* \"#utility.yul\":928:935   */\n      dup5\n        /* \"#utility.yul\":924:947   */\n      sub\n        /* \"#utility.yul\":920:952   */\n      slt\n        /* \"#utility.yul\":917:1036   */\n      iszero\n      tag_276\n      jumpi\n        /* \"#utility.yul\":955:1034   */\n      tag_277\n      tag_227\n      jump\t// in\n    tag_277:\n        /* \"#utility.yul\":917:1036   */\n    tag_276:\n        /* \"#utility.yul\":1075:1076   */\n      0x00\n        /* \"#utility.yul\":1100:1153   */\n      tag_278\n        /* \"#utility.yul\":1145:1152   */\n      dup5\n        /* \"#utility.yul\":1136:1142   */\n      dup3\n        /* \"#utility.yul\":1125:1134   */\n      dup6\n        /* \"#utility.yul\":1121:1143   */\n      add\n        /* \"#utility.yul\":1100:1153   */\n      tag_232\n      jump\t// in\n    tag_278:\n        /* \"#utility.yul\":1090:1153   */\n      swap2\n      pop\n        /* \"#utility.yul\":1046:1163   */\n      pop\n        /* \"#utility.yul\":841:1170   */\n      swap3\n      swap2\n      pop\n      pop\n      jump\t// out\n        /* \"#utility.yul\":1176:1275   */\n    tag_233:\n        /* \"#utility.yul\":1228:1234   */\n      0x00\n        /* \"#utility.yul\":1262:1267   */\n      dup2\n        /* \"#utility.yul\":1256:1268   */\n      mload\n        /* \"#utility.yul\":1246:1268   */\n      swap1\n      pop\n        /* \"#utility.yul\":1176:1275   */\n      swap2\n      swap1\n      pop\n      jump\t// out\n        /* \"#utility.yul\":1281:1450   */\n    tag_234:\n        /* \"#utility.yul\":1365:1376   */\n      0x00\n        /* \"#utility.yul\":1399:1405   */\n      dup3\n        /* \"#utility.yul\":1394:1397   */\n      dup3\n        /* \"#utility.yul\":1387:1406   */\n      mstore\n        /* \"#utility.yul\":1439:1443   */\n      0x20\n        /* \"#utility.yul\":1434:1437   */\n      dup3\n        /* \"#utility.yul\":1430:1444   */\n      add\n        /* \"#utility.yul\":1415:1444   */\n      swap1\n      pop\n        /* \"#utility.yul\":1281:1450   */\n      swap3\n      swap2\n      pop\n      pop\n      jump\t// out\n        /* \"#utility.yul\":1456:1763   */\n    tag_235:\n        /* \"#utility.yul\":1524:1525   */\n      0x00\n        /* \"#utility.yul\":1534:1647   */\n    tag_282:\n        /* \"#utility.yul\":1548:1554   */\n      dup4\n        /* \"#utility.yul\":1545:1546   */\n      dup2\n        /* \"#utility.yul\":1542:1555   */\n      lt\n        /* \"#utility.yul\":1534:1647   */\n      iszero\n      tag_284\n      jumpi\n        /* \"#utility.yul\":1633:1634   */\n      dup1\n        /* \"#utility.yul\":1628:1631   */\n      dup3\n        /* \"#utility.yul\":1624:1635   */\n      add\n        /* \"#utility.yul\":1618:1636   */\n      mload\n        /* \"#utility.yul\":1614:1615   */\n      dup2\n        /* \"#utility.yul\":1609:1612   */\n      dup5\n        /* \"#utility.yul\":1605:1616   */\n      add\n        /* \"#utility.yul\":1598:1637   */\n      mstore\n        /* \"#utility.yul\":1570:1572   */\n      0x20\n        /* \"#utility.yul\":1567:1568   */\n      dup2\n        /* \"#utility.yul\":1563:1573   */\n      add\n        /* \"#utility.yul\":1558:1573   */\n      swap1\n      pop\n        /* \"#utility.yul\":1534:1647   */\n      jump(tag_282)\n    tag_284:\n        /* \"#utility.yul\":1665:1671   */\n      dup4\n        /* \"#utility.yul\":1662:1663   */\n      dup2\n        /* \"#utility.yul\":1659:1672   */\n      gt\n        /* \"#utility.yul\":1656:1757   */\n      iszero\n      tag_285\n      jumpi\n        /* \"#utility.yul\":1745:1746   */\n      0x00\n        /* \"#utility.yul\":1736:1742   */\n      dup5\n        /* \"#utility.yul\":1731:1734   */\n      dup5\n        /* \"#utility.yul\":1727:1743   */\n      add\n        /* \"#utility.yul\":1720:1747   */\n      mstore\n        /* \"#utility.yul\":1656:1757   */\n    tag_285:\n        /* \"#utility.yul\":1505:1763   */\n      pop\n        /* \"#utility.yul\":1456:1763   */\n      pop\n      pop\n      pop\n      jump\t// out\n        /* \"#utility.yul\":1769:1871   */\n    tag_236:\n        /* \"#utility.yul\":1810:1816   */\n      0x00\n        /* \"#utility.yul\":1861:1863   */\n      0x1f\n        /* \"#utility.yul\":1857:1864   */\n      not\n        /* \"#utility.yul\":1852:1854   */\n      0x1f\n        /* \"#utility.yul\":1845:1850   */\n      dup4\n        /* \"#utility.yul\":1841:1855   */\n      add\n        /* \"#utility.yul\":1837:1865   */\n      and\n        /* \"#utility.yul\":1827:1865   */\n      swap1\n      pop\n        /* \"#utility.yul\":1769:1871   */\n      swap2\n      swap1\n      pop\n      jump\t// out\n        /* \"#utility.yul\":1877:2241   */\n    tag_237:\n        /* \"#utility.yul\":1965:1968   */\n      0x00\n        /* \"#utility.yul\":1993:2032   */\n      tag_288\n        /* \"#utility.yul\":2026:2031   */\n      dup3\n        /* \"#utility.yul\":1993:2032   */\n      tag_233\n      jump\t// in\n    tag_288:\n        /* \"#utility.yul\":2048:2119   */\n      tag_289\n        /* \"#utility.yul\":2112:2118   */\n      dup2\n        /* \"#utility.yul\":2107:2110   */\n      dup6\n        /* \"#utility.yul\":2048:2119   */\n      tag_234\n      jump\t// in\n    tag_289:\n        /* \"#utility.yul\":2041:2119   */\n      swap4\n      pop\n        /* \"#utility.yul\":2128:2180   */\n      tag_290\n        /* \"#utility.yul\":2173:2179   */\n      dup2\n        /* \"#utility.yul\":2168:2171   */\n      dup6\n        /* \"#utility.yul\":2161:2165   */\n      0x20\n        /* \"#utility.yul\":2154:2159   */\n      dup7\n        /* \"#utility.yul\":2150:2166   */\n      add\n        /* \"#utility.yul\":2128:2180   */\n      tag_235\n      jump\t// in\n    tag_290:\n        /* \"#utility.yul\":2205:2234   */\n      tag_291\n        /* \"#utility.yul\":2227:2233   */\n      dup2\n        /* \"#utility.yul\":2205:2234   */\n      tag_236\n      jump\t// in\n    tag_291:\n        /* \"#utility.yul\":2200:2203   */\n      dup5\n        /* \"#utility.yul\":2196:2235   */\n      add\n        /* \"#utility.yul\":2189:2235   */\n      swap2\n      pop\n        /* \"#utility.yul\":1969:2241   */\n      pop\n        /* \"#utility.yul\":1877:2241   */\n      swap3\n      swap2\n      pop\n      pop\n      jump\t// out\n        /* \"#utility.yul\":2247:2560   */\n    tag_35:\n        /* \"#utility.yul\":2360:2364   */\n      0x00\n        /* \"#utility.yul\":2398:2400   */\n      0x20\n        /* \"#utility.yul\":2387:2396   */\n      dup3\n        /* \"#utility.yul\":2383:2401   */\n      add\n        /* \"#utility.yul\":2375:2401   */\n      swap1\n      pop\n        /* \"#utility.yul\":2447:2456   */\n      dup2\n        /* \"#utility.yul\":2441:2445   */\n      dup2\n        /* \"#utility.yul\":2437:2457   */\n      sub\n        /* \"#utility.yul\":2433:2434   */\n      0x00\n        /* \"#utility.yul\":2422:2431   */\n      dup4\n        /* \"#utility.yul\":2418:2435   */\n      add\n        /* \"#utility.yul\":2411:2458   */\n      mstore\n        /* \"#utility.yul\":2475:2553   */\n      tag_293\n        /* \"#utility.yul\":2548:2552   */\n      dup2\n        /* \"#utility.yul\":2539:2545   */\n      dup5\n        /* \"#utility.yul\":2475:2553   */\n      tag_237\n      jump\t// in\n    tag_293:\n        /* \"#utility.yul\":2467:2553   */\n      swap1\n      pop\n        /* \"#utility.yul\":2247:2560   */\n      swap3\n      swap2\n      pop\n      pop\n      jump\t// out\n        /* \"#utility.yul\":2566:2684   */\n    tag_238:\n        /* \"#utility.yul\":2653:2677   */\n      tag_295\n        /* \"#utility.yul\":2671:2676   */\n      dup2\n        /* \"#utility.yul\":2653:2677   */\n      tag_230\n      jump\t// in\n    tag_295:\n        /* \"#utility.yul\":2648:2651   */\n      dup3\n        /* \"#utility.yul\":2641:2678   */\n      mstore\n        /* \"#utility.yul\":2566:2684   */\n      pop\n      pop\n      jump\t// out\n        /* \"#utility.yul\":2690:2912   */\n    tag_39:\n        /* \"#utility.yul\":2783:2787   */\n      0x00\n        /* \"#utility.yul\":2821:2823   */\n      0x20\n        /* \"#utility.yul\":2810:2819   */\n      dup3\n        /* \"#utility.yul\":2806:2824   */\n      add\n        /* \"#utility.yul\":2798:2824   */\n      swap1\n      pop\n        /* \"#utility.yul\":2834:2905   */\n      tag_297\n        /* \"#utility.yul\":2902:2903   */\n      0x00\n        /* \"#utility.yul\":2891:2900   */\n      dup4\n        /* \"#utility.yul\":2887:2904   */\n      add\n        /* \"#utility.yul\":2878:2884   */\n      dup5\n        /* \"#utility.yul\":2834:2905   */\n      tag_238\n      jump\t// in\n    tag_297:\n        /* \"#utility.yul\":2690:2912   */\n      swap3\n      swap2\n      pop\n      pop\n      jump\t// out\n        /* \"#utility.yul\":2918:2995   */\n    tag_239:\n        /* \"#utility.yul\":2955:2962   */\n      0x00\n        /* \"#utility.yul\":2984:2989   */\n      dup2\n        /* \"#utility.yul\":2973:2989   */\n      swap1\n      pop\n        /* \"#utility.yul\":2918:2995   */\n      swap2\n      swap1\n      pop\n      jump\t// out\n        /* \"#utility.yul\":3001:3119   */\n    tag_240:\n        /* \"#utility.yul\":3088:3112   */\n      tag_300\n        /* \"#utility.yul\":3106:3111   */\n      dup2\n        /* \"#utility.yul\":3088:3112   */\n      tag_239\n      jump\t// in\n    tag_300:\n        /* \"#utility.yul\":3083:3086   */\n      dup3\n        /* \"#utility.yul\":3076:3113   */\n      mstore\n        /* \"#utility.yul\":3001:3119   */\n      pop\n      pop\n      jump\t// out\n        /* \"#utility.yul\":3125:3347   */\n    tag_43:\n        /* \"#utility.yul\":3218:3222   */\n      0x00\n        /* \"#utility.yul\":3256:3258   */\n      0x20\n        /* \"#utility.yul\":3245:3254   */\n      dup3\n        /* \"#utility.yul\":3241:3259   */\n      add\n        /* \"#utility.yul\":3233:3259   */\n      swap1\n      pop\n        /* \"#utility.yul\":3269:3340   */\n      tag_302\n        /* \"#utility.yul\":3337:3338   */\n      0x00\n        /* \"#utility.yul\":3326:3335   */\n      dup4\n        /* \"#utility.yul\":3322:3339   */\n      add\n        /* \"#utility.yul\":3313:3319   */\n      dup5\n        /* \"#utility.yul\":3269:3340   */\n      tag_240\n      jump\t// in\n    tag_302:\n        /* \"#utility.yul\":3125:3347   */\n      swap3\n      swap2\n      pop\n      pop\n      jump\t// out\n        /* \"#utility.yul\":3353:3475   */\n    tag_241:\n        /* \"#utility.yul\":3426:3450   */\n      tag_304\n        /* \"#utility.yul\":3444:3449   */\n      dup2\n        /* \"#utility.yul\":3426:3450   */\n      tag_239\n      jump\t// in\n    tag_304:\n        /* \"#utility.yul\":3419:3424   */\n      dup2\n        /* \"#utility.yul\":3416:3451   */\n      eq\n        /* \"#utility.yul\":3406:3469   */\n      tag_305\n      jumpi\n        /* \"#utility.yul\":3465:3466   */\n      0x00\n        /* \"#utility.yul\":3462:3463   */\n      dup1\n        /* \"#utility.yul\":3455:3467   */\n      revert\n        /* \"#utility.yul\":3406:3469   */\n    tag_305:\n        /* \"#utility.yul\":3353:3475   */\n      pop\n      jump\t// out\n        /* \"#utility.yul\":3481:3620   */\n    tag_242:\n        /* \"#utility.yul\":3527:3532   */\n      0x00\n        /* \"#utility.yul\":3565:3571   */\n      dup2\n        /* \"#utility.yul\":3552:3572   */\n      calldataload\n        /* \"#utility.yul\":3543:3572   */\n      swap1\n      pop\n        /* \"#utility.yul\":3581:3614   */\n      tag_307\n        /* \"#utility.yul\":3608:3613   */\n      dup2\n        /* \"#utility.yul\":3581:3614   */\n      tag_241\n      jump\t// in\n    tag_307:\n        /* \"#utility.yul\":3481:3620   */\n      swap3\n      swap2\n      pop\n      pop\n      jump\t// out\n        /* \"#utility.yul\":3626:3743   */\n    tag_243:\n        /* \"#utility.yul\":3735:3736   */\n      0x00\n        /* \"#utility.yul\":3732:3733   */\n      dup1\n        /* \"#utility.yul\":3725:3737   */\n      revert\n        /* \"#utility.yul\":3749:3866   */\n    tag_244:\n        /* \"#utility.yul\":3858:3859   */\n      0x00\n        /* \"#utility.yul\":3855:3856   */\n      dup1\n        /* \"#utility.yul\":3848:3860   */\n      revert\n        /* \"#utility.yul\":3872:4052   */\n    tag_245:\n        /* \"#utility.yul\":3920:3997   */\n      0x4e487b7100000000000000000000000000000000000000000000000000000000\n        /* \"#utility.yul\":3917:3918   */\n      0x00\n        /* \"#utility.yul\":3910:3998   */\n      mstore\n        /* \"#utility.yul\":4017:4021   */\n      0x41\n        /* \"#utility.yul\":4014:4015   */\n      0x04\n        /* \"#utility.yul\":4007:4022   */\n      mstore\n        /* \"#utility.yul\":4041:4045   */\n      0x24\n        /* \"#utility.yul\":4038:4039   */\n      0x00\n        /* \"#utility.yul\":4031:4046   */\n      revert\n        /* \"#utility.yul\":4058:4339   */\n    tag_246:\n        /* \"#utility.yul\":4141:4168   */\n      tag_312\n        /* \"#utility.yul\":4163:4167   */\n      dup3\n        /* \"#utility.yul\":4141:4168   */\n      tag_236\n      jump\t// in\n    tag_312:\n        /* \"#utility.yul\":4133:4139   */\n      dup2\n        /* \"#utility.yul\":4129:4169   */\n      add\n        /* \"#utility.yul\":4271:4277   */\n      dup2\n        /* \"#utility.yul\":4259:4269   */\n      dup2\n        /* \"#utility.yul\":4256:4278   */\n      lt\n        /* \"#utility.yul\":4235:4253   */\n      0xffffffffffffffff\n        /* \"#utility.yul\":4223:4233   */\n      dup3\n        /* \"#utility.yul\":4220:4254   */\n      gt\n        /* \"#utility.yul\":4217:4279   */\n      or\n        /* \"#utility.yul\":4214:4302   */\n      iszero\n      tag_313\n      jumpi\n        /* \"#utility.yul\":4282:4300   */\n      tag_314\n      tag_245\n      jump\t// in\n    tag_314:\n        /* \"#utility.yul\":4214:4302   */\n    tag_313:\n        /* \"#utility.yul\":4322:4332   */\n      dup1\n        /* \"#utility.yul\":4318:4320   */\n      0x40\n        /* \"#utility.yul\":4311:4333   */\n      mstore\n        /* \"#utility.yul\":4101:4339   */\n      pop\n        /* \"#utility.yul\":4058:4339   */\n      pop\n      pop\n      jump\t// out\n        /* \"#utility.yul\":4345:4474   */\n    tag_247:\n        /* \"#utility.yul\":4379:4385   */\n      0x00\n        /* \"#utility.yul\":4406:4426   */\n      tag_316\n      tag_226\n      jump\t// in\n    tag_316:\n        /* \"#utility.yul\":4396:4426   */\n      swap1\n      pop\n        /* \"#utility.yul\":4435:4468   */\n      tag_317\n        /* \"#utility.yul\":4463:4467   */\n      dup3\n        /* \"#utility.yul\":4455:4461   */\n      dup3\n        /* \"#utility.yul\":4435:4468   */\n      tag_246\n      jump\t// in\n    tag_317:\n        /* \"#utility.yul\":4345:4474   */\n      swap2\n      swap1\n      pop\n      jump\t// out\n        /* \"#utility.yul\":4480:4788   */\n    tag_248:\n        /* \"#utility.yul\":4542:4546   */\n      0x00\n        /* \"#utility.yul\":4632:4650   */\n      0xffffffffffffffff\n        /* \"#utility.yul\":4624:4630   */\n      dup3\n        /* \"#utility.yul\":4621:4651   */\n      gt\n        /* \"#utility.yul\":4618:4674   */\n      iszero\n      tag_319\n      jumpi\n        /* \"#utility.yul\":4654:4672   */\n      tag_320\n      tag_245\n      jump\t// in\n    tag_320:\n        /* \"#utility.yul\":4618:4674   */\n    tag_319:\n        /* \"#utility.yul\":4692:4721   */\n      tag_321\n        /* \"#utility.yul\":4714:4720   */\n      dup3\n        /* \"#utility.yul\":4692:4721   */\n      tag_236\n      jump\t// in\n    tag_321:\n        /* \"#utility.yul\":4684:4721   */\n      swap1\n      pop\n        /* \"#utility.yul\":4776:4780   */\n      0x20\n        /* \"#utility.yul\":4770:4774   */\n      dup2\n        /* \"#utility.yul\":4766:4781   */\n      add\n        /* \"#utility.yul\":4758:4781   */\n      swap1\n      pop\n        /* \"#utility.yul\":4480:4788   */\n      swap2\n      swap1\n      pop\n      jump\t// out\n        /* \"#utility.yul\":4794:4948   */\n    tag_249:\n        /* \"#utility.yul\":4878:4884   */\n      dup3\n        /* \"#utility.yul\":4873:4876   */\n      dup2\n        /* \"#utility.yul\":4868:4871   */\n      dup4\n        /* \"#utility.yul\":4855:4885   */\n      calldatacopy\n        /* \"#utility.yul\":4940:4941   */\n      0x00\n        /* \"#utility.yul\":4931:4937   */\n      dup4\n        /* \"#utility.yul\":4926:4929   */\n      dup4\n        /* \"#utility.yul\":4922:4938   */\n      add\n        /* \"#utility.yul\":4915:4942   */\n      mstore\n        /* \"#utility.yul\":4794:4948   */\n      pop\n      pop\n      pop\n      jump\t// out\n        /* \"#utility.yul\":4954:5366   */\n    tag_250:\n        /* \"#utility.yul\":5032:5037   */\n      0x00\n        /* \"#utility.yul\":5057:5123   */\n      tag_324\n        /* \"#utility.yul\":5073:5122   */\n      tag_325\n        /* \"#utility.yul\":5115:5121   */\n      dup5\n        /* \"#utility.yul\":5073:5122   */\n      tag_248\n      jump\t// in\n    tag_325:\n        /* \"#utility.yul\":5057:5123   */\n      tag_247\n      jump\t// in\n    tag_324:\n        /* \"#utility.yul\":5048:5123   */\n      swap1\n      pop\n        /* \"#utility.yul\":5146:5152   */\n      dup3\n        /* \"#utility.yul\":5139:5144   */\n      dup2\n        /* \"#utility.yul\":5132:5153   */\n      mstore\n        /* \"#utility.yul\":5184:5188   */\n      0x20\n        /* \"#utility.yul\":5177:5182   */\n      dup2\n        /* \"#utility.yul\":5173:5189   */\n      add\n        /* \"#utility.yul\":5222:5225   */\n      dup5\n        /* \"#utility.yul\":5213:5219   */\n      dup5\n        /* \"#utility.yul\":5208:5211   */\n      dup5\n        /* \"#utility.yul\":5204:5220   */\n      add\n        /* \"#utility.yul\":5201:5226   */\n      gt\n        /* \"#utility.yul\":5198:5310   */\n      iszero\n      tag_326\n      jumpi\n        /* \"#utility.yul\":5229:5308   */\n      tag_327\n      tag_244\n      jump\t// in\n    tag_327:\n        /* \"#utility.yul\":5198:5310   */\n    tag_326:\n        /* \"#utility.yul\":5319:5360   */\n      tag_328\n        /* \"#utility.yul\":5353:5359   */\n      dup5\n        /* \"#utility.yul\":5348:5351   */\n      dup3\n        /* \"#utility.yul\":5343:5346   */\n      dup6\n        /* \"#utility.yul\":5319:5360   */\n      tag_249\n      jump\t// in\n    tag_328:\n        /* \"#utility.yul\":5038:5366   */\n      pop\n        /* \"#utility.yul\":4954:5366   */\n      swap4\n      swap3\n      pop\n      pop\n      pop\n      jump\t// out\n        /* \"#utility.yul\":5386:5726   */\n    tag_251:\n        /* \"#utility.yul\":5442:5447   */\n      0x00\n        /* \"#utility.yul\":5491:5494   */\n      dup3\n        /* \"#utility.yul\":5484:5488   */\n      0x1f\n        /* \"#utility.yul\":5476:5482   */\n      dup4\n        /* \"#utility.yul\":5472:5489   */\n      add\n        /* \"#utility.yul\":5468:5495   */\n      slt\n        /* \"#utility.yul\":5458:5580   */\n      tag_330\n      jumpi\n        /* \"#utility.yul\":5499:5578   */\n      tag_331\n      tag_243\n      jump\t// in\n    tag_331:\n        /* \"#utility.yul\":5458:5580   */\n    tag_330:\n        /* \"#utility.yul\":5616:5622   */\n      dup2\n        /* \"#utility.yul\":5603:5623   */\n      calldataload\n        /* \"#utility.yul\":5641:5720   */\n      tag_332\n        /* \"#utility.yul\":5716:5719   */\n      dup5\n        /* \"#utility.yul\":5708:5714   */\n      dup3\n        /* \"#utility.yul\":5701:5705   */\n      0x20\n        /* \"#utility.yul\":5693:5699   */\n      dup7\n        /* \"#utility.yul\":5689:5706   */\n      add\n        /* \"#utility.yul\":5641:5720   */\n      tag_250\n      jump\t// in\n    tag_332:\n        /* \"#utility.yul\":5632:5720   */\n      swap2\n      pop\n        /* \"#utility.yul\":5448:5726   */\n      pop\n        /* \"#utility.yul\":5386:5726   */\n      swap3\n      swap2\n      pop\n      pop\n      jump\t// out\n        /* \"#utility.yul\":5732:6386   */\n    tag_46:\n        /* \"#utility.yul\":5810:5816   */\n      0x00\n        /* \"#utility.yul\":5818:5824   */\n      dup1\n        /* \"#utility.yul\":5867:5869   */\n      0x40\n        /* \"#utility.yul\":5855:5864   */\n      dup4\n        /* \"#utility.yul\":5846:5853   */\n      dup6\n        /* \"#utility.yul\":5842:5865   */\n      sub\n        /* \"#utility.yul\":5838:5870   */\n      slt\n        /* \"#utility.yul\":5835:5954   */\n      iszero\n      tag_334\n      jumpi\n        /* \"#utility.yul\":5873:5952   */\n      tag_335\n      tag_227\n      jump\t// in\n    tag_335:\n        /* \"#utility.yul\":5835:5954   */\n    tag_334:\n        /* \"#utility.yul\":5993:5994   */\n      0x00\n        /* \"#utility.yul\":6018:6071   */\n      tag_336\n        /* \"#utility.yul\":6063:6070   */\n      dup6\n        /* \"#utility.yul\":6054:6060   */\n      dup3\n        /* \"#utility.yul\":6043:6052   */\n      dup7\n        /* \"#utility.yul\":6039:6061   */\n      add\n        /* \"#utility.yul\":6018:6071   */\n      tag_242\n      jump\t// in\n    tag_336:\n        /* \"#utility.yul\":6008:6071   */\n      swap3\n      pop\n        /* \"#utility.yul\":5964:6081   */\n      pop\n        /* \"#utility.yul\":6148:6150   */\n      0x20\n        /* \"#utility.yul\":6137:6146   */\n      dup4\n        /* \"#utility.yul\":6133:6151   */\n      add\n        /* \"#utility.yul\":6120:6152   */\n      calldataload\n        /* \"#utility.yul\":6179:6197   */\n      0xffffffffffffffff\n        /* \"#utility.yul\":6171:6177   */\n      dup2\n        /* \"#utility.yul\":6168:6198   */\n      gt\n        /* \"#utility.yul\":6165:6282   */\n      iszero\n      tag_337\n      jumpi\n        /* \"#utility.yul\":6201:6280   */\n      tag_338\n      tag_228\n      jump\t// in\n    tag_338:\n        /* \"#utility.yul\":6165:6282   */\n    tag_337:\n        /* \"#utility.yul\":6306:6369   */\n      tag_339\n        /* \"#utility.yul\":6361:6368   */\n      dup6\n        /* \"#utility.yul\":6352:6358   */\n      dup3\n        /* \"#utility.yul\":6341:6350   */\n      dup7\n        /* \"#utility.yul\":6337:6359   */\n      add\n        /* \"#utility.yul\":6306:6369   */\n      tag_251\n      jump\t// in\n    tag_339:\n        /* \"#utility.yul\":6296:6369   */\n      swap2\n      pop\n        /* \"#utility.yul\":6091:6379   */\n      pop\n        /* \"#utility.yul\":5732:6386   */\n      swap3\n      pop\n      swap3\n      swap1\n      pop\n      jump\t// out\n        /* \"#utility.yul\":6392:6506   */\n    tag_252:\n        /* \"#utility.yul\":6459:6465   */\n      0x00\n        /* \"#utility.yul\":6493:6498   */\n      dup2\n        /* \"#utility.yul\":6487:6499   */\n      mload\n        /* \"#utility.yul\":6477:6499   */\n      swap1\n      pop\n        /* \"#utility.yul\":6392:6506   */\n      swap2\n      swap1\n      pop\n      jump\t// out\n        /* \"#utility.yul\":6512:6696   */\n    tag_253:\n        /* \"#utility.yul\":6611:6622   */\n      0x00\n        /* \"#utility.yul\":6645:6651   */\n      dup3\n        /* \"#utility.yul\":6640:6643   */\n      dup3\n        /* \"#utility.yul\":6633:6652   */\n      mstore\n        /* \"#utility.yul\":6685:6689   */\n      0x20\n        /* \"#utility.yul\":6680:6683   */\n      dup3\n        /* \"#utility.yul\":6676:6690   */\n      add\n        /* \"#utility.yul\":6661:6690   */\n      swap1\n      pop\n        /* \"#utility.yul\":6512:6696   */\n      swap3\n      swap2\n      pop\n      pop\n      jump\t// out\n        /* \"#utility.yul\":6702:6834   */\n    tag_254:\n        /* \"#utility.yul\":6769:6773   */\n      0x00\n        /* \"#utility.yul\":6792:6795   */\n      dup2\n        /* \"#utility.yul\":6784:6795   */\n      swap1\n      pop\n        /* \"#utility.yul\":6822:6826   */\n      0x20\n        /* \"#utility.yul\":6817:6820   */\n      dup3\n        /* \"#utility.yul\":6813:6827   */\n      add\n        /* \"#utility.yul\":6805:6827   */\n      swap1\n      pop\n        /* \"#utility.yul\":6702:6834   */\n      swap2\n      swap1\n      pop\n      jump\t// out\n        /* \"#utility.yul\":6840:6948   */\n    tag_255:\n        /* \"#utility.yul\":6917:6941   */\n      tag_344\n        /* \"#utility.yul\":6935:6940   */\n      dup2\n        /* \"#utility.yul\":6917:6941   */\n      tag_230\n      jump\t// in\n    tag_344:\n        /* \"#utility.yul\":6912:6915   */\n      dup3\n        /* \"#utility.yul\":6905:6942   */\n      mstore\n        /* \"#utility.yul\":6840:6948   */\n      pop\n      pop\n      jump\t// out\n        /* \"#utility.yul\":6954:7133   */\n    tag_256:\n        /* \"#utility.yul\":7023:7033   */\n      0x00\n        /* \"#utility.yul\":7044:7090   */\n      tag_346\n        /* \"#utility.yul\":7086:7089   */\n      dup4\n        /* \"#utility.yul\":7078:7084   */\n      dup4\n        /* \"#utility.yul\":7044:7090   */\n      tag_255\n      jump\t// in\n    tag_346:\n        /* \"#utility.yul\":7122:7126   */\n      0x20\n        /* \"#utility.yul\":7117:7120   */\n      dup4\n        /* \"#utility.yul\":7113:7127   */\n      add\n        /* \"#utility.yul\":7099:7127   */\n      swap1\n      pop\n        /* \"#utility.yul\":6954:7133   */\n      swap3\n      swap2\n      pop\n      pop\n      jump\t// out\n        /* \"#utility.yul\":7139:7252   */\n    tag_257:\n        /* \"#utility.yul\":7209:7213   */\n      0x00\n        /* \"#utility.yul\":7241:7245   */\n      0x20\n        /* \"#utility.yul\":7236:7239   */\n      dup3\n        /* \"#utility.yul\":7232:7246   */\n      add\n        /* \"#utility.yul\":7224:7246   */\n      swap1\n      pop\n        /* \"#utility.yul\":7139:7252   */\n      swap2\n      swap1\n      pop\n      jump\t// out\n        /* \"#utility.yul\":7288:8020   */\n    tag_258:\n        /* \"#utility.yul\":7407:7410   */\n      0x00\n        /* \"#utility.yul\":7436:7490   */\n      tag_349\n        /* \"#utility.yul\":7484:7489   */\n      dup3\n        /* \"#utility.yul\":7436:7490   */\n      tag_252\n      jump\t// in\n    tag_349:\n        /* \"#utility.yul\":7506:7592   */\n      tag_350\n        /* \"#utility.yul\":7585:7591   */\n      dup2\n        /* \"#utility.yul\":7580:7583   */\n      dup6\n        /* \"#utility.yul\":7506:7592   */\n      tag_253\n      jump\t// in\n    tag_350:\n        /* \"#utility.yul\":7499:7592   */\n      swap4\n      pop\n        /* \"#utility.yul\":7616:7672   */\n      tag_351\n        /* \"#utility.yul\":7666:7671   */\n      dup4\n        /* \"#utility.yul\":7616:7672   */\n      tag_254\n      jump\t// in\n    tag_351:\n        /* \"#utility.yul\":7695:7702   */\n      dup1\n        /* \"#utility.yul\":7726:7727   */\n      0x00\n        /* \"#utility.yul\":7711:7995   */\n    tag_352:\n        /* \"#utility.yul\":7736:7742   */\n      dup4\n        /* \"#utility.yul\":7733:7734   */\n      dup2\n        /* \"#utility.yul\":7730:7743   */\n      lt\n        /* \"#utility.yul\":7711:7995   */\n      iszero\n      tag_354\n      jumpi\n        /* \"#utility.yul\":7812:7818   */\n      dup2\n        /* \"#utility.yul\":7806:7819   */\n      mload\n        /* \"#utility.yul\":7839:7902   */\n      tag_355\n        /* \"#utility.yul\":7898:7901   */\n      dup9\n        /* \"#utility.yul\":7883:7896   */\n      dup3\n        /* \"#utility.yul\":7839:7902   */\n      tag_256\n      jump\t// in\n    tag_355:\n        /* \"#utility.yul\":7832:7902   */\n      swap8\n      pop\n        /* \"#utility.yul\":7925:7985   */\n      tag_356\n        /* \"#utility.yul\":7978:7984   */\n      dup4\n        /* \"#utility.yul\":7925:7985   */\n      tag_257\n      jump\t// in\n    tag_356:\n        /* \"#utility.yul\":7915:7985   */\n      swap3\n      pop\n        /* \"#utility.yul\":7771:7995   */\n      pop\n        /* \"#utility.yul\":7758:7759   */\n      0x01\n        /* \"#utility.yul\":7755:7756   */\n      dup2\n        /* \"#utility.yul\":7751:7760   */\n      add\n        /* \"#utility.yul\":7746:7760   */\n      swap1\n      pop\n        /* \"#utility.yul\":7711:7995   */\n      jump(tag_352)\n    tag_354:\n        /* \"#utility.yul\":7715:7729   */\n      pop\n        /* \"#utility.yul\":8011:8014   */\n      dup6\n        /* \"#utility.yul\":8004:8014   */\n      swap4\n      pop\n        /* \"#utility.yul\":7412:8020   */\n      pop\n      pop\n      pop\n        /* \"#utility.yul\":7288:8020   */\n      swap3\n      swap2\n      pop\n      pop\n      jump\t// out\n        /* \"#utility.yul\":8026:8399   */\n    tag_58:\n        /* \"#utility.yul\":8169:8173   */\n      0x00\n        /* \"#utility.yul\":8207:8209   */\n      0x20\n        /* \"#utility.yul\":8196:8205   */\n      dup3\n        /* \"#utility.yul\":8192:8210   */\n      add\n        /* \"#utility.yul\":8184:8210   */\n      swap1\n      pop\n        /* \"#utility.yul\":8256:8265   */\n      dup2\n        /* \"#utility.yul\":8250:8254   */\n      dup2\n        /* \"#utility.yul\":8246:8266   */\n      sub\n        /* \"#utility.yul\":8242:8243   */\n      0x00\n        /* \"#utility.yul\":8231:8240   */\n      dup4\n        /* \"#utility.yul\":8227:8244   */\n      add\n        /* \"#utility.yul\":8220:8267   */\n      mstore\n        /* \"#utility.yul\":8284:8392   */\n      tag_358\n        /* \"#utility.yul\":8387:8391   */\n      dup2\n        /* \"#utility.yul\":8378:8384   */\n      dup5\n        /* \"#utility.yul\":8284:8392   */\n      tag_258\n      jump\t// in\n    tag_358:\n        /* \"#utility.yul\":8276:8392   */\n      swap1\n      pop\n        /* \"#utility.yul\":8026:8399   */\n      swap3\n      swap2\n      pop\n      pop\n      jump\t// out\n        /* \"#utility.yul\":8405:8734   */\n    tag_63:\n        /* \"#utility.yul\":8464:8470   */\n      0x00\n        /* \"#utility.yul\":8513:8515   */\n      0x20\n        /* \"#utility.yul\":8501:8510   */\n      dup3\n        /* \"#utility.yul\":8492:8499   */\n      dup5\n        /* \"#utility.yul\":8488:8511   */\n      sub\n        /* \"#utility.yul\":8484:8516   */\n      slt\n        /* \"#utility.yul\":8481:8600   */\n      iszero\n      tag_360\n      jumpi\n        /* \"#utility.yul\":8519:8598   */\n      tag_361\n      tag_227\n      jump\t// in\n    tag_361:\n        /* \"#utility.yul\":8481:8600   */\n    tag_360:\n        /* \"#utility.yul\":8639:8640   */\n      0x00\n        /* \"#utility.yul\":8664:8717   */\n      tag_362\n        /* \"#utility.yul\":8709:8716   */\n      dup5\n        /* \"#utility.yul\":8700:8706   */\n      dup3\n        /* \"#utility.yul\":8689:8698   */\n      dup6\n        /* \"#utility.yul\":8685:8707   */\n      add\n        /* \"#utility.yul\":8664:8717   */\n      tag_242\n      jump\t// in\n    tag_362:\n        /* \"#utility.yul\":8654:8717   */\n      swap2\n      pop\n        /* \"#utility.yul\":8610:8727   */\n      pop\n        /* \"#utility.yul\":8405:8734   */\n      swap3\n      swap2\n      pop\n      pop\n      jump\t// out\n        /* \"#utility.yul\":8740:9273   */\n    tag_75:\n        /* \"#utility.yul\":8909:8913   */\n      0x00\n        /* \"#utility.yul\":8947:8949   */\n      0x60\n        /* \"#utility.yul\":8936:8945   */\n      dup3\n        /* \"#utility.yul\":8932:8950   */\n      add\n        /* \"#utility.yul\":8924:8950   */\n      swap1\n      pop\n        /* \"#utility.yul\":8960:9031   */\n      tag_364\n        /* \"#utility.yul\":9028:9029   */\n      0x00\n        /* \"#utility.yul\":9017:9026   */\n      dup4\n        /* \"#utility.yul\":9013:9030   */\n      add\n        /* \"#utility.yul\":9004:9010   */\n      dup7\n        /* \"#utility.yul\":8960:9031   */\n      tag_238\n      jump\t// in\n    tag_364:\n        /* \"#utility.yul\":9041:9113   */\n      tag_365\n        /* \"#utility.yul\":9109:9111   */\n      0x20\n        /* \"#utility.yul\":9098:9107   */\n      dup4\n        /* \"#utility.yul\":9094:9112   */\n      add\n        /* \"#utility.yul\":9085:9091   */\n      dup6\n        /* \"#utility.yul\":9041:9113   */\n      tag_240\n      jump\t// in\n    tag_365:\n        /* \"#utility.yul\":9160:9169   */\n      dup2\n        /* \"#utility.yul\":9154:9158   */\n      dup2\n        /* \"#utility.yul\":9150:9170   */\n      sub\n        /* \"#utility.yul\":9145:9147   */\n      0x40\n        /* \"#utility.yul\":9134:9143   */\n      dup4\n        /* \"#utility.yul\":9130:9148   */\n      add\n        /* \"#utility.yul\":9123:9171   */\n      mstore\n        /* \"#utility.yul\":9188:9266   */\n      tag_366\n        /* \"#utility.yul\":9261:9265   */\n      dup2\n        /* \"#utility.yul\":9252:9258   */\n      dup5\n        /* \"#utility.yul\":9188:9266   */\n      tag_237\n      jump\t// in\n    tag_366:\n        /* \"#utility.yul\":9180:9266   */\n      swap1\n      pop\n        /* \"#utility.yul\":8740:9273   */\n      swap5\n      swap4\n      pop\n      pop\n      pop\n      pop\n      jump\t// out\n        /* \"#utility.yul\":9279:9812   */\n    tag_80:\n        /* \"#utility.yul\":9448:9452   */\n      0x00\n        /* \"#utility.yul\":9486:9488   */\n      0x60\n        /* \"#utility.yul\":9475:9484   */\n      dup3\n        /* \"#utility.yul\":9471:9489   */\n      add\n        /* \"#utility.yul\":9463:9489   */\n      swap1\n      pop\n        /* \"#utility.yul\":9499:9570   */\n      tag_368\n        /* \"#utility.yul\":9567:9568   */\n      0x00\n        /* \"#utility.yul\":9556:9565   */\n      dup4\n        /* \"#utility.yul\":9552:9569   */\n      add\n        /* \"#utility.yul\":9543:9549   */\n      dup7\n        /* \"#utility.yul\":9499:9570   */\n      tag_240\n      jump\t// in\n    tag_368:\n        /* \"#utility.yul\":9580:9652   */\n      tag_369\n        /* \"#utility.yul\":9648:9650   */\n      0x20\n        /* \"#utility.yul\":9637:9646   */\n      dup4\n        /* \"#utility.yul\":9633:9651   */\n      add\n        /* \"#utility.yul\":9624:9630   */\n      dup6\n        /* \"#utility.yul\":9580:9652   */\n      tag_238\n      jump\t// in\n    tag_369:\n        /* \"#utility.yul\":9699:9708   */\n      dup2\n        /* \"#utility.yul\":9693:9697   */\n      dup2\n        /* \"#utility.yul\":9689:9709   */\n      sub\n        /* \"#utility.yul\":9684:9686   */\n      0x40\n        /* \"#utility.yul\":9673:9682   */\n      dup4\n        /* \"#utility.yul\":9669:9687   */\n      add\n        /* \"#utility.yul\":9662:9710   */\n      mstore\n        /* \"#utility.yul\":9727:9805   */\n      tag_370\n        /* \"#utility.yul\":9800:9804   */\n      dup2\n        /* \"#utility.yul\":9791:9797   */\n      dup5\n        /* \"#utility.yul\":9727:9805   */\n      tag_237\n      jump\t// in\n    tag_370:\n        /* \"#utility.yul\":9719:9805   */\n      swap1\n      pop\n        /* \"#utility.yul\":9279:9812   */\n      swap5\n      swap4\n      pop\n      pop\n      pop\n      pop\n      jump\t// out\n        /* \"#utility.yul\":9818:10327   */\n    tag_89:\n        /* \"#utility.yul\":9887:9893   */\n      0x00\n        /* \"#utility.yul\":9936:9938   */\n      0x20\n        /* \"#utility.yul\":9924:9933   */\n      dup3\n        /* \"#utility.yul\":9915:9922   */\n      dup5\n        /* \"#utility.yul\":9911:9934   */\n      sub\n        /* \"#utility.yul\":9907:9939   */\n      slt\n        /* \"#utility.yul\":9904:10023   */\n      iszero\n      tag_372\n      jumpi\n        /* \"#utility.yul\":9942:10021   */\n      tag_373\n      tag_227\n      jump\t// in\n    tag_373:\n        /* \"#utility.yul\":9904:10023   */\n    tag_372:\n        /* \"#utility.yul\":10090:10091   */\n      0x00\n        /* \"#utility.yul\":10079:10088   */\n      dup3\n        /* \"#utility.yul\":10075:10092   */\n      add\n        /* \"#utility.yul\":10062:10093   */\n      calldataload\n        /* \"#utility.yul\":10120:10138   */\n      0xffffffffffffffff\n        /* \"#utility.yul\":10112:10118   */\n      dup2\n        /* \"#utility.yul\":10109:10139   */\n      gt\n        /* \"#utility.yul\":10106:10223   */\n      iszero\n      tag_374\n      jumpi\n        /* \"#utility.yul\":10142:10221   */\n      tag_375\n      tag_228\n      jump\t// in\n    tag_375:\n        /* \"#utility.yul\":10106:10223   */\n    tag_374:\n        /* \"#utility.yul\":10247:10310   */\n      tag_376\n        /* \"#utility.yul\":10302:10309   */\n      dup5\n        /* \"#utility.yul\":10293:10299   */\n      dup3\n        /* \"#utility.yul\":10282:10291   */\n      dup6\n        /* \"#utility.yul\":10278:10300   */\n      add\n        /* \"#utility.yul\":10247:10310   */\n      tag_251\n      jump\t// in\n    tag_376:\n        /* \"#utility.yul\":10237:10310   */\n      swap2\n      pop\n        /* \"#utility.yul\":10033:10320   */\n      pop\n        /* \"#utility.yul\":9818:10327   */\n      swap3\n      swap2\n      pop\n      pop\n      jump\t// out\n        /* \"#utility.yul\":10333:11132   */\n    tag_108:\n        /* \"#utility.yul\":10420:10426   */\n      0x00\n        /* \"#utility.yul\":10428:10434   */\n      dup1\n        /* \"#utility.yul\":10436:10442   */\n      0x00\n        /* \"#utility.yul\":10485:10487   */\n      0x60\n        /* \"#utility.yul\":10473:10482   */\n      dup5\n        /* \"#utility.yul\":10464:10471   */\n      dup7\n        /* \"#utility.yul\":10460:10483   */\n      sub\n        /* \"#utility.yul\":10456:10488   */\n      slt\n        /* \"#utility.yul\":10453:10572   */\n      iszero\n      tag_378\n      jumpi\n        /* \"#utility.yul\":10491:10570   */\n      tag_379\n      tag_227\n      jump\t// in\n    tag_379:\n        /* \"#utility.yul\":10453:10572   */\n    tag_378:\n        /* \"#utility.yul\":10639:10640   */\n      0x00\n        /* \"#utility.yul\":10628:10637   */\n      dup5\n        /* \"#utility.yul\":10624:10641   */\n      add\n        /* \"#utility.yul\":10611:10642   */\n      calldataload\n        /* \"#utility.yul\":10669:10687   */\n      0xffffffffffffffff\n        /* \"#utility.yul\":10661:10667   */\n      dup2\n        /* \"#utility.yul\":10658:10688   */\n      gt\n        /* \"#utility.yul\":10655:10772   */\n      iszero\n      tag_380\n      jumpi\n        /* \"#utility.yul\":10691:10770   */\n      tag_381\n      tag_228\n      jump\t// in\n    tag_381:\n        /* \"#utility.yul\":10655:10772   */\n    tag_380:\n        /* \"#utility.yul\":10796:10859   */\n      tag_382\n        /* \"#utility.yul\":10851:10858   */\n      dup7\n        /* \"#utility.yul\":10842:10848   */\n      dup3\n        /* \"#utility.yul\":10831:10840   */\n      dup8\n        /* \"#utility.yul\":10827:10849   */\n      add\n        /* \"#utility.yul\":10796:10859   */\n      tag_251\n      jump\t// in\n    tag_382:\n        /* \"#utility.yul\":10786:10859   */\n      swap4\n      pop\n        /* \"#utility.yul\":10582:10869   */\n      pop\n        /* \"#utility.yul\":10908:10910   */\n      0x20\n        /* \"#utility.yul\":10934:10987   */\n      tag_383\n        /* \"#utility.yul\":10979:10986   */\n      dup7\n        /* \"#utility.yul\":10970:10976   */\n      dup3\n        /* \"#utility.yul\":10959:10968   */\n      dup8\n        /* \"#utility.yul\":10955:10977   */\n      add\n        /* \"#utility.yul\":10934:10987   */\n      tag_242\n      jump\t// in\n    tag_383:\n        /* \"#utility.yul\":10924:10987   */\n      swap3\n      pop\n        /* \"#utility.yul\":10879:10997   */\n      pop\n        /* \"#utility.yul\":11036:11038   */\n      0x40\n        /* \"#utility.yul\":11062:11115   */\n      tag_384\n        /* \"#utility.yul\":11107:11114   */\n      dup7\n        /* \"#utility.yul\":11098:11104   */\n      dup3\n        /* \"#utility.yul\":11087:11096   */\n      dup8\n        /* \"#utility.yul\":11083:11105   */\n      add\n        /* \"#utility.yul\":11062:11115   */\n      tag_242\n      jump\t// in\n    tag_384:\n        /* \"#utility.yul\":11052:11115   */\n      swap2\n      pop\n        /* \"#utility.yul\":11007:11125   */\n      pop\n        /* \"#utility.yul\":10333:11132   */\n      swap3\n      pop\n      swap3\n      pop\n      swap3\n      jump\t// out\n        /* \"#utility.yul\":11138:11318   */\n    tag_259:\n        /* \"#utility.yul\":11186:11263   */\n      0x4e487b7100000000000000000000000000000000000000000000000000000000\n        /* \"#utility.yul\":11183:11184   */\n      0x00\n        /* \"#utility.yul\":11176:11264   */\n      mstore\n        /* \"#utility.yul\":11283:11287   */\n      0x22\n        /* \"#utility.yul\":11280:11281   */\n      0x04\n        /* \"#utility.yul\":11273:11288   */\n      mstore\n        /* \"#utility.yul\":11307:11311   */\n      0x24\n        /* \"#utility.yul\":11304:11305   */\n      0x00\n        /* \"#utility.yul\":11297:11312   */\n      revert\n        /* \"#utility.yul\":11324:11644   */\n    tag_117:\n        /* \"#utility.yul\":11368:11374   */\n      0x00\n        /* \"#utility.yul\":11405:11406   */\n      0x02\n        /* \"#utility.yul\":11399:11403   */\n      dup3\n        /* \"#utility.yul\":11395:11407   */\n      div\n        /* \"#utility.yul\":11385:11407   */\n      swap1\n      pop\n        /* \"#utility.yul\":11452:11453   */\n      0x01\n        /* \"#utility.yul\":11446:11450   */\n      dup3\n        /* \"#utility.yul\":11442:11454   */\n      and\n        /* \"#utility.yul\":11473:11491   */\n      dup1\n        /* \"#utility.yul\":11463:11544   */\n      tag_387\n      jumpi\n        /* \"#utility.yul\":11529:11533   */\n      0x7f\n        /* \"#utility.yul\":11521:11527   */\n      dup3\n        /* \"#utility.yul\":11517:11534   */\n      and\n        /* \"#utility.yul\":11507:11534   */\n      swap2\n      pop\n        /* \"#utility.yul\":11463:11544   */\n    tag_387:\n        /* \"#utility.yul\":11591:11593   */\n      0x20\n        /* \"#utility.yul\":11583:11589   */\n      dup3\n        /* \"#utility.yul\":11580:11594   */\n      lt\n        /* \"#utility.yul\":11560:11578   */\n      dup2\n        /* \"#utility.yul\":11557:11595   */\n      sub\n        /* \"#utility.yul\":11554:11638   */\n      tag_388\n      jumpi\n        /* \"#utility.yul\":11610:11628   */\n      tag_389\n      tag_259\n      jump\t// in\n    tag_389:\n        /* \"#utility.yul\":11554:11638   */\n    tag_388:\n        /* \"#utility.yul\":11375:11644   */\n      pop\n        /* \"#utility.yul\":11324:11644   */\n      swap2\n      swap1\n      pop\n      jump\t// out\n        /* \"#utility.yul\":11650:11830   */\n    tag_140:\n        /* \"#utility.yul\":11698:11775   */\n      0x4e487b7100000000000000000000000000000000000000000000000000000000\n        /* \"#utility.yul\":11695:11696   */\n      0x00\n        /* \"#utility.yul\":11688:11776   */\n      mstore\n        /* \"#utility.yul\":11795:11799   */\n      0x32\n        /* \"#utility.yul\":11792:11793   */\n      0x04\n        /* \"#utility.yul\":11785:11800   */\n      mstore\n        /* \"#utility.yul\":11819:11823   */\n      0x24\n        /* \"#utility.yul\":11816:11817   */\n      0x00\n        /* \"#utility.yul\":11809:11824   */\n      revert\n        /* \"#utility.yul\":11836:12016   */\n    tag_260:\n        /* \"#utility.yul\":11884:11961   */\n      0x4e487b7100000000000000000000000000000000000000000000000000000000\n        /* \"#utility.yul\":11881:11882   */\n      0x00\n        /* \"#utility.yul\":11874:11962   */\n      mstore\n        /* \"#utility.yul\":11981:11985   */\n      0x11\n        /* \"#utility.yul\":11978:11979   */\n      0x04\n        /* \"#utility.yul\":11971:11986   */\n      mstore\n        /* \"#utility.yul\":12005:12009   */\n      0x24\n        /* \"#utility.yul\":12002:12003   */\n      0x00\n        /* \"#utility.yul\":11995:12010   */\n      revert\n        /* \"#utility.yul\":12022:12327   */\n    tag_145:\n        /* \"#utility.yul\":12062:12065   */\n      0x00\n        /* \"#utility.yul\":12081:12101   */\n      tag_393\n        /* \"#utility.yul\":12099:12100   */\n      dup3\n        /* \"#utility.yul\":12081:12101   */\n      tag_239\n      jump\t// in\n    tag_393:\n        /* \"#utility.yul\":12076:12101   */\n      swap2\n      pop\n        /* \"#utility.yul\":12115:12135   */\n      tag_394\n        /* \"#utility.yul\":12133:12134   */\n      dup4\n        /* \"#utility.yul\":12115:12135   */\n      tag_239\n      jump\t// in\n    tag_394:\n        /* \"#utility.yul\":12110:12135   */\n      swap3\n      pop\n        /* \"#utility.yul\":12269:12270   */\n      dup3\n        /* \"#utility.yul\":12201:12267   */\n      0xffffffffffffffffffffffffffffffffffffffffffffffffffffffffffffffff\n        /* \"#utility.yul\":12197:12271   */\n      sub\n        /* \"#utility.yul\":12194:12195   */\n      dup3\n        /* \"#utility.yul\":12191:12272   */\n      gt\n        /* \"#utility.yul\":12188:12295   */\n      iszero\n      tag_395\n      jumpi\n        /* \"#utility.yul\":12275:12293   */\n      tag_396\n      tag_260\n      jump\t// in\n    tag_396:\n        /* \"#utility.yul\":12188:12295   */\n    tag_395:\n        /* \"#utility.yul\":12319:12320   */\n      dup3\n        /* \"#utility.yul\":12316:12317   */\n      dup3\n        /* \"#utility.yul\":12312:12321   */\n      add\n        /* \"#utility.yul\":12305:12321   */\n      swap1\n      pop\n        /* \"#utility.yul\":12022:12327   */\n      swap3\n      swap2\n      pop\n      pop\n      jump\t// out\n        /* \"#utility.yul\":12333:12559   */\n    tag_261:\n        /* \"#utility.yul\":12473:12507   */\n      0x4f6e6c792061756374696f6e6565722063616e2063616c6c2074686973206675\n        /* \"#utility.yul\":12469:12470   */\n      0x00\n        /* \"#utility.yul\":12461:12467   */\n      dup3\n        /* \"#utility.yul\":12457:12471   */\n      add\n        /* \"#utility.yul\":12450:12508   */\n      mstore\n        /* \"#utility.yul\":12542:12551   */\n      0x6e6374696f6e2e00000000000000000000000000000000000000000000000000\n        /* \"#utility.yul\":12537:12539   */\n      0x20\n        /* \"#utility.yul\":12529:12535   */\n      dup3\n        /* \"#utility.yul\":12525:12540   */\n      add\n        /* \"#utility.yul\":12518:12552   */\n      mstore\n        /* \"#utility.yul\":12333:12559   */\n      pop\n      jump\t// out\n        /* \"#utility.yul\":12565:12931   */\n    tag_262:\n        /* \"#utility.yul\":12707:12710   */\n      0x00\n        /* \"#utility.yul\":12728:12795   */\n      tag_399\n        /* \"#utility.yul\":12792:12794   */\n      0x27\n        /* \"#utility.yul\":12787:12790   */\n      dup4\n        /* \"#utility.yul\":12728:12795   */\n      tag_234\n      jump\t// in\n    tag_399:\n        /* \"#utility.yul\":12721:12795   */\n      swap2\n      pop\n        /* \"#utility.yul\":12804:12897   */\n      tag_400\n        /* \"#utility.yul\":12893:12896   */\n      dup3\n        /* \"#utility.yul\":12804:12897   */\n      tag_261\n      jump\t// in\n    tag_400:\n        /* \"#utility.yul\":12922:12924   */\n      0x40\n        /* \"#utility.yul\":12917:12920   */\n      dup3\n        /* \"#utility.yul\":12913:12925   */\n      add\n        /* \"#utility.yul\":12906:12925   */\n      swap1\n      pop\n        /* \"#utility.yul\":12565:12931   */\n      swap2\n      swap1\n      pop\n      jump\t// out\n        /* \"#utility.yul\":12937:13356   */\n    tag_199:\n        /* \"#utility.yul\":13103:13107   */\n      0x00\n        /* \"#utility.yul\":13141:13143   */\n      0x20\n        /* \"#utility.yul\":13130:13139   */\n      dup3\n        /* \"#utility.yul\":13126:13144   */\n      add\n        /* \"#utility.yul\":13118:13144   */\n      swap1\n      pop\n        /* \"#utility.yul\":13190:13199   */\n      dup2\n        /* \"#utility.yul\":13184:13188   */\n      dup2\n        /* \"#utility.yul\":13180:13200   */\n      sub\n        /* \"#utility.yul\":13176:13177   */\n      0x00\n        /* \"#utility.yul\":13165:13174   */\n      dup4\n        /* \"#utility.yul\":13161:13178   */\n      add\n        /* \"#utility.yul\":13154:13201   */\n      mstore\n        /* \"#utility.yul\":13218:13349   */\n      tag_402\n        /* \"#utility.yul\":13344:13348   */\n      dup2\n        /* \"#utility.yul\":13218:13349   */\n      tag_262\n      jump\t// in\n    tag_402:\n        /* \"#utility.yul\":13210:13349   */\n      swap1\n      pop\n        /* \"#utility.yul\":12937:13356   */\n      swap2\n      swap1\n      pop\n      jump\t// out\n\n    auxdata: 0xa2646970667358221220ad92a1ba06749536a76ca77209ff09dc99d22c8a7388ce81373d84b20eaca18364736f6c634300080e0033\n}\n",
				"bytecode": {
					"linkReferences": {},
					"object": "608060405234801561001057600080fd5b50611809806100206000396000f3fe608060405234801561001057600080fd5b50600436106101585760003560e01c80638f772f96116100c3578063d826f88f1161007c578063d826f88f146103bd578063daa0218f146103c7578063dca49f4a146103e5578063e7d2a99714610403578063ed7a4e0b1461041f578063f356733c1461043d57610158565b80638f772f96146102e5578063938626c214610317578063c8bca73214610335578063ca142b5614610353578063ceb98f6e1461036f578063cff29dfd1461038d57610158565b80633a79d2e5116101155780633a79d2e51461023357806340bd5937146102515780635fa382801461025b57806366c85dee1461028b57806383050daa146102a75780638e7ea5b2146102c557610158565b806305fb23cf1461015d57806310a37c261461018d57806311631d06146101ab5780631744e03b146101c957806334eb86a2146101e55780633817df4c14610203575b600080fd5b610177600480360381019061017291906110e9565b610447565b60405161018491906111af565b60405180910390f35b610195610518565b6040516101a291906111e0565b60405180910390f35b6101b3610542565b6040516101c09190611214565b60405180910390f35b6101e360048036038101906101de9190611390565b610548565b005b6101ed6105ab565b6040516101fa9190611214565b60405180910390f35b61021d600480360381019061021891906110e9565b6105b1565b60405161022a91906111af565b60405180910390f35b61023b610651565b60405161024891906114aa565b60405180910390f35b6102596106df565b005b610275600480360381019061027091906114cc565b610795565b60405161028291906111e0565b60405180910390f35b6102a560048036038101906102a09190611390565b6107dd565b005b6102af6108b3565b6040516102bc91906111af565b60405180910390f35b6102cd6108f0565b6040516102dc939291906114f9565b60405180910390f35b6102ff60048036038101906102fa91906114cc565b6109b4565b60405161030e93929190611537565b60405180910390f35b61031f610a96565b60405161032c91906111af565b60405180910390f35b61033d610b24565b60405161034a91906111af565b60405180910390f35b61036d60048036038101906103689190611575565b610bb6565b005b610377610c0d565b6040516103849190611214565b60405180910390f35b6103a760048036038101906103a291906114cc565b610c17565b6040516103b491906111e0565b60405180910390f35b6103c5610c56565b005b6103cf610d22565b6040516103dc9190611214565b60405180910390f35b6103ed610d28565b6040516103fa91906111af565b60405180910390f35b61041d600480360381019061041891906115be565b610db6565b005b610427610e6e565b60405161043491906111e0565b60405180910390f35b610445610e94565b005b6060600560008373ffffffffffffffffffffffffffffffffffffffff1673ffffffffffffffffffffffffffffffffffffffff16815260200190815260200160002080546104939061165c565b80601f01602080910402602001604051908101604052809291908181526020018280546104bf9061165c565b801561050c5780601f106104e15761010080835404028352916020019161050c565b820191906000526020600020905b8154815290600101906020018083116104ef57829003601f168201915b50505050509050919050565b6000600660009054906101000a900473ffffffffffffffffffffffffffffffffffffffff16905090565b60075481565b33600660006101000a81548173ffffffffffffffffffffffffffffffffffffffff021916908373ffffffffffffffffffffffffffffffffffffffff1602179055508160078190555080600890805190602001906105a6929190610ef9565b505050565b60035481565b600560205280600052604060002060009150905080546105d09061165c565b80601f01602080910402602001604051908101604052809291908181526020018280546105fc9061165c565b80156106495780601f1061061e57610100808354040283529160200191610649565b820191906000526020600020905b81548152906001019060200180831161062c57829003601f168201915b505050505081565b606060018054806020026020016040519081016040528092919081815260200182805480156106d557602002820191906000526020600020905b8160009054906101000a900473ffffffffffffffffffffffffffffffffffffffff1673ffffffffffffffffffffffffffffffffffffffff168152602001906001019080831161068b575b5050505050905090565b60005b600180549050811015610792576000600182815481106107055761070461168d565b5b9060005260206000200160009054906101000a900473ffffffffffffffffffffffffffffffffffffffff169050600560008273ffffffffffffffffffffffffffffffffffffffff1673ffffffffffffffffffffffffffffffffffffffff168152602001908152602001600020600061077d9190610f7f565b5060018161078b91906116eb565b90506106e2565b50565b6000600182815481106107ab576107aa61168d565b5b9060005260206000200160009054906101000a900473ffffffffffffffffffffffffffffffffffffffff169050919050565b600060405180606001604052808481526020013373ffffffffffffffffffffffffffffffffffffffff16815260200183815250905060098190806001815401808255809150506001900390600052602060002090600302016000909190919091506000820151816000015560208201518160010160006101000a81548173ffffffffffffffffffffffffffffffffffffffff021916908373ffffffffffffffffffffffffffffffffffffffff16021790555060408201518160020190805190602001906108ab929190610ef9565b505050505050565b60606040518060400160405280601781526020017f73616d706c6520737472696e672066726f6d20414b4542000000000000000000815250905090565b6000806060600660009054906101000a900473ffffffffffffffffffffffffffffffffffffffff1660075460088080546109299061165c565b80601f01602080910402602001604051908101604052809291908181526020018280546109559061165c565b80156109a25780601f10610977576101008083540402835291602001916109a2565b820191906000526020600020905b81548152906001019060200180831161098557829003601f168201915b50505050509050925092509250909192565b600981815481106109c457600080fd5b90600052602060002090600302016000915090508060000154908060010160009054906101000a900473ffffffffffffffffffffffffffffffffffffffff1690806002018054610a139061165c565b80601f0160208091040260200160405190810160405280929190818152602001828054610a3f9061165c565b8015610a8c5780601f10610a6157610100808354040283529160200191610a8c565b820191906000526020600020905b815481529060010190602001808311610a6f57829003601f168201915b5050505050905083565b60028054610aa39061165c565b80601f0160208091040260200160405190810160405280929190818152602001828054610acf9061165c565b8015610b1c5780601f10610af157610100808354040283529160200191610b1c565b820191906000526020600020905b815481529060010190602001808311610aff57829003601f168201915b505050505081565b606060088054610b339061165c565b80601f0160208091040260200160405190810160405280929190818152602001828054610b5f9061165c565b8015610bac5780601f10610b8157610100808354040283529160200191610bac565b820191906000526020600020905b815481529060010190602001808311610b8f57829003601f168201915b5050505050905090565b80600560003373ffffffffffffffffffffffffffffffffffffffff1673ffffffffffffffffffffffffffffffffffffffff1681526020019081526020016000209080519060200190610c09929190610ef9565b5050565b6000600754905090565b60018181548110610c2757600080fd5b906000526020600020016000915054906101000a900473ffffffffffffffffffffffffffffffffffffffff1681565b6000600660006101000a81548173ffffffffffffffffffffffffffffffffffffffff021916908373ffffffffffffffffffffffffffffffffffffffff16021790555060006007819055506040518060200160405280600081525060089080519060200190610cc5929190610ef9565b506040518060200160405280600081525060029080519060200190610ceb929190610ef9565b5060006003819055506000600481905550610d046106df565b60016000610d129190610fbf565b60096000610d209190610fe0565b565b60045481565b60088054610d359061165c565b80601f0160208091040260200160405190810160405280929190818152602001828054610d619061165c565b8015610dae5780601f10610d8357610100808354040283529160200191610dae565b820191906000526020600020905b815481529060010190602001808311610d9157829003601f168201915b505050505081565b60008054906101000a900473ffffffffffffffffffffffffffffffffffffffff1673ffffffffffffffffffffffffffffffffffffffff163373ffffffffffffffffffffffffffffffffffffffff1614610e44576040517f08c379a0000000000000000000000000000000000000000000000000000000008152600401610e3b906117b3565b60405180910390fd5b8260029080519060200190610e5a929190610ef9565b508160038190555080600481905550505050565b600660009054906101000a900473ffffffffffffffffffffffffffffffffffffffff1681565b6001339080600181540180825580915050600190039060005260206000200160009091909190916101000a81548173ffffffffffffffffffffffffffffffffffffffff021916908373ffffffffffffffffffffffffffffffffffffffff160217905550565b828054610f059061165c565b90600052602060002090601f016020900481019282610f275760008555610f6e565b82601f10610f4057805160ff1916838001178555610f6e565b82800160010185558215610f6e579182015b82811115610f6d578251825591602001919060010190610f52565b5b509050610f7b9190611004565b5090565b508054610f8b9061165c565b6000825580601f10610f9d5750610fbc565b601f016020900490600052602060002090810190610fbb9190611004565b5b50565b5080546000825590600052602060002090810190610fdd9190611004565b50565b50805460008255600302906000526020600020908101906110019190611021565b50565b5b8082111561101d576000816000905550600101611005565b5090565b5b80821115611073576000808201600090556001820160006101000a81549073ffffffffffffffffffffffffffffffffffffffff021916905560028201600061106a9190610f7f565b50600301611022565b5090565b6000604051905090565b600080fd5b600080fd5b600073ffffffffffffffffffffffffffffffffffffffff82169050919050565b60006110b68261108b565b9050919050565b6110c6816110ab565b81146110d157600080fd5b50565b6000813590506110e3816110bd565b92915050565b6000602082840312156110ff576110fe611081565b5b600061110d848285016110d4565b91505092915050565b600081519050919050565b600082825260208201905092915050565b60005b83811015611150578082015181840152602081019050611135565b8381111561115f576000848401525b50505050565b6000601f19601f8301169050919050565b600061118182611116565b61118b8185611121565b935061119b818560208601611132565b6111a481611165565b840191505092915050565b600060208201905081810360008301526111c98184611176565b905092915050565b6111da816110ab565b82525050565b60006020820190506111f560008301846111d1565b92915050565b6000819050919050565b61120e816111fb565b82525050565b60006020820190506112296000830184611205565b92915050565b611238816111fb565b811461124357600080fd5b50565b6000813590506112558161122f565b92915050565b600080fd5b600080fd5b7f4e487b7100000000000000000000000000000000000000000000000000000000600052604160045260246000fd5b61129d82611165565b810181811067ffffffffffffffff821117156112bc576112bb611265565b5b80604052505050565b60006112cf611077565b90506112db8282611294565b919050565b600067ffffffffffffffff8211156112fb576112fa611265565b5b61130482611165565b9050602081019050919050565b82818337600083830152505050565b600061133361132e846112e0565b6112c5565b90508281526020810184848401111561134f5761134e611260565b5b61135a848285611311565b509392505050565b600082601f8301126113775761137661125b565b5b8135611387848260208601611320565b91505092915050565b600080604083850312156113a7576113a6611081565b5b60006113b585828601611246565b925050602083013567ffffffffffffffff8111156113d6576113d5611086565b5b6113e285828601611362565b9150509250929050565b600081519050919050565b600082825260208201905092915050565b6000819050602082019050919050565b611421816110ab565b82525050565b60006114338383611418565b60208301905092915050565b6000602082019050919050565b6000611457826113ec565b61146181856113f7565b935061146c83611408565b8060005b8381101561149d5781516114848882611427565b975061148f8361143f565b925050600181019050611470565b5085935050505092915050565b600060208201905081810360008301526114c4818461144c565b905092915050565b6000602082840312156114e2576114e1611081565b5b60006114f084828501611246565b91505092915050565b600060608201905061150e60008301866111d1565b61151b6020830185611205565b818103604083015261152d8184611176565b9050949350505050565b600060608201905061154c6000830186611205565b61155960208301856111d1565b818103604083015261156b8184611176565b9050949350505050565b60006020828403121561158b5761158a611081565b5b600082013567ffffffffffffffff8111156115a9576115a8611086565b5b6115b584828501611362565b91505092915050565b6000806000606084860312156115d7576115d6611081565b5b600084013567ffffffffffffffff8111156115f5576115f4611086565b5b61160186828701611362565b935050602061161286828701611246565b925050604061162386828701611246565b9150509250925092565b7f4e487b7100000000000000000000000000000000000000000000000000000000600052602260045260246000fd5b6000600282049050600182168061167457607f821691505b6020821081036116875761168661162d565b5b50919050565b7f4e487b7100000000000000000000000000000000000000000000000000000000600052603260045260246000fd5b7f4e487b7100000000000000000000000000000000000000000000000000000000600052601160045260246000fd5b60006116f6826111fb565b9150611701836111fb565b9250827fffffffffffffffffffffffffffffffffffffffffffffffffffffffffffffffff03821115611736576117356116bc565b5b828201905092915050565b7f4f6e6c792061756374696f6e6565722063616e2063616c6c207468697320667560008201527f6e6374696f6e2e00000000000000000000000000000000000000000000000000602082015250565b600061179d602783611121565b91506117a882611741565b604082019050919050565b600060208201905081810360008301526117cc81611790565b905091905056fea2646970667358221220ad92a1ba06749536a76ca77209ff09dc99d22c8a7388ce81373d84b20eaca18364736f6c634300080e0033",
					"opcodes": "PUSH1 0x80 PUSH1 0x40 MSTORE CALLVALUE DUP1 ISZERO PUSH2 0x10 JUMPI PUSH1 0x0 DUP1 REVERT JUMPDEST POP PUSH2 0x1809 DUP1 PUSH2 0x20 PUSH1 0x0 CODECOPY PUSH1 0x0 RETURN INVALID PUSH1 0x80 PUSH1 0x40 MSTORE CALLVALUE DUP1 ISZERO PUSH2 0x10 JUMPI PUSH1 0x0 DUP1 REVERT JUMPDEST POP PUSH1 0x4 CALLDATASIZE LT PUSH2 0x158 JUMPI PUSH1 0x0 CALLDATALOAD PUSH1 0xE0 SHR DUP1 PUSH4 0x8F772F96 GT PUSH2 0xC3 JUMPI DUP1 PUSH4 0xD826F88F GT PUSH2 0x7C JUMPI DUP1 PUSH4 0xD826F88F EQ PUSH2 0x3BD JUMPI DUP1 PUSH4 0xDAA0218F EQ PUSH2 0x3C7 JUMPI DUP1 PUSH4 0xDCA49F4A EQ PUSH2 0x3E5 JUMPI DUP1 PUSH4 0xE7D2A997 EQ PUSH2 0x403 JUMPI DUP1 PUSH4 0xED7A4E0B EQ PUSH2 0x41F JUMPI DUP1 PUSH4 0xF356733C EQ PUSH2 0x43D JUMPI PUSH2 0x158 JUMP JUMPDEST DUP1 PUSH4 0x8F772F96 EQ PUSH2 0x2E5 JUMPI DUP1 PUSH4 0x938626C2 EQ PUSH2 0x317 JUMPI DUP1 PUSH4 0xC8BCA732 EQ PUSH2 0x335 JUMPI DUP1 PUSH4 0xCA142B56 EQ PUSH2 0x353 JUMPI DUP1 PUSH4 0xCEB98F6E EQ PUSH2 0x36F JUMPI DUP1 PUSH4 0xCFF29DFD EQ PUSH2 0x38D JUMPI PUSH2 0x158 JUMP JUMPDEST DUP1 PUSH4 0x3A79D2E5 GT PUSH2 0x115 JUMPI DUP1 PUSH4 0x3A79D2E5 EQ PUSH2 0x233 JUMPI DUP1 PUSH4 0x40BD5937 EQ PUSH2 0x251 JUMPI DUP1 PUSH4 0x5FA38280 EQ PUSH2 0x25B JUMPI DUP1 PUSH4 0x66C85DEE EQ PUSH2 0x28B JUMPI DUP1 PUSH4 0x83050DAA EQ PUSH2 0x2A7 JUMPI DUP1 PUSH4 0x8E7EA5B2 EQ PUSH2 0x2C5 JUMPI PUSH2 0x158 JUMP JUMPDEST DUP1 PUSH4 0x5FB23CF EQ PUSH2 0x15D JUMPI DUP1 PUSH4 0x10A37C26 EQ PUSH2 0x18D JUMPI DUP1 PUSH4 0x11631D06 EQ PUSH2 0x1AB JUMPI DUP1 PUSH4 0x1744E03B EQ PUSH2 0x1C9 JUMPI DUP1 PUSH4 0x34EB86A2 EQ PUSH2 0x1E5 JUMPI DUP1 PUSH4 0x3817DF4C EQ PUSH2 0x203 JUMPI JUMPDEST PUSH1 0x0 DUP1 REVERT JUMPDEST PUSH2 0x177 PUSH1 0x4 DUP1 CALLDATASIZE SUB DUP2 ADD SWAP1 PUSH2 0x172 SWAP2 SWAP1 PUSH2 0x10E9 JUMP JUMPDEST PUSH2 0x447 JUMP JUMPDEST PUSH1 0x40 MLOAD PUSH2 0x184 SWAP2 SWAP1 PUSH2 0x11AF JUMP JUMPDEST PUSH1 0x40 MLOAD DUP1 SWAP2 SUB SWAP1 RETURN JUMPDEST PUSH2 0x195 PUSH2 0x518 JUMP JUMPDEST PUSH1 0x40 MLOAD PUSH2 0x1A2 SWAP2 SWAP1 PUSH2 0x11E0 JUMP JUMPDEST PUSH1 0x40 MLOAD DUP1 SWAP2 SUB SWAP1 RETURN JUMPDEST PUSH2 0x1B3 PUSH2 0x542 JUMP JUMPDEST PUSH1 0x40 MLOAD PUSH2 0x1C0 SWAP2 SWAP1 PUSH2 0x1214 JUMP JUMPDEST PUSH1 0x40 MLOAD DUP1 SWAP2 SUB SWAP1 RETURN JUMPDEST PUSH2 0x1E3 PUSH1 0x4 DUP1 CALLDATASIZE SUB DUP2 ADD SWAP1 PUSH2 0x1DE SWAP2 SWAP1 PUSH2 0x1390 JUMP JUMPDEST PUSH2 0x548 JUMP JUMPDEST STOP JUMPDEST PUSH2 0x1ED PUSH2 0x5AB JUMP JUMPDEST PUSH1 0x40 MLOAD PUSH2 0x1FA SWAP2 SWAP1 PUSH2 0x1214 JUMP JUMPDEST PUSH1 0x40 MLOAD DUP1 SWAP2 SUB SWAP1 RETURN JUMPDEST PUSH2 0x21D PUSH1 0x4 DUP1 CALLDATASIZE SUB DUP2 ADD SWAP1 PUSH2 0x218 SWAP2 SWAP1 PUSH2 0x10E9 JUMP JUMPDEST PUSH2 0x5B1 JUMP JUMPDEST PUSH1 0x40 MLOAD PUSH2 0x22A SWAP2 SWAP1 PUSH2 0x11AF JUMP JUMPDEST PUSH1 0x40 MLOAD DUP1 SWAP2 SUB SWAP1 RETURN JUMPDEST PUSH2 0x23B PUSH2 0x651 JUMP JUMPDEST PUSH1 0x40 MLOAD PUSH2 0x248 SWAP2 SWAP1 PUSH2 0x14AA JUMP JUMPDEST PUSH1 0x40 MLOAD DUP1 SWAP2 SUB SWAP1 RETURN JUMPDEST PUSH2 0x259 PUSH2 0x6DF JUMP JUMPDEST STOP JUMPDEST PUSH2 0x275 PUSH1 0x4 DUP1 CALLDATASIZE SUB DUP2 ADD SWAP1 PUSH2 0x270 SWAP2 SWAP1 PUSH2 0x14CC JUMP JUMPDEST PUSH2 0x795 JUMP JUMPDEST PUSH1 0x40 MLOAD PUSH2 0x282 SWAP2 SWAP1 PUSH2 0x11E0 JUMP JUMPDEST PUSH1 0x40 MLOAD DUP1 SWAP2 SUB SWAP1 RETURN JUMPDEST PUSH2 0x2A5 PUSH1 0x4 DUP1 CALLDATASIZE SUB DUP2 ADD SWAP1 PUSH2 0x2A0 SWAP2 SWAP1 PUSH2 0x1390 JUMP JUMPDEST PUSH2 0x7DD JUMP JUMPDEST STOP JUMPDEST PUSH2 0x2AF PUSH2 0x8B3 JUMP JUMPDEST PUSH1 0x40 MLOAD PUSH2 0x2BC SWAP2 SWAP1 PUSH2 0x11AF JUMP JUMPDEST PUSH1 0x40 MLOAD DUP1 SWAP2 SUB SWAP1 RETURN JUMPDEST PUSH2 0x2CD PUSH2 0x8F0 JUMP JUMPDEST PUSH1 0x40 MLOAD PUSH2 0x2DC SWAP4 SWAP3 SWAP2 SWAP1 PUSH2 0x14F9 JUMP JUMPDEST PUSH1 0x40 MLOAD DUP1 SWAP2 SUB SWAP1 RETURN JUMPDEST PUSH2 0x2FF PUSH1 0x4 DUP1 CALLDATASIZE SUB DUP2 ADD SWAP1 PUSH2 0x2FA SWAP2 SWAP1 PUSH2 0x14CC JUMP JUMPDEST PUSH2 0x9B4 JUMP JUMPDEST PUSH1 0x40 MLOAD PUSH2 0x30E SWAP4 SWAP3 SWAP2 SWAP1 PUSH2 0x1537 JUMP JUMPDEST PUSH1 0x40 MLOAD DUP1 SWAP2 SUB SWAP1 RETURN JUMPDEST PUSH2 0x31F PUSH2 0xA96 JUMP JUMPDEST PUSH1 0x40 MLOAD PUSH2 0x32C SWAP2 SWAP1 PUSH2 0x11AF JUMP JUMPDEST PUSH1 0x40 MLOAD DUP1 SWAP2 SUB SWAP1 RETURN JUMPDEST PUSH2 0x33D PUSH2 0xB24 JUMP JUMPDEST PUSH1 0x40 MLOAD PUSH2 0x34A SWAP2 SWAP1 PUSH2 0x11AF JUMP JUMPDEST PUSH1 0x40 MLOAD DUP1 SWAP2 SUB SWAP1 RETURN JUMPDEST PUSH2 0x36D PUSH1 0x4 DUP1 CALLDATASIZE SUB DUP2 ADD SWAP1 PUSH2 0x368 SWAP2 SWAP1 PUSH2 0x1575 JUMP JUMPDEST PUSH2 0xBB6 JUMP JUMPDEST STOP JUMPDEST PUSH2 0x377 PUSH2 0xC0D JUMP JUMPDEST PUSH1 0x40 MLOAD PUSH2 0x384 SWAP2 SWAP1 PUSH2 0x1214 JUMP JUMPDEST PUSH1 0x40 MLOAD DUP1 SWAP2 SUB SWAP1 RETURN JUMPDEST PUSH2 0x3A7 PUSH1 0x4 DUP1 CALLDATASIZE SUB DUP2 ADD SWAP1 PUSH2 0x3A2 SWAP2 SWAP1 PUSH2 0x14CC JUMP JUMPDEST PUSH2 0xC17 JUMP JUMPDEST PUSH1 0x40 MLOAD PUSH2 0x3B4 SWAP2 SWAP1 PUSH2 0x11E0 JUMP JUMPDEST PUSH1 0x40 MLOAD DUP1 SWAP2 SUB SWAP1 RETURN JUMPDEST PUSH2 0x3C5 PUSH2 0xC56 JUMP JUMPDEST STOP JUMPDEST PUSH2 0x3CF PUSH2 0xD22 JUMP JUMPDEST PUSH1 0x40 MLOAD PUSH2 0x3DC SWAP2 SWAP1 PUSH2 0x1214 JUMP JUMPDEST PUSH1 0x40 MLOAD DUP1 SWAP2 SUB SWAP1 RETURN JUMPDEST PUSH2 0x3ED PUSH2 0xD28 JUMP JUMPDEST PUSH1 0x40 MLOAD PUSH2 0x3FA SWAP2 SWAP1 PUSH2 0x11AF JUMP JUMPDEST PUSH1 0x40 MLOAD DUP1 SWAP2 SUB SWAP1 RETURN JUMPDEST PUSH2 0x41D PUSH1 0x4 DUP1 CALLDATASIZE SUB DUP2 ADD SWAP1 PUSH2 0x418 SWAP2 SWAP1 PUSH2 0x15BE JUMP JUMPDEST PUSH2 0xDB6 JUMP JUMPDEST STOP JUMPDEST PUSH2 0x427 PUSH2 0xE6E JUMP JUMPDEST PUSH1 0x40 MLOAD PUSH2 0x434 SWAP2 SWAP1 PUSH2 0x11E0 JUMP JUMPDEST PUSH1 0x40 MLOAD DUP1 SWAP2 SUB SWAP1 RETURN JUMPDEST PUSH2 0x445 PUSH2 0xE94 JUMP JUMPDEST STOP JUMPDEST PUSH1 0x60 PUSH1 0x5 PUSH1 0x0 DUP4 PUSH20 0xFFFFFFFFFFFFFFFFFFFFFFFFFFFFFFFFFFFFFFFF AND PUSH20 0xFFFFFFFFFFFFFFFFFFFFFFFFFFFFFFFFFFFFFFFF AND DUP2 MSTORE PUSH1 0x20 ADD SWAP1 DUP2 MSTORE PUSH1 0x20 ADD PUSH1 0x0 KECCAK256 DUP1 SLOAD PUSH2 0x493 SWAP1 PUSH2 0x165C JUMP JUMPDEST DUP1 PUSH1 0x1F ADD PUSH1 0x20 DUP1 SWAP2 DIV MUL PUSH1 0x20 ADD PUSH1 0x40 MLOAD SWAP1 DUP2 ADD PUSH1 0x40 MSTORE DUP1 SWAP3 SWAP2 SWAP1 DUP2 DUP2 MSTORE PUSH1 0x20 ADD DUP3 DUP1 SLOAD PUSH2 0x4BF SWAP1 PUSH2 0x165C JUMP JUMPDEST DUP1 ISZERO PUSH2 0x50C JUMPI DUP1 PUSH1 0x1F LT PUSH2 0x4E1 JUMPI PUSH2 0x100 DUP1 DUP4 SLOAD DIV MUL DUP4 MSTORE SWAP2 PUSH1 0x20 ADD SWAP2 PUSH2 0x50C JUMP JUMPDEST DUP3 ADD SWAP2 SWAP1 PUSH1 0x0 MSTORE PUSH1 0x20 PUSH1 0x0 KECCAK256 SWAP1 JUMPDEST DUP2 SLOAD DUP2 MSTORE SWAP1 PUSH1 0x1 ADD SWAP1 PUSH1 0x20 ADD DUP1 DUP4 GT PUSH2 0x4EF JUMPI DUP3 SWAP1 SUB PUSH1 0x1F AND DUP3 ADD SWAP2 JUMPDEST POP POP POP POP POP SWAP1 POP SWAP2 SWAP1 POP JUMP JUMPDEST PUSH1 0x0 PUSH1 0x6 PUSH1 0x0 SWAP1 SLOAD SWAP1 PUSH2 0x100 EXP SWAP1 DIV PUSH20 0xFFFFFFFFFFFFFFFFFFFFFFFFFFFFFFFFFFFFFFFF AND SWAP1 POP SWAP1 JUMP JUMPDEST PUSH1 0x7 SLOAD DUP2 JUMP JUMPDEST CALLER PUSH1 0x6 PUSH1 0x0 PUSH2 0x100 EXP DUP2 SLOAD DUP2 PUSH20 0xFFFFFFFFFFFFFFFFFFFFFFFFFFFFFFFFFFFFFFFF MUL NOT AND SWAP1 DUP4 PUSH20 0xFFFFFFFFFFFFFFFFFFFFFFFFFFFFFFFFFFFFFFFF AND MUL OR SWAP1 SSTORE POP DUP2 PUSH1 0x7 DUP2 SWAP1 SSTORE POP DUP1 PUSH1 0x8 SWAP1 DUP1 MLOAD SWAP1 PUSH1 0x20 ADD SWAP1 PUSH2 0x5A6 SWAP3 SWAP2 SWAP1 PUSH2 0xEF9 JUMP JUMPDEST POP POP POP JUMP JUMPDEST PUSH1 0x3 SLOAD DUP2 JUMP JUMPDEST PUSH1 0x5 PUSH1 0x20 MSTORE DUP1 PUSH1 0x0 MSTORE PUSH1 0x40 PUSH1 0x0 KECCAK256 PUSH1 0x0 SWAP2 POP SWAP1 POP DUP1 SLOAD PUSH2 0x5D0 SWAP1 PUSH2 0x165C JUMP JUMPDEST DUP1 PUSH1 0x1F ADD PUSH1 0x20 DUP1 SWAP2 DIV MUL PUSH1 0x20 ADD PUSH1 0x40 MLOAD SWAP1 DUP2 ADD PUSH1 0x40 MSTORE DUP1 SWAP3 SWAP2 SWAP1 DUP2 DUP2 MSTORE PUSH1 0x20 ADD DUP3 DUP1 SLOAD PUSH2 0x5FC SWAP1 PUSH2 0x165C JUMP JUMPDEST DUP1 ISZERO PUSH2 0x649 JUMPI DUP1 PUSH1 0x1F LT PUSH2 0x61E JUMPI PUSH2 0x100 DUP1 DUP4 SLOAD DIV MUL DUP4 MSTORE SWAP2 PUSH1 0x20 ADD SWAP2 PUSH2 0x649 JUMP JUMPDEST DUP3 ADD SWAP2 SWAP1 PUSH1 0x0 MSTORE PUSH1 0x20 PUSH1 0x0 KECCAK256 SWAP1 JUMPDEST DUP2 SLOAD DUP2 MSTORE SWAP1 PUSH1 0x1 ADD SWAP1 PUSH1 0x20 ADD DUP1 DUP4 GT PUSH2 0x62C JUMPI DUP3 SWAP1 SUB PUSH1 0x1F AND DUP3 ADD SWAP2 JUMPDEST POP POP POP POP POP DUP2 JUMP JUMPDEST PUSH1 0x60 PUSH1 0x1 DUP1 SLOAD DUP1 PUSH1 0x20 MUL PUSH1 0x20 ADD PUSH1 0x40 MLOAD SWAP1 DUP2 ADD PUSH1 0x40 MSTORE DUP1 SWAP3 SWAP2 SWAP1 DUP2 DUP2 MSTORE PUSH1 0x20 ADD DUP3 DUP1 SLOAD DUP1 ISZERO PUSH2 0x6D5 JUMPI PUSH1 0x20 MUL DUP3 ADD SWAP2 SWAP1 PUSH1 0x0 MSTORE PUSH1 0x20 PUSH1 0x0 KECCAK256 SWAP1 JUMPDEST DUP2 PUSH1 0x0 SWAP1 SLOAD SWAP1 PUSH2 0x100 EXP SWAP1 DIV PUSH20 0xFFFFFFFFFFFFFFFFFFFFFFFFFFFFFFFFFFFFFFFF AND PUSH20 0xFFFFFFFFFFFFFFFFFFFFFFFFFFFFFFFFFFFFFFFF AND DUP2 MSTORE PUSH1 0x20 ADD SWAP1 PUSH1 0x1 ADD SWAP1 DUP1 DUP4 GT PUSH2 0x68B JUMPI JUMPDEST POP POP POP POP POP SWAP1 POP SWAP1 JUMP JUMPDEST PUSH1 0x0 JUMPDEST PUSH1 0x1 DUP1 SLOAD SWAP1 POP DUP2 LT ISZERO PUSH2 0x792 JUMPI PUSH1 0x0 PUSH1 0x1 DUP3 DUP2 SLOAD DUP2 LT PUSH2 0x705 JUMPI PUSH2 0x704 PUSH2 0x168D JUMP JUMPDEST JUMPDEST SWAP1 PUSH1 0x0 MSTORE PUSH1 0x20 PUSH1 0x0 KECCAK256 ADD PUSH1 0x0 SWAP1 SLOAD SWAP1 PUSH2 0x100 EXP SWAP1 DIV PUSH20 0xFFFFFFFFFFFFFFFFFFFFFFFFFFFFFFFFFFFFFFFF AND SWAP1 POP PUSH1 0x5 PUSH1 0x0 DUP3 PUSH20 0xFFFFFFFFFFFFFFFFFFFFFFFFFFFFFFFFFFFFFFFF AND PUSH20 0xFFFFFFFFFFFFFFFFFFFFFFFFFFFFFFFFFFFFFFFF AND DUP2 MSTORE PUSH1 0x20 ADD SWAP1 DUP2 MSTORE PUSH1 0x20 ADD PUSH1 0x0 KECCAK256 PUSH1 0x0 PUSH2 0x77D SWAP2 SWAP1 PUSH2 0xF7F JUMP JUMPDEST POP PUSH1 0x1 DUP2 PUSH2 0x78B SWAP2 SWAP1 PUSH2 0x16EB JUMP JUMPDEST SWAP1 POP PUSH2 0x6E2 JUMP JUMPDEST POP JUMP JUMPDEST PUSH1 0x0 PUSH1 0x1 DUP3 DUP2 SLOAD DUP2 LT PUSH2 0x7AB JUMPI PUSH2 0x7AA PUSH2 0x168D JUMP JUMPDEST JUMPDEST SWAP1 PUSH1 0x0 MSTORE PUSH1 0x20 PUSH1 0x0 KECCAK256 ADD PUSH1 0x0 SWAP1 SLOAD SWAP1 PUSH2 0x100 EXP SWAP1 DIV PUSH20 0xFFFFFFFFFFFFFFFFFFFFFFFFFFFFFFFFFFFFFFFF AND SWAP1 POP SWAP2 SWAP1 POP JUMP JUMPDEST PUSH1 0x0 PUSH1 0x40 MLOAD DUP1 PUSH1 0x60 ADD PUSH1 0x40 MSTORE DUP1 DUP5 DUP2 MSTORE PUSH1 0x20 ADD CALLER PUSH20 0xFFFFFFFFFFFFFFFFFFFFFFFFFFFFFFFFFFFFFFFF AND DUP2 MSTORE PUSH1 0x20 ADD DUP4 DUP2 MSTORE POP SWAP1 POP PUSH1 0x9 DUP2 SWAP1 DUP1 PUSH1 0x1 DUP2 SLOAD ADD DUP1 DUP3 SSTORE DUP1 SWAP2 POP POP PUSH1 0x1 SWAP1 SUB SWAP1 PUSH1 0x0 MSTORE PUSH1 0x20 PUSH1 0x0 KECCAK256 SWAP1 PUSH1 0x3 MUL ADD PUSH1 0x0 SWAP1 SWAP2 SWAP1 SWAP2 SWAP1 SWAP2 POP PUSH1 0x0 DUP3 ADD MLOAD DUP2 PUSH1 0x0 ADD SSTORE PUSH1 0x20 DUP3 ADD MLOAD DUP2 PUSH1 0x1 ADD PUSH1 0x0 PUSH2 0x100 EXP DUP2 SLOAD DUP2 PUSH20 0xFFFFFFFFFFFFFFFFFFFFFFFFFFFFFFFFFFFFFFFF MUL NOT AND SWAP1 DUP4 PUSH20 0xFFFFFFFFFFFFFFFFFFFFFFFFFFFFFFFFFFFFFFFF AND MUL OR SWAP1 SSTORE POP PUSH1 0x40 DUP3 ADD MLOAD DUP2 PUSH1 0x2 ADD SWAP1 DUP1 MLOAD SWAP1 PUSH1 0x20 ADD SWAP1 PUSH2 0x8AB SWAP3 SWAP2 SWAP1 PUSH2 0xEF9 JUMP JUMPDEST POP POP POP POP POP POP JUMP JUMPDEST PUSH1 0x60 PUSH1 0x40 MLOAD DUP1 PUSH1 0x40 ADD PUSH1 0x40 MSTORE DUP1 PUSH1 0x17 DUP2 MSTORE PUSH1 0x20 ADD PUSH32 0x73616D706C6520737472696E672066726F6D20414B4542000000000000000000 DUP2 MSTORE POP SWAP1 POP SWAP1 JUMP JUMPDEST PUSH1 0x0 DUP1 PUSH1 0x60 PUSH1 0x6 PUSH1 0x0 SWAP1 SLOAD SWAP1 PUSH2 0x100 EXP SWAP1 DIV PUSH20 0xFFFFFFFFFFFFFFFFFFFFFFFFFFFFFFFFFFFFFFFF AND PUSH1 0x7 SLOAD PUSH1 0x8 DUP1 DUP1 SLOAD PUSH2 0x929 SWAP1 PUSH2 0x165C JUMP JUMPDEST DUP1 PUSH1 0x1F ADD PUSH1 0x20 DUP1 SWAP2 DIV MUL PUSH1 0x20 ADD PUSH1 0x40 MLOAD SWAP1 DUP2 ADD PUSH1 0x40 MSTORE DUP1 SWAP3 SWAP2 SWAP1 DUP2 DUP2 MSTORE PUSH1 0x20 ADD DUP3 DUP1 SLOAD PUSH2 0x955 SWAP1 PUSH2 0x165C JUMP JUMPDEST DUP1 ISZERO PUSH2 0x9A2 JUMPI DUP1 PUSH1 0x1F LT PUSH2 0x977 JUMPI PUSH2 0x100 DUP1 DUP4 SLOAD DIV MUL DUP4 MSTORE SWAP2 PUSH1 0x20 ADD SWAP2 PUSH2 0x9A2 JUMP JUMPDEST DUP3 ADD SWAP2 SWAP1 PUSH1 0x0 MSTORE PUSH1 0x20 PUSH1 0x0 KECCAK256 SWAP1 JUMPDEST DUP2 SLOAD DUP2 MSTORE SWAP1 PUSH1 0x1 ADD SWAP1 PUSH1 0x20 ADD DUP1 DUP4 GT PUSH2 0x985 JUMPI DUP3 SWAP1 SUB PUSH1 0x1F AND DUP3 ADD SWAP2 JUMPDEST POP POP POP POP POP SWAP1 POP SWAP3 POP SWAP3 POP SWAP3 POP SWAP1 SWAP2 SWAP3 JUMP JUMPDEST PUSH1 0x9 DUP2 DUP2 SLOAD DUP2 LT PUSH2 0x9C4 JUMPI PUSH1 0x0 DUP1 REVERT JUMPDEST SWAP1 PUSH1 0x0 MSTORE PUSH1 0x20 PUSH1 0x0 KECCAK256 SWAP1 PUSH1 0x3 MUL ADD PUSH1 0x0 SWAP2 POP SWAP1 POP DUP1 PUSH1 0x0 ADD SLOAD SWAP1 DUP1 PUSH1 0x1 ADD PUSH1 0x0 SWAP1 SLOAD SWAP1 PUSH2 0x100 EXP SWAP1 DIV PUSH20 0xFFFFFFFFFFFFFFFFFFFFFFFFFFFFFFFFFFFFFFFF AND SWAP1 DUP1 PUSH1 0x2 ADD DUP1 SLOAD PUSH2 0xA13 SWAP1 PUSH2 0x165C JUMP JUMPDEST DUP1 PUSH1 0x1F ADD PUSH1 0x20 DUP1 SWAP2 DIV MUL PUSH1 0x20 ADD PUSH1 0x40 MLOAD SWAP1 DUP2 ADD PUSH1 0x40 MSTORE DUP1 SWAP3 SWAP2 SWAP1 DUP2 DUP2 MSTORE PUSH1 0x20 ADD DUP3 DUP1 SLOAD PUSH2 0xA3F SWAP1 PUSH2 0x165C JUMP JUMPDEST DUP1 ISZERO PUSH2 0xA8C JUMPI DUP1 PUSH1 0x1F LT PUSH2 0xA61 JUMPI PUSH2 0x100 DUP1 DUP4 SLOAD DIV MUL DUP4 MSTORE SWAP2 PUSH1 0x20 ADD SWAP2 PUSH2 0xA8C JUMP JUMPDEST DUP3 ADD SWAP2 SWAP1 PUSH1 0x0 MSTORE PUSH1 0x20 PUSH1 0x0 KECCAK256 SWAP1 JUMPDEST DUP2 SLOAD DUP2 MSTORE SWAP1 PUSH1 0x1 ADD SWAP1 PUSH1 0x20 ADD DUP1 DUP4 GT PUSH2 0xA6F JUMPI DUP3 SWAP1 SUB PUSH1 0x1F AND DUP3 ADD SWAP2 JUMPDEST POP POP POP POP POP SWAP1 POP DUP4 JUMP JUMPDEST PUSH1 0x2 DUP1 SLOAD PUSH2 0xAA3 SWAP1 PUSH2 0x165C JUMP JUMPDEST DUP1 PUSH1 0x1F ADD PUSH1 0x20 DUP1 SWAP2 DIV MUL PUSH1 0x20 ADD PUSH1 0x40 MLOAD SWAP1 DUP2 ADD PUSH1 0x40 MSTORE DUP1 SWAP3 SWAP2 SWAP1 DUP2 DUP2 MSTORE PUSH1 0x20 ADD DUP3 DUP1 SLOAD PUSH2 0xACF SWAP1 PUSH2 0x165C JUMP JUMPDEST DUP1 ISZERO PUSH2 0xB1C JUMPI DUP1 PUSH1 0x1F LT PUSH2 0xAF1 JUMPI PUSH2 0x100 DUP1 DUP4 SLOAD DIV MUL DUP4 MSTORE SWAP2 PUSH1 0x20 ADD SWAP2 PUSH2 0xB1C JUMP JUMPDEST DUP3 ADD SWAP2 SWAP1 PUSH1 0x0 MSTORE PUSH1 0x20 PUSH1 0x0 KECCAK256 SWAP1 JUMPDEST DUP2 SLOAD DUP2 MSTORE SWAP1 PUSH1 0x1 ADD SWAP1 PUSH1 0x20 ADD DUP1 DUP4 GT PUSH2 0xAFF JUMPI DUP3 SWAP1 SUB PUSH1 0x1F AND DUP3 ADD SWAP2 JUMPDEST POP POP POP POP POP DUP2 JUMP JUMPDEST PUSH1 0x60 PUSH1 0x8 DUP1 SLOAD PUSH2 0xB33 SWAP1 PUSH2 0x165C JUMP JUMPDEST DUP1 PUSH1 0x1F ADD PUSH1 0x20 DUP1 SWAP2 DIV MUL PUSH1 0x20 ADD PUSH1 0x40 MLOAD SWAP1 DUP2 ADD PUSH1 0x40 MSTORE DUP1 SWAP3 SWAP2 SWAP1 DUP2 DUP2 MSTORE PUSH1 0x20 ADD DUP3 DUP1 SLOAD PUSH2 0xB5F SWAP1 PUSH2 0x165C JUMP JUMPDEST DUP1 ISZERO PUSH2 0xBAC JUMPI DUP1 PUSH1 0x1F LT PUSH2 0xB81 JUMPI PUSH2 0x100 DUP1 DUP4 SLOAD DIV MUL DUP4 MSTORE SWAP2 PUSH1 0x20 ADD SWAP2 PUSH2 0xBAC JUMP JUMPDEST DUP3 ADD SWAP2 SWAP1 PUSH1 0x0 MSTORE PUSH1 0x20 PUSH1 0x0 KECCAK256 SWAP1 JUMPDEST DUP2 SLOAD DUP2 MSTORE SWAP1 PUSH1 0x1 ADD SWAP1 PUSH1 0x20 ADD DUP1 DUP4 GT PUSH2 0xB8F JUMPI DUP3 SWAP1 SUB PUSH1 0x1F AND DUP3 ADD SWAP2 JUMPDEST POP POP POP POP POP SWAP1 POP SWAP1 JUMP JUMPDEST DUP1 PUSH1 0x5 PUSH1 0x0 CALLER PUSH20 0xFFFFFFFFFFFFFFFFFFFFFFFFFFFFFFFFFFFFFFFF AND PUSH20 0xFFFFFFFFFFFFFFFFFFFFFFFFFFFFFFFFFFFFFFFF AND DUP2 MSTORE PUSH1 0x20 ADD SWAP1 DUP2 MSTORE PUSH1 0x20 ADD PUSH1 0x0 KECCAK256 SWAP1 DUP1 MLOAD SWAP1 PUSH1 0x20 ADD SWAP1 PUSH2 0xC09 SWAP3 SWAP2 SWAP1 PUSH2 0xEF9 JUMP JUMPDEST POP POP JUMP JUMPDEST PUSH1 0x0 PUSH1 0x7 SLOAD SWAP1 POP SWAP1 JUMP JUMPDEST PUSH1 0x1 DUP2 DUP2 SLOAD DUP2 LT PUSH2 0xC27 JUMPI PUSH1 0x0 DUP1 REVERT JUMPDEST SWAP1 PUSH1 0x0 MSTORE PUSH1 0x20 PUSH1 0x0 KECCAK256 ADD PUSH1 0x0 SWAP2 POP SLOAD SWAP1 PUSH2 0x100 EXP SWAP1 DIV PUSH20 0xFFFFFFFFFFFFFFFFFFFFFFFFFFFFFFFFFFFFFFFF AND DUP2 JUMP JUMPDEST PUSH1 0x0 PUSH1 0x6 PUSH1 0x0 PUSH2 0x100 EXP DUP2 SLOAD DUP2 PUSH20 0xFFFFFFFFFFFFFFFFFFFFFFFFFFFFFFFFFFFFFFFF MUL NOT AND SWAP1 DUP4 PUSH20 0xFFFFFFFFFFFFFFFFFFFFFFFFFFFFFFFFFFFFFFFF AND MUL OR SWAP1 SSTORE POP PUSH1 0x0 PUSH1 0x7 DUP2 SWAP1 SSTORE POP PUSH1 0x40 MLOAD DUP1 PUSH1 0x20 ADD PUSH1 0x40 MSTORE DUP1 PUSH1 0x0 DUP2 MSTORE POP PUSH1 0x8 SWAP1 DUP1 MLOAD SWAP1 PUSH1 0x20 ADD SWAP1 PUSH2 0xCC5 SWAP3 SWAP2 SWAP1 PUSH2 0xEF9 JUMP JUMPDEST POP PUSH1 0x40 MLOAD DUP1 PUSH1 0x20 ADD PUSH1 0x40 MSTORE DUP1 PUSH1 0x0 DUP2 MSTORE POP PUSH1 0x2 SWAP1 DUP1 MLOAD SWAP1 PUSH1 0x20 ADD SWAP1 PUSH2 0xCEB SWAP3 SWAP2 SWAP1 PUSH2 0xEF9 JUMP JUMPDEST POP PUSH1 0x0 PUSH1 0x3 DUP2 SWAP1 SSTORE POP PUSH1 0x0 PUSH1 0x4 DUP2 SWAP1 SSTORE POP PUSH2 0xD04 PUSH2 0x6DF JUMP JUMPDEST PUSH1 0x1 PUSH1 0x0 PUSH2 0xD12 SWAP2 SWAP1 PUSH2 0xFBF JUMP JUMPDEST PUSH1 0x9 PUSH1 0x0 PUSH2 0xD20 SWAP2 SWAP1 PUSH2 0xFE0 JUMP JUMPDEST JUMP JUMPDEST PUSH1 0x4 SLOAD DUP2 JUMP JUMPDEST PUSH1 0x8 DUP1 SLOAD PUSH2 0xD35 SWAP1 PUSH2 0x165C JUMP JUMPDEST DUP1 PUSH1 0x1F ADD PUSH1 0x20 DUP1 SWAP2 DIV MUL PUSH1 0x20 ADD PUSH1 0x40 MLOAD SWAP1 DUP2 ADD PUSH1 0x40 MSTORE DUP1 SWAP3 SWAP2 SWAP1 DUP2 DUP2 MSTORE PUSH1 0x20 ADD DUP3 DUP1 SLOAD PUSH2 0xD61 SWAP1 PUSH2 0x165C JUMP JUMPDEST DUP1 ISZERO PUSH2 0xDAE JUMPI DUP1 PUSH1 0x1F LT PUSH2 0xD83 JUMPI PUSH2 0x100 DUP1 DUP4 SLOAD DIV MUL DUP4 MSTORE SWAP2 PUSH1 0x20 ADD SWAP2 PUSH2 0xDAE JUMP JUMPDEST DUP3 ADD SWAP2 SWAP1 PUSH1 0x0 MSTORE PUSH1 0x20 PUSH1 0x0 KECCAK256 SWAP1 JUMPDEST DUP2 SLOAD DUP2 MSTORE SWAP1 PUSH1 0x1 ADD SWAP1 PUSH1 0x20 ADD DUP1 DUP4 GT PUSH2 0xD91 JUMPI DUP3 SWAP1 SUB PUSH1 0x1F AND DUP3 ADD SWAP2 JUMPDEST POP POP POP POP POP DUP2 JUMP JUMPDEST PUSH1 0x0 DUP1 SLOAD SWAP1 PUSH2 0x100 EXP SWAP1 DIV PUSH20 0xFFFFFFFFFFFFFFFFFFFFFFFFFFFFFFFFFFFFFFFF AND PUSH20 0xFFFFFFFFFFFFFFFFFFFFFFFFFFFFFFFFFFFFFFFF AND CALLER PUSH20 0xFFFFFFFFFFFFFFFFFFFFFFFFFFFFFFFFFFFFFFFF AND EQ PUSH2 0xE44 JUMPI PUSH1 0x40 MLOAD PUSH32 0x8C379A000000000000000000000000000000000000000000000000000000000 DUP2 MSTORE PUSH1 0x4 ADD PUSH2 0xE3B SWAP1 PUSH2 0x17B3 JUMP JUMPDEST PUSH1 0x40 MLOAD DUP1 SWAP2 SUB SWAP1 REVERT JUMPDEST DUP3 PUSH1 0x2 SWAP1 DUP1 MLOAD SWAP1 PUSH1 0x20 ADD SWAP1 PUSH2 0xE5A SWAP3 SWAP2 SWAP1 PUSH2 0xEF9 JUMP JUMPDEST POP DUP2 PUSH1 0x3 DUP2 SWAP1 SSTORE POP DUP1 PUSH1 0x4 DUP2 SWAP1 SSTORE POP POP POP POP JUMP JUMPDEST PUSH1 0x6 PUSH1 0x0 SWAP1 SLOAD SWAP1 PUSH2 0x100 EXP SWAP1 DIV PUSH20 0xFFFFFFFFFFFFFFFFFFFFFFFFFFFFFFFFFFFFFFFF AND DUP2 JUMP JUMPDEST PUSH1 0x1 CALLER SWAP1 DUP1 PUSH1 0x1 DUP2 SLOAD ADD DUP1 DUP3 SSTORE DUP1 SWAP2 POP POP PUSH1 0x1 SWAP1 SUB SWAP1 PUSH1 0x0 MSTORE PUSH1 0x20 PUSH1 0x0 KECCAK256 ADD PUSH1 0x0 SWAP1 SWAP2 SWAP1 SWAP2 SWAP1 SWAP2 PUSH2 0x100 EXP DUP2 SLOAD DUP2 PUSH20 0xFFFFFFFFFFFFFFFFFFFFFFFFFFFFFFFFFFFFFFFF MUL NOT AND SWAP1 DUP4 PUSH20 0xFFFFFFFFFFFFFFFFFFFFFFFFFFFFFFFFFFFFFFFF AND MUL OR SWAP1 SSTORE POP JUMP JUMPDEST DUP3 DUP1 SLOAD PUSH2 0xF05 SWAP1 PUSH2 0x165C JUMP JUMPDEST SWAP1 PUSH1 0x0 MSTORE PUSH1 0x20 PUSH1 0x0 KECCAK256 SWAP1 PUSH1 0x1F ADD PUSH1 0x20 SWAP1 DIV DUP2 ADD SWAP3 DUP3 PUSH2 0xF27 JUMPI PUSH1 0x0 DUP6 SSTORE PUSH2 0xF6E JUMP JUMPDEST DUP3 PUSH1 0x1F LT PUSH2 0xF40 JUMPI DUP1 MLOAD PUSH1 0xFF NOT AND DUP4 DUP1 ADD OR DUP6 SSTORE PUSH2 0xF6E JUMP JUMPDEST DUP3 DUP1 ADD PUSH1 0x1 ADD DUP6 SSTORE DUP3 ISZERO PUSH2 0xF6E JUMPI SWAP2 DUP3 ADD JUMPDEST DUP3 DUP2 GT ISZERO PUSH2 0xF6D JUMPI DUP3 MLOAD DUP3 SSTORE SWAP2 PUSH1 0x20 ADD SWAP2 SWAP1 PUSH1 0x1 ADD SWAP1 PUSH2 0xF52 JUMP JUMPDEST JUMPDEST POP SWAP1 POP PUSH2 0xF7B SWAP2 SWAP1 PUSH2 0x1004 JUMP JUMPDEST POP SWAP1 JUMP JUMPDEST POP DUP1 SLOAD PUSH2 0xF8B SWAP1 PUSH2 0x165C JUMP JUMPDEST PUSH1 0x0 DUP3 SSTORE DUP1 PUSH1 0x1F LT PUSH2 0xF9D JUMPI POP PUSH2 0xFBC JUMP JUMPDEST PUSH1 0x1F ADD PUSH1 0x20 SWAP1 DIV SWAP1 PUSH1 0x0 MSTORE PUSH1 0x20 PUSH1 0x0 KECCAK256 SWAP1 DUP2 ADD SWAP1 PUSH2 0xFBB SWAP2 SWAP1 PUSH2 0x1004 JUMP JUMPDEST JUMPDEST POP JUMP JUMPDEST POP DUP1 SLOAD PUSH1 0x0 DUP3 SSTORE SWAP1 PUSH1 0x0 MSTORE PUSH1 0x20 PUSH1 0x0 KECCAK256 SWAP1 DUP2 ADD SWAP1 PUSH2 0xFDD SWAP2 SWAP1 PUSH2 0x1004 JUMP JUMPDEST POP JUMP JUMPDEST POP DUP1 SLOAD PUSH1 0x0 DUP3 SSTORE PUSH1 0x3 MUL SWAP1 PUSH1 0x0 MSTORE PUSH1 0x20 PUSH1 0x0 KECCAK256 SWAP1 DUP2 ADD SWAP1 PUSH2 0x1001 SWAP2 SWAP1 PUSH2 0x1021 JUMP JUMPDEST POP JUMP JUMPDEST JUMPDEST DUP1 DUP3 GT ISZERO PUSH2 0x101D JUMPI PUSH1 0x0 DUP2 PUSH1 0x0 SWAP1 SSTORE POP PUSH1 0x1 ADD PUSH2 0x1005 JUMP JUMPDEST POP SWAP1 JUMP JUMPDEST JUMPDEST DUP1 DUP3 GT ISZERO PUSH2 0x1073 JUMPI PUSH1 0x0 DUP1 DUP3 ADD PUSH1 0x0 SWAP1 SSTORE PUSH1 0x1 DUP3 ADD PUSH1 0x0 PUSH2 0x100 EXP DUP2 SLOAD SWAP1 PUSH20 0xFFFFFFFFFFFFFFFFFFFFFFFFFFFFFFFFFFFFFFFF MUL NOT AND SWAP1 SSTORE PUSH1 0x2 DUP3 ADD PUSH1 0x0 PUSH2 0x106A SWAP2 SWAP1 PUSH2 0xF7F JUMP JUMPDEST POP PUSH1 0x3 ADD PUSH2 0x1022 JUMP JUMPDEST POP SWAP1 JUMP JUMPDEST PUSH1 0x0 PUSH1 0x40 MLOAD SWAP1 POP SWAP1 JUMP JUMPDEST PUSH1 0x0 DUP1 REVERT JUMPDEST PUSH1 0x0 DUP1 REVERT JUMPDEST PUSH1 0x0 PUSH20 0xFFFFFFFFFFFFFFFFFFFFFFFFFFFFFFFFFFFFFFFF DUP3 AND SWAP1 POP SWAP2 SWAP1 POP JUMP JUMPDEST PUSH1 0x0 PUSH2 0x10B6 DUP3 PUSH2 0x108B JUMP JUMPDEST SWAP1 POP SWAP2 SWAP1 POP JUMP JUMPDEST PUSH2 0x10C6 DUP2 PUSH2 0x10AB JUMP JUMPDEST DUP2 EQ PUSH2 0x10D1 JUMPI PUSH1 0x0 DUP1 REVERT JUMPDEST POP JUMP JUMPDEST PUSH1 0x0 DUP2 CALLDATALOAD SWAP1 POP PUSH2 0x10E3 DUP2 PUSH2 0x10BD JUMP JUMPDEST SWAP3 SWAP2 POP POP JUMP JUMPDEST PUSH1 0x0 PUSH1 0x20 DUP3 DUP5 SUB SLT ISZERO PUSH2 0x10FF JUMPI PUSH2 0x10FE PUSH2 0x1081 JUMP JUMPDEST JUMPDEST PUSH1 0x0 PUSH2 0x110D DUP5 DUP3 DUP6 ADD PUSH2 0x10D4 JUMP JUMPDEST SWAP2 POP POP SWAP3 SWAP2 POP POP JUMP JUMPDEST PUSH1 0x0 DUP2 MLOAD SWAP1 POP SWAP2 SWAP1 POP JUMP JUMPDEST PUSH1 0x0 DUP3 DUP3 MSTORE PUSH1 0x20 DUP3 ADD SWAP1 POP SWAP3 SWAP2 POP POP JUMP JUMPDEST PUSH1 0x0 JUMPDEST DUP4 DUP2 LT ISZERO PUSH2 0x1150 JUMPI DUP1 DUP3 ADD MLOAD DUP2 DUP5 ADD MSTORE PUSH1 0x20 DUP2 ADD SWAP1 POP PUSH2 0x1135 JUMP JUMPDEST DUP4 DUP2 GT ISZERO PUSH2 0x115F JUMPI PUSH1 0x0 DUP5 DUP5 ADD MSTORE JUMPDEST POP POP POP POP JUMP JUMPDEST PUSH1 0x0 PUSH1 0x1F NOT PUSH1 0x1F DUP4 ADD AND SWAP1 POP SWAP2 SWAP1 POP JUMP JUMPDEST PUSH1 0x0 PUSH2 0x1181 DUP3 PUSH2 0x1116 JUMP JUMPDEST PUSH2 0x118B DUP2 DUP6 PUSH2 0x1121 JUMP JUMPDEST SWAP4 POP PUSH2 0x119B DUP2 DUP6 PUSH1 0x20 DUP7 ADD PUSH2 0x1132 JUMP JUMPDEST PUSH2 0x11A4 DUP2 PUSH2 0x1165 JUMP JUMPDEST DUP5 ADD SWAP2 POP POP SWAP3 SWAP2 POP POP JUMP JUMPDEST PUSH1 0x0 PUSH1 0x20 DUP3 ADD SWAP1 POP DUP2 DUP2 SUB PUSH1 0x0 DUP4 ADD MSTORE PUSH2 0x11C9 DUP2 DUP5 PUSH2 0x1176 JUMP JUMPDEST SWAP1 POP SWAP3 SWAP2 POP POP JUMP JUMPDEST PUSH2 0x11DA DUP2 PUSH2 0x10AB JUMP JUMPDEST DUP3 MSTORE POP POP JUMP JUMPDEST PUSH1 0x0 PUSH1 0x20 DUP3 ADD SWAP1 POP PUSH2 0x11F5 PUSH1 0x0 DUP4 ADD DUP5 PUSH2 0x11D1 JUMP JUMPDEST SWAP3 SWAP2 POP POP JUMP JUMPDEST PUSH1 0x0 DUP2 SWAP1 POP SWAP2 SWAP1 POP JUMP JUMPDEST PUSH2 0x120E DUP2 PUSH2 0x11FB JUMP JUMPDEST DUP3 MSTORE POP POP JUMP JUMPDEST PUSH1 0x0 PUSH1 0x20 DUP3 ADD SWAP1 POP PUSH2 0x1229 PUSH1 0x0 DUP4 ADD DUP5 PUSH2 0x1205 JUMP JUMPDEST SWAP3 SWAP2 POP POP JUMP JUMPDEST PUSH2 0x1238 DUP2 PUSH2 0x11FB JUMP JUMPDEST DUP2 EQ PUSH2 0x1243 JUMPI PUSH1 0x0 DUP1 REVERT JUMPDEST POP JUMP JUMPDEST PUSH1 0x0 DUP2 CALLDATALOAD SWAP1 POP PUSH2 0x1255 DUP2 PUSH2 0x122F JUMP JUMPDEST SWAP3 SWAP2 POP POP JUMP JUMPDEST PUSH1 0x0 DUP1 REVERT JUMPDEST PUSH1 0x0 DUP1 REVERT JUMPDEST PUSH32 0x4E487B7100000000000000000000000000000000000000000000000000000000 PUSH1 0x0 MSTORE PUSH1 0x41 PUSH1 0x4 MSTORE PUSH1 0x24 PUSH1 0x0 REVERT JUMPDEST PUSH2 0x129D DUP3 PUSH2 0x1165 JUMP JUMPDEST DUP2 ADD DUP2 DUP2 LT PUSH8 0xFFFFFFFFFFFFFFFF DUP3 GT OR ISZERO PUSH2 0x12BC JUMPI PUSH2 0x12BB PUSH2 0x1265 JUMP JUMPDEST JUMPDEST DUP1 PUSH1 0x40 MSTORE POP POP POP JUMP JUMPDEST PUSH1 0x0 PUSH2 0x12CF PUSH2 0x1077 JUMP JUMPDEST SWAP1 POP PUSH2 0x12DB DUP3 DUP3 PUSH2 0x1294 JUMP JUMPDEST SWAP2 SWAP1 POP JUMP JUMPDEST PUSH1 0x0 PUSH8 0xFFFFFFFFFFFFFFFF DUP3 GT ISZERO PUSH2 0x12FB JUMPI PUSH2 0x12FA PUSH2 0x1265 JUMP JUMPDEST JUMPDEST PUSH2 0x1304 DUP3 PUSH2 0x1165 JUMP JUMPDEST SWAP1 POP PUSH1 0x20 DUP2 ADD SWAP1 POP SWAP2 SWAP1 POP JUMP JUMPDEST DUP3 DUP2 DUP4 CALLDATACOPY PUSH1 0x0 DUP4 DUP4 ADD MSTORE POP POP POP JUMP JUMPDEST PUSH1 0x0 PUSH2 0x1333 PUSH2 0x132E DUP5 PUSH2 0x12E0 JUMP JUMPDEST PUSH2 0x12C5 JUMP JUMPDEST SWAP1 POP DUP3 DUP2 MSTORE PUSH1 0x20 DUP2 ADD DUP5 DUP5 DUP5 ADD GT ISZERO PUSH2 0x134F JUMPI PUSH2 0x134E PUSH2 0x1260 JUMP JUMPDEST JUMPDEST PUSH2 0x135A DUP5 DUP3 DUP6 PUSH2 0x1311 JUMP JUMPDEST POP SWAP4 SWAP3 POP POP POP JUMP JUMPDEST PUSH1 0x0 DUP3 PUSH1 0x1F DUP4 ADD SLT PUSH2 0x1377 JUMPI PUSH2 0x1376 PUSH2 0x125B JUMP JUMPDEST JUMPDEST DUP2 CALLDATALOAD PUSH2 0x1387 DUP5 DUP3 PUSH1 0x20 DUP7 ADD PUSH2 0x1320 JUMP JUMPDEST SWAP2 POP POP SWAP3 SWAP2 POP POP JUMP JUMPDEST PUSH1 0x0 DUP1 PUSH1 0x40 DUP4 DUP6 SUB SLT ISZERO PUSH2 0x13A7 JUMPI PUSH2 0x13A6 PUSH2 0x1081 JUMP JUMPDEST JUMPDEST PUSH1 0x0 PUSH2 0x13B5 DUP6 DUP3 DUP7 ADD PUSH2 0x1246 JUMP JUMPDEST SWAP3 POP POP PUSH1 0x20 DUP4 ADD CALLDATALOAD PUSH8 0xFFFFFFFFFFFFFFFF DUP2 GT ISZERO PUSH2 0x13D6 JUMPI PUSH2 0x13D5 PUSH2 0x1086 JUMP JUMPDEST JUMPDEST PUSH2 0x13E2 DUP6 DUP3 DUP7 ADD PUSH2 0x1362 JUMP JUMPDEST SWAP2 POP POP SWAP3 POP SWAP3 SWAP1 POP JUMP JUMPDEST PUSH1 0x0 DUP2 MLOAD SWAP1 POP SWAP2 SWAP1 POP JUMP JUMPDEST PUSH1 0x0 DUP3 DUP3 MSTORE PUSH1 0x20 DUP3 ADD SWAP1 POP SWAP3 SWAP2 POP POP JUMP JUMPDEST PUSH1 0x0 DUP2 SWAP1 POP PUSH1 0x20 DUP3 ADD SWAP1 POP SWAP2 SWAP1 POP JUMP JUMPDEST PUSH2 0x1421 DUP2 PUSH2 0x10AB JUMP JUMPDEST DUP3 MSTORE POP POP JUMP JUMPDEST PUSH1 0x0 PUSH2 0x1433 DUP4 DUP4 PUSH2 0x1418 JUMP JUMPDEST PUSH1 0x20 DUP4 ADD SWAP1 POP SWAP3 SWAP2 POP POP JUMP JUMPDEST PUSH1 0x0 PUSH1 0x20 DUP3 ADD SWAP1 POP SWAP2 SWAP1 POP JUMP JUMPDEST PUSH1 0x0 PUSH2 0x1457 DUP3 PUSH2 0x13EC JUMP JUMPDEST PUSH2 0x1461 DUP2 DUP6 PUSH2 0x13F7 JUMP JUMPDEST SWAP4 POP PUSH2 0x146C DUP4 PUSH2 0x1408 JUMP JUMPDEST DUP1 PUSH1 0x0 JUMPDEST DUP4 DUP2 LT ISZERO PUSH2 0x149D JUMPI DUP2 MLOAD PUSH2 0x1484 DUP9 DUP3 PUSH2 0x1427 JUMP JUMPDEST SWAP8 POP PUSH2 0x148F DUP4 PUSH2 0x143F JUMP JUMPDEST SWAP3 POP POP PUSH1 0x1 DUP2 ADD SWAP1 POP PUSH2 0x1470 JUMP JUMPDEST POP DUP6 SWAP4 POP POP POP POP SWAP3 SWAP2 POP POP JUMP JUMPDEST PUSH1 0x0 PUSH1 0x20 DUP3 ADD SWAP1 POP DUP2 DUP2 SUB PUSH1 0x0 DUP4 ADD MSTORE PUSH2 0x14C4 DUP2 DUP5 PUSH2 0x144C JUMP JUMPDEST SWAP1 POP SWAP3 SWAP2 POP POP JUMP JUMPDEST PUSH1 0x0 PUSH1 0x20 DUP3 DUP5 SUB SLT ISZERO PUSH2 0x14E2 JUMPI PUSH2 0x14E1 PUSH2 0x1081 JUMP JUMPDEST JUMPDEST PUSH1 0x0 PUSH2 0x14F0 DUP5 DUP3 DUP6 ADD PUSH2 0x1246 JUMP JUMPDEST SWAP2 POP POP SWAP3 SWAP2 POP POP JUMP JUMPDEST PUSH1 0x0 PUSH1 0x60 DUP3 ADD SWAP1 POP PUSH2 0x150E PUSH1 0x0 DUP4 ADD DUP7 PUSH2 0x11D1 JUMP JUMPDEST PUSH2 0x151B PUSH1 0x20 DUP4 ADD DUP6 PUSH2 0x1205 JUMP JUMPDEST DUP2 DUP2 SUB PUSH1 0x40 DUP4 ADD MSTORE PUSH2 0x152D DUP2 DUP5 PUSH2 0x1176 JUMP JUMPDEST SWAP1 POP SWAP5 SWAP4 POP POP POP POP JUMP JUMPDEST PUSH1 0x0 PUSH1 0x60 DUP3 ADD SWAP1 POP PUSH2 0x154C PUSH1 0x0 DUP4 ADD DUP7 PUSH2 0x1205 JUMP JUMPDEST PUSH2 0x1559 PUSH1 0x20 DUP4 ADD DUP6 PUSH2 0x11D1 JUMP JUMPDEST DUP2 DUP2 SUB PUSH1 0x40 DUP4 ADD MSTORE PUSH2 0x156B DUP2 DUP5 PUSH2 0x1176 JUMP JUMPDEST SWAP1 POP SWAP5 SWAP4 POP POP POP POP JUMP JUMPDEST PUSH1 0x0 PUSH1 0x20 DUP3 DUP5 SUB SLT ISZERO PUSH2 0x158B JUMPI PUSH2 0x158A PUSH2 0x1081 JUMP JUMPDEST JUMPDEST PUSH1 0x0 DUP3 ADD CALLDATALOAD PUSH8 0xFFFFFFFFFFFFFFFF DUP2 GT ISZERO PUSH2 0x15A9 JUMPI PUSH2 0x15A8 PUSH2 0x1086 JUMP JUMPDEST JUMPDEST PUSH2 0x15B5 DUP5 DUP3 DUP6 ADD PUSH2 0x1362 JUMP JUMPDEST SWAP2 POP POP SWAP3 SWAP2 POP POP JUMP JUMPDEST PUSH1 0x0 DUP1 PUSH1 0x0 PUSH1 0x60 DUP5 DUP7 SUB SLT ISZERO PUSH2 0x15D7 JUMPI PUSH2 0x15D6 PUSH2 0x1081 JUMP JUMPDEST JUMPDEST PUSH1 0x0 DUP5 ADD CALLDATALOAD PUSH8 0xFFFFFFFFFFFFFFFF DUP2 GT ISZERO PUSH2 0x15F5 JUMPI PUSH2 0x15F4 PUSH2 0x1086 JUMP JUMPDEST JUMPDEST PUSH2 0x1601 DUP7 DUP3 DUP8 ADD PUSH2 0x1362 JUMP JUMPDEST SWAP4 POP POP PUSH1 0x20 PUSH2 0x1612 DUP7 DUP3 DUP8 ADD PUSH2 0x1246 JUMP JUMPDEST SWAP3 POP POP PUSH1 0x40 PUSH2 0x1623 DUP7 DUP3 DUP8 ADD PUSH2 0x1246 JUMP JUMPDEST SWAP2 POP POP SWAP3 POP SWAP3 POP SWAP3 JUMP JUMPDEST PUSH32 0x4E487B7100000000000000000000000000000000000000000000000000000000 PUSH1 0x0 MSTORE PUSH1 0x22 PUSH1 0x4 MSTORE PUSH1 0x24 PUSH1 0x0 REVERT JUMPDEST PUSH1 0x0 PUSH1 0x2 DUP3 DIV SWAP1 POP PUSH1 0x1 DUP3 AND DUP1 PUSH2 0x1674 JUMPI PUSH1 0x7F DUP3 AND SWAP2 POP JUMPDEST PUSH1 0x20 DUP3 LT DUP2 SUB PUSH2 0x1687 JUMPI PUSH2 0x1686 PUSH2 0x162D JUMP JUMPDEST JUMPDEST POP SWAP2 SWAP1 POP JUMP JUMPDEST PUSH32 0x4E487B7100000000000000000000000000000000000000000000000000000000 PUSH1 0x0 MSTORE PUSH1 0x32 PUSH1 0x4 MSTORE PUSH1 0x24 PUSH1 0x0 REVERT JUMPDEST PUSH32 0x4E487B7100000000000000000000000000000000000000000000000000000000 PUSH1 0x0 MSTORE PUSH1 0x11 PUSH1 0x4 MSTORE PUSH1 0x24 PUSH1 0x0 REVERT JUMPDEST PUSH1 0x0 PUSH2 0x16F6 DUP3 PUSH2 0x11FB JUMP JUMPDEST SWAP2 POP PUSH2 0x1701 DUP4 PUSH2 0x11FB JUMP JUMPDEST SWAP3 POP DUP3 PUSH32 0xFFFFFFFFFFFFFFFFFFFFFFFFFFFFFFFFFFFFFFFFFFFFFFFFFFFFFFFFFFFFFFFF SUB DUP3 GT ISZERO PUSH2 0x1736 JUMPI PUSH2 0x1735 PUSH2 0x16BC JUMP JUMPDEST JUMPDEST DUP3 DUP3 ADD SWAP1 POP SWAP3 SWAP2 POP POP JUMP JUMPDEST PUSH32 0x4F6E6C792061756374696F6E6565722063616E2063616C6C2074686973206675 PUSH1 0x0 DUP3 ADD MSTORE PUSH32 0x6E6374696F6E2E00000000000000000000000000000000000000000000000000 PUSH1 0x20 DUP3 ADD MSTORE POP JUMP JUMPDEST PUSH1 0x0 PUSH2 0x179D PUSH1 0x27 DUP4 PUSH2 0x1121 JUMP JUMPDEST SWAP2 POP PUSH2 0x17A8 DUP3 PUSH2 0x1741 JUMP JUMPDEST PUSH1 0x40 DUP3 ADD SWAP1 POP SWAP2 SWAP1 POP JUMP JUMPDEST PUSH1 0x0 PUSH1 0x20 DUP3 ADD SWAP1 POP DUP2 DUP2 SUB PUSH1 0x0 DUP4 ADD MSTORE PUSH2 0x17CC DUP2 PUSH2 0x1790 JUMP JUMPDEST SWAP1 POP SWAP2 SWAP1 POP JUMP INVALID LOG2 PUSH5 0x6970667358 0x22 SLT KECCAK256 0xAD SWAP3 LOG1 0xBA MOD PUSH21 0x9536A76CA77209FF09DC99D22C8A7388CE81373D84 0xB2 0xE 0xAC LOG1 DUP4 PUSH5 0x736F6C6343 STOP ADDMOD 0xE STOP CALLER "
				},
				"gasEstimates": {
					"creation": {
						"codeDepositCost": "1230600",
						"executionCost": "1281",
						"totalCost": "1231881"
					},
					"external": {
						"assetDescription()": "infinite",
						"bidders(uint256)": "5089",
						"dispute(uint256,string)": "infinite",
						"disputedBidders(uint256)": "infinite",
						"encodedBids(address)": "infinite",
						"getAllBidders()": "infinite",
						"getBidderAddress(uint256)": "5034",
						"getEncodedBid(address)": "infinite",
						"getSampleString()": "infinite",
						"getWinner()": "infinite",
						"getWinnerAddress()": "2568",
						"getWinnerBid()": "2548",
						"getwinnerNonce()": "infinite",
						"minBidPrice()": "2541",
						"minNumberOfBidders()": "2473",
						"registerAuctionInfo(string,uint256,uint256)": "infinite",
						"registerBidder()": "48854",
						"reset()": "infinite",
						"resetEncodedBids()": "infinite",
						"submitEncodedBid(string)": "infinite",
						"submitWinner(uint256,string)": "infinite",
						"winnerAddress()": "2624",
						"winnerBid()": "2497",
						"winnerNonce()": "infinite"
					}
				},
				"methodIdentifiers": {
					"assetDescription()": "938626c2",
					"bidders(uint256)": "cff29dfd",
					"dispute(uint256,string)": "66c85dee",
					"disputedBidders(uint256)": "8f772f96",
					"encodedBids(address)": "3817df4c",
					"getAllBidders()": "3a79d2e5",
					"getBidderAddress(uint256)": "5fa38280",
					"getEncodedBid(address)": "05fb23cf",
					"getSampleString()": "83050daa",
					"getWinner()": "8e7ea5b2",
					"getWinnerAddress()": "10a37c26",
					"getWinnerBid()": "ceb98f6e",
					"getwinnerNonce()": "c8bca732",
					"minBidPrice()": "34eb86a2",
					"minNumberOfBidders()": "daa0218f",
					"registerAuctionInfo(string,uint256,uint256)": "e7d2a997",
					"registerBidder()": "f356733c",
					"reset()": "d826f88f",
					"resetEncodedBids()": "40bd5937",
					"submitEncodedBid(string)": "ca142b56",
					"submitWinner(uint256,string)": "1744e03b",
					"winnerAddress()": "ed7a4e0b",
					"winnerBid()": "11631d06",
					"winnerNonce()": "dca49f4a"
				}
			},
			"storageLayout": {
				"storage": [
					{
						"astId": 3,
						"contract": "Contracts/AKEB.sol:AKEB",
						"label": "auctioneer",
						"offset": 0,
						"slot": "0",
						"type": "t_address"
					},
					{
						"astId": 6,
						"contract": "Contracts/AKEB.sol:AKEB",
						"label": "bidders",
						"offset": 0,
						"slot": "1",
						"type": "t_array(t_address)dyn_storage"
					},
					{
						"astId": 8,
						"contract": "Contracts/AKEB.sol:AKEB",
						"label": "assetDescription",
						"offset": 0,
						"slot": "2",
						"type": "t_string_storage"
					},
					{
						"astId": 10,
						"contract": "Contracts/AKEB.sol:AKEB",
						"label": "minBidPrice",
						"offset": 0,
						"slot": "3",
						"type": "t_uint256"
					},
					{
						"astId": 12,
						"contract": "Contracts/AKEB.sol:AKEB",
						"label": "minNumberOfBidders",
						"offset": 0,
						"slot": "4",
						"type": "t_uint256"
					},
					{
						"astId": 16,
						"contract": "Contracts/AKEB.sol:AKEB",
						"label": "encodedBids",
						"offset": 0,
						"slot": "5",
						"type": "t_mapping(t_address,t_string_storage)"
					},
					{
						"astId": 18,
						"contract": "Contracts/AKEB.sol:AKEB",
						"label": "winnerAddress",
						"offset": 0,
						"slot": "6",
						"type": "t_address"
					},
					{
						"astId": 20,
						"contract": "Contracts/AKEB.sol:AKEB",
						"label": "winnerBid",
						"offset": 0,
						"slot": "7",
						"type": "t_uint256"
					},
					{
						"astId": 22,
						"contract": "Contracts/AKEB.sol:AKEB",
						"label": "winnerNonce",
						"offset": 0,
						"slot": "8",
						"type": "t_string_storage"
					},
					{
						"astId": 33,
						"contract": "Contracts/AKEB.sol:AKEB",
						"label": "disputedBidders",
						"offset": 0,
						"slot": "9",
						"type": "t_array(t_struct(DisputedBidders)29_storage)dyn_storage"
					}
				],
				"types": {
					"t_address": {
						"encoding": "inplace",
						"label": "address",
						"numberOfBytes": "20"
					},
					"t_array(t_address)dyn_storage": {
						"base": "t_address",
						"encoding": "dynamic_array",
						"label": "address[]",
						"numberOfBytes": "32"
					},
					"t_array(t_struct(DisputedBidders)29_storage)dyn_storage": {
						"base": "t_struct(DisputedBidders)29_storage",
						"encoding": "dynamic_array",
						"label": "struct AKEB.DisputedBidders[]",
						"numberOfBytes": "32"
					},
					"t_mapping(t_address,t_string_storage)": {
						"encoding": "mapping",
						"key": "t_address",
						"label": "mapping(address => string)",
						"numberOfBytes": "32",
						"value": "t_string_storage"
					},
					"t_string_storage": {
						"encoding": "bytes",
						"label": "string",
						"numberOfBytes": "32"
					},
					"t_struct(DisputedBidders)29_storage": {
						"encoding": "inplace",
						"label": "struct AKEB.DisputedBidders",
						"members": [
							{
								"astId": 24,
								"contract": "Contracts/AKEB.sol:AKEB",
								"label": "bid",
								"offset": 0,
								"slot": "0",
								"type": "t_uint256"
							},
							{
								"astId": 26,
								"contract": "Contracts/AKEB.sol:AKEB",
								"label": "disputeAddress",
								"offset": 0,
								"slot": "1",
								"type": "t_address"
							},
							{
								"astId": 28,
								"contract": "Contracts/AKEB.sol:AKEB",
								"label": "nonce",
								"offset": 0,
								"slot": "2",
								"type": "t_string_storage"
							}
						],
						"numberOfBytes": "96"
					},
					"t_uint256": {
						"encoding": "inplace",
						"label": "uint256",
						"numberOfBytes": "32"
					}
				}
			},
			"userdoc": {
				"kind": "user",
				"methods": {},
				"version": 1
			}
		}
	}
}