{
	"Contracts/AKEB.sol": {
		"AKEB": {
			"abi": [
				{
					"inputs": [],
					"stateMutability": "nonpayable",
					"type": "constructor"
				},
				{
					"inputs": [],
					"name": "assetDescription",
					"outputs": [
						{
							"internalType": "string",
							"name": "",
							"type": "string"
						}
					],
					"stateMutability": "view",
					"type": "function"
				},
				{
					"inputs": [],
					"name": "minBidPrice",
					"outputs": [
						{
							"internalType": "uint256",
							"name": "",
							"type": "uint256"
						}
					],
					"stateMutability": "view",
					"type": "function"
				},
				{
					"inputs": [],
					"name": "minNumberOfBidders",
					"outputs": [
						{
							"internalType": "uint256",
							"name": "",
							"type": "uint256"
						}
					],
					"stateMutability": "view",
					"type": "function"
				},
				{
					"inputs": [
						{
							"internalType": "string",
							"name": "assetDescriptionInput",
							"type": "string"
						},
						{
							"internalType": "uint256",
							"name": "minBidPriceInput",
							"type": "uint256"
						},
						{
							"internalType": "uint256",
							"name": "minNumberOfBiddersInput",
							"type": "uint256"
						}
					],
					"name": "registerAuctionInfo",
					"outputs": [],
					"stateMutability": "nonpayable",
					"type": "function"
				},
				{
					"inputs": [],
					"name": "registerBidder",
					"outputs": [],
					"stateMutability": "nonpayable",
					"type": "function"
				}
			],
			"devdoc": {
				"kind": "dev",
				"methods": {},
				"version": 1
			},
			"evm": {
				"assembly": "    /* \"Contracts/AKEB.sol\":26:978  contract AKEB {... */\n  mstore(0x40, 0x80)\n    /* \"Contracts/AKEB.sol\":201:259  constructor()... */\n  callvalue\n  dup1\n  iszero\n  tag_1\n  jumpi\n  0x00\n  dup1\n  revert\ntag_1:\n  pop\n    /* \"Contracts/AKEB.sol\":242:252  msg.sender */\n  caller\n    /* \"Contracts/AKEB.sol\":229:239  auctioneer */\n  0x00\n  dup1\n    /* \"Contracts/AKEB.sol\":229:252  auctioneer = msg.sender */\n  0x0100\n  exp\n  dup2\n  sload\n  dup2\n  0xffffffffffffffffffffffffffffffffffffffff\n  mul\n  not\n  and\n  swap1\n  dup4\n  0xffffffffffffffffffffffffffffffffffffffff\n  and\n  mul\n  or\n  swap1\n  sstore\n  pop\n    /* \"Contracts/AKEB.sol\":26:978  contract AKEB {... */\n  dataSize(sub_0)\n  dup1\n  dataOffset(sub_0)\n  0x00\n  codecopy\n  0x00\n  return\nstop\n\nsub_0: assembly {\n        /* \"Contracts/AKEB.sol\":26:978  contract AKEB {... */\n      mstore(0x40, 0x80)\n      callvalue\n      dup1\n      iszero\n      tag_1\n      jumpi\n      0x00\n      dup1\n      revert\n    tag_1:\n      pop\n      jumpi(tag_2, lt(calldatasize, 0x04))\n      shr(0xe0, calldataload(0x00))\n      dup1\n      0x34eb86a2\n      eq\n      tag_3\n      jumpi\n      dup1\n      0x938626c2\n      eq\n      tag_4\n      jumpi\n      dup1\n      0xdaa0218f\n      eq\n      tag_5\n      jumpi\n      dup1\n      0xe7d2a997\n      eq\n      tag_6\n      jumpi\n      dup1\n      0xf356733c\n      eq\n      tag_7\n      jumpi\n    tag_2:\n      0x00\n      dup1\n      revert\n        /* \"Contracts/AKEB.sol\":129:155  uint256 public minBidPrice */\n    tag_3:\n      tag_8\n      tag_9\n      jump\t// in\n    tag_8:\n      mload(0x40)\n      tag_10\n      swap2\n      swap1\n      tag_11\n      jump\t// in\n    tag_10:\n      mload(0x40)\n      dup1\n      swap2\n      sub\n      swap1\n      return\n        /* \"Contracts/AKEB.sol\":93:123  string public assetDescription */\n    tag_4:\n      tag_12\n      tag_13\n      jump\t// in\n    tag_12:\n      mload(0x40)\n      tag_14\n      swap2\n      swap1\n      tag_15\n      jump\t// in\n    tag_14:\n      mload(0x40)\n      dup1\n      swap2\n      sub\n      swap1\n      return\n        /* \"Contracts/AKEB.sol\":161:194  uint256 public minNumberOfBidders */\n    tag_5:\n      tag_16\n      tag_17\n      jump\t// in\n    tag_16:\n      mload(0x40)\n      tag_18\n      swap2\n      swap1\n      tag_11\n      jump\t// in\n    tag_18:\n      mload(0x40)\n      dup1\n      swap2\n      sub\n      swap1\n      return\n        /* \"Contracts/AKEB.sol\":547:862  function registerAuctionInfo(string memory assetDescriptionInput, ... */\n    tag_6:\n      tag_19\n      0x04\n      dup1\n      calldatasize\n      sub\n      dup2\n      add\n      swap1\n      tag_20\n      swap2\n      swap1\n      tag_21\n      jump\t// in\n    tag_20:\n      tag_22\n      jump\t// in\n    tag_19:\n      stop\n        /* \"Contracts/AKEB.sol\":868:976  function registerBidder() public noAuctioneerInBidderRegistering() {... */\n    tag_7:\n      tag_23\n      tag_24\n      jump\t// in\n    tag_23:\n      stop\n        /* \"Contracts/AKEB.sol\":129:155  uint256 public minBidPrice */\n    tag_9:\n      sload(0x03)\n      dup2\n      jump\t// out\n        /* \"Contracts/AKEB.sol\":93:123  string public assetDescription */\n    tag_13:\n      0x02\n      dup1\n      sload\n      tag_25\n      swap1\n      tag_26\n      jump\t// in\n    tag_25:\n      dup1\n      0x1f\n      add\n      0x20\n      dup1\n      swap2\n      div\n      mul\n      0x20\n      add\n      mload(0x40)\n      swap1\n      dup2\n      add\n      0x40\n      mstore\n      dup1\n      swap3\n      swap2\n      swap1\n      dup2\n      dup2\n      mstore\n      0x20\n      add\n      dup3\n      dup1\n      sload\n      tag_27\n      swap1\n      tag_26\n      jump\t// in\n    tag_27:\n      dup1\n      iszero\n      tag_28\n      jumpi\n      dup1\n      0x1f\n      lt\n      tag_29\n      jumpi\n      0x0100\n      dup1\n      dup4\n      sload\n      div\n      mul\n      dup4\n      mstore\n      swap2\n      0x20\n      add\n      swap2\n      jump(tag_28)\n    tag_29:\n      dup3\n      add\n      swap2\n      swap1\n      0x00\n      mstore\n      keccak256(0x00, 0x20)\n      swap1\n    tag_30:\n      dup2\n      sload\n      dup2\n      mstore\n      swap1\n      0x01\n      add\n      swap1\n      0x20\n      add\n      dup1\n      dup4\n      gt\n      tag_30\n      jumpi\n      dup3\n      swap1\n      sub\n      0x1f\n      and\n      dup3\n      add\n      swap2\n    tag_28:\n      pop\n      pop\n      pop\n      pop\n      pop\n      dup2\n      jump\t// out\n        /* \"Contracts/AKEB.sol\":161:194  uint256 public minNumberOfBidders */\n    tag_17:\n      sload(0x04)\n      dup2\n      jump\t// out\n        /* \"Contracts/AKEB.sol\":547:862  function registerAuctionInfo(string memory assetDescriptionInput, ... */\n    tag_22:\n        /* \"Contracts/AKEB.sol\":324:334  auctioneer */\n      0x00\n      dup1\n      sload\n      swap1\n      0x0100\n      exp\n      swap1\n      div\n      0xffffffffffffffffffffffffffffffffffffffff\n      and\n        /* \"Contracts/AKEB.sol\":310:334  msg.sender == auctioneer */\n      0xffffffffffffffffffffffffffffffffffffffff\n      and\n        /* \"Contracts/AKEB.sol\":310:320  msg.sender */\n      caller\n        /* \"Contracts/AKEB.sol\":310:334  msg.sender == auctioneer */\n      0xffffffffffffffffffffffffffffffffffffffff\n      and\n      eq\n        /* \"Contracts/AKEB.sol\":302:378  require(msg.sender == auctioneer, \"Only auctioneer can call this function.\") */\n      tag_32\n      jumpi\n      mload(0x40)\n      0x08c379a000000000000000000000000000000000000000000000000000000000\n      dup2\n      mstore\n      0x04\n      add\n      tag_33\n      swap1\n      tag_34\n      jump\t// in\n    tag_33:\n      mload(0x40)\n      dup1\n      swap2\n      sub\n      swap1\n      revert\n    tag_32:\n        /* \"Contracts/AKEB.sol\":740:761  assetDescriptionInput */\n      dup3\n        /* \"Contracts/AKEB.sol\":721:737  assetDescription */\n      0x02\n        /* \"Contracts/AKEB.sol\":721:761  assetDescription = assetDescriptionInput */\n      swap1\n      dup1\n      mload\n      swap1\n      0x20\n      add\n      swap1\n      tag_36\n      swap3\n      swap2\n      swap1\n      tag_37\n      jump\t// in\n    tag_36:\n      pop\n        /* \"Contracts/AKEB.sol\":785:801  minBidPriceInput */\n      dup2\n        /* \"Contracts/AKEB.sol\":771:782  minBidPrice */\n      0x03\n        /* \"Contracts/AKEB.sol\":771:801  minBidPrice = minBidPriceInput */\n      dup2\n      swap1\n      sstore\n      pop\n        /* \"Contracts/AKEB.sol\":832:855  minNumberOfBiddersInput */\n      dup1\n        /* \"Contracts/AKEB.sol\":811:829  minNumberOfBidders */\n      0x04\n        /* \"Contracts/AKEB.sol\":811:855  minNumberOfBidders = minNumberOfBiddersInput */\n      dup2\n      swap1\n      sstore\n      pop\n        /* \"Contracts/AKEB.sol\":547:862  function registerAuctionInfo(string memory assetDescriptionInput, ... */\n      pop\n      pop\n      pop\n      jump\t// out\n        /* \"Contracts/AKEB.sol\":868:976  function registerBidder() public noAuctioneerInBidderRegistering() {... */\n    tag_24:\n        /* \"Contracts/AKEB.sol\":468:478  auctioneer */\n      0x00\n      dup1\n      sload\n      swap1\n      0x0100\n      exp\n      swap1\n      div\n      0xffffffffffffffffffffffffffffffffffffffff\n      and\n        /* \"Contracts/AKEB.sol\":454:478  msg.sender != auctioneer */\n      0xffffffffffffffffffffffffffffffffffffffff\n      and\n        /* \"Contracts/AKEB.sol\":454:464  msg.sender */\n      caller\n        /* \"Contracts/AKEB.sol\":454:478  msg.sender != auctioneer */\n      0xffffffffffffffffffffffffffffffffffffffff\n      and\n      sub\n        /* \"Contracts/AKEB.sol\":446:532  require(msg.sender != auctioneer, \"Auctioneer is not allowed to register as a bidder\") */\n      tag_39\n      jumpi\n      mload(0x40)\n      0x08c379a000000000000000000000000000000000000000000000000000000000\n      dup2\n      mstore\n      0x04\n      add\n      tag_40\n      swap1\n      tag_41\n      jump\t// in\n    tag_40:\n      mload(0x40)\n      dup1\n      swap2\n      sub\n      swap1\n      revert\n    tag_39:\n        /* \"Contracts/AKEB.sol\":945:952  bidders */\n      0x01\n        /* \"Contracts/AKEB.sol\":958:968  msg.sender */\n      caller\n        /* \"Contracts/AKEB.sol\":945:969  bidders.push(msg.sender) */\n      swap1\n      dup1\n      0x01\n      dup2\n      sload\n      add\n      dup1\n      dup3\n      sstore\n      dup1\n      swap2\n      pop\n      pop\n      0x01\n      swap1\n      sub\n      swap1\n      0x00\n      mstore\n      keccak256(0x00, 0x20)\n      add\n      0x00\n      swap1\n      swap2\n      swap1\n      swap2\n      swap1\n      swap2\n      0x0100\n      exp\n      dup2\n      sload\n      dup2\n      0xffffffffffffffffffffffffffffffffffffffff\n      mul\n      not\n      and\n      swap1\n      dup4\n      0xffffffffffffffffffffffffffffffffffffffff\n      and\n      mul\n      or\n      swap1\n      sstore\n      pop\n        /* \"Contracts/AKEB.sol\":868:976  function registerBidder() public noAuctioneerInBidderRegistering() {... */\n      jump\t// out\n    tag_37:\n      dup3\n      dup1\n      sload\n      tag_44\n      swap1\n      tag_26\n      jump\t// in\n    tag_44:\n      swap1\n      0x00\n      mstore\n      keccak256(0x00, 0x20)\n      swap1\n      0x1f\n      add\n      0x20\n      swap1\n      div\n      dup2\n      add\n      swap3\n      dup3\n      tag_46\n      jumpi\n      0x00\n      dup6\n      sstore\n      jump(tag_45)\n    tag_46:\n      dup3\n      0x1f\n      lt\n      tag_47\n      jumpi\n      dup1\n      mload\n      not(0xff)\n      and\n      dup4\n      dup1\n      add\n      or\n      dup6\n      sstore\n      jump(tag_45)\n    tag_47:\n      dup3\n      dup1\n      add\n      0x01\n      add\n      dup6\n      sstore\n      dup3\n      iszero\n      tag_45\n      jumpi\n      swap2\n      dup3\n      add\n    tag_48:\n      dup3\n      dup2\n      gt\n      iszero\n      tag_49\n      jumpi\n      dup3\n      mload\n      dup3\n      sstore\n      swap2\n      0x20\n      add\n      swap2\n      swap1\n      0x01\n      add\n      swap1\n      jump(tag_48)\n    tag_49:\n    tag_45:\n      pop\n      swap1\n      pop\n      tag_50\n      swap2\n      swap1\n      tag_51\n      jump\t// in\n    tag_50:\n      pop\n      swap1\n      jump\t// out\n    tag_51:\n    tag_52:\n      dup1\n      dup3\n      gt\n      iszero\n      tag_53\n      jumpi\n      0x00\n      dup2\n      0x00\n      swap1\n      sstore\n      pop\n      0x01\n      add\n      jump(tag_52)\n    tag_53:\n      pop\n      swap1\n      jump\t// out\n        /* \"#utility.yul\":7:84   */\n    tag_54:\n        /* \"#utility.yul\":44:51   */\n      0x00\n        /* \"#utility.yul\":73:78   */\n      dup2\n        /* \"#utility.yul\":62:78   */\n      swap1\n      pop\n        /* \"#utility.yul\":7:84   */\n      swap2\n      swap1\n      pop\n      jump\t// out\n        /* \"#utility.yul\":90:208   */\n    tag_55:\n        /* \"#utility.yul\":177:201   */\n      tag_83\n        /* \"#utility.yul\":195:200   */\n      dup2\n        /* \"#utility.yul\":177:201   */\n      tag_54\n      jump\t// in\n    tag_83:\n        /* \"#utility.yul\":172:175   */\n      dup3\n        /* \"#utility.yul\":165:202   */\n      mstore\n        /* \"#utility.yul\":90:208   */\n      pop\n      pop\n      jump\t// out\n        /* \"#utility.yul\":214:436   */\n    tag_11:\n        /* \"#utility.yul\":307:311   */\n      0x00\n        /* \"#utility.yul\":345:347   */\n      0x20\n        /* \"#utility.yul\":334:343   */\n      dup3\n        /* \"#utility.yul\":330:348   */\n      add\n        /* \"#utility.yul\":322:348   */\n      swap1\n      pop\n        /* \"#utility.yul\":358:429   */\n      tag_85\n        /* \"#utility.yul\":426:427   */\n      0x00\n        /* \"#utility.yul\":415:424   */\n      dup4\n        /* \"#utility.yul\":411:428   */\n      add\n        /* \"#utility.yul\":402:408   */\n      dup5\n        /* \"#utility.yul\":358:429   */\n      tag_55\n      jump\t// in\n    tag_85:\n        /* \"#utility.yul\":214:436   */\n      swap3\n      swap2\n      pop\n      pop\n      jump\t// out\n        /* \"#utility.yul\":442:541   */\n    tag_56:\n        /* \"#utility.yul\":494:500   */\n      0x00\n        /* \"#utility.yul\":528:533   */\n      dup2\n        /* \"#utility.yul\":522:534   */\n      mload\n        /* \"#utility.yul\":512:534   */\n      swap1\n      pop\n        /* \"#utility.yul\":442:541   */\n      swap2\n      swap1\n      pop\n      jump\t// out\n        /* \"#utility.yul\":547:716   */\n    tag_57:\n        /* \"#utility.yul\":631:642   */\n      0x00\n        /* \"#utility.yul\":665:671   */\n      dup3\n        /* \"#utility.yul\":660:663   */\n      dup3\n        /* \"#utility.yul\":653:672   */\n      mstore\n        /* \"#utility.yul\":705:709   */\n      0x20\n        /* \"#utility.yul\":700:703   */\n      dup3\n        /* \"#utility.yul\":696:710   */\n      add\n        /* \"#utility.yul\":681:710   */\n      swap1\n      pop\n        /* \"#utility.yul\":547:716   */\n      swap3\n      swap2\n      pop\n      pop\n      jump\t// out\n        /* \"#utility.yul\":722:1029   */\n    tag_58:\n        /* \"#utility.yul\":790:791   */\n      0x00\n        /* \"#utility.yul\":800:913   */\n    tag_89:\n        /* \"#utility.yul\":814:820   */\n      dup4\n        /* \"#utility.yul\":811:812   */\n      dup2\n        /* \"#utility.yul\":808:821   */\n      lt\n        /* \"#utility.yul\":800:913   */\n      iszero\n      tag_91\n      jumpi\n        /* \"#utility.yul\":899:900   */\n      dup1\n        /* \"#utility.yul\":894:897   */\n      dup3\n        /* \"#utility.yul\":890:901   */\n      add\n        /* \"#utility.yul\":884:902   */\n      mload\n        /* \"#utility.yul\":880:881   */\n      dup2\n        /* \"#utility.yul\":875:878   */\n      dup5\n        /* \"#utility.yul\":871:882   */\n      add\n        /* \"#utility.yul\":864:903   */\n      mstore\n        /* \"#utility.yul\":836:838   */\n      0x20\n        /* \"#utility.yul\":833:834   */\n      dup2\n        /* \"#utility.yul\":829:839   */\n      add\n        /* \"#utility.yul\":824:839   */\n      swap1\n      pop\n        /* \"#utility.yul\":800:913   */\n      jump(tag_89)\n    tag_91:\n        /* \"#utility.yul\":931:937   */\n      dup4\n        /* \"#utility.yul\":928:929   */\n      dup2\n        /* \"#utility.yul\":925:938   */\n      gt\n        /* \"#utility.yul\":922:1023   */\n      iszero\n      tag_92\n      jumpi\n        /* \"#utility.yul\":1011:1012   */\n      0x00\n        /* \"#utility.yul\":1002:1008   */\n      dup5\n        /* \"#utility.yul\":997:1000   */\n      dup5\n        /* \"#utility.yul\":993:1009   */\n      add\n        /* \"#utility.yul\":986:1013   */\n      mstore\n        /* \"#utility.yul\":922:1023   */\n    tag_92:\n        /* \"#utility.yul\":771:1029   */\n      pop\n        /* \"#utility.yul\":722:1029   */\n      pop\n      pop\n      pop\n      jump\t// out\n        /* \"#utility.yul\":1035:1137   */\n    tag_59:\n        /* \"#utility.yul\":1076:1082   */\n      0x00\n        /* \"#utility.yul\":1127:1129   */\n      0x1f\n        /* \"#utility.yul\":1123:1130   */\n      not\n        /* \"#utility.yul\":1118:1120   */\n      0x1f\n        /* \"#utility.yul\":1111:1116   */\n      dup4\n        /* \"#utility.yul\":1107:1121   */\n      add\n        /* \"#utility.yul\":1103:1131   */\n      and\n        /* \"#utility.yul\":1093:1131   */\n      swap1\n      pop\n        /* \"#utility.yul\":1035:1137   */\n      swap2\n      swap1\n      pop\n      jump\t// out\n        /* \"#utility.yul\":1143:1507   */\n    tag_60:\n        /* \"#utility.yul\":1231:1234   */\n      0x00\n        /* \"#utility.yul\":1259:1298   */\n      tag_95\n        /* \"#utility.yul\":1292:1297   */\n      dup3\n        /* \"#utility.yul\":1259:1298   */\n      tag_56\n      jump\t// in\n    tag_95:\n        /* \"#utility.yul\":1314:1385   */\n      tag_96\n        /* \"#utility.yul\":1378:1384   */\n      dup2\n        /* \"#utility.yul\":1373:1376   */\n      dup6\n        /* \"#utility.yul\":1314:1385   */\n      tag_57\n      jump\t// in\n    tag_96:\n        /* \"#utility.yul\":1307:1385   */\n      swap4\n      pop\n        /* \"#utility.yul\":1394:1446   */\n      tag_97\n        /* \"#utility.yul\":1439:1445   */\n      dup2\n        /* \"#utility.yul\":1434:1437   */\n      dup6\n        /* \"#utility.yul\":1427:1431   */\n      0x20\n        /* \"#utility.yul\":1420:1425   */\n      dup7\n        /* \"#utility.yul\":1416:1432   */\n      add\n        /* \"#utility.yul\":1394:1446   */\n      tag_58\n      jump\t// in\n    tag_97:\n        /* \"#utility.yul\":1471:1500   */\n      tag_98\n        /* \"#utility.yul\":1493:1499   */\n      dup2\n        /* \"#utility.yul\":1471:1500   */\n      tag_59\n      jump\t// in\n    tag_98:\n        /* \"#utility.yul\":1466:1469   */\n      dup5\n        /* \"#utility.yul\":1462:1501   */\n      add\n        /* \"#utility.yul\":1455:1501   */\n      swap2\n      pop\n        /* \"#utility.yul\":1235:1507   */\n      pop\n        /* \"#utility.yul\":1143:1507   */\n      swap3\n      swap2\n      pop\n      pop\n      jump\t// out\n        /* \"#utility.yul\":1513:1826   */\n    tag_15:\n        /* \"#utility.yul\":1626:1630   */\n      0x00\n        /* \"#utility.yul\":1664:1666   */\n      0x20\n        /* \"#utility.yul\":1653:1662   */\n      dup3\n        /* \"#utility.yul\":1649:1667   */\n      add\n        /* \"#utility.yul\":1641:1667   */\n      swap1\n      pop\n        /* \"#utility.yul\":1713:1722   */\n      dup2\n        /* \"#utility.yul\":1707:1711   */\n      dup2\n        /* \"#utility.yul\":1703:1723   */\n      sub\n        /* \"#utility.yul\":1699:1700   */\n      0x00\n        /* \"#utility.yul\":1688:1697   */\n      dup4\n        /* \"#utility.yul\":1684:1701   */\n      add\n        /* \"#utility.yul\":1677:1724   */\n      mstore\n        /* \"#utility.yul\":1741:1819   */\n      tag_100\n        /* \"#utility.yul\":1814:1818   */\n      dup2\n        /* \"#utility.yul\":1805:1811   */\n      dup5\n        /* \"#utility.yul\":1741:1819   */\n      tag_60\n      jump\t// in\n    tag_100:\n        /* \"#utility.yul\":1733:1819   */\n      swap1\n      pop\n        /* \"#utility.yul\":1513:1826   */\n      swap3\n      swap2\n      pop\n      pop\n      jump\t// out\n        /* \"#utility.yul\":1832:1907   */\n    tag_61:\n        /* \"#utility.yul\":1865:1871   */\n      0x00\n        /* \"#utility.yul\":1898:1900   */\n      0x40\n        /* \"#utility.yul\":1892:1901   */\n      mload\n        /* \"#utility.yul\":1882:1901   */\n      swap1\n      pop\n        /* \"#utility.yul\":1832:1907   */\n      swap1\n      jump\t// out\n        /* \"#utility.yul\":1913:2030   */\n    tag_62:\n        /* \"#utility.yul\":2022:2023   */\n      0x00\n        /* \"#utility.yul\":2019:2020   */\n      dup1\n        /* \"#utility.yul\":2012:2024   */\n      revert\n        /* \"#utility.yul\":2036:2153   */\n    tag_63:\n        /* \"#utility.yul\":2145:2146   */\n      0x00\n        /* \"#utility.yul\":2142:2143   */\n      dup1\n        /* \"#utility.yul\":2135:2147   */\n      revert\n        /* \"#utility.yul\":2159:2276   */\n    tag_64:\n        /* \"#utility.yul\":2268:2269   */\n      0x00\n        /* \"#utility.yul\":2265:2266   */\n      dup1\n        /* \"#utility.yul\":2258:2270   */\n      revert\n        /* \"#utility.yul\":2282:2399   */\n    tag_65:\n        /* \"#utility.yul\":2391:2392   */\n      0x00\n        /* \"#utility.yul\":2388:2389   */\n      dup1\n        /* \"#utility.yul\":2381:2393   */\n      revert\n        /* \"#utility.yul\":2405:2585   */\n    tag_66:\n        /* \"#utility.yul\":2453:2530   */\n      0x4e487b7100000000000000000000000000000000000000000000000000000000\n        /* \"#utility.yul\":2450:2451   */\n      0x00\n        /* \"#utility.yul\":2443:2531   */\n      mstore\n        /* \"#utility.yul\":2550:2554   */\n      0x41\n        /* \"#utility.yul\":2547:2548   */\n      0x04\n        /* \"#utility.yul\":2540:2555   */\n      mstore\n        /* \"#utility.yul\":2574:2578   */\n      0x24\n        /* \"#utility.yul\":2571:2572   */\n      0x00\n        /* \"#utility.yul\":2564:2579   */\n      revert\n        /* \"#utility.yul\":2591:2872   */\n    tag_67:\n        /* \"#utility.yul\":2674:2701   */\n      tag_108\n        /* \"#utility.yul\":2696:2700   */\n      dup3\n        /* \"#utility.yul\":2674:2701   */\n      tag_59\n      jump\t// in\n    tag_108:\n        /* \"#utility.yul\":2666:2672   */\n      dup2\n        /* \"#utility.yul\":2662:2702   */\n      add\n        /* \"#utility.yul\":2804:2810   */\n      dup2\n        /* \"#utility.yul\":2792:2802   */\n      dup2\n        /* \"#utility.yul\":2789:2811   */\n      lt\n        /* \"#utility.yul\":2768:2786   */\n      0xffffffffffffffff\n        /* \"#utility.yul\":2756:2766   */\n      dup3\n        /* \"#utility.yul\":2753:2787   */\n      gt\n        /* \"#utility.yul\":2750:2812   */\n      or\n        /* \"#utility.yul\":2747:2835   */\n      iszero\n      tag_109\n      jumpi\n        /* \"#utility.yul\":2815:2833   */\n      tag_110\n      tag_66\n      jump\t// in\n    tag_110:\n        /* \"#utility.yul\":2747:2835   */\n    tag_109:\n        /* \"#utility.yul\":2855:2865   */\n      dup1\n        /* \"#utility.yul\":2851:2853   */\n      0x40\n        /* \"#utility.yul\":2844:2866   */\n      mstore\n        /* \"#utility.yul\":2634:2872   */\n      pop\n        /* \"#utility.yul\":2591:2872   */\n      pop\n      pop\n      jump\t// out\n        /* \"#utility.yul\":2878:3007   */\n    tag_68:\n        /* \"#utility.yul\":2912:2918   */\n      0x00\n        /* \"#utility.yul\":2939:2959   */\n      tag_112\n      tag_61\n      jump\t// in\n    tag_112:\n        /* \"#utility.yul\":2929:2959   */\n      swap1\n      pop\n        /* \"#utility.yul\":2968:3001   */\n      tag_113\n        /* \"#utility.yul\":2996:3000   */\n      dup3\n        /* \"#utility.yul\":2988:2994   */\n      dup3\n        /* \"#utility.yul\":2968:3001   */\n      tag_67\n      jump\t// in\n    tag_113:\n        /* \"#utility.yul\":2878:3007   */\n      swap2\n      swap1\n      pop\n      jump\t// out\n        /* \"#utility.yul\":3013:3321   */\n    tag_69:\n        /* \"#utility.yul\":3075:3079   */\n      0x00\n        /* \"#utility.yul\":3165:3183   */\n      0xffffffffffffffff\n        /* \"#utility.yul\":3157:3163   */\n      dup3\n        /* \"#utility.yul\":3154:3184   */\n      gt\n        /* \"#utility.yul\":3151:3207   */\n      iszero\n      tag_115\n      jumpi\n        /* \"#utility.yul\":3187:3205   */\n      tag_116\n      tag_66\n      jump\t// in\n    tag_116:\n        /* \"#utility.yul\":3151:3207   */\n    tag_115:\n        /* \"#utility.yul\":3225:3254   */\n      tag_117\n        /* \"#utility.yul\":3247:3253   */\n      dup3\n        /* \"#utility.yul\":3225:3254   */\n      tag_59\n      jump\t// in\n    tag_117:\n        /* \"#utility.yul\":3217:3254   */\n      swap1\n      pop\n        /* \"#utility.yul\":3309:3313   */\n      0x20\n        /* \"#utility.yul\":3303:3307   */\n      dup2\n        /* \"#utility.yul\":3299:3314   */\n      add\n        /* \"#utility.yul\":3291:3314   */\n      swap1\n      pop\n        /* \"#utility.yul\":3013:3321   */\n      swap2\n      swap1\n      pop\n      jump\t// out\n        /* \"#utility.yul\":3327:3481   */\n    tag_70:\n        /* \"#utility.yul\":3411:3417   */\n      dup3\n        /* \"#utility.yul\":3406:3409   */\n      dup2\n        /* \"#utility.yul\":3401:3404   */\n      dup4\n        /* \"#utility.yul\":3388:3418   */\n      calldatacopy\n        /* \"#utility.yul\":3473:3474   */\n      0x00\n        /* \"#utility.yul\":3464:3470   */\n      dup4\n        /* \"#utility.yul\":3459:3462   */\n      dup4\n        /* \"#utility.yul\":3455:3471   */\n      add\n        /* \"#utility.yul\":3448:3475   */\n      mstore\n        /* \"#utility.yul\":3327:3481   */\n      pop\n      pop\n      pop\n      jump\t// out\n        /* \"#utility.yul\":3487:3899   */\n    tag_71:\n        /* \"#utility.yul\":3565:3570   */\n      0x00\n        /* \"#utility.yul\":3590:3656   */\n      tag_120\n        /* \"#utility.yul\":3606:3655   */\n      tag_121\n        /* \"#utility.yul\":3648:3654   */\n      dup5\n        /* \"#utility.yul\":3606:3655   */\n      tag_69\n      jump\t// in\n    tag_121:\n        /* \"#utility.yul\":3590:3656   */\n      tag_68\n      jump\t// in\n    tag_120:\n        /* \"#utility.yul\":3581:3656   */\n      swap1\n      pop\n        /* \"#utility.yul\":3679:3685   */\n      dup3\n        /* \"#utility.yul\":3672:3677   */\n      dup2\n        /* \"#utility.yul\":3665:3686   */\n      mstore\n        /* \"#utility.yul\":3717:3721   */\n      0x20\n        /* \"#utility.yul\":3710:3715   */\n      dup2\n        /* \"#utility.yul\":3706:3722   */\n      add\n        /* \"#utility.yul\":3755:3758   */\n      dup5\n        /* \"#utility.yul\":3746:3752   */\n      dup5\n        /* \"#utility.yul\":3741:3744   */\n      dup5\n        /* \"#utility.yul\":3737:3753   */\n      add\n        /* \"#utility.yul\":3734:3759   */\n      gt\n        /* \"#utility.yul\":3731:3843   */\n      iszero\n      tag_122\n      jumpi\n        /* \"#utility.yul\":3762:3841   */\n      tag_123\n      tag_65\n      jump\t// in\n    tag_123:\n        /* \"#utility.yul\":3731:3843   */\n    tag_122:\n        /* \"#utility.yul\":3852:3893   */\n      tag_124\n        /* \"#utility.yul\":3886:3892   */\n      dup5\n        /* \"#utility.yul\":3881:3884   */\n      dup3\n        /* \"#utility.yul\":3876:3879   */\n      dup6\n        /* \"#utility.yul\":3852:3893   */\n      tag_70\n      jump\t// in\n    tag_124:\n        /* \"#utility.yul\":3571:3899   */\n      pop\n        /* \"#utility.yul\":3487:3899   */\n      swap4\n      swap3\n      pop\n      pop\n      pop\n      jump\t// out\n        /* \"#utility.yul\":3919:4259   */\n    tag_72:\n        /* \"#utility.yul\":3975:3980   */\n      0x00\n        /* \"#utility.yul\":4024:4027   */\n      dup3\n        /* \"#utility.yul\":4017:4021   */\n      0x1f\n        /* \"#utility.yul\":4009:4015   */\n      dup4\n        /* \"#utility.yul\":4005:4022   */\n      add\n        /* \"#utility.yul\":4001:4028   */\n      slt\n        /* \"#utility.yul\":3991:4113   */\n      tag_126\n      jumpi\n        /* \"#utility.yul\":4032:4111   */\n      tag_127\n      tag_64\n      jump\t// in\n    tag_127:\n        /* \"#utility.yul\":3991:4113   */\n    tag_126:\n        /* \"#utility.yul\":4149:4155   */\n      dup2\n        /* \"#utility.yul\":4136:4156   */\n      calldataload\n        /* \"#utility.yul\":4174:4253   */\n      tag_128\n        /* \"#utility.yul\":4249:4252   */\n      dup5\n        /* \"#utility.yul\":4241:4247   */\n      dup3\n        /* \"#utility.yul\":4234:4238   */\n      0x20\n        /* \"#utility.yul\":4226:4232   */\n      dup7\n        /* \"#utility.yul\":4222:4239   */\n      add\n        /* \"#utility.yul\":4174:4253   */\n      tag_71\n      jump\t// in\n    tag_128:\n        /* \"#utility.yul\":4165:4253   */\n      swap2\n      pop\n        /* \"#utility.yul\":3981:4259   */\n      pop\n        /* \"#utility.yul\":3919:4259   */\n      swap3\n      swap2\n      pop\n      pop\n      jump\t// out\n        /* \"#utility.yul\":4265:4387   */\n    tag_73:\n        /* \"#utility.yul\":4338:4362   */\n      tag_130\n        /* \"#utility.yul\":4356:4361   */\n      dup2\n        /* \"#utility.yul\":4338:4362   */\n      tag_54\n      jump\t// in\n    tag_130:\n        /* \"#utility.yul\":4331:4336   */\n      dup2\n        /* \"#utility.yul\":4328:4363   */\n      eq\n        /* \"#utility.yul\":4318:4381   */\n      tag_131\n      jumpi\n        /* \"#utility.yul\":4377:4378   */\n      0x00\n        /* \"#utility.yul\":4374:4375   */\n      dup1\n        /* \"#utility.yul\":4367:4379   */\n      revert\n        /* \"#utility.yul\":4318:4381   */\n    tag_131:\n        /* \"#utility.yul\":4265:4387   */\n      pop\n      jump\t// out\n        /* \"#utility.yul\":4393:4532   */\n    tag_74:\n        /* \"#utility.yul\":4439:4444   */\n      0x00\n        /* \"#utility.yul\":4477:4483   */\n      dup2\n        /* \"#utility.yul\":4464:4484   */\n      calldataload\n        /* \"#utility.yul\":4455:4484   */\n      swap1\n      pop\n        /* \"#utility.yul\":4493:4526   */\n      tag_133\n        /* \"#utility.yul\":4520:4525   */\n      dup2\n        /* \"#utility.yul\":4493:4526   */\n      tag_73\n      jump\t// in\n    tag_133:\n        /* \"#utility.yul\":4393:4532   */\n      swap3\n      swap2\n      pop\n      pop\n      jump\t// out\n        /* \"#utility.yul\":4538:5337   */\n    tag_21:\n        /* \"#utility.yul\":4625:4631   */\n      0x00\n        /* \"#utility.yul\":4633:4639   */\n      dup1\n        /* \"#utility.yul\":4641:4647   */\n      0x00\n        /* \"#utility.yul\":4690:4692   */\n      0x60\n        /* \"#utility.yul\":4678:4687   */\n      dup5\n        /* \"#utility.yul\":4669:4676   */\n      dup7\n        /* \"#utility.yul\":4665:4688   */\n      sub\n        /* \"#utility.yul\":4661:4693   */\n      slt\n        /* \"#utility.yul\":4658:4777   */\n      iszero\n      tag_135\n      jumpi\n        /* \"#utility.yul\":4696:4775   */\n      tag_136\n      tag_62\n      jump\t// in\n    tag_136:\n        /* \"#utility.yul\":4658:4777   */\n    tag_135:\n        /* \"#utility.yul\":4844:4845   */\n      0x00\n        /* \"#utility.yul\":4833:4842   */\n      dup5\n        /* \"#utility.yul\":4829:4846   */\n      add\n        /* \"#utility.yul\":4816:4847   */\n      calldataload\n        /* \"#utility.yul\":4874:4892   */\n      0xffffffffffffffff\n        /* \"#utility.yul\":4866:4872   */\n      dup2\n        /* \"#utility.yul\":4863:4893   */\n      gt\n        /* \"#utility.yul\":4860:4977   */\n      iszero\n      tag_137\n      jumpi\n        /* \"#utility.yul\":4896:4975   */\n      tag_138\n      tag_63\n      jump\t// in\n    tag_138:\n        /* \"#utility.yul\":4860:4977   */\n    tag_137:\n        /* \"#utility.yul\":5001:5064   */\n      tag_139\n        /* \"#utility.yul\":5056:5063   */\n      dup7\n        /* \"#utility.yul\":5047:5053   */\n      dup3\n        /* \"#utility.yul\":5036:5045   */\n      dup8\n        /* \"#utility.yul\":5032:5054   */\n      add\n        /* \"#utility.yul\":5001:5064   */\n      tag_72\n      jump\t// in\n    tag_139:\n        /* \"#utility.yul\":4991:5064   */\n      swap4\n      pop\n        /* \"#utility.yul\":4787:5074   */\n      pop\n        /* \"#utility.yul\":5113:5115   */\n      0x20\n        /* \"#utility.yul\":5139:5192   */\n      tag_140\n        /* \"#utility.yul\":5184:5191   */\n      dup7\n        /* \"#utility.yul\":5175:5181   */\n      dup3\n        /* \"#utility.yul\":5164:5173   */\n      dup8\n        /* \"#utility.yul\":5160:5182   */\n      add\n        /* \"#utility.yul\":5139:5192   */\n      tag_74\n      jump\t// in\n    tag_140:\n        /* \"#utility.yul\":5129:5192   */\n      swap3\n      pop\n        /* \"#utility.yul\":5084:5202   */\n      pop\n        /* \"#utility.yul\":5241:5243   */\n      0x40\n        /* \"#utility.yul\":5267:5320   */\n      tag_141\n        /* \"#utility.yul\":5312:5319   */\n      dup7\n        /* \"#utility.yul\":5303:5309   */\n      dup3\n        /* \"#utility.yul\":5292:5301   */\n      dup8\n        /* \"#utility.yul\":5288:5310   */\n      add\n        /* \"#utility.yul\":5267:5320   */\n      tag_74\n      jump\t// in\n    tag_141:\n        /* \"#utility.yul\":5257:5320   */\n      swap2\n      pop\n        /* \"#utility.yul\":5212:5330   */\n      pop\n        /* \"#utility.yul\":4538:5337   */\n      swap3\n      pop\n      swap3\n      pop\n      swap3\n      jump\t// out\n        /* \"#utility.yul\":5343:5523   */\n    tag_75:\n        /* \"#utility.yul\":5391:5468   */\n      0x4e487b7100000000000000000000000000000000000000000000000000000000\n        /* \"#utility.yul\":5388:5389   */\n      0x00\n        /* \"#utility.yul\":5381:5469   */\n      mstore\n        /* \"#utility.yul\":5488:5492   */\n      0x22\n        /* \"#utility.yul\":5485:5486   */\n      0x04\n        /* \"#utility.yul\":5478:5493   */\n      mstore\n        /* \"#utility.yul\":5512:5516   */\n      0x24\n        /* \"#utility.yul\":5509:5510   */\n      0x00\n        /* \"#utility.yul\":5502:5517   */\n      revert\n        /* \"#utility.yul\":5529:5849   */\n    tag_26:\n        /* \"#utility.yul\":5573:5579   */\n      0x00\n        /* \"#utility.yul\":5610:5611   */\n      0x02\n        /* \"#utility.yul\":5604:5608   */\n      dup3\n        /* \"#utility.yul\":5600:5612   */\n      div\n        /* \"#utility.yul\":5590:5612   */\n      swap1\n      pop\n        /* \"#utility.yul\":5657:5658   */\n      0x01\n        /* \"#utility.yul\":5651:5655   */\n      dup3\n        /* \"#utility.yul\":5647:5659   */\n      and\n        /* \"#utility.yul\":5678:5696   */\n      dup1\n        /* \"#utility.yul\":5668:5749   */\n      tag_144\n      jumpi\n        /* \"#utility.yul\":5734:5738   */\n      0x7f\n        /* \"#utility.yul\":5726:5732   */\n      dup3\n        /* \"#utility.yul\":5722:5739   */\n      and\n        /* \"#utility.yul\":5712:5739   */\n      swap2\n      pop\n        /* \"#utility.yul\":5668:5749   */\n    tag_144:\n        /* \"#utility.yul\":5796:5798   */\n      0x20\n        /* \"#utility.yul\":5788:5794   */\n      dup3\n        /* \"#utility.yul\":5785:5799   */\n      lt\n        /* \"#utility.yul\":5765:5783   */\n      dup2\n        /* \"#utility.yul\":5762:5800   */\n      sub\n        /* \"#utility.yul\":5759:5843   */\n      tag_145\n      jumpi\n        /* \"#utility.yul\":5815:5833   */\n      tag_146\n      tag_75\n      jump\t// in\n    tag_146:\n        /* \"#utility.yul\":5759:5843   */\n    tag_145:\n        /* \"#utility.yul\":5580:5849   */\n      pop\n        /* \"#utility.yul\":5529:5849   */\n      swap2\n      swap1\n      pop\n      jump\t// out\n        /* \"#utility.yul\":5855:6081   */\n    tag_76:\n        /* \"#utility.yul\":5995:6029   */\n      0x4f6e6c792061756374696f6e6565722063616e2063616c6c2074686973206675\n        /* \"#utility.yul\":5991:5992   */\n      0x00\n        /* \"#utility.yul\":5983:5989   */\n      dup3\n        /* \"#utility.yul\":5979:5993   */\n      add\n        /* \"#utility.yul\":5972:6030   */\n      mstore\n        /* \"#utility.yul\":6064:6073   */\n      0x6e6374696f6e2e00000000000000000000000000000000000000000000000000\n        /* \"#utility.yul\":6059:6061   */\n      0x20\n        /* \"#utility.yul\":6051:6057   */\n      dup3\n        /* \"#utility.yul\":6047:6062   */\n      add\n        /* \"#utility.yul\":6040:6074   */\n      mstore\n        /* \"#utility.yul\":5855:6081   */\n      pop\n      jump\t// out\n        /* \"#utility.yul\":6087:6453   */\n    tag_77:\n        /* \"#utility.yul\":6229:6232   */\n      0x00\n        /* \"#utility.yul\":6250:6317   */\n      tag_149\n        /* \"#utility.yul\":6314:6316   */\n      0x27\n        /* \"#utility.yul\":6309:6312   */\n      dup4\n        /* \"#utility.yul\":6250:6317   */\n      tag_57\n      jump\t// in\n    tag_149:\n        /* \"#utility.yul\":6243:6317   */\n      swap2\n      pop\n        /* \"#utility.yul\":6326:6419   */\n      tag_150\n        /* \"#utility.yul\":6415:6418   */\n      dup3\n        /* \"#utility.yul\":6326:6419   */\n      tag_76\n      jump\t// in\n    tag_150:\n        /* \"#utility.yul\":6444:6446   */\n      0x40\n        /* \"#utility.yul\":6439:6442   */\n      dup3\n        /* \"#utility.yul\":6435:6447   */\n      add\n        /* \"#utility.yul\":6428:6447   */\n      swap1\n      pop\n        /* \"#utility.yul\":6087:6453   */\n      swap2\n      swap1\n      pop\n      jump\t// out\n        /* \"#utility.yul\":6459:6878   */\n    tag_34:\n        /* \"#utility.yul\":6625:6629   */\n      0x00\n        /* \"#utility.yul\":6663:6665   */\n      0x20\n        /* \"#utility.yul\":6652:6661   */\n      dup3\n        /* \"#utility.yul\":6648:6666   */\n      add\n        /* \"#utility.yul\":6640:6666   */\n      swap1\n      pop\n        /* \"#utility.yul\":6712:6721   */\n      dup2\n        /* \"#utility.yul\":6706:6710   */\n      dup2\n        /* \"#utility.yul\":6702:6722   */\n      sub\n        /* \"#utility.yul\":6698:6699   */\n      0x00\n        /* \"#utility.yul\":6687:6696   */\n      dup4\n        /* \"#utility.yul\":6683:6700   */\n      add\n        /* \"#utility.yul\":6676:6723   */\n      mstore\n        /* \"#utility.yul\":6740:6871   */\n      tag_152\n        /* \"#utility.yul\":6866:6870   */\n      dup2\n        /* \"#utility.yul\":6740:6871   */\n      tag_77\n      jump\t// in\n    tag_152:\n        /* \"#utility.yul\":6732:6871   */\n      swap1\n      pop\n        /* \"#utility.yul\":6459:6878   */\n      swap2\n      swap1\n      pop\n      jump\t// out\n        /* \"#utility.yul\":6884:7120   */\n    tag_78:\n        /* \"#utility.yul\":7024:7058   */\n      0x41756374696f6e656572206973206e6f7420616c6c6f77656420746f20726567\n        /* \"#utility.yul\":7020:7021   */\n      0x00\n        /* \"#utility.yul\":7012:7018   */\n      dup3\n        /* \"#utility.yul\":7008:7022   */\n      add\n        /* \"#utility.yul\":7001:7059   */\n      mstore\n        /* \"#utility.yul\":7093:7112   */\n      0x6973746572206173206120626964646572000000000000000000000000000000\n        /* \"#utility.yul\":7088:7090   */\n      0x20\n        /* \"#utility.yul\":7080:7086   */\n      dup3\n        /* \"#utility.yul\":7076:7091   */\n      add\n        /* \"#utility.yul\":7069:7113   */\n      mstore\n        /* \"#utility.yul\":6884:7120   */\n      pop\n      jump\t// out\n        /* \"#utility.yul\":7126:7492   */\n    tag_79:\n        /* \"#utility.yul\":7268:7271   */\n      0x00\n        /* \"#utility.yul\":7289:7356   */\n      tag_155\n        /* \"#utility.yul\":7353:7355   */\n      0x31\n        /* \"#utility.yul\":7348:7351   */\n      dup4\n        /* \"#utility.yul\":7289:7356   */\n      tag_57\n      jump\t// in\n    tag_155:\n        /* \"#utility.yul\":7282:7356   */\n      swap2\n      pop\n        /* \"#utility.yul\":7365:7458   */\n      tag_156\n        /* \"#utility.yul\":7454:7457   */\n      dup3\n        /* \"#utility.yul\":7365:7458   */\n      tag_78\n      jump\t// in\n    tag_156:\n        /* \"#utility.yul\":7483:7485   */\n      0x40\n        /* \"#utility.yul\":7478:7481   */\n      dup3\n        /* \"#utility.yul\":7474:7486   */\n      add\n        /* \"#utility.yul\":7467:7486   */\n      swap1\n      pop\n        /* \"#utility.yul\":7126:7492   */\n      swap2\n      swap1\n      pop\n      jump\t// out\n        /* \"#utility.yul\":7498:7917   */\n    tag_41:\n        /* \"#utility.yul\":7664:7668   */\n      0x00\n        /* \"#utility.yul\":7702:7704   */\n      0x20\n        /* \"#utility.yul\":7691:7700   */\n      dup3\n        /* \"#utility.yul\":7687:7705   */\n      add\n        /* \"#utility.yul\":7679:7705   */\n      swap1\n      pop\n        /* \"#utility.yul\":7751:7760   */\n      dup2\n        /* \"#utility.yul\":7745:7749   */\n      dup2\n        /* \"#utility.yul\":7741:7761   */\n      sub\n        /* \"#utility.yul\":7737:7738   */\n      0x00\n        /* \"#utility.yul\":7726:7735   */\n      dup4\n        /* \"#utility.yul\":7722:7739   */\n      add\n        /* \"#utility.yul\":7715:7762   */\n      mstore\n        /* \"#utility.yul\":7779:7910   */\n      tag_158\n        /* \"#utility.yul\":7905:7909   */\n      dup2\n        /* \"#utility.yul\":7779:7910   */\n      tag_79\n      jump\t// in\n    tag_158:\n        /* \"#utility.yul\":7771:7910   */\n      swap1\n      pop\n        /* \"#utility.yul\":7498:7917   */\n      swap2\n      swap1\n      pop\n      jump\t// out\n\n    auxdata: 0xa264697066735822122060d4a40534dc4c2d340888755a704ba5ca24b7284f8c2118ea0d24b03dc0d7c164736f6c634300080e0033\n}\n",
				"bytecode": {
					"linkReferences": {},
					"object": "608060405234801561001057600080fd5b50336000806101000a81548173ffffffffffffffffffffffffffffffffffffffff021916908373ffffffffffffffffffffffffffffffffffffffff160217905550610851806100606000396000f3fe608060405234801561001057600080fd5b50600436106100575760003560e01c806334eb86a21461005c578063938626c21461007a578063daa0218f14610098578063e7d2a997146100b6578063f356733c146100d2575b600080fd5b6100646100dc565b60405161007191906103dd565b60405180910390f35b6100826100e2565b60405161008f9190610491565b60405180910390f35b6100a0610170565b6040516100ad91906103dd565b60405180910390f35b6100d060048036038101906100cb9190610628565b610176565b005b6100da61022e565b005b60035481565b600280546100ef906106c6565b80601f016020809104026020016040519081016040528092919081815260200182805461011b906106c6565b80156101685780601f1061013d57610100808354040283529160200191610168565b820191906000526020600020905b81548152906001019060200180831161014b57829003601f168201915b505050505081565b60045481565b60008054906101000a900473ffffffffffffffffffffffffffffffffffffffff1673ffffffffffffffffffffffffffffffffffffffff163373ffffffffffffffffffffffffffffffffffffffff1614610204576040517f08c379a00000000000000000000000000000000000000000000000000000000081526004016101fb90610769565b60405180910390fd5b826002908051906020019061021a929190610321565b508160038190555080600481905550505050565b60008054906101000a900473ffffffffffffffffffffffffffffffffffffffff1673ffffffffffffffffffffffffffffffffffffffff163373ffffffffffffffffffffffffffffffffffffffff16036102bc576040517f08c379a00000000000000000000000000000000000000000000000000000000081526004016102b3906107fb565b60405180910390fd5b6001339080600181540180825580915050600190039060005260206000200160009091909190916101000a81548173ffffffffffffffffffffffffffffffffffffffff021916908373ffffffffffffffffffffffffffffffffffffffff160217905550565b82805461032d906106c6565b90600052602060002090601f01602090048101928261034f5760008555610396565b82601f1061036857805160ff1916838001178555610396565b82800160010185558215610396579182015b8281111561039557825182559160200191906001019061037a565b5b5090506103a391906103a7565b5090565b5b808211156103c05760008160009055506001016103a8565b5090565b6000819050919050565b6103d7816103c4565b82525050565b60006020820190506103f260008301846103ce565b92915050565b600081519050919050565b600082825260208201905092915050565b60005b83811015610432578082015181840152602081019050610417565b83811115610441576000848401525b50505050565b6000601f19601f8301169050919050565b6000610463826103f8565b61046d8185610403565b935061047d818560208601610414565b61048681610447565b840191505092915050565b600060208201905081810360008301526104ab8184610458565b905092915050565b6000604051905090565b600080fd5b600080fd5b600080fd5b600080fd5b7f4e487b7100000000000000000000000000000000000000000000000000000000600052604160045260246000fd5b61050982610447565b810181811067ffffffffffffffff82111715610528576105276104d1565b5b80604052505050565b600061053b6104b3565b90506105478282610500565b919050565b600067ffffffffffffffff821115610567576105666104d1565b5b61057082610447565b9050602081019050919050565b82818337600083830152505050565b600061059f61059a8461054c565b610531565b9050828152602081018484840111156105bb576105ba6104cc565b5b6105c684828561057d565b509392505050565b600082601f8301126105e3576105e26104c7565b5b81356105f384826020860161058c565b91505092915050565b610605816103c4565b811461061057600080fd5b50565b600081359050610622816105fc565b92915050565b600080600060608486031215610641576106406104bd565b5b600084013567ffffffffffffffff81111561065f5761065e6104c2565b5b61066b868287016105ce565b935050602061067c86828701610613565b925050604061068d86828701610613565b9150509250925092565b7f4e487b7100000000000000000000000000000000000000000000000000000000600052602260045260246000fd5b600060028204905060018216806106de57607f821691505b6020821081036106f1576106f0610697565b5b50919050565b7f4f6e6c792061756374696f6e6565722063616e2063616c6c207468697320667560008201527f6e6374696f6e2e00000000000000000000000000000000000000000000000000602082015250565b6000610753602783610403565b915061075e826106f7565b604082019050919050565b6000602082019050818103600083015261078281610746565b9050919050565b7f41756374696f6e656572206973206e6f7420616c6c6f77656420746f2072656760008201527f6973746572206173206120626964646572000000000000000000000000000000602082015250565b60006107e5603183610403565b91506107f082610789565b604082019050919050565b60006020820190508181036000830152610814816107d8565b905091905056fea264697066735822122060d4a40534dc4c2d340888755a704ba5ca24b7284f8c2118ea0d24b03dc0d7c164736f6c634300080e0033",
					"opcodes": "PUSH1 0x80 PUSH1 0x40 MSTORE CALLVALUE DUP1 ISZERO PUSH2 0x10 JUMPI PUSH1 0x0 DUP1 REVERT JUMPDEST POP CALLER PUSH1 0x0 DUP1 PUSH2 0x100 EXP DUP2 SLOAD DUP2 PUSH20 0xFFFFFFFFFFFFFFFFFFFFFFFFFFFFFFFFFFFFFFFF MUL NOT AND SWAP1 DUP4 PUSH20 0xFFFFFFFFFFFFFFFFFFFFFFFFFFFFFFFFFFFFFFFF AND MUL OR SWAP1 SSTORE POP PUSH2 0x851 DUP1 PUSH2 0x60 PUSH1 0x0 CODECOPY PUSH1 0x0 RETURN INVALID PUSH1 0x80 PUSH1 0x40 MSTORE CALLVALUE DUP1 ISZERO PUSH2 0x10 JUMPI PUSH1 0x0 DUP1 REVERT JUMPDEST POP PUSH1 0x4 CALLDATASIZE LT PUSH2 0x57 JUMPI PUSH1 0x0 CALLDATALOAD PUSH1 0xE0 SHR DUP1 PUSH4 0x34EB86A2 EQ PUSH2 0x5C JUMPI DUP1 PUSH4 0x938626C2 EQ PUSH2 0x7A JUMPI DUP1 PUSH4 0xDAA0218F EQ PUSH2 0x98 JUMPI DUP1 PUSH4 0xE7D2A997 EQ PUSH2 0xB6 JUMPI DUP1 PUSH4 0xF356733C EQ PUSH2 0xD2 JUMPI JUMPDEST PUSH1 0x0 DUP1 REVERT JUMPDEST PUSH2 0x64 PUSH2 0xDC JUMP JUMPDEST PUSH1 0x40 MLOAD PUSH2 0x71 SWAP2 SWAP1 PUSH2 0x3DD JUMP JUMPDEST PUSH1 0x40 MLOAD DUP1 SWAP2 SUB SWAP1 RETURN JUMPDEST PUSH2 0x82 PUSH2 0xE2 JUMP JUMPDEST PUSH1 0x40 MLOAD PUSH2 0x8F SWAP2 SWAP1 PUSH2 0x491 JUMP JUMPDEST PUSH1 0x40 MLOAD DUP1 SWAP2 SUB SWAP1 RETURN JUMPDEST PUSH2 0xA0 PUSH2 0x170 JUMP JUMPDEST PUSH1 0x40 MLOAD PUSH2 0xAD SWAP2 SWAP1 PUSH2 0x3DD JUMP JUMPDEST PUSH1 0x40 MLOAD DUP1 SWAP2 SUB SWAP1 RETURN JUMPDEST PUSH2 0xD0 PUSH1 0x4 DUP1 CALLDATASIZE SUB DUP2 ADD SWAP1 PUSH2 0xCB SWAP2 SWAP1 PUSH2 0x628 JUMP JUMPDEST PUSH2 0x176 JUMP JUMPDEST STOP JUMPDEST PUSH2 0xDA PUSH2 0x22E JUMP JUMPDEST STOP JUMPDEST PUSH1 0x3 SLOAD DUP2 JUMP JUMPDEST PUSH1 0x2 DUP1 SLOAD PUSH2 0xEF SWAP1 PUSH2 0x6C6 JUMP JUMPDEST DUP1 PUSH1 0x1F ADD PUSH1 0x20 DUP1 SWAP2 DIV MUL PUSH1 0x20 ADD PUSH1 0x40 MLOAD SWAP1 DUP2 ADD PUSH1 0x40 MSTORE DUP1 SWAP3 SWAP2 SWAP1 DUP2 DUP2 MSTORE PUSH1 0x20 ADD DUP3 DUP1 SLOAD PUSH2 0x11B SWAP1 PUSH2 0x6C6 JUMP JUMPDEST DUP1 ISZERO PUSH2 0x168 JUMPI DUP1 PUSH1 0x1F LT PUSH2 0x13D JUMPI PUSH2 0x100 DUP1 DUP4 SLOAD DIV MUL DUP4 MSTORE SWAP2 PUSH1 0x20 ADD SWAP2 PUSH2 0x168 JUMP JUMPDEST DUP3 ADD SWAP2 SWAP1 PUSH1 0x0 MSTORE PUSH1 0x20 PUSH1 0x0 KECCAK256 SWAP1 JUMPDEST DUP2 SLOAD DUP2 MSTORE SWAP1 PUSH1 0x1 ADD SWAP1 PUSH1 0x20 ADD DUP1 DUP4 GT PUSH2 0x14B JUMPI DUP3 SWAP1 SUB PUSH1 0x1F AND DUP3 ADD SWAP2 JUMPDEST POP POP POP POP POP DUP2 JUMP JUMPDEST PUSH1 0x4 SLOAD DUP2 JUMP JUMPDEST PUSH1 0x0 DUP1 SLOAD SWAP1 PUSH2 0x100 EXP SWAP1 DIV PUSH20 0xFFFFFFFFFFFFFFFFFFFFFFFFFFFFFFFFFFFFFFFF AND PUSH20 0xFFFFFFFFFFFFFFFFFFFFFFFFFFFFFFFFFFFFFFFF AND CALLER PUSH20 0xFFFFFFFFFFFFFFFFFFFFFFFFFFFFFFFFFFFFFFFF AND EQ PUSH2 0x204 JUMPI PUSH1 0x40 MLOAD PUSH32 0x8C379A000000000000000000000000000000000000000000000000000000000 DUP2 MSTORE PUSH1 0x4 ADD PUSH2 0x1FB SWAP1 PUSH2 0x769 JUMP JUMPDEST PUSH1 0x40 MLOAD DUP1 SWAP2 SUB SWAP1 REVERT JUMPDEST DUP3 PUSH1 0x2 SWAP1 DUP1 MLOAD SWAP1 PUSH1 0x20 ADD SWAP1 PUSH2 0x21A SWAP3 SWAP2 SWAP1 PUSH2 0x321 JUMP JUMPDEST POP DUP2 PUSH1 0x3 DUP2 SWAP1 SSTORE POP DUP1 PUSH1 0x4 DUP2 SWAP1 SSTORE POP POP POP POP JUMP JUMPDEST PUSH1 0x0 DUP1 SLOAD SWAP1 PUSH2 0x100 EXP SWAP1 DIV PUSH20 0xFFFFFFFFFFFFFFFFFFFFFFFFFFFFFFFFFFFFFFFF AND PUSH20 0xFFFFFFFFFFFFFFFFFFFFFFFFFFFFFFFFFFFFFFFF AND CALLER PUSH20 0xFFFFFFFFFFFFFFFFFFFFFFFFFFFFFFFFFFFFFFFF AND SUB PUSH2 0x2BC JUMPI PUSH1 0x40 MLOAD PUSH32 0x8C379A000000000000000000000000000000000000000000000000000000000 DUP2 MSTORE PUSH1 0x4 ADD PUSH2 0x2B3 SWAP1 PUSH2 0x7FB JUMP JUMPDEST PUSH1 0x40 MLOAD DUP1 SWAP2 SUB SWAP1 REVERT JUMPDEST PUSH1 0x1 CALLER SWAP1 DUP1 PUSH1 0x1 DUP2 SLOAD ADD DUP1 DUP3 SSTORE DUP1 SWAP2 POP POP PUSH1 0x1 SWAP1 SUB SWAP1 PUSH1 0x0 MSTORE PUSH1 0x20 PUSH1 0x0 KECCAK256 ADD PUSH1 0x0 SWAP1 SWAP2 SWAP1 SWAP2 SWAP1 SWAP2 PUSH2 0x100 EXP DUP2 SLOAD DUP2 PUSH20 0xFFFFFFFFFFFFFFFFFFFFFFFFFFFFFFFFFFFFFFFF MUL NOT AND SWAP1 DUP4 PUSH20 0xFFFFFFFFFFFFFFFFFFFFFFFFFFFFFFFFFFFFFFFF AND MUL OR SWAP1 SSTORE POP JUMP JUMPDEST DUP3 DUP1 SLOAD PUSH2 0x32D SWAP1 PUSH2 0x6C6 JUMP JUMPDEST SWAP1 PUSH1 0x0 MSTORE PUSH1 0x20 PUSH1 0x0 KECCAK256 SWAP1 PUSH1 0x1F ADD PUSH1 0x20 SWAP1 DIV DUP2 ADD SWAP3 DUP3 PUSH2 0x34F JUMPI PUSH1 0x0 DUP6 SSTORE PUSH2 0x396 JUMP JUMPDEST DUP3 PUSH1 0x1F LT PUSH2 0x368 JUMPI DUP1 MLOAD PUSH1 0xFF NOT AND DUP4 DUP1 ADD OR DUP6 SSTORE PUSH2 0x396 JUMP JUMPDEST DUP3 DUP1 ADD PUSH1 0x1 ADD DUP6 SSTORE DUP3 ISZERO PUSH2 0x396 JUMPI SWAP2 DUP3 ADD JUMPDEST DUP3 DUP2 GT ISZERO PUSH2 0x395 JUMPI DUP3 MLOAD DUP3 SSTORE SWAP2 PUSH1 0x20 ADD SWAP2 SWAP1 PUSH1 0x1 ADD SWAP1 PUSH2 0x37A JUMP JUMPDEST JUMPDEST POP SWAP1 POP PUSH2 0x3A3 SWAP2 SWAP1 PUSH2 0x3A7 JUMP JUMPDEST POP SWAP1 JUMP JUMPDEST JUMPDEST DUP1 DUP3 GT ISZERO PUSH2 0x3C0 JUMPI PUSH1 0x0 DUP2 PUSH1 0x0 SWAP1 SSTORE POP PUSH1 0x1 ADD PUSH2 0x3A8 JUMP JUMPDEST POP SWAP1 JUMP JUMPDEST PUSH1 0x0 DUP2 SWAP1 POP SWAP2 SWAP1 POP JUMP JUMPDEST PUSH2 0x3D7 DUP2 PUSH2 0x3C4 JUMP JUMPDEST DUP3 MSTORE POP POP JUMP JUMPDEST PUSH1 0x0 PUSH1 0x20 DUP3 ADD SWAP1 POP PUSH2 0x3F2 PUSH1 0x0 DUP4 ADD DUP5 PUSH2 0x3CE JUMP JUMPDEST SWAP3 SWAP2 POP POP JUMP JUMPDEST PUSH1 0x0 DUP2 MLOAD SWAP1 POP SWAP2 SWAP1 POP JUMP JUMPDEST PUSH1 0x0 DUP3 DUP3 MSTORE PUSH1 0x20 DUP3 ADD SWAP1 POP SWAP3 SWAP2 POP POP JUMP JUMPDEST PUSH1 0x0 JUMPDEST DUP4 DUP2 LT ISZERO PUSH2 0x432 JUMPI DUP1 DUP3 ADD MLOAD DUP2 DUP5 ADD MSTORE PUSH1 0x20 DUP2 ADD SWAP1 POP PUSH2 0x417 JUMP JUMPDEST DUP4 DUP2 GT ISZERO PUSH2 0x441 JUMPI PUSH1 0x0 DUP5 DUP5 ADD MSTORE JUMPDEST POP POP POP POP JUMP JUMPDEST PUSH1 0x0 PUSH1 0x1F NOT PUSH1 0x1F DUP4 ADD AND SWAP1 POP SWAP2 SWAP1 POP JUMP JUMPDEST PUSH1 0x0 PUSH2 0x463 DUP3 PUSH2 0x3F8 JUMP JUMPDEST PUSH2 0x46D DUP2 DUP6 PUSH2 0x403 JUMP JUMPDEST SWAP4 POP PUSH2 0x47D DUP2 DUP6 PUSH1 0x20 DUP7 ADD PUSH2 0x414 JUMP JUMPDEST PUSH2 0x486 DUP2 PUSH2 0x447 JUMP JUMPDEST DUP5 ADD SWAP2 POP POP SWAP3 SWAP2 POP POP JUMP JUMPDEST PUSH1 0x0 PUSH1 0x20 DUP3 ADD SWAP1 POP DUP2 DUP2 SUB PUSH1 0x0 DUP4 ADD MSTORE PUSH2 0x4AB DUP2 DUP5 PUSH2 0x458 JUMP JUMPDEST SWAP1 POP SWAP3 SWAP2 POP POP JUMP JUMPDEST PUSH1 0x0 PUSH1 0x40 MLOAD SWAP1 POP SWAP1 JUMP JUMPDEST PUSH1 0x0 DUP1 REVERT JUMPDEST PUSH1 0x0 DUP1 REVERT JUMPDEST PUSH1 0x0 DUP1 REVERT JUMPDEST PUSH1 0x0 DUP1 REVERT JUMPDEST PUSH32 0x4E487B7100000000000000000000000000000000000000000000000000000000 PUSH1 0x0 MSTORE PUSH1 0x41 PUSH1 0x4 MSTORE PUSH1 0x24 PUSH1 0x0 REVERT JUMPDEST PUSH2 0x509 DUP3 PUSH2 0x447 JUMP JUMPDEST DUP2 ADD DUP2 DUP2 LT PUSH8 0xFFFFFFFFFFFFFFFF DUP3 GT OR ISZERO PUSH2 0x528 JUMPI PUSH2 0x527 PUSH2 0x4D1 JUMP JUMPDEST JUMPDEST DUP1 PUSH1 0x40 MSTORE POP POP POP JUMP JUMPDEST PUSH1 0x0 PUSH2 0x53B PUSH2 0x4B3 JUMP JUMPDEST SWAP1 POP PUSH2 0x547 DUP3 DUP3 PUSH2 0x500 JUMP JUMPDEST SWAP2 SWAP1 POP JUMP JUMPDEST PUSH1 0x0 PUSH8 0xFFFFFFFFFFFFFFFF DUP3 GT ISZERO PUSH2 0x567 JUMPI PUSH2 0x566 PUSH2 0x4D1 JUMP JUMPDEST JUMPDEST PUSH2 0x570 DUP3 PUSH2 0x447 JUMP JUMPDEST SWAP1 POP PUSH1 0x20 DUP2 ADD SWAP1 POP SWAP2 SWAP1 POP JUMP JUMPDEST DUP3 DUP2 DUP4 CALLDATACOPY PUSH1 0x0 DUP4 DUP4 ADD MSTORE POP POP POP JUMP JUMPDEST PUSH1 0x0 PUSH2 0x59F PUSH2 0x59A DUP5 PUSH2 0x54C JUMP JUMPDEST PUSH2 0x531 JUMP JUMPDEST SWAP1 POP DUP3 DUP2 MSTORE PUSH1 0x20 DUP2 ADD DUP5 DUP5 DUP5 ADD GT ISZERO PUSH2 0x5BB JUMPI PUSH2 0x5BA PUSH2 0x4CC JUMP JUMPDEST JUMPDEST PUSH2 0x5C6 DUP5 DUP3 DUP6 PUSH2 0x57D JUMP JUMPDEST POP SWAP4 SWAP3 POP POP POP JUMP JUMPDEST PUSH1 0x0 DUP3 PUSH1 0x1F DUP4 ADD SLT PUSH2 0x5E3 JUMPI PUSH2 0x5E2 PUSH2 0x4C7 JUMP JUMPDEST JUMPDEST DUP2 CALLDATALOAD PUSH2 0x5F3 DUP5 DUP3 PUSH1 0x20 DUP7 ADD PUSH2 0x58C JUMP JUMPDEST SWAP2 POP POP SWAP3 SWAP2 POP POP JUMP JUMPDEST PUSH2 0x605 DUP2 PUSH2 0x3C4 JUMP JUMPDEST DUP2 EQ PUSH2 0x610 JUMPI PUSH1 0x0 DUP1 REVERT JUMPDEST POP JUMP JUMPDEST PUSH1 0x0 DUP2 CALLDATALOAD SWAP1 POP PUSH2 0x622 DUP2 PUSH2 0x5FC JUMP JUMPDEST SWAP3 SWAP2 POP POP JUMP JUMPDEST PUSH1 0x0 DUP1 PUSH1 0x0 PUSH1 0x60 DUP5 DUP7 SUB SLT ISZERO PUSH2 0x641 JUMPI PUSH2 0x640 PUSH2 0x4BD JUMP JUMPDEST JUMPDEST PUSH1 0x0 DUP5 ADD CALLDATALOAD PUSH8 0xFFFFFFFFFFFFFFFF DUP2 GT ISZERO PUSH2 0x65F JUMPI PUSH2 0x65E PUSH2 0x4C2 JUMP JUMPDEST JUMPDEST PUSH2 0x66B DUP7 DUP3 DUP8 ADD PUSH2 0x5CE JUMP JUMPDEST SWAP4 POP POP PUSH1 0x20 PUSH2 0x67C DUP7 DUP3 DUP8 ADD PUSH2 0x613 JUMP JUMPDEST SWAP3 POP POP PUSH1 0x40 PUSH2 0x68D DUP7 DUP3 DUP8 ADD PUSH2 0x613 JUMP JUMPDEST SWAP2 POP POP SWAP3 POP SWAP3 POP SWAP3 JUMP JUMPDEST PUSH32 0x4E487B7100000000000000000000000000000000000000000000000000000000 PUSH1 0x0 MSTORE PUSH1 0x22 PUSH1 0x4 MSTORE PUSH1 0x24 PUSH1 0x0 REVERT JUMPDEST PUSH1 0x0 PUSH1 0x2 DUP3 DIV SWAP1 POP PUSH1 0x1 DUP3 AND DUP1 PUSH2 0x6DE JUMPI PUSH1 0x7F DUP3 AND SWAP2 POP JUMPDEST PUSH1 0x20 DUP3 LT DUP2 SUB PUSH2 0x6F1 JUMPI PUSH2 0x6F0 PUSH2 0x697 JUMP JUMPDEST JUMPDEST POP SWAP2 SWAP1 POP JUMP JUMPDEST PUSH32 0x4F6E6C792061756374696F6E6565722063616E2063616C6C2074686973206675 PUSH1 0x0 DUP3 ADD MSTORE PUSH32 0x6E6374696F6E2E00000000000000000000000000000000000000000000000000 PUSH1 0x20 DUP3 ADD MSTORE POP JUMP JUMPDEST PUSH1 0x0 PUSH2 0x753 PUSH1 0x27 DUP4 PUSH2 0x403 JUMP JUMPDEST SWAP2 POP PUSH2 0x75E DUP3 PUSH2 0x6F7 JUMP JUMPDEST PUSH1 0x40 DUP3 ADD SWAP1 POP SWAP2 SWAP1 POP JUMP JUMPDEST PUSH1 0x0 PUSH1 0x20 DUP3 ADD SWAP1 POP DUP2 DUP2 SUB PUSH1 0x0 DUP4 ADD MSTORE PUSH2 0x782 DUP2 PUSH2 0x746 JUMP JUMPDEST SWAP1 POP SWAP2 SWAP1 POP JUMP JUMPDEST PUSH32 0x41756374696F6E656572206973206E6F7420616C6C6F77656420746F20726567 PUSH1 0x0 DUP3 ADD MSTORE PUSH32 0x6973746572206173206120626964646572000000000000000000000000000000 PUSH1 0x20 DUP3 ADD MSTORE POP JUMP JUMPDEST PUSH1 0x0 PUSH2 0x7E5 PUSH1 0x31 DUP4 PUSH2 0x403 JUMP JUMPDEST SWAP2 POP PUSH2 0x7F0 DUP3 PUSH2 0x789 JUMP JUMPDEST PUSH1 0x40 DUP3 ADD SWAP1 POP SWAP2 SWAP1 POP JUMP JUMPDEST PUSH1 0x0 PUSH1 0x20 DUP3 ADD SWAP1 POP DUP2 DUP2 SUB PUSH1 0x0 DUP4 ADD MSTORE PUSH2 0x814 DUP2 PUSH2 0x7D8 JUMP JUMPDEST SWAP1 POP SWAP2 SWAP1 POP JUMP INVALID LOG2 PUSH5 0x6970667358 0x22 SLT KECCAK256 PUSH1 0xD4 LOG4 SDIV CALLVALUE 0xDC 0x4C 0x2D CALLVALUE ADDMOD DUP9 PUSH22 0x5A704BA5CA24B7284F8C2118EA0D24B03DC0D7C16473 PUSH16 0x6C634300080E00330000000000000000 "
				},
				"gasEstimates": {
					"creation": {
						"codeDepositCost": "425800",
						"executionCost": "24727",
						"totalCost": "450527"
					},
					"external": {
						"assetDescription()": "infinite",
						"minBidPrice()": "2407",
						"minNumberOfBidders()": "2451",
						"registerAuctionInfo(string,uint256,uint256)": "infinite",
						"registerBidder()": "50955"
					}
				},
				"methodIdentifiers": {
					"assetDescription()": "938626c2",
					"minBidPrice()": "34eb86a2",
					"minNumberOfBidders()": "daa0218f",
					"registerAuctionInfo(string,uint256,uint256)": "e7d2a997",
					"registerBidder()": "f356733c"
				}
			},
			"storageLayout": {
				"storage": [
					{
						"astId": 3,
						"contract": "Contracts/AKEB.sol:AKEB",
						"label": "auctioneer",
						"offset": 0,
						"slot": "0",
						"type": "t_address"
					},
					{
						"astId": 6,
						"contract": "Contracts/AKEB.sol:AKEB",
						"label": "bidders",
						"offset": 0,
						"slot": "1",
						"type": "t_array(t_address)dyn_storage"
					},
					{
						"astId": 8,
						"contract": "Contracts/AKEB.sol:AKEB",
						"label": "assetDescription",
						"offset": 0,
						"slot": "2",
						"type": "t_string_storage"
					},
					{
						"astId": 10,
						"contract": "Contracts/AKEB.sol:AKEB",
						"label": "minBidPrice",
						"offset": 0,
						"slot": "3",
						"type": "t_uint256"
					},
					{
						"astId": 12,
						"contract": "Contracts/AKEB.sol:AKEB",
						"label": "minNumberOfBidders",
						"offset": 0,
						"slot": "4",
						"type": "t_uint256"
					}
				],
				"types": {
					"t_address": {
						"encoding": "inplace",
						"label": "address",
						"numberOfBytes": "20"
					},
					"t_array(t_address)dyn_storage": {
						"base": "t_address",
						"encoding": "dynamic_array",
						"label": "address[]",
						"numberOfBytes": "32"
					},
					"t_string_storage": {
						"encoding": "bytes",
						"label": "string",
						"numberOfBytes": "32"
					},
					"t_uint256": {
						"encoding": "inplace",
						"label": "uint256",
						"numberOfBytes": "32"
					}
				}
			},
			"userdoc": {
				"kind": "user",
				"methods": {},
				"version": 1
			}
		}
	}
}