{
	"Contracts/AKEB.sol": {
		"AKEB": {
			"abi": [
				{
					"inputs": [],
					"stateMutability": "nonpayable",
					"type": "constructor"
				},
				{
					"inputs": [],
					"name": "assetDescription",
					"outputs": [
						{
							"internalType": "string",
							"name": "",
							"type": "string"
						}
					],
					"stateMutability": "view",
					"type": "function"
				},
				{
					"inputs": [
						{
							"internalType": "uint256",
							"name": "",
							"type": "uint256"
						}
					],
					"name": "bidders",
					"outputs": [
						{
							"internalType": "address",
							"name": "",
							"type": "address"
						}
					],
					"stateMutability": "view",
					"type": "function"
				},
				{
					"inputs": [
						{
							"internalType": "address",
							"name": "inputDisputedAddress",
							"type": "address"
						},
						{
							"internalType": "uint256",
							"name": "inputDisputedBid",
							"type": "uint256"
						},
						{
							"internalType": "string",
							"name": "inputDisputedPrivateKey",
							"type": "string"
						}
					],
					"name": "dispute",
					"outputs": [],
					"stateMutability": "nonpayable",
					"type": "function"
				},
				{
					"inputs": [
						{
							"internalType": "address",
							"name": "",
							"type": "address"
						}
					],
					"name": "encryptedBids",
					"outputs": [
						{
							"internalType": "string",
							"name": "",
							"type": "string"
						}
					],
					"stateMutability": "view",
					"type": "function"
				},
				{
					"inputs": [],
					"name": "getMyPublicKey",
					"outputs": [
						{
							"internalType": "string",
							"name": "",
							"type": "string"
						}
					],
					"stateMutability": "view",
					"type": "function"
				},
				{
					"inputs": [],
					"name": "minBidPrice",
					"outputs": [
						{
							"internalType": "uint256",
							"name": "",
							"type": "uint256"
						}
					],
					"stateMutability": "view",
					"type": "function"
				},
				{
					"inputs": [],
					"name": "minNumberOfBidders",
					"outputs": [
						{
							"internalType": "uint256",
							"name": "",
							"type": "uint256"
						}
					],
					"stateMutability": "view",
					"type": "function"
				},
				{
					"inputs": [
						{
							"internalType": "address",
							"name": "",
							"type": "address"
						}
					],
					"name": "publicKeys",
					"outputs": [
						{
							"internalType": "string",
							"name": "",
							"type": "string"
						}
					],
					"stateMutability": "view",
					"type": "function"
				},
				{
					"inputs": [
						{
							"internalType": "string",
							"name": "assetDescriptionInput",
							"type": "string"
						},
						{
							"internalType": "uint256",
							"name": "minBidPriceInput",
							"type": "uint256"
						},
						{
							"internalType": "uint256",
							"name": "minNumberOfBiddersInput",
							"type": "uint256"
						}
					],
					"name": "registerAuctionInfo",
					"outputs": [],
					"stateMutability": "nonpayable",
					"type": "function"
				},
				{
					"inputs": [],
					"name": "registerBidder",
					"outputs": [],
					"stateMutability": "nonpayable",
					"type": "function"
				},
				{
					"inputs": [
						{
							"internalType": "string",
							"name": "inputEncryptedBid",
							"type": "string"
						}
					],
					"name": "submitEncryptedBid",
					"outputs": [],
					"stateMutability": "nonpayable",
					"type": "function"
				},
				{
					"inputs": [
						{
							"internalType": "address",
							"name": "inputAddress",
							"type": "address"
						},
						{
							"internalType": "string",
							"name": "inputPublicKey",
							"type": "string"
						}
					],
					"name": "submitPublicKeys",
					"outputs": [],
					"stateMutability": "nonpayable",
					"type": "function"
				},
				{
					"inputs": [
						{
							"internalType": "address",
							"name": "inputWinnerAddress",
							"type": "address"
						},
						{
							"internalType": "uint256",
							"name": "inputWinnerBid",
							"type": "uint256"
						},
						{
							"internalType": "string",
							"name": "inputWinnerPrivateKey",
							"type": "string"
						}
					],
					"name": "submitWinner",
					"outputs": [],
					"stateMutability": "nonpayable",
					"type": "function"
				},
				{
					"inputs": [],
					"name": "winnerAddress",
					"outputs": [
						{
							"internalType": "address",
							"name": "",
							"type": "address"
						}
					],
					"stateMutability": "view",
					"type": "function"
				},
				{
					"inputs": [],
					"name": "winnerBid",
					"outputs": [
						{
							"internalType": "uint256",
							"name": "",
							"type": "uint256"
						}
					],
					"stateMutability": "view",
					"type": "function"
				},
				{
					"inputs": [],
					"name": "winnerPrivateKey",
					"outputs": [
						{
							"internalType": "string",
							"name": "",
							"type": "string"
						}
					],
					"stateMutability": "view",
					"type": "function"
				}
			],
			"devdoc": {
				"kind": "dev",
				"methods": {},
				"version": 1
			},
			"evm": {
				"assembly": "    /* \"Contracts/AKEB.sol\":58:2056  contract AKEB {... */\n  mstore(0x40, 0x80)\n    /* \"Contracts/AKEB.sol\":445:503  constructor()... */\n  callvalue\n  dup1\n  iszero\n  tag_1\n  jumpi\n  0x00\n  dup1\n  revert\ntag_1:\n  pop\n    /* \"Contracts/AKEB.sol\":486:496  msg.sender */\n  caller\n    /* \"Contracts/AKEB.sol\":473:483  auctioneer */\n  0x00\n  dup1\n    /* \"Contracts/AKEB.sol\":473:496  auctioneer = msg.sender */\n  0x0100\n  exp\n  dup2\n  sload\n  dup2\n  0xffffffffffffffffffffffffffffffffffffffff\n  mul\n  not\n  and\n  swap1\n  dup4\n  0xffffffffffffffffffffffffffffffffffffffff\n  and\n  mul\n  or\n  swap1\n  sstore\n  pop\n    /* \"Contracts/AKEB.sol\":58:2056  contract AKEB {... */\n  dataSize(sub_0)\n  dup1\n  dataOffset(sub_0)\n  0x00\n  codecopy\n  0x00\n  return\nstop\n\nsub_0: assembly {\n        /* \"Contracts/AKEB.sol\":58:2056  contract AKEB {... */\n      mstore(0x40, 0x80)\n      callvalue\n      dup1\n      iszero\n      tag_1\n      jumpi\n      0x00\n      dup1\n      revert\n    tag_1:\n      pop\n      jumpi(tag_2, lt(calldatasize, 0x04))\n      shr(0xe0, calldataload(0x00))\n      dup1\n      0xb0772795\n      gt\n      tag_19\n      jumpi\n      dup1\n      0xed7a4e0b\n      gt\n      tag_20\n      jumpi\n      dup1\n      0xed7a4e0b\n      eq\n      tag_15\n      jumpi\n      dup1\n      0xf356733c\n      eq\n      tag_16\n      jumpi\n      dup1\n      0xfb77840d\n      eq\n      tag_17\n      jumpi\n      dup1\n      0xff567d8d\n      eq\n      tag_18\n      jumpi\n      jump(tag_2)\n    tag_20:\n      dup1\n      0xb0772795\n      eq\n      tag_11\n      jumpi\n      dup1\n      0xcff29dfd\n      eq\n      tag_12\n      jumpi\n      dup1\n      0xdaa0218f\n      eq\n      tag_13\n      jumpi\n      dup1\n      0xe7d2a997\n      eq\n      tag_14\n      jumpi\n      jump(tag_2)\n    tag_19:\n      dup1\n      0x8226ed38\n      gt\n      tag_21\n      jumpi\n      dup1\n      0x8226ed38\n      eq\n      tag_7\n      jumpi\n      dup1\n      0x86b8c34c\n      eq\n      tag_8\n      jumpi\n      dup1\n      0x938626c2\n      eq\n      tag_9\n      jumpi\n      dup1\n      0xa3d6f9a9\n      eq\n      tag_10\n      jumpi\n      jump(tag_2)\n    tag_21:\n      dup1\n      0x0f3f02b2\n      eq\n      tag_3\n      jumpi\n      dup1\n      0x11631d06\n      eq\n      tag_4\n      jumpi\n      dup1\n      0x34eb86a2\n      eq\n      tag_5\n      jumpi\n      dup1\n      0x7d441a6f\n      eq\n      tag_6\n      jumpi\n    tag_2:\n      0x00\n      dup1\n      revert\n        /* \"Contracts/AKEB.sol\":290:337  mapping(address => string) public encryptedBids */\n    tag_3:\n      tag_22\n      0x04\n      dup1\n      calldatasize\n      sub\n      dup2\n      add\n      swap1\n      tag_23\n      swap2\n      swap1\n      tag_24\n      jump\t// in\n    tag_23:\n      tag_25\n      jump\t// in\n    tag_22:\n      mload(0x40)\n      tag_26\n      swap2\n      swap1\n      tag_27\n      jump\t// in\n    tag_26:\n      mload(0x40)\n      dup1\n      swap2\n      sub\n      swap1\n      return\n        /* \"Contracts/AKEB.sol\":378:402  uint256 public winnerBid */\n    tag_4:\n      tag_28\n      tag_29\n      jump\t// in\n    tag_28:\n      mload(0x40)\n      tag_30\n      swap2\n      swap1\n      tag_31\n      jump\t// in\n    tag_30:\n      mload(0x40)\n      dup1\n      swap2\n      sub\n      swap1\n      return\n        /* \"Contracts/AKEB.sol\":168:194  uint256 public minBidPrice */\n    tag_5:\n      tag_32\n      tag_33\n      jump\t// in\n    tag_32:\n      mload(0x40)\n      tag_34\n      swap2\n      swap1\n      tag_31\n      jump\t// in\n    tag_34:\n      mload(0x40)\n      dup1\n      swap2\n      sub\n      swap1\n      return\n        /* \"Contracts/AKEB.sol\":1208:1350  function submitPublicKeys(address inputAddress, string memory inputPublicKey) public{... */\n    tag_6:\n      tag_35\n      0x04\n      dup1\n      calldatasize\n      sub\n      dup2\n      add\n      swap1\n      tag_36\n      swap2\n      swap1\n      tag_37\n      jump\t// in\n    tag_36:\n      tag_38\n      jump\t// in\n    tag_35:\n      stop\n        /* \"Contracts/AKEB.sol\":1657:1916  function submitWinner(address inputWinnerAddress, uint256 inputWinnerBid, ... */\n    tag_7:\n      tag_39\n      0x04\n      dup1\n      calldatasize\n      sub\n      dup2\n      add\n      swap1\n      tag_40\n      swap2\n      swap1\n      tag_41\n      jump\t// in\n    tag_40:\n      tag_42\n      jump\t// in\n    tag_39:\n      stop\n        /* \"Contracts/AKEB.sol\":1356:1492  function getMyPublicKey() public view assertOnlyBidders() ... */\n    tag_8:\n      tag_43\n      tag_44\n      jump\t// in\n    tag_43:\n      mload(0x40)\n      tag_45\n      swap2\n      swap1\n      tag_27\n      jump\t// in\n    tag_45:\n      mload(0x40)\n      dup1\n      swap2\n      sub\n      swap1\n      return\n        /* \"Contracts/AKEB.sol\":132:162  string public assetDescription */\n    tag_9:\n      tag_46\n      tag_47\n      jump\t// in\n    tag_46:\n      mload(0x40)\n      tag_48\n      swap2\n      swap1\n      tag_27\n      jump\t// in\n    tag_48:\n      mload(0x40)\n      dup1\n      swap2\n      sub\n      swap1\n      return\n        /* \"Contracts/AKEB.sol\":240:284  mapping(address => string) public publicKeys */\n    tag_10:\n      tag_49\n      0x04\n      dup1\n      calldatasize\n      sub\n      dup2\n      add\n      swap1\n      tag_50\n      swap2\n      swap1\n      tag_24\n      jump\t// in\n    tag_50:\n      tag_51\n      jump\t// in\n    tag_49:\n      mload(0x40)\n      tag_52\n      swap2\n      swap1\n      tag_27\n      jump\t// in\n    tag_52:\n      mload(0x40)\n      dup1\n      swap2\n      sub\n      swap1\n      return\n        /* \"Contracts/AKEB.sol\":408:438  string public winnerPrivateKey */\n    tag_11:\n      tag_53\n      tag_54\n      jump\t// in\n    tag_53:\n      mload(0x40)\n      tag_55\n      swap2\n      swap1\n      tag_27\n      jump\t// in\n    tag_55:\n      mload(0x40)\n      dup1\n      swap2\n      sub\n      swap1\n      return\n        /* \"Contracts/AKEB.sol\":102:126  address[] public bidders */\n    tag_12:\n      tag_56\n      0x04\n      dup1\n      calldatasize\n      sub\n      dup2\n      add\n      swap1\n      tag_57\n      swap2\n      swap1\n      tag_58\n      jump\t// in\n    tag_57:\n      tag_59\n      jump\t// in\n    tag_56:\n      mload(0x40)\n      tag_60\n      swap2\n      swap1\n      tag_61\n      jump\t// in\n    tag_60:\n      mload(0x40)\n      dup1\n      swap2\n      sub\n      swap1\n      return\n        /* \"Contracts/AKEB.sol\":200:233  uint256 public minNumberOfBidders */\n    tag_13:\n      tag_62\n      tag_63\n      jump\t// in\n    tag_62:\n      mload(0x40)\n      tag_64\n      swap2\n      swap1\n      tag_31\n      jump\t// in\n    tag_64:\n      mload(0x40)\n      dup1\n      swap2\n      sub\n      swap1\n      return\n        /* \"Contracts/AKEB.sol\":782:1102  function registerAuctionInfo(string memory assetDescriptionInput, ... */\n    tag_14:\n      tag_65\n      0x04\n      dup1\n      calldatasize\n      sub\n      dup2\n      add\n      swap1\n      tag_66\n      swap2\n      swap1\n      tag_67\n      jump\t// in\n    tag_66:\n      tag_68\n      jump\t// in\n    tag_65:\n      stop\n        /* \"Contracts/AKEB.sol\":344:372  address public winnerAddress */\n    tag_15:\n      tag_69\n      tag_70\n      jump\t// in\n    tag_69:\n      mload(0x40)\n      tag_71\n      swap2\n      swap1\n      tag_61\n      jump\t// in\n    tag_71:\n      mload(0x40)\n      dup1\n      swap2\n      sub\n      swap1\n      return\n        /* \"Contracts/AKEB.sol\":1108:1202  function registerBidder() public assertOnlyBidders() {... */\n    tag_16:\n      tag_72\n      tag_73\n      jump\t// in\n    tag_72:\n      stop\n        /* \"Contracts/AKEB.sol\":1922:2054  function dispute(address inputDisputedAddress, uint256 inputDisputedBid, ... */\n    tag_17:\n      tag_74\n      0x04\n      dup1\n      calldatasize\n      sub\n      dup2\n      add\n      swap1\n      tag_75\n      swap2\n      swap1\n      tag_41\n      jump\t// in\n    tag_75:\n      tag_76\n      jump\t// in\n    tag_74:\n      stop\n        /* \"Contracts/AKEB.sol\":1498:1651  function submitEncryptedBid(string memory inputEncryptedBid)... */\n    tag_18:\n      tag_77\n      0x04\n      dup1\n      calldatasize\n      sub\n      dup2\n      add\n      swap1\n      tag_78\n      swap2\n      swap1\n      tag_79\n      jump\t// in\n    tag_78:\n      tag_80\n      jump\t// in\n    tag_77:\n      stop\n        /* \"Contracts/AKEB.sol\":290:337  mapping(address => string) public encryptedBids */\n    tag_25:\n      mstore(0x20, 0x06)\n      dup1\n      0x00\n      mstore\n      keccak256(0x00, 0x40)\n      0x00\n      swap2\n      pop\n      swap1\n      pop\n      dup1\n      sload\n      tag_81\n      swap1\n      tag_82\n      jump\t// in\n    tag_81:\n      dup1\n      0x1f\n      add\n      0x20\n      dup1\n      swap2\n      div\n      mul\n      0x20\n      add\n      mload(0x40)\n      swap1\n      dup2\n      add\n      0x40\n      mstore\n      dup1\n      swap3\n      swap2\n      swap1\n      dup2\n      dup2\n      mstore\n      0x20\n      add\n      dup3\n      dup1\n      sload\n      tag_83\n      swap1\n      tag_82\n      jump\t// in\n    tag_83:\n      dup1\n      iszero\n      tag_84\n      jumpi\n      dup1\n      0x1f\n      lt\n      tag_85\n      jumpi\n      0x0100\n      dup1\n      dup4\n      sload\n      div\n      mul\n      dup4\n      mstore\n      swap2\n      0x20\n      add\n      swap2\n      jump(tag_84)\n    tag_85:\n      dup3\n      add\n      swap2\n      swap1\n      0x00\n      mstore\n      keccak256(0x00, 0x20)\n      swap1\n    tag_86:\n      dup2\n      sload\n      dup2\n      mstore\n      swap1\n      0x01\n      add\n      swap1\n      0x20\n      add\n      dup1\n      dup4\n      gt\n      tag_86\n      jumpi\n      dup3\n      swap1\n      sub\n      0x1f\n      and\n      dup3\n      add\n      swap2\n    tag_84:\n      pop\n      pop\n      pop\n      pop\n      pop\n      dup2\n      jump\t// out\n        /* \"Contracts/AKEB.sol\":378:402  uint256 public winnerBid */\n    tag_29:\n      sload(0x08)\n      dup2\n      jump\t// out\n        /* \"Contracts/AKEB.sol\":168:194  uint256 public minBidPrice */\n    tag_33:\n      sload(0x03)\n      dup2\n      jump\t// out\n        /* \"Contracts/AKEB.sol\":1208:1350  function submitPublicKeys(address inputAddress, string memory inputPublicKey) public{... */\n    tag_38:\n        /* \"Contracts/AKEB.sol\":1329:1343  inputPublicKey */\n      dup1\n        /* \"Contracts/AKEB.sol\":1302:1312  publicKeys */\n      0x05\n        /* \"Contracts/AKEB.sol\":1302:1326  publicKeys[inputAddress] */\n      0x00\n        /* \"Contracts/AKEB.sol\":1313:1325  inputAddress */\n      dup5\n        /* \"Contracts/AKEB.sol\":1302:1326  publicKeys[inputAddress] */\n      0xffffffffffffffffffffffffffffffffffffffff\n      and\n      0xffffffffffffffffffffffffffffffffffffffff\n      and\n      dup2\n      mstore\n      0x20\n      add\n      swap1\n      dup2\n      mstore\n      0x20\n      add\n      0x00\n      keccak256\n        /* \"Contracts/AKEB.sol\":1302:1343  publicKeys[inputAddress] = inputPublicKey */\n      swap1\n      dup1\n      mload\n      swap1\n      0x20\n      add\n      swap1\n      tag_88\n      swap3\n      swap2\n      swap1\n      tag_89\n      jump\t// in\n    tag_88:\n      pop\n        /* \"Contracts/AKEB.sol\":1208:1350  function submitPublicKeys(address inputAddress, string memory inputPublicKey) public{... */\n      pop\n      pop\n      jump\t// out\n        /* \"Contracts/AKEB.sol\":1657:1916  function submitWinner(address inputWinnerAddress, uint256 inputWinnerBid, ... */\n    tag_42:\n        /* \"Contracts/AKEB.sol\":1805:1823  inputWinnerAddress */\n      dup3\n        /* \"Contracts/AKEB.sol\":1789:1802  winnerAddress */\n      0x07\n      0x00\n        /* \"Contracts/AKEB.sol\":1789:1823  winnerAddress = inputWinnerAddress */\n      0x0100\n      exp\n      dup2\n      sload\n      dup2\n      0xffffffffffffffffffffffffffffffffffffffff\n      mul\n      not\n      and\n      swap1\n      dup4\n      0xffffffffffffffffffffffffffffffffffffffff\n      and\n      mul\n      or\n      swap1\n      sstore\n      pop\n        /* \"Contracts/AKEB.sol\":1845:1859  inputWinnerBid */\n      dup2\n        /* \"Contracts/AKEB.sol\":1833:1842  winnerBid */\n      0x08\n        /* \"Contracts/AKEB.sol\":1833:1859  winnerBid = inputWinnerBid */\n      dup2\n      swap1\n      sstore\n      pop\n        /* \"Contracts/AKEB.sol\":1888:1909  inputWinnerPrivateKey */\n      dup1\n        /* \"Contracts/AKEB.sol\":1869:1885  winnerPrivateKey */\n      0x09\n        /* \"Contracts/AKEB.sol\":1869:1909  winnerPrivateKey = inputWinnerPrivateKey */\n      swap1\n      dup1\n      mload\n      swap1\n      0x20\n      add\n      swap1\n      tag_91\n      swap3\n      swap2\n      swap1\n      tag_89\n      jump\t// in\n    tag_91:\n      pop\n        /* \"Contracts/AKEB.sol\":1657:1916  function submitWinner(address inputWinnerAddress, uint256 inputWinnerBid, ... */\n      pop\n      pop\n      pop\n      jump\t// out\n        /* \"Contracts/AKEB.sol\":1356:1492  function getMyPublicKey() public view assertOnlyBidders() ... */\n    tag_44:\n        /* \"Contracts/AKEB.sol\":1427:1440  string memory */\n      0x60\n        /* \"Contracts/AKEB.sol\":703:713  auctioneer */\n      0x00\n      dup1\n      sload\n      swap1\n      0x0100\n      exp\n      swap1\n      div\n      0xffffffffffffffffffffffffffffffffffffffff\n      and\n        /* \"Contracts/AKEB.sol\":689:713  msg.sender != auctioneer */\n      0xffffffffffffffffffffffffffffffffffffffff\n      and\n        /* \"Contracts/AKEB.sol\":689:699  msg.sender */\n      caller\n        /* \"Contracts/AKEB.sol\":689:713  msg.sender != auctioneer */\n      0xffffffffffffffffffffffffffffffffffffffff\n      and\n      sub\n        /* \"Contracts/AKEB.sol\":681:767  require(msg.sender != auctioneer, \"Auctioneer is not allowed to register as a bidder\") */\n      tag_93\n      jumpi\n      mload(0x40)\n      0x08c379a000000000000000000000000000000000000000000000000000000000\n      dup2\n      mstore\n      0x04\n      add\n      tag_94\n      swap1\n      tag_95\n      jump\t// in\n    tag_94:\n      mload(0x40)\n      dup1\n      swap2\n      sub\n      swap1\n      revert\n    tag_93:\n        /* \"Contracts/AKEB.sol\":1463:1473  publicKeys */\n      0x05\n        /* \"Contracts/AKEB.sol\":1463:1485  publicKeys[msg.sender] */\n      0x00\n        /* \"Contracts/AKEB.sol\":1474:1484  msg.sender */\n      caller\n        /* \"Contracts/AKEB.sol\":1463:1485  publicKeys[msg.sender] */\n      0xffffffffffffffffffffffffffffffffffffffff\n      and\n      0xffffffffffffffffffffffffffffffffffffffff\n      and\n      dup2\n      mstore\n      0x20\n      add\n      swap1\n      dup2\n      mstore\n      0x20\n      add\n      0x00\n      keccak256\n        /* \"Contracts/AKEB.sol\":1456:1485  return publicKeys[msg.sender] */\n      dup1\n      sload\n      tag_97\n      swap1\n      tag_82\n      jump\t// in\n    tag_97:\n      dup1\n      0x1f\n      add\n      0x20\n      dup1\n      swap2\n      div\n      mul\n      0x20\n      add\n      mload(0x40)\n      swap1\n      dup2\n      add\n      0x40\n      mstore\n      dup1\n      swap3\n      swap2\n      swap1\n      dup2\n      dup2\n      mstore\n      0x20\n      add\n      dup3\n      dup1\n      sload\n      tag_98\n      swap1\n      tag_82\n      jump\t// in\n    tag_98:\n      dup1\n      iszero\n      tag_99\n      jumpi\n      dup1\n      0x1f\n      lt\n      tag_100\n      jumpi\n      0x0100\n      dup1\n      dup4\n      sload\n      div\n      mul\n      dup4\n      mstore\n      swap2\n      0x20\n      add\n      swap2\n      jump(tag_99)\n    tag_100:\n      dup3\n      add\n      swap2\n      swap1\n      0x00\n      mstore\n      keccak256(0x00, 0x20)\n      swap1\n    tag_101:\n      dup2\n      sload\n      dup2\n      mstore\n      swap1\n      0x01\n      add\n      swap1\n      0x20\n      add\n      dup1\n      dup4\n      gt\n      tag_101\n      jumpi\n      dup3\n      swap1\n      sub\n      0x1f\n      and\n      dup3\n      add\n      swap2\n    tag_99:\n      pop\n      pop\n      pop\n      pop\n      pop\n      swap1\n      pop\n        /* \"Contracts/AKEB.sol\":1356:1492  function getMyPublicKey() public view assertOnlyBidders() ... */\n      swap1\n      jump\t// out\n        /* \"Contracts/AKEB.sol\":132:162  string public assetDescription */\n    tag_47:\n      0x02\n      dup1\n      sload\n      tag_102\n      swap1\n      tag_82\n      jump\t// in\n    tag_102:\n      dup1\n      0x1f\n      add\n      0x20\n      dup1\n      swap2\n      div\n      mul\n      0x20\n      add\n      mload(0x40)\n      swap1\n      dup2\n      add\n      0x40\n      mstore\n      dup1\n      swap3\n      swap2\n      swap1\n      dup2\n      dup2\n      mstore\n      0x20\n      add\n      dup3\n      dup1\n      sload\n      tag_103\n      swap1\n      tag_82\n      jump\t// in\n    tag_103:\n      dup1\n      iszero\n      tag_104\n      jumpi\n      dup1\n      0x1f\n      lt\n      tag_105\n      jumpi\n      0x0100\n      dup1\n      dup4\n      sload\n      div\n      mul\n      dup4\n      mstore\n      swap2\n      0x20\n      add\n      swap2\n      jump(tag_104)\n    tag_105:\n      dup3\n      add\n      swap2\n      swap1\n      0x00\n      mstore\n      keccak256(0x00, 0x20)\n      swap1\n    tag_106:\n      dup2\n      sload\n      dup2\n      mstore\n      swap1\n      0x01\n      add\n      swap1\n      0x20\n      add\n      dup1\n      dup4\n      gt\n      tag_106\n      jumpi\n      dup3\n      swap1\n      sub\n      0x1f\n      and\n      dup3\n      add\n      swap2\n    tag_104:\n      pop\n      pop\n      pop\n      pop\n      pop\n      dup2\n      jump\t// out\n        /* \"Contracts/AKEB.sol\":240:284  mapping(address => string) public publicKeys */\n    tag_51:\n      mstore(0x20, 0x05)\n      dup1\n      0x00\n      mstore\n      keccak256(0x00, 0x40)\n      0x00\n      swap2\n      pop\n      swap1\n      pop\n      dup1\n      sload\n      tag_107\n      swap1\n      tag_82\n      jump\t// in\n    tag_107:\n      dup1\n      0x1f\n      add\n      0x20\n      dup1\n      swap2\n      div\n      mul\n      0x20\n      add\n      mload(0x40)\n      swap1\n      dup2\n      add\n      0x40\n      mstore\n      dup1\n      swap3\n      swap2\n      swap1\n      dup2\n      dup2\n      mstore\n      0x20\n      add\n      dup3\n      dup1\n      sload\n      tag_108\n      swap1\n      tag_82\n      jump\t// in\n    tag_108:\n      dup1\n      iszero\n      tag_109\n      jumpi\n      dup1\n      0x1f\n      lt\n      tag_110\n      jumpi\n      0x0100\n      dup1\n      dup4\n      sload\n      div\n      mul\n      dup4\n      mstore\n      swap2\n      0x20\n      add\n      swap2\n      jump(tag_109)\n    tag_110:\n      dup3\n      add\n      swap2\n      swap1\n      0x00\n      mstore\n      keccak256(0x00, 0x20)\n      swap1\n    tag_111:\n      dup2\n      sload\n      dup2\n      mstore\n      swap1\n      0x01\n      add\n      swap1\n      0x20\n      add\n      dup1\n      dup4\n      gt\n      tag_111\n      jumpi\n      dup3\n      swap1\n      sub\n      0x1f\n      and\n      dup3\n      add\n      swap2\n    tag_109:\n      pop\n      pop\n      pop\n      pop\n      pop\n      dup2\n      jump\t// out\n        /* \"Contracts/AKEB.sol\":408:438  string public winnerPrivateKey */\n    tag_54:\n      0x09\n      dup1\n      sload\n      tag_112\n      swap1\n      tag_82\n      jump\t// in\n    tag_112:\n      dup1\n      0x1f\n      add\n      0x20\n      dup1\n      swap2\n      div\n      mul\n      0x20\n      add\n      mload(0x40)\n      swap1\n      dup2\n      add\n      0x40\n      mstore\n      dup1\n      swap3\n      swap2\n      swap1\n      dup2\n      dup2\n      mstore\n      0x20\n      add\n      dup3\n      dup1\n      sload\n      tag_113\n      swap1\n      tag_82\n      jump\t// in\n    tag_113:\n      dup1\n      iszero\n      tag_114\n      jumpi\n      dup1\n      0x1f\n      lt\n      tag_115\n      jumpi\n      0x0100\n      dup1\n      dup4\n      sload\n      div\n      mul\n      dup4\n      mstore\n      swap2\n      0x20\n      add\n      swap2\n      jump(tag_114)\n    tag_115:\n      dup3\n      add\n      swap2\n      swap1\n      0x00\n      mstore\n      keccak256(0x00, 0x20)\n      swap1\n    tag_116:\n      dup2\n      sload\n      dup2\n      mstore\n      swap1\n      0x01\n      add\n      swap1\n      0x20\n      add\n      dup1\n      dup4\n      gt\n      tag_116\n      jumpi\n      dup3\n      swap1\n      sub\n      0x1f\n      and\n      dup3\n      add\n      swap2\n    tag_114:\n      pop\n      pop\n      pop\n      pop\n      pop\n      dup2\n      jump\t// out\n        /* \"Contracts/AKEB.sol\":102:126  address[] public bidders */\n    tag_59:\n      0x01\n      dup2\n      dup2\n      sload\n      dup2\n      lt\n      tag_117\n      jumpi\n      0x00\n      dup1\n      revert\n    tag_117:\n      swap1\n      0x00\n      mstore\n      keccak256(0x00, 0x20)\n      add\n      0x00\n      swap2\n      pop\n      sload\n      swap1\n      0x0100\n      exp\n      swap1\n      div\n      0xffffffffffffffffffffffffffffffffffffffff\n      and\n      dup2\n      jump\t// out\n        /* \"Contracts/AKEB.sol\":200:233  uint256 public minNumberOfBidders */\n    tag_63:\n      sload(0x04)\n      dup2\n      jump\t// out\n        /* \"Contracts/AKEB.sol\":782:1102  function registerAuctionInfo(string memory assetDescriptionInput, ... */\n    tag_68:\n        /* \"Contracts/AKEB.sol\":573:583  auctioneer */\n      0x00\n      dup1\n      sload\n      swap1\n      0x0100\n      exp\n      swap1\n      div\n      0xffffffffffffffffffffffffffffffffffffffff\n      and\n        /* \"Contracts/AKEB.sol\":559:583  msg.sender == auctioneer */\n      0xffffffffffffffffffffffffffffffffffffffff\n      and\n        /* \"Contracts/AKEB.sol\":559:569  msg.sender */\n      caller\n        /* \"Contracts/AKEB.sol\":559:583  msg.sender == auctioneer */\n      0xffffffffffffffffffffffffffffffffffffffff\n      and\n      eq\n        /* \"Contracts/AKEB.sol\":551:627  require(msg.sender == auctioneer, \"Only auctioneer can call this function.\") */\n      tag_120\n      jumpi\n      mload(0x40)\n      0x08c379a000000000000000000000000000000000000000000000000000000000\n      dup2\n      mstore\n      0x04\n      add\n      tag_121\n      swap1\n      tag_122\n      jump\t// in\n    tag_121:\n      mload(0x40)\n      dup1\n      swap2\n      sub\n      swap1\n      revert\n    tag_120:\n        /* \"Contracts/AKEB.sol\":980:1001  assetDescriptionInput */\n      dup3\n        /* \"Contracts/AKEB.sol\":961:977  assetDescription */\n      0x02\n        /* \"Contracts/AKEB.sol\":961:1001  assetDescription = assetDescriptionInput */\n      swap1\n      dup1\n      mload\n      swap1\n      0x20\n      add\n      swap1\n      tag_124\n      swap3\n      swap2\n      swap1\n      tag_89\n      jump\t// in\n    tag_124:\n      pop\n        /* \"Contracts/AKEB.sol\":1025:1041  minBidPriceInput */\n      dup2\n        /* \"Contracts/AKEB.sol\":1011:1022  minBidPrice */\n      0x03\n        /* \"Contracts/AKEB.sol\":1011:1041  minBidPrice = minBidPriceInput */\n      dup2\n      swap1\n      sstore\n      pop\n        /* \"Contracts/AKEB.sol\":1072:1095  minNumberOfBiddersInput */\n      dup1\n        /* \"Contracts/AKEB.sol\":1051:1069  minNumberOfBidders */\n      0x04\n        /* \"Contracts/AKEB.sol\":1051:1095  minNumberOfBidders = minNumberOfBiddersInput */\n      dup2\n      swap1\n      sstore\n      pop\n        /* \"Contracts/AKEB.sol\":782:1102  function registerAuctionInfo(string memory assetDescriptionInput, ... */\n      pop\n      pop\n      pop\n      jump\t// out\n        /* \"Contracts/AKEB.sol\":344:372  address public winnerAddress */\n    tag_70:\n      0x07\n      0x00\n      swap1\n      sload\n      swap1\n      0x0100\n      exp\n      swap1\n      div\n      0xffffffffffffffffffffffffffffffffffffffff\n      and\n      dup2\n      jump\t// out\n        /* \"Contracts/AKEB.sol\":1108:1202  function registerBidder() public assertOnlyBidders() {... */\n    tag_73:\n        /* \"Contracts/AKEB.sol\":703:713  auctioneer */\n      0x00\n      dup1\n      sload\n      swap1\n      0x0100\n      exp\n      swap1\n      div\n      0xffffffffffffffffffffffffffffffffffffffff\n      and\n        /* \"Contracts/AKEB.sol\":689:713  msg.sender != auctioneer */\n      0xffffffffffffffffffffffffffffffffffffffff\n      and\n        /* \"Contracts/AKEB.sol\":689:699  msg.sender */\n      caller\n        /* \"Contracts/AKEB.sol\":689:713  msg.sender != auctioneer */\n      0xffffffffffffffffffffffffffffffffffffffff\n      and\n      sub\n        /* \"Contracts/AKEB.sol\":681:767  require(msg.sender != auctioneer, \"Auctioneer is not allowed to register as a bidder\") */\n      tag_126\n      jumpi\n      mload(0x40)\n      0x08c379a000000000000000000000000000000000000000000000000000000000\n      dup2\n      mstore\n      0x04\n      add\n      tag_127\n      swap1\n      tag_95\n      jump\t// in\n    tag_127:\n      mload(0x40)\n      dup1\n      swap2\n      sub\n      swap1\n      revert\n    tag_126:\n        /* \"Contracts/AKEB.sol\":1171:1178  bidders */\n      0x01\n        /* \"Contracts/AKEB.sol\":1184:1194  msg.sender */\n      caller\n        /* \"Contracts/AKEB.sol\":1171:1195  bidders.push(msg.sender) */\n      swap1\n      dup1\n      0x01\n      dup2\n      sload\n      add\n      dup1\n      dup3\n      sstore\n      dup1\n      swap2\n      pop\n      pop\n      0x01\n      swap1\n      sub\n      swap1\n      0x00\n      mstore\n      keccak256(0x00, 0x20)\n      add\n      0x00\n      swap1\n      swap2\n      swap1\n      swap2\n      swap1\n      swap2\n      0x0100\n      exp\n      dup2\n      sload\n      dup2\n      0xffffffffffffffffffffffffffffffffffffffff\n      mul\n      not\n      and\n      swap1\n      dup4\n      0xffffffffffffffffffffffffffffffffffffffff\n      and\n      mul\n      or\n      swap1\n      sstore\n      pop\n        /* \"Contracts/AKEB.sol\":1108:1202  function registerBidder() public assertOnlyBidders() {... */\n      jump\t// out\n        /* \"Contracts/AKEB.sol\":1922:2054  function dispute(address inputDisputedAddress, uint256 inputDisputedBid, ... */\n    tag_76:\n      pop\n      pop\n      pop\n      jump\t// out\n        /* \"Contracts/AKEB.sol\":1498:1651  function submitEncryptedBid(string memory inputEncryptedBid)... */\n    tag_80:\n        /* \"Contracts/AKEB.sol\":703:713  auctioneer */\n      0x00\n      dup1\n      sload\n      swap1\n      0x0100\n      exp\n      swap1\n      div\n      0xffffffffffffffffffffffffffffffffffffffff\n      and\n        /* \"Contracts/AKEB.sol\":689:713  msg.sender != auctioneer */\n      0xffffffffffffffffffffffffffffffffffffffff\n      and\n        /* \"Contracts/AKEB.sol\":689:699  msg.sender */\n      caller\n        /* \"Contracts/AKEB.sol\":689:713  msg.sender != auctioneer */\n      0xffffffffffffffffffffffffffffffffffffffff\n      and\n      sub\n        /* \"Contracts/AKEB.sol\":681:767  require(msg.sender != auctioneer, \"Auctioneer is not allowed to register as a bidder\") */\n      tag_132\n      jumpi\n      mload(0x40)\n      0x08c379a000000000000000000000000000000000000000000000000000000000\n      dup2\n      mstore\n      0x04\n      add\n      tag_133\n      swap1\n      tag_95\n      jump\t// in\n    tag_133:\n      mload(0x40)\n      dup1\n      swap2\n      sub\n      swap1\n      revert\n    tag_132:\n        /* \"Contracts/AKEB.sol\":1627:1644  inputEncryptedBid */\n      dup1\n        /* \"Contracts/AKEB.sol\":1599:1612  encryptedBids */\n      0x06\n        /* \"Contracts/AKEB.sol\":1599:1624  encryptedBids[msg.sender] */\n      0x00\n        /* \"Contracts/AKEB.sol\":1613:1623  msg.sender */\n      caller\n        /* \"Contracts/AKEB.sol\":1599:1624  encryptedBids[msg.sender] */\n      0xffffffffffffffffffffffffffffffffffffffff\n      and\n      0xffffffffffffffffffffffffffffffffffffffff\n      and\n      dup2\n      mstore\n      0x20\n      add\n      swap1\n      dup2\n      mstore\n      0x20\n      add\n      0x00\n      keccak256\n        /* \"Contracts/AKEB.sol\":1599:1644  encryptedBids[msg.sender] = inputEncryptedBid */\n      swap1\n      dup1\n      mload\n      swap1\n      0x20\n      add\n      swap1\n      tag_135\n      swap3\n      swap2\n      swap1\n      tag_89\n      jump\t// in\n    tag_135:\n      pop\n        /* \"Contracts/AKEB.sol\":1498:1651  function submitEncryptedBid(string memory inputEncryptedBid)... */\n      pop\n      jump\t// out\n    tag_89:\n      dup3\n      dup1\n      sload\n      tag_136\n      swap1\n      tag_82\n      jump\t// in\n    tag_136:\n      swap1\n      0x00\n      mstore\n      keccak256(0x00, 0x20)\n      swap1\n      0x1f\n      add\n      0x20\n      swap1\n      div\n      dup2\n      add\n      swap3\n      dup3\n      tag_138\n      jumpi\n      0x00\n      dup6\n      sstore\n      jump(tag_137)\n    tag_138:\n      dup3\n      0x1f\n      lt\n      tag_139\n      jumpi\n      dup1\n      mload\n      not(0xff)\n      and\n      dup4\n      dup1\n      add\n      or\n      dup6\n      sstore\n      jump(tag_137)\n    tag_139:\n      dup3\n      dup1\n      add\n      0x01\n      add\n      dup6\n      sstore\n      dup3\n      iszero\n      tag_137\n      jumpi\n      swap2\n      dup3\n      add\n    tag_140:\n      dup3\n      dup2\n      gt\n      iszero\n      tag_141\n      jumpi\n      dup3\n      mload\n      dup3\n      sstore\n      swap2\n      0x20\n      add\n      swap2\n      swap1\n      0x01\n      add\n      swap1\n      jump(tag_140)\n    tag_141:\n    tag_137:\n      pop\n      swap1\n      pop\n      tag_142\n      swap2\n      swap1\n      tag_143\n      jump\t// in\n    tag_142:\n      pop\n      swap1\n      jump\t// out\n    tag_143:\n    tag_144:\n      dup1\n      dup3\n      gt\n      iszero\n      tag_145\n      jumpi\n      0x00\n      dup2\n      0x00\n      swap1\n      sstore\n      pop\n      0x01\n      add\n      jump(tag_144)\n    tag_145:\n      pop\n      swap1\n      jump\t// out\n        /* \"#utility.yul\":7:82   */\n    tag_146:\n        /* \"#utility.yul\":40:46   */\n      0x00\n        /* \"#utility.yul\":73:75   */\n      0x40\n        /* \"#utility.yul\":67:76   */\n      mload\n        /* \"#utility.yul\":57:76   */\n      swap1\n      pop\n        /* \"#utility.yul\":7:82   */\n      swap1\n      jump\t// out\n        /* \"#utility.yul\":88:205   */\n    tag_147:\n        /* \"#utility.yul\":197:198   */\n      0x00\n        /* \"#utility.yul\":194:195   */\n      dup1\n        /* \"#utility.yul\":187:199   */\n      revert\n        /* \"#utility.yul\":211:328   */\n    tag_148:\n        /* \"#utility.yul\":320:321   */\n      0x00\n        /* \"#utility.yul\":317:318   */\n      dup1\n        /* \"#utility.yul\":310:322   */\n      revert\n        /* \"#utility.yul\":334:460   */\n    tag_149:\n        /* \"#utility.yul\":371:378   */\n      0x00\n        /* \"#utility.yul\":411:453   */\n      0xffffffffffffffffffffffffffffffffffffffff\n        /* \"#utility.yul\":404:409   */\n      dup3\n        /* \"#utility.yul\":400:454   */\n      and\n        /* \"#utility.yul\":389:454   */\n      swap1\n      pop\n        /* \"#utility.yul\":334:460   */\n      swap2\n      swap1\n      pop\n      jump\t// out\n        /* \"#utility.yul\":466:562   */\n    tag_150:\n        /* \"#utility.yul\":503:510   */\n      0x00\n        /* \"#utility.yul\":532:556   */\n      tag_183\n        /* \"#utility.yul\":550:555   */\n      dup3\n        /* \"#utility.yul\":532:556   */\n      tag_149\n      jump\t// in\n    tag_183:\n        /* \"#utility.yul\":521:556   */\n      swap1\n      pop\n        /* \"#utility.yul\":466:562   */\n      swap2\n      swap1\n      pop\n      jump\t// out\n        /* \"#utility.yul\":568:690   */\n    tag_151:\n        /* \"#utility.yul\":641:665   */\n      tag_185\n        /* \"#utility.yul\":659:664   */\n      dup2\n        /* \"#utility.yul\":641:665   */\n      tag_150\n      jump\t// in\n    tag_185:\n        /* \"#utility.yul\":634:639   */\n      dup2\n        /* \"#utility.yul\":631:666   */\n      eq\n        /* \"#utility.yul\":621:684   */\n      tag_186\n      jumpi\n        /* \"#utility.yul\":680:681   */\n      0x00\n        /* \"#utility.yul\":677:678   */\n      dup1\n        /* \"#utility.yul\":670:682   */\n      revert\n        /* \"#utility.yul\":621:684   */\n    tag_186:\n        /* \"#utility.yul\":568:690   */\n      pop\n      jump\t// out\n        /* \"#utility.yul\":696:835   */\n    tag_152:\n        /* \"#utility.yul\":742:747   */\n      0x00\n        /* \"#utility.yul\":780:786   */\n      dup2\n        /* \"#utility.yul\":767:787   */\n      calldataload\n        /* \"#utility.yul\":758:787   */\n      swap1\n      pop\n        /* \"#utility.yul\":796:829   */\n      tag_188\n        /* \"#utility.yul\":823:828   */\n      dup2\n        /* \"#utility.yul\":796:829   */\n      tag_151\n      jump\t// in\n    tag_188:\n        /* \"#utility.yul\":696:835   */\n      swap3\n      swap2\n      pop\n      pop\n      jump\t// out\n        /* \"#utility.yul\":841:1170   */\n    tag_24:\n        /* \"#utility.yul\":900:906   */\n      0x00\n        /* \"#utility.yul\":949:951   */\n      0x20\n        /* \"#utility.yul\":937:946   */\n      dup3\n        /* \"#utility.yul\":928:935   */\n      dup5\n        /* \"#utility.yul\":924:947   */\n      sub\n        /* \"#utility.yul\":920:952   */\n      slt\n        /* \"#utility.yul\":917:1036   */\n      iszero\n      tag_190\n      jumpi\n        /* \"#utility.yul\":955:1034   */\n      tag_191\n      tag_147\n      jump\t// in\n    tag_191:\n        /* \"#utility.yul\":917:1036   */\n    tag_190:\n        /* \"#utility.yul\":1075:1076   */\n      0x00\n        /* \"#utility.yul\":1100:1153   */\n      tag_192\n        /* \"#utility.yul\":1145:1152   */\n      dup5\n        /* \"#utility.yul\":1136:1142   */\n      dup3\n        /* \"#utility.yul\":1125:1134   */\n      dup6\n        /* \"#utility.yul\":1121:1143   */\n      add\n        /* \"#utility.yul\":1100:1153   */\n      tag_152\n      jump\t// in\n    tag_192:\n        /* \"#utility.yul\":1090:1153   */\n      swap2\n      pop\n        /* \"#utility.yul\":1046:1163   */\n      pop\n        /* \"#utility.yul\":841:1170   */\n      swap3\n      swap2\n      pop\n      pop\n      jump\t// out\n        /* \"#utility.yul\":1176:1275   */\n    tag_153:\n        /* \"#utility.yul\":1228:1234   */\n      0x00\n        /* \"#utility.yul\":1262:1267   */\n      dup2\n        /* \"#utility.yul\":1256:1268   */\n      mload\n        /* \"#utility.yul\":1246:1268   */\n      swap1\n      pop\n        /* \"#utility.yul\":1176:1275   */\n      swap2\n      swap1\n      pop\n      jump\t// out\n        /* \"#utility.yul\":1281:1450   */\n    tag_154:\n        /* \"#utility.yul\":1365:1376   */\n      0x00\n        /* \"#utility.yul\":1399:1405   */\n      dup3\n        /* \"#utility.yul\":1394:1397   */\n      dup3\n        /* \"#utility.yul\":1387:1406   */\n      mstore\n        /* \"#utility.yul\":1439:1443   */\n      0x20\n        /* \"#utility.yul\":1434:1437   */\n      dup3\n        /* \"#utility.yul\":1430:1444   */\n      add\n        /* \"#utility.yul\":1415:1444   */\n      swap1\n      pop\n        /* \"#utility.yul\":1281:1450   */\n      swap3\n      swap2\n      pop\n      pop\n      jump\t// out\n        /* \"#utility.yul\":1456:1763   */\n    tag_155:\n        /* \"#utility.yul\":1524:1525   */\n      0x00\n        /* \"#utility.yul\":1534:1647   */\n    tag_196:\n        /* \"#utility.yul\":1548:1554   */\n      dup4\n        /* \"#utility.yul\":1545:1546   */\n      dup2\n        /* \"#utility.yul\":1542:1555   */\n      lt\n        /* \"#utility.yul\":1534:1647   */\n      iszero\n      tag_198\n      jumpi\n        /* \"#utility.yul\":1633:1634   */\n      dup1\n        /* \"#utility.yul\":1628:1631   */\n      dup3\n        /* \"#utility.yul\":1624:1635   */\n      add\n        /* \"#utility.yul\":1618:1636   */\n      mload\n        /* \"#utility.yul\":1614:1615   */\n      dup2\n        /* \"#utility.yul\":1609:1612   */\n      dup5\n        /* \"#utility.yul\":1605:1616   */\n      add\n        /* \"#utility.yul\":1598:1637   */\n      mstore\n        /* \"#utility.yul\":1570:1572   */\n      0x20\n        /* \"#utility.yul\":1567:1568   */\n      dup2\n        /* \"#utility.yul\":1563:1573   */\n      add\n        /* \"#utility.yul\":1558:1573   */\n      swap1\n      pop\n        /* \"#utility.yul\":1534:1647   */\n      jump(tag_196)\n    tag_198:\n        /* \"#utility.yul\":1665:1671   */\n      dup4\n        /* \"#utility.yul\":1662:1663   */\n      dup2\n        /* \"#utility.yul\":1659:1672   */\n      gt\n        /* \"#utility.yul\":1656:1757   */\n      iszero\n      tag_199\n      jumpi\n        /* \"#utility.yul\":1745:1746   */\n      0x00\n        /* \"#utility.yul\":1736:1742   */\n      dup5\n        /* \"#utility.yul\":1731:1734   */\n      dup5\n        /* \"#utility.yul\":1727:1743   */\n      add\n        /* \"#utility.yul\":1720:1747   */\n      mstore\n        /* \"#utility.yul\":1656:1757   */\n    tag_199:\n        /* \"#utility.yul\":1505:1763   */\n      pop\n        /* \"#utility.yul\":1456:1763   */\n      pop\n      pop\n      pop\n      jump\t// out\n        /* \"#utility.yul\":1769:1871   */\n    tag_156:\n        /* \"#utility.yul\":1810:1816   */\n      0x00\n        /* \"#utility.yul\":1861:1863   */\n      0x1f\n        /* \"#utility.yul\":1857:1864   */\n      not\n        /* \"#utility.yul\":1852:1854   */\n      0x1f\n        /* \"#utility.yul\":1845:1850   */\n      dup4\n        /* \"#utility.yul\":1841:1855   */\n      add\n        /* \"#utility.yul\":1837:1865   */\n      and\n        /* \"#utility.yul\":1827:1865   */\n      swap1\n      pop\n        /* \"#utility.yul\":1769:1871   */\n      swap2\n      swap1\n      pop\n      jump\t// out\n        /* \"#utility.yul\":1877:2241   */\n    tag_157:\n        /* \"#utility.yul\":1965:1968   */\n      0x00\n        /* \"#utility.yul\":1993:2032   */\n      tag_202\n        /* \"#utility.yul\":2026:2031   */\n      dup3\n        /* \"#utility.yul\":1993:2032   */\n      tag_153\n      jump\t// in\n    tag_202:\n        /* \"#utility.yul\":2048:2119   */\n      tag_203\n        /* \"#utility.yul\":2112:2118   */\n      dup2\n        /* \"#utility.yul\":2107:2110   */\n      dup6\n        /* \"#utility.yul\":2048:2119   */\n      tag_154\n      jump\t// in\n    tag_203:\n        /* \"#utility.yul\":2041:2119   */\n      swap4\n      pop\n        /* \"#utility.yul\":2128:2180   */\n      tag_204\n        /* \"#utility.yul\":2173:2179   */\n      dup2\n        /* \"#utility.yul\":2168:2171   */\n      dup6\n        /* \"#utility.yul\":2161:2165   */\n      0x20\n        /* \"#utility.yul\":2154:2159   */\n      dup7\n        /* \"#utility.yul\":2150:2166   */\n      add\n        /* \"#utility.yul\":2128:2180   */\n      tag_155\n      jump\t// in\n    tag_204:\n        /* \"#utility.yul\":2205:2234   */\n      tag_205\n        /* \"#utility.yul\":2227:2233   */\n      dup2\n        /* \"#utility.yul\":2205:2234   */\n      tag_156\n      jump\t// in\n    tag_205:\n        /* \"#utility.yul\":2200:2203   */\n      dup5\n        /* \"#utility.yul\":2196:2235   */\n      add\n        /* \"#utility.yul\":2189:2235   */\n      swap2\n      pop\n        /* \"#utility.yul\":1969:2241   */\n      pop\n        /* \"#utility.yul\":1877:2241   */\n      swap3\n      swap2\n      pop\n      pop\n      jump\t// out\n        /* \"#utility.yul\":2247:2560   */\n    tag_27:\n        /* \"#utility.yul\":2360:2364   */\n      0x00\n        /* \"#utility.yul\":2398:2400   */\n      0x20\n        /* \"#utility.yul\":2387:2396   */\n      dup3\n        /* \"#utility.yul\":2383:2401   */\n      add\n        /* \"#utility.yul\":2375:2401   */\n      swap1\n      pop\n        /* \"#utility.yul\":2447:2456   */\n      dup2\n        /* \"#utility.yul\":2441:2445   */\n      dup2\n        /* \"#utility.yul\":2437:2457   */\n      sub\n        /* \"#utility.yul\":2433:2434   */\n      0x00\n        /* \"#utility.yul\":2422:2431   */\n      dup4\n        /* \"#utility.yul\":2418:2435   */\n      add\n        /* \"#utility.yul\":2411:2458   */\n      mstore\n        /* \"#utility.yul\":2475:2553   */\n      tag_207\n        /* \"#utility.yul\":2548:2552   */\n      dup2\n        /* \"#utility.yul\":2539:2545   */\n      dup5\n        /* \"#utility.yul\":2475:2553   */\n      tag_157\n      jump\t// in\n    tag_207:\n        /* \"#utility.yul\":2467:2553   */\n      swap1\n      pop\n        /* \"#utility.yul\":2247:2560   */\n      swap3\n      swap2\n      pop\n      pop\n      jump\t// out\n        /* \"#utility.yul\":2566:2643   */\n    tag_158:\n        /* \"#utility.yul\":2603:2610   */\n      0x00\n        /* \"#utility.yul\":2632:2637   */\n      dup2\n        /* \"#utility.yul\":2621:2637   */\n      swap1\n      pop\n        /* \"#utility.yul\":2566:2643   */\n      swap2\n      swap1\n      pop\n      jump\t// out\n        /* \"#utility.yul\":2649:2767   */\n    tag_159:\n        /* \"#utility.yul\":2736:2760   */\n      tag_210\n        /* \"#utility.yul\":2754:2759   */\n      dup2\n        /* \"#utility.yul\":2736:2760   */\n      tag_158\n      jump\t// in\n    tag_210:\n        /* \"#utility.yul\":2731:2734   */\n      dup3\n        /* \"#utility.yul\":2724:2761   */\n      mstore\n        /* \"#utility.yul\":2649:2767   */\n      pop\n      pop\n      jump\t// out\n        /* \"#utility.yul\":2773:2995   */\n    tag_31:\n        /* \"#utility.yul\":2866:2870   */\n      0x00\n        /* \"#utility.yul\":2904:2906   */\n      0x20\n        /* \"#utility.yul\":2893:2902   */\n      dup3\n        /* \"#utility.yul\":2889:2907   */\n      add\n        /* \"#utility.yul\":2881:2907   */\n      swap1\n      pop\n        /* \"#utility.yul\":2917:2988   */\n      tag_212\n        /* \"#utility.yul\":2985:2986   */\n      0x00\n        /* \"#utility.yul\":2974:2983   */\n      dup4\n        /* \"#utility.yul\":2970:2987   */\n      add\n        /* \"#utility.yul\":2961:2967   */\n      dup5\n        /* \"#utility.yul\":2917:2988   */\n      tag_159\n      jump\t// in\n    tag_212:\n        /* \"#utility.yul\":2773:2995   */\n      swap3\n      swap2\n      pop\n      pop\n      jump\t// out\n        /* \"#utility.yul\":3001:3118   */\n    tag_160:\n        /* \"#utility.yul\":3110:3111   */\n      0x00\n        /* \"#utility.yul\":3107:3108   */\n      dup1\n        /* \"#utility.yul\":3100:3112   */\n      revert\n        /* \"#utility.yul\":3124:3241   */\n    tag_161:\n        /* \"#utility.yul\":3233:3234   */\n      0x00\n        /* \"#utility.yul\":3230:3231   */\n      dup1\n        /* \"#utility.yul\":3223:3235   */\n      revert\n        /* \"#utility.yul\":3247:3427   */\n    tag_162:\n        /* \"#utility.yul\":3295:3372   */\n      0x4e487b7100000000000000000000000000000000000000000000000000000000\n        /* \"#utility.yul\":3292:3293   */\n      0x00\n        /* \"#utility.yul\":3285:3373   */\n      mstore\n        /* \"#utility.yul\":3392:3396   */\n      0x41\n        /* \"#utility.yul\":3389:3390   */\n      0x04\n        /* \"#utility.yul\":3382:3397   */\n      mstore\n        /* \"#utility.yul\":3416:3420   */\n      0x24\n        /* \"#utility.yul\":3413:3414   */\n      0x00\n        /* \"#utility.yul\":3406:3421   */\n      revert\n        /* \"#utility.yul\":3433:3714   */\n    tag_163:\n        /* \"#utility.yul\":3516:3543   */\n      tag_217\n        /* \"#utility.yul\":3538:3542   */\n      dup3\n        /* \"#utility.yul\":3516:3543   */\n      tag_156\n      jump\t// in\n    tag_217:\n        /* \"#utility.yul\":3508:3514   */\n      dup2\n        /* \"#utility.yul\":3504:3544   */\n      add\n        /* \"#utility.yul\":3646:3652   */\n      dup2\n        /* \"#utility.yul\":3634:3644   */\n      dup2\n        /* \"#utility.yul\":3631:3653   */\n      lt\n        /* \"#utility.yul\":3610:3628   */\n      0xffffffffffffffff\n        /* \"#utility.yul\":3598:3608   */\n      dup3\n        /* \"#utility.yul\":3595:3629   */\n      gt\n        /* \"#utility.yul\":3592:3654   */\n      or\n        /* \"#utility.yul\":3589:3677   */\n      iszero\n      tag_218\n      jumpi\n        /* \"#utility.yul\":3657:3675   */\n      tag_219\n      tag_162\n      jump\t// in\n    tag_219:\n        /* \"#utility.yul\":3589:3677   */\n    tag_218:\n        /* \"#utility.yul\":3697:3707   */\n      dup1\n        /* \"#utility.yul\":3693:3695   */\n      0x40\n        /* \"#utility.yul\":3686:3708   */\n      mstore\n        /* \"#utility.yul\":3476:3714   */\n      pop\n        /* \"#utility.yul\":3433:3714   */\n      pop\n      pop\n      jump\t// out\n        /* \"#utility.yul\":3720:3849   */\n    tag_164:\n        /* \"#utility.yul\":3754:3760   */\n      0x00\n        /* \"#utility.yul\":3781:3801   */\n      tag_221\n      tag_146\n      jump\t// in\n    tag_221:\n        /* \"#utility.yul\":3771:3801   */\n      swap1\n      pop\n        /* \"#utility.yul\":3810:3843   */\n      tag_222\n        /* \"#utility.yul\":3838:3842   */\n      dup3\n        /* \"#utility.yul\":3830:3836   */\n      dup3\n        /* \"#utility.yul\":3810:3843   */\n      tag_163\n      jump\t// in\n    tag_222:\n        /* \"#utility.yul\":3720:3849   */\n      swap2\n      swap1\n      pop\n      jump\t// out\n        /* \"#utility.yul\":3855:4163   */\n    tag_165:\n        /* \"#utility.yul\":3917:3921   */\n      0x00\n        /* \"#utility.yul\":4007:4025   */\n      0xffffffffffffffff\n        /* \"#utility.yul\":3999:4005   */\n      dup3\n        /* \"#utility.yul\":3996:4026   */\n      gt\n        /* \"#utility.yul\":3993:4049   */\n      iszero\n      tag_224\n      jumpi\n        /* \"#utility.yul\":4029:4047   */\n      tag_225\n      tag_162\n      jump\t// in\n    tag_225:\n        /* \"#utility.yul\":3993:4049   */\n    tag_224:\n        /* \"#utility.yul\":4067:4096   */\n      tag_226\n        /* \"#utility.yul\":4089:4095   */\n      dup3\n        /* \"#utility.yul\":4067:4096   */\n      tag_156\n      jump\t// in\n    tag_226:\n        /* \"#utility.yul\":4059:4096   */\n      swap1\n      pop\n        /* \"#utility.yul\":4151:4155   */\n      0x20\n        /* \"#utility.yul\":4145:4149   */\n      dup2\n        /* \"#utility.yul\":4141:4156   */\n      add\n        /* \"#utility.yul\":4133:4156   */\n      swap1\n      pop\n        /* \"#utility.yul\":3855:4163   */\n      swap2\n      swap1\n      pop\n      jump\t// out\n        /* \"#utility.yul\":4169:4323   */\n    tag_166:\n        /* \"#utility.yul\":4253:4259   */\n      dup3\n        /* \"#utility.yul\":4248:4251   */\n      dup2\n        /* \"#utility.yul\":4243:4246   */\n      dup4\n        /* \"#utility.yul\":4230:4260   */\n      calldatacopy\n        /* \"#utility.yul\":4315:4316   */\n      0x00\n        /* \"#utility.yul\":4306:4312   */\n      dup4\n        /* \"#utility.yul\":4301:4304   */\n      dup4\n        /* \"#utility.yul\":4297:4313   */\n      add\n        /* \"#utility.yul\":4290:4317   */\n      mstore\n        /* \"#utility.yul\":4169:4323   */\n      pop\n      pop\n      pop\n      jump\t// out\n        /* \"#utility.yul\":4329:4741   */\n    tag_167:\n        /* \"#utility.yul\":4407:4412   */\n      0x00\n        /* \"#utility.yul\":4432:4498   */\n      tag_229\n        /* \"#utility.yul\":4448:4497   */\n      tag_230\n        /* \"#utility.yul\":4490:4496   */\n      dup5\n        /* \"#utility.yul\":4448:4497   */\n      tag_165\n      jump\t// in\n    tag_230:\n        /* \"#utility.yul\":4432:4498   */\n      tag_164\n      jump\t// in\n    tag_229:\n        /* \"#utility.yul\":4423:4498   */\n      swap1\n      pop\n        /* \"#utility.yul\":4521:4527   */\n      dup3\n        /* \"#utility.yul\":4514:4519   */\n      dup2\n        /* \"#utility.yul\":4507:4528   */\n      mstore\n        /* \"#utility.yul\":4559:4563   */\n      0x20\n        /* \"#utility.yul\":4552:4557   */\n      dup2\n        /* \"#utility.yul\":4548:4564   */\n      add\n        /* \"#utility.yul\":4597:4600   */\n      dup5\n        /* \"#utility.yul\":4588:4594   */\n      dup5\n        /* \"#utility.yul\":4583:4586   */\n      dup5\n        /* \"#utility.yul\":4579:4595   */\n      add\n        /* \"#utility.yul\":4576:4601   */\n      gt\n        /* \"#utility.yul\":4573:4685   */\n      iszero\n      tag_231\n      jumpi\n        /* \"#utility.yul\":4604:4683   */\n      tag_232\n      tag_161\n      jump\t// in\n    tag_232:\n        /* \"#utility.yul\":4573:4685   */\n    tag_231:\n        /* \"#utility.yul\":4694:4735   */\n      tag_233\n        /* \"#utility.yul\":4728:4734   */\n      dup5\n        /* \"#utility.yul\":4723:4726   */\n      dup3\n        /* \"#utility.yul\":4718:4721   */\n      dup6\n        /* \"#utility.yul\":4694:4735   */\n      tag_166\n      jump\t// in\n    tag_233:\n        /* \"#utility.yul\":4413:4741   */\n      pop\n        /* \"#utility.yul\":4329:4741   */\n      swap4\n      swap3\n      pop\n      pop\n      pop\n      jump\t// out\n        /* \"#utility.yul\":4761:5101   */\n    tag_168:\n        /* \"#utility.yul\":4817:4822   */\n      0x00\n        /* \"#utility.yul\":4866:4869   */\n      dup3\n        /* \"#utility.yul\":4859:4863   */\n      0x1f\n        /* \"#utility.yul\":4851:4857   */\n      dup4\n        /* \"#utility.yul\":4847:4864   */\n      add\n        /* \"#utility.yul\":4843:4870   */\n      slt\n        /* \"#utility.yul\":4833:4955   */\n      tag_235\n      jumpi\n        /* \"#utility.yul\":4874:4953   */\n      tag_236\n      tag_160\n      jump\t// in\n    tag_236:\n        /* \"#utility.yul\":4833:4955   */\n    tag_235:\n        /* \"#utility.yul\":4991:4997   */\n      dup2\n        /* \"#utility.yul\":4978:4998   */\n      calldataload\n        /* \"#utility.yul\":5016:5095   */\n      tag_237\n        /* \"#utility.yul\":5091:5094   */\n      dup5\n        /* \"#utility.yul\":5083:5089   */\n      dup3\n        /* \"#utility.yul\":5076:5080   */\n      0x20\n        /* \"#utility.yul\":5068:5074   */\n      dup7\n        /* \"#utility.yul\":5064:5081   */\n      add\n        /* \"#utility.yul\":5016:5095   */\n      tag_167\n      jump\t// in\n    tag_237:\n        /* \"#utility.yul\":5007:5095   */\n      swap2\n      pop\n        /* \"#utility.yul\":4823:5101   */\n      pop\n        /* \"#utility.yul\":4761:5101   */\n      swap3\n      swap2\n      pop\n      pop\n      jump\t// out\n        /* \"#utility.yul\":5107:5761   */\n    tag_37:\n        /* \"#utility.yul\":5185:5191   */\n      0x00\n        /* \"#utility.yul\":5193:5199   */\n      dup1\n        /* \"#utility.yul\":5242:5244   */\n      0x40\n        /* \"#utility.yul\":5230:5239   */\n      dup4\n        /* \"#utility.yul\":5221:5228   */\n      dup6\n        /* \"#utility.yul\":5217:5240   */\n      sub\n        /* \"#utility.yul\":5213:5245   */\n      slt\n        /* \"#utility.yul\":5210:5329   */\n      iszero\n      tag_239\n      jumpi\n        /* \"#utility.yul\":5248:5327   */\n      tag_240\n      tag_147\n      jump\t// in\n    tag_240:\n        /* \"#utility.yul\":5210:5329   */\n    tag_239:\n        /* \"#utility.yul\":5368:5369   */\n      0x00\n        /* \"#utility.yul\":5393:5446   */\n      tag_241\n        /* \"#utility.yul\":5438:5445   */\n      dup6\n        /* \"#utility.yul\":5429:5435   */\n      dup3\n        /* \"#utility.yul\":5418:5427   */\n      dup7\n        /* \"#utility.yul\":5414:5436   */\n      add\n        /* \"#utility.yul\":5393:5446   */\n      tag_152\n      jump\t// in\n    tag_241:\n        /* \"#utility.yul\":5383:5446   */\n      swap3\n      pop\n        /* \"#utility.yul\":5339:5456   */\n      pop\n        /* \"#utility.yul\":5523:5525   */\n      0x20\n        /* \"#utility.yul\":5512:5521   */\n      dup4\n        /* \"#utility.yul\":5508:5526   */\n      add\n        /* \"#utility.yul\":5495:5527   */\n      calldataload\n        /* \"#utility.yul\":5554:5572   */\n      0xffffffffffffffff\n        /* \"#utility.yul\":5546:5552   */\n      dup2\n        /* \"#utility.yul\":5543:5573   */\n      gt\n        /* \"#utility.yul\":5540:5657   */\n      iszero\n      tag_242\n      jumpi\n        /* \"#utility.yul\":5576:5655   */\n      tag_243\n      tag_148\n      jump\t// in\n    tag_243:\n        /* \"#utility.yul\":5540:5657   */\n    tag_242:\n        /* \"#utility.yul\":5681:5744   */\n      tag_244\n        /* \"#utility.yul\":5736:5743   */\n      dup6\n        /* \"#utility.yul\":5727:5733   */\n      dup3\n        /* \"#utility.yul\":5716:5725   */\n      dup7\n        /* \"#utility.yul\":5712:5734   */\n      add\n        /* \"#utility.yul\":5681:5744   */\n      tag_168\n      jump\t// in\n    tag_244:\n        /* \"#utility.yul\":5671:5744   */\n      swap2\n      pop\n        /* \"#utility.yul\":5466:5754   */\n      pop\n        /* \"#utility.yul\":5107:5761   */\n      swap3\n      pop\n      swap3\n      swap1\n      pop\n      jump\t// out\n        /* \"#utility.yul\":5767:5889   */\n    tag_169:\n        /* \"#utility.yul\":5840:5864   */\n      tag_246\n        /* \"#utility.yul\":5858:5863   */\n      dup2\n        /* \"#utility.yul\":5840:5864   */\n      tag_158\n      jump\t// in\n    tag_246:\n        /* \"#utility.yul\":5833:5838   */\n      dup2\n        /* \"#utility.yul\":5830:5865   */\n      eq\n        /* \"#utility.yul\":5820:5883   */\n      tag_247\n      jumpi\n        /* \"#utility.yul\":5879:5880   */\n      0x00\n        /* \"#utility.yul\":5876:5877   */\n      dup1\n        /* \"#utility.yul\":5869:5881   */\n      revert\n        /* \"#utility.yul\":5820:5883   */\n    tag_247:\n        /* \"#utility.yul\":5767:5889   */\n      pop\n      jump\t// out\n        /* \"#utility.yul\":5895:6034   */\n    tag_170:\n        /* \"#utility.yul\":5941:5946   */\n      0x00\n        /* \"#utility.yul\":5979:5985   */\n      dup2\n        /* \"#utility.yul\":5966:5986   */\n      calldataload\n        /* \"#utility.yul\":5957:5986   */\n      swap1\n      pop\n        /* \"#utility.yul\":5995:6028   */\n      tag_249\n        /* \"#utility.yul\":6022:6027   */\n      dup2\n        /* \"#utility.yul\":5995:6028   */\n      tag_169\n      jump\t// in\n    tag_249:\n        /* \"#utility.yul\":5895:6034   */\n      swap3\n      swap2\n      pop\n      pop\n      jump\t// out\n        /* \"#utility.yul\":6040:6839   */\n    tag_41:\n        /* \"#utility.yul\":6127:6133   */\n      0x00\n        /* \"#utility.yul\":6135:6141   */\n      dup1\n        /* \"#utility.yul\":6143:6149   */\n      0x00\n        /* \"#utility.yul\":6192:6194   */\n      0x60\n        /* \"#utility.yul\":6180:6189   */\n      dup5\n        /* \"#utility.yul\":6171:6178   */\n      dup7\n        /* \"#utility.yul\":6167:6190   */\n      sub\n        /* \"#utility.yul\":6163:6195   */\n      slt\n        /* \"#utility.yul\":6160:6279   */\n      iszero\n      tag_251\n      jumpi\n        /* \"#utility.yul\":6198:6277   */\n      tag_252\n      tag_147\n      jump\t// in\n    tag_252:\n        /* \"#utility.yul\":6160:6279   */\n    tag_251:\n        /* \"#utility.yul\":6318:6319   */\n      0x00\n        /* \"#utility.yul\":6343:6396   */\n      tag_253\n        /* \"#utility.yul\":6388:6395   */\n      dup7\n        /* \"#utility.yul\":6379:6385   */\n      dup3\n        /* \"#utility.yul\":6368:6377   */\n      dup8\n        /* \"#utility.yul\":6364:6386   */\n      add\n        /* \"#utility.yul\":6343:6396   */\n      tag_152\n      jump\t// in\n    tag_253:\n        /* \"#utility.yul\":6333:6396   */\n      swap4\n      pop\n        /* \"#utility.yul\":6289:6406   */\n      pop\n        /* \"#utility.yul\":6445:6447   */\n      0x20\n        /* \"#utility.yul\":6471:6524   */\n      tag_254\n        /* \"#utility.yul\":6516:6523   */\n      dup7\n        /* \"#utility.yul\":6507:6513   */\n      dup3\n        /* \"#utility.yul\":6496:6505   */\n      dup8\n        /* \"#utility.yul\":6492:6514   */\n      add\n        /* \"#utility.yul\":6471:6524   */\n      tag_170\n      jump\t// in\n    tag_254:\n        /* \"#utility.yul\":6461:6524   */\n      swap3\n      pop\n        /* \"#utility.yul\":6416:6534   */\n      pop\n        /* \"#utility.yul\":6601:6603   */\n      0x40\n        /* \"#utility.yul\":6590:6599   */\n      dup5\n        /* \"#utility.yul\":6586:6604   */\n      add\n        /* \"#utility.yul\":6573:6605   */\n      calldataload\n        /* \"#utility.yul\":6632:6650   */\n      0xffffffffffffffff\n        /* \"#utility.yul\":6624:6630   */\n      dup2\n        /* \"#utility.yul\":6621:6651   */\n      gt\n        /* \"#utility.yul\":6618:6735   */\n      iszero\n      tag_255\n      jumpi\n        /* \"#utility.yul\":6654:6733   */\n      tag_256\n      tag_148\n      jump\t// in\n    tag_256:\n        /* \"#utility.yul\":6618:6735   */\n    tag_255:\n        /* \"#utility.yul\":6759:6822   */\n      tag_257\n        /* \"#utility.yul\":6814:6821   */\n      dup7\n        /* \"#utility.yul\":6805:6811   */\n      dup3\n        /* \"#utility.yul\":6794:6803   */\n      dup8\n        /* \"#utility.yul\":6790:6812   */\n      add\n        /* \"#utility.yul\":6759:6822   */\n      tag_168\n      jump\t// in\n    tag_257:\n        /* \"#utility.yul\":6749:6822   */\n      swap2\n      pop\n        /* \"#utility.yul\":6544:6832   */\n      pop\n        /* \"#utility.yul\":6040:6839   */\n      swap3\n      pop\n      swap3\n      pop\n      swap3\n      jump\t// out\n        /* \"#utility.yul\":6845:7174   */\n    tag_58:\n        /* \"#utility.yul\":6904:6910   */\n      0x00\n        /* \"#utility.yul\":6953:6955   */\n      0x20\n        /* \"#utility.yul\":6941:6950   */\n      dup3\n        /* \"#utility.yul\":6932:6939   */\n      dup5\n        /* \"#utility.yul\":6928:6951   */\n      sub\n        /* \"#utility.yul\":6924:6956   */\n      slt\n        /* \"#utility.yul\":6921:7040   */\n      iszero\n      tag_259\n      jumpi\n        /* \"#utility.yul\":6959:7038   */\n      tag_260\n      tag_147\n      jump\t// in\n    tag_260:\n        /* \"#utility.yul\":6921:7040   */\n    tag_259:\n        /* \"#utility.yul\":7079:7080   */\n      0x00\n        /* \"#utility.yul\":7104:7157   */\n      tag_261\n        /* \"#utility.yul\":7149:7156   */\n      dup5\n        /* \"#utility.yul\":7140:7146   */\n      dup3\n        /* \"#utility.yul\":7129:7138   */\n      dup6\n        /* \"#utility.yul\":7125:7147   */\n      add\n        /* \"#utility.yul\":7104:7157   */\n      tag_170\n      jump\t// in\n    tag_261:\n        /* \"#utility.yul\":7094:7157   */\n      swap2\n      pop\n        /* \"#utility.yul\":7050:7167   */\n      pop\n        /* \"#utility.yul\":6845:7174   */\n      swap3\n      swap2\n      pop\n      pop\n      jump\t// out\n        /* \"#utility.yul\":7180:7298   */\n    tag_171:\n        /* \"#utility.yul\":7267:7291   */\n      tag_263\n        /* \"#utility.yul\":7285:7290   */\n      dup2\n        /* \"#utility.yul\":7267:7291   */\n      tag_150\n      jump\t// in\n    tag_263:\n        /* \"#utility.yul\":7262:7265   */\n      dup3\n        /* \"#utility.yul\":7255:7292   */\n      mstore\n        /* \"#utility.yul\":7180:7298   */\n      pop\n      pop\n      jump\t// out\n        /* \"#utility.yul\":7304:7526   */\n    tag_61:\n        /* \"#utility.yul\":7397:7401   */\n      0x00\n        /* \"#utility.yul\":7435:7437   */\n      0x20\n        /* \"#utility.yul\":7424:7433   */\n      dup3\n        /* \"#utility.yul\":7420:7438   */\n      add\n        /* \"#utility.yul\":7412:7438   */\n      swap1\n      pop\n        /* \"#utility.yul\":7448:7519   */\n      tag_265\n        /* \"#utility.yul\":7516:7517   */\n      0x00\n        /* \"#utility.yul\":7505:7514   */\n      dup4\n        /* \"#utility.yul\":7501:7518   */\n      add\n        /* \"#utility.yul\":7492:7498   */\n      dup5\n        /* \"#utility.yul\":7448:7519   */\n      tag_171\n      jump\t// in\n    tag_265:\n        /* \"#utility.yul\":7304:7526   */\n      swap3\n      swap2\n      pop\n      pop\n      jump\t// out\n        /* \"#utility.yul\":7532:8331   */\n    tag_67:\n        /* \"#utility.yul\":7619:7625   */\n      0x00\n        /* \"#utility.yul\":7627:7633   */\n      dup1\n        /* \"#utility.yul\":7635:7641   */\n      0x00\n        /* \"#utility.yul\":7684:7686   */\n      0x60\n        /* \"#utility.yul\":7672:7681   */\n      dup5\n        /* \"#utility.yul\":7663:7670   */\n      dup7\n        /* \"#utility.yul\":7659:7682   */\n      sub\n        /* \"#utility.yul\":7655:7687   */\n      slt\n        /* \"#utility.yul\":7652:7771   */\n      iszero\n      tag_267\n      jumpi\n        /* \"#utility.yul\":7690:7769   */\n      tag_268\n      tag_147\n      jump\t// in\n    tag_268:\n        /* \"#utility.yul\":7652:7771   */\n    tag_267:\n        /* \"#utility.yul\":7838:7839   */\n      0x00\n        /* \"#utility.yul\":7827:7836   */\n      dup5\n        /* \"#utility.yul\":7823:7840   */\n      add\n        /* \"#utility.yul\":7810:7841   */\n      calldataload\n        /* \"#utility.yul\":7868:7886   */\n      0xffffffffffffffff\n        /* \"#utility.yul\":7860:7866   */\n      dup2\n        /* \"#utility.yul\":7857:7887   */\n      gt\n        /* \"#utility.yul\":7854:7971   */\n      iszero\n      tag_269\n      jumpi\n        /* \"#utility.yul\":7890:7969   */\n      tag_270\n      tag_148\n      jump\t// in\n    tag_270:\n        /* \"#utility.yul\":7854:7971   */\n    tag_269:\n        /* \"#utility.yul\":7995:8058   */\n      tag_271\n        /* \"#utility.yul\":8050:8057   */\n      dup7\n        /* \"#utility.yul\":8041:8047   */\n      dup3\n        /* \"#utility.yul\":8030:8039   */\n      dup8\n        /* \"#utility.yul\":8026:8048   */\n      add\n        /* \"#utility.yul\":7995:8058   */\n      tag_168\n      jump\t// in\n    tag_271:\n        /* \"#utility.yul\":7985:8058   */\n      swap4\n      pop\n        /* \"#utility.yul\":7781:8068   */\n      pop\n        /* \"#utility.yul\":8107:8109   */\n      0x20\n        /* \"#utility.yul\":8133:8186   */\n      tag_272\n        /* \"#utility.yul\":8178:8185   */\n      dup7\n        /* \"#utility.yul\":8169:8175   */\n      dup3\n        /* \"#utility.yul\":8158:8167   */\n      dup8\n        /* \"#utility.yul\":8154:8176   */\n      add\n        /* \"#utility.yul\":8133:8186   */\n      tag_170\n      jump\t// in\n    tag_272:\n        /* \"#utility.yul\":8123:8186   */\n      swap3\n      pop\n        /* \"#utility.yul\":8078:8196   */\n      pop\n        /* \"#utility.yul\":8235:8237   */\n      0x40\n        /* \"#utility.yul\":8261:8314   */\n      tag_273\n        /* \"#utility.yul\":8306:8313   */\n      dup7\n        /* \"#utility.yul\":8297:8303   */\n      dup3\n        /* \"#utility.yul\":8286:8295   */\n      dup8\n        /* \"#utility.yul\":8282:8304   */\n      add\n        /* \"#utility.yul\":8261:8314   */\n      tag_170\n      jump\t// in\n    tag_273:\n        /* \"#utility.yul\":8251:8314   */\n      swap2\n      pop\n        /* \"#utility.yul\":8206:8324   */\n      pop\n        /* \"#utility.yul\":7532:8331   */\n      swap3\n      pop\n      swap3\n      pop\n      swap3\n      jump\t// out\n        /* \"#utility.yul\":8337:8846   */\n    tag_79:\n        /* \"#utility.yul\":8406:8412   */\n      0x00\n        /* \"#utility.yul\":8455:8457   */\n      0x20\n        /* \"#utility.yul\":8443:8452   */\n      dup3\n        /* \"#utility.yul\":8434:8441   */\n      dup5\n        /* \"#utility.yul\":8430:8453   */\n      sub\n        /* \"#utility.yul\":8426:8458   */\n      slt\n        /* \"#utility.yul\":8423:8542   */\n      iszero\n      tag_275\n      jumpi\n        /* \"#utility.yul\":8461:8540   */\n      tag_276\n      tag_147\n      jump\t// in\n    tag_276:\n        /* \"#utility.yul\":8423:8542   */\n    tag_275:\n        /* \"#utility.yul\":8609:8610   */\n      0x00\n        /* \"#utility.yul\":8598:8607   */\n      dup3\n        /* \"#utility.yul\":8594:8611   */\n      add\n        /* \"#utility.yul\":8581:8612   */\n      calldataload\n        /* \"#utility.yul\":8639:8657   */\n      0xffffffffffffffff\n        /* \"#utility.yul\":8631:8637   */\n      dup2\n        /* \"#utility.yul\":8628:8658   */\n      gt\n        /* \"#utility.yul\":8625:8742   */\n      iszero\n      tag_277\n      jumpi\n        /* \"#utility.yul\":8661:8740   */\n      tag_278\n      tag_148\n      jump\t// in\n    tag_278:\n        /* \"#utility.yul\":8625:8742   */\n    tag_277:\n        /* \"#utility.yul\":8766:8829   */\n      tag_279\n        /* \"#utility.yul\":8821:8828   */\n      dup5\n        /* \"#utility.yul\":8812:8818   */\n      dup3\n        /* \"#utility.yul\":8801:8810   */\n      dup6\n        /* \"#utility.yul\":8797:8819   */\n      add\n        /* \"#utility.yul\":8766:8829   */\n      tag_168\n      jump\t// in\n    tag_279:\n        /* \"#utility.yul\":8756:8829   */\n      swap2\n      pop\n        /* \"#utility.yul\":8552:8839   */\n      pop\n        /* \"#utility.yul\":8337:8846   */\n      swap3\n      swap2\n      pop\n      pop\n      jump\t// out\n        /* \"#utility.yul\":8852:9032   */\n    tag_172:\n        /* \"#utility.yul\":8900:8977   */\n      0x4e487b7100000000000000000000000000000000000000000000000000000000\n        /* \"#utility.yul\":8897:8898   */\n      0x00\n        /* \"#utility.yul\":8890:8978   */\n      mstore\n        /* \"#utility.yul\":8997:9001   */\n      0x22\n        /* \"#utility.yul\":8994:8995   */\n      0x04\n        /* \"#utility.yul\":8987:9002   */\n      mstore\n        /* \"#utility.yul\":9021:9025   */\n      0x24\n        /* \"#utility.yul\":9018:9019   */\n      0x00\n        /* \"#utility.yul\":9011:9026   */\n      revert\n        /* \"#utility.yul\":9038:9358   */\n    tag_82:\n        /* \"#utility.yul\":9082:9088   */\n      0x00\n        /* \"#utility.yul\":9119:9120   */\n      0x02\n        /* \"#utility.yul\":9113:9117   */\n      dup3\n        /* \"#utility.yul\":9109:9121   */\n      div\n        /* \"#utility.yul\":9099:9121   */\n      swap1\n      pop\n        /* \"#utility.yul\":9166:9167   */\n      0x01\n        /* \"#utility.yul\":9160:9164   */\n      dup3\n        /* \"#utility.yul\":9156:9168   */\n      and\n        /* \"#utility.yul\":9187:9205   */\n      dup1\n        /* \"#utility.yul\":9177:9258   */\n      tag_282\n      jumpi\n        /* \"#utility.yul\":9243:9247   */\n      0x7f\n        /* \"#utility.yul\":9235:9241   */\n      dup3\n        /* \"#utility.yul\":9231:9248   */\n      and\n        /* \"#utility.yul\":9221:9248   */\n      swap2\n      pop\n        /* \"#utility.yul\":9177:9258   */\n    tag_282:\n        /* \"#utility.yul\":9305:9307   */\n      0x20\n        /* \"#utility.yul\":9297:9303   */\n      dup3\n        /* \"#utility.yul\":9294:9308   */\n      lt\n        /* \"#utility.yul\":9274:9292   */\n      dup2\n        /* \"#utility.yul\":9271:9309   */\n      sub\n        /* \"#utility.yul\":9268:9352   */\n      tag_283\n      jumpi\n        /* \"#utility.yul\":9324:9342   */\n      tag_284\n      tag_172\n      jump\t// in\n    tag_284:\n        /* \"#utility.yul\":9268:9352   */\n    tag_283:\n        /* \"#utility.yul\":9089:9358   */\n      pop\n        /* \"#utility.yul\":9038:9358   */\n      swap2\n      swap1\n      pop\n      jump\t// out\n        /* \"#utility.yul\":9364:9600   */\n    tag_173:\n        /* \"#utility.yul\":9504:9538   */\n      0x41756374696f6e656572206973206e6f7420616c6c6f77656420746f20726567\n        /* \"#utility.yul\":9500:9501   */\n      0x00\n        /* \"#utility.yul\":9492:9498   */\n      dup3\n        /* \"#utility.yul\":9488:9502   */\n      add\n        /* \"#utility.yul\":9481:9539   */\n      mstore\n        /* \"#utility.yul\":9573:9592   */\n      0x6973746572206173206120626964646572000000000000000000000000000000\n        /* \"#utility.yul\":9568:9570   */\n      0x20\n        /* \"#utility.yul\":9560:9566   */\n      dup3\n        /* \"#utility.yul\":9556:9571   */\n      add\n        /* \"#utility.yul\":9549:9593   */\n      mstore\n        /* \"#utility.yul\":9364:9600   */\n      pop\n      jump\t// out\n        /* \"#utility.yul\":9606:9972   */\n    tag_174:\n        /* \"#utility.yul\":9748:9751   */\n      0x00\n        /* \"#utility.yul\":9769:9836   */\n      tag_287\n        /* \"#utility.yul\":9833:9835   */\n      0x31\n        /* \"#utility.yul\":9828:9831   */\n      dup4\n        /* \"#utility.yul\":9769:9836   */\n      tag_154\n      jump\t// in\n    tag_287:\n        /* \"#utility.yul\":9762:9836   */\n      swap2\n      pop\n        /* \"#utility.yul\":9845:9938   */\n      tag_288\n        /* \"#utility.yul\":9934:9937   */\n      dup3\n        /* \"#utility.yul\":9845:9938   */\n      tag_173\n      jump\t// in\n    tag_288:\n        /* \"#utility.yul\":9963:9965   */\n      0x40\n        /* \"#utility.yul\":9958:9961   */\n      dup3\n        /* \"#utility.yul\":9954:9966   */\n      add\n        /* \"#utility.yul\":9947:9966   */\n      swap1\n      pop\n        /* \"#utility.yul\":9606:9972   */\n      swap2\n      swap1\n      pop\n      jump\t// out\n        /* \"#utility.yul\":9978:10397   */\n    tag_95:\n        /* \"#utility.yul\":10144:10148   */\n      0x00\n        /* \"#utility.yul\":10182:10184   */\n      0x20\n        /* \"#utility.yul\":10171:10180   */\n      dup3\n        /* \"#utility.yul\":10167:10185   */\n      add\n        /* \"#utility.yul\":10159:10185   */\n      swap1\n      pop\n        /* \"#utility.yul\":10231:10240   */\n      dup2\n        /* \"#utility.yul\":10225:10229   */\n      dup2\n        /* \"#utility.yul\":10221:10241   */\n      sub\n        /* \"#utility.yul\":10217:10218   */\n      0x00\n        /* \"#utility.yul\":10206:10215   */\n      dup4\n        /* \"#utility.yul\":10202:10219   */\n      add\n        /* \"#utility.yul\":10195:10242   */\n      mstore\n        /* \"#utility.yul\":10259:10390   */\n      tag_290\n        /* \"#utility.yul\":10385:10389   */\n      dup2\n        /* \"#utility.yul\":10259:10390   */\n      tag_174\n      jump\t// in\n    tag_290:\n        /* \"#utility.yul\":10251:10390   */\n      swap1\n      pop\n        /* \"#utility.yul\":9978:10397   */\n      swap2\n      swap1\n      pop\n      jump\t// out\n        /* \"#utility.yul\":10403:10629   */\n    tag_175:\n        /* \"#utility.yul\":10543:10577   */\n      0x4f6e6c792061756374696f6e6565722063616e2063616c6c2074686973206675\n        /* \"#utility.yul\":10539:10540   */\n      0x00\n        /* \"#utility.yul\":10531:10537   */\n      dup3\n        /* \"#utility.yul\":10527:10541   */\n      add\n        /* \"#utility.yul\":10520:10578   */\n      mstore\n        /* \"#utility.yul\":10612:10621   */\n      0x6e6374696f6e2e00000000000000000000000000000000000000000000000000\n        /* \"#utility.yul\":10607:10609   */\n      0x20\n        /* \"#utility.yul\":10599:10605   */\n      dup3\n        /* \"#utility.yul\":10595:10610   */\n      add\n        /* \"#utility.yul\":10588:10622   */\n      mstore\n        /* \"#utility.yul\":10403:10629   */\n      pop\n      jump\t// out\n        /* \"#utility.yul\":10635:11001   */\n    tag_176:\n        /* \"#utility.yul\":10777:10780   */\n      0x00\n        /* \"#utility.yul\":10798:10865   */\n      tag_293\n        /* \"#utility.yul\":10862:10864   */\n      0x27\n        /* \"#utility.yul\":10857:10860   */\n      dup4\n        /* \"#utility.yul\":10798:10865   */\n      tag_154\n      jump\t// in\n    tag_293:\n        /* \"#utility.yul\":10791:10865   */\n      swap2\n      pop\n        /* \"#utility.yul\":10874:10967   */\n      tag_294\n        /* \"#utility.yul\":10963:10966   */\n      dup3\n        /* \"#utility.yul\":10874:10967   */\n      tag_175\n      jump\t// in\n    tag_294:\n        /* \"#utility.yul\":10992:10994   */\n      0x40\n        /* \"#utility.yul\":10987:10990   */\n      dup3\n        /* \"#utility.yul\":10983:10995   */\n      add\n        /* \"#utility.yul\":10976:10995   */\n      swap1\n      pop\n        /* \"#utility.yul\":10635:11001   */\n      swap2\n      swap1\n      pop\n      jump\t// out\n        /* \"#utility.yul\":11007:11426   */\n    tag_122:\n        /* \"#utility.yul\":11173:11177   */\n      0x00\n        /* \"#utility.yul\":11211:11213   */\n      0x20\n        /* \"#utility.yul\":11200:11209   */\n      dup3\n        /* \"#utility.yul\":11196:11214   */\n      add\n        /* \"#utility.yul\":11188:11214   */\n      swap1\n      pop\n        /* \"#utility.yul\":11260:11269   */\n      dup2\n        /* \"#utility.yul\":11254:11258   */\n      dup2\n        /* \"#utility.yul\":11250:11270   */\n      sub\n        /* \"#utility.yul\":11246:11247   */\n      0x00\n        /* \"#utility.yul\":11235:11244   */\n      dup4\n        /* \"#utility.yul\":11231:11248   */\n      add\n        /* \"#utility.yul\":11224:11271   */\n      mstore\n        /* \"#utility.yul\":11288:11419   */\n      tag_296\n        /* \"#utility.yul\":11414:11418   */\n      dup2\n        /* \"#utility.yul\":11288:11419   */\n      tag_176\n      jump\t// in\n    tag_296:\n        /* \"#utility.yul\":11280:11419   */\n      swap1\n      pop\n        /* \"#utility.yul\":11007:11426   */\n      swap2\n      swap1\n      pop\n      jump\t// out\n\n    auxdata: 0xa2646970667358221220416f3417dbec1fd1eebc20a2d7da1b8adecc6d63563bea6c577755f3281a995264736f6c634300080e0033\n}\n",
				"bytecode": {
					"linkReferences": {},
					"object": "608060405234801561001057600080fd5b50336000806101000a81548173ffffffffffffffffffffffffffffffffffffffff021916908373ffffffffffffffffffffffffffffffffffffffff1602179055506111a4806100606000396000f3fe608060405234801561001057600080fd5b50600436106101005760003560e01c8063b077279511610097578063ed7a4e0b11610066578063ed7a4e0b1461029d578063f356733c146102bb578063fb77840d146102c5578063ff567d8d146102e157610100565b8063b077279514610215578063cff29dfd14610233578063daa0218f14610263578063e7d2a9971461028157610100565b80638226ed38116100d35780638226ed381461018d57806386b8c34c146101a9578063938626c2146101c7578063a3d6f9a9146101e557610100565b80630f3f02b21461010557806311631d061461013557806334eb86a2146101535780637d441a6f14610171575b600080fd5b61011f600480360381019061011a9190610b93565b6102fd565b60405161012c9190610c59565b60405180910390f35b61013d61039d565b60405161014a9190610c94565b60405180910390f35b61015b6103a3565b6040516101689190610c94565b60405180910390f35b61018b60048036038101906101869190610de4565b6103a9565b005b6101a760048036038101906101a29190610e6c565b610401565b005b6101b1610465565b6040516101be9190610c59565b60405180910390f35b6101cf6105c2565b6040516101dc9190610c59565b60405180910390f35b6101ff60048036038101906101fa9190610b93565b610650565b60405161020c9190610c59565b60405180910390f35b61021d6106f0565b60405161022a9190610c59565b60405180910390f35b61024d60048036038101906102489190610edb565b61077e565b60405161025a9190610f17565b60405180910390f35b61026b6107bd565b6040516102789190610c94565b60405180910390f35b61029b60048036038101906102969190610f32565b6107c3565b005b6102a561087b565b6040516102b29190610f17565b60405180910390f35b6102c36108a1565b005b6102df60048036038101906102da9190610e6c565b610994565b005b6102fb60048036038101906102f69190610fa1565b610999565b005b6006602052806000526040600020600091509050805461031c90611019565b80601f016020809104026020016040519081016040528092919081815260200182805461034890611019565b80156103955780601f1061036a57610100808354040283529160200191610395565b820191906000526020600020905b81548152906001019060200180831161037857829003601f168201915b505050505081565b60085481565b60035481565b80600560008473ffffffffffffffffffffffffffffffffffffffff1673ffffffffffffffffffffffffffffffffffffffff16815260200190815260200160002090805190602001906103fc929190610a7e565b505050565b82600760006101000a81548173ffffffffffffffffffffffffffffffffffffffff021916908373ffffffffffffffffffffffffffffffffffffffff16021790555081600881905550806009908051906020019061045f929190610a7e565b50505050565b606060008054906101000a900473ffffffffffffffffffffffffffffffffffffffff1673ffffffffffffffffffffffffffffffffffffffff163373ffffffffffffffffffffffffffffffffffffffff16036104f5576040517f08c379a00000000000000000000000000000000000000000000000000000000081526004016104ec906110bc565b60405180910390fd5b600560003373ffffffffffffffffffffffffffffffffffffffff1673ffffffffffffffffffffffffffffffffffffffff168152602001908152602001600020805461053f90611019565b80601f016020809104026020016040519081016040528092919081815260200182805461056b90611019565b80156105b85780601f1061058d576101008083540402835291602001916105b8565b820191906000526020600020905b81548152906001019060200180831161059b57829003601f168201915b5050505050905090565b600280546105cf90611019565b80601f01602080910402602001604051908101604052809291908181526020018280546105fb90611019565b80156106485780601f1061061d57610100808354040283529160200191610648565b820191906000526020600020905b81548152906001019060200180831161062b57829003601f168201915b505050505081565b6005602052806000526040600020600091509050805461066f90611019565b80601f016020809104026020016040519081016040528092919081815260200182805461069b90611019565b80156106e85780601f106106bd576101008083540402835291602001916106e8565b820191906000526020600020905b8154815290600101906020018083116106cb57829003601f168201915b505050505081565b600980546106fd90611019565b80601f016020809104026020016040519081016040528092919081815260200182805461072990611019565b80156107765780601f1061074b57610100808354040283529160200191610776565b820191906000526020600020905b81548152906001019060200180831161075957829003601f168201915b505050505081565b6001818154811061078e57600080fd5b906000526020600020016000915054906101000a900473ffffffffffffffffffffffffffffffffffffffff1681565b60045481565b60008054906101000a900473ffffffffffffffffffffffffffffffffffffffff1673ffffffffffffffffffffffffffffffffffffffff163373ffffffffffffffffffffffffffffffffffffffff1614610851576040517f08c379a00000000000000000000000000000000000000000000000000000000081526004016108489061114e565b60405180910390fd5b8260029080519060200190610867929190610a7e565b508160038190555080600481905550505050565b600760009054906101000a900473ffffffffffffffffffffffffffffffffffffffff1681565b60008054906101000a900473ffffffffffffffffffffffffffffffffffffffff1673ffffffffffffffffffffffffffffffffffffffff163373ffffffffffffffffffffffffffffffffffffffff160361092f576040517f08c379a0000000000000000000000000000000000000000000000000000000008152600401610926906110bc565b60405180910390fd5b6001339080600181540180825580915050600190039060005260206000200160009091909190916101000a81548173ffffffffffffffffffffffffffffffffffffffff021916908373ffffffffffffffffffffffffffffffffffffffff160217905550565b505050565b60008054906101000a900473ffffffffffffffffffffffffffffffffffffffff1673ffffffffffffffffffffffffffffffffffffffff163373ffffffffffffffffffffffffffffffffffffffff1603610a27576040517f08c379a0000000000000000000000000000000000000000000000000000000008152600401610a1e906110bc565b60405180910390fd5b80600660003373ffffffffffffffffffffffffffffffffffffffff1673ffffffffffffffffffffffffffffffffffffffff1681526020019081526020016000209080519060200190610a7a929190610a7e565b5050565b828054610a8a90611019565b90600052602060002090601f016020900481019282610aac5760008555610af3565b82601f10610ac557805160ff1916838001178555610af3565b82800160010185558215610af3579182015b82811115610af2578251825591602001919060010190610ad7565b5b509050610b009190610b04565b5090565b5b80821115610b1d576000816000905550600101610b05565b5090565b6000604051905090565b600080fd5b600080fd5b600073ffffffffffffffffffffffffffffffffffffffff82169050919050565b6000610b6082610b35565b9050919050565b610b7081610b55565b8114610b7b57600080fd5b50565b600081359050610b8d81610b67565b92915050565b600060208284031215610ba957610ba8610b2b565b5b6000610bb784828501610b7e565b91505092915050565b600081519050919050565b600082825260208201905092915050565b60005b83811015610bfa578082015181840152602081019050610bdf565b83811115610c09576000848401525b50505050565b6000601f19601f8301169050919050565b6000610c2b82610bc0565b610c358185610bcb565b9350610c45818560208601610bdc565b610c4e81610c0f565b840191505092915050565b60006020820190508181036000830152610c738184610c20565b905092915050565b6000819050919050565b610c8e81610c7b565b82525050565b6000602082019050610ca96000830184610c85565b92915050565b600080fd5b600080fd5b7f4e487b7100000000000000000000000000000000000000000000000000000000600052604160045260246000fd5b610cf182610c0f565b810181811067ffffffffffffffff82111715610d1057610d0f610cb9565b5b80604052505050565b6000610d23610b21565b9050610d2f8282610ce8565b919050565b600067ffffffffffffffff821115610d4f57610d4e610cb9565b5b610d5882610c0f565b9050602081019050919050565b82818337600083830152505050565b6000610d87610d8284610d34565b610d19565b905082815260208101848484011115610da357610da2610cb4565b5b610dae848285610d65565b509392505050565b600082601f830112610dcb57610dca610caf565b5b8135610ddb848260208601610d74565b91505092915050565b60008060408385031215610dfb57610dfa610b2b565b5b6000610e0985828601610b7e565b925050602083013567ffffffffffffffff811115610e2a57610e29610b30565b5b610e3685828601610db6565b9150509250929050565b610e4981610c7b565b8114610e5457600080fd5b50565b600081359050610e6681610e40565b92915050565b600080600060608486031215610e8557610e84610b2b565b5b6000610e9386828701610b7e565b9350506020610ea486828701610e57565b925050604084013567ffffffffffffffff811115610ec557610ec4610b30565b5b610ed186828701610db6565b9150509250925092565b600060208284031215610ef157610ef0610b2b565b5b6000610eff84828501610e57565b91505092915050565b610f1181610b55565b82525050565b6000602082019050610f2c6000830184610f08565b92915050565b600080600060608486031215610f4b57610f4a610b2b565b5b600084013567ffffffffffffffff811115610f6957610f68610b30565b5b610f7586828701610db6565b9350506020610f8686828701610e57565b9250506040610f9786828701610e57565b9150509250925092565b600060208284031215610fb757610fb6610b2b565b5b600082013567ffffffffffffffff811115610fd557610fd4610b30565b5b610fe184828501610db6565b91505092915050565b7f4e487b7100000000000000000000000000000000000000000000000000000000600052602260045260246000fd5b6000600282049050600182168061103157607f821691505b60208210810361104457611043610fea565b5b50919050565b7f41756374696f6e656572206973206e6f7420616c6c6f77656420746f2072656760008201527f6973746572206173206120626964646572000000000000000000000000000000602082015250565b60006110a6603183610bcb565b91506110b18261104a565b604082019050919050565b600060208201905081810360008301526110d581611099565b9050919050565b7f4f6e6c792061756374696f6e6565722063616e2063616c6c207468697320667560008201527f6e6374696f6e2e00000000000000000000000000000000000000000000000000602082015250565b6000611138602783610bcb565b9150611143826110dc565b604082019050919050565b600060208201905081810360008301526111678161112b565b905091905056fea2646970667358221220416f3417dbec1fd1eebc20a2d7da1b8adecc6d63563bea6c577755f3281a995264736f6c634300080e0033",
					"opcodes": "PUSH1 0x80 PUSH1 0x40 MSTORE CALLVALUE DUP1 ISZERO PUSH2 0x10 JUMPI PUSH1 0x0 DUP1 REVERT JUMPDEST POP CALLER PUSH1 0x0 DUP1 PUSH2 0x100 EXP DUP2 SLOAD DUP2 PUSH20 0xFFFFFFFFFFFFFFFFFFFFFFFFFFFFFFFFFFFFFFFF MUL NOT AND SWAP1 DUP4 PUSH20 0xFFFFFFFFFFFFFFFFFFFFFFFFFFFFFFFFFFFFFFFF AND MUL OR SWAP1 SSTORE POP PUSH2 0x11A4 DUP1 PUSH2 0x60 PUSH1 0x0 CODECOPY PUSH1 0x0 RETURN INVALID PUSH1 0x80 PUSH1 0x40 MSTORE CALLVALUE DUP1 ISZERO PUSH2 0x10 JUMPI PUSH1 0x0 DUP1 REVERT JUMPDEST POP PUSH1 0x4 CALLDATASIZE LT PUSH2 0x100 JUMPI PUSH1 0x0 CALLDATALOAD PUSH1 0xE0 SHR DUP1 PUSH4 0xB0772795 GT PUSH2 0x97 JUMPI DUP1 PUSH4 0xED7A4E0B GT PUSH2 0x66 JUMPI DUP1 PUSH4 0xED7A4E0B EQ PUSH2 0x29D JUMPI DUP1 PUSH4 0xF356733C EQ PUSH2 0x2BB JUMPI DUP1 PUSH4 0xFB77840D EQ PUSH2 0x2C5 JUMPI DUP1 PUSH4 0xFF567D8D EQ PUSH2 0x2E1 JUMPI PUSH2 0x100 JUMP JUMPDEST DUP1 PUSH4 0xB0772795 EQ PUSH2 0x215 JUMPI DUP1 PUSH4 0xCFF29DFD EQ PUSH2 0x233 JUMPI DUP1 PUSH4 0xDAA0218F EQ PUSH2 0x263 JUMPI DUP1 PUSH4 0xE7D2A997 EQ PUSH2 0x281 JUMPI PUSH2 0x100 JUMP JUMPDEST DUP1 PUSH4 0x8226ED38 GT PUSH2 0xD3 JUMPI DUP1 PUSH4 0x8226ED38 EQ PUSH2 0x18D JUMPI DUP1 PUSH4 0x86B8C34C EQ PUSH2 0x1A9 JUMPI DUP1 PUSH4 0x938626C2 EQ PUSH2 0x1C7 JUMPI DUP1 PUSH4 0xA3D6F9A9 EQ PUSH2 0x1E5 JUMPI PUSH2 0x100 JUMP JUMPDEST DUP1 PUSH4 0xF3F02B2 EQ PUSH2 0x105 JUMPI DUP1 PUSH4 0x11631D06 EQ PUSH2 0x135 JUMPI DUP1 PUSH4 0x34EB86A2 EQ PUSH2 0x153 JUMPI DUP1 PUSH4 0x7D441A6F EQ PUSH2 0x171 JUMPI JUMPDEST PUSH1 0x0 DUP1 REVERT JUMPDEST PUSH2 0x11F PUSH1 0x4 DUP1 CALLDATASIZE SUB DUP2 ADD SWAP1 PUSH2 0x11A SWAP2 SWAP1 PUSH2 0xB93 JUMP JUMPDEST PUSH2 0x2FD JUMP JUMPDEST PUSH1 0x40 MLOAD PUSH2 0x12C SWAP2 SWAP1 PUSH2 0xC59 JUMP JUMPDEST PUSH1 0x40 MLOAD DUP1 SWAP2 SUB SWAP1 RETURN JUMPDEST PUSH2 0x13D PUSH2 0x39D JUMP JUMPDEST PUSH1 0x40 MLOAD PUSH2 0x14A SWAP2 SWAP1 PUSH2 0xC94 JUMP JUMPDEST PUSH1 0x40 MLOAD DUP1 SWAP2 SUB SWAP1 RETURN JUMPDEST PUSH2 0x15B PUSH2 0x3A3 JUMP JUMPDEST PUSH1 0x40 MLOAD PUSH2 0x168 SWAP2 SWAP1 PUSH2 0xC94 JUMP JUMPDEST PUSH1 0x40 MLOAD DUP1 SWAP2 SUB SWAP1 RETURN JUMPDEST PUSH2 0x18B PUSH1 0x4 DUP1 CALLDATASIZE SUB DUP2 ADD SWAP1 PUSH2 0x186 SWAP2 SWAP1 PUSH2 0xDE4 JUMP JUMPDEST PUSH2 0x3A9 JUMP JUMPDEST STOP JUMPDEST PUSH2 0x1A7 PUSH1 0x4 DUP1 CALLDATASIZE SUB DUP2 ADD SWAP1 PUSH2 0x1A2 SWAP2 SWAP1 PUSH2 0xE6C JUMP JUMPDEST PUSH2 0x401 JUMP JUMPDEST STOP JUMPDEST PUSH2 0x1B1 PUSH2 0x465 JUMP JUMPDEST PUSH1 0x40 MLOAD PUSH2 0x1BE SWAP2 SWAP1 PUSH2 0xC59 JUMP JUMPDEST PUSH1 0x40 MLOAD DUP1 SWAP2 SUB SWAP1 RETURN JUMPDEST PUSH2 0x1CF PUSH2 0x5C2 JUMP JUMPDEST PUSH1 0x40 MLOAD PUSH2 0x1DC SWAP2 SWAP1 PUSH2 0xC59 JUMP JUMPDEST PUSH1 0x40 MLOAD DUP1 SWAP2 SUB SWAP1 RETURN JUMPDEST PUSH2 0x1FF PUSH1 0x4 DUP1 CALLDATASIZE SUB DUP2 ADD SWAP1 PUSH2 0x1FA SWAP2 SWAP1 PUSH2 0xB93 JUMP JUMPDEST PUSH2 0x650 JUMP JUMPDEST PUSH1 0x40 MLOAD PUSH2 0x20C SWAP2 SWAP1 PUSH2 0xC59 JUMP JUMPDEST PUSH1 0x40 MLOAD DUP1 SWAP2 SUB SWAP1 RETURN JUMPDEST PUSH2 0x21D PUSH2 0x6F0 JUMP JUMPDEST PUSH1 0x40 MLOAD PUSH2 0x22A SWAP2 SWAP1 PUSH2 0xC59 JUMP JUMPDEST PUSH1 0x40 MLOAD DUP1 SWAP2 SUB SWAP1 RETURN JUMPDEST PUSH2 0x24D PUSH1 0x4 DUP1 CALLDATASIZE SUB DUP2 ADD SWAP1 PUSH2 0x248 SWAP2 SWAP1 PUSH2 0xEDB JUMP JUMPDEST PUSH2 0x77E JUMP JUMPDEST PUSH1 0x40 MLOAD PUSH2 0x25A SWAP2 SWAP1 PUSH2 0xF17 JUMP JUMPDEST PUSH1 0x40 MLOAD DUP1 SWAP2 SUB SWAP1 RETURN JUMPDEST PUSH2 0x26B PUSH2 0x7BD JUMP JUMPDEST PUSH1 0x40 MLOAD PUSH2 0x278 SWAP2 SWAP1 PUSH2 0xC94 JUMP JUMPDEST PUSH1 0x40 MLOAD DUP1 SWAP2 SUB SWAP1 RETURN JUMPDEST PUSH2 0x29B PUSH1 0x4 DUP1 CALLDATASIZE SUB DUP2 ADD SWAP1 PUSH2 0x296 SWAP2 SWAP1 PUSH2 0xF32 JUMP JUMPDEST PUSH2 0x7C3 JUMP JUMPDEST STOP JUMPDEST PUSH2 0x2A5 PUSH2 0x87B JUMP JUMPDEST PUSH1 0x40 MLOAD PUSH2 0x2B2 SWAP2 SWAP1 PUSH2 0xF17 JUMP JUMPDEST PUSH1 0x40 MLOAD DUP1 SWAP2 SUB SWAP1 RETURN JUMPDEST PUSH2 0x2C3 PUSH2 0x8A1 JUMP JUMPDEST STOP JUMPDEST PUSH2 0x2DF PUSH1 0x4 DUP1 CALLDATASIZE SUB DUP2 ADD SWAP1 PUSH2 0x2DA SWAP2 SWAP1 PUSH2 0xE6C JUMP JUMPDEST PUSH2 0x994 JUMP JUMPDEST STOP JUMPDEST PUSH2 0x2FB PUSH1 0x4 DUP1 CALLDATASIZE SUB DUP2 ADD SWAP1 PUSH2 0x2F6 SWAP2 SWAP1 PUSH2 0xFA1 JUMP JUMPDEST PUSH2 0x999 JUMP JUMPDEST STOP JUMPDEST PUSH1 0x6 PUSH1 0x20 MSTORE DUP1 PUSH1 0x0 MSTORE PUSH1 0x40 PUSH1 0x0 KECCAK256 PUSH1 0x0 SWAP2 POP SWAP1 POP DUP1 SLOAD PUSH2 0x31C SWAP1 PUSH2 0x1019 JUMP JUMPDEST DUP1 PUSH1 0x1F ADD PUSH1 0x20 DUP1 SWAP2 DIV MUL PUSH1 0x20 ADD PUSH1 0x40 MLOAD SWAP1 DUP2 ADD PUSH1 0x40 MSTORE DUP1 SWAP3 SWAP2 SWAP1 DUP2 DUP2 MSTORE PUSH1 0x20 ADD DUP3 DUP1 SLOAD PUSH2 0x348 SWAP1 PUSH2 0x1019 JUMP JUMPDEST DUP1 ISZERO PUSH2 0x395 JUMPI DUP1 PUSH1 0x1F LT PUSH2 0x36A JUMPI PUSH2 0x100 DUP1 DUP4 SLOAD DIV MUL DUP4 MSTORE SWAP2 PUSH1 0x20 ADD SWAP2 PUSH2 0x395 JUMP JUMPDEST DUP3 ADD SWAP2 SWAP1 PUSH1 0x0 MSTORE PUSH1 0x20 PUSH1 0x0 KECCAK256 SWAP1 JUMPDEST DUP2 SLOAD DUP2 MSTORE SWAP1 PUSH1 0x1 ADD SWAP1 PUSH1 0x20 ADD DUP1 DUP4 GT PUSH2 0x378 JUMPI DUP3 SWAP1 SUB PUSH1 0x1F AND DUP3 ADD SWAP2 JUMPDEST POP POP POP POP POP DUP2 JUMP JUMPDEST PUSH1 0x8 SLOAD DUP2 JUMP JUMPDEST PUSH1 0x3 SLOAD DUP2 JUMP JUMPDEST DUP1 PUSH1 0x5 PUSH1 0x0 DUP5 PUSH20 0xFFFFFFFFFFFFFFFFFFFFFFFFFFFFFFFFFFFFFFFF AND PUSH20 0xFFFFFFFFFFFFFFFFFFFFFFFFFFFFFFFFFFFFFFFF AND DUP2 MSTORE PUSH1 0x20 ADD SWAP1 DUP2 MSTORE PUSH1 0x20 ADD PUSH1 0x0 KECCAK256 SWAP1 DUP1 MLOAD SWAP1 PUSH1 0x20 ADD SWAP1 PUSH2 0x3FC SWAP3 SWAP2 SWAP1 PUSH2 0xA7E JUMP JUMPDEST POP POP POP JUMP JUMPDEST DUP3 PUSH1 0x7 PUSH1 0x0 PUSH2 0x100 EXP DUP2 SLOAD DUP2 PUSH20 0xFFFFFFFFFFFFFFFFFFFFFFFFFFFFFFFFFFFFFFFF MUL NOT AND SWAP1 DUP4 PUSH20 0xFFFFFFFFFFFFFFFFFFFFFFFFFFFFFFFFFFFFFFFF AND MUL OR SWAP1 SSTORE POP DUP2 PUSH1 0x8 DUP2 SWAP1 SSTORE POP DUP1 PUSH1 0x9 SWAP1 DUP1 MLOAD SWAP1 PUSH1 0x20 ADD SWAP1 PUSH2 0x45F SWAP3 SWAP2 SWAP1 PUSH2 0xA7E JUMP JUMPDEST POP POP POP POP JUMP JUMPDEST PUSH1 0x60 PUSH1 0x0 DUP1 SLOAD SWAP1 PUSH2 0x100 EXP SWAP1 DIV PUSH20 0xFFFFFFFFFFFFFFFFFFFFFFFFFFFFFFFFFFFFFFFF AND PUSH20 0xFFFFFFFFFFFFFFFFFFFFFFFFFFFFFFFFFFFFFFFF AND CALLER PUSH20 0xFFFFFFFFFFFFFFFFFFFFFFFFFFFFFFFFFFFFFFFF AND SUB PUSH2 0x4F5 JUMPI PUSH1 0x40 MLOAD PUSH32 0x8C379A000000000000000000000000000000000000000000000000000000000 DUP2 MSTORE PUSH1 0x4 ADD PUSH2 0x4EC SWAP1 PUSH2 0x10BC JUMP JUMPDEST PUSH1 0x40 MLOAD DUP1 SWAP2 SUB SWAP1 REVERT JUMPDEST PUSH1 0x5 PUSH1 0x0 CALLER PUSH20 0xFFFFFFFFFFFFFFFFFFFFFFFFFFFFFFFFFFFFFFFF AND PUSH20 0xFFFFFFFFFFFFFFFFFFFFFFFFFFFFFFFFFFFFFFFF AND DUP2 MSTORE PUSH1 0x20 ADD SWAP1 DUP2 MSTORE PUSH1 0x20 ADD PUSH1 0x0 KECCAK256 DUP1 SLOAD PUSH2 0x53F SWAP1 PUSH2 0x1019 JUMP JUMPDEST DUP1 PUSH1 0x1F ADD PUSH1 0x20 DUP1 SWAP2 DIV MUL PUSH1 0x20 ADD PUSH1 0x40 MLOAD SWAP1 DUP2 ADD PUSH1 0x40 MSTORE DUP1 SWAP3 SWAP2 SWAP1 DUP2 DUP2 MSTORE PUSH1 0x20 ADD DUP3 DUP1 SLOAD PUSH2 0x56B SWAP1 PUSH2 0x1019 JUMP JUMPDEST DUP1 ISZERO PUSH2 0x5B8 JUMPI DUP1 PUSH1 0x1F LT PUSH2 0x58D JUMPI PUSH2 0x100 DUP1 DUP4 SLOAD DIV MUL DUP4 MSTORE SWAP2 PUSH1 0x20 ADD SWAP2 PUSH2 0x5B8 JUMP JUMPDEST DUP3 ADD SWAP2 SWAP1 PUSH1 0x0 MSTORE PUSH1 0x20 PUSH1 0x0 KECCAK256 SWAP1 JUMPDEST DUP2 SLOAD DUP2 MSTORE SWAP1 PUSH1 0x1 ADD SWAP1 PUSH1 0x20 ADD DUP1 DUP4 GT PUSH2 0x59B JUMPI DUP3 SWAP1 SUB PUSH1 0x1F AND DUP3 ADD SWAP2 JUMPDEST POP POP POP POP POP SWAP1 POP SWAP1 JUMP JUMPDEST PUSH1 0x2 DUP1 SLOAD PUSH2 0x5CF SWAP1 PUSH2 0x1019 JUMP JUMPDEST DUP1 PUSH1 0x1F ADD PUSH1 0x20 DUP1 SWAP2 DIV MUL PUSH1 0x20 ADD PUSH1 0x40 MLOAD SWAP1 DUP2 ADD PUSH1 0x40 MSTORE DUP1 SWAP3 SWAP2 SWAP1 DUP2 DUP2 MSTORE PUSH1 0x20 ADD DUP3 DUP1 SLOAD PUSH2 0x5FB SWAP1 PUSH2 0x1019 JUMP JUMPDEST DUP1 ISZERO PUSH2 0x648 JUMPI DUP1 PUSH1 0x1F LT PUSH2 0x61D JUMPI PUSH2 0x100 DUP1 DUP4 SLOAD DIV MUL DUP4 MSTORE SWAP2 PUSH1 0x20 ADD SWAP2 PUSH2 0x648 JUMP JUMPDEST DUP3 ADD SWAP2 SWAP1 PUSH1 0x0 MSTORE PUSH1 0x20 PUSH1 0x0 KECCAK256 SWAP1 JUMPDEST DUP2 SLOAD DUP2 MSTORE SWAP1 PUSH1 0x1 ADD SWAP1 PUSH1 0x20 ADD DUP1 DUP4 GT PUSH2 0x62B JUMPI DUP3 SWAP1 SUB PUSH1 0x1F AND DUP3 ADD SWAP2 JUMPDEST POP POP POP POP POP DUP2 JUMP JUMPDEST PUSH1 0x5 PUSH1 0x20 MSTORE DUP1 PUSH1 0x0 MSTORE PUSH1 0x40 PUSH1 0x0 KECCAK256 PUSH1 0x0 SWAP2 POP SWAP1 POP DUP1 SLOAD PUSH2 0x66F SWAP1 PUSH2 0x1019 JUMP JUMPDEST DUP1 PUSH1 0x1F ADD PUSH1 0x20 DUP1 SWAP2 DIV MUL PUSH1 0x20 ADD PUSH1 0x40 MLOAD SWAP1 DUP2 ADD PUSH1 0x40 MSTORE DUP1 SWAP3 SWAP2 SWAP1 DUP2 DUP2 MSTORE PUSH1 0x20 ADD DUP3 DUP1 SLOAD PUSH2 0x69B SWAP1 PUSH2 0x1019 JUMP JUMPDEST DUP1 ISZERO PUSH2 0x6E8 JUMPI DUP1 PUSH1 0x1F LT PUSH2 0x6BD JUMPI PUSH2 0x100 DUP1 DUP4 SLOAD DIV MUL DUP4 MSTORE SWAP2 PUSH1 0x20 ADD SWAP2 PUSH2 0x6E8 JUMP JUMPDEST DUP3 ADD SWAP2 SWAP1 PUSH1 0x0 MSTORE PUSH1 0x20 PUSH1 0x0 KECCAK256 SWAP1 JUMPDEST DUP2 SLOAD DUP2 MSTORE SWAP1 PUSH1 0x1 ADD SWAP1 PUSH1 0x20 ADD DUP1 DUP4 GT PUSH2 0x6CB JUMPI DUP3 SWAP1 SUB PUSH1 0x1F AND DUP3 ADD SWAP2 JUMPDEST POP POP POP POP POP DUP2 JUMP JUMPDEST PUSH1 0x9 DUP1 SLOAD PUSH2 0x6FD SWAP1 PUSH2 0x1019 JUMP JUMPDEST DUP1 PUSH1 0x1F ADD PUSH1 0x20 DUP1 SWAP2 DIV MUL PUSH1 0x20 ADD PUSH1 0x40 MLOAD SWAP1 DUP2 ADD PUSH1 0x40 MSTORE DUP1 SWAP3 SWAP2 SWAP1 DUP2 DUP2 MSTORE PUSH1 0x20 ADD DUP3 DUP1 SLOAD PUSH2 0x729 SWAP1 PUSH2 0x1019 JUMP JUMPDEST DUP1 ISZERO PUSH2 0x776 JUMPI DUP1 PUSH1 0x1F LT PUSH2 0x74B JUMPI PUSH2 0x100 DUP1 DUP4 SLOAD DIV MUL DUP4 MSTORE SWAP2 PUSH1 0x20 ADD SWAP2 PUSH2 0x776 JUMP JUMPDEST DUP3 ADD SWAP2 SWAP1 PUSH1 0x0 MSTORE PUSH1 0x20 PUSH1 0x0 KECCAK256 SWAP1 JUMPDEST DUP2 SLOAD DUP2 MSTORE SWAP1 PUSH1 0x1 ADD SWAP1 PUSH1 0x20 ADD DUP1 DUP4 GT PUSH2 0x759 JUMPI DUP3 SWAP1 SUB PUSH1 0x1F AND DUP3 ADD SWAP2 JUMPDEST POP POP POP POP POP DUP2 JUMP JUMPDEST PUSH1 0x1 DUP2 DUP2 SLOAD DUP2 LT PUSH2 0x78E JUMPI PUSH1 0x0 DUP1 REVERT JUMPDEST SWAP1 PUSH1 0x0 MSTORE PUSH1 0x20 PUSH1 0x0 KECCAK256 ADD PUSH1 0x0 SWAP2 POP SLOAD SWAP1 PUSH2 0x100 EXP SWAP1 DIV PUSH20 0xFFFFFFFFFFFFFFFFFFFFFFFFFFFFFFFFFFFFFFFF AND DUP2 JUMP JUMPDEST PUSH1 0x4 SLOAD DUP2 JUMP JUMPDEST PUSH1 0x0 DUP1 SLOAD SWAP1 PUSH2 0x100 EXP SWAP1 DIV PUSH20 0xFFFFFFFFFFFFFFFFFFFFFFFFFFFFFFFFFFFFFFFF AND PUSH20 0xFFFFFFFFFFFFFFFFFFFFFFFFFFFFFFFFFFFFFFFF AND CALLER PUSH20 0xFFFFFFFFFFFFFFFFFFFFFFFFFFFFFFFFFFFFFFFF AND EQ PUSH2 0x851 JUMPI PUSH1 0x40 MLOAD PUSH32 0x8C379A000000000000000000000000000000000000000000000000000000000 DUP2 MSTORE PUSH1 0x4 ADD PUSH2 0x848 SWAP1 PUSH2 0x114E JUMP JUMPDEST PUSH1 0x40 MLOAD DUP1 SWAP2 SUB SWAP1 REVERT JUMPDEST DUP3 PUSH1 0x2 SWAP1 DUP1 MLOAD SWAP1 PUSH1 0x20 ADD SWAP1 PUSH2 0x867 SWAP3 SWAP2 SWAP1 PUSH2 0xA7E JUMP JUMPDEST POP DUP2 PUSH1 0x3 DUP2 SWAP1 SSTORE POP DUP1 PUSH1 0x4 DUP2 SWAP1 SSTORE POP POP POP POP JUMP JUMPDEST PUSH1 0x7 PUSH1 0x0 SWAP1 SLOAD SWAP1 PUSH2 0x100 EXP SWAP1 DIV PUSH20 0xFFFFFFFFFFFFFFFFFFFFFFFFFFFFFFFFFFFFFFFF AND DUP2 JUMP JUMPDEST PUSH1 0x0 DUP1 SLOAD SWAP1 PUSH2 0x100 EXP SWAP1 DIV PUSH20 0xFFFFFFFFFFFFFFFFFFFFFFFFFFFFFFFFFFFFFFFF AND PUSH20 0xFFFFFFFFFFFFFFFFFFFFFFFFFFFFFFFFFFFFFFFF AND CALLER PUSH20 0xFFFFFFFFFFFFFFFFFFFFFFFFFFFFFFFFFFFFFFFF AND SUB PUSH2 0x92F JUMPI PUSH1 0x40 MLOAD PUSH32 0x8C379A000000000000000000000000000000000000000000000000000000000 DUP2 MSTORE PUSH1 0x4 ADD PUSH2 0x926 SWAP1 PUSH2 0x10BC JUMP JUMPDEST PUSH1 0x40 MLOAD DUP1 SWAP2 SUB SWAP1 REVERT JUMPDEST PUSH1 0x1 CALLER SWAP1 DUP1 PUSH1 0x1 DUP2 SLOAD ADD DUP1 DUP3 SSTORE DUP1 SWAP2 POP POP PUSH1 0x1 SWAP1 SUB SWAP1 PUSH1 0x0 MSTORE PUSH1 0x20 PUSH1 0x0 KECCAK256 ADD PUSH1 0x0 SWAP1 SWAP2 SWAP1 SWAP2 SWAP1 SWAP2 PUSH2 0x100 EXP DUP2 SLOAD DUP2 PUSH20 0xFFFFFFFFFFFFFFFFFFFFFFFFFFFFFFFFFFFFFFFF MUL NOT AND SWAP1 DUP4 PUSH20 0xFFFFFFFFFFFFFFFFFFFFFFFFFFFFFFFFFFFFFFFF AND MUL OR SWAP1 SSTORE POP JUMP JUMPDEST POP POP POP JUMP JUMPDEST PUSH1 0x0 DUP1 SLOAD SWAP1 PUSH2 0x100 EXP SWAP1 DIV PUSH20 0xFFFFFFFFFFFFFFFFFFFFFFFFFFFFFFFFFFFFFFFF AND PUSH20 0xFFFFFFFFFFFFFFFFFFFFFFFFFFFFFFFFFFFFFFFF AND CALLER PUSH20 0xFFFFFFFFFFFFFFFFFFFFFFFFFFFFFFFFFFFFFFFF AND SUB PUSH2 0xA27 JUMPI PUSH1 0x40 MLOAD PUSH32 0x8C379A000000000000000000000000000000000000000000000000000000000 DUP2 MSTORE PUSH1 0x4 ADD PUSH2 0xA1E SWAP1 PUSH2 0x10BC JUMP JUMPDEST PUSH1 0x40 MLOAD DUP1 SWAP2 SUB SWAP1 REVERT JUMPDEST DUP1 PUSH1 0x6 PUSH1 0x0 CALLER PUSH20 0xFFFFFFFFFFFFFFFFFFFFFFFFFFFFFFFFFFFFFFFF AND PUSH20 0xFFFFFFFFFFFFFFFFFFFFFFFFFFFFFFFFFFFFFFFF AND DUP2 MSTORE PUSH1 0x20 ADD SWAP1 DUP2 MSTORE PUSH1 0x20 ADD PUSH1 0x0 KECCAK256 SWAP1 DUP1 MLOAD SWAP1 PUSH1 0x20 ADD SWAP1 PUSH2 0xA7A SWAP3 SWAP2 SWAP1 PUSH2 0xA7E JUMP JUMPDEST POP POP JUMP JUMPDEST DUP3 DUP1 SLOAD PUSH2 0xA8A SWAP1 PUSH2 0x1019 JUMP JUMPDEST SWAP1 PUSH1 0x0 MSTORE PUSH1 0x20 PUSH1 0x0 KECCAK256 SWAP1 PUSH1 0x1F ADD PUSH1 0x20 SWAP1 DIV DUP2 ADD SWAP3 DUP3 PUSH2 0xAAC JUMPI PUSH1 0x0 DUP6 SSTORE PUSH2 0xAF3 JUMP JUMPDEST DUP3 PUSH1 0x1F LT PUSH2 0xAC5 JUMPI DUP1 MLOAD PUSH1 0xFF NOT AND DUP4 DUP1 ADD OR DUP6 SSTORE PUSH2 0xAF3 JUMP JUMPDEST DUP3 DUP1 ADD PUSH1 0x1 ADD DUP6 SSTORE DUP3 ISZERO PUSH2 0xAF3 JUMPI SWAP2 DUP3 ADD JUMPDEST DUP3 DUP2 GT ISZERO PUSH2 0xAF2 JUMPI DUP3 MLOAD DUP3 SSTORE SWAP2 PUSH1 0x20 ADD SWAP2 SWAP1 PUSH1 0x1 ADD SWAP1 PUSH2 0xAD7 JUMP JUMPDEST JUMPDEST POP SWAP1 POP PUSH2 0xB00 SWAP2 SWAP1 PUSH2 0xB04 JUMP JUMPDEST POP SWAP1 JUMP JUMPDEST JUMPDEST DUP1 DUP3 GT ISZERO PUSH2 0xB1D JUMPI PUSH1 0x0 DUP2 PUSH1 0x0 SWAP1 SSTORE POP PUSH1 0x1 ADD PUSH2 0xB05 JUMP JUMPDEST POP SWAP1 JUMP JUMPDEST PUSH1 0x0 PUSH1 0x40 MLOAD SWAP1 POP SWAP1 JUMP JUMPDEST PUSH1 0x0 DUP1 REVERT JUMPDEST PUSH1 0x0 DUP1 REVERT JUMPDEST PUSH1 0x0 PUSH20 0xFFFFFFFFFFFFFFFFFFFFFFFFFFFFFFFFFFFFFFFF DUP3 AND SWAP1 POP SWAP2 SWAP1 POP JUMP JUMPDEST PUSH1 0x0 PUSH2 0xB60 DUP3 PUSH2 0xB35 JUMP JUMPDEST SWAP1 POP SWAP2 SWAP1 POP JUMP JUMPDEST PUSH2 0xB70 DUP2 PUSH2 0xB55 JUMP JUMPDEST DUP2 EQ PUSH2 0xB7B JUMPI PUSH1 0x0 DUP1 REVERT JUMPDEST POP JUMP JUMPDEST PUSH1 0x0 DUP2 CALLDATALOAD SWAP1 POP PUSH2 0xB8D DUP2 PUSH2 0xB67 JUMP JUMPDEST SWAP3 SWAP2 POP POP JUMP JUMPDEST PUSH1 0x0 PUSH1 0x20 DUP3 DUP5 SUB SLT ISZERO PUSH2 0xBA9 JUMPI PUSH2 0xBA8 PUSH2 0xB2B JUMP JUMPDEST JUMPDEST PUSH1 0x0 PUSH2 0xBB7 DUP5 DUP3 DUP6 ADD PUSH2 0xB7E JUMP JUMPDEST SWAP2 POP POP SWAP3 SWAP2 POP POP JUMP JUMPDEST PUSH1 0x0 DUP2 MLOAD SWAP1 POP SWAP2 SWAP1 POP JUMP JUMPDEST PUSH1 0x0 DUP3 DUP3 MSTORE PUSH1 0x20 DUP3 ADD SWAP1 POP SWAP3 SWAP2 POP POP JUMP JUMPDEST PUSH1 0x0 JUMPDEST DUP4 DUP2 LT ISZERO PUSH2 0xBFA JUMPI DUP1 DUP3 ADD MLOAD DUP2 DUP5 ADD MSTORE PUSH1 0x20 DUP2 ADD SWAP1 POP PUSH2 0xBDF JUMP JUMPDEST DUP4 DUP2 GT ISZERO PUSH2 0xC09 JUMPI PUSH1 0x0 DUP5 DUP5 ADD MSTORE JUMPDEST POP POP POP POP JUMP JUMPDEST PUSH1 0x0 PUSH1 0x1F NOT PUSH1 0x1F DUP4 ADD AND SWAP1 POP SWAP2 SWAP1 POP JUMP JUMPDEST PUSH1 0x0 PUSH2 0xC2B DUP3 PUSH2 0xBC0 JUMP JUMPDEST PUSH2 0xC35 DUP2 DUP6 PUSH2 0xBCB JUMP JUMPDEST SWAP4 POP PUSH2 0xC45 DUP2 DUP6 PUSH1 0x20 DUP7 ADD PUSH2 0xBDC JUMP JUMPDEST PUSH2 0xC4E DUP2 PUSH2 0xC0F JUMP JUMPDEST DUP5 ADD SWAP2 POP POP SWAP3 SWAP2 POP POP JUMP JUMPDEST PUSH1 0x0 PUSH1 0x20 DUP3 ADD SWAP1 POP DUP2 DUP2 SUB PUSH1 0x0 DUP4 ADD MSTORE PUSH2 0xC73 DUP2 DUP5 PUSH2 0xC20 JUMP JUMPDEST SWAP1 POP SWAP3 SWAP2 POP POP JUMP JUMPDEST PUSH1 0x0 DUP2 SWAP1 POP SWAP2 SWAP1 POP JUMP JUMPDEST PUSH2 0xC8E DUP2 PUSH2 0xC7B JUMP JUMPDEST DUP3 MSTORE POP POP JUMP JUMPDEST PUSH1 0x0 PUSH1 0x20 DUP3 ADD SWAP1 POP PUSH2 0xCA9 PUSH1 0x0 DUP4 ADD DUP5 PUSH2 0xC85 JUMP JUMPDEST SWAP3 SWAP2 POP POP JUMP JUMPDEST PUSH1 0x0 DUP1 REVERT JUMPDEST PUSH1 0x0 DUP1 REVERT JUMPDEST PUSH32 0x4E487B7100000000000000000000000000000000000000000000000000000000 PUSH1 0x0 MSTORE PUSH1 0x41 PUSH1 0x4 MSTORE PUSH1 0x24 PUSH1 0x0 REVERT JUMPDEST PUSH2 0xCF1 DUP3 PUSH2 0xC0F JUMP JUMPDEST DUP2 ADD DUP2 DUP2 LT PUSH8 0xFFFFFFFFFFFFFFFF DUP3 GT OR ISZERO PUSH2 0xD10 JUMPI PUSH2 0xD0F PUSH2 0xCB9 JUMP JUMPDEST JUMPDEST DUP1 PUSH1 0x40 MSTORE POP POP POP JUMP JUMPDEST PUSH1 0x0 PUSH2 0xD23 PUSH2 0xB21 JUMP JUMPDEST SWAP1 POP PUSH2 0xD2F DUP3 DUP3 PUSH2 0xCE8 JUMP JUMPDEST SWAP2 SWAP1 POP JUMP JUMPDEST PUSH1 0x0 PUSH8 0xFFFFFFFFFFFFFFFF DUP3 GT ISZERO PUSH2 0xD4F JUMPI PUSH2 0xD4E PUSH2 0xCB9 JUMP JUMPDEST JUMPDEST PUSH2 0xD58 DUP3 PUSH2 0xC0F JUMP JUMPDEST SWAP1 POP PUSH1 0x20 DUP2 ADD SWAP1 POP SWAP2 SWAP1 POP JUMP JUMPDEST DUP3 DUP2 DUP4 CALLDATACOPY PUSH1 0x0 DUP4 DUP4 ADD MSTORE POP POP POP JUMP JUMPDEST PUSH1 0x0 PUSH2 0xD87 PUSH2 0xD82 DUP5 PUSH2 0xD34 JUMP JUMPDEST PUSH2 0xD19 JUMP JUMPDEST SWAP1 POP DUP3 DUP2 MSTORE PUSH1 0x20 DUP2 ADD DUP5 DUP5 DUP5 ADD GT ISZERO PUSH2 0xDA3 JUMPI PUSH2 0xDA2 PUSH2 0xCB4 JUMP JUMPDEST JUMPDEST PUSH2 0xDAE DUP5 DUP3 DUP6 PUSH2 0xD65 JUMP JUMPDEST POP SWAP4 SWAP3 POP POP POP JUMP JUMPDEST PUSH1 0x0 DUP3 PUSH1 0x1F DUP4 ADD SLT PUSH2 0xDCB JUMPI PUSH2 0xDCA PUSH2 0xCAF JUMP JUMPDEST JUMPDEST DUP2 CALLDATALOAD PUSH2 0xDDB DUP5 DUP3 PUSH1 0x20 DUP7 ADD PUSH2 0xD74 JUMP JUMPDEST SWAP2 POP POP SWAP3 SWAP2 POP POP JUMP JUMPDEST PUSH1 0x0 DUP1 PUSH1 0x40 DUP4 DUP6 SUB SLT ISZERO PUSH2 0xDFB JUMPI PUSH2 0xDFA PUSH2 0xB2B JUMP JUMPDEST JUMPDEST PUSH1 0x0 PUSH2 0xE09 DUP6 DUP3 DUP7 ADD PUSH2 0xB7E JUMP JUMPDEST SWAP3 POP POP PUSH1 0x20 DUP4 ADD CALLDATALOAD PUSH8 0xFFFFFFFFFFFFFFFF DUP2 GT ISZERO PUSH2 0xE2A JUMPI PUSH2 0xE29 PUSH2 0xB30 JUMP JUMPDEST JUMPDEST PUSH2 0xE36 DUP6 DUP3 DUP7 ADD PUSH2 0xDB6 JUMP JUMPDEST SWAP2 POP POP SWAP3 POP SWAP3 SWAP1 POP JUMP JUMPDEST PUSH2 0xE49 DUP2 PUSH2 0xC7B JUMP JUMPDEST DUP2 EQ PUSH2 0xE54 JUMPI PUSH1 0x0 DUP1 REVERT JUMPDEST POP JUMP JUMPDEST PUSH1 0x0 DUP2 CALLDATALOAD SWAP1 POP PUSH2 0xE66 DUP2 PUSH2 0xE40 JUMP JUMPDEST SWAP3 SWAP2 POP POP JUMP JUMPDEST PUSH1 0x0 DUP1 PUSH1 0x0 PUSH1 0x60 DUP5 DUP7 SUB SLT ISZERO PUSH2 0xE85 JUMPI PUSH2 0xE84 PUSH2 0xB2B JUMP JUMPDEST JUMPDEST PUSH1 0x0 PUSH2 0xE93 DUP7 DUP3 DUP8 ADD PUSH2 0xB7E JUMP JUMPDEST SWAP4 POP POP PUSH1 0x20 PUSH2 0xEA4 DUP7 DUP3 DUP8 ADD PUSH2 0xE57 JUMP JUMPDEST SWAP3 POP POP PUSH1 0x40 DUP5 ADD CALLDATALOAD PUSH8 0xFFFFFFFFFFFFFFFF DUP2 GT ISZERO PUSH2 0xEC5 JUMPI PUSH2 0xEC4 PUSH2 0xB30 JUMP JUMPDEST JUMPDEST PUSH2 0xED1 DUP7 DUP3 DUP8 ADD PUSH2 0xDB6 JUMP JUMPDEST SWAP2 POP POP SWAP3 POP SWAP3 POP SWAP3 JUMP JUMPDEST PUSH1 0x0 PUSH1 0x20 DUP3 DUP5 SUB SLT ISZERO PUSH2 0xEF1 JUMPI PUSH2 0xEF0 PUSH2 0xB2B JUMP JUMPDEST JUMPDEST PUSH1 0x0 PUSH2 0xEFF DUP5 DUP3 DUP6 ADD PUSH2 0xE57 JUMP JUMPDEST SWAP2 POP POP SWAP3 SWAP2 POP POP JUMP JUMPDEST PUSH2 0xF11 DUP2 PUSH2 0xB55 JUMP JUMPDEST DUP3 MSTORE POP POP JUMP JUMPDEST PUSH1 0x0 PUSH1 0x20 DUP3 ADD SWAP1 POP PUSH2 0xF2C PUSH1 0x0 DUP4 ADD DUP5 PUSH2 0xF08 JUMP JUMPDEST SWAP3 SWAP2 POP POP JUMP JUMPDEST PUSH1 0x0 DUP1 PUSH1 0x0 PUSH1 0x60 DUP5 DUP7 SUB SLT ISZERO PUSH2 0xF4B JUMPI PUSH2 0xF4A PUSH2 0xB2B JUMP JUMPDEST JUMPDEST PUSH1 0x0 DUP5 ADD CALLDATALOAD PUSH8 0xFFFFFFFFFFFFFFFF DUP2 GT ISZERO PUSH2 0xF69 JUMPI PUSH2 0xF68 PUSH2 0xB30 JUMP JUMPDEST JUMPDEST PUSH2 0xF75 DUP7 DUP3 DUP8 ADD PUSH2 0xDB6 JUMP JUMPDEST SWAP4 POP POP PUSH1 0x20 PUSH2 0xF86 DUP7 DUP3 DUP8 ADD PUSH2 0xE57 JUMP JUMPDEST SWAP3 POP POP PUSH1 0x40 PUSH2 0xF97 DUP7 DUP3 DUP8 ADD PUSH2 0xE57 JUMP JUMPDEST SWAP2 POP POP SWAP3 POP SWAP3 POP SWAP3 JUMP JUMPDEST PUSH1 0x0 PUSH1 0x20 DUP3 DUP5 SUB SLT ISZERO PUSH2 0xFB7 JUMPI PUSH2 0xFB6 PUSH2 0xB2B JUMP JUMPDEST JUMPDEST PUSH1 0x0 DUP3 ADD CALLDATALOAD PUSH8 0xFFFFFFFFFFFFFFFF DUP2 GT ISZERO PUSH2 0xFD5 JUMPI PUSH2 0xFD4 PUSH2 0xB30 JUMP JUMPDEST JUMPDEST PUSH2 0xFE1 DUP5 DUP3 DUP6 ADD PUSH2 0xDB6 JUMP JUMPDEST SWAP2 POP POP SWAP3 SWAP2 POP POP JUMP JUMPDEST PUSH32 0x4E487B7100000000000000000000000000000000000000000000000000000000 PUSH1 0x0 MSTORE PUSH1 0x22 PUSH1 0x4 MSTORE PUSH1 0x24 PUSH1 0x0 REVERT JUMPDEST PUSH1 0x0 PUSH1 0x2 DUP3 DIV SWAP1 POP PUSH1 0x1 DUP3 AND DUP1 PUSH2 0x1031 JUMPI PUSH1 0x7F DUP3 AND SWAP2 POP JUMPDEST PUSH1 0x20 DUP3 LT DUP2 SUB PUSH2 0x1044 JUMPI PUSH2 0x1043 PUSH2 0xFEA JUMP JUMPDEST JUMPDEST POP SWAP2 SWAP1 POP JUMP JUMPDEST PUSH32 0x41756374696F6E656572206973206E6F7420616C6C6F77656420746F20726567 PUSH1 0x0 DUP3 ADD MSTORE PUSH32 0x6973746572206173206120626964646572000000000000000000000000000000 PUSH1 0x20 DUP3 ADD MSTORE POP JUMP JUMPDEST PUSH1 0x0 PUSH2 0x10A6 PUSH1 0x31 DUP4 PUSH2 0xBCB JUMP JUMPDEST SWAP2 POP PUSH2 0x10B1 DUP3 PUSH2 0x104A JUMP JUMPDEST PUSH1 0x40 DUP3 ADD SWAP1 POP SWAP2 SWAP1 POP JUMP JUMPDEST PUSH1 0x0 PUSH1 0x20 DUP3 ADD SWAP1 POP DUP2 DUP2 SUB PUSH1 0x0 DUP4 ADD MSTORE PUSH2 0x10D5 DUP2 PUSH2 0x1099 JUMP JUMPDEST SWAP1 POP SWAP2 SWAP1 POP JUMP JUMPDEST PUSH32 0x4F6E6C792061756374696F6E6565722063616E2063616C6C2074686973206675 PUSH1 0x0 DUP3 ADD MSTORE PUSH32 0x6E6374696F6E2E00000000000000000000000000000000000000000000000000 PUSH1 0x20 DUP3 ADD MSTORE POP JUMP JUMPDEST PUSH1 0x0 PUSH2 0x1138 PUSH1 0x27 DUP4 PUSH2 0xBCB JUMP JUMPDEST SWAP2 POP PUSH2 0x1143 DUP3 PUSH2 0x10DC JUMP JUMPDEST PUSH1 0x40 DUP3 ADD SWAP1 POP SWAP2 SWAP1 POP JUMP JUMPDEST PUSH1 0x0 PUSH1 0x20 DUP3 ADD SWAP1 POP DUP2 DUP2 SUB PUSH1 0x0 DUP4 ADD MSTORE PUSH2 0x1167 DUP2 PUSH2 0x112B JUMP JUMPDEST SWAP1 POP SWAP2 SWAP1 POP JUMP INVALID LOG2 PUSH5 0x6970667358 0x22 SLT KECCAK256 COINBASE PUSH16 0x3417DBEC1FD1EEBC20A2D7DA1B8ADECC PUSH14 0x63563BEA6C577755F3281A995264 PUSH20 0x6F6C634300080E00330000000000000000000000 "
				},
				"gasEstimates": {
					"creation": {
						"codeDepositCost": "903200",
						"executionCost": "25208",
						"totalCost": "928408"
					},
					"external": {
						"assetDescription()": "infinite",
						"bidders(uint256)": "5001",
						"dispute(address,uint256,string)": "infinite",
						"encryptedBids(address)": "infinite",
						"getMyPublicKey()": "infinite",
						"minBidPrice()": "2497",
						"minNumberOfBidders()": "2496",
						"publicKeys(address)": "infinite",
						"registerAuctionInfo(string,uint256,uint256)": "infinite",
						"registerBidder()": "50933",
						"submitEncryptedBid(string)": "infinite",
						"submitPublicKeys(address,string)": "infinite",
						"submitWinner(address,uint256,string)": "infinite",
						"winnerAddress()": "2536",
						"winnerBid()": "2475",
						"winnerPrivateKey()": "infinite"
					}
				},
				"methodIdentifiers": {
					"assetDescription()": "938626c2",
					"bidders(uint256)": "cff29dfd",
					"dispute(address,uint256,string)": "fb77840d",
					"encryptedBids(address)": "0f3f02b2",
					"getMyPublicKey()": "86b8c34c",
					"minBidPrice()": "34eb86a2",
					"minNumberOfBidders()": "daa0218f",
					"publicKeys(address)": "a3d6f9a9",
					"registerAuctionInfo(string,uint256,uint256)": "e7d2a997",
					"registerBidder()": "f356733c",
					"submitEncryptedBid(string)": "ff567d8d",
					"submitPublicKeys(address,string)": "7d441a6f",
					"submitWinner(address,uint256,string)": "8226ed38",
					"winnerAddress()": "ed7a4e0b",
					"winnerBid()": "11631d06",
					"winnerPrivateKey()": "b0772795"
				}
			},
			"storageLayout": {
				"storage": [
					{
						"astId": 3,
						"contract": "Contracts/AKEB.sol:AKEB",
						"label": "auctioneer",
						"offset": 0,
						"slot": "0",
						"type": "t_address"
					},
					{
						"astId": 6,
						"contract": "Contracts/AKEB.sol:AKEB",
						"label": "bidders",
						"offset": 0,
						"slot": "1",
						"type": "t_array(t_address)dyn_storage"
					},
					{
						"astId": 8,
						"contract": "Contracts/AKEB.sol:AKEB",
						"label": "assetDescription",
						"offset": 0,
						"slot": "2",
						"type": "t_string_storage"
					},
					{
						"astId": 10,
						"contract": "Contracts/AKEB.sol:AKEB",
						"label": "minBidPrice",
						"offset": 0,
						"slot": "3",
						"type": "t_uint256"
					},
					{
						"astId": 12,
						"contract": "Contracts/AKEB.sol:AKEB",
						"label": "minNumberOfBidders",
						"offset": 0,
						"slot": "4",
						"type": "t_uint256"
					},
					{
						"astId": 16,
						"contract": "Contracts/AKEB.sol:AKEB",
						"label": "publicKeys",
						"offset": 0,
						"slot": "5",
						"type": "t_mapping(t_address,t_string_storage)"
					},
					{
						"astId": 20,
						"contract": "Contracts/AKEB.sol:AKEB",
						"label": "encryptedBids",
						"offset": 0,
						"slot": "6",
						"type": "t_mapping(t_address,t_string_storage)"
					},
					{
						"astId": 22,
						"contract": "Contracts/AKEB.sol:AKEB",
						"label": "winnerAddress",
						"offset": 0,
						"slot": "7",
						"type": "t_address"
					},
					{
						"astId": 24,
						"contract": "Contracts/AKEB.sol:AKEB",
						"label": "winnerBid",
						"offset": 0,
						"slot": "8",
						"type": "t_uint256"
					},
					{
						"astId": 26,
						"contract": "Contracts/AKEB.sol:AKEB",
						"label": "winnerPrivateKey",
						"offset": 0,
						"slot": "9",
						"type": "t_string_storage"
					}
				],
				"types": {
					"t_address": {
						"encoding": "inplace",
						"label": "address",
						"numberOfBytes": "20"
					},
					"t_array(t_address)dyn_storage": {
						"base": "t_address",
						"encoding": "dynamic_array",
						"label": "address[]",
						"numberOfBytes": "32"
					},
					"t_mapping(t_address,t_string_storage)": {
						"encoding": "mapping",
						"key": "t_address",
						"label": "mapping(address => string)",
						"numberOfBytes": "32",
						"value": "t_string_storage"
					},
					"t_string_storage": {
						"encoding": "bytes",
						"label": "string",
						"numberOfBytes": "32"
					},
					"t_uint256": {
						"encoding": "inplace",
						"label": "uint256",
						"numberOfBytes": "32"
					}
				}
			},
			"userdoc": {
				"kind": "user",
				"methods": {},
				"version": 1
			}
		}
	}
}