{
	"Contracts/AKEB.sol": {
		"AKEB": {
			"abi": [
				{
					"inputs": [],
					"name": "assetDescription",
					"outputs": [
						{
							"internalType": "string",
							"name": "",
							"type": "string"
						}
					],
					"stateMutability": "view",
					"type": "function"
				},
				{
					"inputs": [
						{
							"internalType": "uint256",
							"name": "",
							"type": "uint256"
						}
					],
					"name": "bidders",
					"outputs": [
						{
							"internalType": "address",
							"name": "",
							"type": "address"
						}
					],
					"stateMutability": "view",
					"type": "function"
				},
				{
					"inputs": [
						{
							"internalType": "uint256",
							"name": "inputDisputedBid",
							"type": "uint256"
						},
						{
							"internalType": "string",
							"name": "inputDisputedKey",
							"type": "string"
						}
					],
					"name": "dispute",
					"outputs": [],
					"stateMutability": "nonpayable",
					"type": "function"
				},
				{
					"inputs": [
						{
							"internalType": "uint256",
							"name": "",
							"type": "uint256"
						}
					],
					"name": "disputedBidders",
					"outputs": [
						{
							"internalType": "uint256",
							"name": "bid",
							"type": "uint256"
						},
						{
							"internalType": "address",
							"name": "disputeAddress",
							"type": "address"
						},
						{
							"internalType": "string",
							"name": "key",
							"type": "string"
						}
					],
					"stateMutability": "view",
					"type": "function"
				},
				{
					"inputs": [
						{
							"internalType": "address",
							"name": "",
							"type": "address"
						}
					],
					"name": "encodedBids",
					"outputs": [
						{
							"internalType": "string",
							"name": "",
							"type": "string"
						}
					],
					"stateMutability": "view",
					"type": "function"
				},
				{
					"inputs": [
						{
							"internalType": "uint256",
							"name": "index",
							"type": "uint256"
						}
					],
					"name": "getBidderAddress",
					"outputs": [
						{
							"internalType": "address",
							"name": "",
							"type": "address"
						}
					],
					"stateMutability": "view",
					"type": "function"
				},
				{
					"inputs": [
						{
							"internalType": "address",
							"name": "inputAddress",
							"type": "address"
						}
					],
					"name": "getEncodedBid",
					"outputs": [
						{
							"internalType": "string",
							"name": "",
							"type": "string"
						}
					],
					"stateMutability": "view",
					"type": "function"
				},
				{
					"inputs": [],
					"name": "getSampleString",
					"outputs": [
						{
							"internalType": "string",
							"name": "",
							"type": "string"
						}
					],
					"stateMutability": "pure",
					"type": "function"
				},
				{
					"inputs": [],
					"name": "minBidPrice",
					"outputs": [
						{
							"internalType": "uint256",
							"name": "",
							"type": "uint256"
						}
					],
					"stateMutability": "view",
					"type": "function"
				},
				{
					"inputs": [],
					"name": "minNumberOfBidders",
					"outputs": [
						{
							"internalType": "uint256",
							"name": "",
							"type": "uint256"
						}
					],
					"stateMutability": "view",
					"type": "function"
				},
				{
					"inputs": [
						{
							"internalType": "string",
							"name": "assetDescriptionInput",
							"type": "string"
						},
						{
							"internalType": "uint256",
							"name": "minBidPriceInput",
							"type": "uint256"
						},
						{
							"internalType": "uint256",
							"name": "minNumberOfBiddersInput",
							"type": "uint256"
						}
					],
					"name": "registerAuctionInfo",
					"outputs": [],
					"stateMutability": "nonpayable",
					"type": "function"
				},
				{
					"inputs": [],
					"name": "registerBidder",
					"outputs": [],
					"stateMutability": "nonpayable",
					"type": "function"
				},
				{
					"inputs": [
						{
							"internalType": "string",
							"name": "inputEncodedBid",
							"type": "string"
						}
					],
					"name": "submitEncryptedBid",
					"outputs": [],
					"stateMutability": "nonpayable",
					"type": "function"
				},
				{
					"inputs": [
						{
							"internalType": "uint256",
							"name": "inputWinnerBid",
							"type": "uint256"
						},
						{
							"internalType": "string",
							"name": "inputWinnerKey",
							"type": "string"
						}
					],
					"name": "submitWinner",
					"outputs": [],
					"stateMutability": "nonpayable",
					"type": "function"
				},
				{
					"inputs": [],
					"name": "winnerAddress",
					"outputs": [
						{
							"internalType": "address",
							"name": "",
							"type": "address"
						}
					],
					"stateMutability": "view",
					"type": "function"
				},
				{
					"inputs": [],
					"name": "winnerBid",
					"outputs": [
						{
							"internalType": "uint256",
							"name": "",
							"type": "uint256"
						}
					],
					"stateMutability": "view",
					"type": "function"
				},
				{
					"inputs": [],
					"name": "winnerKey",
					"outputs": [
						{
							"internalType": "string",
							"name": "",
							"type": "string"
						}
					],
					"stateMutability": "view",
					"type": "function"
				}
			],
			"devdoc": {
				"kind": "dev",
				"methods": {},
				"version": 1
			},
			"evm": {
				"assembly": "    /* \"Contracts/AKEB.sol\":58:2226  contract AKEB {... */\n  mstore(0x40, 0x80)\n  callvalue\n  dup1\n  iszero\n  tag_1\n  jumpi\n  0x00\n  dup1\n  revert\ntag_1:\n  pop\n  dataSize(sub_0)\n  dup1\n  dataOffset(sub_0)\n  0x00\n  codecopy\n  0x00\n  return\nstop\n\nsub_0: assembly {\n        /* \"Contracts/AKEB.sol\":58:2226  contract AKEB {... */\n      mstore(0x40, 0x80)\n      callvalue\n      dup1\n      iszero\n      tag_1\n      jumpi\n      0x00\n      dup1\n      revert\n    tag_1:\n      pop\n      jumpi(tag_2, lt(calldatasize, 0x04))\n      shr(0xe0, calldataload(0x00))\n      dup1\n      0x8f772f96\n      gt\n      tag_20\n      jumpi\n      dup1\n      0xdaa0218f\n      gt\n      tag_21\n      jumpi\n      dup1\n      0xdaa0218f\n      eq\n      tag_15\n      jumpi\n      dup1\n      0xe7d2a997\n      eq\n      tag_16\n      jumpi\n      dup1\n      0xed7a4e0b\n      eq\n      tag_17\n      jumpi\n      dup1\n      0xf356733c\n      eq\n      tag_18\n      jumpi\n      dup1\n      0xff567d8d\n      eq\n      tag_19\n      jumpi\n      jump(tag_2)\n    tag_21:\n      dup1\n      0x8f772f96\n      eq\n      tag_11\n      jumpi\n      dup1\n      0x938626c2\n      eq\n      tag_12\n      jumpi\n      dup1\n      0xcff29dfd\n      eq\n      tag_13\n      jumpi\n      dup1\n      0xd476620b\n      eq\n      tag_14\n      jumpi\n      jump(tag_2)\n    tag_20:\n      dup1\n      0x3817df4c\n      gt\n      tag_22\n      jumpi\n      dup1\n      0x3817df4c\n      eq\n      tag_7\n      jumpi\n      dup1\n      0x5fa38280\n      eq\n      tag_8\n      jumpi\n      dup1\n      0x66c85dee\n      eq\n      tag_9\n      jumpi\n      dup1\n      0x83050daa\n      eq\n      tag_10\n      jumpi\n      jump(tag_2)\n    tag_22:\n      dup1\n      0x05fb23cf\n      eq\n      tag_3\n      jumpi\n      dup1\n      0x11631d06\n      eq\n      tag_4\n      jumpi\n      dup1\n      0x1744e03b\n      eq\n      tag_5\n      jumpi\n      dup1\n      0x34eb86a2\n      eq\n      tag_6\n      jumpi\n    tag_2:\n      0x00\n      dup1\n      revert\n        /* \"Contracts/AKEB.sol\":1582:1710  function getEncodedBid(address inputAddress) public view returns(string memory){... */\n    tag_3:\n      tag_23\n      0x04\n      dup1\n      calldatasize\n      sub\n      dup2\n      add\n      swap1\n      tag_24\n      swap2\n      swap1\n      tag_25\n      jump\t// in\n    tag_24:\n      tag_26\n      jump\t// in\n    tag_23:\n      mload(0x40)\n      tag_27\n      swap2\n      swap1\n      tag_28\n      jump\t// in\n    tag_27:\n      mload(0x40)\n      dup1\n      swap2\n      sub\n      swap1\n      return\n        /* \"Contracts/AKEB.sol\":326:350  uint256 public winnerBid */\n    tag_4:\n      tag_29\n      tag_30\n      jump\t// in\n    tag_29:\n      mload(0x40)\n      tag_31\n      swap2\n      swap1\n      tag_32\n      jump\t// in\n    tag_31:\n      mload(0x40)\n      dup1\n      swap2\n      sub\n      swap1\n      return\n        /* \"Contracts/AKEB.sol\":1716:1918  function submitWinner(uint256 inputWinnerBid, ... */\n    tag_5:\n      tag_33\n      0x04\n      dup1\n      calldatasize\n      sub\n      dup2\n      add\n      swap1\n      tag_34\n      swap2\n      swap1\n      tag_35\n      jump\t// in\n    tag_34:\n      tag_36\n      jump\t// in\n    tag_33:\n      stop\n        /* \"Contracts/AKEB.sol\":168:194  uint256 public minBidPrice */\n    tag_6:\n      tag_37\n      tag_38\n      jump\t// in\n    tag_37:\n      mload(0x40)\n      tag_39\n      swap2\n      swap1\n      tag_32\n      jump\t// in\n    tag_39:\n      mload(0x40)\n      dup1\n      swap2\n      sub\n      swap1\n      return\n        /* \"Contracts/AKEB.sol\":240:285  mapping(address => string) public encodedBids */\n    tag_7:\n      tag_40\n      0x04\n      dup1\n      calldatasize\n      sub\n      dup2\n      add\n      swap1\n      tag_41\n      swap2\n      swap1\n      tag_25\n      jump\t// in\n    tag_41:\n      tag_42\n      jump\t// in\n    tag_40:\n      mload(0x40)\n      tag_43\n      swap2\n      swap1\n      tag_28\n      jump\t// in\n    tag_43:\n      mload(0x40)\n      dup1\n      swap2\n      sub\n      swap1\n      return\n        /* \"Contracts/AKEB.sol\":1337:1442  function getBidderAddress(uint index) public view returns(address) {... */\n    tag_8:\n      tag_44\n      0x04\n      dup1\n      calldatasize\n      sub\n      dup2\n      add\n      swap1\n      tag_45\n      swap2\n      swap1\n      tag_46\n      jump\t// in\n    tag_45:\n      tag_47\n      jump\t// in\n    tag_44:\n      mload(0x40)\n      tag_48\n      swap2\n      swap1\n      tag_49\n      jump\t// in\n    tag_48:\n      mload(0x40)\n      dup1\n      swap2\n      sub\n      swap1\n      return\n        /* \"Contracts/AKEB.sol\":1924:2224  function dispute(uint256 inputDisputedBid, ... */\n    tag_9:\n      tag_50\n      0x04\n      dup1\n      calldatasize\n      sub\n      dup2\n      add\n      swap1\n      tag_51\n      swap2\n      swap1\n      tag_35\n      jump\t// in\n    tag_51:\n      tag_52\n      jump\t// in\n    tag_50:\n      stop\n        /* \"Contracts/AKEB.sol\":815:925  function getSampleString() public pure returns(string memory){... */\n    tag_10:\n      tag_53\n      tag_54\n      jump\t// in\n    tag_53:\n      mload(0x40)\n      tag_55\n      swap2\n      swap1\n      tag_28\n      jump\t// in\n    tag_55:\n      mload(0x40)\n      dup1\n      swap2\n      sub\n      swap1\n      return\n        /* \"Contracts/AKEB.sol\":495:535  DisputedBidders[] public disputedBidders */\n    tag_11:\n      tag_56\n      0x04\n      dup1\n      calldatasize\n      sub\n      dup2\n      add\n      swap1\n      tag_57\n      swap2\n      swap1\n      tag_46\n      jump\t// in\n    tag_57:\n      tag_58\n      jump\t// in\n    tag_56:\n      mload(0x40)\n      tag_59\n      swap4\n      swap3\n      swap2\n      swap1\n      tag_60\n      jump\t// in\n    tag_59:\n      mload(0x40)\n      dup1\n      swap2\n      sub\n      swap1\n      return\n        /* \"Contracts/AKEB.sol\":132:162  string public assetDescription */\n    tag_12:\n      tag_61\n      tag_62\n      jump\t// in\n    tag_61:\n      mload(0x40)\n      tag_63\n      swap2\n      swap1\n      tag_28\n      jump\t// in\n    tag_63:\n      mload(0x40)\n      dup1\n      swap2\n      sub\n      swap1\n      return\n        /* \"Contracts/AKEB.sol\":102:126  address[] public bidders */\n    tag_13:\n      tag_64\n      0x04\n      dup1\n      calldatasize\n      sub\n      dup2\n      add\n      swap1\n      tag_65\n      swap2\n      swap1\n      tag_46\n      jump\t// in\n    tag_65:\n      tag_66\n      jump\t// in\n    tag_64:\n      mload(0x40)\n      tag_67\n      swap2\n      swap1\n      tag_49\n      jump\t// in\n    tag_67:\n      mload(0x40)\n      dup1\n      swap2\n      sub\n      swap1\n      return\n        /* \"Contracts/AKEB.sol\":356:379  string public winnerKey */\n    tag_14:\n      tag_68\n      tag_69\n      jump\t// in\n    tag_68:\n      mload(0x40)\n      tag_70\n      swap2\n      swap1\n      tag_28\n      jump\t// in\n    tag_70:\n      mload(0x40)\n      dup1\n      swap2\n      sub\n      swap1\n      return\n        /* \"Contracts/AKEB.sol\":200:233  uint256 public minNumberOfBidders */\n    tag_15:\n      tag_71\n      tag_72\n      jump\t// in\n    tag_71:\n      mload(0x40)\n      tag_73\n      swap2\n      swap1\n      tag_32\n      jump\t// in\n    tag_73:\n      mload(0x40)\n      dup1\n      swap2\n      sub\n      swap1\n      return\n        /* \"Contracts/AKEB.sol\":931:1251  function registerAuctionInfo(string memory assetDescriptionInput, ... */\n    tag_16:\n      tag_74\n      0x04\n      dup1\n      calldatasize\n      sub\n      dup2\n      add\n      swap1\n      tag_75\n      swap2\n      swap1\n      tag_76\n      jump\t// in\n    tag_75:\n      tag_77\n      jump\t// in\n    tag_74:\n      stop\n        /* \"Contracts/AKEB.sol\":292:320  address public winnerAddress */\n    tag_17:\n      tag_78\n      tag_79\n      jump\t// in\n    tag_78:\n      mload(0x40)\n      tag_80\n      swap2\n      swap1\n      tag_49\n      jump\t// in\n    tag_80:\n      mload(0x40)\n      dup1\n      swap2\n      sub\n      swap1\n      return\n        /* \"Contracts/AKEB.sol\":1257:1331  function registerBidder() public {... */\n    tag_18:\n      tag_81\n      tag_82\n      jump\t// in\n    tag_81:\n      stop\n        /* \"Contracts/AKEB.sol\":1448:1576  function submitEncryptedBid(string memory inputEncodedBid)... */\n    tag_19:\n      tag_83\n      0x04\n      dup1\n      calldatasize\n      sub\n      dup2\n      add\n      swap1\n      tag_84\n      swap2\n      swap1\n      tag_85\n      jump\t// in\n    tag_84:\n      tag_86\n      jump\t// in\n    tag_83:\n      stop\n        /* \"Contracts/AKEB.sol\":1582:1710  function getEncodedBid(address inputAddress) public view returns(string memory){... */\n    tag_26:\n        /* \"Contracts/AKEB.sol\":1647:1660  string memory */\n      0x60\n        /* \"Contracts/AKEB.sol\":1678:1689  encodedBids */\n      0x05\n        /* \"Contracts/AKEB.sol\":1678:1703  encodedBids[inputAddress] */\n      0x00\n        /* \"Contracts/AKEB.sol\":1690:1702  inputAddress */\n      dup4\n        /* \"Contracts/AKEB.sol\":1678:1703  encodedBids[inputAddress] */\n      0xffffffffffffffffffffffffffffffffffffffff\n      and\n      0xffffffffffffffffffffffffffffffffffffffff\n      and\n      dup2\n      mstore\n      0x20\n      add\n      swap1\n      dup2\n      mstore\n      0x20\n      add\n      0x00\n      keccak256\n        /* \"Contracts/AKEB.sol\":1671:1703  return encodedBids[inputAddress] */\n      dup1\n      sload\n      tag_88\n      swap1\n      tag_89\n      jump\t// in\n    tag_88:\n      dup1\n      0x1f\n      add\n      0x20\n      dup1\n      swap2\n      div\n      mul\n      0x20\n      add\n      mload(0x40)\n      swap1\n      dup2\n      add\n      0x40\n      mstore\n      dup1\n      swap3\n      swap2\n      swap1\n      dup2\n      dup2\n      mstore\n      0x20\n      add\n      dup3\n      dup1\n      sload\n      tag_90\n      swap1\n      tag_89\n      jump\t// in\n    tag_90:\n      dup1\n      iszero\n      tag_91\n      jumpi\n      dup1\n      0x1f\n      lt\n      tag_92\n      jumpi\n      0x0100\n      dup1\n      dup4\n      sload\n      div\n      mul\n      dup4\n      mstore\n      swap2\n      0x20\n      add\n      swap2\n      jump(tag_91)\n    tag_92:\n      dup3\n      add\n      swap2\n      swap1\n      0x00\n      mstore\n      keccak256(0x00, 0x20)\n      swap1\n    tag_93:\n      dup2\n      sload\n      dup2\n      mstore\n      swap1\n      0x01\n      add\n      swap1\n      0x20\n      add\n      dup1\n      dup4\n      gt\n      tag_93\n      jumpi\n      dup3\n      swap1\n      sub\n      0x1f\n      and\n      dup3\n      add\n      swap2\n    tag_91:\n      pop\n      pop\n      pop\n      pop\n      pop\n      swap1\n      pop\n        /* \"Contracts/AKEB.sol\":1582:1710  function getEncodedBid(address inputAddress) public view returns(string memory){... */\n      swap2\n      swap1\n      pop\n      jump\t// out\n        /* \"Contracts/AKEB.sol\":326:350  uint256 public winnerBid */\n    tag_30:\n      sload(0x07)\n      dup2\n      jump\t// out\n        /* \"Contracts/AKEB.sol\":1716:1918  function submitWinner(uint256 inputWinnerBid, ... */\n    tag_36:\n        /* \"Contracts/AKEB.sol\":1829:1839  msg.sender */\n      caller\n        /* \"Contracts/AKEB.sol\":1813:1826  winnerAddress */\n      0x06\n      0x00\n        /* \"Contracts/AKEB.sol\":1813:1839  winnerAddress = msg.sender */\n      0x0100\n      exp\n      dup2\n      sload\n      dup2\n      0xffffffffffffffffffffffffffffffffffffffff\n      mul\n      not\n      and\n      swap1\n      dup4\n      0xffffffffffffffffffffffffffffffffffffffff\n      and\n      mul\n      or\n      swap1\n      sstore\n      pop\n        /* \"Contracts/AKEB.sol\":1861:1875  inputWinnerBid */\n      dup2\n        /* \"Contracts/AKEB.sol\":1849:1858  winnerBid */\n      0x07\n        /* \"Contracts/AKEB.sol\":1849:1875  winnerBid = inputWinnerBid */\n      dup2\n      swap1\n      sstore\n      pop\n        /* \"Contracts/AKEB.sol\":1897:1911  inputWinnerKey */\n      dup1\n        /* \"Contracts/AKEB.sol\":1885:1894  winnerKey */\n      0x08\n        /* \"Contracts/AKEB.sol\":1885:1911  winnerKey = inputWinnerKey */\n      swap1\n      dup1\n      mload\n      swap1\n      0x20\n      add\n      swap1\n      tag_95\n      swap3\n      swap2\n      swap1\n      tag_96\n      jump\t// in\n    tag_95:\n      pop\n        /* \"Contracts/AKEB.sol\":1716:1918  function submitWinner(uint256 inputWinnerBid, ... */\n      pop\n      pop\n      jump\t// out\n        /* \"Contracts/AKEB.sol\":168:194  uint256 public minBidPrice */\n    tag_38:\n      sload(0x03)\n      dup2\n      jump\t// out\n        /* \"Contracts/AKEB.sol\":240:285  mapping(address => string) public encodedBids */\n    tag_42:\n      mstore(0x20, 0x05)\n      dup1\n      0x00\n      mstore\n      keccak256(0x00, 0x40)\n      0x00\n      swap2\n      pop\n      swap1\n      pop\n      dup1\n      sload\n      tag_97\n      swap1\n      tag_89\n      jump\t// in\n    tag_97:\n      dup1\n      0x1f\n      add\n      0x20\n      dup1\n      swap2\n      div\n      mul\n      0x20\n      add\n      mload(0x40)\n      swap1\n      dup2\n      add\n      0x40\n      mstore\n      dup1\n      swap3\n      swap2\n      swap1\n      dup2\n      dup2\n      mstore\n      0x20\n      add\n      dup3\n      dup1\n      sload\n      tag_98\n      swap1\n      tag_89\n      jump\t// in\n    tag_98:\n      dup1\n      iszero\n      tag_99\n      jumpi\n      dup1\n      0x1f\n      lt\n      tag_100\n      jumpi\n      0x0100\n      dup1\n      dup4\n      sload\n      div\n      mul\n      dup4\n      mstore\n      swap2\n      0x20\n      add\n      swap2\n      jump(tag_99)\n    tag_100:\n      dup3\n      add\n      swap2\n      swap1\n      0x00\n      mstore\n      keccak256(0x00, 0x20)\n      swap1\n    tag_101:\n      dup2\n      sload\n      dup2\n      mstore\n      swap1\n      0x01\n      add\n      swap1\n      0x20\n      add\n      dup1\n      dup4\n      gt\n      tag_101\n      jumpi\n      dup3\n      swap1\n      sub\n      0x1f\n      and\n      dup3\n      add\n      swap2\n    tag_99:\n      pop\n      pop\n      pop\n      pop\n      pop\n      dup2\n      jump\t// out\n        /* \"Contracts/AKEB.sol\":1337:1442  function getBidderAddress(uint index) public view returns(address) {... */\n    tag_47:\n        /* \"Contracts/AKEB.sol\":1395:1402  address */\n      0x00\n        /* \"Contracts/AKEB.sol\":1421:1428  bidders */\n      0x01\n        /* \"Contracts/AKEB.sol\":1429:1434  index */\n      dup3\n        /* \"Contracts/AKEB.sol\":1421:1435  bidders[index] */\n      dup2\n      sload\n      dup2\n      lt\n      tag_103\n      jumpi\n      tag_104\n      tag_105\n      jump\t// in\n    tag_104:\n    tag_103:\n      swap1\n      0x00\n      mstore\n      keccak256(0x00, 0x20)\n      add\n      0x00\n      swap1\n      sload\n      swap1\n      0x0100\n      exp\n      swap1\n      div\n      0xffffffffffffffffffffffffffffffffffffffff\n      and\n        /* \"Contracts/AKEB.sol\":1414:1435  return bidders[index] */\n      swap1\n      pop\n        /* \"Contracts/AKEB.sol\":1337:1442  function getBidderAddress(uint index) public view returns(address) {... */\n      swap2\n      swap1\n      pop\n      jump\t// out\n        /* \"Contracts/AKEB.sol\":1924:2224  function dispute(uint256 inputDisputedBid, ... */\n    tag_52:\n        /* \"Contracts/AKEB.sol\":2021:2058  DisputedBidders memory disputedBidder */\n      0x00\n        /* \"Contracts/AKEB.sol\":2061:2170  DisputedBidders(... */\n      mload(0x40)\n      dup1\n      0x60\n      add\n      0x40\n      mstore\n      dup1\n        /* \"Contracts/AKEB.sol\":2090:2106  inputDisputedBid */\n      dup5\n        /* \"Contracts/AKEB.sol\":2061:2170  DisputedBidders(... */\n      dup2\n      mstore\n      0x20\n      add\n        /* \"Contracts/AKEB.sol\":2120:2130  msg.sender */\n      caller\n        /* \"Contracts/AKEB.sol\":2061:2170  DisputedBidders(... */\n      0xffffffffffffffffffffffffffffffffffffffff\n      and\n      dup2\n      mstore\n      0x20\n      add\n        /* \"Contracts/AKEB.sol\":2144:2160  inputDisputedKey */\n      dup4\n        /* \"Contracts/AKEB.sol\":2061:2170  DisputedBidders(... */\n      dup2\n      mstore\n      pop\n        /* \"Contracts/AKEB.sol\":2021:2170  DisputedBidders memory disputedBidder = DisputedBidders(... */\n      swap1\n      pop\n        /* \"Contracts/AKEB.sol\":2181:2196  disputedBidders */\n      0x09\n        /* \"Contracts/AKEB.sol\":2202:2216  disputedBidder */\n      dup2\n        /* \"Contracts/AKEB.sol\":2181:2217  disputedBidders.push(disputedBidder) */\n      swap1\n      dup1\n      0x01\n      dup2\n      sload\n      add\n      dup1\n      dup3\n      sstore\n      dup1\n      swap2\n      pop\n      pop\n      0x01\n      swap1\n      sub\n      swap1\n      0x00\n      mstore\n      keccak256(0x00, 0x20)\n      swap1\n      0x03\n      mul\n      add\n      0x00\n      swap1\n      swap2\n      swap1\n      swap2\n      swap1\n      swap2\n      pop\n      0x00\n      dup3\n      add\n      mload\n      dup2\n      0x00\n      add\n      sstore\n      0x20\n      dup3\n      add\n      mload\n      dup2\n      0x01\n      add\n      exp(0x0100, 0x00)\n      dup2\n      sload\n      dup2\n      0xffffffffffffffffffffffffffffffffffffffff\n      mul\n      not\n      and\n      swap1\n      dup4\n      0xffffffffffffffffffffffffffffffffffffffff\n      and\n      mul\n      or\n      swap1\n      sstore\n      pop\n      0x40\n      dup3\n      add\n      mload\n      dup2\n      0x02\n      add\n      swap1\n      dup1\n      mload\n      swap1\n      0x20\n      add\n      swap1\n      tag_109\n      swap3\n      swap2\n      swap1\n      tag_96\n      jump\t// in\n    tag_109:\n      pop\n      pop\n      pop\n        /* \"Contracts/AKEB.sol\":2011:2224  {... */\n      pop\n        /* \"Contracts/AKEB.sol\":1924:2224  function dispute(uint256 inputDisputedBid, ... */\n      pop\n      pop\n      jump\t// out\n        /* \"Contracts/AKEB.sol\":815:925  function getSampleString() public pure returns(string memory){... */\n    tag_54:\n        /* \"Contracts/AKEB.sol\":862:875  string memory */\n      0x60\n        /* \"Contracts/AKEB.sol\":886:918  return \"sample string from AKEB\" */\n      mload(0x40)\n      dup1\n      0x40\n      add\n      0x40\n      mstore\n      dup1\n      0x17\n      dup2\n      mstore\n      0x20\n      add\n      0x73616d706c6520737472696e672066726f6d20414b4542000000000000000000\n      dup2\n      mstore\n      pop\n      swap1\n      pop\n        /* \"Contracts/AKEB.sol\":815:925  function getSampleString() public pure returns(string memory){... */\n      swap1\n      jump\t// out\n        /* \"Contracts/AKEB.sol\":495:535  DisputedBidders[] public disputedBidders */\n    tag_58:\n      0x09\n      dup2\n      dup2\n      sload\n      dup2\n      lt\n      tag_111\n      jumpi\n      0x00\n      dup1\n      revert\n    tag_111:\n      swap1\n      0x00\n      mstore\n      keccak256(0x00, 0x20)\n      swap1\n      0x03\n      mul\n      add\n      0x00\n      swap2\n      pop\n      swap1\n      pop\n      dup1\n      0x00\n      add\n      sload\n      swap1\n      dup1\n      0x01\n      add\n      0x00\n      swap1\n      sload\n      swap1\n      0x0100\n      exp\n      swap1\n      div\n      0xffffffffffffffffffffffffffffffffffffffff\n      and\n      swap1\n      dup1\n      0x02\n      add\n      dup1\n      sload\n      tag_113\n      swap1\n      tag_89\n      jump\t// in\n    tag_113:\n      dup1\n      0x1f\n      add\n      0x20\n      dup1\n      swap2\n      div\n      mul\n      0x20\n      add\n      mload(0x40)\n      swap1\n      dup2\n      add\n      0x40\n      mstore\n      dup1\n      swap3\n      swap2\n      swap1\n      dup2\n      dup2\n      mstore\n      0x20\n      add\n      dup3\n      dup1\n      sload\n      tag_114\n      swap1\n      tag_89\n      jump\t// in\n    tag_114:\n      dup1\n      iszero\n      tag_115\n      jumpi\n      dup1\n      0x1f\n      lt\n      tag_116\n      jumpi\n      0x0100\n      dup1\n      dup4\n      sload\n      div\n      mul\n      dup4\n      mstore\n      swap2\n      0x20\n      add\n      swap2\n      jump(tag_115)\n    tag_116:\n      dup3\n      add\n      swap2\n      swap1\n      0x00\n      mstore\n      keccak256(0x00, 0x20)\n      swap1\n    tag_117:\n      dup2\n      sload\n      dup2\n      mstore\n      swap1\n      0x01\n      add\n      swap1\n      0x20\n      add\n      dup1\n      dup4\n      gt\n      tag_117\n      jumpi\n      dup3\n      swap1\n      sub\n      0x1f\n      and\n      dup3\n      add\n      swap2\n    tag_115:\n      pop\n      pop\n      pop\n      pop\n      pop\n      swap1\n      pop\n      dup4\n      jump\t// out\n        /* \"Contracts/AKEB.sol\":132:162  string public assetDescription */\n    tag_62:\n      0x02\n      dup1\n      sload\n      tag_118\n      swap1\n      tag_89\n      jump\t// in\n    tag_118:\n      dup1\n      0x1f\n      add\n      0x20\n      dup1\n      swap2\n      div\n      mul\n      0x20\n      add\n      mload(0x40)\n      swap1\n      dup2\n      add\n      0x40\n      mstore\n      dup1\n      swap3\n      swap2\n      swap1\n      dup2\n      dup2\n      mstore\n      0x20\n      add\n      dup3\n      dup1\n      sload\n      tag_119\n      swap1\n      tag_89\n      jump\t// in\n    tag_119:\n      dup1\n      iszero\n      tag_120\n      jumpi\n      dup1\n      0x1f\n      lt\n      tag_121\n      jumpi\n      0x0100\n      dup1\n      dup4\n      sload\n      div\n      mul\n      dup4\n      mstore\n      swap2\n      0x20\n      add\n      swap2\n      jump(tag_120)\n    tag_121:\n      dup3\n      add\n      swap2\n      swap1\n      0x00\n      mstore\n      keccak256(0x00, 0x20)\n      swap1\n    tag_122:\n      dup2\n      sload\n      dup2\n      mstore\n      swap1\n      0x01\n      add\n      swap1\n      0x20\n      add\n      dup1\n      dup4\n      gt\n      tag_122\n      jumpi\n      dup3\n      swap1\n      sub\n      0x1f\n      and\n      dup3\n      add\n      swap2\n    tag_120:\n      pop\n      pop\n      pop\n      pop\n      pop\n      dup2\n      jump\t// out\n        /* \"Contracts/AKEB.sol\":102:126  address[] public bidders */\n    tag_66:\n      0x01\n      dup2\n      dup2\n      sload\n      dup2\n      lt\n      tag_123\n      jumpi\n      0x00\n      dup1\n      revert\n    tag_123:\n      swap1\n      0x00\n      mstore\n      keccak256(0x00, 0x20)\n      add\n      0x00\n      swap2\n      pop\n      sload\n      swap1\n      0x0100\n      exp\n      swap1\n      div\n      0xffffffffffffffffffffffffffffffffffffffff\n      and\n      dup2\n      jump\t// out\n        /* \"Contracts/AKEB.sol\":356:379  string public winnerKey */\n    tag_69:\n      0x08\n      dup1\n      sload\n      tag_125\n      swap1\n      tag_89\n      jump\t// in\n    tag_125:\n      dup1\n      0x1f\n      add\n      0x20\n      dup1\n      swap2\n      div\n      mul\n      0x20\n      add\n      mload(0x40)\n      swap1\n      dup2\n      add\n      0x40\n      mstore\n      dup1\n      swap3\n      swap2\n      swap1\n      dup2\n      dup2\n      mstore\n      0x20\n      add\n      dup3\n      dup1\n      sload\n      tag_126\n      swap1\n      tag_89\n      jump\t// in\n    tag_126:\n      dup1\n      iszero\n      tag_127\n      jumpi\n      dup1\n      0x1f\n      lt\n      tag_128\n      jumpi\n      0x0100\n      dup1\n      dup4\n      sload\n      div\n      mul\n      dup4\n      mstore\n      swap2\n      0x20\n      add\n      swap2\n      jump(tag_127)\n    tag_128:\n      dup3\n      add\n      swap2\n      swap1\n      0x00\n      mstore\n      keccak256(0x00, 0x20)\n      swap1\n    tag_129:\n      dup2\n      sload\n      dup2\n      mstore\n      swap1\n      0x01\n      add\n      swap1\n      0x20\n      add\n      dup1\n      dup4\n      gt\n      tag_129\n      jumpi\n      dup3\n      swap1\n      sub\n      0x1f\n      and\n      dup3\n      add\n      swap2\n    tag_127:\n      pop\n      pop\n      pop\n      pop\n      pop\n      dup2\n      jump\t// out\n        /* \"Contracts/AKEB.sol\":200:233  uint256 public minNumberOfBidders */\n    tag_72:\n      sload(0x04)\n      dup2\n      jump\t// out\n        /* \"Contracts/AKEB.sol\":931:1251  function registerAuctionInfo(string memory assetDescriptionInput, ... */\n    tag_77:\n        /* \"Contracts/AKEB.sol\":606:616  auctioneer */\n      0x00\n      dup1\n      sload\n      swap1\n      0x0100\n      exp\n      swap1\n      div\n      0xffffffffffffffffffffffffffffffffffffffff\n      and\n        /* \"Contracts/AKEB.sol\":592:616  msg.sender == auctioneer */\n      0xffffffffffffffffffffffffffffffffffffffff\n      and\n        /* \"Contracts/AKEB.sol\":592:602  msg.sender */\n      caller\n        /* \"Contracts/AKEB.sol\":592:616  msg.sender == auctioneer */\n      0xffffffffffffffffffffffffffffffffffffffff\n      and\n      eq\n        /* \"Contracts/AKEB.sol\":584:660  require(msg.sender == auctioneer, \"Only auctioneer can call this function.\") */\n      tag_131\n      jumpi\n      mload(0x40)\n      0x08c379a000000000000000000000000000000000000000000000000000000000\n      dup2\n      mstore\n      0x04\n      add\n      tag_132\n      swap1\n      tag_133\n      jump\t// in\n    tag_132:\n      mload(0x40)\n      dup1\n      swap2\n      sub\n      swap1\n      revert\n    tag_131:\n        /* \"Contracts/AKEB.sol\":1129:1150  assetDescriptionInput */\n      dup3\n        /* \"Contracts/AKEB.sol\":1110:1126  assetDescription */\n      0x02\n        /* \"Contracts/AKEB.sol\":1110:1150  assetDescription = assetDescriptionInput */\n      swap1\n      dup1\n      mload\n      swap1\n      0x20\n      add\n      swap1\n      tag_135\n      swap3\n      swap2\n      swap1\n      tag_96\n      jump\t// in\n    tag_135:\n      pop\n        /* \"Contracts/AKEB.sol\":1174:1190  minBidPriceInput */\n      dup2\n        /* \"Contracts/AKEB.sol\":1160:1171  minBidPrice */\n      0x03\n        /* \"Contracts/AKEB.sol\":1160:1190  minBidPrice = minBidPriceInput */\n      dup2\n      swap1\n      sstore\n      pop\n        /* \"Contracts/AKEB.sol\":1221:1244  minNumberOfBiddersInput */\n      dup1\n        /* \"Contracts/AKEB.sol\":1200:1218  minNumberOfBidders */\n      0x04\n        /* \"Contracts/AKEB.sol\":1200:1244  minNumberOfBidders = minNumberOfBiddersInput */\n      dup2\n      swap1\n      sstore\n      pop\n        /* \"Contracts/AKEB.sol\":931:1251  function registerAuctionInfo(string memory assetDescriptionInput, ... */\n      pop\n      pop\n      pop\n      jump\t// out\n        /* \"Contracts/AKEB.sol\":292:320  address public winnerAddress */\n    tag_79:\n      0x06\n      0x00\n      swap1\n      sload\n      swap1\n      0x0100\n      exp\n      swap1\n      div\n      0xffffffffffffffffffffffffffffffffffffffff\n      and\n      dup2\n      jump\t// out\n        /* \"Contracts/AKEB.sol\":1257:1331  function registerBidder() public {... */\n    tag_82:\n        /* \"Contracts/AKEB.sol\":1300:1307  bidders */\n      0x01\n        /* \"Contracts/AKEB.sol\":1313:1323  msg.sender */\n      caller\n        /* \"Contracts/AKEB.sol\":1300:1324  bidders.push(msg.sender) */\n      swap1\n      dup1\n      0x01\n      dup2\n      sload\n      add\n      dup1\n      dup3\n      sstore\n      dup1\n      swap2\n      pop\n      pop\n      0x01\n      swap1\n      sub\n      swap1\n      0x00\n      mstore\n      keccak256(0x00, 0x20)\n      add\n      0x00\n      swap1\n      swap2\n      swap1\n      swap2\n      swap1\n      swap2\n      0x0100\n      exp\n      dup2\n      sload\n      dup2\n      0xffffffffffffffffffffffffffffffffffffffff\n      mul\n      not\n      and\n      swap1\n      dup4\n      0xffffffffffffffffffffffffffffffffffffffff\n      and\n      mul\n      or\n      swap1\n      sstore\n      pop\n        /* \"Contracts/AKEB.sol\":1257:1331  function registerBidder() public {... */\n      jump\t// out\n        /* \"Contracts/AKEB.sol\":1448:1576  function submitEncryptedBid(string memory inputEncodedBid)... */\n    tag_86:\n        /* \"Contracts/AKEB.sol\":1554:1569  inputEncodedBid */\n      dup1\n        /* \"Contracts/AKEB.sol\":1528:1539  encodedBids */\n      0x05\n        /* \"Contracts/AKEB.sol\":1528:1551  encodedBids[msg.sender] */\n      0x00\n        /* \"Contracts/AKEB.sol\":1540:1550  msg.sender */\n      caller\n        /* \"Contracts/AKEB.sol\":1528:1551  encodedBids[msg.sender] */\n      0xffffffffffffffffffffffffffffffffffffffff\n      and\n      0xffffffffffffffffffffffffffffffffffffffff\n      and\n      dup2\n      mstore\n      0x20\n      add\n      swap1\n      dup2\n      mstore\n      0x20\n      add\n      0x00\n      keccak256\n        /* \"Contracts/AKEB.sol\":1528:1569  encodedBids[msg.sender] = inputEncodedBid */\n      swap1\n      dup1\n      mload\n      swap1\n      0x20\n      add\n      swap1\n      tag_139\n      swap3\n      swap2\n      swap1\n      tag_96\n      jump\t// in\n    tag_139:\n      pop\n        /* \"Contracts/AKEB.sol\":1448:1576  function submitEncryptedBid(string memory inputEncodedBid)... */\n      pop\n      jump\t// out\n    tag_96:\n      dup3\n      dup1\n      sload\n      tag_140\n      swap1\n      tag_89\n      jump\t// in\n    tag_140:\n      swap1\n      0x00\n      mstore\n      keccak256(0x00, 0x20)\n      swap1\n      0x1f\n      add\n      0x20\n      swap1\n      div\n      dup2\n      add\n      swap3\n      dup3\n      tag_142\n      jumpi\n      0x00\n      dup6\n      sstore\n      jump(tag_141)\n    tag_142:\n      dup3\n      0x1f\n      lt\n      tag_143\n      jumpi\n      dup1\n      mload\n      not(0xff)\n      and\n      dup4\n      dup1\n      add\n      or\n      dup6\n      sstore\n      jump(tag_141)\n    tag_143:\n      dup3\n      dup1\n      add\n      0x01\n      add\n      dup6\n      sstore\n      dup3\n      iszero\n      tag_141\n      jumpi\n      swap2\n      dup3\n      add\n    tag_144:\n      dup3\n      dup2\n      gt\n      iszero\n      tag_145\n      jumpi\n      dup3\n      mload\n      dup3\n      sstore\n      swap2\n      0x20\n      add\n      swap2\n      swap1\n      0x01\n      add\n      swap1\n      jump(tag_144)\n    tag_145:\n    tag_141:\n      pop\n      swap1\n      pop\n      tag_146\n      swap2\n      swap1\n      tag_147\n      jump\t// in\n    tag_146:\n      pop\n      swap1\n      jump\t// out\n    tag_147:\n    tag_148:\n      dup1\n      dup3\n      gt\n      iszero\n      tag_149\n      jumpi\n      0x00\n      dup2\n      0x00\n      swap1\n      sstore\n      pop\n      0x01\n      add\n      jump(tag_148)\n    tag_149:\n      pop\n      swap1\n      jump\t// out\n        /* \"#utility.yul\":7:82   */\n    tag_150:\n        /* \"#utility.yul\":40:46   */\n      0x00\n        /* \"#utility.yul\":73:75   */\n      0x40\n        /* \"#utility.yul\":67:76   */\n      mload\n        /* \"#utility.yul\":57:76   */\n      swap1\n      pop\n        /* \"#utility.yul\":7:82   */\n      swap1\n      jump\t// out\n        /* \"#utility.yul\":88:205   */\n    tag_151:\n        /* \"#utility.yul\":197:198   */\n      0x00\n        /* \"#utility.yul\":194:195   */\n      dup1\n        /* \"#utility.yul\":187:199   */\n      revert\n        /* \"#utility.yul\":211:328   */\n    tag_152:\n        /* \"#utility.yul\":320:321   */\n      0x00\n        /* \"#utility.yul\":317:318   */\n      dup1\n        /* \"#utility.yul\":310:322   */\n      revert\n        /* \"#utility.yul\":334:460   */\n    tag_153:\n        /* \"#utility.yul\":371:378   */\n      0x00\n        /* \"#utility.yul\":411:453   */\n      0xffffffffffffffffffffffffffffffffffffffff\n        /* \"#utility.yul\":404:409   */\n      dup3\n        /* \"#utility.yul\":400:454   */\n      and\n        /* \"#utility.yul\":389:454   */\n      swap1\n      pop\n        /* \"#utility.yul\":334:460   */\n      swap2\n      swap1\n      pop\n      jump\t// out\n        /* \"#utility.yul\":466:562   */\n    tag_154:\n        /* \"#utility.yul\":503:510   */\n      0x00\n        /* \"#utility.yul\":532:556   */\n      tag_185\n        /* \"#utility.yul\":550:555   */\n      dup3\n        /* \"#utility.yul\":532:556   */\n      tag_153\n      jump\t// in\n    tag_185:\n        /* \"#utility.yul\":521:556   */\n      swap1\n      pop\n        /* \"#utility.yul\":466:562   */\n      swap2\n      swap1\n      pop\n      jump\t// out\n        /* \"#utility.yul\":568:690   */\n    tag_155:\n        /* \"#utility.yul\":641:665   */\n      tag_187\n        /* \"#utility.yul\":659:664   */\n      dup2\n        /* \"#utility.yul\":641:665   */\n      tag_154\n      jump\t// in\n    tag_187:\n        /* \"#utility.yul\":634:639   */\n      dup2\n        /* \"#utility.yul\":631:666   */\n      eq\n        /* \"#utility.yul\":621:684   */\n      tag_188\n      jumpi\n        /* \"#utility.yul\":680:681   */\n      0x00\n        /* \"#utility.yul\":677:678   */\n      dup1\n        /* \"#utility.yul\":670:682   */\n      revert\n        /* \"#utility.yul\":621:684   */\n    tag_188:\n        /* \"#utility.yul\":568:690   */\n      pop\n      jump\t// out\n        /* \"#utility.yul\":696:835   */\n    tag_156:\n        /* \"#utility.yul\":742:747   */\n      0x00\n        /* \"#utility.yul\":780:786   */\n      dup2\n        /* \"#utility.yul\":767:787   */\n      calldataload\n        /* \"#utility.yul\":758:787   */\n      swap1\n      pop\n        /* \"#utility.yul\":796:829   */\n      tag_190\n        /* \"#utility.yul\":823:828   */\n      dup2\n        /* \"#utility.yul\":796:829   */\n      tag_155\n      jump\t// in\n    tag_190:\n        /* \"#utility.yul\":696:835   */\n      swap3\n      swap2\n      pop\n      pop\n      jump\t// out\n        /* \"#utility.yul\":841:1170   */\n    tag_25:\n        /* \"#utility.yul\":900:906   */\n      0x00\n        /* \"#utility.yul\":949:951   */\n      0x20\n        /* \"#utility.yul\":937:946   */\n      dup3\n        /* \"#utility.yul\":928:935   */\n      dup5\n        /* \"#utility.yul\":924:947   */\n      sub\n        /* \"#utility.yul\":920:952   */\n      slt\n        /* \"#utility.yul\":917:1036   */\n      iszero\n      tag_192\n      jumpi\n        /* \"#utility.yul\":955:1034   */\n      tag_193\n      tag_151\n      jump\t// in\n    tag_193:\n        /* \"#utility.yul\":917:1036   */\n    tag_192:\n        /* \"#utility.yul\":1075:1076   */\n      0x00\n        /* \"#utility.yul\":1100:1153   */\n      tag_194\n        /* \"#utility.yul\":1145:1152   */\n      dup5\n        /* \"#utility.yul\":1136:1142   */\n      dup3\n        /* \"#utility.yul\":1125:1134   */\n      dup6\n        /* \"#utility.yul\":1121:1143   */\n      add\n        /* \"#utility.yul\":1100:1153   */\n      tag_156\n      jump\t// in\n    tag_194:\n        /* \"#utility.yul\":1090:1153   */\n      swap2\n      pop\n        /* \"#utility.yul\":1046:1163   */\n      pop\n        /* \"#utility.yul\":841:1170   */\n      swap3\n      swap2\n      pop\n      pop\n      jump\t// out\n        /* \"#utility.yul\":1176:1275   */\n    tag_157:\n        /* \"#utility.yul\":1228:1234   */\n      0x00\n        /* \"#utility.yul\":1262:1267   */\n      dup2\n        /* \"#utility.yul\":1256:1268   */\n      mload\n        /* \"#utility.yul\":1246:1268   */\n      swap1\n      pop\n        /* \"#utility.yul\":1176:1275   */\n      swap2\n      swap1\n      pop\n      jump\t// out\n        /* \"#utility.yul\":1281:1450   */\n    tag_158:\n        /* \"#utility.yul\":1365:1376   */\n      0x00\n        /* \"#utility.yul\":1399:1405   */\n      dup3\n        /* \"#utility.yul\":1394:1397   */\n      dup3\n        /* \"#utility.yul\":1387:1406   */\n      mstore\n        /* \"#utility.yul\":1439:1443   */\n      0x20\n        /* \"#utility.yul\":1434:1437   */\n      dup3\n        /* \"#utility.yul\":1430:1444   */\n      add\n        /* \"#utility.yul\":1415:1444   */\n      swap1\n      pop\n        /* \"#utility.yul\":1281:1450   */\n      swap3\n      swap2\n      pop\n      pop\n      jump\t// out\n        /* \"#utility.yul\":1456:1763   */\n    tag_159:\n        /* \"#utility.yul\":1524:1525   */\n      0x00\n        /* \"#utility.yul\":1534:1647   */\n    tag_198:\n        /* \"#utility.yul\":1548:1554   */\n      dup4\n        /* \"#utility.yul\":1545:1546   */\n      dup2\n        /* \"#utility.yul\":1542:1555   */\n      lt\n        /* \"#utility.yul\":1534:1647   */\n      iszero\n      tag_200\n      jumpi\n        /* \"#utility.yul\":1633:1634   */\n      dup1\n        /* \"#utility.yul\":1628:1631   */\n      dup3\n        /* \"#utility.yul\":1624:1635   */\n      add\n        /* \"#utility.yul\":1618:1636   */\n      mload\n        /* \"#utility.yul\":1614:1615   */\n      dup2\n        /* \"#utility.yul\":1609:1612   */\n      dup5\n        /* \"#utility.yul\":1605:1616   */\n      add\n        /* \"#utility.yul\":1598:1637   */\n      mstore\n        /* \"#utility.yul\":1570:1572   */\n      0x20\n        /* \"#utility.yul\":1567:1568   */\n      dup2\n        /* \"#utility.yul\":1563:1573   */\n      add\n        /* \"#utility.yul\":1558:1573   */\n      swap1\n      pop\n        /* \"#utility.yul\":1534:1647   */\n      jump(tag_198)\n    tag_200:\n        /* \"#utility.yul\":1665:1671   */\n      dup4\n        /* \"#utility.yul\":1662:1663   */\n      dup2\n        /* \"#utility.yul\":1659:1672   */\n      gt\n        /* \"#utility.yul\":1656:1757   */\n      iszero\n      tag_201\n      jumpi\n        /* \"#utility.yul\":1745:1746   */\n      0x00\n        /* \"#utility.yul\":1736:1742   */\n      dup5\n        /* \"#utility.yul\":1731:1734   */\n      dup5\n        /* \"#utility.yul\":1727:1743   */\n      add\n        /* \"#utility.yul\":1720:1747   */\n      mstore\n        /* \"#utility.yul\":1656:1757   */\n    tag_201:\n        /* \"#utility.yul\":1505:1763   */\n      pop\n        /* \"#utility.yul\":1456:1763   */\n      pop\n      pop\n      pop\n      jump\t// out\n        /* \"#utility.yul\":1769:1871   */\n    tag_160:\n        /* \"#utility.yul\":1810:1816   */\n      0x00\n        /* \"#utility.yul\":1861:1863   */\n      0x1f\n        /* \"#utility.yul\":1857:1864   */\n      not\n        /* \"#utility.yul\":1852:1854   */\n      0x1f\n        /* \"#utility.yul\":1845:1850   */\n      dup4\n        /* \"#utility.yul\":1841:1855   */\n      add\n        /* \"#utility.yul\":1837:1865   */\n      and\n        /* \"#utility.yul\":1827:1865   */\n      swap1\n      pop\n        /* \"#utility.yul\":1769:1871   */\n      swap2\n      swap1\n      pop\n      jump\t// out\n        /* \"#utility.yul\":1877:2241   */\n    tag_161:\n        /* \"#utility.yul\":1965:1968   */\n      0x00\n        /* \"#utility.yul\":1993:2032   */\n      tag_204\n        /* \"#utility.yul\":2026:2031   */\n      dup3\n        /* \"#utility.yul\":1993:2032   */\n      tag_157\n      jump\t// in\n    tag_204:\n        /* \"#utility.yul\":2048:2119   */\n      tag_205\n        /* \"#utility.yul\":2112:2118   */\n      dup2\n        /* \"#utility.yul\":2107:2110   */\n      dup6\n        /* \"#utility.yul\":2048:2119   */\n      tag_158\n      jump\t// in\n    tag_205:\n        /* \"#utility.yul\":2041:2119   */\n      swap4\n      pop\n        /* \"#utility.yul\":2128:2180   */\n      tag_206\n        /* \"#utility.yul\":2173:2179   */\n      dup2\n        /* \"#utility.yul\":2168:2171   */\n      dup6\n        /* \"#utility.yul\":2161:2165   */\n      0x20\n        /* \"#utility.yul\":2154:2159   */\n      dup7\n        /* \"#utility.yul\":2150:2166   */\n      add\n        /* \"#utility.yul\":2128:2180   */\n      tag_159\n      jump\t// in\n    tag_206:\n        /* \"#utility.yul\":2205:2234   */\n      tag_207\n        /* \"#utility.yul\":2227:2233   */\n      dup2\n        /* \"#utility.yul\":2205:2234   */\n      tag_160\n      jump\t// in\n    tag_207:\n        /* \"#utility.yul\":2200:2203   */\n      dup5\n        /* \"#utility.yul\":2196:2235   */\n      add\n        /* \"#utility.yul\":2189:2235   */\n      swap2\n      pop\n        /* \"#utility.yul\":1969:2241   */\n      pop\n        /* \"#utility.yul\":1877:2241   */\n      swap3\n      swap2\n      pop\n      pop\n      jump\t// out\n        /* \"#utility.yul\":2247:2560   */\n    tag_28:\n        /* \"#utility.yul\":2360:2364   */\n      0x00\n        /* \"#utility.yul\":2398:2400   */\n      0x20\n        /* \"#utility.yul\":2387:2396   */\n      dup3\n        /* \"#utility.yul\":2383:2401   */\n      add\n        /* \"#utility.yul\":2375:2401   */\n      swap1\n      pop\n        /* \"#utility.yul\":2447:2456   */\n      dup2\n        /* \"#utility.yul\":2441:2445   */\n      dup2\n        /* \"#utility.yul\":2437:2457   */\n      sub\n        /* \"#utility.yul\":2433:2434   */\n      0x00\n        /* \"#utility.yul\":2422:2431   */\n      dup4\n        /* \"#utility.yul\":2418:2435   */\n      add\n        /* \"#utility.yul\":2411:2458   */\n      mstore\n        /* \"#utility.yul\":2475:2553   */\n      tag_209\n        /* \"#utility.yul\":2548:2552   */\n      dup2\n        /* \"#utility.yul\":2539:2545   */\n      dup5\n        /* \"#utility.yul\":2475:2553   */\n      tag_161\n      jump\t// in\n    tag_209:\n        /* \"#utility.yul\":2467:2553   */\n      swap1\n      pop\n        /* \"#utility.yul\":2247:2560   */\n      swap3\n      swap2\n      pop\n      pop\n      jump\t// out\n        /* \"#utility.yul\":2566:2643   */\n    tag_162:\n        /* \"#utility.yul\":2603:2610   */\n      0x00\n        /* \"#utility.yul\":2632:2637   */\n      dup2\n        /* \"#utility.yul\":2621:2637   */\n      swap1\n      pop\n        /* \"#utility.yul\":2566:2643   */\n      swap2\n      swap1\n      pop\n      jump\t// out\n        /* \"#utility.yul\":2649:2767   */\n    tag_163:\n        /* \"#utility.yul\":2736:2760   */\n      tag_212\n        /* \"#utility.yul\":2754:2759   */\n      dup2\n        /* \"#utility.yul\":2736:2760   */\n      tag_162\n      jump\t// in\n    tag_212:\n        /* \"#utility.yul\":2731:2734   */\n      dup3\n        /* \"#utility.yul\":2724:2761   */\n      mstore\n        /* \"#utility.yul\":2649:2767   */\n      pop\n      pop\n      jump\t// out\n        /* \"#utility.yul\":2773:2995   */\n    tag_32:\n        /* \"#utility.yul\":2866:2870   */\n      0x00\n        /* \"#utility.yul\":2904:2906   */\n      0x20\n        /* \"#utility.yul\":2893:2902   */\n      dup3\n        /* \"#utility.yul\":2889:2907   */\n      add\n        /* \"#utility.yul\":2881:2907   */\n      swap1\n      pop\n        /* \"#utility.yul\":2917:2988   */\n      tag_214\n        /* \"#utility.yul\":2985:2986   */\n      0x00\n        /* \"#utility.yul\":2974:2983   */\n      dup4\n        /* \"#utility.yul\":2970:2987   */\n      add\n        /* \"#utility.yul\":2961:2967   */\n      dup5\n        /* \"#utility.yul\":2917:2988   */\n      tag_163\n      jump\t// in\n    tag_214:\n        /* \"#utility.yul\":2773:2995   */\n      swap3\n      swap2\n      pop\n      pop\n      jump\t// out\n        /* \"#utility.yul\":3001:3123   */\n    tag_164:\n        /* \"#utility.yul\":3074:3098   */\n      tag_216\n        /* \"#utility.yul\":3092:3097   */\n      dup2\n        /* \"#utility.yul\":3074:3098   */\n      tag_162\n      jump\t// in\n    tag_216:\n        /* \"#utility.yul\":3067:3072   */\n      dup2\n        /* \"#utility.yul\":3064:3099   */\n      eq\n        /* \"#utility.yul\":3054:3117   */\n      tag_217\n      jumpi\n        /* \"#utility.yul\":3113:3114   */\n      0x00\n        /* \"#utility.yul\":3110:3111   */\n      dup1\n        /* \"#utility.yul\":3103:3115   */\n      revert\n        /* \"#utility.yul\":3054:3117   */\n    tag_217:\n        /* \"#utility.yul\":3001:3123   */\n      pop\n      jump\t// out\n        /* \"#utility.yul\":3129:3268   */\n    tag_165:\n        /* \"#utility.yul\":3175:3180   */\n      0x00\n        /* \"#utility.yul\":3213:3219   */\n      dup2\n        /* \"#utility.yul\":3200:3220   */\n      calldataload\n        /* \"#utility.yul\":3191:3220   */\n      swap1\n      pop\n        /* \"#utility.yul\":3229:3262   */\n      tag_219\n        /* \"#utility.yul\":3256:3261   */\n      dup2\n        /* \"#utility.yul\":3229:3262   */\n      tag_164\n      jump\t// in\n    tag_219:\n        /* \"#utility.yul\":3129:3268   */\n      swap3\n      swap2\n      pop\n      pop\n      jump\t// out\n        /* \"#utility.yul\":3274:3391   */\n    tag_166:\n        /* \"#utility.yul\":3383:3384   */\n      0x00\n        /* \"#utility.yul\":3380:3381   */\n      dup1\n        /* \"#utility.yul\":3373:3385   */\n      revert\n        /* \"#utility.yul\":3397:3514   */\n    tag_167:\n        /* \"#utility.yul\":3506:3507   */\n      0x00\n        /* \"#utility.yul\":3503:3504   */\n      dup1\n        /* \"#utility.yul\":3496:3508   */\n      revert\n        /* \"#utility.yul\":3520:3700   */\n    tag_168:\n        /* \"#utility.yul\":3568:3645   */\n      0x4e487b7100000000000000000000000000000000000000000000000000000000\n        /* \"#utility.yul\":3565:3566   */\n      0x00\n        /* \"#utility.yul\":3558:3646   */\n      mstore\n        /* \"#utility.yul\":3665:3669   */\n      0x41\n        /* \"#utility.yul\":3662:3663   */\n      0x04\n        /* \"#utility.yul\":3655:3670   */\n      mstore\n        /* \"#utility.yul\":3689:3693   */\n      0x24\n        /* \"#utility.yul\":3686:3687   */\n      0x00\n        /* \"#utility.yul\":3679:3694   */\n      revert\n        /* \"#utility.yul\":3706:3987   */\n    tag_169:\n        /* \"#utility.yul\":3789:3816   */\n      tag_224\n        /* \"#utility.yul\":3811:3815   */\n      dup3\n        /* \"#utility.yul\":3789:3816   */\n      tag_160\n      jump\t// in\n    tag_224:\n        /* \"#utility.yul\":3781:3787   */\n      dup2\n        /* \"#utility.yul\":3777:3817   */\n      add\n        /* \"#utility.yul\":3919:3925   */\n      dup2\n        /* \"#utility.yul\":3907:3917   */\n      dup2\n        /* \"#utility.yul\":3904:3926   */\n      lt\n        /* \"#utility.yul\":3883:3901   */\n      0xffffffffffffffff\n        /* \"#utility.yul\":3871:3881   */\n      dup3\n        /* \"#utility.yul\":3868:3902   */\n      gt\n        /* \"#utility.yul\":3865:3927   */\n      or\n        /* \"#utility.yul\":3862:3950   */\n      iszero\n      tag_225\n      jumpi\n        /* \"#utility.yul\":3930:3948   */\n      tag_226\n      tag_168\n      jump\t// in\n    tag_226:\n        /* \"#utility.yul\":3862:3950   */\n    tag_225:\n        /* \"#utility.yul\":3970:3980   */\n      dup1\n        /* \"#utility.yul\":3966:3968   */\n      0x40\n        /* \"#utility.yul\":3959:3981   */\n      mstore\n        /* \"#utility.yul\":3749:3987   */\n      pop\n        /* \"#utility.yul\":3706:3987   */\n      pop\n      pop\n      jump\t// out\n        /* \"#utility.yul\":3993:4122   */\n    tag_170:\n        /* \"#utility.yul\":4027:4033   */\n      0x00\n        /* \"#utility.yul\":4054:4074   */\n      tag_228\n      tag_150\n      jump\t// in\n    tag_228:\n        /* \"#utility.yul\":4044:4074   */\n      swap1\n      pop\n        /* \"#utility.yul\":4083:4116   */\n      tag_229\n        /* \"#utility.yul\":4111:4115   */\n      dup3\n        /* \"#utility.yul\":4103:4109   */\n      dup3\n        /* \"#utility.yul\":4083:4116   */\n      tag_169\n      jump\t// in\n    tag_229:\n        /* \"#utility.yul\":3993:4122   */\n      swap2\n      swap1\n      pop\n      jump\t// out\n        /* \"#utility.yul\":4128:4436   */\n    tag_171:\n        /* \"#utility.yul\":4190:4194   */\n      0x00\n        /* \"#utility.yul\":4280:4298   */\n      0xffffffffffffffff\n        /* \"#utility.yul\":4272:4278   */\n      dup3\n        /* \"#utility.yul\":4269:4299   */\n      gt\n        /* \"#utility.yul\":4266:4322   */\n      iszero\n      tag_231\n      jumpi\n        /* \"#utility.yul\":4302:4320   */\n      tag_232\n      tag_168\n      jump\t// in\n    tag_232:\n        /* \"#utility.yul\":4266:4322   */\n    tag_231:\n        /* \"#utility.yul\":4340:4369   */\n      tag_233\n        /* \"#utility.yul\":4362:4368   */\n      dup3\n        /* \"#utility.yul\":4340:4369   */\n      tag_160\n      jump\t// in\n    tag_233:\n        /* \"#utility.yul\":4332:4369   */\n      swap1\n      pop\n        /* \"#utility.yul\":4424:4428   */\n      0x20\n        /* \"#utility.yul\":4418:4422   */\n      dup2\n        /* \"#utility.yul\":4414:4429   */\n      add\n        /* \"#utility.yul\":4406:4429   */\n      swap1\n      pop\n        /* \"#utility.yul\":4128:4436   */\n      swap2\n      swap1\n      pop\n      jump\t// out\n        /* \"#utility.yul\":4442:4596   */\n    tag_172:\n        /* \"#utility.yul\":4526:4532   */\n      dup3\n        /* \"#utility.yul\":4521:4524   */\n      dup2\n        /* \"#utility.yul\":4516:4519   */\n      dup4\n        /* \"#utility.yul\":4503:4533   */\n      calldatacopy\n        /* \"#utility.yul\":4588:4589   */\n      0x00\n        /* \"#utility.yul\":4579:4585   */\n      dup4\n        /* \"#utility.yul\":4574:4577   */\n      dup4\n        /* \"#utility.yul\":4570:4586   */\n      add\n        /* \"#utility.yul\":4563:4590   */\n      mstore\n        /* \"#utility.yul\":4442:4596   */\n      pop\n      pop\n      pop\n      jump\t// out\n        /* \"#utility.yul\":4602:5014   */\n    tag_173:\n        /* \"#utility.yul\":4680:4685   */\n      0x00\n        /* \"#utility.yul\":4705:4771   */\n      tag_236\n        /* \"#utility.yul\":4721:4770   */\n      tag_237\n        /* \"#utility.yul\":4763:4769   */\n      dup5\n        /* \"#utility.yul\":4721:4770   */\n      tag_171\n      jump\t// in\n    tag_237:\n        /* \"#utility.yul\":4705:4771   */\n      tag_170\n      jump\t// in\n    tag_236:\n        /* \"#utility.yul\":4696:4771   */\n      swap1\n      pop\n        /* \"#utility.yul\":4794:4800   */\n      dup3\n        /* \"#utility.yul\":4787:4792   */\n      dup2\n        /* \"#utility.yul\":4780:4801   */\n      mstore\n        /* \"#utility.yul\":4832:4836   */\n      0x20\n        /* \"#utility.yul\":4825:4830   */\n      dup2\n        /* \"#utility.yul\":4821:4837   */\n      add\n        /* \"#utility.yul\":4870:4873   */\n      dup5\n        /* \"#utility.yul\":4861:4867   */\n      dup5\n        /* \"#utility.yul\":4856:4859   */\n      dup5\n        /* \"#utility.yul\":4852:4868   */\n      add\n        /* \"#utility.yul\":4849:4874   */\n      gt\n        /* \"#utility.yul\":4846:4958   */\n      iszero\n      tag_238\n      jumpi\n        /* \"#utility.yul\":4877:4956   */\n      tag_239\n      tag_167\n      jump\t// in\n    tag_239:\n        /* \"#utility.yul\":4846:4958   */\n    tag_238:\n        /* \"#utility.yul\":4967:5008   */\n      tag_240\n        /* \"#utility.yul\":5001:5007   */\n      dup5\n        /* \"#utility.yul\":4996:4999   */\n      dup3\n        /* \"#utility.yul\":4991:4994   */\n      dup6\n        /* \"#utility.yul\":4967:5008   */\n      tag_172\n      jump\t// in\n    tag_240:\n        /* \"#utility.yul\":4686:5014   */\n      pop\n        /* \"#utility.yul\":4602:5014   */\n      swap4\n      swap3\n      pop\n      pop\n      pop\n      jump\t// out\n        /* \"#utility.yul\":5034:5374   */\n    tag_174:\n        /* \"#utility.yul\":5090:5095   */\n      0x00\n        /* \"#utility.yul\":5139:5142   */\n      dup3\n        /* \"#utility.yul\":5132:5136   */\n      0x1f\n        /* \"#utility.yul\":5124:5130   */\n      dup4\n        /* \"#utility.yul\":5120:5137   */\n      add\n        /* \"#utility.yul\":5116:5143   */\n      slt\n        /* \"#utility.yul\":5106:5228   */\n      tag_242\n      jumpi\n        /* \"#utility.yul\":5147:5226   */\n      tag_243\n      tag_166\n      jump\t// in\n    tag_243:\n        /* \"#utility.yul\":5106:5228   */\n    tag_242:\n        /* \"#utility.yul\":5264:5270   */\n      dup2\n        /* \"#utility.yul\":5251:5271   */\n      calldataload\n        /* \"#utility.yul\":5289:5368   */\n      tag_244\n        /* \"#utility.yul\":5364:5367   */\n      dup5\n        /* \"#utility.yul\":5356:5362   */\n      dup3\n        /* \"#utility.yul\":5349:5353   */\n      0x20\n        /* \"#utility.yul\":5341:5347   */\n      dup7\n        /* \"#utility.yul\":5337:5354   */\n      add\n        /* \"#utility.yul\":5289:5368   */\n      tag_173\n      jump\t// in\n    tag_244:\n        /* \"#utility.yul\":5280:5368   */\n      swap2\n      pop\n        /* \"#utility.yul\":5096:5374   */\n      pop\n        /* \"#utility.yul\":5034:5374   */\n      swap3\n      swap2\n      pop\n      pop\n      jump\t// out\n        /* \"#utility.yul\":5380:6034   */\n    tag_35:\n        /* \"#utility.yul\":5458:5464   */\n      0x00\n        /* \"#utility.yul\":5466:5472   */\n      dup1\n        /* \"#utility.yul\":5515:5517   */\n      0x40\n        /* \"#utility.yul\":5503:5512   */\n      dup4\n        /* \"#utility.yul\":5494:5501   */\n      dup6\n        /* \"#utility.yul\":5490:5513   */\n      sub\n        /* \"#utility.yul\":5486:5518   */\n      slt\n        /* \"#utility.yul\":5483:5602   */\n      iszero\n      tag_246\n      jumpi\n        /* \"#utility.yul\":5521:5600   */\n      tag_247\n      tag_151\n      jump\t// in\n    tag_247:\n        /* \"#utility.yul\":5483:5602   */\n    tag_246:\n        /* \"#utility.yul\":5641:5642   */\n      0x00\n        /* \"#utility.yul\":5666:5719   */\n      tag_248\n        /* \"#utility.yul\":5711:5718   */\n      dup6\n        /* \"#utility.yul\":5702:5708   */\n      dup3\n        /* \"#utility.yul\":5691:5700   */\n      dup7\n        /* \"#utility.yul\":5687:5709   */\n      add\n        /* \"#utility.yul\":5666:5719   */\n      tag_165\n      jump\t// in\n    tag_248:\n        /* \"#utility.yul\":5656:5719   */\n      swap3\n      pop\n        /* \"#utility.yul\":5612:5729   */\n      pop\n        /* \"#utility.yul\":5796:5798   */\n      0x20\n        /* \"#utility.yul\":5785:5794   */\n      dup4\n        /* \"#utility.yul\":5781:5799   */\n      add\n        /* \"#utility.yul\":5768:5800   */\n      calldataload\n        /* \"#utility.yul\":5827:5845   */\n      0xffffffffffffffff\n        /* \"#utility.yul\":5819:5825   */\n      dup2\n        /* \"#utility.yul\":5816:5846   */\n      gt\n        /* \"#utility.yul\":5813:5930   */\n      iszero\n      tag_249\n      jumpi\n        /* \"#utility.yul\":5849:5928   */\n      tag_250\n      tag_152\n      jump\t// in\n    tag_250:\n        /* \"#utility.yul\":5813:5930   */\n    tag_249:\n        /* \"#utility.yul\":5954:6017   */\n      tag_251\n        /* \"#utility.yul\":6009:6016   */\n      dup6\n        /* \"#utility.yul\":6000:6006   */\n      dup3\n        /* \"#utility.yul\":5989:5998   */\n      dup7\n        /* \"#utility.yul\":5985:6007   */\n      add\n        /* \"#utility.yul\":5954:6017   */\n      tag_174\n      jump\t// in\n    tag_251:\n        /* \"#utility.yul\":5944:6017   */\n      swap2\n      pop\n        /* \"#utility.yul\":5739:6027   */\n      pop\n        /* \"#utility.yul\":5380:6034   */\n      swap3\n      pop\n      swap3\n      swap1\n      pop\n      jump\t// out\n        /* \"#utility.yul\":6040:6369   */\n    tag_46:\n        /* \"#utility.yul\":6099:6105   */\n      0x00\n        /* \"#utility.yul\":6148:6150   */\n      0x20\n        /* \"#utility.yul\":6136:6145   */\n      dup3\n        /* \"#utility.yul\":6127:6134   */\n      dup5\n        /* \"#utility.yul\":6123:6146   */\n      sub\n        /* \"#utility.yul\":6119:6151   */\n      slt\n        /* \"#utility.yul\":6116:6235   */\n      iszero\n      tag_253\n      jumpi\n        /* \"#utility.yul\":6154:6233   */\n      tag_254\n      tag_151\n      jump\t// in\n    tag_254:\n        /* \"#utility.yul\":6116:6235   */\n    tag_253:\n        /* \"#utility.yul\":6274:6275   */\n      0x00\n        /* \"#utility.yul\":6299:6352   */\n      tag_255\n        /* \"#utility.yul\":6344:6351   */\n      dup5\n        /* \"#utility.yul\":6335:6341   */\n      dup3\n        /* \"#utility.yul\":6324:6333   */\n      dup6\n        /* \"#utility.yul\":6320:6342   */\n      add\n        /* \"#utility.yul\":6299:6352   */\n      tag_165\n      jump\t// in\n    tag_255:\n        /* \"#utility.yul\":6289:6352   */\n      swap2\n      pop\n        /* \"#utility.yul\":6245:6362   */\n      pop\n        /* \"#utility.yul\":6040:6369   */\n      swap3\n      swap2\n      pop\n      pop\n      jump\t// out\n        /* \"#utility.yul\":6375:6493   */\n    tag_175:\n        /* \"#utility.yul\":6462:6486   */\n      tag_257\n        /* \"#utility.yul\":6480:6485   */\n      dup2\n        /* \"#utility.yul\":6462:6486   */\n      tag_154\n      jump\t// in\n    tag_257:\n        /* \"#utility.yul\":6457:6460   */\n      dup3\n        /* \"#utility.yul\":6450:6487   */\n      mstore\n        /* \"#utility.yul\":6375:6493   */\n      pop\n      pop\n      jump\t// out\n        /* \"#utility.yul\":6499:6721   */\n    tag_49:\n        /* \"#utility.yul\":6592:6596   */\n      0x00\n        /* \"#utility.yul\":6630:6632   */\n      0x20\n        /* \"#utility.yul\":6619:6628   */\n      dup3\n        /* \"#utility.yul\":6615:6633   */\n      add\n        /* \"#utility.yul\":6607:6633   */\n      swap1\n      pop\n        /* \"#utility.yul\":6643:6714   */\n      tag_259\n        /* \"#utility.yul\":6711:6712   */\n      0x00\n        /* \"#utility.yul\":6700:6709   */\n      dup4\n        /* \"#utility.yul\":6696:6713   */\n      add\n        /* \"#utility.yul\":6687:6693   */\n      dup5\n        /* \"#utility.yul\":6643:6714   */\n      tag_175\n      jump\t// in\n    tag_259:\n        /* \"#utility.yul\":6499:6721   */\n      swap3\n      swap2\n      pop\n      pop\n      jump\t// out\n        /* \"#utility.yul\":6727:7260   */\n    tag_60:\n        /* \"#utility.yul\":6896:6900   */\n      0x00\n        /* \"#utility.yul\":6934:6936   */\n      0x60\n        /* \"#utility.yul\":6923:6932   */\n      dup3\n        /* \"#utility.yul\":6919:6937   */\n      add\n        /* \"#utility.yul\":6911:6937   */\n      swap1\n      pop\n        /* \"#utility.yul\":6947:7018   */\n      tag_261\n        /* \"#utility.yul\":7015:7016   */\n      0x00\n        /* \"#utility.yul\":7004:7013   */\n      dup4\n        /* \"#utility.yul\":7000:7017   */\n      add\n        /* \"#utility.yul\":6991:6997   */\n      dup7\n        /* \"#utility.yul\":6947:7018   */\n      tag_163\n      jump\t// in\n    tag_261:\n        /* \"#utility.yul\":7028:7100   */\n      tag_262\n        /* \"#utility.yul\":7096:7098   */\n      0x20\n        /* \"#utility.yul\":7085:7094   */\n      dup4\n        /* \"#utility.yul\":7081:7099   */\n      add\n        /* \"#utility.yul\":7072:7078   */\n      dup6\n        /* \"#utility.yul\":7028:7100   */\n      tag_175\n      jump\t// in\n    tag_262:\n        /* \"#utility.yul\":7147:7156   */\n      dup2\n        /* \"#utility.yul\":7141:7145   */\n      dup2\n        /* \"#utility.yul\":7137:7157   */\n      sub\n        /* \"#utility.yul\":7132:7134   */\n      0x40\n        /* \"#utility.yul\":7121:7130   */\n      dup4\n        /* \"#utility.yul\":7117:7135   */\n      add\n        /* \"#utility.yul\":7110:7158   */\n      mstore\n        /* \"#utility.yul\":7175:7253   */\n      tag_263\n        /* \"#utility.yul\":7248:7252   */\n      dup2\n        /* \"#utility.yul\":7239:7245   */\n      dup5\n        /* \"#utility.yul\":7175:7253   */\n      tag_161\n      jump\t// in\n    tag_263:\n        /* \"#utility.yul\":7167:7253   */\n      swap1\n      pop\n        /* \"#utility.yul\":6727:7260   */\n      swap5\n      swap4\n      pop\n      pop\n      pop\n      pop\n      jump\t// out\n        /* \"#utility.yul\":7266:8065   */\n    tag_76:\n        /* \"#utility.yul\":7353:7359   */\n      0x00\n        /* \"#utility.yul\":7361:7367   */\n      dup1\n        /* \"#utility.yul\":7369:7375   */\n      0x00\n        /* \"#utility.yul\":7418:7420   */\n      0x60\n        /* \"#utility.yul\":7406:7415   */\n      dup5\n        /* \"#utility.yul\":7397:7404   */\n      dup7\n        /* \"#utility.yul\":7393:7416   */\n      sub\n        /* \"#utility.yul\":7389:7421   */\n      slt\n        /* \"#utility.yul\":7386:7505   */\n      iszero\n      tag_265\n      jumpi\n        /* \"#utility.yul\":7424:7503   */\n      tag_266\n      tag_151\n      jump\t// in\n    tag_266:\n        /* \"#utility.yul\":7386:7505   */\n    tag_265:\n        /* \"#utility.yul\":7572:7573   */\n      0x00\n        /* \"#utility.yul\":7561:7570   */\n      dup5\n        /* \"#utility.yul\":7557:7574   */\n      add\n        /* \"#utility.yul\":7544:7575   */\n      calldataload\n        /* \"#utility.yul\":7602:7620   */\n      0xffffffffffffffff\n        /* \"#utility.yul\":7594:7600   */\n      dup2\n        /* \"#utility.yul\":7591:7621   */\n      gt\n        /* \"#utility.yul\":7588:7705   */\n      iszero\n      tag_267\n      jumpi\n        /* \"#utility.yul\":7624:7703   */\n      tag_268\n      tag_152\n      jump\t// in\n    tag_268:\n        /* \"#utility.yul\":7588:7705   */\n    tag_267:\n        /* \"#utility.yul\":7729:7792   */\n      tag_269\n        /* \"#utility.yul\":7784:7791   */\n      dup7\n        /* \"#utility.yul\":7775:7781   */\n      dup3\n        /* \"#utility.yul\":7764:7773   */\n      dup8\n        /* \"#utility.yul\":7760:7782   */\n      add\n        /* \"#utility.yul\":7729:7792   */\n      tag_174\n      jump\t// in\n    tag_269:\n        /* \"#utility.yul\":7719:7792   */\n      swap4\n      pop\n        /* \"#utility.yul\":7515:7802   */\n      pop\n        /* \"#utility.yul\":7841:7843   */\n      0x20\n        /* \"#utility.yul\":7867:7920   */\n      tag_270\n        /* \"#utility.yul\":7912:7919   */\n      dup7\n        /* \"#utility.yul\":7903:7909   */\n      dup3\n        /* \"#utility.yul\":7892:7901   */\n      dup8\n        /* \"#utility.yul\":7888:7910   */\n      add\n        /* \"#utility.yul\":7867:7920   */\n      tag_165\n      jump\t// in\n    tag_270:\n        /* \"#utility.yul\":7857:7920   */\n      swap3\n      pop\n        /* \"#utility.yul\":7812:7930   */\n      pop\n        /* \"#utility.yul\":7969:7971   */\n      0x40\n        /* \"#utility.yul\":7995:8048   */\n      tag_271\n        /* \"#utility.yul\":8040:8047   */\n      dup7\n        /* \"#utility.yul\":8031:8037   */\n      dup3\n        /* \"#utility.yul\":8020:8029   */\n      dup8\n        /* \"#utility.yul\":8016:8038   */\n      add\n        /* \"#utility.yul\":7995:8048   */\n      tag_165\n      jump\t// in\n    tag_271:\n        /* \"#utility.yul\":7985:8048   */\n      swap2\n      pop\n        /* \"#utility.yul\":7940:8058   */\n      pop\n        /* \"#utility.yul\":7266:8065   */\n      swap3\n      pop\n      swap3\n      pop\n      swap3\n      jump\t// out\n        /* \"#utility.yul\":8071:8580   */\n    tag_85:\n        /* \"#utility.yul\":8140:8146   */\n      0x00\n        /* \"#utility.yul\":8189:8191   */\n      0x20\n        /* \"#utility.yul\":8177:8186   */\n      dup3\n        /* \"#utility.yul\":8168:8175   */\n      dup5\n        /* \"#utility.yul\":8164:8187   */\n      sub\n        /* \"#utility.yul\":8160:8192   */\n      slt\n        /* \"#utility.yul\":8157:8276   */\n      iszero\n      tag_273\n      jumpi\n        /* \"#utility.yul\":8195:8274   */\n      tag_274\n      tag_151\n      jump\t// in\n    tag_274:\n        /* \"#utility.yul\":8157:8276   */\n    tag_273:\n        /* \"#utility.yul\":8343:8344   */\n      0x00\n        /* \"#utility.yul\":8332:8341   */\n      dup3\n        /* \"#utility.yul\":8328:8345   */\n      add\n        /* \"#utility.yul\":8315:8346   */\n      calldataload\n        /* \"#utility.yul\":8373:8391   */\n      0xffffffffffffffff\n        /* \"#utility.yul\":8365:8371   */\n      dup2\n        /* \"#utility.yul\":8362:8392   */\n      gt\n        /* \"#utility.yul\":8359:8476   */\n      iszero\n      tag_275\n      jumpi\n        /* \"#utility.yul\":8395:8474   */\n      tag_276\n      tag_152\n      jump\t// in\n    tag_276:\n        /* \"#utility.yul\":8359:8476   */\n    tag_275:\n        /* \"#utility.yul\":8500:8563   */\n      tag_277\n        /* \"#utility.yul\":8555:8562   */\n      dup5\n        /* \"#utility.yul\":8546:8552   */\n      dup3\n        /* \"#utility.yul\":8535:8544   */\n      dup6\n        /* \"#utility.yul\":8531:8553   */\n      add\n        /* \"#utility.yul\":8500:8563   */\n      tag_174\n      jump\t// in\n    tag_277:\n        /* \"#utility.yul\":8490:8563   */\n      swap2\n      pop\n        /* \"#utility.yul\":8286:8573   */\n      pop\n        /* \"#utility.yul\":8071:8580   */\n      swap3\n      swap2\n      pop\n      pop\n      jump\t// out\n        /* \"#utility.yul\":8586:8766   */\n    tag_176:\n        /* \"#utility.yul\":8634:8711   */\n      0x4e487b7100000000000000000000000000000000000000000000000000000000\n        /* \"#utility.yul\":8631:8632   */\n      0x00\n        /* \"#utility.yul\":8624:8712   */\n      mstore\n        /* \"#utility.yul\":8731:8735   */\n      0x22\n        /* \"#utility.yul\":8728:8729   */\n      0x04\n        /* \"#utility.yul\":8721:8736   */\n      mstore\n        /* \"#utility.yul\":8755:8759   */\n      0x24\n        /* \"#utility.yul\":8752:8753   */\n      0x00\n        /* \"#utility.yul\":8745:8760   */\n      revert\n        /* \"#utility.yul\":8772:9092   */\n    tag_89:\n        /* \"#utility.yul\":8816:8822   */\n      0x00\n        /* \"#utility.yul\":8853:8854   */\n      0x02\n        /* \"#utility.yul\":8847:8851   */\n      dup3\n        /* \"#utility.yul\":8843:8855   */\n      div\n        /* \"#utility.yul\":8833:8855   */\n      swap1\n      pop\n        /* \"#utility.yul\":8900:8901   */\n      0x01\n        /* \"#utility.yul\":8894:8898   */\n      dup3\n        /* \"#utility.yul\":8890:8902   */\n      and\n        /* \"#utility.yul\":8921:8939   */\n      dup1\n        /* \"#utility.yul\":8911:8992   */\n      tag_280\n      jumpi\n        /* \"#utility.yul\":8977:8981   */\n      0x7f\n        /* \"#utility.yul\":8969:8975   */\n      dup3\n        /* \"#utility.yul\":8965:8982   */\n      and\n        /* \"#utility.yul\":8955:8982   */\n      swap2\n      pop\n        /* \"#utility.yul\":8911:8992   */\n    tag_280:\n        /* \"#utility.yul\":9039:9041   */\n      0x20\n        /* \"#utility.yul\":9031:9037   */\n      dup3\n        /* \"#utility.yul\":9028:9042   */\n      lt\n        /* \"#utility.yul\":9008:9026   */\n      dup2\n        /* \"#utility.yul\":9005:9043   */\n      sub\n        /* \"#utility.yul\":9002:9086   */\n      tag_281\n      jumpi\n        /* \"#utility.yul\":9058:9076   */\n      tag_282\n      tag_176\n      jump\t// in\n    tag_282:\n        /* \"#utility.yul\":9002:9086   */\n    tag_281:\n        /* \"#utility.yul\":8823:9092   */\n      pop\n        /* \"#utility.yul\":8772:9092   */\n      swap2\n      swap1\n      pop\n      jump\t// out\n        /* \"#utility.yul\":9098:9278   */\n    tag_105:\n        /* \"#utility.yul\":9146:9223   */\n      0x4e487b7100000000000000000000000000000000000000000000000000000000\n        /* \"#utility.yul\":9143:9144   */\n      0x00\n        /* \"#utility.yul\":9136:9224   */\n      mstore\n        /* \"#utility.yul\":9243:9247   */\n      0x32\n        /* \"#utility.yul\":9240:9241   */\n      0x04\n        /* \"#utility.yul\":9233:9248   */\n      mstore\n        /* \"#utility.yul\":9267:9271   */\n      0x24\n        /* \"#utility.yul\":9264:9265   */\n      0x00\n        /* \"#utility.yul\":9257:9272   */\n      revert\n        /* \"#utility.yul\":9284:9510   */\n    tag_177:\n        /* \"#utility.yul\":9424:9458   */\n      0x4f6e6c792061756374696f6e6565722063616e2063616c6c2074686973206675\n        /* \"#utility.yul\":9420:9421   */\n      0x00\n        /* \"#utility.yul\":9412:9418   */\n      dup3\n        /* \"#utility.yul\":9408:9422   */\n      add\n        /* \"#utility.yul\":9401:9459   */\n      mstore\n        /* \"#utility.yul\":9493:9502   */\n      0x6e6374696f6e2e00000000000000000000000000000000000000000000000000\n        /* \"#utility.yul\":9488:9490   */\n      0x20\n        /* \"#utility.yul\":9480:9486   */\n      dup3\n        /* \"#utility.yul\":9476:9491   */\n      add\n        /* \"#utility.yul\":9469:9503   */\n      mstore\n        /* \"#utility.yul\":9284:9510   */\n      pop\n      jump\t// out\n        /* \"#utility.yul\":9516:9882   */\n    tag_178:\n        /* \"#utility.yul\":9658:9661   */\n      0x00\n        /* \"#utility.yul\":9679:9746   */\n      tag_286\n        /* \"#utility.yul\":9743:9745   */\n      0x27\n        /* \"#utility.yul\":9738:9741   */\n      dup4\n        /* \"#utility.yul\":9679:9746   */\n      tag_158\n      jump\t// in\n    tag_286:\n        /* \"#utility.yul\":9672:9746   */\n      swap2\n      pop\n        /* \"#utility.yul\":9755:9848   */\n      tag_287\n        /* \"#utility.yul\":9844:9847   */\n      dup3\n        /* \"#utility.yul\":9755:9848   */\n      tag_177\n      jump\t// in\n    tag_287:\n        /* \"#utility.yul\":9873:9875   */\n      0x40\n        /* \"#utility.yul\":9868:9871   */\n      dup3\n        /* \"#utility.yul\":9864:9876   */\n      add\n        /* \"#utility.yul\":9857:9876   */\n      swap1\n      pop\n        /* \"#utility.yul\":9516:9882   */\n      swap2\n      swap1\n      pop\n      jump\t// out\n        /* \"#utility.yul\":9888:10307   */\n    tag_133:\n        /* \"#utility.yul\":10054:10058   */\n      0x00\n        /* \"#utility.yul\":10092:10094   */\n      0x20\n        /* \"#utility.yul\":10081:10090   */\n      dup3\n        /* \"#utility.yul\":10077:10095   */\n      add\n        /* \"#utility.yul\":10069:10095   */\n      swap1\n      pop\n        /* \"#utility.yul\":10141:10150   */\n      dup2\n        /* \"#utility.yul\":10135:10139   */\n      dup2\n        /* \"#utility.yul\":10131:10151   */\n      sub\n        /* \"#utility.yul\":10127:10128   */\n      0x00\n        /* \"#utility.yul\":10116:10125   */\n      dup4\n        /* \"#utility.yul\":10112:10129   */\n      add\n        /* \"#utility.yul\":10105:10152   */\n      mstore\n        /* \"#utility.yul\":10169:10300   */\n      tag_289\n        /* \"#utility.yul\":10295:10299   */\n      dup2\n        /* \"#utility.yul\":10169:10300   */\n      tag_178\n      jump\t// in\n    tag_289:\n        /* \"#utility.yul\":10161:10300   */\n      swap1\n      pop\n        /* \"#utility.yul\":9888:10307   */\n      swap2\n      swap1\n      pop\n      jump\t// out\n\n    auxdata: 0xa2646970667358221220aa56cd6234690d2a2c6ce18304528d0622a431d599d94a3e542373aab100703f64736f6c634300080e0033\n}\n",
				"bytecode": {
					"linkReferences": {},
					"object": "608060405234801561001057600080fd5b506110f8806100206000396000f3fe608060405234801561001057600080fd5b506004361061010b5760003560e01c80638f772f96116100a2578063daa0218f11610071578063daa0218f146102d0578063e7d2a997146102ee578063ed7a4e0b1461030a578063f356733c14610328578063ff567d8d146103325761010b565b80638f772f9614610232578063938626c214610264578063cff29dfd14610282578063d476620b146102b25761010b565b80633817df4c116100de5780633817df4c146101985780635fa38280146101c857806366c85dee146101f857806383050daa146102145761010b565b806305fb23cf1461011057806311631d06146101405780631744e03b1461015e57806334eb86a21461017a575b600080fd5b61012a60048036038101906101259190610b7b565b61034e565b6040516101379190610c41565b60405180910390f35b61014861041f565b6040516101559190610c7c565b60405180910390f35b61017860048036038101906101739190610df8565b610425565b005b610182610488565b60405161018f9190610c7c565b60405180910390f35b6101b260048036038101906101ad9190610b7b565b61048e565b6040516101bf9190610c41565b60405180910390f35b6101e260048036038101906101dd9190610e54565b61052e565b6040516101ef9190610e90565b60405180910390f35b610212600480360381019061020d9190610df8565b610576565b005b61021c61064c565b6040516102299190610c41565b60405180910390f35b61024c60048036038101906102479190610e54565b610689565b60405161025b93929190610eab565b60405180910390f35b61026c61076b565b6040516102799190610c41565b60405180910390f35b61029c60048036038101906102979190610e54565b6107f9565b6040516102a99190610e90565b60405180910390f35b6102ba610838565b6040516102c79190610c41565b60405180910390f35b6102d86108c6565b6040516102e59190610c7c565b60405180910390f35b61030860048036038101906103039190610ee9565b6108cc565b005b610312610984565b60405161031f9190610e90565b60405180910390f35b6103306109aa565b005b61034c60048036038101906103479190610f58565b610a0f565b005b6060600560008373ffffffffffffffffffffffffffffffffffffffff1673ffffffffffffffffffffffffffffffffffffffff168152602001908152602001600020805461039a90610fd0565b80601f01602080910402602001604051908101604052809291908181526020018280546103c690610fd0565b80156104135780601f106103e857610100808354040283529160200191610413565b820191906000526020600020905b8154815290600101906020018083116103f657829003601f168201915b50505050509050919050565b60075481565b33600660006101000a81548173ffffffffffffffffffffffffffffffffffffffff021916908373ffffffffffffffffffffffffffffffffffffffff160217905550816007819055508060089080519060200190610483929190610a66565b505050565b60035481565b600560205280600052604060002060009150905080546104ad90610fd0565b80601f01602080910402602001604051908101604052809291908181526020018280546104d990610fd0565b80156105265780601f106104fb57610100808354040283529160200191610526565b820191906000526020600020905b81548152906001019060200180831161050957829003601f168201915b505050505081565b60006001828154811061054457610543611001565b5b9060005260206000200160009054906101000a900473ffffffffffffffffffffffffffffffffffffffff169050919050565b600060405180606001604052808481526020013373ffffffffffffffffffffffffffffffffffffffff16815260200183815250905060098190806001815401808255809150506001900390600052602060002090600302016000909190919091506000820151816000015560208201518160010160006101000a81548173ffffffffffffffffffffffffffffffffffffffff021916908373ffffffffffffffffffffffffffffffffffffffff1602179055506040820151816002019080519060200190610644929190610a66565b505050505050565b60606040518060400160405280601781526020017f73616d706c6520737472696e672066726f6d20414b4542000000000000000000815250905090565b6009818154811061069957600080fd5b90600052602060002090600302016000915090508060000154908060010160009054906101000a900473ffffffffffffffffffffffffffffffffffffffff16908060020180546106e890610fd0565b80601f016020809104026020016040519081016040528092919081815260200182805461071490610fd0565b80156107615780601f1061073657610100808354040283529160200191610761565b820191906000526020600020905b81548152906001019060200180831161074457829003601f168201915b5050505050905083565b6002805461077890610fd0565b80601f01602080910402602001604051908101604052809291908181526020018280546107a490610fd0565b80156107f15780601f106107c6576101008083540402835291602001916107f1565b820191906000526020600020905b8154815290600101906020018083116107d457829003601f168201915b505050505081565b6001818154811061080957600080fd5b906000526020600020016000915054906101000a900473ffffffffffffffffffffffffffffffffffffffff1681565b6008805461084590610fd0565b80601f016020809104026020016040519081016040528092919081815260200182805461087190610fd0565b80156108be5780601f10610893576101008083540402835291602001916108be565b820191906000526020600020905b8154815290600101906020018083116108a157829003601f168201915b505050505081565b60045481565b60008054906101000a900473ffffffffffffffffffffffffffffffffffffffff1673ffffffffffffffffffffffffffffffffffffffff163373ffffffffffffffffffffffffffffffffffffffff161461095a576040517f08c379a0000000000000000000000000000000000000000000000000000000008152600401610951906110a2565b60405180910390fd5b8260029080519060200190610970929190610a66565b508160038190555080600481905550505050565b600660009054906101000a900473ffffffffffffffffffffffffffffffffffffffff1681565b6001339080600181540180825580915050600190039060005260206000200160009091909190916101000a81548173ffffffffffffffffffffffffffffffffffffffff021916908373ffffffffffffffffffffffffffffffffffffffff160217905550565b80600560003373ffffffffffffffffffffffffffffffffffffffff1673ffffffffffffffffffffffffffffffffffffffff1681526020019081526020016000209080519060200190610a62929190610a66565b5050565b828054610a7290610fd0565b90600052602060002090601f016020900481019282610a945760008555610adb565b82601f10610aad57805160ff1916838001178555610adb565b82800160010185558215610adb579182015b82811115610ada578251825591602001919060010190610abf565b5b509050610ae89190610aec565b5090565b5b80821115610b05576000816000905550600101610aed565b5090565b6000604051905090565b600080fd5b600080fd5b600073ffffffffffffffffffffffffffffffffffffffff82169050919050565b6000610b4882610b1d565b9050919050565b610b5881610b3d565b8114610b6357600080fd5b50565b600081359050610b7581610b4f565b92915050565b600060208284031215610b9157610b90610b13565b5b6000610b9f84828501610b66565b91505092915050565b600081519050919050565b600082825260208201905092915050565b60005b83811015610be2578082015181840152602081019050610bc7565b83811115610bf1576000848401525b50505050565b6000601f19601f8301169050919050565b6000610c1382610ba8565b610c1d8185610bb3565b9350610c2d818560208601610bc4565b610c3681610bf7565b840191505092915050565b60006020820190508181036000830152610c5b8184610c08565b905092915050565b6000819050919050565b610c7681610c63565b82525050565b6000602082019050610c916000830184610c6d565b92915050565b610ca081610c63565b8114610cab57600080fd5b50565b600081359050610cbd81610c97565b92915050565b600080fd5b600080fd5b7f4e487b7100000000000000000000000000000000000000000000000000000000600052604160045260246000fd5b610d0582610bf7565b810181811067ffffffffffffffff82111715610d2457610d23610ccd565b5b80604052505050565b6000610d37610b09565b9050610d438282610cfc565b919050565b600067ffffffffffffffff821115610d6357610d62610ccd565b5b610d6c82610bf7565b9050602081019050919050565b82818337600083830152505050565b6000610d9b610d9684610d48565b610d2d565b905082815260208101848484011115610db757610db6610cc8565b5b610dc2848285610d79565b509392505050565b600082601f830112610ddf57610dde610cc3565b5b8135610def848260208601610d88565b91505092915050565b60008060408385031215610e0f57610e0e610b13565b5b6000610e1d85828601610cae565b925050602083013567ffffffffffffffff811115610e3e57610e3d610b18565b5b610e4a85828601610dca565b9150509250929050565b600060208284031215610e6a57610e69610b13565b5b6000610e7884828501610cae565b91505092915050565b610e8a81610b3d565b82525050565b6000602082019050610ea56000830184610e81565b92915050565b6000606082019050610ec06000830186610c6d565b610ecd6020830185610e81565b8181036040830152610edf8184610c08565b9050949350505050565b600080600060608486031215610f0257610f01610b13565b5b600084013567ffffffffffffffff811115610f2057610f1f610b18565b5b610f2c86828701610dca565b9350506020610f3d86828701610cae565b9250506040610f4e86828701610cae565b9150509250925092565b600060208284031215610f6e57610f6d610b13565b5b600082013567ffffffffffffffff811115610f8c57610f8b610b18565b5b610f9884828501610dca565b91505092915050565b7f4e487b7100000000000000000000000000000000000000000000000000000000600052602260045260246000fd5b60006002820490506001821680610fe857607f821691505b602082108103610ffb57610ffa610fa1565b5b50919050565b7f4e487b7100000000000000000000000000000000000000000000000000000000600052603260045260246000fd5b7f4f6e6c792061756374696f6e6565722063616e2063616c6c207468697320667560008201527f6e6374696f6e2e00000000000000000000000000000000000000000000000000602082015250565b600061108c602783610bb3565b915061109782611030565b604082019050919050565b600060208201905081810360008301526110bb8161107f565b905091905056fea2646970667358221220aa56cd6234690d2a2c6ce18304528d0622a431d599d94a3e542373aab100703f64736f6c634300080e0033",
					"opcodes": "PUSH1 0x80 PUSH1 0x40 MSTORE CALLVALUE DUP1 ISZERO PUSH2 0x10 JUMPI PUSH1 0x0 DUP1 REVERT JUMPDEST POP PUSH2 0x10F8 DUP1 PUSH2 0x20 PUSH1 0x0 CODECOPY PUSH1 0x0 RETURN INVALID PUSH1 0x80 PUSH1 0x40 MSTORE CALLVALUE DUP1 ISZERO PUSH2 0x10 JUMPI PUSH1 0x0 DUP1 REVERT JUMPDEST POP PUSH1 0x4 CALLDATASIZE LT PUSH2 0x10B JUMPI PUSH1 0x0 CALLDATALOAD PUSH1 0xE0 SHR DUP1 PUSH4 0x8F772F96 GT PUSH2 0xA2 JUMPI DUP1 PUSH4 0xDAA0218F GT PUSH2 0x71 JUMPI DUP1 PUSH4 0xDAA0218F EQ PUSH2 0x2D0 JUMPI DUP1 PUSH4 0xE7D2A997 EQ PUSH2 0x2EE JUMPI DUP1 PUSH4 0xED7A4E0B EQ PUSH2 0x30A JUMPI DUP1 PUSH4 0xF356733C EQ PUSH2 0x328 JUMPI DUP1 PUSH4 0xFF567D8D EQ PUSH2 0x332 JUMPI PUSH2 0x10B JUMP JUMPDEST DUP1 PUSH4 0x8F772F96 EQ PUSH2 0x232 JUMPI DUP1 PUSH4 0x938626C2 EQ PUSH2 0x264 JUMPI DUP1 PUSH4 0xCFF29DFD EQ PUSH2 0x282 JUMPI DUP1 PUSH4 0xD476620B EQ PUSH2 0x2B2 JUMPI PUSH2 0x10B JUMP JUMPDEST DUP1 PUSH4 0x3817DF4C GT PUSH2 0xDE JUMPI DUP1 PUSH4 0x3817DF4C EQ PUSH2 0x198 JUMPI DUP1 PUSH4 0x5FA38280 EQ PUSH2 0x1C8 JUMPI DUP1 PUSH4 0x66C85DEE EQ PUSH2 0x1F8 JUMPI DUP1 PUSH4 0x83050DAA EQ PUSH2 0x214 JUMPI PUSH2 0x10B JUMP JUMPDEST DUP1 PUSH4 0x5FB23CF EQ PUSH2 0x110 JUMPI DUP1 PUSH4 0x11631D06 EQ PUSH2 0x140 JUMPI DUP1 PUSH4 0x1744E03B EQ PUSH2 0x15E JUMPI DUP1 PUSH4 0x34EB86A2 EQ PUSH2 0x17A JUMPI JUMPDEST PUSH1 0x0 DUP1 REVERT JUMPDEST PUSH2 0x12A PUSH1 0x4 DUP1 CALLDATASIZE SUB DUP2 ADD SWAP1 PUSH2 0x125 SWAP2 SWAP1 PUSH2 0xB7B JUMP JUMPDEST PUSH2 0x34E JUMP JUMPDEST PUSH1 0x40 MLOAD PUSH2 0x137 SWAP2 SWAP1 PUSH2 0xC41 JUMP JUMPDEST PUSH1 0x40 MLOAD DUP1 SWAP2 SUB SWAP1 RETURN JUMPDEST PUSH2 0x148 PUSH2 0x41F JUMP JUMPDEST PUSH1 0x40 MLOAD PUSH2 0x155 SWAP2 SWAP1 PUSH2 0xC7C JUMP JUMPDEST PUSH1 0x40 MLOAD DUP1 SWAP2 SUB SWAP1 RETURN JUMPDEST PUSH2 0x178 PUSH1 0x4 DUP1 CALLDATASIZE SUB DUP2 ADD SWAP1 PUSH2 0x173 SWAP2 SWAP1 PUSH2 0xDF8 JUMP JUMPDEST PUSH2 0x425 JUMP JUMPDEST STOP JUMPDEST PUSH2 0x182 PUSH2 0x488 JUMP JUMPDEST PUSH1 0x40 MLOAD PUSH2 0x18F SWAP2 SWAP1 PUSH2 0xC7C JUMP JUMPDEST PUSH1 0x40 MLOAD DUP1 SWAP2 SUB SWAP1 RETURN JUMPDEST PUSH2 0x1B2 PUSH1 0x4 DUP1 CALLDATASIZE SUB DUP2 ADD SWAP1 PUSH2 0x1AD SWAP2 SWAP1 PUSH2 0xB7B JUMP JUMPDEST PUSH2 0x48E JUMP JUMPDEST PUSH1 0x40 MLOAD PUSH2 0x1BF SWAP2 SWAP1 PUSH2 0xC41 JUMP JUMPDEST PUSH1 0x40 MLOAD DUP1 SWAP2 SUB SWAP1 RETURN JUMPDEST PUSH2 0x1E2 PUSH1 0x4 DUP1 CALLDATASIZE SUB DUP2 ADD SWAP1 PUSH2 0x1DD SWAP2 SWAP1 PUSH2 0xE54 JUMP JUMPDEST PUSH2 0x52E JUMP JUMPDEST PUSH1 0x40 MLOAD PUSH2 0x1EF SWAP2 SWAP1 PUSH2 0xE90 JUMP JUMPDEST PUSH1 0x40 MLOAD DUP1 SWAP2 SUB SWAP1 RETURN JUMPDEST PUSH2 0x212 PUSH1 0x4 DUP1 CALLDATASIZE SUB DUP2 ADD SWAP1 PUSH2 0x20D SWAP2 SWAP1 PUSH2 0xDF8 JUMP JUMPDEST PUSH2 0x576 JUMP JUMPDEST STOP JUMPDEST PUSH2 0x21C PUSH2 0x64C JUMP JUMPDEST PUSH1 0x40 MLOAD PUSH2 0x229 SWAP2 SWAP1 PUSH2 0xC41 JUMP JUMPDEST PUSH1 0x40 MLOAD DUP1 SWAP2 SUB SWAP1 RETURN JUMPDEST PUSH2 0x24C PUSH1 0x4 DUP1 CALLDATASIZE SUB DUP2 ADD SWAP1 PUSH2 0x247 SWAP2 SWAP1 PUSH2 0xE54 JUMP JUMPDEST PUSH2 0x689 JUMP JUMPDEST PUSH1 0x40 MLOAD PUSH2 0x25B SWAP4 SWAP3 SWAP2 SWAP1 PUSH2 0xEAB JUMP JUMPDEST PUSH1 0x40 MLOAD DUP1 SWAP2 SUB SWAP1 RETURN JUMPDEST PUSH2 0x26C PUSH2 0x76B JUMP JUMPDEST PUSH1 0x40 MLOAD PUSH2 0x279 SWAP2 SWAP1 PUSH2 0xC41 JUMP JUMPDEST PUSH1 0x40 MLOAD DUP1 SWAP2 SUB SWAP1 RETURN JUMPDEST PUSH2 0x29C PUSH1 0x4 DUP1 CALLDATASIZE SUB DUP2 ADD SWAP1 PUSH2 0x297 SWAP2 SWAP1 PUSH2 0xE54 JUMP JUMPDEST PUSH2 0x7F9 JUMP JUMPDEST PUSH1 0x40 MLOAD PUSH2 0x2A9 SWAP2 SWAP1 PUSH2 0xE90 JUMP JUMPDEST PUSH1 0x40 MLOAD DUP1 SWAP2 SUB SWAP1 RETURN JUMPDEST PUSH2 0x2BA PUSH2 0x838 JUMP JUMPDEST PUSH1 0x40 MLOAD PUSH2 0x2C7 SWAP2 SWAP1 PUSH2 0xC41 JUMP JUMPDEST PUSH1 0x40 MLOAD DUP1 SWAP2 SUB SWAP1 RETURN JUMPDEST PUSH2 0x2D8 PUSH2 0x8C6 JUMP JUMPDEST PUSH1 0x40 MLOAD PUSH2 0x2E5 SWAP2 SWAP1 PUSH2 0xC7C JUMP JUMPDEST PUSH1 0x40 MLOAD DUP1 SWAP2 SUB SWAP1 RETURN JUMPDEST PUSH2 0x308 PUSH1 0x4 DUP1 CALLDATASIZE SUB DUP2 ADD SWAP1 PUSH2 0x303 SWAP2 SWAP1 PUSH2 0xEE9 JUMP JUMPDEST PUSH2 0x8CC JUMP JUMPDEST STOP JUMPDEST PUSH2 0x312 PUSH2 0x984 JUMP JUMPDEST PUSH1 0x40 MLOAD PUSH2 0x31F SWAP2 SWAP1 PUSH2 0xE90 JUMP JUMPDEST PUSH1 0x40 MLOAD DUP1 SWAP2 SUB SWAP1 RETURN JUMPDEST PUSH2 0x330 PUSH2 0x9AA JUMP JUMPDEST STOP JUMPDEST PUSH2 0x34C PUSH1 0x4 DUP1 CALLDATASIZE SUB DUP2 ADD SWAP1 PUSH2 0x347 SWAP2 SWAP1 PUSH2 0xF58 JUMP JUMPDEST PUSH2 0xA0F JUMP JUMPDEST STOP JUMPDEST PUSH1 0x60 PUSH1 0x5 PUSH1 0x0 DUP4 PUSH20 0xFFFFFFFFFFFFFFFFFFFFFFFFFFFFFFFFFFFFFFFF AND PUSH20 0xFFFFFFFFFFFFFFFFFFFFFFFFFFFFFFFFFFFFFFFF AND DUP2 MSTORE PUSH1 0x20 ADD SWAP1 DUP2 MSTORE PUSH1 0x20 ADD PUSH1 0x0 KECCAK256 DUP1 SLOAD PUSH2 0x39A SWAP1 PUSH2 0xFD0 JUMP JUMPDEST DUP1 PUSH1 0x1F ADD PUSH1 0x20 DUP1 SWAP2 DIV MUL PUSH1 0x20 ADD PUSH1 0x40 MLOAD SWAP1 DUP2 ADD PUSH1 0x40 MSTORE DUP1 SWAP3 SWAP2 SWAP1 DUP2 DUP2 MSTORE PUSH1 0x20 ADD DUP3 DUP1 SLOAD PUSH2 0x3C6 SWAP1 PUSH2 0xFD0 JUMP JUMPDEST DUP1 ISZERO PUSH2 0x413 JUMPI DUP1 PUSH1 0x1F LT PUSH2 0x3E8 JUMPI PUSH2 0x100 DUP1 DUP4 SLOAD DIV MUL DUP4 MSTORE SWAP2 PUSH1 0x20 ADD SWAP2 PUSH2 0x413 JUMP JUMPDEST DUP3 ADD SWAP2 SWAP1 PUSH1 0x0 MSTORE PUSH1 0x20 PUSH1 0x0 KECCAK256 SWAP1 JUMPDEST DUP2 SLOAD DUP2 MSTORE SWAP1 PUSH1 0x1 ADD SWAP1 PUSH1 0x20 ADD DUP1 DUP4 GT PUSH2 0x3F6 JUMPI DUP3 SWAP1 SUB PUSH1 0x1F AND DUP3 ADD SWAP2 JUMPDEST POP POP POP POP POP SWAP1 POP SWAP2 SWAP1 POP JUMP JUMPDEST PUSH1 0x7 SLOAD DUP2 JUMP JUMPDEST CALLER PUSH1 0x6 PUSH1 0x0 PUSH2 0x100 EXP DUP2 SLOAD DUP2 PUSH20 0xFFFFFFFFFFFFFFFFFFFFFFFFFFFFFFFFFFFFFFFF MUL NOT AND SWAP1 DUP4 PUSH20 0xFFFFFFFFFFFFFFFFFFFFFFFFFFFFFFFFFFFFFFFF AND MUL OR SWAP1 SSTORE POP DUP2 PUSH1 0x7 DUP2 SWAP1 SSTORE POP DUP1 PUSH1 0x8 SWAP1 DUP1 MLOAD SWAP1 PUSH1 0x20 ADD SWAP1 PUSH2 0x483 SWAP3 SWAP2 SWAP1 PUSH2 0xA66 JUMP JUMPDEST POP POP POP JUMP JUMPDEST PUSH1 0x3 SLOAD DUP2 JUMP JUMPDEST PUSH1 0x5 PUSH1 0x20 MSTORE DUP1 PUSH1 0x0 MSTORE PUSH1 0x40 PUSH1 0x0 KECCAK256 PUSH1 0x0 SWAP2 POP SWAP1 POP DUP1 SLOAD PUSH2 0x4AD SWAP1 PUSH2 0xFD0 JUMP JUMPDEST DUP1 PUSH1 0x1F ADD PUSH1 0x20 DUP1 SWAP2 DIV MUL PUSH1 0x20 ADD PUSH1 0x40 MLOAD SWAP1 DUP2 ADD PUSH1 0x40 MSTORE DUP1 SWAP3 SWAP2 SWAP1 DUP2 DUP2 MSTORE PUSH1 0x20 ADD DUP3 DUP1 SLOAD PUSH2 0x4D9 SWAP1 PUSH2 0xFD0 JUMP JUMPDEST DUP1 ISZERO PUSH2 0x526 JUMPI DUP1 PUSH1 0x1F LT PUSH2 0x4FB JUMPI PUSH2 0x100 DUP1 DUP4 SLOAD DIV MUL DUP4 MSTORE SWAP2 PUSH1 0x20 ADD SWAP2 PUSH2 0x526 JUMP JUMPDEST DUP3 ADD SWAP2 SWAP1 PUSH1 0x0 MSTORE PUSH1 0x20 PUSH1 0x0 KECCAK256 SWAP1 JUMPDEST DUP2 SLOAD DUP2 MSTORE SWAP1 PUSH1 0x1 ADD SWAP1 PUSH1 0x20 ADD DUP1 DUP4 GT PUSH2 0x509 JUMPI DUP3 SWAP1 SUB PUSH1 0x1F AND DUP3 ADD SWAP2 JUMPDEST POP POP POP POP POP DUP2 JUMP JUMPDEST PUSH1 0x0 PUSH1 0x1 DUP3 DUP2 SLOAD DUP2 LT PUSH2 0x544 JUMPI PUSH2 0x543 PUSH2 0x1001 JUMP JUMPDEST JUMPDEST SWAP1 PUSH1 0x0 MSTORE PUSH1 0x20 PUSH1 0x0 KECCAK256 ADD PUSH1 0x0 SWAP1 SLOAD SWAP1 PUSH2 0x100 EXP SWAP1 DIV PUSH20 0xFFFFFFFFFFFFFFFFFFFFFFFFFFFFFFFFFFFFFFFF AND SWAP1 POP SWAP2 SWAP1 POP JUMP JUMPDEST PUSH1 0x0 PUSH1 0x40 MLOAD DUP1 PUSH1 0x60 ADD PUSH1 0x40 MSTORE DUP1 DUP5 DUP2 MSTORE PUSH1 0x20 ADD CALLER PUSH20 0xFFFFFFFFFFFFFFFFFFFFFFFFFFFFFFFFFFFFFFFF AND DUP2 MSTORE PUSH1 0x20 ADD DUP4 DUP2 MSTORE POP SWAP1 POP PUSH1 0x9 DUP2 SWAP1 DUP1 PUSH1 0x1 DUP2 SLOAD ADD DUP1 DUP3 SSTORE DUP1 SWAP2 POP POP PUSH1 0x1 SWAP1 SUB SWAP1 PUSH1 0x0 MSTORE PUSH1 0x20 PUSH1 0x0 KECCAK256 SWAP1 PUSH1 0x3 MUL ADD PUSH1 0x0 SWAP1 SWAP2 SWAP1 SWAP2 SWAP1 SWAP2 POP PUSH1 0x0 DUP3 ADD MLOAD DUP2 PUSH1 0x0 ADD SSTORE PUSH1 0x20 DUP3 ADD MLOAD DUP2 PUSH1 0x1 ADD PUSH1 0x0 PUSH2 0x100 EXP DUP2 SLOAD DUP2 PUSH20 0xFFFFFFFFFFFFFFFFFFFFFFFFFFFFFFFFFFFFFFFF MUL NOT AND SWAP1 DUP4 PUSH20 0xFFFFFFFFFFFFFFFFFFFFFFFFFFFFFFFFFFFFFFFF AND MUL OR SWAP1 SSTORE POP PUSH1 0x40 DUP3 ADD MLOAD DUP2 PUSH1 0x2 ADD SWAP1 DUP1 MLOAD SWAP1 PUSH1 0x20 ADD SWAP1 PUSH2 0x644 SWAP3 SWAP2 SWAP1 PUSH2 0xA66 JUMP JUMPDEST POP POP POP POP POP POP JUMP JUMPDEST PUSH1 0x60 PUSH1 0x40 MLOAD DUP1 PUSH1 0x40 ADD PUSH1 0x40 MSTORE DUP1 PUSH1 0x17 DUP2 MSTORE PUSH1 0x20 ADD PUSH32 0x73616D706C6520737472696E672066726F6D20414B4542000000000000000000 DUP2 MSTORE POP SWAP1 POP SWAP1 JUMP JUMPDEST PUSH1 0x9 DUP2 DUP2 SLOAD DUP2 LT PUSH2 0x699 JUMPI PUSH1 0x0 DUP1 REVERT JUMPDEST SWAP1 PUSH1 0x0 MSTORE PUSH1 0x20 PUSH1 0x0 KECCAK256 SWAP1 PUSH1 0x3 MUL ADD PUSH1 0x0 SWAP2 POP SWAP1 POP DUP1 PUSH1 0x0 ADD SLOAD SWAP1 DUP1 PUSH1 0x1 ADD PUSH1 0x0 SWAP1 SLOAD SWAP1 PUSH2 0x100 EXP SWAP1 DIV PUSH20 0xFFFFFFFFFFFFFFFFFFFFFFFFFFFFFFFFFFFFFFFF AND SWAP1 DUP1 PUSH1 0x2 ADD DUP1 SLOAD PUSH2 0x6E8 SWAP1 PUSH2 0xFD0 JUMP JUMPDEST DUP1 PUSH1 0x1F ADD PUSH1 0x20 DUP1 SWAP2 DIV MUL PUSH1 0x20 ADD PUSH1 0x40 MLOAD SWAP1 DUP2 ADD PUSH1 0x40 MSTORE DUP1 SWAP3 SWAP2 SWAP1 DUP2 DUP2 MSTORE PUSH1 0x20 ADD DUP3 DUP1 SLOAD PUSH2 0x714 SWAP1 PUSH2 0xFD0 JUMP JUMPDEST DUP1 ISZERO PUSH2 0x761 JUMPI DUP1 PUSH1 0x1F LT PUSH2 0x736 JUMPI PUSH2 0x100 DUP1 DUP4 SLOAD DIV MUL DUP4 MSTORE SWAP2 PUSH1 0x20 ADD SWAP2 PUSH2 0x761 JUMP JUMPDEST DUP3 ADD SWAP2 SWAP1 PUSH1 0x0 MSTORE PUSH1 0x20 PUSH1 0x0 KECCAK256 SWAP1 JUMPDEST DUP2 SLOAD DUP2 MSTORE SWAP1 PUSH1 0x1 ADD SWAP1 PUSH1 0x20 ADD DUP1 DUP4 GT PUSH2 0x744 JUMPI DUP3 SWAP1 SUB PUSH1 0x1F AND DUP3 ADD SWAP2 JUMPDEST POP POP POP POP POP SWAP1 POP DUP4 JUMP JUMPDEST PUSH1 0x2 DUP1 SLOAD PUSH2 0x778 SWAP1 PUSH2 0xFD0 JUMP JUMPDEST DUP1 PUSH1 0x1F ADD PUSH1 0x20 DUP1 SWAP2 DIV MUL PUSH1 0x20 ADD PUSH1 0x40 MLOAD SWAP1 DUP2 ADD PUSH1 0x40 MSTORE DUP1 SWAP3 SWAP2 SWAP1 DUP2 DUP2 MSTORE PUSH1 0x20 ADD DUP3 DUP1 SLOAD PUSH2 0x7A4 SWAP1 PUSH2 0xFD0 JUMP JUMPDEST DUP1 ISZERO PUSH2 0x7F1 JUMPI DUP1 PUSH1 0x1F LT PUSH2 0x7C6 JUMPI PUSH2 0x100 DUP1 DUP4 SLOAD DIV MUL DUP4 MSTORE SWAP2 PUSH1 0x20 ADD SWAP2 PUSH2 0x7F1 JUMP JUMPDEST DUP3 ADD SWAP2 SWAP1 PUSH1 0x0 MSTORE PUSH1 0x20 PUSH1 0x0 KECCAK256 SWAP1 JUMPDEST DUP2 SLOAD DUP2 MSTORE SWAP1 PUSH1 0x1 ADD SWAP1 PUSH1 0x20 ADD DUP1 DUP4 GT PUSH2 0x7D4 JUMPI DUP3 SWAP1 SUB PUSH1 0x1F AND DUP3 ADD SWAP2 JUMPDEST POP POP POP POP POP DUP2 JUMP JUMPDEST PUSH1 0x1 DUP2 DUP2 SLOAD DUP2 LT PUSH2 0x809 JUMPI PUSH1 0x0 DUP1 REVERT JUMPDEST SWAP1 PUSH1 0x0 MSTORE PUSH1 0x20 PUSH1 0x0 KECCAK256 ADD PUSH1 0x0 SWAP2 POP SLOAD SWAP1 PUSH2 0x100 EXP SWAP1 DIV PUSH20 0xFFFFFFFFFFFFFFFFFFFFFFFFFFFFFFFFFFFFFFFF AND DUP2 JUMP JUMPDEST PUSH1 0x8 DUP1 SLOAD PUSH2 0x845 SWAP1 PUSH2 0xFD0 JUMP JUMPDEST DUP1 PUSH1 0x1F ADD PUSH1 0x20 DUP1 SWAP2 DIV MUL PUSH1 0x20 ADD PUSH1 0x40 MLOAD SWAP1 DUP2 ADD PUSH1 0x40 MSTORE DUP1 SWAP3 SWAP2 SWAP1 DUP2 DUP2 MSTORE PUSH1 0x20 ADD DUP3 DUP1 SLOAD PUSH2 0x871 SWAP1 PUSH2 0xFD0 JUMP JUMPDEST DUP1 ISZERO PUSH2 0x8BE JUMPI DUP1 PUSH1 0x1F LT PUSH2 0x893 JUMPI PUSH2 0x100 DUP1 DUP4 SLOAD DIV MUL DUP4 MSTORE SWAP2 PUSH1 0x20 ADD SWAP2 PUSH2 0x8BE JUMP JUMPDEST DUP3 ADD SWAP2 SWAP1 PUSH1 0x0 MSTORE PUSH1 0x20 PUSH1 0x0 KECCAK256 SWAP1 JUMPDEST DUP2 SLOAD DUP2 MSTORE SWAP1 PUSH1 0x1 ADD SWAP1 PUSH1 0x20 ADD DUP1 DUP4 GT PUSH2 0x8A1 JUMPI DUP3 SWAP1 SUB PUSH1 0x1F AND DUP3 ADD SWAP2 JUMPDEST POP POP POP POP POP DUP2 JUMP JUMPDEST PUSH1 0x4 SLOAD DUP2 JUMP JUMPDEST PUSH1 0x0 DUP1 SLOAD SWAP1 PUSH2 0x100 EXP SWAP1 DIV PUSH20 0xFFFFFFFFFFFFFFFFFFFFFFFFFFFFFFFFFFFFFFFF AND PUSH20 0xFFFFFFFFFFFFFFFFFFFFFFFFFFFFFFFFFFFFFFFF AND CALLER PUSH20 0xFFFFFFFFFFFFFFFFFFFFFFFFFFFFFFFFFFFFFFFF AND EQ PUSH2 0x95A JUMPI PUSH1 0x40 MLOAD PUSH32 0x8C379A000000000000000000000000000000000000000000000000000000000 DUP2 MSTORE PUSH1 0x4 ADD PUSH2 0x951 SWAP1 PUSH2 0x10A2 JUMP JUMPDEST PUSH1 0x40 MLOAD DUP1 SWAP2 SUB SWAP1 REVERT JUMPDEST DUP3 PUSH1 0x2 SWAP1 DUP1 MLOAD SWAP1 PUSH1 0x20 ADD SWAP1 PUSH2 0x970 SWAP3 SWAP2 SWAP1 PUSH2 0xA66 JUMP JUMPDEST POP DUP2 PUSH1 0x3 DUP2 SWAP1 SSTORE POP DUP1 PUSH1 0x4 DUP2 SWAP1 SSTORE POP POP POP POP JUMP JUMPDEST PUSH1 0x6 PUSH1 0x0 SWAP1 SLOAD SWAP1 PUSH2 0x100 EXP SWAP1 DIV PUSH20 0xFFFFFFFFFFFFFFFFFFFFFFFFFFFFFFFFFFFFFFFF AND DUP2 JUMP JUMPDEST PUSH1 0x1 CALLER SWAP1 DUP1 PUSH1 0x1 DUP2 SLOAD ADD DUP1 DUP3 SSTORE DUP1 SWAP2 POP POP PUSH1 0x1 SWAP1 SUB SWAP1 PUSH1 0x0 MSTORE PUSH1 0x20 PUSH1 0x0 KECCAK256 ADD PUSH1 0x0 SWAP1 SWAP2 SWAP1 SWAP2 SWAP1 SWAP2 PUSH2 0x100 EXP DUP2 SLOAD DUP2 PUSH20 0xFFFFFFFFFFFFFFFFFFFFFFFFFFFFFFFFFFFFFFFF MUL NOT AND SWAP1 DUP4 PUSH20 0xFFFFFFFFFFFFFFFFFFFFFFFFFFFFFFFFFFFFFFFF AND MUL OR SWAP1 SSTORE POP JUMP JUMPDEST DUP1 PUSH1 0x5 PUSH1 0x0 CALLER PUSH20 0xFFFFFFFFFFFFFFFFFFFFFFFFFFFFFFFFFFFFFFFF AND PUSH20 0xFFFFFFFFFFFFFFFFFFFFFFFFFFFFFFFFFFFFFFFF AND DUP2 MSTORE PUSH1 0x20 ADD SWAP1 DUP2 MSTORE PUSH1 0x20 ADD PUSH1 0x0 KECCAK256 SWAP1 DUP1 MLOAD SWAP1 PUSH1 0x20 ADD SWAP1 PUSH2 0xA62 SWAP3 SWAP2 SWAP1 PUSH2 0xA66 JUMP JUMPDEST POP POP JUMP JUMPDEST DUP3 DUP1 SLOAD PUSH2 0xA72 SWAP1 PUSH2 0xFD0 JUMP JUMPDEST SWAP1 PUSH1 0x0 MSTORE PUSH1 0x20 PUSH1 0x0 KECCAK256 SWAP1 PUSH1 0x1F ADD PUSH1 0x20 SWAP1 DIV DUP2 ADD SWAP3 DUP3 PUSH2 0xA94 JUMPI PUSH1 0x0 DUP6 SSTORE PUSH2 0xADB JUMP JUMPDEST DUP3 PUSH1 0x1F LT PUSH2 0xAAD JUMPI DUP1 MLOAD PUSH1 0xFF NOT AND DUP4 DUP1 ADD OR DUP6 SSTORE PUSH2 0xADB JUMP JUMPDEST DUP3 DUP1 ADD PUSH1 0x1 ADD DUP6 SSTORE DUP3 ISZERO PUSH2 0xADB JUMPI SWAP2 DUP3 ADD JUMPDEST DUP3 DUP2 GT ISZERO PUSH2 0xADA JUMPI DUP3 MLOAD DUP3 SSTORE SWAP2 PUSH1 0x20 ADD SWAP2 SWAP1 PUSH1 0x1 ADD SWAP1 PUSH2 0xABF JUMP JUMPDEST JUMPDEST POP SWAP1 POP PUSH2 0xAE8 SWAP2 SWAP1 PUSH2 0xAEC JUMP JUMPDEST POP SWAP1 JUMP JUMPDEST JUMPDEST DUP1 DUP3 GT ISZERO PUSH2 0xB05 JUMPI PUSH1 0x0 DUP2 PUSH1 0x0 SWAP1 SSTORE POP PUSH1 0x1 ADD PUSH2 0xAED JUMP JUMPDEST POP SWAP1 JUMP JUMPDEST PUSH1 0x0 PUSH1 0x40 MLOAD SWAP1 POP SWAP1 JUMP JUMPDEST PUSH1 0x0 DUP1 REVERT JUMPDEST PUSH1 0x0 DUP1 REVERT JUMPDEST PUSH1 0x0 PUSH20 0xFFFFFFFFFFFFFFFFFFFFFFFFFFFFFFFFFFFFFFFF DUP3 AND SWAP1 POP SWAP2 SWAP1 POP JUMP JUMPDEST PUSH1 0x0 PUSH2 0xB48 DUP3 PUSH2 0xB1D JUMP JUMPDEST SWAP1 POP SWAP2 SWAP1 POP JUMP JUMPDEST PUSH2 0xB58 DUP2 PUSH2 0xB3D JUMP JUMPDEST DUP2 EQ PUSH2 0xB63 JUMPI PUSH1 0x0 DUP1 REVERT JUMPDEST POP JUMP JUMPDEST PUSH1 0x0 DUP2 CALLDATALOAD SWAP1 POP PUSH2 0xB75 DUP2 PUSH2 0xB4F JUMP JUMPDEST SWAP3 SWAP2 POP POP JUMP JUMPDEST PUSH1 0x0 PUSH1 0x20 DUP3 DUP5 SUB SLT ISZERO PUSH2 0xB91 JUMPI PUSH2 0xB90 PUSH2 0xB13 JUMP JUMPDEST JUMPDEST PUSH1 0x0 PUSH2 0xB9F DUP5 DUP3 DUP6 ADD PUSH2 0xB66 JUMP JUMPDEST SWAP2 POP POP SWAP3 SWAP2 POP POP JUMP JUMPDEST PUSH1 0x0 DUP2 MLOAD SWAP1 POP SWAP2 SWAP1 POP JUMP JUMPDEST PUSH1 0x0 DUP3 DUP3 MSTORE PUSH1 0x20 DUP3 ADD SWAP1 POP SWAP3 SWAP2 POP POP JUMP JUMPDEST PUSH1 0x0 JUMPDEST DUP4 DUP2 LT ISZERO PUSH2 0xBE2 JUMPI DUP1 DUP3 ADD MLOAD DUP2 DUP5 ADD MSTORE PUSH1 0x20 DUP2 ADD SWAP1 POP PUSH2 0xBC7 JUMP JUMPDEST DUP4 DUP2 GT ISZERO PUSH2 0xBF1 JUMPI PUSH1 0x0 DUP5 DUP5 ADD MSTORE JUMPDEST POP POP POP POP JUMP JUMPDEST PUSH1 0x0 PUSH1 0x1F NOT PUSH1 0x1F DUP4 ADD AND SWAP1 POP SWAP2 SWAP1 POP JUMP JUMPDEST PUSH1 0x0 PUSH2 0xC13 DUP3 PUSH2 0xBA8 JUMP JUMPDEST PUSH2 0xC1D DUP2 DUP6 PUSH2 0xBB3 JUMP JUMPDEST SWAP4 POP PUSH2 0xC2D DUP2 DUP6 PUSH1 0x20 DUP7 ADD PUSH2 0xBC4 JUMP JUMPDEST PUSH2 0xC36 DUP2 PUSH2 0xBF7 JUMP JUMPDEST DUP5 ADD SWAP2 POP POP SWAP3 SWAP2 POP POP JUMP JUMPDEST PUSH1 0x0 PUSH1 0x20 DUP3 ADD SWAP1 POP DUP2 DUP2 SUB PUSH1 0x0 DUP4 ADD MSTORE PUSH2 0xC5B DUP2 DUP5 PUSH2 0xC08 JUMP JUMPDEST SWAP1 POP SWAP3 SWAP2 POP POP JUMP JUMPDEST PUSH1 0x0 DUP2 SWAP1 POP SWAP2 SWAP1 POP JUMP JUMPDEST PUSH2 0xC76 DUP2 PUSH2 0xC63 JUMP JUMPDEST DUP3 MSTORE POP POP JUMP JUMPDEST PUSH1 0x0 PUSH1 0x20 DUP3 ADD SWAP1 POP PUSH2 0xC91 PUSH1 0x0 DUP4 ADD DUP5 PUSH2 0xC6D JUMP JUMPDEST SWAP3 SWAP2 POP POP JUMP JUMPDEST PUSH2 0xCA0 DUP2 PUSH2 0xC63 JUMP JUMPDEST DUP2 EQ PUSH2 0xCAB JUMPI PUSH1 0x0 DUP1 REVERT JUMPDEST POP JUMP JUMPDEST PUSH1 0x0 DUP2 CALLDATALOAD SWAP1 POP PUSH2 0xCBD DUP2 PUSH2 0xC97 JUMP JUMPDEST SWAP3 SWAP2 POP POP JUMP JUMPDEST PUSH1 0x0 DUP1 REVERT JUMPDEST PUSH1 0x0 DUP1 REVERT JUMPDEST PUSH32 0x4E487B7100000000000000000000000000000000000000000000000000000000 PUSH1 0x0 MSTORE PUSH1 0x41 PUSH1 0x4 MSTORE PUSH1 0x24 PUSH1 0x0 REVERT JUMPDEST PUSH2 0xD05 DUP3 PUSH2 0xBF7 JUMP JUMPDEST DUP2 ADD DUP2 DUP2 LT PUSH8 0xFFFFFFFFFFFFFFFF DUP3 GT OR ISZERO PUSH2 0xD24 JUMPI PUSH2 0xD23 PUSH2 0xCCD JUMP JUMPDEST JUMPDEST DUP1 PUSH1 0x40 MSTORE POP POP POP JUMP JUMPDEST PUSH1 0x0 PUSH2 0xD37 PUSH2 0xB09 JUMP JUMPDEST SWAP1 POP PUSH2 0xD43 DUP3 DUP3 PUSH2 0xCFC JUMP JUMPDEST SWAP2 SWAP1 POP JUMP JUMPDEST PUSH1 0x0 PUSH8 0xFFFFFFFFFFFFFFFF DUP3 GT ISZERO PUSH2 0xD63 JUMPI PUSH2 0xD62 PUSH2 0xCCD JUMP JUMPDEST JUMPDEST PUSH2 0xD6C DUP3 PUSH2 0xBF7 JUMP JUMPDEST SWAP1 POP PUSH1 0x20 DUP2 ADD SWAP1 POP SWAP2 SWAP1 POP JUMP JUMPDEST DUP3 DUP2 DUP4 CALLDATACOPY PUSH1 0x0 DUP4 DUP4 ADD MSTORE POP POP POP JUMP JUMPDEST PUSH1 0x0 PUSH2 0xD9B PUSH2 0xD96 DUP5 PUSH2 0xD48 JUMP JUMPDEST PUSH2 0xD2D JUMP JUMPDEST SWAP1 POP DUP3 DUP2 MSTORE PUSH1 0x20 DUP2 ADD DUP5 DUP5 DUP5 ADD GT ISZERO PUSH2 0xDB7 JUMPI PUSH2 0xDB6 PUSH2 0xCC8 JUMP JUMPDEST JUMPDEST PUSH2 0xDC2 DUP5 DUP3 DUP6 PUSH2 0xD79 JUMP JUMPDEST POP SWAP4 SWAP3 POP POP POP JUMP JUMPDEST PUSH1 0x0 DUP3 PUSH1 0x1F DUP4 ADD SLT PUSH2 0xDDF JUMPI PUSH2 0xDDE PUSH2 0xCC3 JUMP JUMPDEST JUMPDEST DUP2 CALLDATALOAD PUSH2 0xDEF DUP5 DUP3 PUSH1 0x20 DUP7 ADD PUSH2 0xD88 JUMP JUMPDEST SWAP2 POP POP SWAP3 SWAP2 POP POP JUMP JUMPDEST PUSH1 0x0 DUP1 PUSH1 0x40 DUP4 DUP6 SUB SLT ISZERO PUSH2 0xE0F JUMPI PUSH2 0xE0E PUSH2 0xB13 JUMP JUMPDEST JUMPDEST PUSH1 0x0 PUSH2 0xE1D DUP6 DUP3 DUP7 ADD PUSH2 0xCAE JUMP JUMPDEST SWAP3 POP POP PUSH1 0x20 DUP4 ADD CALLDATALOAD PUSH8 0xFFFFFFFFFFFFFFFF DUP2 GT ISZERO PUSH2 0xE3E JUMPI PUSH2 0xE3D PUSH2 0xB18 JUMP JUMPDEST JUMPDEST PUSH2 0xE4A DUP6 DUP3 DUP7 ADD PUSH2 0xDCA JUMP JUMPDEST SWAP2 POP POP SWAP3 POP SWAP3 SWAP1 POP JUMP JUMPDEST PUSH1 0x0 PUSH1 0x20 DUP3 DUP5 SUB SLT ISZERO PUSH2 0xE6A JUMPI PUSH2 0xE69 PUSH2 0xB13 JUMP JUMPDEST JUMPDEST PUSH1 0x0 PUSH2 0xE78 DUP5 DUP3 DUP6 ADD PUSH2 0xCAE JUMP JUMPDEST SWAP2 POP POP SWAP3 SWAP2 POP POP JUMP JUMPDEST PUSH2 0xE8A DUP2 PUSH2 0xB3D JUMP JUMPDEST DUP3 MSTORE POP POP JUMP JUMPDEST PUSH1 0x0 PUSH1 0x20 DUP3 ADD SWAP1 POP PUSH2 0xEA5 PUSH1 0x0 DUP4 ADD DUP5 PUSH2 0xE81 JUMP JUMPDEST SWAP3 SWAP2 POP POP JUMP JUMPDEST PUSH1 0x0 PUSH1 0x60 DUP3 ADD SWAP1 POP PUSH2 0xEC0 PUSH1 0x0 DUP4 ADD DUP7 PUSH2 0xC6D JUMP JUMPDEST PUSH2 0xECD PUSH1 0x20 DUP4 ADD DUP6 PUSH2 0xE81 JUMP JUMPDEST DUP2 DUP2 SUB PUSH1 0x40 DUP4 ADD MSTORE PUSH2 0xEDF DUP2 DUP5 PUSH2 0xC08 JUMP JUMPDEST SWAP1 POP SWAP5 SWAP4 POP POP POP POP JUMP JUMPDEST PUSH1 0x0 DUP1 PUSH1 0x0 PUSH1 0x60 DUP5 DUP7 SUB SLT ISZERO PUSH2 0xF02 JUMPI PUSH2 0xF01 PUSH2 0xB13 JUMP JUMPDEST JUMPDEST PUSH1 0x0 DUP5 ADD CALLDATALOAD PUSH8 0xFFFFFFFFFFFFFFFF DUP2 GT ISZERO PUSH2 0xF20 JUMPI PUSH2 0xF1F PUSH2 0xB18 JUMP JUMPDEST JUMPDEST PUSH2 0xF2C DUP7 DUP3 DUP8 ADD PUSH2 0xDCA JUMP JUMPDEST SWAP4 POP POP PUSH1 0x20 PUSH2 0xF3D DUP7 DUP3 DUP8 ADD PUSH2 0xCAE JUMP JUMPDEST SWAP3 POP POP PUSH1 0x40 PUSH2 0xF4E DUP7 DUP3 DUP8 ADD PUSH2 0xCAE JUMP JUMPDEST SWAP2 POP POP SWAP3 POP SWAP3 POP SWAP3 JUMP JUMPDEST PUSH1 0x0 PUSH1 0x20 DUP3 DUP5 SUB SLT ISZERO PUSH2 0xF6E JUMPI PUSH2 0xF6D PUSH2 0xB13 JUMP JUMPDEST JUMPDEST PUSH1 0x0 DUP3 ADD CALLDATALOAD PUSH8 0xFFFFFFFFFFFFFFFF DUP2 GT ISZERO PUSH2 0xF8C JUMPI PUSH2 0xF8B PUSH2 0xB18 JUMP JUMPDEST JUMPDEST PUSH2 0xF98 DUP5 DUP3 DUP6 ADD PUSH2 0xDCA JUMP JUMPDEST SWAP2 POP POP SWAP3 SWAP2 POP POP JUMP JUMPDEST PUSH32 0x4E487B7100000000000000000000000000000000000000000000000000000000 PUSH1 0x0 MSTORE PUSH1 0x22 PUSH1 0x4 MSTORE PUSH1 0x24 PUSH1 0x0 REVERT JUMPDEST PUSH1 0x0 PUSH1 0x2 DUP3 DIV SWAP1 POP PUSH1 0x1 DUP3 AND DUP1 PUSH2 0xFE8 JUMPI PUSH1 0x7F DUP3 AND SWAP2 POP JUMPDEST PUSH1 0x20 DUP3 LT DUP2 SUB PUSH2 0xFFB JUMPI PUSH2 0xFFA PUSH2 0xFA1 JUMP JUMPDEST JUMPDEST POP SWAP2 SWAP1 POP JUMP JUMPDEST PUSH32 0x4E487B7100000000000000000000000000000000000000000000000000000000 PUSH1 0x0 MSTORE PUSH1 0x32 PUSH1 0x4 MSTORE PUSH1 0x24 PUSH1 0x0 REVERT JUMPDEST PUSH32 0x4F6E6C792061756374696F6E6565722063616E2063616C6C2074686973206675 PUSH1 0x0 DUP3 ADD MSTORE PUSH32 0x6E6374696F6E2E00000000000000000000000000000000000000000000000000 PUSH1 0x20 DUP3 ADD MSTORE POP JUMP JUMPDEST PUSH1 0x0 PUSH2 0x108C PUSH1 0x27 DUP4 PUSH2 0xBB3 JUMP JUMPDEST SWAP2 POP PUSH2 0x1097 DUP3 PUSH2 0x1030 JUMP JUMPDEST PUSH1 0x40 DUP3 ADD SWAP1 POP SWAP2 SWAP1 POP JUMP JUMPDEST PUSH1 0x0 PUSH1 0x20 DUP3 ADD SWAP1 POP DUP2 DUP2 SUB PUSH1 0x0 DUP4 ADD MSTORE PUSH2 0x10BB DUP2 PUSH2 0x107F JUMP JUMPDEST SWAP1 POP SWAP2 SWAP1 POP JUMP INVALID LOG2 PUSH5 0x6970667358 0x22 SLT KECCAK256 0xAA JUMP 0xCD PUSH3 0x34690D 0x2A 0x2C PUSH13 0xE18304528D0622A431D599D94A RETURNDATACOPY SLOAD 0x23 PUSH20 0xAAB100703F64736F6C634300080E003300000000 "
				},
				"gasEstimates": {
					"creation": {
						"codeDepositCost": "868800",
						"executionCost": "903",
						"totalCost": "869703"
					},
					"external": {
						"assetDescription()": "infinite",
						"bidders(uint256)": "5023",
						"dispute(uint256,string)": "infinite",
						"disputedBidders(uint256)": "infinite",
						"encodedBids(address)": "infinite",
						"getBidderAddress(uint256)": "5012",
						"getEncodedBid(address)": "infinite",
						"getSampleString()": "infinite",
						"minBidPrice()": "2519",
						"minNumberOfBidders()": "2451",
						"registerAuctionInfo(string,uint256,uint256)": "infinite",
						"registerBidder()": "48810",
						"submitEncryptedBid(string)": "infinite",
						"submitWinner(uint256,string)": "infinite",
						"winnerAddress()": "2580",
						"winnerBid()": "2475",
						"winnerKey()": "infinite"
					}
				},
				"methodIdentifiers": {
					"assetDescription()": "938626c2",
					"bidders(uint256)": "cff29dfd",
					"dispute(uint256,string)": "66c85dee",
					"disputedBidders(uint256)": "8f772f96",
					"encodedBids(address)": "3817df4c",
					"getBidderAddress(uint256)": "5fa38280",
					"getEncodedBid(address)": "05fb23cf",
					"getSampleString()": "83050daa",
					"minBidPrice()": "34eb86a2",
					"minNumberOfBidders()": "daa0218f",
					"registerAuctionInfo(string,uint256,uint256)": "e7d2a997",
					"registerBidder()": "f356733c",
					"submitEncryptedBid(string)": "ff567d8d",
					"submitWinner(uint256,string)": "1744e03b",
					"winnerAddress()": "ed7a4e0b",
					"winnerBid()": "11631d06",
					"winnerKey()": "d476620b"
				}
			},
			"storageLayout": {
				"storage": [
					{
						"astId": 3,
						"contract": "Contracts/AKEB.sol:AKEB",
						"label": "auctioneer",
						"offset": 0,
						"slot": "0",
						"type": "t_address"
					},
					{
						"astId": 6,
						"contract": "Contracts/AKEB.sol:AKEB",
						"label": "bidders",
						"offset": 0,
						"slot": "1",
						"type": "t_array(t_address)dyn_storage"
					},
					{
						"astId": 8,
						"contract": "Contracts/AKEB.sol:AKEB",
						"label": "assetDescription",
						"offset": 0,
						"slot": "2",
						"type": "t_string_storage"
					},
					{
						"astId": 10,
						"contract": "Contracts/AKEB.sol:AKEB",
						"label": "minBidPrice",
						"offset": 0,
						"slot": "3",
						"type": "t_uint256"
					},
					{
						"astId": 12,
						"contract": "Contracts/AKEB.sol:AKEB",
						"label": "minNumberOfBidders",
						"offset": 0,
						"slot": "4",
						"type": "t_uint256"
					},
					{
						"astId": 16,
						"contract": "Contracts/AKEB.sol:AKEB",
						"label": "encodedBids",
						"offset": 0,
						"slot": "5",
						"type": "t_mapping(t_address,t_string_storage)"
					},
					{
						"astId": 18,
						"contract": "Contracts/AKEB.sol:AKEB",
						"label": "winnerAddress",
						"offset": 0,
						"slot": "6",
						"type": "t_address"
					},
					{
						"astId": 20,
						"contract": "Contracts/AKEB.sol:AKEB",
						"label": "winnerBid",
						"offset": 0,
						"slot": "7",
						"type": "t_uint256"
					},
					{
						"astId": 22,
						"contract": "Contracts/AKEB.sol:AKEB",
						"label": "winnerKey",
						"offset": 0,
						"slot": "8",
						"type": "t_string_storage"
					},
					{
						"astId": 33,
						"contract": "Contracts/AKEB.sol:AKEB",
						"label": "disputedBidders",
						"offset": 0,
						"slot": "9",
						"type": "t_array(t_struct(DisputedBidders)29_storage)dyn_storage"
					}
				],
				"types": {
					"t_address": {
						"encoding": "inplace",
						"label": "address",
						"numberOfBytes": "20"
					},
					"t_array(t_address)dyn_storage": {
						"base": "t_address",
						"encoding": "dynamic_array",
						"label": "address[]",
						"numberOfBytes": "32"
					},
					"t_array(t_struct(DisputedBidders)29_storage)dyn_storage": {
						"base": "t_struct(DisputedBidders)29_storage",
						"encoding": "dynamic_array",
						"label": "struct AKEB.DisputedBidders[]",
						"numberOfBytes": "32"
					},
					"t_mapping(t_address,t_string_storage)": {
						"encoding": "mapping",
						"key": "t_address",
						"label": "mapping(address => string)",
						"numberOfBytes": "32",
						"value": "t_string_storage"
					},
					"t_string_storage": {
						"encoding": "bytes",
						"label": "string",
						"numberOfBytes": "32"
					},
					"t_struct(DisputedBidders)29_storage": {
						"encoding": "inplace",
						"label": "struct AKEB.DisputedBidders",
						"members": [
							{
								"astId": 24,
								"contract": "Contracts/AKEB.sol:AKEB",
								"label": "bid",
								"offset": 0,
								"slot": "0",
								"type": "t_uint256"
							},
							{
								"astId": 26,
								"contract": "Contracts/AKEB.sol:AKEB",
								"label": "disputeAddress",
								"offset": 0,
								"slot": "1",
								"type": "t_address"
							},
							{
								"astId": 28,
								"contract": "Contracts/AKEB.sol:AKEB",
								"label": "key",
								"offset": 0,
								"slot": "2",
								"type": "t_string_storage"
							}
						],
						"numberOfBytes": "96"
					},
					"t_uint256": {
						"encoding": "inplace",
						"label": "uint256",
						"numberOfBytes": "32"
					}
				}
			},
			"userdoc": {
				"kind": "user",
				"methods": {},
				"version": 1
			}
		}
	}
}