{
	"Contracts/AKEB.sol": {
		"AKEB": {
			"abi": [
				{
					"inputs": [],
					"name": "assetDescription",
					"outputs": [
						{
							"internalType": "string",
							"name": "",
							"type": "string"
						}
					],
					"stateMutability": "view",
					"type": "function"
				},
				{
					"inputs": [
						{
							"internalType": "uint256",
							"name": "",
							"type": "uint256"
						}
					],
					"name": "bidders",
					"outputs": [
						{
							"internalType": "address",
							"name": "",
							"type": "address"
						}
					],
					"stateMutability": "view",
					"type": "function"
				},
				{
					"inputs": [
						{
							"internalType": "uint256",
							"name": "inputDisputedBid",
							"type": "uint256"
						},
						{
							"internalType": "string",
							"name": "inputDisputedKey",
							"type": "string"
						}
					],
					"name": "dispute",
					"outputs": [],
					"stateMutability": "nonpayable",
					"type": "function"
				},
				{
					"inputs": [
						{
							"internalType": "uint256",
							"name": "",
							"type": "uint256"
						}
					],
					"name": "disputedBidders",
					"outputs": [
						{
							"internalType": "uint256",
							"name": "bid",
							"type": "uint256"
						},
						{
							"internalType": "address",
							"name": "disputeAddress",
							"type": "address"
						},
						{
							"internalType": "string",
							"name": "key",
							"type": "string"
						}
					],
					"stateMutability": "view",
					"type": "function"
				},
				{
					"inputs": [
						{
							"internalType": "address",
							"name": "",
							"type": "address"
						}
					],
					"name": "encodedBids",
					"outputs": [
						{
							"internalType": "string",
							"name": "",
							"type": "string"
						}
					],
					"stateMutability": "view",
					"type": "function"
				},
				{
					"inputs": [],
					"name": "getSampleString",
					"outputs": [
						{
							"internalType": "string",
							"name": "",
							"type": "string"
						}
					],
					"stateMutability": "nonpayable",
					"type": "function"
				},
				{
					"inputs": [],
					"name": "minBidPrice",
					"outputs": [
						{
							"internalType": "uint256",
							"name": "",
							"type": "uint256"
						}
					],
					"stateMutability": "view",
					"type": "function"
				},
				{
					"inputs": [],
					"name": "minNumberOfBidders",
					"outputs": [
						{
							"internalType": "uint256",
							"name": "",
							"type": "uint256"
						}
					],
					"stateMutability": "view",
					"type": "function"
				},
				{
					"inputs": [
						{
							"internalType": "string",
							"name": "assetDescriptionInput",
							"type": "string"
						},
						{
							"internalType": "uint256",
							"name": "minBidPriceInput",
							"type": "uint256"
						},
						{
							"internalType": "uint256",
							"name": "minNumberOfBiddersInput",
							"type": "uint256"
						}
					],
					"name": "registerAuctionInfo",
					"outputs": [],
					"stateMutability": "nonpayable",
					"type": "function"
				},
				{
					"inputs": [],
					"name": "registerBidder",
					"outputs": [],
					"stateMutability": "nonpayable",
					"type": "function"
				},
				{
					"inputs": [
						{
							"internalType": "string",
							"name": "inputEncodedBid",
							"type": "string"
						}
					],
					"name": "submitEncryptedBid",
					"outputs": [],
					"stateMutability": "nonpayable",
					"type": "function"
				},
				{
					"inputs": [
						{
							"internalType": "uint256",
							"name": "inputWinnerBid",
							"type": "uint256"
						},
						{
							"internalType": "string",
							"name": "inputWinnerKey",
							"type": "string"
						}
					],
					"name": "submitWinner",
					"outputs": [],
					"stateMutability": "nonpayable",
					"type": "function"
				},
				{
					"inputs": [],
					"name": "winnerAddress",
					"outputs": [
						{
							"internalType": "address",
							"name": "",
							"type": "address"
						}
					],
					"stateMutability": "view",
					"type": "function"
				},
				{
					"inputs": [],
					"name": "winnerBid",
					"outputs": [
						{
							"internalType": "uint256",
							"name": "",
							"type": "uint256"
						}
					],
					"stateMutability": "view",
					"type": "function"
				},
				{
					"inputs": [],
					"name": "winnerKey",
					"outputs": [
						{
							"internalType": "string",
							"name": "",
							"type": "string"
						}
					],
					"stateMutability": "view",
					"type": "function"
				}
			],
			"devdoc": {
				"kind": "dev",
				"methods": {},
				"version": 1
			},
			"evm": {
				"assembly": "    /* \"Contracts/AKEB.sol\":58:1976  contract AKEB {... */\n  mstore(0x40, 0x80)\n  callvalue\n  dup1\n  iszero\n  tag_1\n  jumpi\n  0x00\n  dup1\n  revert\ntag_1:\n  pop\n  dataSize(sub_0)\n  dup1\n  dataOffset(sub_0)\n  0x00\n  codecopy\n  0x00\n  return\nstop\n\nsub_0: assembly {\n        /* \"Contracts/AKEB.sol\":58:1976  contract AKEB {... */\n      mstore(0x40, 0x80)\n      callvalue\n      dup1\n      iszero\n      tag_1\n      jumpi\n      0x00\n      dup1\n      revert\n    tag_1:\n      pop\n      jumpi(tag_2, lt(calldatasize, 0x04))\n      shr(0xe0, calldataload(0x00))\n      dup1\n      0x938626c2\n      gt\n      tag_18\n      jumpi\n      dup1\n      0xe7d2a997\n      gt\n      tag_19\n      jumpi\n      dup1\n      0xe7d2a997\n      eq\n      tag_14\n      jumpi\n      dup1\n      0xed7a4e0b\n      eq\n      tag_15\n      jumpi\n      dup1\n      0xf356733c\n      eq\n      tag_16\n      jumpi\n      dup1\n      0xff567d8d\n      eq\n      tag_17\n      jumpi\n      jump(tag_2)\n    tag_19:\n      dup1\n      0x938626c2\n      eq\n      tag_10\n      jumpi\n      dup1\n      0xcff29dfd\n      eq\n      tag_11\n      jumpi\n      dup1\n      0xd476620b\n      eq\n      tag_12\n      jumpi\n      dup1\n      0xdaa0218f\n      eq\n      tag_13\n      jumpi\n      jump(tag_2)\n    tag_18:\n      dup1\n      0x3817df4c\n      gt\n      tag_20\n      jumpi\n      dup1\n      0x3817df4c\n      eq\n      tag_6\n      jumpi\n      dup1\n      0x66c85dee\n      eq\n      tag_7\n      jumpi\n      dup1\n      0x83050daa\n      eq\n      tag_8\n      jumpi\n      dup1\n      0x8f772f96\n      eq\n      tag_9\n      jumpi\n      jump(tag_2)\n    tag_20:\n      dup1\n      0x11631d06\n      eq\n      tag_3\n      jumpi\n      dup1\n      0x1744e03b\n      eq\n      tag_4\n      jumpi\n      dup1\n      0x34eb86a2\n      eq\n      tag_5\n      jumpi\n    tag_2:\n      0x00\n      dup1\n      revert\n        /* \"Contracts/AKEB.sol\":326:350  uint256 public winnerBid */\n    tag_3:\n      tag_21\n      tag_22\n      jump\t// in\n    tag_21:\n      mload(0x40)\n      tag_23\n      swap2\n      swap1\n      tag_24\n      jump\t// in\n    tag_23:\n      mload(0x40)\n      dup1\n      swap2\n      sub\n      swap1\n      return\n        /* \"Contracts/AKEB.sol\":1466:1668  function submitWinner(uint256 inputWinnerBid, ... */\n    tag_4:\n      tag_25\n      0x04\n      dup1\n      calldatasize\n      sub\n      dup2\n      add\n      swap1\n      tag_26\n      swap2\n      swap1\n      tag_27\n      jump\t// in\n    tag_26:\n      tag_28\n      jump\t// in\n    tag_25:\n      stop\n        /* \"Contracts/AKEB.sol\":168:194  uint256 public minBidPrice */\n    tag_5:\n      tag_29\n      tag_30\n      jump\t// in\n    tag_29:\n      mload(0x40)\n      tag_31\n      swap2\n      swap1\n      tag_24\n      jump\t// in\n    tag_31:\n      mload(0x40)\n      dup1\n      swap2\n      sub\n      swap1\n      return\n        /* \"Contracts/AKEB.sol\":240:285  mapping(address => string) public encodedBids */\n    tag_6:\n      tag_32\n      0x04\n      dup1\n      calldatasize\n      sub\n      dup2\n      add\n      swap1\n      tag_33\n      swap2\n      swap1\n      tag_34\n      jump\t// in\n    tag_33:\n      tag_35\n      jump\t// in\n    tag_32:\n      mload(0x40)\n      tag_36\n      swap2\n      swap1\n      tag_37\n      jump\t// in\n    tag_36:\n      mload(0x40)\n      dup1\n      swap2\n      sub\n      swap1\n      return\n        /* \"Contracts/AKEB.sol\":1674:1974  function dispute(uint256 inputDisputedBid, ... */\n    tag_7:\n      tag_38\n      0x04\n      dup1\n      calldatasize\n      sub\n      dup2\n      add\n      swap1\n      tag_39\n      swap2\n      swap1\n      tag_27\n      jump\t// in\n    tag_39:\n      tag_40\n      jump\t// in\n    tag_38:\n      stop\n        /* \"Contracts/AKEB.sol\":815:920  function getSampleString() public returns(string memory){... */\n    tag_8:\n      tag_41\n      tag_42\n      jump\t// in\n    tag_41:\n      mload(0x40)\n      tag_43\n      swap2\n      swap1\n      tag_37\n      jump\t// in\n    tag_43:\n      mload(0x40)\n      dup1\n      swap2\n      sub\n      swap1\n      return\n        /* \"Contracts/AKEB.sol\":495:535  DisputedBidders[] public disputedBidders */\n    tag_9:\n      tag_44\n      0x04\n      dup1\n      calldatasize\n      sub\n      dup2\n      add\n      swap1\n      tag_45\n      swap2\n      swap1\n      tag_46\n      jump\t// in\n    tag_45:\n      tag_47\n      jump\t// in\n    tag_44:\n      mload(0x40)\n      tag_48\n      swap4\n      swap3\n      swap2\n      swap1\n      tag_49\n      jump\t// in\n    tag_48:\n      mload(0x40)\n      dup1\n      swap2\n      sub\n      swap1\n      return\n        /* \"Contracts/AKEB.sol\":132:162  string public assetDescription */\n    tag_10:\n      tag_50\n      tag_51\n      jump\t// in\n    tag_50:\n      mload(0x40)\n      tag_52\n      swap2\n      swap1\n      tag_37\n      jump\t// in\n    tag_52:\n      mload(0x40)\n      dup1\n      swap2\n      sub\n      swap1\n      return\n        /* \"Contracts/AKEB.sol\":102:126  address[] public bidders */\n    tag_11:\n      tag_53\n      0x04\n      dup1\n      calldatasize\n      sub\n      dup2\n      add\n      swap1\n      tag_54\n      swap2\n      swap1\n      tag_46\n      jump\t// in\n    tag_54:\n      tag_55\n      jump\t// in\n    tag_53:\n      mload(0x40)\n      tag_56\n      swap2\n      swap1\n      tag_57\n      jump\t// in\n    tag_56:\n      mload(0x40)\n      dup1\n      swap2\n      sub\n      swap1\n      return\n        /* \"Contracts/AKEB.sol\":356:379  string public winnerKey */\n    tag_12:\n      tag_58\n      tag_59\n      jump\t// in\n    tag_58:\n      mload(0x40)\n      tag_60\n      swap2\n      swap1\n      tag_37\n      jump\t// in\n    tag_60:\n      mload(0x40)\n      dup1\n      swap2\n      sub\n      swap1\n      return\n        /* \"Contracts/AKEB.sol\":200:233  uint256 public minNumberOfBidders */\n    tag_13:\n      tag_61\n      tag_62\n      jump\t// in\n    tag_61:\n      mload(0x40)\n      tag_63\n      swap2\n      swap1\n      tag_24\n      jump\t// in\n    tag_63:\n      mload(0x40)\n      dup1\n      swap2\n      sub\n      swap1\n      return\n        /* \"Contracts/AKEB.sol\":926:1246  function registerAuctionInfo(string memory assetDescriptionInput, ... */\n    tag_14:\n      tag_64\n      0x04\n      dup1\n      calldatasize\n      sub\n      dup2\n      add\n      swap1\n      tag_65\n      swap2\n      swap1\n      tag_66\n      jump\t// in\n    tag_65:\n      tag_67\n      jump\t// in\n    tag_64:\n      stop\n        /* \"Contracts/AKEB.sol\":292:320  address public winnerAddress */\n    tag_15:\n      tag_68\n      tag_69\n      jump\t// in\n    tag_68:\n      mload(0x40)\n      tag_70\n      swap2\n      swap1\n      tag_57\n      jump\t// in\n    tag_70:\n      mload(0x40)\n      dup1\n      swap2\n      sub\n      swap1\n      return\n        /* \"Contracts/AKEB.sol\":1252:1326  function registerBidder() public {... */\n    tag_16:\n      tag_71\n      tag_72\n      jump\t// in\n    tag_71:\n      stop\n        /* \"Contracts/AKEB.sol\":1332:1460  function submitEncryptedBid(string memory inputEncodedBid)... */\n    tag_17:\n      tag_73\n      0x04\n      dup1\n      calldatasize\n      sub\n      dup2\n      add\n      swap1\n      tag_74\n      swap2\n      swap1\n      tag_75\n      jump\t// in\n    tag_74:\n      tag_76\n      jump\t// in\n    tag_73:\n      stop\n        /* \"Contracts/AKEB.sol\":326:350  uint256 public winnerBid */\n    tag_22:\n      sload(0x07)\n      dup2\n      jump\t// out\n        /* \"Contracts/AKEB.sol\":1466:1668  function submitWinner(uint256 inputWinnerBid, ... */\n    tag_28:\n        /* \"Contracts/AKEB.sol\":1579:1589  msg.sender */\n      caller\n        /* \"Contracts/AKEB.sol\":1563:1576  winnerAddress */\n      0x06\n      0x00\n        /* \"Contracts/AKEB.sol\":1563:1589  winnerAddress = msg.sender */\n      0x0100\n      exp\n      dup2\n      sload\n      dup2\n      0xffffffffffffffffffffffffffffffffffffffff\n      mul\n      not\n      and\n      swap1\n      dup4\n      0xffffffffffffffffffffffffffffffffffffffff\n      and\n      mul\n      or\n      swap1\n      sstore\n      pop\n        /* \"Contracts/AKEB.sol\":1611:1625  inputWinnerBid */\n      dup2\n        /* \"Contracts/AKEB.sol\":1599:1608  winnerBid */\n      0x07\n        /* \"Contracts/AKEB.sol\":1599:1625  winnerBid = inputWinnerBid */\n      dup2\n      swap1\n      sstore\n      pop\n        /* \"Contracts/AKEB.sol\":1647:1661  inputWinnerKey */\n      dup1\n        /* \"Contracts/AKEB.sol\":1635:1644  winnerKey */\n      0x08\n        /* \"Contracts/AKEB.sol\":1635:1661  winnerKey = inputWinnerKey */\n      swap1\n      dup1\n      mload\n      swap1\n      0x20\n      add\n      swap1\n      tag_78\n      swap3\n      swap2\n      swap1\n      tag_79\n      jump\t// in\n    tag_78:\n      pop\n        /* \"Contracts/AKEB.sol\":1466:1668  function submitWinner(uint256 inputWinnerBid, ... */\n      pop\n      pop\n      jump\t// out\n        /* \"Contracts/AKEB.sol\":168:194  uint256 public minBidPrice */\n    tag_30:\n      sload(0x03)\n      dup2\n      jump\t// out\n        /* \"Contracts/AKEB.sol\":240:285  mapping(address => string) public encodedBids */\n    tag_35:\n      mstore(0x20, 0x05)\n      dup1\n      0x00\n      mstore\n      keccak256(0x00, 0x40)\n      0x00\n      swap2\n      pop\n      swap1\n      pop\n      dup1\n      sload\n      tag_80\n      swap1\n      tag_81\n      jump\t// in\n    tag_80:\n      dup1\n      0x1f\n      add\n      0x20\n      dup1\n      swap2\n      div\n      mul\n      0x20\n      add\n      mload(0x40)\n      swap1\n      dup2\n      add\n      0x40\n      mstore\n      dup1\n      swap3\n      swap2\n      swap1\n      dup2\n      dup2\n      mstore\n      0x20\n      add\n      dup3\n      dup1\n      sload\n      tag_82\n      swap1\n      tag_81\n      jump\t// in\n    tag_82:\n      dup1\n      iszero\n      tag_83\n      jumpi\n      dup1\n      0x1f\n      lt\n      tag_84\n      jumpi\n      0x0100\n      dup1\n      dup4\n      sload\n      div\n      mul\n      dup4\n      mstore\n      swap2\n      0x20\n      add\n      swap2\n      jump(tag_83)\n    tag_84:\n      dup3\n      add\n      swap2\n      swap1\n      0x00\n      mstore\n      keccak256(0x00, 0x20)\n      swap1\n    tag_85:\n      dup2\n      sload\n      dup2\n      mstore\n      swap1\n      0x01\n      add\n      swap1\n      0x20\n      add\n      dup1\n      dup4\n      gt\n      tag_85\n      jumpi\n      dup3\n      swap1\n      sub\n      0x1f\n      and\n      dup3\n      add\n      swap2\n    tag_83:\n      pop\n      pop\n      pop\n      pop\n      pop\n      dup2\n      jump\t// out\n        /* \"Contracts/AKEB.sol\":1674:1974  function dispute(uint256 inputDisputedBid, ... */\n    tag_40:\n        /* \"Contracts/AKEB.sol\":1771:1808  DisputedBidders memory disputedBidder */\n      0x00\n        /* \"Contracts/AKEB.sol\":1811:1920  DisputedBidders(... */\n      mload(0x40)\n      dup1\n      0x60\n      add\n      0x40\n      mstore\n      dup1\n        /* \"Contracts/AKEB.sol\":1840:1856  inputDisputedBid */\n      dup5\n        /* \"Contracts/AKEB.sol\":1811:1920  DisputedBidders(... */\n      dup2\n      mstore\n      0x20\n      add\n        /* \"Contracts/AKEB.sol\":1870:1880  msg.sender */\n      caller\n        /* \"Contracts/AKEB.sol\":1811:1920  DisputedBidders(... */\n      0xffffffffffffffffffffffffffffffffffffffff\n      and\n      dup2\n      mstore\n      0x20\n      add\n        /* \"Contracts/AKEB.sol\":1894:1910  inputDisputedKey */\n      dup4\n        /* \"Contracts/AKEB.sol\":1811:1920  DisputedBidders(... */\n      dup2\n      mstore\n      pop\n        /* \"Contracts/AKEB.sol\":1771:1920  DisputedBidders memory disputedBidder = DisputedBidders(... */\n      swap1\n      pop\n        /* \"Contracts/AKEB.sol\":1931:1946  disputedBidders */\n      0x09\n        /* \"Contracts/AKEB.sol\":1952:1966  disputedBidder */\n      dup2\n        /* \"Contracts/AKEB.sol\":1931:1967  disputedBidders.push(disputedBidder) */\n      swap1\n      dup1\n      0x01\n      dup2\n      sload\n      add\n      dup1\n      dup3\n      sstore\n      dup1\n      swap2\n      pop\n      pop\n      0x01\n      swap1\n      sub\n      swap1\n      0x00\n      mstore\n      keccak256(0x00, 0x20)\n      swap1\n      0x03\n      mul\n      add\n      0x00\n      swap1\n      swap2\n      swap1\n      swap2\n      swap1\n      swap2\n      pop\n      0x00\n      dup3\n      add\n      mload\n      dup2\n      0x00\n      add\n      sstore\n      0x20\n      dup3\n      add\n      mload\n      dup2\n      0x01\n      add\n      exp(0x0100, 0x00)\n      dup2\n      sload\n      dup2\n      0xffffffffffffffffffffffffffffffffffffffff\n      mul\n      not\n      and\n      swap1\n      dup4\n      0xffffffffffffffffffffffffffffffffffffffff\n      and\n      mul\n      or\n      swap1\n      sstore\n      pop\n      0x40\n      dup3\n      add\n      mload\n      dup2\n      0x02\n      add\n      swap1\n      dup1\n      mload\n      swap1\n      0x20\n      add\n      swap1\n      tag_88\n      swap3\n      swap2\n      swap1\n      tag_79\n      jump\t// in\n    tag_88:\n      pop\n      pop\n      pop\n        /* \"Contracts/AKEB.sol\":1761:1974  {... */\n      pop\n        /* \"Contracts/AKEB.sol\":1674:1974  function dispute(uint256 inputDisputedBid, ... */\n      pop\n      pop\n      jump\t// out\n        /* \"Contracts/AKEB.sol\":815:920  function getSampleString() public returns(string memory){... */\n    tag_42:\n        /* \"Contracts/AKEB.sol\":857:870  string memory */\n      0x60\n        /* \"Contracts/AKEB.sol\":881:913  return \"sample string from AKEB\" */\n      mload(0x40)\n      dup1\n      0x40\n      add\n      0x40\n      mstore\n      dup1\n      0x17\n      dup2\n      mstore\n      0x20\n      add\n      0x73616d706c6520737472696e672066726f6d20414b4542000000000000000000\n      dup2\n      mstore\n      pop\n      swap1\n      pop\n        /* \"Contracts/AKEB.sol\":815:920  function getSampleString() public returns(string memory){... */\n      swap1\n      jump\t// out\n        /* \"Contracts/AKEB.sol\":495:535  DisputedBidders[] public disputedBidders */\n    tag_47:\n      0x09\n      dup2\n      dup2\n      sload\n      dup2\n      lt\n      tag_90\n      jumpi\n      0x00\n      dup1\n      revert\n    tag_90:\n      swap1\n      0x00\n      mstore\n      keccak256(0x00, 0x20)\n      swap1\n      0x03\n      mul\n      add\n      0x00\n      swap2\n      pop\n      swap1\n      pop\n      dup1\n      0x00\n      add\n      sload\n      swap1\n      dup1\n      0x01\n      add\n      0x00\n      swap1\n      sload\n      swap1\n      0x0100\n      exp\n      swap1\n      div\n      0xffffffffffffffffffffffffffffffffffffffff\n      and\n      swap1\n      dup1\n      0x02\n      add\n      dup1\n      sload\n      tag_92\n      swap1\n      tag_81\n      jump\t// in\n    tag_92:\n      dup1\n      0x1f\n      add\n      0x20\n      dup1\n      swap2\n      div\n      mul\n      0x20\n      add\n      mload(0x40)\n      swap1\n      dup2\n      add\n      0x40\n      mstore\n      dup1\n      swap3\n      swap2\n      swap1\n      dup2\n      dup2\n      mstore\n      0x20\n      add\n      dup3\n      dup1\n      sload\n      tag_93\n      swap1\n      tag_81\n      jump\t// in\n    tag_93:\n      dup1\n      iszero\n      tag_94\n      jumpi\n      dup1\n      0x1f\n      lt\n      tag_95\n      jumpi\n      0x0100\n      dup1\n      dup4\n      sload\n      div\n      mul\n      dup4\n      mstore\n      swap2\n      0x20\n      add\n      swap2\n      jump(tag_94)\n    tag_95:\n      dup3\n      add\n      swap2\n      swap1\n      0x00\n      mstore\n      keccak256(0x00, 0x20)\n      swap1\n    tag_96:\n      dup2\n      sload\n      dup2\n      mstore\n      swap1\n      0x01\n      add\n      swap1\n      0x20\n      add\n      dup1\n      dup4\n      gt\n      tag_96\n      jumpi\n      dup3\n      swap1\n      sub\n      0x1f\n      and\n      dup3\n      add\n      swap2\n    tag_94:\n      pop\n      pop\n      pop\n      pop\n      pop\n      swap1\n      pop\n      dup4\n      jump\t// out\n        /* \"Contracts/AKEB.sol\":132:162  string public assetDescription */\n    tag_51:\n      0x02\n      dup1\n      sload\n      tag_97\n      swap1\n      tag_81\n      jump\t// in\n    tag_97:\n      dup1\n      0x1f\n      add\n      0x20\n      dup1\n      swap2\n      div\n      mul\n      0x20\n      add\n      mload(0x40)\n      swap1\n      dup2\n      add\n      0x40\n      mstore\n      dup1\n      swap3\n      swap2\n      swap1\n      dup2\n      dup2\n      mstore\n      0x20\n      add\n      dup3\n      dup1\n      sload\n      tag_98\n      swap1\n      tag_81\n      jump\t// in\n    tag_98:\n      dup1\n      iszero\n      tag_99\n      jumpi\n      dup1\n      0x1f\n      lt\n      tag_100\n      jumpi\n      0x0100\n      dup1\n      dup4\n      sload\n      div\n      mul\n      dup4\n      mstore\n      swap2\n      0x20\n      add\n      swap2\n      jump(tag_99)\n    tag_100:\n      dup3\n      add\n      swap2\n      swap1\n      0x00\n      mstore\n      keccak256(0x00, 0x20)\n      swap1\n    tag_101:\n      dup2\n      sload\n      dup2\n      mstore\n      swap1\n      0x01\n      add\n      swap1\n      0x20\n      add\n      dup1\n      dup4\n      gt\n      tag_101\n      jumpi\n      dup3\n      swap1\n      sub\n      0x1f\n      and\n      dup3\n      add\n      swap2\n    tag_99:\n      pop\n      pop\n      pop\n      pop\n      pop\n      dup2\n      jump\t// out\n        /* \"Contracts/AKEB.sol\":102:126  address[] public bidders */\n    tag_55:\n      0x01\n      dup2\n      dup2\n      sload\n      dup2\n      lt\n      tag_102\n      jumpi\n      0x00\n      dup1\n      revert\n    tag_102:\n      swap1\n      0x00\n      mstore\n      keccak256(0x00, 0x20)\n      add\n      0x00\n      swap2\n      pop\n      sload\n      swap1\n      0x0100\n      exp\n      swap1\n      div\n      0xffffffffffffffffffffffffffffffffffffffff\n      and\n      dup2\n      jump\t// out\n        /* \"Contracts/AKEB.sol\":356:379  string public winnerKey */\n    tag_59:\n      0x08\n      dup1\n      sload\n      tag_104\n      swap1\n      tag_81\n      jump\t// in\n    tag_104:\n      dup1\n      0x1f\n      add\n      0x20\n      dup1\n      swap2\n      div\n      mul\n      0x20\n      add\n      mload(0x40)\n      swap1\n      dup2\n      add\n      0x40\n      mstore\n      dup1\n      swap3\n      swap2\n      swap1\n      dup2\n      dup2\n      mstore\n      0x20\n      add\n      dup3\n      dup1\n      sload\n      tag_105\n      swap1\n      tag_81\n      jump\t// in\n    tag_105:\n      dup1\n      iszero\n      tag_106\n      jumpi\n      dup1\n      0x1f\n      lt\n      tag_107\n      jumpi\n      0x0100\n      dup1\n      dup4\n      sload\n      div\n      mul\n      dup4\n      mstore\n      swap2\n      0x20\n      add\n      swap2\n      jump(tag_106)\n    tag_107:\n      dup3\n      add\n      swap2\n      swap1\n      0x00\n      mstore\n      keccak256(0x00, 0x20)\n      swap1\n    tag_108:\n      dup2\n      sload\n      dup2\n      mstore\n      swap1\n      0x01\n      add\n      swap1\n      0x20\n      add\n      dup1\n      dup4\n      gt\n      tag_108\n      jumpi\n      dup3\n      swap1\n      sub\n      0x1f\n      and\n      dup3\n      add\n      swap2\n    tag_106:\n      pop\n      pop\n      pop\n      pop\n      pop\n      dup2\n      jump\t// out\n        /* \"Contracts/AKEB.sol\":200:233  uint256 public minNumberOfBidders */\n    tag_62:\n      sload(0x04)\n      dup2\n      jump\t// out\n        /* \"Contracts/AKEB.sol\":926:1246  function registerAuctionInfo(string memory assetDescriptionInput, ... */\n    tag_67:\n        /* \"Contracts/AKEB.sol\":606:616  auctioneer */\n      0x00\n      dup1\n      sload\n      swap1\n      0x0100\n      exp\n      swap1\n      div\n      0xffffffffffffffffffffffffffffffffffffffff\n      and\n        /* \"Contracts/AKEB.sol\":592:616  msg.sender == auctioneer */\n      0xffffffffffffffffffffffffffffffffffffffff\n      and\n        /* \"Contracts/AKEB.sol\":592:602  msg.sender */\n      caller\n        /* \"Contracts/AKEB.sol\":592:616  msg.sender == auctioneer */\n      0xffffffffffffffffffffffffffffffffffffffff\n      and\n      eq\n        /* \"Contracts/AKEB.sol\":584:660  require(msg.sender == auctioneer, \"Only auctioneer can call this function.\") */\n      tag_110\n      jumpi\n      mload(0x40)\n      0x08c379a000000000000000000000000000000000000000000000000000000000\n      dup2\n      mstore\n      0x04\n      add\n      tag_111\n      swap1\n      tag_112\n      jump\t// in\n    tag_111:\n      mload(0x40)\n      dup1\n      swap2\n      sub\n      swap1\n      revert\n    tag_110:\n        /* \"Contracts/AKEB.sol\":1124:1145  assetDescriptionInput */\n      dup3\n        /* \"Contracts/AKEB.sol\":1105:1121  assetDescription */\n      0x02\n        /* \"Contracts/AKEB.sol\":1105:1145  assetDescription = assetDescriptionInput */\n      swap1\n      dup1\n      mload\n      swap1\n      0x20\n      add\n      swap1\n      tag_114\n      swap3\n      swap2\n      swap1\n      tag_79\n      jump\t// in\n    tag_114:\n      pop\n        /* \"Contracts/AKEB.sol\":1169:1185  minBidPriceInput */\n      dup2\n        /* \"Contracts/AKEB.sol\":1155:1166  minBidPrice */\n      0x03\n        /* \"Contracts/AKEB.sol\":1155:1185  minBidPrice = minBidPriceInput */\n      dup2\n      swap1\n      sstore\n      pop\n        /* \"Contracts/AKEB.sol\":1216:1239  minNumberOfBiddersInput */\n      dup1\n        /* \"Contracts/AKEB.sol\":1195:1213  minNumberOfBidders */\n      0x04\n        /* \"Contracts/AKEB.sol\":1195:1239  minNumberOfBidders = minNumberOfBiddersInput */\n      dup2\n      swap1\n      sstore\n      pop\n        /* \"Contracts/AKEB.sol\":926:1246  function registerAuctionInfo(string memory assetDescriptionInput, ... */\n      pop\n      pop\n      pop\n      jump\t// out\n        /* \"Contracts/AKEB.sol\":292:320  address public winnerAddress */\n    tag_69:\n      0x06\n      0x00\n      swap1\n      sload\n      swap1\n      0x0100\n      exp\n      swap1\n      div\n      0xffffffffffffffffffffffffffffffffffffffff\n      and\n      dup2\n      jump\t// out\n        /* \"Contracts/AKEB.sol\":1252:1326  function registerBidder() public {... */\n    tag_72:\n        /* \"Contracts/AKEB.sol\":1295:1302  bidders */\n      0x01\n        /* \"Contracts/AKEB.sol\":1308:1318  msg.sender */\n      caller\n        /* \"Contracts/AKEB.sol\":1295:1319  bidders.push(msg.sender) */\n      swap1\n      dup1\n      0x01\n      dup2\n      sload\n      add\n      dup1\n      dup3\n      sstore\n      dup1\n      swap2\n      pop\n      pop\n      0x01\n      swap1\n      sub\n      swap1\n      0x00\n      mstore\n      keccak256(0x00, 0x20)\n      add\n      0x00\n      swap1\n      swap2\n      swap1\n      swap2\n      swap1\n      swap2\n      0x0100\n      exp\n      dup2\n      sload\n      dup2\n      0xffffffffffffffffffffffffffffffffffffffff\n      mul\n      not\n      and\n      swap1\n      dup4\n      0xffffffffffffffffffffffffffffffffffffffff\n      and\n      mul\n      or\n      swap1\n      sstore\n      pop\n        /* \"Contracts/AKEB.sol\":1252:1326  function registerBidder() public {... */\n      jump\t// out\n        /* \"Contracts/AKEB.sol\":1332:1460  function submitEncryptedBid(string memory inputEncodedBid)... */\n    tag_76:\n        /* \"Contracts/AKEB.sol\":1438:1453  inputEncodedBid */\n      dup1\n        /* \"Contracts/AKEB.sol\":1412:1423  encodedBids */\n      0x05\n        /* \"Contracts/AKEB.sol\":1412:1435  encodedBids[msg.sender] */\n      0x00\n        /* \"Contracts/AKEB.sol\":1424:1434  msg.sender */\n      caller\n        /* \"Contracts/AKEB.sol\":1412:1435  encodedBids[msg.sender] */\n      0xffffffffffffffffffffffffffffffffffffffff\n      and\n      0xffffffffffffffffffffffffffffffffffffffff\n      and\n      dup2\n      mstore\n      0x20\n      add\n      swap1\n      dup2\n      mstore\n      0x20\n      add\n      0x00\n      keccak256\n        /* \"Contracts/AKEB.sol\":1412:1453  encodedBids[msg.sender] = inputEncodedBid */\n      swap1\n      dup1\n      mload\n      swap1\n      0x20\n      add\n      swap1\n      tag_118\n      swap3\n      swap2\n      swap1\n      tag_79\n      jump\t// in\n    tag_118:\n      pop\n        /* \"Contracts/AKEB.sol\":1332:1460  function submitEncryptedBid(string memory inputEncodedBid)... */\n      pop\n      jump\t// out\n    tag_79:\n      dup3\n      dup1\n      sload\n      tag_119\n      swap1\n      tag_81\n      jump\t// in\n    tag_119:\n      swap1\n      0x00\n      mstore\n      keccak256(0x00, 0x20)\n      swap1\n      0x1f\n      add\n      0x20\n      swap1\n      div\n      dup2\n      add\n      swap3\n      dup3\n      tag_121\n      jumpi\n      0x00\n      dup6\n      sstore\n      jump(tag_120)\n    tag_121:\n      dup3\n      0x1f\n      lt\n      tag_122\n      jumpi\n      dup1\n      mload\n      not(0xff)\n      and\n      dup4\n      dup1\n      add\n      or\n      dup6\n      sstore\n      jump(tag_120)\n    tag_122:\n      dup3\n      dup1\n      add\n      0x01\n      add\n      dup6\n      sstore\n      dup3\n      iszero\n      tag_120\n      jumpi\n      swap2\n      dup3\n      add\n    tag_123:\n      dup3\n      dup2\n      gt\n      iszero\n      tag_124\n      jumpi\n      dup3\n      mload\n      dup3\n      sstore\n      swap2\n      0x20\n      add\n      swap2\n      swap1\n      0x01\n      add\n      swap1\n      jump(tag_123)\n    tag_124:\n    tag_120:\n      pop\n      swap1\n      pop\n      tag_125\n      swap2\n      swap1\n      tag_126\n      jump\t// in\n    tag_125:\n      pop\n      swap1\n      jump\t// out\n    tag_126:\n    tag_127:\n      dup1\n      dup3\n      gt\n      iszero\n      tag_128\n      jumpi\n      0x00\n      dup2\n      0x00\n      swap1\n      sstore\n      pop\n      0x01\n      add\n      jump(tag_127)\n    tag_128:\n      pop\n      swap1\n      jump\t// out\n        /* \"#utility.yul\":7:84   */\n    tag_129:\n        /* \"#utility.yul\":44:51   */\n      0x00\n        /* \"#utility.yul\":73:78   */\n      dup2\n        /* \"#utility.yul\":62:78   */\n      swap1\n      pop\n        /* \"#utility.yul\":7:84   */\n      swap2\n      swap1\n      pop\n      jump\t// out\n        /* \"#utility.yul\":90:208   */\n    tag_130:\n        /* \"#utility.yul\":177:201   */\n      tag_161\n        /* \"#utility.yul\":195:200   */\n      dup2\n        /* \"#utility.yul\":177:201   */\n      tag_129\n      jump\t// in\n    tag_161:\n        /* \"#utility.yul\":172:175   */\n      dup3\n        /* \"#utility.yul\":165:202   */\n      mstore\n        /* \"#utility.yul\":90:208   */\n      pop\n      pop\n      jump\t// out\n        /* \"#utility.yul\":214:436   */\n    tag_24:\n        /* \"#utility.yul\":307:311   */\n      0x00\n        /* \"#utility.yul\":345:347   */\n      0x20\n        /* \"#utility.yul\":334:343   */\n      dup3\n        /* \"#utility.yul\":330:348   */\n      add\n        /* \"#utility.yul\":322:348   */\n      swap1\n      pop\n        /* \"#utility.yul\":358:429   */\n      tag_163\n        /* \"#utility.yul\":426:427   */\n      0x00\n        /* \"#utility.yul\":415:424   */\n      dup4\n        /* \"#utility.yul\":411:428   */\n      add\n        /* \"#utility.yul\":402:408   */\n      dup5\n        /* \"#utility.yul\":358:429   */\n      tag_130\n      jump\t// in\n    tag_163:\n        /* \"#utility.yul\":214:436   */\n      swap3\n      swap2\n      pop\n      pop\n      jump\t// out\n        /* \"#utility.yul\":442:517   */\n    tag_131:\n        /* \"#utility.yul\":475:481   */\n      0x00\n        /* \"#utility.yul\":508:510   */\n      0x40\n        /* \"#utility.yul\":502:511   */\n      mload\n        /* \"#utility.yul\":492:511   */\n      swap1\n      pop\n        /* \"#utility.yul\":442:517   */\n      swap1\n      jump\t// out\n        /* \"#utility.yul\":523:640   */\n    tag_132:\n        /* \"#utility.yul\":632:633   */\n      0x00\n        /* \"#utility.yul\":629:630   */\n      dup1\n        /* \"#utility.yul\":622:634   */\n      revert\n        /* \"#utility.yul\":646:763   */\n    tag_133:\n        /* \"#utility.yul\":755:756   */\n      0x00\n        /* \"#utility.yul\":752:753   */\n      dup1\n        /* \"#utility.yul\":745:757   */\n      revert\n        /* \"#utility.yul\":769:891   */\n    tag_134:\n        /* \"#utility.yul\":842:866   */\n      tag_168\n        /* \"#utility.yul\":860:865   */\n      dup2\n        /* \"#utility.yul\":842:866   */\n      tag_129\n      jump\t// in\n    tag_168:\n        /* \"#utility.yul\":835:840   */\n      dup2\n        /* \"#utility.yul\":832:867   */\n      eq\n        /* \"#utility.yul\":822:885   */\n      tag_169\n      jumpi\n        /* \"#utility.yul\":881:882   */\n      0x00\n        /* \"#utility.yul\":878:879   */\n      dup1\n        /* \"#utility.yul\":871:883   */\n      revert\n        /* \"#utility.yul\":822:885   */\n    tag_169:\n        /* \"#utility.yul\":769:891   */\n      pop\n      jump\t// out\n        /* \"#utility.yul\":897:1036   */\n    tag_135:\n        /* \"#utility.yul\":943:948   */\n      0x00\n        /* \"#utility.yul\":981:987   */\n      dup2\n        /* \"#utility.yul\":968:988   */\n      calldataload\n        /* \"#utility.yul\":959:988   */\n      swap1\n      pop\n        /* \"#utility.yul\":997:1030   */\n      tag_171\n        /* \"#utility.yul\":1024:1029   */\n      dup2\n        /* \"#utility.yul\":997:1030   */\n      tag_134\n      jump\t// in\n    tag_171:\n        /* \"#utility.yul\":897:1036   */\n      swap3\n      swap2\n      pop\n      pop\n      jump\t// out\n        /* \"#utility.yul\":1042:1159   */\n    tag_136:\n        /* \"#utility.yul\":1151:1152   */\n      0x00\n        /* \"#utility.yul\":1148:1149   */\n      dup1\n        /* \"#utility.yul\":1141:1153   */\n      revert\n        /* \"#utility.yul\":1165:1282   */\n    tag_137:\n        /* \"#utility.yul\":1274:1275   */\n      0x00\n        /* \"#utility.yul\":1271:1272   */\n      dup1\n        /* \"#utility.yul\":1264:1276   */\n      revert\n        /* \"#utility.yul\":1288:1390   */\n    tag_138:\n        /* \"#utility.yul\":1329:1335   */\n      0x00\n        /* \"#utility.yul\":1380:1382   */\n      0x1f\n        /* \"#utility.yul\":1376:1383   */\n      not\n        /* \"#utility.yul\":1371:1373   */\n      0x1f\n        /* \"#utility.yul\":1364:1369   */\n      dup4\n        /* \"#utility.yul\":1360:1374   */\n      add\n        /* \"#utility.yul\":1356:1384   */\n      and\n        /* \"#utility.yul\":1346:1384   */\n      swap1\n      pop\n        /* \"#utility.yul\":1288:1390   */\n      swap2\n      swap1\n      pop\n      jump\t// out\n        /* \"#utility.yul\":1396:1576   */\n    tag_139:\n        /* \"#utility.yul\":1444:1521   */\n      0x4e487b7100000000000000000000000000000000000000000000000000000000\n        /* \"#utility.yul\":1441:1442   */\n      0x00\n        /* \"#utility.yul\":1434:1522   */\n      mstore\n        /* \"#utility.yul\":1541:1545   */\n      0x41\n        /* \"#utility.yul\":1538:1539   */\n      0x04\n        /* \"#utility.yul\":1531:1546   */\n      mstore\n        /* \"#utility.yul\":1565:1569   */\n      0x24\n        /* \"#utility.yul\":1562:1563   */\n      0x00\n        /* \"#utility.yul\":1555:1570   */\n      revert\n        /* \"#utility.yul\":1582:1863   */\n    tag_140:\n        /* \"#utility.yul\":1665:1692   */\n      tag_177\n        /* \"#utility.yul\":1687:1691   */\n      dup3\n        /* \"#utility.yul\":1665:1692   */\n      tag_138\n      jump\t// in\n    tag_177:\n        /* \"#utility.yul\":1657:1663   */\n      dup2\n        /* \"#utility.yul\":1653:1693   */\n      add\n        /* \"#utility.yul\":1795:1801   */\n      dup2\n        /* \"#utility.yul\":1783:1793   */\n      dup2\n        /* \"#utility.yul\":1780:1802   */\n      lt\n        /* \"#utility.yul\":1759:1777   */\n      0xffffffffffffffff\n        /* \"#utility.yul\":1747:1757   */\n      dup3\n        /* \"#utility.yul\":1744:1778   */\n      gt\n        /* \"#utility.yul\":1741:1803   */\n      or\n        /* \"#utility.yul\":1738:1826   */\n      iszero\n      tag_178\n      jumpi\n        /* \"#utility.yul\":1806:1824   */\n      tag_179\n      tag_139\n      jump\t// in\n    tag_179:\n        /* \"#utility.yul\":1738:1826   */\n    tag_178:\n        /* \"#utility.yul\":1846:1856   */\n      dup1\n        /* \"#utility.yul\":1842:1844   */\n      0x40\n        /* \"#utility.yul\":1835:1857   */\n      mstore\n        /* \"#utility.yul\":1625:1863   */\n      pop\n        /* \"#utility.yul\":1582:1863   */\n      pop\n      pop\n      jump\t// out\n        /* \"#utility.yul\":1869:1998   */\n    tag_141:\n        /* \"#utility.yul\":1903:1909   */\n      0x00\n        /* \"#utility.yul\":1930:1950   */\n      tag_181\n      tag_131\n      jump\t// in\n    tag_181:\n        /* \"#utility.yul\":1920:1950   */\n      swap1\n      pop\n        /* \"#utility.yul\":1959:1992   */\n      tag_182\n        /* \"#utility.yul\":1987:1991   */\n      dup3\n        /* \"#utility.yul\":1979:1985   */\n      dup3\n        /* \"#utility.yul\":1959:1992   */\n      tag_140\n      jump\t// in\n    tag_182:\n        /* \"#utility.yul\":1869:1998   */\n      swap2\n      swap1\n      pop\n      jump\t// out\n        /* \"#utility.yul\":2004:2312   */\n    tag_142:\n        /* \"#utility.yul\":2066:2070   */\n      0x00\n        /* \"#utility.yul\":2156:2174   */\n      0xffffffffffffffff\n        /* \"#utility.yul\":2148:2154   */\n      dup3\n        /* \"#utility.yul\":2145:2175   */\n      gt\n        /* \"#utility.yul\":2142:2198   */\n      iszero\n      tag_184\n      jumpi\n        /* \"#utility.yul\":2178:2196   */\n      tag_185\n      tag_139\n      jump\t// in\n    tag_185:\n        /* \"#utility.yul\":2142:2198   */\n    tag_184:\n        /* \"#utility.yul\":2216:2245   */\n      tag_186\n        /* \"#utility.yul\":2238:2244   */\n      dup3\n        /* \"#utility.yul\":2216:2245   */\n      tag_138\n      jump\t// in\n    tag_186:\n        /* \"#utility.yul\":2208:2245   */\n      swap1\n      pop\n        /* \"#utility.yul\":2300:2304   */\n      0x20\n        /* \"#utility.yul\":2294:2298   */\n      dup2\n        /* \"#utility.yul\":2290:2305   */\n      add\n        /* \"#utility.yul\":2282:2305   */\n      swap1\n      pop\n        /* \"#utility.yul\":2004:2312   */\n      swap2\n      swap1\n      pop\n      jump\t// out\n        /* \"#utility.yul\":2318:2472   */\n    tag_143:\n        /* \"#utility.yul\":2402:2408   */\n      dup3\n        /* \"#utility.yul\":2397:2400   */\n      dup2\n        /* \"#utility.yul\":2392:2395   */\n      dup4\n        /* \"#utility.yul\":2379:2409   */\n      calldatacopy\n        /* \"#utility.yul\":2464:2465   */\n      0x00\n        /* \"#utility.yul\":2455:2461   */\n      dup4\n        /* \"#utility.yul\":2450:2453   */\n      dup4\n        /* \"#utility.yul\":2446:2462   */\n      add\n        /* \"#utility.yul\":2439:2466   */\n      mstore\n        /* \"#utility.yul\":2318:2472   */\n      pop\n      pop\n      pop\n      jump\t// out\n        /* \"#utility.yul\":2478:2890   */\n    tag_144:\n        /* \"#utility.yul\":2556:2561   */\n      0x00\n        /* \"#utility.yul\":2581:2647   */\n      tag_189\n        /* \"#utility.yul\":2597:2646   */\n      tag_190\n        /* \"#utility.yul\":2639:2645   */\n      dup5\n        /* \"#utility.yul\":2597:2646   */\n      tag_142\n      jump\t// in\n    tag_190:\n        /* \"#utility.yul\":2581:2647   */\n      tag_141\n      jump\t// in\n    tag_189:\n        /* \"#utility.yul\":2572:2647   */\n      swap1\n      pop\n        /* \"#utility.yul\":2670:2676   */\n      dup3\n        /* \"#utility.yul\":2663:2668   */\n      dup2\n        /* \"#utility.yul\":2656:2677   */\n      mstore\n        /* \"#utility.yul\":2708:2712   */\n      0x20\n        /* \"#utility.yul\":2701:2706   */\n      dup2\n        /* \"#utility.yul\":2697:2713   */\n      add\n        /* \"#utility.yul\":2746:2749   */\n      dup5\n        /* \"#utility.yul\":2737:2743   */\n      dup5\n        /* \"#utility.yul\":2732:2735   */\n      dup5\n        /* \"#utility.yul\":2728:2744   */\n      add\n        /* \"#utility.yul\":2725:2750   */\n      gt\n        /* \"#utility.yul\":2722:2834   */\n      iszero\n      tag_191\n      jumpi\n        /* \"#utility.yul\":2753:2832   */\n      tag_192\n      tag_137\n      jump\t// in\n    tag_192:\n        /* \"#utility.yul\":2722:2834   */\n    tag_191:\n        /* \"#utility.yul\":2843:2884   */\n      tag_193\n        /* \"#utility.yul\":2877:2883   */\n      dup5\n        /* \"#utility.yul\":2872:2875   */\n      dup3\n        /* \"#utility.yul\":2867:2870   */\n      dup6\n        /* \"#utility.yul\":2843:2884   */\n      tag_143\n      jump\t// in\n    tag_193:\n        /* \"#utility.yul\":2562:2890   */\n      pop\n        /* \"#utility.yul\":2478:2890   */\n      swap4\n      swap3\n      pop\n      pop\n      pop\n      jump\t// out\n        /* \"#utility.yul\":2910:3250   */\n    tag_145:\n        /* \"#utility.yul\":2966:2971   */\n      0x00\n        /* \"#utility.yul\":3015:3018   */\n      dup3\n        /* \"#utility.yul\":3008:3012   */\n      0x1f\n        /* \"#utility.yul\":3000:3006   */\n      dup4\n        /* \"#utility.yul\":2996:3013   */\n      add\n        /* \"#utility.yul\":2992:3019   */\n      slt\n        /* \"#utility.yul\":2982:3104   */\n      tag_195\n      jumpi\n        /* \"#utility.yul\":3023:3102   */\n      tag_196\n      tag_136\n      jump\t// in\n    tag_196:\n        /* \"#utility.yul\":2982:3104   */\n    tag_195:\n        /* \"#utility.yul\":3140:3146   */\n      dup2\n        /* \"#utility.yul\":3127:3147   */\n      calldataload\n        /* \"#utility.yul\":3165:3244   */\n      tag_197\n        /* \"#utility.yul\":3240:3243   */\n      dup5\n        /* \"#utility.yul\":3232:3238   */\n      dup3\n        /* \"#utility.yul\":3225:3229   */\n      0x20\n        /* \"#utility.yul\":3217:3223   */\n      dup7\n        /* \"#utility.yul\":3213:3230   */\n      add\n        /* \"#utility.yul\":3165:3244   */\n      tag_144\n      jump\t// in\n    tag_197:\n        /* \"#utility.yul\":3156:3244   */\n      swap2\n      pop\n        /* \"#utility.yul\":2972:3250   */\n      pop\n        /* \"#utility.yul\":2910:3250   */\n      swap3\n      swap2\n      pop\n      pop\n      jump\t// out\n        /* \"#utility.yul\":3256:3910   */\n    tag_27:\n        /* \"#utility.yul\":3334:3340   */\n      0x00\n        /* \"#utility.yul\":3342:3348   */\n      dup1\n        /* \"#utility.yul\":3391:3393   */\n      0x40\n        /* \"#utility.yul\":3379:3388   */\n      dup4\n        /* \"#utility.yul\":3370:3377   */\n      dup6\n        /* \"#utility.yul\":3366:3389   */\n      sub\n        /* \"#utility.yul\":3362:3394   */\n      slt\n        /* \"#utility.yul\":3359:3478   */\n      iszero\n      tag_199\n      jumpi\n        /* \"#utility.yul\":3397:3476   */\n      tag_200\n      tag_132\n      jump\t// in\n    tag_200:\n        /* \"#utility.yul\":3359:3478   */\n    tag_199:\n        /* \"#utility.yul\":3517:3518   */\n      0x00\n        /* \"#utility.yul\":3542:3595   */\n      tag_201\n        /* \"#utility.yul\":3587:3594   */\n      dup6\n        /* \"#utility.yul\":3578:3584   */\n      dup3\n        /* \"#utility.yul\":3567:3576   */\n      dup7\n        /* \"#utility.yul\":3563:3585   */\n      add\n        /* \"#utility.yul\":3542:3595   */\n      tag_135\n      jump\t// in\n    tag_201:\n        /* \"#utility.yul\":3532:3595   */\n      swap3\n      pop\n        /* \"#utility.yul\":3488:3605   */\n      pop\n        /* \"#utility.yul\":3672:3674   */\n      0x20\n        /* \"#utility.yul\":3661:3670   */\n      dup4\n        /* \"#utility.yul\":3657:3675   */\n      add\n        /* \"#utility.yul\":3644:3676   */\n      calldataload\n        /* \"#utility.yul\":3703:3721   */\n      0xffffffffffffffff\n        /* \"#utility.yul\":3695:3701   */\n      dup2\n        /* \"#utility.yul\":3692:3722   */\n      gt\n        /* \"#utility.yul\":3689:3806   */\n      iszero\n      tag_202\n      jumpi\n        /* \"#utility.yul\":3725:3804   */\n      tag_203\n      tag_133\n      jump\t// in\n    tag_203:\n        /* \"#utility.yul\":3689:3806   */\n    tag_202:\n        /* \"#utility.yul\":3830:3893   */\n      tag_204\n        /* \"#utility.yul\":3885:3892   */\n      dup6\n        /* \"#utility.yul\":3876:3882   */\n      dup3\n        /* \"#utility.yul\":3865:3874   */\n      dup7\n        /* \"#utility.yul\":3861:3883   */\n      add\n        /* \"#utility.yul\":3830:3893   */\n      tag_145\n      jump\t// in\n    tag_204:\n        /* \"#utility.yul\":3820:3893   */\n      swap2\n      pop\n        /* \"#utility.yul\":3615:3903   */\n      pop\n        /* \"#utility.yul\":3256:3910   */\n      swap3\n      pop\n      swap3\n      swap1\n      pop\n      jump\t// out\n        /* \"#utility.yul\":3916:4042   */\n    tag_146:\n        /* \"#utility.yul\":3953:3960   */\n      0x00\n        /* \"#utility.yul\":3993:4035   */\n      0xffffffffffffffffffffffffffffffffffffffff\n        /* \"#utility.yul\":3986:3991   */\n      dup3\n        /* \"#utility.yul\":3982:4036   */\n      and\n        /* \"#utility.yul\":3971:4036   */\n      swap1\n      pop\n        /* \"#utility.yul\":3916:4042   */\n      swap2\n      swap1\n      pop\n      jump\t// out\n        /* \"#utility.yul\":4048:4144   */\n    tag_147:\n        /* \"#utility.yul\":4085:4092   */\n      0x00\n        /* \"#utility.yul\":4114:4138   */\n      tag_207\n        /* \"#utility.yul\":4132:4137   */\n      dup3\n        /* \"#utility.yul\":4114:4138   */\n      tag_146\n      jump\t// in\n    tag_207:\n        /* \"#utility.yul\":4103:4138   */\n      swap1\n      pop\n        /* \"#utility.yul\":4048:4144   */\n      swap2\n      swap1\n      pop\n      jump\t// out\n        /* \"#utility.yul\":4150:4272   */\n    tag_148:\n        /* \"#utility.yul\":4223:4247   */\n      tag_209\n        /* \"#utility.yul\":4241:4246   */\n      dup2\n        /* \"#utility.yul\":4223:4247   */\n      tag_147\n      jump\t// in\n    tag_209:\n        /* \"#utility.yul\":4216:4221   */\n      dup2\n        /* \"#utility.yul\":4213:4248   */\n      eq\n        /* \"#utility.yul\":4203:4266   */\n      tag_210\n      jumpi\n        /* \"#utility.yul\":4262:4263   */\n      0x00\n        /* \"#utility.yul\":4259:4260   */\n      dup1\n        /* \"#utility.yul\":4252:4264   */\n      revert\n        /* \"#utility.yul\":4203:4266   */\n    tag_210:\n        /* \"#utility.yul\":4150:4272   */\n      pop\n      jump\t// out\n        /* \"#utility.yul\":4278:4417   */\n    tag_149:\n        /* \"#utility.yul\":4324:4329   */\n      0x00\n        /* \"#utility.yul\":4362:4368   */\n      dup2\n        /* \"#utility.yul\":4349:4369   */\n      calldataload\n        /* \"#utility.yul\":4340:4369   */\n      swap1\n      pop\n        /* \"#utility.yul\":4378:4411   */\n      tag_212\n        /* \"#utility.yul\":4405:4410   */\n      dup2\n        /* \"#utility.yul\":4378:4411   */\n      tag_148\n      jump\t// in\n    tag_212:\n        /* \"#utility.yul\":4278:4417   */\n      swap3\n      swap2\n      pop\n      pop\n      jump\t// out\n        /* \"#utility.yul\":4423:4752   */\n    tag_34:\n        /* \"#utility.yul\":4482:4488   */\n      0x00\n        /* \"#utility.yul\":4531:4533   */\n      0x20\n        /* \"#utility.yul\":4519:4528   */\n      dup3\n        /* \"#utility.yul\":4510:4517   */\n      dup5\n        /* \"#utility.yul\":4506:4529   */\n      sub\n        /* \"#utility.yul\":4502:4534   */\n      slt\n        /* \"#utility.yul\":4499:4618   */\n      iszero\n      tag_214\n      jumpi\n        /* \"#utility.yul\":4537:4616   */\n      tag_215\n      tag_132\n      jump\t// in\n    tag_215:\n        /* \"#utility.yul\":4499:4618   */\n    tag_214:\n        /* \"#utility.yul\":4657:4658   */\n      0x00\n        /* \"#utility.yul\":4682:4735   */\n      tag_216\n        /* \"#utility.yul\":4727:4734   */\n      dup5\n        /* \"#utility.yul\":4718:4724   */\n      dup3\n        /* \"#utility.yul\":4707:4716   */\n      dup6\n        /* \"#utility.yul\":4703:4725   */\n      add\n        /* \"#utility.yul\":4682:4735   */\n      tag_149\n      jump\t// in\n    tag_216:\n        /* \"#utility.yul\":4672:4735   */\n      swap2\n      pop\n        /* \"#utility.yul\":4628:4745   */\n      pop\n        /* \"#utility.yul\":4423:4752   */\n      swap3\n      swap2\n      pop\n      pop\n      jump\t// out\n        /* \"#utility.yul\":4758:4857   */\n    tag_150:\n        /* \"#utility.yul\":4810:4816   */\n      0x00\n        /* \"#utility.yul\":4844:4849   */\n      dup2\n        /* \"#utility.yul\":4838:4850   */\n      mload\n        /* \"#utility.yul\":4828:4850   */\n      swap1\n      pop\n        /* \"#utility.yul\":4758:4857   */\n      swap2\n      swap1\n      pop\n      jump\t// out\n        /* \"#utility.yul\":4863:5032   */\n    tag_151:\n        /* \"#utility.yul\":4947:4958   */\n      0x00\n        /* \"#utility.yul\":4981:4987   */\n      dup3\n        /* \"#utility.yul\":4976:4979   */\n      dup3\n        /* \"#utility.yul\":4969:4988   */\n      mstore\n        /* \"#utility.yul\":5021:5025   */\n      0x20\n        /* \"#utility.yul\":5016:5019   */\n      dup3\n        /* \"#utility.yul\":5012:5026   */\n      add\n        /* \"#utility.yul\":4997:5026   */\n      swap1\n      pop\n        /* \"#utility.yul\":4863:5032   */\n      swap3\n      swap2\n      pop\n      pop\n      jump\t// out\n        /* \"#utility.yul\":5038:5345   */\n    tag_152:\n        /* \"#utility.yul\":5106:5107   */\n      0x00\n        /* \"#utility.yul\":5116:5229   */\n    tag_220:\n        /* \"#utility.yul\":5130:5136   */\n      dup4\n        /* \"#utility.yul\":5127:5128   */\n      dup2\n        /* \"#utility.yul\":5124:5137   */\n      lt\n        /* \"#utility.yul\":5116:5229   */\n      iszero\n      tag_222\n      jumpi\n        /* \"#utility.yul\":5215:5216   */\n      dup1\n        /* \"#utility.yul\":5210:5213   */\n      dup3\n        /* \"#utility.yul\":5206:5217   */\n      add\n        /* \"#utility.yul\":5200:5218   */\n      mload\n        /* \"#utility.yul\":5196:5197   */\n      dup2\n        /* \"#utility.yul\":5191:5194   */\n      dup5\n        /* \"#utility.yul\":5187:5198   */\n      add\n        /* \"#utility.yul\":5180:5219   */\n      mstore\n        /* \"#utility.yul\":5152:5154   */\n      0x20\n        /* \"#utility.yul\":5149:5150   */\n      dup2\n        /* \"#utility.yul\":5145:5155   */\n      add\n        /* \"#utility.yul\":5140:5155   */\n      swap1\n      pop\n        /* \"#utility.yul\":5116:5229   */\n      jump(tag_220)\n    tag_222:\n        /* \"#utility.yul\":5247:5253   */\n      dup4\n        /* \"#utility.yul\":5244:5245   */\n      dup2\n        /* \"#utility.yul\":5241:5254   */\n      gt\n        /* \"#utility.yul\":5238:5339   */\n      iszero\n      tag_223\n      jumpi\n        /* \"#utility.yul\":5327:5328   */\n      0x00\n        /* \"#utility.yul\":5318:5324   */\n      dup5\n        /* \"#utility.yul\":5313:5316   */\n      dup5\n        /* \"#utility.yul\":5309:5325   */\n      add\n        /* \"#utility.yul\":5302:5329   */\n      mstore\n        /* \"#utility.yul\":5238:5339   */\n    tag_223:\n        /* \"#utility.yul\":5087:5345   */\n      pop\n        /* \"#utility.yul\":5038:5345   */\n      pop\n      pop\n      pop\n      jump\t// out\n        /* \"#utility.yul\":5351:5715   */\n    tag_153:\n        /* \"#utility.yul\":5439:5442   */\n      0x00\n        /* \"#utility.yul\":5467:5506   */\n      tag_225\n        /* \"#utility.yul\":5500:5505   */\n      dup3\n        /* \"#utility.yul\":5467:5506   */\n      tag_150\n      jump\t// in\n    tag_225:\n        /* \"#utility.yul\":5522:5593   */\n      tag_226\n        /* \"#utility.yul\":5586:5592   */\n      dup2\n        /* \"#utility.yul\":5581:5584   */\n      dup6\n        /* \"#utility.yul\":5522:5593   */\n      tag_151\n      jump\t// in\n    tag_226:\n        /* \"#utility.yul\":5515:5593   */\n      swap4\n      pop\n        /* \"#utility.yul\":5602:5654   */\n      tag_227\n        /* \"#utility.yul\":5647:5653   */\n      dup2\n        /* \"#utility.yul\":5642:5645   */\n      dup6\n        /* \"#utility.yul\":5635:5639   */\n      0x20\n        /* \"#utility.yul\":5628:5633   */\n      dup7\n        /* \"#utility.yul\":5624:5640   */\n      add\n        /* \"#utility.yul\":5602:5654   */\n      tag_152\n      jump\t// in\n    tag_227:\n        /* \"#utility.yul\":5679:5708   */\n      tag_228\n        /* \"#utility.yul\":5701:5707   */\n      dup2\n        /* \"#utility.yul\":5679:5708   */\n      tag_138\n      jump\t// in\n    tag_228:\n        /* \"#utility.yul\":5674:5677   */\n      dup5\n        /* \"#utility.yul\":5670:5709   */\n      add\n        /* \"#utility.yul\":5663:5709   */\n      swap2\n      pop\n        /* \"#utility.yul\":5443:5715   */\n      pop\n        /* \"#utility.yul\":5351:5715   */\n      swap3\n      swap2\n      pop\n      pop\n      jump\t// out\n        /* \"#utility.yul\":5721:6034   */\n    tag_37:\n        /* \"#utility.yul\":5834:5838   */\n      0x00\n        /* \"#utility.yul\":5872:5874   */\n      0x20\n        /* \"#utility.yul\":5861:5870   */\n      dup3\n        /* \"#utility.yul\":5857:5875   */\n      add\n        /* \"#utility.yul\":5849:5875   */\n      swap1\n      pop\n        /* \"#utility.yul\":5921:5930   */\n      dup2\n        /* \"#utility.yul\":5915:5919   */\n      dup2\n        /* \"#utility.yul\":5911:5931   */\n      sub\n        /* \"#utility.yul\":5907:5908   */\n      0x00\n        /* \"#utility.yul\":5896:5905   */\n      dup4\n        /* \"#utility.yul\":5892:5909   */\n      add\n        /* \"#utility.yul\":5885:5932   */\n      mstore\n        /* \"#utility.yul\":5949:6027   */\n      tag_230\n        /* \"#utility.yul\":6022:6026   */\n      dup2\n        /* \"#utility.yul\":6013:6019   */\n      dup5\n        /* \"#utility.yul\":5949:6027   */\n      tag_153\n      jump\t// in\n    tag_230:\n        /* \"#utility.yul\":5941:6027   */\n      swap1\n      pop\n        /* \"#utility.yul\":5721:6034   */\n      swap3\n      swap2\n      pop\n      pop\n      jump\t// out\n        /* \"#utility.yul\":6040:6369   */\n    tag_46:\n        /* \"#utility.yul\":6099:6105   */\n      0x00\n        /* \"#utility.yul\":6148:6150   */\n      0x20\n        /* \"#utility.yul\":6136:6145   */\n      dup3\n        /* \"#utility.yul\":6127:6134   */\n      dup5\n        /* \"#utility.yul\":6123:6146   */\n      sub\n        /* \"#utility.yul\":6119:6151   */\n      slt\n        /* \"#utility.yul\":6116:6235   */\n      iszero\n      tag_232\n      jumpi\n        /* \"#utility.yul\":6154:6233   */\n      tag_233\n      tag_132\n      jump\t// in\n    tag_233:\n        /* \"#utility.yul\":6116:6235   */\n    tag_232:\n        /* \"#utility.yul\":6274:6275   */\n      0x00\n        /* \"#utility.yul\":6299:6352   */\n      tag_234\n        /* \"#utility.yul\":6344:6351   */\n      dup5\n        /* \"#utility.yul\":6335:6341   */\n      dup3\n        /* \"#utility.yul\":6324:6333   */\n      dup6\n        /* \"#utility.yul\":6320:6342   */\n      add\n        /* \"#utility.yul\":6299:6352   */\n      tag_135\n      jump\t// in\n    tag_234:\n        /* \"#utility.yul\":6289:6352   */\n      swap2\n      pop\n        /* \"#utility.yul\":6245:6362   */\n      pop\n        /* \"#utility.yul\":6040:6369   */\n      swap3\n      swap2\n      pop\n      pop\n      jump\t// out\n        /* \"#utility.yul\":6375:6493   */\n    tag_154:\n        /* \"#utility.yul\":6462:6486   */\n      tag_236\n        /* \"#utility.yul\":6480:6485   */\n      dup2\n        /* \"#utility.yul\":6462:6486   */\n      tag_147\n      jump\t// in\n    tag_236:\n        /* \"#utility.yul\":6457:6460   */\n      dup3\n        /* \"#utility.yul\":6450:6487   */\n      mstore\n        /* \"#utility.yul\":6375:6493   */\n      pop\n      pop\n      jump\t// out\n        /* \"#utility.yul\":6499:7032   */\n    tag_49:\n        /* \"#utility.yul\":6668:6672   */\n      0x00\n        /* \"#utility.yul\":6706:6708   */\n      0x60\n        /* \"#utility.yul\":6695:6704   */\n      dup3\n        /* \"#utility.yul\":6691:6709   */\n      add\n        /* \"#utility.yul\":6683:6709   */\n      swap1\n      pop\n        /* \"#utility.yul\":6719:6790   */\n      tag_238\n        /* \"#utility.yul\":6787:6788   */\n      0x00\n        /* \"#utility.yul\":6776:6785   */\n      dup4\n        /* \"#utility.yul\":6772:6789   */\n      add\n        /* \"#utility.yul\":6763:6769   */\n      dup7\n        /* \"#utility.yul\":6719:6790   */\n      tag_130\n      jump\t// in\n    tag_238:\n        /* \"#utility.yul\":6800:6872   */\n      tag_239\n        /* \"#utility.yul\":6868:6870   */\n      0x20\n        /* \"#utility.yul\":6857:6866   */\n      dup4\n        /* \"#utility.yul\":6853:6871   */\n      add\n        /* \"#utility.yul\":6844:6850   */\n      dup6\n        /* \"#utility.yul\":6800:6872   */\n      tag_154\n      jump\t// in\n    tag_239:\n        /* \"#utility.yul\":6919:6928   */\n      dup2\n        /* \"#utility.yul\":6913:6917   */\n      dup2\n        /* \"#utility.yul\":6909:6929   */\n      sub\n        /* \"#utility.yul\":6904:6906   */\n      0x40\n        /* \"#utility.yul\":6893:6902   */\n      dup4\n        /* \"#utility.yul\":6889:6907   */\n      add\n        /* \"#utility.yul\":6882:6930   */\n      mstore\n        /* \"#utility.yul\":6947:7025   */\n      tag_240\n        /* \"#utility.yul\":7020:7024   */\n      dup2\n        /* \"#utility.yul\":7011:7017   */\n      dup5\n        /* \"#utility.yul\":6947:7025   */\n      tag_153\n      jump\t// in\n    tag_240:\n        /* \"#utility.yul\":6939:7025   */\n      swap1\n      pop\n        /* \"#utility.yul\":6499:7032   */\n      swap5\n      swap4\n      pop\n      pop\n      pop\n      pop\n      jump\t// out\n        /* \"#utility.yul\":7038:7260   */\n    tag_57:\n        /* \"#utility.yul\":7131:7135   */\n      0x00\n        /* \"#utility.yul\":7169:7171   */\n      0x20\n        /* \"#utility.yul\":7158:7167   */\n      dup3\n        /* \"#utility.yul\":7154:7172   */\n      add\n        /* \"#utility.yul\":7146:7172   */\n      swap1\n      pop\n        /* \"#utility.yul\":7182:7253   */\n      tag_242\n        /* \"#utility.yul\":7250:7251   */\n      0x00\n        /* \"#utility.yul\":7239:7248   */\n      dup4\n        /* \"#utility.yul\":7235:7252   */\n      add\n        /* \"#utility.yul\":7226:7232   */\n      dup5\n        /* \"#utility.yul\":7182:7253   */\n      tag_154\n      jump\t// in\n    tag_242:\n        /* \"#utility.yul\":7038:7260   */\n      swap3\n      swap2\n      pop\n      pop\n      jump\t// out\n        /* \"#utility.yul\":7266:8065   */\n    tag_66:\n        /* \"#utility.yul\":7353:7359   */\n      0x00\n        /* \"#utility.yul\":7361:7367   */\n      dup1\n        /* \"#utility.yul\":7369:7375   */\n      0x00\n        /* \"#utility.yul\":7418:7420   */\n      0x60\n        /* \"#utility.yul\":7406:7415   */\n      dup5\n        /* \"#utility.yul\":7397:7404   */\n      dup7\n        /* \"#utility.yul\":7393:7416   */\n      sub\n        /* \"#utility.yul\":7389:7421   */\n      slt\n        /* \"#utility.yul\":7386:7505   */\n      iszero\n      tag_244\n      jumpi\n        /* \"#utility.yul\":7424:7503   */\n      tag_245\n      tag_132\n      jump\t// in\n    tag_245:\n        /* \"#utility.yul\":7386:7505   */\n    tag_244:\n        /* \"#utility.yul\":7572:7573   */\n      0x00\n        /* \"#utility.yul\":7561:7570   */\n      dup5\n        /* \"#utility.yul\":7557:7574   */\n      add\n        /* \"#utility.yul\":7544:7575   */\n      calldataload\n        /* \"#utility.yul\":7602:7620   */\n      0xffffffffffffffff\n        /* \"#utility.yul\":7594:7600   */\n      dup2\n        /* \"#utility.yul\":7591:7621   */\n      gt\n        /* \"#utility.yul\":7588:7705   */\n      iszero\n      tag_246\n      jumpi\n        /* \"#utility.yul\":7624:7703   */\n      tag_247\n      tag_133\n      jump\t// in\n    tag_247:\n        /* \"#utility.yul\":7588:7705   */\n    tag_246:\n        /* \"#utility.yul\":7729:7792   */\n      tag_248\n        /* \"#utility.yul\":7784:7791   */\n      dup7\n        /* \"#utility.yul\":7775:7781   */\n      dup3\n        /* \"#utility.yul\":7764:7773   */\n      dup8\n        /* \"#utility.yul\":7760:7782   */\n      add\n        /* \"#utility.yul\":7729:7792   */\n      tag_145\n      jump\t// in\n    tag_248:\n        /* \"#utility.yul\":7719:7792   */\n      swap4\n      pop\n        /* \"#utility.yul\":7515:7802   */\n      pop\n        /* \"#utility.yul\":7841:7843   */\n      0x20\n        /* \"#utility.yul\":7867:7920   */\n      tag_249\n        /* \"#utility.yul\":7912:7919   */\n      dup7\n        /* \"#utility.yul\":7903:7909   */\n      dup3\n        /* \"#utility.yul\":7892:7901   */\n      dup8\n        /* \"#utility.yul\":7888:7910   */\n      add\n        /* \"#utility.yul\":7867:7920   */\n      tag_135\n      jump\t// in\n    tag_249:\n        /* \"#utility.yul\":7857:7920   */\n      swap3\n      pop\n        /* \"#utility.yul\":7812:7930   */\n      pop\n        /* \"#utility.yul\":7969:7971   */\n      0x40\n        /* \"#utility.yul\":7995:8048   */\n      tag_250\n        /* \"#utility.yul\":8040:8047   */\n      dup7\n        /* \"#utility.yul\":8031:8037   */\n      dup3\n        /* \"#utility.yul\":8020:8029   */\n      dup8\n        /* \"#utility.yul\":8016:8038   */\n      add\n        /* \"#utility.yul\":7995:8048   */\n      tag_135\n      jump\t// in\n    tag_250:\n        /* \"#utility.yul\":7985:8048   */\n      swap2\n      pop\n        /* \"#utility.yul\":7940:8058   */\n      pop\n        /* \"#utility.yul\":7266:8065   */\n      swap3\n      pop\n      swap3\n      pop\n      swap3\n      jump\t// out\n        /* \"#utility.yul\":8071:8580   */\n    tag_75:\n        /* \"#utility.yul\":8140:8146   */\n      0x00\n        /* \"#utility.yul\":8189:8191   */\n      0x20\n        /* \"#utility.yul\":8177:8186   */\n      dup3\n        /* \"#utility.yul\":8168:8175   */\n      dup5\n        /* \"#utility.yul\":8164:8187   */\n      sub\n        /* \"#utility.yul\":8160:8192   */\n      slt\n        /* \"#utility.yul\":8157:8276   */\n      iszero\n      tag_252\n      jumpi\n        /* \"#utility.yul\":8195:8274   */\n      tag_253\n      tag_132\n      jump\t// in\n    tag_253:\n        /* \"#utility.yul\":8157:8276   */\n    tag_252:\n        /* \"#utility.yul\":8343:8344   */\n      0x00\n        /* \"#utility.yul\":8332:8341   */\n      dup3\n        /* \"#utility.yul\":8328:8345   */\n      add\n        /* \"#utility.yul\":8315:8346   */\n      calldataload\n        /* \"#utility.yul\":8373:8391   */\n      0xffffffffffffffff\n        /* \"#utility.yul\":8365:8371   */\n      dup2\n        /* \"#utility.yul\":8362:8392   */\n      gt\n        /* \"#utility.yul\":8359:8476   */\n      iszero\n      tag_254\n      jumpi\n        /* \"#utility.yul\":8395:8474   */\n      tag_255\n      tag_133\n      jump\t// in\n    tag_255:\n        /* \"#utility.yul\":8359:8476   */\n    tag_254:\n        /* \"#utility.yul\":8500:8563   */\n      tag_256\n        /* \"#utility.yul\":8555:8562   */\n      dup5\n        /* \"#utility.yul\":8546:8552   */\n      dup3\n        /* \"#utility.yul\":8535:8544   */\n      dup6\n        /* \"#utility.yul\":8531:8553   */\n      add\n        /* \"#utility.yul\":8500:8563   */\n      tag_145\n      jump\t// in\n    tag_256:\n        /* \"#utility.yul\":8490:8563   */\n      swap2\n      pop\n        /* \"#utility.yul\":8286:8573   */\n      pop\n        /* \"#utility.yul\":8071:8580   */\n      swap3\n      swap2\n      pop\n      pop\n      jump\t// out\n        /* \"#utility.yul\":8586:8766   */\n    tag_155:\n        /* \"#utility.yul\":8634:8711   */\n      0x4e487b7100000000000000000000000000000000000000000000000000000000\n        /* \"#utility.yul\":8631:8632   */\n      0x00\n        /* \"#utility.yul\":8624:8712   */\n      mstore\n        /* \"#utility.yul\":8731:8735   */\n      0x22\n        /* \"#utility.yul\":8728:8729   */\n      0x04\n        /* \"#utility.yul\":8721:8736   */\n      mstore\n        /* \"#utility.yul\":8755:8759   */\n      0x24\n        /* \"#utility.yul\":8752:8753   */\n      0x00\n        /* \"#utility.yul\":8745:8760   */\n      revert\n        /* \"#utility.yul\":8772:9092   */\n    tag_81:\n        /* \"#utility.yul\":8816:8822   */\n      0x00\n        /* \"#utility.yul\":8853:8854   */\n      0x02\n        /* \"#utility.yul\":8847:8851   */\n      dup3\n        /* \"#utility.yul\":8843:8855   */\n      div\n        /* \"#utility.yul\":8833:8855   */\n      swap1\n      pop\n        /* \"#utility.yul\":8900:8901   */\n      0x01\n        /* \"#utility.yul\":8894:8898   */\n      dup3\n        /* \"#utility.yul\":8890:8902   */\n      and\n        /* \"#utility.yul\":8921:8939   */\n      dup1\n        /* \"#utility.yul\":8911:8992   */\n      tag_259\n      jumpi\n        /* \"#utility.yul\":8977:8981   */\n      0x7f\n        /* \"#utility.yul\":8969:8975   */\n      dup3\n        /* \"#utility.yul\":8965:8982   */\n      and\n        /* \"#utility.yul\":8955:8982   */\n      swap2\n      pop\n        /* \"#utility.yul\":8911:8992   */\n    tag_259:\n        /* \"#utility.yul\":9039:9041   */\n      0x20\n        /* \"#utility.yul\":9031:9037   */\n      dup3\n        /* \"#utility.yul\":9028:9042   */\n      lt\n        /* \"#utility.yul\":9008:9026   */\n      dup2\n        /* \"#utility.yul\":9005:9043   */\n      sub\n        /* \"#utility.yul\":9002:9086   */\n      tag_260\n      jumpi\n        /* \"#utility.yul\":9058:9076   */\n      tag_261\n      tag_155\n      jump\t// in\n    tag_261:\n        /* \"#utility.yul\":9002:9086   */\n    tag_260:\n        /* \"#utility.yul\":8823:9092   */\n      pop\n        /* \"#utility.yul\":8772:9092   */\n      swap2\n      swap1\n      pop\n      jump\t// out\n        /* \"#utility.yul\":9098:9324   */\n    tag_156:\n        /* \"#utility.yul\":9238:9272   */\n      0x4f6e6c792061756374696f6e6565722063616e2063616c6c2074686973206675\n        /* \"#utility.yul\":9234:9235   */\n      0x00\n        /* \"#utility.yul\":9226:9232   */\n      dup3\n        /* \"#utility.yul\":9222:9236   */\n      add\n        /* \"#utility.yul\":9215:9273   */\n      mstore\n        /* \"#utility.yul\":9307:9316   */\n      0x6e6374696f6e2e00000000000000000000000000000000000000000000000000\n        /* \"#utility.yul\":9302:9304   */\n      0x20\n        /* \"#utility.yul\":9294:9300   */\n      dup3\n        /* \"#utility.yul\":9290:9305   */\n      add\n        /* \"#utility.yul\":9283:9317   */\n      mstore\n        /* \"#utility.yul\":9098:9324   */\n      pop\n      jump\t// out\n        /* \"#utility.yul\":9330:9696   */\n    tag_157:\n        /* \"#utility.yul\":9472:9475   */\n      0x00\n        /* \"#utility.yul\":9493:9560   */\n      tag_264\n        /* \"#utility.yul\":9557:9559   */\n      0x27\n        /* \"#utility.yul\":9552:9555   */\n      dup4\n        /* \"#utility.yul\":9493:9560   */\n      tag_151\n      jump\t// in\n    tag_264:\n        /* \"#utility.yul\":9486:9560   */\n      swap2\n      pop\n        /* \"#utility.yul\":9569:9662   */\n      tag_265\n        /* \"#utility.yul\":9658:9661   */\n      dup3\n        /* \"#utility.yul\":9569:9662   */\n      tag_156\n      jump\t// in\n    tag_265:\n        /* \"#utility.yul\":9687:9689   */\n      0x40\n        /* \"#utility.yul\":9682:9685   */\n      dup3\n        /* \"#utility.yul\":9678:9690   */\n      add\n        /* \"#utility.yul\":9671:9690   */\n      swap1\n      pop\n        /* \"#utility.yul\":9330:9696   */\n      swap2\n      swap1\n      pop\n      jump\t// out\n        /* \"#utility.yul\":9702:10121   */\n    tag_112:\n        /* \"#utility.yul\":9868:9872   */\n      0x00\n        /* \"#utility.yul\":9906:9908   */\n      0x20\n        /* \"#utility.yul\":9895:9904   */\n      dup3\n        /* \"#utility.yul\":9891:9909   */\n      add\n        /* \"#utility.yul\":9883:9909   */\n      swap1\n      pop\n        /* \"#utility.yul\":9955:9964   */\n      dup2\n        /* \"#utility.yul\":9949:9953   */\n      dup2\n        /* \"#utility.yul\":9945:9965   */\n      sub\n        /* \"#utility.yul\":9941:9942   */\n      0x00\n        /* \"#utility.yul\":9930:9939   */\n      dup4\n        /* \"#utility.yul\":9926:9943   */\n      add\n        /* \"#utility.yul\":9919:9966   */\n      mstore\n        /* \"#utility.yul\":9983:10114   */\n      tag_267\n        /* \"#utility.yul\":10109:10113   */\n      dup2\n        /* \"#utility.yul\":9983:10114   */\n      tag_157\n      jump\t// in\n    tag_267:\n        /* \"#utility.yul\":9975:10114   */\n      swap1\n      pop\n        /* \"#utility.yul\":9702:10121   */\n      swap2\n      swap1\n      pop\n      jump\t// out\n\n    auxdata: 0xa264697066735822122019a63e89973c096ea22a61ca15c41c99fe1b60c1ed5ded88d0a26a00d188d2fd64736f6c634300080e0033\n}\n",
				"bytecode": {
					"linkReferences": {},
					"object": "608060405234801561001057600080fd5b50610f3a806100206000396000f3fe608060405234801561001057600080fd5b50600436106100f55760003560e01c8063938626c211610097578063e7d2a99711610066578063e7d2a99714610278578063ed7a4e0b14610294578063f356733c146102b2578063ff567d8d146102bc576100f5565b8063938626c2146101ee578063cff29dfd1461020c578063d476620b1461023c578063daa0218f1461025a576100f5565b80633817df4c116100d35780633817df4c1461015257806366c85dee1461018257806383050daa1461019e5780638f772f96146101bc576100f5565b806311631d06146100fa5780631744e03b1461011857806334eb86a214610134575b600080fd5b6101026102d8565b60405161010f9190610993565b60405180910390f35b610132600480360381019061012d9190610b34565b6102de565b005b61013c610341565b6040516101499190610993565b60405180910390f35b61016c60048036038101906101679190610bee565b610347565b6040516101799190610ca3565b60405180910390f35b61019c60048036038101906101979190610b34565b6103e7565b005b6101a66104bd565b6040516101b39190610ca3565b60405180910390f35b6101d660048036038101906101d19190610cc5565b6104fa565b6040516101e593929190610d01565b60405180910390f35b6101f66105dc565b6040516102039190610ca3565b60405180910390f35b61022660048036038101906102219190610cc5565b61066a565b6040516102339190610d3f565b60405180910390f35b6102446106a9565b6040516102519190610ca3565b60405180910390f35b610262610737565b60405161026f9190610993565b60405180910390f35b610292600480360381019061028d9190610d5a565b61073d565b005b61029c6107f5565b6040516102a99190610d3f565b60405180910390f35b6102ba61081b565b005b6102d660048036038101906102d19190610dc9565b610880565b005b60075481565b33600660006101000a81548173ffffffffffffffffffffffffffffffffffffffff021916908373ffffffffffffffffffffffffffffffffffffffff16021790555081600781905550806008908051906020019061033c9291906108d7565b505050565b60035481565b6005602052806000526040600020600091509050805461036690610e41565b80601f016020809104026020016040519081016040528092919081815260200182805461039290610e41565b80156103df5780601f106103b4576101008083540402835291602001916103df565b820191906000526020600020905b8154815290600101906020018083116103c257829003601f168201915b505050505081565b600060405180606001604052808481526020013373ffffffffffffffffffffffffffffffffffffffff16815260200183815250905060098190806001815401808255809150506001900390600052602060002090600302016000909190919091506000820151816000015560208201518160010160006101000a81548173ffffffffffffffffffffffffffffffffffffffff021916908373ffffffffffffffffffffffffffffffffffffffff16021790555060408201518160020190805190602001906104b59291906108d7565b505050505050565b60606040518060400160405280601781526020017f73616d706c6520737472696e672066726f6d20414b4542000000000000000000815250905090565b6009818154811061050a57600080fd5b90600052602060002090600302016000915090508060000154908060010160009054906101000a900473ffffffffffffffffffffffffffffffffffffffff169080600201805461055990610e41565b80601f016020809104026020016040519081016040528092919081815260200182805461058590610e41565b80156105d25780601f106105a7576101008083540402835291602001916105d2565b820191906000526020600020905b8154815290600101906020018083116105b557829003601f168201915b5050505050905083565b600280546105e990610e41565b80601f016020809104026020016040519081016040528092919081815260200182805461061590610e41565b80156106625780601f1061063757610100808354040283529160200191610662565b820191906000526020600020905b81548152906001019060200180831161064557829003601f168201915b505050505081565b6001818154811061067a57600080fd5b906000526020600020016000915054906101000a900473ffffffffffffffffffffffffffffffffffffffff1681565b600880546106b690610e41565b80601f01602080910402602001604051908101604052809291908181526020018280546106e290610e41565b801561072f5780601f106107045761010080835404028352916020019161072f565b820191906000526020600020905b81548152906001019060200180831161071257829003601f168201915b505050505081565b60045481565b60008054906101000a900473ffffffffffffffffffffffffffffffffffffffff1673ffffffffffffffffffffffffffffffffffffffff163373ffffffffffffffffffffffffffffffffffffffff16146107cb576040517f08c379a00000000000000000000000000000000000000000000000000000000081526004016107c290610ee4565b60405180910390fd5b82600290805190602001906107e19291906108d7565b508160038190555080600481905550505050565b600660009054906101000a900473ffffffffffffffffffffffffffffffffffffffff1681565b6001339080600181540180825580915050600190039060005260206000200160009091909190916101000a81548173ffffffffffffffffffffffffffffffffffffffff021916908373ffffffffffffffffffffffffffffffffffffffff160217905550565b80600560003373ffffffffffffffffffffffffffffffffffffffff1673ffffffffffffffffffffffffffffffffffffffff16815260200190815260200160002090805190602001906108d39291906108d7565b5050565b8280546108e390610e41565b90600052602060002090601f016020900481019282610905576000855561094c565b82601f1061091e57805160ff191683800117855561094c565b8280016001018555821561094c579182015b8281111561094b578251825591602001919060010190610930565b5b509050610959919061095d565b5090565b5b8082111561097657600081600090555060010161095e565b5090565b6000819050919050565b61098d8161097a565b82525050565b60006020820190506109a86000830184610984565b92915050565b6000604051905090565b600080fd5b600080fd5b6109cb8161097a565b81146109d657600080fd5b50565b6000813590506109e8816109c2565b92915050565b600080fd5b600080fd5b6000601f19601f8301169050919050565b7f4e487b7100000000000000000000000000000000000000000000000000000000600052604160045260246000fd5b610a41826109f8565b810181811067ffffffffffffffff82111715610a6057610a5f610a09565b5b80604052505050565b6000610a736109ae565b9050610a7f8282610a38565b919050565b600067ffffffffffffffff821115610a9f57610a9e610a09565b5b610aa8826109f8565b9050602081019050919050565b82818337600083830152505050565b6000610ad7610ad284610a84565b610a69565b905082815260208101848484011115610af357610af26109f3565b5b610afe848285610ab5565b509392505050565b600082601f830112610b1b57610b1a6109ee565b5b8135610b2b848260208601610ac4565b91505092915050565b60008060408385031215610b4b57610b4a6109b8565b5b6000610b59858286016109d9565b925050602083013567ffffffffffffffff811115610b7a57610b796109bd565b5b610b8685828601610b06565b9150509250929050565b600073ffffffffffffffffffffffffffffffffffffffff82169050919050565b6000610bbb82610b90565b9050919050565b610bcb81610bb0565b8114610bd657600080fd5b50565b600081359050610be881610bc2565b92915050565b600060208284031215610c0457610c036109b8565b5b6000610c1284828501610bd9565b91505092915050565b600081519050919050565b600082825260208201905092915050565b60005b83811015610c55578082015181840152602081019050610c3a565b83811115610c64576000848401525b50505050565b6000610c7582610c1b565b610c7f8185610c26565b9350610c8f818560208601610c37565b610c98816109f8565b840191505092915050565b60006020820190508181036000830152610cbd8184610c6a565b905092915050565b600060208284031215610cdb57610cda6109b8565b5b6000610ce9848285016109d9565b91505092915050565b610cfb81610bb0565b82525050565b6000606082019050610d166000830186610984565b610d236020830185610cf2565b8181036040830152610d358184610c6a565b9050949350505050565b6000602082019050610d546000830184610cf2565b92915050565b600080600060608486031215610d7357610d726109b8565b5b600084013567ffffffffffffffff811115610d9157610d906109bd565b5b610d9d86828701610b06565b9350506020610dae868287016109d9565b9250506040610dbf868287016109d9565b9150509250925092565b600060208284031215610ddf57610dde6109b8565b5b600082013567ffffffffffffffff811115610dfd57610dfc6109bd565b5b610e0984828501610b06565b91505092915050565b7f4e487b7100000000000000000000000000000000000000000000000000000000600052602260045260246000fd5b60006002820490506001821680610e5957607f821691505b602082108103610e6c57610e6b610e12565b5b50919050565b7f4f6e6c792061756374696f6e6565722063616e2063616c6c207468697320667560008201527f6e6374696f6e2e00000000000000000000000000000000000000000000000000602082015250565b6000610ece602783610c26565b9150610ed982610e72565b604082019050919050565b60006020820190508181036000830152610efd81610ec1565b905091905056fea264697066735822122019a63e89973c096ea22a61ca15c41c99fe1b60c1ed5ded88d0a26a00d188d2fd64736f6c634300080e0033",
					"opcodes": "PUSH1 0x80 PUSH1 0x40 MSTORE CALLVALUE DUP1 ISZERO PUSH2 0x10 JUMPI PUSH1 0x0 DUP1 REVERT JUMPDEST POP PUSH2 0xF3A DUP1 PUSH2 0x20 PUSH1 0x0 CODECOPY PUSH1 0x0 RETURN INVALID PUSH1 0x80 PUSH1 0x40 MSTORE CALLVALUE DUP1 ISZERO PUSH2 0x10 JUMPI PUSH1 0x0 DUP1 REVERT JUMPDEST POP PUSH1 0x4 CALLDATASIZE LT PUSH2 0xF5 JUMPI PUSH1 0x0 CALLDATALOAD PUSH1 0xE0 SHR DUP1 PUSH4 0x938626C2 GT PUSH2 0x97 JUMPI DUP1 PUSH4 0xE7D2A997 GT PUSH2 0x66 JUMPI DUP1 PUSH4 0xE7D2A997 EQ PUSH2 0x278 JUMPI DUP1 PUSH4 0xED7A4E0B EQ PUSH2 0x294 JUMPI DUP1 PUSH4 0xF356733C EQ PUSH2 0x2B2 JUMPI DUP1 PUSH4 0xFF567D8D EQ PUSH2 0x2BC JUMPI PUSH2 0xF5 JUMP JUMPDEST DUP1 PUSH4 0x938626C2 EQ PUSH2 0x1EE JUMPI DUP1 PUSH4 0xCFF29DFD EQ PUSH2 0x20C JUMPI DUP1 PUSH4 0xD476620B EQ PUSH2 0x23C JUMPI DUP1 PUSH4 0xDAA0218F EQ PUSH2 0x25A JUMPI PUSH2 0xF5 JUMP JUMPDEST DUP1 PUSH4 0x3817DF4C GT PUSH2 0xD3 JUMPI DUP1 PUSH4 0x3817DF4C EQ PUSH2 0x152 JUMPI DUP1 PUSH4 0x66C85DEE EQ PUSH2 0x182 JUMPI DUP1 PUSH4 0x83050DAA EQ PUSH2 0x19E JUMPI DUP1 PUSH4 0x8F772F96 EQ PUSH2 0x1BC JUMPI PUSH2 0xF5 JUMP JUMPDEST DUP1 PUSH4 0x11631D06 EQ PUSH2 0xFA JUMPI DUP1 PUSH4 0x1744E03B EQ PUSH2 0x118 JUMPI DUP1 PUSH4 0x34EB86A2 EQ PUSH2 0x134 JUMPI JUMPDEST PUSH1 0x0 DUP1 REVERT JUMPDEST PUSH2 0x102 PUSH2 0x2D8 JUMP JUMPDEST PUSH1 0x40 MLOAD PUSH2 0x10F SWAP2 SWAP1 PUSH2 0x993 JUMP JUMPDEST PUSH1 0x40 MLOAD DUP1 SWAP2 SUB SWAP1 RETURN JUMPDEST PUSH2 0x132 PUSH1 0x4 DUP1 CALLDATASIZE SUB DUP2 ADD SWAP1 PUSH2 0x12D SWAP2 SWAP1 PUSH2 0xB34 JUMP JUMPDEST PUSH2 0x2DE JUMP JUMPDEST STOP JUMPDEST PUSH2 0x13C PUSH2 0x341 JUMP JUMPDEST PUSH1 0x40 MLOAD PUSH2 0x149 SWAP2 SWAP1 PUSH2 0x993 JUMP JUMPDEST PUSH1 0x40 MLOAD DUP1 SWAP2 SUB SWAP1 RETURN JUMPDEST PUSH2 0x16C PUSH1 0x4 DUP1 CALLDATASIZE SUB DUP2 ADD SWAP1 PUSH2 0x167 SWAP2 SWAP1 PUSH2 0xBEE JUMP JUMPDEST PUSH2 0x347 JUMP JUMPDEST PUSH1 0x40 MLOAD PUSH2 0x179 SWAP2 SWAP1 PUSH2 0xCA3 JUMP JUMPDEST PUSH1 0x40 MLOAD DUP1 SWAP2 SUB SWAP1 RETURN JUMPDEST PUSH2 0x19C PUSH1 0x4 DUP1 CALLDATASIZE SUB DUP2 ADD SWAP1 PUSH2 0x197 SWAP2 SWAP1 PUSH2 0xB34 JUMP JUMPDEST PUSH2 0x3E7 JUMP JUMPDEST STOP JUMPDEST PUSH2 0x1A6 PUSH2 0x4BD JUMP JUMPDEST PUSH1 0x40 MLOAD PUSH2 0x1B3 SWAP2 SWAP1 PUSH2 0xCA3 JUMP JUMPDEST PUSH1 0x40 MLOAD DUP1 SWAP2 SUB SWAP1 RETURN JUMPDEST PUSH2 0x1D6 PUSH1 0x4 DUP1 CALLDATASIZE SUB DUP2 ADD SWAP1 PUSH2 0x1D1 SWAP2 SWAP1 PUSH2 0xCC5 JUMP JUMPDEST PUSH2 0x4FA JUMP JUMPDEST PUSH1 0x40 MLOAD PUSH2 0x1E5 SWAP4 SWAP3 SWAP2 SWAP1 PUSH2 0xD01 JUMP JUMPDEST PUSH1 0x40 MLOAD DUP1 SWAP2 SUB SWAP1 RETURN JUMPDEST PUSH2 0x1F6 PUSH2 0x5DC JUMP JUMPDEST PUSH1 0x40 MLOAD PUSH2 0x203 SWAP2 SWAP1 PUSH2 0xCA3 JUMP JUMPDEST PUSH1 0x40 MLOAD DUP1 SWAP2 SUB SWAP1 RETURN JUMPDEST PUSH2 0x226 PUSH1 0x4 DUP1 CALLDATASIZE SUB DUP2 ADD SWAP1 PUSH2 0x221 SWAP2 SWAP1 PUSH2 0xCC5 JUMP JUMPDEST PUSH2 0x66A JUMP JUMPDEST PUSH1 0x40 MLOAD PUSH2 0x233 SWAP2 SWAP1 PUSH2 0xD3F JUMP JUMPDEST PUSH1 0x40 MLOAD DUP1 SWAP2 SUB SWAP1 RETURN JUMPDEST PUSH2 0x244 PUSH2 0x6A9 JUMP JUMPDEST PUSH1 0x40 MLOAD PUSH2 0x251 SWAP2 SWAP1 PUSH2 0xCA3 JUMP JUMPDEST PUSH1 0x40 MLOAD DUP1 SWAP2 SUB SWAP1 RETURN JUMPDEST PUSH2 0x262 PUSH2 0x737 JUMP JUMPDEST PUSH1 0x40 MLOAD PUSH2 0x26F SWAP2 SWAP1 PUSH2 0x993 JUMP JUMPDEST PUSH1 0x40 MLOAD DUP1 SWAP2 SUB SWAP1 RETURN JUMPDEST PUSH2 0x292 PUSH1 0x4 DUP1 CALLDATASIZE SUB DUP2 ADD SWAP1 PUSH2 0x28D SWAP2 SWAP1 PUSH2 0xD5A JUMP JUMPDEST PUSH2 0x73D JUMP JUMPDEST STOP JUMPDEST PUSH2 0x29C PUSH2 0x7F5 JUMP JUMPDEST PUSH1 0x40 MLOAD PUSH2 0x2A9 SWAP2 SWAP1 PUSH2 0xD3F JUMP JUMPDEST PUSH1 0x40 MLOAD DUP1 SWAP2 SUB SWAP1 RETURN JUMPDEST PUSH2 0x2BA PUSH2 0x81B JUMP JUMPDEST STOP JUMPDEST PUSH2 0x2D6 PUSH1 0x4 DUP1 CALLDATASIZE SUB DUP2 ADD SWAP1 PUSH2 0x2D1 SWAP2 SWAP1 PUSH2 0xDC9 JUMP JUMPDEST PUSH2 0x880 JUMP JUMPDEST STOP JUMPDEST PUSH1 0x7 SLOAD DUP2 JUMP JUMPDEST CALLER PUSH1 0x6 PUSH1 0x0 PUSH2 0x100 EXP DUP2 SLOAD DUP2 PUSH20 0xFFFFFFFFFFFFFFFFFFFFFFFFFFFFFFFFFFFFFFFF MUL NOT AND SWAP1 DUP4 PUSH20 0xFFFFFFFFFFFFFFFFFFFFFFFFFFFFFFFFFFFFFFFF AND MUL OR SWAP1 SSTORE POP DUP2 PUSH1 0x7 DUP2 SWAP1 SSTORE POP DUP1 PUSH1 0x8 SWAP1 DUP1 MLOAD SWAP1 PUSH1 0x20 ADD SWAP1 PUSH2 0x33C SWAP3 SWAP2 SWAP1 PUSH2 0x8D7 JUMP JUMPDEST POP POP POP JUMP JUMPDEST PUSH1 0x3 SLOAD DUP2 JUMP JUMPDEST PUSH1 0x5 PUSH1 0x20 MSTORE DUP1 PUSH1 0x0 MSTORE PUSH1 0x40 PUSH1 0x0 KECCAK256 PUSH1 0x0 SWAP2 POP SWAP1 POP DUP1 SLOAD PUSH2 0x366 SWAP1 PUSH2 0xE41 JUMP JUMPDEST DUP1 PUSH1 0x1F ADD PUSH1 0x20 DUP1 SWAP2 DIV MUL PUSH1 0x20 ADD PUSH1 0x40 MLOAD SWAP1 DUP2 ADD PUSH1 0x40 MSTORE DUP1 SWAP3 SWAP2 SWAP1 DUP2 DUP2 MSTORE PUSH1 0x20 ADD DUP3 DUP1 SLOAD PUSH2 0x392 SWAP1 PUSH2 0xE41 JUMP JUMPDEST DUP1 ISZERO PUSH2 0x3DF JUMPI DUP1 PUSH1 0x1F LT PUSH2 0x3B4 JUMPI PUSH2 0x100 DUP1 DUP4 SLOAD DIV MUL DUP4 MSTORE SWAP2 PUSH1 0x20 ADD SWAP2 PUSH2 0x3DF JUMP JUMPDEST DUP3 ADD SWAP2 SWAP1 PUSH1 0x0 MSTORE PUSH1 0x20 PUSH1 0x0 KECCAK256 SWAP1 JUMPDEST DUP2 SLOAD DUP2 MSTORE SWAP1 PUSH1 0x1 ADD SWAP1 PUSH1 0x20 ADD DUP1 DUP4 GT PUSH2 0x3C2 JUMPI DUP3 SWAP1 SUB PUSH1 0x1F AND DUP3 ADD SWAP2 JUMPDEST POP POP POP POP POP DUP2 JUMP JUMPDEST PUSH1 0x0 PUSH1 0x40 MLOAD DUP1 PUSH1 0x60 ADD PUSH1 0x40 MSTORE DUP1 DUP5 DUP2 MSTORE PUSH1 0x20 ADD CALLER PUSH20 0xFFFFFFFFFFFFFFFFFFFFFFFFFFFFFFFFFFFFFFFF AND DUP2 MSTORE PUSH1 0x20 ADD DUP4 DUP2 MSTORE POP SWAP1 POP PUSH1 0x9 DUP2 SWAP1 DUP1 PUSH1 0x1 DUP2 SLOAD ADD DUP1 DUP3 SSTORE DUP1 SWAP2 POP POP PUSH1 0x1 SWAP1 SUB SWAP1 PUSH1 0x0 MSTORE PUSH1 0x20 PUSH1 0x0 KECCAK256 SWAP1 PUSH1 0x3 MUL ADD PUSH1 0x0 SWAP1 SWAP2 SWAP1 SWAP2 SWAP1 SWAP2 POP PUSH1 0x0 DUP3 ADD MLOAD DUP2 PUSH1 0x0 ADD SSTORE PUSH1 0x20 DUP3 ADD MLOAD DUP2 PUSH1 0x1 ADD PUSH1 0x0 PUSH2 0x100 EXP DUP2 SLOAD DUP2 PUSH20 0xFFFFFFFFFFFFFFFFFFFFFFFFFFFFFFFFFFFFFFFF MUL NOT AND SWAP1 DUP4 PUSH20 0xFFFFFFFFFFFFFFFFFFFFFFFFFFFFFFFFFFFFFFFF AND MUL OR SWAP1 SSTORE POP PUSH1 0x40 DUP3 ADD MLOAD DUP2 PUSH1 0x2 ADD SWAP1 DUP1 MLOAD SWAP1 PUSH1 0x20 ADD SWAP1 PUSH2 0x4B5 SWAP3 SWAP2 SWAP1 PUSH2 0x8D7 JUMP JUMPDEST POP POP POP POP POP POP JUMP JUMPDEST PUSH1 0x60 PUSH1 0x40 MLOAD DUP1 PUSH1 0x40 ADD PUSH1 0x40 MSTORE DUP1 PUSH1 0x17 DUP2 MSTORE PUSH1 0x20 ADD PUSH32 0x73616D706C6520737472696E672066726F6D20414B4542000000000000000000 DUP2 MSTORE POP SWAP1 POP SWAP1 JUMP JUMPDEST PUSH1 0x9 DUP2 DUP2 SLOAD DUP2 LT PUSH2 0x50A JUMPI PUSH1 0x0 DUP1 REVERT JUMPDEST SWAP1 PUSH1 0x0 MSTORE PUSH1 0x20 PUSH1 0x0 KECCAK256 SWAP1 PUSH1 0x3 MUL ADD PUSH1 0x0 SWAP2 POP SWAP1 POP DUP1 PUSH1 0x0 ADD SLOAD SWAP1 DUP1 PUSH1 0x1 ADD PUSH1 0x0 SWAP1 SLOAD SWAP1 PUSH2 0x100 EXP SWAP1 DIV PUSH20 0xFFFFFFFFFFFFFFFFFFFFFFFFFFFFFFFFFFFFFFFF AND SWAP1 DUP1 PUSH1 0x2 ADD DUP1 SLOAD PUSH2 0x559 SWAP1 PUSH2 0xE41 JUMP JUMPDEST DUP1 PUSH1 0x1F ADD PUSH1 0x20 DUP1 SWAP2 DIV MUL PUSH1 0x20 ADD PUSH1 0x40 MLOAD SWAP1 DUP2 ADD PUSH1 0x40 MSTORE DUP1 SWAP3 SWAP2 SWAP1 DUP2 DUP2 MSTORE PUSH1 0x20 ADD DUP3 DUP1 SLOAD PUSH2 0x585 SWAP1 PUSH2 0xE41 JUMP JUMPDEST DUP1 ISZERO PUSH2 0x5D2 JUMPI DUP1 PUSH1 0x1F LT PUSH2 0x5A7 JUMPI PUSH2 0x100 DUP1 DUP4 SLOAD DIV MUL DUP4 MSTORE SWAP2 PUSH1 0x20 ADD SWAP2 PUSH2 0x5D2 JUMP JUMPDEST DUP3 ADD SWAP2 SWAP1 PUSH1 0x0 MSTORE PUSH1 0x20 PUSH1 0x0 KECCAK256 SWAP1 JUMPDEST DUP2 SLOAD DUP2 MSTORE SWAP1 PUSH1 0x1 ADD SWAP1 PUSH1 0x20 ADD DUP1 DUP4 GT PUSH2 0x5B5 JUMPI DUP3 SWAP1 SUB PUSH1 0x1F AND DUP3 ADD SWAP2 JUMPDEST POP POP POP POP POP SWAP1 POP DUP4 JUMP JUMPDEST PUSH1 0x2 DUP1 SLOAD PUSH2 0x5E9 SWAP1 PUSH2 0xE41 JUMP JUMPDEST DUP1 PUSH1 0x1F ADD PUSH1 0x20 DUP1 SWAP2 DIV MUL PUSH1 0x20 ADD PUSH1 0x40 MLOAD SWAP1 DUP2 ADD PUSH1 0x40 MSTORE DUP1 SWAP3 SWAP2 SWAP1 DUP2 DUP2 MSTORE PUSH1 0x20 ADD DUP3 DUP1 SLOAD PUSH2 0x615 SWAP1 PUSH2 0xE41 JUMP JUMPDEST DUP1 ISZERO PUSH2 0x662 JUMPI DUP1 PUSH1 0x1F LT PUSH2 0x637 JUMPI PUSH2 0x100 DUP1 DUP4 SLOAD DIV MUL DUP4 MSTORE SWAP2 PUSH1 0x20 ADD SWAP2 PUSH2 0x662 JUMP JUMPDEST DUP3 ADD SWAP2 SWAP1 PUSH1 0x0 MSTORE PUSH1 0x20 PUSH1 0x0 KECCAK256 SWAP1 JUMPDEST DUP2 SLOAD DUP2 MSTORE SWAP1 PUSH1 0x1 ADD SWAP1 PUSH1 0x20 ADD DUP1 DUP4 GT PUSH2 0x645 JUMPI DUP3 SWAP1 SUB PUSH1 0x1F AND DUP3 ADD SWAP2 JUMPDEST POP POP POP POP POP DUP2 JUMP JUMPDEST PUSH1 0x1 DUP2 DUP2 SLOAD DUP2 LT PUSH2 0x67A JUMPI PUSH1 0x0 DUP1 REVERT JUMPDEST SWAP1 PUSH1 0x0 MSTORE PUSH1 0x20 PUSH1 0x0 KECCAK256 ADD PUSH1 0x0 SWAP2 POP SLOAD SWAP1 PUSH2 0x100 EXP SWAP1 DIV PUSH20 0xFFFFFFFFFFFFFFFFFFFFFFFFFFFFFFFFFFFFFFFF AND DUP2 JUMP JUMPDEST PUSH1 0x8 DUP1 SLOAD PUSH2 0x6B6 SWAP1 PUSH2 0xE41 JUMP JUMPDEST DUP1 PUSH1 0x1F ADD PUSH1 0x20 DUP1 SWAP2 DIV MUL PUSH1 0x20 ADD PUSH1 0x40 MLOAD SWAP1 DUP2 ADD PUSH1 0x40 MSTORE DUP1 SWAP3 SWAP2 SWAP1 DUP2 DUP2 MSTORE PUSH1 0x20 ADD DUP3 DUP1 SLOAD PUSH2 0x6E2 SWAP1 PUSH2 0xE41 JUMP JUMPDEST DUP1 ISZERO PUSH2 0x72F JUMPI DUP1 PUSH1 0x1F LT PUSH2 0x704 JUMPI PUSH2 0x100 DUP1 DUP4 SLOAD DIV MUL DUP4 MSTORE SWAP2 PUSH1 0x20 ADD SWAP2 PUSH2 0x72F JUMP JUMPDEST DUP3 ADD SWAP2 SWAP1 PUSH1 0x0 MSTORE PUSH1 0x20 PUSH1 0x0 KECCAK256 SWAP1 JUMPDEST DUP2 SLOAD DUP2 MSTORE SWAP1 PUSH1 0x1 ADD SWAP1 PUSH1 0x20 ADD DUP1 DUP4 GT PUSH2 0x712 JUMPI DUP3 SWAP1 SUB PUSH1 0x1F AND DUP3 ADD SWAP2 JUMPDEST POP POP POP POP POP DUP2 JUMP JUMPDEST PUSH1 0x4 SLOAD DUP2 JUMP JUMPDEST PUSH1 0x0 DUP1 SLOAD SWAP1 PUSH2 0x100 EXP SWAP1 DIV PUSH20 0xFFFFFFFFFFFFFFFFFFFFFFFFFFFFFFFFFFFFFFFF AND PUSH20 0xFFFFFFFFFFFFFFFFFFFFFFFFFFFFFFFFFFFFFFFF AND CALLER PUSH20 0xFFFFFFFFFFFFFFFFFFFFFFFFFFFFFFFFFFFFFFFF AND EQ PUSH2 0x7CB JUMPI PUSH1 0x40 MLOAD PUSH32 0x8C379A000000000000000000000000000000000000000000000000000000000 DUP2 MSTORE PUSH1 0x4 ADD PUSH2 0x7C2 SWAP1 PUSH2 0xEE4 JUMP JUMPDEST PUSH1 0x40 MLOAD DUP1 SWAP2 SUB SWAP1 REVERT JUMPDEST DUP3 PUSH1 0x2 SWAP1 DUP1 MLOAD SWAP1 PUSH1 0x20 ADD SWAP1 PUSH2 0x7E1 SWAP3 SWAP2 SWAP1 PUSH2 0x8D7 JUMP JUMPDEST POP DUP2 PUSH1 0x3 DUP2 SWAP1 SSTORE POP DUP1 PUSH1 0x4 DUP2 SWAP1 SSTORE POP POP POP POP JUMP JUMPDEST PUSH1 0x6 PUSH1 0x0 SWAP1 SLOAD SWAP1 PUSH2 0x100 EXP SWAP1 DIV PUSH20 0xFFFFFFFFFFFFFFFFFFFFFFFFFFFFFFFFFFFFFFFF AND DUP2 JUMP JUMPDEST PUSH1 0x1 CALLER SWAP1 DUP1 PUSH1 0x1 DUP2 SLOAD ADD DUP1 DUP3 SSTORE DUP1 SWAP2 POP POP PUSH1 0x1 SWAP1 SUB SWAP1 PUSH1 0x0 MSTORE PUSH1 0x20 PUSH1 0x0 KECCAK256 ADD PUSH1 0x0 SWAP1 SWAP2 SWAP1 SWAP2 SWAP1 SWAP2 PUSH2 0x100 EXP DUP2 SLOAD DUP2 PUSH20 0xFFFFFFFFFFFFFFFFFFFFFFFFFFFFFFFFFFFFFFFF MUL NOT AND SWAP1 DUP4 PUSH20 0xFFFFFFFFFFFFFFFFFFFFFFFFFFFFFFFFFFFFFFFF AND MUL OR SWAP1 SSTORE POP JUMP JUMPDEST DUP1 PUSH1 0x5 PUSH1 0x0 CALLER PUSH20 0xFFFFFFFFFFFFFFFFFFFFFFFFFFFFFFFFFFFFFFFF AND PUSH20 0xFFFFFFFFFFFFFFFFFFFFFFFFFFFFFFFFFFFFFFFF AND DUP2 MSTORE PUSH1 0x20 ADD SWAP1 DUP2 MSTORE PUSH1 0x20 ADD PUSH1 0x0 KECCAK256 SWAP1 DUP1 MLOAD SWAP1 PUSH1 0x20 ADD SWAP1 PUSH2 0x8D3 SWAP3 SWAP2 SWAP1 PUSH2 0x8D7 JUMP JUMPDEST POP POP JUMP JUMPDEST DUP3 DUP1 SLOAD PUSH2 0x8E3 SWAP1 PUSH2 0xE41 JUMP JUMPDEST SWAP1 PUSH1 0x0 MSTORE PUSH1 0x20 PUSH1 0x0 KECCAK256 SWAP1 PUSH1 0x1F ADD PUSH1 0x20 SWAP1 DIV DUP2 ADD SWAP3 DUP3 PUSH2 0x905 JUMPI PUSH1 0x0 DUP6 SSTORE PUSH2 0x94C JUMP JUMPDEST DUP3 PUSH1 0x1F LT PUSH2 0x91E JUMPI DUP1 MLOAD PUSH1 0xFF NOT AND DUP4 DUP1 ADD OR DUP6 SSTORE PUSH2 0x94C JUMP JUMPDEST DUP3 DUP1 ADD PUSH1 0x1 ADD DUP6 SSTORE DUP3 ISZERO PUSH2 0x94C JUMPI SWAP2 DUP3 ADD JUMPDEST DUP3 DUP2 GT ISZERO PUSH2 0x94B JUMPI DUP3 MLOAD DUP3 SSTORE SWAP2 PUSH1 0x20 ADD SWAP2 SWAP1 PUSH1 0x1 ADD SWAP1 PUSH2 0x930 JUMP JUMPDEST JUMPDEST POP SWAP1 POP PUSH2 0x959 SWAP2 SWAP1 PUSH2 0x95D JUMP JUMPDEST POP SWAP1 JUMP JUMPDEST JUMPDEST DUP1 DUP3 GT ISZERO PUSH2 0x976 JUMPI PUSH1 0x0 DUP2 PUSH1 0x0 SWAP1 SSTORE POP PUSH1 0x1 ADD PUSH2 0x95E JUMP JUMPDEST POP SWAP1 JUMP JUMPDEST PUSH1 0x0 DUP2 SWAP1 POP SWAP2 SWAP1 POP JUMP JUMPDEST PUSH2 0x98D DUP2 PUSH2 0x97A JUMP JUMPDEST DUP3 MSTORE POP POP JUMP JUMPDEST PUSH1 0x0 PUSH1 0x20 DUP3 ADD SWAP1 POP PUSH2 0x9A8 PUSH1 0x0 DUP4 ADD DUP5 PUSH2 0x984 JUMP JUMPDEST SWAP3 SWAP2 POP POP JUMP JUMPDEST PUSH1 0x0 PUSH1 0x40 MLOAD SWAP1 POP SWAP1 JUMP JUMPDEST PUSH1 0x0 DUP1 REVERT JUMPDEST PUSH1 0x0 DUP1 REVERT JUMPDEST PUSH2 0x9CB DUP2 PUSH2 0x97A JUMP JUMPDEST DUP2 EQ PUSH2 0x9D6 JUMPI PUSH1 0x0 DUP1 REVERT JUMPDEST POP JUMP JUMPDEST PUSH1 0x0 DUP2 CALLDATALOAD SWAP1 POP PUSH2 0x9E8 DUP2 PUSH2 0x9C2 JUMP JUMPDEST SWAP3 SWAP2 POP POP JUMP JUMPDEST PUSH1 0x0 DUP1 REVERT JUMPDEST PUSH1 0x0 DUP1 REVERT JUMPDEST PUSH1 0x0 PUSH1 0x1F NOT PUSH1 0x1F DUP4 ADD AND SWAP1 POP SWAP2 SWAP1 POP JUMP JUMPDEST PUSH32 0x4E487B7100000000000000000000000000000000000000000000000000000000 PUSH1 0x0 MSTORE PUSH1 0x41 PUSH1 0x4 MSTORE PUSH1 0x24 PUSH1 0x0 REVERT JUMPDEST PUSH2 0xA41 DUP3 PUSH2 0x9F8 JUMP JUMPDEST DUP2 ADD DUP2 DUP2 LT PUSH8 0xFFFFFFFFFFFFFFFF DUP3 GT OR ISZERO PUSH2 0xA60 JUMPI PUSH2 0xA5F PUSH2 0xA09 JUMP JUMPDEST JUMPDEST DUP1 PUSH1 0x40 MSTORE POP POP POP JUMP JUMPDEST PUSH1 0x0 PUSH2 0xA73 PUSH2 0x9AE JUMP JUMPDEST SWAP1 POP PUSH2 0xA7F DUP3 DUP3 PUSH2 0xA38 JUMP JUMPDEST SWAP2 SWAP1 POP JUMP JUMPDEST PUSH1 0x0 PUSH8 0xFFFFFFFFFFFFFFFF DUP3 GT ISZERO PUSH2 0xA9F JUMPI PUSH2 0xA9E PUSH2 0xA09 JUMP JUMPDEST JUMPDEST PUSH2 0xAA8 DUP3 PUSH2 0x9F8 JUMP JUMPDEST SWAP1 POP PUSH1 0x20 DUP2 ADD SWAP1 POP SWAP2 SWAP1 POP JUMP JUMPDEST DUP3 DUP2 DUP4 CALLDATACOPY PUSH1 0x0 DUP4 DUP4 ADD MSTORE POP POP POP JUMP JUMPDEST PUSH1 0x0 PUSH2 0xAD7 PUSH2 0xAD2 DUP5 PUSH2 0xA84 JUMP JUMPDEST PUSH2 0xA69 JUMP JUMPDEST SWAP1 POP DUP3 DUP2 MSTORE PUSH1 0x20 DUP2 ADD DUP5 DUP5 DUP5 ADD GT ISZERO PUSH2 0xAF3 JUMPI PUSH2 0xAF2 PUSH2 0x9F3 JUMP JUMPDEST JUMPDEST PUSH2 0xAFE DUP5 DUP3 DUP6 PUSH2 0xAB5 JUMP JUMPDEST POP SWAP4 SWAP3 POP POP POP JUMP JUMPDEST PUSH1 0x0 DUP3 PUSH1 0x1F DUP4 ADD SLT PUSH2 0xB1B JUMPI PUSH2 0xB1A PUSH2 0x9EE JUMP JUMPDEST JUMPDEST DUP2 CALLDATALOAD PUSH2 0xB2B DUP5 DUP3 PUSH1 0x20 DUP7 ADD PUSH2 0xAC4 JUMP JUMPDEST SWAP2 POP POP SWAP3 SWAP2 POP POP JUMP JUMPDEST PUSH1 0x0 DUP1 PUSH1 0x40 DUP4 DUP6 SUB SLT ISZERO PUSH2 0xB4B JUMPI PUSH2 0xB4A PUSH2 0x9B8 JUMP JUMPDEST JUMPDEST PUSH1 0x0 PUSH2 0xB59 DUP6 DUP3 DUP7 ADD PUSH2 0x9D9 JUMP JUMPDEST SWAP3 POP POP PUSH1 0x20 DUP4 ADD CALLDATALOAD PUSH8 0xFFFFFFFFFFFFFFFF DUP2 GT ISZERO PUSH2 0xB7A JUMPI PUSH2 0xB79 PUSH2 0x9BD JUMP JUMPDEST JUMPDEST PUSH2 0xB86 DUP6 DUP3 DUP7 ADD PUSH2 0xB06 JUMP JUMPDEST SWAP2 POP POP SWAP3 POP SWAP3 SWAP1 POP JUMP JUMPDEST PUSH1 0x0 PUSH20 0xFFFFFFFFFFFFFFFFFFFFFFFFFFFFFFFFFFFFFFFF DUP3 AND SWAP1 POP SWAP2 SWAP1 POP JUMP JUMPDEST PUSH1 0x0 PUSH2 0xBBB DUP3 PUSH2 0xB90 JUMP JUMPDEST SWAP1 POP SWAP2 SWAP1 POP JUMP JUMPDEST PUSH2 0xBCB DUP2 PUSH2 0xBB0 JUMP JUMPDEST DUP2 EQ PUSH2 0xBD6 JUMPI PUSH1 0x0 DUP1 REVERT JUMPDEST POP JUMP JUMPDEST PUSH1 0x0 DUP2 CALLDATALOAD SWAP1 POP PUSH2 0xBE8 DUP2 PUSH2 0xBC2 JUMP JUMPDEST SWAP3 SWAP2 POP POP JUMP JUMPDEST PUSH1 0x0 PUSH1 0x20 DUP3 DUP5 SUB SLT ISZERO PUSH2 0xC04 JUMPI PUSH2 0xC03 PUSH2 0x9B8 JUMP JUMPDEST JUMPDEST PUSH1 0x0 PUSH2 0xC12 DUP5 DUP3 DUP6 ADD PUSH2 0xBD9 JUMP JUMPDEST SWAP2 POP POP SWAP3 SWAP2 POP POP JUMP JUMPDEST PUSH1 0x0 DUP2 MLOAD SWAP1 POP SWAP2 SWAP1 POP JUMP JUMPDEST PUSH1 0x0 DUP3 DUP3 MSTORE PUSH1 0x20 DUP3 ADD SWAP1 POP SWAP3 SWAP2 POP POP JUMP JUMPDEST PUSH1 0x0 JUMPDEST DUP4 DUP2 LT ISZERO PUSH2 0xC55 JUMPI DUP1 DUP3 ADD MLOAD DUP2 DUP5 ADD MSTORE PUSH1 0x20 DUP2 ADD SWAP1 POP PUSH2 0xC3A JUMP JUMPDEST DUP4 DUP2 GT ISZERO PUSH2 0xC64 JUMPI PUSH1 0x0 DUP5 DUP5 ADD MSTORE JUMPDEST POP POP POP POP JUMP JUMPDEST PUSH1 0x0 PUSH2 0xC75 DUP3 PUSH2 0xC1B JUMP JUMPDEST PUSH2 0xC7F DUP2 DUP6 PUSH2 0xC26 JUMP JUMPDEST SWAP4 POP PUSH2 0xC8F DUP2 DUP6 PUSH1 0x20 DUP7 ADD PUSH2 0xC37 JUMP JUMPDEST PUSH2 0xC98 DUP2 PUSH2 0x9F8 JUMP JUMPDEST DUP5 ADD SWAP2 POP POP SWAP3 SWAP2 POP POP JUMP JUMPDEST PUSH1 0x0 PUSH1 0x20 DUP3 ADD SWAP1 POP DUP2 DUP2 SUB PUSH1 0x0 DUP4 ADD MSTORE PUSH2 0xCBD DUP2 DUP5 PUSH2 0xC6A JUMP JUMPDEST SWAP1 POP SWAP3 SWAP2 POP POP JUMP JUMPDEST PUSH1 0x0 PUSH1 0x20 DUP3 DUP5 SUB SLT ISZERO PUSH2 0xCDB JUMPI PUSH2 0xCDA PUSH2 0x9B8 JUMP JUMPDEST JUMPDEST PUSH1 0x0 PUSH2 0xCE9 DUP5 DUP3 DUP6 ADD PUSH2 0x9D9 JUMP JUMPDEST SWAP2 POP POP SWAP3 SWAP2 POP POP JUMP JUMPDEST PUSH2 0xCFB DUP2 PUSH2 0xBB0 JUMP JUMPDEST DUP3 MSTORE POP POP JUMP JUMPDEST PUSH1 0x0 PUSH1 0x60 DUP3 ADD SWAP1 POP PUSH2 0xD16 PUSH1 0x0 DUP4 ADD DUP7 PUSH2 0x984 JUMP JUMPDEST PUSH2 0xD23 PUSH1 0x20 DUP4 ADD DUP6 PUSH2 0xCF2 JUMP JUMPDEST DUP2 DUP2 SUB PUSH1 0x40 DUP4 ADD MSTORE PUSH2 0xD35 DUP2 DUP5 PUSH2 0xC6A JUMP JUMPDEST SWAP1 POP SWAP5 SWAP4 POP POP POP POP JUMP JUMPDEST PUSH1 0x0 PUSH1 0x20 DUP3 ADD SWAP1 POP PUSH2 0xD54 PUSH1 0x0 DUP4 ADD DUP5 PUSH2 0xCF2 JUMP JUMPDEST SWAP3 SWAP2 POP POP JUMP JUMPDEST PUSH1 0x0 DUP1 PUSH1 0x0 PUSH1 0x60 DUP5 DUP7 SUB SLT ISZERO PUSH2 0xD73 JUMPI PUSH2 0xD72 PUSH2 0x9B8 JUMP JUMPDEST JUMPDEST PUSH1 0x0 DUP5 ADD CALLDATALOAD PUSH8 0xFFFFFFFFFFFFFFFF DUP2 GT ISZERO PUSH2 0xD91 JUMPI PUSH2 0xD90 PUSH2 0x9BD JUMP JUMPDEST JUMPDEST PUSH2 0xD9D DUP7 DUP3 DUP8 ADD PUSH2 0xB06 JUMP JUMPDEST SWAP4 POP POP PUSH1 0x20 PUSH2 0xDAE DUP7 DUP3 DUP8 ADD PUSH2 0x9D9 JUMP JUMPDEST SWAP3 POP POP PUSH1 0x40 PUSH2 0xDBF DUP7 DUP3 DUP8 ADD PUSH2 0x9D9 JUMP JUMPDEST SWAP2 POP POP SWAP3 POP SWAP3 POP SWAP3 JUMP JUMPDEST PUSH1 0x0 PUSH1 0x20 DUP3 DUP5 SUB SLT ISZERO PUSH2 0xDDF JUMPI PUSH2 0xDDE PUSH2 0x9B8 JUMP JUMPDEST JUMPDEST PUSH1 0x0 DUP3 ADD CALLDATALOAD PUSH8 0xFFFFFFFFFFFFFFFF DUP2 GT ISZERO PUSH2 0xDFD JUMPI PUSH2 0xDFC PUSH2 0x9BD JUMP JUMPDEST JUMPDEST PUSH2 0xE09 DUP5 DUP3 DUP6 ADD PUSH2 0xB06 JUMP JUMPDEST SWAP2 POP POP SWAP3 SWAP2 POP POP JUMP JUMPDEST PUSH32 0x4E487B7100000000000000000000000000000000000000000000000000000000 PUSH1 0x0 MSTORE PUSH1 0x22 PUSH1 0x4 MSTORE PUSH1 0x24 PUSH1 0x0 REVERT JUMPDEST PUSH1 0x0 PUSH1 0x2 DUP3 DIV SWAP1 POP PUSH1 0x1 DUP3 AND DUP1 PUSH2 0xE59 JUMPI PUSH1 0x7F DUP3 AND SWAP2 POP JUMPDEST PUSH1 0x20 DUP3 LT DUP2 SUB PUSH2 0xE6C JUMPI PUSH2 0xE6B PUSH2 0xE12 JUMP JUMPDEST JUMPDEST POP SWAP2 SWAP1 POP JUMP JUMPDEST PUSH32 0x4F6E6C792061756374696F6E6565722063616E2063616C6C2074686973206675 PUSH1 0x0 DUP3 ADD MSTORE PUSH32 0x6E6374696F6E2E00000000000000000000000000000000000000000000000000 PUSH1 0x20 DUP3 ADD MSTORE POP JUMP JUMPDEST PUSH1 0x0 PUSH2 0xECE PUSH1 0x27 DUP4 PUSH2 0xC26 JUMP JUMPDEST SWAP2 POP PUSH2 0xED9 DUP3 PUSH2 0xE72 JUMP JUMPDEST PUSH1 0x40 DUP3 ADD SWAP1 POP SWAP2 SWAP1 POP JUMP JUMPDEST PUSH1 0x0 PUSH1 0x20 DUP3 ADD SWAP1 POP DUP2 DUP2 SUB PUSH1 0x0 DUP4 ADD MSTORE PUSH2 0xEFD DUP2 PUSH2 0xEC1 JUMP JUMPDEST SWAP1 POP SWAP2 SWAP1 POP JUMP INVALID LOG2 PUSH5 0x6970667358 0x22 SLT KECCAK256 NOT 0xA6 RETURNDATACOPY DUP10 SWAP8 EXTCODECOPY MULMOD PUSH15 0xA22A61CA15C41C99FE1B60C1ED5DED DUP9 0xD0 LOG2 PUSH11 0xD188D2FD64736F6C6343 STOP ADDMOD 0xE STOP CALLER "
				},
				"gasEstimates": {
					"creation": {
						"codeDepositCost": "779600",
						"executionCost": "812",
						"totalCost": "780412"
					},
					"external": {
						"assetDescription()": "infinite",
						"bidders(uint256)": "5001",
						"dispute(uint256,string)": "infinite",
						"disputedBidders(uint256)": "infinite",
						"encodedBids(address)": "infinite",
						"getSampleString()": "infinite",
						"minBidPrice()": "2497",
						"minNumberOfBidders()": "2518",
						"registerAuctionInfo(string,uint256,uint256)": "infinite",
						"registerBidder()": "48788",
						"submitEncryptedBid(string)": "infinite",
						"submitWinner(uint256,string)": "infinite",
						"winnerAddress()": "2558",
						"winnerBid()": "2453",
						"winnerKey()": "infinite"
					}
				},
				"methodIdentifiers": {
					"assetDescription()": "938626c2",
					"bidders(uint256)": "cff29dfd",
					"dispute(uint256,string)": "66c85dee",
					"disputedBidders(uint256)": "8f772f96",
					"encodedBids(address)": "3817df4c",
					"getSampleString()": "83050daa",
					"minBidPrice()": "34eb86a2",
					"minNumberOfBidders()": "daa0218f",
					"registerAuctionInfo(string,uint256,uint256)": "e7d2a997",
					"registerBidder()": "f356733c",
					"submitEncryptedBid(string)": "ff567d8d",
					"submitWinner(uint256,string)": "1744e03b",
					"winnerAddress()": "ed7a4e0b",
					"winnerBid()": "11631d06",
					"winnerKey()": "d476620b"
				}
			},
			"storageLayout": {
				"storage": [
					{
						"astId": 3,
						"contract": "Contracts/AKEB.sol:AKEB",
						"label": "auctioneer",
						"offset": 0,
						"slot": "0",
						"type": "t_address"
					},
					{
						"astId": 6,
						"contract": "Contracts/AKEB.sol:AKEB",
						"label": "bidders",
						"offset": 0,
						"slot": "1",
						"type": "t_array(t_address)dyn_storage"
					},
					{
						"astId": 8,
						"contract": "Contracts/AKEB.sol:AKEB",
						"label": "assetDescription",
						"offset": 0,
						"slot": "2",
						"type": "t_string_storage"
					},
					{
						"astId": 10,
						"contract": "Contracts/AKEB.sol:AKEB",
						"label": "minBidPrice",
						"offset": 0,
						"slot": "3",
						"type": "t_uint256"
					},
					{
						"astId": 12,
						"contract": "Contracts/AKEB.sol:AKEB",
						"label": "minNumberOfBidders",
						"offset": 0,
						"slot": "4",
						"type": "t_uint256"
					},
					{
						"astId": 16,
						"contract": "Contracts/AKEB.sol:AKEB",
						"label": "encodedBids",
						"offset": 0,
						"slot": "5",
						"type": "t_mapping(t_address,t_string_storage)"
					},
					{
						"astId": 18,
						"contract": "Contracts/AKEB.sol:AKEB",
						"label": "winnerAddress",
						"offset": 0,
						"slot": "6",
						"type": "t_address"
					},
					{
						"astId": 20,
						"contract": "Contracts/AKEB.sol:AKEB",
						"label": "winnerBid",
						"offset": 0,
						"slot": "7",
						"type": "t_uint256"
					},
					{
						"astId": 22,
						"contract": "Contracts/AKEB.sol:AKEB",
						"label": "winnerKey",
						"offset": 0,
						"slot": "8",
						"type": "t_string_storage"
					},
					{
						"astId": 33,
						"contract": "Contracts/AKEB.sol:AKEB",
						"label": "disputedBidders",
						"offset": 0,
						"slot": "9",
						"type": "t_array(t_struct(DisputedBidders)29_storage)dyn_storage"
					}
				],
				"types": {
					"t_address": {
						"encoding": "inplace",
						"label": "address",
						"numberOfBytes": "20"
					},
					"t_array(t_address)dyn_storage": {
						"base": "t_address",
						"encoding": "dynamic_array",
						"label": "address[]",
						"numberOfBytes": "32"
					},
					"t_array(t_struct(DisputedBidders)29_storage)dyn_storage": {
						"base": "t_struct(DisputedBidders)29_storage",
						"encoding": "dynamic_array",
						"label": "struct AKEB.DisputedBidders[]",
						"numberOfBytes": "32"
					},
					"t_mapping(t_address,t_string_storage)": {
						"encoding": "mapping",
						"key": "t_address",
						"label": "mapping(address => string)",
						"numberOfBytes": "32",
						"value": "t_string_storage"
					},
					"t_string_storage": {
						"encoding": "bytes",
						"label": "string",
						"numberOfBytes": "32"
					},
					"t_struct(DisputedBidders)29_storage": {
						"encoding": "inplace",
						"label": "struct AKEB.DisputedBidders",
						"members": [
							{
								"astId": 24,
								"contract": "Contracts/AKEB.sol:AKEB",
								"label": "bid",
								"offset": 0,
								"slot": "0",
								"type": "t_uint256"
							},
							{
								"astId": 26,
								"contract": "Contracts/AKEB.sol:AKEB",
								"label": "disputeAddress",
								"offset": 0,
								"slot": "1",
								"type": "t_address"
							},
							{
								"astId": 28,
								"contract": "Contracts/AKEB.sol:AKEB",
								"label": "key",
								"offset": 0,
								"slot": "2",
								"type": "t_string_storage"
							}
						],
						"numberOfBytes": "96"
					},
					"t_uint256": {
						"encoding": "inplace",
						"label": "uint256",
						"numberOfBytes": "32"
					}
				}
			},
			"userdoc": {
				"kind": "user",
				"methods": {},
				"version": 1
			}
		}
	}
}