{
	"Contracts/AKEB.sol": {
		"AKEB": {
			"abi": [
				{
					"inputs": [],
					"name": "assetDescription",
					"outputs": [
						{
							"internalType": "string",
							"name": "",
							"type": "string"
						}
					],
					"stateMutability": "view",
					"type": "function"
				},
				{
					"inputs": [
						{
							"internalType": "uint256",
							"name": "",
							"type": "uint256"
						}
					],
					"name": "bidders",
					"outputs": [
						{
							"internalType": "address",
							"name": "",
							"type": "address"
						}
					],
					"stateMutability": "view",
					"type": "function"
				},
				{
					"inputs": [
						{
							"internalType": "uint256",
							"name": "inputDisputedBid",
							"type": "uint256"
						},
						{
							"internalType": "string",
							"name": "inputDisputedNonce",
							"type": "string"
						}
					],
					"name": "dispute",
					"outputs": [],
					"stateMutability": "nonpayable",
					"type": "function"
				},
				{
					"inputs": [
						{
							"internalType": "uint256",
							"name": "",
							"type": "uint256"
						}
					],
					"name": "disputedBidders",
					"outputs": [
						{
							"internalType": "uint256",
							"name": "bid",
							"type": "uint256"
						},
						{
							"internalType": "address",
							"name": "disputeAddress",
							"type": "address"
						},
						{
							"internalType": "string",
							"name": "nonce",
							"type": "string"
						}
					],
					"stateMutability": "view",
					"type": "function"
				},
				{
					"inputs": [
						{
							"internalType": "address",
							"name": "",
							"type": "address"
						}
					],
					"name": "encodedBids",
					"outputs": [
						{
							"internalType": "string",
							"name": "",
							"type": "string"
						}
					],
					"stateMutability": "view",
					"type": "function"
				},
				{
					"inputs": [
						{
							"internalType": "uint256",
							"name": "index",
							"type": "uint256"
						}
					],
					"name": "getBidderAddress",
					"outputs": [
						{
							"internalType": "address",
							"name": "",
							"type": "address"
						}
					],
					"stateMutability": "view",
					"type": "function"
				},
				{
					"inputs": [
						{
							"internalType": "address",
							"name": "inputAddress",
							"type": "address"
						}
					],
					"name": "getEncodedBid",
					"outputs": [
						{
							"internalType": "string",
							"name": "",
							"type": "string"
						}
					],
					"stateMutability": "view",
					"type": "function"
				},
				{
					"inputs": [],
					"name": "getSampleString",
					"outputs": [
						{
							"internalType": "string",
							"name": "",
							"type": "string"
						}
					],
					"stateMutability": "pure",
					"type": "function"
				},
				{
					"inputs": [],
					"name": "getWinner",
					"outputs": [
						{
							"internalType": "address",
							"name": "",
							"type": "address"
						},
						{
							"internalType": "uint256",
							"name": "",
							"type": "uint256"
						},
						{
							"internalType": "string",
							"name": "",
							"type": "string"
						}
					],
					"stateMutability": "view",
					"type": "function"
				},
				{
					"inputs": [],
					"name": "getWinnerAddress",
					"outputs": [
						{
							"internalType": "address",
							"name": "",
							"type": "address"
						}
					],
					"stateMutability": "view",
					"type": "function"
				},
				{
					"inputs": [],
					"name": "getWinnerBid",
					"outputs": [
						{
							"internalType": "uint256",
							"name": "",
							"type": "uint256"
						}
					],
					"stateMutability": "view",
					"type": "function"
				},
				{
					"inputs": [],
					"name": "getwinnerNonce",
					"outputs": [
						{
							"internalType": "string",
							"name": "",
							"type": "string"
						}
					],
					"stateMutability": "view",
					"type": "function"
				},
				{
					"inputs": [],
					"name": "minBidPrice",
					"outputs": [
						{
							"internalType": "uint256",
							"name": "",
							"type": "uint256"
						}
					],
					"stateMutability": "view",
					"type": "function"
				},
				{
					"inputs": [],
					"name": "minNumberOfBidders",
					"outputs": [
						{
							"internalType": "uint256",
							"name": "",
							"type": "uint256"
						}
					],
					"stateMutability": "view",
					"type": "function"
				},
				{
					"inputs": [
						{
							"internalType": "string",
							"name": "assetDescriptionInput",
							"type": "string"
						},
						{
							"internalType": "uint256",
							"name": "minBidPriceInput",
							"type": "uint256"
						},
						{
							"internalType": "uint256",
							"name": "minNumberOfBiddersInput",
							"type": "uint256"
						}
					],
					"name": "registerAuctionInfo",
					"outputs": [],
					"stateMutability": "nonpayable",
					"type": "function"
				},
				{
					"inputs": [],
					"name": "registerBidder",
					"outputs": [],
					"stateMutability": "nonpayable",
					"type": "function"
				},
				{
					"inputs": [],
					"name": "reset",
					"outputs": [],
					"stateMutability": "nonpayable",
					"type": "function"
				},
				{
					"inputs": [],
					"name": "resetEncodedBids",
					"outputs": [],
					"stateMutability": "nonpayable",
					"type": "function"
				},
				{
					"inputs": [
						{
							"internalType": "string",
							"name": "inputEncodedBid",
							"type": "string"
						}
					],
					"name": "submitEncodedBid",
					"outputs": [],
					"stateMutability": "nonpayable",
					"type": "function"
				},
				{
					"inputs": [
						{
							"internalType": "uint256",
							"name": "inputWinnerBid",
							"type": "uint256"
						},
						{
							"internalType": "string",
							"name": "inputwinnerNonce",
							"type": "string"
						}
					],
					"name": "submitWinner",
					"outputs": [],
					"stateMutability": "nonpayable",
					"type": "function"
				},
				{
					"inputs": [],
					"name": "winnerAddress",
					"outputs": [
						{
							"internalType": "address",
							"name": "",
							"type": "address"
						}
					],
					"stateMutability": "view",
					"type": "function"
				},
				{
					"inputs": [],
					"name": "winnerBid",
					"outputs": [
						{
							"internalType": "uint256",
							"name": "",
							"type": "uint256"
						}
					],
					"stateMutability": "view",
					"type": "function"
				},
				{
					"inputs": [],
					"name": "winnerNonce",
					"outputs": [
						{
							"internalType": "string",
							"name": "",
							"type": "string"
						}
					],
					"stateMutability": "view",
					"type": "function"
				}
			],
			"devdoc": {
				"kind": "dev",
				"methods": {},
				"version": 1
			},
			"evm": {
				"assembly": "    /* \"Contracts/AKEB.sol\":58:3215  contract AKEB {... */\n  mstore(0x40, 0x80)\n  callvalue\n  dup1\n  iszero\n  tag_1\n  jumpi\n  0x00\n  dup1\n  revert\ntag_1:\n  pop\n  dataSize(sub_0)\n  dup1\n  dataOffset(sub_0)\n  0x00\n  codecopy\n  0x00\n  return\nstop\n\nsub_0: assembly {\n        /* \"Contracts/AKEB.sol\":58:3215  contract AKEB {... */\n      mstore(0x40, 0x80)\n      callvalue\n      dup1\n      iszero\n      tag_1\n      jumpi\n      0x00\n      dup1\n      revert\n    tag_1:\n      pop\n      jumpi(tag_2, lt(calldatasize, 0x04))\n      shr(0xe0, calldataload(0x00))\n      dup1\n      0x8f772f96\n      gt\n      tag_26\n      jumpi\n      dup1\n      0xd826f88f\n      gt\n      tag_27\n      jumpi\n      dup1\n      0xd826f88f\n      eq\n      tag_20\n      jumpi\n      dup1\n      0xdaa0218f\n      eq\n      tag_21\n      jumpi\n      dup1\n      0xdca49f4a\n      eq\n      tag_22\n      jumpi\n      dup1\n      0xe7d2a997\n      eq\n      tag_23\n      jumpi\n      dup1\n      0xed7a4e0b\n      eq\n      tag_24\n      jumpi\n      dup1\n      0xf356733c\n      eq\n      tag_25\n      jumpi\n      jump(tag_2)\n    tag_27:\n      dup1\n      0x8f772f96\n      eq\n      tag_14\n      jumpi\n      dup1\n      0x938626c2\n      eq\n      tag_15\n      jumpi\n      dup1\n      0xc8bca732\n      eq\n      tag_16\n      jumpi\n      dup1\n      0xca142b56\n      eq\n      tag_17\n      jumpi\n      dup1\n      0xceb98f6e\n      eq\n      tag_18\n      jumpi\n      dup1\n      0xcff29dfd\n      eq\n      tag_19\n      jumpi\n      jump(tag_2)\n    tag_26:\n      dup1\n      0x3817df4c\n      gt\n      tag_28\n      jumpi\n      dup1\n      0x3817df4c\n      eq\n      tag_8\n      jumpi\n      dup1\n      0x40bd5937\n      eq\n      tag_9\n      jumpi\n      dup1\n      0x5fa38280\n      eq\n      tag_10\n      jumpi\n      dup1\n      0x66c85dee\n      eq\n      tag_11\n      jumpi\n      dup1\n      0x83050daa\n      eq\n      tag_12\n      jumpi\n      dup1\n      0x8e7ea5b2\n      eq\n      tag_13\n      jumpi\n      jump(tag_2)\n    tag_28:\n      dup1\n      0x05fb23cf\n      eq\n      tag_3\n      jumpi\n      dup1\n      0x10a37c26\n      eq\n      tag_4\n      jumpi\n      dup1\n      0x11631d06\n      eq\n      tag_5\n      jumpi\n      dup1\n      0x1744e03b\n      eq\n      tag_6\n      jumpi\n      dup1\n      0x34eb86a2\n      eq\n      tag_7\n      jumpi\n    tag_2:\n      0x00\n      dup1\n      revert\n        /* \"Contracts/AKEB.sol\":1584:1712  function getEncodedBid(address inputAddress) public view returns(string memory){... */\n    tag_3:\n      tag_29\n      0x04\n      dup1\n      calldatasize\n      sub\n      dup2\n      add\n      swap1\n      tag_30\n      swap2\n      swap1\n      tag_31\n      jump\t// in\n    tag_30:\n      tag_32\n      jump\t// in\n    tag_29:\n      mload(0x40)\n      tag_33\n      swap2\n      swap1\n      tag_34\n      jump\t// in\n    tag_33:\n      mload(0x40)\n      dup1\n      swap2\n      sub\n      swap1\n      return\n        /* \"Contracts/AKEB.sol\":2075:2169  function getWinnerAddress() public view returns(address) {... */\n    tag_4:\n      tag_35\n      tag_36\n      jump\t// in\n    tag_35:\n      mload(0x40)\n      tag_37\n      swap2\n      swap1\n      tag_38\n      jump\t// in\n    tag_37:\n      mload(0x40)\n      dup1\n      swap2\n      sub\n      swap1\n      return\n        /* \"Contracts/AKEB.sol\":326:350  uint256 public winnerBid */\n    tag_5:\n      tag_39\n      tag_40\n      jump\t// in\n    tag_39:\n      mload(0x40)\n      tag_41\n      swap2\n      swap1\n      tag_42\n      jump\t// in\n    tag_41:\n      mload(0x40)\n      dup1\n      swap2\n      sub\n      swap1\n      return\n        /* \"Contracts/AKEB.sol\":1718:1926  function submitWinner(uint256 inputWinnerBid, ... */\n    tag_6:\n      tag_43\n      0x04\n      dup1\n      calldatasize\n      sub\n      dup2\n      add\n      swap1\n      tag_44\n      swap2\n      swap1\n      tag_45\n      jump\t// in\n    tag_44:\n      tag_46\n      jump\t// in\n    tag_43:\n      stop\n        /* \"Contracts/AKEB.sol\":168:194  uint256 public minBidPrice */\n    tag_7:\n      tag_47\n      tag_48\n      jump\t// in\n    tag_47:\n      mload(0x40)\n      tag_49\n      swap2\n      swap1\n      tag_42\n      jump\t// in\n    tag_49:\n      mload(0x40)\n      dup1\n      swap2\n      sub\n      swap1\n      return\n        /* \"Contracts/AKEB.sol\":240:285  mapping(address => string) public encodedBids */\n    tag_8:\n      tag_50\n      0x04\n      dup1\n      calldatasize\n      sub\n      dup2\n      add\n      swap1\n      tag_51\n      swap2\n      swap1\n      tag_31\n      jump\t// in\n    tag_51:\n      tag_52\n      jump\t// in\n    tag_50:\n      mload(0x40)\n      tag_53\n      swap2\n      swap1\n      tag_34\n      jump\t// in\n    tag_53:\n      mload(0x40)\n      dup1\n      swap2\n      sub\n      swap1\n      return\n        /* \"Contracts/AKEB.sol\":3009:3213  function resetEncodedBids() public {... */\n    tag_9:\n      tag_54\n      tag_55\n      jump\t// in\n    tag_54:\n      stop\n        /* \"Contracts/AKEB.sol\":1341:1446  function getBidderAddress(uint index) public view returns(address) {... */\n    tag_10:\n      tag_56\n      0x04\n      dup1\n      calldatasize\n      sub\n      dup2\n      add\n      swap1\n      tag_57\n      swap2\n      swap1\n      tag_58\n      jump\t// in\n    tag_57:\n      tag_59\n      jump\t// in\n    tag_56:\n      mload(0x40)\n      tag_60\n      swap2\n      swap1\n      tag_38\n      jump\t// in\n    tag_60:\n      mload(0x40)\n      dup1\n      swap2\n      sub\n      swap1\n      return\n        /* \"Contracts/AKEB.sol\":2368:2672  function dispute(uint256 inputDisputedBid, ... */\n    tag_11:\n      tag_61\n      0x04\n      dup1\n      calldatasize\n      sub\n      dup2\n      add\n      swap1\n      tag_62\n      swap2\n      swap1\n      tag_45\n      jump\t// in\n    tag_62:\n      tag_63\n      jump\t// in\n    tag_61:\n      stop\n        /* \"Contracts/AKEB.sol\":819:929  function getSampleString() public pure returns(string memory){... */\n    tag_12:\n      tag_64\n      tag_65\n      jump\t// in\n    tag_64:\n      mload(0x40)\n      tag_66\n      swap2\n      swap1\n      tag_34\n      jump\t// in\n    tag_66:\n      mload(0x40)\n      dup1\n      swap2\n      sub\n      swap1\n      return\n        /* \"Contracts/AKEB.sol\":1932:2069  function getWinner() public view returns(address, uint256, string memory) {... */\n    tag_13:\n      tag_67\n      tag_68\n      jump\t// in\n    tag_67:\n      mload(0x40)\n      tag_69\n      swap4\n      swap3\n      swap2\n      swap1\n      tag_70\n      jump\t// in\n    tag_69:\n      mload(0x40)\n      dup1\n      swap2\n      sub\n      swap1\n      return\n        /* \"Contracts/AKEB.sol\":499:539  DisputedBidders[] public disputedBidders */\n    tag_14:\n      tag_71\n      0x04\n      dup1\n      calldatasize\n      sub\n      dup2\n      add\n      swap1\n      tag_72\n      swap2\n      swap1\n      tag_58\n      jump\t// in\n    tag_72:\n      tag_73\n      jump\t// in\n    tag_71:\n      mload(0x40)\n      tag_74\n      swap4\n      swap3\n      swap2\n      swap1\n      tag_75\n      jump\t// in\n    tag_74:\n      mload(0x40)\n      dup1\n      swap2\n      sub\n      swap1\n      return\n        /* \"Contracts/AKEB.sol\":132:162  string public assetDescription */\n    tag_15:\n      tag_76\n      tag_77\n      jump\t// in\n    tag_76:\n      mload(0x40)\n      tag_78\n      swap2\n      swap1\n      tag_34\n      jump\t// in\n    tag_78:\n      mload(0x40)\n      dup1\n      swap2\n      sub\n      swap1\n      return\n        /* \"Contracts/AKEB.sol\":2267:2362  function getwinnerNonce() public view returns(string memory){... */\n    tag_16:\n      tag_79\n      tag_80\n      jump\t// in\n    tag_79:\n      mload(0x40)\n      tag_81\n      swap2\n      swap1\n      tag_34\n      jump\t// in\n    tag_81:\n      mload(0x40)\n      dup1\n      swap2\n      sub\n      swap1\n      return\n        /* \"Contracts/AKEB.sol\":1452:1578  function submitEncodedBid(string memory inputEncodedBid)... */\n    tag_17:\n      tag_82\n      0x04\n      dup1\n      calldatasize\n      sub\n      dup2\n      add\n      swap1\n      tag_83\n      swap2\n      swap1\n      tag_84\n      jump\t// in\n    tag_83:\n      tag_85\n      jump\t// in\n    tag_82:\n      stop\n        /* \"Contracts/AKEB.sol\":2175:2261  function getWinnerBid() public view returns(uint256) {... */\n    tag_18:\n      tag_86\n      tag_87\n      jump\t// in\n    tag_86:\n      mload(0x40)\n      tag_88\n      swap2\n      swap1\n      tag_42\n      jump\t// in\n    tag_88:\n      mload(0x40)\n      dup1\n      swap2\n      sub\n      swap1\n      return\n        /* \"Contracts/AKEB.sol\":102:126  address[] public bidders */\n    tag_19:\n      tag_89\n      0x04\n      dup1\n      calldatasize\n      sub\n      dup2\n      add\n      swap1\n      tag_90\n      swap2\n      swap1\n      tag_58\n      jump\t// in\n    tag_90:\n      tag_91\n      jump\t// in\n    tag_89:\n      mload(0x40)\n      tag_92\n      swap2\n      swap1\n      tag_38\n      jump\t// in\n    tag_92:\n      mload(0x40)\n      dup1\n      swap2\n      sub\n      swap1\n      return\n        /* \"Contracts/AKEB.sol\":2678:3003  function reset() public {... */\n    tag_20:\n      tag_93\n      tag_94\n      jump\t// in\n    tag_93:\n      stop\n        /* \"Contracts/AKEB.sol\":200:233  uint256 public minNumberOfBidders */\n    tag_21:\n      tag_95\n      tag_96\n      jump\t// in\n    tag_95:\n      mload(0x40)\n      tag_97\n      swap2\n      swap1\n      tag_42\n      jump\t// in\n    tag_97:\n      mload(0x40)\n      dup1\n      swap2\n      sub\n      swap1\n      return\n        /* \"Contracts/AKEB.sol\":356:381  string public winnerNonce */\n    tag_22:\n      tag_98\n      tag_99\n      jump\t// in\n    tag_98:\n      mload(0x40)\n      tag_100\n      swap2\n      swap1\n      tag_34\n      jump\t// in\n    tag_100:\n      mload(0x40)\n      dup1\n      swap2\n      sub\n      swap1\n      return\n        /* \"Contracts/AKEB.sol\":935:1255  function registerAuctionInfo(string memory assetDescriptionInput, ... */\n    tag_23:\n      tag_101\n      0x04\n      dup1\n      calldatasize\n      sub\n      dup2\n      add\n      swap1\n      tag_102\n      swap2\n      swap1\n      tag_103\n      jump\t// in\n    tag_102:\n      tag_104\n      jump\t// in\n    tag_101:\n      stop\n        /* \"Contracts/AKEB.sol\":292:320  address public winnerAddress */\n    tag_24:\n      tag_105\n      tag_106\n      jump\t// in\n    tag_105:\n      mload(0x40)\n      tag_107\n      swap2\n      swap1\n      tag_38\n      jump\t// in\n    tag_107:\n      mload(0x40)\n      dup1\n      swap2\n      sub\n      swap1\n      return\n        /* \"Contracts/AKEB.sol\":1261:1335  function registerBidder() public {... */\n    tag_25:\n      tag_108\n      tag_109\n      jump\t// in\n    tag_108:\n      stop\n        /* \"Contracts/AKEB.sol\":1584:1712  function getEncodedBid(address inputAddress) public view returns(string memory){... */\n    tag_32:\n        /* \"Contracts/AKEB.sol\":1649:1662  string memory */\n      0x60\n        /* \"Contracts/AKEB.sol\":1680:1691  encodedBids */\n      0x05\n        /* \"Contracts/AKEB.sol\":1680:1705  encodedBids[inputAddress] */\n      0x00\n        /* \"Contracts/AKEB.sol\":1692:1704  inputAddress */\n      dup4\n        /* \"Contracts/AKEB.sol\":1680:1705  encodedBids[inputAddress] */\n      0xffffffffffffffffffffffffffffffffffffffff\n      and\n      0xffffffffffffffffffffffffffffffffffffffff\n      and\n      dup2\n      mstore\n      0x20\n      add\n      swap1\n      dup2\n      mstore\n      0x20\n      add\n      0x00\n      keccak256\n        /* \"Contracts/AKEB.sol\":1673:1705  return encodedBids[inputAddress] */\n      dup1\n      sload\n      tag_111\n      swap1\n      tag_112\n      jump\t// in\n    tag_111:\n      dup1\n      0x1f\n      add\n      0x20\n      dup1\n      swap2\n      div\n      mul\n      0x20\n      add\n      mload(0x40)\n      swap1\n      dup2\n      add\n      0x40\n      mstore\n      dup1\n      swap3\n      swap2\n      swap1\n      dup2\n      dup2\n      mstore\n      0x20\n      add\n      dup3\n      dup1\n      sload\n      tag_113\n      swap1\n      tag_112\n      jump\t// in\n    tag_113:\n      dup1\n      iszero\n      tag_114\n      jumpi\n      dup1\n      0x1f\n      lt\n      tag_115\n      jumpi\n      0x0100\n      dup1\n      dup4\n      sload\n      div\n      mul\n      dup4\n      mstore\n      swap2\n      0x20\n      add\n      swap2\n      jump(tag_114)\n    tag_115:\n      dup3\n      add\n      swap2\n      swap1\n      0x00\n      mstore\n      keccak256(0x00, 0x20)\n      swap1\n    tag_116:\n      dup2\n      sload\n      dup2\n      mstore\n      swap1\n      0x01\n      add\n      swap1\n      0x20\n      add\n      dup1\n      dup4\n      gt\n      tag_116\n      jumpi\n      dup3\n      swap1\n      sub\n      0x1f\n      and\n      dup3\n      add\n      swap2\n    tag_114:\n      pop\n      pop\n      pop\n      pop\n      pop\n      swap1\n      pop\n        /* \"Contracts/AKEB.sol\":1584:1712  function getEncodedBid(address inputAddress) public view returns(string memory){... */\n      swap2\n      swap1\n      pop\n      jump\t// out\n        /* \"Contracts/AKEB.sol\":2075:2169  function getWinnerAddress() public view returns(address) {... */\n    tag_36:\n        /* \"Contracts/AKEB.sol\":2123:2130  address */\n      0x00\n        /* \"Contracts/AKEB.sol\":2149:2162  winnerAddress */\n      0x06\n      0x00\n      swap1\n      sload\n      swap1\n      0x0100\n      exp\n      swap1\n      div\n      0xffffffffffffffffffffffffffffffffffffffff\n      and\n        /* \"Contracts/AKEB.sol\":2142:2162  return winnerAddress */\n      swap1\n      pop\n        /* \"Contracts/AKEB.sol\":2075:2169  function getWinnerAddress() public view returns(address) {... */\n      swap1\n      jump\t// out\n        /* \"Contracts/AKEB.sol\":326:350  uint256 public winnerBid */\n    tag_40:\n      sload(0x07)\n      dup2\n      jump\t// out\n        /* \"Contracts/AKEB.sol\":1718:1926  function submitWinner(uint256 inputWinnerBid, ... */\n    tag_46:\n        /* \"Contracts/AKEB.sol\":1833:1843  msg.sender */\n      caller\n        /* \"Contracts/AKEB.sol\":1817:1830  winnerAddress */\n      0x06\n      0x00\n        /* \"Contracts/AKEB.sol\":1817:1843  winnerAddress = msg.sender */\n      0x0100\n      exp\n      dup2\n      sload\n      dup2\n      0xffffffffffffffffffffffffffffffffffffffff\n      mul\n      not\n      and\n      swap1\n      dup4\n      0xffffffffffffffffffffffffffffffffffffffff\n      and\n      mul\n      or\n      swap1\n      sstore\n      pop\n        /* \"Contracts/AKEB.sol\":1865:1879  inputWinnerBid */\n      dup2\n        /* \"Contracts/AKEB.sol\":1853:1862  winnerBid */\n      0x07\n        /* \"Contracts/AKEB.sol\":1853:1879  winnerBid = inputWinnerBid */\n      dup2\n      swap1\n      sstore\n      pop\n        /* \"Contracts/AKEB.sol\":1903:1919  inputwinnerNonce */\n      dup1\n        /* \"Contracts/AKEB.sol\":1889:1900  winnerNonce */\n      0x08\n        /* \"Contracts/AKEB.sol\":1889:1919  winnerNonce = inputwinnerNonce */\n      swap1\n      dup1\n      mload\n      swap1\n      0x20\n      add\n      swap1\n      tag_119\n      swap3\n      swap2\n      swap1\n      tag_120\n      jump\t// in\n    tag_119:\n      pop\n        /* \"Contracts/AKEB.sol\":1718:1926  function submitWinner(uint256 inputWinnerBid, ... */\n      pop\n      pop\n      jump\t// out\n        /* \"Contracts/AKEB.sol\":168:194  uint256 public minBidPrice */\n    tag_48:\n      sload(0x03)\n      dup2\n      jump\t// out\n        /* \"Contracts/AKEB.sol\":240:285  mapping(address => string) public encodedBids */\n    tag_52:\n      mstore(0x20, 0x05)\n      dup1\n      0x00\n      mstore\n      keccak256(0x00, 0x40)\n      0x00\n      swap2\n      pop\n      swap1\n      pop\n      dup1\n      sload\n      tag_121\n      swap1\n      tag_112\n      jump\t// in\n    tag_121:\n      dup1\n      0x1f\n      add\n      0x20\n      dup1\n      swap2\n      div\n      mul\n      0x20\n      add\n      mload(0x40)\n      swap1\n      dup2\n      add\n      0x40\n      mstore\n      dup1\n      swap3\n      swap2\n      swap1\n      dup2\n      dup2\n      mstore\n      0x20\n      add\n      dup3\n      dup1\n      sload\n      tag_122\n      swap1\n      tag_112\n      jump\t// in\n    tag_122:\n      dup1\n      iszero\n      tag_123\n      jumpi\n      dup1\n      0x1f\n      lt\n      tag_124\n      jumpi\n      0x0100\n      dup1\n      dup4\n      sload\n      div\n      mul\n      dup4\n      mstore\n      swap2\n      0x20\n      add\n      swap2\n      jump(tag_123)\n    tag_124:\n      dup3\n      add\n      swap2\n      swap1\n      0x00\n      mstore\n      keccak256(0x00, 0x20)\n      swap1\n    tag_125:\n      dup2\n      sload\n      dup2\n      mstore\n      swap1\n      0x01\n      add\n      swap1\n      0x20\n      add\n      dup1\n      dup4\n      gt\n      tag_125\n      jumpi\n      dup3\n      swap1\n      sub\n      0x1f\n      and\n      dup3\n      add\n      swap2\n    tag_123:\n      pop\n      pop\n      pop\n      pop\n      pop\n      dup2\n      jump\t// out\n        /* \"Contracts/AKEB.sol\":3009:3213  function resetEncodedBids() public {... */\n    tag_55:\n        /* \"Contracts/AKEB.sol\":3059:3068  uint256 i */\n      0x00\n        /* \"Contracts/AKEB.sol\":3054:3207  for (uint256 i = 0 ; i < bidders.length; i +=1){... */\n    tag_127:\n        /* \"Contracts/AKEB.sol\":3079:3086  bidders */\n      0x01\n        /* \"Contracts/AKEB.sol\":3079:3093  bidders.length */\n      dup1\n      sload\n      swap1\n      pop\n        /* \"Contracts/AKEB.sol\":3075:3076  i */\n      dup2\n        /* \"Contracts/AKEB.sol\":3075:3093  i < bidders.length */\n      lt\n        /* \"Contracts/AKEB.sol\":3054:3207  for (uint256 i = 0 ; i < bidders.length; i +=1){... */\n      iszero\n      tag_128\n      jumpi\n        /* \"Contracts/AKEB.sol\":3115:3136  address bidderAddress */\n      0x00\n        /* \"Contracts/AKEB.sol\":3139:3146  bidders */\n      0x01\n        /* \"Contracts/AKEB.sol\":3147:3148  i */\n      dup3\n        /* \"Contracts/AKEB.sol\":3139:3149  bidders[i] */\n      dup2\n      sload\n      dup2\n      lt\n      tag_130\n      jumpi\n      tag_131\n      tag_132\n      jump\t// in\n    tag_131:\n    tag_130:\n      swap1\n      0x00\n      mstore\n      keccak256(0x00, 0x20)\n      add\n      0x00\n      swap1\n      sload\n      swap1\n      0x0100\n      exp\n      swap1\n      div\n      0xffffffffffffffffffffffffffffffffffffffff\n      and\n        /* \"Contracts/AKEB.sol\":3115:3149  address bidderAddress = bidders[i] */\n      swap1\n      pop\n        /* \"Contracts/AKEB.sol\":3170:3181  encodedBids */\n      0x05\n        /* \"Contracts/AKEB.sol\":3170:3196  encodedBids[bidderAddress] */\n      0x00\n        /* \"Contracts/AKEB.sol\":3182:3195  bidderAddress */\n      dup3\n        /* \"Contracts/AKEB.sol\":3170:3196  encodedBids[bidderAddress] */\n      0xffffffffffffffffffffffffffffffffffffffff\n      and\n      0xffffffffffffffffffffffffffffffffffffffff\n      and\n      dup2\n      mstore\n      0x20\n      add\n      swap1\n      dup2\n      mstore\n      0x20\n      add\n      0x00\n      keccak256\n      0x00\n        /* \"Contracts/AKEB.sol\":3163:3196  delete encodedBids[bidderAddress] */\n      tag_134\n      swap2\n      swap1\n      tag_135\n      jump\t// in\n    tag_134:\n        /* \"Contracts/AKEB.sol\":3101:3207  {... */\n      pop\n        /* \"Contracts/AKEB.sol\":3099:3100  1 */\n      0x01\n        /* \"Contracts/AKEB.sol\":3095:3100  i +=1 */\n      dup2\n      tag_136\n      swap2\n      swap1\n      tag_137\n      jump\t// in\n    tag_136:\n      swap1\n      pop\n        /* \"Contracts/AKEB.sol\":3054:3207  for (uint256 i = 0 ; i < bidders.length; i +=1){... */\n      jump(tag_127)\n    tag_128:\n      pop\n        /* \"Contracts/AKEB.sol\":3009:3213  function resetEncodedBids() public {... */\n      jump\t// out\n        /* \"Contracts/AKEB.sol\":1341:1446  function getBidderAddress(uint index) public view returns(address) {... */\n    tag_59:\n        /* \"Contracts/AKEB.sol\":1399:1406  address */\n      0x00\n        /* \"Contracts/AKEB.sol\":1425:1432  bidders */\n      0x01\n        /* \"Contracts/AKEB.sol\":1433:1438  index */\n      dup3\n        /* \"Contracts/AKEB.sol\":1425:1439  bidders[index] */\n      dup2\n      sload\n      dup2\n      lt\n      tag_139\n      jumpi\n      tag_140\n      tag_132\n      jump\t// in\n    tag_140:\n    tag_139:\n      swap1\n      0x00\n      mstore\n      keccak256(0x00, 0x20)\n      add\n      0x00\n      swap1\n      sload\n      swap1\n      0x0100\n      exp\n      swap1\n      div\n      0xffffffffffffffffffffffffffffffffffffffff\n      and\n        /* \"Contracts/AKEB.sol\":1418:1439  return bidders[index] */\n      swap1\n      pop\n        /* \"Contracts/AKEB.sol\":1341:1446  function getBidderAddress(uint index) public view returns(address) {... */\n      swap2\n      swap1\n      pop\n      jump\t// out\n        /* \"Contracts/AKEB.sol\":2368:2672  function dispute(uint256 inputDisputedBid, ... */\n    tag_63:\n        /* \"Contracts/AKEB.sol\":2467:2504  DisputedBidders memory disputedBidder */\n      0x00\n        /* \"Contracts/AKEB.sol\":2507:2618  DisputedBidders(... */\n      mload(0x40)\n      dup1\n      0x60\n      add\n      0x40\n      mstore\n      dup1\n        /* \"Contracts/AKEB.sol\":2536:2552  inputDisputedBid */\n      dup5\n        /* \"Contracts/AKEB.sol\":2507:2618  DisputedBidders(... */\n      dup2\n      mstore\n      0x20\n      add\n        /* \"Contracts/AKEB.sol\":2566:2576  msg.sender */\n      caller\n        /* \"Contracts/AKEB.sol\":2507:2618  DisputedBidders(... */\n      0xffffffffffffffffffffffffffffffffffffffff\n      and\n      dup2\n      mstore\n      0x20\n      add\n        /* \"Contracts/AKEB.sol\":2590:2608  inputDisputedNonce */\n      dup4\n        /* \"Contracts/AKEB.sol\":2507:2618  DisputedBidders(... */\n      dup2\n      mstore\n      pop\n        /* \"Contracts/AKEB.sol\":2467:2618  DisputedBidders memory disputedBidder = DisputedBidders(... */\n      swap1\n      pop\n        /* \"Contracts/AKEB.sol\":2629:2644  disputedBidders */\n      0x09\n        /* \"Contracts/AKEB.sol\":2650:2664  disputedBidder */\n      dup2\n        /* \"Contracts/AKEB.sol\":2629:2665  disputedBidders.push(disputedBidder) */\n      swap1\n      dup1\n      0x01\n      dup2\n      sload\n      add\n      dup1\n      dup3\n      sstore\n      dup1\n      swap2\n      pop\n      pop\n      0x01\n      swap1\n      sub\n      swap1\n      0x00\n      mstore\n      keccak256(0x00, 0x20)\n      swap1\n      0x03\n      mul\n      add\n      0x00\n      swap1\n      swap2\n      swap1\n      swap2\n      swap1\n      swap2\n      pop\n      0x00\n      dup3\n      add\n      mload\n      dup2\n      0x00\n      add\n      sstore\n      0x20\n      dup3\n      add\n      mload\n      dup2\n      0x01\n      add\n      exp(0x0100, 0x00)\n      dup2\n      sload\n      dup2\n      0xffffffffffffffffffffffffffffffffffffffff\n      mul\n      not\n      and\n      swap1\n      dup4\n      0xffffffffffffffffffffffffffffffffffffffff\n      and\n      mul\n      or\n      swap1\n      sstore\n      pop\n      0x40\n      dup3\n      add\n      mload\n      dup2\n      0x02\n      add\n      swap1\n      dup1\n      mload\n      swap1\n      0x20\n      add\n      swap1\n      tag_144\n      swap3\n      swap2\n      swap1\n      tag_120\n      jump\t// in\n    tag_144:\n      pop\n      pop\n      pop\n        /* \"Contracts/AKEB.sol\":2457:2672  {... */\n      pop\n        /* \"Contracts/AKEB.sol\":2368:2672  function dispute(uint256 inputDisputedBid, ... */\n      pop\n      pop\n      jump\t// out\n        /* \"Contracts/AKEB.sol\":819:929  function getSampleString() public pure returns(string memory){... */\n    tag_65:\n        /* \"Contracts/AKEB.sol\":866:879  string memory */\n      0x60\n        /* \"Contracts/AKEB.sol\":890:922  return \"sample string from AKEB\" */\n      mload(0x40)\n      dup1\n      0x40\n      add\n      0x40\n      mstore\n      dup1\n      0x17\n      dup2\n      mstore\n      0x20\n      add\n      0x73616d706c6520737472696e672066726f6d20414b4542000000000000000000\n      dup2\n      mstore\n      pop\n      swap1\n      pop\n        /* \"Contracts/AKEB.sol\":819:929  function getSampleString() public pure returns(string memory){... */\n      swap1\n      jump\t// out\n        /* \"Contracts/AKEB.sol\":1932:2069  function getWinner() public view returns(address, uint256, string memory) {... */\n    tag_68:\n        /* \"Contracts/AKEB.sol\":1973:1980  address */\n      0x00\n        /* \"Contracts/AKEB.sol\":1982:1989  uint256 */\n      dup1\n        /* \"Contracts/AKEB.sol\":1991:2004  string memory */\n      0x60\n        /* \"Contracts/AKEB.sol\":2024:2037  winnerAddress */\n      0x06\n      0x00\n      swap1\n      sload\n      swap1\n      0x0100\n      exp\n      swap1\n      div\n      0xffffffffffffffffffffffffffffffffffffffff\n      and\n        /* \"Contracts/AKEB.sol\":2039:2048  winnerBid */\n      sload(0x07)\n        /* \"Contracts/AKEB.sol\":2050:2061  winnerNonce */\n      0x08\n        /* \"Contracts/AKEB.sol\":2016:2062  return (winnerAddress, winnerBid, winnerNonce) */\n      dup1\n      dup1\n      sload\n      tag_147\n      swap1\n      tag_112\n      jump\t// in\n    tag_147:\n      dup1\n      0x1f\n      add\n      0x20\n      dup1\n      swap2\n      div\n      mul\n      0x20\n      add\n      mload(0x40)\n      swap1\n      dup2\n      add\n      0x40\n      mstore\n      dup1\n      swap3\n      swap2\n      swap1\n      dup2\n      dup2\n      mstore\n      0x20\n      add\n      dup3\n      dup1\n      sload\n      tag_148\n      swap1\n      tag_112\n      jump\t// in\n    tag_148:\n      dup1\n      iszero\n      tag_149\n      jumpi\n      dup1\n      0x1f\n      lt\n      tag_150\n      jumpi\n      0x0100\n      dup1\n      dup4\n      sload\n      div\n      mul\n      dup4\n      mstore\n      swap2\n      0x20\n      add\n      swap2\n      jump(tag_149)\n    tag_150:\n      dup3\n      add\n      swap2\n      swap1\n      0x00\n      mstore\n      keccak256(0x00, 0x20)\n      swap1\n    tag_151:\n      dup2\n      sload\n      dup2\n      mstore\n      swap1\n      0x01\n      add\n      swap1\n      0x20\n      add\n      dup1\n      dup4\n      gt\n      tag_151\n      jumpi\n      dup3\n      swap1\n      sub\n      0x1f\n      and\n      dup3\n      add\n      swap2\n    tag_149:\n      pop\n      pop\n      pop\n      pop\n      pop\n      swap1\n      pop\n      swap3\n      pop\n      swap3\n      pop\n      swap3\n      pop\n        /* \"Contracts/AKEB.sol\":1932:2069  function getWinner() public view returns(address, uint256, string memory) {... */\n      swap1\n      swap2\n      swap3\n      jump\t// out\n        /* \"Contracts/AKEB.sol\":499:539  DisputedBidders[] public disputedBidders */\n    tag_73:\n      0x09\n      dup2\n      dup2\n      sload\n      dup2\n      lt\n      tag_152\n      jumpi\n      0x00\n      dup1\n      revert\n    tag_152:\n      swap1\n      0x00\n      mstore\n      keccak256(0x00, 0x20)\n      swap1\n      0x03\n      mul\n      add\n      0x00\n      swap2\n      pop\n      swap1\n      pop\n      dup1\n      0x00\n      add\n      sload\n      swap1\n      dup1\n      0x01\n      add\n      0x00\n      swap1\n      sload\n      swap1\n      0x0100\n      exp\n      swap1\n      div\n      0xffffffffffffffffffffffffffffffffffffffff\n      and\n      swap1\n      dup1\n      0x02\n      add\n      dup1\n      sload\n      tag_154\n      swap1\n      tag_112\n      jump\t// in\n    tag_154:\n      dup1\n      0x1f\n      add\n      0x20\n      dup1\n      swap2\n      div\n      mul\n      0x20\n      add\n      mload(0x40)\n      swap1\n      dup2\n      add\n      0x40\n      mstore\n      dup1\n      swap3\n      swap2\n      swap1\n      dup2\n      dup2\n      mstore\n      0x20\n      add\n      dup3\n      dup1\n      sload\n      tag_155\n      swap1\n      tag_112\n      jump\t// in\n    tag_155:\n      dup1\n      iszero\n      tag_156\n      jumpi\n      dup1\n      0x1f\n      lt\n      tag_157\n      jumpi\n      0x0100\n      dup1\n      dup4\n      sload\n      div\n      mul\n      dup4\n      mstore\n      swap2\n      0x20\n      add\n      swap2\n      jump(tag_156)\n    tag_157:\n      dup3\n      add\n      swap2\n      swap1\n      0x00\n      mstore\n      keccak256(0x00, 0x20)\n      swap1\n    tag_158:\n      dup2\n      sload\n      dup2\n      mstore\n      swap1\n      0x01\n      add\n      swap1\n      0x20\n      add\n      dup1\n      dup4\n      gt\n      tag_158\n      jumpi\n      dup3\n      swap1\n      sub\n      0x1f\n      and\n      dup3\n      add\n      swap2\n    tag_156:\n      pop\n      pop\n      pop\n      pop\n      pop\n      swap1\n      pop\n      dup4\n      jump\t// out\n        /* \"Contracts/AKEB.sol\":132:162  string public assetDescription */\n    tag_77:\n      0x02\n      dup1\n      sload\n      tag_159\n      swap1\n      tag_112\n      jump\t// in\n    tag_159:\n      dup1\n      0x1f\n      add\n      0x20\n      dup1\n      swap2\n      div\n      mul\n      0x20\n      add\n      mload(0x40)\n      swap1\n      dup2\n      add\n      0x40\n      mstore\n      dup1\n      swap3\n      swap2\n      swap1\n      dup2\n      dup2\n      mstore\n      0x20\n      add\n      dup3\n      dup1\n      sload\n      tag_160\n      swap1\n      tag_112\n      jump\t// in\n    tag_160:\n      dup1\n      iszero\n      tag_161\n      jumpi\n      dup1\n      0x1f\n      lt\n      tag_162\n      jumpi\n      0x0100\n      dup1\n      dup4\n      sload\n      div\n      mul\n      dup4\n      mstore\n      swap2\n      0x20\n      add\n      swap2\n      jump(tag_161)\n    tag_162:\n      dup3\n      add\n      swap2\n      swap1\n      0x00\n      mstore\n      keccak256(0x00, 0x20)\n      swap1\n    tag_163:\n      dup2\n      sload\n      dup2\n      mstore\n      swap1\n      0x01\n      add\n      swap1\n      0x20\n      add\n      dup1\n      dup4\n      gt\n      tag_163\n      jumpi\n      dup3\n      swap1\n      sub\n      0x1f\n      and\n      dup3\n      add\n      swap2\n    tag_161:\n      pop\n      pop\n      pop\n      pop\n      pop\n      dup2\n      jump\t// out\n        /* \"Contracts/AKEB.sol\":2267:2362  function getwinnerNonce() public view returns(string memory){... */\n    tag_80:\n        /* \"Contracts/AKEB.sol\":2313:2326  string memory */\n      0x60\n        /* \"Contracts/AKEB.sol\":2344:2355  winnerNonce */\n      0x08\n        /* \"Contracts/AKEB.sol\":2337:2355  return winnerNonce */\n      dup1\n      sload\n      tag_165\n      swap1\n      tag_112\n      jump\t// in\n    tag_165:\n      dup1\n      0x1f\n      add\n      0x20\n      dup1\n      swap2\n      div\n      mul\n      0x20\n      add\n      mload(0x40)\n      swap1\n      dup2\n      add\n      0x40\n      mstore\n      dup1\n      swap3\n      swap2\n      swap1\n      dup2\n      dup2\n      mstore\n      0x20\n      add\n      dup3\n      dup1\n      sload\n      tag_166\n      swap1\n      tag_112\n      jump\t// in\n    tag_166:\n      dup1\n      iszero\n      tag_167\n      jumpi\n      dup1\n      0x1f\n      lt\n      tag_168\n      jumpi\n      0x0100\n      dup1\n      dup4\n      sload\n      div\n      mul\n      dup4\n      mstore\n      swap2\n      0x20\n      add\n      swap2\n      jump(tag_167)\n    tag_168:\n      dup3\n      add\n      swap2\n      swap1\n      0x00\n      mstore\n      keccak256(0x00, 0x20)\n      swap1\n    tag_169:\n      dup2\n      sload\n      dup2\n      mstore\n      swap1\n      0x01\n      add\n      swap1\n      0x20\n      add\n      dup1\n      dup4\n      gt\n      tag_169\n      jumpi\n      dup3\n      swap1\n      sub\n      0x1f\n      and\n      dup3\n      add\n      swap2\n    tag_167:\n      pop\n      pop\n      pop\n      pop\n      pop\n      swap1\n      pop\n        /* \"Contracts/AKEB.sol\":2267:2362  function getwinnerNonce() public view returns(string memory){... */\n      swap1\n      jump\t// out\n        /* \"Contracts/AKEB.sol\":1452:1578  function submitEncodedBid(string memory inputEncodedBid)... */\n    tag_85:\n        /* \"Contracts/AKEB.sol\":1556:1571  inputEncodedBid */\n      dup1\n        /* \"Contracts/AKEB.sol\":1530:1541  encodedBids */\n      0x05\n        /* \"Contracts/AKEB.sol\":1530:1553  encodedBids[msg.sender] */\n      0x00\n        /* \"Contracts/AKEB.sol\":1542:1552  msg.sender */\n      caller\n        /* \"Contracts/AKEB.sol\":1530:1553  encodedBids[msg.sender] */\n      0xffffffffffffffffffffffffffffffffffffffff\n      and\n      0xffffffffffffffffffffffffffffffffffffffff\n      and\n      dup2\n      mstore\n      0x20\n      add\n      swap1\n      dup2\n      mstore\n      0x20\n      add\n      0x00\n      keccak256\n        /* \"Contracts/AKEB.sol\":1530:1571  encodedBids[msg.sender] = inputEncodedBid */\n      swap1\n      dup1\n      mload\n      swap1\n      0x20\n      add\n      swap1\n      tag_171\n      swap3\n      swap2\n      swap1\n      tag_120\n      jump\t// in\n    tag_171:\n      pop\n        /* \"Contracts/AKEB.sol\":1452:1578  function submitEncodedBid(string memory inputEncodedBid)... */\n      pop\n      jump\t// out\n        /* \"Contracts/AKEB.sol\":2175:2261  function getWinnerBid() public view returns(uint256) {... */\n    tag_87:\n        /* \"Contracts/AKEB.sol\":2219:2226  uint256 */\n      0x00\n        /* \"Contracts/AKEB.sol\":2245:2254  winnerBid */\n      sload(0x07)\n        /* \"Contracts/AKEB.sol\":2238:2254  return winnerBid */\n      swap1\n      pop\n        /* \"Contracts/AKEB.sol\":2175:2261  function getWinnerBid() public view returns(uint256) {... */\n      swap1\n      jump\t// out\n        /* \"Contracts/AKEB.sol\":102:126  address[] public bidders */\n    tag_91:\n      0x01\n      dup2\n      dup2\n      sload\n      dup2\n      lt\n      tag_173\n      jumpi\n      0x00\n      dup1\n      revert\n    tag_173:\n      swap1\n      0x00\n      mstore\n      keccak256(0x00, 0x20)\n      add\n      0x00\n      swap2\n      pop\n      sload\n      swap1\n      0x0100\n      exp\n      swap1\n      div\n      0xffffffffffffffffffffffffffffffffffffffff\n      and\n      dup2\n      jump\t// out\n        /* \"Contracts/AKEB.sol\":2678:3003  function reset() public {... */\n    tag_94:\n        /* \"Contracts/AKEB.sol\":2729:2771  0x0000000000000000000000000000000000000000 */\n      0x00\n        /* \"Contracts/AKEB.sol\":2712:2725  winnerAddress */\n      0x06\n      0x00\n        /* \"Contracts/AKEB.sol\":2712:2771  winnerAddress =  0x0000000000000000000000000000000000000000 */\n      0x0100\n      exp\n      dup2\n      sload\n      dup2\n      0xffffffffffffffffffffffffffffffffffffffff\n      mul\n      not\n      and\n      swap1\n      dup4\n      0xffffffffffffffffffffffffffffffffffffffff\n      and\n      mul\n      or\n      swap1\n      sstore\n      pop\n        /* \"Contracts/AKEB.sol\":2793:2794  0 */\n      0x00\n        /* \"Contracts/AKEB.sol\":2781:2790  winnerBid */\n      0x07\n        /* \"Contracts/AKEB.sol\":2781:2794  winnerBid = 0 */\n      dup2\n      swap1\n      sstore\n      pop\n        /* \"Contracts/AKEB.sol\":2804:2820  winnerNonce = \"\" */\n      mload(0x40)\n      dup1\n      0x20\n      add\n      0x40\n      mstore\n      dup1\n      0x00\n      dup2\n      mstore\n      pop\n        /* \"Contracts/AKEB.sol\":2804:2815  winnerNonce */\n      0x08\n        /* \"Contracts/AKEB.sol\":2804:2820  winnerNonce = \"\" */\n      swap1\n      dup1\n      mload\n      swap1\n      0x20\n      add\n      swap1\n      tag_176\n      swap3\n      swap2\n      swap1\n      tag_120\n      jump\t// in\n    tag_176:\n      pop\n        /* \"Contracts/AKEB.sol\":2831:2852  assetDescription = \"\" */\n      mload(0x40)\n      dup1\n      0x20\n      add\n      0x40\n      mstore\n      dup1\n      0x00\n      dup2\n      mstore\n      pop\n        /* \"Contracts/AKEB.sol\":2831:2847  assetDescription */\n      0x02\n        /* \"Contracts/AKEB.sol\":2831:2852  assetDescription = \"\" */\n      swap1\n      dup1\n      mload\n      swap1\n      0x20\n      add\n      swap1\n      tag_177\n      swap3\n      swap2\n      swap1\n      tag_120\n      jump\t// in\n    tag_177:\n      pop\n        /* \"Contracts/AKEB.sol\":2876:2877  0 */\n      0x00\n        /* \"Contracts/AKEB.sol\":2862:2873  minBidPrice */\n      0x03\n        /* \"Contracts/AKEB.sol\":2862:2877  minBidPrice = 0 */\n      dup2\n      swap1\n      sstore\n      pop\n        /* \"Contracts/AKEB.sol\":2908:2909  0 */\n      0x00\n        /* \"Contracts/AKEB.sol\":2887:2905  minNumberOfBidders */\n      0x04\n        /* \"Contracts/AKEB.sol\":2887:2909  minNumberOfBidders = 0 */\n      dup2\n      swap1\n      sstore\n      pop\n        /* \"Contracts/AKEB.sol\":2920:2938  resetEncodedBids() */\n      tag_178\n        /* \"Contracts/AKEB.sol\":2920:2936  resetEncodedBids */\n      tag_55\n        /* \"Contracts/AKEB.sol\":2920:2938  resetEncodedBids() */\n      jump\t// in\n    tag_178:\n        /* \"Contracts/AKEB.sol\":2956:2963  bidders */\n      0x01\n      0x00\n        /* \"Contracts/AKEB.sol\":2949:2963  delete bidders */\n      tag_179\n      swap2\n      swap1\n      tag_180\n      jump\t// in\n    tag_179:\n        /* \"Contracts/AKEB.sol\":2981:2996  disputedBidders */\n      0x09\n      0x00\n        /* \"Contracts/AKEB.sol\":2974:2996  delete disputedBidders */\n      tag_181\n      swap2\n      swap1\n      tag_182\n      jump\t// in\n    tag_181:\n        /* \"Contracts/AKEB.sol\":2678:3003  function reset() public {... */\n      jump\t// out\n        /* \"Contracts/AKEB.sol\":200:233  uint256 public minNumberOfBidders */\n    tag_96:\n      sload(0x04)\n      dup2\n      jump\t// out\n        /* \"Contracts/AKEB.sol\":356:381  string public winnerNonce */\n    tag_99:\n      0x08\n      dup1\n      sload\n      tag_183\n      swap1\n      tag_112\n      jump\t// in\n    tag_183:\n      dup1\n      0x1f\n      add\n      0x20\n      dup1\n      swap2\n      div\n      mul\n      0x20\n      add\n      mload(0x40)\n      swap1\n      dup2\n      add\n      0x40\n      mstore\n      dup1\n      swap3\n      swap2\n      swap1\n      dup2\n      dup2\n      mstore\n      0x20\n      add\n      dup3\n      dup1\n      sload\n      tag_184\n      swap1\n      tag_112\n      jump\t// in\n    tag_184:\n      dup1\n      iszero\n      tag_185\n      jumpi\n      dup1\n      0x1f\n      lt\n      tag_186\n      jumpi\n      0x0100\n      dup1\n      dup4\n      sload\n      div\n      mul\n      dup4\n      mstore\n      swap2\n      0x20\n      add\n      swap2\n      jump(tag_185)\n    tag_186:\n      dup3\n      add\n      swap2\n      swap1\n      0x00\n      mstore\n      keccak256(0x00, 0x20)\n      swap1\n    tag_187:\n      dup2\n      sload\n      dup2\n      mstore\n      swap1\n      0x01\n      add\n      swap1\n      0x20\n      add\n      dup1\n      dup4\n      gt\n      tag_187\n      jumpi\n      dup3\n      swap1\n      sub\n      0x1f\n      and\n      dup3\n      add\n      swap2\n    tag_185:\n      pop\n      pop\n      pop\n      pop\n      pop\n      dup2\n      jump\t// out\n        /* \"Contracts/AKEB.sol\":935:1255  function registerAuctionInfo(string memory assetDescriptionInput, ... */\n    tag_104:\n        /* \"Contracts/AKEB.sol\":610:620  auctioneer */\n      0x00\n      dup1\n      sload\n      swap1\n      0x0100\n      exp\n      swap1\n      div\n      0xffffffffffffffffffffffffffffffffffffffff\n      and\n        /* \"Contracts/AKEB.sol\":596:620  msg.sender == auctioneer */\n      0xffffffffffffffffffffffffffffffffffffffff\n      and\n        /* \"Contracts/AKEB.sol\":596:606  msg.sender */\n      caller\n        /* \"Contracts/AKEB.sol\":596:620  msg.sender == auctioneer */\n      0xffffffffffffffffffffffffffffffffffffffff\n      and\n      eq\n        /* \"Contracts/AKEB.sol\":588:664  require(msg.sender == auctioneer, \"Only auctioneer can call this function.\") */\n      tag_189\n      jumpi\n      mload(0x40)\n      0x08c379a000000000000000000000000000000000000000000000000000000000\n      dup2\n      mstore\n      0x04\n      add\n      tag_190\n      swap1\n      tag_191\n      jump\t// in\n    tag_190:\n      mload(0x40)\n      dup1\n      swap2\n      sub\n      swap1\n      revert\n    tag_189:\n        /* \"Contracts/AKEB.sol\":1133:1154  assetDescriptionInput */\n      dup3\n        /* \"Contracts/AKEB.sol\":1114:1130  assetDescription */\n      0x02\n        /* \"Contracts/AKEB.sol\":1114:1154  assetDescription = assetDescriptionInput */\n      swap1\n      dup1\n      mload\n      swap1\n      0x20\n      add\n      swap1\n      tag_193\n      swap3\n      swap2\n      swap1\n      tag_120\n      jump\t// in\n    tag_193:\n      pop\n        /* \"Contracts/AKEB.sol\":1178:1194  minBidPriceInput */\n      dup2\n        /* \"Contracts/AKEB.sol\":1164:1175  minBidPrice */\n      0x03\n        /* \"Contracts/AKEB.sol\":1164:1194  minBidPrice = minBidPriceInput */\n      dup2\n      swap1\n      sstore\n      pop\n        /* \"Contracts/AKEB.sol\":1225:1248  minNumberOfBiddersInput */\n      dup1\n        /* \"Contracts/AKEB.sol\":1204:1222  minNumberOfBidders */\n      0x04\n        /* \"Contracts/AKEB.sol\":1204:1248  minNumberOfBidders = minNumberOfBiddersInput */\n      dup2\n      swap1\n      sstore\n      pop\n        /* \"Contracts/AKEB.sol\":935:1255  function registerAuctionInfo(string memory assetDescriptionInput, ... */\n      pop\n      pop\n      pop\n      jump\t// out\n        /* \"Contracts/AKEB.sol\":292:320  address public winnerAddress */\n    tag_106:\n      0x06\n      0x00\n      swap1\n      sload\n      swap1\n      0x0100\n      exp\n      swap1\n      div\n      0xffffffffffffffffffffffffffffffffffffffff\n      and\n      dup2\n      jump\t// out\n        /* \"Contracts/AKEB.sol\":1261:1335  function registerBidder() public {... */\n    tag_109:\n        /* \"Contracts/AKEB.sol\":1304:1311  bidders */\n      0x01\n        /* \"Contracts/AKEB.sol\":1317:1327  msg.sender */\n      caller\n        /* \"Contracts/AKEB.sol\":1304:1328  bidders.push(msg.sender) */\n      swap1\n      dup1\n      0x01\n      dup2\n      sload\n      add\n      dup1\n      dup3\n      sstore\n      dup1\n      swap2\n      pop\n      pop\n      0x01\n      swap1\n      sub\n      swap1\n      0x00\n      mstore\n      keccak256(0x00, 0x20)\n      add\n      0x00\n      swap1\n      swap2\n      swap1\n      swap2\n      swap1\n      swap2\n      0x0100\n      exp\n      dup2\n      sload\n      dup2\n      0xffffffffffffffffffffffffffffffffffffffff\n      mul\n      not\n      and\n      swap1\n      dup4\n      0xffffffffffffffffffffffffffffffffffffffff\n      and\n      mul\n      or\n      swap1\n      sstore\n      pop\n        /* \"Contracts/AKEB.sol\":1261:1335  function registerBidder() public {... */\n      jump\t// out\n    tag_120:\n      dup3\n      dup1\n      sload\n      tag_196\n      swap1\n      tag_112\n      jump\t// in\n    tag_196:\n      swap1\n      0x00\n      mstore\n      keccak256(0x00, 0x20)\n      swap1\n      0x1f\n      add\n      0x20\n      swap1\n      div\n      dup2\n      add\n      swap3\n      dup3\n      tag_198\n      jumpi\n      0x00\n      dup6\n      sstore\n      jump(tag_197)\n    tag_198:\n      dup3\n      0x1f\n      lt\n      tag_199\n      jumpi\n      dup1\n      mload\n      not(0xff)\n      and\n      dup4\n      dup1\n      add\n      or\n      dup6\n      sstore\n      jump(tag_197)\n    tag_199:\n      dup3\n      dup1\n      add\n      0x01\n      add\n      dup6\n      sstore\n      dup3\n      iszero\n      tag_197\n      jumpi\n      swap2\n      dup3\n      add\n    tag_200:\n      dup3\n      dup2\n      gt\n      iszero\n      tag_201\n      jumpi\n      dup3\n      mload\n      dup3\n      sstore\n      swap2\n      0x20\n      add\n      swap2\n      swap1\n      0x01\n      add\n      swap1\n      jump(tag_200)\n    tag_201:\n    tag_197:\n      pop\n      swap1\n      pop\n      tag_202\n      swap2\n      swap1\n      tag_203\n      jump\t// in\n    tag_202:\n      pop\n      swap1\n      jump\t// out\n    tag_135:\n      pop\n      dup1\n      sload\n      tag_204\n      swap1\n      tag_112\n      jump\t// in\n    tag_204:\n      0x00\n      dup3\n      sstore\n      dup1\n      0x1f\n      lt\n      tag_206\n      jumpi\n      pop\n      jump(tag_205)\n    tag_206:\n      0x1f\n      add\n      0x20\n      swap1\n      div\n      swap1\n      0x00\n      mstore\n      keccak256(0x00, 0x20)\n      swap1\n      dup2\n      add\n      swap1\n      tag_207\n      swap2\n      swap1\n      tag_203\n      jump\t// in\n    tag_207:\n    tag_205:\n      pop\n      jump\t// out\n    tag_180:\n      pop\n      dup1\n      sload\n      0x00\n      dup3\n      sstore\n      swap1\n      0x00\n      mstore\n      keccak256(0x00, 0x20)\n      swap1\n      dup2\n      add\n      swap1\n      tag_209\n      swap2\n      swap1\n      tag_203\n      jump\t// in\n    tag_209:\n      pop\n      jump\t// out\n    tag_182:\n      pop\n      dup1\n      sload\n      0x00\n      dup3\n      sstore\n      0x03\n      mul\n      swap1\n      0x00\n      mstore\n      keccak256(0x00, 0x20)\n      swap1\n      dup2\n      add\n      swap1\n      tag_211\n      swap2\n      swap1\n      tag_212\n      jump\t// in\n    tag_211:\n      pop\n      jump\t// out\n    tag_203:\n    tag_213:\n      dup1\n      dup3\n      gt\n      iszero\n      tag_214\n      jumpi\n      0x00\n      dup2\n      0x00\n      swap1\n      sstore\n      pop\n      0x01\n      add\n      jump(tag_213)\n    tag_214:\n      pop\n      swap1\n      jump\t// out\n    tag_212:\n    tag_215:\n      dup1\n      dup3\n      gt\n      iszero\n      tag_216\n      jumpi\n      0x00\n      dup1\n      dup3\n      add\n      0x00\n      swap1\n      sstore\n      0x01\n      dup3\n      add\n      exp(0x0100, 0x00)\n      dup2\n      sload\n      swap1\n      0xffffffffffffffffffffffffffffffffffffffff\n      mul\n      not\n      and\n      swap1\n      sstore\n      0x02\n      dup3\n      add\n      0x00\n      tag_217\n      swap2\n      swap1\n      tag_135\n      jump\t// in\n    tag_217:\n      pop\n      0x03\n      add\n      jump(tag_215)\n    tag_216:\n      pop\n      swap1\n      jump\t// out\n        /* \"#utility.yul\":7:82   */\n    tag_218:\n        /* \"#utility.yul\":40:46   */\n      0x00\n        /* \"#utility.yul\":73:75   */\n      0x40\n        /* \"#utility.yul\":67:76   */\n      mload\n        /* \"#utility.yul\":57:76   */\n      swap1\n      pop\n        /* \"#utility.yul\":7:82   */\n      swap1\n      jump\t// out\n        /* \"#utility.yul\":88:205   */\n    tag_219:\n        /* \"#utility.yul\":197:198   */\n      0x00\n        /* \"#utility.yul\":194:195   */\n      dup1\n        /* \"#utility.yul\":187:199   */\n      revert\n        /* \"#utility.yul\":211:328   */\n    tag_220:\n        /* \"#utility.yul\":320:321   */\n      0x00\n        /* \"#utility.yul\":317:318   */\n      dup1\n        /* \"#utility.yul\":310:322   */\n      revert\n        /* \"#utility.yul\":334:460   */\n    tag_221:\n        /* \"#utility.yul\":371:378   */\n      0x00\n        /* \"#utility.yul\":411:453   */\n      0xffffffffffffffffffffffffffffffffffffffff\n        /* \"#utility.yul\":404:409   */\n      dup3\n        /* \"#utility.yul\":400:454   */\n      and\n        /* \"#utility.yul\":389:454   */\n      swap1\n      pop\n        /* \"#utility.yul\":334:460   */\n      swap2\n      swap1\n      pop\n      jump\t// out\n        /* \"#utility.yul\":466:562   */\n    tag_222:\n        /* \"#utility.yul\":503:510   */\n      0x00\n        /* \"#utility.yul\":532:556   */\n      tag_254\n        /* \"#utility.yul\":550:555   */\n      dup3\n        /* \"#utility.yul\":532:556   */\n      tag_221\n      jump\t// in\n    tag_254:\n        /* \"#utility.yul\":521:556   */\n      swap1\n      pop\n        /* \"#utility.yul\":466:562   */\n      swap2\n      swap1\n      pop\n      jump\t// out\n        /* \"#utility.yul\":568:690   */\n    tag_223:\n        /* \"#utility.yul\":641:665   */\n      tag_256\n        /* \"#utility.yul\":659:664   */\n      dup2\n        /* \"#utility.yul\":641:665   */\n      tag_222\n      jump\t// in\n    tag_256:\n        /* \"#utility.yul\":634:639   */\n      dup2\n        /* \"#utility.yul\":631:666   */\n      eq\n        /* \"#utility.yul\":621:684   */\n      tag_257\n      jumpi\n        /* \"#utility.yul\":680:681   */\n      0x00\n        /* \"#utility.yul\":677:678   */\n      dup1\n        /* \"#utility.yul\":670:682   */\n      revert\n        /* \"#utility.yul\":621:684   */\n    tag_257:\n        /* \"#utility.yul\":568:690   */\n      pop\n      jump\t// out\n        /* \"#utility.yul\":696:835   */\n    tag_224:\n        /* \"#utility.yul\":742:747   */\n      0x00\n        /* \"#utility.yul\":780:786   */\n      dup2\n        /* \"#utility.yul\":767:787   */\n      calldataload\n        /* \"#utility.yul\":758:787   */\n      swap1\n      pop\n        /* \"#utility.yul\":796:829   */\n      tag_259\n        /* \"#utility.yul\":823:828   */\n      dup2\n        /* \"#utility.yul\":796:829   */\n      tag_223\n      jump\t// in\n    tag_259:\n        /* \"#utility.yul\":696:835   */\n      swap3\n      swap2\n      pop\n      pop\n      jump\t// out\n        /* \"#utility.yul\":841:1170   */\n    tag_31:\n        /* \"#utility.yul\":900:906   */\n      0x00\n        /* \"#utility.yul\":949:951   */\n      0x20\n        /* \"#utility.yul\":937:946   */\n      dup3\n        /* \"#utility.yul\":928:935   */\n      dup5\n        /* \"#utility.yul\":924:947   */\n      sub\n        /* \"#utility.yul\":920:952   */\n      slt\n        /* \"#utility.yul\":917:1036   */\n      iszero\n      tag_261\n      jumpi\n        /* \"#utility.yul\":955:1034   */\n      tag_262\n      tag_219\n      jump\t// in\n    tag_262:\n        /* \"#utility.yul\":917:1036   */\n    tag_261:\n        /* \"#utility.yul\":1075:1076   */\n      0x00\n        /* \"#utility.yul\":1100:1153   */\n      tag_263\n        /* \"#utility.yul\":1145:1152   */\n      dup5\n        /* \"#utility.yul\":1136:1142   */\n      dup3\n        /* \"#utility.yul\":1125:1134   */\n      dup6\n        /* \"#utility.yul\":1121:1143   */\n      add\n        /* \"#utility.yul\":1100:1153   */\n      tag_224\n      jump\t// in\n    tag_263:\n        /* \"#utility.yul\":1090:1153   */\n      swap2\n      pop\n        /* \"#utility.yul\":1046:1163   */\n      pop\n        /* \"#utility.yul\":841:1170   */\n      swap3\n      swap2\n      pop\n      pop\n      jump\t// out\n        /* \"#utility.yul\":1176:1275   */\n    tag_225:\n        /* \"#utility.yul\":1228:1234   */\n      0x00\n        /* \"#utility.yul\":1262:1267   */\n      dup2\n        /* \"#utility.yul\":1256:1268   */\n      mload\n        /* \"#utility.yul\":1246:1268   */\n      swap1\n      pop\n        /* \"#utility.yul\":1176:1275   */\n      swap2\n      swap1\n      pop\n      jump\t// out\n        /* \"#utility.yul\":1281:1450   */\n    tag_226:\n        /* \"#utility.yul\":1365:1376   */\n      0x00\n        /* \"#utility.yul\":1399:1405   */\n      dup3\n        /* \"#utility.yul\":1394:1397   */\n      dup3\n        /* \"#utility.yul\":1387:1406   */\n      mstore\n        /* \"#utility.yul\":1439:1443   */\n      0x20\n        /* \"#utility.yul\":1434:1437   */\n      dup3\n        /* \"#utility.yul\":1430:1444   */\n      add\n        /* \"#utility.yul\":1415:1444   */\n      swap1\n      pop\n        /* \"#utility.yul\":1281:1450   */\n      swap3\n      swap2\n      pop\n      pop\n      jump\t// out\n        /* \"#utility.yul\":1456:1763   */\n    tag_227:\n        /* \"#utility.yul\":1524:1525   */\n      0x00\n        /* \"#utility.yul\":1534:1647   */\n    tag_267:\n        /* \"#utility.yul\":1548:1554   */\n      dup4\n        /* \"#utility.yul\":1545:1546   */\n      dup2\n        /* \"#utility.yul\":1542:1555   */\n      lt\n        /* \"#utility.yul\":1534:1647   */\n      iszero\n      tag_269\n      jumpi\n        /* \"#utility.yul\":1633:1634   */\n      dup1\n        /* \"#utility.yul\":1628:1631   */\n      dup3\n        /* \"#utility.yul\":1624:1635   */\n      add\n        /* \"#utility.yul\":1618:1636   */\n      mload\n        /* \"#utility.yul\":1614:1615   */\n      dup2\n        /* \"#utility.yul\":1609:1612   */\n      dup5\n        /* \"#utility.yul\":1605:1616   */\n      add\n        /* \"#utility.yul\":1598:1637   */\n      mstore\n        /* \"#utility.yul\":1570:1572   */\n      0x20\n        /* \"#utility.yul\":1567:1568   */\n      dup2\n        /* \"#utility.yul\":1563:1573   */\n      add\n        /* \"#utility.yul\":1558:1573   */\n      swap1\n      pop\n        /* \"#utility.yul\":1534:1647   */\n      jump(tag_267)\n    tag_269:\n        /* \"#utility.yul\":1665:1671   */\n      dup4\n        /* \"#utility.yul\":1662:1663   */\n      dup2\n        /* \"#utility.yul\":1659:1672   */\n      gt\n        /* \"#utility.yul\":1656:1757   */\n      iszero\n      tag_270\n      jumpi\n        /* \"#utility.yul\":1745:1746   */\n      0x00\n        /* \"#utility.yul\":1736:1742   */\n      dup5\n        /* \"#utility.yul\":1731:1734   */\n      dup5\n        /* \"#utility.yul\":1727:1743   */\n      add\n        /* \"#utility.yul\":1720:1747   */\n      mstore\n        /* \"#utility.yul\":1656:1757   */\n    tag_270:\n        /* \"#utility.yul\":1505:1763   */\n      pop\n        /* \"#utility.yul\":1456:1763   */\n      pop\n      pop\n      pop\n      jump\t// out\n        /* \"#utility.yul\":1769:1871   */\n    tag_228:\n        /* \"#utility.yul\":1810:1816   */\n      0x00\n        /* \"#utility.yul\":1861:1863   */\n      0x1f\n        /* \"#utility.yul\":1857:1864   */\n      not\n        /* \"#utility.yul\":1852:1854   */\n      0x1f\n        /* \"#utility.yul\":1845:1850   */\n      dup4\n        /* \"#utility.yul\":1841:1855   */\n      add\n        /* \"#utility.yul\":1837:1865   */\n      and\n        /* \"#utility.yul\":1827:1865   */\n      swap1\n      pop\n        /* \"#utility.yul\":1769:1871   */\n      swap2\n      swap1\n      pop\n      jump\t// out\n        /* \"#utility.yul\":1877:2241   */\n    tag_229:\n        /* \"#utility.yul\":1965:1968   */\n      0x00\n        /* \"#utility.yul\":1993:2032   */\n      tag_273\n        /* \"#utility.yul\":2026:2031   */\n      dup3\n        /* \"#utility.yul\":1993:2032   */\n      tag_225\n      jump\t// in\n    tag_273:\n        /* \"#utility.yul\":2048:2119   */\n      tag_274\n        /* \"#utility.yul\":2112:2118   */\n      dup2\n        /* \"#utility.yul\":2107:2110   */\n      dup6\n        /* \"#utility.yul\":2048:2119   */\n      tag_226\n      jump\t// in\n    tag_274:\n        /* \"#utility.yul\":2041:2119   */\n      swap4\n      pop\n        /* \"#utility.yul\":2128:2180   */\n      tag_275\n        /* \"#utility.yul\":2173:2179   */\n      dup2\n        /* \"#utility.yul\":2168:2171   */\n      dup6\n        /* \"#utility.yul\":2161:2165   */\n      0x20\n        /* \"#utility.yul\":2154:2159   */\n      dup7\n        /* \"#utility.yul\":2150:2166   */\n      add\n        /* \"#utility.yul\":2128:2180   */\n      tag_227\n      jump\t// in\n    tag_275:\n        /* \"#utility.yul\":2205:2234   */\n      tag_276\n        /* \"#utility.yul\":2227:2233   */\n      dup2\n        /* \"#utility.yul\":2205:2234   */\n      tag_228\n      jump\t// in\n    tag_276:\n        /* \"#utility.yul\":2200:2203   */\n      dup5\n        /* \"#utility.yul\":2196:2235   */\n      add\n        /* \"#utility.yul\":2189:2235   */\n      swap2\n      pop\n        /* \"#utility.yul\":1969:2241   */\n      pop\n        /* \"#utility.yul\":1877:2241   */\n      swap3\n      swap2\n      pop\n      pop\n      jump\t// out\n        /* \"#utility.yul\":2247:2560   */\n    tag_34:\n        /* \"#utility.yul\":2360:2364   */\n      0x00\n        /* \"#utility.yul\":2398:2400   */\n      0x20\n        /* \"#utility.yul\":2387:2396   */\n      dup3\n        /* \"#utility.yul\":2383:2401   */\n      add\n        /* \"#utility.yul\":2375:2401   */\n      swap1\n      pop\n        /* \"#utility.yul\":2447:2456   */\n      dup2\n        /* \"#utility.yul\":2441:2445   */\n      dup2\n        /* \"#utility.yul\":2437:2457   */\n      sub\n        /* \"#utility.yul\":2433:2434   */\n      0x00\n        /* \"#utility.yul\":2422:2431   */\n      dup4\n        /* \"#utility.yul\":2418:2435   */\n      add\n        /* \"#utility.yul\":2411:2458   */\n      mstore\n        /* \"#utility.yul\":2475:2553   */\n      tag_278\n        /* \"#utility.yul\":2548:2552   */\n      dup2\n        /* \"#utility.yul\":2539:2545   */\n      dup5\n        /* \"#utility.yul\":2475:2553   */\n      tag_229\n      jump\t// in\n    tag_278:\n        /* \"#utility.yul\":2467:2553   */\n      swap1\n      pop\n        /* \"#utility.yul\":2247:2560   */\n      swap3\n      swap2\n      pop\n      pop\n      jump\t// out\n        /* \"#utility.yul\":2566:2684   */\n    tag_230:\n        /* \"#utility.yul\":2653:2677   */\n      tag_280\n        /* \"#utility.yul\":2671:2676   */\n      dup2\n        /* \"#utility.yul\":2653:2677   */\n      tag_222\n      jump\t// in\n    tag_280:\n        /* \"#utility.yul\":2648:2651   */\n      dup3\n        /* \"#utility.yul\":2641:2678   */\n      mstore\n        /* \"#utility.yul\":2566:2684   */\n      pop\n      pop\n      jump\t// out\n        /* \"#utility.yul\":2690:2912   */\n    tag_38:\n        /* \"#utility.yul\":2783:2787   */\n      0x00\n        /* \"#utility.yul\":2821:2823   */\n      0x20\n        /* \"#utility.yul\":2810:2819   */\n      dup3\n        /* \"#utility.yul\":2806:2824   */\n      add\n        /* \"#utility.yul\":2798:2824   */\n      swap1\n      pop\n        /* \"#utility.yul\":2834:2905   */\n      tag_282\n        /* \"#utility.yul\":2902:2903   */\n      0x00\n        /* \"#utility.yul\":2891:2900   */\n      dup4\n        /* \"#utility.yul\":2887:2904   */\n      add\n        /* \"#utility.yul\":2878:2884   */\n      dup5\n        /* \"#utility.yul\":2834:2905   */\n      tag_230\n      jump\t// in\n    tag_282:\n        /* \"#utility.yul\":2690:2912   */\n      swap3\n      swap2\n      pop\n      pop\n      jump\t// out\n        /* \"#utility.yul\":2918:2995   */\n    tag_231:\n        /* \"#utility.yul\":2955:2962   */\n      0x00\n        /* \"#utility.yul\":2984:2989   */\n      dup2\n        /* \"#utility.yul\":2973:2989   */\n      swap1\n      pop\n        /* \"#utility.yul\":2918:2995   */\n      swap2\n      swap1\n      pop\n      jump\t// out\n        /* \"#utility.yul\":3001:3119   */\n    tag_232:\n        /* \"#utility.yul\":3088:3112   */\n      tag_285\n        /* \"#utility.yul\":3106:3111   */\n      dup2\n        /* \"#utility.yul\":3088:3112   */\n      tag_231\n      jump\t// in\n    tag_285:\n        /* \"#utility.yul\":3083:3086   */\n      dup3\n        /* \"#utility.yul\":3076:3113   */\n      mstore\n        /* \"#utility.yul\":3001:3119   */\n      pop\n      pop\n      jump\t// out\n        /* \"#utility.yul\":3125:3347   */\n    tag_42:\n        /* \"#utility.yul\":3218:3222   */\n      0x00\n        /* \"#utility.yul\":3256:3258   */\n      0x20\n        /* \"#utility.yul\":3245:3254   */\n      dup3\n        /* \"#utility.yul\":3241:3259   */\n      add\n        /* \"#utility.yul\":3233:3259   */\n      swap1\n      pop\n        /* \"#utility.yul\":3269:3340   */\n      tag_287\n        /* \"#utility.yul\":3337:3338   */\n      0x00\n        /* \"#utility.yul\":3326:3335   */\n      dup4\n        /* \"#utility.yul\":3322:3339   */\n      add\n        /* \"#utility.yul\":3313:3319   */\n      dup5\n        /* \"#utility.yul\":3269:3340   */\n      tag_232\n      jump\t// in\n    tag_287:\n        /* \"#utility.yul\":3125:3347   */\n      swap3\n      swap2\n      pop\n      pop\n      jump\t// out\n        /* \"#utility.yul\":3353:3475   */\n    tag_233:\n        /* \"#utility.yul\":3426:3450   */\n      tag_289\n        /* \"#utility.yul\":3444:3449   */\n      dup2\n        /* \"#utility.yul\":3426:3450   */\n      tag_231\n      jump\t// in\n    tag_289:\n        /* \"#utility.yul\":3419:3424   */\n      dup2\n        /* \"#utility.yul\":3416:3451   */\n      eq\n        /* \"#utility.yul\":3406:3469   */\n      tag_290\n      jumpi\n        /* \"#utility.yul\":3465:3466   */\n      0x00\n        /* \"#utility.yul\":3462:3463   */\n      dup1\n        /* \"#utility.yul\":3455:3467   */\n      revert\n        /* \"#utility.yul\":3406:3469   */\n    tag_290:\n        /* \"#utility.yul\":3353:3475   */\n      pop\n      jump\t// out\n        /* \"#utility.yul\":3481:3620   */\n    tag_234:\n        /* \"#utility.yul\":3527:3532   */\n      0x00\n        /* \"#utility.yul\":3565:3571   */\n      dup2\n        /* \"#utility.yul\":3552:3572   */\n      calldataload\n        /* \"#utility.yul\":3543:3572   */\n      swap1\n      pop\n        /* \"#utility.yul\":3581:3614   */\n      tag_292\n        /* \"#utility.yul\":3608:3613   */\n      dup2\n        /* \"#utility.yul\":3581:3614   */\n      tag_233\n      jump\t// in\n    tag_292:\n        /* \"#utility.yul\":3481:3620   */\n      swap3\n      swap2\n      pop\n      pop\n      jump\t// out\n        /* \"#utility.yul\":3626:3743   */\n    tag_235:\n        /* \"#utility.yul\":3735:3736   */\n      0x00\n        /* \"#utility.yul\":3732:3733   */\n      dup1\n        /* \"#utility.yul\":3725:3737   */\n      revert\n        /* \"#utility.yul\":3749:3866   */\n    tag_236:\n        /* \"#utility.yul\":3858:3859   */\n      0x00\n        /* \"#utility.yul\":3855:3856   */\n      dup1\n        /* \"#utility.yul\":3848:3860   */\n      revert\n        /* \"#utility.yul\":3872:4052   */\n    tag_237:\n        /* \"#utility.yul\":3920:3997   */\n      0x4e487b7100000000000000000000000000000000000000000000000000000000\n        /* \"#utility.yul\":3917:3918   */\n      0x00\n        /* \"#utility.yul\":3910:3998   */\n      mstore\n        /* \"#utility.yul\":4017:4021   */\n      0x41\n        /* \"#utility.yul\":4014:4015   */\n      0x04\n        /* \"#utility.yul\":4007:4022   */\n      mstore\n        /* \"#utility.yul\":4041:4045   */\n      0x24\n        /* \"#utility.yul\":4038:4039   */\n      0x00\n        /* \"#utility.yul\":4031:4046   */\n      revert\n        /* \"#utility.yul\":4058:4339   */\n    tag_238:\n        /* \"#utility.yul\":4141:4168   */\n      tag_297\n        /* \"#utility.yul\":4163:4167   */\n      dup3\n        /* \"#utility.yul\":4141:4168   */\n      tag_228\n      jump\t// in\n    tag_297:\n        /* \"#utility.yul\":4133:4139   */\n      dup2\n        /* \"#utility.yul\":4129:4169   */\n      add\n        /* \"#utility.yul\":4271:4277   */\n      dup2\n        /* \"#utility.yul\":4259:4269   */\n      dup2\n        /* \"#utility.yul\":4256:4278   */\n      lt\n        /* \"#utility.yul\":4235:4253   */\n      0xffffffffffffffff\n        /* \"#utility.yul\":4223:4233   */\n      dup3\n        /* \"#utility.yul\":4220:4254   */\n      gt\n        /* \"#utility.yul\":4217:4279   */\n      or\n        /* \"#utility.yul\":4214:4302   */\n      iszero\n      tag_298\n      jumpi\n        /* \"#utility.yul\":4282:4300   */\n      tag_299\n      tag_237\n      jump\t// in\n    tag_299:\n        /* \"#utility.yul\":4214:4302   */\n    tag_298:\n        /* \"#utility.yul\":4322:4332   */\n      dup1\n        /* \"#utility.yul\":4318:4320   */\n      0x40\n        /* \"#utility.yul\":4311:4333   */\n      mstore\n        /* \"#utility.yul\":4101:4339   */\n      pop\n        /* \"#utility.yul\":4058:4339   */\n      pop\n      pop\n      jump\t// out\n        /* \"#utility.yul\":4345:4474   */\n    tag_239:\n        /* \"#utility.yul\":4379:4385   */\n      0x00\n        /* \"#utility.yul\":4406:4426   */\n      tag_301\n      tag_218\n      jump\t// in\n    tag_301:\n        /* \"#utility.yul\":4396:4426   */\n      swap1\n      pop\n        /* \"#utility.yul\":4435:4468   */\n      tag_302\n        /* \"#utility.yul\":4463:4467   */\n      dup3\n        /* \"#utility.yul\":4455:4461   */\n      dup3\n        /* \"#utility.yul\":4435:4468   */\n      tag_238\n      jump\t// in\n    tag_302:\n        /* \"#utility.yul\":4345:4474   */\n      swap2\n      swap1\n      pop\n      jump\t// out\n        /* \"#utility.yul\":4480:4788   */\n    tag_240:\n        /* \"#utility.yul\":4542:4546   */\n      0x00\n        /* \"#utility.yul\":4632:4650   */\n      0xffffffffffffffff\n        /* \"#utility.yul\":4624:4630   */\n      dup3\n        /* \"#utility.yul\":4621:4651   */\n      gt\n        /* \"#utility.yul\":4618:4674   */\n      iszero\n      tag_304\n      jumpi\n        /* \"#utility.yul\":4654:4672   */\n      tag_305\n      tag_237\n      jump\t// in\n    tag_305:\n        /* \"#utility.yul\":4618:4674   */\n    tag_304:\n        /* \"#utility.yul\":4692:4721   */\n      tag_306\n        /* \"#utility.yul\":4714:4720   */\n      dup3\n        /* \"#utility.yul\":4692:4721   */\n      tag_228\n      jump\t// in\n    tag_306:\n        /* \"#utility.yul\":4684:4721   */\n      swap1\n      pop\n        /* \"#utility.yul\":4776:4780   */\n      0x20\n        /* \"#utility.yul\":4770:4774   */\n      dup2\n        /* \"#utility.yul\":4766:4781   */\n      add\n        /* \"#utility.yul\":4758:4781   */\n      swap1\n      pop\n        /* \"#utility.yul\":4480:4788   */\n      swap2\n      swap1\n      pop\n      jump\t// out\n        /* \"#utility.yul\":4794:4948   */\n    tag_241:\n        /* \"#utility.yul\":4878:4884   */\n      dup3\n        /* \"#utility.yul\":4873:4876   */\n      dup2\n        /* \"#utility.yul\":4868:4871   */\n      dup4\n        /* \"#utility.yul\":4855:4885   */\n      calldatacopy\n        /* \"#utility.yul\":4940:4941   */\n      0x00\n        /* \"#utility.yul\":4931:4937   */\n      dup4\n        /* \"#utility.yul\":4926:4929   */\n      dup4\n        /* \"#utility.yul\":4922:4938   */\n      add\n        /* \"#utility.yul\":4915:4942   */\n      mstore\n        /* \"#utility.yul\":4794:4948   */\n      pop\n      pop\n      pop\n      jump\t// out\n        /* \"#utility.yul\":4954:5366   */\n    tag_242:\n        /* \"#utility.yul\":5032:5037   */\n      0x00\n        /* \"#utility.yul\":5057:5123   */\n      tag_309\n        /* \"#utility.yul\":5073:5122   */\n      tag_310\n        /* \"#utility.yul\":5115:5121   */\n      dup5\n        /* \"#utility.yul\":5073:5122   */\n      tag_240\n      jump\t// in\n    tag_310:\n        /* \"#utility.yul\":5057:5123   */\n      tag_239\n      jump\t// in\n    tag_309:\n        /* \"#utility.yul\":5048:5123   */\n      swap1\n      pop\n        /* \"#utility.yul\":5146:5152   */\n      dup3\n        /* \"#utility.yul\":5139:5144   */\n      dup2\n        /* \"#utility.yul\":5132:5153   */\n      mstore\n        /* \"#utility.yul\":5184:5188   */\n      0x20\n        /* \"#utility.yul\":5177:5182   */\n      dup2\n        /* \"#utility.yul\":5173:5189   */\n      add\n        /* \"#utility.yul\":5222:5225   */\n      dup5\n        /* \"#utility.yul\":5213:5219   */\n      dup5\n        /* \"#utility.yul\":5208:5211   */\n      dup5\n        /* \"#utility.yul\":5204:5220   */\n      add\n        /* \"#utility.yul\":5201:5226   */\n      gt\n        /* \"#utility.yul\":5198:5310   */\n      iszero\n      tag_311\n      jumpi\n        /* \"#utility.yul\":5229:5308   */\n      tag_312\n      tag_236\n      jump\t// in\n    tag_312:\n        /* \"#utility.yul\":5198:5310   */\n    tag_311:\n        /* \"#utility.yul\":5319:5360   */\n      tag_313\n        /* \"#utility.yul\":5353:5359   */\n      dup5\n        /* \"#utility.yul\":5348:5351   */\n      dup3\n        /* \"#utility.yul\":5343:5346   */\n      dup6\n        /* \"#utility.yul\":5319:5360   */\n      tag_241\n      jump\t// in\n    tag_313:\n        /* \"#utility.yul\":5038:5366   */\n      pop\n        /* \"#utility.yul\":4954:5366   */\n      swap4\n      swap3\n      pop\n      pop\n      pop\n      jump\t// out\n        /* \"#utility.yul\":5386:5726   */\n    tag_243:\n        /* \"#utility.yul\":5442:5447   */\n      0x00\n        /* \"#utility.yul\":5491:5494   */\n      dup3\n        /* \"#utility.yul\":5484:5488   */\n      0x1f\n        /* \"#utility.yul\":5476:5482   */\n      dup4\n        /* \"#utility.yul\":5472:5489   */\n      add\n        /* \"#utility.yul\":5468:5495   */\n      slt\n        /* \"#utility.yul\":5458:5580   */\n      tag_315\n      jumpi\n        /* \"#utility.yul\":5499:5578   */\n      tag_316\n      tag_235\n      jump\t// in\n    tag_316:\n        /* \"#utility.yul\":5458:5580   */\n    tag_315:\n        /* \"#utility.yul\":5616:5622   */\n      dup2\n        /* \"#utility.yul\":5603:5623   */\n      calldataload\n        /* \"#utility.yul\":5641:5720   */\n      tag_317\n        /* \"#utility.yul\":5716:5719   */\n      dup5\n        /* \"#utility.yul\":5708:5714   */\n      dup3\n        /* \"#utility.yul\":5701:5705   */\n      0x20\n        /* \"#utility.yul\":5693:5699   */\n      dup7\n        /* \"#utility.yul\":5689:5706   */\n      add\n        /* \"#utility.yul\":5641:5720   */\n      tag_242\n      jump\t// in\n    tag_317:\n        /* \"#utility.yul\":5632:5720   */\n      swap2\n      pop\n        /* \"#utility.yul\":5448:5726   */\n      pop\n        /* \"#utility.yul\":5386:5726   */\n      swap3\n      swap2\n      pop\n      pop\n      jump\t// out\n        /* \"#utility.yul\":5732:6386   */\n    tag_45:\n        /* \"#utility.yul\":5810:5816   */\n      0x00\n        /* \"#utility.yul\":5818:5824   */\n      dup1\n        /* \"#utility.yul\":5867:5869   */\n      0x40\n        /* \"#utility.yul\":5855:5864   */\n      dup4\n        /* \"#utility.yul\":5846:5853   */\n      dup6\n        /* \"#utility.yul\":5842:5865   */\n      sub\n        /* \"#utility.yul\":5838:5870   */\n      slt\n        /* \"#utility.yul\":5835:5954   */\n      iszero\n      tag_319\n      jumpi\n        /* \"#utility.yul\":5873:5952   */\n      tag_320\n      tag_219\n      jump\t// in\n    tag_320:\n        /* \"#utility.yul\":5835:5954   */\n    tag_319:\n        /* \"#utility.yul\":5993:5994   */\n      0x00\n        /* \"#utility.yul\":6018:6071   */\n      tag_321\n        /* \"#utility.yul\":6063:6070   */\n      dup6\n        /* \"#utility.yul\":6054:6060   */\n      dup3\n        /* \"#utility.yul\":6043:6052   */\n      dup7\n        /* \"#utility.yul\":6039:6061   */\n      add\n        /* \"#utility.yul\":6018:6071   */\n      tag_234\n      jump\t// in\n    tag_321:\n        /* \"#utility.yul\":6008:6071   */\n      swap3\n      pop\n        /* \"#utility.yul\":5964:6081   */\n      pop\n        /* \"#utility.yul\":6148:6150   */\n      0x20\n        /* \"#utility.yul\":6137:6146   */\n      dup4\n        /* \"#utility.yul\":6133:6151   */\n      add\n        /* \"#utility.yul\":6120:6152   */\n      calldataload\n        /* \"#utility.yul\":6179:6197   */\n      0xffffffffffffffff\n        /* \"#utility.yul\":6171:6177   */\n      dup2\n        /* \"#utility.yul\":6168:6198   */\n      gt\n        /* \"#utility.yul\":6165:6282   */\n      iszero\n      tag_322\n      jumpi\n        /* \"#utility.yul\":6201:6280   */\n      tag_323\n      tag_220\n      jump\t// in\n    tag_323:\n        /* \"#utility.yul\":6165:6282   */\n    tag_322:\n        /* \"#utility.yul\":6306:6369   */\n      tag_324\n        /* \"#utility.yul\":6361:6368   */\n      dup6\n        /* \"#utility.yul\":6352:6358   */\n      dup3\n        /* \"#utility.yul\":6341:6350   */\n      dup7\n        /* \"#utility.yul\":6337:6359   */\n      add\n        /* \"#utility.yul\":6306:6369   */\n      tag_243\n      jump\t// in\n    tag_324:\n        /* \"#utility.yul\":6296:6369   */\n      swap2\n      pop\n        /* \"#utility.yul\":6091:6379   */\n      pop\n        /* \"#utility.yul\":5732:6386   */\n      swap3\n      pop\n      swap3\n      swap1\n      pop\n      jump\t// out\n        /* \"#utility.yul\":6392:6721   */\n    tag_58:\n        /* \"#utility.yul\":6451:6457   */\n      0x00\n        /* \"#utility.yul\":6500:6502   */\n      0x20\n        /* \"#utility.yul\":6488:6497   */\n      dup3\n        /* \"#utility.yul\":6479:6486   */\n      dup5\n        /* \"#utility.yul\":6475:6498   */\n      sub\n        /* \"#utility.yul\":6471:6503   */\n      slt\n        /* \"#utility.yul\":6468:6587   */\n      iszero\n      tag_326\n      jumpi\n        /* \"#utility.yul\":6506:6585   */\n      tag_327\n      tag_219\n      jump\t// in\n    tag_327:\n        /* \"#utility.yul\":6468:6587   */\n    tag_326:\n        /* \"#utility.yul\":6626:6627   */\n      0x00\n        /* \"#utility.yul\":6651:6704   */\n      tag_328\n        /* \"#utility.yul\":6696:6703   */\n      dup5\n        /* \"#utility.yul\":6687:6693   */\n      dup3\n        /* \"#utility.yul\":6676:6685   */\n      dup6\n        /* \"#utility.yul\":6672:6694   */\n      add\n        /* \"#utility.yul\":6651:6704   */\n      tag_234\n      jump\t// in\n    tag_328:\n        /* \"#utility.yul\":6641:6704   */\n      swap2\n      pop\n        /* \"#utility.yul\":6597:6714   */\n      pop\n        /* \"#utility.yul\":6392:6721   */\n      swap3\n      swap2\n      pop\n      pop\n      jump\t// out\n        /* \"#utility.yul\":6727:7260   */\n    tag_70:\n        /* \"#utility.yul\":6896:6900   */\n      0x00\n        /* \"#utility.yul\":6934:6936   */\n      0x60\n        /* \"#utility.yul\":6923:6932   */\n      dup3\n        /* \"#utility.yul\":6919:6937   */\n      add\n        /* \"#utility.yul\":6911:6937   */\n      swap1\n      pop\n        /* \"#utility.yul\":6947:7018   */\n      tag_330\n        /* \"#utility.yul\":7015:7016   */\n      0x00\n        /* \"#utility.yul\":7004:7013   */\n      dup4\n        /* \"#utility.yul\":7000:7017   */\n      add\n        /* \"#utility.yul\":6991:6997   */\n      dup7\n        /* \"#utility.yul\":6947:7018   */\n      tag_230\n      jump\t// in\n    tag_330:\n        /* \"#utility.yul\":7028:7100   */\n      tag_331\n        /* \"#utility.yul\":7096:7098   */\n      0x20\n        /* \"#utility.yul\":7085:7094   */\n      dup4\n        /* \"#utility.yul\":7081:7099   */\n      add\n        /* \"#utility.yul\":7072:7078   */\n      dup6\n        /* \"#utility.yul\":7028:7100   */\n      tag_232\n      jump\t// in\n    tag_331:\n        /* \"#utility.yul\":7147:7156   */\n      dup2\n        /* \"#utility.yul\":7141:7145   */\n      dup2\n        /* \"#utility.yul\":7137:7157   */\n      sub\n        /* \"#utility.yul\":7132:7134   */\n      0x40\n        /* \"#utility.yul\":7121:7130   */\n      dup4\n        /* \"#utility.yul\":7117:7135   */\n      add\n        /* \"#utility.yul\":7110:7158   */\n      mstore\n        /* \"#utility.yul\":7175:7253   */\n      tag_332\n        /* \"#utility.yul\":7248:7252   */\n      dup2\n        /* \"#utility.yul\":7239:7245   */\n      dup5\n        /* \"#utility.yul\":7175:7253   */\n      tag_229\n      jump\t// in\n    tag_332:\n        /* \"#utility.yul\":7167:7253   */\n      swap1\n      pop\n        /* \"#utility.yul\":6727:7260   */\n      swap5\n      swap4\n      pop\n      pop\n      pop\n      pop\n      jump\t// out\n        /* \"#utility.yul\":7266:7799   */\n    tag_75:\n        /* \"#utility.yul\":7435:7439   */\n      0x00\n        /* \"#utility.yul\":7473:7475   */\n      0x60\n        /* \"#utility.yul\":7462:7471   */\n      dup3\n        /* \"#utility.yul\":7458:7476   */\n      add\n        /* \"#utility.yul\":7450:7476   */\n      swap1\n      pop\n        /* \"#utility.yul\":7486:7557   */\n      tag_334\n        /* \"#utility.yul\":7554:7555   */\n      0x00\n        /* \"#utility.yul\":7543:7552   */\n      dup4\n        /* \"#utility.yul\":7539:7556   */\n      add\n        /* \"#utility.yul\":7530:7536   */\n      dup7\n        /* \"#utility.yul\":7486:7557   */\n      tag_232\n      jump\t// in\n    tag_334:\n        /* \"#utility.yul\":7567:7639   */\n      tag_335\n        /* \"#utility.yul\":7635:7637   */\n      0x20\n        /* \"#utility.yul\":7624:7633   */\n      dup4\n        /* \"#utility.yul\":7620:7638   */\n      add\n        /* \"#utility.yul\":7611:7617   */\n      dup6\n        /* \"#utility.yul\":7567:7639   */\n      tag_230\n      jump\t// in\n    tag_335:\n        /* \"#utility.yul\":7686:7695   */\n      dup2\n        /* \"#utility.yul\":7680:7684   */\n      dup2\n        /* \"#utility.yul\":7676:7696   */\n      sub\n        /* \"#utility.yul\":7671:7673   */\n      0x40\n        /* \"#utility.yul\":7660:7669   */\n      dup4\n        /* \"#utility.yul\":7656:7674   */\n      add\n        /* \"#utility.yul\":7649:7697   */\n      mstore\n        /* \"#utility.yul\":7714:7792   */\n      tag_336\n        /* \"#utility.yul\":7787:7791   */\n      dup2\n        /* \"#utility.yul\":7778:7784   */\n      dup5\n        /* \"#utility.yul\":7714:7792   */\n      tag_229\n      jump\t// in\n    tag_336:\n        /* \"#utility.yul\":7706:7792   */\n      swap1\n      pop\n        /* \"#utility.yul\":7266:7799   */\n      swap5\n      swap4\n      pop\n      pop\n      pop\n      pop\n      jump\t// out\n        /* \"#utility.yul\":7805:8314   */\n    tag_84:\n        /* \"#utility.yul\":7874:7880   */\n      0x00\n        /* \"#utility.yul\":7923:7925   */\n      0x20\n        /* \"#utility.yul\":7911:7920   */\n      dup3\n        /* \"#utility.yul\":7902:7909   */\n      dup5\n        /* \"#utility.yul\":7898:7921   */\n      sub\n        /* \"#utility.yul\":7894:7926   */\n      slt\n        /* \"#utility.yul\":7891:8010   */\n      iszero\n      tag_338\n      jumpi\n        /* \"#utility.yul\":7929:8008   */\n      tag_339\n      tag_219\n      jump\t// in\n    tag_339:\n        /* \"#utility.yul\":7891:8010   */\n    tag_338:\n        /* \"#utility.yul\":8077:8078   */\n      0x00\n        /* \"#utility.yul\":8066:8075   */\n      dup3\n        /* \"#utility.yul\":8062:8079   */\n      add\n        /* \"#utility.yul\":8049:8080   */\n      calldataload\n        /* \"#utility.yul\":8107:8125   */\n      0xffffffffffffffff\n        /* \"#utility.yul\":8099:8105   */\n      dup2\n        /* \"#utility.yul\":8096:8126   */\n      gt\n        /* \"#utility.yul\":8093:8210   */\n      iszero\n      tag_340\n      jumpi\n        /* \"#utility.yul\":8129:8208   */\n      tag_341\n      tag_220\n      jump\t// in\n    tag_341:\n        /* \"#utility.yul\":8093:8210   */\n    tag_340:\n        /* \"#utility.yul\":8234:8297   */\n      tag_342\n        /* \"#utility.yul\":8289:8296   */\n      dup5\n        /* \"#utility.yul\":8280:8286   */\n      dup3\n        /* \"#utility.yul\":8269:8278   */\n      dup6\n        /* \"#utility.yul\":8265:8287   */\n      add\n        /* \"#utility.yul\":8234:8297   */\n      tag_243\n      jump\t// in\n    tag_342:\n        /* \"#utility.yul\":8224:8297   */\n      swap2\n      pop\n        /* \"#utility.yul\":8020:8307   */\n      pop\n        /* \"#utility.yul\":7805:8314   */\n      swap3\n      swap2\n      pop\n      pop\n      jump\t// out\n        /* \"#utility.yul\":8320:9119   */\n    tag_103:\n        /* \"#utility.yul\":8407:8413   */\n      0x00\n        /* \"#utility.yul\":8415:8421   */\n      dup1\n        /* \"#utility.yul\":8423:8429   */\n      0x00\n        /* \"#utility.yul\":8472:8474   */\n      0x60\n        /* \"#utility.yul\":8460:8469   */\n      dup5\n        /* \"#utility.yul\":8451:8458   */\n      dup7\n        /* \"#utility.yul\":8447:8470   */\n      sub\n        /* \"#utility.yul\":8443:8475   */\n      slt\n        /* \"#utility.yul\":8440:8559   */\n      iszero\n      tag_344\n      jumpi\n        /* \"#utility.yul\":8478:8557   */\n      tag_345\n      tag_219\n      jump\t// in\n    tag_345:\n        /* \"#utility.yul\":8440:8559   */\n    tag_344:\n        /* \"#utility.yul\":8626:8627   */\n      0x00\n        /* \"#utility.yul\":8615:8624   */\n      dup5\n        /* \"#utility.yul\":8611:8628   */\n      add\n        /* \"#utility.yul\":8598:8629   */\n      calldataload\n        /* \"#utility.yul\":8656:8674   */\n      0xffffffffffffffff\n        /* \"#utility.yul\":8648:8654   */\n      dup2\n        /* \"#utility.yul\":8645:8675   */\n      gt\n        /* \"#utility.yul\":8642:8759   */\n      iszero\n      tag_346\n      jumpi\n        /* \"#utility.yul\":8678:8757   */\n      tag_347\n      tag_220\n      jump\t// in\n    tag_347:\n        /* \"#utility.yul\":8642:8759   */\n    tag_346:\n        /* \"#utility.yul\":8783:8846   */\n      tag_348\n        /* \"#utility.yul\":8838:8845   */\n      dup7\n        /* \"#utility.yul\":8829:8835   */\n      dup3\n        /* \"#utility.yul\":8818:8827   */\n      dup8\n        /* \"#utility.yul\":8814:8836   */\n      add\n        /* \"#utility.yul\":8783:8846   */\n      tag_243\n      jump\t// in\n    tag_348:\n        /* \"#utility.yul\":8773:8846   */\n      swap4\n      pop\n        /* \"#utility.yul\":8569:8856   */\n      pop\n        /* \"#utility.yul\":8895:8897   */\n      0x20\n        /* \"#utility.yul\":8921:8974   */\n      tag_349\n        /* \"#utility.yul\":8966:8973   */\n      dup7\n        /* \"#utility.yul\":8957:8963   */\n      dup3\n        /* \"#utility.yul\":8946:8955   */\n      dup8\n        /* \"#utility.yul\":8942:8964   */\n      add\n        /* \"#utility.yul\":8921:8974   */\n      tag_234\n      jump\t// in\n    tag_349:\n        /* \"#utility.yul\":8911:8974   */\n      swap3\n      pop\n        /* \"#utility.yul\":8866:8984   */\n      pop\n        /* \"#utility.yul\":9023:9025   */\n      0x40\n        /* \"#utility.yul\":9049:9102   */\n      tag_350\n        /* \"#utility.yul\":9094:9101   */\n      dup7\n        /* \"#utility.yul\":9085:9091   */\n      dup3\n        /* \"#utility.yul\":9074:9083   */\n      dup8\n        /* \"#utility.yul\":9070:9092   */\n      add\n        /* \"#utility.yul\":9049:9102   */\n      tag_234\n      jump\t// in\n    tag_350:\n        /* \"#utility.yul\":9039:9102   */\n      swap2\n      pop\n        /* \"#utility.yul\":8994:9112   */\n      pop\n        /* \"#utility.yul\":8320:9119   */\n      swap3\n      pop\n      swap3\n      pop\n      swap3\n      jump\t// out\n        /* \"#utility.yul\":9125:9305   */\n    tag_244:\n        /* \"#utility.yul\":9173:9250   */\n      0x4e487b7100000000000000000000000000000000000000000000000000000000\n        /* \"#utility.yul\":9170:9171   */\n      0x00\n        /* \"#utility.yul\":9163:9251   */\n      mstore\n        /* \"#utility.yul\":9270:9274   */\n      0x22\n        /* \"#utility.yul\":9267:9268   */\n      0x04\n        /* \"#utility.yul\":9260:9275   */\n      mstore\n        /* \"#utility.yul\":9294:9298   */\n      0x24\n        /* \"#utility.yul\":9291:9292   */\n      0x00\n        /* \"#utility.yul\":9284:9299   */\n      revert\n        /* \"#utility.yul\":9311:9631   */\n    tag_112:\n        /* \"#utility.yul\":9355:9361   */\n      0x00\n        /* \"#utility.yul\":9392:9393   */\n      0x02\n        /* \"#utility.yul\":9386:9390   */\n      dup3\n        /* \"#utility.yul\":9382:9394   */\n      div\n        /* \"#utility.yul\":9372:9394   */\n      swap1\n      pop\n        /* \"#utility.yul\":9439:9440   */\n      0x01\n        /* \"#utility.yul\":9433:9437   */\n      dup3\n        /* \"#utility.yul\":9429:9441   */\n      and\n        /* \"#utility.yul\":9460:9478   */\n      dup1\n        /* \"#utility.yul\":9450:9531   */\n      tag_353\n      jumpi\n        /* \"#utility.yul\":9516:9520   */\n      0x7f\n        /* \"#utility.yul\":9508:9514   */\n      dup3\n        /* \"#utility.yul\":9504:9521   */\n      and\n        /* \"#utility.yul\":9494:9521   */\n      swap2\n      pop\n        /* \"#utility.yul\":9450:9531   */\n    tag_353:\n        /* \"#utility.yul\":9578:9580   */\n      0x20\n        /* \"#utility.yul\":9570:9576   */\n      dup3\n        /* \"#utility.yul\":9567:9581   */\n      lt\n        /* \"#utility.yul\":9547:9565   */\n      dup2\n        /* \"#utility.yul\":9544:9582   */\n      sub\n        /* \"#utility.yul\":9541:9625   */\n      tag_354\n      jumpi\n        /* \"#utility.yul\":9597:9615   */\n      tag_355\n      tag_244\n      jump\t// in\n    tag_355:\n        /* \"#utility.yul\":9541:9625   */\n    tag_354:\n        /* \"#utility.yul\":9362:9631   */\n      pop\n        /* \"#utility.yul\":9311:9631   */\n      swap2\n      swap1\n      pop\n      jump\t// out\n        /* \"#utility.yul\":9637:9817   */\n    tag_132:\n        /* \"#utility.yul\":9685:9762   */\n      0x4e487b7100000000000000000000000000000000000000000000000000000000\n        /* \"#utility.yul\":9682:9683   */\n      0x00\n        /* \"#utility.yul\":9675:9763   */\n      mstore\n        /* \"#utility.yul\":9782:9786   */\n      0x32\n        /* \"#utility.yul\":9779:9780   */\n      0x04\n        /* \"#utility.yul\":9772:9787   */\n      mstore\n        /* \"#utility.yul\":9806:9810   */\n      0x24\n        /* \"#utility.yul\":9803:9804   */\n      0x00\n        /* \"#utility.yul\":9796:9811   */\n      revert\n        /* \"#utility.yul\":9823:10003   */\n    tag_245:\n        /* \"#utility.yul\":9871:9948   */\n      0x4e487b7100000000000000000000000000000000000000000000000000000000\n        /* \"#utility.yul\":9868:9869   */\n      0x00\n        /* \"#utility.yul\":9861:9949   */\n      mstore\n        /* \"#utility.yul\":9968:9972   */\n      0x11\n        /* \"#utility.yul\":9965:9966   */\n      0x04\n        /* \"#utility.yul\":9958:9973   */\n      mstore\n        /* \"#utility.yul\":9992:9996   */\n      0x24\n        /* \"#utility.yul\":9989:9990   */\n      0x00\n        /* \"#utility.yul\":9982:9997   */\n      revert\n        /* \"#utility.yul\":10009:10314   */\n    tag_137:\n        /* \"#utility.yul\":10049:10052   */\n      0x00\n        /* \"#utility.yul\":10068:10088   */\n      tag_359\n        /* \"#utility.yul\":10086:10087   */\n      dup3\n        /* \"#utility.yul\":10068:10088   */\n      tag_231\n      jump\t// in\n    tag_359:\n        /* \"#utility.yul\":10063:10088   */\n      swap2\n      pop\n        /* \"#utility.yul\":10102:10122   */\n      tag_360\n        /* \"#utility.yul\":10120:10121   */\n      dup4\n        /* \"#utility.yul\":10102:10122   */\n      tag_231\n      jump\t// in\n    tag_360:\n        /* \"#utility.yul\":10097:10122   */\n      swap3\n      pop\n        /* \"#utility.yul\":10256:10257   */\n      dup3\n        /* \"#utility.yul\":10188:10254   */\n      0xffffffffffffffffffffffffffffffffffffffffffffffffffffffffffffffff\n        /* \"#utility.yul\":10184:10258   */\n      sub\n        /* \"#utility.yul\":10181:10182   */\n      dup3\n        /* \"#utility.yul\":10178:10259   */\n      gt\n        /* \"#utility.yul\":10175:10282   */\n      iszero\n      tag_361\n      jumpi\n        /* \"#utility.yul\":10262:10280   */\n      tag_362\n      tag_245\n      jump\t// in\n    tag_362:\n        /* \"#utility.yul\":10175:10282   */\n    tag_361:\n        /* \"#utility.yul\":10306:10307   */\n      dup3\n        /* \"#utility.yul\":10303:10304   */\n      dup3\n        /* \"#utility.yul\":10299:10308   */\n      add\n        /* \"#utility.yul\":10292:10308   */\n      swap1\n      pop\n        /* \"#utility.yul\":10009:10314   */\n      swap3\n      swap2\n      pop\n      pop\n      jump\t// out\n        /* \"#utility.yul\":10320:10546   */\n    tag_246:\n        /* \"#utility.yul\":10460:10494   */\n      0x4f6e6c792061756374696f6e6565722063616e2063616c6c2074686973206675\n        /* \"#utility.yul\":10456:10457   */\n      0x00\n        /* \"#utility.yul\":10448:10454   */\n      dup3\n        /* \"#utility.yul\":10444:10458   */\n      add\n        /* \"#utility.yul\":10437:10495   */\n      mstore\n        /* \"#utility.yul\":10529:10538   */\n      0x6e6374696f6e2e00000000000000000000000000000000000000000000000000\n        /* \"#utility.yul\":10524:10526   */\n      0x20\n        /* \"#utility.yul\":10516:10522   */\n      dup3\n        /* \"#utility.yul\":10512:10527   */\n      add\n        /* \"#utility.yul\":10505:10539   */\n      mstore\n        /* \"#utility.yul\":10320:10546   */\n      pop\n      jump\t// out\n        /* \"#utility.yul\":10552:10918   */\n    tag_247:\n        /* \"#utility.yul\":10694:10697   */\n      0x00\n        /* \"#utility.yul\":10715:10782   */\n      tag_365\n        /* \"#utility.yul\":10779:10781   */\n      0x27\n        /* \"#utility.yul\":10774:10777   */\n      dup4\n        /* \"#utility.yul\":10715:10782   */\n      tag_226\n      jump\t// in\n    tag_365:\n        /* \"#utility.yul\":10708:10782   */\n      swap2\n      pop\n        /* \"#utility.yul\":10791:10884   */\n      tag_366\n        /* \"#utility.yul\":10880:10883   */\n      dup3\n        /* \"#utility.yul\":10791:10884   */\n      tag_246\n      jump\t// in\n    tag_366:\n        /* \"#utility.yul\":10909:10911   */\n      0x40\n        /* \"#utility.yul\":10904:10907   */\n      dup3\n        /* \"#utility.yul\":10900:10912   */\n      add\n        /* \"#utility.yul\":10893:10912   */\n      swap1\n      pop\n        /* \"#utility.yul\":10552:10918   */\n      swap2\n      swap1\n      pop\n      jump\t// out\n        /* \"#utility.yul\":10924:11343   */\n    tag_191:\n        /* \"#utility.yul\":11090:11094   */\n      0x00\n        /* \"#utility.yul\":11128:11130   */\n      0x20\n        /* \"#utility.yul\":11117:11126   */\n      dup3\n        /* \"#utility.yul\":11113:11131   */\n      add\n        /* \"#utility.yul\":11105:11131   */\n      swap1\n      pop\n        /* \"#utility.yul\":11177:11186   */\n      dup2\n        /* \"#utility.yul\":11171:11175   */\n      dup2\n        /* \"#utility.yul\":11167:11187   */\n      sub\n        /* \"#utility.yul\":11163:11164   */\n      0x00\n        /* \"#utility.yul\":11152:11161   */\n      dup4\n        /* \"#utility.yul\":11148:11165   */\n      add\n        /* \"#utility.yul\":11141:11188   */\n      mstore\n        /* \"#utility.yul\":11205:11336   */\n      tag_368\n        /* \"#utility.yul\":11331:11335   */\n      dup2\n        /* \"#utility.yul\":11205:11336   */\n      tag_247\n      jump\t// in\n    tag_368:\n        /* \"#utility.yul\":11197:11336   */\n      swap1\n      pop\n        /* \"#utility.yul\":10924:11343   */\n      swap2\n      swap1\n      pop\n      jump\t// out\n\n    auxdata: 0xa2646970667358221220d23f20946a81c9f186a78c1959d2163f14c95f1cc5b2a8a0972df4a5baaf988464736f6c634300080e0033\n}\n",
				"bytecode": {
					"linkReferences": {},
					"object": "608060405234801561001057600080fd5b50611672806100206000396000f3fe608060405234801561001057600080fd5b506004361061014d5760003560e01c80638f772f96116100c3578063d826f88f1161007c578063d826f88f14610394578063daa0218f1461039e578063dca49f4a146103bc578063e7d2a997146103da578063ed7a4e0b146103f6578063f356733c146104145761014d565b80638f772f96146102bc578063938626c2146102ee578063c8bca7321461030c578063ca142b561461032a578063ceb98f6e14610346578063cff29dfd146103645761014d565b80633817df4c116101155780633817df4c146101f857806340bd5937146102285780635fa382801461023257806366c85dee1461026257806383050daa1461027e5780638e7ea5b21461029c5761014d565b806305fb23cf1461015257806310a37c261461018257806311631d06146101a05780631744e03b146101be57806334eb86a2146101da575b600080fd5b61016c60048036038101906101679190611032565b61041e565b60405161017991906110f8565b60405180910390f35b61018a6104ef565b6040516101979190611129565b60405180910390f35b6101a8610519565b6040516101b5919061115d565b60405180910390f35b6101d860048036038101906101d391906112d9565b61051f565b005b6101e2610582565b6040516101ef919061115d565b60405180910390f35b610212600480360381019061020d9190611032565b610588565b60405161021f91906110f8565b60405180910390f35b610230610628565b005b61024c60048036038101906102479190611335565b6106de565b6040516102599190611129565b60405180910390f35b61027c600480360381019061027791906112d9565b610726565b005b6102866107fc565b60405161029391906110f8565b60405180910390f35b6102a4610839565b6040516102b393929190611362565b60405180910390f35b6102d660048036038101906102d19190611335565b6108fd565b6040516102e5939291906113a0565b60405180910390f35b6102f66109df565b60405161030391906110f8565b60405180910390f35b610314610a6d565b60405161032191906110f8565b60405180910390f35b610344600480360381019061033f91906113de565b610aff565b005b61034e610b56565b60405161035b919061115d565b60405180910390f35b61037e60048036038101906103799190611335565b610b60565b60405161038b9190611129565b60405180910390f35b61039c610b9f565b005b6103a6610c6b565b6040516103b3919061115d565b60405180910390f35b6103c4610c71565b6040516103d191906110f8565b60405180910390f35b6103f460048036038101906103ef9190611427565b610cff565b005b6103fe610db7565b60405161040b9190611129565b60405180910390f35b61041c610ddd565b005b6060600560008373ffffffffffffffffffffffffffffffffffffffff1673ffffffffffffffffffffffffffffffffffffffff168152602001908152602001600020805461046a906114c5565b80601f0160208091040260200160405190810160405280929190818152602001828054610496906114c5565b80156104e35780601f106104b8576101008083540402835291602001916104e3565b820191906000526020600020905b8154815290600101906020018083116104c657829003601f168201915b50505050509050919050565b6000600660009054906101000a900473ffffffffffffffffffffffffffffffffffffffff16905090565b60075481565b33600660006101000a81548173ffffffffffffffffffffffffffffffffffffffff021916908373ffffffffffffffffffffffffffffffffffffffff16021790555081600781905550806008908051906020019061057d929190610e42565b505050565b60035481565b600560205280600052604060002060009150905080546105a7906114c5565b80601f01602080910402602001604051908101604052809291908181526020018280546105d3906114c5565b80156106205780601f106105f557610100808354040283529160200191610620565b820191906000526020600020905b81548152906001019060200180831161060357829003601f168201915b505050505081565b60005b6001805490508110156106db5760006001828154811061064e5761064d6114f6565b5b9060005260206000200160009054906101000a900473ffffffffffffffffffffffffffffffffffffffff169050600560008273ffffffffffffffffffffffffffffffffffffffff1673ffffffffffffffffffffffffffffffffffffffff16815260200190815260200160002060006106c69190610ec8565b506001816106d49190611554565b905061062b565b50565b6000600182815481106106f4576106f36114f6565b5b9060005260206000200160009054906101000a900473ffffffffffffffffffffffffffffffffffffffff169050919050565b600060405180606001604052808481526020013373ffffffffffffffffffffffffffffffffffffffff16815260200183815250905060098190806001815401808255809150506001900390600052602060002090600302016000909190919091506000820151816000015560208201518160010160006101000a81548173ffffffffffffffffffffffffffffffffffffffff021916908373ffffffffffffffffffffffffffffffffffffffff16021790555060408201518160020190805190602001906107f4929190610e42565b505050505050565b60606040518060400160405280601781526020017f73616d706c6520737472696e672066726f6d20414b4542000000000000000000815250905090565b6000806060600660009054906101000a900473ffffffffffffffffffffffffffffffffffffffff166007546008808054610872906114c5565b80601f016020809104026020016040519081016040528092919081815260200182805461089e906114c5565b80156108eb5780601f106108c0576101008083540402835291602001916108eb565b820191906000526020600020905b8154815290600101906020018083116108ce57829003601f168201915b50505050509050925092509250909192565b6009818154811061090d57600080fd5b90600052602060002090600302016000915090508060000154908060010160009054906101000a900473ffffffffffffffffffffffffffffffffffffffff169080600201805461095c906114c5565b80601f0160208091040260200160405190810160405280929190818152602001828054610988906114c5565b80156109d55780601f106109aa576101008083540402835291602001916109d5565b820191906000526020600020905b8154815290600101906020018083116109b857829003601f168201915b5050505050905083565b600280546109ec906114c5565b80601f0160208091040260200160405190810160405280929190818152602001828054610a18906114c5565b8015610a655780601f10610a3a57610100808354040283529160200191610a65565b820191906000526020600020905b815481529060010190602001808311610a4857829003601f168201915b505050505081565b606060088054610a7c906114c5565b80601f0160208091040260200160405190810160405280929190818152602001828054610aa8906114c5565b8015610af55780601f10610aca57610100808354040283529160200191610af5565b820191906000526020600020905b815481529060010190602001808311610ad857829003601f168201915b5050505050905090565b80600560003373ffffffffffffffffffffffffffffffffffffffff1673ffffffffffffffffffffffffffffffffffffffff1681526020019081526020016000209080519060200190610b52929190610e42565b5050565b6000600754905090565b60018181548110610b7057600080fd5b906000526020600020016000915054906101000a900473ffffffffffffffffffffffffffffffffffffffff1681565b6000600660006101000a81548173ffffffffffffffffffffffffffffffffffffffff021916908373ffffffffffffffffffffffffffffffffffffffff16021790555060006007819055506040518060200160405280600081525060089080519060200190610c0e929190610e42565b506040518060200160405280600081525060029080519060200190610c34929190610e42565b5060006003819055506000600481905550610c4d610628565b60016000610c5b9190610f08565b60096000610c699190610f29565b565b60045481565b60088054610c7e906114c5565b80601f0160208091040260200160405190810160405280929190818152602001828054610caa906114c5565b8015610cf75780601f10610ccc57610100808354040283529160200191610cf7565b820191906000526020600020905b815481529060010190602001808311610cda57829003601f168201915b505050505081565b60008054906101000a900473ffffffffffffffffffffffffffffffffffffffff1673ffffffffffffffffffffffffffffffffffffffff163373ffffffffffffffffffffffffffffffffffffffff1614610d8d576040517f08c379a0000000000000000000000000000000000000000000000000000000008152600401610d849061161c565b60405180910390fd5b8260029080519060200190610da3929190610e42565b508160038190555080600481905550505050565b600660009054906101000a900473ffffffffffffffffffffffffffffffffffffffff1681565b6001339080600181540180825580915050600190039060005260206000200160009091909190916101000a81548173ffffffffffffffffffffffffffffffffffffffff021916908373ffffffffffffffffffffffffffffffffffffffff160217905550565b828054610e4e906114c5565b90600052602060002090601f016020900481019282610e705760008555610eb7565b82601f10610e8957805160ff1916838001178555610eb7565b82800160010185558215610eb7579182015b82811115610eb6578251825591602001919060010190610e9b565b5b509050610ec49190610f4d565b5090565b508054610ed4906114c5565b6000825580601f10610ee65750610f05565b601f016020900490600052602060002090810190610f049190610f4d565b5b50565b5080546000825590600052602060002090810190610f269190610f4d565b50565b5080546000825560030290600052602060002090810190610f4a9190610f6a565b50565b5b80821115610f66576000816000905550600101610f4e565b5090565b5b80821115610fbc576000808201600090556001820160006101000a81549073ffffffffffffffffffffffffffffffffffffffff0219169055600282016000610fb39190610ec8565b50600301610f6b565b5090565b6000604051905090565b600080fd5b600080fd5b600073ffffffffffffffffffffffffffffffffffffffff82169050919050565b6000610fff82610fd4565b9050919050565b61100f81610ff4565b811461101a57600080fd5b50565b60008135905061102c81611006565b92915050565b60006020828403121561104857611047610fca565b5b60006110568482850161101d565b91505092915050565b600081519050919050565b600082825260208201905092915050565b60005b8381101561109957808201518184015260208101905061107e565b838111156110a8576000848401525b50505050565b6000601f19601f8301169050919050565b60006110ca8261105f565b6110d4818561106a565b93506110e481856020860161107b565b6110ed816110ae565b840191505092915050565b6000602082019050818103600083015261111281846110bf565b905092915050565b61112381610ff4565b82525050565b600060208201905061113e600083018461111a565b92915050565b6000819050919050565b61115781611144565b82525050565b6000602082019050611172600083018461114e565b92915050565b61118181611144565b811461118c57600080fd5b50565b60008135905061119e81611178565b92915050565b600080fd5b600080fd5b7f4e487b7100000000000000000000000000000000000000000000000000000000600052604160045260246000fd5b6111e6826110ae565b810181811067ffffffffffffffff82111715611205576112046111ae565b5b80604052505050565b6000611218610fc0565b905061122482826111dd565b919050565b600067ffffffffffffffff821115611244576112436111ae565b5b61124d826110ae565b9050602081019050919050565b82818337600083830152505050565b600061127c61127784611229565b61120e565b905082815260208101848484011115611298576112976111a9565b5b6112a384828561125a565b509392505050565b600082601f8301126112c0576112bf6111a4565b5b81356112d0848260208601611269565b91505092915050565b600080604083850312156112f0576112ef610fca565b5b60006112fe8582860161118f565b925050602083013567ffffffffffffffff81111561131f5761131e610fcf565b5b61132b858286016112ab565b9150509250929050565b60006020828403121561134b5761134a610fca565b5b60006113598482850161118f565b91505092915050565b6000606082019050611377600083018661111a565b611384602083018561114e565b818103604083015261139681846110bf565b9050949350505050565b60006060820190506113b5600083018661114e565b6113c2602083018561111a565b81810360408301526113d481846110bf565b9050949350505050565b6000602082840312156113f4576113f3610fca565b5b600082013567ffffffffffffffff81111561141257611411610fcf565b5b61141e848285016112ab565b91505092915050565b6000806000606084860312156114405761143f610fca565b5b600084013567ffffffffffffffff81111561145e5761145d610fcf565b5b61146a868287016112ab565b935050602061147b8682870161118f565b925050604061148c8682870161118f565b9150509250925092565b7f4e487b7100000000000000000000000000000000000000000000000000000000600052602260045260246000fd5b600060028204905060018216806114dd57607f821691505b6020821081036114f0576114ef611496565b5b50919050565b7f4e487b7100000000000000000000000000000000000000000000000000000000600052603260045260246000fd5b7f4e487b7100000000000000000000000000000000000000000000000000000000600052601160045260246000fd5b600061155f82611144565b915061156a83611144565b9250827fffffffffffffffffffffffffffffffffffffffffffffffffffffffffffffffff0382111561159f5761159e611525565b5b828201905092915050565b7f4f6e6c792061756374696f6e6565722063616e2063616c6c207468697320667560008201527f6e6374696f6e2e00000000000000000000000000000000000000000000000000602082015250565b600061160660278361106a565b9150611611826115aa565b604082019050919050565b60006020820190508181036000830152611635816115f9565b905091905056fea2646970667358221220d23f20946a81c9f186a78c1959d2163f14c95f1cc5b2a8a0972df4a5baaf988464736f6c634300080e0033",
					"opcodes": "PUSH1 0x80 PUSH1 0x40 MSTORE CALLVALUE DUP1 ISZERO PUSH2 0x10 JUMPI PUSH1 0x0 DUP1 REVERT JUMPDEST POP PUSH2 0x1672 DUP1 PUSH2 0x20 PUSH1 0x0 CODECOPY PUSH1 0x0 RETURN INVALID PUSH1 0x80 PUSH1 0x40 MSTORE CALLVALUE DUP1 ISZERO PUSH2 0x10 JUMPI PUSH1 0x0 DUP1 REVERT JUMPDEST POP PUSH1 0x4 CALLDATASIZE LT PUSH2 0x14D JUMPI PUSH1 0x0 CALLDATALOAD PUSH1 0xE0 SHR DUP1 PUSH4 0x8F772F96 GT PUSH2 0xC3 JUMPI DUP1 PUSH4 0xD826F88F GT PUSH2 0x7C JUMPI DUP1 PUSH4 0xD826F88F EQ PUSH2 0x394 JUMPI DUP1 PUSH4 0xDAA0218F EQ PUSH2 0x39E JUMPI DUP1 PUSH4 0xDCA49F4A EQ PUSH2 0x3BC JUMPI DUP1 PUSH4 0xE7D2A997 EQ PUSH2 0x3DA JUMPI DUP1 PUSH4 0xED7A4E0B EQ PUSH2 0x3F6 JUMPI DUP1 PUSH4 0xF356733C EQ PUSH2 0x414 JUMPI PUSH2 0x14D JUMP JUMPDEST DUP1 PUSH4 0x8F772F96 EQ PUSH2 0x2BC JUMPI DUP1 PUSH4 0x938626C2 EQ PUSH2 0x2EE JUMPI DUP1 PUSH4 0xC8BCA732 EQ PUSH2 0x30C JUMPI DUP1 PUSH4 0xCA142B56 EQ PUSH2 0x32A JUMPI DUP1 PUSH4 0xCEB98F6E EQ PUSH2 0x346 JUMPI DUP1 PUSH4 0xCFF29DFD EQ PUSH2 0x364 JUMPI PUSH2 0x14D JUMP JUMPDEST DUP1 PUSH4 0x3817DF4C GT PUSH2 0x115 JUMPI DUP1 PUSH4 0x3817DF4C EQ PUSH2 0x1F8 JUMPI DUP1 PUSH4 0x40BD5937 EQ PUSH2 0x228 JUMPI DUP1 PUSH4 0x5FA38280 EQ PUSH2 0x232 JUMPI DUP1 PUSH4 0x66C85DEE EQ PUSH2 0x262 JUMPI DUP1 PUSH4 0x83050DAA EQ PUSH2 0x27E JUMPI DUP1 PUSH4 0x8E7EA5B2 EQ PUSH2 0x29C JUMPI PUSH2 0x14D JUMP JUMPDEST DUP1 PUSH4 0x5FB23CF EQ PUSH2 0x152 JUMPI DUP1 PUSH4 0x10A37C26 EQ PUSH2 0x182 JUMPI DUP1 PUSH4 0x11631D06 EQ PUSH2 0x1A0 JUMPI DUP1 PUSH4 0x1744E03B EQ PUSH2 0x1BE JUMPI DUP1 PUSH4 0x34EB86A2 EQ PUSH2 0x1DA JUMPI JUMPDEST PUSH1 0x0 DUP1 REVERT JUMPDEST PUSH2 0x16C PUSH1 0x4 DUP1 CALLDATASIZE SUB DUP2 ADD SWAP1 PUSH2 0x167 SWAP2 SWAP1 PUSH2 0x1032 JUMP JUMPDEST PUSH2 0x41E JUMP JUMPDEST PUSH1 0x40 MLOAD PUSH2 0x179 SWAP2 SWAP1 PUSH2 0x10F8 JUMP JUMPDEST PUSH1 0x40 MLOAD DUP1 SWAP2 SUB SWAP1 RETURN JUMPDEST PUSH2 0x18A PUSH2 0x4EF JUMP JUMPDEST PUSH1 0x40 MLOAD PUSH2 0x197 SWAP2 SWAP1 PUSH2 0x1129 JUMP JUMPDEST PUSH1 0x40 MLOAD DUP1 SWAP2 SUB SWAP1 RETURN JUMPDEST PUSH2 0x1A8 PUSH2 0x519 JUMP JUMPDEST PUSH1 0x40 MLOAD PUSH2 0x1B5 SWAP2 SWAP1 PUSH2 0x115D JUMP JUMPDEST PUSH1 0x40 MLOAD DUP1 SWAP2 SUB SWAP1 RETURN JUMPDEST PUSH2 0x1D8 PUSH1 0x4 DUP1 CALLDATASIZE SUB DUP2 ADD SWAP1 PUSH2 0x1D3 SWAP2 SWAP1 PUSH2 0x12D9 JUMP JUMPDEST PUSH2 0x51F JUMP JUMPDEST STOP JUMPDEST PUSH2 0x1E2 PUSH2 0x582 JUMP JUMPDEST PUSH1 0x40 MLOAD PUSH2 0x1EF SWAP2 SWAP1 PUSH2 0x115D JUMP JUMPDEST PUSH1 0x40 MLOAD DUP1 SWAP2 SUB SWAP1 RETURN JUMPDEST PUSH2 0x212 PUSH1 0x4 DUP1 CALLDATASIZE SUB DUP2 ADD SWAP1 PUSH2 0x20D SWAP2 SWAP1 PUSH2 0x1032 JUMP JUMPDEST PUSH2 0x588 JUMP JUMPDEST PUSH1 0x40 MLOAD PUSH2 0x21F SWAP2 SWAP1 PUSH2 0x10F8 JUMP JUMPDEST PUSH1 0x40 MLOAD DUP1 SWAP2 SUB SWAP1 RETURN JUMPDEST PUSH2 0x230 PUSH2 0x628 JUMP JUMPDEST STOP JUMPDEST PUSH2 0x24C PUSH1 0x4 DUP1 CALLDATASIZE SUB DUP2 ADD SWAP1 PUSH2 0x247 SWAP2 SWAP1 PUSH2 0x1335 JUMP JUMPDEST PUSH2 0x6DE JUMP JUMPDEST PUSH1 0x40 MLOAD PUSH2 0x259 SWAP2 SWAP1 PUSH2 0x1129 JUMP JUMPDEST PUSH1 0x40 MLOAD DUP1 SWAP2 SUB SWAP1 RETURN JUMPDEST PUSH2 0x27C PUSH1 0x4 DUP1 CALLDATASIZE SUB DUP2 ADD SWAP1 PUSH2 0x277 SWAP2 SWAP1 PUSH2 0x12D9 JUMP JUMPDEST PUSH2 0x726 JUMP JUMPDEST STOP JUMPDEST PUSH2 0x286 PUSH2 0x7FC JUMP JUMPDEST PUSH1 0x40 MLOAD PUSH2 0x293 SWAP2 SWAP1 PUSH2 0x10F8 JUMP JUMPDEST PUSH1 0x40 MLOAD DUP1 SWAP2 SUB SWAP1 RETURN JUMPDEST PUSH2 0x2A4 PUSH2 0x839 JUMP JUMPDEST PUSH1 0x40 MLOAD PUSH2 0x2B3 SWAP4 SWAP3 SWAP2 SWAP1 PUSH2 0x1362 JUMP JUMPDEST PUSH1 0x40 MLOAD DUP1 SWAP2 SUB SWAP1 RETURN JUMPDEST PUSH2 0x2D6 PUSH1 0x4 DUP1 CALLDATASIZE SUB DUP2 ADD SWAP1 PUSH2 0x2D1 SWAP2 SWAP1 PUSH2 0x1335 JUMP JUMPDEST PUSH2 0x8FD JUMP JUMPDEST PUSH1 0x40 MLOAD PUSH2 0x2E5 SWAP4 SWAP3 SWAP2 SWAP1 PUSH2 0x13A0 JUMP JUMPDEST PUSH1 0x40 MLOAD DUP1 SWAP2 SUB SWAP1 RETURN JUMPDEST PUSH2 0x2F6 PUSH2 0x9DF JUMP JUMPDEST PUSH1 0x40 MLOAD PUSH2 0x303 SWAP2 SWAP1 PUSH2 0x10F8 JUMP JUMPDEST PUSH1 0x40 MLOAD DUP1 SWAP2 SUB SWAP1 RETURN JUMPDEST PUSH2 0x314 PUSH2 0xA6D JUMP JUMPDEST PUSH1 0x40 MLOAD PUSH2 0x321 SWAP2 SWAP1 PUSH2 0x10F8 JUMP JUMPDEST PUSH1 0x40 MLOAD DUP1 SWAP2 SUB SWAP1 RETURN JUMPDEST PUSH2 0x344 PUSH1 0x4 DUP1 CALLDATASIZE SUB DUP2 ADD SWAP1 PUSH2 0x33F SWAP2 SWAP1 PUSH2 0x13DE JUMP JUMPDEST PUSH2 0xAFF JUMP JUMPDEST STOP JUMPDEST PUSH2 0x34E PUSH2 0xB56 JUMP JUMPDEST PUSH1 0x40 MLOAD PUSH2 0x35B SWAP2 SWAP1 PUSH2 0x115D JUMP JUMPDEST PUSH1 0x40 MLOAD DUP1 SWAP2 SUB SWAP1 RETURN JUMPDEST PUSH2 0x37E PUSH1 0x4 DUP1 CALLDATASIZE SUB DUP2 ADD SWAP1 PUSH2 0x379 SWAP2 SWAP1 PUSH2 0x1335 JUMP JUMPDEST PUSH2 0xB60 JUMP JUMPDEST PUSH1 0x40 MLOAD PUSH2 0x38B SWAP2 SWAP1 PUSH2 0x1129 JUMP JUMPDEST PUSH1 0x40 MLOAD DUP1 SWAP2 SUB SWAP1 RETURN JUMPDEST PUSH2 0x39C PUSH2 0xB9F JUMP JUMPDEST STOP JUMPDEST PUSH2 0x3A6 PUSH2 0xC6B JUMP JUMPDEST PUSH1 0x40 MLOAD PUSH2 0x3B3 SWAP2 SWAP1 PUSH2 0x115D JUMP JUMPDEST PUSH1 0x40 MLOAD DUP1 SWAP2 SUB SWAP1 RETURN JUMPDEST PUSH2 0x3C4 PUSH2 0xC71 JUMP JUMPDEST PUSH1 0x40 MLOAD PUSH2 0x3D1 SWAP2 SWAP1 PUSH2 0x10F8 JUMP JUMPDEST PUSH1 0x40 MLOAD DUP1 SWAP2 SUB SWAP1 RETURN JUMPDEST PUSH2 0x3F4 PUSH1 0x4 DUP1 CALLDATASIZE SUB DUP2 ADD SWAP1 PUSH2 0x3EF SWAP2 SWAP1 PUSH2 0x1427 JUMP JUMPDEST PUSH2 0xCFF JUMP JUMPDEST STOP JUMPDEST PUSH2 0x3FE PUSH2 0xDB7 JUMP JUMPDEST PUSH1 0x40 MLOAD PUSH2 0x40B SWAP2 SWAP1 PUSH2 0x1129 JUMP JUMPDEST PUSH1 0x40 MLOAD DUP1 SWAP2 SUB SWAP1 RETURN JUMPDEST PUSH2 0x41C PUSH2 0xDDD JUMP JUMPDEST STOP JUMPDEST PUSH1 0x60 PUSH1 0x5 PUSH1 0x0 DUP4 PUSH20 0xFFFFFFFFFFFFFFFFFFFFFFFFFFFFFFFFFFFFFFFF AND PUSH20 0xFFFFFFFFFFFFFFFFFFFFFFFFFFFFFFFFFFFFFFFF AND DUP2 MSTORE PUSH1 0x20 ADD SWAP1 DUP2 MSTORE PUSH1 0x20 ADD PUSH1 0x0 KECCAK256 DUP1 SLOAD PUSH2 0x46A SWAP1 PUSH2 0x14C5 JUMP JUMPDEST DUP1 PUSH1 0x1F ADD PUSH1 0x20 DUP1 SWAP2 DIV MUL PUSH1 0x20 ADD PUSH1 0x40 MLOAD SWAP1 DUP2 ADD PUSH1 0x40 MSTORE DUP1 SWAP3 SWAP2 SWAP1 DUP2 DUP2 MSTORE PUSH1 0x20 ADD DUP3 DUP1 SLOAD PUSH2 0x496 SWAP1 PUSH2 0x14C5 JUMP JUMPDEST DUP1 ISZERO PUSH2 0x4E3 JUMPI DUP1 PUSH1 0x1F LT PUSH2 0x4B8 JUMPI PUSH2 0x100 DUP1 DUP4 SLOAD DIV MUL DUP4 MSTORE SWAP2 PUSH1 0x20 ADD SWAP2 PUSH2 0x4E3 JUMP JUMPDEST DUP3 ADD SWAP2 SWAP1 PUSH1 0x0 MSTORE PUSH1 0x20 PUSH1 0x0 KECCAK256 SWAP1 JUMPDEST DUP2 SLOAD DUP2 MSTORE SWAP1 PUSH1 0x1 ADD SWAP1 PUSH1 0x20 ADD DUP1 DUP4 GT PUSH2 0x4C6 JUMPI DUP3 SWAP1 SUB PUSH1 0x1F AND DUP3 ADD SWAP2 JUMPDEST POP POP POP POP POP SWAP1 POP SWAP2 SWAP1 POP JUMP JUMPDEST PUSH1 0x0 PUSH1 0x6 PUSH1 0x0 SWAP1 SLOAD SWAP1 PUSH2 0x100 EXP SWAP1 DIV PUSH20 0xFFFFFFFFFFFFFFFFFFFFFFFFFFFFFFFFFFFFFFFF AND SWAP1 POP SWAP1 JUMP JUMPDEST PUSH1 0x7 SLOAD DUP2 JUMP JUMPDEST CALLER PUSH1 0x6 PUSH1 0x0 PUSH2 0x100 EXP DUP2 SLOAD DUP2 PUSH20 0xFFFFFFFFFFFFFFFFFFFFFFFFFFFFFFFFFFFFFFFF MUL NOT AND SWAP1 DUP4 PUSH20 0xFFFFFFFFFFFFFFFFFFFFFFFFFFFFFFFFFFFFFFFF AND MUL OR SWAP1 SSTORE POP DUP2 PUSH1 0x7 DUP2 SWAP1 SSTORE POP DUP1 PUSH1 0x8 SWAP1 DUP1 MLOAD SWAP1 PUSH1 0x20 ADD SWAP1 PUSH2 0x57D SWAP3 SWAP2 SWAP1 PUSH2 0xE42 JUMP JUMPDEST POP POP POP JUMP JUMPDEST PUSH1 0x3 SLOAD DUP2 JUMP JUMPDEST PUSH1 0x5 PUSH1 0x20 MSTORE DUP1 PUSH1 0x0 MSTORE PUSH1 0x40 PUSH1 0x0 KECCAK256 PUSH1 0x0 SWAP2 POP SWAP1 POP DUP1 SLOAD PUSH2 0x5A7 SWAP1 PUSH2 0x14C5 JUMP JUMPDEST DUP1 PUSH1 0x1F ADD PUSH1 0x20 DUP1 SWAP2 DIV MUL PUSH1 0x20 ADD PUSH1 0x40 MLOAD SWAP1 DUP2 ADD PUSH1 0x40 MSTORE DUP1 SWAP3 SWAP2 SWAP1 DUP2 DUP2 MSTORE PUSH1 0x20 ADD DUP3 DUP1 SLOAD PUSH2 0x5D3 SWAP1 PUSH2 0x14C5 JUMP JUMPDEST DUP1 ISZERO PUSH2 0x620 JUMPI DUP1 PUSH1 0x1F LT PUSH2 0x5F5 JUMPI PUSH2 0x100 DUP1 DUP4 SLOAD DIV MUL DUP4 MSTORE SWAP2 PUSH1 0x20 ADD SWAP2 PUSH2 0x620 JUMP JUMPDEST DUP3 ADD SWAP2 SWAP1 PUSH1 0x0 MSTORE PUSH1 0x20 PUSH1 0x0 KECCAK256 SWAP1 JUMPDEST DUP2 SLOAD DUP2 MSTORE SWAP1 PUSH1 0x1 ADD SWAP1 PUSH1 0x20 ADD DUP1 DUP4 GT PUSH2 0x603 JUMPI DUP3 SWAP1 SUB PUSH1 0x1F AND DUP3 ADD SWAP2 JUMPDEST POP POP POP POP POP DUP2 JUMP JUMPDEST PUSH1 0x0 JUMPDEST PUSH1 0x1 DUP1 SLOAD SWAP1 POP DUP2 LT ISZERO PUSH2 0x6DB JUMPI PUSH1 0x0 PUSH1 0x1 DUP3 DUP2 SLOAD DUP2 LT PUSH2 0x64E JUMPI PUSH2 0x64D PUSH2 0x14F6 JUMP JUMPDEST JUMPDEST SWAP1 PUSH1 0x0 MSTORE PUSH1 0x20 PUSH1 0x0 KECCAK256 ADD PUSH1 0x0 SWAP1 SLOAD SWAP1 PUSH2 0x100 EXP SWAP1 DIV PUSH20 0xFFFFFFFFFFFFFFFFFFFFFFFFFFFFFFFFFFFFFFFF AND SWAP1 POP PUSH1 0x5 PUSH1 0x0 DUP3 PUSH20 0xFFFFFFFFFFFFFFFFFFFFFFFFFFFFFFFFFFFFFFFF AND PUSH20 0xFFFFFFFFFFFFFFFFFFFFFFFFFFFFFFFFFFFFFFFF AND DUP2 MSTORE PUSH1 0x20 ADD SWAP1 DUP2 MSTORE PUSH1 0x20 ADD PUSH1 0x0 KECCAK256 PUSH1 0x0 PUSH2 0x6C6 SWAP2 SWAP1 PUSH2 0xEC8 JUMP JUMPDEST POP PUSH1 0x1 DUP2 PUSH2 0x6D4 SWAP2 SWAP1 PUSH2 0x1554 JUMP JUMPDEST SWAP1 POP PUSH2 0x62B JUMP JUMPDEST POP JUMP JUMPDEST PUSH1 0x0 PUSH1 0x1 DUP3 DUP2 SLOAD DUP2 LT PUSH2 0x6F4 JUMPI PUSH2 0x6F3 PUSH2 0x14F6 JUMP JUMPDEST JUMPDEST SWAP1 PUSH1 0x0 MSTORE PUSH1 0x20 PUSH1 0x0 KECCAK256 ADD PUSH1 0x0 SWAP1 SLOAD SWAP1 PUSH2 0x100 EXP SWAP1 DIV PUSH20 0xFFFFFFFFFFFFFFFFFFFFFFFFFFFFFFFFFFFFFFFF AND SWAP1 POP SWAP2 SWAP1 POP JUMP JUMPDEST PUSH1 0x0 PUSH1 0x40 MLOAD DUP1 PUSH1 0x60 ADD PUSH1 0x40 MSTORE DUP1 DUP5 DUP2 MSTORE PUSH1 0x20 ADD CALLER PUSH20 0xFFFFFFFFFFFFFFFFFFFFFFFFFFFFFFFFFFFFFFFF AND DUP2 MSTORE PUSH1 0x20 ADD DUP4 DUP2 MSTORE POP SWAP1 POP PUSH1 0x9 DUP2 SWAP1 DUP1 PUSH1 0x1 DUP2 SLOAD ADD DUP1 DUP3 SSTORE DUP1 SWAP2 POP POP PUSH1 0x1 SWAP1 SUB SWAP1 PUSH1 0x0 MSTORE PUSH1 0x20 PUSH1 0x0 KECCAK256 SWAP1 PUSH1 0x3 MUL ADD PUSH1 0x0 SWAP1 SWAP2 SWAP1 SWAP2 SWAP1 SWAP2 POP PUSH1 0x0 DUP3 ADD MLOAD DUP2 PUSH1 0x0 ADD SSTORE PUSH1 0x20 DUP3 ADD MLOAD DUP2 PUSH1 0x1 ADD PUSH1 0x0 PUSH2 0x100 EXP DUP2 SLOAD DUP2 PUSH20 0xFFFFFFFFFFFFFFFFFFFFFFFFFFFFFFFFFFFFFFFF MUL NOT AND SWAP1 DUP4 PUSH20 0xFFFFFFFFFFFFFFFFFFFFFFFFFFFFFFFFFFFFFFFF AND MUL OR SWAP1 SSTORE POP PUSH1 0x40 DUP3 ADD MLOAD DUP2 PUSH1 0x2 ADD SWAP1 DUP1 MLOAD SWAP1 PUSH1 0x20 ADD SWAP1 PUSH2 0x7F4 SWAP3 SWAP2 SWAP1 PUSH2 0xE42 JUMP JUMPDEST POP POP POP POP POP POP JUMP JUMPDEST PUSH1 0x60 PUSH1 0x40 MLOAD DUP1 PUSH1 0x40 ADD PUSH1 0x40 MSTORE DUP1 PUSH1 0x17 DUP2 MSTORE PUSH1 0x20 ADD PUSH32 0x73616D706C6520737472696E672066726F6D20414B4542000000000000000000 DUP2 MSTORE POP SWAP1 POP SWAP1 JUMP JUMPDEST PUSH1 0x0 DUP1 PUSH1 0x60 PUSH1 0x6 PUSH1 0x0 SWAP1 SLOAD SWAP1 PUSH2 0x100 EXP SWAP1 DIV PUSH20 0xFFFFFFFFFFFFFFFFFFFFFFFFFFFFFFFFFFFFFFFF AND PUSH1 0x7 SLOAD PUSH1 0x8 DUP1 DUP1 SLOAD PUSH2 0x872 SWAP1 PUSH2 0x14C5 JUMP JUMPDEST DUP1 PUSH1 0x1F ADD PUSH1 0x20 DUP1 SWAP2 DIV MUL PUSH1 0x20 ADD PUSH1 0x40 MLOAD SWAP1 DUP2 ADD PUSH1 0x40 MSTORE DUP1 SWAP3 SWAP2 SWAP1 DUP2 DUP2 MSTORE PUSH1 0x20 ADD DUP3 DUP1 SLOAD PUSH2 0x89E SWAP1 PUSH2 0x14C5 JUMP JUMPDEST DUP1 ISZERO PUSH2 0x8EB JUMPI DUP1 PUSH1 0x1F LT PUSH2 0x8C0 JUMPI PUSH2 0x100 DUP1 DUP4 SLOAD DIV MUL DUP4 MSTORE SWAP2 PUSH1 0x20 ADD SWAP2 PUSH2 0x8EB JUMP JUMPDEST DUP3 ADD SWAP2 SWAP1 PUSH1 0x0 MSTORE PUSH1 0x20 PUSH1 0x0 KECCAK256 SWAP1 JUMPDEST DUP2 SLOAD DUP2 MSTORE SWAP1 PUSH1 0x1 ADD SWAP1 PUSH1 0x20 ADD DUP1 DUP4 GT PUSH2 0x8CE JUMPI DUP3 SWAP1 SUB PUSH1 0x1F AND DUP3 ADD SWAP2 JUMPDEST POP POP POP POP POP SWAP1 POP SWAP3 POP SWAP3 POP SWAP3 POP SWAP1 SWAP2 SWAP3 JUMP JUMPDEST PUSH1 0x9 DUP2 DUP2 SLOAD DUP2 LT PUSH2 0x90D JUMPI PUSH1 0x0 DUP1 REVERT JUMPDEST SWAP1 PUSH1 0x0 MSTORE PUSH1 0x20 PUSH1 0x0 KECCAK256 SWAP1 PUSH1 0x3 MUL ADD PUSH1 0x0 SWAP2 POP SWAP1 POP DUP1 PUSH1 0x0 ADD SLOAD SWAP1 DUP1 PUSH1 0x1 ADD PUSH1 0x0 SWAP1 SLOAD SWAP1 PUSH2 0x100 EXP SWAP1 DIV PUSH20 0xFFFFFFFFFFFFFFFFFFFFFFFFFFFFFFFFFFFFFFFF AND SWAP1 DUP1 PUSH1 0x2 ADD DUP1 SLOAD PUSH2 0x95C SWAP1 PUSH2 0x14C5 JUMP JUMPDEST DUP1 PUSH1 0x1F ADD PUSH1 0x20 DUP1 SWAP2 DIV MUL PUSH1 0x20 ADD PUSH1 0x40 MLOAD SWAP1 DUP2 ADD PUSH1 0x40 MSTORE DUP1 SWAP3 SWAP2 SWAP1 DUP2 DUP2 MSTORE PUSH1 0x20 ADD DUP3 DUP1 SLOAD PUSH2 0x988 SWAP1 PUSH2 0x14C5 JUMP JUMPDEST DUP1 ISZERO PUSH2 0x9D5 JUMPI DUP1 PUSH1 0x1F LT PUSH2 0x9AA JUMPI PUSH2 0x100 DUP1 DUP4 SLOAD DIV MUL DUP4 MSTORE SWAP2 PUSH1 0x20 ADD SWAP2 PUSH2 0x9D5 JUMP JUMPDEST DUP3 ADD SWAP2 SWAP1 PUSH1 0x0 MSTORE PUSH1 0x20 PUSH1 0x0 KECCAK256 SWAP1 JUMPDEST DUP2 SLOAD DUP2 MSTORE SWAP1 PUSH1 0x1 ADD SWAP1 PUSH1 0x20 ADD DUP1 DUP4 GT PUSH2 0x9B8 JUMPI DUP3 SWAP1 SUB PUSH1 0x1F AND DUP3 ADD SWAP2 JUMPDEST POP POP POP POP POP SWAP1 POP DUP4 JUMP JUMPDEST PUSH1 0x2 DUP1 SLOAD PUSH2 0x9EC SWAP1 PUSH2 0x14C5 JUMP JUMPDEST DUP1 PUSH1 0x1F ADD PUSH1 0x20 DUP1 SWAP2 DIV MUL PUSH1 0x20 ADD PUSH1 0x40 MLOAD SWAP1 DUP2 ADD PUSH1 0x40 MSTORE DUP1 SWAP3 SWAP2 SWAP1 DUP2 DUP2 MSTORE PUSH1 0x20 ADD DUP3 DUP1 SLOAD PUSH2 0xA18 SWAP1 PUSH2 0x14C5 JUMP JUMPDEST DUP1 ISZERO PUSH2 0xA65 JUMPI DUP1 PUSH1 0x1F LT PUSH2 0xA3A JUMPI PUSH2 0x100 DUP1 DUP4 SLOAD DIV MUL DUP4 MSTORE SWAP2 PUSH1 0x20 ADD SWAP2 PUSH2 0xA65 JUMP JUMPDEST DUP3 ADD SWAP2 SWAP1 PUSH1 0x0 MSTORE PUSH1 0x20 PUSH1 0x0 KECCAK256 SWAP1 JUMPDEST DUP2 SLOAD DUP2 MSTORE SWAP1 PUSH1 0x1 ADD SWAP1 PUSH1 0x20 ADD DUP1 DUP4 GT PUSH2 0xA48 JUMPI DUP3 SWAP1 SUB PUSH1 0x1F AND DUP3 ADD SWAP2 JUMPDEST POP POP POP POP POP DUP2 JUMP JUMPDEST PUSH1 0x60 PUSH1 0x8 DUP1 SLOAD PUSH2 0xA7C SWAP1 PUSH2 0x14C5 JUMP JUMPDEST DUP1 PUSH1 0x1F ADD PUSH1 0x20 DUP1 SWAP2 DIV MUL PUSH1 0x20 ADD PUSH1 0x40 MLOAD SWAP1 DUP2 ADD PUSH1 0x40 MSTORE DUP1 SWAP3 SWAP2 SWAP1 DUP2 DUP2 MSTORE PUSH1 0x20 ADD DUP3 DUP1 SLOAD PUSH2 0xAA8 SWAP1 PUSH2 0x14C5 JUMP JUMPDEST DUP1 ISZERO PUSH2 0xAF5 JUMPI DUP1 PUSH1 0x1F LT PUSH2 0xACA JUMPI PUSH2 0x100 DUP1 DUP4 SLOAD DIV MUL DUP4 MSTORE SWAP2 PUSH1 0x20 ADD SWAP2 PUSH2 0xAF5 JUMP JUMPDEST DUP3 ADD SWAP2 SWAP1 PUSH1 0x0 MSTORE PUSH1 0x20 PUSH1 0x0 KECCAK256 SWAP1 JUMPDEST DUP2 SLOAD DUP2 MSTORE SWAP1 PUSH1 0x1 ADD SWAP1 PUSH1 0x20 ADD DUP1 DUP4 GT PUSH2 0xAD8 JUMPI DUP3 SWAP1 SUB PUSH1 0x1F AND DUP3 ADD SWAP2 JUMPDEST POP POP POP POP POP SWAP1 POP SWAP1 JUMP JUMPDEST DUP1 PUSH1 0x5 PUSH1 0x0 CALLER PUSH20 0xFFFFFFFFFFFFFFFFFFFFFFFFFFFFFFFFFFFFFFFF AND PUSH20 0xFFFFFFFFFFFFFFFFFFFFFFFFFFFFFFFFFFFFFFFF AND DUP2 MSTORE PUSH1 0x20 ADD SWAP1 DUP2 MSTORE PUSH1 0x20 ADD PUSH1 0x0 KECCAK256 SWAP1 DUP1 MLOAD SWAP1 PUSH1 0x20 ADD SWAP1 PUSH2 0xB52 SWAP3 SWAP2 SWAP1 PUSH2 0xE42 JUMP JUMPDEST POP POP JUMP JUMPDEST PUSH1 0x0 PUSH1 0x7 SLOAD SWAP1 POP SWAP1 JUMP JUMPDEST PUSH1 0x1 DUP2 DUP2 SLOAD DUP2 LT PUSH2 0xB70 JUMPI PUSH1 0x0 DUP1 REVERT JUMPDEST SWAP1 PUSH1 0x0 MSTORE PUSH1 0x20 PUSH1 0x0 KECCAK256 ADD PUSH1 0x0 SWAP2 POP SLOAD SWAP1 PUSH2 0x100 EXP SWAP1 DIV PUSH20 0xFFFFFFFFFFFFFFFFFFFFFFFFFFFFFFFFFFFFFFFF AND DUP2 JUMP JUMPDEST PUSH1 0x0 PUSH1 0x6 PUSH1 0x0 PUSH2 0x100 EXP DUP2 SLOAD DUP2 PUSH20 0xFFFFFFFFFFFFFFFFFFFFFFFFFFFFFFFFFFFFFFFF MUL NOT AND SWAP1 DUP4 PUSH20 0xFFFFFFFFFFFFFFFFFFFFFFFFFFFFFFFFFFFFFFFF AND MUL OR SWAP1 SSTORE POP PUSH1 0x0 PUSH1 0x7 DUP2 SWAP1 SSTORE POP PUSH1 0x40 MLOAD DUP1 PUSH1 0x20 ADD PUSH1 0x40 MSTORE DUP1 PUSH1 0x0 DUP2 MSTORE POP PUSH1 0x8 SWAP1 DUP1 MLOAD SWAP1 PUSH1 0x20 ADD SWAP1 PUSH2 0xC0E SWAP3 SWAP2 SWAP1 PUSH2 0xE42 JUMP JUMPDEST POP PUSH1 0x40 MLOAD DUP1 PUSH1 0x20 ADD PUSH1 0x40 MSTORE DUP1 PUSH1 0x0 DUP2 MSTORE POP PUSH1 0x2 SWAP1 DUP1 MLOAD SWAP1 PUSH1 0x20 ADD SWAP1 PUSH2 0xC34 SWAP3 SWAP2 SWAP1 PUSH2 0xE42 JUMP JUMPDEST POP PUSH1 0x0 PUSH1 0x3 DUP2 SWAP1 SSTORE POP PUSH1 0x0 PUSH1 0x4 DUP2 SWAP1 SSTORE POP PUSH2 0xC4D PUSH2 0x628 JUMP JUMPDEST PUSH1 0x1 PUSH1 0x0 PUSH2 0xC5B SWAP2 SWAP1 PUSH2 0xF08 JUMP JUMPDEST PUSH1 0x9 PUSH1 0x0 PUSH2 0xC69 SWAP2 SWAP1 PUSH2 0xF29 JUMP JUMPDEST JUMP JUMPDEST PUSH1 0x4 SLOAD DUP2 JUMP JUMPDEST PUSH1 0x8 DUP1 SLOAD PUSH2 0xC7E SWAP1 PUSH2 0x14C5 JUMP JUMPDEST DUP1 PUSH1 0x1F ADD PUSH1 0x20 DUP1 SWAP2 DIV MUL PUSH1 0x20 ADD PUSH1 0x40 MLOAD SWAP1 DUP2 ADD PUSH1 0x40 MSTORE DUP1 SWAP3 SWAP2 SWAP1 DUP2 DUP2 MSTORE PUSH1 0x20 ADD DUP3 DUP1 SLOAD PUSH2 0xCAA SWAP1 PUSH2 0x14C5 JUMP JUMPDEST DUP1 ISZERO PUSH2 0xCF7 JUMPI DUP1 PUSH1 0x1F LT PUSH2 0xCCC JUMPI PUSH2 0x100 DUP1 DUP4 SLOAD DIV MUL DUP4 MSTORE SWAP2 PUSH1 0x20 ADD SWAP2 PUSH2 0xCF7 JUMP JUMPDEST DUP3 ADD SWAP2 SWAP1 PUSH1 0x0 MSTORE PUSH1 0x20 PUSH1 0x0 KECCAK256 SWAP1 JUMPDEST DUP2 SLOAD DUP2 MSTORE SWAP1 PUSH1 0x1 ADD SWAP1 PUSH1 0x20 ADD DUP1 DUP4 GT PUSH2 0xCDA JUMPI DUP3 SWAP1 SUB PUSH1 0x1F AND DUP3 ADD SWAP2 JUMPDEST POP POP POP POP POP DUP2 JUMP JUMPDEST PUSH1 0x0 DUP1 SLOAD SWAP1 PUSH2 0x100 EXP SWAP1 DIV PUSH20 0xFFFFFFFFFFFFFFFFFFFFFFFFFFFFFFFFFFFFFFFF AND PUSH20 0xFFFFFFFFFFFFFFFFFFFFFFFFFFFFFFFFFFFFFFFF AND CALLER PUSH20 0xFFFFFFFFFFFFFFFFFFFFFFFFFFFFFFFFFFFFFFFF AND EQ PUSH2 0xD8D JUMPI PUSH1 0x40 MLOAD PUSH32 0x8C379A000000000000000000000000000000000000000000000000000000000 DUP2 MSTORE PUSH1 0x4 ADD PUSH2 0xD84 SWAP1 PUSH2 0x161C JUMP JUMPDEST PUSH1 0x40 MLOAD DUP1 SWAP2 SUB SWAP1 REVERT JUMPDEST DUP3 PUSH1 0x2 SWAP1 DUP1 MLOAD SWAP1 PUSH1 0x20 ADD SWAP1 PUSH2 0xDA3 SWAP3 SWAP2 SWAP1 PUSH2 0xE42 JUMP JUMPDEST POP DUP2 PUSH1 0x3 DUP2 SWAP1 SSTORE POP DUP1 PUSH1 0x4 DUP2 SWAP1 SSTORE POP POP POP POP JUMP JUMPDEST PUSH1 0x6 PUSH1 0x0 SWAP1 SLOAD SWAP1 PUSH2 0x100 EXP SWAP1 DIV PUSH20 0xFFFFFFFFFFFFFFFFFFFFFFFFFFFFFFFFFFFFFFFF AND DUP2 JUMP JUMPDEST PUSH1 0x1 CALLER SWAP1 DUP1 PUSH1 0x1 DUP2 SLOAD ADD DUP1 DUP3 SSTORE DUP1 SWAP2 POP POP PUSH1 0x1 SWAP1 SUB SWAP1 PUSH1 0x0 MSTORE PUSH1 0x20 PUSH1 0x0 KECCAK256 ADD PUSH1 0x0 SWAP1 SWAP2 SWAP1 SWAP2 SWAP1 SWAP2 PUSH2 0x100 EXP DUP2 SLOAD DUP2 PUSH20 0xFFFFFFFFFFFFFFFFFFFFFFFFFFFFFFFFFFFFFFFF MUL NOT AND SWAP1 DUP4 PUSH20 0xFFFFFFFFFFFFFFFFFFFFFFFFFFFFFFFFFFFFFFFF AND MUL OR SWAP1 SSTORE POP JUMP JUMPDEST DUP3 DUP1 SLOAD PUSH2 0xE4E SWAP1 PUSH2 0x14C5 JUMP JUMPDEST SWAP1 PUSH1 0x0 MSTORE PUSH1 0x20 PUSH1 0x0 KECCAK256 SWAP1 PUSH1 0x1F ADD PUSH1 0x20 SWAP1 DIV DUP2 ADD SWAP3 DUP3 PUSH2 0xE70 JUMPI PUSH1 0x0 DUP6 SSTORE PUSH2 0xEB7 JUMP JUMPDEST DUP3 PUSH1 0x1F LT PUSH2 0xE89 JUMPI DUP1 MLOAD PUSH1 0xFF NOT AND DUP4 DUP1 ADD OR DUP6 SSTORE PUSH2 0xEB7 JUMP JUMPDEST DUP3 DUP1 ADD PUSH1 0x1 ADD DUP6 SSTORE DUP3 ISZERO PUSH2 0xEB7 JUMPI SWAP2 DUP3 ADD JUMPDEST DUP3 DUP2 GT ISZERO PUSH2 0xEB6 JUMPI DUP3 MLOAD DUP3 SSTORE SWAP2 PUSH1 0x20 ADD SWAP2 SWAP1 PUSH1 0x1 ADD SWAP1 PUSH2 0xE9B JUMP JUMPDEST JUMPDEST POP SWAP1 POP PUSH2 0xEC4 SWAP2 SWAP1 PUSH2 0xF4D JUMP JUMPDEST POP SWAP1 JUMP JUMPDEST POP DUP1 SLOAD PUSH2 0xED4 SWAP1 PUSH2 0x14C5 JUMP JUMPDEST PUSH1 0x0 DUP3 SSTORE DUP1 PUSH1 0x1F LT PUSH2 0xEE6 JUMPI POP PUSH2 0xF05 JUMP JUMPDEST PUSH1 0x1F ADD PUSH1 0x20 SWAP1 DIV SWAP1 PUSH1 0x0 MSTORE PUSH1 0x20 PUSH1 0x0 KECCAK256 SWAP1 DUP2 ADD SWAP1 PUSH2 0xF04 SWAP2 SWAP1 PUSH2 0xF4D JUMP JUMPDEST JUMPDEST POP JUMP JUMPDEST POP DUP1 SLOAD PUSH1 0x0 DUP3 SSTORE SWAP1 PUSH1 0x0 MSTORE PUSH1 0x20 PUSH1 0x0 KECCAK256 SWAP1 DUP2 ADD SWAP1 PUSH2 0xF26 SWAP2 SWAP1 PUSH2 0xF4D JUMP JUMPDEST POP JUMP JUMPDEST POP DUP1 SLOAD PUSH1 0x0 DUP3 SSTORE PUSH1 0x3 MUL SWAP1 PUSH1 0x0 MSTORE PUSH1 0x20 PUSH1 0x0 KECCAK256 SWAP1 DUP2 ADD SWAP1 PUSH2 0xF4A SWAP2 SWAP1 PUSH2 0xF6A JUMP JUMPDEST POP JUMP JUMPDEST JUMPDEST DUP1 DUP3 GT ISZERO PUSH2 0xF66 JUMPI PUSH1 0x0 DUP2 PUSH1 0x0 SWAP1 SSTORE POP PUSH1 0x1 ADD PUSH2 0xF4E JUMP JUMPDEST POP SWAP1 JUMP JUMPDEST JUMPDEST DUP1 DUP3 GT ISZERO PUSH2 0xFBC JUMPI PUSH1 0x0 DUP1 DUP3 ADD PUSH1 0x0 SWAP1 SSTORE PUSH1 0x1 DUP3 ADD PUSH1 0x0 PUSH2 0x100 EXP DUP2 SLOAD SWAP1 PUSH20 0xFFFFFFFFFFFFFFFFFFFFFFFFFFFFFFFFFFFFFFFF MUL NOT AND SWAP1 SSTORE PUSH1 0x2 DUP3 ADD PUSH1 0x0 PUSH2 0xFB3 SWAP2 SWAP1 PUSH2 0xEC8 JUMP JUMPDEST POP PUSH1 0x3 ADD PUSH2 0xF6B JUMP JUMPDEST POP SWAP1 JUMP JUMPDEST PUSH1 0x0 PUSH1 0x40 MLOAD SWAP1 POP SWAP1 JUMP JUMPDEST PUSH1 0x0 DUP1 REVERT JUMPDEST PUSH1 0x0 DUP1 REVERT JUMPDEST PUSH1 0x0 PUSH20 0xFFFFFFFFFFFFFFFFFFFFFFFFFFFFFFFFFFFFFFFF DUP3 AND SWAP1 POP SWAP2 SWAP1 POP JUMP JUMPDEST PUSH1 0x0 PUSH2 0xFFF DUP3 PUSH2 0xFD4 JUMP JUMPDEST SWAP1 POP SWAP2 SWAP1 POP JUMP JUMPDEST PUSH2 0x100F DUP2 PUSH2 0xFF4 JUMP JUMPDEST DUP2 EQ PUSH2 0x101A JUMPI PUSH1 0x0 DUP1 REVERT JUMPDEST POP JUMP JUMPDEST PUSH1 0x0 DUP2 CALLDATALOAD SWAP1 POP PUSH2 0x102C DUP2 PUSH2 0x1006 JUMP JUMPDEST SWAP3 SWAP2 POP POP JUMP JUMPDEST PUSH1 0x0 PUSH1 0x20 DUP3 DUP5 SUB SLT ISZERO PUSH2 0x1048 JUMPI PUSH2 0x1047 PUSH2 0xFCA JUMP JUMPDEST JUMPDEST PUSH1 0x0 PUSH2 0x1056 DUP5 DUP3 DUP6 ADD PUSH2 0x101D JUMP JUMPDEST SWAP2 POP POP SWAP3 SWAP2 POP POP JUMP JUMPDEST PUSH1 0x0 DUP2 MLOAD SWAP1 POP SWAP2 SWAP1 POP JUMP JUMPDEST PUSH1 0x0 DUP3 DUP3 MSTORE PUSH1 0x20 DUP3 ADD SWAP1 POP SWAP3 SWAP2 POP POP JUMP JUMPDEST PUSH1 0x0 JUMPDEST DUP4 DUP2 LT ISZERO PUSH2 0x1099 JUMPI DUP1 DUP3 ADD MLOAD DUP2 DUP5 ADD MSTORE PUSH1 0x20 DUP2 ADD SWAP1 POP PUSH2 0x107E JUMP JUMPDEST DUP4 DUP2 GT ISZERO PUSH2 0x10A8 JUMPI PUSH1 0x0 DUP5 DUP5 ADD MSTORE JUMPDEST POP POP POP POP JUMP JUMPDEST PUSH1 0x0 PUSH1 0x1F NOT PUSH1 0x1F DUP4 ADD AND SWAP1 POP SWAP2 SWAP1 POP JUMP JUMPDEST PUSH1 0x0 PUSH2 0x10CA DUP3 PUSH2 0x105F JUMP JUMPDEST PUSH2 0x10D4 DUP2 DUP6 PUSH2 0x106A JUMP JUMPDEST SWAP4 POP PUSH2 0x10E4 DUP2 DUP6 PUSH1 0x20 DUP7 ADD PUSH2 0x107B JUMP JUMPDEST PUSH2 0x10ED DUP2 PUSH2 0x10AE JUMP JUMPDEST DUP5 ADD SWAP2 POP POP SWAP3 SWAP2 POP POP JUMP JUMPDEST PUSH1 0x0 PUSH1 0x20 DUP3 ADD SWAP1 POP DUP2 DUP2 SUB PUSH1 0x0 DUP4 ADD MSTORE PUSH2 0x1112 DUP2 DUP5 PUSH2 0x10BF JUMP JUMPDEST SWAP1 POP SWAP3 SWAP2 POP POP JUMP JUMPDEST PUSH2 0x1123 DUP2 PUSH2 0xFF4 JUMP JUMPDEST DUP3 MSTORE POP POP JUMP JUMPDEST PUSH1 0x0 PUSH1 0x20 DUP3 ADD SWAP1 POP PUSH2 0x113E PUSH1 0x0 DUP4 ADD DUP5 PUSH2 0x111A JUMP JUMPDEST SWAP3 SWAP2 POP POP JUMP JUMPDEST PUSH1 0x0 DUP2 SWAP1 POP SWAP2 SWAP1 POP JUMP JUMPDEST PUSH2 0x1157 DUP2 PUSH2 0x1144 JUMP JUMPDEST DUP3 MSTORE POP POP JUMP JUMPDEST PUSH1 0x0 PUSH1 0x20 DUP3 ADD SWAP1 POP PUSH2 0x1172 PUSH1 0x0 DUP4 ADD DUP5 PUSH2 0x114E JUMP JUMPDEST SWAP3 SWAP2 POP POP JUMP JUMPDEST PUSH2 0x1181 DUP2 PUSH2 0x1144 JUMP JUMPDEST DUP2 EQ PUSH2 0x118C JUMPI PUSH1 0x0 DUP1 REVERT JUMPDEST POP JUMP JUMPDEST PUSH1 0x0 DUP2 CALLDATALOAD SWAP1 POP PUSH2 0x119E DUP2 PUSH2 0x1178 JUMP JUMPDEST SWAP3 SWAP2 POP POP JUMP JUMPDEST PUSH1 0x0 DUP1 REVERT JUMPDEST PUSH1 0x0 DUP1 REVERT JUMPDEST PUSH32 0x4E487B7100000000000000000000000000000000000000000000000000000000 PUSH1 0x0 MSTORE PUSH1 0x41 PUSH1 0x4 MSTORE PUSH1 0x24 PUSH1 0x0 REVERT JUMPDEST PUSH2 0x11E6 DUP3 PUSH2 0x10AE JUMP JUMPDEST DUP2 ADD DUP2 DUP2 LT PUSH8 0xFFFFFFFFFFFFFFFF DUP3 GT OR ISZERO PUSH2 0x1205 JUMPI PUSH2 0x1204 PUSH2 0x11AE JUMP JUMPDEST JUMPDEST DUP1 PUSH1 0x40 MSTORE POP POP POP JUMP JUMPDEST PUSH1 0x0 PUSH2 0x1218 PUSH2 0xFC0 JUMP JUMPDEST SWAP1 POP PUSH2 0x1224 DUP3 DUP3 PUSH2 0x11DD JUMP JUMPDEST SWAP2 SWAP1 POP JUMP JUMPDEST PUSH1 0x0 PUSH8 0xFFFFFFFFFFFFFFFF DUP3 GT ISZERO PUSH2 0x1244 JUMPI PUSH2 0x1243 PUSH2 0x11AE JUMP JUMPDEST JUMPDEST PUSH2 0x124D DUP3 PUSH2 0x10AE JUMP JUMPDEST SWAP1 POP PUSH1 0x20 DUP2 ADD SWAP1 POP SWAP2 SWAP1 POP JUMP JUMPDEST DUP3 DUP2 DUP4 CALLDATACOPY PUSH1 0x0 DUP4 DUP4 ADD MSTORE POP POP POP JUMP JUMPDEST PUSH1 0x0 PUSH2 0x127C PUSH2 0x1277 DUP5 PUSH2 0x1229 JUMP JUMPDEST PUSH2 0x120E JUMP JUMPDEST SWAP1 POP DUP3 DUP2 MSTORE PUSH1 0x20 DUP2 ADD DUP5 DUP5 DUP5 ADD GT ISZERO PUSH2 0x1298 JUMPI PUSH2 0x1297 PUSH2 0x11A9 JUMP JUMPDEST JUMPDEST PUSH2 0x12A3 DUP5 DUP3 DUP6 PUSH2 0x125A JUMP JUMPDEST POP SWAP4 SWAP3 POP POP POP JUMP JUMPDEST PUSH1 0x0 DUP3 PUSH1 0x1F DUP4 ADD SLT PUSH2 0x12C0 JUMPI PUSH2 0x12BF PUSH2 0x11A4 JUMP JUMPDEST JUMPDEST DUP2 CALLDATALOAD PUSH2 0x12D0 DUP5 DUP3 PUSH1 0x20 DUP7 ADD PUSH2 0x1269 JUMP JUMPDEST SWAP2 POP POP SWAP3 SWAP2 POP POP JUMP JUMPDEST PUSH1 0x0 DUP1 PUSH1 0x40 DUP4 DUP6 SUB SLT ISZERO PUSH2 0x12F0 JUMPI PUSH2 0x12EF PUSH2 0xFCA JUMP JUMPDEST JUMPDEST PUSH1 0x0 PUSH2 0x12FE DUP6 DUP3 DUP7 ADD PUSH2 0x118F JUMP JUMPDEST SWAP3 POP POP PUSH1 0x20 DUP4 ADD CALLDATALOAD PUSH8 0xFFFFFFFFFFFFFFFF DUP2 GT ISZERO PUSH2 0x131F JUMPI PUSH2 0x131E PUSH2 0xFCF JUMP JUMPDEST JUMPDEST PUSH2 0x132B DUP6 DUP3 DUP7 ADD PUSH2 0x12AB JUMP JUMPDEST SWAP2 POP POP SWAP3 POP SWAP3 SWAP1 POP JUMP JUMPDEST PUSH1 0x0 PUSH1 0x20 DUP3 DUP5 SUB SLT ISZERO PUSH2 0x134B JUMPI PUSH2 0x134A PUSH2 0xFCA JUMP JUMPDEST JUMPDEST PUSH1 0x0 PUSH2 0x1359 DUP5 DUP3 DUP6 ADD PUSH2 0x118F JUMP JUMPDEST SWAP2 POP POP SWAP3 SWAP2 POP POP JUMP JUMPDEST PUSH1 0x0 PUSH1 0x60 DUP3 ADD SWAP1 POP PUSH2 0x1377 PUSH1 0x0 DUP4 ADD DUP7 PUSH2 0x111A JUMP JUMPDEST PUSH2 0x1384 PUSH1 0x20 DUP4 ADD DUP6 PUSH2 0x114E JUMP JUMPDEST DUP2 DUP2 SUB PUSH1 0x40 DUP4 ADD MSTORE PUSH2 0x1396 DUP2 DUP5 PUSH2 0x10BF JUMP JUMPDEST SWAP1 POP SWAP5 SWAP4 POP POP POP POP JUMP JUMPDEST PUSH1 0x0 PUSH1 0x60 DUP3 ADD SWAP1 POP PUSH2 0x13B5 PUSH1 0x0 DUP4 ADD DUP7 PUSH2 0x114E JUMP JUMPDEST PUSH2 0x13C2 PUSH1 0x20 DUP4 ADD DUP6 PUSH2 0x111A JUMP JUMPDEST DUP2 DUP2 SUB PUSH1 0x40 DUP4 ADD MSTORE PUSH2 0x13D4 DUP2 DUP5 PUSH2 0x10BF JUMP JUMPDEST SWAP1 POP SWAP5 SWAP4 POP POP POP POP JUMP JUMPDEST PUSH1 0x0 PUSH1 0x20 DUP3 DUP5 SUB SLT ISZERO PUSH2 0x13F4 JUMPI PUSH2 0x13F3 PUSH2 0xFCA JUMP JUMPDEST JUMPDEST PUSH1 0x0 DUP3 ADD CALLDATALOAD PUSH8 0xFFFFFFFFFFFFFFFF DUP2 GT ISZERO PUSH2 0x1412 JUMPI PUSH2 0x1411 PUSH2 0xFCF JUMP JUMPDEST JUMPDEST PUSH2 0x141E DUP5 DUP3 DUP6 ADD PUSH2 0x12AB JUMP JUMPDEST SWAP2 POP POP SWAP3 SWAP2 POP POP JUMP JUMPDEST PUSH1 0x0 DUP1 PUSH1 0x0 PUSH1 0x60 DUP5 DUP7 SUB SLT ISZERO PUSH2 0x1440 JUMPI PUSH2 0x143F PUSH2 0xFCA JUMP JUMPDEST JUMPDEST PUSH1 0x0 DUP5 ADD CALLDATALOAD PUSH8 0xFFFFFFFFFFFFFFFF DUP2 GT ISZERO PUSH2 0x145E JUMPI PUSH2 0x145D PUSH2 0xFCF JUMP JUMPDEST JUMPDEST PUSH2 0x146A DUP7 DUP3 DUP8 ADD PUSH2 0x12AB JUMP JUMPDEST SWAP4 POP POP PUSH1 0x20 PUSH2 0x147B DUP7 DUP3 DUP8 ADD PUSH2 0x118F JUMP JUMPDEST SWAP3 POP POP PUSH1 0x40 PUSH2 0x148C DUP7 DUP3 DUP8 ADD PUSH2 0x118F JUMP JUMPDEST SWAP2 POP POP SWAP3 POP SWAP3 POP SWAP3 JUMP JUMPDEST PUSH32 0x4E487B7100000000000000000000000000000000000000000000000000000000 PUSH1 0x0 MSTORE PUSH1 0x22 PUSH1 0x4 MSTORE PUSH1 0x24 PUSH1 0x0 REVERT JUMPDEST PUSH1 0x0 PUSH1 0x2 DUP3 DIV SWAP1 POP PUSH1 0x1 DUP3 AND DUP1 PUSH2 0x14DD JUMPI PUSH1 0x7F DUP3 AND SWAP2 POP JUMPDEST PUSH1 0x20 DUP3 LT DUP2 SUB PUSH2 0x14F0 JUMPI PUSH2 0x14EF PUSH2 0x1496 JUMP JUMPDEST JUMPDEST POP SWAP2 SWAP1 POP JUMP JUMPDEST PUSH32 0x4E487B7100000000000000000000000000000000000000000000000000000000 PUSH1 0x0 MSTORE PUSH1 0x32 PUSH1 0x4 MSTORE PUSH1 0x24 PUSH1 0x0 REVERT JUMPDEST PUSH32 0x4E487B7100000000000000000000000000000000000000000000000000000000 PUSH1 0x0 MSTORE PUSH1 0x11 PUSH1 0x4 MSTORE PUSH1 0x24 PUSH1 0x0 REVERT JUMPDEST PUSH1 0x0 PUSH2 0x155F DUP3 PUSH2 0x1144 JUMP JUMPDEST SWAP2 POP PUSH2 0x156A DUP4 PUSH2 0x1144 JUMP JUMPDEST SWAP3 POP DUP3 PUSH32 0xFFFFFFFFFFFFFFFFFFFFFFFFFFFFFFFFFFFFFFFFFFFFFFFFFFFFFFFFFFFFFFFF SUB DUP3 GT ISZERO PUSH2 0x159F JUMPI PUSH2 0x159E PUSH2 0x1525 JUMP JUMPDEST JUMPDEST DUP3 DUP3 ADD SWAP1 POP SWAP3 SWAP2 POP POP JUMP JUMPDEST PUSH32 0x4F6E6C792061756374696F6E6565722063616E2063616C6C2074686973206675 PUSH1 0x0 DUP3 ADD MSTORE PUSH32 0x6E6374696F6E2E00000000000000000000000000000000000000000000000000 PUSH1 0x20 DUP3 ADD MSTORE POP JUMP JUMPDEST PUSH1 0x0 PUSH2 0x1606 PUSH1 0x27 DUP4 PUSH2 0x106A JUMP JUMPDEST SWAP2 POP PUSH2 0x1611 DUP3 PUSH2 0x15AA JUMP JUMPDEST PUSH1 0x40 DUP3 ADD SWAP1 POP SWAP2 SWAP1 POP JUMP JUMPDEST PUSH1 0x0 PUSH1 0x20 DUP3 ADD SWAP1 POP DUP2 DUP2 SUB PUSH1 0x0 DUP4 ADD MSTORE PUSH2 0x1635 DUP2 PUSH2 0x15F9 JUMP JUMPDEST SWAP1 POP SWAP2 SWAP1 POP JUMP INVALID LOG2 PUSH5 0x6970667358 0x22 SLT KECCAK256 0xD2 EXTCODEHASH KECCAK256 SWAP5 PUSH11 0x81C9F186A78C1959D2163F EQ 0xC9 0x5F SHR 0xC5 0xB2 0xA8 LOG0 SWAP8 0x2D DELEGATECALL 0xA5 0xBA 0xAF SWAP9 DUP5 PUSH5 0x736F6C6343 STOP ADDMOD 0xE STOP CALLER "
				},
				"gasEstimates": {
					"creation": {
						"codeDepositCost": "1149200",
						"executionCost": "1194",
						"totalCost": "1150394"
					},
					"external": {
						"assetDescription()": "infinite",
						"bidders(uint256)": "5089",
						"dispute(uint256,string)": "infinite",
						"disputedBidders(uint256)": "infinite",
						"encodedBids(address)": "infinite",
						"getBidderAddress(uint256)": "5034",
						"getEncodedBid(address)": "infinite",
						"getSampleString()": "infinite",
						"getWinner()": "infinite",
						"getWinnerAddress()": "2568",
						"getWinnerBid()": "2548",
						"getwinnerNonce()": "infinite",
						"minBidPrice()": "2541",
						"minNumberOfBidders()": "2473",
						"registerAuctionInfo(string,uint256,uint256)": "infinite",
						"registerBidder()": "48854",
						"reset()": "infinite",
						"resetEncodedBids()": "infinite",
						"submitEncodedBid(string)": "infinite",
						"submitWinner(uint256,string)": "infinite",
						"winnerAddress()": "2624",
						"winnerBid()": "2497",
						"winnerNonce()": "infinite"
					}
				},
				"methodIdentifiers": {
					"assetDescription()": "938626c2",
					"bidders(uint256)": "cff29dfd",
					"dispute(uint256,string)": "66c85dee",
					"disputedBidders(uint256)": "8f772f96",
					"encodedBids(address)": "3817df4c",
					"getBidderAddress(uint256)": "5fa38280",
					"getEncodedBid(address)": "05fb23cf",
					"getSampleString()": "83050daa",
					"getWinner()": "8e7ea5b2",
					"getWinnerAddress()": "10a37c26",
					"getWinnerBid()": "ceb98f6e",
					"getwinnerNonce()": "c8bca732",
					"minBidPrice()": "34eb86a2",
					"minNumberOfBidders()": "daa0218f",
					"registerAuctionInfo(string,uint256,uint256)": "e7d2a997",
					"registerBidder()": "f356733c",
					"reset()": "d826f88f",
					"resetEncodedBids()": "40bd5937",
					"submitEncodedBid(string)": "ca142b56",
					"submitWinner(uint256,string)": "1744e03b",
					"winnerAddress()": "ed7a4e0b",
					"winnerBid()": "11631d06",
					"winnerNonce()": "dca49f4a"
				}
			},
			"storageLayout": {
				"storage": [
					{
						"astId": 3,
						"contract": "Contracts/AKEB.sol:AKEB",
						"label": "auctioneer",
						"offset": 0,
						"slot": "0",
						"type": "t_address"
					},
					{
						"astId": 6,
						"contract": "Contracts/AKEB.sol:AKEB",
						"label": "bidders",
						"offset": 0,
						"slot": "1",
						"type": "t_array(t_address)dyn_storage"
					},
					{
						"astId": 8,
						"contract": "Contracts/AKEB.sol:AKEB",
						"label": "assetDescription",
						"offset": 0,
						"slot": "2",
						"type": "t_string_storage"
					},
					{
						"astId": 10,
						"contract": "Contracts/AKEB.sol:AKEB",
						"label": "minBidPrice",
						"offset": 0,
						"slot": "3",
						"type": "t_uint256"
					},
					{
						"astId": 12,
						"contract": "Contracts/AKEB.sol:AKEB",
						"label": "minNumberOfBidders",
						"offset": 0,
						"slot": "4",
						"type": "t_uint256"
					},
					{
						"astId": 16,
						"contract": "Contracts/AKEB.sol:AKEB",
						"label": "encodedBids",
						"offset": 0,
						"slot": "5",
						"type": "t_mapping(t_address,t_string_storage)"
					},
					{
						"astId": 18,
						"contract": "Contracts/AKEB.sol:AKEB",
						"label": "winnerAddress",
						"offset": 0,
						"slot": "6",
						"type": "t_address"
					},
					{
						"astId": 20,
						"contract": "Contracts/AKEB.sol:AKEB",
						"label": "winnerBid",
						"offset": 0,
						"slot": "7",
						"type": "t_uint256"
					},
					{
						"astId": 22,
						"contract": "Contracts/AKEB.sol:AKEB",
						"label": "winnerNonce",
						"offset": 0,
						"slot": "8",
						"type": "t_string_storage"
					},
					{
						"astId": 33,
						"contract": "Contracts/AKEB.sol:AKEB",
						"label": "disputedBidders",
						"offset": 0,
						"slot": "9",
						"type": "t_array(t_struct(DisputedBidders)29_storage)dyn_storage"
					}
				],
				"types": {
					"t_address": {
						"encoding": "inplace",
						"label": "address",
						"numberOfBytes": "20"
					},
					"t_array(t_address)dyn_storage": {
						"base": "t_address",
						"encoding": "dynamic_array",
						"label": "address[]",
						"numberOfBytes": "32"
					},
					"t_array(t_struct(DisputedBidders)29_storage)dyn_storage": {
						"base": "t_struct(DisputedBidders)29_storage",
						"encoding": "dynamic_array",
						"label": "struct AKEB.DisputedBidders[]",
						"numberOfBytes": "32"
					},
					"t_mapping(t_address,t_string_storage)": {
						"encoding": "mapping",
						"key": "t_address",
						"label": "mapping(address => string)",
						"numberOfBytes": "32",
						"value": "t_string_storage"
					},
					"t_string_storage": {
						"encoding": "bytes",
						"label": "string",
						"numberOfBytes": "32"
					},
					"t_struct(DisputedBidders)29_storage": {
						"encoding": "inplace",
						"label": "struct AKEB.DisputedBidders",
						"members": [
							{
								"astId": 24,
								"contract": "Contracts/AKEB.sol:AKEB",
								"label": "bid",
								"offset": 0,
								"slot": "0",
								"type": "t_uint256"
							},
							{
								"astId": 26,
								"contract": "Contracts/AKEB.sol:AKEB",
								"label": "disputeAddress",
								"offset": 0,
								"slot": "1",
								"type": "t_address"
							},
							{
								"astId": 28,
								"contract": "Contracts/AKEB.sol:AKEB",
								"label": "nonce",
								"offset": 0,
								"slot": "2",
								"type": "t_string_storage"
							}
						],
						"numberOfBytes": "96"
					},
					"t_uint256": {
						"encoding": "inplace",
						"label": "uint256",
						"numberOfBytes": "32"
					}
				}
			},
			"userdoc": {
				"kind": "user",
				"methods": {},
				"version": 1
			}
		}
	}
}