{
	"Contracts/AKEB.sol": {
		"AKEB": {
			"abi": [
				{
					"inputs": [],
					"stateMutability": "nonpayable",
					"type": "constructor"
				},
				{
					"inputs": [],
					"name": "assetDescription",
					"outputs": [
						{
							"internalType": "string",
							"name": "",
							"type": "string"
						}
					],
					"stateMutability": "view",
					"type": "function"
				},
				{
					"inputs": [
						{
							"internalType": "uint256",
							"name": "",
							"type": "uint256"
						}
					],
					"name": "bidders",
					"outputs": [
						{
							"internalType": "address",
							"name": "",
							"type": "address"
						}
					],
					"stateMutability": "view",
					"type": "function"
				},
				{
					"inputs": [
						{
							"internalType": "address",
							"name": "",
							"type": "address"
						}
					],
					"name": "encryptedBids",
					"outputs": [
						{
							"internalType": "string",
							"name": "",
							"type": "string"
						}
					],
					"stateMutability": "view",
					"type": "function"
				},
				{
					"inputs": [],
					"name": "getMyPublicKey",
					"outputs": [
						{
							"internalType": "string",
							"name": "",
							"type": "string"
						}
					],
					"stateMutability": "view",
					"type": "function"
				},
				{
					"inputs": [],
					"name": "minBidPrice",
					"outputs": [
						{
							"internalType": "uint256",
							"name": "",
							"type": "uint256"
						}
					],
					"stateMutability": "view",
					"type": "function"
				},
				{
					"inputs": [],
					"name": "minNumberOfBidders",
					"outputs": [
						{
							"internalType": "uint256",
							"name": "",
							"type": "uint256"
						}
					],
					"stateMutability": "view",
					"type": "function"
				},
				{
					"inputs": [
						{
							"internalType": "address",
							"name": "",
							"type": "address"
						}
					],
					"name": "publicKeys",
					"outputs": [
						{
							"internalType": "string",
							"name": "",
							"type": "string"
						}
					],
					"stateMutability": "view",
					"type": "function"
				},
				{
					"inputs": [
						{
							"internalType": "string",
							"name": "assetDescriptionInput",
							"type": "string"
						},
						{
							"internalType": "uint256",
							"name": "minBidPriceInput",
							"type": "uint256"
						},
						{
							"internalType": "uint256",
							"name": "minNumberOfBiddersInput",
							"type": "uint256"
						}
					],
					"name": "registerAuctionInfo",
					"outputs": [],
					"stateMutability": "nonpayable",
					"type": "function"
				},
				{
					"inputs": [],
					"name": "registerBidder",
					"outputs": [],
					"stateMutability": "nonpayable",
					"type": "function"
				},
				{
					"inputs": [
						{
							"internalType": "string",
							"name": "inputEncryptedBid",
							"type": "string"
						}
					],
					"name": "submitEncryptedBid",
					"outputs": [],
					"stateMutability": "nonpayable",
					"type": "function"
				},
				{
					"inputs": [
						{
							"internalType": "address",
							"name": "inputAddress",
							"type": "address"
						},
						{
							"internalType": "string",
							"name": "inputPublicKey",
							"type": "string"
						}
					],
					"name": "submitPublicKeys",
					"outputs": [],
					"stateMutability": "nonpayable",
					"type": "function"
				},
				{
					"inputs": [
						{
							"internalType": "address",
							"name": "inputWinnerAddress",
							"type": "address"
						},
						{
							"internalType": "uint256",
							"name": "inputWinnerBid",
							"type": "uint256"
						},
						{
							"internalType": "string",
							"name": "inputWinnerPrivateKey",
							"type": "string"
						}
					],
					"name": "submitWinner",
					"outputs": [],
					"stateMutability": "nonpayable",
					"type": "function"
				}
			],
			"devdoc": {
				"kind": "dev",
				"methods": {},
				"version": 1
			},
			"evm": {
				"assembly": "    /* \"Contracts/AKEB.sol\":58:1897  contract AKEB {... */\n  mstore(0x40, 0x80)\n    /* \"Contracts/AKEB.sol\":424:482  constructor()... */\n  callvalue\n  dup1\n  iszero\n  tag_1\n  jumpi\n  0x00\n  dup1\n  revert\ntag_1:\n  pop\n    /* \"Contracts/AKEB.sol\":465:475  msg.sender */\n  caller\n    /* \"Contracts/AKEB.sol\":452:462  auctioneer */\n  0x00\n  dup1\n    /* \"Contracts/AKEB.sol\":452:475  auctioneer = msg.sender */\n  0x0100\n  exp\n  dup2\n  sload\n  dup2\n  0xffffffffffffffffffffffffffffffffffffffff\n  mul\n  not\n  and\n  swap1\n  dup4\n  0xffffffffffffffffffffffffffffffffffffffff\n  and\n  mul\n  or\n  swap1\n  sstore\n  pop\n    /* \"Contracts/AKEB.sol\":58:1897  contract AKEB {... */\n  dataSize(sub_0)\n  dup1\n  dataOffset(sub_0)\n  0x00\n  codecopy\n  0x00\n  return\nstop\n\nsub_0: assembly {\n        /* \"Contracts/AKEB.sol\":58:1897  contract AKEB {... */\n      mstore(0x40, 0x80)\n      callvalue\n      dup1\n      iszero\n      tag_1\n      jumpi\n      0x00\n      dup1\n      revert\n    tag_1:\n      pop\n      jumpi(tag_2, lt(calldatasize, 0x04))\n      shr(0xe0, calldataload(0x00))\n      dup1\n      0xa3d6f9a9\n      gt\n      tag_15\n      jumpi\n      dup1\n      0xa3d6f9a9\n      eq\n      tag_9\n      jumpi\n      dup1\n      0xcff29dfd\n      eq\n      tag_10\n      jumpi\n      dup1\n      0xdaa0218f\n      eq\n      tag_11\n      jumpi\n      dup1\n      0xe7d2a997\n      eq\n      tag_12\n      jumpi\n      dup1\n      0xf356733c\n      eq\n      tag_13\n      jumpi\n      dup1\n      0xff567d8d\n      eq\n      tag_14\n      jumpi\n      jump(tag_2)\n    tag_15:\n      dup1\n      0x0f3f02b2\n      eq\n      tag_3\n      jumpi\n      dup1\n      0x34eb86a2\n      eq\n      tag_4\n      jumpi\n      dup1\n      0x7d441a6f\n      eq\n      tag_5\n      jumpi\n      dup1\n      0x8226ed38\n      eq\n      tag_6\n      jumpi\n      dup1\n      0x86b8c34c\n      eq\n      tag_7\n      jumpi\n      dup1\n      0x938626c2\n      eq\n      tag_8\n      jumpi\n    tag_2:\n      0x00\n      dup1\n      revert\n        /* \"Contracts/AKEB.sol\":290:337  mapping(address => string) public encryptedBids */\n    tag_3:\n      tag_16\n      0x04\n      dup1\n      calldatasize\n      sub\n      dup2\n      add\n      swap1\n      tag_17\n      swap2\n      swap1\n      tag_18\n      jump\t// in\n    tag_17:\n      tag_19\n      jump\t// in\n    tag_16:\n      mload(0x40)\n      tag_20\n      swap2\n      swap1\n      tag_21\n      jump\t// in\n    tag_20:\n      mload(0x40)\n      dup1\n      swap2\n      sub\n      swap1\n      return\n        /* \"Contracts/AKEB.sol\":168:194  uint256 public minBidPrice */\n    tag_4:\n      tag_22\n      tag_23\n      jump\t// in\n    tag_22:\n      mload(0x40)\n      tag_24\n      swap2\n      swap1\n      tag_25\n      jump\t// in\n    tag_24:\n      mload(0x40)\n      dup1\n      swap2\n      sub\n      swap1\n      return\n        /* \"Contracts/AKEB.sol\":1187:1329  function submitPublicKeys(address inputAddress, string memory inputPublicKey) public{... */\n    tag_5:\n      tag_26\n      0x04\n      dup1\n      calldatasize\n      sub\n      dup2\n      add\n      swap1\n      tag_27\n      swap2\n      swap1\n      tag_28\n      jump\t// in\n    tag_27:\n      tag_29\n      jump\t// in\n    tag_26:\n      stop\n        /* \"Contracts/AKEB.sol\":1636:1895  function submitWinner(address inputWinnerAddress, uint256 inputWinnerBid, ... */\n    tag_6:\n      tag_30\n      0x04\n      dup1\n      calldatasize\n      sub\n      dup2\n      add\n      swap1\n      tag_31\n      swap2\n      swap1\n      tag_32\n      jump\t// in\n    tag_31:\n      tag_33\n      jump\t// in\n    tag_30:\n      stop\n        /* \"Contracts/AKEB.sol\":1335:1471  function getMyPublicKey() public view assertOnlyBidders() ... */\n    tag_7:\n      tag_34\n      tag_35\n      jump\t// in\n    tag_34:\n      mload(0x40)\n      tag_36\n      swap2\n      swap1\n      tag_21\n      jump\t// in\n    tag_36:\n      mload(0x40)\n      dup1\n      swap2\n      sub\n      swap1\n      return\n        /* \"Contracts/AKEB.sol\":132:162  string public assetDescription */\n    tag_8:\n      tag_37\n      tag_38\n      jump\t// in\n    tag_37:\n      mload(0x40)\n      tag_39\n      swap2\n      swap1\n      tag_21\n      jump\t// in\n    tag_39:\n      mload(0x40)\n      dup1\n      swap2\n      sub\n      swap1\n      return\n        /* \"Contracts/AKEB.sol\":240:284  mapping(address => string) public publicKeys */\n    tag_9:\n      tag_40\n      0x04\n      dup1\n      calldatasize\n      sub\n      dup2\n      add\n      swap1\n      tag_41\n      swap2\n      swap1\n      tag_18\n      jump\t// in\n    tag_41:\n      tag_42\n      jump\t// in\n    tag_40:\n      mload(0x40)\n      tag_43\n      swap2\n      swap1\n      tag_21\n      jump\t// in\n    tag_43:\n      mload(0x40)\n      dup1\n      swap2\n      sub\n      swap1\n      return\n        /* \"Contracts/AKEB.sol\":102:126  address[] public bidders */\n    tag_10:\n      tag_44\n      0x04\n      dup1\n      calldatasize\n      sub\n      dup2\n      add\n      swap1\n      tag_45\n      swap2\n      swap1\n      tag_46\n      jump\t// in\n    tag_45:\n      tag_47\n      jump\t// in\n    tag_44:\n      mload(0x40)\n      tag_48\n      swap2\n      swap1\n      tag_49\n      jump\t// in\n    tag_48:\n      mload(0x40)\n      dup1\n      swap2\n      sub\n      swap1\n      return\n        /* \"Contracts/AKEB.sol\":200:233  uint256 public minNumberOfBidders */\n    tag_11:\n      tag_50\n      tag_51\n      jump\t// in\n    tag_50:\n      mload(0x40)\n      tag_52\n      swap2\n      swap1\n      tag_25\n      jump\t// in\n    tag_52:\n      mload(0x40)\n      dup1\n      swap2\n      sub\n      swap1\n      return\n        /* \"Contracts/AKEB.sol\":761:1081  function registerAuctionInfo(string memory assetDescriptionInput, ... */\n    tag_12:\n      tag_53\n      0x04\n      dup1\n      calldatasize\n      sub\n      dup2\n      add\n      swap1\n      tag_54\n      swap2\n      swap1\n      tag_55\n      jump\t// in\n    tag_54:\n      tag_56\n      jump\t// in\n    tag_53:\n      stop\n        /* \"Contracts/AKEB.sol\":1087:1181  function registerBidder() public assertOnlyBidders() {... */\n    tag_13:\n      tag_57\n      tag_58\n      jump\t// in\n    tag_57:\n      stop\n        /* \"Contracts/AKEB.sol\":1477:1630  function submitEncryptedBid(string memory inputEncryptedBid)... */\n    tag_14:\n      tag_59\n      0x04\n      dup1\n      calldatasize\n      sub\n      dup2\n      add\n      swap1\n      tag_60\n      swap2\n      swap1\n      tag_61\n      jump\t// in\n    tag_60:\n      tag_62\n      jump\t// in\n    tag_59:\n      stop\n        /* \"Contracts/AKEB.sol\":290:337  mapping(address => string) public encryptedBids */\n    tag_19:\n      mstore(0x20, 0x06)\n      dup1\n      0x00\n      mstore\n      keccak256(0x00, 0x40)\n      0x00\n      swap2\n      pop\n      swap1\n      pop\n      dup1\n      sload\n      tag_63\n      swap1\n      tag_64\n      jump\t// in\n    tag_63:\n      dup1\n      0x1f\n      add\n      0x20\n      dup1\n      swap2\n      div\n      mul\n      0x20\n      add\n      mload(0x40)\n      swap1\n      dup2\n      add\n      0x40\n      mstore\n      dup1\n      swap3\n      swap2\n      swap1\n      dup2\n      dup2\n      mstore\n      0x20\n      add\n      dup3\n      dup1\n      sload\n      tag_65\n      swap1\n      tag_64\n      jump\t// in\n    tag_65:\n      dup1\n      iszero\n      tag_66\n      jumpi\n      dup1\n      0x1f\n      lt\n      tag_67\n      jumpi\n      0x0100\n      dup1\n      dup4\n      sload\n      div\n      mul\n      dup4\n      mstore\n      swap2\n      0x20\n      add\n      swap2\n      jump(tag_66)\n    tag_67:\n      dup3\n      add\n      swap2\n      swap1\n      0x00\n      mstore\n      keccak256(0x00, 0x20)\n      swap1\n    tag_68:\n      dup2\n      sload\n      dup2\n      mstore\n      swap1\n      0x01\n      add\n      swap1\n      0x20\n      add\n      dup1\n      dup4\n      gt\n      tag_68\n      jumpi\n      dup3\n      swap1\n      sub\n      0x1f\n      and\n      dup3\n      add\n      swap2\n    tag_66:\n      pop\n      pop\n      pop\n      pop\n      pop\n      dup2\n      jump\t// out\n        /* \"Contracts/AKEB.sol\":168:194  uint256 public minBidPrice */\n    tag_23:\n      sload(0x03)\n      dup2\n      jump\t// out\n        /* \"Contracts/AKEB.sol\":1187:1329  function submitPublicKeys(address inputAddress, string memory inputPublicKey) public{... */\n    tag_29:\n        /* \"Contracts/AKEB.sol\":1308:1322  inputPublicKey */\n      dup1\n        /* \"Contracts/AKEB.sol\":1281:1291  publicKeys */\n      0x05\n        /* \"Contracts/AKEB.sol\":1281:1305  publicKeys[inputAddress] */\n      0x00\n        /* \"Contracts/AKEB.sol\":1292:1304  inputAddress */\n      dup5\n        /* \"Contracts/AKEB.sol\":1281:1305  publicKeys[inputAddress] */\n      0xffffffffffffffffffffffffffffffffffffffff\n      and\n      0xffffffffffffffffffffffffffffffffffffffff\n      and\n      dup2\n      mstore\n      0x20\n      add\n      swap1\n      dup2\n      mstore\n      0x20\n      add\n      0x00\n      keccak256\n        /* \"Contracts/AKEB.sol\":1281:1322  publicKeys[inputAddress] = inputPublicKey */\n      swap1\n      dup1\n      mload\n      swap1\n      0x20\n      add\n      swap1\n      tag_70\n      swap3\n      swap2\n      swap1\n      tag_71\n      jump\t// in\n    tag_70:\n      pop\n        /* \"Contracts/AKEB.sol\":1187:1329  function submitPublicKeys(address inputAddress, string memory inputPublicKey) public{... */\n      pop\n      pop\n      jump\t// out\n        /* \"Contracts/AKEB.sol\":1636:1895  function submitWinner(address inputWinnerAddress, uint256 inputWinnerBid, ... */\n    tag_33:\n        /* \"Contracts/AKEB.sol\":1784:1802  inputWinnerAddress */\n      dup3\n        /* \"Contracts/AKEB.sol\":1768:1781  winnerAddress */\n      0x07\n      0x00\n        /* \"Contracts/AKEB.sol\":1768:1802  winnerAddress = inputWinnerAddress */\n      0x0100\n      exp\n      dup2\n      sload\n      dup2\n      0xffffffffffffffffffffffffffffffffffffffff\n      mul\n      not\n      and\n      swap1\n      dup4\n      0xffffffffffffffffffffffffffffffffffffffff\n      and\n      mul\n      or\n      swap1\n      sstore\n      pop\n        /* \"Contracts/AKEB.sol\":1824:1838  inputWinnerBid */\n      dup2\n        /* \"Contracts/AKEB.sol\":1812:1821  winnerBid */\n      0x08\n        /* \"Contracts/AKEB.sol\":1812:1838  winnerBid = inputWinnerBid */\n      dup2\n      swap1\n      sstore\n      pop\n        /* \"Contracts/AKEB.sol\":1867:1888  inputWinnerPrivateKey */\n      dup1\n        /* \"Contracts/AKEB.sol\":1848:1864  winnerPrivateKey */\n      0x09\n        /* \"Contracts/AKEB.sol\":1848:1888  winnerPrivateKey = inputWinnerPrivateKey */\n      swap1\n      dup1\n      mload\n      swap1\n      0x20\n      add\n      swap1\n      tag_73\n      swap3\n      swap2\n      swap1\n      tag_71\n      jump\t// in\n    tag_73:\n      pop\n        /* \"Contracts/AKEB.sol\":1636:1895  function submitWinner(address inputWinnerAddress, uint256 inputWinnerBid, ... */\n      pop\n      pop\n      pop\n      jump\t// out\n        /* \"Contracts/AKEB.sol\":1335:1471  function getMyPublicKey() public view assertOnlyBidders() ... */\n    tag_35:\n        /* \"Contracts/AKEB.sol\":1406:1419  string memory */\n      0x60\n        /* \"Contracts/AKEB.sol\":682:692  auctioneer */\n      0x00\n      dup1\n      sload\n      swap1\n      0x0100\n      exp\n      swap1\n      div\n      0xffffffffffffffffffffffffffffffffffffffff\n      and\n        /* \"Contracts/AKEB.sol\":668:692  msg.sender != auctioneer */\n      0xffffffffffffffffffffffffffffffffffffffff\n      and\n        /* \"Contracts/AKEB.sol\":668:678  msg.sender */\n      caller\n        /* \"Contracts/AKEB.sol\":668:692  msg.sender != auctioneer */\n      0xffffffffffffffffffffffffffffffffffffffff\n      and\n      sub\n        /* \"Contracts/AKEB.sol\":660:746  require(msg.sender != auctioneer, \"Auctioneer is not allowed to register as a bidder\") */\n      tag_75\n      jumpi\n      mload(0x40)\n      0x08c379a000000000000000000000000000000000000000000000000000000000\n      dup2\n      mstore\n      0x04\n      add\n      tag_76\n      swap1\n      tag_77\n      jump\t// in\n    tag_76:\n      mload(0x40)\n      dup1\n      swap2\n      sub\n      swap1\n      revert\n    tag_75:\n        /* \"Contracts/AKEB.sol\":1442:1452  publicKeys */\n      0x05\n        /* \"Contracts/AKEB.sol\":1442:1464  publicKeys[msg.sender] */\n      0x00\n        /* \"Contracts/AKEB.sol\":1453:1463  msg.sender */\n      caller\n        /* \"Contracts/AKEB.sol\":1442:1464  publicKeys[msg.sender] */\n      0xffffffffffffffffffffffffffffffffffffffff\n      and\n      0xffffffffffffffffffffffffffffffffffffffff\n      and\n      dup2\n      mstore\n      0x20\n      add\n      swap1\n      dup2\n      mstore\n      0x20\n      add\n      0x00\n      keccak256\n        /* \"Contracts/AKEB.sol\":1435:1464  return publicKeys[msg.sender] */\n      dup1\n      sload\n      tag_79\n      swap1\n      tag_64\n      jump\t// in\n    tag_79:\n      dup1\n      0x1f\n      add\n      0x20\n      dup1\n      swap2\n      div\n      mul\n      0x20\n      add\n      mload(0x40)\n      swap1\n      dup2\n      add\n      0x40\n      mstore\n      dup1\n      swap3\n      swap2\n      swap1\n      dup2\n      dup2\n      mstore\n      0x20\n      add\n      dup3\n      dup1\n      sload\n      tag_80\n      swap1\n      tag_64\n      jump\t// in\n    tag_80:\n      dup1\n      iszero\n      tag_81\n      jumpi\n      dup1\n      0x1f\n      lt\n      tag_82\n      jumpi\n      0x0100\n      dup1\n      dup4\n      sload\n      div\n      mul\n      dup4\n      mstore\n      swap2\n      0x20\n      add\n      swap2\n      jump(tag_81)\n    tag_82:\n      dup3\n      add\n      swap2\n      swap1\n      0x00\n      mstore\n      keccak256(0x00, 0x20)\n      swap1\n    tag_83:\n      dup2\n      sload\n      dup2\n      mstore\n      swap1\n      0x01\n      add\n      swap1\n      0x20\n      add\n      dup1\n      dup4\n      gt\n      tag_83\n      jumpi\n      dup3\n      swap1\n      sub\n      0x1f\n      and\n      dup3\n      add\n      swap2\n    tag_81:\n      pop\n      pop\n      pop\n      pop\n      pop\n      swap1\n      pop\n        /* \"Contracts/AKEB.sol\":1335:1471  function getMyPublicKey() public view assertOnlyBidders() ... */\n      swap1\n      jump\t// out\n        /* \"Contracts/AKEB.sol\":132:162  string public assetDescription */\n    tag_38:\n      0x02\n      dup1\n      sload\n      tag_84\n      swap1\n      tag_64\n      jump\t// in\n    tag_84:\n      dup1\n      0x1f\n      add\n      0x20\n      dup1\n      swap2\n      div\n      mul\n      0x20\n      add\n      mload(0x40)\n      swap1\n      dup2\n      add\n      0x40\n      mstore\n      dup1\n      swap3\n      swap2\n      swap1\n      dup2\n      dup2\n      mstore\n      0x20\n      add\n      dup3\n      dup1\n      sload\n      tag_85\n      swap1\n      tag_64\n      jump\t// in\n    tag_85:\n      dup1\n      iszero\n      tag_86\n      jumpi\n      dup1\n      0x1f\n      lt\n      tag_87\n      jumpi\n      0x0100\n      dup1\n      dup4\n      sload\n      div\n      mul\n      dup4\n      mstore\n      swap2\n      0x20\n      add\n      swap2\n      jump(tag_86)\n    tag_87:\n      dup3\n      add\n      swap2\n      swap1\n      0x00\n      mstore\n      keccak256(0x00, 0x20)\n      swap1\n    tag_88:\n      dup2\n      sload\n      dup2\n      mstore\n      swap1\n      0x01\n      add\n      swap1\n      0x20\n      add\n      dup1\n      dup4\n      gt\n      tag_88\n      jumpi\n      dup3\n      swap1\n      sub\n      0x1f\n      and\n      dup3\n      add\n      swap2\n    tag_86:\n      pop\n      pop\n      pop\n      pop\n      pop\n      dup2\n      jump\t// out\n        /* \"Contracts/AKEB.sol\":240:284  mapping(address => string) public publicKeys */\n    tag_42:\n      mstore(0x20, 0x05)\n      dup1\n      0x00\n      mstore\n      keccak256(0x00, 0x40)\n      0x00\n      swap2\n      pop\n      swap1\n      pop\n      dup1\n      sload\n      tag_89\n      swap1\n      tag_64\n      jump\t// in\n    tag_89:\n      dup1\n      0x1f\n      add\n      0x20\n      dup1\n      swap2\n      div\n      mul\n      0x20\n      add\n      mload(0x40)\n      swap1\n      dup2\n      add\n      0x40\n      mstore\n      dup1\n      swap3\n      swap2\n      swap1\n      dup2\n      dup2\n      mstore\n      0x20\n      add\n      dup3\n      dup1\n      sload\n      tag_90\n      swap1\n      tag_64\n      jump\t// in\n    tag_90:\n      dup1\n      iszero\n      tag_91\n      jumpi\n      dup1\n      0x1f\n      lt\n      tag_92\n      jumpi\n      0x0100\n      dup1\n      dup4\n      sload\n      div\n      mul\n      dup4\n      mstore\n      swap2\n      0x20\n      add\n      swap2\n      jump(tag_91)\n    tag_92:\n      dup3\n      add\n      swap2\n      swap1\n      0x00\n      mstore\n      keccak256(0x00, 0x20)\n      swap1\n    tag_93:\n      dup2\n      sload\n      dup2\n      mstore\n      swap1\n      0x01\n      add\n      swap1\n      0x20\n      add\n      dup1\n      dup4\n      gt\n      tag_93\n      jumpi\n      dup3\n      swap1\n      sub\n      0x1f\n      and\n      dup3\n      add\n      swap2\n    tag_91:\n      pop\n      pop\n      pop\n      pop\n      pop\n      dup2\n      jump\t// out\n        /* \"Contracts/AKEB.sol\":102:126  address[] public bidders */\n    tag_47:\n      0x01\n      dup2\n      dup2\n      sload\n      dup2\n      lt\n      tag_94\n      jumpi\n      0x00\n      dup1\n      revert\n    tag_94:\n      swap1\n      0x00\n      mstore\n      keccak256(0x00, 0x20)\n      add\n      0x00\n      swap2\n      pop\n      sload\n      swap1\n      0x0100\n      exp\n      swap1\n      div\n      0xffffffffffffffffffffffffffffffffffffffff\n      and\n      dup2\n      jump\t// out\n        /* \"Contracts/AKEB.sol\":200:233  uint256 public minNumberOfBidders */\n    tag_51:\n      sload(0x04)\n      dup2\n      jump\t// out\n        /* \"Contracts/AKEB.sol\":761:1081  function registerAuctionInfo(string memory assetDescriptionInput, ... */\n    tag_56:\n        /* \"Contracts/AKEB.sol\":552:562  auctioneer */\n      0x00\n      dup1\n      sload\n      swap1\n      0x0100\n      exp\n      swap1\n      div\n      0xffffffffffffffffffffffffffffffffffffffff\n      and\n        /* \"Contracts/AKEB.sol\":538:562  msg.sender == auctioneer */\n      0xffffffffffffffffffffffffffffffffffffffff\n      and\n        /* \"Contracts/AKEB.sol\":538:548  msg.sender */\n      caller\n        /* \"Contracts/AKEB.sol\":538:562  msg.sender == auctioneer */\n      0xffffffffffffffffffffffffffffffffffffffff\n      and\n      eq\n        /* \"Contracts/AKEB.sol\":530:606  require(msg.sender == auctioneer, \"Only auctioneer can call this function.\") */\n      tag_97\n      jumpi\n      mload(0x40)\n      0x08c379a000000000000000000000000000000000000000000000000000000000\n      dup2\n      mstore\n      0x04\n      add\n      tag_98\n      swap1\n      tag_99\n      jump\t// in\n    tag_98:\n      mload(0x40)\n      dup1\n      swap2\n      sub\n      swap1\n      revert\n    tag_97:\n        /* \"Contracts/AKEB.sol\":959:980  assetDescriptionInput */\n      dup3\n        /* \"Contracts/AKEB.sol\":940:956  assetDescription */\n      0x02\n        /* \"Contracts/AKEB.sol\":940:980  assetDescription = assetDescriptionInput */\n      swap1\n      dup1\n      mload\n      swap1\n      0x20\n      add\n      swap1\n      tag_101\n      swap3\n      swap2\n      swap1\n      tag_71\n      jump\t// in\n    tag_101:\n      pop\n        /* \"Contracts/AKEB.sol\":1004:1020  minBidPriceInput */\n      dup2\n        /* \"Contracts/AKEB.sol\":990:1001  minBidPrice */\n      0x03\n        /* \"Contracts/AKEB.sol\":990:1020  minBidPrice = minBidPriceInput */\n      dup2\n      swap1\n      sstore\n      pop\n        /* \"Contracts/AKEB.sol\":1051:1074  minNumberOfBiddersInput */\n      dup1\n        /* \"Contracts/AKEB.sol\":1030:1048  minNumberOfBidders */\n      0x04\n        /* \"Contracts/AKEB.sol\":1030:1074  minNumberOfBidders = minNumberOfBiddersInput */\n      dup2\n      swap1\n      sstore\n      pop\n        /* \"Contracts/AKEB.sol\":761:1081  function registerAuctionInfo(string memory assetDescriptionInput, ... */\n      pop\n      pop\n      pop\n      jump\t// out\n        /* \"Contracts/AKEB.sol\":1087:1181  function registerBidder() public assertOnlyBidders() {... */\n    tag_58:\n        /* \"Contracts/AKEB.sol\":682:692  auctioneer */\n      0x00\n      dup1\n      sload\n      swap1\n      0x0100\n      exp\n      swap1\n      div\n      0xffffffffffffffffffffffffffffffffffffffff\n      and\n        /* \"Contracts/AKEB.sol\":668:692  msg.sender != auctioneer */\n      0xffffffffffffffffffffffffffffffffffffffff\n      and\n        /* \"Contracts/AKEB.sol\":668:678  msg.sender */\n      caller\n        /* \"Contracts/AKEB.sol\":668:692  msg.sender != auctioneer */\n      0xffffffffffffffffffffffffffffffffffffffff\n      and\n      sub\n        /* \"Contracts/AKEB.sol\":660:746  require(msg.sender != auctioneer, \"Auctioneer is not allowed to register as a bidder\") */\n      tag_103\n      jumpi\n      mload(0x40)\n      0x08c379a000000000000000000000000000000000000000000000000000000000\n      dup2\n      mstore\n      0x04\n      add\n      tag_104\n      swap1\n      tag_77\n      jump\t// in\n    tag_104:\n      mload(0x40)\n      dup1\n      swap2\n      sub\n      swap1\n      revert\n    tag_103:\n        /* \"Contracts/AKEB.sol\":1150:1157  bidders */\n      0x01\n        /* \"Contracts/AKEB.sol\":1163:1173  msg.sender */\n      caller\n        /* \"Contracts/AKEB.sol\":1150:1174  bidders.push(msg.sender) */\n      swap1\n      dup1\n      0x01\n      dup2\n      sload\n      add\n      dup1\n      dup3\n      sstore\n      dup1\n      swap2\n      pop\n      pop\n      0x01\n      swap1\n      sub\n      swap1\n      0x00\n      mstore\n      keccak256(0x00, 0x20)\n      add\n      0x00\n      swap1\n      swap2\n      swap1\n      swap2\n      swap1\n      swap2\n      0x0100\n      exp\n      dup2\n      sload\n      dup2\n      0xffffffffffffffffffffffffffffffffffffffff\n      mul\n      not\n      and\n      swap1\n      dup4\n      0xffffffffffffffffffffffffffffffffffffffff\n      and\n      mul\n      or\n      swap1\n      sstore\n      pop\n        /* \"Contracts/AKEB.sol\":1087:1181  function registerBidder() public assertOnlyBidders() {... */\n      jump\t// out\n        /* \"Contracts/AKEB.sol\":1477:1630  function submitEncryptedBid(string memory inputEncryptedBid)... */\n    tag_62:\n        /* \"Contracts/AKEB.sol\":682:692  auctioneer */\n      0x00\n      dup1\n      sload\n      swap1\n      0x0100\n      exp\n      swap1\n      div\n      0xffffffffffffffffffffffffffffffffffffffff\n      and\n        /* \"Contracts/AKEB.sol\":668:692  msg.sender != auctioneer */\n      0xffffffffffffffffffffffffffffffffffffffff\n      and\n        /* \"Contracts/AKEB.sol\":668:678  msg.sender */\n      caller\n        /* \"Contracts/AKEB.sol\":668:692  msg.sender != auctioneer */\n      0xffffffffffffffffffffffffffffffffffffffff\n      and\n      sub\n        /* \"Contracts/AKEB.sol\":660:746  require(msg.sender != auctioneer, \"Auctioneer is not allowed to register as a bidder\") */\n      tag_108\n      jumpi\n      mload(0x40)\n      0x08c379a000000000000000000000000000000000000000000000000000000000\n      dup2\n      mstore\n      0x04\n      add\n      tag_109\n      swap1\n      tag_77\n      jump\t// in\n    tag_109:\n      mload(0x40)\n      dup1\n      swap2\n      sub\n      swap1\n      revert\n    tag_108:\n        /* \"Contracts/AKEB.sol\":1606:1623  inputEncryptedBid */\n      dup1\n        /* \"Contracts/AKEB.sol\":1578:1591  encryptedBids */\n      0x06\n        /* \"Contracts/AKEB.sol\":1578:1603  encryptedBids[msg.sender] */\n      0x00\n        /* \"Contracts/AKEB.sol\":1592:1602  msg.sender */\n      caller\n        /* \"Contracts/AKEB.sol\":1578:1603  encryptedBids[msg.sender] */\n      0xffffffffffffffffffffffffffffffffffffffff\n      and\n      0xffffffffffffffffffffffffffffffffffffffff\n      and\n      dup2\n      mstore\n      0x20\n      add\n      swap1\n      dup2\n      mstore\n      0x20\n      add\n      0x00\n      keccak256\n        /* \"Contracts/AKEB.sol\":1578:1623  encryptedBids[msg.sender] = inputEncryptedBid */\n      swap1\n      dup1\n      mload\n      swap1\n      0x20\n      add\n      swap1\n      tag_111\n      swap3\n      swap2\n      swap1\n      tag_71\n      jump\t// in\n    tag_111:\n      pop\n        /* \"Contracts/AKEB.sol\":1477:1630  function submitEncryptedBid(string memory inputEncryptedBid)... */\n      pop\n      jump\t// out\n    tag_71:\n      dup3\n      dup1\n      sload\n      tag_112\n      swap1\n      tag_64\n      jump\t// in\n    tag_112:\n      swap1\n      0x00\n      mstore\n      keccak256(0x00, 0x20)\n      swap1\n      0x1f\n      add\n      0x20\n      swap1\n      div\n      dup2\n      add\n      swap3\n      dup3\n      tag_114\n      jumpi\n      0x00\n      dup6\n      sstore\n      jump(tag_113)\n    tag_114:\n      dup3\n      0x1f\n      lt\n      tag_115\n      jumpi\n      dup1\n      mload\n      not(0xff)\n      and\n      dup4\n      dup1\n      add\n      or\n      dup6\n      sstore\n      jump(tag_113)\n    tag_115:\n      dup3\n      dup1\n      add\n      0x01\n      add\n      dup6\n      sstore\n      dup3\n      iszero\n      tag_113\n      jumpi\n      swap2\n      dup3\n      add\n    tag_116:\n      dup3\n      dup2\n      gt\n      iszero\n      tag_117\n      jumpi\n      dup3\n      mload\n      dup3\n      sstore\n      swap2\n      0x20\n      add\n      swap2\n      swap1\n      0x01\n      add\n      swap1\n      jump(tag_116)\n    tag_117:\n    tag_113:\n      pop\n      swap1\n      pop\n      tag_118\n      swap2\n      swap1\n      tag_119\n      jump\t// in\n    tag_118:\n      pop\n      swap1\n      jump\t// out\n    tag_119:\n    tag_120:\n      dup1\n      dup3\n      gt\n      iszero\n      tag_121\n      jumpi\n      0x00\n      dup2\n      0x00\n      swap1\n      sstore\n      pop\n      0x01\n      add\n      jump(tag_120)\n    tag_121:\n      pop\n      swap1\n      jump\t// out\n        /* \"#utility.yul\":7:82   */\n    tag_122:\n        /* \"#utility.yul\":40:46   */\n      0x00\n        /* \"#utility.yul\":73:75   */\n      0x40\n        /* \"#utility.yul\":67:76   */\n      mload\n        /* \"#utility.yul\":57:76   */\n      swap1\n      pop\n        /* \"#utility.yul\":7:82   */\n      swap1\n      jump\t// out\n        /* \"#utility.yul\":88:205   */\n    tag_123:\n        /* \"#utility.yul\":197:198   */\n      0x00\n        /* \"#utility.yul\":194:195   */\n      dup1\n        /* \"#utility.yul\":187:199   */\n      revert\n        /* \"#utility.yul\":211:328   */\n    tag_124:\n        /* \"#utility.yul\":320:321   */\n      0x00\n        /* \"#utility.yul\":317:318   */\n      dup1\n        /* \"#utility.yul\":310:322   */\n      revert\n        /* \"#utility.yul\":334:460   */\n    tag_125:\n        /* \"#utility.yul\":371:378   */\n      0x00\n        /* \"#utility.yul\":411:453   */\n      0xffffffffffffffffffffffffffffffffffffffff\n        /* \"#utility.yul\":404:409   */\n      dup3\n        /* \"#utility.yul\":400:454   */\n      and\n        /* \"#utility.yul\":389:454   */\n      swap1\n      pop\n        /* \"#utility.yul\":334:460   */\n      swap2\n      swap1\n      pop\n      jump\t// out\n        /* \"#utility.yul\":466:562   */\n    tag_126:\n        /* \"#utility.yul\":503:510   */\n      0x00\n        /* \"#utility.yul\":532:556   */\n      tag_159\n        /* \"#utility.yul\":550:555   */\n      dup3\n        /* \"#utility.yul\":532:556   */\n      tag_125\n      jump\t// in\n    tag_159:\n        /* \"#utility.yul\":521:556   */\n      swap1\n      pop\n        /* \"#utility.yul\":466:562   */\n      swap2\n      swap1\n      pop\n      jump\t// out\n        /* \"#utility.yul\":568:690   */\n    tag_127:\n        /* \"#utility.yul\":641:665   */\n      tag_161\n        /* \"#utility.yul\":659:664   */\n      dup2\n        /* \"#utility.yul\":641:665   */\n      tag_126\n      jump\t// in\n    tag_161:\n        /* \"#utility.yul\":634:639   */\n      dup2\n        /* \"#utility.yul\":631:666   */\n      eq\n        /* \"#utility.yul\":621:684   */\n      tag_162\n      jumpi\n        /* \"#utility.yul\":680:681   */\n      0x00\n        /* \"#utility.yul\":677:678   */\n      dup1\n        /* \"#utility.yul\":670:682   */\n      revert\n        /* \"#utility.yul\":621:684   */\n    tag_162:\n        /* \"#utility.yul\":568:690   */\n      pop\n      jump\t// out\n        /* \"#utility.yul\":696:835   */\n    tag_128:\n        /* \"#utility.yul\":742:747   */\n      0x00\n        /* \"#utility.yul\":780:786   */\n      dup2\n        /* \"#utility.yul\":767:787   */\n      calldataload\n        /* \"#utility.yul\":758:787   */\n      swap1\n      pop\n        /* \"#utility.yul\":796:829   */\n      tag_164\n        /* \"#utility.yul\":823:828   */\n      dup2\n        /* \"#utility.yul\":796:829   */\n      tag_127\n      jump\t// in\n    tag_164:\n        /* \"#utility.yul\":696:835   */\n      swap3\n      swap2\n      pop\n      pop\n      jump\t// out\n        /* \"#utility.yul\":841:1170   */\n    tag_18:\n        /* \"#utility.yul\":900:906   */\n      0x00\n        /* \"#utility.yul\":949:951   */\n      0x20\n        /* \"#utility.yul\":937:946   */\n      dup3\n        /* \"#utility.yul\":928:935   */\n      dup5\n        /* \"#utility.yul\":924:947   */\n      sub\n        /* \"#utility.yul\":920:952   */\n      slt\n        /* \"#utility.yul\":917:1036   */\n      iszero\n      tag_166\n      jumpi\n        /* \"#utility.yul\":955:1034   */\n      tag_167\n      tag_123\n      jump\t// in\n    tag_167:\n        /* \"#utility.yul\":917:1036   */\n    tag_166:\n        /* \"#utility.yul\":1075:1076   */\n      0x00\n        /* \"#utility.yul\":1100:1153   */\n      tag_168\n        /* \"#utility.yul\":1145:1152   */\n      dup5\n        /* \"#utility.yul\":1136:1142   */\n      dup3\n        /* \"#utility.yul\":1125:1134   */\n      dup6\n        /* \"#utility.yul\":1121:1143   */\n      add\n        /* \"#utility.yul\":1100:1153   */\n      tag_128\n      jump\t// in\n    tag_168:\n        /* \"#utility.yul\":1090:1153   */\n      swap2\n      pop\n        /* \"#utility.yul\":1046:1163   */\n      pop\n        /* \"#utility.yul\":841:1170   */\n      swap3\n      swap2\n      pop\n      pop\n      jump\t// out\n        /* \"#utility.yul\":1176:1275   */\n    tag_129:\n        /* \"#utility.yul\":1228:1234   */\n      0x00\n        /* \"#utility.yul\":1262:1267   */\n      dup2\n        /* \"#utility.yul\":1256:1268   */\n      mload\n        /* \"#utility.yul\":1246:1268   */\n      swap1\n      pop\n        /* \"#utility.yul\":1176:1275   */\n      swap2\n      swap1\n      pop\n      jump\t// out\n        /* \"#utility.yul\":1281:1450   */\n    tag_130:\n        /* \"#utility.yul\":1365:1376   */\n      0x00\n        /* \"#utility.yul\":1399:1405   */\n      dup3\n        /* \"#utility.yul\":1394:1397   */\n      dup3\n        /* \"#utility.yul\":1387:1406   */\n      mstore\n        /* \"#utility.yul\":1439:1443   */\n      0x20\n        /* \"#utility.yul\":1434:1437   */\n      dup3\n        /* \"#utility.yul\":1430:1444   */\n      add\n        /* \"#utility.yul\":1415:1444   */\n      swap1\n      pop\n        /* \"#utility.yul\":1281:1450   */\n      swap3\n      swap2\n      pop\n      pop\n      jump\t// out\n        /* \"#utility.yul\":1456:1763   */\n    tag_131:\n        /* \"#utility.yul\":1524:1525   */\n      0x00\n        /* \"#utility.yul\":1534:1647   */\n    tag_172:\n        /* \"#utility.yul\":1548:1554   */\n      dup4\n        /* \"#utility.yul\":1545:1546   */\n      dup2\n        /* \"#utility.yul\":1542:1555   */\n      lt\n        /* \"#utility.yul\":1534:1647   */\n      iszero\n      tag_174\n      jumpi\n        /* \"#utility.yul\":1633:1634   */\n      dup1\n        /* \"#utility.yul\":1628:1631   */\n      dup3\n        /* \"#utility.yul\":1624:1635   */\n      add\n        /* \"#utility.yul\":1618:1636   */\n      mload\n        /* \"#utility.yul\":1614:1615   */\n      dup2\n        /* \"#utility.yul\":1609:1612   */\n      dup5\n        /* \"#utility.yul\":1605:1616   */\n      add\n        /* \"#utility.yul\":1598:1637   */\n      mstore\n        /* \"#utility.yul\":1570:1572   */\n      0x20\n        /* \"#utility.yul\":1567:1568   */\n      dup2\n        /* \"#utility.yul\":1563:1573   */\n      add\n        /* \"#utility.yul\":1558:1573   */\n      swap1\n      pop\n        /* \"#utility.yul\":1534:1647   */\n      jump(tag_172)\n    tag_174:\n        /* \"#utility.yul\":1665:1671   */\n      dup4\n        /* \"#utility.yul\":1662:1663   */\n      dup2\n        /* \"#utility.yul\":1659:1672   */\n      gt\n        /* \"#utility.yul\":1656:1757   */\n      iszero\n      tag_175\n      jumpi\n        /* \"#utility.yul\":1745:1746   */\n      0x00\n        /* \"#utility.yul\":1736:1742   */\n      dup5\n        /* \"#utility.yul\":1731:1734   */\n      dup5\n        /* \"#utility.yul\":1727:1743   */\n      add\n        /* \"#utility.yul\":1720:1747   */\n      mstore\n        /* \"#utility.yul\":1656:1757   */\n    tag_175:\n        /* \"#utility.yul\":1505:1763   */\n      pop\n        /* \"#utility.yul\":1456:1763   */\n      pop\n      pop\n      pop\n      jump\t// out\n        /* \"#utility.yul\":1769:1871   */\n    tag_132:\n        /* \"#utility.yul\":1810:1816   */\n      0x00\n        /* \"#utility.yul\":1861:1863   */\n      0x1f\n        /* \"#utility.yul\":1857:1864   */\n      not\n        /* \"#utility.yul\":1852:1854   */\n      0x1f\n        /* \"#utility.yul\":1845:1850   */\n      dup4\n        /* \"#utility.yul\":1841:1855   */\n      add\n        /* \"#utility.yul\":1837:1865   */\n      and\n        /* \"#utility.yul\":1827:1865   */\n      swap1\n      pop\n        /* \"#utility.yul\":1769:1871   */\n      swap2\n      swap1\n      pop\n      jump\t// out\n        /* \"#utility.yul\":1877:2241   */\n    tag_133:\n        /* \"#utility.yul\":1965:1968   */\n      0x00\n        /* \"#utility.yul\":1993:2032   */\n      tag_178\n        /* \"#utility.yul\":2026:2031   */\n      dup3\n        /* \"#utility.yul\":1993:2032   */\n      tag_129\n      jump\t// in\n    tag_178:\n        /* \"#utility.yul\":2048:2119   */\n      tag_179\n        /* \"#utility.yul\":2112:2118   */\n      dup2\n        /* \"#utility.yul\":2107:2110   */\n      dup6\n        /* \"#utility.yul\":2048:2119   */\n      tag_130\n      jump\t// in\n    tag_179:\n        /* \"#utility.yul\":2041:2119   */\n      swap4\n      pop\n        /* \"#utility.yul\":2128:2180   */\n      tag_180\n        /* \"#utility.yul\":2173:2179   */\n      dup2\n        /* \"#utility.yul\":2168:2171   */\n      dup6\n        /* \"#utility.yul\":2161:2165   */\n      0x20\n        /* \"#utility.yul\":2154:2159   */\n      dup7\n        /* \"#utility.yul\":2150:2166   */\n      add\n        /* \"#utility.yul\":2128:2180   */\n      tag_131\n      jump\t// in\n    tag_180:\n        /* \"#utility.yul\":2205:2234   */\n      tag_181\n        /* \"#utility.yul\":2227:2233   */\n      dup2\n        /* \"#utility.yul\":2205:2234   */\n      tag_132\n      jump\t// in\n    tag_181:\n        /* \"#utility.yul\":2200:2203   */\n      dup5\n        /* \"#utility.yul\":2196:2235   */\n      add\n        /* \"#utility.yul\":2189:2235   */\n      swap2\n      pop\n        /* \"#utility.yul\":1969:2241   */\n      pop\n        /* \"#utility.yul\":1877:2241   */\n      swap3\n      swap2\n      pop\n      pop\n      jump\t// out\n        /* \"#utility.yul\":2247:2560   */\n    tag_21:\n        /* \"#utility.yul\":2360:2364   */\n      0x00\n        /* \"#utility.yul\":2398:2400   */\n      0x20\n        /* \"#utility.yul\":2387:2396   */\n      dup3\n        /* \"#utility.yul\":2383:2401   */\n      add\n        /* \"#utility.yul\":2375:2401   */\n      swap1\n      pop\n        /* \"#utility.yul\":2447:2456   */\n      dup2\n        /* \"#utility.yul\":2441:2445   */\n      dup2\n        /* \"#utility.yul\":2437:2457   */\n      sub\n        /* \"#utility.yul\":2433:2434   */\n      0x00\n        /* \"#utility.yul\":2422:2431   */\n      dup4\n        /* \"#utility.yul\":2418:2435   */\n      add\n        /* \"#utility.yul\":2411:2458   */\n      mstore\n        /* \"#utility.yul\":2475:2553   */\n      tag_183\n        /* \"#utility.yul\":2548:2552   */\n      dup2\n        /* \"#utility.yul\":2539:2545   */\n      dup5\n        /* \"#utility.yul\":2475:2553   */\n      tag_133\n      jump\t// in\n    tag_183:\n        /* \"#utility.yul\":2467:2553   */\n      swap1\n      pop\n        /* \"#utility.yul\":2247:2560   */\n      swap3\n      swap2\n      pop\n      pop\n      jump\t// out\n        /* \"#utility.yul\":2566:2643   */\n    tag_134:\n        /* \"#utility.yul\":2603:2610   */\n      0x00\n        /* \"#utility.yul\":2632:2637   */\n      dup2\n        /* \"#utility.yul\":2621:2637   */\n      swap1\n      pop\n        /* \"#utility.yul\":2566:2643   */\n      swap2\n      swap1\n      pop\n      jump\t// out\n        /* \"#utility.yul\":2649:2767   */\n    tag_135:\n        /* \"#utility.yul\":2736:2760   */\n      tag_186\n        /* \"#utility.yul\":2754:2759   */\n      dup2\n        /* \"#utility.yul\":2736:2760   */\n      tag_134\n      jump\t// in\n    tag_186:\n        /* \"#utility.yul\":2731:2734   */\n      dup3\n        /* \"#utility.yul\":2724:2761   */\n      mstore\n        /* \"#utility.yul\":2649:2767   */\n      pop\n      pop\n      jump\t// out\n        /* \"#utility.yul\":2773:2995   */\n    tag_25:\n        /* \"#utility.yul\":2866:2870   */\n      0x00\n        /* \"#utility.yul\":2904:2906   */\n      0x20\n        /* \"#utility.yul\":2893:2902   */\n      dup3\n        /* \"#utility.yul\":2889:2907   */\n      add\n        /* \"#utility.yul\":2881:2907   */\n      swap1\n      pop\n        /* \"#utility.yul\":2917:2988   */\n      tag_188\n        /* \"#utility.yul\":2985:2986   */\n      0x00\n        /* \"#utility.yul\":2974:2983   */\n      dup4\n        /* \"#utility.yul\":2970:2987   */\n      add\n        /* \"#utility.yul\":2961:2967   */\n      dup5\n        /* \"#utility.yul\":2917:2988   */\n      tag_135\n      jump\t// in\n    tag_188:\n        /* \"#utility.yul\":2773:2995   */\n      swap3\n      swap2\n      pop\n      pop\n      jump\t// out\n        /* \"#utility.yul\":3001:3118   */\n    tag_136:\n        /* \"#utility.yul\":3110:3111   */\n      0x00\n        /* \"#utility.yul\":3107:3108   */\n      dup1\n        /* \"#utility.yul\":3100:3112   */\n      revert\n        /* \"#utility.yul\":3124:3241   */\n    tag_137:\n        /* \"#utility.yul\":3233:3234   */\n      0x00\n        /* \"#utility.yul\":3230:3231   */\n      dup1\n        /* \"#utility.yul\":3223:3235   */\n      revert\n        /* \"#utility.yul\":3247:3427   */\n    tag_138:\n        /* \"#utility.yul\":3295:3372   */\n      0x4e487b7100000000000000000000000000000000000000000000000000000000\n        /* \"#utility.yul\":3292:3293   */\n      0x00\n        /* \"#utility.yul\":3285:3373   */\n      mstore\n        /* \"#utility.yul\":3392:3396   */\n      0x41\n        /* \"#utility.yul\":3389:3390   */\n      0x04\n        /* \"#utility.yul\":3382:3397   */\n      mstore\n        /* \"#utility.yul\":3416:3420   */\n      0x24\n        /* \"#utility.yul\":3413:3414   */\n      0x00\n        /* \"#utility.yul\":3406:3421   */\n      revert\n        /* \"#utility.yul\":3433:3714   */\n    tag_139:\n        /* \"#utility.yul\":3516:3543   */\n      tag_193\n        /* \"#utility.yul\":3538:3542   */\n      dup3\n        /* \"#utility.yul\":3516:3543   */\n      tag_132\n      jump\t// in\n    tag_193:\n        /* \"#utility.yul\":3508:3514   */\n      dup2\n        /* \"#utility.yul\":3504:3544   */\n      add\n        /* \"#utility.yul\":3646:3652   */\n      dup2\n        /* \"#utility.yul\":3634:3644   */\n      dup2\n        /* \"#utility.yul\":3631:3653   */\n      lt\n        /* \"#utility.yul\":3610:3628   */\n      0xffffffffffffffff\n        /* \"#utility.yul\":3598:3608   */\n      dup3\n        /* \"#utility.yul\":3595:3629   */\n      gt\n        /* \"#utility.yul\":3592:3654   */\n      or\n        /* \"#utility.yul\":3589:3677   */\n      iszero\n      tag_194\n      jumpi\n        /* \"#utility.yul\":3657:3675   */\n      tag_195\n      tag_138\n      jump\t// in\n    tag_195:\n        /* \"#utility.yul\":3589:3677   */\n    tag_194:\n        /* \"#utility.yul\":3697:3707   */\n      dup1\n        /* \"#utility.yul\":3693:3695   */\n      0x40\n        /* \"#utility.yul\":3686:3708   */\n      mstore\n        /* \"#utility.yul\":3476:3714   */\n      pop\n        /* \"#utility.yul\":3433:3714   */\n      pop\n      pop\n      jump\t// out\n        /* \"#utility.yul\":3720:3849   */\n    tag_140:\n        /* \"#utility.yul\":3754:3760   */\n      0x00\n        /* \"#utility.yul\":3781:3801   */\n      tag_197\n      tag_122\n      jump\t// in\n    tag_197:\n        /* \"#utility.yul\":3771:3801   */\n      swap1\n      pop\n        /* \"#utility.yul\":3810:3843   */\n      tag_198\n        /* \"#utility.yul\":3838:3842   */\n      dup3\n        /* \"#utility.yul\":3830:3836   */\n      dup3\n        /* \"#utility.yul\":3810:3843   */\n      tag_139\n      jump\t// in\n    tag_198:\n        /* \"#utility.yul\":3720:3849   */\n      swap2\n      swap1\n      pop\n      jump\t// out\n        /* \"#utility.yul\":3855:4163   */\n    tag_141:\n        /* \"#utility.yul\":3917:3921   */\n      0x00\n        /* \"#utility.yul\":4007:4025   */\n      0xffffffffffffffff\n        /* \"#utility.yul\":3999:4005   */\n      dup3\n        /* \"#utility.yul\":3996:4026   */\n      gt\n        /* \"#utility.yul\":3993:4049   */\n      iszero\n      tag_200\n      jumpi\n        /* \"#utility.yul\":4029:4047   */\n      tag_201\n      tag_138\n      jump\t// in\n    tag_201:\n        /* \"#utility.yul\":3993:4049   */\n    tag_200:\n        /* \"#utility.yul\":4067:4096   */\n      tag_202\n        /* \"#utility.yul\":4089:4095   */\n      dup3\n        /* \"#utility.yul\":4067:4096   */\n      tag_132\n      jump\t// in\n    tag_202:\n        /* \"#utility.yul\":4059:4096   */\n      swap1\n      pop\n        /* \"#utility.yul\":4151:4155   */\n      0x20\n        /* \"#utility.yul\":4145:4149   */\n      dup2\n        /* \"#utility.yul\":4141:4156   */\n      add\n        /* \"#utility.yul\":4133:4156   */\n      swap1\n      pop\n        /* \"#utility.yul\":3855:4163   */\n      swap2\n      swap1\n      pop\n      jump\t// out\n        /* \"#utility.yul\":4169:4323   */\n    tag_142:\n        /* \"#utility.yul\":4253:4259   */\n      dup3\n        /* \"#utility.yul\":4248:4251   */\n      dup2\n        /* \"#utility.yul\":4243:4246   */\n      dup4\n        /* \"#utility.yul\":4230:4260   */\n      calldatacopy\n        /* \"#utility.yul\":4315:4316   */\n      0x00\n        /* \"#utility.yul\":4306:4312   */\n      dup4\n        /* \"#utility.yul\":4301:4304   */\n      dup4\n        /* \"#utility.yul\":4297:4313   */\n      add\n        /* \"#utility.yul\":4290:4317   */\n      mstore\n        /* \"#utility.yul\":4169:4323   */\n      pop\n      pop\n      pop\n      jump\t// out\n        /* \"#utility.yul\":4329:4741   */\n    tag_143:\n        /* \"#utility.yul\":4407:4412   */\n      0x00\n        /* \"#utility.yul\":4432:4498   */\n      tag_205\n        /* \"#utility.yul\":4448:4497   */\n      tag_206\n        /* \"#utility.yul\":4490:4496   */\n      dup5\n        /* \"#utility.yul\":4448:4497   */\n      tag_141\n      jump\t// in\n    tag_206:\n        /* \"#utility.yul\":4432:4498   */\n      tag_140\n      jump\t// in\n    tag_205:\n        /* \"#utility.yul\":4423:4498   */\n      swap1\n      pop\n        /* \"#utility.yul\":4521:4527   */\n      dup3\n        /* \"#utility.yul\":4514:4519   */\n      dup2\n        /* \"#utility.yul\":4507:4528   */\n      mstore\n        /* \"#utility.yul\":4559:4563   */\n      0x20\n        /* \"#utility.yul\":4552:4557   */\n      dup2\n        /* \"#utility.yul\":4548:4564   */\n      add\n        /* \"#utility.yul\":4597:4600   */\n      dup5\n        /* \"#utility.yul\":4588:4594   */\n      dup5\n        /* \"#utility.yul\":4583:4586   */\n      dup5\n        /* \"#utility.yul\":4579:4595   */\n      add\n        /* \"#utility.yul\":4576:4601   */\n      gt\n        /* \"#utility.yul\":4573:4685   */\n      iszero\n      tag_207\n      jumpi\n        /* \"#utility.yul\":4604:4683   */\n      tag_208\n      tag_137\n      jump\t// in\n    tag_208:\n        /* \"#utility.yul\":4573:4685   */\n    tag_207:\n        /* \"#utility.yul\":4694:4735   */\n      tag_209\n        /* \"#utility.yul\":4728:4734   */\n      dup5\n        /* \"#utility.yul\":4723:4726   */\n      dup3\n        /* \"#utility.yul\":4718:4721   */\n      dup6\n        /* \"#utility.yul\":4694:4735   */\n      tag_142\n      jump\t// in\n    tag_209:\n        /* \"#utility.yul\":4413:4741   */\n      pop\n        /* \"#utility.yul\":4329:4741   */\n      swap4\n      swap3\n      pop\n      pop\n      pop\n      jump\t// out\n        /* \"#utility.yul\":4761:5101   */\n    tag_144:\n        /* \"#utility.yul\":4817:4822   */\n      0x00\n        /* \"#utility.yul\":4866:4869   */\n      dup3\n        /* \"#utility.yul\":4859:4863   */\n      0x1f\n        /* \"#utility.yul\":4851:4857   */\n      dup4\n        /* \"#utility.yul\":4847:4864   */\n      add\n        /* \"#utility.yul\":4843:4870   */\n      slt\n        /* \"#utility.yul\":4833:4955   */\n      tag_211\n      jumpi\n        /* \"#utility.yul\":4874:4953   */\n      tag_212\n      tag_136\n      jump\t// in\n    tag_212:\n        /* \"#utility.yul\":4833:4955   */\n    tag_211:\n        /* \"#utility.yul\":4991:4997   */\n      dup2\n        /* \"#utility.yul\":4978:4998   */\n      calldataload\n        /* \"#utility.yul\":5016:5095   */\n      tag_213\n        /* \"#utility.yul\":5091:5094   */\n      dup5\n        /* \"#utility.yul\":5083:5089   */\n      dup3\n        /* \"#utility.yul\":5076:5080   */\n      0x20\n        /* \"#utility.yul\":5068:5074   */\n      dup7\n        /* \"#utility.yul\":5064:5081   */\n      add\n        /* \"#utility.yul\":5016:5095   */\n      tag_143\n      jump\t// in\n    tag_213:\n        /* \"#utility.yul\":5007:5095   */\n      swap2\n      pop\n        /* \"#utility.yul\":4823:5101   */\n      pop\n        /* \"#utility.yul\":4761:5101   */\n      swap3\n      swap2\n      pop\n      pop\n      jump\t// out\n        /* \"#utility.yul\":5107:5761   */\n    tag_28:\n        /* \"#utility.yul\":5185:5191   */\n      0x00\n        /* \"#utility.yul\":5193:5199   */\n      dup1\n        /* \"#utility.yul\":5242:5244   */\n      0x40\n        /* \"#utility.yul\":5230:5239   */\n      dup4\n        /* \"#utility.yul\":5221:5228   */\n      dup6\n        /* \"#utility.yul\":5217:5240   */\n      sub\n        /* \"#utility.yul\":5213:5245   */\n      slt\n        /* \"#utility.yul\":5210:5329   */\n      iszero\n      tag_215\n      jumpi\n        /* \"#utility.yul\":5248:5327   */\n      tag_216\n      tag_123\n      jump\t// in\n    tag_216:\n        /* \"#utility.yul\":5210:5329   */\n    tag_215:\n        /* \"#utility.yul\":5368:5369   */\n      0x00\n        /* \"#utility.yul\":5393:5446   */\n      tag_217\n        /* \"#utility.yul\":5438:5445   */\n      dup6\n        /* \"#utility.yul\":5429:5435   */\n      dup3\n        /* \"#utility.yul\":5418:5427   */\n      dup7\n        /* \"#utility.yul\":5414:5436   */\n      add\n        /* \"#utility.yul\":5393:5446   */\n      tag_128\n      jump\t// in\n    tag_217:\n        /* \"#utility.yul\":5383:5446   */\n      swap3\n      pop\n        /* \"#utility.yul\":5339:5456   */\n      pop\n        /* \"#utility.yul\":5523:5525   */\n      0x20\n        /* \"#utility.yul\":5512:5521   */\n      dup4\n        /* \"#utility.yul\":5508:5526   */\n      add\n        /* \"#utility.yul\":5495:5527   */\n      calldataload\n        /* \"#utility.yul\":5554:5572   */\n      0xffffffffffffffff\n        /* \"#utility.yul\":5546:5552   */\n      dup2\n        /* \"#utility.yul\":5543:5573   */\n      gt\n        /* \"#utility.yul\":5540:5657   */\n      iszero\n      tag_218\n      jumpi\n        /* \"#utility.yul\":5576:5655   */\n      tag_219\n      tag_124\n      jump\t// in\n    tag_219:\n        /* \"#utility.yul\":5540:5657   */\n    tag_218:\n        /* \"#utility.yul\":5681:5744   */\n      tag_220\n        /* \"#utility.yul\":5736:5743   */\n      dup6\n        /* \"#utility.yul\":5727:5733   */\n      dup3\n        /* \"#utility.yul\":5716:5725   */\n      dup7\n        /* \"#utility.yul\":5712:5734   */\n      add\n        /* \"#utility.yul\":5681:5744   */\n      tag_144\n      jump\t// in\n    tag_220:\n        /* \"#utility.yul\":5671:5744   */\n      swap2\n      pop\n        /* \"#utility.yul\":5466:5754   */\n      pop\n        /* \"#utility.yul\":5107:5761   */\n      swap3\n      pop\n      swap3\n      swap1\n      pop\n      jump\t// out\n        /* \"#utility.yul\":5767:5889   */\n    tag_145:\n        /* \"#utility.yul\":5840:5864   */\n      tag_222\n        /* \"#utility.yul\":5858:5863   */\n      dup2\n        /* \"#utility.yul\":5840:5864   */\n      tag_134\n      jump\t// in\n    tag_222:\n        /* \"#utility.yul\":5833:5838   */\n      dup2\n        /* \"#utility.yul\":5830:5865   */\n      eq\n        /* \"#utility.yul\":5820:5883   */\n      tag_223\n      jumpi\n        /* \"#utility.yul\":5879:5880   */\n      0x00\n        /* \"#utility.yul\":5876:5877   */\n      dup1\n        /* \"#utility.yul\":5869:5881   */\n      revert\n        /* \"#utility.yul\":5820:5883   */\n    tag_223:\n        /* \"#utility.yul\":5767:5889   */\n      pop\n      jump\t// out\n        /* \"#utility.yul\":5895:6034   */\n    tag_146:\n        /* \"#utility.yul\":5941:5946   */\n      0x00\n        /* \"#utility.yul\":5979:5985   */\n      dup2\n        /* \"#utility.yul\":5966:5986   */\n      calldataload\n        /* \"#utility.yul\":5957:5986   */\n      swap1\n      pop\n        /* \"#utility.yul\":5995:6028   */\n      tag_225\n        /* \"#utility.yul\":6022:6027   */\n      dup2\n        /* \"#utility.yul\":5995:6028   */\n      tag_145\n      jump\t// in\n    tag_225:\n        /* \"#utility.yul\":5895:6034   */\n      swap3\n      swap2\n      pop\n      pop\n      jump\t// out\n        /* \"#utility.yul\":6040:6839   */\n    tag_32:\n        /* \"#utility.yul\":6127:6133   */\n      0x00\n        /* \"#utility.yul\":6135:6141   */\n      dup1\n        /* \"#utility.yul\":6143:6149   */\n      0x00\n        /* \"#utility.yul\":6192:6194   */\n      0x60\n        /* \"#utility.yul\":6180:6189   */\n      dup5\n        /* \"#utility.yul\":6171:6178   */\n      dup7\n        /* \"#utility.yul\":6167:6190   */\n      sub\n        /* \"#utility.yul\":6163:6195   */\n      slt\n        /* \"#utility.yul\":6160:6279   */\n      iszero\n      tag_227\n      jumpi\n        /* \"#utility.yul\":6198:6277   */\n      tag_228\n      tag_123\n      jump\t// in\n    tag_228:\n        /* \"#utility.yul\":6160:6279   */\n    tag_227:\n        /* \"#utility.yul\":6318:6319   */\n      0x00\n        /* \"#utility.yul\":6343:6396   */\n      tag_229\n        /* \"#utility.yul\":6388:6395   */\n      dup7\n        /* \"#utility.yul\":6379:6385   */\n      dup3\n        /* \"#utility.yul\":6368:6377   */\n      dup8\n        /* \"#utility.yul\":6364:6386   */\n      add\n        /* \"#utility.yul\":6343:6396   */\n      tag_128\n      jump\t// in\n    tag_229:\n        /* \"#utility.yul\":6333:6396   */\n      swap4\n      pop\n        /* \"#utility.yul\":6289:6406   */\n      pop\n        /* \"#utility.yul\":6445:6447   */\n      0x20\n        /* \"#utility.yul\":6471:6524   */\n      tag_230\n        /* \"#utility.yul\":6516:6523   */\n      dup7\n        /* \"#utility.yul\":6507:6513   */\n      dup3\n        /* \"#utility.yul\":6496:6505   */\n      dup8\n        /* \"#utility.yul\":6492:6514   */\n      add\n        /* \"#utility.yul\":6471:6524   */\n      tag_146\n      jump\t// in\n    tag_230:\n        /* \"#utility.yul\":6461:6524   */\n      swap3\n      pop\n        /* \"#utility.yul\":6416:6534   */\n      pop\n        /* \"#utility.yul\":6601:6603   */\n      0x40\n        /* \"#utility.yul\":6590:6599   */\n      dup5\n        /* \"#utility.yul\":6586:6604   */\n      add\n        /* \"#utility.yul\":6573:6605   */\n      calldataload\n        /* \"#utility.yul\":6632:6650   */\n      0xffffffffffffffff\n        /* \"#utility.yul\":6624:6630   */\n      dup2\n        /* \"#utility.yul\":6621:6651   */\n      gt\n        /* \"#utility.yul\":6618:6735   */\n      iszero\n      tag_231\n      jumpi\n        /* \"#utility.yul\":6654:6733   */\n      tag_232\n      tag_124\n      jump\t// in\n    tag_232:\n        /* \"#utility.yul\":6618:6735   */\n    tag_231:\n        /* \"#utility.yul\":6759:6822   */\n      tag_233\n        /* \"#utility.yul\":6814:6821   */\n      dup7\n        /* \"#utility.yul\":6805:6811   */\n      dup3\n        /* \"#utility.yul\":6794:6803   */\n      dup8\n        /* \"#utility.yul\":6790:6812   */\n      add\n        /* \"#utility.yul\":6759:6822   */\n      tag_144\n      jump\t// in\n    tag_233:\n        /* \"#utility.yul\":6749:6822   */\n      swap2\n      pop\n        /* \"#utility.yul\":6544:6832   */\n      pop\n        /* \"#utility.yul\":6040:6839   */\n      swap3\n      pop\n      swap3\n      pop\n      swap3\n      jump\t// out\n        /* \"#utility.yul\":6845:7174   */\n    tag_46:\n        /* \"#utility.yul\":6904:6910   */\n      0x00\n        /* \"#utility.yul\":6953:6955   */\n      0x20\n        /* \"#utility.yul\":6941:6950   */\n      dup3\n        /* \"#utility.yul\":6932:6939   */\n      dup5\n        /* \"#utility.yul\":6928:6951   */\n      sub\n        /* \"#utility.yul\":6924:6956   */\n      slt\n        /* \"#utility.yul\":6921:7040   */\n      iszero\n      tag_235\n      jumpi\n        /* \"#utility.yul\":6959:7038   */\n      tag_236\n      tag_123\n      jump\t// in\n    tag_236:\n        /* \"#utility.yul\":6921:7040   */\n    tag_235:\n        /* \"#utility.yul\":7079:7080   */\n      0x00\n        /* \"#utility.yul\":7104:7157   */\n      tag_237\n        /* \"#utility.yul\":7149:7156   */\n      dup5\n        /* \"#utility.yul\":7140:7146   */\n      dup3\n        /* \"#utility.yul\":7129:7138   */\n      dup6\n        /* \"#utility.yul\":7125:7147   */\n      add\n        /* \"#utility.yul\":7104:7157   */\n      tag_146\n      jump\t// in\n    tag_237:\n        /* \"#utility.yul\":7094:7157   */\n      swap2\n      pop\n        /* \"#utility.yul\":7050:7167   */\n      pop\n        /* \"#utility.yul\":6845:7174   */\n      swap3\n      swap2\n      pop\n      pop\n      jump\t// out\n        /* \"#utility.yul\":7180:7298   */\n    tag_147:\n        /* \"#utility.yul\":7267:7291   */\n      tag_239\n        /* \"#utility.yul\":7285:7290   */\n      dup2\n        /* \"#utility.yul\":7267:7291   */\n      tag_126\n      jump\t// in\n    tag_239:\n        /* \"#utility.yul\":7262:7265   */\n      dup3\n        /* \"#utility.yul\":7255:7292   */\n      mstore\n        /* \"#utility.yul\":7180:7298   */\n      pop\n      pop\n      jump\t// out\n        /* \"#utility.yul\":7304:7526   */\n    tag_49:\n        /* \"#utility.yul\":7397:7401   */\n      0x00\n        /* \"#utility.yul\":7435:7437   */\n      0x20\n        /* \"#utility.yul\":7424:7433   */\n      dup3\n        /* \"#utility.yul\":7420:7438   */\n      add\n        /* \"#utility.yul\":7412:7438   */\n      swap1\n      pop\n        /* \"#utility.yul\":7448:7519   */\n      tag_241\n        /* \"#utility.yul\":7516:7517   */\n      0x00\n        /* \"#utility.yul\":7505:7514   */\n      dup4\n        /* \"#utility.yul\":7501:7518   */\n      add\n        /* \"#utility.yul\":7492:7498   */\n      dup5\n        /* \"#utility.yul\":7448:7519   */\n      tag_147\n      jump\t// in\n    tag_241:\n        /* \"#utility.yul\":7304:7526   */\n      swap3\n      swap2\n      pop\n      pop\n      jump\t// out\n        /* \"#utility.yul\":7532:8331   */\n    tag_55:\n        /* \"#utility.yul\":7619:7625   */\n      0x00\n        /* \"#utility.yul\":7627:7633   */\n      dup1\n        /* \"#utility.yul\":7635:7641   */\n      0x00\n        /* \"#utility.yul\":7684:7686   */\n      0x60\n        /* \"#utility.yul\":7672:7681   */\n      dup5\n        /* \"#utility.yul\":7663:7670   */\n      dup7\n        /* \"#utility.yul\":7659:7682   */\n      sub\n        /* \"#utility.yul\":7655:7687   */\n      slt\n        /* \"#utility.yul\":7652:7771   */\n      iszero\n      tag_243\n      jumpi\n        /* \"#utility.yul\":7690:7769   */\n      tag_244\n      tag_123\n      jump\t// in\n    tag_244:\n        /* \"#utility.yul\":7652:7771   */\n    tag_243:\n        /* \"#utility.yul\":7838:7839   */\n      0x00\n        /* \"#utility.yul\":7827:7836   */\n      dup5\n        /* \"#utility.yul\":7823:7840   */\n      add\n        /* \"#utility.yul\":7810:7841   */\n      calldataload\n        /* \"#utility.yul\":7868:7886   */\n      0xffffffffffffffff\n        /* \"#utility.yul\":7860:7866   */\n      dup2\n        /* \"#utility.yul\":7857:7887   */\n      gt\n        /* \"#utility.yul\":7854:7971   */\n      iszero\n      tag_245\n      jumpi\n        /* \"#utility.yul\":7890:7969   */\n      tag_246\n      tag_124\n      jump\t// in\n    tag_246:\n        /* \"#utility.yul\":7854:7971   */\n    tag_245:\n        /* \"#utility.yul\":7995:8058   */\n      tag_247\n        /* \"#utility.yul\":8050:8057   */\n      dup7\n        /* \"#utility.yul\":8041:8047   */\n      dup3\n        /* \"#utility.yul\":8030:8039   */\n      dup8\n        /* \"#utility.yul\":8026:8048   */\n      add\n        /* \"#utility.yul\":7995:8058   */\n      tag_144\n      jump\t// in\n    tag_247:\n        /* \"#utility.yul\":7985:8058   */\n      swap4\n      pop\n        /* \"#utility.yul\":7781:8068   */\n      pop\n        /* \"#utility.yul\":8107:8109   */\n      0x20\n        /* \"#utility.yul\":8133:8186   */\n      tag_248\n        /* \"#utility.yul\":8178:8185   */\n      dup7\n        /* \"#utility.yul\":8169:8175   */\n      dup3\n        /* \"#utility.yul\":8158:8167   */\n      dup8\n        /* \"#utility.yul\":8154:8176   */\n      add\n        /* \"#utility.yul\":8133:8186   */\n      tag_146\n      jump\t// in\n    tag_248:\n        /* \"#utility.yul\":8123:8186   */\n      swap3\n      pop\n        /* \"#utility.yul\":8078:8196   */\n      pop\n        /* \"#utility.yul\":8235:8237   */\n      0x40\n        /* \"#utility.yul\":8261:8314   */\n      tag_249\n        /* \"#utility.yul\":8306:8313   */\n      dup7\n        /* \"#utility.yul\":8297:8303   */\n      dup3\n        /* \"#utility.yul\":8286:8295   */\n      dup8\n        /* \"#utility.yul\":8282:8304   */\n      add\n        /* \"#utility.yul\":8261:8314   */\n      tag_146\n      jump\t// in\n    tag_249:\n        /* \"#utility.yul\":8251:8314   */\n      swap2\n      pop\n        /* \"#utility.yul\":8206:8324   */\n      pop\n        /* \"#utility.yul\":7532:8331   */\n      swap3\n      pop\n      swap3\n      pop\n      swap3\n      jump\t// out\n        /* \"#utility.yul\":8337:8846   */\n    tag_61:\n        /* \"#utility.yul\":8406:8412   */\n      0x00\n        /* \"#utility.yul\":8455:8457   */\n      0x20\n        /* \"#utility.yul\":8443:8452   */\n      dup3\n        /* \"#utility.yul\":8434:8441   */\n      dup5\n        /* \"#utility.yul\":8430:8453   */\n      sub\n        /* \"#utility.yul\":8426:8458   */\n      slt\n        /* \"#utility.yul\":8423:8542   */\n      iszero\n      tag_251\n      jumpi\n        /* \"#utility.yul\":8461:8540   */\n      tag_252\n      tag_123\n      jump\t// in\n    tag_252:\n        /* \"#utility.yul\":8423:8542   */\n    tag_251:\n        /* \"#utility.yul\":8609:8610   */\n      0x00\n        /* \"#utility.yul\":8598:8607   */\n      dup3\n        /* \"#utility.yul\":8594:8611   */\n      add\n        /* \"#utility.yul\":8581:8612   */\n      calldataload\n        /* \"#utility.yul\":8639:8657   */\n      0xffffffffffffffff\n        /* \"#utility.yul\":8631:8637   */\n      dup2\n        /* \"#utility.yul\":8628:8658   */\n      gt\n        /* \"#utility.yul\":8625:8742   */\n      iszero\n      tag_253\n      jumpi\n        /* \"#utility.yul\":8661:8740   */\n      tag_254\n      tag_124\n      jump\t// in\n    tag_254:\n        /* \"#utility.yul\":8625:8742   */\n    tag_253:\n        /* \"#utility.yul\":8766:8829   */\n      tag_255\n        /* \"#utility.yul\":8821:8828   */\n      dup5\n        /* \"#utility.yul\":8812:8818   */\n      dup3\n        /* \"#utility.yul\":8801:8810   */\n      dup6\n        /* \"#utility.yul\":8797:8819   */\n      add\n        /* \"#utility.yul\":8766:8829   */\n      tag_144\n      jump\t// in\n    tag_255:\n        /* \"#utility.yul\":8756:8829   */\n      swap2\n      pop\n        /* \"#utility.yul\":8552:8839   */\n      pop\n        /* \"#utility.yul\":8337:8846   */\n      swap3\n      swap2\n      pop\n      pop\n      jump\t// out\n        /* \"#utility.yul\":8852:9032   */\n    tag_148:\n        /* \"#utility.yul\":8900:8977   */\n      0x4e487b7100000000000000000000000000000000000000000000000000000000\n        /* \"#utility.yul\":8897:8898   */\n      0x00\n        /* \"#utility.yul\":8890:8978   */\n      mstore\n        /* \"#utility.yul\":8997:9001   */\n      0x22\n        /* \"#utility.yul\":8994:8995   */\n      0x04\n        /* \"#utility.yul\":8987:9002   */\n      mstore\n        /* \"#utility.yul\":9021:9025   */\n      0x24\n        /* \"#utility.yul\":9018:9019   */\n      0x00\n        /* \"#utility.yul\":9011:9026   */\n      revert\n        /* \"#utility.yul\":9038:9358   */\n    tag_64:\n        /* \"#utility.yul\":9082:9088   */\n      0x00\n        /* \"#utility.yul\":9119:9120   */\n      0x02\n        /* \"#utility.yul\":9113:9117   */\n      dup3\n        /* \"#utility.yul\":9109:9121   */\n      div\n        /* \"#utility.yul\":9099:9121   */\n      swap1\n      pop\n        /* \"#utility.yul\":9166:9167   */\n      0x01\n        /* \"#utility.yul\":9160:9164   */\n      dup3\n        /* \"#utility.yul\":9156:9168   */\n      and\n        /* \"#utility.yul\":9187:9205   */\n      dup1\n        /* \"#utility.yul\":9177:9258   */\n      tag_258\n      jumpi\n        /* \"#utility.yul\":9243:9247   */\n      0x7f\n        /* \"#utility.yul\":9235:9241   */\n      dup3\n        /* \"#utility.yul\":9231:9248   */\n      and\n        /* \"#utility.yul\":9221:9248   */\n      swap2\n      pop\n        /* \"#utility.yul\":9177:9258   */\n    tag_258:\n        /* \"#utility.yul\":9305:9307   */\n      0x20\n        /* \"#utility.yul\":9297:9303   */\n      dup3\n        /* \"#utility.yul\":9294:9308   */\n      lt\n        /* \"#utility.yul\":9274:9292   */\n      dup2\n        /* \"#utility.yul\":9271:9309   */\n      sub\n        /* \"#utility.yul\":9268:9352   */\n      tag_259\n      jumpi\n        /* \"#utility.yul\":9324:9342   */\n      tag_260\n      tag_148\n      jump\t// in\n    tag_260:\n        /* \"#utility.yul\":9268:9352   */\n    tag_259:\n        /* \"#utility.yul\":9089:9358   */\n      pop\n        /* \"#utility.yul\":9038:9358   */\n      swap2\n      swap1\n      pop\n      jump\t// out\n        /* \"#utility.yul\":9364:9600   */\n    tag_149:\n        /* \"#utility.yul\":9504:9538   */\n      0x41756374696f6e656572206973206e6f7420616c6c6f77656420746f20726567\n        /* \"#utility.yul\":9500:9501   */\n      0x00\n        /* \"#utility.yul\":9492:9498   */\n      dup3\n        /* \"#utility.yul\":9488:9502   */\n      add\n        /* \"#utility.yul\":9481:9539   */\n      mstore\n        /* \"#utility.yul\":9573:9592   */\n      0x6973746572206173206120626964646572000000000000000000000000000000\n        /* \"#utility.yul\":9568:9570   */\n      0x20\n        /* \"#utility.yul\":9560:9566   */\n      dup3\n        /* \"#utility.yul\":9556:9571   */\n      add\n        /* \"#utility.yul\":9549:9593   */\n      mstore\n        /* \"#utility.yul\":9364:9600   */\n      pop\n      jump\t// out\n        /* \"#utility.yul\":9606:9972   */\n    tag_150:\n        /* \"#utility.yul\":9748:9751   */\n      0x00\n        /* \"#utility.yul\":9769:9836   */\n      tag_263\n        /* \"#utility.yul\":9833:9835   */\n      0x31\n        /* \"#utility.yul\":9828:9831   */\n      dup4\n        /* \"#utility.yul\":9769:9836   */\n      tag_130\n      jump\t// in\n    tag_263:\n        /* \"#utility.yul\":9762:9836   */\n      swap2\n      pop\n        /* \"#utility.yul\":9845:9938   */\n      tag_264\n        /* \"#utility.yul\":9934:9937   */\n      dup3\n        /* \"#utility.yul\":9845:9938   */\n      tag_149\n      jump\t// in\n    tag_264:\n        /* \"#utility.yul\":9963:9965   */\n      0x40\n        /* \"#utility.yul\":9958:9961   */\n      dup3\n        /* \"#utility.yul\":9954:9966   */\n      add\n        /* \"#utility.yul\":9947:9966   */\n      swap1\n      pop\n        /* \"#utility.yul\":9606:9972   */\n      swap2\n      swap1\n      pop\n      jump\t// out\n        /* \"#utility.yul\":9978:10397   */\n    tag_77:\n        /* \"#utility.yul\":10144:10148   */\n      0x00\n        /* \"#utility.yul\":10182:10184   */\n      0x20\n        /* \"#utility.yul\":10171:10180   */\n      dup3\n        /* \"#utility.yul\":10167:10185   */\n      add\n        /* \"#utility.yul\":10159:10185   */\n      swap1\n      pop\n        /* \"#utility.yul\":10231:10240   */\n      dup2\n        /* \"#utility.yul\":10225:10229   */\n      dup2\n        /* \"#utility.yul\":10221:10241   */\n      sub\n        /* \"#utility.yul\":10217:10218   */\n      0x00\n        /* \"#utility.yul\":10206:10215   */\n      dup4\n        /* \"#utility.yul\":10202:10219   */\n      add\n        /* \"#utility.yul\":10195:10242   */\n      mstore\n        /* \"#utility.yul\":10259:10390   */\n      tag_266\n        /* \"#utility.yul\":10385:10389   */\n      dup2\n        /* \"#utility.yul\":10259:10390   */\n      tag_150\n      jump\t// in\n    tag_266:\n        /* \"#utility.yul\":10251:10390   */\n      swap1\n      pop\n        /* \"#utility.yul\":9978:10397   */\n      swap2\n      swap1\n      pop\n      jump\t// out\n        /* \"#utility.yul\":10403:10629   */\n    tag_151:\n        /* \"#utility.yul\":10543:10577   */\n      0x4f6e6c792061756374696f6e6565722063616e2063616c6c2074686973206675\n        /* \"#utility.yul\":10539:10540   */\n      0x00\n        /* \"#utility.yul\":10531:10537   */\n      dup3\n        /* \"#utility.yul\":10527:10541   */\n      add\n        /* \"#utility.yul\":10520:10578   */\n      mstore\n        /* \"#utility.yul\":10612:10621   */\n      0x6e6374696f6e2e00000000000000000000000000000000000000000000000000\n        /* \"#utility.yul\":10607:10609   */\n      0x20\n        /* \"#utility.yul\":10599:10605   */\n      dup3\n        /* \"#utility.yul\":10595:10610   */\n      add\n        /* \"#utility.yul\":10588:10622   */\n      mstore\n        /* \"#utility.yul\":10403:10629   */\n      pop\n      jump\t// out\n        /* \"#utility.yul\":10635:11001   */\n    tag_152:\n        /* \"#utility.yul\":10777:10780   */\n      0x00\n        /* \"#utility.yul\":10798:10865   */\n      tag_269\n        /* \"#utility.yul\":10862:10864   */\n      0x27\n        /* \"#utility.yul\":10857:10860   */\n      dup4\n        /* \"#utility.yul\":10798:10865   */\n      tag_130\n      jump\t// in\n    tag_269:\n        /* \"#utility.yul\":10791:10865   */\n      swap2\n      pop\n        /* \"#utility.yul\":10874:10967   */\n      tag_270\n        /* \"#utility.yul\":10963:10966   */\n      dup3\n        /* \"#utility.yul\":10874:10967   */\n      tag_151\n      jump\t// in\n    tag_270:\n        /* \"#utility.yul\":10992:10994   */\n      0x40\n        /* \"#utility.yul\":10987:10990   */\n      dup3\n        /* \"#utility.yul\":10983:10995   */\n      add\n        /* \"#utility.yul\":10976:10995   */\n      swap1\n      pop\n        /* \"#utility.yul\":10635:11001   */\n      swap2\n      swap1\n      pop\n      jump\t// out\n        /* \"#utility.yul\":11007:11426   */\n    tag_99:\n        /* \"#utility.yul\":11173:11177   */\n      0x00\n        /* \"#utility.yul\":11211:11213   */\n      0x20\n        /* \"#utility.yul\":11200:11209   */\n      dup3\n        /* \"#utility.yul\":11196:11214   */\n      add\n        /* \"#utility.yul\":11188:11214   */\n      swap1\n      pop\n        /* \"#utility.yul\":11260:11269   */\n      dup2\n        /* \"#utility.yul\":11254:11258   */\n      dup2\n        /* \"#utility.yul\":11250:11270   */\n      sub\n        /* \"#utility.yul\":11246:11247   */\n      0x00\n        /* \"#utility.yul\":11235:11244   */\n      dup4\n        /* \"#utility.yul\":11231:11248   */\n      add\n        /* \"#utility.yul\":11224:11271   */\n      mstore\n        /* \"#utility.yul\":11288:11419   */\n      tag_272\n        /* \"#utility.yul\":11414:11418   */\n      dup2\n        /* \"#utility.yul\":11288:11419   */\n      tag_152\n      jump\t// in\n    tag_272:\n        /* \"#utility.yul\":11280:11419   */\n      swap1\n      pop\n        /* \"#utility.yul\":11007:11426   */\n      swap2\n      swap1\n      pop\n      jump\t// out\n\n    auxdata: 0xa2646970667358221220caaf82939fc02347ba5b6c92d7bdf18b265b9a7de4b01875dbd54640092f8f7f64736f6c634300080e0033\n}\n",
				"bytecode": {
					"linkReferences": {},
					"object": "608060405234801561001057600080fd5b50336000806101000a81548173ffffffffffffffffffffffffffffffffffffffff021916908373ffffffffffffffffffffffffffffffffffffffff160217905550611023806100606000396000f3fe608060405234801561001057600080fd5b50600436106100b45760003560e01c8063a3d6f9a911610071578063a3d6f9a91461017b578063cff29dfd146101ab578063daa0218f146101db578063e7d2a997146101f9578063f356733c14610215578063ff567d8d1461021f576100b4565b80630f3f02b2146100b957806334eb86a2146100e95780637d441a6f146101075780638226ed381461012357806386b8c34c1461013f578063938626c21461015d575b600080fd5b6100d360048036038101906100ce9190610a12565b61023b565b6040516100e09190610ad8565b60405180910390f35b6100f16102db565b6040516100fe9190610b13565b60405180910390f35b610121600480360381019061011c9190610c63565b6102e1565b005b61013d60048036038101906101389190610ceb565b610339565b005b61014761039d565b6040516101549190610ad8565b60405180910390f35b6101656104fa565b6040516101729190610ad8565b60405180910390f35b61019560048036038101906101909190610a12565b610588565b6040516101a29190610ad8565b60405180910390f35b6101c560048036038101906101c09190610d5a565b610628565b6040516101d29190610d96565b60405180910390f35b6101e3610667565b6040516101f09190610b13565b60405180910390f35b610213600480360381019061020e9190610db1565b61066d565b005b61021d610725565b005b61023960048036038101906102349190610e20565b610818565b005b6006602052806000526040600020600091509050805461025a90610e98565b80601f016020809104026020016040519081016040528092919081815260200182805461028690610e98565b80156102d35780601f106102a8576101008083540402835291602001916102d3565b820191906000526020600020905b8154815290600101906020018083116102b657829003601f168201915b505050505081565b60035481565b80600560008473ffffffffffffffffffffffffffffffffffffffff1673ffffffffffffffffffffffffffffffffffffffff16815260200190815260200160002090805190602001906103349291906108fd565b505050565b82600760006101000a81548173ffffffffffffffffffffffffffffffffffffffff021916908373ffffffffffffffffffffffffffffffffffffffff1602179055508160088190555080600990805190602001906103979291906108fd565b50505050565b606060008054906101000a900473ffffffffffffffffffffffffffffffffffffffff1673ffffffffffffffffffffffffffffffffffffffff163373ffffffffffffffffffffffffffffffffffffffff160361042d576040517f08c379a000000000000000000000000000000000000000000000000000000000815260040161042490610f3b565b60405180910390fd5b600560003373ffffffffffffffffffffffffffffffffffffffff1673ffffffffffffffffffffffffffffffffffffffff168152602001908152602001600020805461047790610e98565b80601f01602080910402602001604051908101604052809291908181526020018280546104a390610e98565b80156104f05780601f106104c5576101008083540402835291602001916104f0565b820191906000526020600020905b8154815290600101906020018083116104d357829003601f168201915b5050505050905090565b6002805461050790610e98565b80601f016020809104026020016040519081016040528092919081815260200182805461053390610e98565b80156105805780601f1061055557610100808354040283529160200191610580565b820191906000526020600020905b81548152906001019060200180831161056357829003601f168201915b505050505081565b600560205280600052604060002060009150905080546105a790610e98565b80601f01602080910402602001604051908101604052809291908181526020018280546105d390610e98565b80156106205780601f106105f557610100808354040283529160200191610620565b820191906000526020600020905b81548152906001019060200180831161060357829003601f168201915b505050505081565b6001818154811061063857600080fd5b906000526020600020016000915054906101000a900473ffffffffffffffffffffffffffffffffffffffff1681565b60045481565b60008054906101000a900473ffffffffffffffffffffffffffffffffffffffff1673ffffffffffffffffffffffffffffffffffffffff163373ffffffffffffffffffffffffffffffffffffffff16146106fb576040517f08c379a00000000000000000000000000000000000000000000000000000000081526004016106f290610fcd565b60405180910390fd5b82600290805190602001906107119291906108fd565b508160038190555080600481905550505050565b60008054906101000a900473ffffffffffffffffffffffffffffffffffffffff1673ffffffffffffffffffffffffffffffffffffffff163373ffffffffffffffffffffffffffffffffffffffff16036107b3576040517f08c379a00000000000000000000000000000000000000000000000000000000081526004016107aa90610f3b565b60405180910390fd5b6001339080600181540180825580915050600190039060005260206000200160009091909190916101000a81548173ffffffffffffffffffffffffffffffffffffffff021916908373ffffffffffffffffffffffffffffffffffffffff160217905550565b60008054906101000a900473ffffffffffffffffffffffffffffffffffffffff1673ffffffffffffffffffffffffffffffffffffffff163373ffffffffffffffffffffffffffffffffffffffff16036108a6576040517f08c379a000000000000000000000000000000000000000000000000000000000815260040161089d90610f3b565b60405180910390fd5b80600660003373ffffffffffffffffffffffffffffffffffffffff1673ffffffffffffffffffffffffffffffffffffffff16815260200190815260200160002090805190602001906108f99291906108fd565b5050565b82805461090990610e98565b90600052602060002090601f01602090048101928261092b5760008555610972565b82601f1061094457805160ff1916838001178555610972565b82800160010185558215610972579182015b82811115610971578251825591602001919060010190610956565b5b50905061097f9190610983565b5090565b5b8082111561099c576000816000905550600101610984565b5090565b6000604051905090565b600080fd5b600080fd5b600073ffffffffffffffffffffffffffffffffffffffff82169050919050565b60006109df826109b4565b9050919050565b6109ef816109d4565b81146109fa57600080fd5b50565b600081359050610a0c816109e6565b92915050565b600060208284031215610a2857610a276109aa565b5b6000610a36848285016109fd565b91505092915050565b600081519050919050565b600082825260208201905092915050565b60005b83811015610a79578082015181840152602081019050610a5e565b83811115610a88576000848401525b50505050565b6000601f19601f8301169050919050565b6000610aaa82610a3f565b610ab48185610a4a565b9350610ac4818560208601610a5b565b610acd81610a8e565b840191505092915050565b60006020820190508181036000830152610af28184610a9f565b905092915050565b6000819050919050565b610b0d81610afa565b82525050565b6000602082019050610b286000830184610b04565b92915050565b600080fd5b600080fd5b7f4e487b7100000000000000000000000000000000000000000000000000000000600052604160045260246000fd5b610b7082610a8e565b810181811067ffffffffffffffff82111715610b8f57610b8e610b38565b5b80604052505050565b6000610ba26109a0565b9050610bae8282610b67565b919050565b600067ffffffffffffffff821115610bce57610bcd610b38565b5b610bd782610a8e565b9050602081019050919050565b82818337600083830152505050565b6000610c06610c0184610bb3565b610b98565b905082815260208101848484011115610c2257610c21610b33565b5b610c2d848285610be4565b509392505050565b600082601f830112610c4a57610c49610b2e565b5b8135610c5a848260208601610bf3565b91505092915050565b60008060408385031215610c7a57610c796109aa565b5b6000610c88858286016109fd565b925050602083013567ffffffffffffffff811115610ca957610ca86109af565b5b610cb585828601610c35565b9150509250929050565b610cc881610afa565b8114610cd357600080fd5b50565b600081359050610ce581610cbf565b92915050565b600080600060608486031215610d0457610d036109aa565b5b6000610d12868287016109fd565b9350506020610d2386828701610cd6565b925050604084013567ffffffffffffffff811115610d4457610d436109af565b5b610d5086828701610c35565b9150509250925092565b600060208284031215610d7057610d6f6109aa565b5b6000610d7e84828501610cd6565b91505092915050565b610d90816109d4565b82525050565b6000602082019050610dab6000830184610d87565b92915050565b600080600060608486031215610dca57610dc96109aa565b5b600084013567ffffffffffffffff811115610de857610de76109af565b5b610df486828701610c35565b9350506020610e0586828701610cd6565b9250506040610e1686828701610cd6565b9150509250925092565b600060208284031215610e3657610e356109aa565b5b600082013567ffffffffffffffff811115610e5457610e536109af565b5b610e6084828501610c35565b91505092915050565b7f4e487b7100000000000000000000000000000000000000000000000000000000600052602260045260246000fd5b60006002820490506001821680610eb057607f821691505b602082108103610ec357610ec2610e69565b5b50919050565b7f41756374696f6e656572206973206e6f7420616c6c6f77656420746f2072656760008201527f6973746572206173206120626964646572000000000000000000000000000000602082015250565b6000610f25603183610a4a565b9150610f3082610ec9565b604082019050919050565b60006020820190508181036000830152610f5481610f18565b9050919050565b7f4f6e6c792061756374696f6e6565722063616e2063616c6c207468697320667560008201527f6e6374696f6e2e00000000000000000000000000000000000000000000000000602082015250565b6000610fb7602783610a4a565b9150610fc282610f5b565b604082019050919050565b60006020820190508181036000830152610fe681610faa565b905091905056fea2646970667358221220caaf82939fc02347ba5b6c92d7bdf18b265b9a7de4b01875dbd54640092f8f7f64736f6c634300080e0033",
					"opcodes": "PUSH1 0x80 PUSH1 0x40 MSTORE CALLVALUE DUP1 ISZERO PUSH2 0x10 JUMPI PUSH1 0x0 DUP1 REVERT JUMPDEST POP CALLER PUSH1 0x0 DUP1 PUSH2 0x100 EXP DUP2 SLOAD DUP2 PUSH20 0xFFFFFFFFFFFFFFFFFFFFFFFFFFFFFFFFFFFFFFFF MUL NOT AND SWAP1 DUP4 PUSH20 0xFFFFFFFFFFFFFFFFFFFFFFFFFFFFFFFFFFFFFFFF AND MUL OR SWAP1 SSTORE POP PUSH2 0x1023 DUP1 PUSH2 0x60 PUSH1 0x0 CODECOPY PUSH1 0x0 RETURN INVALID PUSH1 0x80 PUSH1 0x40 MSTORE CALLVALUE DUP1 ISZERO PUSH2 0x10 JUMPI PUSH1 0x0 DUP1 REVERT JUMPDEST POP PUSH1 0x4 CALLDATASIZE LT PUSH2 0xB4 JUMPI PUSH1 0x0 CALLDATALOAD PUSH1 0xE0 SHR DUP1 PUSH4 0xA3D6F9A9 GT PUSH2 0x71 JUMPI DUP1 PUSH4 0xA3D6F9A9 EQ PUSH2 0x17B JUMPI DUP1 PUSH4 0xCFF29DFD EQ PUSH2 0x1AB JUMPI DUP1 PUSH4 0xDAA0218F EQ PUSH2 0x1DB JUMPI DUP1 PUSH4 0xE7D2A997 EQ PUSH2 0x1F9 JUMPI DUP1 PUSH4 0xF356733C EQ PUSH2 0x215 JUMPI DUP1 PUSH4 0xFF567D8D EQ PUSH2 0x21F JUMPI PUSH2 0xB4 JUMP JUMPDEST DUP1 PUSH4 0xF3F02B2 EQ PUSH2 0xB9 JUMPI DUP1 PUSH4 0x34EB86A2 EQ PUSH2 0xE9 JUMPI DUP1 PUSH4 0x7D441A6F EQ PUSH2 0x107 JUMPI DUP1 PUSH4 0x8226ED38 EQ PUSH2 0x123 JUMPI DUP1 PUSH4 0x86B8C34C EQ PUSH2 0x13F JUMPI DUP1 PUSH4 0x938626C2 EQ PUSH2 0x15D JUMPI JUMPDEST PUSH1 0x0 DUP1 REVERT JUMPDEST PUSH2 0xD3 PUSH1 0x4 DUP1 CALLDATASIZE SUB DUP2 ADD SWAP1 PUSH2 0xCE SWAP2 SWAP1 PUSH2 0xA12 JUMP JUMPDEST PUSH2 0x23B JUMP JUMPDEST PUSH1 0x40 MLOAD PUSH2 0xE0 SWAP2 SWAP1 PUSH2 0xAD8 JUMP JUMPDEST PUSH1 0x40 MLOAD DUP1 SWAP2 SUB SWAP1 RETURN JUMPDEST PUSH2 0xF1 PUSH2 0x2DB JUMP JUMPDEST PUSH1 0x40 MLOAD PUSH2 0xFE SWAP2 SWAP1 PUSH2 0xB13 JUMP JUMPDEST PUSH1 0x40 MLOAD DUP1 SWAP2 SUB SWAP1 RETURN JUMPDEST PUSH2 0x121 PUSH1 0x4 DUP1 CALLDATASIZE SUB DUP2 ADD SWAP1 PUSH2 0x11C SWAP2 SWAP1 PUSH2 0xC63 JUMP JUMPDEST PUSH2 0x2E1 JUMP JUMPDEST STOP JUMPDEST PUSH2 0x13D PUSH1 0x4 DUP1 CALLDATASIZE SUB DUP2 ADD SWAP1 PUSH2 0x138 SWAP2 SWAP1 PUSH2 0xCEB JUMP JUMPDEST PUSH2 0x339 JUMP JUMPDEST STOP JUMPDEST PUSH2 0x147 PUSH2 0x39D JUMP JUMPDEST PUSH1 0x40 MLOAD PUSH2 0x154 SWAP2 SWAP1 PUSH2 0xAD8 JUMP JUMPDEST PUSH1 0x40 MLOAD DUP1 SWAP2 SUB SWAP1 RETURN JUMPDEST PUSH2 0x165 PUSH2 0x4FA JUMP JUMPDEST PUSH1 0x40 MLOAD PUSH2 0x172 SWAP2 SWAP1 PUSH2 0xAD8 JUMP JUMPDEST PUSH1 0x40 MLOAD DUP1 SWAP2 SUB SWAP1 RETURN JUMPDEST PUSH2 0x195 PUSH1 0x4 DUP1 CALLDATASIZE SUB DUP2 ADD SWAP1 PUSH2 0x190 SWAP2 SWAP1 PUSH2 0xA12 JUMP JUMPDEST PUSH2 0x588 JUMP JUMPDEST PUSH1 0x40 MLOAD PUSH2 0x1A2 SWAP2 SWAP1 PUSH2 0xAD8 JUMP JUMPDEST PUSH1 0x40 MLOAD DUP1 SWAP2 SUB SWAP1 RETURN JUMPDEST PUSH2 0x1C5 PUSH1 0x4 DUP1 CALLDATASIZE SUB DUP2 ADD SWAP1 PUSH2 0x1C0 SWAP2 SWAP1 PUSH2 0xD5A JUMP JUMPDEST PUSH2 0x628 JUMP JUMPDEST PUSH1 0x40 MLOAD PUSH2 0x1D2 SWAP2 SWAP1 PUSH2 0xD96 JUMP JUMPDEST PUSH1 0x40 MLOAD DUP1 SWAP2 SUB SWAP1 RETURN JUMPDEST PUSH2 0x1E3 PUSH2 0x667 JUMP JUMPDEST PUSH1 0x40 MLOAD PUSH2 0x1F0 SWAP2 SWAP1 PUSH2 0xB13 JUMP JUMPDEST PUSH1 0x40 MLOAD DUP1 SWAP2 SUB SWAP1 RETURN JUMPDEST PUSH2 0x213 PUSH1 0x4 DUP1 CALLDATASIZE SUB DUP2 ADD SWAP1 PUSH2 0x20E SWAP2 SWAP1 PUSH2 0xDB1 JUMP JUMPDEST PUSH2 0x66D JUMP JUMPDEST STOP JUMPDEST PUSH2 0x21D PUSH2 0x725 JUMP JUMPDEST STOP JUMPDEST PUSH2 0x239 PUSH1 0x4 DUP1 CALLDATASIZE SUB DUP2 ADD SWAP1 PUSH2 0x234 SWAP2 SWAP1 PUSH2 0xE20 JUMP JUMPDEST PUSH2 0x818 JUMP JUMPDEST STOP JUMPDEST PUSH1 0x6 PUSH1 0x20 MSTORE DUP1 PUSH1 0x0 MSTORE PUSH1 0x40 PUSH1 0x0 KECCAK256 PUSH1 0x0 SWAP2 POP SWAP1 POP DUP1 SLOAD PUSH2 0x25A SWAP1 PUSH2 0xE98 JUMP JUMPDEST DUP1 PUSH1 0x1F ADD PUSH1 0x20 DUP1 SWAP2 DIV MUL PUSH1 0x20 ADD PUSH1 0x40 MLOAD SWAP1 DUP2 ADD PUSH1 0x40 MSTORE DUP1 SWAP3 SWAP2 SWAP1 DUP2 DUP2 MSTORE PUSH1 0x20 ADD DUP3 DUP1 SLOAD PUSH2 0x286 SWAP1 PUSH2 0xE98 JUMP JUMPDEST DUP1 ISZERO PUSH2 0x2D3 JUMPI DUP1 PUSH1 0x1F LT PUSH2 0x2A8 JUMPI PUSH2 0x100 DUP1 DUP4 SLOAD DIV MUL DUP4 MSTORE SWAP2 PUSH1 0x20 ADD SWAP2 PUSH2 0x2D3 JUMP JUMPDEST DUP3 ADD SWAP2 SWAP1 PUSH1 0x0 MSTORE PUSH1 0x20 PUSH1 0x0 KECCAK256 SWAP1 JUMPDEST DUP2 SLOAD DUP2 MSTORE SWAP1 PUSH1 0x1 ADD SWAP1 PUSH1 0x20 ADD DUP1 DUP4 GT PUSH2 0x2B6 JUMPI DUP3 SWAP1 SUB PUSH1 0x1F AND DUP3 ADD SWAP2 JUMPDEST POP POP POP POP POP DUP2 JUMP JUMPDEST PUSH1 0x3 SLOAD DUP2 JUMP JUMPDEST DUP1 PUSH1 0x5 PUSH1 0x0 DUP5 PUSH20 0xFFFFFFFFFFFFFFFFFFFFFFFFFFFFFFFFFFFFFFFF AND PUSH20 0xFFFFFFFFFFFFFFFFFFFFFFFFFFFFFFFFFFFFFFFF AND DUP2 MSTORE PUSH1 0x20 ADD SWAP1 DUP2 MSTORE PUSH1 0x20 ADD PUSH1 0x0 KECCAK256 SWAP1 DUP1 MLOAD SWAP1 PUSH1 0x20 ADD SWAP1 PUSH2 0x334 SWAP3 SWAP2 SWAP1 PUSH2 0x8FD JUMP JUMPDEST POP POP POP JUMP JUMPDEST DUP3 PUSH1 0x7 PUSH1 0x0 PUSH2 0x100 EXP DUP2 SLOAD DUP2 PUSH20 0xFFFFFFFFFFFFFFFFFFFFFFFFFFFFFFFFFFFFFFFF MUL NOT AND SWAP1 DUP4 PUSH20 0xFFFFFFFFFFFFFFFFFFFFFFFFFFFFFFFFFFFFFFFF AND MUL OR SWAP1 SSTORE POP DUP2 PUSH1 0x8 DUP2 SWAP1 SSTORE POP DUP1 PUSH1 0x9 SWAP1 DUP1 MLOAD SWAP1 PUSH1 0x20 ADD SWAP1 PUSH2 0x397 SWAP3 SWAP2 SWAP1 PUSH2 0x8FD JUMP JUMPDEST POP POP POP POP JUMP JUMPDEST PUSH1 0x60 PUSH1 0x0 DUP1 SLOAD SWAP1 PUSH2 0x100 EXP SWAP1 DIV PUSH20 0xFFFFFFFFFFFFFFFFFFFFFFFFFFFFFFFFFFFFFFFF AND PUSH20 0xFFFFFFFFFFFFFFFFFFFFFFFFFFFFFFFFFFFFFFFF AND CALLER PUSH20 0xFFFFFFFFFFFFFFFFFFFFFFFFFFFFFFFFFFFFFFFF AND SUB PUSH2 0x42D JUMPI PUSH1 0x40 MLOAD PUSH32 0x8C379A000000000000000000000000000000000000000000000000000000000 DUP2 MSTORE PUSH1 0x4 ADD PUSH2 0x424 SWAP1 PUSH2 0xF3B JUMP JUMPDEST PUSH1 0x40 MLOAD DUP1 SWAP2 SUB SWAP1 REVERT JUMPDEST PUSH1 0x5 PUSH1 0x0 CALLER PUSH20 0xFFFFFFFFFFFFFFFFFFFFFFFFFFFFFFFFFFFFFFFF AND PUSH20 0xFFFFFFFFFFFFFFFFFFFFFFFFFFFFFFFFFFFFFFFF AND DUP2 MSTORE PUSH1 0x20 ADD SWAP1 DUP2 MSTORE PUSH1 0x20 ADD PUSH1 0x0 KECCAK256 DUP1 SLOAD PUSH2 0x477 SWAP1 PUSH2 0xE98 JUMP JUMPDEST DUP1 PUSH1 0x1F ADD PUSH1 0x20 DUP1 SWAP2 DIV MUL PUSH1 0x20 ADD PUSH1 0x40 MLOAD SWAP1 DUP2 ADD PUSH1 0x40 MSTORE DUP1 SWAP3 SWAP2 SWAP1 DUP2 DUP2 MSTORE PUSH1 0x20 ADD DUP3 DUP1 SLOAD PUSH2 0x4A3 SWAP1 PUSH2 0xE98 JUMP JUMPDEST DUP1 ISZERO PUSH2 0x4F0 JUMPI DUP1 PUSH1 0x1F LT PUSH2 0x4C5 JUMPI PUSH2 0x100 DUP1 DUP4 SLOAD DIV MUL DUP4 MSTORE SWAP2 PUSH1 0x20 ADD SWAP2 PUSH2 0x4F0 JUMP JUMPDEST DUP3 ADD SWAP2 SWAP1 PUSH1 0x0 MSTORE PUSH1 0x20 PUSH1 0x0 KECCAK256 SWAP1 JUMPDEST DUP2 SLOAD DUP2 MSTORE SWAP1 PUSH1 0x1 ADD SWAP1 PUSH1 0x20 ADD DUP1 DUP4 GT PUSH2 0x4D3 JUMPI DUP3 SWAP1 SUB PUSH1 0x1F AND DUP3 ADD SWAP2 JUMPDEST POP POP POP POP POP SWAP1 POP SWAP1 JUMP JUMPDEST PUSH1 0x2 DUP1 SLOAD PUSH2 0x507 SWAP1 PUSH2 0xE98 JUMP JUMPDEST DUP1 PUSH1 0x1F ADD PUSH1 0x20 DUP1 SWAP2 DIV MUL PUSH1 0x20 ADD PUSH1 0x40 MLOAD SWAP1 DUP2 ADD PUSH1 0x40 MSTORE DUP1 SWAP3 SWAP2 SWAP1 DUP2 DUP2 MSTORE PUSH1 0x20 ADD DUP3 DUP1 SLOAD PUSH2 0x533 SWAP1 PUSH2 0xE98 JUMP JUMPDEST DUP1 ISZERO PUSH2 0x580 JUMPI DUP1 PUSH1 0x1F LT PUSH2 0x555 JUMPI PUSH2 0x100 DUP1 DUP4 SLOAD DIV MUL DUP4 MSTORE SWAP2 PUSH1 0x20 ADD SWAP2 PUSH2 0x580 JUMP JUMPDEST DUP3 ADD SWAP2 SWAP1 PUSH1 0x0 MSTORE PUSH1 0x20 PUSH1 0x0 KECCAK256 SWAP1 JUMPDEST DUP2 SLOAD DUP2 MSTORE SWAP1 PUSH1 0x1 ADD SWAP1 PUSH1 0x20 ADD DUP1 DUP4 GT PUSH2 0x563 JUMPI DUP3 SWAP1 SUB PUSH1 0x1F AND DUP3 ADD SWAP2 JUMPDEST POP POP POP POP POP DUP2 JUMP JUMPDEST PUSH1 0x5 PUSH1 0x20 MSTORE DUP1 PUSH1 0x0 MSTORE PUSH1 0x40 PUSH1 0x0 KECCAK256 PUSH1 0x0 SWAP2 POP SWAP1 POP DUP1 SLOAD PUSH2 0x5A7 SWAP1 PUSH2 0xE98 JUMP JUMPDEST DUP1 PUSH1 0x1F ADD PUSH1 0x20 DUP1 SWAP2 DIV MUL PUSH1 0x20 ADD PUSH1 0x40 MLOAD SWAP1 DUP2 ADD PUSH1 0x40 MSTORE DUP1 SWAP3 SWAP2 SWAP1 DUP2 DUP2 MSTORE PUSH1 0x20 ADD DUP3 DUP1 SLOAD PUSH2 0x5D3 SWAP1 PUSH2 0xE98 JUMP JUMPDEST DUP1 ISZERO PUSH2 0x620 JUMPI DUP1 PUSH1 0x1F LT PUSH2 0x5F5 JUMPI PUSH2 0x100 DUP1 DUP4 SLOAD DIV MUL DUP4 MSTORE SWAP2 PUSH1 0x20 ADD SWAP2 PUSH2 0x620 JUMP JUMPDEST DUP3 ADD SWAP2 SWAP1 PUSH1 0x0 MSTORE PUSH1 0x20 PUSH1 0x0 KECCAK256 SWAP1 JUMPDEST DUP2 SLOAD DUP2 MSTORE SWAP1 PUSH1 0x1 ADD SWAP1 PUSH1 0x20 ADD DUP1 DUP4 GT PUSH2 0x603 JUMPI DUP3 SWAP1 SUB PUSH1 0x1F AND DUP3 ADD SWAP2 JUMPDEST POP POP POP POP POP DUP2 JUMP JUMPDEST PUSH1 0x1 DUP2 DUP2 SLOAD DUP2 LT PUSH2 0x638 JUMPI PUSH1 0x0 DUP1 REVERT JUMPDEST SWAP1 PUSH1 0x0 MSTORE PUSH1 0x20 PUSH1 0x0 KECCAK256 ADD PUSH1 0x0 SWAP2 POP SLOAD SWAP1 PUSH2 0x100 EXP SWAP1 DIV PUSH20 0xFFFFFFFFFFFFFFFFFFFFFFFFFFFFFFFFFFFFFFFF AND DUP2 JUMP JUMPDEST PUSH1 0x4 SLOAD DUP2 JUMP JUMPDEST PUSH1 0x0 DUP1 SLOAD SWAP1 PUSH2 0x100 EXP SWAP1 DIV PUSH20 0xFFFFFFFFFFFFFFFFFFFFFFFFFFFFFFFFFFFFFFFF AND PUSH20 0xFFFFFFFFFFFFFFFFFFFFFFFFFFFFFFFFFFFFFFFF AND CALLER PUSH20 0xFFFFFFFFFFFFFFFFFFFFFFFFFFFFFFFFFFFFFFFF AND EQ PUSH2 0x6FB JUMPI PUSH1 0x40 MLOAD PUSH32 0x8C379A000000000000000000000000000000000000000000000000000000000 DUP2 MSTORE PUSH1 0x4 ADD PUSH2 0x6F2 SWAP1 PUSH2 0xFCD JUMP JUMPDEST PUSH1 0x40 MLOAD DUP1 SWAP2 SUB SWAP1 REVERT JUMPDEST DUP3 PUSH1 0x2 SWAP1 DUP1 MLOAD SWAP1 PUSH1 0x20 ADD SWAP1 PUSH2 0x711 SWAP3 SWAP2 SWAP1 PUSH2 0x8FD JUMP JUMPDEST POP DUP2 PUSH1 0x3 DUP2 SWAP1 SSTORE POP DUP1 PUSH1 0x4 DUP2 SWAP1 SSTORE POP POP POP POP JUMP JUMPDEST PUSH1 0x0 DUP1 SLOAD SWAP1 PUSH2 0x100 EXP SWAP1 DIV PUSH20 0xFFFFFFFFFFFFFFFFFFFFFFFFFFFFFFFFFFFFFFFF AND PUSH20 0xFFFFFFFFFFFFFFFFFFFFFFFFFFFFFFFFFFFFFFFF AND CALLER PUSH20 0xFFFFFFFFFFFFFFFFFFFFFFFFFFFFFFFFFFFFFFFF AND SUB PUSH2 0x7B3 JUMPI PUSH1 0x40 MLOAD PUSH32 0x8C379A000000000000000000000000000000000000000000000000000000000 DUP2 MSTORE PUSH1 0x4 ADD PUSH2 0x7AA SWAP1 PUSH2 0xF3B JUMP JUMPDEST PUSH1 0x40 MLOAD DUP1 SWAP2 SUB SWAP1 REVERT JUMPDEST PUSH1 0x1 CALLER SWAP1 DUP1 PUSH1 0x1 DUP2 SLOAD ADD DUP1 DUP3 SSTORE DUP1 SWAP2 POP POP PUSH1 0x1 SWAP1 SUB SWAP1 PUSH1 0x0 MSTORE PUSH1 0x20 PUSH1 0x0 KECCAK256 ADD PUSH1 0x0 SWAP1 SWAP2 SWAP1 SWAP2 SWAP1 SWAP2 PUSH2 0x100 EXP DUP2 SLOAD DUP2 PUSH20 0xFFFFFFFFFFFFFFFFFFFFFFFFFFFFFFFFFFFFFFFF MUL NOT AND SWAP1 DUP4 PUSH20 0xFFFFFFFFFFFFFFFFFFFFFFFFFFFFFFFFFFFFFFFF AND MUL OR SWAP1 SSTORE POP JUMP JUMPDEST PUSH1 0x0 DUP1 SLOAD SWAP1 PUSH2 0x100 EXP SWAP1 DIV PUSH20 0xFFFFFFFFFFFFFFFFFFFFFFFFFFFFFFFFFFFFFFFF AND PUSH20 0xFFFFFFFFFFFFFFFFFFFFFFFFFFFFFFFFFFFFFFFF AND CALLER PUSH20 0xFFFFFFFFFFFFFFFFFFFFFFFFFFFFFFFFFFFFFFFF AND SUB PUSH2 0x8A6 JUMPI PUSH1 0x40 MLOAD PUSH32 0x8C379A000000000000000000000000000000000000000000000000000000000 DUP2 MSTORE PUSH1 0x4 ADD PUSH2 0x89D SWAP1 PUSH2 0xF3B JUMP JUMPDEST PUSH1 0x40 MLOAD DUP1 SWAP2 SUB SWAP1 REVERT JUMPDEST DUP1 PUSH1 0x6 PUSH1 0x0 CALLER PUSH20 0xFFFFFFFFFFFFFFFFFFFFFFFFFFFFFFFFFFFFFFFF AND PUSH20 0xFFFFFFFFFFFFFFFFFFFFFFFFFFFFFFFFFFFFFFFF AND DUP2 MSTORE PUSH1 0x20 ADD SWAP1 DUP2 MSTORE PUSH1 0x20 ADD PUSH1 0x0 KECCAK256 SWAP1 DUP1 MLOAD SWAP1 PUSH1 0x20 ADD SWAP1 PUSH2 0x8F9 SWAP3 SWAP2 SWAP1 PUSH2 0x8FD JUMP JUMPDEST POP POP JUMP JUMPDEST DUP3 DUP1 SLOAD PUSH2 0x909 SWAP1 PUSH2 0xE98 JUMP JUMPDEST SWAP1 PUSH1 0x0 MSTORE PUSH1 0x20 PUSH1 0x0 KECCAK256 SWAP1 PUSH1 0x1F ADD PUSH1 0x20 SWAP1 DIV DUP2 ADD SWAP3 DUP3 PUSH2 0x92B JUMPI PUSH1 0x0 DUP6 SSTORE PUSH2 0x972 JUMP JUMPDEST DUP3 PUSH1 0x1F LT PUSH2 0x944 JUMPI DUP1 MLOAD PUSH1 0xFF NOT AND DUP4 DUP1 ADD OR DUP6 SSTORE PUSH2 0x972 JUMP JUMPDEST DUP3 DUP1 ADD PUSH1 0x1 ADD DUP6 SSTORE DUP3 ISZERO PUSH2 0x972 JUMPI SWAP2 DUP3 ADD JUMPDEST DUP3 DUP2 GT ISZERO PUSH2 0x971 JUMPI DUP3 MLOAD DUP3 SSTORE SWAP2 PUSH1 0x20 ADD SWAP2 SWAP1 PUSH1 0x1 ADD SWAP1 PUSH2 0x956 JUMP JUMPDEST JUMPDEST POP SWAP1 POP PUSH2 0x97F SWAP2 SWAP1 PUSH2 0x983 JUMP JUMPDEST POP SWAP1 JUMP JUMPDEST JUMPDEST DUP1 DUP3 GT ISZERO PUSH2 0x99C JUMPI PUSH1 0x0 DUP2 PUSH1 0x0 SWAP1 SSTORE POP PUSH1 0x1 ADD PUSH2 0x984 JUMP JUMPDEST POP SWAP1 JUMP JUMPDEST PUSH1 0x0 PUSH1 0x40 MLOAD SWAP1 POP SWAP1 JUMP JUMPDEST PUSH1 0x0 DUP1 REVERT JUMPDEST PUSH1 0x0 DUP1 REVERT JUMPDEST PUSH1 0x0 PUSH20 0xFFFFFFFFFFFFFFFFFFFFFFFFFFFFFFFFFFFFFFFF DUP3 AND SWAP1 POP SWAP2 SWAP1 POP JUMP JUMPDEST PUSH1 0x0 PUSH2 0x9DF DUP3 PUSH2 0x9B4 JUMP JUMPDEST SWAP1 POP SWAP2 SWAP1 POP JUMP JUMPDEST PUSH2 0x9EF DUP2 PUSH2 0x9D4 JUMP JUMPDEST DUP2 EQ PUSH2 0x9FA JUMPI PUSH1 0x0 DUP1 REVERT JUMPDEST POP JUMP JUMPDEST PUSH1 0x0 DUP2 CALLDATALOAD SWAP1 POP PUSH2 0xA0C DUP2 PUSH2 0x9E6 JUMP JUMPDEST SWAP3 SWAP2 POP POP JUMP JUMPDEST PUSH1 0x0 PUSH1 0x20 DUP3 DUP5 SUB SLT ISZERO PUSH2 0xA28 JUMPI PUSH2 0xA27 PUSH2 0x9AA JUMP JUMPDEST JUMPDEST PUSH1 0x0 PUSH2 0xA36 DUP5 DUP3 DUP6 ADD PUSH2 0x9FD JUMP JUMPDEST SWAP2 POP POP SWAP3 SWAP2 POP POP JUMP JUMPDEST PUSH1 0x0 DUP2 MLOAD SWAP1 POP SWAP2 SWAP1 POP JUMP JUMPDEST PUSH1 0x0 DUP3 DUP3 MSTORE PUSH1 0x20 DUP3 ADD SWAP1 POP SWAP3 SWAP2 POP POP JUMP JUMPDEST PUSH1 0x0 JUMPDEST DUP4 DUP2 LT ISZERO PUSH2 0xA79 JUMPI DUP1 DUP3 ADD MLOAD DUP2 DUP5 ADD MSTORE PUSH1 0x20 DUP2 ADD SWAP1 POP PUSH2 0xA5E JUMP JUMPDEST DUP4 DUP2 GT ISZERO PUSH2 0xA88 JUMPI PUSH1 0x0 DUP5 DUP5 ADD MSTORE JUMPDEST POP POP POP POP JUMP JUMPDEST PUSH1 0x0 PUSH1 0x1F NOT PUSH1 0x1F DUP4 ADD AND SWAP1 POP SWAP2 SWAP1 POP JUMP JUMPDEST PUSH1 0x0 PUSH2 0xAAA DUP3 PUSH2 0xA3F JUMP JUMPDEST PUSH2 0xAB4 DUP2 DUP6 PUSH2 0xA4A JUMP JUMPDEST SWAP4 POP PUSH2 0xAC4 DUP2 DUP6 PUSH1 0x20 DUP7 ADD PUSH2 0xA5B JUMP JUMPDEST PUSH2 0xACD DUP2 PUSH2 0xA8E JUMP JUMPDEST DUP5 ADD SWAP2 POP POP SWAP3 SWAP2 POP POP JUMP JUMPDEST PUSH1 0x0 PUSH1 0x20 DUP3 ADD SWAP1 POP DUP2 DUP2 SUB PUSH1 0x0 DUP4 ADD MSTORE PUSH2 0xAF2 DUP2 DUP5 PUSH2 0xA9F JUMP JUMPDEST SWAP1 POP SWAP3 SWAP2 POP POP JUMP JUMPDEST PUSH1 0x0 DUP2 SWAP1 POP SWAP2 SWAP1 POP JUMP JUMPDEST PUSH2 0xB0D DUP2 PUSH2 0xAFA JUMP JUMPDEST DUP3 MSTORE POP POP JUMP JUMPDEST PUSH1 0x0 PUSH1 0x20 DUP3 ADD SWAP1 POP PUSH2 0xB28 PUSH1 0x0 DUP4 ADD DUP5 PUSH2 0xB04 JUMP JUMPDEST SWAP3 SWAP2 POP POP JUMP JUMPDEST PUSH1 0x0 DUP1 REVERT JUMPDEST PUSH1 0x0 DUP1 REVERT JUMPDEST PUSH32 0x4E487B7100000000000000000000000000000000000000000000000000000000 PUSH1 0x0 MSTORE PUSH1 0x41 PUSH1 0x4 MSTORE PUSH1 0x24 PUSH1 0x0 REVERT JUMPDEST PUSH2 0xB70 DUP3 PUSH2 0xA8E JUMP JUMPDEST DUP2 ADD DUP2 DUP2 LT PUSH8 0xFFFFFFFFFFFFFFFF DUP3 GT OR ISZERO PUSH2 0xB8F JUMPI PUSH2 0xB8E PUSH2 0xB38 JUMP JUMPDEST JUMPDEST DUP1 PUSH1 0x40 MSTORE POP POP POP JUMP JUMPDEST PUSH1 0x0 PUSH2 0xBA2 PUSH2 0x9A0 JUMP JUMPDEST SWAP1 POP PUSH2 0xBAE DUP3 DUP3 PUSH2 0xB67 JUMP JUMPDEST SWAP2 SWAP1 POP JUMP JUMPDEST PUSH1 0x0 PUSH8 0xFFFFFFFFFFFFFFFF DUP3 GT ISZERO PUSH2 0xBCE JUMPI PUSH2 0xBCD PUSH2 0xB38 JUMP JUMPDEST JUMPDEST PUSH2 0xBD7 DUP3 PUSH2 0xA8E JUMP JUMPDEST SWAP1 POP PUSH1 0x20 DUP2 ADD SWAP1 POP SWAP2 SWAP1 POP JUMP JUMPDEST DUP3 DUP2 DUP4 CALLDATACOPY PUSH1 0x0 DUP4 DUP4 ADD MSTORE POP POP POP JUMP JUMPDEST PUSH1 0x0 PUSH2 0xC06 PUSH2 0xC01 DUP5 PUSH2 0xBB3 JUMP JUMPDEST PUSH2 0xB98 JUMP JUMPDEST SWAP1 POP DUP3 DUP2 MSTORE PUSH1 0x20 DUP2 ADD DUP5 DUP5 DUP5 ADD GT ISZERO PUSH2 0xC22 JUMPI PUSH2 0xC21 PUSH2 0xB33 JUMP JUMPDEST JUMPDEST PUSH2 0xC2D DUP5 DUP3 DUP6 PUSH2 0xBE4 JUMP JUMPDEST POP SWAP4 SWAP3 POP POP POP JUMP JUMPDEST PUSH1 0x0 DUP3 PUSH1 0x1F DUP4 ADD SLT PUSH2 0xC4A JUMPI PUSH2 0xC49 PUSH2 0xB2E JUMP JUMPDEST JUMPDEST DUP2 CALLDATALOAD PUSH2 0xC5A DUP5 DUP3 PUSH1 0x20 DUP7 ADD PUSH2 0xBF3 JUMP JUMPDEST SWAP2 POP POP SWAP3 SWAP2 POP POP JUMP JUMPDEST PUSH1 0x0 DUP1 PUSH1 0x40 DUP4 DUP6 SUB SLT ISZERO PUSH2 0xC7A JUMPI PUSH2 0xC79 PUSH2 0x9AA JUMP JUMPDEST JUMPDEST PUSH1 0x0 PUSH2 0xC88 DUP6 DUP3 DUP7 ADD PUSH2 0x9FD JUMP JUMPDEST SWAP3 POP POP PUSH1 0x20 DUP4 ADD CALLDATALOAD PUSH8 0xFFFFFFFFFFFFFFFF DUP2 GT ISZERO PUSH2 0xCA9 JUMPI PUSH2 0xCA8 PUSH2 0x9AF JUMP JUMPDEST JUMPDEST PUSH2 0xCB5 DUP6 DUP3 DUP7 ADD PUSH2 0xC35 JUMP JUMPDEST SWAP2 POP POP SWAP3 POP SWAP3 SWAP1 POP JUMP JUMPDEST PUSH2 0xCC8 DUP2 PUSH2 0xAFA JUMP JUMPDEST DUP2 EQ PUSH2 0xCD3 JUMPI PUSH1 0x0 DUP1 REVERT JUMPDEST POP JUMP JUMPDEST PUSH1 0x0 DUP2 CALLDATALOAD SWAP1 POP PUSH2 0xCE5 DUP2 PUSH2 0xCBF JUMP JUMPDEST SWAP3 SWAP2 POP POP JUMP JUMPDEST PUSH1 0x0 DUP1 PUSH1 0x0 PUSH1 0x60 DUP5 DUP7 SUB SLT ISZERO PUSH2 0xD04 JUMPI PUSH2 0xD03 PUSH2 0x9AA JUMP JUMPDEST JUMPDEST PUSH1 0x0 PUSH2 0xD12 DUP7 DUP3 DUP8 ADD PUSH2 0x9FD JUMP JUMPDEST SWAP4 POP POP PUSH1 0x20 PUSH2 0xD23 DUP7 DUP3 DUP8 ADD PUSH2 0xCD6 JUMP JUMPDEST SWAP3 POP POP PUSH1 0x40 DUP5 ADD CALLDATALOAD PUSH8 0xFFFFFFFFFFFFFFFF DUP2 GT ISZERO PUSH2 0xD44 JUMPI PUSH2 0xD43 PUSH2 0x9AF JUMP JUMPDEST JUMPDEST PUSH2 0xD50 DUP7 DUP3 DUP8 ADD PUSH2 0xC35 JUMP JUMPDEST SWAP2 POP POP SWAP3 POP SWAP3 POP SWAP3 JUMP JUMPDEST PUSH1 0x0 PUSH1 0x20 DUP3 DUP5 SUB SLT ISZERO PUSH2 0xD70 JUMPI PUSH2 0xD6F PUSH2 0x9AA JUMP JUMPDEST JUMPDEST PUSH1 0x0 PUSH2 0xD7E DUP5 DUP3 DUP6 ADD PUSH2 0xCD6 JUMP JUMPDEST SWAP2 POP POP SWAP3 SWAP2 POP POP JUMP JUMPDEST PUSH2 0xD90 DUP2 PUSH2 0x9D4 JUMP JUMPDEST DUP3 MSTORE POP POP JUMP JUMPDEST PUSH1 0x0 PUSH1 0x20 DUP3 ADD SWAP1 POP PUSH2 0xDAB PUSH1 0x0 DUP4 ADD DUP5 PUSH2 0xD87 JUMP JUMPDEST SWAP3 SWAP2 POP POP JUMP JUMPDEST PUSH1 0x0 DUP1 PUSH1 0x0 PUSH1 0x60 DUP5 DUP7 SUB SLT ISZERO PUSH2 0xDCA JUMPI PUSH2 0xDC9 PUSH2 0x9AA JUMP JUMPDEST JUMPDEST PUSH1 0x0 DUP5 ADD CALLDATALOAD PUSH8 0xFFFFFFFFFFFFFFFF DUP2 GT ISZERO PUSH2 0xDE8 JUMPI PUSH2 0xDE7 PUSH2 0x9AF JUMP JUMPDEST JUMPDEST PUSH2 0xDF4 DUP7 DUP3 DUP8 ADD PUSH2 0xC35 JUMP JUMPDEST SWAP4 POP POP PUSH1 0x20 PUSH2 0xE05 DUP7 DUP3 DUP8 ADD PUSH2 0xCD6 JUMP JUMPDEST SWAP3 POP POP PUSH1 0x40 PUSH2 0xE16 DUP7 DUP3 DUP8 ADD PUSH2 0xCD6 JUMP JUMPDEST SWAP2 POP POP SWAP3 POP SWAP3 POP SWAP3 JUMP JUMPDEST PUSH1 0x0 PUSH1 0x20 DUP3 DUP5 SUB SLT ISZERO PUSH2 0xE36 JUMPI PUSH2 0xE35 PUSH2 0x9AA JUMP JUMPDEST JUMPDEST PUSH1 0x0 DUP3 ADD CALLDATALOAD PUSH8 0xFFFFFFFFFFFFFFFF DUP2 GT ISZERO PUSH2 0xE54 JUMPI PUSH2 0xE53 PUSH2 0x9AF JUMP JUMPDEST JUMPDEST PUSH2 0xE60 DUP5 DUP3 DUP6 ADD PUSH2 0xC35 JUMP JUMPDEST SWAP2 POP POP SWAP3 SWAP2 POP POP JUMP JUMPDEST PUSH32 0x4E487B7100000000000000000000000000000000000000000000000000000000 PUSH1 0x0 MSTORE PUSH1 0x22 PUSH1 0x4 MSTORE PUSH1 0x24 PUSH1 0x0 REVERT JUMPDEST PUSH1 0x0 PUSH1 0x2 DUP3 DIV SWAP1 POP PUSH1 0x1 DUP3 AND DUP1 PUSH2 0xEB0 JUMPI PUSH1 0x7F DUP3 AND SWAP2 POP JUMPDEST PUSH1 0x20 DUP3 LT DUP2 SUB PUSH2 0xEC3 JUMPI PUSH2 0xEC2 PUSH2 0xE69 JUMP JUMPDEST JUMPDEST POP SWAP2 SWAP1 POP JUMP JUMPDEST PUSH32 0x41756374696F6E656572206973206E6F7420616C6C6F77656420746F20726567 PUSH1 0x0 DUP3 ADD MSTORE PUSH32 0x6973746572206173206120626964646572000000000000000000000000000000 PUSH1 0x20 DUP3 ADD MSTORE POP JUMP JUMPDEST PUSH1 0x0 PUSH2 0xF25 PUSH1 0x31 DUP4 PUSH2 0xA4A JUMP JUMPDEST SWAP2 POP PUSH2 0xF30 DUP3 PUSH2 0xEC9 JUMP JUMPDEST PUSH1 0x40 DUP3 ADD SWAP1 POP SWAP2 SWAP1 POP JUMP JUMPDEST PUSH1 0x0 PUSH1 0x20 DUP3 ADD SWAP1 POP DUP2 DUP2 SUB PUSH1 0x0 DUP4 ADD MSTORE PUSH2 0xF54 DUP2 PUSH2 0xF18 JUMP JUMPDEST SWAP1 POP SWAP2 SWAP1 POP JUMP JUMPDEST PUSH32 0x4F6E6C792061756374696F6E6565722063616E2063616C6C2074686973206675 PUSH1 0x0 DUP3 ADD MSTORE PUSH32 0x6E6374696F6E2E00000000000000000000000000000000000000000000000000 PUSH1 0x20 DUP3 ADD MSTORE POP JUMP JUMPDEST PUSH1 0x0 PUSH2 0xFB7 PUSH1 0x27 DUP4 PUSH2 0xA4A JUMP JUMPDEST SWAP2 POP PUSH2 0xFC2 DUP3 PUSH2 0xF5B JUMP JUMPDEST PUSH1 0x40 DUP3 ADD SWAP1 POP SWAP2 SWAP1 POP JUMP JUMPDEST PUSH1 0x0 PUSH1 0x20 DUP3 ADD SWAP1 POP DUP2 DUP2 SUB PUSH1 0x0 DUP4 ADD MSTORE PUSH2 0xFE6 DUP2 PUSH2 0xFAA JUMP JUMPDEST SWAP1 POP SWAP2 SWAP1 POP JUMP INVALID LOG2 PUSH5 0x6970667358 0x22 SLT KECCAK256 0xCA 0xAF DUP3 SWAP4 SWAP16 0xC0 0x23 SELFBALANCE 0xBA JUMPDEST PUSH13 0x92D7BDF18B265B9A7DE4B01875 0xDB 0xD5 CHAINID BLOCKHASH MULMOD 0x2F DUP16 PUSH32 0x64736F6C634300080E0033000000000000000000000000000000000000000000 "
				},
				"gasEstimates": {
					"creation": {
						"codeDepositCost": "826200",
						"executionCost": "25130",
						"totalCost": "851330"
					},
					"external": {
						"assetDescription()": "infinite",
						"bidders(uint256)": "4978",
						"encryptedBids(address)": "infinite",
						"getMyPublicKey()": "infinite",
						"minBidPrice()": "2452",
						"minNumberOfBidders()": "2473",
						"publicKeys(address)": "infinite",
						"registerAuctionInfo(string,uint256,uint256)": "infinite",
						"registerBidder()": "50977",
						"submitEncryptedBid(string)": "infinite",
						"submitPublicKeys(address,string)": "infinite",
						"submitWinner(address,uint256,string)": "infinite"
					}
				},
				"methodIdentifiers": {
					"assetDescription()": "938626c2",
					"bidders(uint256)": "cff29dfd",
					"encryptedBids(address)": "0f3f02b2",
					"getMyPublicKey()": "86b8c34c",
					"minBidPrice()": "34eb86a2",
					"minNumberOfBidders()": "daa0218f",
					"publicKeys(address)": "a3d6f9a9",
					"registerAuctionInfo(string,uint256,uint256)": "e7d2a997",
					"registerBidder()": "f356733c",
					"submitEncryptedBid(string)": "ff567d8d",
					"submitPublicKeys(address,string)": "7d441a6f",
					"submitWinner(address,uint256,string)": "8226ed38"
				}
			},
			"storageLayout": {
				"storage": [
					{
						"astId": 3,
						"contract": "Contracts/AKEB.sol:AKEB",
						"label": "auctioneer",
						"offset": 0,
						"slot": "0",
						"type": "t_address"
					},
					{
						"astId": 6,
						"contract": "Contracts/AKEB.sol:AKEB",
						"label": "bidders",
						"offset": 0,
						"slot": "1",
						"type": "t_array(t_address)dyn_storage"
					},
					{
						"astId": 8,
						"contract": "Contracts/AKEB.sol:AKEB",
						"label": "assetDescription",
						"offset": 0,
						"slot": "2",
						"type": "t_string_storage"
					},
					{
						"astId": 10,
						"contract": "Contracts/AKEB.sol:AKEB",
						"label": "minBidPrice",
						"offset": 0,
						"slot": "3",
						"type": "t_uint256"
					},
					{
						"astId": 12,
						"contract": "Contracts/AKEB.sol:AKEB",
						"label": "minNumberOfBidders",
						"offset": 0,
						"slot": "4",
						"type": "t_uint256"
					},
					{
						"astId": 16,
						"contract": "Contracts/AKEB.sol:AKEB",
						"label": "publicKeys",
						"offset": 0,
						"slot": "5",
						"type": "t_mapping(t_address,t_string_storage)"
					},
					{
						"astId": 20,
						"contract": "Contracts/AKEB.sol:AKEB",
						"label": "encryptedBids",
						"offset": 0,
						"slot": "6",
						"type": "t_mapping(t_address,t_string_storage)"
					},
					{
						"astId": 22,
						"contract": "Contracts/AKEB.sol:AKEB",
						"label": "winnerAddress",
						"offset": 0,
						"slot": "7",
						"type": "t_address"
					},
					{
						"astId": 24,
						"contract": "Contracts/AKEB.sol:AKEB",
						"label": "winnerBid",
						"offset": 0,
						"slot": "8",
						"type": "t_uint256"
					},
					{
						"astId": 26,
						"contract": "Contracts/AKEB.sol:AKEB",
						"label": "winnerPrivateKey",
						"offset": 0,
						"slot": "9",
						"type": "t_string_storage"
					}
				],
				"types": {
					"t_address": {
						"encoding": "inplace",
						"label": "address",
						"numberOfBytes": "20"
					},
					"t_array(t_address)dyn_storage": {
						"base": "t_address",
						"encoding": "dynamic_array",
						"label": "address[]",
						"numberOfBytes": "32"
					},
					"t_mapping(t_address,t_string_storage)": {
						"encoding": "mapping",
						"key": "t_address",
						"label": "mapping(address => string)",
						"numberOfBytes": "32",
						"value": "t_string_storage"
					},
					"t_string_storage": {
						"encoding": "bytes",
						"label": "string",
						"numberOfBytes": "32"
					},
					"t_uint256": {
						"encoding": "inplace",
						"label": "uint256",
						"numberOfBytes": "32"
					}
				}
			},
			"userdoc": {
				"kind": "user",
				"methods": {},
				"version": 1
			}
		}
	}
}