{
	"Contracts/AKEB.sol": {
		"AKEB": {
			"abi": [
				{
					"inputs": [],
					"name": "assetDescription",
					"outputs": [
						{
							"internalType": "string",
							"name": "",
							"type": "string"
						}
					],
					"stateMutability": "view",
					"type": "function"
				},
				{
					"inputs": [
						{
							"internalType": "uint256",
							"name": "",
							"type": "uint256"
						}
					],
					"name": "bidders",
					"outputs": [
						{
							"internalType": "address",
							"name": "",
							"type": "address"
						}
					],
					"stateMutability": "view",
					"type": "function"
				},
				{
					"inputs": [
						{
							"internalType": "uint256",
							"name": "inputDisputedBid",
							"type": "uint256"
						},
						{
							"internalType": "string",
							"name": "inputDisputedKey",
							"type": "string"
						}
					],
					"name": "dispute",
					"outputs": [],
					"stateMutability": "nonpayable",
					"type": "function"
				},
				{
					"inputs": [
						{
							"internalType": "uint256",
							"name": "",
							"type": "uint256"
						}
					],
					"name": "disputedBidders",
					"outputs": [
						{
							"internalType": "uint256",
							"name": "bid",
							"type": "uint256"
						},
						{
							"internalType": "address",
							"name": "disputeAddress",
							"type": "address"
						},
						{
							"internalType": "string",
							"name": "key",
							"type": "string"
						}
					],
					"stateMutability": "view",
					"type": "function"
				},
				{
					"inputs": [
						{
							"internalType": "address",
							"name": "",
							"type": "address"
						}
					],
					"name": "encodedBids",
					"outputs": [
						{
							"internalType": "string",
							"name": "",
							"type": "string"
						}
					],
					"stateMutability": "view",
					"type": "function"
				},
				{
					"inputs": [
						{
							"internalType": "uint256",
							"name": "index",
							"type": "uint256"
						}
					],
					"name": "getBidderAddress",
					"outputs": [
						{
							"internalType": "address",
							"name": "",
							"type": "address"
						}
					],
					"stateMutability": "view",
					"type": "function"
				},
				{
					"inputs": [
						{
							"internalType": "uint256",
							"name": "index",
							"type": "uint256"
						}
					],
					"name": "getEncodedBid",
					"outputs": [
						{
							"internalType": "string",
							"name": "",
							"type": "string"
						}
					],
					"stateMutability": "view",
					"type": "function"
				},
				{
					"inputs": [],
					"name": "getSampleString",
					"outputs": [
						{
							"internalType": "string",
							"name": "",
							"type": "string"
						}
					],
					"stateMutability": "pure",
					"type": "function"
				},
				{
					"inputs": [],
					"name": "minBidPrice",
					"outputs": [
						{
							"internalType": "uint256",
							"name": "",
							"type": "uint256"
						}
					],
					"stateMutability": "view",
					"type": "function"
				},
				{
					"inputs": [],
					"name": "minNumberOfBidders",
					"outputs": [
						{
							"internalType": "uint256",
							"name": "",
							"type": "uint256"
						}
					],
					"stateMutability": "view",
					"type": "function"
				},
				{
					"inputs": [
						{
							"internalType": "string",
							"name": "assetDescriptionInput",
							"type": "string"
						},
						{
							"internalType": "uint256",
							"name": "minBidPriceInput",
							"type": "uint256"
						},
						{
							"internalType": "uint256",
							"name": "minNumberOfBiddersInput",
							"type": "uint256"
						}
					],
					"name": "registerAuctionInfo",
					"outputs": [],
					"stateMutability": "nonpayable",
					"type": "function"
				},
				{
					"inputs": [],
					"name": "registerBidder",
					"outputs": [],
					"stateMutability": "nonpayable",
					"type": "function"
				},
				{
					"inputs": [
						{
							"internalType": "string",
							"name": "inputEncodedBid",
							"type": "string"
						}
					],
					"name": "submitEncryptedBid",
					"outputs": [],
					"stateMutability": "nonpayable",
					"type": "function"
				},
				{
					"inputs": [
						{
							"internalType": "uint256",
							"name": "inputWinnerBid",
							"type": "uint256"
						},
						{
							"internalType": "string",
							"name": "inputWinnerKey",
							"type": "string"
						}
					],
					"name": "submitWinner",
					"outputs": [],
					"stateMutability": "nonpayable",
					"type": "function"
				},
				{
					"inputs": [],
					"name": "winnerAddress",
					"outputs": [
						{
							"internalType": "address",
							"name": "",
							"type": "address"
						}
					],
					"stateMutability": "view",
					"type": "function"
				},
				{
					"inputs": [],
					"name": "winnerBid",
					"outputs": [
						{
							"internalType": "uint256",
							"name": "",
							"type": "uint256"
						}
					],
					"stateMutability": "view",
					"type": "function"
				},
				{
					"inputs": [],
					"name": "winnerKey",
					"outputs": [
						{
							"internalType": "string",
							"name": "",
							"type": "string"
						}
					],
					"stateMutability": "view",
					"type": "function"
				}
			],
			"devdoc": {
				"kind": "dev",
				"methods": {},
				"version": 1
			},
			"evm": {
				"assembly": "    /* \"Contracts/AKEB.sol\":58:2214  contract AKEB {... */\n  mstore(0x40, 0x80)\n  callvalue\n  dup1\n  iszero\n  tag_1\n  jumpi\n  0x00\n  dup1\n  revert\ntag_1:\n  pop\n  dataSize(sub_0)\n  dup1\n  dataOffset(sub_0)\n  0x00\n  codecopy\n  0x00\n  return\nstop\n\nsub_0: assembly {\n        /* \"Contracts/AKEB.sol\":58:2214  contract AKEB {... */\n      mstore(0x40, 0x80)\n      callvalue\n      dup1\n      iszero\n      tag_1\n      jumpi\n      0x00\n      dup1\n      revert\n    tag_1:\n      pop\n      jumpi(tag_2, lt(calldatasize, 0x04))\n      shr(0xe0, calldataload(0x00))\n      dup1\n      0x8f772f96\n      gt\n      tag_20\n      jumpi\n      dup1\n      0xdaa0218f\n      gt\n      tag_21\n      jumpi\n      dup1\n      0xdaa0218f\n      eq\n      tag_15\n      jumpi\n      dup1\n      0xe7d2a997\n      eq\n      tag_16\n      jumpi\n      dup1\n      0xed7a4e0b\n      eq\n      tag_17\n      jumpi\n      dup1\n      0xf356733c\n      eq\n      tag_18\n      jumpi\n      dup1\n      0xff567d8d\n      eq\n      tag_19\n      jumpi\n      jump(tag_2)\n    tag_21:\n      dup1\n      0x8f772f96\n      eq\n      tag_11\n      jumpi\n      dup1\n      0x938626c2\n      eq\n      tag_12\n      jumpi\n      dup1\n      0xcff29dfd\n      eq\n      tag_13\n      jumpi\n      dup1\n      0xd476620b\n      eq\n      tag_14\n      jumpi\n      jump(tag_2)\n    tag_20:\n      dup1\n      0x3817df4c\n      gt\n      tag_22\n      jumpi\n      dup1\n      0x3817df4c\n      eq\n      tag_7\n      jumpi\n      dup1\n      0x5fa38280\n      eq\n      tag_8\n      jumpi\n      dup1\n      0x66c85dee\n      eq\n      tag_9\n      jumpi\n      dup1\n      0x83050daa\n      eq\n      tag_10\n      jumpi\n      jump(tag_2)\n    tag_22:\n      dup1\n      0x11631d06\n      eq\n      tag_3\n      jumpi\n      dup1\n      0x1744e03b\n      eq\n      tag_4\n      jumpi\n      dup1\n      0x2d5f4427\n      eq\n      tag_5\n      jumpi\n      dup1\n      0x34eb86a2\n      eq\n      tag_6\n      jumpi\n    tag_2:\n      0x00\n      dup1\n      revert\n        /* \"Contracts/AKEB.sol\":326:350  uint256 public winnerBid */\n    tag_3:\n      tag_23\n      tag_24\n      jump\t// in\n    tag_23:\n      mload(0x40)\n      tag_25\n      swap2\n      swap1\n      tag_26\n      jump\t// in\n    tag_25:\n      mload(0x40)\n      dup1\n      swap2\n      sub\n      swap1\n      return\n        /* \"Contracts/AKEB.sol\":1704:1906  function submitWinner(uint256 inputWinnerBid, ... */\n    tag_4:\n      tag_27\n      0x04\n      dup1\n      calldatasize\n      sub\n      dup2\n      add\n      swap1\n      tag_28\n      swap2\n      swap1\n      tag_29\n      jump\t// in\n    tag_28:\n      tag_30\n      jump\t// in\n    tag_27:\n      stop\n        /* \"Contracts/AKEB.sol\":1582:1698  function getEncodedBid(uint index) public view returns(string memory){... */\n    tag_5:\n      tag_31\n      0x04\n      dup1\n      calldatasize\n      sub\n      dup2\n      add\n      swap1\n      tag_32\n      swap2\n      swap1\n      tag_33\n      jump\t// in\n    tag_32:\n      tag_34\n      jump\t// in\n    tag_31:\n      mload(0x40)\n      tag_35\n      swap2\n      swap1\n      tag_36\n      jump\t// in\n    tag_35:\n      mload(0x40)\n      dup1\n      swap2\n      sub\n      swap1\n      return\n        /* \"Contracts/AKEB.sol\":168:194  uint256 public minBidPrice */\n    tag_6:\n      tag_37\n      tag_38\n      jump\t// in\n    tag_37:\n      mload(0x40)\n      tag_39\n      swap2\n      swap1\n      tag_26\n      jump\t// in\n    tag_39:\n      mload(0x40)\n      dup1\n      swap2\n      sub\n      swap1\n      return\n        /* \"Contracts/AKEB.sol\":240:285  mapping(address => string) public encodedBids */\n    tag_7:\n      tag_40\n      0x04\n      dup1\n      calldatasize\n      sub\n      dup2\n      add\n      swap1\n      tag_41\n      swap2\n      swap1\n      tag_42\n      jump\t// in\n    tag_41:\n      tag_43\n      jump\t// in\n    tag_40:\n      mload(0x40)\n      tag_44\n      swap2\n      swap1\n      tag_36\n      jump\t// in\n    tag_44:\n      mload(0x40)\n      dup1\n      swap2\n      sub\n      swap1\n      return\n        /* \"Contracts/AKEB.sol\":1337:1442  function getBidderAddress(uint index) public view returns(address) {... */\n    tag_8:\n      tag_45\n      0x04\n      dup1\n      calldatasize\n      sub\n      dup2\n      add\n      swap1\n      tag_46\n      swap2\n      swap1\n      tag_33\n      jump\t// in\n    tag_46:\n      tag_47\n      jump\t// in\n    tag_45:\n      mload(0x40)\n      tag_48\n      swap2\n      swap1\n      tag_49\n      jump\t// in\n    tag_48:\n      mload(0x40)\n      dup1\n      swap2\n      sub\n      swap1\n      return\n        /* \"Contracts/AKEB.sol\":1912:2212  function dispute(uint256 inputDisputedBid, ... */\n    tag_9:\n      tag_50\n      0x04\n      dup1\n      calldatasize\n      sub\n      dup2\n      add\n      swap1\n      tag_51\n      swap2\n      swap1\n      tag_29\n      jump\t// in\n    tag_51:\n      tag_52\n      jump\t// in\n    tag_50:\n      stop\n        /* \"Contracts/AKEB.sol\":815:925  function getSampleString() public pure returns(string memory){... */\n    tag_10:\n      tag_53\n      tag_54\n      jump\t// in\n    tag_53:\n      mload(0x40)\n      tag_55\n      swap2\n      swap1\n      tag_36\n      jump\t// in\n    tag_55:\n      mload(0x40)\n      dup1\n      swap2\n      sub\n      swap1\n      return\n        /* \"Contracts/AKEB.sol\":495:535  DisputedBidders[] public disputedBidders */\n    tag_11:\n      tag_56\n      0x04\n      dup1\n      calldatasize\n      sub\n      dup2\n      add\n      swap1\n      tag_57\n      swap2\n      swap1\n      tag_33\n      jump\t// in\n    tag_57:\n      tag_58\n      jump\t// in\n    tag_56:\n      mload(0x40)\n      tag_59\n      swap4\n      swap3\n      swap2\n      swap1\n      tag_60\n      jump\t// in\n    tag_59:\n      mload(0x40)\n      dup1\n      swap2\n      sub\n      swap1\n      return\n        /* \"Contracts/AKEB.sol\":132:162  string public assetDescription */\n    tag_12:\n      tag_61\n      tag_62\n      jump\t// in\n    tag_61:\n      mload(0x40)\n      tag_63\n      swap2\n      swap1\n      tag_36\n      jump\t// in\n    tag_63:\n      mload(0x40)\n      dup1\n      swap2\n      sub\n      swap1\n      return\n        /* \"Contracts/AKEB.sol\":102:126  address[] public bidders */\n    tag_13:\n      tag_64\n      0x04\n      dup1\n      calldatasize\n      sub\n      dup2\n      add\n      swap1\n      tag_65\n      swap2\n      swap1\n      tag_33\n      jump\t// in\n    tag_65:\n      tag_66\n      jump\t// in\n    tag_64:\n      mload(0x40)\n      tag_67\n      swap2\n      swap1\n      tag_49\n      jump\t// in\n    tag_67:\n      mload(0x40)\n      dup1\n      swap2\n      sub\n      swap1\n      return\n        /* \"Contracts/AKEB.sol\":356:379  string public winnerKey */\n    tag_14:\n      tag_68\n      tag_69\n      jump\t// in\n    tag_68:\n      mload(0x40)\n      tag_70\n      swap2\n      swap1\n      tag_36\n      jump\t// in\n    tag_70:\n      mload(0x40)\n      dup1\n      swap2\n      sub\n      swap1\n      return\n        /* \"Contracts/AKEB.sol\":200:233  uint256 public minNumberOfBidders */\n    tag_15:\n      tag_71\n      tag_72\n      jump\t// in\n    tag_71:\n      mload(0x40)\n      tag_73\n      swap2\n      swap1\n      tag_26\n      jump\t// in\n    tag_73:\n      mload(0x40)\n      dup1\n      swap2\n      sub\n      swap1\n      return\n        /* \"Contracts/AKEB.sol\":931:1251  function registerAuctionInfo(string memory assetDescriptionInput, ... */\n    tag_16:\n      tag_74\n      0x04\n      dup1\n      calldatasize\n      sub\n      dup2\n      add\n      swap1\n      tag_75\n      swap2\n      swap1\n      tag_76\n      jump\t// in\n    tag_75:\n      tag_77\n      jump\t// in\n    tag_74:\n      stop\n        /* \"Contracts/AKEB.sol\":292:320  address public winnerAddress */\n    tag_17:\n      tag_78\n      tag_79\n      jump\t// in\n    tag_78:\n      mload(0x40)\n      tag_80\n      swap2\n      swap1\n      tag_49\n      jump\t// in\n    tag_80:\n      mload(0x40)\n      dup1\n      swap2\n      sub\n      swap1\n      return\n        /* \"Contracts/AKEB.sol\":1257:1331  function registerBidder() public {... */\n    tag_18:\n      tag_81\n      tag_82\n      jump\t// in\n    tag_81:\n      stop\n        /* \"Contracts/AKEB.sol\":1448:1576  function submitEncryptedBid(string memory inputEncodedBid)... */\n    tag_19:\n      tag_83\n      0x04\n      dup1\n      calldatasize\n      sub\n      dup2\n      add\n      swap1\n      tag_84\n      swap2\n      swap1\n      tag_85\n      jump\t// in\n    tag_84:\n      tag_86\n      jump\t// in\n    tag_83:\n      stop\n        /* \"Contracts/AKEB.sol\":326:350  uint256 public winnerBid */\n    tag_24:\n      sload(0x07)\n      dup2\n      jump\t// out\n        /* \"Contracts/AKEB.sol\":1704:1906  function submitWinner(uint256 inputWinnerBid, ... */\n    tag_30:\n        /* \"Contracts/AKEB.sol\":1817:1827  msg.sender */\n      caller\n        /* \"Contracts/AKEB.sol\":1801:1814  winnerAddress */\n      0x06\n      0x00\n        /* \"Contracts/AKEB.sol\":1801:1827  winnerAddress = msg.sender */\n      0x0100\n      exp\n      dup2\n      sload\n      dup2\n      0xffffffffffffffffffffffffffffffffffffffff\n      mul\n      not\n      and\n      swap1\n      dup4\n      0xffffffffffffffffffffffffffffffffffffffff\n      and\n      mul\n      or\n      swap1\n      sstore\n      pop\n        /* \"Contracts/AKEB.sol\":1849:1863  inputWinnerBid */\n      dup2\n        /* \"Contracts/AKEB.sol\":1837:1846  winnerBid */\n      0x07\n        /* \"Contracts/AKEB.sol\":1837:1863  winnerBid = inputWinnerBid */\n      dup2\n      swap1\n      sstore\n      pop\n        /* \"Contracts/AKEB.sol\":1885:1899  inputWinnerKey */\n      dup1\n        /* \"Contracts/AKEB.sol\":1873:1882  winnerKey */\n      0x08\n        /* \"Contracts/AKEB.sol\":1873:1899  winnerKey = inputWinnerKey */\n      swap1\n      dup1\n      mload\n      swap1\n      0x20\n      add\n      swap1\n      tag_88\n      swap3\n      swap2\n      swap1\n      tag_89\n      jump\t// in\n    tag_88:\n      pop\n        /* \"Contracts/AKEB.sol\":1704:1906  function submitWinner(uint256 inputWinnerBid, ... */\n      pop\n      pop\n      jump\t// out\n        /* \"Contracts/AKEB.sol\":1582:1698  function getEncodedBid(uint index) public view returns(string memory){... */\n    tag_34:\n        /* \"Contracts/AKEB.sol\":1637:1650  string memory */\n      0x60\n        /* \"Contracts/AKEB.sol\":1668:1679  encodedBids */\n      0x05\n        /* \"Contracts/AKEB.sol\":1668:1691  encodedBids[msg.sender] */\n      0x00\n        /* \"Contracts/AKEB.sol\":1680:1690  msg.sender */\n      caller\n        /* \"Contracts/AKEB.sol\":1668:1691  encodedBids[msg.sender] */\n      0xffffffffffffffffffffffffffffffffffffffff\n      and\n      0xffffffffffffffffffffffffffffffffffffffff\n      and\n      dup2\n      mstore\n      0x20\n      add\n      swap1\n      dup2\n      mstore\n      0x20\n      add\n      0x00\n      keccak256\n        /* \"Contracts/AKEB.sol\":1661:1691  return encodedBids[msg.sender] */\n      dup1\n      sload\n      tag_91\n      swap1\n      tag_92\n      jump\t// in\n    tag_91:\n      dup1\n      0x1f\n      add\n      0x20\n      dup1\n      swap2\n      div\n      mul\n      0x20\n      add\n      mload(0x40)\n      swap1\n      dup2\n      add\n      0x40\n      mstore\n      dup1\n      swap3\n      swap2\n      swap1\n      dup2\n      dup2\n      mstore\n      0x20\n      add\n      dup3\n      dup1\n      sload\n      tag_93\n      swap1\n      tag_92\n      jump\t// in\n    tag_93:\n      dup1\n      iszero\n      tag_94\n      jumpi\n      dup1\n      0x1f\n      lt\n      tag_95\n      jumpi\n      0x0100\n      dup1\n      dup4\n      sload\n      div\n      mul\n      dup4\n      mstore\n      swap2\n      0x20\n      add\n      swap2\n      jump(tag_94)\n    tag_95:\n      dup3\n      add\n      swap2\n      swap1\n      0x00\n      mstore\n      keccak256(0x00, 0x20)\n      swap1\n    tag_96:\n      dup2\n      sload\n      dup2\n      mstore\n      swap1\n      0x01\n      add\n      swap1\n      0x20\n      add\n      dup1\n      dup4\n      gt\n      tag_96\n      jumpi\n      dup3\n      swap1\n      sub\n      0x1f\n      and\n      dup3\n      add\n      swap2\n    tag_94:\n      pop\n      pop\n      pop\n      pop\n      pop\n      swap1\n      pop\n        /* \"Contracts/AKEB.sol\":1582:1698  function getEncodedBid(uint index) public view returns(string memory){... */\n      swap2\n      swap1\n      pop\n      jump\t// out\n        /* \"Contracts/AKEB.sol\":168:194  uint256 public minBidPrice */\n    tag_38:\n      sload(0x03)\n      dup2\n      jump\t// out\n        /* \"Contracts/AKEB.sol\":240:285  mapping(address => string) public encodedBids */\n    tag_43:\n      mstore(0x20, 0x05)\n      dup1\n      0x00\n      mstore\n      keccak256(0x00, 0x40)\n      0x00\n      swap2\n      pop\n      swap1\n      pop\n      dup1\n      sload\n      tag_97\n      swap1\n      tag_92\n      jump\t// in\n    tag_97:\n      dup1\n      0x1f\n      add\n      0x20\n      dup1\n      swap2\n      div\n      mul\n      0x20\n      add\n      mload(0x40)\n      swap1\n      dup2\n      add\n      0x40\n      mstore\n      dup1\n      swap3\n      swap2\n      swap1\n      dup2\n      dup2\n      mstore\n      0x20\n      add\n      dup3\n      dup1\n      sload\n      tag_98\n      swap1\n      tag_92\n      jump\t// in\n    tag_98:\n      dup1\n      iszero\n      tag_99\n      jumpi\n      dup1\n      0x1f\n      lt\n      tag_100\n      jumpi\n      0x0100\n      dup1\n      dup4\n      sload\n      div\n      mul\n      dup4\n      mstore\n      swap2\n      0x20\n      add\n      swap2\n      jump(tag_99)\n    tag_100:\n      dup3\n      add\n      swap2\n      swap1\n      0x00\n      mstore\n      keccak256(0x00, 0x20)\n      swap1\n    tag_101:\n      dup2\n      sload\n      dup2\n      mstore\n      swap1\n      0x01\n      add\n      swap1\n      0x20\n      add\n      dup1\n      dup4\n      gt\n      tag_101\n      jumpi\n      dup3\n      swap1\n      sub\n      0x1f\n      and\n      dup3\n      add\n      swap2\n    tag_99:\n      pop\n      pop\n      pop\n      pop\n      pop\n      dup2\n      jump\t// out\n        /* \"Contracts/AKEB.sol\":1337:1442  function getBidderAddress(uint index) public view returns(address) {... */\n    tag_47:\n        /* \"Contracts/AKEB.sol\":1395:1402  address */\n      0x00\n        /* \"Contracts/AKEB.sol\":1421:1428  bidders */\n      0x01\n        /* \"Contracts/AKEB.sol\":1429:1434  index */\n      dup3\n        /* \"Contracts/AKEB.sol\":1421:1435  bidders[index] */\n      dup2\n      sload\n      dup2\n      lt\n      tag_103\n      jumpi\n      tag_104\n      tag_105\n      jump\t// in\n    tag_104:\n    tag_103:\n      swap1\n      0x00\n      mstore\n      keccak256(0x00, 0x20)\n      add\n      0x00\n      swap1\n      sload\n      swap1\n      0x0100\n      exp\n      swap1\n      div\n      0xffffffffffffffffffffffffffffffffffffffff\n      and\n        /* \"Contracts/AKEB.sol\":1414:1435  return bidders[index] */\n      swap1\n      pop\n        /* \"Contracts/AKEB.sol\":1337:1442  function getBidderAddress(uint index) public view returns(address) {... */\n      swap2\n      swap1\n      pop\n      jump\t// out\n        /* \"Contracts/AKEB.sol\":1912:2212  function dispute(uint256 inputDisputedBid, ... */\n    tag_52:\n        /* \"Contracts/AKEB.sol\":2009:2046  DisputedBidders memory disputedBidder */\n      0x00\n        /* \"Contracts/AKEB.sol\":2049:2158  DisputedBidders(... */\n      mload(0x40)\n      dup1\n      0x60\n      add\n      0x40\n      mstore\n      dup1\n        /* \"Contracts/AKEB.sol\":2078:2094  inputDisputedBid */\n      dup5\n        /* \"Contracts/AKEB.sol\":2049:2158  DisputedBidders(... */\n      dup2\n      mstore\n      0x20\n      add\n        /* \"Contracts/AKEB.sol\":2108:2118  msg.sender */\n      caller\n        /* \"Contracts/AKEB.sol\":2049:2158  DisputedBidders(... */\n      0xffffffffffffffffffffffffffffffffffffffff\n      and\n      dup2\n      mstore\n      0x20\n      add\n        /* \"Contracts/AKEB.sol\":2132:2148  inputDisputedKey */\n      dup4\n        /* \"Contracts/AKEB.sol\":2049:2158  DisputedBidders(... */\n      dup2\n      mstore\n      pop\n        /* \"Contracts/AKEB.sol\":2009:2158  DisputedBidders memory disputedBidder = DisputedBidders(... */\n      swap1\n      pop\n        /* \"Contracts/AKEB.sol\":2169:2184  disputedBidders */\n      0x09\n        /* \"Contracts/AKEB.sol\":2190:2204  disputedBidder */\n      dup2\n        /* \"Contracts/AKEB.sol\":2169:2205  disputedBidders.push(disputedBidder) */\n      swap1\n      dup1\n      0x01\n      dup2\n      sload\n      add\n      dup1\n      dup3\n      sstore\n      dup1\n      swap2\n      pop\n      pop\n      0x01\n      swap1\n      sub\n      swap1\n      0x00\n      mstore\n      keccak256(0x00, 0x20)\n      swap1\n      0x03\n      mul\n      add\n      0x00\n      swap1\n      swap2\n      swap1\n      swap2\n      swap1\n      swap2\n      pop\n      0x00\n      dup3\n      add\n      mload\n      dup2\n      0x00\n      add\n      sstore\n      0x20\n      dup3\n      add\n      mload\n      dup2\n      0x01\n      add\n      exp(0x0100, 0x00)\n      dup2\n      sload\n      dup2\n      0xffffffffffffffffffffffffffffffffffffffff\n      mul\n      not\n      and\n      swap1\n      dup4\n      0xffffffffffffffffffffffffffffffffffffffff\n      and\n      mul\n      or\n      swap1\n      sstore\n      pop\n      0x40\n      dup3\n      add\n      mload\n      dup2\n      0x02\n      add\n      swap1\n      dup1\n      mload\n      swap1\n      0x20\n      add\n      swap1\n      tag_109\n      swap3\n      swap2\n      swap1\n      tag_89\n      jump\t// in\n    tag_109:\n      pop\n      pop\n      pop\n        /* \"Contracts/AKEB.sol\":1999:2212  {... */\n      pop\n        /* \"Contracts/AKEB.sol\":1912:2212  function dispute(uint256 inputDisputedBid, ... */\n      pop\n      pop\n      jump\t// out\n        /* \"Contracts/AKEB.sol\":815:925  function getSampleString() public pure returns(string memory){... */\n    tag_54:\n        /* \"Contracts/AKEB.sol\":862:875  string memory */\n      0x60\n        /* \"Contracts/AKEB.sol\":886:918  return \"sample string from AKEB\" */\n      mload(0x40)\n      dup1\n      0x40\n      add\n      0x40\n      mstore\n      dup1\n      0x17\n      dup2\n      mstore\n      0x20\n      add\n      0x73616d706c6520737472696e672066726f6d20414b4542000000000000000000\n      dup2\n      mstore\n      pop\n      swap1\n      pop\n        /* \"Contracts/AKEB.sol\":815:925  function getSampleString() public pure returns(string memory){... */\n      swap1\n      jump\t// out\n        /* \"Contracts/AKEB.sol\":495:535  DisputedBidders[] public disputedBidders */\n    tag_58:\n      0x09\n      dup2\n      dup2\n      sload\n      dup2\n      lt\n      tag_111\n      jumpi\n      0x00\n      dup1\n      revert\n    tag_111:\n      swap1\n      0x00\n      mstore\n      keccak256(0x00, 0x20)\n      swap1\n      0x03\n      mul\n      add\n      0x00\n      swap2\n      pop\n      swap1\n      pop\n      dup1\n      0x00\n      add\n      sload\n      swap1\n      dup1\n      0x01\n      add\n      0x00\n      swap1\n      sload\n      swap1\n      0x0100\n      exp\n      swap1\n      div\n      0xffffffffffffffffffffffffffffffffffffffff\n      and\n      swap1\n      dup1\n      0x02\n      add\n      dup1\n      sload\n      tag_113\n      swap1\n      tag_92\n      jump\t// in\n    tag_113:\n      dup1\n      0x1f\n      add\n      0x20\n      dup1\n      swap2\n      div\n      mul\n      0x20\n      add\n      mload(0x40)\n      swap1\n      dup2\n      add\n      0x40\n      mstore\n      dup1\n      swap3\n      swap2\n      swap1\n      dup2\n      dup2\n      mstore\n      0x20\n      add\n      dup3\n      dup1\n      sload\n      tag_114\n      swap1\n      tag_92\n      jump\t// in\n    tag_114:\n      dup1\n      iszero\n      tag_115\n      jumpi\n      dup1\n      0x1f\n      lt\n      tag_116\n      jumpi\n      0x0100\n      dup1\n      dup4\n      sload\n      div\n      mul\n      dup4\n      mstore\n      swap2\n      0x20\n      add\n      swap2\n      jump(tag_115)\n    tag_116:\n      dup3\n      add\n      swap2\n      swap1\n      0x00\n      mstore\n      keccak256(0x00, 0x20)\n      swap1\n    tag_117:\n      dup2\n      sload\n      dup2\n      mstore\n      swap1\n      0x01\n      add\n      swap1\n      0x20\n      add\n      dup1\n      dup4\n      gt\n      tag_117\n      jumpi\n      dup3\n      swap1\n      sub\n      0x1f\n      and\n      dup3\n      add\n      swap2\n    tag_115:\n      pop\n      pop\n      pop\n      pop\n      pop\n      swap1\n      pop\n      dup4\n      jump\t// out\n        /* \"Contracts/AKEB.sol\":132:162  string public assetDescription */\n    tag_62:\n      0x02\n      dup1\n      sload\n      tag_118\n      swap1\n      tag_92\n      jump\t// in\n    tag_118:\n      dup1\n      0x1f\n      add\n      0x20\n      dup1\n      swap2\n      div\n      mul\n      0x20\n      add\n      mload(0x40)\n      swap1\n      dup2\n      add\n      0x40\n      mstore\n      dup1\n      swap3\n      swap2\n      swap1\n      dup2\n      dup2\n      mstore\n      0x20\n      add\n      dup3\n      dup1\n      sload\n      tag_119\n      swap1\n      tag_92\n      jump\t// in\n    tag_119:\n      dup1\n      iszero\n      tag_120\n      jumpi\n      dup1\n      0x1f\n      lt\n      tag_121\n      jumpi\n      0x0100\n      dup1\n      dup4\n      sload\n      div\n      mul\n      dup4\n      mstore\n      swap2\n      0x20\n      add\n      swap2\n      jump(tag_120)\n    tag_121:\n      dup3\n      add\n      swap2\n      swap1\n      0x00\n      mstore\n      keccak256(0x00, 0x20)\n      swap1\n    tag_122:\n      dup2\n      sload\n      dup2\n      mstore\n      swap1\n      0x01\n      add\n      swap1\n      0x20\n      add\n      dup1\n      dup4\n      gt\n      tag_122\n      jumpi\n      dup3\n      swap1\n      sub\n      0x1f\n      and\n      dup3\n      add\n      swap2\n    tag_120:\n      pop\n      pop\n      pop\n      pop\n      pop\n      dup2\n      jump\t// out\n        /* \"Contracts/AKEB.sol\":102:126  address[] public bidders */\n    tag_66:\n      0x01\n      dup2\n      dup2\n      sload\n      dup2\n      lt\n      tag_123\n      jumpi\n      0x00\n      dup1\n      revert\n    tag_123:\n      swap1\n      0x00\n      mstore\n      keccak256(0x00, 0x20)\n      add\n      0x00\n      swap2\n      pop\n      sload\n      swap1\n      0x0100\n      exp\n      swap1\n      div\n      0xffffffffffffffffffffffffffffffffffffffff\n      and\n      dup2\n      jump\t// out\n        /* \"Contracts/AKEB.sol\":356:379  string public winnerKey */\n    tag_69:\n      0x08\n      dup1\n      sload\n      tag_125\n      swap1\n      tag_92\n      jump\t// in\n    tag_125:\n      dup1\n      0x1f\n      add\n      0x20\n      dup1\n      swap2\n      div\n      mul\n      0x20\n      add\n      mload(0x40)\n      swap1\n      dup2\n      add\n      0x40\n      mstore\n      dup1\n      swap3\n      swap2\n      swap1\n      dup2\n      dup2\n      mstore\n      0x20\n      add\n      dup3\n      dup1\n      sload\n      tag_126\n      swap1\n      tag_92\n      jump\t// in\n    tag_126:\n      dup1\n      iszero\n      tag_127\n      jumpi\n      dup1\n      0x1f\n      lt\n      tag_128\n      jumpi\n      0x0100\n      dup1\n      dup4\n      sload\n      div\n      mul\n      dup4\n      mstore\n      swap2\n      0x20\n      add\n      swap2\n      jump(tag_127)\n    tag_128:\n      dup3\n      add\n      swap2\n      swap1\n      0x00\n      mstore\n      keccak256(0x00, 0x20)\n      swap1\n    tag_129:\n      dup2\n      sload\n      dup2\n      mstore\n      swap1\n      0x01\n      add\n      swap1\n      0x20\n      add\n      dup1\n      dup4\n      gt\n      tag_129\n      jumpi\n      dup3\n      swap1\n      sub\n      0x1f\n      and\n      dup3\n      add\n      swap2\n    tag_127:\n      pop\n      pop\n      pop\n      pop\n      pop\n      dup2\n      jump\t// out\n        /* \"Contracts/AKEB.sol\":200:233  uint256 public minNumberOfBidders */\n    tag_72:\n      sload(0x04)\n      dup2\n      jump\t// out\n        /* \"Contracts/AKEB.sol\":931:1251  function registerAuctionInfo(string memory assetDescriptionInput, ... */\n    tag_77:\n        /* \"Contracts/AKEB.sol\":606:616  auctioneer */\n      0x00\n      dup1\n      sload\n      swap1\n      0x0100\n      exp\n      swap1\n      div\n      0xffffffffffffffffffffffffffffffffffffffff\n      and\n        /* \"Contracts/AKEB.sol\":592:616  msg.sender == auctioneer */\n      0xffffffffffffffffffffffffffffffffffffffff\n      and\n        /* \"Contracts/AKEB.sol\":592:602  msg.sender */\n      caller\n        /* \"Contracts/AKEB.sol\":592:616  msg.sender == auctioneer */\n      0xffffffffffffffffffffffffffffffffffffffff\n      and\n      eq\n        /* \"Contracts/AKEB.sol\":584:660  require(msg.sender == auctioneer, \"Only auctioneer can call this function.\") */\n      tag_131\n      jumpi\n      mload(0x40)\n      0x08c379a000000000000000000000000000000000000000000000000000000000\n      dup2\n      mstore\n      0x04\n      add\n      tag_132\n      swap1\n      tag_133\n      jump\t// in\n    tag_132:\n      mload(0x40)\n      dup1\n      swap2\n      sub\n      swap1\n      revert\n    tag_131:\n        /* \"Contracts/AKEB.sol\":1129:1150  assetDescriptionInput */\n      dup3\n        /* \"Contracts/AKEB.sol\":1110:1126  assetDescription */\n      0x02\n        /* \"Contracts/AKEB.sol\":1110:1150  assetDescription = assetDescriptionInput */\n      swap1\n      dup1\n      mload\n      swap1\n      0x20\n      add\n      swap1\n      tag_135\n      swap3\n      swap2\n      swap1\n      tag_89\n      jump\t// in\n    tag_135:\n      pop\n        /* \"Contracts/AKEB.sol\":1174:1190  minBidPriceInput */\n      dup2\n        /* \"Contracts/AKEB.sol\":1160:1171  minBidPrice */\n      0x03\n        /* \"Contracts/AKEB.sol\":1160:1190  minBidPrice = minBidPriceInput */\n      dup2\n      swap1\n      sstore\n      pop\n        /* \"Contracts/AKEB.sol\":1221:1244  minNumberOfBiddersInput */\n      dup1\n        /* \"Contracts/AKEB.sol\":1200:1218  minNumberOfBidders */\n      0x04\n        /* \"Contracts/AKEB.sol\":1200:1244  minNumberOfBidders = minNumberOfBiddersInput */\n      dup2\n      swap1\n      sstore\n      pop\n        /* \"Contracts/AKEB.sol\":931:1251  function registerAuctionInfo(string memory assetDescriptionInput, ... */\n      pop\n      pop\n      pop\n      jump\t// out\n        /* \"Contracts/AKEB.sol\":292:320  address public winnerAddress */\n    tag_79:\n      0x06\n      0x00\n      swap1\n      sload\n      swap1\n      0x0100\n      exp\n      swap1\n      div\n      0xffffffffffffffffffffffffffffffffffffffff\n      and\n      dup2\n      jump\t// out\n        /* \"Contracts/AKEB.sol\":1257:1331  function registerBidder() public {... */\n    tag_82:\n        /* \"Contracts/AKEB.sol\":1300:1307  bidders */\n      0x01\n        /* \"Contracts/AKEB.sol\":1313:1323  msg.sender */\n      caller\n        /* \"Contracts/AKEB.sol\":1300:1324  bidders.push(msg.sender) */\n      swap1\n      dup1\n      0x01\n      dup2\n      sload\n      add\n      dup1\n      dup3\n      sstore\n      dup1\n      swap2\n      pop\n      pop\n      0x01\n      swap1\n      sub\n      swap1\n      0x00\n      mstore\n      keccak256(0x00, 0x20)\n      add\n      0x00\n      swap1\n      swap2\n      swap1\n      swap2\n      swap1\n      swap2\n      0x0100\n      exp\n      dup2\n      sload\n      dup2\n      0xffffffffffffffffffffffffffffffffffffffff\n      mul\n      not\n      and\n      swap1\n      dup4\n      0xffffffffffffffffffffffffffffffffffffffff\n      and\n      mul\n      or\n      swap1\n      sstore\n      pop\n        /* \"Contracts/AKEB.sol\":1257:1331  function registerBidder() public {... */\n      jump\t// out\n        /* \"Contracts/AKEB.sol\":1448:1576  function submitEncryptedBid(string memory inputEncodedBid)... */\n    tag_86:\n        /* \"Contracts/AKEB.sol\":1554:1569  inputEncodedBid */\n      dup1\n        /* \"Contracts/AKEB.sol\":1528:1539  encodedBids */\n      0x05\n        /* \"Contracts/AKEB.sol\":1528:1551  encodedBids[msg.sender] */\n      0x00\n        /* \"Contracts/AKEB.sol\":1540:1550  msg.sender */\n      caller\n        /* \"Contracts/AKEB.sol\":1528:1551  encodedBids[msg.sender] */\n      0xffffffffffffffffffffffffffffffffffffffff\n      and\n      0xffffffffffffffffffffffffffffffffffffffff\n      and\n      dup2\n      mstore\n      0x20\n      add\n      swap1\n      dup2\n      mstore\n      0x20\n      add\n      0x00\n      keccak256\n        /* \"Contracts/AKEB.sol\":1528:1569  encodedBids[msg.sender] = inputEncodedBid */\n      swap1\n      dup1\n      mload\n      swap1\n      0x20\n      add\n      swap1\n      tag_139\n      swap3\n      swap2\n      swap1\n      tag_89\n      jump\t// in\n    tag_139:\n      pop\n        /* \"Contracts/AKEB.sol\":1448:1576  function submitEncryptedBid(string memory inputEncodedBid)... */\n      pop\n      jump\t// out\n    tag_89:\n      dup3\n      dup1\n      sload\n      tag_140\n      swap1\n      tag_92\n      jump\t// in\n    tag_140:\n      swap1\n      0x00\n      mstore\n      keccak256(0x00, 0x20)\n      swap1\n      0x1f\n      add\n      0x20\n      swap1\n      div\n      dup2\n      add\n      swap3\n      dup3\n      tag_142\n      jumpi\n      0x00\n      dup6\n      sstore\n      jump(tag_141)\n    tag_142:\n      dup3\n      0x1f\n      lt\n      tag_143\n      jumpi\n      dup1\n      mload\n      not(0xff)\n      and\n      dup4\n      dup1\n      add\n      or\n      dup6\n      sstore\n      jump(tag_141)\n    tag_143:\n      dup3\n      dup1\n      add\n      0x01\n      add\n      dup6\n      sstore\n      dup3\n      iszero\n      tag_141\n      jumpi\n      swap2\n      dup3\n      add\n    tag_144:\n      dup3\n      dup2\n      gt\n      iszero\n      tag_145\n      jumpi\n      dup3\n      mload\n      dup3\n      sstore\n      swap2\n      0x20\n      add\n      swap2\n      swap1\n      0x01\n      add\n      swap1\n      jump(tag_144)\n    tag_145:\n    tag_141:\n      pop\n      swap1\n      pop\n      tag_146\n      swap2\n      swap1\n      tag_147\n      jump\t// in\n    tag_146:\n      pop\n      swap1\n      jump\t// out\n    tag_147:\n    tag_148:\n      dup1\n      dup3\n      gt\n      iszero\n      tag_149\n      jumpi\n      0x00\n      dup2\n      0x00\n      swap1\n      sstore\n      pop\n      0x01\n      add\n      jump(tag_148)\n    tag_149:\n      pop\n      swap1\n      jump\t// out\n        /* \"#utility.yul\":7:84   */\n    tag_150:\n        /* \"#utility.yul\":44:51   */\n      0x00\n        /* \"#utility.yul\":73:78   */\n      dup2\n        /* \"#utility.yul\":62:78   */\n      swap1\n      pop\n        /* \"#utility.yul\":7:84   */\n      swap2\n      swap1\n      pop\n      jump\t// out\n        /* \"#utility.yul\":90:208   */\n    tag_151:\n        /* \"#utility.yul\":177:201   */\n      tag_182\n        /* \"#utility.yul\":195:200   */\n      dup2\n        /* \"#utility.yul\":177:201   */\n      tag_150\n      jump\t// in\n    tag_182:\n        /* \"#utility.yul\":172:175   */\n      dup3\n        /* \"#utility.yul\":165:202   */\n      mstore\n        /* \"#utility.yul\":90:208   */\n      pop\n      pop\n      jump\t// out\n        /* \"#utility.yul\":214:436   */\n    tag_26:\n        /* \"#utility.yul\":307:311   */\n      0x00\n        /* \"#utility.yul\":345:347   */\n      0x20\n        /* \"#utility.yul\":334:343   */\n      dup3\n        /* \"#utility.yul\":330:348   */\n      add\n        /* \"#utility.yul\":322:348   */\n      swap1\n      pop\n        /* \"#utility.yul\":358:429   */\n      tag_184\n        /* \"#utility.yul\":426:427   */\n      0x00\n        /* \"#utility.yul\":415:424   */\n      dup4\n        /* \"#utility.yul\":411:428   */\n      add\n        /* \"#utility.yul\":402:408   */\n      dup5\n        /* \"#utility.yul\":358:429   */\n      tag_151\n      jump\t// in\n    tag_184:\n        /* \"#utility.yul\":214:436   */\n      swap3\n      swap2\n      pop\n      pop\n      jump\t// out\n        /* \"#utility.yul\":442:517   */\n    tag_152:\n        /* \"#utility.yul\":475:481   */\n      0x00\n        /* \"#utility.yul\":508:510   */\n      0x40\n        /* \"#utility.yul\":502:511   */\n      mload\n        /* \"#utility.yul\":492:511   */\n      swap1\n      pop\n        /* \"#utility.yul\":442:517   */\n      swap1\n      jump\t// out\n        /* \"#utility.yul\":523:640   */\n    tag_153:\n        /* \"#utility.yul\":632:633   */\n      0x00\n        /* \"#utility.yul\":629:630   */\n      dup1\n        /* \"#utility.yul\":622:634   */\n      revert\n        /* \"#utility.yul\":646:763   */\n    tag_154:\n        /* \"#utility.yul\":755:756   */\n      0x00\n        /* \"#utility.yul\":752:753   */\n      dup1\n        /* \"#utility.yul\":745:757   */\n      revert\n        /* \"#utility.yul\":769:891   */\n    tag_155:\n        /* \"#utility.yul\":842:866   */\n      tag_189\n        /* \"#utility.yul\":860:865   */\n      dup2\n        /* \"#utility.yul\":842:866   */\n      tag_150\n      jump\t// in\n    tag_189:\n        /* \"#utility.yul\":835:840   */\n      dup2\n        /* \"#utility.yul\":832:867   */\n      eq\n        /* \"#utility.yul\":822:885   */\n      tag_190\n      jumpi\n        /* \"#utility.yul\":881:882   */\n      0x00\n        /* \"#utility.yul\":878:879   */\n      dup1\n        /* \"#utility.yul\":871:883   */\n      revert\n        /* \"#utility.yul\":822:885   */\n    tag_190:\n        /* \"#utility.yul\":769:891   */\n      pop\n      jump\t// out\n        /* \"#utility.yul\":897:1036   */\n    tag_156:\n        /* \"#utility.yul\":943:948   */\n      0x00\n        /* \"#utility.yul\":981:987   */\n      dup2\n        /* \"#utility.yul\":968:988   */\n      calldataload\n        /* \"#utility.yul\":959:988   */\n      swap1\n      pop\n        /* \"#utility.yul\":997:1030   */\n      tag_192\n        /* \"#utility.yul\":1024:1029   */\n      dup2\n        /* \"#utility.yul\":997:1030   */\n      tag_155\n      jump\t// in\n    tag_192:\n        /* \"#utility.yul\":897:1036   */\n      swap3\n      swap2\n      pop\n      pop\n      jump\t// out\n        /* \"#utility.yul\":1042:1159   */\n    tag_157:\n        /* \"#utility.yul\":1151:1152   */\n      0x00\n        /* \"#utility.yul\":1148:1149   */\n      dup1\n        /* \"#utility.yul\":1141:1153   */\n      revert\n        /* \"#utility.yul\":1165:1282   */\n    tag_158:\n        /* \"#utility.yul\":1274:1275   */\n      0x00\n        /* \"#utility.yul\":1271:1272   */\n      dup1\n        /* \"#utility.yul\":1264:1276   */\n      revert\n        /* \"#utility.yul\":1288:1390   */\n    tag_159:\n        /* \"#utility.yul\":1329:1335   */\n      0x00\n        /* \"#utility.yul\":1380:1382   */\n      0x1f\n        /* \"#utility.yul\":1376:1383   */\n      not\n        /* \"#utility.yul\":1371:1373   */\n      0x1f\n        /* \"#utility.yul\":1364:1369   */\n      dup4\n        /* \"#utility.yul\":1360:1374   */\n      add\n        /* \"#utility.yul\":1356:1384   */\n      and\n        /* \"#utility.yul\":1346:1384   */\n      swap1\n      pop\n        /* \"#utility.yul\":1288:1390   */\n      swap2\n      swap1\n      pop\n      jump\t// out\n        /* \"#utility.yul\":1396:1576   */\n    tag_160:\n        /* \"#utility.yul\":1444:1521   */\n      0x4e487b7100000000000000000000000000000000000000000000000000000000\n        /* \"#utility.yul\":1441:1442   */\n      0x00\n        /* \"#utility.yul\":1434:1522   */\n      mstore\n        /* \"#utility.yul\":1541:1545   */\n      0x41\n        /* \"#utility.yul\":1538:1539   */\n      0x04\n        /* \"#utility.yul\":1531:1546   */\n      mstore\n        /* \"#utility.yul\":1565:1569   */\n      0x24\n        /* \"#utility.yul\":1562:1563   */\n      0x00\n        /* \"#utility.yul\":1555:1570   */\n      revert\n        /* \"#utility.yul\":1582:1863   */\n    tag_161:\n        /* \"#utility.yul\":1665:1692   */\n      tag_198\n        /* \"#utility.yul\":1687:1691   */\n      dup3\n        /* \"#utility.yul\":1665:1692   */\n      tag_159\n      jump\t// in\n    tag_198:\n        /* \"#utility.yul\":1657:1663   */\n      dup2\n        /* \"#utility.yul\":1653:1693   */\n      add\n        /* \"#utility.yul\":1795:1801   */\n      dup2\n        /* \"#utility.yul\":1783:1793   */\n      dup2\n        /* \"#utility.yul\":1780:1802   */\n      lt\n        /* \"#utility.yul\":1759:1777   */\n      0xffffffffffffffff\n        /* \"#utility.yul\":1747:1757   */\n      dup3\n        /* \"#utility.yul\":1744:1778   */\n      gt\n        /* \"#utility.yul\":1741:1803   */\n      or\n        /* \"#utility.yul\":1738:1826   */\n      iszero\n      tag_199\n      jumpi\n        /* \"#utility.yul\":1806:1824   */\n      tag_200\n      tag_160\n      jump\t// in\n    tag_200:\n        /* \"#utility.yul\":1738:1826   */\n    tag_199:\n        /* \"#utility.yul\":1846:1856   */\n      dup1\n        /* \"#utility.yul\":1842:1844   */\n      0x40\n        /* \"#utility.yul\":1835:1857   */\n      mstore\n        /* \"#utility.yul\":1625:1863   */\n      pop\n        /* \"#utility.yul\":1582:1863   */\n      pop\n      pop\n      jump\t// out\n        /* \"#utility.yul\":1869:1998   */\n    tag_162:\n        /* \"#utility.yul\":1903:1909   */\n      0x00\n        /* \"#utility.yul\":1930:1950   */\n      tag_202\n      tag_152\n      jump\t// in\n    tag_202:\n        /* \"#utility.yul\":1920:1950   */\n      swap1\n      pop\n        /* \"#utility.yul\":1959:1992   */\n      tag_203\n        /* \"#utility.yul\":1987:1991   */\n      dup3\n        /* \"#utility.yul\":1979:1985   */\n      dup3\n        /* \"#utility.yul\":1959:1992   */\n      tag_161\n      jump\t// in\n    tag_203:\n        /* \"#utility.yul\":1869:1998   */\n      swap2\n      swap1\n      pop\n      jump\t// out\n        /* \"#utility.yul\":2004:2312   */\n    tag_163:\n        /* \"#utility.yul\":2066:2070   */\n      0x00\n        /* \"#utility.yul\":2156:2174   */\n      0xffffffffffffffff\n        /* \"#utility.yul\":2148:2154   */\n      dup3\n        /* \"#utility.yul\":2145:2175   */\n      gt\n        /* \"#utility.yul\":2142:2198   */\n      iszero\n      tag_205\n      jumpi\n        /* \"#utility.yul\":2178:2196   */\n      tag_206\n      tag_160\n      jump\t// in\n    tag_206:\n        /* \"#utility.yul\":2142:2198   */\n    tag_205:\n        /* \"#utility.yul\":2216:2245   */\n      tag_207\n        /* \"#utility.yul\":2238:2244   */\n      dup3\n        /* \"#utility.yul\":2216:2245   */\n      tag_159\n      jump\t// in\n    tag_207:\n        /* \"#utility.yul\":2208:2245   */\n      swap1\n      pop\n        /* \"#utility.yul\":2300:2304   */\n      0x20\n        /* \"#utility.yul\":2294:2298   */\n      dup2\n        /* \"#utility.yul\":2290:2305   */\n      add\n        /* \"#utility.yul\":2282:2305   */\n      swap1\n      pop\n        /* \"#utility.yul\":2004:2312   */\n      swap2\n      swap1\n      pop\n      jump\t// out\n        /* \"#utility.yul\":2318:2472   */\n    tag_164:\n        /* \"#utility.yul\":2402:2408   */\n      dup3\n        /* \"#utility.yul\":2397:2400   */\n      dup2\n        /* \"#utility.yul\":2392:2395   */\n      dup4\n        /* \"#utility.yul\":2379:2409   */\n      calldatacopy\n        /* \"#utility.yul\":2464:2465   */\n      0x00\n        /* \"#utility.yul\":2455:2461   */\n      dup4\n        /* \"#utility.yul\":2450:2453   */\n      dup4\n        /* \"#utility.yul\":2446:2462   */\n      add\n        /* \"#utility.yul\":2439:2466   */\n      mstore\n        /* \"#utility.yul\":2318:2472   */\n      pop\n      pop\n      pop\n      jump\t// out\n        /* \"#utility.yul\":2478:2890   */\n    tag_165:\n        /* \"#utility.yul\":2556:2561   */\n      0x00\n        /* \"#utility.yul\":2581:2647   */\n      tag_210\n        /* \"#utility.yul\":2597:2646   */\n      tag_211\n        /* \"#utility.yul\":2639:2645   */\n      dup5\n        /* \"#utility.yul\":2597:2646   */\n      tag_163\n      jump\t// in\n    tag_211:\n        /* \"#utility.yul\":2581:2647   */\n      tag_162\n      jump\t// in\n    tag_210:\n        /* \"#utility.yul\":2572:2647   */\n      swap1\n      pop\n        /* \"#utility.yul\":2670:2676   */\n      dup3\n        /* \"#utility.yul\":2663:2668   */\n      dup2\n        /* \"#utility.yul\":2656:2677   */\n      mstore\n        /* \"#utility.yul\":2708:2712   */\n      0x20\n        /* \"#utility.yul\":2701:2706   */\n      dup2\n        /* \"#utility.yul\":2697:2713   */\n      add\n        /* \"#utility.yul\":2746:2749   */\n      dup5\n        /* \"#utility.yul\":2737:2743   */\n      dup5\n        /* \"#utility.yul\":2732:2735   */\n      dup5\n        /* \"#utility.yul\":2728:2744   */\n      add\n        /* \"#utility.yul\":2725:2750   */\n      gt\n        /* \"#utility.yul\":2722:2834   */\n      iszero\n      tag_212\n      jumpi\n        /* \"#utility.yul\":2753:2832   */\n      tag_213\n      tag_158\n      jump\t// in\n    tag_213:\n        /* \"#utility.yul\":2722:2834   */\n    tag_212:\n        /* \"#utility.yul\":2843:2884   */\n      tag_214\n        /* \"#utility.yul\":2877:2883   */\n      dup5\n        /* \"#utility.yul\":2872:2875   */\n      dup3\n        /* \"#utility.yul\":2867:2870   */\n      dup6\n        /* \"#utility.yul\":2843:2884   */\n      tag_164\n      jump\t// in\n    tag_214:\n        /* \"#utility.yul\":2562:2890   */\n      pop\n        /* \"#utility.yul\":2478:2890   */\n      swap4\n      swap3\n      pop\n      pop\n      pop\n      jump\t// out\n        /* \"#utility.yul\":2910:3250   */\n    tag_166:\n        /* \"#utility.yul\":2966:2971   */\n      0x00\n        /* \"#utility.yul\":3015:3018   */\n      dup3\n        /* \"#utility.yul\":3008:3012   */\n      0x1f\n        /* \"#utility.yul\":3000:3006   */\n      dup4\n        /* \"#utility.yul\":2996:3013   */\n      add\n        /* \"#utility.yul\":2992:3019   */\n      slt\n        /* \"#utility.yul\":2982:3104   */\n      tag_216\n      jumpi\n        /* \"#utility.yul\":3023:3102   */\n      tag_217\n      tag_157\n      jump\t// in\n    tag_217:\n        /* \"#utility.yul\":2982:3104   */\n    tag_216:\n        /* \"#utility.yul\":3140:3146   */\n      dup2\n        /* \"#utility.yul\":3127:3147   */\n      calldataload\n        /* \"#utility.yul\":3165:3244   */\n      tag_218\n        /* \"#utility.yul\":3240:3243   */\n      dup5\n        /* \"#utility.yul\":3232:3238   */\n      dup3\n        /* \"#utility.yul\":3225:3229   */\n      0x20\n        /* \"#utility.yul\":3217:3223   */\n      dup7\n        /* \"#utility.yul\":3213:3230   */\n      add\n        /* \"#utility.yul\":3165:3244   */\n      tag_165\n      jump\t// in\n    tag_218:\n        /* \"#utility.yul\":3156:3244   */\n      swap2\n      pop\n        /* \"#utility.yul\":2972:3250   */\n      pop\n        /* \"#utility.yul\":2910:3250   */\n      swap3\n      swap2\n      pop\n      pop\n      jump\t// out\n        /* \"#utility.yul\":3256:3910   */\n    tag_29:\n        /* \"#utility.yul\":3334:3340   */\n      0x00\n        /* \"#utility.yul\":3342:3348   */\n      dup1\n        /* \"#utility.yul\":3391:3393   */\n      0x40\n        /* \"#utility.yul\":3379:3388   */\n      dup4\n        /* \"#utility.yul\":3370:3377   */\n      dup6\n        /* \"#utility.yul\":3366:3389   */\n      sub\n        /* \"#utility.yul\":3362:3394   */\n      slt\n        /* \"#utility.yul\":3359:3478   */\n      iszero\n      tag_220\n      jumpi\n        /* \"#utility.yul\":3397:3476   */\n      tag_221\n      tag_153\n      jump\t// in\n    tag_221:\n        /* \"#utility.yul\":3359:3478   */\n    tag_220:\n        /* \"#utility.yul\":3517:3518   */\n      0x00\n        /* \"#utility.yul\":3542:3595   */\n      tag_222\n        /* \"#utility.yul\":3587:3594   */\n      dup6\n        /* \"#utility.yul\":3578:3584   */\n      dup3\n        /* \"#utility.yul\":3567:3576   */\n      dup7\n        /* \"#utility.yul\":3563:3585   */\n      add\n        /* \"#utility.yul\":3542:3595   */\n      tag_156\n      jump\t// in\n    tag_222:\n        /* \"#utility.yul\":3532:3595   */\n      swap3\n      pop\n        /* \"#utility.yul\":3488:3605   */\n      pop\n        /* \"#utility.yul\":3672:3674   */\n      0x20\n        /* \"#utility.yul\":3661:3670   */\n      dup4\n        /* \"#utility.yul\":3657:3675   */\n      add\n        /* \"#utility.yul\":3644:3676   */\n      calldataload\n        /* \"#utility.yul\":3703:3721   */\n      0xffffffffffffffff\n        /* \"#utility.yul\":3695:3701   */\n      dup2\n        /* \"#utility.yul\":3692:3722   */\n      gt\n        /* \"#utility.yul\":3689:3806   */\n      iszero\n      tag_223\n      jumpi\n        /* \"#utility.yul\":3725:3804   */\n      tag_224\n      tag_154\n      jump\t// in\n    tag_224:\n        /* \"#utility.yul\":3689:3806   */\n    tag_223:\n        /* \"#utility.yul\":3830:3893   */\n      tag_225\n        /* \"#utility.yul\":3885:3892   */\n      dup6\n        /* \"#utility.yul\":3876:3882   */\n      dup3\n        /* \"#utility.yul\":3865:3874   */\n      dup7\n        /* \"#utility.yul\":3861:3883   */\n      add\n        /* \"#utility.yul\":3830:3893   */\n      tag_166\n      jump\t// in\n    tag_225:\n        /* \"#utility.yul\":3820:3893   */\n      swap2\n      pop\n        /* \"#utility.yul\":3615:3903   */\n      pop\n        /* \"#utility.yul\":3256:3910   */\n      swap3\n      pop\n      swap3\n      swap1\n      pop\n      jump\t// out\n        /* \"#utility.yul\":3916:4245   */\n    tag_33:\n        /* \"#utility.yul\":3975:3981   */\n      0x00\n        /* \"#utility.yul\":4024:4026   */\n      0x20\n        /* \"#utility.yul\":4012:4021   */\n      dup3\n        /* \"#utility.yul\":4003:4010   */\n      dup5\n        /* \"#utility.yul\":3999:4022   */\n      sub\n        /* \"#utility.yul\":3995:4027   */\n      slt\n        /* \"#utility.yul\":3992:4111   */\n      iszero\n      tag_227\n      jumpi\n        /* \"#utility.yul\":4030:4109   */\n      tag_228\n      tag_153\n      jump\t// in\n    tag_228:\n        /* \"#utility.yul\":3992:4111   */\n    tag_227:\n        /* \"#utility.yul\":4150:4151   */\n      0x00\n        /* \"#utility.yul\":4175:4228   */\n      tag_229\n        /* \"#utility.yul\":4220:4227   */\n      dup5\n        /* \"#utility.yul\":4211:4217   */\n      dup3\n        /* \"#utility.yul\":4200:4209   */\n      dup6\n        /* \"#utility.yul\":4196:4218   */\n      add\n        /* \"#utility.yul\":4175:4228   */\n      tag_156\n      jump\t// in\n    tag_229:\n        /* \"#utility.yul\":4165:4228   */\n      swap2\n      pop\n        /* \"#utility.yul\":4121:4238   */\n      pop\n        /* \"#utility.yul\":3916:4245   */\n      swap3\n      swap2\n      pop\n      pop\n      jump\t// out\n        /* \"#utility.yul\":4251:4350   */\n    tag_167:\n        /* \"#utility.yul\":4303:4309   */\n      0x00\n        /* \"#utility.yul\":4337:4342   */\n      dup2\n        /* \"#utility.yul\":4331:4343   */\n      mload\n        /* \"#utility.yul\":4321:4343   */\n      swap1\n      pop\n        /* \"#utility.yul\":4251:4350   */\n      swap2\n      swap1\n      pop\n      jump\t// out\n        /* \"#utility.yul\":4356:4525   */\n    tag_168:\n        /* \"#utility.yul\":4440:4451   */\n      0x00\n        /* \"#utility.yul\":4474:4480   */\n      dup3\n        /* \"#utility.yul\":4469:4472   */\n      dup3\n        /* \"#utility.yul\":4462:4481   */\n      mstore\n        /* \"#utility.yul\":4514:4518   */\n      0x20\n        /* \"#utility.yul\":4509:4512   */\n      dup3\n        /* \"#utility.yul\":4505:4519   */\n      add\n        /* \"#utility.yul\":4490:4519   */\n      swap1\n      pop\n        /* \"#utility.yul\":4356:4525   */\n      swap3\n      swap2\n      pop\n      pop\n      jump\t// out\n        /* \"#utility.yul\":4531:4838   */\n    tag_169:\n        /* \"#utility.yul\":4599:4600   */\n      0x00\n        /* \"#utility.yul\":4609:4722   */\n    tag_233:\n        /* \"#utility.yul\":4623:4629   */\n      dup4\n        /* \"#utility.yul\":4620:4621   */\n      dup2\n        /* \"#utility.yul\":4617:4630   */\n      lt\n        /* \"#utility.yul\":4609:4722   */\n      iszero\n      tag_235\n      jumpi\n        /* \"#utility.yul\":4708:4709   */\n      dup1\n        /* \"#utility.yul\":4703:4706   */\n      dup3\n        /* \"#utility.yul\":4699:4710   */\n      add\n        /* \"#utility.yul\":4693:4711   */\n      mload\n        /* \"#utility.yul\":4689:4690   */\n      dup2\n        /* \"#utility.yul\":4684:4687   */\n      dup5\n        /* \"#utility.yul\":4680:4691   */\n      add\n        /* \"#utility.yul\":4673:4712   */\n      mstore\n        /* \"#utility.yul\":4645:4647   */\n      0x20\n        /* \"#utility.yul\":4642:4643   */\n      dup2\n        /* \"#utility.yul\":4638:4648   */\n      add\n        /* \"#utility.yul\":4633:4648   */\n      swap1\n      pop\n        /* \"#utility.yul\":4609:4722   */\n      jump(tag_233)\n    tag_235:\n        /* \"#utility.yul\":4740:4746   */\n      dup4\n        /* \"#utility.yul\":4737:4738   */\n      dup2\n        /* \"#utility.yul\":4734:4747   */\n      gt\n        /* \"#utility.yul\":4731:4832   */\n      iszero\n      tag_236\n      jumpi\n        /* \"#utility.yul\":4820:4821   */\n      0x00\n        /* \"#utility.yul\":4811:4817   */\n      dup5\n        /* \"#utility.yul\":4806:4809   */\n      dup5\n        /* \"#utility.yul\":4802:4818   */\n      add\n        /* \"#utility.yul\":4795:4822   */\n      mstore\n        /* \"#utility.yul\":4731:4832   */\n    tag_236:\n        /* \"#utility.yul\":4580:4838   */\n      pop\n        /* \"#utility.yul\":4531:4838   */\n      pop\n      pop\n      pop\n      jump\t// out\n        /* \"#utility.yul\":4844:5208   */\n    tag_170:\n        /* \"#utility.yul\":4932:4935   */\n      0x00\n        /* \"#utility.yul\":4960:4999   */\n      tag_238\n        /* \"#utility.yul\":4993:4998   */\n      dup3\n        /* \"#utility.yul\":4960:4999   */\n      tag_167\n      jump\t// in\n    tag_238:\n        /* \"#utility.yul\":5015:5086   */\n      tag_239\n        /* \"#utility.yul\":5079:5085   */\n      dup2\n        /* \"#utility.yul\":5074:5077   */\n      dup6\n        /* \"#utility.yul\":5015:5086   */\n      tag_168\n      jump\t// in\n    tag_239:\n        /* \"#utility.yul\":5008:5086   */\n      swap4\n      pop\n        /* \"#utility.yul\":5095:5147   */\n      tag_240\n        /* \"#utility.yul\":5140:5146   */\n      dup2\n        /* \"#utility.yul\":5135:5138   */\n      dup6\n        /* \"#utility.yul\":5128:5132   */\n      0x20\n        /* \"#utility.yul\":5121:5126   */\n      dup7\n        /* \"#utility.yul\":5117:5133   */\n      add\n        /* \"#utility.yul\":5095:5147   */\n      tag_169\n      jump\t// in\n    tag_240:\n        /* \"#utility.yul\":5172:5201   */\n      tag_241\n        /* \"#utility.yul\":5194:5200   */\n      dup2\n        /* \"#utility.yul\":5172:5201   */\n      tag_159\n      jump\t// in\n    tag_241:\n        /* \"#utility.yul\":5167:5170   */\n      dup5\n        /* \"#utility.yul\":5163:5202   */\n      add\n        /* \"#utility.yul\":5156:5202   */\n      swap2\n      pop\n        /* \"#utility.yul\":4936:5208   */\n      pop\n        /* \"#utility.yul\":4844:5208   */\n      swap3\n      swap2\n      pop\n      pop\n      jump\t// out\n        /* \"#utility.yul\":5214:5527   */\n    tag_36:\n        /* \"#utility.yul\":5327:5331   */\n      0x00\n        /* \"#utility.yul\":5365:5367   */\n      0x20\n        /* \"#utility.yul\":5354:5363   */\n      dup3\n        /* \"#utility.yul\":5350:5368   */\n      add\n        /* \"#utility.yul\":5342:5368   */\n      swap1\n      pop\n        /* \"#utility.yul\":5414:5423   */\n      dup2\n        /* \"#utility.yul\":5408:5412   */\n      dup2\n        /* \"#utility.yul\":5404:5424   */\n      sub\n        /* \"#utility.yul\":5400:5401   */\n      0x00\n        /* \"#utility.yul\":5389:5398   */\n      dup4\n        /* \"#utility.yul\":5385:5402   */\n      add\n        /* \"#utility.yul\":5378:5425   */\n      mstore\n        /* \"#utility.yul\":5442:5520   */\n      tag_243\n        /* \"#utility.yul\":5515:5519   */\n      dup2\n        /* \"#utility.yul\":5506:5512   */\n      dup5\n        /* \"#utility.yul\":5442:5520   */\n      tag_170\n      jump\t// in\n    tag_243:\n        /* \"#utility.yul\":5434:5520   */\n      swap1\n      pop\n        /* \"#utility.yul\":5214:5527   */\n      swap3\n      swap2\n      pop\n      pop\n      jump\t// out\n        /* \"#utility.yul\":5533:5659   */\n    tag_171:\n        /* \"#utility.yul\":5570:5577   */\n      0x00\n        /* \"#utility.yul\":5610:5652   */\n      0xffffffffffffffffffffffffffffffffffffffff\n        /* \"#utility.yul\":5603:5608   */\n      dup3\n        /* \"#utility.yul\":5599:5653   */\n      and\n        /* \"#utility.yul\":5588:5653   */\n      swap1\n      pop\n        /* \"#utility.yul\":5533:5659   */\n      swap2\n      swap1\n      pop\n      jump\t// out\n        /* \"#utility.yul\":5665:5761   */\n    tag_172:\n        /* \"#utility.yul\":5702:5709   */\n      0x00\n        /* \"#utility.yul\":5731:5755   */\n      tag_246\n        /* \"#utility.yul\":5749:5754   */\n      dup3\n        /* \"#utility.yul\":5731:5755   */\n      tag_171\n      jump\t// in\n    tag_246:\n        /* \"#utility.yul\":5720:5755   */\n      swap1\n      pop\n        /* \"#utility.yul\":5665:5761   */\n      swap2\n      swap1\n      pop\n      jump\t// out\n        /* \"#utility.yul\":5767:5889   */\n    tag_173:\n        /* \"#utility.yul\":5840:5864   */\n      tag_248\n        /* \"#utility.yul\":5858:5863   */\n      dup2\n        /* \"#utility.yul\":5840:5864   */\n      tag_172\n      jump\t// in\n    tag_248:\n        /* \"#utility.yul\":5833:5838   */\n      dup2\n        /* \"#utility.yul\":5830:5865   */\n      eq\n        /* \"#utility.yul\":5820:5883   */\n      tag_249\n      jumpi\n        /* \"#utility.yul\":5879:5880   */\n      0x00\n        /* \"#utility.yul\":5876:5877   */\n      dup1\n        /* \"#utility.yul\":5869:5881   */\n      revert\n        /* \"#utility.yul\":5820:5883   */\n    tag_249:\n        /* \"#utility.yul\":5767:5889   */\n      pop\n      jump\t// out\n        /* \"#utility.yul\":5895:6034   */\n    tag_174:\n        /* \"#utility.yul\":5941:5946   */\n      0x00\n        /* \"#utility.yul\":5979:5985   */\n      dup2\n        /* \"#utility.yul\":5966:5986   */\n      calldataload\n        /* \"#utility.yul\":5957:5986   */\n      swap1\n      pop\n        /* \"#utility.yul\":5995:6028   */\n      tag_251\n        /* \"#utility.yul\":6022:6027   */\n      dup2\n        /* \"#utility.yul\":5995:6028   */\n      tag_173\n      jump\t// in\n    tag_251:\n        /* \"#utility.yul\":5895:6034   */\n      swap3\n      swap2\n      pop\n      pop\n      jump\t// out\n        /* \"#utility.yul\":6040:6369   */\n    tag_42:\n        /* \"#utility.yul\":6099:6105   */\n      0x00\n        /* \"#utility.yul\":6148:6150   */\n      0x20\n        /* \"#utility.yul\":6136:6145   */\n      dup3\n        /* \"#utility.yul\":6127:6134   */\n      dup5\n        /* \"#utility.yul\":6123:6146   */\n      sub\n        /* \"#utility.yul\":6119:6151   */\n      slt\n        /* \"#utility.yul\":6116:6235   */\n      iszero\n      tag_253\n      jumpi\n        /* \"#utility.yul\":6154:6233   */\n      tag_254\n      tag_153\n      jump\t// in\n    tag_254:\n        /* \"#utility.yul\":6116:6235   */\n    tag_253:\n        /* \"#utility.yul\":6274:6275   */\n      0x00\n        /* \"#utility.yul\":6299:6352   */\n      tag_255\n        /* \"#utility.yul\":6344:6351   */\n      dup5\n        /* \"#utility.yul\":6335:6341   */\n      dup3\n        /* \"#utility.yul\":6324:6333   */\n      dup6\n        /* \"#utility.yul\":6320:6342   */\n      add\n        /* \"#utility.yul\":6299:6352   */\n      tag_174\n      jump\t// in\n    tag_255:\n        /* \"#utility.yul\":6289:6352   */\n      swap2\n      pop\n        /* \"#utility.yul\":6245:6362   */\n      pop\n        /* \"#utility.yul\":6040:6369   */\n      swap3\n      swap2\n      pop\n      pop\n      jump\t// out\n        /* \"#utility.yul\":6375:6493   */\n    tag_175:\n        /* \"#utility.yul\":6462:6486   */\n      tag_257\n        /* \"#utility.yul\":6480:6485   */\n      dup2\n        /* \"#utility.yul\":6462:6486   */\n      tag_172\n      jump\t// in\n    tag_257:\n        /* \"#utility.yul\":6457:6460   */\n      dup3\n        /* \"#utility.yul\":6450:6487   */\n      mstore\n        /* \"#utility.yul\":6375:6493   */\n      pop\n      pop\n      jump\t// out\n        /* \"#utility.yul\":6499:6721   */\n    tag_49:\n        /* \"#utility.yul\":6592:6596   */\n      0x00\n        /* \"#utility.yul\":6630:6632   */\n      0x20\n        /* \"#utility.yul\":6619:6628   */\n      dup3\n        /* \"#utility.yul\":6615:6633   */\n      add\n        /* \"#utility.yul\":6607:6633   */\n      swap1\n      pop\n        /* \"#utility.yul\":6643:6714   */\n      tag_259\n        /* \"#utility.yul\":6711:6712   */\n      0x00\n        /* \"#utility.yul\":6700:6709   */\n      dup4\n        /* \"#utility.yul\":6696:6713   */\n      add\n        /* \"#utility.yul\":6687:6693   */\n      dup5\n        /* \"#utility.yul\":6643:6714   */\n      tag_175\n      jump\t// in\n    tag_259:\n        /* \"#utility.yul\":6499:6721   */\n      swap3\n      swap2\n      pop\n      pop\n      jump\t// out\n        /* \"#utility.yul\":6727:7260   */\n    tag_60:\n        /* \"#utility.yul\":6896:6900   */\n      0x00\n        /* \"#utility.yul\":6934:6936   */\n      0x60\n        /* \"#utility.yul\":6923:6932   */\n      dup3\n        /* \"#utility.yul\":6919:6937   */\n      add\n        /* \"#utility.yul\":6911:6937   */\n      swap1\n      pop\n        /* \"#utility.yul\":6947:7018   */\n      tag_261\n        /* \"#utility.yul\":7015:7016   */\n      0x00\n        /* \"#utility.yul\":7004:7013   */\n      dup4\n        /* \"#utility.yul\":7000:7017   */\n      add\n        /* \"#utility.yul\":6991:6997   */\n      dup7\n        /* \"#utility.yul\":6947:7018   */\n      tag_151\n      jump\t// in\n    tag_261:\n        /* \"#utility.yul\":7028:7100   */\n      tag_262\n        /* \"#utility.yul\":7096:7098   */\n      0x20\n        /* \"#utility.yul\":7085:7094   */\n      dup4\n        /* \"#utility.yul\":7081:7099   */\n      add\n        /* \"#utility.yul\":7072:7078   */\n      dup6\n        /* \"#utility.yul\":7028:7100   */\n      tag_175\n      jump\t// in\n    tag_262:\n        /* \"#utility.yul\":7147:7156   */\n      dup2\n        /* \"#utility.yul\":7141:7145   */\n      dup2\n        /* \"#utility.yul\":7137:7157   */\n      sub\n        /* \"#utility.yul\":7132:7134   */\n      0x40\n        /* \"#utility.yul\":7121:7130   */\n      dup4\n        /* \"#utility.yul\":7117:7135   */\n      add\n        /* \"#utility.yul\":7110:7158   */\n      mstore\n        /* \"#utility.yul\":7175:7253   */\n      tag_263\n        /* \"#utility.yul\":7248:7252   */\n      dup2\n        /* \"#utility.yul\":7239:7245   */\n      dup5\n        /* \"#utility.yul\":7175:7253   */\n      tag_170\n      jump\t// in\n    tag_263:\n        /* \"#utility.yul\":7167:7253   */\n      swap1\n      pop\n        /* \"#utility.yul\":6727:7260   */\n      swap5\n      swap4\n      pop\n      pop\n      pop\n      pop\n      jump\t// out\n        /* \"#utility.yul\":7266:8065   */\n    tag_76:\n        /* \"#utility.yul\":7353:7359   */\n      0x00\n        /* \"#utility.yul\":7361:7367   */\n      dup1\n        /* \"#utility.yul\":7369:7375   */\n      0x00\n        /* \"#utility.yul\":7418:7420   */\n      0x60\n        /* \"#utility.yul\":7406:7415   */\n      dup5\n        /* \"#utility.yul\":7397:7404   */\n      dup7\n        /* \"#utility.yul\":7393:7416   */\n      sub\n        /* \"#utility.yul\":7389:7421   */\n      slt\n        /* \"#utility.yul\":7386:7505   */\n      iszero\n      tag_265\n      jumpi\n        /* \"#utility.yul\":7424:7503   */\n      tag_266\n      tag_153\n      jump\t// in\n    tag_266:\n        /* \"#utility.yul\":7386:7505   */\n    tag_265:\n        /* \"#utility.yul\":7572:7573   */\n      0x00\n        /* \"#utility.yul\":7561:7570   */\n      dup5\n        /* \"#utility.yul\":7557:7574   */\n      add\n        /* \"#utility.yul\":7544:7575   */\n      calldataload\n        /* \"#utility.yul\":7602:7620   */\n      0xffffffffffffffff\n        /* \"#utility.yul\":7594:7600   */\n      dup2\n        /* \"#utility.yul\":7591:7621   */\n      gt\n        /* \"#utility.yul\":7588:7705   */\n      iszero\n      tag_267\n      jumpi\n        /* \"#utility.yul\":7624:7703   */\n      tag_268\n      tag_154\n      jump\t// in\n    tag_268:\n        /* \"#utility.yul\":7588:7705   */\n    tag_267:\n        /* \"#utility.yul\":7729:7792   */\n      tag_269\n        /* \"#utility.yul\":7784:7791   */\n      dup7\n        /* \"#utility.yul\":7775:7781   */\n      dup3\n        /* \"#utility.yul\":7764:7773   */\n      dup8\n        /* \"#utility.yul\":7760:7782   */\n      add\n        /* \"#utility.yul\":7729:7792   */\n      tag_166\n      jump\t// in\n    tag_269:\n        /* \"#utility.yul\":7719:7792   */\n      swap4\n      pop\n        /* \"#utility.yul\":7515:7802   */\n      pop\n        /* \"#utility.yul\":7841:7843   */\n      0x20\n        /* \"#utility.yul\":7867:7920   */\n      tag_270\n        /* \"#utility.yul\":7912:7919   */\n      dup7\n        /* \"#utility.yul\":7903:7909   */\n      dup3\n        /* \"#utility.yul\":7892:7901   */\n      dup8\n        /* \"#utility.yul\":7888:7910   */\n      add\n        /* \"#utility.yul\":7867:7920   */\n      tag_156\n      jump\t// in\n    tag_270:\n        /* \"#utility.yul\":7857:7920   */\n      swap3\n      pop\n        /* \"#utility.yul\":7812:7930   */\n      pop\n        /* \"#utility.yul\":7969:7971   */\n      0x40\n        /* \"#utility.yul\":7995:8048   */\n      tag_271\n        /* \"#utility.yul\":8040:8047   */\n      dup7\n        /* \"#utility.yul\":8031:8037   */\n      dup3\n        /* \"#utility.yul\":8020:8029   */\n      dup8\n        /* \"#utility.yul\":8016:8038   */\n      add\n        /* \"#utility.yul\":7995:8048   */\n      tag_156\n      jump\t// in\n    tag_271:\n        /* \"#utility.yul\":7985:8048   */\n      swap2\n      pop\n        /* \"#utility.yul\":7940:8058   */\n      pop\n        /* \"#utility.yul\":7266:8065   */\n      swap3\n      pop\n      swap3\n      pop\n      swap3\n      jump\t// out\n        /* \"#utility.yul\":8071:8580   */\n    tag_85:\n        /* \"#utility.yul\":8140:8146   */\n      0x00\n        /* \"#utility.yul\":8189:8191   */\n      0x20\n        /* \"#utility.yul\":8177:8186   */\n      dup3\n        /* \"#utility.yul\":8168:8175   */\n      dup5\n        /* \"#utility.yul\":8164:8187   */\n      sub\n        /* \"#utility.yul\":8160:8192   */\n      slt\n        /* \"#utility.yul\":8157:8276   */\n      iszero\n      tag_273\n      jumpi\n        /* \"#utility.yul\":8195:8274   */\n      tag_274\n      tag_153\n      jump\t// in\n    tag_274:\n        /* \"#utility.yul\":8157:8276   */\n    tag_273:\n        /* \"#utility.yul\":8343:8344   */\n      0x00\n        /* \"#utility.yul\":8332:8341   */\n      dup3\n        /* \"#utility.yul\":8328:8345   */\n      add\n        /* \"#utility.yul\":8315:8346   */\n      calldataload\n        /* \"#utility.yul\":8373:8391   */\n      0xffffffffffffffff\n        /* \"#utility.yul\":8365:8371   */\n      dup2\n        /* \"#utility.yul\":8362:8392   */\n      gt\n        /* \"#utility.yul\":8359:8476   */\n      iszero\n      tag_275\n      jumpi\n        /* \"#utility.yul\":8395:8474   */\n      tag_276\n      tag_154\n      jump\t// in\n    tag_276:\n        /* \"#utility.yul\":8359:8476   */\n    tag_275:\n        /* \"#utility.yul\":8500:8563   */\n      tag_277\n        /* \"#utility.yul\":8555:8562   */\n      dup5\n        /* \"#utility.yul\":8546:8552   */\n      dup3\n        /* \"#utility.yul\":8535:8544   */\n      dup6\n        /* \"#utility.yul\":8531:8553   */\n      add\n        /* \"#utility.yul\":8500:8563   */\n      tag_166\n      jump\t// in\n    tag_277:\n        /* \"#utility.yul\":8490:8563   */\n      swap2\n      pop\n        /* \"#utility.yul\":8286:8573   */\n      pop\n        /* \"#utility.yul\":8071:8580   */\n      swap3\n      swap2\n      pop\n      pop\n      jump\t// out\n        /* \"#utility.yul\":8586:8766   */\n    tag_176:\n        /* \"#utility.yul\":8634:8711   */\n      0x4e487b7100000000000000000000000000000000000000000000000000000000\n        /* \"#utility.yul\":8631:8632   */\n      0x00\n        /* \"#utility.yul\":8624:8712   */\n      mstore\n        /* \"#utility.yul\":8731:8735   */\n      0x22\n        /* \"#utility.yul\":8728:8729   */\n      0x04\n        /* \"#utility.yul\":8721:8736   */\n      mstore\n        /* \"#utility.yul\":8755:8759   */\n      0x24\n        /* \"#utility.yul\":8752:8753   */\n      0x00\n        /* \"#utility.yul\":8745:8760   */\n      revert\n        /* \"#utility.yul\":8772:9092   */\n    tag_92:\n        /* \"#utility.yul\":8816:8822   */\n      0x00\n        /* \"#utility.yul\":8853:8854   */\n      0x02\n        /* \"#utility.yul\":8847:8851   */\n      dup3\n        /* \"#utility.yul\":8843:8855   */\n      div\n        /* \"#utility.yul\":8833:8855   */\n      swap1\n      pop\n        /* \"#utility.yul\":8900:8901   */\n      0x01\n        /* \"#utility.yul\":8894:8898   */\n      dup3\n        /* \"#utility.yul\":8890:8902   */\n      and\n        /* \"#utility.yul\":8921:8939   */\n      dup1\n        /* \"#utility.yul\":8911:8992   */\n      tag_280\n      jumpi\n        /* \"#utility.yul\":8977:8981   */\n      0x7f\n        /* \"#utility.yul\":8969:8975   */\n      dup3\n        /* \"#utility.yul\":8965:8982   */\n      and\n        /* \"#utility.yul\":8955:8982   */\n      swap2\n      pop\n        /* \"#utility.yul\":8911:8992   */\n    tag_280:\n        /* \"#utility.yul\":9039:9041   */\n      0x20\n        /* \"#utility.yul\":9031:9037   */\n      dup3\n        /* \"#utility.yul\":9028:9042   */\n      lt\n        /* \"#utility.yul\":9008:9026   */\n      dup2\n        /* \"#utility.yul\":9005:9043   */\n      sub\n        /* \"#utility.yul\":9002:9086   */\n      tag_281\n      jumpi\n        /* \"#utility.yul\":9058:9076   */\n      tag_282\n      tag_176\n      jump\t// in\n    tag_282:\n        /* \"#utility.yul\":9002:9086   */\n    tag_281:\n        /* \"#utility.yul\":8823:9092   */\n      pop\n        /* \"#utility.yul\":8772:9092   */\n      swap2\n      swap1\n      pop\n      jump\t// out\n        /* \"#utility.yul\":9098:9278   */\n    tag_105:\n        /* \"#utility.yul\":9146:9223   */\n      0x4e487b7100000000000000000000000000000000000000000000000000000000\n        /* \"#utility.yul\":9143:9144   */\n      0x00\n        /* \"#utility.yul\":9136:9224   */\n      mstore\n        /* \"#utility.yul\":9243:9247   */\n      0x32\n        /* \"#utility.yul\":9240:9241   */\n      0x04\n        /* \"#utility.yul\":9233:9248   */\n      mstore\n        /* \"#utility.yul\":9267:9271   */\n      0x24\n        /* \"#utility.yul\":9264:9265   */\n      0x00\n        /* \"#utility.yul\":9257:9272   */\n      revert\n        /* \"#utility.yul\":9284:9510   */\n    tag_177:\n        /* \"#utility.yul\":9424:9458   */\n      0x4f6e6c792061756374696f6e6565722063616e2063616c6c2074686973206675\n        /* \"#utility.yul\":9420:9421   */\n      0x00\n        /* \"#utility.yul\":9412:9418   */\n      dup3\n        /* \"#utility.yul\":9408:9422   */\n      add\n        /* \"#utility.yul\":9401:9459   */\n      mstore\n        /* \"#utility.yul\":9493:9502   */\n      0x6e6374696f6e2e00000000000000000000000000000000000000000000000000\n        /* \"#utility.yul\":9488:9490   */\n      0x20\n        /* \"#utility.yul\":9480:9486   */\n      dup3\n        /* \"#utility.yul\":9476:9491   */\n      add\n        /* \"#utility.yul\":9469:9503   */\n      mstore\n        /* \"#utility.yul\":9284:9510   */\n      pop\n      jump\t// out\n        /* \"#utility.yul\":9516:9882   */\n    tag_178:\n        /* \"#utility.yul\":9658:9661   */\n      0x00\n        /* \"#utility.yul\":9679:9746   */\n      tag_286\n        /* \"#utility.yul\":9743:9745   */\n      0x27\n        /* \"#utility.yul\":9738:9741   */\n      dup4\n        /* \"#utility.yul\":9679:9746   */\n      tag_168\n      jump\t// in\n    tag_286:\n        /* \"#utility.yul\":9672:9746   */\n      swap2\n      pop\n        /* \"#utility.yul\":9755:9848   */\n      tag_287\n        /* \"#utility.yul\":9844:9847   */\n      dup3\n        /* \"#utility.yul\":9755:9848   */\n      tag_177\n      jump\t// in\n    tag_287:\n        /* \"#utility.yul\":9873:9875   */\n      0x40\n        /* \"#utility.yul\":9868:9871   */\n      dup3\n        /* \"#utility.yul\":9864:9876   */\n      add\n        /* \"#utility.yul\":9857:9876   */\n      swap1\n      pop\n        /* \"#utility.yul\":9516:9882   */\n      swap2\n      swap1\n      pop\n      jump\t// out\n        /* \"#utility.yul\":9888:10307   */\n    tag_133:\n        /* \"#utility.yul\":10054:10058   */\n      0x00\n        /* \"#utility.yul\":10092:10094   */\n      0x20\n        /* \"#utility.yul\":10081:10090   */\n      dup3\n        /* \"#utility.yul\":10077:10095   */\n      add\n        /* \"#utility.yul\":10069:10095   */\n      swap1\n      pop\n        /* \"#utility.yul\":10141:10150   */\n      dup2\n        /* \"#utility.yul\":10135:10139   */\n      dup2\n        /* \"#utility.yul\":10131:10151   */\n      sub\n        /* \"#utility.yul\":10127:10128   */\n      0x00\n        /* \"#utility.yul\":10116:10125   */\n      dup4\n        /* \"#utility.yul\":10112:10129   */\n      add\n        /* \"#utility.yul\":10105:10152   */\n      mstore\n        /* \"#utility.yul\":10169:10300   */\n      tag_289\n        /* \"#utility.yul\":10295:10299   */\n      dup2\n        /* \"#utility.yul\":10169:10300   */\n      tag_178\n      jump\t// in\n    tag_289:\n        /* \"#utility.yul\":10161:10300   */\n      swap1\n      pop\n        /* \"#utility.yul\":9888:10307   */\n      swap2\n      swap1\n      pop\n      jump\t// out\n\n    auxdata: 0xa2646970667358221220f5a380863cda55c5a738989225e0f92ca9980290fbf89a79141816b24d8e655564736f6c634300080e0033\n}\n",
				"bytecode": {
					"linkReferences": {},
					"object": "608060405234801561001057600080fd5b506110f8806100206000396000f3fe608060405234801561001057600080fd5b506004361061010b5760003560e01c80638f772f96116100a2578063daa0218f11610071578063daa0218f146102d0578063e7d2a997146102ee578063ed7a4e0b1461030a578063f356733c14610328578063ff567d8d146103325761010b565b80638f772f9614610232578063938626c214610264578063cff29dfd14610282578063d476620b146102b25761010b565b80633817df4c116100de5780633817df4c146101985780635fa38280146101c857806366c85dee146101f857806383050daa146102145761010b565b806311631d06146101105780631744e03b1461012e5780632d5f44271461014a57806334eb86a21461017a575b600080fd5b61011861034e565b6040516101259190610b22565b60405180910390f35b61014860048036038101906101439190610cc3565b610354565b005b610164600480360381019061015f9190610d1f565b6103b7565b6040516101719190610dd4565b60405180910390f35b610182610488565b60405161018f9190610b22565b60405180910390f35b6101b260048036038101906101ad9190610e54565b61048e565b6040516101bf9190610dd4565b60405180910390f35b6101e260048036038101906101dd9190610d1f565b61052e565b6040516101ef9190610e90565b60405180910390f35b610212600480360381019061020d9190610cc3565b610576565b005b61021c61064c565b6040516102299190610dd4565b60405180910390f35b61024c60048036038101906102479190610d1f565b610689565b60405161025b93929190610eab565b60405180910390f35b61026c61076b565b6040516102799190610dd4565b60405180910390f35b61029c60048036038101906102979190610d1f565b6107f9565b6040516102a99190610e90565b60405180910390f35b6102ba610838565b6040516102c79190610dd4565b60405180910390f35b6102d86108c6565b6040516102e59190610b22565b60405180910390f35b61030860048036038101906103039190610ee9565b6108cc565b005b610312610984565b60405161031f9190610e90565b60405180910390f35b6103306109aa565b005b61034c60048036038101906103479190610f58565b610a0f565b005b60075481565b33600660006101000a81548173ffffffffffffffffffffffffffffffffffffffff021916908373ffffffffffffffffffffffffffffffffffffffff1602179055508160078190555080600890805190602001906103b2929190610a66565b505050565b6060600560003373ffffffffffffffffffffffffffffffffffffffff1673ffffffffffffffffffffffffffffffffffffffff168152602001908152602001600020805461040390610fd0565b80601f016020809104026020016040519081016040528092919081815260200182805461042f90610fd0565b801561047c5780601f106104515761010080835404028352916020019161047c565b820191906000526020600020905b81548152906001019060200180831161045f57829003601f168201915b50505050509050919050565b60035481565b600560205280600052604060002060009150905080546104ad90610fd0565b80601f01602080910402602001604051908101604052809291908181526020018280546104d990610fd0565b80156105265780601f106104fb57610100808354040283529160200191610526565b820191906000526020600020905b81548152906001019060200180831161050957829003601f168201915b505050505081565b60006001828154811061054457610543611001565b5b9060005260206000200160009054906101000a900473ffffffffffffffffffffffffffffffffffffffff169050919050565b600060405180606001604052808481526020013373ffffffffffffffffffffffffffffffffffffffff16815260200183815250905060098190806001815401808255809150506001900390600052602060002090600302016000909190919091506000820151816000015560208201518160010160006101000a81548173ffffffffffffffffffffffffffffffffffffffff021916908373ffffffffffffffffffffffffffffffffffffffff1602179055506040820151816002019080519060200190610644929190610a66565b505050505050565b60606040518060400160405280601781526020017f73616d706c6520737472696e672066726f6d20414b4542000000000000000000815250905090565b6009818154811061069957600080fd5b90600052602060002090600302016000915090508060000154908060010160009054906101000a900473ffffffffffffffffffffffffffffffffffffffff16908060020180546106e890610fd0565b80601f016020809104026020016040519081016040528092919081815260200182805461071490610fd0565b80156107615780601f1061073657610100808354040283529160200191610761565b820191906000526020600020905b81548152906001019060200180831161074457829003601f168201915b5050505050905083565b6002805461077890610fd0565b80601f01602080910402602001604051908101604052809291908181526020018280546107a490610fd0565b80156107f15780601f106107c6576101008083540402835291602001916107f1565b820191906000526020600020905b8154815290600101906020018083116107d457829003601f168201915b505050505081565b6001818154811061080957600080fd5b906000526020600020016000915054906101000a900473ffffffffffffffffffffffffffffffffffffffff1681565b6008805461084590610fd0565b80601f016020809104026020016040519081016040528092919081815260200182805461087190610fd0565b80156108be5780601f10610893576101008083540402835291602001916108be565b820191906000526020600020905b8154815290600101906020018083116108a157829003601f168201915b505050505081565b60045481565b60008054906101000a900473ffffffffffffffffffffffffffffffffffffffff1673ffffffffffffffffffffffffffffffffffffffff163373ffffffffffffffffffffffffffffffffffffffff161461095a576040517f08c379a0000000000000000000000000000000000000000000000000000000008152600401610951906110a2565b60405180910390fd5b8260029080519060200190610970929190610a66565b508160038190555080600481905550505050565b600660009054906101000a900473ffffffffffffffffffffffffffffffffffffffff1681565b6001339080600181540180825580915050600190039060005260206000200160009091909190916101000a81548173ffffffffffffffffffffffffffffffffffffffff021916908373ffffffffffffffffffffffffffffffffffffffff160217905550565b80600560003373ffffffffffffffffffffffffffffffffffffffff1673ffffffffffffffffffffffffffffffffffffffff1681526020019081526020016000209080519060200190610a62929190610a66565b5050565b828054610a7290610fd0565b90600052602060002090601f016020900481019282610a945760008555610adb565b82601f10610aad57805160ff1916838001178555610adb565b82800160010185558215610adb579182015b82811115610ada578251825591602001919060010190610abf565b5b509050610ae89190610aec565b5090565b5b80821115610b05576000816000905550600101610aed565b5090565b6000819050919050565b610b1c81610b09565b82525050565b6000602082019050610b376000830184610b13565b92915050565b6000604051905090565b600080fd5b600080fd5b610b5a81610b09565b8114610b6557600080fd5b50565b600081359050610b7781610b51565b92915050565b600080fd5b600080fd5b6000601f19601f8301169050919050565b7f4e487b7100000000000000000000000000000000000000000000000000000000600052604160045260246000fd5b610bd082610b87565b810181811067ffffffffffffffff82111715610bef57610bee610b98565b5b80604052505050565b6000610c02610b3d565b9050610c0e8282610bc7565b919050565b600067ffffffffffffffff821115610c2e57610c2d610b98565b5b610c3782610b87565b9050602081019050919050565b82818337600083830152505050565b6000610c66610c6184610c13565b610bf8565b905082815260208101848484011115610c8257610c81610b82565b5b610c8d848285610c44565b509392505050565b600082601f830112610caa57610ca9610b7d565b5b8135610cba848260208601610c53565b91505092915050565b60008060408385031215610cda57610cd9610b47565b5b6000610ce885828601610b68565b925050602083013567ffffffffffffffff811115610d0957610d08610b4c565b5b610d1585828601610c95565b9150509250929050565b600060208284031215610d3557610d34610b47565b5b6000610d4384828501610b68565b91505092915050565b600081519050919050565b600082825260208201905092915050565b60005b83811015610d86578082015181840152602081019050610d6b565b83811115610d95576000848401525b50505050565b6000610da682610d4c565b610db08185610d57565b9350610dc0818560208601610d68565b610dc981610b87565b840191505092915050565b60006020820190508181036000830152610dee8184610d9b565b905092915050565b600073ffffffffffffffffffffffffffffffffffffffff82169050919050565b6000610e2182610df6565b9050919050565b610e3181610e16565b8114610e3c57600080fd5b50565b600081359050610e4e81610e28565b92915050565b600060208284031215610e6a57610e69610b47565b5b6000610e7884828501610e3f565b91505092915050565b610e8a81610e16565b82525050565b6000602082019050610ea56000830184610e81565b92915050565b6000606082019050610ec06000830186610b13565b610ecd6020830185610e81565b8181036040830152610edf8184610d9b565b9050949350505050565b600080600060608486031215610f0257610f01610b47565b5b600084013567ffffffffffffffff811115610f2057610f1f610b4c565b5b610f2c86828701610c95565b9350506020610f3d86828701610b68565b9250506040610f4e86828701610b68565b9150509250925092565b600060208284031215610f6e57610f6d610b47565b5b600082013567ffffffffffffffff811115610f8c57610f8b610b4c565b5b610f9884828501610c95565b91505092915050565b7f4e487b7100000000000000000000000000000000000000000000000000000000600052602260045260246000fd5b60006002820490506001821680610fe857607f821691505b602082108103610ffb57610ffa610fa1565b5b50919050565b7f4e487b7100000000000000000000000000000000000000000000000000000000600052603260045260246000fd5b7f4f6e6c792061756374696f6e6565722063616e2063616c6c207468697320667560008201527f6e6374696f6e2e00000000000000000000000000000000000000000000000000602082015250565b600061108c602783610d57565b915061109782611030565b604082019050919050565b600060208201905081810360008301526110bb8161107f565b905091905056fea2646970667358221220f5a380863cda55c5a738989225e0f92ca9980290fbf89a79141816b24d8e655564736f6c634300080e0033",
					"opcodes": "PUSH1 0x80 PUSH1 0x40 MSTORE CALLVALUE DUP1 ISZERO PUSH2 0x10 JUMPI PUSH1 0x0 DUP1 REVERT JUMPDEST POP PUSH2 0x10F8 DUP1 PUSH2 0x20 PUSH1 0x0 CODECOPY PUSH1 0x0 RETURN INVALID PUSH1 0x80 PUSH1 0x40 MSTORE CALLVALUE DUP1 ISZERO PUSH2 0x10 JUMPI PUSH1 0x0 DUP1 REVERT JUMPDEST POP PUSH1 0x4 CALLDATASIZE LT PUSH2 0x10B JUMPI PUSH1 0x0 CALLDATALOAD PUSH1 0xE0 SHR DUP1 PUSH4 0x8F772F96 GT PUSH2 0xA2 JUMPI DUP1 PUSH4 0xDAA0218F GT PUSH2 0x71 JUMPI DUP1 PUSH4 0xDAA0218F EQ PUSH2 0x2D0 JUMPI DUP1 PUSH4 0xE7D2A997 EQ PUSH2 0x2EE JUMPI DUP1 PUSH4 0xED7A4E0B EQ PUSH2 0x30A JUMPI DUP1 PUSH4 0xF356733C EQ PUSH2 0x328 JUMPI DUP1 PUSH4 0xFF567D8D EQ PUSH2 0x332 JUMPI PUSH2 0x10B JUMP JUMPDEST DUP1 PUSH4 0x8F772F96 EQ PUSH2 0x232 JUMPI DUP1 PUSH4 0x938626C2 EQ PUSH2 0x264 JUMPI DUP1 PUSH4 0xCFF29DFD EQ PUSH2 0x282 JUMPI DUP1 PUSH4 0xD476620B EQ PUSH2 0x2B2 JUMPI PUSH2 0x10B JUMP JUMPDEST DUP1 PUSH4 0x3817DF4C GT PUSH2 0xDE JUMPI DUP1 PUSH4 0x3817DF4C EQ PUSH2 0x198 JUMPI DUP1 PUSH4 0x5FA38280 EQ PUSH2 0x1C8 JUMPI DUP1 PUSH4 0x66C85DEE EQ PUSH2 0x1F8 JUMPI DUP1 PUSH4 0x83050DAA EQ PUSH2 0x214 JUMPI PUSH2 0x10B JUMP JUMPDEST DUP1 PUSH4 0x11631D06 EQ PUSH2 0x110 JUMPI DUP1 PUSH4 0x1744E03B EQ PUSH2 0x12E JUMPI DUP1 PUSH4 0x2D5F4427 EQ PUSH2 0x14A JUMPI DUP1 PUSH4 0x34EB86A2 EQ PUSH2 0x17A JUMPI JUMPDEST PUSH1 0x0 DUP1 REVERT JUMPDEST PUSH2 0x118 PUSH2 0x34E JUMP JUMPDEST PUSH1 0x40 MLOAD PUSH2 0x125 SWAP2 SWAP1 PUSH2 0xB22 JUMP JUMPDEST PUSH1 0x40 MLOAD DUP1 SWAP2 SUB SWAP1 RETURN JUMPDEST PUSH2 0x148 PUSH1 0x4 DUP1 CALLDATASIZE SUB DUP2 ADD SWAP1 PUSH2 0x143 SWAP2 SWAP1 PUSH2 0xCC3 JUMP JUMPDEST PUSH2 0x354 JUMP JUMPDEST STOP JUMPDEST PUSH2 0x164 PUSH1 0x4 DUP1 CALLDATASIZE SUB DUP2 ADD SWAP1 PUSH2 0x15F SWAP2 SWAP1 PUSH2 0xD1F JUMP JUMPDEST PUSH2 0x3B7 JUMP JUMPDEST PUSH1 0x40 MLOAD PUSH2 0x171 SWAP2 SWAP1 PUSH2 0xDD4 JUMP JUMPDEST PUSH1 0x40 MLOAD DUP1 SWAP2 SUB SWAP1 RETURN JUMPDEST PUSH2 0x182 PUSH2 0x488 JUMP JUMPDEST PUSH1 0x40 MLOAD PUSH2 0x18F SWAP2 SWAP1 PUSH2 0xB22 JUMP JUMPDEST PUSH1 0x40 MLOAD DUP1 SWAP2 SUB SWAP1 RETURN JUMPDEST PUSH2 0x1B2 PUSH1 0x4 DUP1 CALLDATASIZE SUB DUP2 ADD SWAP1 PUSH2 0x1AD SWAP2 SWAP1 PUSH2 0xE54 JUMP JUMPDEST PUSH2 0x48E JUMP JUMPDEST PUSH1 0x40 MLOAD PUSH2 0x1BF SWAP2 SWAP1 PUSH2 0xDD4 JUMP JUMPDEST PUSH1 0x40 MLOAD DUP1 SWAP2 SUB SWAP1 RETURN JUMPDEST PUSH2 0x1E2 PUSH1 0x4 DUP1 CALLDATASIZE SUB DUP2 ADD SWAP1 PUSH2 0x1DD SWAP2 SWAP1 PUSH2 0xD1F JUMP JUMPDEST PUSH2 0x52E JUMP JUMPDEST PUSH1 0x40 MLOAD PUSH2 0x1EF SWAP2 SWAP1 PUSH2 0xE90 JUMP JUMPDEST PUSH1 0x40 MLOAD DUP1 SWAP2 SUB SWAP1 RETURN JUMPDEST PUSH2 0x212 PUSH1 0x4 DUP1 CALLDATASIZE SUB DUP2 ADD SWAP1 PUSH2 0x20D SWAP2 SWAP1 PUSH2 0xCC3 JUMP JUMPDEST PUSH2 0x576 JUMP JUMPDEST STOP JUMPDEST PUSH2 0x21C PUSH2 0x64C JUMP JUMPDEST PUSH1 0x40 MLOAD PUSH2 0x229 SWAP2 SWAP1 PUSH2 0xDD4 JUMP JUMPDEST PUSH1 0x40 MLOAD DUP1 SWAP2 SUB SWAP1 RETURN JUMPDEST PUSH2 0x24C PUSH1 0x4 DUP1 CALLDATASIZE SUB DUP2 ADD SWAP1 PUSH2 0x247 SWAP2 SWAP1 PUSH2 0xD1F JUMP JUMPDEST PUSH2 0x689 JUMP JUMPDEST PUSH1 0x40 MLOAD PUSH2 0x25B SWAP4 SWAP3 SWAP2 SWAP1 PUSH2 0xEAB JUMP JUMPDEST PUSH1 0x40 MLOAD DUP1 SWAP2 SUB SWAP1 RETURN JUMPDEST PUSH2 0x26C PUSH2 0x76B JUMP JUMPDEST PUSH1 0x40 MLOAD PUSH2 0x279 SWAP2 SWAP1 PUSH2 0xDD4 JUMP JUMPDEST PUSH1 0x40 MLOAD DUP1 SWAP2 SUB SWAP1 RETURN JUMPDEST PUSH2 0x29C PUSH1 0x4 DUP1 CALLDATASIZE SUB DUP2 ADD SWAP1 PUSH2 0x297 SWAP2 SWAP1 PUSH2 0xD1F JUMP JUMPDEST PUSH2 0x7F9 JUMP JUMPDEST PUSH1 0x40 MLOAD PUSH2 0x2A9 SWAP2 SWAP1 PUSH2 0xE90 JUMP JUMPDEST PUSH1 0x40 MLOAD DUP1 SWAP2 SUB SWAP1 RETURN JUMPDEST PUSH2 0x2BA PUSH2 0x838 JUMP JUMPDEST PUSH1 0x40 MLOAD PUSH2 0x2C7 SWAP2 SWAP1 PUSH2 0xDD4 JUMP JUMPDEST PUSH1 0x40 MLOAD DUP1 SWAP2 SUB SWAP1 RETURN JUMPDEST PUSH2 0x2D8 PUSH2 0x8C6 JUMP JUMPDEST PUSH1 0x40 MLOAD PUSH2 0x2E5 SWAP2 SWAP1 PUSH2 0xB22 JUMP JUMPDEST PUSH1 0x40 MLOAD DUP1 SWAP2 SUB SWAP1 RETURN JUMPDEST PUSH2 0x308 PUSH1 0x4 DUP1 CALLDATASIZE SUB DUP2 ADD SWAP1 PUSH2 0x303 SWAP2 SWAP1 PUSH2 0xEE9 JUMP JUMPDEST PUSH2 0x8CC JUMP JUMPDEST STOP JUMPDEST PUSH2 0x312 PUSH2 0x984 JUMP JUMPDEST PUSH1 0x40 MLOAD PUSH2 0x31F SWAP2 SWAP1 PUSH2 0xE90 JUMP JUMPDEST PUSH1 0x40 MLOAD DUP1 SWAP2 SUB SWAP1 RETURN JUMPDEST PUSH2 0x330 PUSH2 0x9AA JUMP JUMPDEST STOP JUMPDEST PUSH2 0x34C PUSH1 0x4 DUP1 CALLDATASIZE SUB DUP2 ADD SWAP1 PUSH2 0x347 SWAP2 SWAP1 PUSH2 0xF58 JUMP JUMPDEST PUSH2 0xA0F JUMP JUMPDEST STOP JUMPDEST PUSH1 0x7 SLOAD DUP2 JUMP JUMPDEST CALLER PUSH1 0x6 PUSH1 0x0 PUSH2 0x100 EXP DUP2 SLOAD DUP2 PUSH20 0xFFFFFFFFFFFFFFFFFFFFFFFFFFFFFFFFFFFFFFFF MUL NOT AND SWAP1 DUP4 PUSH20 0xFFFFFFFFFFFFFFFFFFFFFFFFFFFFFFFFFFFFFFFF AND MUL OR SWAP1 SSTORE POP DUP2 PUSH1 0x7 DUP2 SWAP1 SSTORE POP DUP1 PUSH1 0x8 SWAP1 DUP1 MLOAD SWAP1 PUSH1 0x20 ADD SWAP1 PUSH2 0x3B2 SWAP3 SWAP2 SWAP1 PUSH2 0xA66 JUMP JUMPDEST POP POP POP JUMP JUMPDEST PUSH1 0x60 PUSH1 0x5 PUSH1 0x0 CALLER PUSH20 0xFFFFFFFFFFFFFFFFFFFFFFFFFFFFFFFFFFFFFFFF AND PUSH20 0xFFFFFFFFFFFFFFFFFFFFFFFFFFFFFFFFFFFFFFFF AND DUP2 MSTORE PUSH1 0x20 ADD SWAP1 DUP2 MSTORE PUSH1 0x20 ADD PUSH1 0x0 KECCAK256 DUP1 SLOAD PUSH2 0x403 SWAP1 PUSH2 0xFD0 JUMP JUMPDEST DUP1 PUSH1 0x1F ADD PUSH1 0x20 DUP1 SWAP2 DIV MUL PUSH1 0x20 ADD PUSH1 0x40 MLOAD SWAP1 DUP2 ADD PUSH1 0x40 MSTORE DUP1 SWAP3 SWAP2 SWAP1 DUP2 DUP2 MSTORE PUSH1 0x20 ADD DUP3 DUP1 SLOAD PUSH2 0x42F SWAP1 PUSH2 0xFD0 JUMP JUMPDEST DUP1 ISZERO PUSH2 0x47C JUMPI DUP1 PUSH1 0x1F LT PUSH2 0x451 JUMPI PUSH2 0x100 DUP1 DUP4 SLOAD DIV MUL DUP4 MSTORE SWAP2 PUSH1 0x20 ADD SWAP2 PUSH2 0x47C JUMP JUMPDEST DUP3 ADD SWAP2 SWAP1 PUSH1 0x0 MSTORE PUSH1 0x20 PUSH1 0x0 KECCAK256 SWAP1 JUMPDEST DUP2 SLOAD DUP2 MSTORE SWAP1 PUSH1 0x1 ADD SWAP1 PUSH1 0x20 ADD DUP1 DUP4 GT PUSH2 0x45F JUMPI DUP3 SWAP1 SUB PUSH1 0x1F AND DUP3 ADD SWAP2 JUMPDEST POP POP POP POP POP SWAP1 POP SWAP2 SWAP1 POP JUMP JUMPDEST PUSH1 0x3 SLOAD DUP2 JUMP JUMPDEST PUSH1 0x5 PUSH1 0x20 MSTORE DUP1 PUSH1 0x0 MSTORE PUSH1 0x40 PUSH1 0x0 KECCAK256 PUSH1 0x0 SWAP2 POP SWAP1 POP DUP1 SLOAD PUSH2 0x4AD SWAP1 PUSH2 0xFD0 JUMP JUMPDEST DUP1 PUSH1 0x1F ADD PUSH1 0x20 DUP1 SWAP2 DIV MUL PUSH1 0x20 ADD PUSH1 0x40 MLOAD SWAP1 DUP2 ADD PUSH1 0x40 MSTORE DUP1 SWAP3 SWAP2 SWAP1 DUP2 DUP2 MSTORE PUSH1 0x20 ADD DUP3 DUP1 SLOAD PUSH2 0x4D9 SWAP1 PUSH2 0xFD0 JUMP JUMPDEST DUP1 ISZERO PUSH2 0x526 JUMPI DUP1 PUSH1 0x1F LT PUSH2 0x4FB JUMPI PUSH2 0x100 DUP1 DUP4 SLOAD DIV MUL DUP4 MSTORE SWAP2 PUSH1 0x20 ADD SWAP2 PUSH2 0x526 JUMP JUMPDEST DUP3 ADD SWAP2 SWAP1 PUSH1 0x0 MSTORE PUSH1 0x20 PUSH1 0x0 KECCAK256 SWAP1 JUMPDEST DUP2 SLOAD DUP2 MSTORE SWAP1 PUSH1 0x1 ADD SWAP1 PUSH1 0x20 ADD DUP1 DUP4 GT PUSH2 0x509 JUMPI DUP3 SWAP1 SUB PUSH1 0x1F AND DUP3 ADD SWAP2 JUMPDEST POP POP POP POP POP DUP2 JUMP JUMPDEST PUSH1 0x0 PUSH1 0x1 DUP3 DUP2 SLOAD DUP2 LT PUSH2 0x544 JUMPI PUSH2 0x543 PUSH2 0x1001 JUMP JUMPDEST JUMPDEST SWAP1 PUSH1 0x0 MSTORE PUSH1 0x20 PUSH1 0x0 KECCAK256 ADD PUSH1 0x0 SWAP1 SLOAD SWAP1 PUSH2 0x100 EXP SWAP1 DIV PUSH20 0xFFFFFFFFFFFFFFFFFFFFFFFFFFFFFFFFFFFFFFFF AND SWAP1 POP SWAP2 SWAP1 POP JUMP JUMPDEST PUSH1 0x0 PUSH1 0x40 MLOAD DUP1 PUSH1 0x60 ADD PUSH1 0x40 MSTORE DUP1 DUP5 DUP2 MSTORE PUSH1 0x20 ADD CALLER PUSH20 0xFFFFFFFFFFFFFFFFFFFFFFFFFFFFFFFFFFFFFFFF AND DUP2 MSTORE PUSH1 0x20 ADD DUP4 DUP2 MSTORE POP SWAP1 POP PUSH1 0x9 DUP2 SWAP1 DUP1 PUSH1 0x1 DUP2 SLOAD ADD DUP1 DUP3 SSTORE DUP1 SWAP2 POP POP PUSH1 0x1 SWAP1 SUB SWAP1 PUSH1 0x0 MSTORE PUSH1 0x20 PUSH1 0x0 KECCAK256 SWAP1 PUSH1 0x3 MUL ADD PUSH1 0x0 SWAP1 SWAP2 SWAP1 SWAP2 SWAP1 SWAP2 POP PUSH1 0x0 DUP3 ADD MLOAD DUP2 PUSH1 0x0 ADD SSTORE PUSH1 0x20 DUP3 ADD MLOAD DUP2 PUSH1 0x1 ADD PUSH1 0x0 PUSH2 0x100 EXP DUP2 SLOAD DUP2 PUSH20 0xFFFFFFFFFFFFFFFFFFFFFFFFFFFFFFFFFFFFFFFF MUL NOT AND SWAP1 DUP4 PUSH20 0xFFFFFFFFFFFFFFFFFFFFFFFFFFFFFFFFFFFFFFFF AND MUL OR SWAP1 SSTORE POP PUSH1 0x40 DUP3 ADD MLOAD DUP2 PUSH1 0x2 ADD SWAP1 DUP1 MLOAD SWAP1 PUSH1 0x20 ADD SWAP1 PUSH2 0x644 SWAP3 SWAP2 SWAP1 PUSH2 0xA66 JUMP JUMPDEST POP POP POP POP POP POP JUMP JUMPDEST PUSH1 0x60 PUSH1 0x40 MLOAD DUP1 PUSH1 0x40 ADD PUSH1 0x40 MSTORE DUP1 PUSH1 0x17 DUP2 MSTORE PUSH1 0x20 ADD PUSH32 0x73616D706C6520737472696E672066726F6D20414B4542000000000000000000 DUP2 MSTORE POP SWAP1 POP SWAP1 JUMP JUMPDEST PUSH1 0x9 DUP2 DUP2 SLOAD DUP2 LT PUSH2 0x699 JUMPI PUSH1 0x0 DUP1 REVERT JUMPDEST SWAP1 PUSH1 0x0 MSTORE PUSH1 0x20 PUSH1 0x0 KECCAK256 SWAP1 PUSH1 0x3 MUL ADD PUSH1 0x0 SWAP2 POP SWAP1 POP DUP1 PUSH1 0x0 ADD SLOAD SWAP1 DUP1 PUSH1 0x1 ADD PUSH1 0x0 SWAP1 SLOAD SWAP1 PUSH2 0x100 EXP SWAP1 DIV PUSH20 0xFFFFFFFFFFFFFFFFFFFFFFFFFFFFFFFFFFFFFFFF AND SWAP1 DUP1 PUSH1 0x2 ADD DUP1 SLOAD PUSH2 0x6E8 SWAP1 PUSH2 0xFD0 JUMP JUMPDEST DUP1 PUSH1 0x1F ADD PUSH1 0x20 DUP1 SWAP2 DIV MUL PUSH1 0x20 ADD PUSH1 0x40 MLOAD SWAP1 DUP2 ADD PUSH1 0x40 MSTORE DUP1 SWAP3 SWAP2 SWAP1 DUP2 DUP2 MSTORE PUSH1 0x20 ADD DUP3 DUP1 SLOAD PUSH2 0x714 SWAP1 PUSH2 0xFD0 JUMP JUMPDEST DUP1 ISZERO PUSH2 0x761 JUMPI DUP1 PUSH1 0x1F LT PUSH2 0x736 JUMPI PUSH2 0x100 DUP1 DUP4 SLOAD DIV MUL DUP4 MSTORE SWAP2 PUSH1 0x20 ADD SWAP2 PUSH2 0x761 JUMP JUMPDEST DUP3 ADD SWAP2 SWAP1 PUSH1 0x0 MSTORE PUSH1 0x20 PUSH1 0x0 KECCAK256 SWAP1 JUMPDEST DUP2 SLOAD DUP2 MSTORE SWAP1 PUSH1 0x1 ADD SWAP1 PUSH1 0x20 ADD DUP1 DUP4 GT PUSH2 0x744 JUMPI DUP3 SWAP1 SUB PUSH1 0x1F AND DUP3 ADD SWAP2 JUMPDEST POP POP POP POP POP SWAP1 POP DUP4 JUMP JUMPDEST PUSH1 0x2 DUP1 SLOAD PUSH2 0x778 SWAP1 PUSH2 0xFD0 JUMP JUMPDEST DUP1 PUSH1 0x1F ADD PUSH1 0x20 DUP1 SWAP2 DIV MUL PUSH1 0x20 ADD PUSH1 0x40 MLOAD SWAP1 DUP2 ADD PUSH1 0x40 MSTORE DUP1 SWAP3 SWAP2 SWAP1 DUP2 DUP2 MSTORE PUSH1 0x20 ADD DUP3 DUP1 SLOAD PUSH2 0x7A4 SWAP1 PUSH2 0xFD0 JUMP JUMPDEST DUP1 ISZERO PUSH2 0x7F1 JUMPI DUP1 PUSH1 0x1F LT PUSH2 0x7C6 JUMPI PUSH2 0x100 DUP1 DUP4 SLOAD DIV MUL DUP4 MSTORE SWAP2 PUSH1 0x20 ADD SWAP2 PUSH2 0x7F1 JUMP JUMPDEST DUP3 ADD SWAP2 SWAP1 PUSH1 0x0 MSTORE PUSH1 0x20 PUSH1 0x0 KECCAK256 SWAP1 JUMPDEST DUP2 SLOAD DUP2 MSTORE SWAP1 PUSH1 0x1 ADD SWAP1 PUSH1 0x20 ADD DUP1 DUP4 GT PUSH2 0x7D4 JUMPI DUP3 SWAP1 SUB PUSH1 0x1F AND DUP3 ADD SWAP2 JUMPDEST POP POP POP POP POP DUP2 JUMP JUMPDEST PUSH1 0x1 DUP2 DUP2 SLOAD DUP2 LT PUSH2 0x809 JUMPI PUSH1 0x0 DUP1 REVERT JUMPDEST SWAP1 PUSH1 0x0 MSTORE PUSH1 0x20 PUSH1 0x0 KECCAK256 ADD PUSH1 0x0 SWAP2 POP SLOAD SWAP1 PUSH2 0x100 EXP SWAP1 DIV PUSH20 0xFFFFFFFFFFFFFFFFFFFFFFFFFFFFFFFFFFFFFFFF AND DUP2 JUMP JUMPDEST PUSH1 0x8 DUP1 SLOAD PUSH2 0x845 SWAP1 PUSH2 0xFD0 JUMP JUMPDEST DUP1 PUSH1 0x1F ADD PUSH1 0x20 DUP1 SWAP2 DIV MUL PUSH1 0x20 ADD PUSH1 0x40 MLOAD SWAP1 DUP2 ADD PUSH1 0x40 MSTORE DUP1 SWAP3 SWAP2 SWAP1 DUP2 DUP2 MSTORE PUSH1 0x20 ADD DUP3 DUP1 SLOAD PUSH2 0x871 SWAP1 PUSH2 0xFD0 JUMP JUMPDEST DUP1 ISZERO PUSH2 0x8BE JUMPI DUP1 PUSH1 0x1F LT PUSH2 0x893 JUMPI PUSH2 0x100 DUP1 DUP4 SLOAD DIV MUL DUP4 MSTORE SWAP2 PUSH1 0x20 ADD SWAP2 PUSH2 0x8BE JUMP JUMPDEST DUP3 ADD SWAP2 SWAP1 PUSH1 0x0 MSTORE PUSH1 0x20 PUSH1 0x0 KECCAK256 SWAP1 JUMPDEST DUP2 SLOAD DUP2 MSTORE SWAP1 PUSH1 0x1 ADD SWAP1 PUSH1 0x20 ADD DUP1 DUP4 GT PUSH2 0x8A1 JUMPI DUP3 SWAP1 SUB PUSH1 0x1F AND DUP3 ADD SWAP2 JUMPDEST POP POP POP POP POP DUP2 JUMP JUMPDEST PUSH1 0x4 SLOAD DUP2 JUMP JUMPDEST PUSH1 0x0 DUP1 SLOAD SWAP1 PUSH2 0x100 EXP SWAP1 DIV PUSH20 0xFFFFFFFFFFFFFFFFFFFFFFFFFFFFFFFFFFFFFFFF AND PUSH20 0xFFFFFFFFFFFFFFFFFFFFFFFFFFFFFFFFFFFFFFFF AND CALLER PUSH20 0xFFFFFFFFFFFFFFFFFFFFFFFFFFFFFFFFFFFFFFFF AND EQ PUSH2 0x95A JUMPI PUSH1 0x40 MLOAD PUSH32 0x8C379A000000000000000000000000000000000000000000000000000000000 DUP2 MSTORE PUSH1 0x4 ADD PUSH2 0x951 SWAP1 PUSH2 0x10A2 JUMP JUMPDEST PUSH1 0x40 MLOAD DUP1 SWAP2 SUB SWAP1 REVERT JUMPDEST DUP3 PUSH1 0x2 SWAP1 DUP1 MLOAD SWAP1 PUSH1 0x20 ADD SWAP1 PUSH2 0x970 SWAP3 SWAP2 SWAP1 PUSH2 0xA66 JUMP JUMPDEST POP DUP2 PUSH1 0x3 DUP2 SWAP1 SSTORE POP DUP1 PUSH1 0x4 DUP2 SWAP1 SSTORE POP POP POP POP JUMP JUMPDEST PUSH1 0x6 PUSH1 0x0 SWAP1 SLOAD SWAP1 PUSH2 0x100 EXP SWAP1 DIV PUSH20 0xFFFFFFFFFFFFFFFFFFFFFFFFFFFFFFFFFFFFFFFF AND DUP2 JUMP JUMPDEST PUSH1 0x1 CALLER SWAP1 DUP1 PUSH1 0x1 DUP2 SLOAD ADD DUP1 DUP3 SSTORE DUP1 SWAP2 POP POP PUSH1 0x1 SWAP1 SUB SWAP1 PUSH1 0x0 MSTORE PUSH1 0x20 PUSH1 0x0 KECCAK256 ADD PUSH1 0x0 SWAP1 SWAP2 SWAP1 SWAP2 SWAP1 SWAP2 PUSH2 0x100 EXP DUP2 SLOAD DUP2 PUSH20 0xFFFFFFFFFFFFFFFFFFFFFFFFFFFFFFFFFFFFFFFF MUL NOT AND SWAP1 DUP4 PUSH20 0xFFFFFFFFFFFFFFFFFFFFFFFFFFFFFFFFFFFFFFFF AND MUL OR SWAP1 SSTORE POP JUMP JUMPDEST DUP1 PUSH1 0x5 PUSH1 0x0 CALLER PUSH20 0xFFFFFFFFFFFFFFFFFFFFFFFFFFFFFFFFFFFFFFFF AND PUSH20 0xFFFFFFFFFFFFFFFFFFFFFFFFFFFFFFFFFFFFFFFF AND DUP2 MSTORE PUSH1 0x20 ADD SWAP1 DUP2 MSTORE PUSH1 0x20 ADD PUSH1 0x0 KECCAK256 SWAP1 DUP1 MLOAD SWAP1 PUSH1 0x20 ADD SWAP1 PUSH2 0xA62 SWAP3 SWAP2 SWAP1 PUSH2 0xA66 JUMP JUMPDEST POP POP JUMP JUMPDEST DUP3 DUP1 SLOAD PUSH2 0xA72 SWAP1 PUSH2 0xFD0 JUMP JUMPDEST SWAP1 PUSH1 0x0 MSTORE PUSH1 0x20 PUSH1 0x0 KECCAK256 SWAP1 PUSH1 0x1F ADD PUSH1 0x20 SWAP1 DIV DUP2 ADD SWAP3 DUP3 PUSH2 0xA94 JUMPI PUSH1 0x0 DUP6 SSTORE PUSH2 0xADB JUMP JUMPDEST DUP3 PUSH1 0x1F LT PUSH2 0xAAD JUMPI DUP1 MLOAD PUSH1 0xFF NOT AND DUP4 DUP1 ADD OR DUP6 SSTORE PUSH2 0xADB JUMP JUMPDEST DUP3 DUP1 ADD PUSH1 0x1 ADD DUP6 SSTORE DUP3 ISZERO PUSH2 0xADB JUMPI SWAP2 DUP3 ADD JUMPDEST DUP3 DUP2 GT ISZERO PUSH2 0xADA JUMPI DUP3 MLOAD DUP3 SSTORE SWAP2 PUSH1 0x20 ADD SWAP2 SWAP1 PUSH1 0x1 ADD SWAP1 PUSH2 0xABF JUMP JUMPDEST JUMPDEST POP SWAP1 POP PUSH2 0xAE8 SWAP2 SWAP1 PUSH2 0xAEC JUMP JUMPDEST POP SWAP1 JUMP JUMPDEST JUMPDEST DUP1 DUP3 GT ISZERO PUSH2 0xB05 JUMPI PUSH1 0x0 DUP2 PUSH1 0x0 SWAP1 SSTORE POP PUSH1 0x1 ADD PUSH2 0xAED JUMP JUMPDEST POP SWAP1 JUMP JUMPDEST PUSH1 0x0 DUP2 SWAP1 POP SWAP2 SWAP1 POP JUMP JUMPDEST PUSH2 0xB1C DUP2 PUSH2 0xB09 JUMP JUMPDEST DUP3 MSTORE POP POP JUMP JUMPDEST PUSH1 0x0 PUSH1 0x20 DUP3 ADD SWAP1 POP PUSH2 0xB37 PUSH1 0x0 DUP4 ADD DUP5 PUSH2 0xB13 JUMP JUMPDEST SWAP3 SWAP2 POP POP JUMP JUMPDEST PUSH1 0x0 PUSH1 0x40 MLOAD SWAP1 POP SWAP1 JUMP JUMPDEST PUSH1 0x0 DUP1 REVERT JUMPDEST PUSH1 0x0 DUP1 REVERT JUMPDEST PUSH2 0xB5A DUP2 PUSH2 0xB09 JUMP JUMPDEST DUP2 EQ PUSH2 0xB65 JUMPI PUSH1 0x0 DUP1 REVERT JUMPDEST POP JUMP JUMPDEST PUSH1 0x0 DUP2 CALLDATALOAD SWAP1 POP PUSH2 0xB77 DUP2 PUSH2 0xB51 JUMP JUMPDEST SWAP3 SWAP2 POP POP JUMP JUMPDEST PUSH1 0x0 DUP1 REVERT JUMPDEST PUSH1 0x0 DUP1 REVERT JUMPDEST PUSH1 0x0 PUSH1 0x1F NOT PUSH1 0x1F DUP4 ADD AND SWAP1 POP SWAP2 SWAP1 POP JUMP JUMPDEST PUSH32 0x4E487B7100000000000000000000000000000000000000000000000000000000 PUSH1 0x0 MSTORE PUSH1 0x41 PUSH1 0x4 MSTORE PUSH1 0x24 PUSH1 0x0 REVERT JUMPDEST PUSH2 0xBD0 DUP3 PUSH2 0xB87 JUMP JUMPDEST DUP2 ADD DUP2 DUP2 LT PUSH8 0xFFFFFFFFFFFFFFFF DUP3 GT OR ISZERO PUSH2 0xBEF JUMPI PUSH2 0xBEE PUSH2 0xB98 JUMP JUMPDEST JUMPDEST DUP1 PUSH1 0x40 MSTORE POP POP POP JUMP JUMPDEST PUSH1 0x0 PUSH2 0xC02 PUSH2 0xB3D JUMP JUMPDEST SWAP1 POP PUSH2 0xC0E DUP3 DUP3 PUSH2 0xBC7 JUMP JUMPDEST SWAP2 SWAP1 POP JUMP JUMPDEST PUSH1 0x0 PUSH8 0xFFFFFFFFFFFFFFFF DUP3 GT ISZERO PUSH2 0xC2E JUMPI PUSH2 0xC2D PUSH2 0xB98 JUMP JUMPDEST JUMPDEST PUSH2 0xC37 DUP3 PUSH2 0xB87 JUMP JUMPDEST SWAP1 POP PUSH1 0x20 DUP2 ADD SWAP1 POP SWAP2 SWAP1 POP JUMP JUMPDEST DUP3 DUP2 DUP4 CALLDATACOPY PUSH1 0x0 DUP4 DUP4 ADD MSTORE POP POP POP JUMP JUMPDEST PUSH1 0x0 PUSH2 0xC66 PUSH2 0xC61 DUP5 PUSH2 0xC13 JUMP JUMPDEST PUSH2 0xBF8 JUMP JUMPDEST SWAP1 POP DUP3 DUP2 MSTORE PUSH1 0x20 DUP2 ADD DUP5 DUP5 DUP5 ADD GT ISZERO PUSH2 0xC82 JUMPI PUSH2 0xC81 PUSH2 0xB82 JUMP JUMPDEST JUMPDEST PUSH2 0xC8D DUP5 DUP3 DUP6 PUSH2 0xC44 JUMP JUMPDEST POP SWAP4 SWAP3 POP POP POP JUMP JUMPDEST PUSH1 0x0 DUP3 PUSH1 0x1F DUP4 ADD SLT PUSH2 0xCAA JUMPI PUSH2 0xCA9 PUSH2 0xB7D JUMP JUMPDEST JUMPDEST DUP2 CALLDATALOAD PUSH2 0xCBA DUP5 DUP3 PUSH1 0x20 DUP7 ADD PUSH2 0xC53 JUMP JUMPDEST SWAP2 POP POP SWAP3 SWAP2 POP POP JUMP JUMPDEST PUSH1 0x0 DUP1 PUSH1 0x40 DUP4 DUP6 SUB SLT ISZERO PUSH2 0xCDA JUMPI PUSH2 0xCD9 PUSH2 0xB47 JUMP JUMPDEST JUMPDEST PUSH1 0x0 PUSH2 0xCE8 DUP6 DUP3 DUP7 ADD PUSH2 0xB68 JUMP JUMPDEST SWAP3 POP POP PUSH1 0x20 DUP4 ADD CALLDATALOAD PUSH8 0xFFFFFFFFFFFFFFFF DUP2 GT ISZERO PUSH2 0xD09 JUMPI PUSH2 0xD08 PUSH2 0xB4C JUMP JUMPDEST JUMPDEST PUSH2 0xD15 DUP6 DUP3 DUP7 ADD PUSH2 0xC95 JUMP JUMPDEST SWAP2 POP POP SWAP3 POP SWAP3 SWAP1 POP JUMP JUMPDEST PUSH1 0x0 PUSH1 0x20 DUP3 DUP5 SUB SLT ISZERO PUSH2 0xD35 JUMPI PUSH2 0xD34 PUSH2 0xB47 JUMP JUMPDEST JUMPDEST PUSH1 0x0 PUSH2 0xD43 DUP5 DUP3 DUP6 ADD PUSH2 0xB68 JUMP JUMPDEST SWAP2 POP POP SWAP3 SWAP2 POP POP JUMP JUMPDEST PUSH1 0x0 DUP2 MLOAD SWAP1 POP SWAP2 SWAP1 POP JUMP JUMPDEST PUSH1 0x0 DUP3 DUP3 MSTORE PUSH1 0x20 DUP3 ADD SWAP1 POP SWAP3 SWAP2 POP POP JUMP JUMPDEST PUSH1 0x0 JUMPDEST DUP4 DUP2 LT ISZERO PUSH2 0xD86 JUMPI DUP1 DUP3 ADD MLOAD DUP2 DUP5 ADD MSTORE PUSH1 0x20 DUP2 ADD SWAP1 POP PUSH2 0xD6B JUMP JUMPDEST DUP4 DUP2 GT ISZERO PUSH2 0xD95 JUMPI PUSH1 0x0 DUP5 DUP5 ADD MSTORE JUMPDEST POP POP POP POP JUMP JUMPDEST PUSH1 0x0 PUSH2 0xDA6 DUP3 PUSH2 0xD4C JUMP JUMPDEST PUSH2 0xDB0 DUP2 DUP6 PUSH2 0xD57 JUMP JUMPDEST SWAP4 POP PUSH2 0xDC0 DUP2 DUP6 PUSH1 0x20 DUP7 ADD PUSH2 0xD68 JUMP JUMPDEST PUSH2 0xDC9 DUP2 PUSH2 0xB87 JUMP JUMPDEST DUP5 ADD SWAP2 POP POP SWAP3 SWAP2 POP POP JUMP JUMPDEST PUSH1 0x0 PUSH1 0x20 DUP3 ADD SWAP1 POP DUP2 DUP2 SUB PUSH1 0x0 DUP4 ADD MSTORE PUSH2 0xDEE DUP2 DUP5 PUSH2 0xD9B JUMP JUMPDEST SWAP1 POP SWAP3 SWAP2 POP POP JUMP JUMPDEST PUSH1 0x0 PUSH20 0xFFFFFFFFFFFFFFFFFFFFFFFFFFFFFFFFFFFFFFFF DUP3 AND SWAP1 POP SWAP2 SWAP1 POP JUMP JUMPDEST PUSH1 0x0 PUSH2 0xE21 DUP3 PUSH2 0xDF6 JUMP JUMPDEST SWAP1 POP SWAP2 SWAP1 POP JUMP JUMPDEST PUSH2 0xE31 DUP2 PUSH2 0xE16 JUMP JUMPDEST DUP2 EQ PUSH2 0xE3C JUMPI PUSH1 0x0 DUP1 REVERT JUMPDEST POP JUMP JUMPDEST PUSH1 0x0 DUP2 CALLDATALOAD SWAP1 POP PUSH2 0xE4E DUP2 PUSH2 0xE28 JUMP JUMPDEST SWAP3 SWAP2 POP POP JUMP JUMPDEST PUSH1 0x0 PUSH1 0x20 DUP3 DUP5 SUB SLT ISZERO PUSH2 0xE6A JUMPI PUSH2 0xE69 PUSH2 0xB47 JUMP JUMPDEST JUMPDEST PUSH1 0x0 PUSH2 0xE78 DUP5 DUP3 DUP6 ADD PUSH2 0xE3F JUMP JUMPDEST SWAP2 POP POP SWAP3 SWAP2 POP POP JUMP JUMPDEST PUSH2 0xE8A DUP2 PUSH2 0xE16 JUMP JUMPDEST DUP3 MSTORE POP POP JUMP JUMPDEST PUSH1 0x0 PUSH1 0x20 DUP3 ADD SWAP1 POP PUSH2 0xEA5 PUSH1 0x0 DUP4 ADD DUP5 PUSH2 0xE81 JUMP JUMPDEST SWAP3 SWAP2 POP POP JUMP JUMPDEST PUSH1 0x0 PUSH1 0x60 DUP3 ADD SWAP1 POP PUSH2 0xEC0 PUSH1 0x0 DUP4 ADD DUP7 PUSH2 0xB13 JUMP JUMPDEST PUSH2 0xECD PUSH1 0x20 DUP4 ADD DUP6 PUSH2 0xE81 JUMP JUMPDEST DUP2 DUP2 SUB PUSH1 0x40 DUP4 ADD MSTORE PUSH2 0xEDF DUP2 DUP5 PUSH2 0xD9B JUMP JUMPDEST SWAP1 POP SWAP5 SWAP4 POP POP POP POP JUMP JUMPDEST PUSH1 0x0 DUP1 PUSH1 0x0 PUSH1 0x60 DUP5 DUP7 SUB SLT ISZERO PUSH2 0xF02 JUMPI PUSH2 0xF01 PUSH2 0xB47 JUMP JUMPDEST JUMPDEST PUSH1 0x0 DUP5 ADD CALLDATALOAD PUSH8 0xFFFFFFFFFFFFFFFF DUP2 GT ISZERO PUSH2 0xF20 JUMPI PUSH2 0xF1F PUSH2 0xB4C JUMP JUMPDEST JUMPDEST PUSH2 0xF2C DUP7 DUP3 DUP8 ADD PUSH2 0xC95 JUMP JUMPDEST SWAP4 POP POP PUSH1 0x20 PUSH2 0xF3D DUP7 DUP3 DUP8 ADD PUSH2 0xB68 JUMP JUMPDEST SWAP3 POP POP PUSH1 0x40 PUSH2 0xF4E DUP7 DUP3 DUP8 ADD PUSH2 0xB68 JUMP JUMPDEST SWAP2 POP POP SWAP3 POP SWAP3 POP SWAP3 JUMP JUMPDEST PUSH1 0x0 PUSH1 0x20 DUP3 DUP5 SUB SLT ISZERO PUSH2 0xF6E JUMPI PUSH2 0xF6D PUSH2 0xB47 JUMP JUMPDEST JUMPDEST PUSH1 0x0 DUP3 ADD CALLDATALOAD PUSH8 0xFFFFFFFFFFFFFFFF DUP2 GT ISZERO PUSH2 0xF8C JUMPI PUSH2 0xF8B PUSH2 0xB4C JUMP JUMPDEST JUMPDEST PUSH2 0xF98 DUP5 DUP3 DUP6 ADD PUSH2 0xC95 JUMP JUMPDEST SWAP2 POP POP SWAP3 SWAP2 POP POP JUMP JUMPDEST PUSH32 0x4E487B7100000000000000000000000000000000000000000000000000000000 PUSH1 0x0 MSTORE PUSH1 0x22 PUSH1 0x4 MSTORE PUSH1 0x24 PUSH1 0x0 REVERT JUMPDEST PUSH1 0x0 PUSH1 0x2 DUP3 DIV SWAP1 POP PUSH1 0x1 DUP3 AND DUP1 PUSH2 0xFE8 JUMPI PUSH1 0x7F DUP3 AND SWAP2 POP JUMPDEST PUSH1 0x20 DUP3 LT DUP2 SUB PUSH2 0xFFB JUMPI PUSH2 0xFFA PUSH2 0xFA1 JUMP JUMPDEST JUMPDEST POP SWAP2 SWAP1 POP JUMP JUMPDEST PUSH32 0x4E487B7100000000000000000000000000000000000000000000000000000000 PUSH1 0x0 MSTORE PUSH1 0x32 PUSH1 0x4 MSTORE PUSH1 0x24 PUSH1 0x0 REVERT JUMPDEST PUSH32 0x4F6E6C792061756374696F6E6565722063616E2063616C6C2074686973206675 PUSH1 0x0 DUP3 ADD MSTORE PUSH32 0x6E6374696F6E2E00000000000000000000000000000000000000000000000000 PUSH1 0x20 DUP3 ADD MSTORE POP JUMP JUMPDEST PUSH1 0x0 PUSH2 0x108C PUSH1 0x27 DUP4 PUSH2 0xD57 JUMP JUMPDEST SWAP2 POP PUSH2 0x1097 DUP3 PUSH2 0x1030 JUMP JUMPDEST PUSH1 0x40 DUP3 ADD SWAP1 POP SWAP2 SWAP1 POP JUMP JUMPDEST PUSH1 0x0 PUSH1 0x20 DUP3 ADD SWAP1 POP DUP2 DUP2 SUB PUSH1 0x0 DUP4 ADD MSTORE PUSH2 0x10BB DUP2 PUSH2 0x107F JUMP JUMPDEST SWAP1 POP SWAP2 SWAP1 POP JUMP INVALID LOG2 PUSH5 0x6970667358 0x22 SLT KECCAK256 CREATE2 LOG3 DUP1 DUP7 EXTCODECOPY 0xDA SSTORE 0xC5 0xA7 CODESIZE SWAP9 SWAP3 0x25 0xE0 0xF9 0x2C 0xA9 SWAP9 MUL SWAP1 0xFB 0xF8 SWAP11 PUSH26 0x141816B24D8E655564736F6C634300080E003300000000000000 "
				},
				"gasEstimates": {
					"creation": {
						"codeDepositCost": "868800",
						"executionCost": "903",
						"totalCost": "869703"
					},
					"external": {
						"assetDescription()": "infinite",
						"bidders(uint256)": "5023",
						"dispute(uint256,string)": "infinite",
						"disputedBidders(uint256)": "infinite",
						"encodedBids(address)": "infinite",
						"getBidderAddress(uint256)": "5012",
						"getEncodedBid(uint256)": "infinite",
						"getSampleString()": "infinite",
						"minBidPrice()": "2519",
						"minNumberOfBidders()": "2451",
						"registerAuctionInfo(string,uint256,uint256)": "infinite",
						"registerBidder()": "48810",
						"submitEncryptedBid(string)": "infinite",
						"submitWinner(uint256,string)": "infinite",
						"winnerAddress()": "2580",
						"winnerBid()": "2453",
						"winnerKey()": "infinite"
					}
				},
				"methodIdentifiers": {
					"assetDescription()": "938626c2",
					"bidders(uint256)": "cff29dfd",
					"dispute(uint256,string)": "66c85dee",
					"disputedBidders(uint256)": "8f772f96",
					"encodedBids(address)": "3817df4c",
					"getBidderAddress(uint256)": "5fa38280",
					"getEncodedBid(uint256)": "2d5f4427",
					"getSampleString()": "83050daa",
					"minBidPrice()": "34eb86a2",
					"minNumberOfBidders()": "daa0218f",
					"registerAuctionInfo(string,uint256,uint256)": "e7d2a997",
					"registerBidder()": "f356733c",
					"submitEncryptedBid(string)": "ff567d8d",
					"submitWinner(uint256,string)": "1744e03b",
					"winnerAddress()": "ed7a4e0b",
					"winnerBid()": "11631d06",
					"winnerKey()": "d476620b"
				}
			},
			"storageLayout": {
				"storage": [
					{
						"astId": 3,
						"contract": "Contracts/AKEB.sol:AKEB",
						"label": "auctioneer",
						"offset": 0,
						"slot": "0",
						"type": "t_address"
					},
					{
						"astId": 6,
						"contract": "Contracts/AKEB.sol:AKEB",
						"label": "bidders",
						"offset": 0,
						"slot": "1",
						"type": "t_array(t_address)dyn_storage"
					},
					{
						"astId": 8,
						"contract": "Contracts/AKEB.sol:AKEB",
						"label": "assetDescription",
						"offset": 0,
						"slot": "2",
						"type": "t_string_storage"
					},
					{
						"astId": 10,
						"contract": "Contracts/AKEB.sol:AKEB",
						"label": "minBidPrice",
						"offset": 0,
						"slot": "3",
						"type": "t_uint256"
					},
					{
						"astId": 12,
						"contract": "Contracts/AKEB.sol:AKEB",
						"label": "minNumberOfBidders",
						"offset": 0,
						"slot": "4",
						"type": "t_uint256"
					},
					{
						"astId": 16,
						"contract": "Contracts/AKEB.sol:AKEB",
						"label": "encodedBids",
						"offset": 0,
						"slot": "5",
						"type": "t_mapping(t_address,t_string_storage)"
					},
					{
						"astId": 18,
						"contract": "Contracts/AKEB.sol:AKEB",
						"label": "winnerAddress",
						"offset": 0,
						"slot": "6",
						"type": "t_address"
					},
					{
						"astId": 20,
						"contract": "Contracts/AKEB.sol:AKEB",
						"label": "winnerBid",
						"offset": 0,
						"slot": "7",
						"type": "t_uint256"
					},
					{
						"astId": 22,
						"contract": "Contracts/AKEB.sol:AKEB",
						"label": "winnerKey",
						"offset": 0,
						"slot": "8",
						"type": "t_string_storage"
					},
					{
						"astId": 33,
						"contract": "Contracts/AKEB.sol:AKEB",
						"label": "disputedBidders",
						"offset": 0,
						"slot": "9",
						"type": "t_array(t_struct(DisputedBidders)29_storage)dyn_storage"
					}
				],
				"types": {
					"t_address": {
						"encoding": "inplace",
						"label": "address",
						"numberOfBytes": "20"
					},
					"t_array(t_address)dyn_storage": {
						"base": "t_address",
						"encoding": "dynamic_array",
						"label": "address[]",
						"numberOfBytes": "32"
					},
					"t_array(t_struct(DisputedBidders)29_storage)dyn_storage": {
						"base": "t_struct(DisputedBidders)29_storage",
						"encoding": "dynamic_array",
						"label": "struct AKEB.DisputedBidders[]",
						"numberOfBytes": "32"
					},
					"t_mapping(t_address,t_string_storage)": {
						"encoding": "mapping",
						"key": "t_address",
						"label": "mapping(address => string)",
						"numberOfBytes": "32",
						"value": "t_string_storage"
					},
					"t_string_storage": {
						"encoding": "bytes",
						"label": "string",
						"numberOfBytes": "32"
					},
					"t_struct(DisputedBidders)29_storage": {
						"encoding": "inplace",
						"label": "struct AKEB.DisputedBidders",
						"members": [
							{
								"astId": 24,
								"contract": "Contracts/AKEB.sol:AKEB",
								"label": "bid",
								"offset": 0,
								"slot": "0",
								"type": "t_uint256"
							},
							{
								"astId": 26,
								"contract": "Contracts/AKEB.sol:AKEB",
								"label": "disputeAddress",
								"offset": 0,
								"slot": "1",
								"type": "t_address"
							},
							{
								"astId": 28,
								"contract": "Contracts/AKEB.sol:AKEB",
								"label": "key",
								"offset": 0,
								"slot": "2",
								"type": "t_string_storage"
							}
						],
						"numberOfBytes": "96"
					},
					"t_uint256": {
						"encoding": "inplace",
						"label": "uint256",
						"numberOfBytes": "32"
					}
				}
			},
			"userdoc": {
				"kind": "user",
				"methods": {},
				"version": 1
			}
		}
	}
}