{
	"Contracts/AKEB.sol": {
		"AKEB": {
			"abi": [
				{
					"inputs": [],
					"name": "assetDescription",
					"outputs": [
						{
							"internalType": "string",
							"name": "",
							"type": "string"
						}
					],
					"stateMutability": "view",
					"type": "function"
				},
				{
					"inputs": [
						{
							"internalType": "uint256",
							"name": "",
							"type": "uint256"
						}
					],
					"name": "bidders",
					"outputs": [
						{
							"internalType": "address",
							"name": "",
							"type": "address"
						}
					],
					"stateMutability": "view",
					"type": "function"
				},
				{
					"inputs": [
						{
							"internalType": "uint256",
							"name": "inputDisputedBid",
							"type": "uint256"
						},
						{
							"internalType": "string",
							"name": "inputDisputedNonce",
							"type": "string"
						}
					],
					"name": "dispute",
					"outputs": [],
					"stateMutability": "nonpayable",
					"type": "function"
				},
				{
					"inputs": [
						{
							"internalType": "uint256",
							"name": "",
							"type": "uint256"
						}
					],
					"name": "disputedBidders",
					"outputs": [
						{
							"internalType": "uint256",
							"name": "bid",
							"type": "uint256"
						},
						{
							"internalType": "address",
							"name": "disputeAddress",
							"type": "address"
						},
						{
							"internalType": "string",
							"name": "nonce",
							"type": "string"
						}
					],
					"stateMutability": "view",
					"type": "function"
				},
				{
					"inputs": [
						{
							"internalType": "address",
							"name": "",
							"type": "address"
						}
					],
					"name": "encodedBids",
					"outputs": [
						{
							"internalType": "string",
							"name": "",
							"type": "string"
						}
					],
					"stateMutability": "view",
					"type": "function"
				},
				{
					"inputs": [],
					"name": "getAllBidders",
					"outputs": [
						{
							"internalType": "address[]",
							"name": "",
							"type": "address[]"
						}
					],
					"stateMutability": "view",
					"type": "function"
				},
				{
					"inputs": [],
					"name": "getAllDisputers",
					"outputs": [
						{
							"components": [
								{
									"internalType": "uint256",
									"name": "bid",
									"type": "uint256"
								},
								{
									"internalType": "address",
									"name": "disputeAddress",
									"type": "address"
								},
								{
									"internalType": "string",
									"name": "nonce",
									"type": "string"
								}
							],
							"internalType": "struct AKEB.DisputedBidders[]",
							"name": "",
							"type": "tuple[]"
						}
					],
					"stateMutability": "view",
					"type": "function"
				},
				{
					"inputs": [
						{
							"internalType": "uint256",
							"name": "index",
							"type": "uint256"
						}
					],
					"name": "getBidderAddress",
					"outputs": [
						{
							"internalType": "address",
							"name": "",
							"type": "address"
						}
					],
					"stateMutability": "view",
					"type": "function"
				},
				{
					"inputs": [
						{
							"internalType": "address",
							"name": "inputAddress",
							"type": "address"
						}
					],
					"name": "getEncodedBid",
					"outputs": [
						{
							"internalType": "string",
							"name": "",
							"type": "string"
						}
					],
					"stateMutability": "view",
					"type": "function"
				},
				{
					"inputs": [],
					"name": "getSampleString",
					"outputs": [
						{
							"internalType": "string",
							"name": "",
							"type": "string"
						}
					],
					"stateMutability": "pure",
					"type": "function"
				},
				{
					"inputs": [],
					"name": "minBidPrice",
					"outputs": [
						{
							"internalType": "uint256",
							"name": "",
							"type": "uint256"
						}
					],
					"stateMutability": "view",
					"type": "function"
				},
				{
					"inputs": [],
					"name": "minNumberOfBidders",
					"outputs": [
						{
							"internalType": "uint256",
							"name": "",
							"type": "uint256"
						}
					],
					"stateMutability": "view",
					"type": "function"
				},
				{
					"inputs": [
						{
							"internalType": "string",
							"name": "assetDescriptionInput",
							"type": "string"
						},
						{
							"internalType": "uint256",
							"name": "minBidPriceInput",
							"type": "uint256"
						},
						{
							"internalType": "uint256",
							"name": "minNumberOfBiddersInput",
							"type": "uint256"
						}
					],
					"name": "registerAuctionInfo",
					"outputs": [],
					"stateMutability": "nonpayable",
					"type": "function"
				},
				{
					"inputs": [],
					"name": "registerBidder",
					"outputs": [],
					"stateMutability": "nonpayable",
					"type": "function"
				},
				{
					"inputs": [],
					"name": "reset",
					"outputs": [],
					"stateMutability": "nonpayable",
					"type": "function"
				},
				{
					"inputs": [],
					"name": "resetEncodedBids",
					"outputs": [],
					"stateMutability": "nonpayable",
					"type": "function"
				},
				{
					"inputs": [
						{
							"internalType": "string",
							"name": "inputEncodedBid",
							"type": "string"
						}
					],
					"name": "submitEncodedBid",
					"outputs": [],
					"stateMutability": "nonpayable",
					"type": "function"
				},
				{
					"inputs": [
						{
							"internalType": "uint256",
							"name": "inputWinnerBid",
							"type": "uint256"
						},
						{
							"internalType": "string",
							"name": "inputwinnerNonce",
							"type": "string"
						}
					],
					"name": "submitWinner",
					"outputs": [],
					"stateMutability": "nonpayable",
					"type": "function"
				},
				{
					"inputs": [
						{
							"internalType": "uint256",
							"name": "",
							"type": "uint256"
						}
					],
					"name": "winners",
					"outputs": [
						{
							"internalType": "address",
							"name": "winnerAddress",
							"type": "address"
						},
						{
							"internalType": "uint256",
							"name": "bid",
							"type": "uint256"
						},
						{
							"internalType": "string",
							"name": "nonce",
							"type": "string"
						}
					],
					"stateMutability": "view",
					"type": "function"
				}
			],
			"devdoc": {
				"kind": "dev",
				"methods": {},
				"version": 1
			},
			"evm": {
				"assembly": "    /* \"Contracts/AKEB.sol\":58:3408  contract AKEB {... */\n  mstore(0x40, 0x80)\n  callvalue\n  dup1\n  iszero\n  tag_1\n  jumpi\n  0x00\n  dup1\n  revert\ntag_1:\n  pop\n  dataSize(sub_0)\n  dup1\n  dataOffset(sub_0)\n  0x00\n  codecopy\n  0x00\n  return\nstop\n\nsub_0: assembly {\n        /* \"Contracts/AKEB.sol\":58:3408  contract AKEB {... */\n      mstore(0x40, 0x80)\n      callvalue\n      dup1\n      iszero\n      tag_1\n      jumpi\n      0x00\n      dup1\n      revert\n    tag_1:\n      pop\n      jumpi(tag_2, lt(calldatasize, 0x04))\n      shr(0xe0, calldataload(0x00))\n      dup1\n      0x83050daa\n      gt\n      tag_22\n      jumpi\n      dup1\n      0xcff29dfd\n      gt\n      tag_23\n      jumpi\n      dup1\n      0xcff29dfd\n      eq\n      tag_17\n      jumpi\n      dup1\n      0xd826f88f\n      eq\n      tag_18\n      jumpi\n      dup1\n      0xdaa0218f\n      eq\n      tag_19\n      jumpi\n      dup1\n      0xe7d2a997\n      eq\n      tag_20\n      jumpi\n      dup1\n      0xf356733c\n      eq\n      tag_21\n      jumpi\n      jump(tag_2)\n    tag_23:\n      dup1\n      0x83050daa\n      eq\n      tag_12\n      jumpi\n      dup1\n      0x8f772f96\n      eq\n      tag_13\n      jumpi\n      dup1\n      0x938626c2\n      eq\n      tag_14\n      jumpi\n      dup1\n      0xa2fb1175\n      eq\n      tag_15\n      jumpi\n      dup1\n      0xca142b56\n      eq\n      tag_16\n      jumpi\n      jump(tag_2)\n    tag_22:\n      dup1\n      0x3817df4c\n      gt\n      tag_24\n      jumpi\n      dup1\n      0x3817df4c\n      eq\n      tag_7\n      jumpi\n      dup1\n      0x3a79d2e5\n      eq\n      tag_8\n      jumpi\n      dup1\n      0x40bd5937\n      eq\n      tag_9\n      jumpi\n      dup1\n      0x5fa38280\n      eq\n      tag_10\n      jumpi\n      dup1\n      0x66c85dee\n      eq\n      tag_11\n      jumpi\n      jump(tag_2)\n    tag_24:\n      dup1\n      0x05fb23cf\n      eq\n      tag_3\n      jumpi\n      dup1\n      0x1744e03b\n      eq\n      tag_4\n      jumpi\n      dup1\n      0x34eb86a2\n      eq\n      tag_5\n      jumpi\n      dup1\n      0x35abd160\n      eq\n      tag_6\n      jumpi\n    tag_2:\n      0x00\n      dup1\n      revert\n        /* \"Contracts/AKEB.sol\":1836:1964  function getEncodedBid(address inputAddress) public view returns(string memory){... */\n    tag_3:\n      tag_25\n      0x04\n      dup1\n      calldatasize\n      sub\n      dup2\n      add\n      swap1\n      tag_26\n      swap2\n      swap1\n      tag_27\n      jump\t// in\n    tag_26:\n      tag_28\n      jump\t// in\n    tag_25:\n      mload(0x40)\n      tag_29\n      swap2\n      swap1\n      tag_30\n      jump\t// in\n    tag_29:\n      mload(0x40)\n      dup1\n      swap2\n      sub\n      swap1\n      return\n        /* \"Contracts/AKEB.sol\":1970:2177  function submitWinner(uint256 inputWinnerBid, ... */\n    tag_4:\n      tag_31\n      0x04\n      dup1\n      calldatasize\n      sub\n      dup2\n      add\n      swap1\n      tag_32\n      swap2\n      swap1\n      tag_33\n      jump\t// in\n    tag_32:\n      tag_34\n      jump\t// in\n    tag_31:\n      stop\n        /* \"Contracts/AKEB.sol\":168:194  uint256 public minBidPrice */\n    tag_5:\n      tag_35\n      tag_36\n      jump\t// in\n    tag_35:\n      mload(0x40)\n      tag_37\n      swap2\n      swap1\n      tag_38\n      jump\t// in\n    tag_37:\n      mload(0x40)\n      dup1\n      swap2\n      sub\n      swap1\n      return\n        /* \"Contracts/AKEB.sol\":1587:1698  function getAllDisputers() public view returns(DisputedBidders[] memory){... */\n    tag_6:\n      tag_39\n      tag_40\n      jump\t// in\n    tag_39:\n      mload(0x40)\n      tag_41\n      swap2\n      swap1\n      tag_42\n      jump\t// in\n    tag_41:\n      mload(0x40)\n      dup1\n      swap2\n      sub\n      swap1\n      return\n        /* \"Contracts/AKEB.sol\":240:285  mapping(address => string) public encodedBids */\n    tag_7:\n      tag_43\n      0x04\n      dup1\n      calldatasize\n      sub\n      dup2\n      add\n      swap1\n      tag_44\n      swap2\n      swap1\n      tag_27\n      jump\t// in\n    tag_44:\n      tag_45\n      jump\t// in\n    tag_43:\n      mload(0x40)\n      tag_46\n      swap2\n      swap1\n      tag_30\n      jump\t// in\n    tag_46:\n      mload(0x40)\n      dup1\n      swap2\n      sub\n      swap1\n      return\n        /* \"Contracts/AKEB.sol\":1487:1581  function getAllBidders() public view returns(address[] memory) {... */\n    tag_8:\n      tag_47\n      tag_48\n      jump\t// in\n    tag_47:\n      mload(0x40)\n      tag_49\n      swap2\n      swap1\n      tag_50\n      jump\t// in\n    tag_49:\n      mload(0x40)\n      dup1\n      swap2\n      sub\n      swap1\n      return\n        /* \"Contracts/AKEB.sol\":3202:3406  function resetEncodedBids() public {... */\n    tag_9:\n      tag_51\n      tag_52\n      jump\t// in\n    tag_51:\n      stop\n        /* \"Contracts/AKEB.sol\":1376:1481  function getBidderAddress(uint index) public view returns(address) {... */\n    tag_10:\n      tag_53\n      0x04\n      dup1\n      calldatasize\n      sub\n      dup2\n      add\n      swap1\n      tag_54\n      swap2\n      swap1\n      tag_55\n      jump\t// in\n    tag_54:\n      tag_56\n      jump\t// in\n    tag_53:\n      mload(0x40)\n      tag_57\n      swap2\n      swap1\n      tag_58\n      jump\t// in\n    tag_57:\n      mload(0x40)\n      dup1\n      swap2\n      sub\n      swap1\n      return\n        /* \"Contracts/AKEB.sol\":2655:2959  function dispute(uint256 inputDisputedBid, ... */\n    tag_11:\n      tag_59\n      0x04\n      dup1\n      calldatasize\n      sub\n      dup2\n      add\n      swap1\n      tag_60\n      swap2\n      swap1\n      tag_33\n      jump\t// in\n    tag_60:\n      tag_61\n      jump\t// in\n    tag_59:\n      stop\n        /* \"Contracts/AKEB.sol\":854:964  function getSampleString() public pure returns(string memory){... */\n    tag_12:\n      tag_62\n      tag_63\n      jump\t// in\n    tag_62:\n      mload(0x40)\n      tag_64\n      swap2\n      swap1\n      tag_30\n      jump\t// in\n    tag_64:\n      mload(0x40)\n      dup1\n      swap2\n      sub\n      swap1\n      return\n        /* \"Contracts/AKEB.sol\":534:574  DisputedBidders[] public disputedBidders */\n    tag_13:\n      tag_65\n      0x04\n      dup1\n      calldatasize\n      sub\n      dup2\n      add\n      swap1\n      tag_66\n      swap2\n      swap1\n      tag_55\n      jump\t// in\n    tag_66:\n      tag_67\n      jump\t// in\n    tag_65:\n      mload(0x40)\n      tag_68\n      swap4\n      swap3\n      swap2\n      swap1\n      tag_69\n      jump\t// in\n    tag_68:\n      mload(0x40)\n      dup1\n      swap2\n      sub\n      swap1\n      return\n        /* \"Contracts/AKEB.sol\":132:162  string public assetDescription */\n    tag_14:\n      tag_70\n      tag_71\n      jump\t// in\n    tag_70:\n      mload(0x40)\n      tag_72\n      swap2\n      swap1\n      tag_30\n      jump\t// in\n    tag_72:\n      mload(0x40)\n      dup1\n      swap2\n      sub\n      swap1\n      return\n        /* \"Contracts/AKEB.sol\":393:416  winner[] public winners */\n    tag_15:\n      tag_73\n      0x04\n      dup1\n      calldatasize\n      sub\n      dup2\n      add\n      swap1\n      tag_74\n      swap2\n      swap1\n      tag_55\n      jump\t// in\n    tag_74:\n      tag_75\n      jump\t// in\n    tag_73:\n      mload(0x40)\n      tag_76\n      swap4\n      swap3\n      swap2\n      swap1\n      tag_77\n      jump\t// in\n    tag_76:\n      mload(0x40)\n      dup1\n      swap2\n      sub\n      swap1\n      return\n        /* \"Contracts/AKEB.sol\":1704:1830  function submitEncodedBid(string memory inputEncodedBid)... */\n    tag_16:\n      tag_78\n      0x04\n      dup1\n      calldatasize\n      sub\n      dup2\n      add\n      swap1\n      tag_79\n      swap2\n      swap1\n      tag_80\n      jump\t// in\n    tag_79:\n      tag_81\n      jump\t// in\n    tag_78:\n      stop\n        /* \"Contracts/AKEB.sol\":102:126  address[] public bidders */\n    tag_17:\n      tag_82\n      0x04\n      dup1\n      calldatasize\n      sub\n      dup2\n      add\n      swap1\n      tag_83\n      swap2\n      swap1\n      tag_55\n      jump\t// in\n    tag_83:\n      tag_84\n      jump\t// in\n    tag_82:\n      mload(0x40)\n      tag_85\n      swap2\n      swap1\n      tag_58\n      jump\t// in\n    tag_85:\n      mload(0x40)\n      dup1\n      swap2\n      sub\n      swap1\n      return\n        /* \"Contracts/AKEB.sol\":2965:3196  function reset() public {... */\n    tag_18:\n      tag_86\n      tag_87\n      jump\t// in\n    tag_86:\n      stop\n        /* \"Contracts/AKEB.sol\":200:233  uint256 public minNumberOfBidders */\n    tag_19:\n      tag_88\n      tag_89\n      jump\t// in\n    tag_88:\n      mload(0x40)\n      tag_90\n      swap2\n      swap1\n      tag_38\n      jump\t// in\n    tag_90:\n      mload(0x40)\n      dup1\n      swap2\n      sub\n      swap1\n      return\n        /* \"Contracts/AKEB.sol\":970:1290  function registerAuctionInfo(string memory assetDescriptionInput, ... */\n    tag_20:\n      tag_91\n      0x04\n      dup1\n      calldatasize\n      sub\n      dup2\n      add\n      swap1\n      tag_92\n      swap2\n      swap1\n      tag_93\n      jump\t// in\n    tag_92:\n      tag_94\n      jump\t// in\n    tag_91:\n      stop\n        /* \"Contracts/AKEB.sol\":1296:1370  function registerBidder() public {... */\n    tag_21:\n      tag_95\n      tag_96\n      jump\t// in\n    tag_95:\n      stop\n        /* \"Contracts/AKEB.sol\":1836:1964  function getEncodedBid(address inputAddress) public view returns(string memory){... */\n    tag_28:\n        /* \"Contracts/AKEB.sol\":1901:1914  string memory */\n      0x60\n        /* \"Contracts/AKEB.sol\":1932:1943  encodedBids */\n      0x05\n        /* \"Contracts/AKEB.sol\":1932:1957  encodedBids[inputAddress] */\n      0x00\n        /* \"Contracts/AKEB.sol\":1944:1956  inputAddress */\n      dup4\n        /* \"Contracts/AKEB.sol\":1932:1957  encodedBids[inputAddress] */\n      0xffffffffffffffffffffffffffffffffffffffff\n      and\n      0xffffffffffffffffffffffffffffffffffffffff\n      and\n      dup2\n      mstore\n      0x20\n      add\n      swap1\n      dup2\n      mstore\n      0x20\n      add\n      0x00\n      keccak256\n        /* \"Contracts/AKEB.sol\":1925:1957  return encodedBids[inputAddress] */\n      dup1\n      sload\n      tag_98\n      swap1\n      tag_99\n      jump\t// in\n    tag_98:\n      dup1\n      0x1f\n      add\n      0x20\n      dup1\n      swap2\n      div\n      mul\n      0x20\n      add\n      mload(0x40)\n      swap1\n      dup2\n      add\n      0x40\n      mstore\n      dup1\n      swap3\n      swap2\n      swap1\n      dup2\n      dup2\n      mstore\n      0x20\n      add\n      dup3\n      dup1\n      sload\n      tag_100\n      swap1\n      tag_99\n      jump\t// in\n    tag_100:\n      dup1\n      iszero\n      tag_101\n      jumpi\n      dup1\n      0x1f\n      lt\n      tag_102\n      jumpi\n      0x0100\n      dup1\n      dup4\n      sload\n      div\n      mul\n      dup4\n      mstore\n      swap2\n      0x20\n      add\n      swap2\n      jump(tag_101)\n    tag_102:\n      dup3\n      add\n      swap2\n      swap1\n      0x00\n      mstore\n      keccak256(0x00, 0x20)\n      swap1\n    tag_103:\n      dup2\n      sload\n      dup2\n      mstore\n      swap1\n      0x01\n      add\n      swap1\n      0x20\n      add\n      dup1\n      dup4\n      gt\n      tag_103\n      jumpi\n      dup3\n      swap1\n      sub\n      0x1f\n      and\n      dup3\n      add\n      swap2\n    tag_101:\n      pop\n      pop\n      pop\n      pop\n      pop\n      swap1\n      pop\n        /* \"Contracts/AKEB.sol\":1836:1964  function getEncodedBid(address inputAddress) public view returns(string memory){... */\n      swap2\n      swap1\n      pop\n      jump\t// out\n        /* \"Contracts/AKEB.sol\":1970:2177  function submitWinner(uint256 inputWinnerBid, ... */\n    tag_34:\n        /* \"Contracts/AKEB.sol\":2069:2087  winner memory temp */\n      0x00\n        /* \"Contracts/AKEB.sol\":2090:2142  winner(msg.sender, inputWinnerBid, inputwinnerNonce) */\n      mload(0x40)\n      dup1\n      0x60\n      add\n      0x40\n      mstore\n      dup1\n        /* \"Contracts/AKEB.sol\":2097:2107  msg.sender */\n      caller\n        /* \"Contracts/AKEB.sol\":2090:2142  winner(msg.sender, inputWinnerBid, inputwinnerNonce) */\n      0xffffffffffffffffffffffffffffffffffffffff\n      and\n      dup2\n      mstore\n      0x20\n      add\n        /* \"Contracts/AKEB.sol\":2109:2123  inputWinnerBid */\n      dup5\n        /* \"Contracts/AKEB.sol\":2090:2142  winner(msg.sender, inputWinnerBid, inputwinnerNonce) */\n      dup2\n      mstore\n      0x20\n      add\n        /* \"Contracts/AKEB.sol\":2125:2141  inputwinnerNonce */\n      dup4\n        /* \"Contracts/AKEB.sol\":2090:2142  winner(msg.sender, inputWinnerBid, inputwinnerNonce) */\n      dup2\n      mstore\n      pop\n        /* \"Contracts/AKEB.sol\":2069:2142  winner memory temp = winner(msg.sender, inputWinnerBid, inputwinnerNonce) */\n      swap1\n      pop\n        /* \"Contracts/AKEB.sol\":2152:2159  winners */\n      0x06\n        /* \"Contracts/AKEB.sol\":2165:2169  temp */\n      dup2\n        /* \"Contracts/AKEB.sol\":2152:2170  winners.push(temp) */\n      swap1\n      dup1\n      0x01\n      dup2\n      sload\n      add\n      dup1\n      dup3\n      sstore\n      dup1\n      swap2\n      pop\n      pop\n      0x01\n      swap1\n      sub\n      swap1\n      0x00\n      mstore\n      keccak256(0x00, 0x20)\n      swap1\n      0x03\n      mul\n      add\n      0x00\n      swap1\n      swap2\n      swap1\n      swap2\n      swap1\n      swap2\n      pop\n      0x00\n      dup3\n      add\n      mload\n      dup2\n      0x00\n      add\n      exp(0x0100, 0x00)\n      dup2\n      sload\n      dup2\n      0xffffffffffffffffffffffffffffffffffffffff\n      mul\n      not\n      and\n      swap1\n      dup4\n      0xffffffffffffffffffffffffffffffffffffffff\n      and\n      mul\n      or\n      swap1\n      sstore\n      pop\n      0x20\n      dup3\n      add\n      mload\n      dup2\n      0x01\n      add\n      sstore\n      0x40\n      dup3\n      add\n      mload\n      dup2\n      0x02\n      add\n      swap1\n      dup1\n      mload\n      swap1\n      0x20\n      add\n      swap1\n      tag_106\n      swap3\n      swap2\n      swap1\n      tag_107\n      jump\t// in\n    tag_106:\n      pop\n      pop\n      pop\n        /* \"Contracts/AKEB.sol\":2059:2177  {... */\n      pop\n        /* \"Contracts/AKEB.sol\":1970:2177  function submitWinner(uint256 inputWinnerBid, ... */\n      pop\n      pop\n      jump\t// out\n        /* \"Contracts/AKEB.sol\":168:194  uint256 public minBidPrice */\n    tag_36:\n      sload(0x03)\n      dup2\n      jump\t// out\n        /* \"Contracts/AKEB.sol\":1587:1698  function getAllDisputers() public view returns(DisputedBidders[] memory){... */\n    tag_40:\n        /* \"Contracts/AKEB.sol\":1634:1658  DisputedBidders[] memory */\n      0x60\n        /* \"Contracts/AKEB.sol\":1676:1691  disputedBidders */\n      0x07\n        /* \"Contracts/AKEB.sol\":1669:1691  return disputedBidders */\n      dup1\n      sload\n      dup1\n      0x20\n      mul\n      0x20\n      add\n      mload(0x40)\n      swap1\n      dup2\n      add\n      0x40\n      mstore\n      dup1\n      swap3\n      swap2\n      swap1\n      dup2\n      dup2\n      mstore\n      0x20\n      add\n      0x00\n      swap1\n    tag_109:\n      dup3\n      dup3\n      lt\n      iszero\n      tag_110\n      jumpi\n      dup4\n      dup3\n      swap1\n      0x00\n      mstore\n      keccak256(0x00, 0x20)\n      swap1\n      0x03\n      mul\n      add\n      mload(0x40)\n      dup1\n      0x60\n      add\n      0x40\n      mstore\n      swap1\n      dup2\n      0x00\n      dup3\n      add\n      sload\n      dup2\n      mstore\n      0x20\n      add\n      0x01\n      dup3\n      add\n      0x00\n      swap1\n      sload\n      swap1\n      0x0100\n      exp\n      swap1\n      div\n      0xffffffffffffffffffffffffffffffffffffffff\n      and\n      0xffffffffffffffffffffffffffffffffffffffff\n      and\n      0xffffffffffffffffffffffffffffffffffffffff\n      and\n      dup2\n      mstore\n      0x20\n      add\n      0x02\n      dup3\n      add\n      dup1\n      sload\n      tag_112\n      swap1\n      tag_99\n      jump\t// in\n    tag_112:\n      dup1\n      0x1f\n      add\n      0x20\n      dup1\n      swap2\n      div\n      mul\n      0x20\n      add\n      mload(0x40)\n      swap1\n      dup2\n      add\n      0x40\n      mstore\n      dup1\n      swap3\n      swap2\n      swap1\n      dup2\n      dup2\n      mstore\n      0x20\n      add\n      dup3\n      dup1\n      sload\n      tag_113\n      swap1\n      tag_99\n      jump\t// in\n    tag_113:\n      dup1\n      iszero\n      tag_114\n      jumpi\n      dup1\n      0x1f\n      lt\n      tag_115\n      jumpi\n      0x0100\n      dup1\n      dup4\n      sload\n      div\n      mul\n      dup4\n      mstore\n      swap2\n      0x20\n      add\n      swap2\n      jump(tag_114)\n    tag_115:\n      dup3\n      add\n      swap2\n      swap1\n      0x00\n      mstore\n      keccak256(0x00, 0x20)\n      swap1\n    tag_116:\n      dup2\n      sload\n      dup2\n      mstore\n      swap1\n      0x01\n      add\n      swap1\n      0x20\n      add\n      dup1\n      dup4\n      gt\n      tag_116\n      jumpi\n      dup3\n      swap1\n      sub\n      0x1f\n      and\n      dup3\n      add\n      swap2\n    tag_114:\n      pop\n      pop\n      pop\n      pop\n      pop\n      dup2\n      mstore\n      pop\n      pop\n      dup2\n      mstore\n      0x20\n      add\n      swap1\n      0x01\n      add\n      swap1\n      jump(tag_109)\n    tag_110:\n      pop\n      pop\n      pop\n      pop\n      swap1\n      pop\n        /* \"Contracts/AKEB.sol\":1587:1698  function getAllDisputers() public view returns(DisputedBidders[] memory){... */\n      swap1\n      jump\t// out\n        /* \"Contracts/AKEB.sol\":240:285  mapping(address => string) public encodedBids */\n    tag_45:\n      mstore(0x20, 0x05)\n      dup1\n      0x00\n      mstore\n      keccak256(0x00, 0x40)\n      0x00\n      swap2\n      pop\n      swap1\n      pop\n      dup1\n      sload\n      tag_117\n      swap1\n      tag_99\n      jump\t// in\n    tag_117:\n      dup1\n      0x1f\n      add\n      0x20\n      dup1\n      swap2\n      div\n      mul\n      0x20\n      add\n      mload(0x40)\n      swap1\n      dup2\n      add\n      0x40\n      mstore\n      dup1\n      swap3\n      swap2\n      swap1\n      dup2\n      dup2\n      mstore\n      0x20\n      add\n      dup3\n      dup1\n      sload\n      tag_118\n      swap1\n      tag_99\n      jump\t// in\n    tag_118:\n      dup1\n      iszero\n      tag_119\n      jumpi\n      dup1\n      0x1f\n      lt\n      tag_120\n      jumpi\n      0x0100\n      dup1\n      dup4\n      sload\n      div\n      mul\n      dup4\n      mstore\n      swap2\n      0x20\n      add\n      swap2\n      jump(tag_119)\n    tag_120:\n      dup3\n      add\n      swap2\n      swap1\n      0x00\n      mstore\n      keccak256(0x00, 0x20)\n      swap1\n    tag_121:\n      dup2\n      sload\n      dup2\n      mstore\n      swap1\n      0x01\n      add\n      swap1\n      0x20\n      add\n      dup1\n      dup4\n      gt\n      tag_121\n      jumpi\n      dup3\n      swap1\n      sub\n      0x1f\n      and\n      dup3\n      add\n      swap2\n    tag_119:\n      pop\n      pop\n      pop\n      pop\n      pop\n      dup2\n      jump\t// out\n        /* \"Contracts/AKEB.sol\":1487:1581  function getAllBidders() public view returns(address[] memory) {... */\n    tag_48:\n        /* \"Contracts/AKEB.sol\":1532:1548  address[] memory */\n      0x60\n        /* \"Contracts/AKEB.sol\":1567:1574  bidders */\n      0x01\n        /* \"Contracts/AKEB.sol\":1560:1574  return bidders */\n      dup1\n      sload\n      dup1\n      0x20\n      mul\n      0x20\n      add\n      mload(0x40)\n      swap1\n      dup2\n      add\n      0x40\n      mstore\n      dup1\n      swap3\n      swap2\n      swap1\n      dup2\n      dup2\n      mstore\n      0x20\n      add\n      dup3\n      dup1\n      sload\n      dup1\n      iszero\n      tag_123\n      jumpi\n      0x20\n      mul\n      dup3\n      add\n      swap2\n      swap1\n      0x00\n      mstore\n      keccak256(0x00, 0x20)\n      swap1\n    tag_124:\n      dup2\n      0x00\n      swap1\n      sload\n      swap1\n      0x0100\n      exp\n      swap1\n      div\n      0xffffffffffffffffffffffffffffffffffffffff\n      and\n      0xffffffffffffffffffffffffffffffffffffffff\n      and\n      dup2\n      mstore\n      0x20\n      add\n      swap1\n      0x01\n      add\n      swap1\n      dup1\n      dup4\n      gt\n      tag_124\n      jumpi\n    tag_123:\n      pop\n      pop\n      pop\n      pop\n      pop\n      swap1\n      pop\n        /* \"Contracts/AKEB.sol\":1487:1581  function getAllBidders() public view returns(address[] memory) {... */\n      swap1\n      jump\t// out\n        /* \"Contracts/AKEB.sol\":3202:3406  function resetEncodedBids() public {... */\n    tag_52:\n        /* \"Contracts/AKEB.sol\":3252:3261  uint256 i */\n      0x00\n        /* \"Contracts/AKEB.sol\":3247:3400  for (uint256 i = 0 ; i < bidders.length; i +=1){... */\n    tag_126:\n        /* \"Contracts/AKEB.sol\":3272:3279  bidders */\n      0x01\n        /* \"Contracts/AKEB.sol\":3272:3286  bidders.length */\n      dup1\n      sload\n      swap1\n      pop\n        /* \"Contracts/AKEB.sol\":3268:3269  i */\n      dup2\n        /* \"Contracts/AKEB.sol\":3268:3286  i < bidders.length */\n      lt\n        /* \"Contracts/AKEB.sol\":3247:3400  for (uint256 i = 0 ; i < bidders.length; i +=1){... */\n      iszero\n      tag_127\n      jumpi\n        /* \"Contracts/AKEB.sol\":3308:3329  address bidderAddress */\n      0x00\n        /* \"Contracts/AKEB.sol\":3332:3339  bidders */\n      0x01\n        /* \"Contracts/AKEB.sol\":3340:3341  i */\n      dup3\n        /* \"Contracts/AKEB.sol\":3332:3342  bidders[i] */\n      dup2\n      sload\n      dup2\n      lt\n      tag_129\n      jumpi\n      tag_130\n      tag_131\n      jump\t// in\n    tag_130:\n    tag_129:\n      swap1\n      0x00\n      mstore\n      keccak256(0x00, 0x20)\n      add\n      0x00\n      swap1\n      sload\n      swap1\n      0x0100\n      exp\n      swap1\n      div\n      0xffffffffffffffffffffffffffffffffffffffff\n      and\n        /* \"Contracts/AKEB.sol\":3308:3342  address bidderAddress = bidders[i] */\n      swap1\n      pop\n        /* \"Contracts/AKEB.sol\":3363:3374  encodedBids */\n      0x05\n        /* \"Contracts/AKEB.sol\":3363:3389  encodedBids[bidderAddress] */\n      0x00\n        /* \"Contracts/AKEB.sol\":3375:3388  bidderAddress */\n      dup3\n        /* \"Contracts/AKEB.sol\":3363:3389  encodedBids[bidderAddress] */\n      0xffffffffffffffffffffffffffffffffffffffff\n      and\n      0xffffffffffffffffffffffffffffffffffffffff\n      and\n      dup2\n      mstore\n      0x20\n      add\n      swap1\n      dup2\n      mstore\n      0x20\n      add\n      0x00\n      keccak256\n      0x00\n        /* \"Contracts/AKEB.sol\":3356:3389  delete encodedBids[bidderAddress] */\n      tag_133\n      swap2\n      swap1\n      tag_134\n      jump\t// in\n    tag_133:\n        /* \"Contracts/AKEB.sol\":3294:3400  {... */\n      pop\n        /* \"Contracts/AKEB.sol\":3292:3293  1 */\n      0x01\n        /* \"Contracts/AKEB.sol\":3288:3293  i +=1 */\n      dup2\n      tag_135\n      swap2\n      swap1\n      tag_136\n      jump\t// in\n    tag_135:\n      swap1\n      pop\n        /* \"Contracts/AKEB.sol\":3247:3400  for (uint256 i = 0 ; i < bidders.length; i +=1){... */\n      jump(tag_126)\n    tag_127:\n      pop\n        /* \"Contracts/AKEB.sol\":3202:3406  function resetEncodedBids() public {... */\n      jump\t// out\n        /* \"Contracts/AKEB.sol\":1376:1481  function getBidderAddress(uint index) public view returns(address) {... */\n    tag_56:\n        /* \"Contracts/AKEB.sol\":1434:1441  address */\n      0x00\n        /* \"Contracts/AKEB.sol\":1460:1467  bidders */\n      0x01\n        /* \"Contracts/AKEB.sol\":1468:1473  index */\n      dup3\n        /* \"Contracts/AKEB.sol\":1460:1474  bidders[index] */\n      dup2\n      sload\n      dup2\n      lt\n      tag_138\n      jumpi\n      tag_139\n      tag_131\n      jump\t// in\n    tag_139:\n    tag_138:\n      swap1\n      0x00\n      mstore\n      keccak256(0x00, 0x20)\n      add\n      0x00\n      swap1\n      sload\n      swap1\n      0x0100\n      exp\n      swap1\n      div\n      0xffffffffffffffffffffffffffffffffffffffff\n      and\n        /* \"Contracts/AKEB.sol\":1453:1474  return bidders[index] */\n      swap1\n      pop\n        /* \"Contracts/AKEB.sol\":1376:1481  function getBidderAddress(uint index) public view returns(address) {... */\n      swap2\n      swap1\n      pop\n      jump\t// out\n        /* \"Contracts/AKEB.sol\":2655:2959  function dispute(uint256 inputDisputedBid, ... */\n    tag_61:\n        /* \"Contracts/AKEB.sol\":2754:2791  DisputedBidders memory disputedBidder */\n      0x00\n        /* \"Contracts/AKEB.sol\":2794:2905  DisputedBidders(... */\n      mload(0x40)\n      dup1\n      0x60\n      add\n      0x40\n      mstore\n      dup1\n        /* \"Contracts/AKEB.sol\":2823:2839  inputDisputedBid */\n      dup5\n        /* \"Contracts/AKEB.sol\":2794:2905  DisputedBidders(... */\n      dup2\n      mstore\n      0x20\n      add\n        /* \"Contracts/AKEB.sol\":2853:2863  msg.sender */\n      caller\n        /* \"Contracts/AKEB.sol\":2794:2905  DisputedBidders(... */\n      0xffffffffffffffffffffffffffffffffffffffff\n      and\n      dup2\n      mstore\n      0x20\n      add\n        /* \"Contracts/AKEB.sol\":2877:2895  inputDisputedNonce */\n      dup4\n        /* \"Contracts/AKEB.sol\":2794:2905  DisputedBidders(... */\n      dup2\n      mstore\n      pop\n        /* \"Contracts/AKEB.sol\":2754:2905  DisputedBidders memory disputedBidder = DisputedBidders(... */\n      swap1\n      pop\n        /* \"Contracts/AKEB.sol\":2916:2931  disputedBidders */\n      0x07\n        /* \"Contracts/AKEB.sol\":2937:2951  disputedBidder */\n      dup2\n        /* \"Contracts/AKEB.sol\":2916:2952  disputedBidders.push(disputedBidder) */\n      swap1\n      dup1\n      0x01\n      dup2\n      sload\n      add\n      dup1\n      dup3\n      sstore\n      dup1\n      swap2\n      pop\n      pop\n      0x01\n      swap1\n      sub\n      swap1\n      0x00\n      mstore\n      keccak256(0x00, 0x20)\n      swap1\n      0x03\n      mul\n      add\n      0x00\n      swap1\n      swap2\n      swap1\n      swap2\n      swap1\n      swap2\n      pop\n      0x00\n      dup3\n      add\n      mload\n      dup2\n      0x00\n      add\n      sstore\n      0x20\n      dup3\n      add\n      mload\n      dup2\n      0x01\n      add\n      exp(0x0100, 0x00)\n      dup2\n      sload\n      dup2\n      0xffffffffffffffffffffffffffffffffffffffff\n      mul\n      not\n      and\n      swap1\n      dup4\n      0xffffffffffffffffffffffffffffffffffffffff\n      and\n      mul\n      or\n      swap1\n      sstore\n      pop\n      0x40\n      dup3\n      add\n      mload\n      dup2\n      0x02\n      add\n      swap1\n      dup1\n      mload\n      swap1\n      0x20\n      add\n      swap1\n      tag_143\n      swap3\n      swap2\n      swap1\n      tag_107\n      jump\t// in\n    tag_143:\n      pop\n      pop\n      pop\n        /* \"Contracts/AKEB.sol\":2744:2959  {... */\n      pop\n        /* \"Contracts/AKEB.sol\":2655:2959  function dispute(uint256 inputDisputedBid, ... */\n      pop\n      pop\n      jump\t// out\n        /* \"Contracts/AKEB.sol\":854:964  function getSampleString() public pure returns(string memory){... */\n    tag_63:\n        /* \"Contracts/AKEB.sol\":901:914  string memory */\n      0x60\n        /* \"Contracts/AKEB.sol\":925:957  return \"sample string from AKEB\" */\n      mload(0x40)\n      dup1\n      0x40\n      add\n      0x40\n      mstore\n      dup1\n      0x17\n      dup2\n      mstore\n      0x20\n      add\n      0x73616d706c6520737472696e672066726f6d20414b4542000000000000000000\n      dup2\n      mstore\n      pop\n      swap1\n      pop\n        /* \"Contracts/AKEB.sol\":854:964  function getSampleString() public pure returns(string memory){... */\n      swap1\n      jump\t// out\n        /* \"Contracts/AKEB.sol\":534:574  DisputedBidders[] public disputedBidders */\n    tag_67:\n      0x07\n      dup2\n      dup2\n      sload\n      dup2\n      lt\n      tag_145\n      jumpi\n      0x00\n      dup1\n      revert\n    tag_145:\n      swap1\n      0x00\n      mstore\n      keccak256(0x00, 0x20)\n      swap1\n      0x03\n      mul\n      add\n      0x00\n      swap2\n      pop\n      swap1\n      pop\n      dup1\n      0x00\n      add\n      sload\n      swap1\n      dup1\n      0x01\n      add\n      0x00\n      swap1\n      sload\n      swap1\n      0x0100\n      exp\n      swap1\n      div\n      0xffffffffffffffffffffffffffffffffffffffff\n      and\n      swap1\n      dup1\n      0x02\n      add\n      dup1\n      sload\n      tag_147\n      swap1\n      tag_99\n      jump\t// in\n    tag_147:\n      dup1\n      0x1f\n      add\n      0x20\n      dup1\n      swap2\n      div\n      mul\n      0x20\n      add\n      mload(0x40)\n      swap1\n      dup2\n      add\n      0x40\n      mstore\n      dup1\n      swap3\n      swap2\n      swap1\n      dup2\n      dup2\n      mstore\n      0x20\n      add\n      dup3\n      dup1\n      sload\n      tag_148\n      swap1\n      tag_99\n      jump\t// in\n    tag_148:\n      dup1\n      iszero\n      tag_149\n      jumpi\n      dup1\n      0x1f\n      lt\n      tag_150\n      jumpi\n      0x0100\n      dup1\n      dup4\n      sload\n      div\n      mul\n      dup4\n      mstore\n      swap2\n      0x20\n      add\n      swap2\n      jump(tag_149)\n    tag_150:\n      dup3\n      add\n      swap2\n      swap1\n      0x00\n      mstore\n      keccak256(0x00, 0x20)\n      swap1\n    tag_151:\n      dup2\n      sload\n      dup2\n      mstore\n      swap1\n      0x01\n      add\n      swap1\n      0x20\n      add\n      dup1\n      dup4\n      gt\n      tag_151\n      jumpi\n      dup3\n      swap1\n      sub\n      0x1f\n      and\n      dup3\n      add\n      swap2\n    tag_149:\n      pop\n      pop\n      pop\n      pop\n      pop\n      swap1\n      pop\n      dup4\n      jump\t// out\n        /* \"Contracts/AKEB.sol\":132:162  string public assetDescription */\n    tag_71:\n      0x02\n      dup1\n      sload\n      tag_152\n      swap1\n      tag_99\n      jump\t// in\n    tag_152:\n      dup1\n      0x1f\n      add\n      0x20\n      dup1\n      swap2\n      div\n      mul\n      0x20\n      add\n      mload(0x40)\n      swap1\n      dup2\n      add\n      0x40\n      mstore\n      dup1\n      swap3\n      swap2\n      swap1\n      dup2\n      dup2\n      mstore\n      0x20\n      add\n      dup3\n      dup1\n      sload\n      tag_153\n      swap1\n      tag_99\n      jump\t// in\n    tag_153:\n      dup1\n      iszero\n      tag_154\n      jumpi\n      dup1\n      0x1f\n      lt\n      tag_155\n      jumpi\n      0x0100\n      dup1\n      dup4\n      sload\n      div\n      mul\n      dup4\n      mstore\n      swap2\n      0x20\n      add\n      swap2\n      jump(tag_154)\n    tag_155:\n      dup3\n      add\n      swap2\n      swap1\n      0x00\n      mstore\n      keccak256(0x00, 0x20)\n      swap1\n    tag_156:\n      dup2\n      sload\n      dup2\n      mstore\n      swap1\n      0x01\n      add\n      swap1\n      0x20\n      add\n      dup1\n      dup4\n      gt\n      tag_156\n      jumpi\n      dup3\n      swap1\n      sub\n      0x1f\n      and\n      dup3\n      add\n      swap2\n    tag_154:\n      pop\n      pop\n      pop\n      pop\n      pop\n      dup2\n      jump\t// out\n        /* \"Contracts/AKEB.sol\":393:416  winner[] public winners */\n    tag_75:\n      0x06\n      dup2\n      dup2\n      sload\n      dup2\n      lt\n      tag_157\n      jumpi\n      0x00\n      dup1\n      revert\n    tag_157:\n      swap1\n      0x00\n      mstore\n      keccak256(0x00, 0x20)\n      swap1\n      0x03\n      mul\n      add\n      0x00\n      swap2\n      pop\n      swap1\n      pop\n      dup1\n      0x00\n      add\n      0x00\n      swap1\n      sload\n      swap1\n      0x0100\n      exp\n      swap1\n      div\n      0xffffffffffffffffffffffffffffffffffffffff\n      and\n      swap1\n      dup1\n      0x01\n      add\n      sload\n      swap1\n      dup1\n      0x02\n      add\n      dup1\n      sload\n      tag_159\n      swap1\n      tag_99\n      jump\t// in\n    tag_159:\n      dup1\n      0x1f\n      add\n      0x20\n      dup1\n      swap2\n      div\n      mul\n      0x20\n      add\n      mload(0x40)\n      swap1\n      dup2\n      add\n      0x40\n      mstore\n      dup1\n      swap3\n      swap2\n      swap1\n      dup2\n      dup2\n      mstore\n      0x20\n      add\n      dup3\n      dup1\n      sload\n      tag_160\n      swap1\n      tag_99\n      jump\t// in\n    tag_160:\n      dup1\n      iszero\n      tag_161\n      jumpi\n      dup1\n      0x1f\n      lt\n      tag_162\n      jumpi\n      0x0100\n      dup1\n      dup4\n      sload\n      div\n      mul\n      dup4\n      mstore\n      swap2\n      0x20\n      add\n      swap2\n      jump(tag_161)\n    tag_162:\n      dup3\n      add\n      swap2\n      swap1\n      0x00\n      mstore\n      keccak256(0x00, 0x20)\n      swap1\n    tag_163:\n      dup2\n      sload\n      dup2\n      mstore\n      swap1\n      0x01\n      add\n      swap1\n      0x20\n      add\n      dup1\n      dup4\n      gt\n      tag_163\n      jumpi\n      dup3\n      swap1\n      sub\n      0x1f\n      and\n      dup3\n      add\n      swap2\n    tag_161:\n      pop\n      pop\n      pop\n      pop\n      pop\n      swap1\n      pop\n      dup4\n      jump\t// out\n        /* \"Contracts/AKEB.sol\":1704:1830  function submitEncodedBid(string memory inputEncodedBid)... */\n    tag_81:\n        /* \"Contracts/AKEB.sol\":1808:1823  inputEncodedBid */\n      dup1\n        /* \"Contracts/AKEB.sol\":1782:1793  encodedBids */\n      0x05\n        /* \"Contracts/AKEB.sol\":1782:1805  encodedBids[msg.sender] */\n      0x00\n        /* \"Contracts/AKEB.sol\":1794:1804  msg.sender */\n      caller\n        /* \"Contracts/AKEB.sol\":1782:1805  encodedBids[msg.sender] */\n      0xffffffffffffffffffffffffffffffffffffffff\n      and\n      0xffffffffffffffffffffffffffffffffffffffff\n      and\n      dup2\n      mstore\n      0x20\n      add\n      swap1\n      dup2\n      mstore\n      0x20\n      add\n      0x00\n      keccak256\n        /* \"Contracts/AKEB.sol\":1782:1823  encodedBids[msg.sender] = inputEncodedBid */\n      swap1\n      dup1\n      mload\n      swap1\n      0x20\n      add\n      swap1\n      tag_165\n      swap3\n      swap2\n      swap1\n      tag_107\n      jump\t// in\n    tag_165:\n      pop\n        /* \"Contracts/AKEB.sol\":1704:1830  function submitEncodedBid(string memory inputEncodedBid)... */\n      pop\n      jump\t// out\n        /* \"Contracts/AKEB.sol\":102:126  address[] public bidders */\n    tag_84:\n      0x01\n      dup2\n      dup2\n      sload\n      dup2\n      lt\n      tag_166\n      jumpi\n      0x00\n      dup1\n      revert\n    tag_166:\n      swap1\n      0x00\n      mstore\n      keccak256(0x00, 0x20)\n      add\n      0x00\n      swap2\n      pop\n      sload\n      swap1\n      0x0100\n      exp\n      swap1\n      div\n      0xffffffffffffffffffffffffffffffffffffffff\n      and\n      dup2\n      jump\t// out\n        /* \"Contracts/AKEB.sol\":2965:3196  function reset() public {... */\n    tag_87:\n        /* \"Contracts/AKEB.sol\":3006:3013  winners */\n      0x06\n      0x00\n        /* \"Contracts/AKEB.sol\":2999:3013  delete winners */\n      tag_169\n      swap2\n      swap1\n      tag_170\n      jump\t// in\n    tag_169:\n        /* \"Contracts/AKEB.sol\":3024:3045  assetDescription = \"\" */\n      mload(0x40)\n      dup1\n      0x20\n      add\n      0x40\n      mstore\n      dup1\n      0x00\n      dup2\n      mstore\n      pop\n        /* \"Contracts/AKEB.sol\":3024:3040  assetDescription */\n      0x02\n        /* \"Contracts/AKEB.sol\":3024:3045  assetDescription = \"\" */\n      swap1\n      dup1\n      mload\n      swap1\n      0x20\n      add\n      swap1\n      tag_171\n      swap3\n      swap2\n      swap1\n      tag_107\n      jump\t// in\n    tag_171:\n      pop\n        /* \"Contracts/AKEB.sol\":3069:3070  0 */\n      0x00\n        /* \"Contracts/AKEB.sol\":3055:3066  minBidPrice */\n      0x03\n        /* \"Contracts/AKEB.sol\":3055:3070  minBidPrice = 0 */\n      dup2\n      swap1\n      sstore\n      pop\n        /* \"Contracts/AKEB.sol\":3101:3102  0 */\n      0x00\n        /* \"Contracts/AKEB.sol\":3080:3098  minNumberOfBidders */\n      0x04\n        /* \"Contracts/AKEB.sol\":3080:3102  minNumberOfBidders = 0 */\n      dup2\n      swap1\n      sstore\n      pop\n        /* \"Contracts/AKEB.sol\":3113:3131  resetEncodedBids() */\n      tag_172\n        /* \"Contracts/AKEB.sol\":3113:3129  resetEncodedBids */\n      tag_52\n        /* \"Contracts/AKEB.sol\":3113:3131  resetEncodedBids() */\n      jump\t// in\n    tag_172:\n        /* \"Contracts/AKEB.sol\":3149:3156  bidders */\n      0x01\n      0x00\n        /* \"Contracts/AKEB.sol\":3142:3156  delete bidders */\n      tag_173\n      swap2\n      swap1\n      tag_174\n      jump\t// in\n    tag_173:\n        /* \"Contracts/AKEB.sol\":3174:3189  disputedBidders */\n      0x07\n      0x00\n        /* \"Contracts/AKEB.sol\":3167:3189  delete disputedBidders */\n      tag_175\n      swap2\n      swap1\n      tag_176\n      jump\t// in\n    tag_175:\n        /* \"Contracts/AKEB.sol\":2965:3196  function reset() public {... */\n      jump\t// out\n        /* \"Contracts/AKEB.sol\":200:233  uint256 public minNumberOfBidders */\n    tag_89:\n      sload(0x04)\n      dup2\n      jump\t// out\n        /* \"Contracts/AKEB.sol\":970:1290  function registerAuctionInfo(string memory assetDescriptionInput, ... */\n    tag_94:\n        /* \"Contracts/AKEB.sol\":645:655  auctioneer */\n      0x00\n      dup1\n      sload\n      swap1\n      0x0100\n      exp\n      swap1\n      div\n      0xffffffffffffffffffffffffffffffffffffffff\n      and\n        /* \"Contracts/AKEB.sol\":631:655  msg.sender == auctioneer */\n      0xffffffffffffffffffffffffffffffffffffffff\n      and\n        /* \"Contracts/AKEB.sol\":631:641  msg.sender */\n      caller\n        /* \"Contracts/AKEB.sol\":631:655  msg.sender == auctioneer */\n      0xffffffffffffffffffffffffffffffffffffffff\n      and\n      eq\n        /* \"Contracts/AKEB.sol\":623:699  require(msg.sender == auctioneer, \"Only auctioneer can call this function.\") */\n      tag_178\n      jumpi\n      mload(0x40)\n      0x08c379a000000000000000000000000000000000000000000000000000000000\n      dup2\n      mstore\n      0x04\n      add\n      tag_179\n      swap1\n      tag_180\n      jump\t// in\n    tag_179:\n      mload(0x40)\n      dup1\n      swap2\n      sub\n      swap1\n      revert\n    tag_178:\n        /* \"Contracts/AKEB.sol\":1168:1189  assetDescriptionInput */\n      dup3\n        /* \"Contracts/AKEB.sol\":1149:1165  assetDescription */\n      0x02\n        /* \"Contracts/AKEB.sol\":1149:1189  assetDescription = assetDescriptionInput */\n      swap1\n      dup1\n      mload\n      swap1\n      0x20\n      add\n      swap1\n      tag_182\n      swap3\n      swap2\n      swap1\n      tag_107\n      jump\t// in\n    tag_182:\n      pop\n        /* \"Contracts/AKEB.sol\":1213:1229  minBidPriceInput */\n      dup2\n        /* \"Contracts/AKEB.sol\":1199:1210  minBidPrice */\n      0x03\n        /* \"Contracts/AKEB.sol\":1199:1229  minBidPrice = minBidPriceInput */\n      dup2\n      swap1\n      sstore\n      pop\n        /* \"Contracts/AKEB.sol\":1260:1283  minNumberOfBiddersInput */\n      dup1\n        /* \"Contracts/AKEB.sol\":1239:1257  minNumberOfBidders */\n      0x04\n        /* \"Contracts/AKEB.sol\":1239:1283  minNumberOfBidders = minNumberOfBiddersInput */\n      dup2\n      swap1\n      sstore\n      pop\n        /* \"Contracts/AKEB.sol\":970:1290  function registerAuctionInfo(string memory assetDescriptionInput, ... */\n      pop\n      pop\n      pop\n      jump\t// out\n        /* \"Contracts/AKEB.sol\":1296:1370  function registerBidder() public {... */\n    tag_96:\n        /* \"Contracts/AKEB.sol\":1339:1346  bidders */\n      0x01\n        /* \"Contracts/AKEB.sol\":1352:1362  msg.sender */\n      caller\n        /* \"Contracts/AKEB.sol\":1339:1363  bidders.push(msg.sender) */\n      swap1\n      dup1\n      0x01\n      dup2\n      sload\n      add\n      dup1\n      dup3\n      sstore\n      dup1\n      swap2\n      pop\n      pop\n      0x01\n      swap1\n      sub\n      swap1\n      0x00\n      mstore\n      keccak256(0x00, 0x20)\n      add\n      0x00\n      swap1\n      swap2\n      swap1\n      swap2\n      swap1\n      swap2\n      0x0100\n      exp\n      dup2\n      sload\n      dup2\n      0xffffffffffffffffffffffffffffffffffffffff\n      mul\n      not\n      and\n      swap1\n      dup4\n      0xffffffffffffffffffffffffffffffffffffffff\n      and\n      mul\n      or\n      swap1\n      sstore\n      pop\n        /* \"Contracts/AKEB.sol\":1296:1370  function registerBidder() public {... */\n      jump\t// out\n    tag_107:\n      dup3\n      dup1\n      sload\n      tag_185\n      swap1\n      tag_99\n      jump\t// in\n    tag_185:\n      swap1\n      0x00\n      mstore\n      keccak256(0x00, 0x20)\n      swap1\n      0x1f\n      add\n      0x20\n      swap1\n      div\n      dup2\n      add\n      swap3\n      dup3\n      tag_187\n      jumpi\n      0x00\n      dup6\n      sstore\n      jump(tag_186)\n    tag_187:\n      dup3\n      0x1f\n      lt\n      tag_188\n      jumpi\n      dup1\n      mload\n      not(0xff)\n      and\n      dup4\n      dup1\n      add\n      or\n      dup6\n      sstore\n      jump(tag_186)\n    tag_188:\n      dup3\n      dup1\n      add\n      0x01\n      add\n      dup6\n      sstore\n      dup3\n      iszero\n      tag_186\n      jumpi\n      swap2\n      dup3\n      add\n    tag_189:\n      dup3\n      dup2\n      gt\n      iszero\n      tag_190\n      jumpi\n      dup3\n      mload\n      dup3\n      sstore\n      swap2\n      0x20\n      add\n      swap2\n      swap1\n      0x01\n      add\n      swap1\n      jump(tag_189)\n    tag_190:\n    tag_186:\n      pop\n      swap1\n      pop\n      tag_191\n      swap2\n      swap1\n      tag_192\n      jump\t// in\n    tag_191:\n      pop\n      swap1\n      jump\t// out\n    tag_134:\n      pop\n      dup1\n      sload\n      tag_193\n      swap1\n      tag_99\n      jump\t// in\n    tag_193:\n      0x00\n      dup3\n      sstore\n      dup1\n      0x1f\n      lt\n      tag_195\n      jumpi\n      pop\n      jump(tag_194)\n    tag_195:\n      0x1f\n      add\n      0x20\n      swap1\n      div\n      swap1\n      0x00\n      mstore\n      keccak256(0x00, 0x20)\n      swap1\n      dup2\n      add\n      swap1\n      tag_196\n      swap2\n      swap1\n      tag_192\n      jump\t// in\n    tag_196:\n    tag_194:\n      pop\n      jump\t// out\n    tag_170:\n      pop\n      dup1\n      sload\n      0x00\n      dup3\n      sstore\n      0x03\n      mul\n      swap1\n      0x00\n      mstore\n      keccak256(0x00, 0x20)\n      swap1\n      dup2\n      add\n      swap1\n      tag_198\n      swap2\n      swap1\n      tag_199\n      jump\t// in\n    tag_198:\n      pop\n      jump\t// out\n    tag_174:\n      pop\n      dup1\n      sload\n      0x00\n      dup3\n      sstore\n      swap1\n      0x00\n      mstore\n      keccak256(0x00, 0x20)\n      swap1\n      dup2\n      add\n      swap1\n      tag_201\n      swap2\n      swap1\n      tag_192\n      jump\t// in\n    tag_201:\n      pop\n      jump\t// out\n    tag_176:\n      pop\n      dup1\n      sload\n      0x00\n      dup3\n      sstore\n      0x03\n      mul\n      swap1\n      0x00\n      mstore\n      keccak256(0x00, 0x20)\n      swap1\n      dup2\n      add\n      swap1\n      tag_203\n      swap2\n      swap1\n      tag_204\n      jump\t// in\n    tag_203:\n      pop\n      jump\t// out\n    tag_192:\n    tag_205:\n      dup1\n      dup3\n      gt\n      iszero\n      tag_206\n      jumpi\n      0x00\n      dup2\n      0x00\n      swap1\n      sstore\n      pop\n      0x01\n      add\n      jump(tag_205)\n    tag_206:\n      pop\n      swap1\n      jump\t// out\n    tag_199:\n    tag_207:\n      dup1\n      dup3\n      gt\n      iszero\n      tag_208\n      jumpi\n      0x00\n      dup1\n      dup3\n      add\n      exp(0x0100, 0x00)\n      dup2\n      sload\n      swap1\n      0xffffffffffffffffffffffffffffffffffffffff\n      mul\n      not\n      and\n      swap1\n      sstore\n      0x01\n      dup3\n      add\n      0x00\n      swap1\n      sstore\n      0x02\n      dup3\n      add\n      0x00\n      tag_209\n      swap2\n      swap1\n      tag_134\n      jump\t// in\n    tag_209:\n      pop\n      0x03\n      add\n      jump(tag_207)\n    tag_208:\n      pop\n      swap1\n      jump\t// out\n    tag_204:\n    tag_210:\n      dup1\n      dup3\n      gt\n      iszero\n      tag_211\n      jumpi\n      0x00\n      dup1\n      dup3\n      add\n      0x00\n      swap1\n      sstore\n      0x01\n      dup3\n      add\n      exp(0x0100, 0x00)\n      dup2\n      sload\n      swap1\n      0xffffffffffffffffffffffffffffffffffffffff\n      mul\n      not\n      and\n      swap1\n      sstore\n      0x02\n      dup3\n      add\n      0x00\n      tag_212\n      swap2\n      swap1\n      tag_134\n      jump\t// in\n    tag_212:\n      pop\n      0x03\n      add\n      jump(tag_210)\n    tag_211:\n      pop\n      swap1\n      jump\t// out\n        /* \"#utility.yul\":7:82   */\n    tag_213:\n        /* \"#utility.yul\":40:46   */\n      0x00\n        /* \"#utility.yul\":73:75   */\n      0x40\n        /* \"#utility.yul\":67:76   */\n      mload\n        /* \"#utility.yul\":57:76   */\n      swap1\n      pop\n        /* \"#utility.yul\":7:82   */\n      swap1\n      jump\t// out\n        /* \"#utility.yul\":88:205   */\n    tag_214:\n        /* \"#utility.yul\":197:198   */\n      0x00\n        /* \"#utility.yul\":194:195   */\n      dup1\n        /* \"#utility.yul\":187:199   */\n      revert\n        /* \"#utility.yul\":211:328   */\n    tag_215:\n        /* \"#utility.yul\":320:321   */\n      0x00\n        /* \"#utility.yul\":317:318   */\n      dup1\n        /* \"#utility.yul\":310:322   */\n      revert\n        /* \"#utility.yul\":334:460   */\n    tag_216:\n        /* \"#utility.yul\":371:378   */\n      0x00\n        /* \"#utility.yul\":411:453   */\n      0xffffffffffffffffffffffffffffffffffffffff\n        /* \"#utility.yul\":404:409   */\n      dup3\n        /* \"#utility.yul\":400:454   */\n      and\n        /* \"#utility.yul\":389:454   */\n      swap1\n      pop\n        /* \"#utility.yul\":334:460   */\n      swap2\n      swap1\n      pop\n      jump\t// out\n        /* \"#utility.yul\":466:562   */\n    tag_217:\n        /* \"#utility.yul\":503:510   */\n      0x00\n        /* \"#utility.yul\":532:556   */\n      tag_266\n        /* \"#utility.yul\":550:555   */\n      dup3\n        /* \"#utility.yul\":532:556   */\n      tag_216\n      jump\t// in\n    tag_266:\n        /* \"#utility.yul\":521:556   */\n      swap1\n      pop\n        /* \"#utility.yul\":466:562   */\n      swap2\n      swap1\n      pop\n      jump\t// out\n        /* \"#utility.yul\":568:690   */\n    tag_218:\n        /* \"#utility.yul\":641:665   */\n      tag_268\n        /* \"#utility.yul\":659:664   */\n      dup2\n        /* \"#utility.yul\":641:665   */\n      tag_217\n      jump\t// in\n    tag_268:\n        /* \"#utility.yul\":634:639   */\n      dup2\n        /* \"#utility.yul\":631:666   */\n      eq\n        /* \"#utility.yul\":621:684   */\n      tag_269\n      jumpi\n        /* \"#utility.yul\":680:681   */\n      0x00\n        /* \"#utility.yul\":677:678   */\n      dup1\n        /* \"#utility.yul\":670:682   */\n      revert\n        /* \"#utility.yul\":621:684   */\n    tag_269:\n        /* \"#utility.yul\":568:690   */\n      pop\n      jump\t// out\n        /* \"#utility.yul\":696:835   */\n    tag_219:\n        /* \"#utility.yul\":742:747   */\n      0x00\n        /* \"#utility.yul\":780:786   */\n      dup2\n        /* \"#utility.yul\":767:787   */\n      calldataload\n        /* \"#utility.yul\":758:787   */\n      swap1\n      pop\n        /* \"#utility.yul\":796:829   */\n      tag_271\n        /* \"#utility.yul\":823:828   */\n      dup2\n        /* \"#utility.yul\":796:829   */\n      tag_218\n      jump\t// in\n    tag_271:\n        /* \"#utility.yul\":696:835   */\n      swap3\n      swap2\n      pop\n      pop\n      jump\t// out\n        /* \"#utility.yul\":841:1170   */\n    tag_27:\n        /* \"#utility.yul\":900:906   */\n      0x00\n        /* \"#utility.yul\":949:951   */\n      0x20\n        /* \"#utility.yul\":937:946   */\n      dup3\n        /* \"#utility.yul\":928:935   */\n      dup5\n        /* \"#utility.yul\":924:947   */\n      sub\n        /* \"#utility.yul\":920:952   */\n      slt\n        /* \"#utility.yul\":917:1036   */\n      iszero\n      tag_273\n      jumpi\n        /* \"#utility.yul\":955:1034   */\n      tag_274\n      tag_214\n      jump\t// in\n    tag_274:\n        /* \"#utility.yul\":917:1036   */\n    tag_273:\n        /* \"#utility.yul\":1075:1076   */\n      0x00\n        /* \"#utility.yul\":1100:1153   */\n      tag_275\n        /* \"#utility.yul\":1145:1152   */\n      dup5\n        /* \"#utility.yul\":1136:1142   */\n      dup3\n        /* \"#utility.yul\":1125:1134   */\n      dup6\n        /* \"#utility.yul\":1121:1143   */\n      add\n        /* \"#utility.yul\":1100:1153   */\n      tag_219\n      jump\t// in\n    tag_275:\n        /* \"#utility.yul\":1090:1153   */\n      swap2\n      pop\n        /* \"#utility.yul\":1046:1163   */\n      pop\n        /* \"#utility.yul\":841:1170   */\n      swap3\n      swap2\n      pop\n      pop\n      jump\t// out\n        /* \"#utility.yul\":1176:1275   */\n    tag_220:\n        /* \"#utility.yul\":1228:1234   */\n      0x00\n        /* \"#utility.yul\":1262:1267   */\n      dup2\n        /* \"#utility.yul\":1256:1268   */\n      mload\n        /* \"#utility.yul\":1246:1268   */\n      swap1\n      pop\n        /* \"#utility.yul\":1176:1275   */\n      swap2\n      swap1\n      pop\n      jump\t// out\n        /* \"#utility.yul\":1281:1450   */\n    tag_221:\n        /* \"#utility.yul\":1365:1376   */\n      0x00\n        /* \"#utility.yul\":1399:1405   */\n      dup3\n        /* \"#utility.yul\":1394:1397   */\n      dup3\n        /* \"#utility.yul\":1387:1406   */\n      mstore\n        /* \"#utility.yul\":1439:1443   */\n      0x20\n        /* \"#utility.yul\":1434:1437   */\n      dup3\n        /* \"#utility.yul\":1430:1444   */\n      add\n        /* \"#utility.yul\":1415:1444   */\n      swap1\n      pop\n        /* \"#utility.yul\":1281:1450   */\n      swap3\n      swap2\n      pop\n      pop\n      jump\t// out\n        /* \"#utility.yul\":1456:1763   */\n    tag_222:\n        /* \"#utility.yul\":1524:1525   */\n      0x00\n        /* \"#utility.yul\":1534:1647   */\n    tag_279:\n        /* \"#utility.yul\":1548:1554   */\n      dup4\n        /* \"#utility.yul\":1545:1546   */\n      dup2\n        /* \"#utility.yul\":1542:1555   */\n      lt\n        /* \"#utility.yul\":1534:1647   */\n      iszero\n      tag_281\n      jumpi\n        /* \"#utility.yul\":1633:1634   */\n      dup1\n        /* \"#utility.yul\":1628:1631   */\n      dup3\n        /* \"#utility.yul\":1624:1635   */\n      add\n        /* \"#utility.yul\":1618:1636   */\n      mload\n        /* \"#utility.yul\":1614:1615   */\n      dup2\n        /* \"#utility.yul\":1609:1612   */\n      dup5\n        /* \"#utility.yul\":1605:1616   */\n      add\n        /* \"#utility.yul\":1598:1637   */\n      mstore\n        /* \"#utility.yul\":1570:1572   */\n      0x20\n        /* \"#utility.yul\":1567:1568   */\n      dup2\n        /* \"#utility.yul\":1563:1573   */\n      add\n        /* \"#utility.yul\":1558:1573   */\n      swap1\n      pop\n        /* \"#utility.yul\":1534:1647   */\n      jump(tag_279)\n    tag_281:\n        /* \"#utility.yul\":1665:1671   */\n      dup4\n        /* \"#utility.yul\":1662:1663   */\n      dup2\n        /* \"#utility.yul\":1659:1672   */\n      gt\n        /* \"#utility.yul\":1656:1757   */\n      iszero\n      tag_282\n      jumpi\n        /* \"#utility.yul\":1745:1746   */\n      0x00\n        /* \"#utility.yul\":1736:1742   */\n      dup5\n        /* \"#utility.yul\":1731:1734   */\n      dup5\n        /* \"#utility.yul\":1727:1743   */\n      add\n        /* \"#utility.yul\":1720:1747   */\n      mstore\n        /* \"#utility.yul\":1656:1757   */\n    tag_282:\n        /* \"#utility.yul\":1505:1763   */\n      pop\n        /* \"#utility.yul\":1456:1763   */\n      pop\n      pop\n      pop\n      jump\t// out\n        /* \"#utility.yul\":1769:1871   */\n    tag_223:\n        /* \"#utility.yul\":1810:1816   */\n      0x00\n        /* \"#utility.yul\":1861:1863   */\n      0x1f\n        /* \"#utility.yul\":1857:1864   */\n      not\n        /* \"#utility.yul\":1852:1854   */\n      0x1f\n        /* \"#utility.yul\":1845:1850   */\n      dup4\n        /* \"#utility.yul\":1841:1855   */\n      add\n        /* \"#utility.yul\":1837:1865   */\n      and\n        /* \"#utility.yul\":1827:1865   */\n      swap1\n      pop\n        /* \"#utility.yul\":1769:1871   */\n      swap2\n      swap1\n      pop\n      jump\t// out\n        /* \"#utility.yul\":1877:2241   */\n    tag_224:\n        /* \"#utility.yul\":1965:1968   */\n      0x00\n        /* \"#utility.yul\":1993:2032   */\n      tag_285\n        /* \"#utility.yul\":2026:2031   */\n      dup3\n        /* \"#utility.yul\":1993:2032   */\n      tag_220\n      jump\t// in\n    tag_285:\n        /* \"#utility.yul\":2048:2119   */\n      tag_286\n        /* \"#utility.yul\":2112:2118   */\n      dup2\n        /* \"#utility.yul\":2107:2110   */\n      dup6\n        /* \"#utility.yul\":2048:2119   */\n      tag_221\n      jump\t// in\n    tag_286:\n        /* \"#utility.yul\":2041:2119   */\n      swap4\n      pop\n        /* \"#utility.yul\":2128:2180   */\n      tag_287\n        /* \"#utility.yul\":2173:2179   */\n      dup2\n        /* \"#utility.yul\":2168:2171   */\n      dup6\n        /* \"#utility.yul\":2161:2165   */\n      0x20\n        /* \"#utility.yul\":2154:2159   */\n      dup7\n        /* \"#utility.yul\":2150:2166   */\n      add\n        /* \"#utility.yul\":2128:2180   */\n      tag_222\n      jump\t// in\n    tag_287:\n        /* \"#utility.yul\":2205:2234   */\n      tag_288\n        /* \"#utility.yul\":2227:2233   */\n      dup2\n        /* \"#utility.yul\":2205:2234   */\n      tag_223\n      jump\t// in\n    tag_288:\n        /* \"#utility.yul\":2200:2203   */\n      dup5\n        /* \"#utility.yul\":2196:2235   */\n      add\n        /* \"#utility.yul\":2189:2235   */\n      swap2\n      pop\n        /* \"#utility.yul\":1969:2241   */\n      pop\n        /* \"#utility.yul\":1877:2241   */\n      swap3\n      swap2\n      pop\n      pop\n      jump\t// out\n        /* \"#utility.yul\":2247:2560   */\n    tag_30:\n        /* \"#utility.yul\":2360:2364   */\n      0x00\n        /* \"#utility.yul\":2398:2400   */\n      0x20\n        /* \"#utility.yul\":2387:2396   */\n      dup3\n        /* \"#utility.yul\":2383:2401   */\n      add\n        /* \"#utility.yul\":2375:2401   */\n      swap1\n      pop\n        /* \"#utility.yul\":2447:2456   */\n      dup2\n        /* \"#utility.yul\":2441:2445   */\n      dup2\n        /* \"#utility.yul\":2437:2457   */\n      sub\n        /* \"#utility.yul\":2433:2434   */\n      0x00\n        /* \"#utility.yul\":2422:2431   */\n      dup4\n        /* \"#utility.yul\":2418:2435   */\n      add\n        /* \"#utility.yul\":2411:2458   */\n      mstore\n        /* \"#utility.yul\":2475:2553   */\n      tag_290\n        /* \"#utility.yul\":2548:2552   */\n      dup2\n        /* \"#utility.yul\":2539:2545   */\n      dup5\n        /* \"#utility.yul\":2475:2553   */\n      tag_224\n      jump\t// in\n    tag_290:\n        /* \"#utility.yul\":2467:2553   */\n      swap1\n      pop\n        /* \"#utility.yul\":2247:2560   */\n      swap3\n      swap2\n      pop\n      pop\n      jump\t// out\n        /* \"#utility.yul\":2566:2643   */\n    tag_225:\n        /* \"#utility.yul\":2603:2610   */\n      0x00\n        /* \"#utility.yul\":2632:2637   */\n      dup2\n        /* \"#utility.yul\":2621:2637   */\n      swap1\n      pop\n        /* \"#utility.yul\":2566:2643   */\n      swap2\n      swap1\n      pop\n      jump\t// out\n        /* \"#utility.yul\":2649:2771   */\n    tag_226:\n        /* \"#utility.yul\":2722:2746   */\n      tag_293\n        /* \"#utility.yul\":2740:2745   */\n      dup2\n        /* \"#utility.yul\":2722:2746   */\n      tag_225\n      jump\t// in\n    tag_293:\n        /* \"#utility.yul\":2715:2720   */\n      dup2\n        /* \"#utility.yul\":2712:2747   */\n      eq\n        /* \"#utility.yul\":2702:2765   */\n      tag_294\n      jumpi\n        /* \"#utility.yul\":2761:2762   */\n      0x00\n        /* \"#utility.yul\":2758:2759   */\n      dup1\n        /* \"#utility.yul\":2751:2763   */\n      revert\n        /* \"#utility.yul\":2702:2765   */\n    tag_294:\n        /* \"#utility.yul\":2649:2771   */\n      pop\n      jump\t// out\n        /* \"#utility.yul\":2777:2916   */\n    tag_227:\n        /* \"#utility.yul\":2823:2828   */\n      0x00\n        /* \"#utility.yul\":2861:2867   */\n      dup2\n        /* \"#utility.yul\":2848:2868   */\n      calldataload\n        /* \"#utility.yul\":2839:2868   */\n      swap1\n      pop\n        /* \"#utility.yul\":2877:2910   */\n      tag_296\n        /* \"#utility.yul\":2904:2909   */\n      dup2\n        /* \"#utility.yul\":2877:2910   */\n      tag_226\n      jump\t// in\n    tag_296:\n        /* \"#utility.yul\":2777:2916   */\n      swap3\n      swap2\n      pop\n      pop\n      jump\t// out\n        /* \"#utility.yul\":2922:3039   */\n    tag_228:\n        /* \"#utility.yul\":3031:3032   */\n      0x00\n        /* \"#utility.yul\":3028:3029   */\n      dup1\n        /* \"#utility.yul\":3021:3033   */\n      revert\n        /* \"#utility.yul\":3045:3162   */\n    tag_229:\n        /* \"#utility.yul\":3154:3155   */\n      0x00\n        /* \"#utility.yul\":3151:3152   */\n      dup1\n        /* \"#utility.yul\":3144:3156   */\n      revert\n        /* \"#utility.yul\":3168:3348   */\n    tag_230:\n        /* \"#utility.yul\":3216:3293   */\n      0x4e487b7100000000000000000000000000000000000000000000000000000000\n        /* \"#utility.yul\":3213:3214   */\n      0x00\n        /* \"#utility.yul\":3206:3294   */\n      mstore\n        /* \"#utility.yul\":3313:3317   */\n      0x41\n        /* \"#utility.yul\":3310:3311   */\n      0x04\n        /* \"#utility.yul\":3303:3318   */\n      mstore\n        /* \"#utility.yul\":3337:3341   */\n      0x24\n        /* \"#utility.yul\":3334:3335   */\n      0x00\n        /* \"#utility.yul\":3327:3342   */\n      revert\n        /* \"#utility.yul\":3354:3635   */\n    tag_231:\n        /* \"#utility.yul\":3437:3464   */\n      tag_301\n        /* \"#utility.yul\":3459:3463   */\n      dup3\n        /* \"#utility.yul\":3437:3464   */\n      tag_223\n      jump\t// in\n    tag_301:\n        /* \"#utility.yul\":3429:3435   */\n      dup2\n        /* \"#utility.yul\":3425:3465   */\n      add\n        /* \"#utility.yul\":3567:3573   */\n      dup2\n        /* \"#utility.yul\":3555:3565   */\n      dup2\n        /* \"#utility.yul\":3552:3574   */\n      lt\n        /* \"#utility.yul\":3531:3549   */\n      0xffffffffffffffff\n        /* \"#utility.yul\":3519:3529   */\n      dup3\n        /* \"#utility.yul\":3516:3550   */\n      gt\n        /* \"#utility.yul\":3513:3575   */\n      or\n        /* \"#utility.yul\":3510:3598   */\n      iszero\n      tag_302\n      jumpi\n        /* \"#utility.yul\":3578:3596   */\n      tag_303\n      tag_230\n      jump\t// in\n    tag_303:\n        /* \"#utility.yul\":3510:3598   */\n    tag_302:\n        /* \"#utility.yul\":3618:3628   */\n      dup1\n        /* \"#utility.yul\":3614:3616   */\n      0x40\n        /* \"#utility.yul\":3607:3629   */\n      mstore\n        /* \"#utility.yul\":3397:3635   */\n      pop\n        /* \"#utility.yul\":3354:3635   */\n      pop\n      pop\n      jump\t// out\n        /* \"#utility.yul\":3641:3770   */\n    tag_232:\n        /* \"#utility.yul\":3675:3681   */\n      0x00\n        /* \"#utility.yul\":3702:3722   */\n      tag_305\n      tag_213\n      jump\t// in\n    tag_305:\n        /* \"#utility.yul\":3692:3722   */\n      swap1\n      pop\n        /* \"#utility.yul\":3731:3764   */\n      tag_306\n        /* \"#utility.yul\":3759:3763   */\n      dup3\n        /* \"#utility.yul\":3751:3757   */\n      dup3\n        /* \"#utility.yul\":3731:3764   */\n      tag_231\n      jump\t// in\n    tag_306:\n        /* \"#utility.yul\":3641:3770   */\n      swap2\n      swap1\n      pop\n      jump\t// out\n        /* \"#utility.yul\":3776:4084   */\n    tag_233:\n        /* \"#utility.yul\":3838:3842   */\n      0x00\n        /* \"#utility.yul\":3928:3946   */\n      0xffffffffffffffff\n        /* \"#utility.yul\":3920:3926   */\n      dup3\n        /* \"#utility.yul\":3917:3947   */\n      gt\n        /* \"#utility.yul\":3914:3970   */\n      iszero\n      tag_308\n      jumpi\n        /* \"#utility.yul\":3950:3968   */\n      tag_309\n      tag_230\n      jump\t// in\n    tag_309:\n        /* \"#utility.yul\":3914:3970   */\n    tag_308:\n        /* \"#utility.yul\":3988:4017   */\n      tag_310\n        /* \"#utility.yul\":4010:4016   */\n      dup3\n        /* \"#utility.yul\":3988:4017   */\n      tag_223\n      jump\t// in\n    tag_310:\n        /* \"#utility.yul\":3980:4017   */\n      swap1\n      pop\n        /* \"#utility.yul\":4072:4076   */\n      0x20\n        /* \"#utility.yul\":4066:4070   */\n      dup2\n        /* \"#utility.yul\":4062:4077   */\n      add\n        /* \"#utility.yul\":4054:4077   */\n      swap1\n      pop\n        /* \"#utility.yul\":3776:4084   */\n      swap2\n      swap1\n      pop\n      jump\t// out\n        /* \"#utility.yul\":4090:4244   */\n    tag_234:\n        /* \"#utility.yul\":4174:4180   */\n      dup3\n        /* \"#utility.yul\":4169:4172   */\n      dup2\n        /* \"#utility.yul\":4164:4167   */\n      dup4\n        /* \"#utility.yul\":4151:4181   */\n      calldatacopy\n        /* \"#utility.yul\":4236:4237   */\n      0x00\n        /* \"#utility.yul\":4227:4233   */\n      dup4\n        /* \"#utility.yul\":4222:4225   */\n      dup4\n        /* \"#utility.yul\":4218:4234   */\n      add\n        /* \"#utility.yul\":4211:4238   */\n      mstore\n        /* \"#utility.yul\":4090:4244   */\n      pop\n      pop\n      pop\n      jump\t// out\n        /* \"#utility.yul\":4250:4662   */\n    tag_235:\n        /* \"#utility.yul\":4328:4333   */\n      0x00\n        /* \"#utility.yul\":4353:4419   */\n      tag_313\n        /* \"#utility.yul\":4369:4418   */\n      tag_314\n        /* \"#utility.yul\":4411:4417   */\n      dup5\n        /* \"#utility.yul\":4369:4418   */\n      tag_233\n      jump\t// in\n    tag_314:\n        /* \"#utility.yul\":4353:4419   */\n      tag_232\n      jump\t// in\n    tag_313:\n        /* \"#utility.yul\":4344:4419   */\n      swap1\n      pop\n        /* \"#utility.yul\":4442:4448   */\n      dup3\n        /* \"#utility.yul\":4435:4440   */\n      dup2\n        /* \"#utility.yul\":4428:4449   */\n      mstore\n        /* \"#utility.yul\":4480:4484   */\n      0x20\n        /* \"#utility.yul\":4473:4478   */\n      dup2\n        /* \"#utility.yul\":4469:4485   */\n      add\n        /* \"#utility.yul\":4518:4521   */\n      dup5\n        /* \"#utility.yul\":4509:4515   */\n      dup5\n        /* \"#utility.yul\":4504:4507   */\n      dup5\n        /* \"#utility.yul\":4500:4516   */\n      add\n        /* \"#utility.yul\":4497:4522   */\n      gt\n        /* \"#utility.yul\":4494:4606   */\n      iszero\n      tag_315\n      jumpi\n        /* \"#utility.yul\":4525:4604   */\n      tag_316\n      tag_229\n      jump\t// in\n    tag_316:\n        /* \"#utility.yul\":4494:4606   */\n    tag_315:\n        /* \"#utility.yul\":4615:4656   */\n      tag_317\n        /* \"#utility.yul\":4649:4655   */\n      dup5\n        /* \"#utility.yul\":4644:4647   */\n      dup3\n        /* \"#utility.yul\":4639:4642   */\n      dup6\n        /* \"#utility.yul\":4615:4656   */\n      tag_234\n      jump\t// in\n    tag_317:\n        /* \"#utility.yul\":4334:4662   */\n      pop\n        /* \"#utility.yul\":4250:4662   */\n      swap4\n      swap3\n      pop\n      pop\n      pop\n      jump\t// out\n        /* \"#utility.yul\":4682:5022   */\n    tag_236:\n        /* \"#utility.yul\":4738:4743   */\n      0x00\n        /* \"#utility.yul\":4787:4790   */\n      dup3\n        /* \"#utility.yul\":4780:4784   */\n      0x1f\n        /* \"#utility.yul\":4772:4778   */\n      dup4\n        /* \"#utility.yul\":4768:4785   */\n      add\n        /* \"#utility.yul\":4764:4791   */\n      slt\n        /* \"#utility.yul\":4754:4876   */\n      tag_319\n      jumpi\n        /* \"#utility.yul\":4795:4874   */\n      tag_320\n      tag_228\n      jump\t// in\n    tag_320:\n        /* \"#utility.yul\":4754:4876   */\n    tag_319:\n        /* \"#utility.yul\":4912:4918   */\n      dup2\n        /* \"#utility.yul\":4899:4919   */\n      calldataload\n        /* \"#utility.yul\":4937:5016   */\n      tag_321\n        /* \"#utility.yul\":5012:5015   */\n      dup5\n        /* \"#utility.yul\":5004:5010   */\n      dup3\n        /* \"#utility.yul\":4997:5001   */\n      0x20\n        /* \"#utility.yul\":4989:4995   */\n      dup7\n        /* \"#utility.yul\":4985:5002   */\n      add\n        /* \"#utility.yul\":4937:5016   */\n      tag_235\n      jump\t// in\n    tag_321:\n        /* \"#utility.yul\":4928:5016   */\n      swap2\n      pop\n        /* \"#utility.yul\":4744:5022   */\n      pop\n        /* \"#utility.yul\":4682:5022   */\n      swap3\n      swap2\n      pop\n      pop\n      jump\t// out\n        /* \"#utility.yul\":5028:5682   */\n    tag_33:\n        /* \"#utility.yul\":5106:5112   */\n      0x00\n        /* \"#utility.yul\":5114:5120   */\n      dup1\n        /* \"#utility.yul\":5163:5165   */\n      0x40\n        /* \"#utility.yul\":5151:5160   */\n      dup4\n        /* \"#utility.yul\":5142:5149   */\n      dup6\n        /* \"#utility.yul\":5138:5161   */\n      sub\n        /* \"#utility.yul\":5134:5166   */\n      slt\n        /* \"#utility.yul\":5131:5250   */\n      iszero\n      tag_323\n      jumpi\n        /* \"#utility.yul\":5169:5248   */\n      tag_324\n      tag_214\n      jump\t// in\n    tag_324:\n        /* \"#utility.yul\":5131:5250   */\n    tag_323:\n        /* \"#utility.yul\":5289:5290   */\n      0x00\n        /* \"#utility.yul\":5314:5367   */\n      tag_325\n        /* \"#utility.yul\":5359:5366   */\n      dup6\n        /* \"#utility.yul\":5350:5356   */\n      dup3\n        /* \"#utility.yul\":5339:5348   */\n      dup7\n        /* \"#utility.yul\":5335:5357   */\n      add\n        /* \"#utility.yul\":5314:5367   */\n      tag_227\n      jump\t// in\n    tag_325:\n        /* \"#utility.yul\":5304:5367   */\n      swap3\n      pop\n        /* \"#utility.yul\":5260:5377   */\n      pop\n        /* \"#utility.yul\":5444:5446   */\n      0x20\n        /* \"#utility.yul\":5433:5442   */\n      dup4\n        /* \"#utility.yul\":5429:5447   */\n      add\n        /* \"#utility.yul\":5416:5448   */\n      calldataload\n        /* \"#utility.yul\":5475:5493   */\n      0xffffffffffffffff\n        /* \"#utility.yul\":5467:5473   */\n      dup2\n        /* \"#utility.yul\":5464:5494   */\n      gt\n        /* \"#utility.yul\":5461:5578   */\n      iszero\n      tag_326\n      jumpi\n        /* \"#utility.yul\":5497:5576   */\n      tag_327\n      tag_215\n      jump\t// in\n    tag_327:\n        /* \"#utility.yul\":5461:5578   */\n    tag_326:\n        /* \"#utility.yul\":5602:5665   */\n      tag_328\n        /* \"#utility.yul\":5657:5664   */\n      dup6\n        /* \"#utility.yul\":5648:5654   */\n      dup3\n        /* \"#utility.yul\":5637:5646   */\n      dup7\n        /* \"#utility.yul\":5633:5655   */\n      add\n        /* \"#utility.yul\":5602:5665   */\n      tag_236\n      jump\t// in\n    tag_328:\n        /* \"#utility.yul\":5592:5665   */\n      swap2\n      pop\n        /* \"#utility.yul\":5387:5675   */\n      pop\n        /* \"#utility.yul\":5028:5682   */\n      swap3\n      pop\n      swap3\n      swap1\n      pop\n      jump\t// out\n        /* \"#utility.yul\":5688:5806   */\n    tag_237:\n        /* \"#utility.yul\":5775:5799   */\n      tag_330\n        /* \"#utility.yul\":5793:5798   */\n      dup2\n        /* \"#utility.yul\":5775:5799   */\n      tag_225\n      jump\t// in\n    tag_330:\n        /* \"#utility.yul\":5770:5773   */\n      dup3\n        /* \"#utility.yul\":5763:5800   */\n      mstore\n        /* \"#utility.yul\":5688:5806   */\n      pop\n      pop\n      jump\t// out\n        /* \"#utility.yul\":5812:6034   */\n    tag_38:\n        /* \"#utility.yul\":5905:5909   */\n      0x00\n        /* \"#utility.yul\":5943:5945   */\n      0x20\n        /* \"#utility.yul\":5932:5941   */\n      dup3\n        /* \"#utility.yul\":5928:5946   */\n      add\n        /* \"#utility.yul\":5920:5946   */\n      swap1\n      pop\n        /* \"#utility.yul\":5956:6027   */\n      tag_332\n        /* \"#utility.yul\":6024:6025   */\n      0x00\n        /* \"#utility.yul\":6013:6022   */\n      dup4\n        /* \"#utility.yul\":6009:6026   */\n      add\n        /* \"#utility.yul\":6000:6006   */\n      dup5\n        /* \"#utility.yul\":5956:6027   */\n      tag_237\n      jump\t// in\n    tag_332:\n        /* \"#utility.yul\":5812:6034   */\n      swap3\n      swap2\n      pop\n      pop\n      jump\t// out\n        /* \"#utility.yul\":6040:6185   */\n    tag_238:\n        /* \"#utility.yul\":6138:6144   */\n      0x00\n        /* \"#utility.yul\":6172:6177   */\n      dup2\n        /* \"#utility.yul\":6166:6178   */\n      mload\n        /* \"#utility.yul\":6156:6178   */\n      swap1\n      pop\n        /* \"#utility.yul\":6040:6185   */\n      swap2\n      swap1\n      pop\n      jump\t// out\n        /* \"#utility.yul\":6191:6406   */\n    tag_239:\n        /* \"#utility.yul\":6321:6332   */\n      0x00\n        /* \"#utility.yul\":6355:6361   */\n      dup3\n        /* \"#utility.yul\":6350:6353   */\n      dup3\n        /* \"#utility.yul\":6343:6362   */\n      mstore\n        /* \"#utility.yul\":6395:6399   */\n      0x20\n        /* \"#utility.yul\":6390:6393   */\n      dup3\n        /* \"#utility.yul\":6386:6400   */\n      add\n        /* \"#utility.yul\":6371:6400   */\n      swap1\n      pop\n        /* \"#utility.yul\":6191:6406   */\n      swap3\n      swap2\n      pop\n      pop\n      jump\t// out\n        /* \"#utility.yul\":6412:6575   */\n    tag_240:\n        /* \"#utility.yul\":6510:6514   */\n      0x00\n        /* \"#utility.yul\":6533:6536   */\n      dup2\n        /* \"#utility.yul\":6525:6536   */\n      swap1\n      pop\n        /* \"#utility.yul\":6563:6567   */\n      0x20\n        /* \"#utility.yul\":6558:6561   */\n      dup3\n        /* \"#utility.yul\":6554:6568   */\n      add\n        /* \"#utility.yul\":6546:6568   */\n      swap1\n      pop\n        /* \"#utility.yul\":6412:6575   */\n      swap2\n      swap1\n      pop\n      jump\t// out\n        /* \"#utility.yul\":6581:6689   */\n    tag_241:\n        /* \"#utility.yul\":6658:6682   */\n      tag_337\n        /* \"#utility.yul\":6676:6681   */\n      dup2\n        /* \"#utility.yul\":6658:6682   */\n      tag_225\n      jump\t// in\n    tag_337:\n        /* \"#utility.yul\":6653:6656   */\n      dup3\n        /* \"#utility.yul\":6646:6683   */\n      mstore\n        /* \"#utility.yul\":6581:6689   */\n      pop\n      pop\n      jump\t// out\n        /* \"#utility.yul\":6695:6803   */\n    tag_242:\n        /* \"#utility.yul\":6772:6796   */\n      tag_339\n        /* \"#utility.yul\":6790:6795   */\n      dup2\n        /* \"#utility.yul\":6772:6796   */\n      tag_217\n      jump\t// in\n    tag_339:\n        /* \"#utility.yul\":6767:6770   */\n      dup3\n        /* \"#utility.yul\":6760:6797   */\n      mstore\n        /* \"#utility.yul\":6695:6803   */\n      pop\n      pop\n      jump\t// out\n        /* \"#utility.yul\":6809:6968   */\n    tag_243:\n        /* \"#utility.yul\":6883:6894   */\n      0x00\n        /* \"#utility.yul\":6917:6923   */\n      dup3\n        /* \"#utility.yul\":6912:6915   */\n      dup3\n        /* \"#utility.yul\":6905:6924   */\n      mstore\n        /* \"#utility.yul\":6957:6961   */\n      0x20\n        /* \"#utility.yul\":6952:6955   */\n      dup3\n        /* \"#utility.yul\":6948:6962   */\n      add\n        /* \"#utility.yul\":6933:6962   */\n      swap1\n      pop\n        /* \"#utility.yul\":6809:6968   */\n      swap3\n      swap2\n      pop\n      pop\n      jump\t// out\n        /* \"#utility.yul\":6974:7318   */\n    tag_244:\n        /* \"#utility.yul\":7052:7055   */\n      0x00\n        /* \"#utility.yul\":7080:7119   */\n      tag_342\n        /* \"#utility.yul\":7113:7118   */\n      dup3\n        /* \"#utility.yul\":7080:7119   */\n      tag_220\n      jump\t// in\n    tag_342:\n        /* \"#utility.yul\":7135:7196   */\n      tag_343\n        /* \"#utility.yul\":7189:7195   */\n      dup2\n        /* \"#utility.yul\":7184:7187   */\n      dup6\n        /* \"#utility.yul\":7135:7196   */\n      tag_243\n      jump\t// in\n    tag_343:\n        /* \"#utility.yul\":7128:7196   */\n      swap4\n      pop\n        /* \"#utility.yul\":7205:7257   */\n      tag_344\n        /* \"#utility.yul\":7250:7256   */\n      dup2\n        /* \"#utility.yul\":7245:7248   */\n      dup6\n        /* \"#utility.yul\":7238:7242   */\n      0x20\n        /* \"#utility.yul\":7231:7236   */\n      dup7\n        /* \"#utility.yul\":7227:7243   */\n      add\n        /* \"#utility.yul\":7205:7257   */\n      tag_222\n      jump\t// in\n    tag_344:\n        /* \"#utility.yul\":7282:7311   */\n      tag_345\n        /* \"#utility.yul\":7304:7310   */\n      dup2\n        /* \"#utility.yul\":7282:7311   */\n      tag_223\n      jump\t// in\n    tag_345:\n        /* \"#utility.yul\":7277:7280   */\n      dup5\n        /* \"#utility.yul\":7273:7312   */\n      add\n        /* \"#utility.yul\":7266:7312   */\n      swap2\n      pop\n        /* \"#utility.yul\":7056:7318   */\n      pop\n        /* \"#utility.yul\":6974:7318   */\n      swap3\n      swap2\n      pop\n      pop\n      jump\t// out\n        /* \"#utility.yul\":7390:8182   */\n    tag_245:\n        /* \"#utility.yul\":7511:7514   */\n      0x00\n        /* \"#utility.yul\":7547:7551   */\n      0x60\n        /* \"#utility.yul\":7542:7545   */\n      dup4\n        /* \"#utility.yul\":7538:7552   */\n      add\n        /* \"#utility.yul\":7633:7637   */\n      0x00\n        /* \"#utility.yul\":7626:7631   */\n      dup4\n        /* \"#utility.yul\":7622:7638   */\n      add\n        /* \"#utility.yul\":7616:7639   */\n      mload\n        /* \"#utility.yul\":7652:7715   */\n      tag_347\n        /* \"#utility.yul\":7709:7713   */\n      0x00\n        /* \"#utility.yul\":7704:7707   */\n      dup7\n        /* \"#utility.yul\":7700:7714   */\n      add\n        /* \"#utility.yul\":7686:7698   */\n      dup3\n        /* \"#utility.yul\":7652:7715   */\n      tag_241\n      jump\t// in\n    tag_347:\n        /* \"#utility.yul\":7562:7725   */\n      pop\n        /* \"#utility.yul\":7817:7821   */\n      0x20\n        /* \"#utility.yul\":7810:7815   */\n      dup4\n        /* \"#utility.yul\":7806:7822   */\n      add\n        /* \"#utility.yul\":7800:7823   */\n      mload\n        /* \"#utility.yul\":7836:7899   */\n      tag_348\n        /* \"#utility.yul\":7893:7897   */\n      0x20\n        /* \"#utility.yul\":7888:7891   */\n      dup7\n        /* \"#utility.yul\":7884:7898   */\n      add\n        /* \"#utility.yul\":7870:7882   */\n      dup3\n        /* \"#utility.yul\":7836:7899   */\n      tag_242\n      jump\t// in\n    tag_348:\n        /* \"#utility.yul\":7735:7909   */\n      pop\n        /* \"#utility.yul\":7992:7996   */\n      0x40\n        /* \"#utility.yul\":7985:7990   */\n      dup4\n        /* \"#utility.yul\":7981:7997   */\n      add\n        /* \"#utility.yul\":7975:7998   */\n      mload\n        /* \"#utility.yul\":8045:8048   */\n      dup5\n        /* \"#utility.yul\":8039:8043   */\n      dup3\n        /* \"#utility.yul\":8035:8049   */\n      sub\n        /* \"#utility.yul\":8028:8032   */\n      0x40\n        /* \"#utility.yul\":8023:8026   */\n      dup7\n        /* \"#utility.yul\":8019:8033   */\n      add\n        /* \"#utility.yul\":8012:8050   */\n      mstore\n        /* \"#utility.yul\":8071:8144   */\n      tag_349\n        /* \"#utility.yul\":8139:8143   */\n      dup3\n        /* \"#utility.yul\":8125:8137   */\n      dup3\n        /* \"#utility.yul\":8071:8144   */\n      tag_244\n      jump\t// in\n    tag_349:\n        /* \"#utility.yul\":8063:8144   */\n      swap2\n      pop\n        /* \"#utility.yul\":7919:8155   */\n      pop\n        /* \"#utility.yul\":8172:8176   */\n      dup1\n        /* \"#utility.yul\":8165:8176   */\n      swap2\n      pop\n        /* \"#utility.yul\":7516:8182   */\n      pop\n        /* \"#utility.yul\":7390:8182   */\n      swap3\n      swap2\n      pop\n      pop\n      jump\t// out\n        /* \"#utility.yul\":8188:8468   */\n    tag_246:\n        /* \"#utility.yul\":8319:8329   */\n      0x00\n        /* \"#utility.yul\":8354:8462   */\n      tag_351\n        /* \"#utility.yul\":8458:8461   */\n      dup4\n        /* \"#utility.yul\":8450:8456   */\n      dup4\n        /* \"#utility.yul\":8354:8462   */\n      tag_245\n      jump\t// in\n    tag_351:\n        /* \"#utility.yul\":8340:8462   */\n      swap1\n      pop\n        /* \"#utility.yul\":8188:8468   */\n      swap3\n      swap2\n      pop\n      pop\n      jump\t// out\n        /* \"#utility.yul\":8474:8618   */\n    tag_247:\n        /* \"#utility.yul\":8575:8579   */\n      0x00\n        /* \"#utility.yul\":8607:8611   */\n      0x20\n        /* \"#utility.yul\":8602:8605   */\n      dup3\n        /* \"#utility.yul\":8598:8612   */\n      add\n        /* \"#utility.yul\":8590:8612   */\n      swap1\n      pop\n        /* \"#utility.yul\":8474:8618   */\n      swap2\n      swap1\n      pop\n      jump\t// out\n        /* \"#utility.yul\":8694:9853   */\n    tag_248:\n        /* \"#utility.yul\":8875:8878   */\n      0x00\n        /* \"#utility.yul\":8904:8989   */\n      tag_354\n        /* \"#utility.yul\":8983:8988   */\n      dup3\n        /* \"#utility.yul\":8904:8989   */\n      tag_238\n      jump\t// in\n    tag_354:\n        /* \"#utility.yul\":9005:9122   */\n      tag_355\n        /* \"#utility.yul\":9115:9121   */\n      dup2\n        /* \"#utility.yul\":9110:9113   */\n      dup6\n        /* \"#utility.yul\":9005:9122   */\n      tag_239\n      jump\t// in\n    tag_355:\n        /* \"#utility.yul\":8998:9122   */\n      swap4\n      pop\n        /* \"#utility.yul\":9148:9151   */\n      dup4\n        /* \"#utility.yul\":9193:9197   */\n      0x20\n        /* \"#utility.yul\":9185:9191   */\n      dup3\n        /* \"#utility.yul\":9181:9198   */\n      mul\n        /* \"#utility.yul\":9176:9179   */\n      dup6\n        /* \"#utility.yul\":9172:9199   */\n      add\n        /* \"#utility.yul\":9223:9310   */\n      tag_356\n        /* \"#utility.yul\":9304:9309   */\n      dup6\n        /* \"#utility.yul\":9223:9310   */\n      tag_240\n      jump\t// in\n    tag_356:\n        /* \"#utility.yul\":9333:9340   */\n      dup1\n        /* \"#utility.yul\":9364:9365   */\n      0x00\n        /* \"#utility.yul\":9349:9808   */\n    tag_357:\n        /* \"#utility.yul\":9374:9380   */\n      dup6\n        /* \"#utility.yul\":9371:9372   */\n      dup2\n        /* \"#utility.yul\":9368:9381   */\n      lt\n        /* \"#utility.yul\":9349:9808   */\n      iszero\n      tag_359\n      jumpi\n        /* \"#utility.yul\":9445:9454   */\n      dup5\n        /* \"#utility.yul\":9439:9443   */\n      dup5\n        /* \"#utility.yul\":9435:9455   */\n      sub\n        /* \"#utility.yul\":9430:9433   */\n      dup10\n        /* \"#utility.yul\":9423:9456   */\n      mstore\n        /* \"#utility.yul\":9496:9502   */\n      dup2\n        /* \"#utility.yul\":9490:9503   */\n      mload\n        /* \"#utility.yul\":9524:9650   */\n      tag_360\n        /* \"#utility.yul\":9645:9649   */\n      dup6\n        /* \"#utility.yul\":9630:9643   */\n      dup3\n        /* \"#utility.yul\":9524:9650   */\n      tag_246\n      jump\t// in\n    tag_360:\n        /* \"#utility.yul\":9516:9650   */\n      swap5\n      pop\n        /* \"#utility.yul\":9673:9764   */\n      tag_361\n        /* \"#utility.yul\":9757:9763   */\n      dup4\n        /* \"#utility.yul\":9673:9764   */\n      tag_247\n      jump\t// in\n    tag_361:\n        /* \"#utility.yul\":9663:9764   */\n      swap3\n      pop\n        /* \"#utility.yul\":9793:9797   */\n      0x20\n        /* \"#utility.yul\":9788:9791   */\n      dup11\n        /* \"#utility.yul\":9784:9798   */\n      add\n        /* \"#utility.yul\":9777:9798   */\n      swap10\n      pop\n        /* \"#utility.yul\":9409:9808   */\n      pop\n        /* \"#utility.yul\":9396:9397   */\n      0x01\n        /* \"#utility.yul\":9393:9394   */\n      dup2\n        /* \"#utility.yul\":9389:9398   */\n      add\n        /* \"#utility.yul\":9384:9398   */\n      swap1\n      pop\n        /* \"#utility.yul\":9349:9808   */\n      jump(tag_357)\n    tag_359:\n        /* \"#utility.yul\":9353:9367   */\n      pop\n        /* \"#utility.yul\":9824:9828   */\n      dup3\n        /* \"#utility.yul\":9817:9828   */\n      swap8\n      pop\n        /* \"#utility.yul\":9844:9847   */\n      dup8\n        /* \"#utility.yul\":9837:9847   */\n      swap6\n      pop\n        /* \"#utility.yul\":8880:9853   */\n      pop\n      pop\n      pop\n      pop\n      pop\n        /* \"#utility.yul\":8694:9853   */\n      swap3\n      swap2\n      pop\n      pop\n      jump\t// out\n        /* \"#utility.yul\":9859:10356   */\n    tag_42:\n        /* \"#utility.yul\":10064:10068   */\n      0x00\n        /* \"#utility.yul\":10102:10104   */\n      0x20\n        /* \"#utility.yul\":10091:10100   */\n      dup3\n        /* \"#utility.yul\":10087:10105   */\n      add\n        /* \"#utility.yul\":10079:10105   */\n      swap1\n      pop\n        /* \"#utility.yul\":10151:10160   */\n      dup2\n        /* \"#utility.yul\":10145:10149   */\n      dup2\n        /* \"#utility.yul\":10141:10161   */\n      sub\n        /* \"#utility.yul\":10137:10138   */\n      0x00\n        /* \"#utility.yul\":10126:10135   */\n      dup4\n        /* \"#utility.yul\":10122:10139   */\n      add\n        /* \"#utility.yul\":10115:10162   */\n      mstore\n        /* \"#utility.yul\":10179:10349   */\n      tag_363\n        /* \"#utility.yul\":10344:10348   */\n      dup2\n        /* \"#utility.yul\":10335:10341   */\n      dup5\n        /* \"#utility.yul\":10179:10349   */\n      tag_248\n      jump\t// in\n    tag_363:\n        /* \"#utility.yul\":10171:10349   */\n      swap1\n      pop\n        /* \"#utility.yul\":9859:10356   */\n      swap3\n      swap2\n      pop\n      pop\n      jump\t// out\n        /* \"#utility.yul\":10362:10476   */\n    tag_249:\n        /* \"#utility.yul\":10429:10435   */\n      0x00\n        /* \"#utility.yul\":10463:10468   */\n      dup2\n        /* \"#utility.yul\":10457:10469   */\n      mload\n        /* \"#utility.yul\":10447:10469   */\n      swap1\n      pop\n        /* \"#utility.yul\":10362:10476   */\n      swap2\n      swap1\n      pop\n      jump\t// out\n        /* \"#utility.yul\":10482:10666   */\n    tag_250:\n        /* \"#utility.yul\":10581:10592   */\n      0x00\n        /* \"#utility.yul\":10615:10621   */\n      dup3\n        /* \"#utility.yul\":10610:10613   */\n      dup3\n        /* \"#utility.yul\":10603:10622   */\n      mstore\n        /* \"#utility.yul\":10655:10659   */\n      0x20\n        /* \"#utility.yul\":10650:10653   */\n      dup3\n        /* \"#utility.yul\":10646:10660   */\n      add\n        /* \"#utility.yul\":10631:10660   */\n      swap1\n      pop\n        /* \"#utility.yul\":10482:10666   */\n      swap3\n      swap2\n      pop\n      pop\n      jump\t// out\n        /* \"#utility.yul\":10672:10804   */\n    tag_251:\n        /* \"#utility.yul\":10739:10743   */\n      0x00\n        /* \"#utility.yul\":10762:10765   */\n      dup2\n        /* \"#utility.yul\":10754:10765   */\n      swap1\n      pop\n        /* \"#utility.yul\":10792:10796   */\n      0x20\n        /* \"#utility.yul\":10787:10790   */\n      dup3\n        /* \"#utility.yul\":10783:10797   */\n      add\n        /* \"#utility.yul\":10775:10797   */\n      swap1\n      pop\n        /* \"#utility.yul\":10672:10804   */\n      swap2\n      swap1\n      pop\n      jump\t// out\n        /* \"#utility.yul\":10810:10989   */\n    tag_252:\n        /* \"#utility.yul\":10879:10889   */\n      0x00\n        /* \"#utility.yul\":10900:10946   */\n      tag_368\n        /* \"#utility.yul\":10942:10945   */\n      dup4\n        /* \"#utility.yul\":10934:10940   */\n      dup4\n        /* \"#utility.yul\":10900:10946   */\n      tag_242\n      jump\t// in\n    tag_368:\n        /* \"#utility.yul\":10978:10982   */\n      0x20\n        /* \"#utility.yul\":10973:10976   */\n      dup4\n        /* \"#utility.yul\":10969:10983   */\n      add\n        /* \"#utility.yul\":10955:10983   */\n      swap1\n      pop\n        /* \"#utility.yul\":10810:10989   */\n      swap3\n      swap2\n      pop\n      pop\n      jump\t// out\n        /* \"#utility.yul\":10995:11108   */\n    tag_253:\n        /* \"#utility.yul\":11065:11069   */\n      0x00\n        /* \"#utility.yul\":11097:11101   */\n      0x20\n        /* \"#utility.yul\":11092:11095   */\n      dup3\n        /* \"#utility.yul\":11088:11102   */\n      add\n        /* \"#utility.yul\":11080:11102   */\n      swap1\n      pop\n        /* \"#utility.yul\":10995:11108   */\n      swap2\n      swap1\n      pop\n      jump\t// out\n        /* \"#utility.yul\":11144:11876   */\n    tag_254:\n        /* \"#utility.yul\":11263:11266   */\n      0x00\n        /* \"#utility.yul\":11292:11346   */\n      tag_371\n        /* \"#utility.yul\":11340:11345   */\n      dup3\n        /* \"#utility.yul\":11292:11346   */\n      tag_249\n      jump\t// in\n    tag_371:\n        /* \"#utility.yul\":11362:11448   */\n      tag_372\n        /* \"#utility.yul\":11441:11447   */\n      dup2\n        /* \"#utility.yul\":11436:11439   */\n      dup6\n        /* \"#utility.yul\":11362:11448   */\n      tag_250\n      jump\t// in\n    tag_372:\n        /* \"#utility.yul\":11355:11448   */\n      swap4\n      pop\n        /* \"#utility.yul\":11472:11528   */\n      tag_373\n        /* \"#utility.yul\":11522:11527   */\n      dup4\n        /* \"#utility.yul\":11472:11528   */\n      tag_251\n      jump\t// in\n    tag_373:\n        /* \"#utility.yul\":11551:11558   */\n      dup1\n        /* \"#utility.yul\":11582:11583   */\n      0x00\n        /* \"#utility.yul\":11567:11851   */\n    tag_374:\n        /* \"#utility.yul\":11592:11598   */\n      dup4\n        /* \"#utility.yul\":11589:11590   */\n      dup2\n        /* \"#utility.yul\":11586:11599   */\n      lt\n        /* \"#utility.yul\":11567:11851   */\n      iszero\n      tag_376\n      jumpi\n        /* \"#utility.yul\":11668:11674   */\n      dup2\n        /* \"#utility.yul\":11662:11675   */\n      mload\n        /* \"#utility.yul\":11695:11758   */\n      tag_377\n        /* \"#utility.yul\":11754:11757   */\n      dup9\n        /* \"#utility.yul\":11739:11752   */\n      dup3\n        /* \"#utility.yul\":11695:11758   */\n      tag_252\n      jump\t// in\n    tag_377:\n        /* \"#utility.yul\":11688:11758   */\n      swap8\n      pop\n        /* \"#utility.yul\":11781:11841   */\n      tag_378\n        /* \"#utility.yul\":11834:11840   */\n      dup4\n        /* \"#utility.yul\":11781:11841   */\n      tag_253\n      jump\t// in\n    tag_378:\n        /* \"#utility.yul\":11771:11841   */\n      swap3\n      pop\n        /* \"#utility.yul\":11627:11851   */\n      pop\n        /* \"#utility.yul\":11614:11615   */\n      0x01\n        /* \"#utility.yul\":11611:11612   */\n      dup2\n        /* \"#utility.yul\":11607:11616   */\n      add\n        /* \"#utility.yul\":11602:11616   */\n      swap1\n      pop\n        /* \"#utility.yul\":11567:11851   */\n      jump(tag_374)\n    tag_376:\n        /* \"#utility.yul\":11571:11585   */\n      pop\n        /* \"#utility.yul\":11867:11870   */\n      dup6\n        /* \"#utility.yul\":11860:11870   */\n      swap4\n      pop\n        /* \"#utility.yul\":11268:11876   */\n      pop\n      pop\n      pop\n        /* \"#utility.yul\":11144:11876   */\n      swap3\n      swap2\n      pop\n      pop\n      jump\t// out\n        /* \"#utility.yul\":11882:12255   */\n    tag_50:\n        /* \"#utility.yul\":12025:12029   */\n      0x00\n        /* \"#utility.yul\":12063:12065   */\n      0x20\n        /* \"#utility.yul\":12052:12061   */\n      dup3\n        /* \"#utility.yul\":12048:12066   */\n      add\n        /* \"#utility.yul\":12040:12066   */\n      swap1\n      pop\n        /* \"#utility.yul\":12112:12121   */\n      dup2\n        /* \"#utility.yul\":12106:12110   */\n      dup2\n        /* \"#utility.yul\":12102:12122   */\n      sub\n        /* \"#utility.yul\":12098:12099   */\n      0x00\n        /* \"#utility.yul\":12087:12096   */\n      dup4\n        /* \"#utility.yul\":12083:12100   */\n      add\n        /* \"#utility.yul\":12076:12123   */\n      mstore\n        /* \"#utility.yul\":12140:12248   */\n      tag_380\n        /* \"#utility.yul\":12243:12247   */\n      dup2\n        /* \"#utility.yul\":12234:12240   */\n      dup5\n        /* \"#utility.yul\":12140:12248   */\n      tag_254\n      jump\t// in\n    tag_380:\n        /* \"#utility.yul\":12132:12248   */\n      swap1\n      pop\n        /* \"#utility.yul\":11882:12255   */\n      swap3\n      swap2\n      pop\n      pop\n      jump\t// out\n        /* \"#utility.yul\":12261:12590   */\n    tag_55:\n        /* \"#utility.yul\":12320:12326   */\n      0x00\n        /* \"#utility.yul\":12369:12371   */\n      0x20\n        /* \"#utility.yul\":12357:12366   */\n      dup3\n        /* \"#utility.yul\":12348:12355   */\n      dup5\n        /* \"#utility.yul\":12344:12367   */\n      sub\n        /* \"#utility.yul\":12340:12372   */\n      slt\n        /* \"#utility.yul\":12337:12456   */\n      iszero\n      tag_382\n      jumpi\n        /* \"#utility.yul\":12375:12454   */\n      tag_383\n      tag_214\n      jump\t// in\n    tag_383:\n        /* \"#utility.yul\":12337:12456   */\n    tag_382:\n        /* \"#utility.yul\":12495:12496   */\n      0x00\n        /* \"#utility.yul\":12520:12573   */\n      tag_384\n        /* \"#utility.yul\":12565:12572   */\n      dup5\n        /* \"#utility.yul\":12556:12562   */\n      dup3\n        /* \"#utility.yul\":12545:12554   */\n      dup6\n        /* \"#utility.yul\":12541:12563   */\n      add\n        /* \"#utility.yul\":12520:12573   */\n      tag_227\n      jump\t// in\n    tag_384:\n        /* \"#utility.yul\":12510:12573   */\n      swap2\n      pop\n        /* \"#utility.yul\":12466:12583   */\n      pop\n        /* \"#utility.yul\":12261:12590   */\n      swap3\n      swap2\n      pop\n      pop\n      jump\t// out\n        /* \"#utility.yul\":12596:12714   */\n    tag_255:\n        /* \"#utility.yul\":12683:12707   */\n      tag_386\n        /* \"#utility.yul\":12701:12706   */\n      dup2\n        /* \"#utility.yul\":12683:12707   */\n      tag_217\n      jump\t// in\n    tag_386:\n        /* \"#utility.yul\":12678:12681   */\n      dup3\n        /* \"#utility.yul\":12671:12708   */\n      mstore\n        /* \"#utility.yul\":12596:12714   */\n      pop\n      pop\n      jump\t// out\n        /* \"#utility.yul\":12720:12942   */\n    tag_58:\n        /* \"#utility.yul\":12813:12817   */\n      0x00\n        /* \"#utility.yul\":12851:12853   */\n      0x20\n        /* \"#utility.yul\":12840:12849   */\n      dup3\n        /* \"#utility.yul\":12836:12854   */\n      add\n        /* \"#utility.yul\":12828:12854   */\n      swap1\n      pop\n        /* \"#utility.yul\":12864:12935   */\n      tag_388\n        /* \"#utility.yul\":12932:12933   */\n      0x00\n        /* \"#utility.yul\":12921:12930   */\n      dup4\n        /* \"#utility.yul\":12917:12934   */\n      add\n        /* \"#utility.yul\":12908:12914   */\n      dup5\n        /* \"#utility.yul\":12864:12935   */\n      tag_255\n      jump\t// in\n    tag_388:\n        /* \"#utility.yul\":12720:12942   */\n      swap3\n      swap2\n      pop\n      pop\n      jump\t// out\n        /* \"#utility.yul\":12948:13481   */\n    tag_69:\n        /* \"#utility.yul\":13117:13121   */\n      0x00\n        /* \"#utility.yul\":13155:13157   */\n      0x60\n        /* \"#utility.yul\":13144:13153   */\n      dup3\n        /* \"#utility.yul\":13140:13158   */\n      add\n        /* \"#utility.yul\":13132:13158   */\n      swap1\n      pop\n        /* \"#utility.yul\":13168:13239   */\n      tag_390\n        /* \"#utility.yul\":13236:13237   */\n      0x00\n        /* \"#utility.yul\":13225:13234   */\n      dup4\n        /* \"#utility.yul\":13221:13238   */\n      add\n        /* \"#utility.yul\":13212:13218   */\n      dup7\n        /* \"#utility.yul\":13168:13239   */\n      tag_237\n      jump\t// in\n    tag_390:\n        /* \"#utility.yul\":13249:13321   */\n      tag_391\n        /* \"#utility.yul\":13317:13319   */\n      0x20\n        /* \"#utility.yul\":13306:13315   */\n      dup4\n        /* \"#utility.yul\":13302:13320   */\n      add\n        /* \"#utility.yul\":13293:13299   */\n      dup6\n        /* \"#utility.yul\":13249:13321   */\n      tag_255\n      jump\t// in\n    tag_391:\n        /* \"#utility.yul\":13368:13377   */\n      dup2\n        /* \"#utility.yul\":13362:13366   */\n      dup2\n        /* \"#utility.yul\":13358:13378   */\n      sub\n        /* \"#utility.yul\":13353:13355   */\n      0x40\n        /* \"#utility.yul\":13342:13351   */\n      dup4\n        /* \"#utility.yul\":13338:13356   */\n      add\n        /* \"#utility.yul\":13331:13379   */\n      mstore\n        /* \"#utility.yul\":13396:13474   */\n      tag_392\n        /* \"#utility.yul\":13469:13473   */\n      dup2\n        /* \"#utility.yul\":13460:13466   */\n      dup5\n        /* \"#utility.yul\":13396:13474   */\n      tag_224\n      jump\t// in\n    tag_392:\n        /* \"#utility.yul\":13388:13474   */\n      swap1\n      pop\n        /* \"#utility.yul\":12948:13481   */\n      swap5\n      swap4\n      pop\n      pop\n      pop\n      pop\n      jump\t// out\n        /* \"#utility.yul\":13487:14020   */\n    tag_77:\n        /* \"#utility.yul\":13656:13660   */\n      0x00\n        /* \"#utility.yul\":13694:13696   */\n      0x60\n        /* \"#utility.yul\":13683:13692   */\n      dup3\n        /* \"#utility.yul\":13679:13697   */\n      add\n        /* \"#utility.yul\":13671:13697   */\n      swap1\n      pop\n        /* \"#utility.yul\":13707:13778   */\n      tag_394\n        /* \"#utility.yul\":13775:13776   */\n      0x00\n        /* \"#utility.yul\":13764:13773   */\n      dup4\n        /* \"#utility.yul\":13760:13777   */\n      add\n        /* \"#utility.yul\":13751:13757   */\n      dup7\n        /* \"#utility.yul\":13707:13778   */\n      tag_255\n      jump\t// in\n    tag_394:\n        /* \"#utility.yul\":13788:13860   */\n      tag_395\n        /* \"#utility.yul\":13856:13858   */\n      0x20\n        /* \"#utility.yul\":13845:13854   */\n      dup4\n        /* \"#utility.yul\":13841:13859   */\n      add\n        /* \"#utility.yul\":13832:13838   */\n      dup6\n        /* \"#utility.yul\":13788:13860   */\n      tag_237\n      jump\t// in\n    tag_395:\n        /* \"#utility.yul\":13907:13916   */\n      dup2\n        /* \"#utility.yul\":13901:13905   */\n      dup2\n        /* \"#utility.yul\":13897:13917   */\n      sub\n        /* \"#utility.yul\":13892:13894   */\n      0x40\n        /* \"#utility.yul\":13881:13890   */\n      dup4\n        /* \"#utility.yul\":13877:13895   */\n      add\n        /* \"#utility.yul\":13870:13918   */\n      mstore\n        /* \"#utility.yul\":13935:14013   */\n      tag_396\n        /* \"#utility.yul\":14008:14012   */\n      dup2\n        /* \"#utility.yul\":13999:14005   */\n      dup5\n        /* \"#utility.yul\":13935:14013   */\n      tag_224\n      jump\t// in\n    tag_396:\n        /* \"#utility.yul\":13927:14013   */\n      swap1\n      pop\n        /* \"#utility.yul\":13487:14020   */\n      swap5\n      swap4\n      pop\n      pop\n      pop\n      pop\n      jump\t// out\n        /* \"#utility.yul\":14026:14535   */\n    tag_80:\n        /* \"#utility.yul\":14095:14101   */\n      0x00\n        /* \"#utility.yul\":14144:14146   */\n      0x20\n        /* \"#utility.yul\":14132:14141   */\n      dup3\n        /* \"#utility.yul\":14123:14130   */\n      dup5\n        /* \"#utility.yul\":14119:14142   */\n      sub\n        /* \"#utility.yul\":14115:14147   */\n      slt\n        /* \"#utility.yul\":14112:14231   */\n      iszero\n      tag_398\n      jumpi\n        /* \"#utility.yul\":14150:14229   */\n      tag_399\n      tag_214\n      jump\t// in\n    tag_399:\n        /* \"#utility.yul\":14112:14231   */\n    tag_398:\n        /* \"#utility.yul\":14298:14299   */\n      0x00\n        /* \"#utility.yul\":14287:14296   */\n      dup3\n        /* \"#utility.yul\":14283:14300   */\n      add\n        /* \"#utility.yul\":14270:14301   */\n      calldataload\n        /* \"#utility.yul\":14328:14346   */\n      0xffffffffffffffff\n        /* \"#utility.yul\":14320:14326   */\n      dup2\n        /* \"#utility.yul\":14317:14347   */\n      gt\n        /* \"#utility.yul\":14314:14431   */\n      iszero\n      tag_400\n      jumpi\n        /* \"#utility.yul\":14350:14429   */\n      tag_401\n      tag_215\n      jump\t// in\n    tag_401:\n        /* \"#utility.yul\":14314:14431   */\n    tag_400:\n        /* \"#utility.yul\":14455:14518   */\n      tag_402\n        /* \"#utility.yul\":14510:14517   */\n      dup5\n        /* \"#utility.yul\":14501:14507   */\n      dup3\n        /* \"#utility.yul\":14490:14499   */\n      dup6\n        /* \"#utility.yul\":14486:14508   */\n      add\n        /* \"#utility.yul\":14455:14518   */\n      tag_236\n      jump\t// in\n    tag_402:\n        /* \"#utility.yul\":14445:14518   */\n      swap2\n      pop\n        /* \"#utility.yul\":14241:14528   */\n      pop\n        /* \"#utility.yul\":14026:14535   */\n      swap3\n      swap2\n      pop\n      pop\n      jump\t// out\n        /* \"#utility.yul\":14541:15340   */\n    tag_93:\n        /* \"#utility.yul\":14628:14634   */\n      0x00\n        /* \"#utility.yul\":14636:14642   */\n      dup1\n        /* \"#utility.yul\":14644:14650   */\n      0x00\n        /* \"#utility.yul\":14693:14695   */\n      0x60\n        /* \"#utility.yul\":14681:14690   */\n      dup5\n        /* \"#utility.yul\":14672:14679   */\n      dup7\n        /* \"#utility.yul\":14668:14691   */\n      sub\n        /* \"#utility.yul\":14664:14696   */\n      slt\n        /* \"#utility.yul\":14661:14780   */\n      iszero\n      tag_404\n      jumpi\n        /* \"#utility.yul\":14699:14778   */\n      tag_405\n      tag_214\n      jump\t// in\n    tag_405:\n        /* \"#utility.yul\":14661:14780   */\n    tag_404:\n        /* \"#utility.yul\":14847:14848   */\n      0x00\n        /* \"#utility.yul\":14836:14845   */\n      dup5\n        /* \"#utility.yul\":14832:14849   */\n      add\n        /* \"#utility.yul\":14819:14850   */\n      calldataload\n        /* \"#utility.yul\":14877:14895   */\n      0xffffffffffffffff\n        /* \"#utility.yul\":14869:14875   */\n      dup2\n        /* \"#utility.yul\":14866:14896   */\n      gt\n        /* \"#utility.yul\":14863:14980   */\n      iszero\n      tag_406\n      jumpi\n        /* \"#utility.yul\":14899:14978   */\n      tag_407\n      tag_215\n      jump\t// in\n    tag_407:\n        /* \"#utility.yul\":14863:14980   */\n    tag_406:\n        /* \"#utility.yul\":15004:15067   */\n      tag_408\n        /* \"#utility.yul\":15059:15066   */\n      dup7\n        /* \"#utility.yul\":15050:15056   */\n      dup3\n        /* \"#utility.yul\":15039:15048   */\n      dup8\n        /* \"#utility.yul\":15035:15057   */\n      add\n        /* \"#utility.yul\":15004:15067   */\n      tag_236\n      jump\t// in\n    tag_408:\n        /* \"#utility.yul\":14994:15067   */\n      swap4\n      pop\n        /* \"#utility.yul\":14790:15077   */\n      pop\n        /* \"#utility.yul\":15116:15118   */\n      0x20\n        /* \"#utility.yul\":15142:15195   */\n      tag_409\n        /* \"#utility.yul\":15187:15194   */\n      dup7\n        /* \"#utility.yul\":15178:15184   */\n      dup3\n        /* \"#utility.yul\":15167:15176   */\n      dup8\n        /* \"#utility.yul\":15163:15185   */\n      add\n        /* \"#utility.yul\":15142:15195   */\n      tag_227\n      jump\t// in\n    tag_409:\n        /* \"#utility.yul\":15132:15195   */\n      swap3\n      pop\n        /* \"#utility.yul\":15087:15205   */\n      pop\n        /* \"#utility.yul\":15244:15246   */\n      0x40\n        /* \"#utility.yul\":15270:15323   */\n      tag_410\n        /* \"#utility.yul\":15315:15322   */\n      dup7\n        /* \"#utility.yul\":15306:15312   */\n      dup3\n        /* \"#utility.yul\":15295:15304   */\n      dup8\n        /* \"#utility.yul\":15291:15313   */\n      add\n        /* \"#utility.yul\":15270:15323   */\n      tag_227\n      jump\t// in\n    tag_410:\n        /* \"#utility.yul\":15260:15323   */\n      swap2\n      pop\n        /* \"#utility.yul\":15215:15333   */\n      pop\n        /* \"#utility.yul\":14541:15340   */\n      swap3\n      pop\n      swap3\n      pop\n      swap3\n      jump\t// out\n        /* \"#utility.yul\":15346:15526   */\n    tag_256:\n        /* \"#utility.yul\":15394:15471   */\n      0x4e487b7100000000000000000000000000000000000000000000000000000000\n        /* \"#utility.yul\":15391:15392   */\n      0x00\n        /* \"#utility.yul\":15384:15472   */\n      mstore\n        /* \"#utility.yul\":15491:15495   */\n      0x22\n        /* \"#utility.yul\":15488:15489   */\n      0x04\n        /* \"#utility.yul\":15481:15496   */\n      mstore\n        /* \"#utility.yul\":15515:15519   */\n      0x24\n        /* \"#utility.yul\":15512:15513   */\n      0x00\n        /* \"#utility.yul\":15505:15520   */\n      revert\n        /* \"#utility.yul\":15532:15852   */\n    tag_99:\n        /* \"#utility.yul\":15576:15582   */\n      0x00\n        /* \"#utility.yul\":15613:15614   */\n      0x02\n        /* \"#utility.yul\":15607:15611   */\n      dup3\n        /* \"#utility.yul\":15603:15615   */\n      div\n        /* \"#utility.yul\":15593:15615   */\n      swap1\n      pop\n        /* \"#utility.yul\":15660:15661   */\n      0x01\n        /* \"#utility.yul\":15654:15658   */\n      dup3\n        /* \"#utility.yul\":15650:15662   */\n      and\n        /* \"#utility.yul\":15681:15699   */\n      dup1\n        /* \"#utility.yul\":15671:15752   */\n      tag_413\n      jumpi\n        /* \"#utility.yul\":15737:15741   */\n      0x7f\n        /* \"#utility.yul\":15729:15735   */\n      dup3\n        /* \"#utility.yul\":15725:15742   */\n      and\n        /* \"#utility.yul\":15715:15742   */\n      swap2\n      pop\n        /* \"#utility.yul\":15671:15752   */\n    tag_413:\n        /* \"#utility.yul\":15799:15801   */\n      0x20\n        /* \"#utility.yul\":15791:15797   */\n      dup3\n        /* \"#utility.yul\":15788:15802   */\n      lt\n        /* \"#utility.yul\":15768:15786   */\n      dup2\n        /* \"#utility.yul\":15765:15803   */\n      sub\n        /* \"#utility.yul\":15762:15846   */\n      tag_414\n      jumpi\n        /* \"#utility.yul\":15818:15836   */\n      tag_415\n      tag_256\n      jump\t// in\n    tag_415:\n        /* \"#utility.yul\":15762:15846   */\n    tag_414:\n        /* \"#utility.yul\":15583:15852   */\n      pop\n        /* \"#utility.yul\":15532:15852   */\n      swap2\n      swap1\n      pop\n      jump\t// out\n        /* \"#utility.yul\":15858:16038   */\n    tag_131:\n        /* \"#utility.yul\":15906:15983   */\n      0x4e487b7100000000000000000000000000000000000000000000000000000000\n        /* \"#utility.yul\":15903:15904   */\n      0x00\n        /* \"#utility.yul\":15896:15984   */\n      mstore\n        /* \"#utility.yul\":16003:16007   */\n      0x32\n        /* \"#utility.yul\":16000:16001   */\n      0x04\n        /* \"#utility.yul\":15993:16008   */\n      mstore\n        /* \"#utility.yul\":16027:16031   */\n      0x24\n        /* \"#utility.yul\":16024:16025   */\n      0x00\n        /* \"#utility.yul\":16017:16032   */\n      revert\n        /* \"#utility.yul\":16044:16224   */\n    tag_257:\n        /* \"#utility.yul\":16092:16169   */\n      0x4e487b7100000000000000000000000000000000000000000000000000000000\n        /* \"#utility.yul\":16089:16090   */\n      0x00\n        /* \"#utility.yul\":16082:16170   */\n      mstore\n        /* \"#utility.yul\":16189:16193   */\n      0x11\n        /* \"#utility.yul\":16186:16187   */\n      0x04\n        /* \"#utility.yul\":16179:16194   */\n      mstore\n        /* \"#utility.yul\":16213:16217   */\n      0x24\n        /* \"#utility.yul\":16210:16211   */\n      0x00\n        /* \"#utility.yul\":16203:16218   */\n      revert\n        /* \"#utility.yul\":16230:16535   */\n    tag_136:\n        /* \"#utility.yul\":16270:16273   */\n      0x00\n        /* \"#utility.yul\":16289:16309   */\n      tag_419\n        /* \"#utility.yul\":16307:16308   */\n      dup3\n        /* \"#utility.yul\":16289:16309   */\n      tag_225\n      jump\t// in\n    tag_419:\n        /* \"#utility.yul\":16284:16309   */\n      swap2\n      pop\n        /* \"#utility.yul\":16323:16343   */\n      tag_420\n        /* \"#utility.yul\":16341:16342   */\n      dup4\n        /* \"#utility.yul\":16323:16343   */\n      tag_225\n      jump\t// in\n    tag_420:\n        /* \"#utility.yul\":16318:16343   */\n      swap3\n      pop\n        /* \"#utility.yul\":16477:16478   */\n      dup3\n        /* \"#utility.yul\":16409:16475   */\n      0xffffffffffffffffffffffffffffffffffffffffffffffffffffffffffffffff\n        /* \"#utility.yul\":16405:16479   */\n      sub\n        /* \"#utility.yul\":16402:16403   */\n      dup3\n        /* \"#utility.yul\":16399:16480   */\n      gt\n        /* \"#utility.yul\":16396:16503   */\n      iszero\n      tag_421\n      jumpi\n        /* \"#utility.yul\":16483:16501   */\n      tag_422\n      tag_257\n      jump\t// in\n    tag_422:\n        /* \"#utility.yul\":16396:16503   */\n    tag_421:\n        /* \"#utility.yul\":16527:16528   */\n      dup3\n        /* \"#utility.yul\":16524:16525   */\n      dup3\n        /* \"#utility.yul\":16520:16529   */\n      add\n        /* \"#utility.yul\":16513:16529   */\n      swap1\n      pop\n        /* \"#utility.yul\":16230:16535   */\n      swap3\n      swap2\n      pop\n      pop\n      jump\t// out\n        /* \"#utility.yul\":16541:16767   */\n    tag_258:\n        /* \"#utility.yul\":16681:16715   */\n      0x4f6e6c792061756374696f6e6565722063616e2063616c6c2074686973206675\n        /* \"#utility.yul\":16677:16678   */\n      0x00\n        /* \"#utility.yul\":16669:16675   */\n      dup3\n        /* \"#utility.yul\":16665:16679   */\n      add\n        /* \"#utility.yul\":16658:16716   */\n      mstore\n        /* \"#utility.yul\":16750:16759   */\n      0x6e6374696f6e2e00000000000000000000000000000000000000000000000000\n        /* \"#utility.yul\":16745:16747   */\n      0x20\n        /* \"#utility.yul\":16737:16743   */\n      dup3\n        /* \"#utility.yul\":16733:16748   */\n      add\n        /* \"#utility.yul\":16726:16760   */\n      mstore\n        /* \"#utility.yul\":16541:16767   */\n      pop\n      jump\t// out\n        /* \"#utility.yul\":16773:17139   */\n    tag_259:\n        /* \"#utility.yul\":16915:16918   */\n      0x00\n        /* \"#utility.yul\":16936:17003   */\n      tag_425\n        /* \"#utility.yul\":17000:17002   */\n      0x27\n        /* \"#utility.yul\":16995:16998   */\n      dup4\n        /* \"#utility.yul\":16936:17003   */\n      tag_221\n      jump\t// in\n    tag_425:\n        /* \"#utility.yul\":16929:17003   */\n      swap2\n      pop\n        /* \"#utility.yul\":17012:17105   */\n      tag_426\n        /* \"#utility.yul\":17101:17104   */\n      dup3\n        /* \"#utility.yul\":17012:17105   */\n      tag_258\n      jump\t// in\n    tag_426:\n        /* \"#utility.yul\":17130:17132   */\n      0x40\n        /* \"#utility.yul\":17125:17128   */\n      dup3\n        /* \"#utility.yul\":17121:17133   */\n      add\n        /* \"#utility.yul\":17114:17133   */\n      swap1\n      pop\n        /* \"#utility.yul\":16773:17139   */\n      swap2\n      swap1\n      pop\n      jump\t// out\n        /* \"#utility.yul\":17145:17564   */\n    tag_180:\n        /* \"#utility.yul\":17311:17315   */\n      0x00\n        /* \"#utility.yul\":17349:17351   */\n      0x20\n        /* \"#utility.yul\":17338:17347   */\n      dup3\n        /* \"#utility.yul\":17334:17352   */\n      add\n        /* \"#utility.yul\":17326:17352   */\n      swap1\n      pop\n        /* \"#utility.yul\":17398:17407   */\n      dup2\n        /* \"#utility.yul\":17392:17396   */\n      dup2\n        /* \"#utility.yul\":17388:17408   */\n      sub\n        /* \"#utility.yul\":17384:17385   */\n      0x00\n        /* \"#utility.yul\":17373:17382   */\n      dup4\n        /* \"#utility.yul\":17369:17386   */\n      add\n        /* \"#utility.yul\":17362:17409   */\n      mstore\n        /* \"#utility.yul\":17426:17557   */\n      tag_428\n        /* \"#utility.yul\":17552:17556   */\n      dup2\n        /* \"#utility.yul\":17426:17557   */\n      tag_259\n      jump\t// in\n    tag_428:\n        /* \"#utility.yul\":17418:17557   */\n      swap1\n      pop\n        /* \"#utility.yul\":17145:17564   */\n      swap2\n      swap1\n      pop\n      jump\t// out\n\n    auxdata: 0xa264697066735822122073b2d0bde88a402ee227262dc8a79ee9f7f52b17aa6fbf1435cccd0063dbc2d464736f6c634300080e0033\n}\n",
				"bytecode": {
					"linkReferences": {},
					"object": "608060405234801561001057600080fd5b50611955806100206000396000f3fe608060405234801561001057600080fd5b50600436106101215760003560e01c806383050daa116100ad578063cff29dfd11610071578063cff29dfd1461030e578063d826f88f1461033e578063daa0218f14610348578063e7d2a99714610366578063f356733c1461038257610121565b806383050daa146102525780638f772f9614610270578063938626c2146102a2578063a2fb1175146102c0578063ca142b56146102f257610121565b80633817df4c116100f45780633817df4c146101ae5780633a79d2e5146101de57806340bd5937146101fc5780635fa382801461020657806366c85dee1461023657610121565b806305fb23cf146101265780631744e03b1461015657806334eb86a21461017257806335abd16014610190575b600080fd5b610140600480360381019061013b91906110a8565b61038c565b60405161014d919061116e565b60405180910390f35b610170600480360381019061016b91906112fb565b61045d565b005b61017a610533565b6040516101879190611366565b60405180910390f35b610198610539565b6040516101a591906114fb565b60405180910390f35b6101c860048036038101906101c391906110a8565b61068a565b6040516101d5919061116e565b60405180910390f35b6101e661072a565b6040516101f391906115cc565b60405180910390f35b6102046107b8565b005b610220600480360381019061021b91906115ee565b61086e565b60405161022d919061162a565b60405180910390f35b610250600480360381019061024b91906112fb565b6108b6565b005b61025a61098c565b604051610267919061116e565b60405180910390f35b61028a600480360381019061028591906115ee565b6109c9565b60405161029993929190611645565b60405180910390f35b6102aa610aab565b6040516102b7919061116e565b60405180910390f35b6102da60048036038101906102d591906115ee565b610b39565b6040516102e993929190611683565b60405180910390f35b61030c600480360381019061030791906116c1565b610c1b565b005b610328600480360381019061032391906115ee565b610c72565b604051610335919061162a565b60405180910390f35b610346610cb1565b005b610350610d1b565b60405161035d9190611366565b60405180910390f35b610380600480360381019061037b919061170a565b610d21565b005b61038a610dd9565b005b6060600560008373ffffffffffffffffffffffffffffffffffffffff1673ffffffffffffffffffffffffffffffffffffffff16815260200190815260200160002080546103d8906117a8565b80601f0160208091040260200160405190810160405280929190818152602001828054610404906117a8565b80156104515780601f1061042657610100808354040283529160200191610451565b820191906000526020600020905b81548152906001019060200180831161043457829003601f168201915b50505050509050919050565b600060405180606001604052803373ffffffffffffffffffffffffffffffffffffffff168152602001848152602001838152509050600681908060018154018082558091505060019003906000526020600020906003020160009091909190915060008201518160000160006101000a81548173ffffffffffffffffffffffffffffffffffffffff021916908373ffffffffffffffffffffffffffffffffffffffff16021790555060208201518160010155604082015181600201908051906020019061052b929190610e3e565b505050505050565b60035481565b60606007805480602002602001604051908101604052809291908181526020016000905b828210156106815783829060005260206000209060030201604051806060016040529081600082015481526020016001820160009054906101000a900473ffffffffffffffffffffffffffffffffffffffff1673ffffffffffffffffffffffffffffffffffffffff1673ffffffffffffffffffffffffffffffffffffffff1681526020016002820180546105f0906117a8565b80601f016020809104026020016040519081016040528092919081815260200182805461061c906117a8565b80156106695780601f1061063e57610100808354040283529160200191610669565b820191906000526020600020905b81548152906001019060200180831161064c57829003601f168201915b5050505050815250508152602001906001019061055d565b50505050905090565b600560205280600052604060002060009150905080546106a9906117a8565b80601f01602080910402602001604051908101604052809291908181526020018280546106d5906117a8565b80156107225780601f106106f757610100808354040283529160200191610722565b820191906000526020600020905b81548152906001019060200180831161070557829003601f168201915b505050505081565b606060018054806020026020016040519081016040528092919081815260200182805480156107ae57602002820191906000526020600020905b8160009054906101000a900473ffffffffffffffffffffffffffffffffffffffff1673ffffffffffffffffffffffffffffffffffffffff1681526020019060010190808311610764575b5050505050905090565b60005b60018054905081101561086b576000600182815481106107de576107dd6117d9565b5b9060005260206000200160009054906101000a900473ffffffffffffffffffffffffffffffffffffffff169050600560008273ffffffffffffffffffffffffffffffffffffffff1673ffffffffffffffffffffffffffffffffffffffff16815260200190815260200160002060006108569190610ec4565b506001816108649190611837565b90506107bb565b50565b600060018281548110610884576108836117d9565b5b9060005260206000200160009054906101000a900473ffffffffffffffffffffffffffffffffffffffff169050919050565b600060405180606001604052808481526020013373ffffffffffffffffffffffffffffffffffffffff16815260200183815250905060078190806001815401808255809150506001900390600052602060002090600302016000909190919091506000820151816000015560208201518160010160006101000a81548173ffffffffffffffffffffffffffffffffffffffff021916908373ffffffffffffffffffffffffffffffffffffffff1602179055506040820151816002019080519060200190610984929190610e3e565b505050505050565b60606040518060400160405280601781526020017f73616d706c6520737472696e672066726f6d20414b4542000000000000000000815250905090565b600781815481106109d957600080fd5b90600052602060002090600302016000915090508060000154908060010160009054906101000a900473ffffffffffffffffffffffffffffffffffffffff1690806002018054610a28906117a8565b80601f0160208091040260200160405190810160405280929190818152602001828054610a54906117a8565b8015610aa15780601f10610a7657610100808354040283529160200191610aa1565b820191906000526020600020905b815481529060010190602001808311610a8457829003601f168201915b5050505050905083565b60028054610ab8906117a8565b80601f0160208091040260200160405190810160405280929190818152602001828054610ae4906117a8565b8015610b315780601f10610b0657610100808354040283529160200191610b31565b820191906000526020600020905b815481529060010190602001808311610b1457829003601f168201915b505050505081565b60068181548110610b4957600080fd5b90600052602060002090600302016000915090508060000160009054906101000a900473ffffffffffffffffffffffffffffffffffffffff1690806001015490806002018054610b98906117a8565b80601f0160208091040260200160405190810160405280929190818152602001828054610bc4906117a8565b8015610c115780601f10610be657610100808354040283529160200191610c11565b820191906000526020600020905b815481529060010190602001808311610bf457829003601f168201915b5050505050905083565b80600560003373ffffffffffffffffffffffffffffffffffffffff1673ffffffffffffffffffffffffffffffffffffffff1681526020019081526020016000209080519060200190610c6e929190610e3e565b5050565b60018181548110610c8257600080fd5b906000526020600020016000915054906101000a900473ffffffffffffffffffffffffffffffffffffffff1681565b60066000610cbf9190610f04565b6040518060200160405280600081525060029080519060200190610ce4929190610e3e565b5060006003819055506000600481905550610cfd6107b8565b60016000610d0b9190610f28565b60076000610d199190610f49565b565b60045481565b60008054906101000a900473ffffffffffffffffffffffffffffffffffffffff1673ffffffffffffffffffffffffffffffffffffffff163373ffffffffffffffffffffffffffffffffffffffff1614610daf576040517f08c379a0000000000000000000000000000000000000000000000000000000008152600401610da6906118ff565b60405180910390fd5b8260029080519060200190610dc5929190610e3e565b508160038190555080600481905550505050565b6001339080600181540180825580915050600190039060005260206000200160009091909190916101000a81548173ffffffffffffffffffffffffffffffffffffffff021916908373ffffffffffffffffffffffffffffffffffffffff160217905550565b828054610e4a906117a8565b90600052602060002090601f016020900481019282610e6c5760008555610eb3565b82601f10610e8557805160ff1916838001178555610eb3565b82800160010185558215610eb3579182015b82811115610eb2578251825591602001919060010190610e97565b5b509050610ec09190610f6d565b5090565b508054610ed0906117a8565b6000825580601f10610ee25750610f01565b601f016020900490600052602060002090810190610f009190610f6d565b5b50565b5080546000825560030290600052602060002090810190610f259190610f8a565b50565b5080546000825590600052602060002090810190610f469190610f6d565b50565b5080546000825560030290600052602060002090810190610f6a9190610fe0565b50565b5b80821115610f86576000816000905550600101610f6e565b5090565b5b80821115610fdc57600080820160006101000a81549073ffffffffffffffffffffffffffffffffffffffff02191690556001820160009055600282016000610fd39190610ec4565b50600301610f8b565b5090565b5b80821115611032576000808201600090556001820160006101000a81549073ffffffffffffffffffffffffffffffffffffffff02191690556002820160006110299190610ec4565b50600301610fe1565b5090565b6000604051905090565b600080fd5b600080fd5b600073ffffffffffffffffffffffffffffffffffffffff82169050919050565b60006110758261104a565b9050919050565b6110858161106a565b811461109057600080fd5b50565b6000813590506110a28161107c565b92915050565b6000602082840312156110be576110bd611040565b5b60006110cc84828501611093565b91505092915050565b600081519050919050565b600082825260208201905092915050565b60005b8381101561110f5780820151818401526020810190506110f4565b8381111561111e576000848401525b50505050565b6000601f19601f8301169050919050565b6000611140826110d5565b61114a81856110e0565b935061115a8185602086016110f1565b61116381611124565b840191505092915050565b600060208201905081810360008301526111888184611135565b905092915050565b6000819050919050565b6111a381611190565b81146111ae57600080fd5b50565b6000813590506111c08161119a565b92915050565b600080fd5b600080fd5b7f4e487b7100000000000000000000000000000000000000000000000000000000600052604160045260246000fd5b61120882611124565b810181811067ffffffffffffffff82111715611227576112266111d0565b5b80604052505050565b600061123a611036565b905061124682826111ff565b919050565b600067ffffffffffffffff821115611266576112656111d0565b5b61126f82611124565b9050602081019050919050565b82818337600083830152505050565b600061129e6112998461124b565b611230565b9050828152602081018484840111156112ba576112b96111cb565b5b6112c584828561127c565b509392505050565b600082601f8301126112e2576112e16111c6565b5b81356112f284826020860161128b565b91505092915050565b6000806040838503121561131257611311611040565b5b6000611320858286016111b1565b925050602083013567ffffffffffffffff81111561134157611340611045565b5b61134d858286016112cd565b9150509250929050565b61136081611190565b82525050565b600060208201905061137b6000830184611357565b92915050565b600081519050919050565b600082825260208201905092915050565b6000819050602082019050919050565b6113b681611190565b82525050565b6113c58161106a565b82525050565b600082825260208201905092915050565b60006113e7826110d5565b6113f181856113cb565b93506114018185602086016110f1565b61140a81611124565b840191505092915050565b600060608301600083015161142d60008601826113ad565b50602083015161144060208601826113bc565b506040830151848203604086015261145882826113dc565b9150508091505092915050565b60006114718383611415565b905092915050565b6000602082019050919050565b600061149182611381565b61149b818561138c565b9350836020820285016114ad8561139d565b8060005b858110156114e957848403895281516114ca8582611465565b94506114d583611479565b925060208a019950506001810190506114b1565b50829750879550505050505092915050565b600060208201905081810360008301526115158184611486565b905092915050565b600081519050919050565b600082825260208201905092915050565b6000819050602082019050919050565b600061155583836113bc565b60208301905092915050565b6000602082019050919050565b60006115798261151d565b6115838185611528565b935061158e83611539565b8060005b838110156115bf5781516115a68882611549565b97506115b183611561565b925050600181019050611592565b5085935050505092915050565b600060208201905081810360008301526115e6818461156e565b905092915050565b60006020828403121561160457611603611040565b5b6000611612848285016111b1565b91505092915050565b6116248161106a565b82525050565b600060208201905061163f600083018461161b565b92915050565b600060608201905061165a6000830186611357565b611667602083018561161b565b81810360408301526116798184611135565b9050949350505050565b6000606082019050611698600083018661161b565b6116a56020830185611357565b81810360408301526116b78184611135565b9050949350505050565b6000602082840312156116d7576116d6611040565b5b600082013567ffffffffffffffff8111156116f5576116f4611045565b5b611701848285016112cd565b91505092915050565b60008060006060848603121561172357611722611040565b5b600084013567ffffffffffffffff81111561174157611740611045565b5b61174d868287016112cd565b935050602061175e868287016111b1565b925050604061176f868287016111b1565b9150509250925092565b7f4e487b7100000000000000000000000000000000000000000000000000000000600052602260045260246000fd5b600060028204905060018216806117c057607f821691505b6020821081036117d3576117d2611779565b5b50919050565b7f4e487b7100000000000000000000000000000000000000000000000000000000600052603260045260246000fd5b7f4e487b7100000000000000000000000000000000000000000000000000000000600052601160045260246000fd5b600061184282611190565b915061184d83611190565b9250827fffffffffffffffffffffffffffffffffffffffffffffffffffffffffffffffff0382111561188257611881611808565b5b828201905092915050565b7f4f6e6c792061756374696f6e6565722063616e2063616c6c207468697320667560008201527f6e6374696f6e2e00000000000000000000000000000000000000000000000000602082015250565b60006118e96027836110e0565b91506118f48261188d565b604082019050919050565b60006020820190508181036000830152611918816118dc565b905091905056fea264697066735822122073b2d0bde88a402ee227262dc8a79ee9f7f52b17aa6fbf1435cccd0063dbc2d464736f6c634300080e0033",
					"opcodes": "PUSH1 0x80 PUSH1 0x40 MSTORE CALLVALUE DUP1 ISZERO PUSH2 0x10 JUMPI PUSH1 0x0 DUP1 REVERT JUMPDEST POP PUSH2 0x1955 DUP1 PUSH2 0x20 PUSH1 0x0 CODECOPY PUSH1 0x0 RETURN INVALID PUSH1 0x80 PUSH1 0x40 MSTORE CALLVALUE DUP1 ISZERO PUSH2 0x10 JUMPI PUSH1 0x0 DUP1 REVERT JUMPDEST POP PUSH1 0x4 CALLDATASIZE LT PUSH2 0x121 JUMPI PUSH1 0x0 CALLDATALOAD PUSH1 0xE0 SHR DUP1 PUSH4 0x83050DAA GT PUSH2 0xAD JUMPI DUP1 PUSH4 0xCFF29DFD GT PUSH2 0x71 JUMPI DUP1 PUSH4 0xCFF29DFD EQ PUSH2 0x30E JUMPI DUP1 PUSH4 0xD826F88F EQ PUSH2 0x33E JUMPI DUP1 PUSH4 0xDAA0218F EQ PUSH2 0x348 JUMPI DUP1 PUSH4 0xE7D2A997 EQ PUSH2 0x366 JUMPI DUP1 PUSH4 0xF356733C EQ PUSH2 0x382 JUMPI PUSH2 0x121 JUMP JUMPDEST DUP1 PUSH4 0x83050DAA EQ PUSH2 0x252 JUMPI DUP1 PUSH4 0x8F772F96 EQ PUSH2 0x270 JUMPI DUP1 PUSH4 0x938626C2 EQ PUSH2 0x2A2 JUMPI DUP1 PUSH4 0xA2FB1175 EQ PUSH2 0x2C0 JUMPI DUP1 PUSH4 0xCA142B56 EQ PUSH2 0x2F2 JUMPI PUSH2 0x121 JUMP JUMPDEST DUP1 PUSH4 0x3817DF4C GT PUSH2 0xF4 JUMPI DUP1 PUSH4 0x3817DF4C EQ PUSH2 0x1AE JUMPI DUP1 PUSH4 0x3A79D2E5 EQ PUSH2 0x1DE JUMPI DUP1 PUSH4 0x40BD5937 EQ PUSH2 0x1FC JUMPI DUP1 PUSH4 0x5FA38280 EQ PUSH2 0x206 JUMPI DUP1 PUSH4 0x66C85DEE EQ PUSH2 0x236 JUMPI PUSH2 0x121 JUMP JUMPDEST DUP1 PUSH4 0x5FB23CF EQ PUSH2 0x126 JUMPI DUP1 PUSH4 0x1744E03B EQ PUSH2 0x156 JUMPI DUP1 PUSH4 0x34EB86A2 EQ PUSH2 0x172 JUMPI DUP1 PUSH4 0x35ABD160 EQ PUSH2 0x190 JUMPI JUMPDEST PUSH1 0x0 DUP1 REVERT JUMPDEST PUSH2 0x140 PUSH1 0x4 DUP1 CALLDATASIZE SUB DUP2 ADD SWAP1 PUSH2 0x13B SWAP2 SWAP1 PUSH2 0x10A8 JUMP JUMPDEST PUSH2 0x38C JUMP JUMPDEST PUSH1 0x40 MLOAD PUSH2 0x14D SWAP2 SWAP1 PUSH2 0x116E JUMP JUMPDEST PUSH1 0x40 MLOAD DUP1 SWAP2 SUB SWAP1 RETURN JUMPDEST PUSH2 0x170 PUSH1 0x4 DUP1 CALLDATASIZE SUB DUP2 ADD SWAP1 PUSH2 0x16B SWAP2 SWAP1 PUSH2 0x12FB JUMP JUMPDEST PUSH2 0x45D JUMP JUMPDEST STOP JUMPDEST PUSH2 0x17A PUSH2 0x533 JUMP JUMPDEST PUSH1 0x40 MLOAD PUSH2 0x187 SWAP2 SWAP1 PUSH2 0x1366 JUMP JUMPDEST PUSH1 0x40 MLOAD DUP1 SWAP2 SUB SWAP1 RETURN JUMPDEST PUSH2 0x198 PUSH2 0x539 JUMP JUMPDEST PUSH1 0x40 MLOAD PUSH2 0x1A5 SWAP2 SWAP1 PUSH2 0x14FB JUMP JUMPDEST PUSH1 0x40 MLOAD DUP1 SWAP2 SUB SWAP1 RETURN JUMPDEST PUSH2 0x1C8 PUSH1 0x4 DUP1 CALLDATASIZE SUB DUP2 ADD SWAP1 PUSH2 0x1C3 SWAP2 SWAP1 PUSH2 0x10A8 JUMP JUMPDEST PUSH2 0x68A JUMP JUMPDEST PUSH1 0x40 MLOAD PUSH2 0x1D5 SWAP2 SWAP1 PUSH2 0x116E JUMP JUMPDEST PUSH1 0x40 MLOAD DUP1 SWAP2 SUB SWAP1 RETURN JUMPDEST PUSH2 0x1E6 PUSH2 0x72A JUMP JUMPDEST PUSH1 0x40 MLOAD PUSH2 0x1F3 SWAP2 SWAP1 PUSH2 0x15CC JUMP JUMPDEST PUSH1 0x40 MLOAD DUP1 SWAP2 SUB SWAP1 RETURN JUMPDEST PUSH2 0x204 PUSH2 0x7B8 JUMP JUMPDEST STOP JUMPDEST PUSH2 0x220 PUSH1 0x4 DUP1 CALLDATASIZE SUB DUP2 ADD SWAP1 PUSH2 0x21B SWAP2 SWAP1 PUSH2 0x15EE JUMP JUMPDEST PUSH2 0x86E JUMP JUMPDEST PUSH1 0x40 MLOAD PUSH2 0x22D SWAP2 SWAP1 PUSH2 0x162A JUMP JUMPDEST PUSH1 0x40 MLOAD DUP1 SWAP2 SUB SWAP1 RETURN JUMPDEST PUSH2 0x250 PUSH1 0x4 DUP1 CALLDATASIZE SUB DUP2 ADD SWAP1 PUSH2 0x24B SWAP2 SWAP1 PUSH2 0x12FB JUMP JUMPDEST PUSH2 0x8B6 JUMP JUMPDEST STOP JUMPDEST PUSH2 0x25A PUSH2 0x98C JUMP JUMPDEST PUSH1 0x40 MLOAD PUSH2 0x267 SWAP2 SWAP1 PUSH2 0x116E JUMP JUMPDEST PUSH1 0x40 MLOAD DUP1 SWAP2 SUB SWAP1 RETURN JUMPDEST PUSH2 0x28A PUSH1 0x4 DUP1 CALLDATASIZE SUB DUP2 ADD SWAP1 PUSH2 0x285 SWAP2 SWAP1 PUSH2 0x15EE JUMP JUMPDEST PUSH2 0x9C9 JUMP JUMPDEST PUSH1 0x40 MLOAD PUSH2 0x299 SWAP4 SWAP3 SWAP2 SWAP1 PUSH2 0x1645 JUMP JUMPDEST PUSH1 0x40 MLOAD DUP1 SWAP2 SUB SWAP1 RETURN JUMPDEST PUSH2 0x2AA PUSH2 0xAAB JUMP JUMPDEST PUSH1 0x40 MLOAD PUSH2 0x2B7 SWAP2 SWAP1 PUSH2 0x116E JUMP JUMPDEST PUSH1 0x40 MLOAD DUP1 SWAP2 SUB SWAP1 RETURN JUMPDEST PUSH2 0x2DA PUSH1 0x4 DUP1 CALLDATASIZE SUB DUP2 ADD SWAP1 PUSH2 0x2D5 SWAP2 SWAP1 PUSH2 0x15EE JUMP JUMPDEST PUSH2 0xB39 JUMP JUMPDEST PUSH1 0x40 MLOAD PUSH2 0x2E9 SWAP4 SWAP3 SWAP2 SWAP1 PUSH2 0x1683 JUMP JUMPDEST PUSH1 0x40 MLOAD DUP1 SWAP2 SUB SWAP1 RETURN JUMPDEST PUSH2 0x30C PUSH1 0x4 DUP1 CALLDATASIZE SUB DUP2 ADD SWAP1 PUSH2 0x307 SWAP2 SWAP1 PUSH2 0x16C1 JUMP JUMPDEST PUSH2 0xC1B JUMP JUMPDEST STOP JUMPDEST PUSH2 0x328 PUSH1 0x4 DUP1 CALLDATASIZE SUB DUP2 ADD SWAP1 PUSH2 0x323 SWAP2 SWAP1 PUSH2 0x15EE JUMP JUMPDEST PUSH2 0xC72 JUMP JUMPDEST PUSH1 0x40 MLOAD PUSH2 0x335 SWAP2 SWAP1 PUSH2 0x162A JUMP JUMPDEST PUSH1 0x40 MLOAD DUP1 SWAP2 SUB SWAP1 RETURN JUMPDEST PUSH2 0x346 PUSH2 0xCB1 JUMP JUMPDEST STOP JUMPDEST PUSH2 0x350 PUSH2 0xD1B JUMP JUMPDEST PUSH1 0x40 MLOAD PUSH2 0x35D SWAP2 SWAP1 PUSH2 0x1366 JUMP JUMPDEST PUSH1 0x40 MLOAD DUP1 SWAP2 SUB SWAP1 RETURN JUMPDEST PUSH2 0x380 PUSH1 0x4 DUP1 CALLDATASIZE SUB DUP2 ADD SWAP1 PUSH2 0x37B SWAP2 SWAP1 PUSH2 0x170A JUMP JUMPDEST PUSH2 0xD21 JUMP JUMPDEST STOP JUMPDEST PUSH2 0x38A PUSH2 0xDD9 JUMP JUMPDEST STOP JUMPDEST PUSH1 0x60 PUSH1 0x5 PUSH1 0x0 DUP4 PUSH20 0xFFFFFFFFFFFFFFFFFFFFFFFFFFFFFFFFFFFFFFFF AND PUSH20 0xFFFFFFFFFFFFFFFFFFFFFFFFFFFFFFFFFFFFFFFF AND DUP2 MSTORE PUSH1 0x20 ADD SWAP1 DUP2 MSTORE PUSH1 0x20 ADD PUSH1 0x0 KECCAK256 DUP1 SLOAD PUSH2 0x3D8 SWAP1 PUSH2 0x17A8 JUMP JUMPDEST DUP1 PUSH1 0x1F ADD PUSH1 0x20 DUP1 SWAP2 DIV MUL PUSH1 0x20 ADD PUSH1 0x40 MLOAD SWAP1 DUP2 ADD PUSH1 0x40 MSTORE DUP1 SWAP3 SWAP2 SWAP1 DUP2 DUP2 MSTORE PUSH1 0x20 ADD DUP3 DUP1 SLOAD PUSH2 0x404 SWAP1 PUSH2 0x17A8 JUMP JUMPDEST DUP1 ISZERO PUSH2 0x451 JUMPI DUP1 PUSH1 0x1F LT PUSH2 0x426 JUMPI PUSH2 0x100 DUP1 DUP4 SLOAD DIV MUL DUP4 MSTORE SWAP2 PUSH1 0x20 ADD SWAP2 PUSH2 0x451 JUMP JUMPDEST DUP3 ADD SWAP2 SWAP1 PUSH1 0x0 MSTORE PUSH1 0x20 PUSH1 0x0 KECCAK256 SWAP1 JUMPDEST DUP2 SLOAD DUP2 MSTORE SWAP1 PUSH1 0x1 ADD SWAP1 PUSH1 0x20 ADD DUP1 DUP4 GT PUSH2 0x434 JUMPI DUP3 SWAP1 SUB PUSH1 0x1F AND DUP3 ADD SWAP2 JUMPDEST POP POP POP POP POP SWAP1 POP SWAP2 SWAP1 POP JUMP JUMPDEST PUSH1 0x0 PUSH1 0x40 MLOAD DUP1 PUSH1 0x60 ADD PUSH1 0x40 MSTORE DUP1 CALLER PUSH20 0xFFFFFFFFFFFFFFFFFFFFFFFFFFFFFFFFFFFFFFFF AND DUP2 MSTORE PUSH1 0x20 ADD DUP5 DUP2 MSTORE PUSH1 0x20 ADD DUP4 DUP2 MSTORE POP SWAP1 POP PUSH1 0x6 DUP2 SWAP1 DUP1 PUSH1 0x1 DUP2 SLOAD ADD DUP1 DUP3 SSTORE DUP1 SWAP2 POP POP PUSH1 0x1 SWAP1 SUB SWAP1 PUSH1 0x0 MSTORE PUSH1 0x20 PUSH1 0x0 KECCAK256 SWAP1 PUSH1 0x3 MUL ADD PUSH1 0x0 SWAP1 SWAP2 SWAP1 SWAP2 SWAP1 SWAP2 POP PUSH1 0x0 DUP3 ADD MLOAD DUP2 PUSH1 0x0 ADD PUSH1 0x0 PUSH2 0x100 EXP DUP2 SLOAD DUP2 PUSH20 0xFFFFFFFFFFFFFFFFFFFFFFFFFFFFFFFFFFFFFFFF MUL NOT AND SWAP1 DUP4 PUSH20 0xFFFFFFFFFFFFFFFFFFFFFFFFFFFFFFFFFFFFFFFF AND MUL OR SWAP1 SSTORE POP PUSH1 0x20 DUP3 ADD MLOAD DUP2 PUSH1 0x1 ADD SSTORE PUSH1 0x40 DUP3 ADD MLOAD DUP2 PUSH1 0x2 ADD SWAP1 DUP1 MLOAD SWAP1 PUSH1 0x20 ADD SWAP1 PUSH2 0x52B SWAP3 SWAP2 SWAP1 PUSH2 0xE3E JUMP JUMPDEST POP POP POP POP POP POP JUMP JUMPDEST PUSH1 0x3 SLOAD DUP2 JUMP JUMPDEST PUSH1 0x60 PUSH1 0x7 DUP1 SLOAD DUP1 PUSH1 0x20 MUL PUSH1 0x20 ADD PUSH1 0x40 MLOAD SWAP1 DUP2 ADD PUSH1 0x40 MSTORE DUP1 SWAP3 SWAP2 SWAP1 DUP2 DUP2 MSTORE PUSH1 0x20 ADD PUSH1 0x0 SWAP1 JUMPDEST DUP3 DUP3 LT ISZERO PUSH2 0x681 JUMPI DUP4 DUP3 SWAP1 PUSH1 0x0 MSTORE PUSH1 0x20 PUSH1 0x0 KECCAK256 SWAP1 PUSH1 0x3 MUL ADD PUSH1 0x40 MLOAD DUP1 PUSH1 0x60 ADD PUSH1 0x40 MSTORE SWAP1 DUP2 PUSH1 0x0 DUP3 ADD SLOAD DUP2 MSTORE PUSH1 0x20 ADD PUSH1 0x1 DUP3 ADD PUSH1 0x0 SWAP1 SLOAD SWAP1 PUSH2 0x100 EXP SWAP1 DIV PUSH20 0xFFFFFFFFFFFFFFFFFFFFFFFFFFFFFFFFFFFFFFFF AND PUSH20 0xFFFFFFFFFFFFFFFFFFFFFFFFFFFFFFFFFFFFFFFF AND PUSH20 0xFFFFFFFFFFFFFFFFFFFFFFFFFFFFFFFFFFFFFFFF AND DUP2 MSTORE PUSH1 0x20 ADD PUSH1 0x2 DUP3 ADD DUP1 SLOAD PUSH2 0x5F0 SWAP1 PUSH2 0x17A8 JUMP JUMPDEST DUP1 PUSH1 0x1F ADD PUSH1 0x20 DUP1 SWAP2 DIV MUL PUSH1 0x20 ADD PUSH1 0x40 MLOAD SWAP1 DUP2 ADD PUSH1 0x40 MSTORE DUP1 SWAP3 SWAP2 SWAP1 DUP2 DUP2 MSTORE PUSH1 0x20 ADD DUP3 DUP1 SLOAD PUSH2 0x61C SWAP1 PUSH2 0x17A8 JUMP JUMPDEST DUP1 ISZERO PUSH2 0x669 JUMPI DUP1 PUSH1 0x1F LT PUSH2 0x63E JUMPI PUSH2 0x100 DUP1 DUP4 SLOAD DIV MUL DUP4 MSTORE SWAP2 PUSH1 0x20 ADD SWAP2 PUSH2 0x669 JUMP JUMPDEST DUP3 ADD SWAP2 SWAP1 PUSH1 0x0 MSTORE PUSH1 0x20 PUSH1 0x0 KECCAK256 SWAP1 JUMPDEST DUP2 SLOAD DUP2 MSTORE SWAP1 PUSH1 0x1 ADD SWAP1 PUSH1 0x20 ADD DUP1 DUP4 GT PUSH2 0x64C JUMPI DUP3 SWAP1 SUB PUSH1 0x1F AND DUP3 ADD SWAP2 JUMPDEST POP POP POP POP POP DUP2 MSTORE POP POP DUP2 MSTORE PUSH1 0x20 ADD SWAP1 PUSH1 0x1 ADD SWAP1 PUSH2 0x55D JUMP JUMPDEST POP POP POP POP SWAP1 POP SWAP1 JUMP JUMPDEST PUSH1 0x5 PUSH1 0x20 MSTORE DUP1 PUSH1 0x0 MSTORE PUSH1 0x40 PUSH1 0x0 KECCAK256 PUSH1 0x0 SWAP2 POP SWAP1 POP DUP1 SLOAD PUSH2 0x6A9 SWAP1 PUSH2 0x17A8 JUMP JUMPDEST DUP1 PUSH1 0x1F ADD PUSH1 0x20 DUP1 SWAP2 DIV MUL PUSH1 0x20 ADD PUSH1 0x40 MLOAD SWAP1 DUP2 ADD PUSH1 0x40 MSTORE DUP1 SWAP3 SWAP2 SWAP1 DUP2 DUP2 MSTORE PUSH1 0x20 ADD DUP3 DUP1 SLOAD PUSH2 0x6D5 SWAP1 PUSH2 0x17A8 JUMP JUMPDEST DUP1 ISZERO PUSH2 0x722 JUMPI DUP1 PUSH1 0x1F LT PUSH2 0x6F7 JUMPI PUSH2 0x100 DUP1 DUP4 SLOAD DIV MUL DUP4 MSTORE SWAP2 PUSH1 0x20 ADD SWAP2 PUSH2 0x722 JUMP JUMPDEST DUP3 ADD SWAP2 SWAP1 PUSH1 0x0 MSTORE PUSH1 0x20 PUSH1 0x0 KECCAK256 SWAP1 JUMPDEST DUP2 SLOAD DUP2 MSTORE SWAP1 PUSH1 0x1 ADD SWAP1 PUSH1 0x20 ADD DUP1 DUP4 GT PUSH2 0x705 JUMPI DUP3 SWAP1 SUB PUSH1 0x1F AND DUP3 ADD SWAP2 JUMPDEST POP POP POP POP POP DUP2 JUMP JUMPDEST PUSH1 0x60 PUSH1 0x1 DUP1 SLOAD DUP1 PUSH1 0x20 MUL PUSH1 0x20 ADD PUSH1 0x40 MLOAD SWAP1 DUP2 ADD PUSH1 0x40 MSTORE DUP1 SWAP3 SWAP2 SWAP1 DUP2 DUP2 MSTORE PUSH1 0x20 ADD DUP3 DUP1 SLOAD DUP1 ISZERO PUSH2 0x7AE JUMPI PUSH1 0x20 MUL DUP3 ADD SWAP2 SWAP1 PUSH1 0x0 MSTORE PUSH1 0x20 PUSH1 0x0 KECCAK256 SWAP1 JUMPDEST DUP2 PUSH1 0x0 SWAP1 SLOAD SWAP1 PUSH2 0x100 EXP SWAP1 DIV PUSH20 0xFFFFFFFFFFFFFFFFFFFFFFFFFFFFFFFFFFFFFFFF AND PUSH20 0xFFFFFFFFFFFFFFFFFFFFFFFFFFFFFFFFFFFFFFFF AND DUP2 MSTORE PUSH1 0x20 ADD SWAP1 PUSH1 0x1 ADD SWAP1 DUP1 DUP4 GT PUSH2 0x764 JUMPI JUMPDEST POP POP POP POP POP SWAP1 POP SWAP1 JUMP JUMPDEST PUSH1 0x0 JUMPDEST PUSH1 0x1 DUP1 SLOAD SWAP1 POP DUP2 LT ISZERO PUSH2 0x86B JUMPI PUSH1 0x0 PUSH1 0x1 DUP3 DUP2 SLOAD DUP2 LT PUSH2 0x7DE JUMPI PUSH2 0x7DD PUSH2 0x17D9 JUMP JUMPDEST JUMPDEST SWAP1 PUSH1 0x0 MSTORE PUSH1 0x20 PUSH1 0x0 KECCAK256 ADD PUSH1 0x0 SWAP1 SLOAD SWAP1 PUSH2 0x100 EXP SWAP1 DIV PUSH20 0xFFFFFFFFFFFFFFFFFFFFFFFFFFFFFFFFFFFFFFFF AND SWAP1 POP PUSH1 0x5 PUSH1 0x0 DUP3 PUSH20 0xFFFFFFFFFFFFFFFFFFFFFFFFFFFFFFFFFFFFFFFF AND PUSH20 0xFFFFFFFFFFFFFFFFFFFFFFFFFFFFFFFFFFFFFFFF AND DUP2 MSTORE PUSH1 0x20 ADD SWAP1 DUP2 MSTORE PUSH1 0x20 ADD PUSH1 0x0 KECCAK256 PUSH1 0x0 PUSH2 0x856 SWAP2 SWAP1 PUSH2 0xEC4 JUMP JUMPDEST POP PUSH1 0x1 DUP2 PUSH2 0x864 SWAP2 SWAP1 PUSH2 0x1837 JUMP JUMPDEST SWAP1 POP PUSH2 0x7BB JUMP JUMPDEST POP JUMP JUMPDEST PUSH1 0x0 PUSH1 0x1 DUP3 DUP2 SLOAD DUP2 LT PUSH2 0x884 JUMPI PUSH2 0x883 PUSH2 0x17D9 JUMP JUMPDEST JUMPDEST SWAP1 PUSH1 0x0 MSTORE PUSH1 0x20 PUSH1 0x0 KECCAK256 ADD PUSH1 0x0 SWAP1 SLOAD SWAP1 PUSH2 0x100 EXP SWAP1 DIV PUSH20 0xFFFFFFFFFFFFFFFFFFFFFFFFFFFFFFFFFFFFFFFF AND SWAP1 POP SWAP2 SWAP1 POP JUMP JUMPDEST PUSH1 0x0 PUSH1 0x40 MLOAD DUP1 PUSH1 0x60 ADD PUSH1 0x40 MSTORE DUP1 DUP5 DUP2 MSTORE PUSH1 0x20 ADD CALLER PUSH20 0xFFFFFFFFFFFFFFFFFFFFFFFFFFFFFFFFFFFFFFFF AND DUP2 MSTORE PUSH1 0x20 ADD DUP4 DUP2 MSTORE POP SWAP1 POP PUSH1 0x7 DUP2 SWAP1 DUP1 PUSH1 0x1 DUP2 SLOAD ADD DUP1 DUP3 SSTORE DUP1 SWAP2 POP POP PUSH1 0x1 SWAP1 SUB SWAP1 PUSH1 0x0 MSTORE PUSH1 0x20 PUSH1 0x0 KECCAK256 SWAP1 PUSH1 0x3 MUL ADD PUSH1 0x0 SWAP1 SWAP2 SWAP1 SWAP2 SWAP1 SWAP2 POP PUSH1 0x0 DUP3 ADD MLOAD DUP2 PUSH1 0x0 ADD SSTORE PUSH1 0x20 DUP3 ADD MLOAD DUP2 PUSH1 0x1 ADD PUSH1 0x0 PUSH2 0x100 EXP DUP2 SLOAD DUP2 PUSH20 0xFFFFFFFFFFFFFFFFFFFFFFFFFFFFFFFFFFFFFFFF MUL NOT AND SWAP1 DUP4 PUSH20 0xFFFFFFFFFFFFFFFFFFFFFFFFFFFFFFFFFFFFFFFF AND MUL OR SWAP1 SSTORE POP PUSH1 0x40 DUP3 ADD MLOAD DUP2 PUSH1 0x2 ADD SWAP1 DUP1 MLOAD SWAP1 PUSH1 0x20 ADD SWAP1 PUSH2 0x984 SWAP3 SWAP2 SWAP1 PUSH2 0xE3E JUMP JUMPDEST POP POP POP POP POP POP JUMP JUMPDEST PUSH1 0x60 PUSH1 0x40 MLOAD DUP1 PUSH1 0x40 ADD PUSH1 0x40 MSTORE DUP1 PUSH1 0x17 DUP2 MSTORE PUSH1 0x20 ADD PUSH32 0x73616D706C6520737472696E672066726F6D20414B4542000000000000000000 DUP2 MSTORE POP SWAP1 POP SWAP1 JUMP JUMPDEST PUSH1 0x7 DUP2 DUP2 SLOAD DUP2 LT PUSH2 0x9D9 JUMPI PUSH1 0x0 DUP1 REVERT JUMPDEST SWAP1 PUSH1 0x0 MSTORE PUSH1 0x20 PUSH1 0x0 KECCAK256 SWAP1 PUSH1 0x3 MUL ADD PUSH1 0x0 SWAP2 POP SWAP1 POP DUP1 PUSH1 0x0 ADD SLOAD SWAP1 DUP1 PUSH1 0x1 ADD PUSH1 0x0 SWAP1 SLOAD SWAP1 PUSH2 0x100 EXP SWAP1 DIV PUSH20 0xFFFFFFFFFFFFFFFFFFFFFFFFFFFFFFFFFFFFFFFF AND SWAP1 DUP1 PUSH1 0x2 ADD DUP1 SLOAD PUSH2 0xA28 SWAP1 PUSH2 0x17A8 JUMP JUMPDEST DUP1 PUSH1 0x1F ADD PUSH1 0x20 DUP1 SWAP2 DIV MUL PUSH1 0x20 ADD PUSH1 0x40 MLOAD SWAP1 DUP2 ADD PUSH1 0x40 MSTORE DUP1 SWAP3 SWAP2 SWAP1 DUP2 DUP2 MSTORE PUSH1 0x20 ADD DUP3 DUP1 SLOAD PUSH2 0xA54 SWAP1 PUSH2 0x17A8 JUMP JUMPDEST DUP1 ISZERO PUSH2 0xAA1 JUMPI DUP1 PUSH1 0x1F LT PUSH2 0xA76 JUMPI PUSH2 0x100 DUP1 DUP4 SLOAD DIV MUL DUP4 MSTORE SWAP2 PUSH1 0x20 ADD SWAP2 PUSH2 0xAA1 JUMP JUMPDEST DUP3 ADD SWAP2 SWAP1 PUSH1 0x0 MSTORE PUSH1 0x20 PUSH1 0x0 KECCAK256 SWAP1 JUMPDEST DUP2 SLOAD DUP2 MSTORE SWAP1 PUSH1 0x1 ADD SWAP1 PUSH1 0x20 ADD DUP1 DUP4 GT PUSH2 0xA84 JUMPI DUP3 SWAP1 SUB PUSH1 0x1F AND DUP3 ADD SWAP2 JUMPDEST POP POP POP POP POP SWAP1 POP DUP4 JUMP JUMPDEST PUSH1 0x2 DUP1 SLOAD PUSH2 0xAB8 SWAP1 PUSH2 0x17A8 JUMP JUMPDEST DUP1 PUSH1 0x1F ADD PUSH1 0x20 DUP1 SWAP2 DIV MUL PUSH1 0x20 ADD PUSH1 0x40 MLOAD SWAP1 DUP2 ADD PUSH1 0x40 MSTORE DUP1 SWAP3 SWAP2 SWAP1 DUP2 DUP2 MSTORE PUSH1 0x20 ADD DUP3 DUP1 SLOAD PUSH2 0xAE4 SWAP1 PUSH2 0x17A8 JUMP JUMPDEST DUP1 ISZERO PUSH2 0xB31 JUMPI DUP1 PUSH1 0x1F LT PUSH2 0xB06 JUMPI PUSH2 0x100 DUP1 DUP4 SLOAD DIV MUL DUP4 MSTORE SWAP2 PUSH1 0x20 ADD SWAP2 PUSH2 0xB31 JUMP JUMPDEST DUP3 ADD SWAP2 SWAP1 PUSH1 0x0 MSTORE PUSH1 0x20 PUSH1 0x0 KECCAK256 SWAP1 JUMPDEST DUP2 SLOAD DUP2 MSTORE SWAP1 PUSH1 0x1 ADD SWAP1 PUSH1 0x20 ADD DUP1 DUP4 GT PUSH2 0xB14 JUMPI DUP3 SWAP1 SUB PUSH1 0x1F AND DUP3 ADD SWAP2 JUMPDEST POP POP POP POP POP DUP2 JUMP JUMPDEST PUSH1 0x6 DUP2 DUP2 SLOAD DUP2 LT PUSH2 0xB49 JUMPI PUSH1 0x0 DUP1 REVERT JUMPDEST SWAP1 PUSH1 0x0 MSTORE PUSH1 0x20 PUSH1 0x0 KECCAK256 SWAP1 PUSH1 0x3 MUL ADD PUSH1 0x0 SWAP2 POP SWAP1 POP DUP1 PUSH1 0x0 ADD PUSH1 0x0 SWAP1 SLOAD SWAP1 PUSH2 0x100 EXP SWAP1 DIV PUSH20 0xFFFFFFFFFFFFFFFFFFFFFFFFFFFFFFFFFFFFFFFF AND SWAP1 DUP1 PUSH1 0x1 ADD SLOAD SWAP1 DUP1 PUSH1 0x2 ADD DUP1 SLOAD PUSH2 0xB98 SWAP1 PUSH2 0x17A8 JUMP JUMPDEST DUP1 PUSH1 0x1F ADD PUSH1 0x20 DUP1 SWAP2 DIV MUL PUSH1 0x20 ADD PUSH1 0x40 MLOAD SWAP1 DUP2 ADD PUSH1 0x40 MSTORE DUP1 SWAP3 SWAP2 SWAP1 DUP2 DUP2 MSTORE PUSH1 0x20 ADD DUP3 DUP1 SLOAD PUSH2 0xBC4 SWAP1 PUSH2 0x17A8 JUMP JUMPDEST DUP1 ISZERO PUSH2 0xC11 JUMPI DUP1 PUSH1 0x1F LT PUSH2 0xBE6 JUMPI PUSH2 0x100 DUP1 DUP4 SLOAD DIV MUL DUP4 MSTORE SWAP2 PUSH1 0x20 ADD SWAP2 PUSH2 0xC11 JUMP JUMPDEST DUP3 ADD SWAP2 SWAP1 PUSH1 0x0 MSTORE PUSH1 0x20 PUSH1 0x0 KECCAK256 SWAP1 JUMPDEST DUP2 SLOAD DUP2 MSTORE SWAP1 PUSH1 0x1 ADD SWAP1 PUSH1 0x20 ADD DUP1 DUP4 GT PUSH2 0xBF4 JUMPI DUP3 SWAP1 SUB PUSH1 0x1F AND DUP3 ADD SWAP2 JUMPDEST POP POP POP POP POP SWAP1 POP DUP4 JUMP JUMPDEST DUP1 PUSH1 0x5 PUSH1 0x0 CALLER PUSH20 0xFFFFFFFFFFFFFFFFFFFFFFFFFFFFFFFFFFFFFFFF AND PUSH20 0xFFFFFFFFFFFFFFFFFFFFFFFFFFFFFFFFFFFFFFFF AND DUP2 MSTORE PUSH1 0x20 ADD SWAP1 DUP2 MSTORE PUSH1 0x20 ADD PUSH1 0x0 KECCAK256 SWAP1 DUP1 MLOAD SWAP1 PUSH1 0x20 ADD SWAP1 PUSH2 0xC6E SWAP3 SWAP2 SWAP1 PUSH2 0xE3E JUMP JUMPDEST POP POP JUMP JUMPDEST PUSH1 0x1 DUP2 DUP2 SLOAD DUP2 LT PUSH2 0xC82 JUMPI PUSH1 0x0 DUP1 REVERT JUMPDEST SWAP1 PUSH1 0x0 MSTORE PUSH1 0x20 PUSH1 0x0 KECCAK256 ADD PUSH1 0x0 SWAP2 POP SLOAD SWAP1 PUSH2 0x100 EXP SWAP1 DIV PUSH20 0xFFFFFFFFFFFFFFFFFFFFFFFFFFFFFFFFFFFFFFFF AND DUP2 JUMP JUMPDEST PUSH1 0x6 PUSH1 0x0 PUSH2 0xCBF SWAP2 SWAP1 PUSH2 0xF04 JUMP JUMPDEST PUSH1 0x40 MLOAD DUP1 PUSH1 0x20 ADD PUSH1 0x40 MSTORE DUP1 PUSH1 0x0 DUP2 MSTORE POP PUSH1 0x2 SWAP1 DUP1 MLOAD SWAP1 PUSH1 0x20 ADD SWAP1 PUSH2 0xCE4 SWAP3 SWAP2 SWAP1 PUSH2 0xE3E JUMP JUMPDEST POP PUSH1 0x0 PUSH1 0x3 DUP2 SWAP1 SSTORE POP PUSH1 0x0 PUSH1 0x4 DUP2 SWAP1 SSTORE POP PUSH2 0xCFD PUSH2 0x7B8 JUMP JUMPDEST PUSH1 0x1 PUSH1 0x0 PUSH2 0xD0B SWAP2 SWAP1 PUSH2 0xF28 JUMP JUMPDEST PUSH1 0x7 PUSH1 0x0 PUSH2 0xD19 SWAP2 SWAP1 PUSH2 0xF49 JUMP JUMPDEST JUMP JUMPDEST PUSH1 0x4 SLOAD DUP2 JUMP JUMPDEST PUSH1 0x0 DUP1 SLOAD SWAP1 PUSH2 0x100 EXP SWAP1 DIV PUSH20 0xFFFFFFFFFFFFFFFFFFFFFFFFFFFFFFFFFFFFFFFF AND PUSH20 0xFFFFFFFFFFFFFFFFFFFFFFFFFFFFFFFFFFFFFFFF AND CALLER PUSH20 0xFFFFFFFFFFFFFFFFFFFFFFFFFFFFFFFFFFFFFFFF AND EQ PUSH2 0xDAF JUMPI PUSH1 0x40 MLOAD PUSH32 0x8C379A000000000000000000000000000000000000000000000000000000000 DUP2 MSTORE PUSH1 0x4 ADD PUSH2 0xDA6 SWAP1 PUSH2 0x18FF JUMP JUMPDEST PUSH1 0x40 MLOAD DUP1 SWAP2 SUB SWAP1 REVERT JUMPDEST DUP3 PUSH1 0x2 SWAP1 DUP1 MLOAD SWAP1 PUSH1 0x20 ADD SWAP1 PUSH2 0xDC5 SWAP3 SWAP2 SWAP1 PUSH2 0xE3E JUMP JUMPDEST POP DUP2 PUSH1 0x3 DUP2 SWAP1 SSTORE POP DUP1 PUSH1 0x4 DUP2 SWAP1 SSTORE POP POP POP POP JUMP JUMPDEST PUSH1 0x1 CALLER SWAP1 DUP1 PUSH1 0x1 DUP2 SLOAD ADD DUP1 DUP3 SSTORE DUP1 SWAP2 POP POP PUSH1 0x1 SWAP1 SUB SWAP1 PUSH1 0x0 MSTORE PUSH1 0x20 PUSH1 0x0 KECCAK256 ADD PUSH1 0x0 SWAP1 SWAP2 SWAP1 SWAP2 SWAP1 SWAP2 PUSH2 0x100 EXP DUP2 SLOAD DUP2 PUSH20 0xFFFFFFFFFFFFFFFFFFFFFFFFFFFFFFFFFFFFFFFF MUL NOT AND SWAP1 DUP4 PUSH20 0xFFFFFFFFFFFFFFFFFFFFFFFFFFFFFFFFFFFFFFFF AND MUL OR SWAP1 SSTORE POP JUMP JUMPDEST DUP3 DUP1 SLOAD PUSH2 0xE4A SWAP1 PUSH2 0x17A8 JUMP JUMPDEST SWAP1 PUSH1 0x0 MSTORE PUSH1 0x20 PUSH1 0x0 KECCAK256 SWAP1 PUSH1 0x1F ADD PUSH1 0x20 SWAP1 DIV DUP2 ADD SWAP3 DUP3 PUSH2 0xE6C JUMPI PUSH1 0x0 DUP6 SSTORE PUSH2 0xEB3 JUMP JUMPDEST DUP3 PUSH1 0x1F LT PUSH2 0xE85 JUMPI DUP1 MLOAD PUSH1 0xFF NOT AND DUP4 DUP1 ADD OR DUP6 SSTORE PUSH2 0xEB3 JUMP JUMPDEST DUP3 DUP1 ADD PUSH1 0x1 ADD DUP6 SSTORE DUP3 ISZERO PUSH2 0xEB3 JUMPI SWAP2 DUP3 ADD JUMPDEST DUP3 DUP2 GT ISZERO PUSH2 0xEB2 JUMPI DUP3 MLOAD DUP3 SSTORE SWAP2 PUSH1 0x20 ADD SWAP2 SWAP1 PUSH1 0x1 ADD SWAP1 PUSH2 0xE97 JUMP JUMPDEST JUMPDEST POP SWAP1 POP PUSH2 0xEC0 SWAP2 SWAP1 PUSH2 0xF6D JUMP JUMPDEST POP SWAP1 JUMP JUMPDEST POP DUP1 SLOAD PUSH2 0xED0 SWAP1 PUSH2 0x17A8 JUMP JUMPDEST PUSH1 0x0 DUP3 SSTORE DUP1 PUSH1 0x1F LT PUSH2 0xEE2 JUMPI POP PUSH2 0xF01 JUMP JUMPDEST PUSH1 0x1F ADD PUSH1 0x20 SWAP1 DIV SWAP1 PUSH1 0x0 MSTORE PUSH1 0x20 PUSH1 0x0 KECCAK256 SWAP1 DUP2 ADD SWAP1 PUSH2 0xF00 SWAP2 SWAP1 PUSH2 0xF6D JUMP JUMPDEST JUMPDEST POP JUMP JUMPDEST POP DUP1 SLOAD PUSH1 0x0 DUP3 SSTORE PUSH1 0x3 MUL SWAP1 PUSH1 0x0 MSTORE PUSH1 0x20 PUSH1 0x0 KECCAK256 SWAP1 DUP2 ADD SWAP1 PUSH2 0xF25 SWAP2 SWAP1 PUSH2 0xF8A JUMP JUMPDEST POP JUMP JUMPDEST POP DUP1 SLOAD PUSH1 0x0 DUP3 SSTORE SWAP1 PUSH1 0x0 MSTORE PUSH1 0x20 PUSH1 0x0 KECCAK256 SWAP1 DUP2 ADD SWAP1 PUSH2 0xF46 SWAP2 SWAP1 PUSH2 0xF6D JUMP JUMPDEST POP JUMP JUMPDEST POP DUP1 SLOAD PUSH1 0x0 DUP3 SSTORE PUSH1 0x3 MUL SWAP1 PUSH1 0x0 MSTORE PUSH1 0x20 PUSH1 0x0 KECCAK256 SWAP1 DUP2 ADD SWAP1 PUSH2 0xF6A SWAP2 SWAP1 PUSH2 0xFE0 JUMP JUMPDEST POP JUMP JUMPDEST JUMPDEST DUP1 DUP3 GT ISZERO PUSH2 0xF86 JUMPI PUSH1 0x0 DUP2 PUSH1 0x0 SWAP1 SSTORE POP PUSH1 0x1 ADD PUSH2 0xF6E JUMP JUMPDEST POP SWAP1 JUMP JUMPDEST JUMPDEST DUP1 DUP3 GT ISZERO PUSH2 0xFDC JUMPI PUSH1 0x0 DUP1 DUP3 ADD PUSH1 0x0 PUSH2 0x100 EXP DUP2 SLOAD SWAP1 PUSH20 0xFFFFFFFFFFFFFFFFFFFFFFFFFFFFFFFFFFFFFFFF MUL NOT AND SWAP1 SSTORE PUSH1 0x1 DUP3 ADD PUSH1 0x0 SWAP1 SSTORE PUSH1 0x2 DUP3 ADD PUSH1 0x0 PUSH2 0xFD3 SWAP2 SWAP1 PUSH2 0xEC4 JUMP JUMPDEST POP PUSH1 0x3 ADD PUSH2 0xF8B JUMP JUMPDEST POP SWAP1 JUMP JUMPDEST JUMPDEST DUP1 DUP3 GT ISZERO PUSH2 0x1032 JUMPI PUSH1 0x0 DUP1 DUP3 ADD PUSH1 0x0 SWAP1 SSTORE PUSH1 0x1 DUP3 ADD PUSH1 0x0 PUSH2 0x100 EXP DUP2 SLOAD SWAP1 PUSH20 0xFFFFFFFFFFFFFFFFFFFFFFFFFFFFFFFFFFFFFFFF MUL NOT AND SWAP1 SSTORE PUSH1 0x2 DUP3 ADD PUSH1 0x0 PUSH2 0x1029 SWAP2 SWAP1 PUSH2 0xEC4 JUMP JUMPDEST POP PUSH1 0x3 ADD PUSH2 0xFE1 JUMP JUMPDEST POP SWAP1 JUMP JUMPDEST PUSH1 0x0 PUSH1 0x40 MLOAD SWAP1 POP SWAP1 JUMP JUMPDEST PUSH1 0x0 DUP1 REVERT JUMPDEST PUSH1 0x0 DUP1 REVERT JUMPDEST PUSH1 0x0 PUSH20 0xFFFFFFFFFFFFFFFFFFFFFFFFFFFFFFFFFFFFFFFF DUP3 AND SWAP1 POP SWAP2 SWAP1 POP JUMP JUMPDEST PUSH1 0x0 PUSH2 0x1075 DUP3 PUSH2 0x104A JUMP JUMPDEST SWAP1 POP SWAP2 SWAP1 POP JUMP JUMPDEST PUSH2 0x1085 DUP2 PUSH2 0x106A JUMP JUMPDEST DUP2 EQ PUSH2 0x1090 JUMPI PUSH1 0x0 DUP1 REVERT JUMPDEST POP JUMP JUMPDEST PUSH1 0x0 DUP2 CALLDATALOAD SWAP1 POP PUSH2 0x10A2 DUP2 PUSH2 0x107C JUMP JUMPDEST SWAP3 SWAP2 POP POP JUMP JUMPDEST PUSH1 0x0 PUSH1 0x20 DUP3 DUP5 SUB SLT ISZERO PUSH2 0x10BE JUMPI PUSH2 0x10BD PUSH2 0x1040 JUMP JUMPDEST JUMPDEST PUSH1 0x0 PUSH2 0x10CC DUP5 DUP3 DUP6 ADD PUSH2 0x1093 JUMP JUMPDEST SWAP2 POP POP SWAP3 SWAP2 POP POP JUMP JUMPDEST PUSH1 0x0 DUP2 MLOAD SWAP1 POP SWAP2 SWAP1 POP JUMP JUMPDEST PUSH1 0x0 DUP3 DUP3 MSTORE PUSH1 0x20 DUP3 ADD SWAP1 POP SWAP3 SWAP2 POP POP JUMP JUMPDEST PUSH1 0x0 JUMPDEST DUP4 DUP2 LT ISZERO PUSH2 0x110F JUMPI DUP1 DUP3 ADD MLOAD DUP2 DUP5 ADD MSTORE PUSH1 0x20 DUP2 ADD SWAP1 POP PUSH2 0x10F4 JUMP JUMPDEST DUP4 DUP2 GT ISZERO PUSH2 0x111E JUMPI PUSH1 0x0 DUP5 DUP5 ADD MSTORE JUMPDEST POP POP POP POP JUMP JUMPDEST PUSH1 0x0 PUSH1 0x1F NOT PUSH1 0x1F DUP4 ADD AND SWAP1 POP SWAP2 SWAP1 POP JUMP JUMPDEST PUSH1 0x0 PUSH2 0x1140 DUP3 PUSH2 0x10D5 JUMP JUMPDEST PUSH2 0x114A DUP2 DUP6 PUSH2 0x10E0 JUMP JUMPDEST SWAP4 POP PUSH2 0x115A DUP2 DUP6 PUSH1 0x20 DUP7 ADD PUSH2 0x10F1 JUMP JUMPDEST PUSH2 0x1163 DUP2 PUSH2 0x1124 JUMP JUMPDEST DUP5 ADD SWAP2 POP POP SWAP3 SWAP2 POP POP JUMP JUMPDEST PUSH1 0x0 PUSH1 0x20 DUP3 ADD SWAP1 POP DUP2 DUP2 SUB PUSH1 0x0 DUP4 ADD MSTORE PUSH2 0x1188 DUP2 DUP5 PUSH2 0x1135 JUMP JUMPDEST SWAP1 POP SWAP3 SWAP2 POP POP JUMP JUMPDEST PUSH1 0x0 DUP2 SWAP1 POP SWAP2 SWAP1 POP JUMP JUMPDEST PUSH2 0x11A3 DUP2 PUSH2 0x1190 JUMP JUMPDEST DUP2 EQ PUSH2 0x11AE JUMPI PUSH1 0x0 DUP1 REVERT JUMPDEST POP JUMP JUMPDEST PUSH1 0x0 DUP2 CALLDATALOAD SWAP1 POP PUSH2 0x11C0 DUP2 PUSH2 0x119A JUMP JUMPDEST SWAP3 SWAP2 POP POP JUMP JUMPDEST PUSH1 0x0 DUP1 REVERT JUMPDEST PUSH1 0x0 DUP1 REVERT JUMPDEST PUSH32 0x4E487B7100000000000000000000000000000000000000000000000000000000 PUSH1 0x0 MSTORE PUSH1 0x41 PUSH1 0x4 MSTORE PUSH1 0x24 PUSH1 0x0 REVERT JUMPDEST PUSH2 0x1208 DUP3 PUSH2 0x1124 JUMP JUMPDEST DUP2 ADD DUP2 DUP2 LT PUSH8 0xFFFFFFFFFFFFFFFF DUP3 GT OR ISZERO PUSH2 0x1227 JUMPI PUSH2 0x1226 PUSH2 0x11D0 JUMP JUMPDEST JUMPDEST DUP1 PUSH1 0x40 MSTORE POP POP POP JUMP JUMPDEST PUSH1 0x0 PUSH2 0x123A PUSH2 0x1036 JUMP JUMPDEST SWAP1 POP PUSH2 0x1246 DUP3 DUP3 PUSH2 0x11FF JUMP JUMPDEST SWAP2 SWAP1 POP JUMP JUMPDEST PUSH1 0x0 PUSH8 0xFFFFFFFFFFFFFFFF DUP3 GT ISZERO PUSH2 0x1266 JUMPI PUSH2 0x1265 PUSH2 0x11D0 JUMP JUMPDEST JUMPDEST PUSH2 0x126F DUP3 PUSH2 0x1124 JUMP JUMPDEST SWAP1 POP PUSH1 0x20 DUP2 ADD SWAP1 POP SWAP2 SWAP1 POP JUMP JUMPDEST DUP3 DUP2 DUP4 CALLDATACOPY PUSH1 0x0 DUP4 DUP4 ADD MSTORE POP POP POP JUMP JUMPDEST PUSH1 0x0 PUSH2 0x129E PUSH2 0x1299 DUP5 PUSH2 0x124B JUMP JUMPDEST PUSH2 0x1230 JUMP JUMPDEST SWAP1 POP DUP3 DUP2 MSTORE PUSH1 0x20 DUP2 ADD DUP5 DUP5 DUP5 ADD GT ISZERO PUSH2 0x12BA JUMPI PUSH2 0x12B9 PUSH2 0x11CB JUMP JUMPDEST JUMPDEST PUSH2 0x12C5 DUP5 DUP3 DUP6 PUSH2 0x127C JUMP JUMPDEST POP SWAP4 SWAP3 POP POP POP JUMP JUMPDEST PUSH1 0x0 DUP3 PUSH1 0x1F DUP4 ADD SLT PUSH2 0x12E2 JUMPI PUSH2 0x12E1 PUSH2 0x11C6 JUMP JUMPDEST JUMPDEST DUP2 CALLDATALOAD PUSH2 0x12F2 DUP5 DUP3 PUSH1 0x20 DUP7 ADD PUSH2 0x128B JUMP JUMPDEST SWAP2 POP POP SWAP3 SWAP2 POP POP JUMP JUMPDEST PUSH1 0x0 DUP1 PUSH1 0x40 DUP4 DUP6 SUB SLT ISZERO PUSH2 0x1312 JUMPI PUSH2 0x1311 PUSH2 0x1040 JUMP JUMPDEST JUMPDEST PUSH1 0x0 PUSH2 0x1320 DUP6 DUP3 DUP7 ADD PUSH2 0x11B1 JUMP JUMPDEST SWAP3 POP POP PUSH1 0x20 DUP4 ADD CALLDATALOAD PUSH8 0xFFFFFFFFFFFFFFFF DUP2 GT ISZERO PUSH2 0x1341 JUMPI PUSH2 0x1340 PUSH2 0x1045 JUMP JUMPDEST JUMPDEST PUSH2 0x134D DUP6 DUP3 DUP7 ADD PUSH2 0x12CD JUMP JUMPDEST SWAP2 POP POP SWAP3 POP SWAP3 SWAP1 POP JUMP JUMPDEST PUSH2 0x1360 DUP2 PUSH2 0x1190 JUMP JUMPDEST DUP3 MSTORE POP POP JUMP JUMPDEST PUSH1 0x0 PUSH1 0x20 DUP3 ADD SWAP1 POP PUSH2 0x137B PUSH1 0x0 DUP4 ADD DUP5 PUSH2 0x1357 JUMP JUMPDEST SWAP3 SWAP2 POP POP JUMP JUMPDEST PUSH1 0x0 DUP2 MLOAD SWAP1 POP SWAP2 SWAP1 POP JUMP JUMPDEST PUSH1 0x0 DUP3 DUP3 MSTORE PUSH1 0x20 DUP3 ADD SWAP1 POP SWAP3 SWAP2 POP POP JUMP JUMPDEST PUSH1 0x0 DUP2 SWAP1 POP PUSH1 0x20 DUP3 ADD SWAP1 POP SWAP2 SWAP1 POP JUMP JUMPDEST PUSH2 0x13B6 DUP2 PUSH2 0x1190 JUMP JUMPDEST DUP3 MSTORE POP POP JUMP JUMPDEST PUSH2 0x13C5 DUP2 PUSH2 0x106A JUMP JUMPDEST DUP3 MSTORE POP POP JUMP JUMPDEST PUSH1 0x0 DUP3 DUP3 MSTORE PUSH1 0x20 DUP3 ADD SWAP1 POP SWAP3 SWAP2 POP POP JUMP JUMPDEST PUSH1 0x0 PUSH2 0x13E7 DUP3 PUSH2 0x10D5 JUMP JUMPDEST PUSH2 0x13F1 DUP2 DUP6 PUSH2 0x13CB JUMP JUMPDEST SWAP4 POP PUSH2 0x1401 DUP2 DUP6 PUSH1 0x20 DUP7 ADD PUSH2 0x10F1 JUMP JUMPDEST PUSH2 0x140A DUP2 PUSH2 0x1124 JUMP JUMPDEST DUP5 ADD SWAP2 POP POP SWAP3 SWAP2 POP POP JUMP JUMPDEST PUSH1 0x0 PUSH1 0x60 DUP4 ADD PUSH1 0x0 DUP4 ADD MLOAD PUSH2 0x142D PUSH1 0x0 DUP7 ADD DUP3 PUSH2 0x13AD JUMP JUMPDEST POP PUSH1 0x20 DUP4 ADD MLOAD PUSH2 0x1440 PUSH1 0x20 DUP7 ADD DUP3 PUSH2 0x13BC JUMP JUMPDEST POP PUSH1 0x40 DUP4 ADD MLOAD DUP5 DUP3 SUB PUSH1 0x40 DUP7 ADD MSTORE PUSH2 0x1458 DUP3 DUP3 PUSH2 0x13DC JUMP JUMPDEST SWAP2 POP POP DUP1 SWAP2 POP POP SWAP3 SWAP2 POP POP JUMP JUMPDEST PUSH1 0x0 PUSH2 0x1471 DUP4 DUP4 PUSH2 0x1415 JUMP JUMPDEST SWAP1 POP SWAP3 SWAP2 POP POP JUMP JUMPDEST PUSH1 0x0 PUSH1 0x20 DUP3 ADD SWAP1 POP SWAP2 SWAP1 POP JUMP JUMPDEST PUSH1 0x0 PUSH2 0x1491 DUP3 PUSH2 0x1381 JUMP JUMPDEST PUSH2 0x149B DUP2 DUP6 PUSH2 0x138C JUMP JUMPDEST SWAP4 POP DUP4 PUSH1 0x20 DUP3 MUL DUP6 ADD PUSH2 0x14AD DUP6 PUSH2 0x139D JUMP JUMPDEST DUP1 PUSH1 0x0 JUMPDEST DUP6 DUP2 LT ISZERO PUSH2 0x14E9 JUMPI DUP5 DUP5 SUB DUP10 MSTORE DUP2 MLOAD PUSH2 0x14CA DUP6 DUP3 PUSH2 0x1465 JUMP JUMPDEST SWAP5 POP PUSH2 0x14D5 DUP4 PUSH2 0x1479 JUMP JUMPDEST SWAP3 POP PUSH1 0x20 DUP11 ADD SWAP10 POP POP PUSH1 0x1 DUP2 ADD SWAP1 POP PUSH2 0x14B1 JUMP JUMPDEST POP DUP3 SWAP8 POP DUP8 SWAP6 POP POP POP POP POP POP SWAP3 SWAP2 POP POP JUMP JUMPDEST PUSH1 0x0 PUSH1 0x20 DUP3 ADD SWAP1 POP DUP2 DUP2 SUB PUSH1 0x0 DUP4 ADD MSTORE PUSH2 0x1515 DUP2 DUP5 PUSH2 0x1486 JUMP JUMPDEST SWAP1 POP SWAP3 SWAP2 POP POP JUMP JUMPDEST PUSH1 0x0 DUP2 MLOAD SWAP1 POP SWAP2 SWAP1 POP JUMP JUMPDEST PUSH1 0x0 DUP3 DUP3 MSTORE PUSH1 0x20 DUP3 ADD SWAP1 POP SWAP3 SWAP2 POP POP JUMP JUMPDEST PUSH1 0x0 DUP2 SWAP1 POP PUSH1 0x20 DUP3 ADD SWAP1 POP SWAP2 SWAP1 POP JUMP JUMPDEST PUSH1 0x0 PUSH2 0x1555 DUP4 DUP4 PUSH2 0x13BC JUMP JUMPDEST PUSH1 0x20 DUP4 ADD SWAP1 POP SWAP3 SWAP2 POP POP JUMP JUMPDEST PUSH1 0x0 PUSH1 0x20 DUP3 ADD SWAP1 POP SWAP2 SWAP1 POP JUMP JUMPDEST PUSH1 0x0 PUSH2 0x1579 DUP3 PUSH2 0x151D JUMP JUMPDEST PUSH2 0x1583 DUP2 DUP6 PUSH2 0x1528 JUMP JUMPDEST SWAP4 POP PUSH2 0x158E DUP4 PUSH2 0x1539 JUMP JUMPDEST DUP1 PUSH1 0x0 JUMPDEST DUP4 DUP2 LT ISZERO PUSH2 0x15BF JUMPI DUP2 MLOAD PUSH2 0x15A6 DUP9 DUP3 PUSH2 0x1549 JUMP JUMPDEST SWAP8 POP PUSH2 0x15B1 DUP4 PUSH2 0x1561 JUMP JUMPDEST SWAP3 POP POP PUSH1 0x1 DUP2 ADD SWAP1 POP PUSH2 0x1592 JUMP JUMPDEST POP DUP6 SWAP4 POP POP POP POP SWAP3 SWAP2 POP POP JUMP JUMPDEST PUSH1 0x0 PUSH1 0x20 DUP3 ADD SWAP1 POP DUP2 DUP2 SUB PUSH1 0x0 DUP4 ADD MSTORE PUSH2 0x15E6 DUP2 DUP5 PUSH2 0x156E JUMP JUMPDEST SWAP1 POP SWAP3 SWAP2 POP POP JUMP JUMPDEST PUSH1 0x0 PUSH1 0x20 DUP3 DUP5 SUB SLT ISZERO PUSH2 0x1604 JUMPI PUSH2 0x1603 PUSH2 0x1040 JUMP JUMPDEST JUMPDEST PUSH1 0x0 PUSH2 0x1612 DUP5 DUP3 DUP6 ADD PUSH2 0x11B1 JUMP JUMPDEST SWAP2 POP POP SWAP3 SWAP2 POP POP JUMP JUMPDEST PUSH2 0x1624 DUP2 PUSH2 0x106A JUMP JUMPDEST DUP3 MSTORE POP POP JUMP JUMPDEST PUSH1 0x0 PUSH1 0x20 DUP3 ADD SWAP1 POP PUSH2 0x163F PUSH1 0x0 DUP4 ADD DUP5 PUSH2 0x161B JUMP JUMPDEST SWAP3 SWAP2 POP POP JUMP JUMPDEST PUSH1 0x0 PUSH1 0x60 DUP3 ADD SWAP1 POP PUSH2 0x165A PUSH1 0x0 DUP4 ADD DUP7 PUSH2 0x1357 JUMP JUMPDEST PUSH2 0x1667 PUSH1 0x20 DUP4 ADD DUP6 PUSH2 0x161B JUMP JUMPDEST DUP2 DUP2 SUB PUSH1 0x40 DUP4 ADD MSTORE PUSH2 0x1679 DUP2 DUP5 PUSH2 0x1135 JUMP JUMPDEST SWAP1 POP SWAP5 SWAP4 POP POP POP POP JUMP JUMPDEST PUSH1 0x0 PUSH1 0x60 DUP3 ADD SWAP1 POP PUSH2 0x1698 PUSH1 0x0 DUP4 ADD DUP7 PUSH2 0x161B JUMP JUMPDEST PUSH2 0x16A5 PUSH1 0x20 DUP4 ADD DUP6 PUSH2 0x1357 JUMP JUMPDEST DUP2 DUP2 SUB PUSH1 0x40 DUP4 ADD MSTORE PUSH2 0x16B7 DUP2 DUP5 PUSH2 0x1135 JUMP JUMPDEST SWAP1 POP SWAP5 SWAP4 POP POP POP POP JUMP JUMPDEST PUSH1 0x0 PUSH1 0x20 DUP3 DUP5 SUB SLT ISZERO PUSH2 0x16D7 JUMPI PUSH2 0x16D6 PUSH2 0x1040 JUMP JUMPDEST JUMPDEST PUSH1 0x0 DUP3 ADD CALLDATALOAD PUSH8 0xFFFFFFFFFFFFFFFF DUP2 GT ISZERO PUSH2 0x16F5 JUMPI PUSH2 0x16F4 PUSH2 0x1045 JUMP JUMPDEST JUMPDEST PUSH2 0x1701 DUP5 DUP3 DUP6 ADD PUSH2 0x12CD JUMP JUMPDEST SWAP2 POP POP SWAP3 SWAP2 POP POP JUMP JUMPDEST PUSH1 0x0 DUP1 PUSH1 0x0 PUSH1 0x60 DUP5 DUP7 SUB SLT ISZERO PUSH2 0x1723 JUMPI PUSH2 0x1722 PUSH2 0x1040 JUMP JUMPDEST JUMPDEST PUSH1 0x0 DUP5 ADD CALLDATALOAD PUSH8 0xFFFFFFFFFFFFFFFF DUP2 GT ISZERO PUSH2 0x1741 JUMPI PUSH2 0x1740 PUSH2 0x1045 JUMP JUMPDEST JUMPDEST PUSH2 0x174D DUP7 DUP3 DUP8 ADD PUSH2 0x12CD JUMP JUMPDEST SWAP4 POP POP PUSH1 0x20 PUSH2 0x175E DUP7 DUP3 DUP8 ADD PUSH2 0x11B1 JUMP JUMPDEST SWAP3 POP POP PUSH1 0x40 PUSH2 0x176F DUP7 DUP3 DUP8 ADD PUSH2 0x11B1 JUMP JUMPDEST SWAP2 POP POP SWAP3 POP SWAP3 POP SWAP3 JUMP JUMPDEST PUSH32 0x4E487B7100000000000000000000000000000000000000000000000000000000 PUSH1 0x0 MSTORE PUSH1 0x22 PUSH1 0x4 MSTORE PUSH1 0x24 PUSH1 0x0 REVERT JUMPDEST PUSH1 0x0 PUSH1 0x2 DUP3 DIV SWAP1 POP PUSH1 0x1 DUP3 AND DUP1 PUSH2 0x17C0 JUMPI PUSH1 0x7F DUP3 AND SWAP2 POP JUMPDEST PUSH1 0x20 DUP3 LT DUP2 SUB PUSH2 0x17D3 JUMPI PUSH2 0x17D2 PUSH2 0x1779 JUMP JUMPDEST JUMPDEST POP SWAP2 SWAP1 POP JUMP JUMPDEST PUSH32 0x4E487B7100000000000000000000000000000000000000000000000000000000 PUSH1 0x0 MSTORE PUSH1 0x32 PUSH1 0x4 MSTORE PUSH1 0x24 PUSH1 0x0 REVERT JUMPDEST PUSH32 0x4E487B7100000000000000000000000000000000000000000000000000000000 PUSH1 0x0 MSTORE PUSH1 0x11 PUSH1 0x4 MSTORE PUSH1 0x24 PUSH1 0x0 REVERT JUMPDEST PUSH1 0x0 PUSH2 0x1842 DUP3 PUSH2 0x1190 JUMP JUMPDEST SWAP2 POP PUSH2 0x184D DUP4 PUSH2 0x1190 JUMP JUMPDEST SWAP3 POP DUP3 PUSH32 0xFFFFFFFFFFFFFFFFFFFFFFFFFFFFFFFFFFFFFFFFFFFFFFFFFFFFFFFFFFFFFFFF SUB DUP3 GT ISZERO PUSH2 0x1882 JUMPI PUSH2 0x1881 PUSH2 0x1808 JUMP JUMPDEST JUMPDEST DUP3 DUP3 ADD SWAP1 POP SWAP3 SWAP2 POP POP JUMP JUMPDEST PUSH32 0x4F6E6C792061756374696F6E6565722063616E2063616C6C2074686973206675 PUSH1 0x0 DUP3 ADD MSTORE PUSH32 0x6E6374696F6E2E00000000000000000000000000000000000000000000000000 PUSH1 0x20 DUP3 ADD MSTORE POP JUMP JUMPDEST PUSH1 0x0 PUSH2 0x18E9 PUSH1 0x27 DUP4 PUSH2 0x10E0 JUMP JUMPDEST SWAP2 POP PUSH2 0x18F4 DUP3 PUSH2 0x188D JUMP JUMPDEST PUSH1 0x40 DUP3 ADD SWAP1 POP SWAP2 SWAP1 POP JUMP JUMPDEST PUSH1 0x0 PUSH1 0x20 DUP3 ADD SWAP1 POP DUP2 DUP2 SUB PUSH1 0x0 DUP4 ADD MSTORE PUSH2 0x1918 DUP2 PUSH2 0x18DC JUMP JUMPDEST SWAP1 POP SWAP2 SWAP1 POP JUMP INVALID LOG2 PUSH5 0x6970667358 0x22 SLT KECCAK256 PUSH20 0xB2D0BDE88A402EE227262DC8A79EE9F7F52B17AA PUSH16 0xBF1435CCCD0063DBC2D464736F6C6343 STOP ADDMOD 0xE STOP CALLER "
				},
				"gasEstimates": {
					"creation": {
						"codeDepositCost": "1297000",
						"executionCost": "1349",
						"totalCost": "1298349"
					},
					"external": {
						"assetDescription()": "infinite",
						"bidders(uint256)": "4978",
						"dispute(uint256,string)": "infinite",
						"disputedBidders(uint256)": "infinite",
						"encodedBids(address)": "infinite",
						"getAllBidders()": "infinite",
						"getAllDisputers()": "infinite",
						"getBidderAddress(uint256)": "5056",
						"getEncodedBid(address)": "infinite",
						"getSampleString()": "infinite",
						"minBidPrice()": "2497",
						"minNumberOfBidders()": "2495",
						"registerAuctionInfo(string,uint256,uint256)": "infinite",
						"registerBidder()": "48832",
						"reset()": "infinite",
						"resetEncodedBids()": "infinite",
						"submitEncodedBid(string)": "infinite",
						"submitWinner(uint256,string)": "infinite",
						"winners(uint256)": "infinite"
					}
				},
				"methodIdentifiers": {
					"assetDescription()": "938626c2",
					"bidders(uint256)": "cff29dfd",
					"dispute(uint256,string)": "66c85dee",
					"disputedBidders(uint256)": "8f772f96",
					"encodedBids(address)": "3817df4c",
					"getAllBidders()": "3a79d2e5",
					"getAllDisputers()": "35abd160",
					"getBidderAddress(uint256)": "5fa38280",
					"getEncodedBid(address)": "05fb23cf",
					"getSampleString()": "83050daa",
					"minBidPrice()": "34eb86a2",
					"minNumberOfBidders()": "daa0218f",
					"registerAuctionInfo(string,uint256,uint256)": "e7d2a997",
					"registerBidder()": "f356733c",
					"reset()": "d826f88f",
					"resetEncodedBids()": "40bd5937",
					"submitEncodedBid(string)": "ca142b56",
					"submitWinner(uint256,string)": "1744e03b",
					"winners(uint256)": "a2fb1175"
				}
			},
			"storageLayout": {
				"storage": [
					{
						"astId": 3,
						"contract": "Contracts/AKEB.sol:AKEB",
						"label": "auctioneer",
						"offset": 0,
						"slot": "0",
						"type": "t_address"
					},
					{
						"astId": 6,
						"contract": "Contracts/AKEB.sol:AKEB",
						"label": "bidders",
						"offset": 0,
						"slot": "1",
						"type": "t_array(t_address)dyn_storage"
					},
					{
						"astId": 8,
						"contract": "Contracts/AKEB.sol:AKEB",
						"label": "assetDescription",
						"offset": 0,
						"slot": "2",
						"type": "t_string_storage"
					},
					{
						"astId": 10,
						"contract": "Contracts/AKEB.sol:AKEB",
						"label": "minBidPrice",
						"offset": 0,
						"slot": "3",
						"type": "t_uint256"
					},
					{
						"astId": 12,
						"contract": "Contracts/AKEB.sol:AKEB",
						"label": "minNumberOfBidders",
						"offset": 0,
						"slot": "4",
						"type": "t_uint256"
					},
					{
						"astId": 16,
						"contract": "Contracts/AKEB.sol:AKEB",
						"label": "encodedBids",
						"offset": 0,
						"slot": "5",
						"type": "t_mapping(t_address,t_string_storage)"
					},
					{
						"astId": 27,
						"contract": "Contracts/AKEB.sol:AKEB",
						"label": "winners",
						"offset": 0,
						"slot": "6",
						"type": "t_array(t_struct(winner)23_storage)dyn_storage"
					},
					{
						"astId": 38,
						"contract": "Contracts/AKEB.sol:AKEB",
						"label": "disputedBidders",
						"offset": 0,
						"slot": "7",
						"type": "t_array(t_struct(DisputedBidders)34_storage)dyn_storage"
					}
				],
				"types": {
					"t_address": {
						"encoding": "inplace",
						"label": "address",
						"numberOfBytes": "20"
					},
					"t_array(t_address)dyn_storage": {
						"base": "t_address",
						"encoding": "dynamic_array",
						"label": "address[]",
						"numberOfBytes": "32"
					},
					"t_array(t_struct(DisputedBidders)34_storage)dyn_storage": {
						"base": "t_struct(DisputedBidders)34_storage",
						"encoding": "dynamic_array",
						"label": "struct AKEB.DisputedBidders[]",
						"numberOfBytes": "32"
					},
					"t_array(t_struct(winner)23_storage)dyn_storage": {
						"base": "t_struct(winner)23_storage",
						"encoding": "dynamic_array",
						"label": "struct AKEB.winner[]",
						"numberOfBytes": "32"
					},
					"t_mapping(t_address,t_string_storage)": {
						"encoding": "mapping",
						"key": "t_address",
						"label": "mapping(address => string)",
						"numberOfBytes": "32",
						"value": "t_string_storage"
					},
					"t_string_storage": {
						"encoding": "bytes",
						"label": "string",
						"numberOfBytes": "32"
					},
					"t_struct(DisputedBidders)34_storage": {
						"encoding": "inplace",
						"label": "struct AKEB.DisputedBidders",
						"members": [
							{
								"astId": 29,
								"contract": "Contracts/AKEB.sol:AKEB",
								"label": "bid",
								"offset": 0,
								"slot": "0",
								"type": "t_uint256"
							},
							{
								"astId": 31,
								"contract": "Contracts/AKEB.sol:AKEB",
								"label": "disputeAddress",
								"offset": 0,
								"slot": "1",
								"type": "t_address"
							},
							{
								"astId": 33,
								"contract": "Contracts/AKEB.sol:AKEB",
								"label": "nonce",
								"offset": 0,
								"slot": "2",
								"type": "t_string_storage"
							}
						],
						"numberOfBytes": "96"
					},
					"t_struct(winner)23_storage": {
						"encoding": "inplace",
						"label": "struct AKEB.winner",
						"members": [
							{
								"astId": 18,
								"contract": "Contracts/AKEB.sol:AKEB",
								"label": "winnerAddress",
								"offset": 0,
								"slot": "0",
								"type": "t_address"
							},
							{
								"astId": 20,
								"contract": "Contracts/AKEB.sol:AKEB",
								"label": "bid",
								"offset": 0,
								"slot": "1",
								"type": "t_uint256"
							},
							{
								"astId": 22,
								"contract": "Contracts/AKEB.sol:AKEB",
								"label": "nonce",
								"offset": 0,
								"slot": "2",
								"type": "t_string_storage"
							}
						],
						"numberOfBytes": "96"
					},
					"t_uint256": {
						"encoding": "inplace",
						"label": "uint256",
						"numberOfBytes": "32"
					}
				}
			},
			"userdoc": {
				"kind": "user",
				"methods": {},
				"version": 1
			}
		}
	}
}