{
	"Contracts/AKEB.sol": {
		"AKEB": {
			"abi": [
				{
					"inputs": [],
					"stateMutability": "nonpayable",
					"type": "constructor"
				},
				{
					"inputs": [],
					"name": "assetDescription",
					"outputs": [
						{
							"internalType": "string",
							"name": "",
							"type": "string"
						}
					],
					"stateMutability": "view",
					"type": "function"
				},
				{
					"inputs": [
						{
							"internalType": "uint256",
							"name": "",
							"type": "uint256"
						}
					],
					"name": "bidders",
					"outputs": [
						{
							"internalType": "address",
							"name": "",
							"type": "address"
						}
					],
					"stateMutability": "view",
					"type": "function"
				},
				{
					"inputs": [],
					"name": "minBidPrice",
					"outputs": [
						{
							"internalType": "uint256",
							"name": "",
							"type": "uint256"
						}
					],
					"stateMutability": "view",
					"type": "function"
				},
				{
					"inputs": [],
					"name": "minNumberOfBidders",
					"outputs": [
						{
							"internalType": "uint256",
							"name": "",
							"type": "uint256"
						}
					],
					"stateMutability": "view",
					"type": "function"
				},
				{
					"inputs": [
						{
							"internalType": "address",
							"name": "",
							"type": "address"
						}
					],
					"name": "publicKeys",
					"outputs": [
						{
							"internalType": "bytes32",
							"name": "",
							"type": "bytes32"
						}
					],
					"stateMutability": "view",
					"type": "function"
				},
				{
					"inputs": [
						{
							"internalType": "string",
							"name": "assetDescriptionInput",
							"type": "string"
						},
						{
							"internalType": "uint256",
							"name": "minBidPriceInput",
							"type": "uint256"
						},
						{
							"internalType": "uint256",
							"name": "minNumberOfBiddersInput",
							"type": "uint256"
						}
					],
					"name": "registerAuctionInfo",
					"outputs": [],
					"stateMutability": "nonpayable",
					"type": "function"
				},
				{
					"inputs": [],
					"name": "registerBidder",
					"outputs": [],
					"stateMutability": "nonpayable",
					"type": "function"
				},
				{
					"inputs": [
						{
							"internalType": "address",
							"name": "inputAddress",
							"type": "address"
						},
						{
							"internalType": "bytes32",
							"name": "inputPublicKey",
							"type": "bytes32"
						}
					],
					"name": "submitPublicKeys",
					"outputs": [],
					"stateMutability": "nonpayable",
					"type": "function"
				}
			],
			"devdoc": {
				"kind": "dev",
				"methods": {},
				"version": 1
			},
			"evm": {
				"assembly": "    /* \"Contracts/AKEB.sol\":58:1210  contract AKEB {... */\n  mstore(0x40, 0x80)\n    /* \"Contracts/AKEB.sol\":291:349  constructor()... */\n  callvalue\n  dup1\n  iszero\n  tag_1\n  jumpi\n  0x00\n  dup1\n  revert\ntag_1:\n  pop\n    /* \"Contracts/AKEB.sol\":332:342  msg.sender */\n  caller\n    /* \"Contracts/AKEB.sol\":319:329  auctioneer */\n  0x00\n  dup1\n    /* \"Contracts/AKEB.sol\":319:342  auctioneer = msg.sender */\n  0x0100\n  exp\n  dup2\n  sload\n  dup2\n  0xffffffffffffffffffffffffffffffffffffffff\n  mul\n  not\n  and\n  swap1\n  dup4\n  0xffffffffffffffffffffffffffffffffffffffff\n  and\n  mul\n  or\n  swap1\n  sstore\n  pop\n    /* \"Contracts/AKEB.sol\":58:1210  contract AKEB {... */\n  dataSize(sub_0)\n  dup1\n  dataOffset(sub_0)\n  0x00\n  codecopy\n  0x00\n  return\nstop\n\nsub_0: assembly {\n        /* \"Contracts/AKEB.sol\":58:1210  contract AKEB {... */\n      mstore(0x40, 0x80)\n      callvalue\n      dup1\n      iszero\n      tag_1\n      jumpi\n      0x00\n      dup1\n      revert\n    tag_1:\n      pop\n      jumpi(tag_2, lt(calldatasize, 0x04))\n      shr(0xe0, calldataload(0x00))\n      dup1\n      0xdaa0218f\n      gt\n      tag_11\n      jumpi\n      dup1\n      0xdaa0218f\n      eq\n      tag_7\n      jumpi\n      dup1\n      0xe7d2a997\n      eq\n      tag_8\n      jumpi\n      dup1\n      0xe817071e\n      eq\n      tag_9\n      jumpi\n      dup1\n      0xf356733c\n      eq\n      tag_10\n      jumpi\n      jump(tag_2)\n    tag_11:\n      dup1\n      0x34eb86a2\n      eq\n      tag_3\n      jumpi\n      dup1\n      0x938626c2\n      eq\n      tag_4\n      jumpi\n      dup1\n      0xa3d6f9a9\n      eq\n      tag_5\n      jumpi\n      dup1\n      0xcff29dfd\n      eq\n      tag_6\n      jumpi\n    tag_2:\n      0x00\n      dup1\n      revert\n        /* \"Contracts/AKEB.sol\":168:194  uint256 public minBidPrice */\n    tag_3:\n      tag_12\n      tag_13\n      jump\t// in\n    tag_12:\n      mload(0x40)\n      tag_14\n      swap2\n      swap1\n      tag_15\n      jump\t// in\n    tag_14:\n      mload(0x40)\n      dup1\n      swap2\n      sub\n      swap1\n      return\n        /* \"Contracts/AKEB.sol\":132:162  string public assetDescription */\n    tag_4:\n      tag_16\n      tag_17\n      jump\t// in\n    tag_16:\n      mload(0x40)\n      tag_18\n      swap2\n      swap1\n      tag_19\n      jump\t// in\n    tag_18:\n      mload(0x40)\n      dup1\n      swap2\n      sub\n      swap1\n      return\n        /* \"Contracts/AKEB.sol\":239:284  mapping(address => bytes32) public publicKeys */\n    tag_5:\n      tag_20\n      0x04\n      dup1\n      calldatasize\n      sub\n      dup2\n      add\n      swap1\n      tag_21\n      swap2\n      swap1\n      tag_22\n      jump\t// in\n    tag_21:\n      tag_23\n      jump\t// in\n    tag_20:\n      mload(0x40)\n      tag_24\n      swap2\n      swap1\n      tag_25\n      jump\t// in\n    tag_24:\n      mload(0x40)\n      dup1\n      swap2\n      sub\n      swap1\n      return\n        /* \"Contracts/AKEB.sol\":102:126  address[] public bidders */\n    tag_6:\n      tag_26\n      0x04\n      dup1\n      calldatasize\n      sub\n      dup2\n      add\n      swap1\n      tag_27\n      swap2\n      swap1\n      tag_28\n      jump\t// in\n    tag_27:\n      tag_29\n      jump\t// in\n    tag_26:\n      mload(0x40)\n      tag_30\n      swap2\n      swap1\n      tag_31\n      jump\t// in\n    tag_30:\n      mload(0x40)\n      dup1\n      swap2\n      sub\n      swap1\n      return\n        /* \"Contracts/AKEB.sol\":200:233  uint256 public minNumberOfBidders */\n    tag_7:\n      tag_32\n      tag_33\n      jump\t// in\n    tag_32:\n      mload(0x40)\n      tag_34\n      swap2\n      swap1\n      tag_15\n      jump\t// in\n    tag_34:\n      mload(0x40)\n      dup1\n      swap2\n      sub\n      swap1\n      return\n        /* \"Contracts/AKEB.sol\":637:952  function registerAuctionInfo(string memory assetDescriptionInput, ... */\n    tag_8:\n      tag_35\n      0x04\n      dup1\n      calldatasize\n      sub\n      dup2\n      add\n      swap1\n      tag_36\n      swap2\n      swap1\n      tag_37\n      jump\t// in\n    tag_36:\n      tag_38\n      jump\t// in\n    tag_35:\n      stop\n        /* \"Contracts/AKEB.sol\":1072:1208  function submitPublicKeys(address inputAddress, bytes32 inputPublicKey) public{... */\n    tag_9:\n      tag_39\n      0x04\n      dup1\n      calldatasize\n      sub\n      dup2\n      add\n      swap1\n      tag_40\n      swap2\n      swap1\n      tag_41\n      jump\t// in\n    tag_40:\n      tag_42\n      jump\t// in\n    tag_39:\n      stop\n        /* \"Contracts/AKEB.sol\":958:1066  function registerBidder() public noAuctioneerInBidderRegistering() {... */\n    tag_10:\n      tag_43\n      tag_44\n      jump\t// in\n    tag_43:\n      stop\n        /* \"Contracts/AKEB.sol\":168:194  uint256 public minBidPrice */\n    tag_13:\n      sload(0x03)\n      dup2\n      jump\t// out\n        /* \"Contracts/AKEB.sol\":132:162  string public assetDescription */\n    tag_17:\n      0x02\n      dup1\n      sload\n      tag_45\n      swap1\n      tag_46\n      jump\t// in\n    tag_45:\n      dup1\n      0x1f\n      add\n      0x20\n      dup1\n      swap2\n      div\n      mul\n      0x20\n      add\n      mload(0x40)\n      swap1\n      dup2\n      add\n      0x40\n      mstore\n      dup1\n      swap3\n      swap2\n      swap1\n      dup2\n      dup2\n      mstore\n      0x20\n      add\n      dup3\n      dup1\n      sload\n      tag_47\n      swap1\n      tag_46\n      jump\t// in\n    tag_47:\n      dup1\n      iszero\n      tag_48\n      jumpi\n      dup1\n      0x1f\n      lt\n      tag_49\n      jumpi\n      0x0100\n      dup1\n      dup4\n      sload\n      div\n      mul\n      dup4\n      mstore\n      swap2\n      0x20\n      add\n      swap2\n      jump(tag_48)\n    tag_49:\n      dup3\n      add\n      swap2\n      swap1\n      0x00\n      mstore\n      keccak256(0x00, 0x20)\n      swap1\n    tag_50:\n      dup2\n      sload\n      dup2\n      mstore\n      swap1\n      0x01\n      add\n      swap1\n      0x20\n      add\n      dup1\n      dup4\n      gt\n      tag_50\n      jumpi\n      dup3\n      swap1\n      sub\n      0x1f\n      and\n      dup3\n      add\n      swap2\n    tag_48:\n      pop\n      pop\n      pop\n      pop\n      pop\n      dup2\n      jump\t// out\n        /* \"Contracts/AKEB.sol\":239:284  mapping(address => bytes32) public publicKeys */\n    tag_23:\n      mstore(0x20, 0x05)\n      dup1\n      0x00\n      mstore\n      keccak256(0x00, 0x40)\n      0x00\n      swap2\n      pop\n      swap1\n      pop\n      sload\n      dup2\n      jump\t// out\n        /* \"Contracts/AKEB.sol\":102:126  address[] public bidders */\n    tag_29:\n      0x01\n      dup2\n      dup2\n      sload\n      dup2\n      lt\n      tag_51\n      jumpi\n      0x00\n      dup1\n      revert\n    tag_51:\n      swap1\n      0x00\n      mstore\n      keccak256(0x00, 0x20)\n      add\n      0x00\n      swap2\n      pop\n      sload\n      swap1\n      0x0100\n      exp\n      swap1\n      div\n      0xffffffffffffffffffffffffffffffffffffffff\n      and\n      dup2\n      jump\t// out\n        /* \"Contracts/AKEB.sol\":200:233  uint256 public minNumberOfBidders */\n    tag_33:\n      sload(0x04)\n      dup2\n      jump\t// out\n        /* \"Contracts/AKEB.sol\":637:952  function registerAuctionInfo(string memory assetDescriptionInput, ... */\n    tag_38:\n        /* \"Contracts/AKEB.sol\":414:424  auctioneer */\n      0x00\n      dup1\n      sload\n      swap1\n      0x0100\n      exp\n      swap1\n      div\n      0xffffffffffffffffffffffffffffffffffffffff\n      and\n        /* \"Contracts/AKEB.sol\":400:424  msg.sender == auctioneer */\n      0xffffffffffffffffffffffffffffffffffffffff\n      and\n        /* \"Contracts/AKEB.sol\":400:410  msg.sender */\n      caller\n        /* \"Contracts/AKEB.sol\":400:424  msg.sender == auctioneer */\n      0xffffffffffffffffffffffffffffffffffffffff\n      and\n      eq\n        /* \"Contracts/AKEB.sol\":392:468  require(msg.sender == auctioneer, \"Only auctioneer can call this function.\") */\n      tag_54\n      jumpi\n      mload(0x40)\n      0x08c379a000000000000000000000000000000000000000000000000000000000\n      dup2\n      mstore\n      0x04\n      add\n      tag_55\n      swap1\n      tag_56\n      jump\t// in\n    tag_55:\n      mload(0x40)\n      dup1\n      swap2\n      sub\n      swap1\n      revert\n    tag_54:\n        /* \"Contracts/AKEB.sol\":830:851  assetDescriptionInput */\n      dup3\n        /* \"Contracts/AKEB.sol\":811:827  assetDescription */\n      0x02\n        /* \"Contracts/AKEB.sol\":811:851  assetDescription = assetDescriptionInput */\n      swap1\n      dup1\n      mload\n      swap1\n      0x20\n      add\n      swap1\n      tag_58\n      swap3\n      swap2\n      swap1\n      tag_59\n      jump\t// in\n    tag_58:\n      pop\n        /* \"Contracts/AKEB.sol\":875:891  minBidPriceInput */\n      dup2\n        /* \"Contracts/AKEB.sol\":861:872  minBidPrice */\n      0x03\n        /* \"Contracts/AKEB.sol\":861:891  minBidPrice = minBidPriceInput */\n      dup2\n      swap1\n      sstore\n      pop\n        /* \"Contracts/AKEB.sol\":922:945  minNumberOfBiddersInput */\n      dup1\n        /* \"Contracts/AKEB.sol\":901:919  minNumberOfBidders */\n      0x04\n        /* \"Contracts/AKEB.sol\":901:945  minNumberOfBidders = minNumberOfBiddersInput */\n      dup2\n      swap1\n      sstore\n      pop\n        /* \"Contracts/AKEB.sol\":637:952  function registerAuctionInfo(string memory assetDescriptionInput, ... */\n      pop\n      pop\n      pop\n      jump\t// out\n        /* \"Contracts/AKEB.sol\":1072:1208  function submitPublicKeys(address inputAddress, bytes32 inputPublicKey) public{... */\n    tag_42:\n        /* \"Contracts/AKEB.sol\":1187:1201  inputPublicKey */\n      dup1\n        /* \"Contracts/AKEB.sol\":1160:1170  publicKeys */\n      0x05\n        /* \"Contracts/AKEB.sol\":1160:1184  publicKeys[inputAddress] */\n      0x00\n        /* \"Contracts/AKEB.sol\":1171:1183  inputAddress */\n      dup5\n        /* \"Contracts/AKEB.sol\":1160:1184  publicKeys[inputAddress] */\n      0xffffffffffffffffffffffffffffffffffffffff\n      and\n      0xffffffffffffffffffffffffffffffffffffffff\n      and\n      dup2\n      mstore\n      0x20\n      add\n      swap1\n      dup2\n      mstore\n      0x20\n      add\n      0x00\n      keccak256\n        /* \"Contracts/AKEB.sol\":1160:1201  publicKeys[inputAddress] = inputPublicKey */\n      dup2\n      swap1\n      sstore\n      pop\n        /* \"Contracts/AKEB.sol\":1072:1208  function submitPublicKeys(address inputAddress, bytes32 inputPublicKey) public{... */\n      pop\n      pop\n      jump\t// out\n        /* \"Contracts/AKEB.sol\":958:1066  function registerBidder() public noAuctioneerInBidderRegistering() {... */\n    tag_44:\n        /* \"Contracts/AKEB.sol\":558:568  auctioneer */\n      0x00\n      dup1\n      sload\n      swap1\n      0x0100\n      exp\n      swap1\n      div\n      0xffffffffffffffffffffffffffffffffffffffff\n      and\n        /* \"Contracts/AKEB.sol\":544:568  msg.sender != auctioneer */\n      0xffffffffffffffffffffffffffffffffffffffff\n      and\n        /* \"Contracts/AKEB.sol\":544:554  msg.sender */\n      caller\n        /* \"Contracts/AKEB.sol\":544:568  msg.sender != auctioneer */\n      0xffffffffffffffffffffffffffffffffffffffff\n      and\n      sub\n        /* \"Contracts/AKEB.sol\":536:622  require(msg.sender != auctioneer, \"Auctioneer is not allowed to register as a bidder\") */\n      tag_62\n      jumpi\n      mload(0x40)\n      0x08c379a000000000000000000000000000000000000000000000000000000000\n      dup2\n      mstore\n      0x04\n      add\n      tag_63\n      swap1\n      tag_64\n      jump\t// in\n    tag_63:\n      mload(0x40)\n      dup1\n      swap2\n      sub\n      swap1\n      revert\n    tag_62:\n        /* \"Contracts/AKEB.sol\":1035:1042  bidders */\n      0x01\n        /* \"Contracts/AKEB.sol\":1048:1058  msg.sender */\n      caller\n        /* \"Contracts/AKEB.sol\":1035:1059  bidders.push(msg.sender) */\n      swap1\n      dup1\n      0x01\n      dup2\n      sload\n      add\n      dup1\n      dup3\n      sstore\n      dup1\n      swap2\n      pop\n      pop\n      0x01\n      swap1\n      sub\n      swap1\n      0x00\n      mstore\n      keccak256(0x00, 0x20)\n      add\n      0x00\n      swap1\n      swap2\n      swap1\n      swap2\n      swap1\n      swap2\n      0x0100\n      exp\n      dup2\n      sload\n      dup2\n      0xffffffffffffffffffffffffffffffffffffffff\n      mul\n      not\n      and\n      swap1\n      dup4\n      0xffffffffffffffffffffffffffffffffffffffff\n      and\n      mul\n      or\n      swap1\n      sstore\n      pop\n        /* \"Contracts/AKEB.sol\":958:1066  function registerBidder() public noAuctioneerInBidderRegistering() {... */\n      jump\t// out\n    tag_59:\n      dup3\n      dup1\n      sload\n      tag_67\n      swap1\n      tag_46\n      jump\t// in\n    tag_67:\n      swap1\n      0x00\n      mstore\n      keccak256(0x00, 0x20)\n      swap1\n      0x1f\n      add\n      0x20\n      swap1\n      div\n      dup2\n      add\n      swap3\n      dup3\n      tag_69\n      jumpi\n      0x00\n      dup6\n      sstore\n      jump(tag_68)\n    tag_69:\n      dup3\n      0x1f\n      lt\n      tag_70\n      jumpi\n      dup1\n      mload\n      not(0xff)\n      and\n      dup4\n      dup1\n      add\n      or\n      dup6\n      sstore\n      jump(tag_68)\n    tag_70:\n      dup3\n      dup1\n      add\n      0x01\n      add\n      dup6\n      sstore\n      dup3\n      iszero\n      tag_68\n      jumpi\n      swap2\n      dup3\n      add\n    tag_71:\n      dup3\n      dup2\n      gt\n      iszero\n      tag_72\n      jumpi\n      dup3\n      mload\n      dup3\n      sstore\n      swap2\n      0x20\n      add\n      swap2\n      swap1\n      0x01\n      add\n      swap1\n      jump(tag_71)\n    tag_72:\n    tag_68:\n      pop\n      swap1\n      pop\n      tag_73\n      swap2\n      swap1\n      tag_74\n      jump\t// in\n    tag_73:\n      pop\n      swap1\n      jump\t// out\n    tag_74:\n    tag_75:\n      dup1\n      dup3\n      gt\n      iszero\n      tag_76\n      jumpi\n      0x00\n      dup2\n      0x00\n      swap1\n      sstore\n      pop\n      0x01\n      add\n      jump(tag_75)\n    tag_76:\n      pop\n      swap1\n      jump\t// out\n        /* \"#utility.yul\":7:84   */\n    tag_77:\n        /* \"#utility.yul\":44:51   */\n      0x00\n        /* \"#utility.yul\":73:78   */\n      dup2\n        /* \"#utility.yul\":62:78   */\n      swap1\n      pop\n        /* \"#utility.yul\":7:84   */\n      swap2\n      swap1\n      pop\n      jump\t// out\n        /* \"#utility.yul\":90:208   */\n    tag_78:\n        /* \"#utility.yul\":177:201   */\n      tag_115\n        /* \"#utility.yul\":195:200   */\n      dup2\n        /* \"#utility.yul\":177:201   */\n      tag_77\n      jump\t// in\n    tag_115:\n        /* \"#utility.yul\":172:175   */\n      dup3\n        /* \"#utility.yul\":165:202   */\n      mstore\n        /* \"#utility.yul\":90:208   */\n      pop\n      pop\n      jump\t// out\n        /* \"#utility.yul\":214:436   */\n    tag_15:\n        /* \"#utility.yul\":307:311   */\n      0x00\n        /* \"#utility.yul\":345:347   */\n      0x20\n        /* \"#utility.yul\":334:343   */\n      dup3\n        /* \"#utility.yul\":330:348   */\n      add\n        /* \"#utility.yul\":322:348   */\n      swap1\n      pop\n        /* \"#utility.yul\":358:429   */\n      tag_117\n        /* \"#utility.yul\":426:427   */\n      0x00\n        /* \"#utility.yul\":415:424   */\n      dup4\n        /* \"#utility.yul\":411:428   */\n      add\n        /* \"#utility.yul\":402:408   */\n      dup5\n        /* \"#utility.yul\":358:429   */\n      tag_78\n      jump\t// in\n    tag_117:\n        /* \"#utility.yul\":214:436   */\n      swap3\n      swap2\n      pop\n      pop\n      jump\t// out\n        /* \"#utility.yul\":442:541   */\n    tag_79:\n        /* \"#utility.yul\":494:500   */\n      0x00\n        /* \"#utility.yul\":528:533   */\n      dup2\n        /* \"#utility.yul\":522:534   */\n      mload\n        /* \"#utility.yul\":512:534   */\n      swap1\n      pop\n        /* \"#utility.yul\":442:541   */\n      swap2\n      swap1\n      pop\n      jump\t// out\n        /* \"#utility.yul\":547:716   */\n    tag_80:\n        /* \"#utility.yul\":631:642   */\n      0x00\n        /* \"#utility.yul\":665:671   */\n      dup3\n        /* \"#utility.yul\":660:663   */\n      dup3\n        /* \"#utility.yul\":653:672   */\n      mstore\n        /* \"#utility.yul\":705:709   */\n      0x20\n        /* \"#utility.yul\":700:703   */\n      dup3\n        /* \"#utility.yul\":696:710   */\n      add\n        /* \"#utility.yul\":681:710   */\n      swap1\n      pop\n        /* \"#utility.yul\":547:716   */\n      swap3\n      swap2\n      pop\n      pop\n      jump\t// out\n        /* \"#utility.yul\":722:1029   */\n    tag_81:\n        /* \"#utility.yul\":790:791   */\n      0x00\n        /* \"#utility.yul\":800:913   */\n    tag_121:\n        /* \"#utility.yul\":814:820   */\n      dup4\n        /* \"#utility.yul\":811:812   */\n      dup2\n        /* \"#utility.yul\":808:821   */\n      lt\n        /* \"#utility.yul\":800:913   */\n      iszero\n      tag_123\n      jumpi\n        /* \"#utility.yul\":899:900   */\n      dup1\n        /* \"#utility.yul\":894:897   */\n      dup3\n        /* \"#utility.yul\":890:901   */\n      add\n        /* \"#utility.yul\":884:902   */\n      mload\n        /* \"#utility.yul\":880:881   */\n      dup2\n        /* \"#utility.yul\":875:878   */\n      dup5\n        /* \"#utility.yul\":871:882   */\n      add\n        /* \"#utility.yul\":864:903   */\n      mstore\n        /* \"#utility.yul\":836:838   */\n      0x20\n        /* \"#utility.yul\":833:834   */\n      dup2\n        /* \"#utility.yul\":829:839   */\n      add\n        /* \"#utility.yul\":824:839   */\n      swap1\n      pop\n        /* \"#utility.yul\":800:913   */\n      jump(tag_121)\n    tag_123:\n        /* \"#utility.yul\":931:937   */\n      dup4\n        /* \"#utility.yul\":928:929   */\n      dup2\n        /* \"#utility.yul\":925:938   */\n      gt\n        /* \"#utility.yul\":922:1023   */\n      iszero\n      tag_124\n      jumpi\n        /* \"#utility.yul\":1011:1012   */\n      0x00\n        /* \"#utility.yul\":1002:1008   */\n      dup5\n        /* \"#utility.yul\":997:1000   */\n      dup5\n        /* \"#utility.yul\":993:1009   */\n      add\n        /* \"#utility.yul\":986:1013   */\n      mstore\n        /* \"#utility.yul\":922:1023   */\n    tag_124:\n        /* \"#utility.yul\":771:1029   */\n      pop\n        /* \"#utility.yul\":722:1029   */\n      pop\n      pop\n      pop\n      jump\t// out\n        /* \"#utility.yul\":1035:1137   */\n    tag_82:\n        /* \"#utility.yul\":1076:1082   */\n      0x00\n        /* \"#utility.yul\":1127:1129   */\n      0x1f\n        /* \"#utility.yul\":1123:1130   */\n      not\n        /* \"#utility.yul\":1118:1120   */\n      0x1f\n        /* \"#utility.yul\":1111:1116   */\n      dup4\n        /* \"#utility.yul\":1107:1121   */\n      add\n        /* \"#utility.yul\":1103:1131   */\n      and\n        /* \"#utility.yul\":1093:1131   */\n      swap1\n      pop\n        /* \"#utility.yul\":1035:1137   */\n      swap2\n      swap1\n      pop\n      jump\t// out\n        /* \"#utility.yul\":1143:1507   */\n    tag_83:\n        /* \"#utility.yul\":1231:1234   */\n      0x00\n        /* \"#utility.yul\":1259:1298   */\n      tag_127\n        /* \"#utility.yul\":1292:1297   */\n      dup3\n        /* \"#utility.yul\":1259:1298   */\n      tag_79\n      jump\t// in\n    tag_127:\n        /* \"#utility.yul\":1314:1385   */\n      tag_128\n        /* \"#utility.yul\":1378:1384   */\n      dup2\n        /* \"#utility.yul\":1373:1376   */\n      dup6\n        /* \"#utility.yul\":1314:1385   */\n      tag_80\n      jump\t// in\n    tag_128:\n        /* \"#utility.yul\":1307:1385   */\n      swap4\n      pop\n        /* \"#utility.yul\":1394:1446   */\n      tag_129\n        /* \"#utility.yul\":1439:1445   */\n      dup2\n        /* \"#utility.yul\":1434:1437   */\n      dup6\n        /* \"#utility.yul\":1427:1431   */\n      0x20\n        /* \"#utility.yul\":1420:1425   */\n      dup7\n        /* \"#utility.yul\":1416:1432   */\n      add\n        /* \"#utility.yul\":1394:1446   */\n      tag_81\n      jump\t// in\n    tag_129:\n        /* \"#utility.yul\":1471:1500   */\n      tag_130\n        /* \"#utility.yul\":1493:1499   */\n      dup2\n        /* \"#utility.yul\":1471:1500   */\n      tag_82\n      jump\t// in\n    tag_130:\n        /* \"#utility.yul\":1466:1469   */\n      dup5\n        /* \"#utility.yul\":1462:1501   */\n      add\n        /* \"#utility.yul\":1455:1501   */\n      swap2\n      pop\n        /* \"#utility.yul\":1235:1507   */\n      pop\n        /* \"#utility.yul\":1143:1507   */\n      swap3\n      swap2\n      pop\n      pop\n      jump\t// out\n        /* \"#utility.yul\":1513:1826   */\n    tag_19:\n        /* \"#utility.yul\":1626:1630   */\n      0x00\n        /* \"#utility.yul\":1664:1666   */\n      0x20\n        /* \"#utility.yul\":1653:1662   */\n      dup3\n        /* \"#utility.yul\":1649:1667   */\n      add\n        /* \"#utility.yul\":1641:1667   */\n      swap1\n      pop\n        /* \"#utility.yul\":1713:1722   */\n      dup2\n        /* \"#utility.yul\":1707:1711   */\n      dup2\n        /* \"#utility.yul\":1703:1723   */\n      sub\n        /* \"#utility.yul\":1699:1700   */\n      0x00\n        /* \"#utility.yul\":1688:1697   */\n      dup4\n        /* \"#utility.yul\":1684:1701   */\n      add\n        /* \"#utility.yul\":1677:1724   */\n      mstore\n        /* \"#utility.yul\":1741:1819   */\n      tag_132\n        /* \"#utility.yul\":1814:1818   */\n      dup2\n        /* \"#utility.yul\":1805:1811   */\n      dup5\n        /* \"#utility.yul\":1741:1819   */\n      tag_83\n      jump\t// in\n    tag_132:\n        /* \"#utility.yul\":1733:1819   */\n      swap1\n      pop\n        /* \"#utility.yul\":1513:1826   */\n      swap3\n      swap2\n      pop\n      pop\n      jump\t// out\n        /* \"#utility.yul\":1832:1907   */\n    tag_84:\n        /* \"#utility.yul\":1865:1871   */\n      0x00\n        /* \"#utility.yul\":1898:1900   */\n      0x40\n        /* \"#utility.yul\":1892:1901   */\n      mload\n        /* \"#utility.yul\":1882:1901   */\n      swap1\n      pop\n        /* \"#utility.yul\":1832:1907   */\n      swap1\n      jump\t// out\n        /* \"#utility.yul\":1913:2030   */\n    tag_85:\n        /* \"#utility.yul\":2022:2023   */\n      0x00\n        /* \"#utility.yul\":2019:2020   */\n      dup1\n        /* \"#utility.yul\":2012:2024   */\n      revert\n        /* \"#utility.yul\":2036:2153   */\n    tag_86:\n        /* \"#utility.yul\":2145:2146   */\n      0x00\n        /* \"#utility.yul\":2142:2143   */\n      dup1\n        /* \"#utility.yul\":2135:2147   */\n      revert\n        /* \"#utility.yul\":2159:2285   */\n    tag_87:\n        /* \"#utility.yul\":2196:2203   */\n      0x00\n        /* \"#utility.yul\":2236:2278   */\n      0xffffffffffffffffffffffffffffffffffffffff\n        /* \"#utility.yul\":2229:2234   */\n      dup3\n        /* \"#utility.yul\":2225:2279   */\n      and\n        /* \"#utility.yul\":2214:2279   */\n      swap1\n      pop\n        /* \"#utility.yul\":2159:2285   */\n      swap2\n      swap1\n      pop\n      jump\t// out\n        /* \"#utility.yul\":2291:2387   */\n    tag_88:\n        /* \"#utility.yul\":2328:2335   */\n      0x00\n        /* \"#utility.yul\":2357:2381   */\n      tag_138\n        /* \"#utility.yul\":2375:2380   */\n      dup3\n        /* \"#utility.yul\":2357:2381   */\n      tag_87\n      jump\t// in\n    tag_138:\n        /* \"#utility.yul\":2346:2381   */\n      swap1\n      pop\n        /* \"#utility.yul\":2291:2387   */\n      swap2\n      swap1\n      pop\n      jump\t// out\n        /* \"#utility.yul\":2393:2515   */\n    tag_89:\n        /* \"#utility.yul\":2466:2490   */\n      tag_140\n        /* \"#utility.yul\":2484:2489   */\n      dup2\n        /* \"#utility.yul\":2466:2490   */\n      tag_88\n      jump\t// in\n    tag_140:\n        /* \"#utility.yul\":2459:2464   */\n      dup2\n        /* \"#utility.yul\":2456:2491   */\n      eq\n        /* \"#utility.yul\":2446:2509   */\n      tag_141\n      jumpi\n        /* \"#utility.yul\":2505:2506   */\n      0x00\n        /* \"#utility.yul\":2502:2503   */\n      dup1\n        /* \"#utility.yul\":2495:2507   */\n      revert\n        /* \"#utility.yul\":2446:2509   */\n    tag_141:\n        /* \"#utility.yul\":2393:2515   */\n      pop\n      jump\t// out\n        /* \"#utility.yul\":2521:2660   */\n    tag_90:\n        /* \"#utility.yul\":2567:2572   */\n      0x00\n        /* \"#utility.yul\":2605:2611   */\n      dup2\n        /* \"#utility.yul\":2592:2612   */\n      calldataload\n        /* \"#utility.yul\":2583:2612   */\n      swap1\n      pop\n        /* \"#utility.yul\":2621:2654   */\n      tag_143\n        /* \"#utility.yul\":2648:2653   */\n      dup2\n        /* \"#utility.yul\":2621:2654   */\n      tag_89\n      jump\t// in\n    tag_143:\n        /* \"#utility.yul\":2521:2660   */\n      swap3\n      swap2\n      pop\n      pop\n      jump\t// out\n        /* \"#utility.yul\":2666:2995   */\n    tag_22:\n        /* \"#utility.yul\":2725:2731   */\n      0x00\n        /* \"#utility.yul\":2774:2776   */\n      0x20\n        /* \"#utility.yul\":2762:2771   */\n      dup3\n        /* \"#utility.yul\":2753:2760   */\n      dup5\n        /* \"#utility.yul\":2749:2772   */\n      sub\n        /* \"#utility.yul\":2745:2777   */\n      slt\n        /* \"#utility.yul\":2742:2861   */\n      iszero\n      tag_145\n      jumpi\n        /* \"#utility.yul\":2780:2859   */\n      tag_146\n      tag_85\n      jump\t// in\n    tag_146:\n        /* \"#utility.yul\":2742:2861   */\n    tag_145:\n        /* \"#utility.yul\":2900:2901   */\n      0x00\n        /* \"#utility.yul\":2925:2978   */\n      tag_147\n        /* \"#utility.yul\":2970:2977   */\n      dup5\n        /* \"#utility.yul\":2961:2967   */\n      dup3\n        /* \"#utility.yul\":2950:2959   */\n      dup6\n        /* \"#utility.yul\":2946:2968   */\n      add\n        /* \"#utility.yul\":2925:2978   */\n      tag_90\n      jump\t// in\n    tag_147:\n        /* \"#utility.yul\":2915:2978   */\n      swap2\n      pop\n        /* \"#utility.yul\":2871:2988   */\n      pop\n        /* \"#utility.yul\":2666:2995   */\n      swap3\n      swap2\n      pop\n      pop\n      jump\t// out\n        /* \"#utility.yul\":3001:3078   */\n    tag_91:\n        /* \"#utility.yul\":3038:3045   */\n      0x00\n        /* \"#utility.yul\":3067:3072   */\n      dup2\n        /* \"#utility.yul\":3056:3072   */\n      swap1\n      pop\n        /* \"#utility.yul\":3001:3078   */\n      swap2\n      swap1\n      pop\n      jump\t// out\n        /* \"#utility.yul\":3084:3202   */\n    tag_92:\n        /* \"#utility.yul\":3171:3195   */\n      tag_150\n        /* \"#utility.yul\":3189:3194   */\n      dup2\n        /* \"#utility.yul\":3171:3195   */\n      tag_91\n      jump\t// in\n    tag_150:\n        /* \"#utility.yul\":3166:3169   */\n      dup3\n        /* \"#utility.yul\":3159:3196   */\n      mstore\n        /* \"#utility.yul\":3084:3202   */\n      pop\n      pop\n      jump\t// out\n        /* \"#utility.yul\":3208:3430   */\n    tag_25:\n        /* \"#utility.yul\":3301:3305   */\n      0x00\n        /* \"#utility.yul\":3339:3341   */\n      0x20\n        /* \"#utility.yul\":3328:3337   */\n      dup3\n        /* \"#utility.yul\":3324:3342   */\n      add\n        /* \"#utility.yul\":3316:3342   */\n      swap1\n      pop\n        /* \"#utility.yul\":3352:3423   */\n      tag_152\n        /* \"#utility.yul\":3420:3421   */\n      0x00\n        /* \"#utility.yul\":3409:3418   */\n      dup4\n        /* \"#utility.yul\":3405:3422   */\n      add\n        /* \"#utility.yul\":3396:3402   */\n      dup5\n        /* \"#utility.yul\":3352:3423   */\n      tag_92\n      jump\t// in\n    tag_152:\n        /* \"#utility.yul\":3208:3430   */\n      swap3\n      swap2\n      pop\n      pop\n      jump\t// out\n        /* \"#utility.yul\":3436:3558   */\n    tag_93:\n        /* \"#utility.yul\":3509:3533   */\n      tag_154\n        /* \"#utility.yul\":3527:3532   */\n      dup2\n        /* \"#utility.yul\":3509:3533   */\n      tag_77\n      jump\t// in\n    tag_154:\n        /* \"#utility.yul\":3502:3507   */\n      dup2\n        /* \"#utility.yul\":3499:3534   */\n      eq\n        /* \"#utility.yul\":3489:3552   */\n      tag_155\n      jumpi\n        /* \"#utility.yul\":3548:3549   */\n      0x00\n        /* \"#utility.yul\":3545:3546   */\n      dup1\n        /* \"#utility.yul\":3538:3550   */\n      revert\n        /* \"#utility.yul\":3489:3552   */\n    tag_155:\n        /* \"#utility.yul\":3436:3558   */\n      pop\n      jump\t// out\n        /* \"#utility.yul\":3564:3703   */\n    tag_94:\n        /* \"#utility.yul\":3610:3615   */\n      0x00\n        /* \"#utility.yul\":3648:3654   */\n      dup2\n        /* \"#utility.yul\":3635:3655   */\n      calldataload\n        /* \"#utility.yul\":3626:3655   */\n      swap1\n      pop\n        /* \"#utility.yul\":3664:3697   */\n      tag_157\n        /* \"#utility.yul\":3691:3696   */\n      dup2\n        /* \"#utility.yul\":3664:3697   */\n      tag_93\n      jump\t// in\n    tag_157:\n        /* \"#utility.yul\":3564:3703   */\n      swap3\n      swap2\n      pop\n      pop\n      jump\t// out\n        /* \"#utility.yul\":3709:4038   */\n    tag_28:\n        /* \"#utility.yul\":3768:3774   */\n      0x00\n        /* \"#utility.yul\":3817:3819   */\n      0x20\n        /* \"#utility.yul\":3805:3814   */\n      dup3\n        /* \"#utility.yul\":3796:3803   */\n      dup5\n        /* \"#utility.yul\":3792:3815   */\n      sub\n        /* \"#utility.yul\":3788:3820   */\n      slt\n        /* \"#utility.yul\":3785:3904   */\n      iszero\n      tag_159\n      jumpi\n        /* \"#utility.yul\":3823:3902   */\n      tag_160\n      tag_85\n      jump\t// in\n    tag_160:\n        /* \"#utility.yul\":3785:3904   */\n    tag_159:\n        /* \"#utility.yul\":3943:3944   */\n      0x00\n        /* \"#utility.yul\":3968:4021   */\n      tag_161\n        /* \"#utility.yul\":4013:4020   */\n      dup5\n        /* \"#utility.yul\":4004:4010   */\n      dup3\n        /* \"#utility.yul\":3993:4002   */\n      dup6\n        /* \"#utility.yul\":3989:4011   */\n      add\n        /* \"#utility.yul\":3968:4021   */\n      tag_94\n      jump\t// in\n    tag_161:\n        /* \"#utility.yul\":3958:4021   */\n      swap2\n      pop\n        /* \"#utility.yul\":3914:4031   */\n      pop\n        /* \"#utility.yul\":3709:4038   */\n      swap3\n      swap2\n      pop\n      pop\n      jump\t// out\n        /* \"#utility.yul\":4044:4162   */\n    tag_95:\n        /* \"#utility.yul\":4131:4155   */\n      tag_163\n        /* \"#utility.yul\":4149:4154   */\n      dup2\n        /* \"#utility.yul\":4131:4155   */\n      tag_88\n      jump\t// in\n    tag_163:\n        /* \"#utility.yul\":4126:4129   */\n      dup3\n        /* \"#utility.yul\":4119:4156   */\n      mstore\n        /* \"#utility.yul\":4044:4162   */\n      pop\n      pop\n      jump\t// out\n        /* \"#utility.yul\":4168:4390   */\n    tag_31:\n        /* \"#utility.yul\":4261:4265   */\n      0x00\n        /* \"#utility.yul\":4299:4301   */\n      0x20\n        /* \"#utility.yul\":4288:4297   */\n      dup3\n        /* \"#utility.yul\":4284:4302   */\n      add\n        /* \"#utility.yul\":4276:4302   */\n      swap1\n      pop\n        /* \"#utility.yul\":4312:4383   */\n      tag_165\n        /* \"#utility.yul\":4380:4381   */\n      0x00\n        /* \"#utility.yul\":4369:4378   */\n      dup4\n        /* \"#utility.yul\":4365:4382   */\n      add\n        /* \"#utility.yul\":4356:4362   */\n      dup5\n        /* \"#utility.yul\":4312:4383   */\n      tag_95\n      jump\t// in\n    tag_165:\n        /* \"#utility.yul\":4168:4390   */\n      swap3\n      swap2\n      pop\n      pop\n      jump\t// out\n        /* \"#utility.yul\":4396:4513   */\n    tag_96:\n        /* \"#utility.yul\":4505:4506   */\n      0x00\n        /* \"#utility.yul\":4502:4503   */\n      dup1\n        /* \"#utility.yul\":4495:4507   */\n      revert\n        /* \"#utility.yul\":4519:4636   */\n    tag_97:\n        /* \"#utility.yul\":4628:4629   */\n      0x00\n        /* \"#utility.yul\":4625:4626   */\n      dup1\n        /* \"#utility.yul\":4618:4630   */\n      revert\n        /* \"#utility.yul\":4642:4822   */\n    tag_98:\n        /* \"#utility.yul\":4690:4767   */\n      0x4e487b7100000000000000000000000000000000000000000000000000000000\n        /* \"#utility.yul\":4687:4688   */\n      0x00\n        /* \"#utility.yul\":4680:4768   */\n      mstore\n        /* \"#utility.yul\":4787:4791   */\n      0x41\n        /* \"#utility.yul\":4784:4785   */\n      0x04\n        /* \"#utility.yul\":4777:4792   */\n      mstore\n        /* \"#utility.yul\":4811:4815   */\n      0x24\n        /* \"#utility.yul\":4808:4809   */\n      0x00\n        /* \"#utility.yul\":4801:4816   */\n      revert\n        /* \"#utility.yul\":4828:5109   */\n    tag_99:\n        /* \"#utility.yul\":4911:4938   */\n      tag_170\n        /* \"#utility.yul\":4933:4937   */\n      dup3\n        /* \"#utility.yul\":4911:4938   */\n      tag_82\n      jump\t// in\n    tag_170:\n        /* \"#utility.yul\":4903:4909   */\n      dup2\n        /* \"#utility.yul\":4899:4939   */\n      add\n        /* \"#utility.yul\":5041:5047   */\n      dup2\n        /* \"#utility.yul\":5029:5039   */\n      dup2\n        /* \"#utility.yul\":5026:5048   */\n      lt\n        /* \"#utility.yul\":5005:5023   */\n      0xffffffffffffffff\n        /* \"#utility.yul\":4993:5003   */\n      dup3\n        /* \"#utility.yul\":4990:5024   */\n      gt\n        /* \"#utility.yul\":4987:5049   */\n      or\n        /* \"#utility.yul\":4984:5072   */\n      iszero\n      tag_171\n      jumpi\n        /* \"#utility.yul\":5052:5070   */\n      tag_172\n      tag_98\n      jump\t// in\n    tag_172:\n        /* \"#utility.yul\":4984:5072   */\n    tag_171:\n        /* \"#utility.yul\":5092:5102   */\n      dup1\n        /* \"#utility.yul\":5088:5090   */\n      0x40\n        /* \"#utility.yul\":5081:5103   */\n      mstore\n        /* \"#utility.yul\":4871:5109   */\n      pop\n        /* \"#utility.yul\":4828:5109   */\n      pop\n      pop\n      jump\t// out\n        /* \"#utility.yul\":5115:5244   */\n    tag_100:\n        /* \"#utility.yul\":5149:5155   */\n      0x00\n        /* \"#utility.yul\":5176:5196   */\n      tag_174\n      tag_84\n      jump\t// in\n    tag_174:\n        /* \"#utility.yul\":5166:5196   */\n      swap1\n      pop\n        /* \"#utility.yul\":5205:5238   */\n      tag_175\n        /* \"#utility.yul\":5233:5237   */\n      dup3\n        /* \"#utility.yul\":5225:5231   */\n      dup3\n        /* \"#utility.yul\":5205:5238   */\n      tag_99\n      jump\t// in\n    tag_175:\n        /* \"#utility.yul\":5115:5244   */\n      swap2\n      swap1\n      pop\n      jump\t// out\n        /* \"#utility.yul\":5250:5558   */\n    tag_101:\n        /* \"#utility.yul\":5312:5316   */\n      0x00\n        /* \"#utility.yul\":5402:5420   */\n      0xffffffffffffffff\n        /* \"#utility.yul\":5394:5400   */\n      dup3\n        /* \"#utility.yul\":5391:5421   */\n      gt\n        /* \"#utility.yul\":5388:5444   */\n      iszero\n      tag_177\n      jumpi\n        /* \"#utility.yul\":5424:5442   */\n      tag_178\n      tag_98\n      jump\t// in\n    tag_178:\n        /* \"#utility.yul\":5388:5444   */\n    tag_177:\n        /* \"#utility.yul\":5462:5491   */\n      tag_179\n        /* \"#utility.yul\":5484:5490   */\n      dup3\n        /* \"#utility.yul\":5462:5491   */\n      tag_82\n      jump\t// in\n    tag_179:\n        /* \"#utility.yul\":5454:5491   */\n      swap1\n      pop\n        /* \"#utility.yul\":5546:5550   */\n      0x20\n        /* \"#utility.yul\":5540:5544   */\n      dup2\n        /* \"#utility.yul\":5536:5551   */\n      add\n        /* \"#utility.yul\":5528:5551   */\n      swap1\n      pop\n        /* \"#utility.yul\":5250:5558   */\n      swap2\n      swap1\n      pop\n      jump\t// out\n        /* \"#utility.yul\":5564:5718   */\n    tag_102:\n        /* \"#utility.yul\":5648:5654   */\n      dup3\n        /* \"#utility.yul\":5643:5646   */\n      dup2\n        /* \"#utility.yul\":5638:5641   */\n      dup4\n        /* \"#utility.yul\":5625:5655   */\n      calldatacopy\n        /* \"#utility.yul\":5710:5711   */\n      0x00\n        /* \"#utility.yul\":5701:5707   */\n      dup4\n        /* \"#utility.yul\":5696:5699   */\n      dup4\n        /* \"#utility.yul\":5692:5708   */\n      add\n        /* \"#utility.yul\":5685:5712   */\n      mstore\n        /* \"#utility.yul\":5564:5718   */\n      pop\n      pop\n      pop\n      jump\t// out\n        /* \"#utility.yul\":5724:6136   */\n    tag_103:\n        /* \"#utility.yul\":5802:5807   */\n      0x00\n        /* \"#utility.yul\":5827:5893   */\n      tag_182\n        /* \"#utility.yul\":5843:5892   */\n      tag_183\n        /* \"#utility.yul\":5885:5891   */\n      dup5\n        /* \"#utility.yul\":5843:5892   */\n      tag_101\n      jump\t// in\n    tag_183:\n        /* \"#utility.yul\":5827:5893   */\n      tag_100\n      jump\t// in\n    tag_182:\n        /* \"#utility.yul\":5818:5893   */\n      swap1\n      pop\n        /* \"#utility.yul\":5916:5922   */\n      dup3\n        /* \"#utility.yul\":5909:5914   */\n      dup2\n        /* \"#utility.yul\":5902:5923   */\n      mstore\n        /* \"#utility.yul\":5954:5958   */\n      0x20\n        /* \"#utility.yul\":5947:5952   */\n      dup2\n        /* \"#utility.yul\":5943:5959   */\n      add\n        /* \"#utility.yul\":5992:5995   */\n      dup5\n        /* \"#utility.yul\":5983:5989   */\n      dup5\n        /* \"#utility.yul\":5978:5981   */\n      dup5\n        /* \"#utility.yul\":5974:5990   */\n      add\n        /* \"#utility.yul\":5971:5996   */\n      gt\n        /* \"#utility.yul\":5968:6080   */\n      iszero\n      tag_184\n      jumpi\n        /* \"#utility.yul\":5999:6078   */\n      tag_185\n      tag_97\n      jump\t// in\n    tag_185:\n        /* \"#utility.yul\":5968:6080   */\n    tag_184:\n        /* \"#utility.yul\":6089:6130   */\n      tag_186\n        /* \"#utility.yul\":6123:6129   */\n      dup5\n        /* \"#utility.yul\":6118:6121   */\n      dup3\n        /* \"#utility.yul\":6113:6116   */\n      dup6\n        /* \"#utility.yul\":6089:6130   */\n      tag_102\n      jump\t// in\n    tag_186:\n        /* \"#utility.yul\":5808:6136   */\n      pop\n        /* \"#utility.yul\":5724:6136   */\n      swap4\n      swap3\n      pop\n      pop\n      pop\n      jump\t// out\n        /* \"#utility.yul\":6156:6496   */\n    tag_104:\n        /* \"#utility.yul\":6212:6217   */\n      0x00\n        /* \"#utility.yul\":6261:6264   */\n      dup3\n        /* \"#utility.yul\":6254:6258   */\n      0x1f\n        /* \"#utility.yul\":6246:6252   */\n      dup4\n        /* \"#utility.yul\":6242:6259   */\n      add\n        /* \"#utility.yul\":6238:6265   */\n      slt\n        /* \"#utility.yul\":6228:6350   */\n      tag_188\n      jumpi\n        /* \"#utility.yul\":6269:6348   */\n      tag_189\n      tag_96\n      jump\t// in\n    tag_189:\n        /* \"#utility.yul\":6228:6350   */\n    tag_188:\n        /* \"#utility.yul\":6386:6392   */\n      dup2\n        /* \"#utility.yul\":6373:6393   */\n      calldataload\n        /* \"#utility.yul\":6411:6490   */\n      tag_190\n        /* \"#utility.yul\":6486:6489   */\n      dup5\n        /* \"#utility.yul\":6478:6484   */\n      dup3\n        /* \"#utility.yul\":6471:6475   */\n      0x20\n        /* \"#utility.yul\":6463:6469   */\n      dup7\n        /* \"#utility.yul\":6459:6476   */\n      add\n        /* \"#utility.yul\":6411:6490   */\n      tag_103\n      jump\t// in\n    tag_190:\n        /* \"#utility.yul\":6402:6490   */\n      swap2\n      pop\n        /* \"#utility.yul\":6218:6496   */\n      pop\n        /* \"#utility.yul\":6156:6496   */\n      swap3\n      swap2\n      pop\n      pop\n      jump\t// out\n        /* \"#utility.yul\":6502:7301   */\n    tag_37:\n        /* \"#utility.yul\":6589:6595   */\n      0x00\n        /* \"#utility.yul\":6597:6603   */\n      dup1\n        /* \"#utility.yul\":6605:6611   */\n      0x00\n        /* \"#utility.yul\":6654:6656   */\n      0x60\n        /* \"#utility.yul\":6642:6651   */\n      dup5\n        /* \"#utility.yul\":6633:6640   */\n      dup7\n        /* \"#utility.yul\":6629:6652   */\n      sub\n        /* \"#utility.yul\":6625:6657   */\n      slt\n        /* \"#utility.yul\":6622:6741   */\n      iszero\n      tag_192\n      jumpi\n        /* \"#utility.yul\":6660:6739   */\n      tag_193\n      tag_85\n      jump\t// in\n    tag_193:\n        /* \"#utility.yul\":6622:6741   */\n    tag_192:\n        /* \"#utility.yul\":6808:6809   */\n      0x00\n        /* \"#utility.yul\":6797:6806   */\n      dup5\n        /* \"#utility.yul\":6793:6810   */\n      add\n        /* \"#utility.yul\":6780:6811   */\n      calldataload\n        /* \"#utility.yul\":6838:6856   */\n      0xffffffffffffffff\n        /* \"#utility.yul\":6830:6836   */\n      dup2\n        /* \"#utility.yul\":6827:6857   */\n      gt\n        /* \"#utility.yul\":6824:6941   */\n      iszero\n      tag_194\n      jumpi\n        /* \"#utility.yul\":6860:6939   */\n      tag_195\n      tag_86\n      jump\t// in\n    tag_195:\n        /* \"#utility.yul\":6824:6941   */\n    tag_194:\n        /* \"#utility.yul\":6965:7028   */\n      tag_196\n        /* \"#utility.yul\":7020:7027   */\n      dup7\n        /* \"#utility.yul\":7011:7017   */\n      dup3\n        /* \"#utility.yul\":7000:7009   */\n      dup8\n        /* \"#utility.yul\":6996:7018   */\n      add\n        /* \"#utility.yul\":6965:7028   */\n      tag_104\n      jump\t// in\n    tag_196:\n        /* \"#utility.yul\":6955:7028   */\n      swap4\n      pop\n        /* \"#utility.yul\":6751:7038   */\n      pop\n        /* \"#utility.yul\":7077:7079   */\n      0x20\n        /* \"#utility.yul\":7103:7156   */\n      tag_197\n        /* \"#utility.yul\":7148:7155   */\n      dup7\n        /* \"#utility.yul\":7139:7145   */\n      dup3\n        /* \"#utility.yul\":7128:7137   */\n      dup8\n        /* \"#utility.yul\":7124:7146   */\n      add\n        /* \"#utility.yul\":7103:7156   */\n      tag_94\n      jump\t// in\n    tag_197:\n        /* \"#utility.yul\":7093:7156   */\n      swap3\n      pop\n        /* \"#utility.yul\":7048:7166   */\n      pop\n        /* \"#utility.yul\":7205:7207   */\n      0x40\n        /* \"#utility.yul\":7231:7284   */\n      tag_198\n        /* \"#utility.yul\":7276:7283   */\n      dup7\n        /* \"#utility.yul\":7267:7273   */\n      dup3\n        /* \"#utility.yul\":7256:7265   */\n      dup8\n        /* \"#utility.yul\":7252:7274   */\n      add\n        /* \"#utility.yul\":7231:7284   */\n      tag_94\n      jump\t// in\n    tag_198:\n        /* \"#utility.yul\":7221:7284   */\n      swap2\n      pop\n        /* \"#utility.yul\":7176:7294   */\n      pop\n        /* \"#utility.yul\":6502:7301   */\n      swap3\n      pop\n      swap3\n      pop\n      swap3\n      jump\t// out\n        /* \"#utility.yul\":7307:7429   */\n    tag_105:\n        /* \"#utility.yul\":7380:7404   */\n      tag_200\n        /* \"#utility.yul\":7398:7403   */\n      dup2\n        /* \"#utility.yul\":7380:7404   */\n      tag_91\n      jump\t// in\n    tag_200:\n        /* \"#utility.yul\":7373:7378   */\n      dup2\n        /* \"#utility.yul\":7370:7405   */\n      eq\n        /* \"#utility.yul\":7360:7423   */\n      tag_201\n      jumpi\n        /* \"#utility.yul\":7419:7420   */\n      0x00\n        /* \"#utility.yul\":7416:7417   */\n      dup1\n        /* \"#utility.yul\":7409:7421   */\n      revert\n        /* \"#utility.yul\":7360:7423   */\n    tag_201:\n        /* \"#utility.yul\":7307:7429   */\n      pop\n      jump\t// out\n        /* \"#utility.yul\":7435:7574   */\n    tag_106:\n        /* \"#utility.yul\":7481:7486   */\n      0x00\n        /* \"#utility.yul\":7519:7525   */\n      dup2\n        /* \"#utility.yul\":7506:7526   */\n      calldataload\n        /* \"#utility.yul\":7497:7526   */\n      swap1\n      pop\n        /* \"#utility.yul\":7535:7568   */\n      tag_203\n        /* \"#utility.yul\":7562:7567   */\n      dup2\n        /* \"#utility.yul\":7535:7568   */\n      tag_105\n      jump\t// in\n    tag_203:\n        /* \"#utility.yul\":7435:7574   */\n      swap3\n      swap2\n      pop\n      pop\n      jump\t// out\n        /* \"#utility.yul\":7580:8054   */\n    tag_41:\n        /* \"#utility.yul\":7648:7654   */\n      0x00\n        /* \"#utility.yul\":7656:7662   */\n      dup1\n        /* \"#utility.yul\":7705:7707   */\n      0x40\n        /* \"#utility.yul\":7693:7702   */\n      dup4\n        /* \"#utility.yul\":7684:7691   */\n      dup6\n        /* \"#utility.yul\":7680:7703   */\n      sub\n        /* \"#utility.yul\":7676:7708   */\n      slt\n        /* \"#utility.yul\":7673:7792   */\n      iszero\n      tag_205\n      jumpi\n        /* \"#utility.yul\":7711:7790   */\n      tag_206\n      tag_85\n      jump\t// in\n    tag_206:\n        /* \"#utility.yul\":7673:7792   */\n    tag_205:\n        /* \"#utility.yul\":7831:7832   */\n      0x00\n        /* \"#utility.yul\":7856:7909   */\n      tag_207\n        /* \"#utility.yul\":7901:7908   */\n      dup6\n        /* \"#utility.yul\":7892:7898   */\n      dup3\n        /* \"#utility.yul\":7881:7890   */\n      dup7\n        /* \"#utility.yul\":7877:7899   */\n      add\n        /* \"#utility.yul\":7856:7909   */\n      tag_90\n      jump\t// in\n    tag_207:\n        /* \"#utility.yul\":7846:7909   */\n      swap3\n      pop\n        /* \"#utility.yul\":7802:7919   */\n      pop\n        /* \"#utility.yul\":7958:7960   */\n      0x20\n        /* \"#utility.yul\":7984:8037   */\n      tag_208\n        /* \"#utility.yul\":8029:8036   */\n      dup6\n        /* \"#utility.yul\":8020:8026   */\n      dup3\n        /* \"#utility.yul\":8009:8018   */\n      dup7\n        /* \"#utility.yul\":8005:8027   */\n      add\n        /* \"#utility.yul\":7984:8037   */\n      tag_106\n      jump\t// in\n    tag_208:\n        /* \"#utility.yul\":7974:8037   */\n      swap2\n      pop\n        /* \"#utility.yul\":7929:8047   */\n      pop\n        /* \"#utility.yul\":7580:8054   */\n      swap3\n      pop\n      swap3\n      swap1\n      pop\n      jump\t// out\n        /* \"#utility.yul\":8060:8240   */\n    tag_107:\n        /* \"#utility.yul\":8108:8185   */\n      0x4e487b7100000000000000000000000000000000000000000000000000000000\n        /* \"#utility.yul\":8105:8106   */\n      0x00\n        /* \"#utility.yul\":8098:8186   */\n      mstore\n        /* \"#utility.yul\":8205:8209   */\n      0x22\n        /* \"#utility.yul\":8202:8203   */\n      0x04\n        /* \"#utility.yul\":8195:8210   */\n      mstore\n        /* \"#utility.yul\":8229:8233   */\n      0x24\n        /* \"#utility.yul\":8226:8227   */\n      0x00\n        /* \"#utility.yul\":8219:8234   */\n      revert\n        /* \"#utility.yul\":8246:8566   */\n    tag_46:\n        /* \"#utility.yul\":8290:8296   */\n      0x00\n        /* \"#utility.yul\":8327:8328   */\n      0x02\n        /* \"#utility.yul\":8321:8325   */\n      dup3\n        /* \"#utility.yul\":8317:8329   */\n      div\n        /* \"#utility.yul\":8307:8329   */\n      swap1\n      pop\n        /* \"#utility.yul\":8374:8375   */\n      0x01\n        /* \"#utility.yul\":8368:8372   */\n      dup3\n        /* \"#utility.yul\":8364:8376   */\n      and\n        /* \"#utility.yul\":8395:8413   */\n      dup1\n        /* \"#utility.yul\":8385:8466   */\n      tag_211\n      jumpi\n        /* \"#utility.yul\":8451:8455   */\n      0x7f\n        /* \"#utility.yul\":8443:8449   */\n      dup3\n        /* \"#utility.yul\":8439:8456   */\n      and\n        /* \"#utility.yul\":8429:8456   */\n      swap2\n      pop\n        /* \"#utility.yul\":8385:8466   */\n    tag_211:\n        /* \"#utility.yul\":8513:8515   */\n      0x20\n        /* \"#utility.yul\":8505:8511   */\n      dup3\n        /* \"#utility.yul\":8502:8516   */\n      lt\n        /* \"#utility.yul\":8482:8500   */\n      dup2\n        /* \"#utility.yul\":8479:8517   */\n      sub\n        /* \"#utility.yul\":8476:8560   */\n      tag_212\n      jumpi\n        /* \"#utility.yul\":8532:8550   */\n      tag_213\n      tag_107\n      jump\t// in\n    tag_213:\n        /* \"#utility.yul\":8476:8560   */\n    tag_212:\n        /* \"#utility.yul\":8297:8566   */\n      pop\n        /* \"#utility.yul\":8246:8566   */\n      swap2\n      swap1\n      pop\n      jump\t// out\n        /* \"#utility.yul\":8572:8798   */\n    tag_108:\n        /* \"#utility.yul\":8712:8746   */\n      0x4f6e6c792061756374696f6e6565722063616e2063616c6c2074686973206675\n        /* \"#utility.yul\":8708:8709   */\n      0x00\n        /* \"#utility.yul\":8700:8706   */\n      dup3\n        /* \"#utility.yul\":8696:8710   */\n      add\n        /* \"#utility.yul\":8689:8747   */\n      mstore\n        /* \"#utility.yul\":8781:8790   */\n      0x6e6374696f6e2e00000000000000000000000000000000000000000000000000\n        /* \"#utility.yul\":8776:8778   */\n      0x20\n        /* \"#utility.yul\":8768:8774   */\n      dup3\n        /* \"#utility.yul\":8764:8779   */\n      add\n        /* \"#utility.yul\":8757:8791   */\n      mstore\n        /* \"#utility.yul\":8572:8798   */\n      pop\n      jump\t// out\n        /* \"#utility.yul\":8804:9170   */\n    tag_109:\n        /* \"#utility.yul\":8946:8949   */\n      0x00\n        /* \"#utility.yul\":8967:9034   */\n      tag_216\n        /* \"#utility.yul\":9031:9033   */\n      0x27\n        /* \"#utility.yul\":9026:9029   */\n      dup4\n        /* \"#utility.yul\":8967:9034   */\n      tag_80\n      jump\t// in\n    tag_216:\n        /* \"#utility.yul\":8960:9034   */\n      swap2\n      pop\n        /* \"#utility.yul\":9043:9136   */\n      tag_217\n        /* \"#utility.yul\":9132:9135   */\n      dup3\n        /* \"#utility.yul\":9043:9136   */\n      tag_108\n      jump\t// in\n    tag_217:\n        /* \"#utility.yul\":9161:9163   */\n      0x40\n        /* \"#utility.yul\":9156:9159   */\n      dup3\n        /* \"#utility.yul\":9152:9164   */\n      add\n        /* \"#utility.yul\":9145:9164   */\n      swap1\n      pop\n        /* \"#utility.yul\":8804:9170   */\n      swap2\n      swap1\n      pop\n      jump\t// out\n        /* \"#utility.yul\":9176:9595   */\n    tag_56:\n        /* \"#utility.yul\":9342:9346   */\n      0x00\n        /* \"#utility.yul\":9380:9382   */\n      0x20\n        /* \"#utility.yul\":9369:9378   */\n      dup3\n        /* \"#utility.yul\":9365:9383   */\n      add\n        /* \"#utility.yul\":9357:9383   */\n      swap1\n      pop\n        /* \"#utility.yul\":9429:9438   */\n      dup2\n        /* \"#utility.yul\":9423:9427   */\n      dup2\n        /* \"#utility.yul\":9419:9439   */\n      sub\n        /* \"#utility.yul\":9415:9416   */\n      0x00\n        /* \"#utility.yul\":9404:9413   */\n      dup4\n        /* \"#utility.yul\":9400:9417   */\n      add\n        /* \"#utility.yul\":9393:9440   */\n      mstore\n        /* \"#utility.yul\":9457:9588   */\n      tag_219\n        /* \"#utility.yul\":9583:9587   */\n      dup2\n        /* \"#utility.yul\":9457:9588   */\n      tag_109\n      jump\t// in\n    tag_219:\n        /* \"#utility.yul\":9449:9588   */\n      swap1\n      pop\n        /* \"#utility.yul\":9176:9595   */\n      swap2\n      swap1\n      pop\n      jump\t// out\n        /* \"#utility.yul\":9601:9837   */\n    tag_110:\n        /* \"#utility.yul\":9741:9775   */\n      0x41756374696f6e656572206973206e6f7420616c6c6f77656420746f20726567\n        /* \"#utility.yul\":9737:9738   */\n      0x00\n        /* \"#utility.yul\":9729:9735   */\n      dup3\n        /* \"#utility.yul\":9725:9739   */\n      add\n        /* \"#utility.yul\":9718:9776   */\n      mstore\n        /* \"#utility.yul\":9810:9829   */\n      0x6973746572206173206120626964646572000000000000000000000000000000\n        /* \"#utility.yul\":9805:9807   */\n      0x20\n        /* \"#utility.yul\":9797:9803   */\n      dup3\n        /* \"#utility.yul\":9793:9808   */\n      add\n        /* \"#utility.yul\":9786:9830   */\n      mstore\n        /* \"#utility.yul\":9601:9837   */\n      pop\n      jump\t// out\n        /* \"#utility.yul\":9843:10209   */\n    tag_111:\n        /* \"#utility.yul\":9985:9988   */\n      0x00\n        /* \"#utility.yul\":10006:10073   */\n      tag_222\n        /* \"#utility.yul\":10070:10072   */\n      0x31\n        /* \"#utility.yul\":10065:10068   */\n      dup4\n        /* \"#utility.yul\":10006:10073   */\n      tag_80\n      jump\t// in\n    tag_222:\n        /* \"#utility.yul\":9999:10073   */\n      swap2\n      pop\n        /* \"#utility.yul\":10082:10175   */\n      tag_223\n        /* \"#utility.yul\":10171:10174   */\n      dup3\n        /* \"#utility.yul\":10082:10175   */\n      tag_110\n      jump\t// in\n    tag_223:\n        /* \"#utility.yul\":10200:10202   */\n      0x40\n        /* \"#utility.yul\":10195:10198   */\n      dup3\n        /* \"#utility.yul\":10191:10203   */\n      add\n        /* \"#utility.yul\":10184:10203   */\n      swap1\n      pop\n        /* \"#utility.yul\":9843:10209   */\n      swap2\n      swap1\n      pop\n      jump\t// out\n        /* \"#utility.yul\":10215:10634   */\n    tag_64:\n        /* \"#utility.yul\":10381:10385   */\n      0x00\n        /* \"#utility.yul\":10419:10421   */\n      0x20\n        /* \"#utility.yul\":10408:10417   */\n      dup3\n        /* \"#utility.yul\":10404:10422   */\n      add\n        /* \"#utility.yul\":10396:10422   */\n      swap1\n      pop\n        /* \"#utility.yul\":10468:10477   */\n      dup2\n        /* \"#utility.yul\":10462:10466   */\n      dup2\n        /* \"#utility.yul\":10458:10478   */\n      sub\n        /* \"#utility.yul\":10454:10455   */\n      0x00\n        /* \"#utility.yul\":10443:10452   */\n      dup4\n        /* \"#utility.yul\":10439:10456   */\n      add\n        /* \"#utility.yul\":10432:10479   */\n      mstore\n        /* \"#utility.yul\":10496:10627   */\n      tag_225\n        /* \"#utility.yul\":10622:10626   */\n      dup2\n        /* \"#utility.yul\":10496:10627   */\n      tag_111\n      jump\t// in\n    tag_225:\n        /* \"#utility.yul\":10488:10627   */\n      swap1\n      pop\n        /* \"#utility.yul\":10215:10634   */\n      swap2\n      swap1\n      pop\n      jump\t// out\n\n    auxdata: 0xa264697066735822122046625f964e6bd4731d1c319d6d64dafd11fe1deaa9243caa4b2400034480598e64736f6c634300080e0033\n}\n",
				"bytecode": {
					"linkReferences": {},
					"object": "608060405234801561001057600080fd5b50336000806101000a81548173ffffffffffffffffffffffffffffffffffffffff021916908373ffffffffffffffffffffffffffffffffffffffff160217905550610b1f806100606000396000f3fe608060405234801561001057600080fd5b50600436106100885760003560e01c8063daa0218f1161005b578063daa0218f14610129578063e7d2a99714610147578063e817071e14610163578063f356733c1461017f57610088565b806334eb86a21461008d578063938626c2146100ab578063a3d6f9a9146100c9578063cff29dfd146100f9575b600080fd5b610095610189565b6040516100a29190610529565b60405180910390f35b6100b361018f565b6040516100c091906105dd565b60405180910390f35b6100e360048036038101906100de9190610671565b61021d565b6040516100f091906106b7565b60405180910390f35b610113600480360381019061010e91906106fe565b610235565b604051610120919061073a565b60405180910390f35b610131610274565b60405161013e9190610529565b60405180910390f35b610161600480360381019061015c919061088a565b61027a565b005b61017d60048036038101906101789190610925565b610332565b005b61018761037a565b005b60035481565b6002805461019c90610994565b80601f01602080910402602001604051908101604052809291908181526020018280546101c890610994565b80156102155780601f106101ea57610100808354040283529160200191610215565b820191906000526020600020905b8154815290600101906020018083116101f857829003601f168201915b505050505081565b60056020528060005260406000206000915090505481565b6001818154811061024557600080fd5b906000526020600020016000915054906101000a900473ffffffffffffffffffffffffffffffffffffffff1681565b60045481565b60008054906101000a900473ffffffffffffffffffffffffffffffffffffffff1673ffffffffffffffffffffffffffffffffffffffff163373ffffffffffffffffffffffffffffffffffffffff1614610308576040517f08c379a00000000000000000000000000000000000000000000000000000000081526004016102ff90610a37565b60405180910390fd5b826002908051906020019061031e92919061046d565b508160038190555080600481905550505050565b80600560008473ffffffffffffffffffffffffffffffffffffffff1673ffffffffffffffffffffffffffffffffffffffff168152602001908152602001600020819055505050565b60008054906101000a900473ffffffffffffffffffffffffffffffffffffffff1673ffffffffffffffffffffffffffffffffffffffff163373ffffffffffffffffffffffffffffffffffffffff1603610408576040517f08c379a00000000000000000000000000000000000000000000000000000000081526004016103ff90610ac9565b60405180910390fd5b6001339080600181540180825580915050600190039060005260206000200160009091909190916101000a81548173ffffffffffffffffffffffffffffffffffffffff021916908373ffffffffffffffffffffffffffffffffffffffff160217905550565b82805461047990610994565b90600052602060002090601f01602090048101928261049b57600085556104e2565b82601f106104b457805160ff19168380011785556104e2565b828001600101855582156104e2579182015b828111156104e15782518255916020019190600101906104c6565b5b5090506104ef91906104f3565b5090565b5b8082111561050c5760008160009055506001016104f4565b5090565b6000819050919050565b61052381610510565b82525050565b600060208201905061053e600083018461051a565b92915050565b600081519050919050565b600082825260208201905092915050565b60005b8381101561057e578082015181840152602081019050610563565b8381111561058d576000848401525b50505050565b6000601f19601f8301169050919050565b60006105af82610544565b6105b9818561054f565b93506105c9818560208601610560565b6105d281610593565b840191505092915050565b600060208201905081810360008301526105f781846105a4565b905092915050565b6000604051905090565b600080fd5b600080fd5b600073ffffffffffffffffffffffffffffffffffffffff82169050919050565b600061063e82610613565b9050919050565b61064e81610633565b811461065957600080fd5b50565b60008135905061066b81610645565b92915050565b60006020828403121561068757610686610609565b5b60006106958482850161065c565b91505092915050565b6000819050919050565b6106b18161069e565b82525050565b60006020820190506106cc60008301846106a8565b92915050565b6106db81610510565b81146106e657600080fd5b50565b6000813590506106f8816106d2565b92915050565b60006020828403121561071457610713610609565b5b6000610722848285016106e9565b91505092915050565b61073481610633565b82525050565b600060208201905061074f600083018461072b565b92915050565b600080fd5b600080fd5b7f4e487b7100000000000000000000000000000000000000000000000000000000600052604160045260246000fd5b61079782610593565b810181811067ffffffffffffffff821117156107b6576107b561075f565b5b80604052505050565b60006107c96105ff565b90506107d5828261078e565b919050565b600067ffffffffffffffff8211156107f5576107f461075f565b5b6107fe82610593565b9050602081019050919050565b82818337600083830152505050565b600061082d610828846107da565b6107bf565b9050828152602081018484840111156108495761084861075a565b5b61085484828561080b565b509392505050565b600082601f83011261087157610870610755565b5b813561088184826020860161081a565b91505092915050565b6000806000606084860312156108a3576108a2610609565b5b600084013567ffffffffffffffff8111156108c1576108c061060e565b5b6108cd8682870161085c565b93505060206108de868287016106e9565b92505060406108ef868287016106e9565b9150509250925092565b6109028161069e565b811461090d57600080fd5b50565b60008135905061091f816108f9565b92915050565b6000806040838503121561093c5761093b610609565b5b600061094a8582860161065c565b925050602061095b85828601610910565b9150509250929050565b7f4e487b7100000000000000000000000000000000000000000000000000000000600052602260045260246000fd5b600060028204905060018216806109ac57607f821691505b6020821081036109bf576109be610965565b5b50919050565b7f4f6e6c792061756374696f6e6565722063616e2063616c6c207468697320667560008201527f6e6374696f6e2e00000000000000000000000000000000000000000000000000602082015250565b6000610a2160278361054f565b9150610a2c826109c5565b604082019050919050565b60006020820190508181036000830152610a5081610a14565b9050919050565b7f41756374696f6e656572206973206e6f7420616c6c6f77656420746f2072656760008201527f6973746572206173206120626964646572000000000000000000000000000000602082015250565b6000610ab360318361054f565b9150610abe82610a57565b604082019050919050565b60006020820190508181036000830152610ae281610aa6565b905091905056fea264697066735822122046625f964e6bd4731d1c319d6d64dafd11fe1deaa9243caa4b2400034480598e64736f6c634300080e0033",
					"opcodes": "PUSH1 0x80 PUSH1 0x40 MSTORE CALLVALUE DUP1 ISZERO PUSH2 0x10 JUMPI PUSH1 0x0 DUP1 REVERT JUMPDEST POP CALLER PUSH1 0x0 DUP1 PUSH2 0x100 EXP DUP2 SLOAD DUP2 PUSH20 0xFFFFFFFFFFFFFFFFFFFFFFFFFFFFFFFFFFFFFFFF MUL NOT AND SWAP1 DUP4 PUSH20 0xFFFFFFFFFFFFFFFFFFFFFFFFFFFFFFFFFFFFFFFF AND MUL OR SWAP1 SSTORE POP PUSH2 0xB1F DUP1 PUSH2 0x60 PUSH1 0x0 CODECOPY PUSH1 0x0 RETURN INVALID PUSH1 0x80 PUSH1 0x40 MSTORE CALLVALUE DUP1 ISZERO PUSH2 0x10 JUMPI PUSH1 0x0 DUP1 REVERT JUMPDEST POP PUSH1 0x4 CALLDATASIZE LT PUSH2 0x88 JUMPI PUSH1 0x0 CALLDATALOAD PUSH1 0xE0 SHR DUP1 PUSH4 0xDAA0218F GT PUSH2 0x5B JUMPI DUP1 PUSH4 0xDAA0218F EQ PUSH2 0x129 JUMPI DUP1 PUSH4 0xE7D2A997 EQ PUSH2 0x147 JUMPI DUP1 PUSH4 0xE817071E EQ PUSH2 0x163 JUMPI DUP1 PUSH4 0xF356733C EQ PUSH2 0x17F JUMPI PUSH2 0x88 JUMP JUMPDEST DUP1 PUSH4 0x34EB86A2 EQ PUSH2 0x8D JUMPI DUP1 PUSH4 0x938626C2 EQ PUSH2 0xAB JUMPI DUP1 PUSH4 0xA3D6F9A9 EQ PUSH2 0xC9 JUMPI DUP1 PUSH4 0xCFF29DFD EQ PUSH2 0xF9 JUMPI JUMPDEST PUSH1 0x0 DUP1 REVERT JUMPDEST PUSH2 0x95 PUSH2 0x189 JUMP JUMPDEST PUSH1 0x40 MLOAD PUSH2 0xA2 SWAP2 SWAP1 PUSH2 0x529 JUMP JUMPDEST PUSH1 0x40 MLOAD DUP1 SWAP2 SUB SWAP1 RETURN JUMPDEST PUSH2 0xB3 PUSH2 0x18F JUMP JUMPDEST PUSH1 0x40 MLOAD PUSH2 0xC0 SWAP2 SWAP1 PUSH2 0x5DD JUMP JUMPDEST PUSH1 0x40 MLOAD DUP1 SWAP2 SUB SWAP1 RETURN JUMPDEST PUSH2 0xE3 PUSH1 0x4 DUP1 CALLDATASIZE SUB DUP2 ADD SWAP1 PUSH2 0xDE SWAP2 SWAP1 PUSH2 0x671 JUMP JUMPDEST PUSH2 0x21D JUMP JUMPDEST PUSH1 0x40 MLOAD PUSH2 0xF0 SWAP2 SWAP1 PUSH2 0x6B7 JUMP JUMPDEST PUSH1 0x40 MLOAD DUP1 SWAP2 SUB SWAP1 RETURN JUMPDEST PUSH2 0x113 PUSH1 0x4 DUP1 CALLDATASIZE SUB DUP2 ADD SWAP1 PUSH2 0x10E SWAP2 SWAP1 PUSH2 0x6FE JUMP JUMPDEST PUSH2 0x235 JUMP JUMPDEST PUSH1 0x40 MLOAD PUSH2 0x120 SWAP2 SWAP1 PUSH2 0x73A JUMP JUMPDEST PUSH1 0x40 MLOAD DUP1 SWAP2 SUB SWAP1 RETURN JUMPDEST PUSH2 0x131 PUSH2 0x274 JUMP JUMPDEST PUSH1 0x40 MLOAD PUSH2 0x13E SWAP2 SWAP1 PUSH2 0x529 JUMP JUMPDEST PUSH1 0x40 MLOAD DUP1 SWAP2 SUB SWAP1 RETURN JUMPDEST PUSH2 0x161 PUSH1 0x4 DUP1 CALLDATASIZE SUB DUP2 ADD SWAP1 PUSH2 0x15C SWAP2 SWAP1 PUSH2 0x88A JUMP JUMPDEST PUSH2 0x27A JUMP JUMPDEST STOP JUMPDEST PUSH2 0x17D PUSH1 0x4 DUP1 CALLDATASIZE SUB DUP2 ADD SWAP1 PUSH2 0x178 SWAP2 SWAP1 PUSH2 0x925 JUMP JUMPDEST PUSH2 0x332 JUMP JUMPDEST STOP JUMPDEST PUSH2 0x187 PUSH2 0x37A JUMP JUMPDEST STOP JUMPDEST PUSH1 0x3 SLOAD DUP2 JUMP JUMPDEST PUSH1 0x2 DUP1 SLOAD PUSH2 0x19C SWAP1 PUSH2 0x994 JUMP JUMPDEST DUP1 PUSH1 0x1F ADD PUSH1 0x20 DUP1 SWAP2 DIV MUL PUSH1 0x20 ADD PUSH1 0x40 MLOAD SWAP1 DUP2 ADD PUSH1 0x40 MSTORE DUP1 SWAP3 SWAP2 SWAP1 DUP2 DUP2 MSTORE PUSH1 0x20 ADD DUP3 DUP1 SLOAD PUSH2 0x1C8 SWAP1 PUSH2 0x994 JUMP JUMPDEST DUP1 ISZERO PUSH2 0x215 JUMPI DUP1 PUSH1 0x1F LT PUSH2 0x1EA JUMPI PUSH2 0x100 DUP1 DUP4 SLOAD DIV MUL DUP4 MSTORE SWAP2 PUSH1 0x20 ADD SWAP2 PUSH2 0x215 JUMP JUMPDEST DUP3 ADD SWAP2 SWAP1 PUSH1 0x0 MSTORE PUSH1 0x20 PUSH1 0x0 KECCAK256 SWAP1 JUMPDEST DUP2 SLOAD DUP2 MSTORE SWAP1 PUSH1 0x1 ADD SWAP1 PUSH1 0x20 ADD DUP1 DUP4 GT PUSH2 0x1F8 JUMPI DUP3 SWAP1 SUB PUSH1 0x1F AND DUP3 ADD SWAP2 JUMPDEST POP POP POP POP POP DUP2 JUMP JUMPDEST PUSH1 0x5 PUSH1 0x20 MSTORE DUP1 PUSH1 0x0 MSTORE PUSH1 0x40 PUSH1 0x0 KECCAK256 PUSH1 0x0 SWAP2 POP SWAP1 POP SLOAD DUP2 JUMP JUMPDEST PUSH1 0x1 DUP2 DUP2 SLOAD DUP2 LT PUSH2 0x245 JUMPI PUSH1 0x0 DUP1 REVERT JUMPDEST SWAP1 PUSH1 0x0 MSTORE PUSH1 0x20 PUSH1 0x0 KECCAK256 ADD PUSH1 0x0 SWAP2 POP SLOAD SWAP1 PUSH2 0x100 EXP SWAP1 DIV PUSH20 0xFFFFFFFFFFFFFFFFFFFFFFFFFFFFFFFFFFFFFFFF AND DUP2 JUMP JUMPDEST PUSH1 0x4 SLOAD DUP2 JUMP JUMPDEST PUSH1 0x0 DUP1 SLOAD SWAP1 PUSH2 0x100 EXP SWAP1 DIV PUSH20 0xFFFFFFFFFFFFFFFFFFFFFFFFFFFFFFFFFFFFFFFF AND PUSH20 0xFFFFFFFFFFFFFFFFFFFFFFFFFFFFFFFFFFFFFFFF AND CALLER PUSH20 0xFFFFFFFFFFFFFFFFFFFFFFFFFFFFFFFFFFFFFFFF AND EQ PUSH2 0x308 JUMPI PUSH1 0x40 MLOAD PUSH32 0x8C379A000000000000000000000000000000000000000000000000000000000 DUP2 MSTORE PUSH1 0x4 ADD PUSH2 0x2FF SWAP1 PUSH2 0xA37 JUMP JUMPDEST PUSH1 0x40 MLOAD DUP1 SWAP2 SUB SWAP1 REVERT JUMPDEST DUP3 PUSH1 0x2 SWAP1 DUP1 MLOAD SWAP1 PUSH1 0x20 ADD SWAP1 PUSH2 0x31E SWAP3 SWAP2 SWAP1 PUSH2 0x46D JUMP JUMPDEST POP DUP2 PUSH1 0x3 DUP2 SWAP1 SSTORE POP DUP1 PUSH1 0x4 DUP2 SWAP1 SSTORE POP POP POP POP JUMP JUMPDEST DUP1 PUSH1 0x5 PUSH1 0x0 DUP5 PUSH20 0xFFFFFFFFFFFFFFFFFFFFFFFFFFFFFFFFFFFFFFFF AND PUSH20 0xFFFFFFFFFFFFFFFFFFFFFFFFFFFFFFFFFFFFFFFF AND DUP2 MSTORE PUSH1 0x20 ADD SWAP1 DUP2 MSTORE PUSH1 0x20 ADD PUSH1 0x0 KECCAK256 DUP2 SWAP1 SSTORE POP POP POP JUMP JUMPDEST PUSH1 0x0 DUP1 SLOAD SWAP1 PUSH2 0x100 EXP SWAP1 DIV PUSH20 0xFFFFFFFFFFFFFFFFFFFFFFFFFFFFFFFFFFFFFFFF AND PUSH20 0xFFFFFFFFFFFFFFFFFFFFFFFFFFFFFFFFFFFFFFFF AND CALLER PUSH20 0xFFFFFFFFFFFFFFFFFFFFFFFFFFFFFFFFFFFFFFFF AND SUB PUSH2 0x408 JUMPI PUSH1 0x40 MLOAD PUSH32 0x8C379A000000000000000000000000000000000000000000000000000000000 DUP2 MSTORE PUSH1 0x4 ADD PUSH2 0x3FF SWAP1 PUSH2 0xAC9 JUMP JUMPDEST PUSH1 0x40 MLOAD DUP1 SWAP2 SUB SWAP1 REVERT JUMPDEST PUSH1 0x1 CALLER SWAP1 DUP1 PUSH1 0x1 DUP2 SLOAD ADD DUP1 DUP3 SSTORE DUP1 SWAP2 POP POP PUSH1 0x1 SWAP1 SUB SWAP1 PUSH1 0x0 MSTORE PUSH1 0x20 PUSH1 0x0 KECCAK256 ADD PUSH1 0x0 SWAP1 SWAP2 SWAP1 SWAP2 SWAP1 SWAP2 PUSH2 0x100 EXP DUP2 SLOAD DUP2 PUSH20 0xFFFFFFFFFFFFFFFFFFFFFFFFFFFFFFFFFFFFFFFF MUL NOT AND SWAP1 DUP4 PUSH20 0xFFFFFFFFFFFFFFFFFFFFFFFFFFFFFFFFFFFFFFFF AND MUL OR SWAP1 SSTORE POP JUMP JUMPDEST DUP3 DUP1 SLOAD PUSH2 0x479 SWAP1 PUSH2 0x994 JUMP JUMPDEST SWAP1 PUSH1 0x0 MSTORE PUSH1 0x20 PUSH1 0x0 KECCAK256 SWAP1 PUSH1 0x1F ADD PUSH1 0x20 SWAP1 DIV DUP2 ADD SWAP3 DUP3 PUSH2 0x49B JUMPI PUSH1 0x0 DUP6 SSTORE PUSH2 0x4E2 JUMP JUMPDEST DUP3 PUSH1 0x1F LT PUSH2 0x4B4 JUMPI DUP1 MLOAD PUSH1 0xFF NOT AND DUP4 DUP1 ADD OR DUP6 SSTORE PUSH2 0x4E2 JUMP JUMPDEST DUP3 DUP1 ADD PUSH1 0x1 ADD DUP6 SSTORE DUP3 ISZERO PUSH2 0x4E2 JUMPI SWAP2 DUP3 ADD JUMPDEST DUP3 DUP2 GT ISZERO PUSH2 0x4E1 JUMPI DUP3 MLOAD DUP3 SSTORE SWAP2 PUSH1 0x20 ADD SWAP2 SWAP1 PUSH1 0x1 ADD SWAP1 PUSH2 0x4C6 JUMP JUMPDEST JUMPDEST POP SWAP1 POP PUSH2 0x4EF SWAP2 SWAP1 PUSH2 0x4F3 JUMP JUMPDEST POP SWAP1 JUMP JUMPDEST JUMPDEST DUP1 DUP3 GT ISZERO PUSH2 0x50C JUMPI PUSH1 0x0 DUP2 PUSH1 0x0 SWAP1 SSTORE POP PUSH1 0x1 ADD PUSH2 0x4F4 JUMP JUMPDEST POP SWAP1 JUMP JUMPDEST PUSH1 0x0 DUP2 SWAP1 POP SWAP2 SWAP1 POP JUMP JUMPDEST PUSH2 0x523 DUP2 PUSH2 0x510 JUMP JUMPDEST DUP3 MSTORE POP POP JUMP JUMPDEST PUSH1 0x0 PUSH1 0x20 DUP3 ADD SWAP1 POP PUSH2 0x53E PUSH1 0x0 DUP4 ADD DUP5 PUSH2 0x51A JUMP JUMPDEST SWAP3 SWAP2 POP POP JUMP JUMPDEST PUSH1 0x0 DUP2 MLOAD SWAP1 POP SWAP2 SWAP1 POP JUMP JUMPDEST PUSH1 0x0 DUP3 DUP3 MSTORE PUSH1 0x20 DUP3 ADD SWAP1 POP SWAP3 SWAP2 POP POP JUMP JUMPDEST PUSH1 0x0 JUMPDEST DUP4 DUP2 LT ISZERO PUSH2 0x57E JUMPI DUP1 DUP3 ADD MLOAD DUP2 DUP5 ADD MSTORE PUSH1 0x20 DUP2 ADD SWAP1 POP PUSH2 0x563 JUMP JUMPDEST DUP4 DUP2 GT ISZERO PUSH2 0x58D JUMPI PUSH1 0x0 DUP5 DUP5 ADD MSTORE JUMPDEST POP POP POP POP JUMP JUMPDEST PUSH1 0x0 PUSH1 0x1F NOT PUSH1 0x1F DUP4 ADD AND SWAP1 POP SWAP2 SWAP1 POP JUMP JUMPDEST PUSH1 0x0 PUSH2 0x5AF DUP3 PUSH2 0x544 JUMP JUMPDEST PUSH2 0x5B9 DUP2 DUP6 PUSH2 0x54F JUMP JUMPDEST SWAP4 POP PUSH2 0x5C9 DUP2 DUP6 PUSH1 0x20 DUP7 ADD PUSH2 0x560 JUMP JUMPDEST PUSH2 0x5D2 DUP2 PUSH2 0x593 JUMP JUMPDEST DUP5 ADD SWAP2 POP POP SWAP3 SWAP2 POP POP JUMP JUMPDEST PUSH1 0x0 PUSH1 0x20 DUP3 ADD SWAP1 POP DUP2 DUP2 SUB PUSH1 0x0 DUP4 ADD MSTORE PUSH2 0x5F7 DUP2 DUP5 PUSH2 0x5A4 JUMP JUMPDEST SWAP1 POP SWAP3 SWAP2 POP POP JUMP JUMPDEST PUSH1 0x0 PUSH1 0x40 MLOAD SWAP1 POP SWAP1 JUMP JUMPDEST PUSH1 0x0 DUP1 REVERT JUMPDEST PUSH1 0x0 DUP1 REVERT JUMPDEST PUSH1 0x0 PUSH20 0xFFFFFFFFFFFFFFFFFFFFFFFFFFFFFFFFFFFFFFFF DUP3 AND SWAP1 POP SWAP2 SWAP1 POP JUMP JUMPDEST PUSH1 0x0 PUSH2 0x63E DUP3 PUSH2 0x613 JUMP JUMPDEST SWAP1 POP SWAP2 SWAP1 POP JUMP JUMPDEST PUSH2 0x64E DUP2 PUSH2 0x633 JUMP JUMPDEST DUP2 EQ PUSH2 0x659 JUMPI PUSH1 0x0 DUP1 REVERT JUMPDEST POP JUMP JUMPDEST PUSH1 0x0 DUP2 CALLDATALOAD SWAP1 POP PUSH2 0x66B DUP2 PUSH2 0x645 JUMP JUMPDEST SWAP3 SWAP2 POP POP JUMP JUMPDEST PUSH1 0x0 PUSH1 0x20 DUP3 DUP5 SUB SLT ISZERO PUSH2 0x687 JUMPI PUSH2 0x686 PUSH2 0x609 JUMP JUMPDEST JUMPDEST PUSH1 0x0 PUSH2 0x695 DUP5 DUP3 DUP6 ADD PUSH2 0x65C JUMP JUMPDEST SWAP2 POP POP SWAP3 SWAP2 POP POP JUMP JUMPDEST PUSH1 0x0 DUP2 SWAP1 POP SWAP2 SWAP1 POP JUMP JUMPDEST PUSH2 0x6B1 DUP2 PUSH2 0x69E JUMP JUMPDEST DUP3 MSTORE POP POP JUMP JUMPDEST PUSH1 0x0 PUSH1 0x20 DUP3 ADD SWAP1 POP PUSH2 0x6CC PUSH1 0x0 DUP4 ADD DUP5 PUSH2 0x6A8 JUMP JUMPDEST SWAP3 SWAP2 POP POP JUMP JUMPDEST PUSH2 0x6DB DUP2 PUSH2 0x510 JUMP JUMPDEST DUP2 EQ PUSH2 0x6E6 JUMPI PUSH1 0x0 DUP1 REVERT JUMPDEST POP JUMP JUMPDEST PUSH1 0x0 DUP2 CALLDATALOAD SWAP1 POP PUSH2 0x6F8 DUP2 PUSH2 0x6D2 JUMP JUMPDEST SWAP3 SWAP2 POP POP JUMP JUMPDEST PUSH1 0x0 PUSH1 0x20 DUP3 DUP5 SUB SLT ISZERO PUSH2 0x714 JUMPI PUSH2 0x713 PUSH2 0x609 JUMP JUMPDEST JUMPDEST PUSH1 0x0 PUSH2 0x722 DUP5 DUP3 DUP6 ADD PUSH2 0x6E9 JUMP JUMPDEST SWAP2 POP POP SWAP3 SWAP2 POP POP JUMP JUMPDEST PUSH2 0x734 DUP2 PUSH2 0x633 JUMP JUMPDEST DUP3 MSTORE POP POP JUMP JUMPDEST PUSH1 0x0 PUSH1 0x20 DUP3 ADD SWAP1 POP PUSH2 0x74F PUSH1 0x0 DUP4 ADD DUP5 PUSH2 0x72B JUMP JUMPDEST SWAP3 SWAP2 POP POP JUMP JUMPDEST PUSH1 0x0 DUP1 REVERT JUMPDEST PUSH1 0x0 DUP1 REVERT JUMPDEST PUSH32 0x4E487B7100000000000000000000000000000000000000000000000000000000 PUSH1 0x0 MSTORE PUSH1 0x41 PUSH1 0x4 MSTORE PUSH1 0x24 PUSH1 0x0 REVERT JUMPDEST PUSH2 0x797 DUP3 PUSH2 0x593 JUMP JUMPDEST DUP2 ADD DUP2 DUP2 LT PUSH8 0xFFFFFFFFFFFFFFFF DUP3 GT OR ISZERO PUSH2 0x7B6 JUMPI PUSH2 0x7B5 PUSH2 0x75F JUMP JUMPDEST JUMPDEST DUP1 PUSH1 0x40 MSTORE POP POP POP JUMP JUMPDEST PUSH1 0x0 PUSH2 0x7C9 PUSH2 0x5FF JUMP JUMPDEST SWAP1 POP PUSH2 0x7D5 DUP3 DUP3 PUSH2 0x78E JUMP JUMPDEST SWAP2 SWAP1 POP JUMP JUMPDEST PUSH1 0x0 PUSH8 0xFFFFFFFFFFFFFFFF DUP3 GT ISZERO PUSH2 0x7F5 JUMPI PUSH2 0x7F4 PUSH2 0x75F JUMP JUMPDEST JUMPDEST PUSH2 0x7FE DUP3 PUSH2 0x593 JUMP JUMPDEST SWAP1 POP PUSH1 0x20 DUP2 ADD SWAP1 POP SWAP2 SWAP1 POP JUMP JUMPDEST DUP3 DUP2 DUP4 CALLDATACOPY PUSH1 0x0 DUP4 DUP4 ADD MSTORE POP POP POP JUMP JUMPDEST PUSH1 0x0 PUSH2 0x82D PUSH2 0x828 DUP5 PUSH2 0x7DA JUMP JUMPDEST PUSH2 0x7BF JUMP JUMPDEST SWAP1 POP DUP3 DUP2 MSTORE PUSH1 0x20 DUP2 ADD DUP5 DUP5 DUP5 ADD GT ISZERO PUSH2 0x849 JUMPI PUSH2 0x848 PUSH2 0x75A JUMP JUMPDEST JUMPDEST PUSH2 0x854 DUP5 DUP3 DUP6 PUSH2 0x80B JUMP JUMPDEST POP SWAP4 SWAP3 POP POP POP JUMP JUMPDEST PUSH1 0x0 DUP3 PUSH1 0x1F DUP4 ADD SLT PUSH2 0x871 JUMPI PUSH2 0x870 PUSH2 0x755 JUMP JUMPDEST JUMPDEST DUP2 CALLDATALOAD PUSH2 0x881 DUP5 DUP3 PUSH1 0x20 DUP7 ADD PUSH2 0x81A JUMP JUMPDEST SWAP2 POP POP SWAP3 SWAP2 POP POP JUMP JUMPDEST PUSH1 0x0 DUP1 PUSH1 0x0 PUSH1 0x60 DUP5 DUP7 SUB SLT ISZERO PUSH2 0x8A3 JUMPI PUSH2 0x8A2 PUSH2 0x609 JUMP JUMPDEST JUMPDEST PUSH1 0x0 DUP5 ADD CALLDATALOAD PUSH8 0xFFFFFFFFFFFFFFFF DUP2 GT ISZERO PUSH2 0x8C1 JUMPI PUSH2 0x8C0 PUSH2 0x60E JUMP JUMPDEST JUMPDEST PUSH2 0x8CD DUP7 DUP3 DUP8 ADD PUSH2 0x85C JUMP JUMPDEST SWAP4 POP POP PUSH1 0x20 PUSH2 0x8DE DUP7 DUP3 DUP8 ADD PUSH2 0x6E9 JUMP JUMPDEST SWAP3 POP POP PUSH1 0x40 PUSH2 0x8EF DUP7 DUP3 DUP8 ADD PUSH2 0x6E9 JUMP JUMPDEST SWAP2 POP POP SWAP3 POP SWAP3 POP SWAP3 JUMP JUMPDEST PUSH2 0x902 DUP2 PUSH2 0x69E JUMP JUMPDEST DUP2 EQ PUSH2 0x90D JUMPI PUSH1 0x0 DUP1 REVERT JUMPDEST POP JUMP JUMPDEST PUSH1 0x0 DUP2 CALLDATALOAD SWAP1 POP PUSH2 0x91F DUP2 PUSH2 0x8F9 JUMP JUMPDEST SWAP3 SWAP2 POP POP JUMP JUMPDEST PUSH1 0x0 DUP1 PUSH1 0x40 DUP4 DUP6 SUB SLT ISZERO PUSH2 0x93C JUMPI PUSH2 0x93B PUSH2 0x609 JUMP JUMPDEST JUMPDEST PUSH1 0x0 PUSH2 0x94A DUP6 DUP3 DUP7 ADD PUSH2 0x65C JUMP JUMPDEST SWAP3 POP POP PUSH1 0x20 PUSH2 0x95B DUP6 DUP3 DUP7 ADD PUSH2 0x910 JUMP JUMPDEST SWAP2 POP POP SWAP3 POP SWAP3 SWAP1 POP JUMP JUMPDEST PUSH32 0x4E487B7100000000000000000000000000000000000000000000000000000000 PUSH1 0x0 MSTORE PUSH1 0x22 PUSH1 0x4 MSTORE PUSH1 0x24 PUSH1 0x0 REVERT JUMPDEST PUSH1 0x0 PUSH1 0x2 DUP3 DIV SWAP1 POP PUSH1 0x1 DUP3 AND DUP1 PUSH2 0x9AC JUMPI PUSH1 0x7F DUP3 AND SWAP2 POP JUMPDEST PUSH1 0x20 DUP3 LT DUP2 SUB PUSH2 0x9BF JUMPI PUSH2 0x9BE PUSH2 0x965 JUMP JUMPDEST JUMPDEST POP SWAP2 SWAP1 POP JUMP JUMPDEST PUSH32 0x4F6E6C792061756374696F6E6565722063616E2063616C6C2074686973206675 PUSH1 0x0 DUP3 ADD MSTORE PUSH32 0x6E6374696F6E2E00000000000000000000000000000000000000000000000000 PUSH1 0x20 DUP3 ADD MSTORE POP JUMP JUMPDEST PUSH1 0x0 PUSH2 0xA21 PUSH1 0x27 DUP4 PUSH2 0x54F JUMP JUMPDEST SWAP2 POP PUSH2 0xA2C DUP3 PUSH2 0x9C5 JUMP JUMPDEST PUSH1 0x40 DUP3 ADD SWAP1 POP SWAP2 SWAP1 POP JUMP JUMPDEST PUSH1 0x0 PUSH1 0x20 DUP3 ADD SWAP1 POP DUP2 DUP2 SUB PUSH1 0x0 DUP4 ADD MSTORE PUSH2 0xA50 DUP2 PUSH2 0xA14 JUMP JUMPDEST SWAP1 POP SWAP2 SWAP1 POP JUMP JUMPDEST PUSH32 0x41756374696F6E656572206973206E6F7420616C6C6F77656420746F20726567 PUSH1 0x0 DUP3 ADD MSTORE PUSH32 0x6973746572206173206120626964646572000000000000000000000000000000 PUSH1 0x20 DUP3 ADD MSTORE POP JUMP JUMPDEST PUSH1 0x0 PUSH2 0xAB3 PUSH1 0x31 DUP4 PUSH2 0x54F JUMP JUMPDEST SWAP2 POP PUSH2 0xABE DUP3 PUSH2 0xA57 JUMP JUMPDEST PUSH1 0x40 DUP3 ADD SWAP1 POP SWAP2 SWAP1 POP JUMP JUMPDEST PUSH1 0x0 PUSH1 0x20 DUP3 ADD SWAP1 POP DUP2 DUP2 SUB PUSH1 0x0 DUP4 ADD MSTORE PUSH2 0xAE2 DUP2 PUSH2 0xAA6 JUMP JUMPDEST SWAP1 POP SWAP2 SWAP1 POP JUMP INVALID LOG2 PUSH5 0x6970667358 0x22 SLT KECCAK256 CHAINID PUSH3 0x5F964E PUSH12 0xD4731D1C319D6D64DAFD11FE SAR 0xEA 0xA9 0x24 EXTCODECOPY 0xAA 0x4B 0x24 STOP SUB DIFFICULTY DUP1 MSIZE DUP15 PUSH5 0x736F6C6343 STOP ADDMOD 0xE STOP CALLER "
				},
				"gasEstimates": {
					"creation": {
						"codeDepositCost": "569400",
						"executionCost": "24866",
						"totalCost": "594266"
					},
					"external": {
						"assetDescription()": "infinite",
						"bidders(uint256)": "5023",
						"minBidPrice()": "2430",
						"minNumberOfBidders()": "2429",
						"publicKeys(address)": "2859",
						"registerAuctionInfo(string,uint256,uint256)": "infinite",
						"registerBidder()": "50955",
						"submitPublicKeys(address,bytes32)": "22876"
					}
				},
				"methodIdentifiers": {
					"assetDescription()": "938626c2",
					"bidders(uint256)": "cff29dfd",
					"minBidPrice()": "34eb86a2",
					"minNumberOfBidders()": "daa0218f",
					"publicKeys(address)": "a3d6f9a9",
					"registerAuctionInfo(string,uint256,uint256)": "e7d2a997",
					"registerBidder()": "f356733c",
					"submitPublicKeys(address,bytes32)": "e817071e"
				}
			},
			"storageLayout": {
				"storage": [
					{
						"astId": 3,
						"contract": "Contracts/AKEB.sol:AKEB",
						"label": "auctioneer",
						"offset": 0,
						"slot": "0",
						"type": "t_address"
					},
					{
						"astId": 6,
						"contract": "Contracts/AKEB.sol:AKEB",
						"label": "bidders",
						"offset": 0,
						"slot": "1",
						"type": "t_array(t_address)dyn_storage"
					},
					{
						"astId": 8,
						"contract": "Contracts/AKEB.sol:AKEB",
						"label": "assetDescription",
						"offset": 0,
						"slot": "2",
						"type": "t_string_storage"
					},
					{
						"astId": 10,
						"contract": "Contracts/AKEB.sol:AKEB",
						"label": "minBidPrice",
						"offset": 0,
						"slot": "3",
						"type": "t_uint256"
					},
					{
						"astId": 12,
						"contract": "Contracts/AKEB.sol:AKEB",
						"label": "minNumberOfBidders",
						"offset": 0,
						"slot": "4",
						"type": "t_uint256"
					},
					{
						"astId": 16,
						"contract": "Contracts/AKEB.sol:AKEB",
						"label": "publicKeys",
						"offset": 0,
						"slot": "5",
						"type": "t_mapping(t_address,t_bytes32)"
					}
				],
				"types": {
					"t_address": {
						"encoding": "inplace",
						"label": "address",
						"numberOfBytes": "20"
					},
					"t_array(t_address)dyn_storage": {
						"base": "t_address",
						"encoding": "dynamic_array",
						"label": "address[]",
						"numberOfBytes": "32"
					},
					"t_bytes32": {
						"encoding": "inplace",
						"label": "bytes32",
						"numberOfBytes": "32"
					},
					"t_mapping(t_address,t_bytes32)": {
						"encoding": "mapping",
						"key": "t_address",
						"label": "mapping(address => bytes32)",
						"numberOfBytes": "32",
						"value": "t_bytes32"
					},
					"t_string_storage": {
						"encoding": "bytes",
						"label": "string",
						"numberOfBytes": "32"
					},
					"t_uint256": {
						"encoding": "inplace",
						"label": "uint256",
						"numberOfBytes": "32"
					}
				}
			},
			"userdoc": {
				"kind": "user",
				"methods": {},
				"version": 1
			}
		}
	}
}