{
	"data": {
		"bytecode": {
			"linkReferences": {},
			"object": "608060405234801561001057600080fd5b50611545806100206000396000f3fe608060405234801561001057600080fd5b50600436106101425760003560e01c80638f772f96116100b8578063d826f88f1161007c578063d826f88f1461036b578063daa0218f14610375578063e7d2a99714610393578063ed7a4e0b146103af578063f356733c146103cd578063ff567d8d146103d757610142565b80638f772f96146102af578063938626c2146102e1578063ceb98f6e146102ff578063cff29dfd1461031d578063d476620b1461034d57610142565b80633817df4c1161010a5780633817df4c146101ed5780633c68889a1461021d57806340bd59371461023b5780635fa382801461024557806366c85dee1461027557806383050daa1461029157610142565b806305fb23cf1461014757806310a37c261461017757806311631d06146101955780631744e03b146101b357806334eb86a2146101cf575b600080fd5b610161600480360381019061015c9190610f43565b6103f3565b60405161016e9190611009565b60405180910390f35b61017f6104c4565b60405161018c919061103a565b60405180910390f35b61019d6104ee565b6040516101aa919061106e565b60405180910390f35b6101cd60048036038101906101c891906111ea565b6104f4565b005b6101d7610557565b6040516101e4919061106e565b60405180910390f35b61020760048036038101906102029190610f43565b61055d565b6040516102149190611009565b60405180910390f35b6102256105fd565b6040516102329190611009565b60405180910390f35b61024361068f565b005b61025f600480360381019061025a9190611246565b610745565b60405161026c919061103a565b60405180910390f35b61028f600480360381019061028a91906111ea565b61078d565b005b610299610863565b6040516102a69190611009565b60405180910390f35b6102c960048036038101906102c49190611246565b6108a0565b6040516102d893929190611273565b60405180910390f35b6102e9610982565b6040516102f69190611009565b60405180910390f35b610307610a10565b604051610314919061106e565b60405180910390f35b61033760048036038101906103329190611246565b610a1a565b604051610344919061103a565b60405180910390f35b610355610a59565b6040516103629190611009565b60405180910390f35b610373610ae7565b005b61037d610bb3565b60405161038a919061106e565b60405180910390f35b6103ad60048036038101906103a891906112b1565b610bb9565b005b6103b7610c71565b6040516103c4919061103a565b60405180910390f35b6103d5610c97565b005b6103f160048036038101906103ec9190611320565b610cfc565b005b6060600560008373ffffffffffffffffffffffffffffffffffffffff1673ffffffffffffffffffffffffffffffffffffffff168152602001908152602001600020805461043f90611398565b80601f016020809104026020016040519081016040528092919081815260200182805461046b90611398565b80156104b85780601f1061048d576101008083540402835291602001916104b8565b820191906000526020600020905b81548152906001019060200180831161049b57829003601f168201915b50505050509050919050565b6000600660009054906101000a900473ffffffffffffffffffffffffffffffffffffffff16905090565b60075481565b33600660006101000a81548173ffffffffffffffffffffffffffffffffffffffff021916908373ffffffffffffffffffffffffffffffffffffffff160217905550816007819055508060089080519060200190610552929190610d53565b505050565b60035481565b6005602052806000526040600020600091509050805461057c90611398565b80601f01602080910402602001604051908101604052809291908181526020018280546105a890611398565b80156105f55780601f106105ca576101008083540402835291602001916105f5565b820191906000526020600020905b8154815290600101906020018083116105d857829003601f168201915b505050505081565b60606008805461060c90611398565b80601f016020809104026020016040519081016040528092919081815260200182805461063890611398565b80156106855780601f1061065a57610100808354040283529160200191610685565b820191906000526020600020905b81548152906001019060200180831161066857829003601f168201915b5050505050905090565b60005b600180549050811015610742576000600182815481106106b5576106b46113c9565b5b9060005260206000200160009054906101000a900473ffffffffffffffffffffffffffffffffffffffff169050600560008273ffffffffffffffffffffffffffffffffffffffff1673ffffffffffffffffffffffffffffffffffffffff168152602001908152602001600020600061072d9190610dd9565b5060018161073b9190611427565b9050610692565b50565b60006001828154811061075b5761075a6113c9565b5b9060005260206000200160009054906101000a900473ffffffffffffffffffffffffffffffffffffffff169050919050565b600060405180606001604052808481526020013373ffffffffffffffffffffffffffffffffffffffff16815260200183815250905060098190806001815401808255809150506001900390600052602060002090600302016000909190919091506000820151816000015560208201518160010160006101000a81548173ffffffffffffffffffffffffffffffffffffffff021916908373ffffffffffffffffffffffffffffffffffffffff160217905550604082015181600201908051906020019061085b929190610d53565b505050505050565b60606040518060400160405280601781526020017f73616d706c6520737472696e672066726f6d20414b4542000000000000000000815250905090565b600981815481106108b057600080fd5b90600052602060002090600302016000915090508060000154908060010160009054906101000a900473ffffffffffffffffffffffffffffffffffffffff16908060020180546108ff90611398565b80601f016020809104026020016040519081016040528092919081815260200182805461092b90611398565b80156109785780601f1061094d57610100808354040283529160200191610978565b820191906000526020600020905b81548152906001019060200180831161095b57829003601f168201915b5050505050905083565b6002805461098f90611398565b80601f01602080910402602001604051908101604052809291908181526020018280546109bb90611398565b8015610a085780601f106109dd57610100808354040283529160200191610a08565b820191906000526020600020905b8154815290600101906020018083116109eb57829003601f168201915b505050505081565b6000600754905090565b60018181548110610a2a57600080fd5b906000526020600020016000915054906101000a900473ffffffffffffffffffffffffffffffffffffffff1681565b60088054610a6690611398565b80601f0160208091040260200160405190810160405280929190818152602001828054610a9290611398565b8015610adf5780601f10610ab457610100808354040283529160200191610adf565b820191906000526020600020905b815481529060010190602001808311610ac257829003601f168201915b505050505081565b6000600660006101000a81548173ffffffffffffffffffffffffffffffffffffffff021916908373ffffffffffffffffffffffffffffffffffffffff16021790555060006007819055506040518060200160405280600081525060089080519060200190610b56929190610d53565b506040518060200160405280600081525060029080519060200190610b7c929190610d53565b5060006003819055506000600481905550610b9561068f565b60016000610ba39190610e19565b60096000610bb19190610e3a565b565b60045481565b60008054906101000a900473ffffffffffffffffffffffffffffffffffffffff1673ffffffffffffffffffffffffffffffffffffffff163373ffffffffffffffffffffffffffffffffffffffff1614610c47576040517f08c379a0000000000000000000000000000000000000000000000000000000008152600401610c3e906114ef565b60405180910390fd5b8260029080519060200190610c5d929190610d53565b508160038190555080600481905550505050565b600660009054906101000a900473ffffffffffffffffffffffffffffffffffffffff1681565b6001339080600181540180825580915050600190039060005260206000200160009091909190916101000a81548173ffffffffffffffffffffffffffffffffffffffff021916908373ffffffffffffffffffffffffffffffffffffffff160217905550565b80600560003373ffffffffffffffffffffffffffffffffffffffff1673ffffffffffffffffffffffffffffffffffffffff1681526020019081526020016000209080519060200190610d4f929190610d53565b5050565b828054610d5f90611398565b90600052602060002090601f016020900481019282610d815760008555610dc8565b82601f10610d9a57805160ff1916838001178555610dc8565b82800160010185558215610dc8579182015b82811115610dc7578251825591602001919060010190610dac565b5b509050610dd59190610e5e565b5090565b508054610de590611398565b6000825580601f10610df75750610e16565b601f016020900490600052602060002090810190610e159190610e5e565b5b50565b5080546000825590600052602060002090810190610e379190610e5e565b50565b5080546000825560030290600052602060002090810190610e5b9190610e7b565b50565b5b80821115610e77576000816000905550600101610e5f565b5090565b5b80821115610ecd576000808201600090556001820160006101000a81549073ffffffffffffffffffffffffffffffffffffffff0219169055600282016000610ec49190610dd9565b50600301610e7c565b5090565b6000604051905090565b600080fd5b600080fd5b600073ffffffffffffffffffffffffffffffffffffffff82169050919050565b6000610f1082610ee5565b9050919050565b610f2081610f05565b8114610f2b57600080fd5b50565b600081359050610f3d81610f17565b92915050565b600060208284031215610f5957610f58610edb565b5b6000610f6784828501610f2e565b91505092915050565b600081519050919050565b600082825260208201905092915050565b60005b83811015610faa578082015181840152602081019050610f8f565b83811115610fb9576000848401525b50505050565b6000601f19601f8301169050919050565b6000610fdb82610f70565b610fe58185610f7b565b9350610ff5818560208601610f8c565b610ffe81610fbf565b840191505092915050565b600060208201905081810360008301526110238184610fd0565b905092915050565b61103481610f05565b82525050565b600060208201905061104f600083018461102b565b92915050565b6000819050919050565b61106881611055565b82525050565b6000602082019050611083600083018461105f565b92915050565b61109281611055565b811461109d57600080fd5b50565b6000813590506110af81611089565b92915050565b600080fd5b600080fd5b7f4e487b7100000000000000000000000000000000000000000000000000000000600052604160045260246000fd5b6110f782610fbf565b810181811067ffffffffffffffff82111715611116576111156110bf565b5b80604052505050565b6000611129610ed1565b905061113582826110ee565b919050565b600067ffffffffffffffff821115611155576111546110bf565b5b61115e82610fbf565b9050602081019050919050565b82818337600083830152505050565b600061118d6111888461113a565b61111f565b9050828152602081018484840111156111a9576111a86110ba565b5b6111b484828561116b565b509392505050565b600082601f8301126111d1576111d06110b5565b5b81356111e184826020860161117a565b91505092915050565b6000806040838503121561120157611200610edb565b5b600061120f858286016110a0565b925050602083013567ffffffffffffffff8111156112305761122f610ee0565b5b61123c858286016111bc565b9150509250929050565b60006020828403121561125c5761125b610edb565b5b600061126a848285016110a0565b91505092915050565b6000606082019050611288600083018661105f565b611295602083018561102b565b81810360408301526112a78184610fd0565b9050949350505050565b6000806000606084860312156112ca576112c9610edb565b5b600084013567ffffffffffffffff8111156112e8576112e7610ee0565b5b6112f4868287016111bc565b9350506020611305868287016110a0565b9250506040611316868287016110a0565b9150509250925092565b60006020828403121561133657611335610edb565b5b600082013567ffffffffffffffff81111561135457611353610ee0565b5b611360848285016111bc565b91505092915050565b7f4e487b7100000000000000000000000000000000000000000000000000000000600052602260045260246000fd5b600060028204905060018216806113b057607f821691505b6020821081036113c3576113c2611369565b5b50919050565b7f4e487b7100000000000000000000000000000000000000000000000000000000600052603260045260246000fd5b7f4e487b7100000000000000000000000000000000000000000000000000000000600052601160045260246000fd5b600061143282611055565b915061143d83611055565b9250827fffffffffffffffffffffffffffffffffffffffffffffffffffffffffffffffff03821115611472576114716113f8565b5b828201905092915050565b7f4f6e6c792061756374696f6e6565722063616e2063616c6c207468697320667560008201527f6e6374696f6e2e00000000000000000000000000000000000000000000000000602082015250565b60006114d9602783610f7b565b91506114e48261147d565b604082019050919050565b60006020820190508181036000830152611508816114cc565b905091905056fea2646970667358221220d473334152c6cbf009584c0a42e72fc03dcd73e7a36cf5428463a62c2fe3e45f64736f6c634300080e0033",
			"opcodes": "PUSH1 0x80 PUSH1 0x40 MSTORE CALLVALUE DUP1 ISZERO PUSH2 0x10 JUMPI PUSH1 0x0 DUP1 REVERT JUMPDEST POP PUSH2 0x1545 DUP1 PUSH2 0x20 PUSH1 0x0 CODECOPY PUSH1 0x0 RETURN INVALID PUSH1 0x80 PUSH1 0x40 MSTORE CALLVALUE DUP1 ISZERO PUSH2 0x10 JUMPI PUSH1 0x0 DUP1 REVERT JUMPDEST POP PUSH1 0x4 CALLDATASIZE LT PUSH2 0x142 JUMPI PUSH1 0x0 CALLDATALOAD PUSH1 0xE0 SHR DUP1 PUSH4 0x8F772F96 GT PUSH2 0xB8 JUMPI DUP1 PUSH4 0xD826F88F GT PUSH2 0x7C JUMPI DUP1 PUSH4 0xD826F88F EQ PUSH2 0x36B JUMPI DUP1 PUSH4 0xDAA0218F EQ PUSH2 0x375 JUMPI DUP1 PUSH4 0xE7D2A997 EQ PUSH2 0x393 JUMPI DUP1 PUSH4 0xED7A4E0B EQ PUSH2 0x3AF JUMPI DUP1 PUSH4 0xF356733C EQ PUSH2 0x3CD JUMPI DUP1 PUSH4 0xFF567D8D EQ PUSH2 0x3D7 JUMPI PUSH2 0x142 JUMP JUMPDEST DUP1 PUSH4 0x8F772F96 EQ PUSH2 0x2AF JUMPI DUP1 PUSH4 0x938626C2 EQ PUSH2 0x2E1 JUMPI DUP1 PUSH4 0xCEB98F6E EQ PUSH2 0x2FF JUMPI DUP1 PUSH4 0xCFF29DFD EQ PUSH2 0x31D JUMPI DUP1 PUSH4 0xD476620B EQ PUSH2 0x34D JUMPI PUSH2 0x142 JUMP JUMPDEST DUP1 PUSH4 0x3817DF4C GT PUSH2 0x10A JUMPI DUP1 PUSH4 0x3817DF4C EQ PUSH2 0x1ED JUMPI DUP1 PUSH4 0x3C68889A EQ PUSH2 0x21D JUMPI DUP1 PUSH4 0x40BD5937 EQ PUSH2 0x23B JUMPI DUP1 PUSH4 0x5FA38280 EQ PUSH2 0x245 JUMPI DUP1 PUSH4 0x66C85DEE EQ PUSH2 0x275 JUMPI DUP1 PUSH4 0x83050DAA EQ PUSH2 0x291 JUMPI PUSH2 0x142 JUMP JUMPDEST DUP1 PUSH4 0x5FB23CF EQ PUSH2 0x147 JUMPI DUP1 PUSH4 0x10A37C26 EQ PUSH2 0x177 JUMPI DUP1 PUSH4 0x11631D06 EQ PUSH2 0x195 JUMPI DUP1 PUSH4 0x1744E03B EQ PUSH2 0x1B3 JUMPI DUP1 PUSH4 0x34EB86A2 EQ PUSH2 0x1CF JUMPI JUMPDEST PUSH1 0x0 DUP1 REVERT JUMPDEST PUSH2 0x161 PUSH1 0x4 DUP1 CALLDATASIZE SUB DUP2 ADD SWAP1 PUSH2 0x15C SWAP2 SWAP1 PUSH2 0xF43 JUMP JUMPDEST PUSH2 0x3F3 JUMP JUMPDEST PUSH1 0x40 MLOAD PUSH2 0x16E SWAP2 SWAP1 PUSH2 0x1009 JUMP JUMPDEST PUSH1 0x40 MLOAD DUP1 SWAP2 SUB SWAP1 RETURN JUMPDEST PUSH2 0x17F PUSH2 0x4C4 JUMP JUMPDEST PUSH1 0x40 MLOAD PUSH2 0x18C SWAP2 SWAP1 PUSH2 0x103A JUMP JUMPDEST PUSH1 0x40 MLOAD DUP1 SWAP2 SUB SWAP1 RETURN JUMPDEST PUSH2 0x19D PUSH2 0x4EE JUMP JUMPDEST PUSH1 0x40 MLOAD PUSH2 0x1AA SWAP2 SWAP1 PUSH2 0x106E JUMP JUMPDEST PUSH1 0x40 MLOAD DUP1 SWAP2 SUB SWAP1 RETURN JUMPDEST PUSH2 0x1CD PUSH1 0x4 DUP1 CALLDATASIZE SUB DUP2 ADD SWAP1 PUSH2 0x1C8 SWAP2 SWAP1 PUSH2 0x11EA JUMP JUMPDEST PUSH2 0x4F4 JUMP JUMPDEST STOP JUMPDEST PUSH2 0x1D7 PUSH2 0x557 JUMP JUMPDEST PUSH1 0x40 MLOAD PUSH2 0x1E4 SWAP2 SWAP1 PUSH2 0x106E JUMP JUMPDEST PUSH1 0x40 MLOAD DUP1 SWAP2 SUB SWAP1 RETURN JUMPDEST PUSH2 0x207 PUSH1 0x4 DUP1 CALLDATASIZE SUB DUP2 ADD SWAP1 PUSH2 0x202 SWAP2 SWAP1 PUSH2 0xF43 JUMP JUMPDEST PUSH2 0x55D JUMP JUMPDEST PUSH1 0x40 MLOAD PUSH2 0x214 SWAP2 SWAP1 PUSH2 0x1009 JUMP JUMPDEST PUSH1 0x40 MLOAD DUP1 SWAP2 SUB SWAP1 RETURN JUMPDEST PUSH2 0x225 PUSH2 0x5FD JUMP JUMPDEST PUSH1 0x40 MLOAD PUSH2 0x232 SWAP2 SWAP1 PUSH2 0x1009 JUMP JUMPDEST PUSH1 0x40 MLOAD DUP1 SWAP2 SUB SWAP1 RETURN JUMPDEST PUSH2 0x243 PUSH2 0x68F JUMP JUMPDEST STOP JUMPDEST PUSH2 0x25F PUSH1 0x4 DUP1 CALLDATASIZE SUB DUP2 ADD SWAP1 PUSH2 0x25A SWAP2 SWAP1 PUSH2 0x1246 JUMP JUMPDEST PUSH2 0x745 JUMP JUMPDEST PUSH1 0x40 MLOAD PUSH2 0x26C SWAP2 SWAP1 PUSH2 0x103A JUMP JUMPDEST PUSH1 0x40 MLOAD DUP1 SWAP2 SUB SWAP1 RETURN JUMPDEST PUSH2 0x28F PUSH1 0x4 DUP1 CALLDATASIZE SUB DUP2 ADD SWAP1 PUSH2 0x28A SWAP2 SWAP1 PUSH2 0x11EA JUMP JUMPDEST PUSH2 0x78D JUMP JUMPDEST STOP JUMPDEST PUSH2 0x299 PUSH2 0x863 JUMP JUMPDEST PUSH1 0x40 MLOAD PUSH2 0x2A6 SWAP2 SWAP1 PUSH2 0x1009 JUMP JUMPDEST PUSH1 0x40 MLOAD DUP1 SWAP2 SUB SWAP1 RETURN JUMPDEST PUSH2 0x2C9 PUSH1 0x4 DUP1 CALLDATASIZE SUB DUP2 ADD SWAP1 PUSH2 0x2C4 SWAP2 SWAP1 PUSH2 0x1246 JUMP JUMPDEST PUSH2 0x8A0 JUMP JUMPDEST PUSH1 0x40 MLOAD PUSH2 0x2D8 SWAP4 SWAP3 SWAP2 SWAP1 PUSH2 0x1273 JUMP JUMPDEST PUSH1 0x40 MLOAD DUP1 SWAP2 SUB SWAP1 RETURN JUMPDEST PUSH2 0x2E9 PUSH2 0x982 JUMP JUMPDEST PUSH1 0x40 MLOAD PUSH2 0x2F6 SWAP2 SWAP1 PUSH2 0x1009 JUMP JUMPDEST PUSH1 0x40 MLOAD DUP1 SWAP2 SUB SWAP1 RETURN JUMPDEST PUSH2 0x307 PUSH2 0xA10 JUMP JUMPDEST PUSH1 0x40 MLOAD PUSH2 0x314 SWAP2 SWAP1 PUSH2 0x106E JUMP JUMPDEST PUSH1 0x40 MLOAD DUP1 SWAP2 SUB SWAP1 RETURN JUMPDEST PUSH2 0x337 PUSH1 0x4 DUP1 CALLDATASIZE SUB DUP2 ADD SWAP1 PUSH2 0x332 SWAP2 SWAP1 PUSH2 0x1246 JUMP JUMPDEST PUSH2 0xA1A JUMP JUMPDEST PUSH1 0x40 MLOAD PUSH2 0x344 SWAP2 SWAP1 PUSH2 0x103A JUMP JUMPDEST PUSH1 0x40 MLOAD DUP1 SWAP2 SUB SWAP1 RETURN JUMPDEST PUSH2 0x355 PUSH2 0xA59 JUMP JUMPDEST PUSH1 0x40 MLOAD PUSH2 0x362 SWAP2 SWAP1 PUSH2 0x1009 JUMP JUMPDEST PUSH1 0x40 MLOAD DUP1 SWAP2 SUB SWAP1 RETURN JUMPDEST PUSH2 0x373 PUSH2 0xAE7 JUMP JUMPDEST STOP JUMPDEST PUSH2 0x37D PUSH2 0xBB3 JUMP JUMPDEST PUSH1 0x40 MLOAD PUSH2 0x38A SWAP2 SWAP1 PUSH2 0x106E JUMP JUMPDEST PUSH1 0x40 MLOAD DUP1 SWAP2 SUB SWAP1 RETURN JUMPDEST PUSH2 0x3AD PUSH1 0x4 DUP1 CALLDATASIZE SUB DUP2 ADD SWAP1 PUSH2 0x3A8 SWAP2 SWAP1 PUSH2 0x12B1 JUMP JUMPDEST PUSH2 0xBB9 JUMP JUMPDEST STOP JUMPDEST PUSH2 0x3B7 PUSH2 0xC71 JUMP JUMPDEST PUSH1 0x40 MLOAD PUSH2 0x3C4 SWAP2 SWAP1 PUSH2 0x103A JUMP JUMPDEST PUSH1 0x40 MLOAD DUP1 SWAP2 SUB SWAP1 RETURN JUMPDEST PUSH2 0x3D5 PUSH2 0xC97 JUMP JUMPDEST STOP JUMPDEST PUSH2 0x3F1 PUSH1 0x4 DUP1 CALLDATASIZE SUB DUP2 ADD SWAP1 PUSH2 0x3EC SWAP2 SWAP1 PUSH2 0x1320 JUMP JUMPDEST PUSH2 0xCFC JUMP JUMPDEST STOP JUMPDEST PUSH1 0x60 PUSH1 0x5 PUSH1 0x0 DUP4 PUSH20 0xFFFFFFFFFFFFFFFFFFFFFFFFFFFFFFFFFFFFFFFF AND PUSH20 0xFFFFFFFFFFFFFFFFFFFFFFFFFFFFFFFFFFFFFFFF AND DUP2 MSTORE PUSH1 0x20 ADD SWAP1 DUP2 MSTORE PUSH1 0x20 ADD PUSH1 0x0 KECCAK256 DUP1 SLOAD PUSH2 0x43F SWAP1 PUSH2 0x1398 JUMP JUMPDEST DUP1 PUSH1 0x1F ADD PUSH1 0x20 DUP1 SWAP2 DIV MUL PUSH1 0x20 ADD PUSH1 0x40 MLOAD SWAP1 DUP2 ADD PUSH1 0x40 MSTORE DUP1 SWAP3 SWAP2 SWAP1 DUP2 DUP2 MSTORE PUSH1 0x20 ADD DUP3 DUP1 SLOAD PUSH2 0x46B SWAP1 PUSH2 0x1398 JUMP JUMPDEST DUP1 ISZERO PUSH2 0x4B8 JUMPI DUP1 PUSH1 0x1F LT PUSH2 0x48D JUMPI PUSH2 0x100 DUP1 DUP4 SLOAD DIV MUL DUP4 MSTORE SWAP2 PUSH1 0x20 ADD SWAP2 PUSH2 0x4B8 JUMP JUMPDEST DUP3 ADD SWAP2 SWAP1 PUSH1 0x0 MSTORE PUSH1 0x20 PUSH1 0x0 KECCAK256 SWAP1 JUMPDEST DUP2 SLOAD DUP2 MSTORE SWAP1 PUSH1 0x1 ADD SWAP1 PUSH1 0x20 ADD DUP1 DUP4 GT PUSH2 0x49B JUMPI DUP3 SWAP1 SUB PUSH1 0x1F AND DUP3 ADD SWAP2 JUMPDEST POP POP POP POP POP SWAP1 POP SWAP2 SWAP1 POP JUMP JUMPDEST PUSH1 0x0 PUSH1 0x6 PUSH1 0x0 SWAP1 SLOAD SWAP1 PUSH2 0x100 EXP SWAP1 DIV PUSH20 0xFFFFFFFFFFFFFFFFFFFFFFFFFFFFFFFFFFFFFFFF AND SWAP1 POP SWAP1 JUMP JUMPDEST PUSH1 0x7 SLOAD DUP2 JUMP JUMPDEST CALLER PUSH1 0x6 PUSH1 0x0 PUSH2 0x100 EXP DUP2 SLOAD DUP2 PUSH20 0xFFFFFFFFFFFFFFFFFFFFFFFFFFFFFFFFFFFFFFFF MUL NOT AND SWAP1 DUP4 PUSH20 0xFFFFFFFFFFFFFFFFFFFFFFFFFFFFFFFFFFFFFFFF AND MUL OR SWAP1 SSTORE POP DUP2 PUSH1 0x7 DUP2 SWAP1 SSTORE POP DUP1 PUSH1 0x8 SWAP1 DUP1 MLOAD SWAP1 PUSH1 0x20 ADD SWAP1 PUSH2 0x552 SWAP3 SWAP2 SWAP1 PUSH2 0xD53 JUMP JUMPDEST POP POP POP JUMP JUMPDEST PUSH1 0x3 SLOAD DUP2 JUMP JUMPDEST PUSH1 0x5 PUSH1 0x20 MSTORE DUP1 PUSH1 0x0 MSTORE PUSH1 0x40 PUSH1 0x0 KECCAK256 PUSH1 0x0 SWAP2 POP SWAP1 POP DUP1 SLOAD PUSH2 0x57C SWAP1 PUSH2 0x1398 JUMP JUMPDEST DUP1 PUSH1 0x1F ADD PUSH1 0x20 DUP1 SWAP2 DIV MUL PUSH1 0x20 ADD PUSH1 0x40 MLOAD SWAP1 DUP2 ADD PUSH1 0x40 MSTORE DUP1 SWAP3 SWAP2 SWAP1 DUP2 DUP2 MSTORE PUSH1 0x20 ADD DUP3 DUP1 SLOAD PUSH2 0x5A8 SWAP1 PUSH2 0x1398 JUMP JUMPDEST DUP1 ISZERO PUSH2 0x5F5 JUMPI DUP1 PUSH1 0x1F LT PUSH2 0x5CA JUMPI PUSH2 0x100 DUP1 DUP4 SLOAD DIV MUL DUP4 MSTORE SWAP2 PUSH1 0x20 ADD SWAP2 PUSH2 0x5F5 JUMP JUMPDEST DUP3 ADD SWAP2 SWAP1 PUSH1 0x0 MSTORE PUSH1 0x20 PUSH1 0x0 KECCAK256 SWAP1 JUMPDEST DUP2 SLOAD DUP2 MSTORE SWAP1 PUSH1 0x1 ADD SWAP1 PUSH1 0x20 ADD DUP1 DUP4 GT PUSH2 0x5D8 JUMPI DUP3 SWAP1 SUB PUSH1 0x1F AND DUP3 ADD SWAP2 JUMPDEST POP POP POP POP POP DUP2 JUMP JUMPDEST PUSH1 0x60 PUSH1 0x8 DUP1 SLOAD PUSH2 0x60C SWAP1 PUSH2 0x1398 JUMP JUMPDEST DUP1 PUSH1 0x1F ADD PUSH1 0x20 DUP1 SWAP2 DIV MUL PUSH1 0x20 ADD PUSH1 0x40 MLOAD SWAP1 DUP2 ADD PUSH1 0x40 MSTORE DUP1 SWAP3 SWAP2 SWAP1 DUP2 DUP2 MSTORE PUSH1 0x20 ADD DUP3 DUP1 SLOAD PUSH2 0x638 SWAP1 PUSH2 0x1398 JUMP JUMPDEST DUP1 ISZERO PUSH2 0x685 JUMPI DUP1 PUSH1 0x1F LT PUSH2 0x65A JUMPI PUSH2 0x100 DUP1 DUP4 SLOAD DIV MUL DUP4 MSTORE SWAP2 PUSH1 0x20 ADD SWAP2 PUSH2 0x685 JUMP JUMPDEST DUP3 ADD SWAP2 SWAP1 PUSH1 0x0 MSTORE PUSH1 0x20 PUSH1 0x0 KECCAK256 SWAP1 JUMPDEST DUP2 SLOAD DUP2 MSTORE SWAP1 PUSH1 0x1 ADD SWAP1 PUSH1 0x20 ADD DUP1 DUP4 GT PUSH2 0x668 JUMPI DUP3 SWAP1 SUB PUSH1 0x1F AND DUP3 ADD SWAP2 JUMPDEST POP POP POP POP POP SWAP1 POP SWAP1 JUMP JUMPDEST PUSH1 0x0 JUMPDEST PUSH1 0x1 DUP1 SLOAD SWAP1 POP DUP2 LT ISZERO PUSH2 0x742 JUMPI PUSH1 0x0 PUSH1 0x1 DUP3 DUP2 SLOAD DUP2 LT PUSH2 0x6B5 JUMPI PUSH2 0x6B4 PUSH2 0x13C9 JUMP JUMPDEST JUMPDEST SWAP1 PUSH1 0x0 MSTORE PUSH1 0x20 PUSH1 0x0 KECCAK256 ADD PUSH1 0x0 SWAP1 SLOAD SWAP1 PUSH2 0x100 EXP SWAP1 DIV PUSH20 0xFFFFFFFFFFFFFFFFFFFFFFFFFFFFFFFFFFFFFFFF AND SWAP1 POP PUSH1 0x5 PUSH1 0x0 DUP3 PUSH20 0xFFFFFFFFFFFFFFFFFFFFFFFFFFFFFFFFFFFFFFFF AND PUSH20 0xFFFFFFFFFFFFFFFFFFFFFFFFFFFFFFFFFFFFFFFF AND DUP2 MSTORE PUSH1 0x20 ADD SWAP1 DUP2 MSTORE PUSH1 0x20 ADD PUSH1 0x0 KECCAK256 PUSH1 0x0 PUSH2 0x72D SWAP2 SWAP1 PUSH2 0xDD9 JUMP JUMPDEST POP PUSH1 0x1 DUP2 PUSH2 0x73B SWAP2 SWAP1 PUSH2 0x1427 JUMP JUMPDEST SWAP1 POP PUSH2 0x692 JUMP JUMPDEST POP JUMP JUMPDEST PUSH1 0x0 PUSH1 0x1 DUP3 DUP2 SLOAD DUP2 LT PUSH2 0x75B JUMPI PUSH2 0x75A PUSH2 0x13C9 JUMP JUMPDEST JUMPDEST SWAP1 PUSH1 0x0 MSTORE PUSH1 0x20 PUSH1 0x0 KECCAK256 ADD PUSH1 0x0 SWAP1 SLOAD SWAP1 PUSH2 0x100 EXP SWAP1 DIV PUSH20 0xFFFFFFFFFFFFFFFFFFFFFFFFFFFFFFFFFFFFFFFF AND SWAP1 POP SWAP2 SWAP1 POP JUMP JUMPDEST PUSH1 0x0 PUSH1 0x40 MLOAD DUP1 PUSH1 0x60 ADD PUSH1 0x40 MSTORE DUP1 DUP5 DUP2 MSTORE PUSH1 0x20 ADD CALLER PUSH20 0xFFFFFFFFFFFFFFFFFFFFFFFFFFFFFFFFFFFFFFFF AND DUP2 MSTORE PUSH1 0x20 ADD DUP4 DUP2 MSTORE POP SWAP1 POP PUSH1 0x9 DUP2 SWAP1 DUP1 PUSH1 0x1 DUP2 SLOAD ADD DUP1 DUP3 SSTORE DUP1 SWAP2 POP POP PUSH1 0x1 SWAP1 SUB SWAP1 PUSH1 0x0 MSTORE PUSH1 0x20 PUSH1 0x0 KECCAK256 SWAP1 PUSH1 0x3 MUL ADD PUSH1 0x0 SWAP1 SWAP2 SWAP1 SWAP2 SWAP1 SWAP2 POP PUSH1 0x0 DUP3 ADD MLOAD DUP2 PUSH1 0x0 ADD SSTORE PUSH1 0x20 DUP3 ADD MLOAD DUP2 PUSH1 0x1 ADD PUSH1 0x0 PUSH2 0x100 EXP DUP2 SLOAD DUP2 PUSH20 0xFFFFFFFFFFFFFFFFFFFFFFFFFFFFFFFFFFFFFFFF MUL NOT AND SWAP1 DUP4 PUSH20 0xFFFFFFFFFFFFFFFFFFFFFFFFFFFFFFFFFFFFFFFF AND MUL OR SWAP1 SSTORE POP PUSH1 0x40 DUP3 ADD MLOAD DUP2 PUSH1 0x2 ADD SWAP1 DUP1 MLOAD SWAP1 PUSH1 0x20 ADD SWAP1 PUSH2 0x85B SWAP3 SWAP2 SWAP1 PUSH2 0xD53 JUMP JUMPDEST POP POP POP POP POP POP JUMP JUMPDEST PUSH1 0x60 PUSH1 0x40 MLOAD DUP1 PUSH1 0x40 ADD PUSH1 0x40 MSTORE DUP1 PUSH1 0x17 DUP2 MSTORE PUSH1 0x20 ADD PUSH32 0x73616D706C6520737472696E672066726F6D20414B4542000000000000000000 DUP2 MSTORE POP SWAP1 POP SWAP1 JUMP JUMPDEST PUSH1 0x9 DUP2 DUP2 SLOAD DUP2 LT PUSH2 0x8B0 JUMPI PUSH1 0x0 DUP1 REVERT JUMPDEST SWAP1 PUSH1 0x0 MSTORE PUSH1 0x20 PUSH1 0x0 KECCAK256 SWAP1 PUSH1 0x3 MUL ADD PUSH1 0x0 SWAP2 POP SWAP1 POP DUP1 PUSH1 0x0 ADD SLOAD SWAP1 DUP1 PUSH1 0x1 ADD PUSH1 0x0 SWAP1 SLOAD SWAP1 PUSH2 0x100 EXP SWAP1 DIV PUSH20 0xFFFFFFFFFFFFFFFFFFFFFFFFFFFFFFFFFFFFFFFF AND SWAP1 DUP1 PUSH1 0x2 ADD DUP1 SLOAD PUSH2 0x8FF SWAP1 PUSH2 0x1398 JUMP JUMPDEST DUP1 PUSH1 0x1F ADD PUSH1 0x20 DUP1 SWAP2 DIV MUL PUSH1 0x20 ADD PUSH1 0x40 MLOAD SWAP1 DUP2 ADD PUSH1 0x40 MSTORE DUP1 SWAP3 SWAP2 SWAP1 DUP2 DUP2 MSTORE PUSH1 0x20 ADD DUP3 DUP1 SLOAD PUSH2 0x92B SWAP1 PUSH2 0x1398 JUMP JUMPDEST DUP1 ISZERO PUSH2 0x978 JUMPI DUP1 PUSH1 0x1F LT PUSH2 0x94D JUMPI PUSH2 0x100 DUP1 DUP4 SLOAD DIV MUL DUP4 MSTORE SWAP2 PUSH1 0x20 ADD SWAP2 PUSH2 0x978 JUMP JUMPDEST DUP3 ADD SWAP2 SWAP1 PUSH1 0x0 MSTORE PUSH1 0x20 PUSH1 0x0 KECCAK256 SWAP1 JUMPDEST DUP2 SLOAD DUP2 MSTORE SWAP1 PUSH1 0x1 ADD SWAP1 PUSH1 0x20 ADD DUP1 DUP4 GT PUSH2 0x95B JUMPI DUP3 SWAP1 SUB PUSH1 0x1F AND DUP3 ADD SWAP2 JUMPDEST POP POP POP POP POP SWAP1 POP DUP4 JUMP JUMPDEST PUSH1 0x2 DUP1 SLOAD PUSH2 0x98F SWAP1 PUSH2 0x1398 JUMP JUMPDEST DUP1 PUSH1 0x1F ADD PUSH1 0x20 DUP1 SWAP2 DIV MUL PUSH1 0x20 ADD PUSH1 0x40 MLOAD SWAP1 DUP2 ADD PUSH1 0x40 MSTORE DUP1 SWAP3 SWAP2 SWAP1 DUP2 DUP2 MSTORE PUSH1 0x20 ADD DUP3 DUP1 SLOAD PUSH2 0x9BB SWAP1 PUSH2 0x1398 JUMP JUMPDEST DUP1 ISZERO PUSH2 0xA08 JUMPI DUP1 PUSH1 0x1F LT PUSH2 0x9DD JUMPI PUSH2 0x100 DUP1 DUP4 SLOAD DIV MUL DUP4 MSTORE SWAP2 PUSH1 0x20 ADD SWAP2 PUSH2 0xA08 JUMP JUMPDEST DUP3 ADD SWAP2 SWAP1 PUSH1 0x0 MSTORE PUSH1 0x20 PUSH1 0x0 KECCAK256 SWAP1 JUMPDEST DUP2 SLOAD DUP2 MSTORE SWAP1 PUSH1 0x1 ADD SWAP1 PUSH1 0x20 ADD DUP1 DUP4 GT PUSH2 0x9EB JUMPI DUP3 SWAP1 SUB PUSH1 0x1F AND DUP3 ADD SWAP2 JUMPDEST POP POP POP POP POP DUP2 JUMP JUMPDEST PUSH1 0x0 PUSH1 0x7 SLOAD SWAP1 POP SWAP1 JUMP JUMPDEST PUSH1 0x1 DUP2 DUP2 SLOAD DUP2 LT PUSH2 0xA2A JUMPI PUSH1 0x0 DUP1 REVERT JUMPDEST SWAP1 PUSH1 0x0 MSTORE PUSH1 0x20 PUSH1 0x0 KECCAK256 ADD PUSH1 0x0 SWAP2 POP SLOAD SWAP1 PUSH2 0x100 EXP SWAP1 DIV PUSH20 0xFFFFFFFFFFFFFFFFFFFFFFFFFFFFFFFFFFFFFFFF AND DUP2 JUMP JUMPDEST PUSH1 0x8 DUP1 SLOAD PUSH2 0xA66 SWAP1 PUSH2 0x1398 JUMP JUMPDEST DUP1 PUSH1 0x1F ADD PUSH1 0x20 DUP1 SWAP2 DIV MUL PUSH1 0x20 ADD PUSH1 0x40 MLOAD SWAP1 DUP2 ADD PUSH1 0x40 MSTORE DUP1 SWAP3 SWAP2 SWAP1 DUP2 DUP2 MSTORE PUSH1 0x20 ADD DUP3 DUP1 SLOAD PUSH2 0xA92 SWAP1 PUSH2 0x1398 JUMP JUMPDEST DUP1 ISZERO PUSH2 0xADF JUMPI DUP1 PUSH1 0x1F LT PUSH2 0xAB4 JUMPI PUSH2 0x100 DUP1 DUP4 SLOAD DIV MUL DUP4 MSTORE SWAP2 PUSH1 0x20 ADD SWAP2 PUSH2 0xADF JUMP JUMPDEST DUP3 ADD SWAP2 SWAP1 PUSH1 0x0 MSTORE PUSH1 0x20 PUSH1 0x0 KECCAK256 SWAP1 JUMPDEST DUP2 SLOAD DUP2 MSTORE SWAP1 PUSH1 0x1 ADD SWAP1 PUSH1 0x20 ADD DUP1 DUP4 GT PUSH2 0xAC2 JUMPI DUP3 SWAP1 SUB PUSH1 0x1F AND DUP3 ADD SWAP2 JUMPDEST POP POP POP POP POP DUP2 JUMP JUMPDEST PUSH1 0x0 PUSH1 0x6 PUSH1 0x0 PUSH2 0x100 EXP DUP2 SLOAD DUP2 PUSH20 0xFFFFFFFFFFFFFFFFFFFFFFFFFFFFFFFFFFFFFFFF MUL NOT AND SWAP1 DUP4 PUSH20 0xFFFFFFFFFFFFFFFFFFFFFFFFFFFFFFFFFFFFFFFF AND MUL OR SWAP1 SSTORE POP PUSH1 0x0 PUSH1 0x7 DUP2 SWAP1 SSTORE POP PUSH1 0x40 MLOAD DUP1 PUSH1 0x20 ADD PUSH1 0x40 MSTORE DUP1 PUSH1 0x0 DUP2 MSTORE POP PUSH1 0x8 SWAP1 DUP1 MLOAD SWAP1 PUSH1 0x20 ADD SWAP1 PUSH2 0xB56 SWAP3 SWAP2 SWAP1 PUSH2 0xD53 JUMP JUMPDEST POP PUSH1 0x40 MLOAD DUP1 PUSH1 0x20 ADD PUSH1 0x40 MSTORE DUP1 PUSH1 0x0 DUP2 MSTORE POP PUSH1 0x2 SWAP1 DUP1 MLOAD SWAP1 PUSH1 0x20 ADD SWAP1 PUSH2 0xB7C SWAP3 SWAP2 SWAP1 PUSH2 0xD53 JUMP JUMPDEST POP PUSH1 0x0 PUSH1 0x3 DUP2 SWAP1 SSTORE POP PUSH1 0x0 PUSH1 0x4 DUP2 SWAP1 SSTORE POP PUSH2 0xB95 PUSH2 0x68F JUMP JUMPDEST PUSH1 0x1 PUSH1 0x0 PUSH2 0xBA3 SWAP2 SWAP1 PUSH2 0xE19 JUMP JUMPDEST PUSH1 0x9 PUSH1 0x0 PUSH2 0xBB1 SWAP2 SWAP1 PUSH2 0xE3A JUMP JUMPDEST JUMP JUMPDEST PUSH1 0x4 SLOAD DUP2 JUMP JUMPDEST PUSH1 0x0 DUP1 SLOAD SWAP1 PUSH2 0x100 EXP SWAP1 DIV PUSH20 0xFFFFFFFFFFFFFFFFFFFFFFFFFFFFFFFFFFFFFFFF AND PUSH20 0xFFFFFFFFFFFFFFFFFFFFFFFFFFFFFFFFFFFFFFFF AND CALLER PUSH20 0xFFFFFFFFFFFFFFFFFFFFFFFFFFFFFFFFFFFFFFFF AND EQ PUSH2 0xC47 JUMPI PUSH1 0x40 MLOAD PUSH32 0x8C379A000000000000000000000000000000000000000000000000000000000 DUP2 MSTORE PUSH1 0x4 ADD PUSH2 0xC3E SWAP1 PUSH2 0x14EF JUMP JUMPDEST PUSH1 0x40 MLOAD DUP1 SWAP2 SUB SWAP1 REVERT JUMPDEST DUP3 PUSH1 0x2 SWAP1 DUP1 MLOAD SWAP1 PUSH1 0x20 ADD SWAP1 PUSH2 0xC5D SWAP3 SWAP2 SWAP1 PUSH2 0xD53 JUMP JUMPDEST POP DUP2 PUSH1 0x3 DUP2 SWAP1 SSTORE POP DUP1 PUSH1 0x4 DUP2 SWAP1 SSTORE POP POP POP POP JUMP JUMPDEST PUSH1 0x6 PUSH1 0x0 SWAP1 SLOAD SWAP1 PUSH2 0x100 EXP SWAP1 DIV PUSH20 0xFFFFFFFFFFFFFFFFFFFFFFFFFFFFFFFFFFFFFFFF AND DUP2 JUMP JUMPDEST PUSH1 0x1 CALLER SWAP1 DUP1 PUSH1 0x1 DUP2 SLOAD ADD DUP1 DUP3 SSTORE DUP1 SWAP2 POP POP PUSH1 0x1 SWAP1 SUB SWAP1 PUSH1 0x0 MSTORE PUSH1 0x20 PUSH1 0x0 KECCAK256 ADD PUSH1 0x0 SWAP1 SWAP2 SWAP1 SWAP2 SWAP1 SWAP2 PUSH2 0x100 EXP DUP2 SLOAD DUP2 PUSH20 0xFFFFFFFFFFFFFFFFFFFFFFFFFFFFFFFFFFFFFFFF MUL NOT AND SWAP1 DUP4 PUSH20 0xFFFFFFFFFFFFFFFFFFFFFFFFFFFFFFFFFFFFFFFF AND MUL OR SWAP1 SSTORE POP JUMP JUMPDEST DUP1 PUSH1 0x5 PUSH1 0x0 CALLER PUSH20 0xFFFFFFFFFFFFFFFFFFFFFFFFFFFFFFFFFFFFFFFF AND PUSH20 0xFFFFFFFFFFFFFFFFFFFFFFFFFFFFFFFFFFFFFFFF AND DUP2 MSTORE PUSH1 0x20 ADD SWAP1 DUP2 MSTORE PUSH1 0x20 ADD PUSH1 0x0 KECCAK256 SWAP1 DUP1 MLOAD SWAP1 PUSH1 0x20 ADD SWAP1 PUSH2 0xD4F SWAP3 SWAP2 SWAP1 PUSH2 0xD53 JUMP JUMPDEST POP POP JUMP JUMPDEST DUP3 DUP1 SLOAD PUSH2 0xD5F SWAP1 PUSH2 0x1398 JUMP JUMPDEST SWAP1 PUSH1 0x0 MSTORE PUSH1 0x20 PUSH1 0x0 KECCAK256 SWAP1 PUSH1 0x1F ADD PUSH1 0x20 SWAP1 DIV DUP2 ADD SWAP3 DUP3 PUSH2 0xD81 JUMPI PUSH1 0x0 DUP6 SSTORE PUSH2 0xDC8 JUMP JUMPDEST DUP3 PUSH1 0x1F LT PUSH2 0xD9A JUMPI DUP1 MLOAD PUSH1 0xFF NOT AND DUP4 DUP1 ADD OR DUP6 SSTORE PUSH2 0xDC8 JUMP JUMPDEST DUP3 DUP1 ADD PUSH1 0x1 ADD DUP6 SSTORE DUP3 ISZERO PUSH2 0xDC8 JUMPI SWAP2 DUP3 ADD JUMPDEST DUP3 DUP2 GT ISZERO PUSH2 0xDC7 JUMPI DUP3 MLOAD DUP3 SSTORE SWAP2 PUSH1 0x20 ADD SWAP2 SWAP1 PUSH1 0x1 ADD SWAP1 PUSH2 0xDAC JUMP JUMPDEST JUMPDEST POP SWAP1 POP PUSH2 0xDD5 SWAP2 SWAP1 PUSH2 0xE5E JUMP JUMPDEST POP SWAP1 JUMP JUMPDEST POP DUP1 SLOAD PUSH2 0xDE5 SWAP1 PUSH2 0x1398 JUMP JUMPDEST PUSH1 0x0 DUP3 SSTORE DUP1 PUSH1 0x1F LT PUSH2 0xDF7 JUMPI POP PUSH2 0xE16 JUMP JUMPDEST PUSH1 0x1F ADD PUSH1 0x20 SWAP1 DIV SWAP1 PUSH1 0x0 MSTORE PUSH1 0x20 PUSH1 0x0 KECCAK256 SWAP1 DUP2 ADD SWAP1 PUSH2 0xE15 SWAP2 SWAP1 PUSH2 0xE5E JUMP JUMPDEST JUMPDEST POP JUMP JUMPDEST POP DUP1 SLOAD PUSH1 0x0 DUP3 SSTORE SWAP1 PUSH1 0x0 MSTORE PUSH1 0x20 PUSH1 0x0 KECCAK256 SWAP1 DUP2 ADD SWAP1 PUSH2 0xE37 SWAP2 SWAP1 PUSH2 0xE5E JUMP JUMPDEST POP JUMP JUMPDEST POP DUP1 SLOAD PUSH1 0x0 DUP3 SSTORE PUSH1 0x3 MUL SWAP1 PUSH1 0x0 MSTORE PUSH1 0x20 PUSH1 0x0 KECCAK256 SWAP1 DUP2 ADD SWAP1 PUSH2 0xE5B SWAP2 SWAP1 PUSH2 0xE7B JUMP JUMPDEST POP JUMP JUMPDEST JUMPDEST DUP1 DUP3 GT ISZERO PUSH2 0xE77 JUMPI PUSH1 0x0 DUP2 PUSH1 0x0 SWAP1 SSTORE POP PUSH1 0x1 ADD PUSH2 0xE5F JUMP JUMPDEST POP SWAP1 JUMP JUMPDEST JUMPDEST DUP1 DUP3 GT ISZERO PUSH2 0xECD JUMPI PUSH1 0x0 DUP1 DUP3 ADD PUSH1 0x0 SWAP1 SSTORE PUSH1 0x1 DUP3 ADD PUSH1 0x0 PUSH2 0x100 EXP DUP2 SLOAD SWAP1 PUSH20 0xFFFFFFFFFFFFFFFFFFFFFFFFFFFFFFFFFFFFFFFF MUL NOT AND SWAP1 SSTORE PUSH1 0x2 DUP3 ADD PUSH1 0x0 PUSH2 0xEC4 SWAP2 SWAP1 PUSH2 0xDD9 JUMP JUMPDEST POP PUSH1 0x3 ADD PUSH2 0xE7C JUMP JUMPDEST POP SWAP1 JUMP JUMPDEST PUSH1 0x0 PUSH1 0x40 MLOAD SWAP1 POP SWAP1 JUMP JUMPDEST PUSH1 0x0 DUP1 REVERT JUMPDEST PUSH1 0x0 DUP1 REVERT JUMPDEST PUSH1 0x0 PUSH20 0xFFFFFFFFFFFFFFFFFFFFFFFFFFFFFFFFFFFFFFFF DUP3 AND SWAP1 POP SWAP2 SWAP1 POP JUMP JUMPDEST PUSH1 0x0 PUSH2 0xF10 DUP3 PUSH2 0xEE5 JUMP JUMPDEST SWAP1 POP SWAP2 SWAP1 POP JUMP JUMPDEST PUSH2 0xF20 DUP2 PUSH2 0xF05 JUMP JUMPDEST DUP2 EQ PUSH2 0xF2B JUMPI PUSH1 0x0 DUP1 REVERT JUMPDEST POP JUMP JUMPDEST PUSH1 0x0 DUP2 CALLDATALOAD SWAP1 POP PUSH2 0xF3D DUP2 PUSH2 0xF17 JUMP JUMPDEST SWAP3 SWAP2 POP POP JUMP JUMPDEST PUSH1 0x0 PUSH1 0x20 DUP3 DUP5 SUB SLT ISZERO PUSH2 0xF59 JUMPI PUSH2 0xF58 PUSH2 0xEDB JUMP JUMPDEST JUMPDEST PUSH1 0x0 PUSH2 0xF67 DUP5 DUP3 DUP6 ADD PUSH2 0xF2E JUMP JUMPDEST SWAP2 POP POP SWAP3 SWAP2 POP POP JUMP JUMPDEST PUSH1 0x0 DUP2 MLOAD SWAP1 POP SWAP2 SWAP1 POP JUMP JUMPDEST PUSH1 0x0 DUP3 DUP3 MSTORE PUSH1 0x20 DUP3 ADD SWAP1 POP SWAP3 SWAP2 POP POP JUMP JUMPDEST PUSH1 0x0 JUMPDEST DUP4 DUP2 LT ISZERO PUSH2 0xFAA JUMPI DUP1 DUP3 ADD MLOAD DUP2 DUP5 ADD MSTORE PUSH1 0x20 DUP2 ADD SWAP1 POP PUSH2 0xF8F JUMP JUMPDEST DUP4 DUP2 GT ISZERO PUSH2 0xFB9 JUMPI PUSH1 0x0 DUP5 DUP5 ADD MSTORE JUMPDEST POP POP POP POP JUMP JUMPDEST PUSH1 0x0 PUSH1 0x1F NOT PUSH1 0x1F DUP4 ADD AND SWAP1 POP SWAP2 SWAP1 POP JUMP JUMPDEST PUSH1 0x0 PUSH2 0xFDB DUP3 PUSH2 0xF70 JUMP JUMPDEST PUSH2 0xFE5 DUP2 DUP6 PUSH2 0xF7B JUMP JUMPDEST SWAP4 POP PUSH2 0xFF5 DUP2 DUP6 PUSH1 0x20 DUP7 ADD PUSH2 0xF8C JUMP JUMPDEST PUSH2 0xFFE DUP2 PUSH2 0xFBF JUMP JUMPDEST DUP5 ADD SWAP2 POP POP SWAP3 SWAP2 POP POP JUMP JUMPDEST PUSH1 0x0 PUSH1 0x20 DUP3 ADD SWAP1 POP DUP2 DUP2 SUB PUSH1 0x0 DUP4 ADD MSTORE PUSH2 0x1023 DUP2 DUP5 PUSH2 0xFD0 JUMP JUMPDEST SWAP1 POP SWAP3 SWAP2 POP POP JUMP JUMPDEST PUSH2 0x1034 DUP2 PUSH2 0xF05 JUMP JUMPDEST DUP3 MSTORE POP POP JUMP JUMPDEST PUSH1 0x0 PUSH1 0x20 DUP3 ADD SWAP1 POP PUSH2 0x104F PUSH1 0x0 DUP4 ADD DUP5 PUSH2 0x102B JUMP JUMPDEST SWAP3 SWAP2 POP POP JUMP JUMPDEST PUSH1 0x0 DUP2 SWAP1 POP SWAP2 SWAP1 POP JUMP JUMPDEST PUSH2 0x1068 DUP2 PUSH2 0x1055 JUMP JUMPDEST DUP3 MSTORE POP POP JUMP JUMPDEST PUSH1 0x0 PUSH1 0x20 DUP3 ADD SWAP1 POP PUSH2 0x1083 PUSH1 0x0 DUP4 ADD DUP5 PUSH2 0x105F JUMP JUMPDEST SWAP3 SWAP2 POP POP JUMP JUMPDEST PUSH2 0x1092 DUP2 PUSH2 0x1055 JUMP JUMPDEST DUP2 EQ PUSH2 0x109D JUMPI PUSH1 0x0 DUP1 REVERT JUMPDEST POP JUMP JUMPDEST PUSH1 0x0 DUP2 CALLDATALOAD SWAP1 POP PUSH2 0x10AF DUP2 PUSH2 0x1089 JUMP JUMPDEST SWAP3 SWAP2 POP POP JUMP JUMPDEST PUSH1 0x0 DUP1 REVERT JUMPDEST PUSH1 0x0 DUP1 REVERT JUMPDEST PUSH32 0x4E487B7100000000000000000000000000000000000000000000000000000000 PUSH1 0x0 MSTORE PUSH1 0x41 PUSH1 0x4 MSTORE PUSH1 0x24 PUSH1 0x0 REVERT JUMPDEST PUSH2 0x10F7 DUP3 PUSH2 0xFBF JUMP JUMPDEST DUP2 ADD DUP2 DUP2 LT PUSH8 0xFFFFFFFFFFFFFFFF DUP3 GT OR ISZERO PUSH2 0x1116 JUMPI PUSH2 0x1115 PUSH2 0x10BF JUMP JUMPDEST JUMPDEST DUP1 PUSH1 0x40 MSTORE POP POP POP JUMP JUMPDEST PUSH1 0x0 PUSH2 0x1129 PUSH2 0xED1 JUMP JUMPDEST SWAP1 POP PUSH2 0x1135 DUP3 DUP3 PUSH2 0x10EE JUMP JUMPDEST SWAP2 SWAP1 POP JUMP JUMPDEST PUSH1 0x0 PUSH8 0xFFFFFFFFFFFFFFFF DUP3 GT ISZERO PUSH2 0x1155 JUMPI PUSH2 0x1154 PUSH2 0x10BF JUMP JUMPDEST JUMPDEST PUSH2 0x115E DUP3 PUSH2 0xFBF JUMP JUMPDEST SWAP1 POP PUSH1 0x20 DUP2 ADD SWAP1 POP SWAP2 SWAP1 POP JUMP JUMPDEST DUP3 DUP2 DUP4 CALLDATACOPY PUSH1 0x0 DUP4 DUP4 ADD MSTORE POP POP POP JUMP JUMPDEST PUSH1 0x0 PUSH2 0x118D PUSH2 0x1188 DUP5 PUSH2 0x113A JUMP JUMPDEST PUSH2 0x111F JUMP JUMPDEST SWAP1 POP DUP3 DUP2 MSTORE PUSH1 0x20 DUP2 ADD DUP5 DUP5 DUP5 ADD GT ISZERO PUSH2 0x11A9 JUMPI PUSH2 0x11A8 PUSH2 0x10BA JUMP JUMPDEST JUMPDEST PUSH2 0x11B4 DUP5 DUP3 DUP6 PUSH2 0x116B JUMP JUMPDEST POP SWAP4 SWAP3 POP POP POP JUMP JUMPDEST PUSH1 0x0 DUP3 PUSH1 0x1F DUP4 ADD SLT PUSH2 0x11D1 JUMPI PUSH2 0x11D0 PUSH2 0x10B5 JUMP JUMPDEST JUMPDEST DUP2 CALLDATALOAD PUSH2 0x11E1 DUP5 DUP3 PUSH1 0x20 DUP7 ADD PUSH2 0x117A JUMP JUMPDEST SWAP2 POP POP SWAP3 SWAP2 POP POP JUMP JUMPDEST PUSH1 0x0 DUP1 PUSH1 0x40 DUP4 DUP6 SUB SLT ISZERO PUSH2 0x1201 JUMPI PUSH2 0x1200 PUSH2 0xEDB JUMP JUMPDEST JUMPDEST PUSH1 0x0 PUSH2 0x120F DUP6 DUP3 DUP7 ADD PUSH2 0x10A0 JUMP JUMPDEST SWAP3 POP POP PUSH1 0x20 DUP4 ADD CALLDATALOAD PUSH8 0xFFFFFFFFFFFFFFFF DUP2 GT ISZERO PUSH2 0x1230 JUMPI PUSH2 0x122F PUSH2 0xEE0 JUMP JUMPDEST JUMPDEST PUSH2 0x123C DUP6 DUP3 DUP7 ADD PUSH2 0x11BC JUMP JUMPDEST SWAP2 POP POP SWAP3 POP SWAP3 SWAP1 POP JUMP JUMPDEST PUSH1 0x0 PUSH1 0x20 DUP3 DUP5 SUB SLT ISZERO PUSH2 0x125C JUMPI PUSH2 0x125B PUSH2 0xEDB JUMP JUMPDEST JUMPDEST PUSH1 0x0 PUSH2 0x126A DUP5 DUP3 DUP6 ADD PUSH2 0x10A0 JUMP JUMPDEST SWAP2 POP POP SWAP3 SWAP2 POP POP JUMP JUMPDEST PUSH1 0x0 PUSH1 0x60 DUP3 ADD SWAP1 POP PUSH2 0x1288 PUSH1 0x0 DUP4 ADD DUP7 PUSH2 0x105F JUMP JUMPDEST PUSH2 0x1295 PUSH1 0x20 DUP4 ADD DUP6 PUSH2 0x102B JUMP JUMPDEST DUP2 DUP2 SUB PUSH1 0x40 DUP4 ADD MSTORE PUSH2 0x12A7 DUP2 DUP5 PUSH2 0xFD0 JUMP JUMPDEST SWAP1 POP SWAP5 SWAP4 POP POP POP POP JUMP JUMPDEST PUSH1 0x0 DUP1 PUSH1 0x0 PUSH1 0x60 DUP5 DUP7 SUB SLT ISZERO PUSH2 0x12CA JUMPI PUSH2 0x12C9 PUSH2 0xEDB JUMP JUMPDEST JUMPDEST PUSH1 0x0 DUP5 ADD CALLDATALOAD PUSH8 0xFFFFFFFFFFFFFFFF DUP2 GT ISZERO PUSH2 0x12E8 JUMPI PUSH2 0x12E7 PUSH2 0xEE0 JUMP JUMPDEST JUMPDEST PUSH2 0x12F4 DUP7 DUP3 DUP8 ADD PUSH2 0x11BC JUMP JUMPDEST SWAP4 POP POP PUSH1 0x20 PUSH2 0x1305 DUP7 DUP3 DUP8 ADD PUSH2 0x10A0 JUMP JUMPDEST SWAP3 POP POP PUSH1 0x40 PUSH2 0x1316 DUP7 DUP3 DUP8 ADD PUSH2 0x10A0 JUMP JUMPDEST SWAP2 POP POP SWAP3 POP SWAP3 POP SWAP3 JUMP JUMPDEST PUSH1 0x0 PUSH1 0x20 DUP3 DUP5 SUB SLT ISZERO PUSH2 0x1336 JUMPI PUSH2 0x1335 PUSH2 0xEDB JUMP JUMPDEST JUMPDEST PUSH1 0x0 DUP3 ADD CALLDATALOAD PUSH8 0xFFFFFFFFFFFFFFFF DUP2 GT ISZERO PUSH2 0x1354 JUMPI PUSH2 0x1353 PUSH2 0xEE0 JUMP JUMPDEST JUMPDEST PUSH2 0x1360 DUP5 DUP3 DUP6 ADD PUSH2 0x11BC JUMP JUMPDEST SWAP2 POP POP SWAP3 SWAP2 POP POP JUMP JUMPDEST PUSH32 0x4E487B7100000000000000000000000000000000000000000000000000000000 PUSH1 0x0 MSTORE PUSH1 0x22 PUSH1 0x4 MSTORE PUSH1 0x24 PUSH1 0x0 REVERT JUMPDEST PUSH1 0x0 PUSH1 0x2 DUP3 DIV SWAP1 POP PUSH1 0x1 DUP3 AND DUP1 PUSH2 0x13B0 JUMPI PUSH1 0x7F DUP3 AND SWAP2 POP JUMPDEST PUSH1 0x20 DUP3 LT DUP2 SUB PUSH2 0x13C3 JUMPI PUSH2 0x13C2 PUSH2 0x1369 JUMP JUMPDEST JUMPDEST POP SWAP2 SWAP1 POP JUMP JUMPDEST PUSH32 0x4E487B7100000000000000000000000000000000000000000000000000000000 PUSH1 0x0 MSTORE PUSH1 0x32 PUSH1 0x4 MSTORE PUSH1 0x24 PUSH1 0x0 REVERT JUMPDEST PUSH32 0x4E487B7100000000000000000000000000000000000000000000000000000000 PUSH1 0x0 MSTORE PUSH1 0x11 PUSH1 0x4 MSTORE PUSH1 0x24 PUSH1 0x0 REVERT JUMPDEST PUSH1 0x0 PUSH2 0x1432 DUP3 PUSH2 0x1055 JUMP JUMPDEST SWAP2 POP PUSH2 0x143D DUP4 PUSH2 0x1055 JUMP JUMPDEST SWAP3 POP DUP3 PUSH32 0xFFFFFFFFFFFFFFFFFFFFFFFFFFFFFFFFFFFFFFFFFFFFFFFFFFFFFFFFFFFFFFFF SUB DUP3 GT ISZERO PUSH2 0x1472 JUMPI PUSH2 0x1471 PUSH2 0x13F8 JUMP JUMPDEST JUMPDEST DUP3 DUP3 ADD SWAP1 POP SWAP3 SWAP2 POP POP JUMP JUMPDEST PUSH32 0x4F6E6C792061756374696F6E6565722063616E2063616C6C2074686973206675 PUSH1 0x0 DUP3 ADD MSTORE PUSH32 0x6E6374696F6E2E00000000000000000000000000000000000000000000000000 PUSH1 0x20 DUP3 ADD MSTORE POP JUMP JUMPDEST PUSH1 0x0 PUSH2 0x14D9 PUSH1 0x27 DUP4 PUSH2 0xF7B JUMP JUMPDEST SWAP2 POP PUSH2 0x14E4 DUP3 PUSH2 0x147D JUMP JUMPDEST PUSH1 0x40 DUP3 ADD SWAP1 POP SWAP2 SWAP1 POP JUMP JUMPDEST PUSH1 0x0 PUSH1 0x20 DUP3 ADD SWAP1 POP DUP2 DUP2 SUB PUSH1 0x0 DUP4 ADD MSTORE PUSH2 0x1508 DUP2 PUSH2 0x14CC JUMP JUMPDEST SWAP1 POP SWAP2 SWAP1 POP JUMP INVALID LOG2 PUSH5 0x6970667358 0x22 SLT KECCAK256 0xD4 PUSH20 0x334152C6CBF009584C0A42E72FC03DCD73E7A36C CREATE2 TIMESTAMP DUP5 PUSH4 0xA62C2FE3 0xE4 0x5F PUSH5 0x736F6C6343 STOP ADDMOD 0xE STOP CALLER "
		},
		"gasEstimates": {
			"creation": {
				"codeDepositCost": "1089000",
				"executionCost": "1134",
				"totalCost": "1090134"
			},
			"external": {
				"assetDescription()": "infinite",
				"bidders(uint256)": "5045",
				"dispute(uint256,string)": "infinite",
				"disputedBidders(uint256)": "infinite",
				"encodedBids(address)": "infinite",
				"getBidderAddress(uint256)": "5056",
				"getEncodedBid(address)": "infinite",
				"getSampleString()": "infinite",
				"getWinnerAddress()": "2568",
				"getWinnerBid()": "2504",
				"getWinnerKey()": "infinite",
				"minBidPrice()": "2541",
				"minNumberOfBidders()": "2473",
				"registerAuctionInfo(string,uint256,uint256)": "infinite",
				"registerBidder()": "48832",
				"reset()": "infinite",
				"resetEncodedBids()": "infinite",
				"submitEncryptedBid(string)": "infinite",
				"submitWinner(uint256,string)": "infinite",
				"winnerAddress()": "2602",
				"winnerBid()": "2497",
				"winnerKey()": "infinite"
			}
		},
		"methodIdentifiers": {
			"assetDescription()": "938626c2",
			"bidders(uint256)": "cff29dfd",
			"dispute(uint256,string)": "66c85dee",
			"disputedBidders(uint256)": "8f772f96",
			"encodedBids(address)": "3817df4c",
			"getBidderAddress(uint256)": "5fa38280",
			"getEncodedBid(address)": "05fb23cf",
			"getSampleString()": "83050daa",
			"getWinnerAddress()": "10a37c26",
			"getWinnerBid()": "ceb98f6e",
			"getWinnerKey()": "3c68889a",
			"minBidPrice()": "34eb86a2",
			"minNumberOfBidders()": "daa0218f",
			"registerAuctionInfo(string,uint256,uint256)": "e7d2a997",
			"registerBidder()": "f356733c",
			"reset()": "d826f88f",
			"resetEncodedBids()": "40bd5937",
			"submitEncryptedBid(string)": "ff567d8d",
			"submitWinner(uint256,string)": "1744e03b",
			"winnerAddress()": "ed7a4e0b",
			"winnerBid()": "11631d06",
			"winnerKey()": "d476620b"
		}
	},
	"abi": [
		{
			"inputs": [],
			"name": "assetDescription",
			"outputs": [
				{
					"internalType": "string",
					"name": "",
					"type": "string"
				}
			],
			"stateMutability": "view",
			"type": "function"
		},
		{
			"inputs": [
				{
					"internalType": "uint256",
					"name": "",
					"type": "uint256"
				}
			],
			"name": "bidders",
			"outputs": [
				{
					"internalType": "address",
					"name": "",
					"type": "address"
				}
			],
			"stateMutability": "view",
			"type": "function"
		},
		{
			"inputs": [
				{
					"internalType": "uint256",
					"name": "inputDisputedBid",
					"type": "uint256"
				},
				{
					"internalType": "string",
					"name": "inputDisputedKey",
					"type": "string"
				}
			],
			"name": "dispute",
			"outputs": [],
			"stateMutability": "nonpayable",
			"type": "function"
		},
		{
			"inputs": [
				{
					"internalType": "uint256",
					"name": "",
					"type": "uint256"
				}
			],
			"name": "disputedBidders",
			"outputs": [
				{
					"internalType": "uint256",
					"name": "bid",
					"type": "uint256"
				},
				{
					"internalType": "address",
					"name": "disputeAddress",
					"type": "address"
				},
				{
					"internalType": "string",
					"name": "key",
					"type": "string"
				}
			],
			"stateMutability": "view",
			"type": "function"
		},
		{
			"inputs": [
				{
					"internalType": "address",
					"name": "",
					"type": "address"
				}
			],
			"name": "encodedBids",
			"outputs": [
				{
					"internalType": "string",
					"name": "",
					"type": "string"
				}
			],
			"stateMutability": "view",
			"type": "function"
		},
		{
			"inputs": [
				{
					"internalType": "uint256",
					"name": "index",
					"type": "uint256"
				}
			],
			"name": "getBidderAddress",
			"outputs": [
				{
					"internalType": "address",
					"name": "",
					"type": "address"
				}
			],
			"stateMutability": "view",
			"type": "function"
		},
		{
			"inputs": [
				{
					"internalType": "address",
					"name": "inputAddress",
					"type": "address"
				}
			],
			"name": "getEncodedBid",
			"outputs": [
				{
					"internalType": "string",
					"name": "",
					"type": "string"
				}
			],
			"stateMutability": "view",
			"type": "function"
		},
		{
			"inputs": [],
			"name": "getSampleString",
			"outputs": [
				{
					"internalType": "string",
					"name": "",
					"type": "string"
				}
			],
			"stateMutability": "pure",
			"type": "function"
		},
		{
			"inputs": [],
			"name": "getWinnerAddress",
			"outputs": [
				{
					"internalType": "address",
					"name": "",
					"type": "address"
				}
			],
			"stateMutability": "view",
			"type": "function"
		},
		{
			"inputs": [],
			"name": "getWinnerBid",
			"outputs": [
				{
					"internalType": "uint256",
					"name": "",
					"type": "uint256"
				}
			],
			"stateMutability": "view",
			"type": "function"
		},
		{
			"inputs": [],
			"name": "getWinnerKey",
			"outputs": [
				{
					"internalType": "string",
					"name": "",
					"type": "string"
				}
			],
			"stateMutability": "view",
			"type": "function"
		},
		{
			"inputs": [],
			"name": "minBidPrice",
			"outputs": [
				{
					"internalType": "uint256",
					"name": "",
					"type": "uint256"
				}
			],
			"stateMutability": "view",
			"type": "function"
		},
		{
			"inputs": [],
			"name": "minNumberOfBidders",
			"outputs": [
				{
					"internalType": "uint256",
					"name": "",
					"type": "uint256"
				}
			],
			"stateMutability": "view",
			"type": "function"
		},
		{
			"inputs": [
				{
					"internalType": "string",
					"name": "assetDescriptionInput",
					"type": "string"
				},
				{
					"internalType": "uint256",
					"name": "minBidPriceInput",
					"type": "uint256"
				},
				{
					"internalType": "uint256",
					"name": "minNumberOfBiddersInput",
					"type": "uint256"
				}
			],
			"name": "registerAuctionInfo",
			"outputs": [],
			"stateMutability": "nonpayable",
			"type": "function"
		},
		{
			"inputs": [],
			"name": "registerBidder",
			"outputs": [],
			"stateMutability": "nonpayable",
			"type": "function"
		},
		{
			"inputs": [],
			"name": "reset",
			"outputs": [],
			"stateMutability": "nonpayable",
			"type": "function"
		},
		{
			"inputs": [],
			"name": "resetEncodedBids",
			"outputs": [],
			"stateMutability": "nonpayable",
			"type": "function"
		},
		{
			"inputs": [
				{
					"internalType": "string",
					"name": "inputEncodedBid",
					"type": "string"
				}
			],
			"name": "submitEncryptedBid",
			"outputs": [],
			"stateMutability": "nonpayable",
			"type": "function"
		},
		{
			"inputs": [
				{
					"internalType": "uint256",
					"name": "inputWinnerBid",
					"type": "uint256"
				},
				{
					"internalType": "string",
					"name": "inputWinnerKey",
					"type": "string"
				}
			],
			"name": "submitWinner",
			"outputs": [],
			"stateMutability": "nonpayable",
			"type": "function"
		},
		{
			"inputs": [],
			"name": "winnerAddress",
			"outputs": [
				{
					"internalType": "address",
					"name": "",
					"type": "address"
				}
			],
			"stateMutability": "view",
			"type": "function"
		},
		{
			"inputs": [],
			"name": "winnerBid",
			"outputs": [
				{
					"internalType": "uint256",
					"name": "",
					"type": "uint256"
				}
			],
			"stateMutability": "view",
			"type": "function"
		},
		{
			"inputs": [],
			"name": "winnerKey",
			"outputs": [
				{
					"internalType": "string",
					"name": "",
					"type": "string"
				}
			],
			"stateMutability": "view",
			"type": "function"
		}
	]
}