{
	"data": {
		"bytecode": {
			"linkReferences": {},
			"object": "608060405260056006556000600760006101000a81548160ff02191690831515021790555034801561003057600080fd5b50612ce2806100406000396000f3fe608060405234801561001057600080fd5b50600436106101005760003560e01c8063a2fb117511610097578063d94a350511610066578063d94a35051461028b578063dc6b8627146102aa578063ec5d0ab2146102c8578063f356733c146102e457610100565b8063a2fb117514610201578063c9230c5d14610233578063cff29dfd14610251578063d826f88f1461028157610100565b806366c85dee116100d357806366c85dee146101795780638f772f9614610195578063938626c2146101c7578063a2ebc656146101e557610100565b80631744e03b1461010557806335abd160146101215780633817df4c1461013f57806340bd59371461016f575b600080fd5b61011f600480360381019061011a9190611afc565b6102ee565b005b61012961049b565b6040516101369190611d39565b60405180910390f35b61015960048036038101906101549190611d87565b610642565b6040516101669190611dcd565b60405180910390f35b61017761065a565b005b610193600480360381019061018e9190611afc565b61074c565b005b6101af60048036038101906101aa9190611de8565b6109ea565b6040516101be93929190611e7d565b60405180910390f35b6101cf610acc565b6040516101dc9190611ebb565b60405180910390f35b6101ff60048036038101906101fa9190611edd565b610b5a565b005b61021b60048036038101906102169190611de8565b610ba1565b60405161022a93929190611f55565b60405180910390f35b61023b610c83565b6040516102489190611ebb565b60405180910390f35b61026b60048036038101906102669190611de8565b610d11565b6040516102789190611f93565b60405180910390f35b610289610d50565b005b610293610e21565b6040516102a1929190611fae565b60405180910390f35b6102b2610f9e565b6040516102bf91906120f7565b60405180910390f35b6102e260048036038101906102dd9190612145565b611145565b005b6102ec61126a565b005b60011515600760009054906101000a900460ff16151514610344576040517f08c379a000000000000000000000000000000000000000000000000000000000815260040161033b906121be565b60405180910390fd5b6004544211610388576040517f08c379a000000000000000000000000000000000000000000000000000000000815260040161037f90612250565b60405180910390fd5b60055442106103cc576040517f08c379a00000000000000000000000000000000000000000000000000000000081526004016103c3906122e2565b60405180910390fd5b600060405180606001604052803373ffffffffffffffffffffffffffffffffffffffff168152602001848152602001838152509050600a81908060018154018082558091505060019003906000526020600020906003020160009091909190915060008201518160000160006101000a81548173ffffffffffffffffffffffffffffffffffffffff021916908373ffffffffffffffffffffffffffffffffffffffff160217905550602082015181600101556040820151816002019081610493919061250e565b505050505050565b606060011515600760009054906101000a900460ff161515146104f3576040517f08c379a00000000000000000000000000000000000000000000000000000000081526004016104ea906121be565b60405180910390fd5b600b805480602002602001604051908101604052809291908181526020016000905b828210156106395783829060005260206000209060030201604051806060016040529081600082015481526020016001820160009054906101000a900473ffffffffffffffffffffffffffffffffffffffff1673ffffffffffffffffffffffffffffffffffffffff1673ffffffffffffffffffffffffffffffffffffffff1681526020016002820180546105a890612331565b80601f01602080910402602001604051908101604052809291908181526020018280546105d490612331565b80156106215780601f106105f657610100808354040283529160200191610621565b820191906000526020600020905b81548152906001019060200180831161060457829003601f168201915b50505050508152505081526020019060010190610515565b50505050905090565b60096020528060005260406000206000915090505481565b600554421161069e576040517f08c379a00000000000000000000000000000000000000000000000000000000081526004016106959061262c565b60405180910390fd5b60005b600880549050811015610749576000600882815481106106c4576106c361264c565b5b9060005260206000200160009054906101000a900473ffffffffffffffffffffffffffffffffffffffff169050600960008273ffffffffffffffffffffffffffffffffffffffff1673ffffffffffffffffffffffffffffffffffffffff168152602001908152602001600020600090555060018161074291906126aa565b90506106a1565b50565b60011515600760009054906101000a900460ff161515146107a2576040517f08c379a0000000000000000000000000000000000000000000000000000000008152600401610799906121be565b60405180910390fd5b60045442116107e6576040517f08c379a00000000000000000000000000000000000000000000000000000000081526004016107dd90612750565b60405180910390fd5b600554421061082a576040517f08c379a0000000000000000000000000000000000000000000000000000000008152600401610821906127bc565b60405180910390fd5b60006108368383611369565b905080600960003373ffffffffffffffffffffffffffffffffffffffff1673ffffffffffffffffffffffffffffffffffffffff16815260200190815260200160002054146108b9576040517f08c379a00000000000000000000000000000000000000000000000000000000081526004016108b09061284e565b60405180910390fd5b600115156108c684611416565b151514610908576040517f08c379a00000000000000000000000000000000000000000000000000000000081526004016108ff90612906565b60405180910390fd5b610910611480565b61091a8383611490565b600060405180606001604052808581526020013373ffffffffffffffffffffffffffffffffffffffff168152602001848152509050600b8190806001815401808255809150506001900390600052602060002090600302016000909190919091506000820151816000015560208201518160010160006101000a81548173ffffffffffffffffffffffffffffffffffffffff021916908373ffffffffffffffffffffffffffffffffffffffff16021790555060408201518160020190816109e1919061250e565b50505050505050565b600b81815481106109fa57600080fd5b90600052602060002090600302016000915090508060000154908060010160009054906101000a900473ffffffffffffffffffffffffffffffffffffffff1690806002018054610a4990612331565b80601f0160208091040260200160405190810160405280929190818152602001828054610a7590612331565b8015610ac25780601f10610a9757610100808354040283529160200191610ac2565b820191906000526020600020905b815481529060010190602001808311610aa557829003601f168201915b5050505050905083565b60018054610ad990612331565b80601f0160208091040260200160405190810160405280929190818152602001828054610b0590612331565b8015610b525780601f10610b2757610100808354040283529160200191610b52565b820191906000526020600020905b815481529060010190602001808311610b3557829003601f168201915b505050505081565b8160029081610b69919061250e565b508060019081610b79919061250e565b50610b8261155f565b6001600760006101000a81548160ff0219169083151502179055505050565b600a8181548110610bb157600080fd5b90600052602060002090600302016000915090508060000160009054906101000a900473ffffffffffffffffffffffffffffffffffffffff1690806001015490806002018054610c0090612331565b80601f0160208091040260200160405190810160405280929190818152602001828054610c2c90612331565b8015610c795780601f10610c4e57610100808354040283529160200191610c79565b820191906000526020600020905b815481529060010190602001808311610c5c57829003601f168201915b5050505050905083565b60028054610c9090612331565b80601f0160208091040260200160405190810160405280929190818152602001828054610cbc90612331565b8015610d095780601f10610cde57610100808354040283529160200191610d09565b820191906000526020600020905b815481529060010190602001808311610cec57829003601f168201915b505050505081565b60088181548110610d2157600080fd5b906000526020600020016000915054906101000a900473ffffffffffffffffffffffffffffffffffffffff1681565b6005544211610d94576040517f08c379a0000000000000000000000000000000000000000000000000000000008152600401610d8b9061262c565b60405180910390fd5b600a6000610da291906117fa565b6040518060200160405280600081525060019081610dc0919061250e565b506040518060200160405280600081525060029081610ddf919061250e565b50610de861065a565b60086000610df6919061181e565b600b6000610e04919061183f565b6000600760006101000a81548160ff021916908315150217905550565b60608060011515600760009054906101000a900460ff16151514610e7a576040517f08c379a0000000000000000000000000000000000000000000000000000000008152600401610e71906121be565b60405180910390fd5b60026001818054610e8a90612331565b80601f0160208091040260200160405190810160405280929190818152602001828054610eb690612331565b8015610f035780601f10610ed857610100808354040283529160200191610f03565b820191906000526020600020905b815481529060010190602001808311610ee657829003601f168201915b50505050509150808054610f1690612331565b80601f0160208091040260200160405190810160405280929190818152602001828054610f4290612331565b8015610f8f5780601f10610f6457610100808354040283529160200191610f8f565b820191906000526020600020905b815481529060010190602001808311610f7257829003601f168201915b50505050509050915091509091565b606060011515600760009054906101000a900460ff16151514610ff6576040517f08c379a0000000000000000000000000000000000000000000000000000000008152600401610fed906121be565b60405180910390fd5b600a805480602002602001604051908101604052809291908181526020016000905b8282101561113c57838290600052602060002090600302016040518060600160405290816000820160009054906101000a900473ffffffffffffffffffffffffffffffffffffffff1673ffffffffffffffffffffffffffffffffffffffff1673ffffffffffffffffffffffffffffffffffffffff168152602001600182015481526020016002820180546110ab90612331565b80601f01602080910402602001604051908101604052809291908181526020018280546110d790612331565b80156111245780601f106110f957610100808354040283529160200191611124565b820191906000526020600020905b81548152906001019060200180831161110757829003601f168201915b50505050508152505081526020019060010190611018565b50505050905090565b60011515600760009054906101000a900460ff1615151461119b576040517f08c379a0000000000000000000000000000000000000000000000000000000008152600401611192906121be565b60405180910390fd5b60035442116111df576040517f08c379a00000000000000000000000000000000000000000000000000000000081526004016111d690612998565b60405180910390fd5b6004544210611223576040517f08c379a000000000000000000000000000000000000000000000000000000000815260040161121a90612a2a565b60405180910390fd5b80600960003373ffffffffffffffffffffffffffffffffffffffff1673ffffffffffffffffffffffffffffffffffffffff1681526020019081526020016000208190555050565b60011515600760009054906101000a900460ff161515146112c0576040517f08c379a00000000000000000000000000000000000000000000000000000000081526004016112b7906121be565b60405180910390fd5b6003544210611304576040517f08c379a00000000000000000000000000000000000000000000000000000000081526004016112fb90612abc565b60405180910390fd5b6008339080600181540180825580915050600190039060005260206000200160009091909190916101000a81548173ffffffffffffffffffffffffffffffffffffffff021916908373ffffffffffffffffffffffffffffffffffffffff160217905550565b600080611375846115d9565b90506000818460405160200161138c929190612b18565b60405160208183030381529060405290506002816040516020016113b09190612b3c565b6040516020818303038152906040526040516113cc9190612b9a565b602060405180830381855afa1580156113e9573d6000803e3d6000fd5b5050506040513d601f19601f8201168201806040525081019061140c9190612bc6565b9250505092915050565b600080600090505b600a8054905081101561147557600a818154811061143f5761143e61264c565b5b90600052602060002090600302016001015483111561146257600191505061147b565b808061146d90612bf3565b91505061141e565b50600090505b919050565b600a600061148e91906117fa565b565b600060405180606001604052803373ffffffffffffffffffffffffffffffffffffffff168152602001848152602001838152509050600a81908060018154018082558091505060019003906000526020600020906003020160009091909190915060008201518160000160006101000a81548173ffffffffffffffffffffffffffffffffffffffff021916908373ffffffffffffffffffffffffffffffffffffffff160217905550602082015181600101556040820151816002019081611557919061250e565b505050505050565b603c60065461156e9190612c3b565b4261157991906126aa565b600381905550603c60065460026115909190612c3b565b61159a9190612c3b565b426115a591906126aa565b600481905550603c60065460036115bc9190612c3b565b6115c69190612c3b565b426115d191906126aa565b600581905550565b6060600060016115e8846116a7565b01905060008167ffffffffffffffff811115611607576116066119d1565b5b6040519080825280601f01601f1916602001820160405280156116395781602001600182028036833780820191505090505b509050600082602001820190505b60011561169c578080600190039150507f3031323334353637383961626364656600000000000000000000000000000000600a86061a8153600a85816116905761168f612c7d565b5b04945060008503611647575b819350505050919050565b600080600090507a184f03e93ff9f4daa797ed6e38ed64bf6a1f0100000000000000008310611705577a184f03e93ff9f4daa797ed6e38ed64bf6a1f01000000000000000083816116fb576116fa612c7d565b5b0492506040810190505b6d04ee2d6d415b85acef81000000008310611742576d04ee2d6d415b85acef8100000000838161173857611737612c7d565b5b0492506020810190505b662386f26fc10000831061177157662386f26fc10000838161176757611766612c7d565b5b0492506010810190505b6305f5e100831061179a576305f5e10083816117905761178f612c7d565b5b0492506008810190505b61271083106117bf5761271083816117b5576117b4612c7d565b5b0492506004810190505b606483106117e257606483816117d8576117d7612c7d565b5b0492506002810190505b600a83106117f1576001810190505b80915050919050565b508054600082556003029060005260206000209081019061181b9190611863565b50565b508054600082559060005260206000209081019061183c91906118b9565b50565b508054600082556003029060005260206000209081019061186091906118d6565b50565b5b808211156118b557600080820160006101000a81549073ffffffffffffffffffffffffffffffffffffffff021916905560018201600090556002820160006118ac919061192c565b50600301611864565b5090565b5b808211156118d25760008160009055506001016118ba565b5090565b5b80821115611928576000808201600090556001820160006101000a81549073ffffffffffffffffffffffffffffffffffffffff021916905560028201600061191f919061192c565b506003016118d7565b5090565b50805461193890612331565b6000825580601f1061194a5750611969565b601f01602090049060005260206000209081019061196891906118b9565b5b50565b6000604051905090565b600080fd5b600080fd5b6000819050919050565b61199381611980565b811461199e57600080fd5b50565b6000813590506119b08161198a565b92915050565b600080fd5b600080fd5b6000601f19601f8301169050919050565b7f4e487b7100000000000000000000000000000000000000000000000000000000600052604160045260246000fd5b611a09826119c0565b810181811067ffffffffffffffff82111715611a2857611a276119d1565b5b80604052505050565b6000611a3b61196c565b9050611a478282611a00565b919050565b600067ffffffffffffffff821115611a6757611a666119d1565b5b611a70826119c0565b9050602081019050919050565b82818337600083830152505050565b6000611a9f611a9a84611a4c565b611a31565b905082815260208101848484011115611abb57611aba6119bb565b5b611ac6848285611a7d565b509392505050565b600082601f830112611ae357611ae26119b6565b5b8135611af3848260208601611a8c565b91505092915050565b60008060408385031215611b1357611b12611976565b5b6000611b21858286016119a1565b925050602083013567ffffffffffffffff811115611b4257611b4161197b565b5b611b4e85828601611ace565b9150509250929050565b600081519050919050565b600082825260208201905092915050565b6000819050602082019050919050565b611b8d81611980565b82525050565b600073ffffffffffffffffffffffffffffffffffffffff82169050919050565b6000611bbe82611b93565b9050919050565b611bce81611bb3565b82525050565b600081519050919050565b600082825260208201905092915050565b60005b83811015611c0e578082015181840152602081019050611bf3565b60008484015250505050565b6000611c2582611bd4565b611c2f8185611bdf565b9350611c3f818560208601611bf0565b611c48816119c0565b840191505092915050565b6000606083016000830151611c6b6000860182611b84565b506020830151611c7e6020860182611bc5565b5060408301518482036040860152611c968282611c1a565b9150508091505092915050565b6000611caf8383611c53565b905092915050565b6000602082019050919050565b6000611ccf82611b58565b611cd98185611b63565b935083602082028501611ceb85611b74565b8060005b85811015611d275784840389528151611d088582611ca3565b9450611d1383611cb7565b925060208a01995050600181019050611cef565b50829750879550505050505092915050565b60006020820190508181036000830152611d538184611cc4565b905092915050565b611d6481611bb3565b8114611d6f57600080fd5b50565b600081359050611d8181611d5b565b92915050565b600060208284031215611d9d57611d9c611976565b5b6000611dab84828501611d72565b91505092915050565b6000819050919050565b611dc781611db4565b82525050565b6000602082019050611de26000830184611dbe565b92915050565b600060208284031215611dfe57611dfd611976565b5b6000611e0c848285016119a1565b91505092915050565b611e1e81611980565b82525050565b611e2d81611bb3565b82525050565b600082825260208201905092915050565b6000611e4f82611bd4565b611e598185611e33565b9350611e69818560208601611bf0565b611e72816119c0565b840191505092915050565b6000606082019050611e926000830186611e15565b611e9f6020830185611e24565b8181036040830152611eb18184611e44565b9050949350505050565b60006020820190508181036000830152611ed58184611e44565b905092915050565b60008060408385031215611ef457611ef3611976565b5b600083013567ffffffffffffffff811115611f1257611f1161197b565b5b611f1e85828601611ace565b925050602083013567ffffffffffffffff811115611f3f57611f3e61197b565b5b611f4b85828601611ace565b9150509250929050565b6000606082019050611f6a6000830186611e24565b611f776020830185611e15565b8181036040830152611f898184611e44565b9050949350505050565b6000602082019050611fa86000830184611e24565b92915050565b60006040820190508181036000830152611fc88185611e44565b90508181036020830152611fdc8184611e44565b90509392505050565b600081519050919050565b600082825260208201905092915050565b6000819050602082019050919050565b60006060830160008301516120296000860182611bc5565b50602083015161203c6020860182611b84565b50604083015184820360408601526120548282611c1a565b9150508091505092915050565b600061206d8383612011565b905092915050565b6000602082019050919050565b600061208d82611fe5565b6120978185611ff0565b9350836020820285016120a985612001565b8060005b858110156120e557848403895281516120c68582612061565b94506120d183612075565b925060208a019950506001810190506120ad565b50829750879550505050505092915050565b600060208201905081810360008301526121118184612082565b905092915050565b61212281611db4565b811461212d57600080fd5b50565b60008135905061213f81612119565b92915050565b60006020828403121561215b5761215a611976565b5b600061216984828501612130565b91505092915050565b7f5468657265206973206e6f20737461727465642061756374696f6e206e6f7700600082015250565b60006121a8601f83611e33565b91506121b382612172565b602082019050919050565b600060208201905081810360008301526121d78161219b565b9050919050565b7f57696e6e6572207375626d697373696f6e20706861736520686173206e6f742060008201527f73746172746564207965742e0000000000000000000000000000000000000000602082015250565b600061223a602c83611e33565b9150612245826121de565b604082019050919050565b600060208201905081810360008301526122698161222d565b9050919050565b7f57696e6e6572207375626d697373696f6e2074696d652068617320706173736560008201527f642e000000000000000000000000000000000000000000000000000000000000602082015250565b60006122cc602283611e33565b91506122d782612270565b604082019050919050565b600060208201905081810360008301526122fb816122bf565b9050919050565b7f4e487b7100000000000000000000000000000000000000000000000000000000600052602260045260246000fd5b6000600282049050600182168061234957607f821691505b60208210810361235c5761235b612302565b5b50919050565b60008190508160005260206000209050919050565b60006020601f8301049050919050565b600082821b905092915050565b6000600883026123c47fffffffffffffffffffffffffffffffffffffffffffffffffffffffffffffffff82612387565b6123ce8683612387565b95508019841693508086168417925050509392505050565b6000819050919050565b600061240b61240661240184611980565b6123e6565b611980565b9050919050565b6000819050919050565b612425836123f0565b61243961243182612412565b848454612394565b825550505050565b600090565b61244e612441565b61245981848461241c565b505050565b5b8181101561247d57612472600082612446565b60018101905061245f565b5050565b601f8211156124c25761249381612362565b61249c84612377565b810160208510156124ab578190505b6124bf6124b785612377565b83018261245e565b50505b505050565b600082821c905092915050565b60006124e5600019846008026124c7565b1980831691505092915050565b60006124fe83836124d4565b9150826002028217905092915050565b61251782611bd4565b67ffffffffffffffff8111156125305761252f6119d1565b5b61253a8254612331565b612545828285612481565b600060209050601f8311600181146125785760008415612566578287015190505b61257085826124f2565b8655506125d8565b601f19841661258686612362565b60005b828110156125ae57848901518255600182019150602085019450602081019050612589565b868310156125cb57848901516125c7601f8916826124d4565b8355505b6001600288020188555050505b505050505050565b7f41756374696f6e206973206e6f7420636f6d706c65746564207965742e000000600082015250565b6000612616601d83611e33565b9150612621826125e0565b602082019050919050565b6000602082019050818103600083015261264581612609565b9050919050565b7f4e487b7100000000000000000000000000000000000000000000000000000000600052603260045260246000fd5b7f4e487b7100000000000000000000000000000000000000000000000000000000600052601160045260246000fd5b60006126b582611980565b91506126c083611980565b92508282019050808211156126d8576126d761267b565b5b92915050565b7f4469737075746520706861736520686173206e6f74207374617274656420796560008201527f742e000000000000000000000000000000000000000000000000000000000000602082015250565b600061273a602283611e33565b9150612745826126de565b604082019050919050565b600060208201905081810360008301526127698161272d565b9050919050565b7f4469737075746520706861736520686173207061737365642e00000000000000600082015250565b60006127a6601983611e33565b91506127b182612770565b602082019050919050565b600060208201905081810360008301526127d581612799565b9050919050565b7f5468652062696420616e64206e6f6e636520796f75207375626d69747465642060008201527f617265206e6f742076616c69642e000000000000000000000000000000000000602082015250565b6000612838602e83611e33565b9150612843826127dc565b604082019050919050565b600060208201905081810360008301526128678161282b565b9050919050565b7f596f75722064697370757465206973206e6f742076616c69642073696e63652060008201527f6974206973206e6f742067726561746572207468616e206174206c656173742060208201527f6f6e652077696e6e65722e000000000000000000000000000000000000000000604082015250565b60006128f0604b83611e33565b91506128fb8261286e565b606082019050919050565b6000602082019050818103600083015261291f816128e3565b9050919050565b7f48617368656420626964207375626d697373696f6e207068617365206973206e60008201527f6f742073746172746564207965742e0000000000000000000000000000000000602082015250565b6000612982602f83611e33565b915061298d82612926565b604082019050919050565b600060208201905081810360008301526129b181612975565b9050919050565b7f54696d6520666f722068617368656420626964207375626d697373696f6e206960008201527f7320706173736564000000000000000000000000000000000000000000000000602082015250565b6000612a14602883611e33565b9150612a1f826129b8565b604082019050919050565b60006020820190508181036000830152612a4381612a07565b9050919050565b7f54696d6520666f72207265676973746572696e6720617320612062696464657260008201527f206973207061737365642e000000000000000000000000000000000000000000602082015250565b6000612aa6602b83611e33565b9150612ab182612a4a565b604082019050919050565b60006020820190508181036000830152612ad581612a99565b9050919050565b600081905092915050565b6000612af282611bd4565b612afc8185612adc565b9350612b0c818560208601611bf0565b80840191505092915050565b6000612b248285612ae7565b9150612b308284612ae7565b91508190509392505050565b6000612b488284612ae7565b915081905092915050565b600081519050919050565b600081905092915050565b6000612b7482612b53565b612b7e8185612b5e565b9350612b8e818560208601611bf0565b80840191505092915050565b6000612ba68284612b69565b915081905092915050565b600081519050612bc081612119565b92915050565b600060208284031215612bdc57612bdb611976565b5b6000612bea84828501612bb1565b91505092915050565b6000612bfe82611980565b91507fffffffffffffffffffffffffffffffffffffffffffffffffffffffffffffffff8203612c3057612c2f61267b565b5b600182019050919050565b6000612c4682611980565b9150612c5183611980565b9250828202612c5f81611980565b91508282048414831517612c7657612c7561267b565b5b5092915050565b7f4e487b7100000000000000000000000000000000000000000000000000000000600052601260045260246000fdfea26469706673582212200e6a7b33239fe5fed8bde2d6be9d074ca9edabf1c85bbec152b84fb9f29e9c4564736f6c63430008120033",
			"opcodes": "PUSH1 0x80 PUSH1 0x40 MSTORE PUSH1 0x5 PUSH1 0x6 SSTORE PUSH1 0x0 PUSH1 0x7 PUSH1 0x0 PUSH2 0x100 EXP DUP2 SLOAD DUP2 PUSH1 0xFF MUL NOT AND SWAP1 DUP4 ISZERO ISZERO MUL OR SWAP1 SSTORE POP CALLVALUE DUP1 ISZERO PUSH2 0x30 JUMPI PUSH1 0x0 DUP1 REVERT JUMPDEST POP PUSH2 0x2CE2 DUP1 PUSH2 0x40 PUSH1 0x0 CODECOPY PUSH1 0x0 RETURN INVALID PUSH1 0x80 PUSH1 0x40 MSTORE CALLVALUE DUP1 ISZERO PUSH2 0x10 JUMPI PUSH1 0x0 DUP1 REVERT JUMPDEST POP PUSH1 0x4 CALLDATASIZE LT PUSH2 0x100 JUMPI PUSH1 0x0 CALLDATALOAD PUSH1 0xE0 SHR DUP1 PUSH4 0xA2FB1175 GT PUSH2 0x97 JUMPI DUP1 PUSH4 0xD94A3505 GT PUSH2 0x66 JUMPI DUP1 PUSH4 0xD94A3505 EQ PUSH2 0x28B JUMPI DUP1 PUSH4 0xDC6B8627 EQ PUSH2 0x2AA JUMPI DUP1 PUSH4 0xEC5D0AB2 EQ PUSH2 0x2C8 JUMPI DUP1 PUSH4 0xF356733C EQ PUSH2 0x2E4 JUMPI PUSH2 0x100 JUMP JUMPDEST DUP1 PUSH4 0xA2FB1175 EQ PUSH2 0x201 JUMPI DUP1 PUSH4 0xC9230C5D EQ PUSH2 0x233 JUMPI DUP1 PUSH4 0xCFF29DFD EQ PUSH2 0x251 JUMPI DUP1 PUSH4 0xD826F88F EQ PUSH2 0x281 JUMPI PUSH2 0x100 JUMP JUMPDEST DUP1 PUSH4 0x66C85DEE GT PUSH2 0xD3 JUMPI DUP1 PUSH4 0x66C85DEE EQ PUSH2 0x179 JUMPI DUP1 PUSH4 0x8F772F96 EQ PUSH2 0x195 JUMPI DUP1 PUSH4 0x938626C2 EQ PUSH2 0x1C7 JUMPI DUP1 PUSH4 0xA2EBC656 EQ PUSH2 0x1E5 JUMPI PUSH2 0x100 JUMP JUMPDEST DUP1 PUSH4 0x1744E03B EQ PUSH2 0x105 JUMPI DUP1 PUSH4 0x35ABD160 EQ PUSH2 0x121 JUMPI DUP1 PUSH4 0x3817DF4C EQ PUSH2 0x13F JUMPI DUP1 PUSH4 0x40BD5937 EQ PUSH2 0x16F JUMPI JUMPDEST PUSH1 0x0 DUP1 REVERT JUMPDEST PUSH2 0x11F PUSH1 0x4 DUP1 CALLDATASIZE SUB DUP2 ADD SWAP1 PUSH2 0x11A SWAP2 SWAP1 PUSH2 0x1AFC JUMP JUMPDEST PUSH2 0x2EE JUMP JUMPDEST STOP JUMPDEST PUSH2 0x129 PUSH2 0x49B JUMP JUMPDEST PUSH1 0x40 MLOAD PUSH2 0x136 SWAP2 SWAP1 PUSH2 0x1D39 JUMP JUMPDEST PUSH1 0x40 MLOAD DUP1 SWAP2 SUB SWAP1 RETURN JUMPDEST PUSH2 0x159 PUSH1 0x4 DUP1 CALLDATASIZE SUB DUP2 ADD SWAP1 PUSH2 0x154 SWAP2 SWAP1 PUSH2 0x1D87 JUMP JUMPDEST PUSH2 0x642 JUMP JUMPDEST PUSH1 0x40 MLOAD PUSH2 0x166 SWAP2 SWAP1 PUSH2 0x1DCD JUMP JUMPDEST PUSH1 0x40 MLOAD DUP1 SWAP2 SUB SWAP1 RETURN JUMPDEST PUSH2 0x177 PUSH2 0x65A JUMP JUMPDEST STOP JUMPDEST PUSH2 0x193 PUSH1 0x4 DUP1 CALLDATASIZE SUB DUP2 ADD SWAP1 PUSH2 0x18E SWAP2 SWAP1 PUSH2 0x1AFC JUMP JUMPDEST PUSH2 0x74C JUMP JUMPDEST STOP JUMPDEST PUSH2 0x1AF PUSH1 0x4 DUP1 CALLDATASIZE SUB DUP2 ADD SWAP1 PUSH2 0x1AA SWAP2 SWAP1 PUSH2 0x1DE8 JUMP JUMPDEST PUSH2 0x9EA JUMP JUMPDEST PUSH1 0x40 MLOAD PUSH2 0x1BE SWAP4 SWAP3 SWAP2 SWAP1 PUSH2 0x1E7D JUMP JUMPDEST PUSH1 0x40 MLOAD DUP1 SWAP2 SUB SWAP1 RETURN JUMPDEST PUSH2 0x1CF PUSH2 0xACC JUMP JUMPDEST PUSH1 0x40 MLOAD PUSH2 0x1DC SWAP2 SWAP1 PUSH2 0x1EBB JUMP JUMPDEST PUSH1 0x40 MLOAD DUP1 SWAP2 SUB SWAP1 RETURN JUMPDEST PUSH2 0x1FF PUSH1 0x4 DUP1 CALLDATASIZE SUB DUP2 ADD SWAP1 PUSH2 0x1FA SWAP2 SWAP1 PUSH2 0x1EDD JUMP JUMPDEST PUSH2 0xB5A JUMP JUMPDEST STOP JUMPDEST PUSH2 0x21B PUSH1 0x4 DUP1 CALLDATASIZE SUB DUP2 ADD SWAP1 PUSH2 0x216 SWAP2 SWAP1 PUSH2 0x1DE8 JUMP JUMPDEST PUSH2 0xBA1 JUMP JUMPDEST PUSH1 0x40 MLOAD PUSH2 0x22A SWAP4 SWAP3 SWAP2 SWAP1 PUSH2 0x1F55 JUMP JUMPDEST PUSH1 0x40 MLOAD DUP1 SWAP2 SUB SWAP1 RETURN JUMPDEST PUSH2 0x23B PUSH2 0xC83 JUMP JUMPDEST PUSH1 0x40 MLOAD PUSH2 0x248 SWAP2 SWAP1 PUSH2 0x1EBB JUMP JUMPDEST PUSH1 0x40 MLOAD DUP1 SWAP2 SUB SWAP1 RETURN JUMPDEST PUSH2 0x26B PUSH1 0x4 DUP1 CALLDATASIZE SUB DUP2 ADD SWAP1 PUSH2 0x266 SWAP2 SWAP1 PUSH2 0x1DE8 JUMP JUMPDEST PUSH2 0xD11 JUMP JUMPDEST PUSH1 0x40 MLOAD PUSH2 0x278 SWAP2 SWAP1 PUSH2 0x1F93 JUMP JUMPDEST PUSH1 0x40 MLOAD DUP1 SWAP2 SUB SWAP1 RETURN JUMPDEST PUSH2 0x289 PUSH2 0xD50 JUMP JUMPDEST STOP JUMPDEST PUSH2 0x293 PUSH2 0xE21 JUMP JUMPDEST PUSH1 0x40 MLOAD PUSH2 0x2A1 SWAP3 SWAP2 SWAP1 PUSH2 0x1FAE JUMP JUMPDEST PUSH1 0x40 MLOAD DUP1 SWAP2 SUB SWAP1 RETURN JUMPDEST PUSH2 0x2B2 PUSH2 0xF9E JUMP JUMPDEST PUSH1 0x40 MLOAD PUSH2 0x2BF SWAP2 SWAP1 PUSH2 0x20F7 JUMP JUMPDEST PUSH1 0x40 MLOAD DUP1 SWAP2 SUB SWAP1 RETURN JUMPDEST PUSH2 0x2E2 PUSH1 0x4 DUP1 CALLDATASIZE SUB DUP2 ADD SWAP1 PUSH2 0x2DD SWAP2 SWAP1 PUSH2 0x2145 JUMP JUMPDEST PUSH2 0x1145 JUMP JUMPDEST STOP JUMPDEST PUSH2 0x2EC PUSH2 0x126A JUMP JUMPDEST STOP JUMPDEST PUSH1 0x1 ISZERO ISZERO PUSH1 0x7 PUSH1 0x0 SWAP1 SLOAD SWAP1 PUSH2 0x100 EXP SWAP1 DIV PUSH1 0xFF AND ISZERO ISZERO EQ PUSH2 0x344 JUMPI PUSH1 0x40 MLOAD PUSH32 0x8C379A000000000000000000000000000000000000000000000000000000000 DUP2 MSTORE PUSH1 0x4 ADD PUSH2 0x33B SWAP1 PUSH2 0x21BE JUMP JUMPDEST PUSH1 0x40 MLOAD DUP1 SWAP2 SUB SWAP1 REVERT JUMPDEST PUSH1 0x4 SLOAD TIMESTAMP GT PUSH2 0x388 JUMPI PUSH1 0x40 MLOAD PUSH32 0x8C379A000000000000000000000000000000000000000000000000000000000 DUP2 MSTORE PUSH1 0x4 ADD PUSH2 0x37F SWAP1 PUSH2 0x2250 JUMP JUMPDEST PUSH1 0x40 MLOAD DUP1 SWAP2 SUB SWAP1 REVERT JUMPDEST PUSH1 0x5 SLOAD TIMESTAMP LT PUSH2 0x3CC JUMPI PUSH1 0x40 MLOAD PUSH32 0x8C379A000000000000000000000000000000000000000000000000000000000 DUP2 MSTORE PUSH1 0x4 ADD PUSH2 0x3C3 SWAP1 PUSH2 0x22E2 JUMP JUMPDEST PUSH1 0x40 MLOAD DUP1 SWAP2 SUB SWAP1 REVERT JUMPDEST PUSH1 0x0 PUSH1 0x40 MLOAD DUP1 PUSH1 0x60 ADD PUSH1 0x40 MSTORE DUP1 CALLER PUSH20 0xFFFFFFFFFFFFFFFFFFFFFFFFFFFFFFFFFFFFFFFF AND DUP2 MSTORE PUSH1 0x20 ADD DUP5 DUP2 MSTORE PUSH1 0x20 ADD DUP4 DUP2 MSTORE POP SWAP1 POP PUSH1 0xA DUP2 SWAP1 DUP1 PUSH1 0x1 DUP2 SLOAD ADD DUP1 DUP3 SSTORE DUP1 SWAP2 POP POP PUSH1 0x1 SWAP1 SUB SWAP1 PUSH1 0x0 MSTORE PUSH1 0x20 PUSH1 0x0 KECCAK256 SWAP1 PUSH1 0x3 MUL ADD PUSH1 0x0 SWAP1 SWAP2 SWAP1 SWAP2 SWAP1 SWAP2 POP PUSH1 0x0 DUP3 ADD MLOAD DUP2 PUSH1 0x0 ADD PUSH1 0x0 PUSH2 0x100 EXP DUP2 SLOAD DUP2 PUSH20 0xFFFFFFFFFFFFFFFFFFFFFFFFFFFFFFFFFFFFFFFF MUL NOT AND SWAP1 DUP4 PUSH20 0xFFFFFFFFFFFFFFFFFFFFFFFFFFFFFFFFFFFFFFFF AND MUL OR SWAP1 SSTORE POP PUSH1 0x20 DUP3 ADD MLOAD DUP2 PUSH1 0x1 ADD SSTORE PUSH1 0x40 DUP3 ADD MLOAD DUP2 PUSH1 0x2 ADD SWAP1 DUP2 PUSH2 0x493 SWAP2 SWAP1 PUSH2 0x250E JUMP JUMPDEST POP POP POP POP POP POP JUMP JUMPDEST PUSH1 0x60 PUSH1 0x1 ISZERO ISZERO PUSH1 0x7 PUSH1 0x0 SWAP1 SLOAD SWAP1 PUSH2 0x100 EXP SWAP1 DIV PUSH1 0xFF AND ISZERO ISZERO EQ PUSH2 0x4F3 JUMPI PUSH1 0x40 MLOAD PUSH32 0x8C379A000000000000000000000000000000000000000000000000000000000 DUP2 MSTORE PUSH1 0x4 ADD PUSH2 0x4EA SWAP1 PUSH2 0x21BE JUMP JUMPDEST PUSH1 0x40 MLOAD DUP1 SWAP2 SUB SWAP1 REVERT JUMPDEST PUSH1 0xB DUP1 SLOAD DUP1 PUSH1 0x20 MUL PUSH1 0x20 ADD PUSH1 0x40 MLOAD SWAP1 DUP2 ADD PUSH1 0x40 MSTORE DUP1 SWAP3 SWAP2 SWAP1 DUP2 DUP2 MSTORE PUSH1 0x20 ADD PUSH1 0x0 SWAP1 JUMPDEST DUP3 DUP3 LT ISZERO PUSH2 0x639 JUMPI DUP4 DUP3 SWAP1 PUSH1 0x0 MSTORE PUSH1 0x20 PUSH1 0x0 KECCAK256 SWAP1 PUSH1 0x3 MUL ADD PUSH1 0x40 MLOAD DUP1 PUSH1 0x60 ADD PUSH1 0x40 MSTORE SWAP1 DUP2 PUSH1 0x0 DUP3 ADD SLOAD DUP2 MSTORE PUSH1 0x20 ADD PUSH1 0x1 DUP3 ADD PUSH1 0x0 SWAP1 SLOAD SWAP1 PUSH2 0x100 EXP SWAP1 DIV PUSH20 0xFFFFFFFFFFFFFFFFFFFFFFFFFFFFFFFFFFFFFFFF AND PUSH20 0xFFFFFFFFFFFFFFFFFFFFFFFFFFFFFFFFFFFFFFFF AND PUSH20 0xFFFFFFFFFFFFFFFFFFFFFFFFFFFFFFFFFFFFFFFF AND DUP2 MSTORE PUSH1 0x20 ADD PUSH1 0x2 DUP3 ADD DUP1 SLOAD PUSH2 0x5A8 SWAP1 PUSH2 0x2331 JUMP JUMPDEST DUP1 PUSH1 0x1F ADD PUSH1 0x20 DUP1 SWAP2 DIV MUL PUSH1 0x20 ADD PUSH1 0x40 MLOAD SWAP1 DUP2 ADD PUSH1 0x40 MSTORE DUP1 SWAP3 SWAP2 SWAP1 DUP2 DUP2 MSTORE PUSH1 0x20 ADD DUP3 DUP1 SLOAD PUSH2 0x5D4 SWAP1 PUSH2 0x2331 JUMP JUMPDEST DUP1 ISZERO PUSH2 0x621 JUMPI DUP1 PUSH1 0x1F LT PUSH2 0x5F6 JUMPI PUSH2 0x100 DUP1 DUP4 SLOAD DIV MUL DUP4 MSTORE SWAP2 PUSH1 0x20 ADD SWAP2 PUSH2 0x621 JUMP JUMPDEST DUP3 ADD SWAP2 SWAP1 PUSH1 0x0 MSTORE PUSH1 0x20 PUSH1 0x0 KECCAK256 SWAP1 JUMPDEST DUP2 SLOAD DUP2 MSTORE SWAP1 PUSH1 0x1 ADD SWAP1 PUSH1 0x20 ADD DUP1 DUP4 GT PUSH2 0x604 JUMPI DUP3 SWAP1 SUB PUSH1 0x1F AND DUP3 ADD SWAP2 JUMPDEST POP POP POP POP POP DUP2 MSTORE POP POP DUP2 MSTORE PUSH1 0x20 ADD SWAP1 PUSH1 0x1 ADD SWAP1 PUSH2 0x515 JUMP JUMPDEST POP POP POP POP SWAP1 POP SWAP1 JUMP JUMPDEST PUSH1 0x9 PUSH1 0x20 MSTORE DUP1 PUSH1 0x0 MSTORE PUSH1 0x40 PUSH1 0x0 KECCAK256 PUSH1 0x0 SWAP2 POP SWAP1 POP SLOAD DUP2 JUMP JUMPDEST PUSH1 0x5 SLOAD TIMESTAMP GT PUSH2 0x69E JUMPI PUSH1 0x40 MLOAD PUSH32 0x8C379A000000000000000000000000000000000000000000000000000000000 DUP2 MSTORE PUSH1 0x4 ADD PUSH2 0x695 SWAP1 PUSH2 0x262C JUMP JUMPDEST PUSH1 0x40 MLOAD DUP1 SWAP2 SUB SWAP1 REVERT JUMPDEST PUSH1 0x0 JUMPDEST PUSH1 0x8 DUP1 SLOAD SWAP1 POP DUP2 LT ISZERO PUSH2 0x749 JUMPI PUSH1 0x0 PUSH1 0x8 DUP3 DUP2 SLOAD DUP2 LT PUSH2 0x6C4 JUMPI PUSH2 0x6C3 PUSH2 0x264C JUMP JUMPDEST JUMPDEST SWAP1 PUSH1 0x0 MSTORE PUSH1 0x20 PUSH1 0x0 KECCAK256 ADD PUSH1 0x0 SWAP1 SLOAD SWAP1 PUSH2 0x100 EXP SWAP1 DIV PUSH20 0xFFFFFFFFFFFFFFFFFFFFFFFFFFFFFFFFFFFFFFFF AND SWAP1 POP PUSH1 0x9 PUSH1 0x0 DUP3 PUSH20 0xFFFFFFFFFFFFFFFFFFFFFFFFFFFFFFFFFFFFFFFF AND PUSH20 0xFFFFFFFFFFFFFFFFFFFFFFFFFFFFFFFFFFFFFFFF AND DUP2 MSTORE PUSH1 0x20 ADD SWAP1 DUP2 MSTORE PUSH1 0x20 ADD PUSH1 0x0 KECCAK256 PUSH1 0x0 SWAP1 SSTORE POP PUSH1 0x1 DUP2 PUSH2 0x742 SWAP2 SWAP1 PUSH2 0x26AA JUMP JUMPDEST SWAP1 POP PUSH2 0x6A1 JUMP JUMPDEST POP JUMP JUMPDEST PUSH1 0x1 ISZERO ISZERO PUSH1 0x7 PUSH1 0x0 SWAP1 SLOAD SWAP1 PUSH2 0x100 EXP SWAP1 DIV PUSH1 0xFF AND ISZERO ISZERO EQ PUSH2 0x7A2 JUMPI PUSH1 0x40 MLOAD PUSH32 0x8C379A000000000000000000000000000000000000000000000000000000000 DUP2 MSTORE PUSH1 0x4 ADD PUSH2 0x799 SWAP1 PUSH2 0x21BE JUMP JUMPDEST PUSH1 0x40 MLOAD DUP1 SWAP2 SUB SWAP1 REVERT JUMPDEST PUSH1 0x4 SLOAD TIMESTAMP GT PUSH2 0x7E6 JUMPI PUSH1 0x40 MLOAD PUSH32 0x8C379A000000000000000000000000000000000000000000000000000000000 DUP2 MSTORE PUSH1 0x4 ADD PUSH2 0x7DD SWAP1 PUSH2 0x2750 JUMP JUMPDEST PUSH1 0x40 MLOAD DUP1 SWAP2 SUB SWAP1 REVERT JUMPDEST PUSH1 0x5 SLOAD TIMESTAMP LT PUSH2 0x82A JUMPI PUSH1 0x40 MLOAD PUSH32 0x8C379A000000000000000000000000000000000000000000000000000000000 DUP2 MSTORE PUSH1 0x4 ADD PUSH2 0x821 SWAP1 PUSH2 0x27BC JUMP JUMPDEST PUSH1 0x40 MLOAD DUP1 SWAP2 SUB SWAP1 REVERT JUMPDEST PUSH1 0x0 PUSH2 0x836 DUP4 DUP4 PUSH2 0x1369 JUMP JUMPDEST SWAP1 POP DUP1 PUSH1 0x9 PUSH1 0x0 CALLER PUSH20 0xFFFFFFFFFFFFFFFFFFFFFFFFFFFFFFFFFFFFFFFF AND PUSH20 0xFFFFFFFFFFFFFFFFFFFFFFFFFFFFFFFFFFFFFFFF AND DUP2 MSTORE PUSH1 0x20 ADD SWAP1 DUP2 MSTORE PUSH1 0x20 ADD PUSH1 0x0 KECCAK256 SLOAD EQ PUSH2 0x8B9 JUMPI PUSH1 0x40 MLOAD PUSH32 0x8C379A000000000000000000000000000000000000000000000000000000000 DUP2 MSTORE PUSH1 0x4 ADD PUSH2 0x8B0 SWAP1 PUSH2 0x284E JUMP JUMPDEST PUSH1 0x40 MLOAD DUP1 SWAP2 SUB SWAP1 REVERT JUMPDEST PUSH1 0x1 ISZERO ISZERO PUSH2 0x8C6 DUP5 PUSH2 0x1416 JUMP JUMPDEST ISZERO ISZERO EQ PUSH2 0x908 JUMPI PUSH1 0x40 MLOAD PUSH32 0x8C379A000000000000000000000000000000000000000000000000000000000 DUP2 MSTORE PUSH1 0x4 ADD PUSH2 0x8FF SWAP1 PUSH2 0x2906 JUMP JUMPDEST PUSH1 0x40 MLOAD DUP1 SWAP2 SUB SWAP1 REVERT JUMPDEST PUSH2 0x910 PUSH2 0x1480 JUMP JUMPDEST PUSH2 0x91A DUP4 DUP4 PUSH2 0x1490 JUMP JUMPDEST PUSH1 0x0 PUSH1 0x40 MLOAD DUP1 PUSH1 0x60 ADD PUSH1 0x40 MSTORE DUP1 DUP6 DUP2 MSTORE PUSH1 0x20 ADD CALLER PUSH20 0xFFFFFFFFFFFFFFFFFFFFFFFFFFFFFFFFFFFFFFFF AND DUP2 MSTORE PUSH1 0x20 ADD DUP5 DUP2 MSTORE POP SWAP1 POP PUSH1 0xB DUP2 SWAP1 DUP1 PUSH1 0x1 DUP2 SLOAD ADD DUP1 DUP3 SSTORE DUP1 SWAP2 POP POP PUSH1 0x1 SWAP1 SUB SWAP1 PUSH1 0x0 MSTORE PUSH1 0x20 PUSH1 0x0 KECCAK256 SWAP1 PUSH1 0x3 MUL ADD PUSH1 0x0 SWAP1 SWAP2 SWAP1 SWAP2 SWAP1 SWAP2 POP PUSH1 0x0 DUP3 ADD MLOAD DUP2 PUSH1 0x0 ADD SSTORE PUSH1 0x20 DUP3 ADD MLOAD DUP2 PUSH1 0x1 ADD PUSH1 0x0 PUSH2 0x100 EXP DUP2 SLOAD DUP2 PUSH20 0xFFFFFFFFFFFFFFFFFFFFFFFFFFFFFFFFFFFFFFFF MUL NOT AND SWAP1 DUP4 PUSH20 0xFFFFFFFFFFFFFFFFFFFFFFFFFFFFFFFFFFFFFFFF AND MUL OR SWAP1 SSTORE POP PUSH1 0x40 DUP3 ADD MLOAD DUP2 PUSH1 0x2 ADD SWAP1 DUP2 PUSH2 0x9E1 SWAP2 SWAP1 PUSH2 0x250E JUMP JUMPDEST POP POP POP POP POP POP POP JUMP JUMPDEST PUSH1 0xB DUP2 DUP2 SLOAD DUP2 LT PUSH2 0x9FA JUMPI PUSH1 0x0 DUP1 REVERT JUMPDEST SWAP1 PUSH1 0x0 MSTORE PUSH1 0x20 PUSH1 0x0 KECCAK256 SWAP1 PUSH1 0x3 MUL ADD PUSH1 0x0 SWAP2 POP SWAP1 POP DUP1 PUSH1 0x0 ADD SLOAD SWAP1 DUP1 PUSH1 0x1 ADD PUSH1 0x0 SWAP1 SLOAD SWAP1 PUSH2 0x100 EXP SWAP1 DIV PUSH20 0xFFFFFFFFFFFFFFFFFFFFFFFFFFFFFFFFFFFFFFFF AND SWAP1 DUP1 PUSH1 0x2 ADD DUP1 SLOAD PUSH2 0xA49 SWAP1 PUSH2 0x2331 JUMP JUMPDEST DUP1 PUSH1 0x1F ADD PUSH1 0x20 DUP1 SWAP2 DIV MUL PUSH1 0x20 ADD PUSH1 0x40 MLOAD SWAP1 DUP2 ADD PUSH1 0x40 MSTORE DUP1 SWAP3 SWAP2 SWAP1 DUP2 DUP2 MSTORE PUSH1 0x20 ADD DUP3 DUP1 SLOAD PUSH2 0xA75 SWAP1 PUSH2 0x2331 JUMP JUMPDEST DUP1 ISZERO PUSH2 0xAC2 JUMPI DUP1 PUSH1 0x1F LT PUSH2 0xA97 JUMPI PUSH2 0x100 DUP1 DUP4 SLOAD DIV MUL DUP4 MSTORE SWAP2 PUSH1 0x20 ADD SWAP2 PUSH2 0xAC2 JUMP JUMPDEST DUP3 ADD SWAP2 SWAP1 PUSH1 0x0 MSTORE PUSH1 0x20 PUSH1 0x0 KECCAK256 SWAP1 JUMPDEST DUP2 SLOAD DUP2 MSTORE SWAP1 PUSH1 0x1 ADD SWAP1 PUSH1 0x20 ADD DUP1 DUP4 GT PUSH2 0xAA5 JUMPI DUP3 SWAP1 SUB PUSH1 0x1F AND DUP3 ADD SWAP2 JUMPDEST POP POP POP POP POP SWAP1 POP DUP4 JUMP JUMPDEST PUSH1 0x1 DUP1 SLOAD PUSH2 0xAD9 SWAP1 PUSH2 0x2331 JUMP JUMPDEST DUP1 PUSH1 0x1F ADD PUSH1 0x20 DUP1 SWAP2 DIV MUL PUSH1 0x20 ADD PUSH1 0x40 MLOAD SWAP1 DUP2 ADD PUSH1 0x40 MSTORE DUP1 SWAP3 SWAP2 SWAP1 DUP2 DUP2 MSTORE PUSH1 0x20 ADD DUP3 DUP1 SLOAD PUSH2 0xB05 SWAP1 PUSH2 0x2331 JUMP JUMPDEST DUP1 ISZERO PUSH2 0xB52 JUMPI DUP1 PUSH1 0x1F LT PUSH2 0xB27 JUMPI PUSH2 0x100 DUP1 DUP4 SLOAD DIV MUL DUP4 MSTORE SWAP2 PUSH1 0x20 ADD SWAP2 PUSH2 0xB52 JUMP JUMPDEST DUP3 ADD SWAP2 SWAP1 PUSH1 0x0 MSTORE PUSH1 0x20 PUSH1 0x0 KECCAK256 SWAP1 JUMPDEST DUP2 SLOAD DUP2 MSTORE SWAP1 PUSH1 0x1 ADD SWAP1 PUSH1 0x20 ADD DUP1 DUP4 GT PUSH2 0xB35 JUMPI DUP3 SWAP1 SUB PUSH1 0x1F AND DUP3 ADD SWAP2 JUMPDEST POP POP POP POP POP DUP2 JUMP JUMPDEST DUP2 PUSH1 0x2 SWAP1 DUP2 PUSH2 0xB69 SWAP2 SWAP1 PUSH2 0x250E JUMP JUMPDEST POP DUP1 PUSH1 0x1 SWAP1 DUP2 PUSH2 0xB79 SWAP2 SWAP1 PUSH2 0x250E JUMP JUMPDEST POP PUSH2 0xB82 PUSH2 0x155F JUMP JUMPDEST PUSH1 0x1 PUSH1 0x7 PUSH1 0x0 PUSH2 0x100 EXP DUP2 SLOAD DUP2 PUSH1 0xFF MUL NOT AND SWAP1 DUP4 ISZERO ISZERO MUL OR SWAP1 SSTORE POP POP POP JUMP JUMPDEST PUSH1 0xA DUP2 DUP2 SLOAD DUP2 LT PUSH2 0xBB1 JUMPI PUSH1 0x0 DUP1 REVERT JUMPDEST SWAP1 PUSH1 0x0 MSTORE PUSH1 0x20 PUSH1 0x0 KECCAK256 SWAP1 PUSH1 0x3 MUL ADD PUSH1 0x0 SWAP2 POP SWAP1 POP DUP1 PUSH1 0x0 ADD PUSH1 0x0 SWAP1 SLOAD SWAP1 PUSH2 0x100 EXP SWAP1 DIV PUSH20 0xFFFFFFFFFFFFFFFFFFFFFFFFFFFFFFFFFFFFFFFF AND SWAP1 DUP1 PUSH1 0x1 ADD SLOAD SWAP1 DUP1 PUSH1 0x2 ADD DUP1 SLOAD PUSH2 0xC00 SWAP1 PUSH2 0x2331 JUMP JUMPDEST DUP1 PUSH1 0x1F ADD PUSH1 0x20 DUP1 SWAP2 DIV MUL PUSH1 0x20 ADD PUSH1 0x40 MLOAD SWAP1 DUP2 ADD PUSH1 0x40 MSTORE DUP1 SWAP3 SWAP2 SWAP1 DUP2 DUP2 MSTORE PUSH1 0x20 ADD DUP3 DUP1 SLOAD PUSH2 0xC2C SWAP1 PUSH2 0x2331 JUMP JUMPDEST DUP1 ISZERO PUSH2 0xC79 JUMPI DUP1 PUSH1 0x1F LT PUSH2 0xC4E JUMPI PUSH2 0x100 DUP1 DUP4 SLOAD DIV MUL DUP4 MSTORE SWAP2 PUSH1 0x20 ADD SWAP2 PUSH2 0xC79 JUMP JUMPDEST DUP3 ADD SWAP2 SWAP1 PUSH1 0x0 MSTORE PUSH1 0x20 PUSH1 0x0 KECCAK256 SWAP1 JUMPDEST DUP2 SLOAD DUP2 MSTORE SWAP1 PUSH1 0x1 ADD SWAP1 PUSH1 0x20 ADD DUP1 DUP4 GT PUSH2 0xC5C JUMPI DUP3 SWAP1 SUB PUSH1 0x1F AND DUP3 ADD SWAP2 JUMPDEST POP POP POP POP POP SWAP1 POP DUP4 JUMP JUMPDEST PUSH1 0x2 DUP1 SLOAD PUSH2 0xC90 SWAP1 PUSH2 0x2331 JUMP JUMPDEST DUP1 PUSH1 0x1F ADD PUSH1 0x20 DUP1 SWAP2 DIV MUL PUSH1 0x20 ADD PUSH1 0x40 MLOAD SWAP1 DUP2 ADD PUSH1 0x40 MSTORE DUP1 SWAP3 SWAP2 SWAP1 DUP2 DUP2 MSTORE PUSH1 0x20 ADD DUP3 DUP1 SLOAD PUSH2 0xCBC SWAP1 PUSH2 0x2331 JUMP JUMPDEST DUP1 ISZERO PUSH2 0xD09 JUMPI DUP1 PUSH1 0x1F LT PUSH2 0xCDE JUMPI PUSH2 0x100 DUP1 DUP4 SLOAD DIV MUL DUP4 MSTORE SWAP2 PUSH1 0x20 ADD SWAP2 PUSH2 0xD09 JUMP JUMPDEST DUP3 ADD SWAP2 SWAP1 PUSH1 0x0 MSTORE PUSH1 0x20 PUSH1 0x0 KECCAK256 SWAP1 JUMPDEST DUP2 SLOAD DUP2 MSTORE SWAP1 PUSH1 0x1 ADD SWAP1 PUSH1 0x20 ADD DUP1 DUP4 GT PUSH2 0xCEC JUMPI DUP3 SWAP1 SUB PUSH1 0x1F AND DUP3 ADD SWAP2 JUMPDEST POP POP POP POP POP DUP2 JUMP JUMPDEST PUSH1 0x8 DUP2 DUP2 SLOAD DUP2 LT PUSH2 0xD21 JUMPI PUSH1 0x0 DUP1 REVERT JUMPDEST SWAP1 PUSH1 0x0 MSTORE PUSH1 0x20 PUSH1 0x0 KECCAK256 ADD PUSH1 0x0 SWAP2 POP SLOAD SWAP1 PUSH2 0x100 EXP SWAP1 DIV PUSH20 0xFFFFFFFFFFFFFFFFFFFFFFFFFFFFFFFFFFFFFFFF AND DUP2 JUMP JUMPDEST PUSH1 0x5 SLOAD TIMESTAMP GT PUSH2 0xD94 JUMPI PUSH1 0x40 MLOAD PUSH32 0x8C379A000000000000000000000000000000000000000000000000000000000 DUP2 MSTORE PUSH1 0x4 ADD PUSH2 0xD8B SWAP1 PUSH2 0x262C JUMP JUMPDEST PUSH1 0x40 MLOAD DUP1 SWAP2 SUB SWAP1 REVERT JUMPDEST PUSH1 0xA PUSH1 0x0 PUSH2 0xDA2 SWAP2 SWAP1 PUSH2 0x17FA JUMP JUMPDEST PUSH1 0x40 MLOAD DUP1 PUSH1 0x20 ADD PUSH1 0x40 MSTORE DUP1 PUSH1 0x0 DUP2 MSTORE POP PUSH1 0x1 SWAP1 DUP2 PUSH2 0xDC0 SWAP2 SWAP1 PUSH2 0x250E JUMP JUMPDEST POP PUSH1 0x40 MLOAD DUP1 PUSH1 0x20 ADD PUSH1 0x40 MSTORE DUP1 PUSH1 0x0 DUP2 MSTORE POP PUSH1 0x2 SWAP1 DUP2 PUSH2 0xDDF SWAP2 SWAP1 PUSH2 0x250E JUMP JUMPDEST POP PUSH2 0xDE8 PUSH2 0x65A JUMP JUMPDEST PUSH1 0x8 PUSH1 0x0 PUSH2 0xDF6 SWAP2 SWAP1 PUSH2 0x181E JUMP JUMPDEST PUSH1 0xB PUSH1 0x0 PUSH2 0xE04 SWAP2 SWAP1 PUSH2 0x183F JUMP JUMPDEST PUSH1 0x0 PUSH1 0x7 PUSH1 0x0 PUSH2 0x100 EXP DUP2 SLOAD DUP2 PUSH1 0xFF MUL NOT AND SWAP1 DUP4 ISZERO ISZERO MUL OR SWAP1 SSTORE POP JUMP JUMPDEST PUSH1 0x60 DUP1 PUSH1 0x1 ISZERO ISZERO PUSH1 0x7 PUSH1 0x0 SWAP1 SLOAD SWAP1 PUSH2 0x100 EXP SWAP1 DIV PUSH1 0xFF AND ISZERO ISZERO EQ PUSH2 0xE7A JUMPI PUSH1 0x40 MLOAD PUSH32 0x8C379A000000000000000000000000000000000000000000000000000000000 DUP2 MSTORE PUSH1 0x4 ADD PUSH2 0xE71 SWAP1 PUSH2 0x21BE JUMP JUMPDEST PUSH1 0x40 MLOAD DUP1 SWAP2 SUB SWAP1 REVERT JUMPDEST PUSH1 0x2 PUSH1 0x1 DUP2 DUP1 SLOAD PUSH2 0xE8A SWAP1 PUSH2 0x2331 JUMP JUMPDEST DUP1 PUSH1 0x1F ADD PUSH1 0x20 DUP1 SWAP2 DIV MUL PUSH1 0x20 ADD PUSH1 0x40 MLOAD SWAP1 DUP2 ADD PUSH1 0x40 MSTORE DUP1 SWAP3 SWAP2 SWAP1 DUP2 DUP2 MSTORE PUSH1 0x20 ADD DUP3 DUP1 SLOAD PUSH2 0xEB6 SWAP1 PUSH2 0x2331 JUMP JUMPDEST DUP1 ISZERO PUSH2 0xF03 JUMPI DUP1 PUSH1 0x1F LT PUSH2 0xED8 JUMPI PUSH2 0x100 DUP1 DUP4 SLOAD DIV MUL DUP4 MSTORE SWAP2 PUSH1 0x20 ADD SWAP2 PUSH2 0xF03 JUMP JUMPDEST DUP3 ADD SWAP2 SWAP1 PUSH1 0x0 MSTORE PUSH1 0x20 PUSH1 0x0 KECCAK256 SWAP1 JUMPDEST DUP2 SLOAD DUP2 MSTORE SWAP1 PUSH1 0x1 ADD SWAP1 PUSH1 0x20 ADD DUP1 DUP4 GT PUSH2 0xEE6 JUMPI DUP3 SWAP1 SUB PUSH1 0x1F AND DUP3 ADD SWAP2 JUMPDEST POP POP POP POP POP SWAP2 POP DUP1 DUP1 SLOAD PUSH2 0xF16 SWAP1 PUSH2 0x2331 JUMP JUMPDEST DUP1 PUSH1 0x1F ADD PUSH1 0x20 DUP1 SWAP2 DIV MUL PUSH1 0x20 ADD PUSH1 0x40 MLOAD SWAP1 DUP2 ADD PUSH1 0x40 MSTORE DUP1 SWAP3 SWAP2 SWAP1 DUP2 DUP2 MSTORE PUSH1 0x20 ADD DUP3 DUP1 SLOAD PUSH2 0xF42 SWAP1 PUSH2 0x2331 JUMP JUMPDEST DUP1 ISZERO PUSH2 0xF8F JUMPI DUP1 PUSH1 0x1F LT PUSH2 0xF64 JUMPI PUSH2 0x100 DUP1 DUP4 SLOAD DIV MUL DUP4 MSTORE SWAP2 PUSH1 0x20 ADD SWAP2 PUSH2 0xF8F JUMP JUMPDEST DUP3 ADD SWAP2 SWAP1 PUSH1 0x0 MSTORE PUSH1 0x20 PUSH1 0x0 KECCAK256 SWAP1 JUMPDEST DUP2 SLOAD DUP2 MSTORE SWAP1 PUSH1 0x1 ADD SWAP1 PUSH1 0x20 ADD DUP1 DUP4 GT PUSH2 0xF72 JUMPI DUP3 SWAP1 SUB PUSH1 0x1F AND DUP3 ADD SWAP2 JUMPDEST POP POP POP POP POP SWAP1 POP SWAP2 POP SWAP2 POP SWAP1 SWAP2 JUMP JUMPDEST PUSH1 0x60 PUSH1 0x1 ISZERO ISZERO PUSH1 0x7 PUSH1 0x0 SWAP1 SLOAD SWAP1 PUSH2 0x100 EXP SWAP1 DIV PUSH1 0xFF AND ISZERO ISZERO EQ PUSH2 0xFF6 JUMPI PUSH1 0x40 MLOAD PUSH32 0x8C379A000000000000000000000000000000000000000000000000000000000 DUP2 MSTORE PUSH1 0x4 ADD PUSH2 0xFED SWAP1 PUSH2 0x21BE JUMP JUMPDEST PUSH1 0x40 MLOAD DUP1 SWAP2 SUB SWAP1 REVERT JUMPDEST PUSH1 0xA DUP1 SLOAD DUP1 PUSH1 0x20 MUL PUSH1 0x20 ADD PUSH1 0x40 MLOAD SWAP1 DUP2 ADD PUSH1 0x40 MSTORE DUP1 SWAP3 SWAP2 SWAP1 DUP2 DUP2 MSTORE PUSH1 0x20 ADD PUSH1 0x0 SWAP1 JUMPDEST DUP3 DUP3 LT ISZERO PUSH2 0x113C JUMPI DUP4 DUP3 SWAP1 PUSH1 0x0 MSTORE PUSH1 0x20 PUSH1 0x0 KECCAK256 SWAP1 PUSH1 0x3 MUL ADD PUSH1 0x40 MLOAD DUP1 PUSH1 0x60 ADD PUSH1 0x40 MSTORE SWAP1 DUP2 PUSH1 0x0 DUP3 ADD PUSH1 0x0 SWAP1 SLOAD SWAP1 PUSH2 0x100 EXP SWAP1 DIV PUSH20 0xFFFFFFFFFFFFFFFFFFFFFFFFFFFFFFFFFFFFFFFF AND PUSH20 0xFFFFFFFFFFFFFFFFFFFFFFFFFFFFFFFFFFFFFFFF AND PUSH20 0xFFFFFFFFFFFFFFFFFFFFFFFFFFFFFFFFFFFFFFFF AND DUP2 MSTORE PUSH1 0x20 ADD PUSH1 0x1 DUP3 ADD SLOAD DUP2 MSTORE PUSH1 0x20 ADD PUSH1 0x2 DUP3 ADD DUP1 SLOAD PUSH2 0x10AB SWAP1 PUSH2 0x2331 JUMP JUMPDEST DUP1 PUSH1 0x1F ADD PUSH1 0x20 DUP1 SWAP2 DIV MUL PUSH1 0x20 ADD PUSH1 0x40 MLOAD SWAP1 DUP2 ADD PUSH1 0x40 MSTORE DUP1 SWAP3 SWAP2 SWAP1 DUP2 DUP2 MSTORE PUSH1 0x20 ADD DUP3 DUP1 SLOAD PUSH2 0x10D7 SWAP1 PUSH2 0x2331 JUMP JUMPDEST DUP1 ISZERO PUSH2 0x1124 JUMPI DUP1 PUSH1 0x1F LT PUSH2 0x10F9 JUMPI PUSH2 0x100 DUP1 DUP4 SLOAD DIV MUL DUP4 MSTORE SWAP2 PUSH1 0x20 ADD SWAP2 PUSH2 0x1124 JUMP JUMPDEST DUP3 ADD SWAP2 SWAP1 PUSH1 0x0 MSTORE PUSH1 0x20 PUSH1 0x0 KECCAK256 SWAP1 JUMPDEST DUP2 SLOAD DUP2 MSTORE SWAP1 PUSH1 0x1 ADD SWAP1 PUSH1 0x20 ADD DUP1 DUP4 GT PUSH2 0x1107 JUMPI DUP3 SWAP1 SUB PUSH1 0x1F AND DUP3 ADD SWAP2 JUMPDEST POP POP POP POP POP DUP2 MSTORE POP POP DUP2 MSTORE PUSH1 0x20 ADD SWAP1 PUSH1 0x1 ADD SWAP1 PUSH2 0x1018 JUMP JUMPDEST POP POP POP POP SWAP1 POP SWAP1 JUMP JUMPDEST PUSH1 0x1 ISZERO ISZERO PUSH1 0x7 PUSH1 0x0 SWAP1 SLOAD SWAP1 PUSH2 0x100 EXP SWAP1 DIV PUSH1 0xFF AND ISZERO ISZERO EQ PUSH2 0x119B JUMPI PUSH1 0x40 MLOAD PUSH32 0x8C379A000000000000000000000000000000000000000000000000000000000 DUP2 MSTORE PUSH1 0x4 ADD PUSH2 0x1192 SWAP1 PUSH2 0x21BE JUMP JUMPDEST PUSH1 0x40 MLOAD DUP1 SWAP2 SUB SWAP1 REVERT JUMPDEST PUSH1 0x3 SLOAD TIMESTAMP GT PUSH2 0x11DF JUMPI PUSH1 0x40 MLOAD PUSH32 0x8C379A000000000000000000000000000000000000000000000000000000000 DUP2 MSTORE PUSH1 0x4 ADD PUSH2 0x11D6 SWAP1 PUSH2 0x2998 JUMP JUMPDEST PUSH1 0x40 MLOAD DUP1 SWAP2 SUB SWAP1 REVERT JUMPDEST PUSH1 0x4 SLOAD TIMESTAMP LT PUSH2 0x1223 JUMPI PUSH1 0x40 MLOAD PUSH32 0x8C379A000000000000000000000000000000000000000000000000000000000 DUP2 MSTORE PUSH1 0x4 ADD PUSH2 0x121A SWAP1 PUSH2 0x2A2A JUMP JUMPDEST PUSH1 0x40 MLOAD DUP1 SWAP2 SUB SWAP1 REVERT JUMPDEST DUP1 PUSH1 0x9 PUSH1 0x0 CALLER PUSH20 0xFFFFFFFFFFFFFFFFFFFFFFFFFFFFFFFFFFFFFFFF AND PUSH20 0xFFFFFFFFFFFFFFFFFFFFFFFFFFFFFFFFFFFFFFFF AND DUP2 MSTORE PUSH1 0x20 ADD SWAP1 DUP2 MSTORE PUSH1 0x20 ADD PUSH1 0x0 KECCAK256 DUP2 SWAP1 SSTORE POP POP JUMP JUMPDEST PUSH1 0x1 ISZERO ISZERO PUSH1 0x7 PUSH1 0x0 SWAP1 SLOAD SWAP1 PUSH2 0x100 EXP SWAP1 DIV PUSH1 0xFF AND ISZERO ISZERO EQ PUSH2 0x12C0 JUMPI PUSH1 0x40 MLOAD PUSH32 0x8C379A000000000000000000000000000000000000000000000000000000000 DUP2 MSTORE PUSH1 0x4 ADD PUSH2 0x12B7 SWAP1 PUSH2 0x21BE JUMP JUMPDEST PUSH1 0x40 MLOAD DUP1 SWAP2 SUB SWAP1 REVERT JUMPDEST PUSH1 0x3 SLOAD TIMESTAMP LT PUSH2 0x1304 JUMPI PUSH1 0x40 MLOAD PUSH32 0x8C379A000000000000000000000000000000000000000000000000000000000 DUP2 MSTORE PUSH1 0x4 ADD PUSH2 0x12FB SWAP1 PUSH2 0x2ABC JUMP JUMPDEST PUSH1 0x40 MLOAD DUP1 SWAP2 SUB SWAP1 REVERT JUMPDEST PUSH1 0x8 CALLER SWAP1 DUP1 PUSH1 0x1 DUP2 SLOAD ADD DUP1 DUP3 SSTORE DUP1 SWAP2 POP POP PUSH1 0x1 SWAP1 SUB SWAP1 PUSH1 0x0 MSTORE PUSH1 0x20 PUSH1 0x0 KECCAK256 ADD PUSH1 0x0 SWAP1 SWAP2 SWAP1 SWAP2 SWAP1 SWAP2 PUSH2 0x100 EXP DUP2 SLOAD DUP2 PUSH20 0xFFFFFFFFFFFFFFFFFFFFFFFFFFFFFFFFFFFFFFFF MUL NOT AND SWAP1 DUP4 PUSH20 0xFFFFFFFFFFFFFFFFFFFFFFFFFFFFFFFFFFFFFFFF AND MUL OR SWAP1 SSTORE POP JUMP JUMPDEST PUSH1 0x0 DUP1 PUSH2 0x1375 DUP5 PUSH2 0x15D9 JUMP JUMPDEST SWAP1 POP PUSH1 0x0 DUP2 DUP5 PUSH1 0x40 MLOAD PUSH1 0x20 ADD PUSH2 0x138C SWAP3 SWAP2 SWAP1 PUSH2 0x2B18 JUMP JUMPDEST PUSH1 0x40 MLOAD PUSH1 0x20 DUP2 DUP4 SUB SUB DUP2 MSTORE SWAP1 PUSH1 0x40 MSTORE SWAP1 POP PUSH1 0x2 DUP2 PUSH1 0x40 MLOAD PUSH1 0x20 ADD PUSH2 0x13B0 SWAP2 SWAP1 PUSH2 0x2B3C JUMP JUMPDEST PUSH1 0x40 MLOAD PUSH1 0x20 DUP2 DUP4 SUB SUB DUP2 MSTORE SWAP1 PUSH1 0x40 MSTORE PUSH1 0x40 MLOAD PUSH2 0x13CC SWAP2 SWAP1 PUSH2 0x2B9A JUMP JUMPDEST PUSH1 0x20 PUSH1 0x40 MLOAD DUP1 DUP4 SUB DUP2 DUP6 GAS STATICCALL ISZERO DUP1 ISZERO PUSH2 0x13E9 JUMPI RETURNDATASIZE PUSH1 0x0 DUP1 RETURNDATACOPY RETURNDATASIZE PUSH1 0x0 REVERT JUMPDEST POP POP POP PUSH1 0x40 MLOAD RETURNDATASIZE PUSH1 0x1F NOT PUSH1 0x1F DUP3 ADD AND DUP3 ADD DUP1 PUSH1 0x40 MSTORE POP DUP2 ADD SWAP1 PUSH2 0x140C SWAP2 SWAP1 PUSH2 0x2BC6 JUMP JUMPDEST SWAP3 POP POP POP SWAP3 SWAP2 POP POP JUMP JUMPDEST PUSH1 0x0 DUP1 PUSH1 0x0 SWAP1 POP JUMPDEST PUSH1 0xA DUP1 SLOAD SWAP1 POP DUP2 LT ISZERO PUSH2 0x1475 JUMPI PUSH1 0xA DUP2 DUP2 SLOAD DUP2 LT PUSH2 0x143F JUMPI PUSH2 0x143E PUSH2 0x264C JUMP JUMPDEST JUMPDEST SWAP1 PUSH1 0x0 MSTORE PUSH1 0x20 PUSH1 0x0 KECCAK256 SWAP1 PUSH1 0x3 MUL ADD PUSH1 0x1 ADD SLOAD DUP4 GT ISZERO PUSH2 0x1462 JUMPI PUSH1 0x1 SWAP2 POP POP PUSH2 0x147B JUMP JUMPDEST DUP1 DUP1 PUSH2 0x146D SWAP1 PUSH2 0x2BF3 JUMP JUMPDEST SWAP2 POP POP PUSH2 0x141E JUMP JUMPDEST POP PUSH1 0x0 SWAP1 POP JUMPDEST SWAP2 SWAP1 POP JUMP JUMPDEST PUSH1 0xA PUSH1 0x0 PUSH2 0x148E SWAP2 SWAP1 PUSH2 0x17FA JUMP JUMPDEST JUMP JUMPDEST PUSH1 0x0 PUSH1 0x40 MLOAD DUP1 PUSH1 0x60 ADD PUSH1 0x40 MSTORE DUP1 CALLER PUSH20 0xFFFFFFFFFFFFFFFFFFFFFFFFFFFFFFFFFFFFFFFF AND DUP2 MSTORE PUSH1 0x20 ADD DUP5 DUP2 MSTORE PUSH1 0x20 ADD DUP4 DUP2 MSTORE POP SWAP1 POP PUSH1 0xA DUP2 SWAP1 DUP1 PUSH1 0x1 DUP2 SLOAD ADD DUP1 DUP3 SSTORE DUP1 SWAP2 POP POP PUSH1 0x1 SWAP1 SUB SWAP1 PUSH1 0x0 MSTORE PUSH1 0x20 PUSH1 0x0 KECCAK256 SWAP1 PUSH1 0x3 MUL ADD PUSH1 0x0 SWAP1 SWAP2 SWAP1 SWAP2 SWAP1 SWAP2 POP PUSH1 0x0 DUP3 ADD MLOAD DUP2 PUSH1 0x0 ADD PUSH1 0x0 PUSH2 0x100 EXP DUP2 SLOAD DUP2 PUSH20 0xFFFFFFFFFFFFFFFFFFFFFFFFFFFFFFFFFFFFFFFF MUL NOT AND SWAP1 DUP4 PUSH20 0xFFFFFFFFFFFFFFFFFFFFFFFFFFFFFFFFFFFFFFFF AND MUL OR SWAP1 SSTORE POP PUSH1 0x20 DUP3 ADD MLOAD DUP2 PUSH1 0x1 ADD SSTORE PUSH1 0x40 DUP3 ADD MLOAD DUP2 PUSH1 0x2 ADD SWAP1 DUP2 PUSH2 0x1557 SWAP2 SWAP1 PUSH2 0x250E JUMP JUMPDEST POP POP POP POP POP POP JUMP JUMPDEST PUSH1 0x3C PUSH1 0x6 SLOAD PUSH2 0x156E SWAP2 SWAP1 PUSH2 0x2C3B JUMP JUMPDEST TIMESTAMP PUSH2 0x1579 SWAP2 SWAP1 PUSH2 0x26AA JUMP JUMPDEST PUSH1 0x3 DUP2 SWAP1 SSTORE POP PUSH1 0x3C PUSH1 0x6 SLOAD PUSH1 0x2 PUSH2 0x1590 SWAP2 SWAP1 PUSH2 0x2C3B JUMP JUMPDEST PUSH2 0x159A SWAP2 SWAP1 PUSH2 0x2C3B JUMP JUMPDEST TIMESTAMP PUSH2 0x15A5 SWAP2 SWAP1 PUSH2 0x26AA JUMP JUMPDEST PUSH1 0x4 DUP2 SWAP1 SSTORE POP PUSH1 0x3C PUSH1 0x6 SLOAD PUSH1 0x3 PUSH2 0x15BC SWAP2 SWAP1 PUSH2 0x2C3B JUMP JUMPDEST PUSH2 0x15C6 SWAP2 SWAP1 PUSH2 0x2C3B JUMP JUMPDEST TIMESTAMP PUSH2 0x15D1 SWAP2 SWAP1 PUSH2 0x26AA JUMP JUMPDEST PUSH1 0x5 DUP2 SWAP1 SSTORE POP JUMP JUMPDEST PUSH1 0x60 PUSH1 0x0 PUSH1 0x1 PUSH2 0x15E8 DUP5 PUSH2 0x16A7 JUMP JUMPDEST ADD SWAP1 POP PUSH1 0x0 DUP2 PUSH8 0xFFFFFFFFFFFFFFFF DUP2 GT ISZERO PUSH2 0x1607 JUMPI PUSH2 0x1606 PUSH2 0x19D1 JUMP JUMPDEST JUMPDEST PUSH1 0x40 MLOAD SWAP1 DUP1 DUP3 MSTORE DUP1 PUSH1 0x1F ADD PUSH1 0x1F NOT AND PUSH1 0x20 ADD DUP3 ADD PUSH1 0x40 MSTORE DUP1 ISZERO PUSH2 0x1639 JUMPI DUP2 PUSH1 0x20 ADD PUSH1 0x1 DUP3 MUL DUP1 CALLDATASIZE DUP4 CALLDATACOPY DUP1 DUP3 ADD SWAP2 POP POP SWAP1 POP JUMPDEST POP SWAP1 POP PUSH1 0x0 DUP3 PUSH1 0x20 ADD DUP3 ADD SWAP1 POP JUMPDEST PUSH1 0x1 ISZERO PUSH2 0x169C JUMPI DUP1 DUP1 PUSH1 0x1 SWAP1 SUB SWAP2 POP POP PUSH32 0x3031323334353637383961626364656600000000000000000000000000000000 PUSH1 0xA DUP7 MOD BYTE DUP2 MSTORE8 PUSH1 0xA DUP6 DUP2 PUSH2 0x1690 JUMPI PUSH2 0x168F PUSH2 0x2C7D JUMP JUMPDEST JUMPDEST DIV SWAP5 POP PUSH1 0x0 DUP6 SUB PUSH2 0x1647 JUMPI JUMPDEST DUP2 SWAP4 POP POP POP POP SWAP2 SWAP1 POP JUMP JUMPDEST PUSH1 0x0 DUP1 PUSH1 0x0 SWAP1 POP PUSH27 0x184F03E93FF9F4DAA797ED6E38ED64BF6A1F010000000000000000 DUP4 LT PUSH2 0x1705 JUMPI PUSH27 0x184F03E93FF9F4DAA797ED6E38ED64BF6A1F010000000000000000 DUP4 DUP2 PUSH2 0x16FB JUMPI PUSH2 0x16FA PUSH2 0x2C7D JUMP JUMPDEST JUMPDEST DIV SWAP3 POP PUSH1 0x40 DUP2 ADD SWAP1 POP JUMPDEST PUSH14 0x4EE2D6D415B85ACEF8100000000 DUP4 LT PUSH2 0x1742 JUMPI PUSH14 0x4EE2D6D415B85ACEF8100000000 DUP4 DUP2 PUSH2 0x1738 JUMPI PUSH2 0x1737 PUSH2 0x2C7D JUMP JUMPDEST JUMPDEST DIV SWAP3 POP PUSH1 0x20 DUP2 ADD SWAP1 POP JUMPDEST PUSH7 0x2386F26FC10000 DUP4 LT PUSH2 0x1771 JUMPI PUSH7 0x2386F26FC10000 DUP4 DUP2 PUSH2 0x1767 JUMPI PUSH2 0x1766 PUSH2 0x2C7D JUMP JUMPDEST JUMPDEST DIV SWAP3 POP PUSH1 0x10 DUP2 ADD SWAP1 POP JUMPDEST PUSH4 0x5F5E100 DUP4 LT PUSH2 0x179A JUMPI PUSH4 0x5F5E100 DUP4 DUP2 PUSH2 0x1790 JUMPI PUSH2 0x178F PUSH2 0x2C7D JUMP JUMPDEST JUMPDEST DIV SWAP3 POP PUSH1 0x8 DUP2 ADD SWAP1 POP JUMPDEST PUSH2 0x2710 DUP4 LT PUSH2 0x17BF JUMPI PUSH2 0x2710 DUP4 DUP2 PUSH2 0x17B5 JUMPI PUSH2 0x17B4 PUSH2 0x2C7D JUMP JUMPDEST JUMPDEST DIV SWAP3 POP PUSH1 0x4 DUP2 ADD SWAP1 POP JUMPDEST PUSH1 0x64 DUP4 LT PUSH2 0x17E2 JUMPI PUSH1 0x64 DUP4 DUP2 PUSH2 0x17D8 JUMPI PUSH2 0x17D7 PUSH2 0x2C7D JUMP JUMPDEST JUMPDEST DIV SWAP3 POP PUSH1 0x2 DUP2 ADD SWAP1 POP JUMPDEST PUSH1 0xA DUP4 LT PUSH2 0x17F1 JUMPI PUSH1 0x1 DUP2 ADD SWAP1 POP JUMPDEST DUP1 SWAP2 POP POP SWAP2 SWAP1 POP JUMP JUMPDEST POP DUP1 SLOAD PUSH1 0x0 DUP3 SSTORE PUSH1 0x3 MUL SWAP1 PUSH1 0x0 MSTORE PUSH1 0x20 PUSH1 0x0 KECCAK256 SWAP1 DUP2 ADD SWAP1 PUSH2 0x181B SWAP2 SWAP1 PUSH2 0x1863 JUMP JUMPDEST POP JUMP JUMPDEST POP DUP1 SLOAD PUSH1 0x0 DUP3 SSTORE SWAP1 PUSH1 0x0 MSTORE PUSH1 0x20 PUSH1 0x0 KECCAK256 SWAP1 DUP2 ADD SWAP1 PUSH2 0x183C SWAP2 SWAP1 PUSH2 0x18B9 JUMP JUMPDEST POP JUMP JUMPDEST POP DUP1 SLOAD PUSH1 0x0 DUP3 SSTORE PUSH1 0x3 MUL SWAP1 PUSH1 0x0 MSTORE PUSH1 0x20 PUSH1 0x0 KECCAK256 SWAP1 DUP2 ADD SWAP1 PUSH2 0x1860 SWAP2 SWAP1 PUSH2 0x18D6 JUMP JUMPDEST POP JUMP JUMPDEST JUMPDEST DUP1 DUP3 GT ISZERO PUSH2 0x18B5 JUMPI PUSH1 0x0 DUP1 DUP3 ADD PUSH1 0x0 PUSH2 0x100 EXP DUP2 SLOAD SWAP1 PUSH20 0xFFFFFFFFFFFFFFFFFFFFFFFFFFFFFFFFFFFFFFFF MUL NOT AND SWAP1 SSTORE PUSH1 0x1 DUP3 ADD PUSH1 0x0 SWAP1 SSTORE PUSH1 0x2 DUP3 ADD PUSH1 0x0 PUSH2 0x18AC SWAP2 SWAP1 PUSH2 0x192C JUMP JUMPDEST POP PUSH1 0x3 ADD PUSH2 0x1864 JUMP JUMPDEST POP SWAP1 JUMP JUMPDEST JUMPDEST DUP1 DUP3 GT ISZERO PUSH2 0x18D2 JUMPI PUSH1 0x0 DUP2 PUSH1 0x0 SWAP1 SSTORE POP PUSH1 0x1 ADD PUSH2 0x18BA JUMP JUMPDEST POP SWAP1 JUMP JUMPDEST JUMPDEST DUP1 DUP3 GT ISZERO PUSH2 0x1928 JUMPI PUSH1 0x0 DUP1 DUP3 ADD PUSH1 0x0 SWAP1 SSTORE PUSH1 0x1 DUP3 ADD PUSH1 0x0 PUSH2 0x100 EXP DUP2 SLOAD SWAP1 PUSH20 0xFFFFFFFFFFFFFFFFFFFFFFFFFFFFFFFFFFFFFFFF MUL NOT AND SWAP1 SSTORE PUSH1 0x2 DUP3 ADD PUSH1 0x0 PUSH2 0x191F SWAP2 SWAP1 PUSH2 0x192C JUMP JUMPDEST POP PUSH1 0x3 ADD PUSH2 0x18D7 JUMP JUMPDEST POP SWAP1 JUMP JUMPDEST POP DUP1 SLOAD PUSH2 0x1938 SWAP1 PUSH2 0x2331 JUMP JUMPDEST PUSH1 0x0 DUP3 SSTORE DUP1 PUSH1 0x1F LT PUSH2 0x194A JUMPI POP PUSH2 0x1969 JUMP JUMPDEST PUSH1 0x1F ADD PUSH1 0x20 SWAP1 DIV SWAP1 PUSH1 0x0 MSTORE PUSH1 0x20 PUSH1 0x0 KECCAK256 SWAP1 DUP2 ADD SWAP1 PUSH2 0x1968 SWAP2 SWAP1 PUSH2 0x18B9 JUMP JUMPDEST JUMPDEST POP JUMP JUMPDEST PUSH1 0x0 PUSH1 0x40 MLOAD SWAP1 POP SWAP1 JUMP JUMPDEST PUSH1 0x0 DUP1 REVERT JUMPDEST PUSH1 0x0 DUP1 REVERT JUMPDEST PUSH1 0x0 DUP2 SWAP1 POP SWAP2 SWAP1 POP JUMP JUMPDEST PUSH2 0x1993 DUP2 PUSH2 0x1980 JUMP JUMPDEST DUP2 EQ PUSH2 0x199E JUMPI PUSH1 0x0 DUP1 REVERT JUMPDEST POP JUMP JUMPDEST PUSH1 0x0 DUP2 CALLDATALOAD SWAP1 POP PUSH2 0x19B0 DUP2 PUSH2 0x198A JUMP JUMPDEST SWAP3 SWAP2 POP POP JUMP JUMPDEST PUSH1 0x0 DUP1 REVERT JUMPDEST PUSH1 0x0 DUP1 REVERT JUMPDEST PUSH1 0x0 PUSH1 0x1F NOT PUSH1 0x1F DUP4 ADD AND SWAP1 POP SWAP2 SWAP1 POP JUMP JUMPDEST PUSH32 0x4E487B7100000000000000000000000000000000000000000000000000000000 PUSH1 0x0 MSTORE PUSH1 0x41 PUSH1 0x4 MSTORE PUSH1 0x24 PUSH1 0x0 REVERT JUMPDEST PUSH2 0x1A09 DUP3 PUSH2 0x19C0 JUMP JUMPDEST DUP2 ADD DUP2 DUP2 LT PUSH8 0xFFFFFFFFFFFFFFFF DUP3 GT OR ISZERO PUSH2 0x1A28 JUMPI PUSH2 0x1A27 PUSH2 0x19D1 JUMP JUMPDEST JUMPDEST DUP1 PUSH1 0x40 MSTORE POP POP POP JUMP JUMPDEST PUSH1 0x0 PUSH2 0x1A3B PUSH2 0x196C JUMP JUMPDEST SWAP1 POP PUSH2 0x1A47 DUP3 DUP3 PUSH2 0x1A00 JUMP JUMPDEST SWAP2 SWAP1 POP JUMP JUMPDEST PUSH1 0x0 PUSH8 0xFFFFFFFFFFFFFFFF DUP3 GT ISZERO PUSH2 0x1A67 JUMPI PUSH2 0x1A66 PUSH2 0x19D1 JUMP JUMPDEST JUMPDEST PUSH2 0x1A70 DUP3 PUSH2 0x19C0 JUMP JUMPDEST SWAP1 POP PUSH1 0x20 DUP2 ADD SWAP1 POP SWAP2 SWAP1 POP JUMP JUMPDEST DUP3 DUP2 DUP4 CALLDATACOPY PUSH1 0x0 DUP4 DUP4 ADD MSTORE POP POP POP JUMP JUMPDEST PUSH1 0x0 PUSH2 0x1A9F PUSH2 0x1A9A DUP5 PUSH2 0x1A4C JUMP JUMPDEST PUSH2 0x1A31 JUMP JUMPDEST SWAP1 POP DUP3 DUP2 MSTORE PUSH1 0x20 DUP2 ADD DUP5 DUP5 DUP5 ADD GT ISZERO PUSH2 0x1ABB JUMPI PUSH2 0x1ABA PUSH2 0x19BB JUMP JUMPDEST JUMPDEST PUSH2 0x1AC6 DUP5 DUP3 DUP6 PUSH2 0x1A7D JUMP JUMPDEST POP SWAP4 SWAP3 POP POP POP JUMP JUMPDEST PUSH1 0x0 DUP3 PUSH1 0x1F DUP4 ADD SLT PUSH2 0x1AE3 JUMPI PUSH2 0x1AE2 PUSH2 0x19B6 JUMP JUMPDEST JUMPDEST DUP2 CALLDATALOAD PUSH2 0x1AF3 DUP5 DUP3 PUSH1 0x20 DUP7 ADD PUSH2 0x1A8C JUMP JUMPDEST SWAP2 POP POP SWAP3 SWAP2 POP POP JUMP JUMPDEST PUSH1 0x0 DUP1 PUSH1 0x40 DUP4 DUP6 SUB SLT ISZERO PUSH2 0x1B13 JUMPI PUSH2 0x1B12 PUSH2 0x1976 JUMP JUMPDEST JUMPDEST PUSH1 0x0 PUSH2 0x1B21 DUP6 DUP3 DUP7 ADD PUSH2 0x19A1 JUMP JUMPDEST SWAP3 POP POP PUSH1 0x20 DUP4 ADD CALLDATALOAD PUSH8 0xFFFFFFFFFFFFFFFF DUP2 GT ISZERO PUSH2 0x1B42 JUMPI PUSH2 0x1B41 PUSH2 0x197B JUMP JUMPDEST JUMPDEST PUSH2 0x1B4E DUP6 DUP3 DUP7 ADD PUSH2 0x1ACE JUMP JUMPDEST SWAP2 POP POP SWAP3 POP SWAP3 SWAP1 POP JUMP JUMPDEST PUSH1 0x0 DUP2 MLOAD SWAP1 POP SWAP2 SWAP1 POP JUMP JUMPDEST PUSH1 0x0 DUP3 DUP3 MSTORE PUSH1 0x20 DUP3 ADD SWAP1 POP SWAP3 SWAP2 POP POP JUMP JUMPDEST PUSH1 0x0 DUP2 SWAP1 POP PUSH1 0x20 DUP3 ADD SWAP1 POP SWAP2 SWAP1 POP JUMP JUMPDEST PUSH2 0x1B8D DUP2 PUSH2 0x1980 JUMP JUMPDEST DUP3 MSTORE POP POP JUMP JUMPDEST PUSH1 0x0 PUSH20 0xFFFFFFFFFFFFFFFFFFFFFFFFFFFFFFFFFFFFFFFF DUP3 AND SWAP1 POP SWAP2 SWAP1 POP JUMP JUMPDEST PUSH1 0x0 PUSH2 0x1BBE DUP3 PUSH2 0x1B93 JUMP JUMPDEST SWAP1 POP SWAP2 SWAP1 POP JUMP JUMPDEST PUSH2 0x1BCE DUP2 PUSH2 0x1BB3 JUMP JUMPDEST DUP3 MSTORE POP POP JUMP JUMPDEST PUSH1 0x0 DUP2 MLOAD SWAP1 POP SWAP2 SWAP1 POP JUMP JUMPDEST PUSH1 0x0 DUP3 DUP3 MSTORE PUSH1 0x20 DUP3 ADD SWAP1 POP SWAP3 SWAP2 POP POP JUMP JUMPDEST PUSH1 0x0 JUMPDEST DUP4 DUP2 LT ISZERO PUSH2 0x1C0E JUMPI DUP1 DUP3 ADD MLOAD DUP2 DUP5 ADD MSTORE PUSH1 0x20 DUP2 ADD SWAP1 POP PUSH2 0x1BF3 JUMP JUMPDEST PUSH1 0x0 DUP5 DUP5 ADD MSTORE POP POP POP POP JUMP JUMPDEST PUSH1 0x0 PUSH2 0x1C25 DUP3 PUSH2 0x1BD4 JUMP JUMPDEST PUSH2 0x1C2F DUP2 DUP6 PUSH2 0x1BDF JUMP JUMPDEST SWAP4 POP PUSH2 0x1C3F DUP2 DUP6 PUSH1 0x20 DUP7 ADD PUSH2 0x1BF0 JUMP JUMPDEST PUSH2 0x1C48 DUP2 PUSH2 0x19C0 JUMP JUMPDEST DUP5 ADD SWAP2 POP POP SWAP3 SWAP2 POP POP JUMP JUMPDEST PUSH1 0x0 PUSH1 0x60 DUP4 ADD PUSH1 0x0 DUP4 ADD MLOAD PUSH2 0x1C6B PUSH1 0x0 DUP7 ADD DUP3 PUSH2 0x1B84 JUMP JUMPDEST POP PUSH1 0x20 DUP4 ADD MLOAD PUSH2 0x1C7E PUSH1 0x20 DUP7 ADD DUP3 PUSH2 0x1BC5 JUMP JUMPDEST POP PUSH1 0x40 DUP4 ADD MLOAD DUP5 DUP3 SUB PUSH1 0x40 DUP7 ADD MSTORE PUSH2 0x1C96 DUP3 DUP3 PUSH2 0x1C1A JUMP JUMPDEST SWAP2 POP POP DUP1 SWAP2 POP POP SWAP3 SWAP2 POP POP JUMP JUMPDEST PUSH1 0x0 PUSH2 0x1CAF DUP4 DUP4 PUSH2 0x1C53 JUMP JUMPDEST SWAP1 POP SWAP3 SWAP2 POP POP JUMP JUMPDEST PUSH1 0x0 PUSH1 0x20 DUP3 ADD SWAP1 POP SWAP2 SWAP1 POP JUMP JUMPDEST PUSH1 0x0 PUSH2 0x1CCF DUP3 PUSH2 0x1B58 JUMP JUMPDEST PUSH2 0x1CD9 DUP2 DUP6 PUSH2 0x1B63 JUMP JUMPDEST SWAP4 POP DUP4 PUSH1 0x20 DUP3 MUL DUP6 ADD PUSH2 0x1CEB DUP6 PUSH2 0x1B74 JUMP JUMPDEST DUP1 PUSH1 0x0 JUMPDEST DUP6 DUP2 LT ISZERO PUSH2 0x1D27 JUMPI DUP5 DUP5 SUB DUP10 MSTORE DUP2 MLOAD PUSH2 0x1D08 DUP6 DUP3 PUSH2 0x1CA3 JUMP JUMPDEST SWAP5 POP PUSH2 0x1D13 DUP4 PUSH2 0x1CB7 JUMP JUMPDEST SWAP3 POP PUSH1 0x20 DUP11 ADD SWAP10 POP POP PUSH1 0x1 DUP2 ADD SWAP1 POP PUSH2 0x1CEF JUMP JUMPDEST POP DUP3 SWAP8 POP DUP8 SWAP6 POP POP POP POP POP POP SWAP3 SWAP2 POP POP JUMP JUMPDEST PUSH1 0x0 PUSH1 0x20 DUP3 ADD SWAP1 POP DUP2 DUP2 SUB PUSH1 0x0 DUP4 ADD MSTORE PUSH2 0x1D53 DUP2 DUP5 PUSH2 0x1CC4 JUMP JUMPDEST SWAP1 POP SWAP3 SWAP2 POP POP JUMP JUMPDEST PUSH2 0x1D64 DUP2 PUSH2 0x1BB3 JUMP JUMPDEST DUP2 EQ PUSH2 0x1D6F JUMPI PUSH1 0x0 DUP1 REVERT JUMPDEST POP JUMP JUMPDEST PUSH1 0x0 DUP2 CALLDATALOAD SWAP1 POP PUSH2 0x1D81 DUP2 PUSH2 0x1D5B JUMP JUMPDEST SWAP3 SWAP2 POP POP JUMP JUMPDEST PUSH1 0x0 PUSH1 0x20 DUP3 DUP5 SUB SLT ISZERO PUSH2 0x1D9D JUMPI PUSH2 0x1D9C PUSH2 0x1976 JUMP JUMPDEST JUMPDEST PUSH1 0x0 PUSH2 0x1DAB DUP5 DUP3 DUP6 ADD PUSH2 0x1D72 JUMP JUMPDEST SWAP2 POP POP SWAP3 SWAP2 POP POP JUMP JUMPDEST PUSH1 0x0 DUP2 SWAP1 POP SWAP2 SWAP1 POP JUMP JUMPDEST PUSH2 0x1DC7 DUP2 PUSH2 0x1DB4 JUMP JUMPDEST DUP3 MSTORE POP POP JUMP JUMPDEST PUSH1 0x0 PUSH1 0x20 DUP3 ADD SWAP1 POP PUSH2 0x1DE2 PUSH1 0x0 DUP4 ADD DUP5 PUSH2 0x1DBE JUMP JUMPDEST SWAP3 SWAP2 POP POP JUMP JUMPDEST PUSH1 0x0 PUSH1 0x20 DUP3 DUP5 SUB SLT ISZERO PUSH2 0x1DFE JUMPI PUSH2 0x1DFD PUSH2 0x1976 JUMP JUMPDEST JUMPDEST PUSH1 0x0 PUSH2 0x1E0C DUP5 DUP3 DUP6 ADD PUSH2 0x19A1 JUMP JUMPDEST SWAP2 POP POP SWAP3 SWAP2 POP POP JUMP JUMPDEST PUSH2 0x1E1E DUP2 PUSH2 0x1980 JUMP JUMPDEST DUP3 MSTORE POP POP JUMP JUMPDEST PUSH2 0x1E2D DUP2 PUSH2 0x1BB3 JUMP JUMPDEST DUP3 MSTORE POP POP JUMP JUMPDEST PUSH1 0x0 DUP3 DUP3 MSTORE PUSH1 0x20 DUP3 ADD SWAP1 POP SWAP3 SWAP2 POP POP JUMP JUMPDEST PUSH1 0x0 PUSH2 0x1E4F DUP3 PUSH2 0x1BD4 JUMP JUMPDEST PUSH2 0x1E59 DUP2 DUP6 PUSH2 0x1E33 JUMP JUMPDEST SWAP4 POP PUSH2 0x1E69 DUP2 DUP6 PUSH1 0x20 DUP7 ADD PUSH2 0x1BF0 JUMP JUMPDEST PUSH2 0x1E72 DUP2 PUSH2 0x19C0 JUMP JUMPDEST DUP5 ADD SWAP2 POP POP SWAP3 SWAP2 POP POP JUMP JUMPDEST PUSH1 0x0 PUSH1 0x60 DUP3 ADD SWAP1 POP PUSH2 0x1E92 PUSH1 0x0 DUP4 ADD DUP7 PUSH2 0x1E15 JUMP JUMPDEST PUSH2 0x1E9F PUSH1 0x20 DUP4 ADD DUP6 PUSH2 0x1E24 JUMP JUMPDEST DUP2 DUP2 SUB PUSH1 0x40 DUP4 ADD MSTORE PUSH2 0x1EB1 DUP2 DUP5 PUSH2 0x1E44 JUMP JUMPDEST SWAP1 POP SWAP5 SWAP4 POP POP POP POP JUMP JUMPDEST PUSH1 0x0 PUSH1 0x20 DUP3 ADD SWAP1 POP DUP2 DUP2 SUB PUSH1 0x0 DUP4 ADD MSTORE PUSH2 0x1ED5 DUP2 DUP5 PUSH2 0x1E44 JUMP JUMPDEST SWAP1 POP SWAP3 SWAP2 POP POP JUMP JUMPDEST PUSH1 0x0 DUP1 PUSH1 0x40 DUP4 DUP6 SUB SLT ISZERO PUSH2 0x1EF4 JUMPI PUSH2 0x1EF3 PUSH2 0x1976 JUMP JUMPDEST JUMPDEST PUSH1 0x0 DUP4 ADD CALLDATALOAD PUSH8 0xFFFFFFFFFFFFFFFF DUP2 GT ISZERO PUSH2 0x1F12 JUMPI PUSH2 0x1F11 PUSH2 0x197B JUMP JUMPDEST JUMPDEST PUSH2 0x1F1E DUP6 DUP3 DUP7 ADD PUSH2 0x1ACE JUMP JUMPDEST SWAP3 POP POP PUSH1 0x20 DUP4 ADD CALLDATALOAD PUSH8 0xFFFFFFFFFFFFFFFF DUP2 GT ISZERO PUSH2 0x1F3F JUMPI PUSH2 0x1F3E PUSH2 0x197B JUMP JUMPDEST JUMPDEST PUSH2 0x1F4B DUP6 DUP3 DUP7 ADD PUSH2 0x1ACE JUMP JUMPDEST SWAP2 POP POP SWAP3 POP SWAP3 SWAP1 POP JUMP JUMPDEST PUSH1 0x0 PUSH1 0x60 DUP3 ADD SWAP1 POP PUSH2 0x1F6A PUSH1 0x0 DUP4 ADD DUP7 PUSH2 0x1E24 JUMP JUMPDEST PUSH2 0x1F77 PUSH1 0x20 DUP4 ADD DUP6 PUSH2 0x1E15 JUMP JUMPDEST DUP2 DUP2 SUB PUSH1 0x40 DUP4 ADD MSTORE PUSH2 0x1F89 DUP2 DUP5 PUSH2 0x1E44 JUMP JUMPDEST SWAP1 POP SWAP5 SWAP4 POP POP POP POP JUMP JUMPDEST PUSH1 0x0 PUSH1 0x20 DUP3 ADD SWAP1 POP PUSH2 0x1FA8 PUSH1 0x0 DUP4 ADD DUP5 PUSH2 0x1E24 JUMP JUMPDEST SWAP3 SWAP2 POP POP JUMP JUMPDEST PUSH1 0x0 PUSH1 0x40 DUP3 ADD SWAP1 POP DUP2 DUP2 SUB PUSH1 0x0 DUP4 ADD MSTORE PUSH2 0x1FC8 DUP2 DUP6 PUSH2 0x1E44 JUMP JUMPDEST SWAP1 POP DUP2 DUP2 SUB PUSH1 0x20 DUP4 ADD MSTORE PUSH2 0x1FDC DUP2 DUP5 PUSH2 0x1E44 JUMP JUMPDEST SWAP1 POP SWAP4 SWAP3 POP POP POP JUMP JUMPDEST PUSH1 0x0 DUP2 MLOAD SWAP1 POP SWAP2 SWAP1 POP JUMP JUMPDEST PUSH1 0x0 DUP3 DUP3 MSTORE PUSH1 0x20 DUP3 ADD SWAP1 POP SWAP3 SWAP2 POP POP JUMP JUMPDEST PUSH1 0x0 DUP2 SWAP1 POP PUSH1 0x20 DUP3 ADD SWAP1 POP SWAP2 SWAP1 POP JUMP JUMPDEST PUSH1 0x0 PUSH1 0x60 DUP4 ADD PUSH1 0x0 DUP4 ADD MLOAD PUSH2 0x2029 PUSH1 0x0 DUP7 ADD DUP3 PUSH2 0x1BC5 JUMP JUMPDEST POP PUSH1 0x20 DUP4 ADD MLOAD PUSH2 0x203C PUSH1 0x20 DUP7 ADD DUP3 PUSH2 0x1B84 JUMP JUMPDEST POP PUSH1 0x40 DUP4 ADD MLOAD DUP5 DUP3 SUB PUSH1 0x40 DUP7 ADD MSTORE PUSH2 0x2054 DUP3 DUP3 PUSH2 0x1C1A JUMP JUMPDEST SWAP2 POP POP DUP1 SWAP2 POP POP SWAP3 SWAP2 POP POP JUMP JUMPDEST PUSH1 0x0 PUSH2 0x206D DUP4 DUP4 PUSH2 0x2011 JUMP JUMPDEST SWAP1 POP SWAP3 SWAP2 POP POP JUMP JUMPDEST PUSH1 0x0 PUSH1 0x20 DUP3 ADD SWAP1 POP SWAP2 SWAP1 POP JUMP JUMPDEST PUSH1 0x0 PUSH2 0x208D DUP3 PUSH2 0x1FE5 JUMP JUMPDEST PUSH2 0x2097 DUP2 DUP6 PUSH2 0x1FF0 JUMP JUMPDEST SWAP4 POP DUP4 PUSH1 0x20 DUP3 MUL DUP6 ADD PUSH2 0x20A9 DUP6 PUSH2 0x2001 JUMP JUMPDEST DUP1 PUSH1 0x0 JUMPDEST DUP6 DUP2 LT ISZERO PUSH2 0x20E5 JUMPI DUP5 DUP5 SUB DUP10 MSTORE DUP2 MLOAD PUSH2 0x20C6 DUP6 DUP3 PUSH2 0x2061 JUMP JUMPDEST SWAP5 POP PUSH2 0x20D1 DUP4 PUSH2 0x2075 JUMP JUMPDEST SWAP3 POP PUSH1 0x20 DUP11 ADD SWAP10 POP POP PUSH1 0x1 DUP2 ADD SWAP1 POP PUSH2 0x20AD JUMP JUMPDEST POP DUP3 SWAP8 POP DUP8 SWAP6 POP POP POP POP POP POP SWAP3 SWAP2 POP POP JUMP JUMPDEST PUSH1 0x0 PUSH1 0x20 DUP3 ADD SWAP1 POP DUP2 DUP2 SUB PUSH1 0x0 DUP4 ADD MSTORE PUSH2 0x2111 DUP2 DUP5 PUSH2 0x2082 JUMP JUMPDEST SWAP1 POP SWAP3 SWAP2 POP POP JUMP JUMPDEST PUSH2 0x2122 DUP2 PUSH2 0x1DB4 JUMP JUMPDEST DUP2 EQ PUSH2 0x212D JUMPI PUSH1 0x0 DUP1 REVERT JUMPDEST POP JUMP JUMPDEST PUSH1 0x0 DUP2 CALLDATALOAD SWAP1 POP PUSH2 0x213F DUP2 PUSH2 0x2119 JUMP JUMPDEST SWAP3 SWAP2 POP POP JUMP JUMPDEST PUSH1 0x0 PUSH1 0x20 DUP3 DUP5 SUB SLT ISZERO PUSH2 0x215B JUMPI PUSH2 0x215A PUSH2 0x1976 JUMP JUMPDEST JUMPDEST PUSH1 0x0 PUSH2 0x2169 DUP5 DUP3 DUP6 ADD PUSH2 0x2130 JUMP JUMPDEST SWAP2 POP POP SWAP3 SWAP2 POP POP JUMP JUMPDEST PUSH32 0x5468657265206973206E6F20737461727465642061756374696F6E206E6F7700 PUSH1 0x0 DUP3 ADD MSTORE POP JUMP JUMPDEST PUSH1 0x0 PUSH2 0x21A8 PUSH1 0x1F DUP4 PUSH2 0x1E33 JUMP JUMPDEST SWAP2 POP PUSH2 0x21B3 DUP3 PUSH2 0x2172 JUMP JUMPDEST PUSH1 0x20 DUP3 ADD SWAP1 POP SWAP2 SWAP1 POP JUMP JUMPDEST PUSH1 0x0 PUSH1 0x20 DUP3 ADD SWAP1 POP DUP2 DUP2 SUB PUSH1 0x0 DUP4 ADD MSTORE PUSH2 0x21D7 DUP2 PUSH2 0x219B JUMP JUMPDEST SWAP1 POP SWAP2 SWAP1 POP JUMP JUMPDEST PUSH32 0x57696E6E6572207375626D697373696F6E20706861736520686173206E6F7420 PUSH1 0x0 DUP3 ADD MSTORE PUSH32 0x73746172746564207965742E0000000000000000000000000000000000000000 PUSH1 0x20 DUP3 ADD MSTORE POP JUMP JUMPDEST PUSH1 0x0 PUSH2 0x223A PUSH1 0x2C DUP4 PUSH2 0x1E33 JUMP JUMPDEST SWAP2 POP PUSH2 0x2245 DUP3 PUSH2 0x21DE JUMP JUMPDEST PUSH1 0x40 DUP3 ADD SWAP1 POP SWAP2 SWAP1 POP JUMP JUMPDEST PUSH1 0x0 PUSH1 0x20 DUP3 ADD SWAP1 POP DUP2 DUP2 SUB PUSH1 0x0 DUP4 ADD MSTORE PUSH2 0x2269 DUP2 PUSH2 0x222D JUMP JUMPDEST SWAP1 POP SWAP2 SWAP1 POP JUMP JUMPDEST PUSH32 0x57696E6E6572207375626D697373696F6E2074696D6520686173207061737365 PUSH1 0x0 DUP3 ADD MSTORE PUSH32 0x642E000000000000000000000000000000000000000000000000000000000000 PUSH1 0x20 DUP3 ADD MSTORE POP JUMP JUMPDEST PUSH1 0x0 PUSH2 0x22CC PUSH1 0x22 DUP4 PUSH2 0x1E33 JUMP JUMPDEST SWAP2 POP PUSH2 0x22D7 DUP3 PUSH2 0x2270 JUMP JUMPDEST PUSH1 0x40 DUP3 ADD SWAP1 POP SWAP2 SWAP1 POP JUMP JUMPDEST PUSH1 0x0 PUSH1 0x20 DUP3 ADD SWAP1 POP DUP2 DUP2 SUB PUSH1 0x0 DUP4 ADD MSTORE PUSH2 0x22FB DUP2 PUSH2 0x22BF JUMP JUMPDEST SWAP1 POP SWAP2 SWAP1 POP JUMP JUMPDEST PUSH32 0x4E487B7100000000000000000000000000000000000000000000000000000000 PUSH1 0x0 MSTORE PUSH1 0x22 PUSH1 0x4 MSTORE PUSH1 0x24 PUSH1 0x0 REVERT JUMPDEST PUSH1 0x0 PUSH1 0x2 DUP3 DIV SWAP1 POP PUSH1 0x1 DUP3 AND DUP1 PUSH2 0x2349 JUMPI PUSH1 0x7F DUP3 AND SWAP2 POP JUMPDEST PUSH1 0x20 DUP3 LT DUP2 SUB PUSH2 0x235C JUMPI PUSH2 0x235B PUSH2 0x2302 JUMP JUMPDEST JUMPDEST POP SWAP2 SWAP1 POP JUMP JUMPDEST PUSH1 0x0 DUP2 SWAP1 POP DUP2 PUSH1 0x0 MSTORE PUSH1 0x20 PUSH1 0x0 KECCAK256 SWAP1 POP SWAP2 SWAP1 POP JUMP JUMPDEST PUSH1 0x0 PUSH1 0x20 PUSH1 0x1F DUP4 ADD DIV SWAP1 POP SWAP2 SWAP1 POP JUMP JUMPDEST PUSH1 0x0 DUP3 DUP3 SHL SWAP1 POP SWAP3 SWAP2 POP POP JUMP JUMPDEST PUSH1 0x0 PUSH1 0x8 DUP4 MUL PUSH2 0x23C4 PUSH32 0xFFFFFFFFFFFFFFFFFFFFFFFFFFFFFFFFFFFFFFFFFFFFFFFFFFFFFFFFFFFFFFFF DUP3 PUSH2 0x2387 JUMP JUMPDEST PUSH2 0x23CE DUP7 DUP4 PUSH2 0x2387 JUMP JUMPDEST SWAP6 POP DUP1 NOT DUP5 AND SWAP4 POP DUP1 DUP7 AND DUP5 OR SWAP3 POP POP POP SWAP4 SWAP3 POP POP POP JUMP JUMPDEST PUSH1 0x0 DUP2 SWAP1 POP SWAP2 SWAP1 POP JUMP JUMPDEST PUSH1 0x0 PUSH2 0x240B PUSH2 0x2406 PUSH2 0x2401 DUP5 PUSH2 0x1980 JUMP JUMPDEST PUSH2 0x23E6 JUMP JUMPDEST PUSH2 0x1980 JUMP JUMPDEST SWAP1 POP SWAP2 SWAP1 POP JUMP JUMPDEST PUSH1 0x0 DUP2 SWAP1 POP SWAP2 SWAP1 POP JUMP JUMPDEST PUSH2 0x2425 DUP4 PUSH2 0x23F0 JUMP JUMPDEST PUSH2 0x2439 PUSH2 0x2431 DUP3 PUSH2 0x2412 JUMP JUMPDEST DUP5 DUP5 SLOAD PUSH2 0x2394 JUMP JUMPDEST DUP3 SSTORE POP POP POP POP JUMP JUMPDEST PUSH1 0x0 SWAP1 JUMP JUMPDEST PUSH2 0x244E PUSH2 0x2441 JUMP JUMPDEST PUSH2 0x2459 DUP2 DUP5 DUP5 PUSH2 0x241C JUMP JUMPDEST POP POP POP JUMP JUMPDEST JUMPDEST DUP2 DUP2 LT ISZERO PUSH2 0x247D JUMPI PUSH2 0x2472 PUSH1 0x0 DUP3 PUSH2 0x2446 JUMP JUMPDEST PUSH1 0x1 DUP2 ADD SWAP1 POP PUSH2 0x245F JUMP JUMPDEST POP POP JUMP JUMPDEST PUSH1 0x1F DUP3 GT ISZERO PUSH2 0x24C2 JUMPI PUSH2 0x2493 DUP2 PUSH2 0x2362 JUMP JUMPDEST PUSH2 0x249C DUP5 PUSH2 0x2377 JUMP JUMPDEST DUP2 ADD PUSH1 0x20 DUP6 LT ISZERO PUSH2 0x24AB JUMPI DUP2 SWAP1 POP JUMPDEST PUSH2 0x24BF PUSH2 0x24B7 DUP6 PUSH2 0x2377 JUMP JUMPDEST DUP4 ADD DUP3 PUSH2 0x245E JUMP JUMPDEST POP POP JUMPDEST POP POP POP JUMP JUMPDEST PUSH1 0x0 DUP3 DUP3 SHR SWAP1 POP SWAP3 SWAP2 POP POP JUMP JUMPDEST PUSH1 0x0 PUSH2 0x24E5 PUSH1 0x0 NOT DUP5 PUSH1 0x8 MUL PUSH2 0x24C7 JUMP JUMPDEST NOT DUP1 DUP4 AND SWAP2 POP POP SWAP3 SWAP2 POP POP JUMP JUMPDEST PUSH1 0x0 PUSH2 0x24FE DUP4 DUP4 PUSH2 0x24D4 JUMP JUMPDEST SWAP2 POP DUP3 PUSH1 0x2 MUL DUP3 OR SWAP1 POP SWAP3 SWAP2 POP POP JUMP JUMPDEST PUSH2 0x2517 DUP3 PUSH2 0x1BD4 JUMP JUMPDEST PUSH8 0xFFFFFFFFFFFFFFFF DUP2 GT ISZERO PUSH2 0x2530 JUMPI PUSH2 0x252F PUSH2 0x19D1 JUMP JUMPDEST JUMPDEST PUSH2 0x253A DUP3 SLOAD PUSH2 0x2331 JUMP JUMPDEST PUSH2 0x2545 DUP3 DUP3 DUP6 PUSH2 0x2481 JUMP JUMPDEST PUSH1 0x0 PUSH1 0x20 SWAP1 POP PUSH1 0x1F DUP4 GT PUSH1 0x1 DUP2 EQ PUSH2 0x2578 JUMPI PUSH1 0x0 DUP5 ISZERO PUSH2 0x2566 JUMPI DUP3 DUP8 ADD MLOAD SWAP1 POP JUMPDEST PUSH2 0x2570 DUP6 DUP3 PUSH2 0x24F2 JUMP JUMPDEST DUP7 SSTORE POP PUSH2 0x25D8 JUMP JUMPDEST PUSH1 0x1F NOT DUP5 AND PUSH2 0x2586 DUP7 PUSH2 0x2362 JUMP JUMPDEST PUSH1 0x0 JUMPDEST DUP3 DUP2 LT ISZERO PUSH2 0x25AE JUMPI DUP5 DUP10 ADD MLOAD DUP3 SSTORE PUSH1 0x1 DUP3 ADD SWAP2 POP PUSH1 0x20 DUP6 ADD SWAP5 POP PUSH1 0x20 DUP2 ADD SWAP1 POP PUSH2 0x2589 JUMP JUMPDEST DUP7 DUP4 LT ISZERO PUSH2 0x25CB JUMPI DUP5 DUP10 ADD MLOAD PUSH2 0x25C7 PUSH1 0x1F DUP10 AND DUP3 PUSH2 0x24D4 JUMP JUMPDEST DUP4 SSTORE POP JUMPDEST PUSH1 0x1 PUSH1 0x2 DUP9 MUL ADD DUP9 SSTORE POP POP POP JUMPDEST POP POP POP POP POP POP JUMP JUMPDEST PUSH32 0x41756374696F6E206973206E6F7420636F6D706C65746564207965742E000000 PUSH1 0x0 DUP3 ADD MSTORE POP JUMP JUMPDEST PUSH1 0x0 PUSH2 0x2616 PUSH1 0x1D DUP4 PUSH2 0x1E33 JUMP JUMPDEST SWAP2 POP PUSH2 0x2621 DUP3 PUSH2 0x25E0 JUMP JUMPDEST PUSH1 0x20 DUP3 ADD SWAP1 POP SWAP2 SWAP1 POP JUMP JUMPDEST PUSH1 0x0 PUSH1 0x20 DUP3 ADD SWAP1 POP DUP2 DUP2 SUB PUSH1 0x0 DUP4 ADD MSTORE PUSH2 0x2645 DUP2 PUSH2 0x2609 JUMP JUMPDEST SWAP1 POP SWAP2 SWAP1 POP JUMP JUMPDEST PUSH32 0x4E487B7100000000000000000000000000000000000000000000000000000000 PUSH1 0x0 MSTORE PUSH1 0x32 PUSH1 0x4 MSTORE PUSH1 0x24 PUSH1 0x0 REVERT JUMPDEST PUSH32 0x4E487B7100000000000000000000000000000000000000000000000000000000 PUSH1 0x0 MSTORE PUSH1 0x11 PUSH1 0x4 MSTORE PUSH1 0x24 PUSH1 0x0 REVERT JUMPDEST PUSH1 0x0 PUSH2 0x26B5 DUP3 PUSH2 0x1980 JUMP JUMPDEST SWAP2 POP PUSH2 0x26C0 DUP4 PUSH2 0x1980 JUMP JUMPDEST SWAP3 POP DUP3 DUP3 ADD SWAP1 POP DUP1 DUP3 GT ISZERO PUSH2 0x26D8 JUMPI PUSH2 0x26D7 PUSH2 0x267B JUMP JUMPDEST JUMPDEST SWAP3 SWAP2 POP POP JUMP JUMPDEST PUSH32 0x4469737075746520706861736520686173206E6F742073746172746564207965 PUSH1 0x0 DUP3 ADD MSTORE PUSH32 0x742E000000000000000000000000000000000000000000000000000000000000 PUSH1 0x20 DUP3 ADD MSTORE POP JUMP JUMPDEST PUSH1 0x0 PUSH2 0x273A PUSH1 0x22 DUP4 PUSH2 0x1E33 JUMP JUMPDEST SWAP2 POP PUSH2 0x2745 DUP3 PUSH2 0x26DE JUMP JUMPDEST PUSH1 0x40 DUP3 ADD SWAP1 POP SWAP2 SWAP1 POP JUMP JUMPDEST PUSH1 0x0 PUSH1 0x20 DUP3 ADD SWAP1 POP DUP2 DUP2 SUB PUSH1 0x0 DUP4 ADD MSTORE PUSH2 0x2769 DUP2 PUSH2 0x272D JUMP JUMPDEST SWAP1 POP SWAP2 SWAP1 POP JUMP JUMPDEST PUSH32 0x4469737075746520706861736520686173207061737365642E00000000000000 PUSH1 0x0 DUP3 ADD MSTORE POP JUMP JUMPDEST PUSH1 0x0 PUSH2 0x27A6 PUSH1 0x19 DUP4 PUSH2 0x1E33 JUMP JUMPDEST SWAP2 POP PUSH2 0x27B1 DUP3 PUSH2 0x2770 JUMP JUMPDEST PUSH1 0x20 DUP3 ADD SWAP1 POP SWAP2 SWAP1 POP JUMP JUMPDEST PUSH1 0x0 PUSH1 0x20 DUP3 ADD SWAP1 POP DUP2 DUP2 SUB PUSH1 0x0 DUP4 ADD MSTORE PUSH2 0x27D5 DUP2 PUSH2 0x2799 JUMP JUMPDEST SWAP1 POP SWAP2 SWAP1 POP JUMP JUMPDEST PUSH32 0x5468652062696420616E64206E6F6E636520796F75207375626D697474656420 PUSH1 0x0 DUP3 ADD MSTORE PUSH32 0x617265206E6F742076616C69642E000000000000000000000000000000000000 PUSH1 0x20 DUP3 ADD MSTORE POP JUMP JUMPDEST PUSH1 0x0 PUSH2 0x2838 PUSH1 0x2E DUP4 PUSH2 0x1E33 JUMP JUMPDEST SWAP2 POP PUSH2 0x2843 DUP3 PUSH2 0x27DC JUMP JUMPDEST PUSH1 0x40 DUP3 ADD SWAP1 POP SWAP2 SWAP1 POP JUMP JUMPDEST PUSH1 0x0 PUSH1 0x20 DUP3 ADD SWAP1 POP DUP2 DUP2 SUB PUSH1 0x0 DUP4 ADD MSTORE PUSH2 0x2867 DUP2 PUSH2 0x282B JUMP JUMPDEST SWAP1 POP SWAP2 SWAP1 POP JUMP JUMPDEST PUSH32 0x596F75722064697370757465206973206E6F742076616C69642073696E636520 PUSH1 0x0 DUP3 ADD MSTORE PUSH32 0x6974206973206E6F742067726561746572207468616E206174206C6561737420 PUSH1 0x20 DUP3 ADD MSTORE PUSH32 0x6F6E652077696E6E65722E000000000000000000000000000000000000000000 PUSH1 0x40 DUP3 ADD MSTORE POP JUMP JUMPDEST PUSH1 0x0 PUSH2 0x28F0 PUSH1 0x4B DUP4 PUSH2 0x1E33 JUMP JUMPDEST SWAP2 POP PUSH2 0x28FB DUP3 PUSH2 0x286E JUMP JUMPDEST PUSH1 0x60 DUP3 ADD SWAP1 POP SWAP2 SWAP1 POP JUMP JUMPDEST PUSH1 0x0 PUSH1 0x20 DUP3 ADD SWAP1 POP DUP2 DUP2 SUB PUSH1 0x0 DUP4 ADD MSTORE PUSH2 0x291F DUP2 PUSH2 0x28E3 JUMP JUMPDEST SWAP1 POP SWAP2 SWAP1 POP JUMP JUMPDEST PUSH32 0x48617368656420626964207375626D697373696F6E207068617365206973206E PUSH1 0x0 DUP3 ADD MSTORE PUSH32 0x6F742073746172746564207965742E0000000000000000000000000000000000 PUSH1 0x20 DUP3 ADD MSTORE POP JUMP JUMPDEST PUSH1 0x0 PUSH2 0x2982 PUSH1 0x2F DUP4 PUSH2 0x1E33 JUMP JUMPDEST SWAP2 POP PUSH2 0x298D DUP3 PUSH2 0x2926 JUMP JUMPDEST PUSH1 0x40 DUP3 ADD SWAP1 POP SWAP2 SWAP1 POP JUMP JUMPDEST PUSH1 0x0 PUSH1 0x20 DUP3 ADD SWAP1 POP DUP2 DUP2 SUB PUSH1 0x0 DUP4 ADD MSTORE PUSH2 0x29B1 DUP2 PUSH2 0x2975 JUMP JUMPDEST SWAP1 POP SWAP2 SWAP1 POP JUMP JUMPDEST PUSH32 0x54696D6520666F722068617368656420626964207375626D697373696F6E2069 PUSH1 0x0 DUP3 ADD MSTORE PUSH32 0x7320706173736564000000000000000000000000000000000000000000000000 PUSH1 0x20 DUP3 ADD MSTORE POP JUMP JUMPDEST PUSH1 0x0 PUSH2 0x2A14 PUSH1 0x28 DUP4 PUSH2 0x1E33 JUMP JUMPDEST SWAP2 POP PUSH2 0x2A1F DUP3 PUSH2 0x29B8 JUMP JUMPDEST PUSH1 0x40 DUP3 ADD SWAP1 POP SWAP2 SWAP1 POP JUMP JUMPDEST PUSH1 0x0 PUSH1 0x20 DUP3 ADD SWAP1 POP DUP2 DUP2 SUB PUSH1 0x0 DUP4 ADD MSTORE PUSH2 0x2A43 DUP2 PUSH2 0x2A07 JUMP JUMPDEST SWAP1 POP SWAP2 SWAP1 POP JUMP JUMPDEST PUSH32 0x54696D6520666F72207265676973746572696E67206173206120626964646572 PUSH1 0x0 DUP3 ADD MSTORE PUSH32 0x206973207061737365642E000000000000000000000000000000000000000000 PUSH1 0x20 DUP3 ADD MSTORE POP JUMP JUMPDEST PUSH1 0x0 PUSH2 0x2AA6 PUSH1 0x2B DUP4 PUSH2 0x1E33 JUMP JUMPDEST SWAP2 POP PUSH2 0x2AB1 DUP3 PUSH2 0x2A4A JUMP JUMPDEST PUSH1 0x40 DUP3 ADD SWAP1 POP SWAP2 SWAP1 POP JUMP JUMPDEST PUSH1 0x0 PUSH1 0x20 DUP3 ADD SWAP1 POP DUP2 DUP2 SUB PUSH1 0x0 DUP4 ADD MSTORE PUSH2 0x2AD5 DUP2 PUSH2 0x2A99 JUMP JUMPDEST SWAP1 POP SWAP2 SWAP1 POP JUMP JUMPDEST PUSH1 0x0 DUP2 SWAP1 POP SWAP3 SWAP2 POP POP JUMP JUMPDEST PUSH1 0x0 PUSH2 0x2AF2 DUP3 PUSH2 0x1BD4 JUMP JUMPDEST PUSH2 0x2AFC DUP2 DUP6 PUSH2 0x2ADC JUMP JUMPDEST SWAP4 POP PUSH2 0x2B0C DUP2 DUP6 PUSH1 0x20 DUP7 ADD PUSH2 0x1BF0 JUMP JUMPDEST DUP1 DUP5 ADD SWAP2 POP POP SWAP3 SWAP2 POP POP JUMP JUMPDEST PUSH1 0x0 PUSH2 0x2B24 DUP3 DUP6 PUSH2 0x2AE7 JUMP JUMPDEST SWAP2 POP PUSH2 0x2B30 DUP3 DUP5 PUSH2 0x2AE7 JUMP JUMPDEST SWAP2 POP DUP2 SWAP1 POP SWAP4 SWAP3 POP POP POP JUMP JUMPDEST PUSH1 0x0 PUSH2 0x2B48 DUP3 DUP5 PUSH2 0x2AE7 JUMP JUMPDEST SWAP2 POP DUP2 SWAP1 POP SWAP3 SWAP2 POP POP JUMP JUMPDEST PUSH1 0x0 DUP2 MLOAD SWAP1 POP SWAP2 SWAP1 POP JUMP JUMPDEST PUSH1 0x0 DUP2 SWAP1 POP SWAP3 SWAP2 POP POP JUMP JUMPDEST PUSH1 0x0 PUSH2 0x2B74 DUP3 PUSH2 0x2B53 JUMP JUMPDEST PUSH2 0x2B7E DUP2 DUP6 PUSH2 0x2B5E JUMP JUMPDEST SWAP4 POP PUSH2 0x2B8E DUP2 DUP6 PUSH1 0x20 DUP7 ADD PUSH2 0x1BF0 JUMP JUMPDEST DUP1 DUP5 ADD SWAP2 POP POP SWAP3 SWAP2 POP POP JUMP JUMPDEST PUSH1 0x0 PUSH2 0x2BA6 DUP3 DUP5 PUSH2 0x2B69 JUMP JUMPDEST SWAP2 POP DUP2 SWAP1 POP SWAP3 SWAP2 POP POP JUMP JUMPDEST PUSH1 0x0 DUP2 MLOAD SWAP1 POP PUSH2 0x2BC0 DUP2 PUSH2 0x2119 JUMP JUMPDEST SWAP3 SWAP2 POP POP JUMP JUMPDEST PUSH1 0x0 PUSH1 0x20 DUP3 DUP5 SUB SLT ISZERO PUSH2 0x2BDC JUMPI PUSH2 0x2BDB PUSH2 0x1976 JUMP JUMPDEST JUMPDEST PUSH1 0x0 PUSH2 0x2BEA DUP5 DUP3 DUP6 ADD PUSH2 0x2BB1 JUMP JUMPDEST SWAP2 POP POP SWAP3 SWAP2 POP POP JUMP JUMPDEST PUSH1 0x0 PUSH2 0x2BFE DUP3 PUSH2 0x1980 JUMP JUMPDEST SWAP2 POP PUSH32 0xFFFFFFFFFFFFFFFFFFFFFFFFFFFFFFFFFFFFFFFFFFFFFFFFFFFFFFFFFFFFFFFF DUP3 SUB PUSH2 0x2C30 JUMPI PUSH2 0x2C2F PUSH2 0x267B JUMP JUMPDEST JUMPDEST PUSH1 0x1 DUP3 ADD SWAP1 POP SWAP2 SWAP1 POP JUMP JUMPDEST PUSH1 0x0 PUSH2 0x2C46 DUP3 PUSH2 0x1980 JUMP JUMPDEST SWAP2 POP PUSH2 0x2C51 DUP4 PUSH2 0x1980 JUMP JUMPDEST SWAP3 POP DUP3 DUP3 MUL PUSH2 0x2C5F DUP2 PUSH2 0x1980 JUMP JUMPDEST SWAP2 POP DUP3 DUP3 DIV DUP5 EQ DUP4 ISZERO OR PUSH2 0x2C76 JUMPI PUSH2 0x2C75 PUSH2 0x267B JUMP JUMPDEST JUMPDEST POP SWAP3 SWAP2 POP POP JUMP JUMPDEST PUSH32 0x4E487B7100000000000000000000000000000000000000000000000000000000 PUSH1 0x0 MSTORE PUSH1 0x12 PUSH1 0x4 MSTORE PUSH1 0x24 PUSH1 0x0 REVERT INVALID LOG2 PUSH5 0x6970667358 0x22 SLT KECCAK256 0xE PUSH11 0x7B33239FE5FED8BDE2D6BE SWAP14 SMOD 0x4C 0xA9 0xED 0xAB CALL 0xC8 JUMPDEST 0xBE 0xC1 MSTORE 0xB8 0x4F 0xB9 CALLCODE SWAP15 SWAP13 GASLIMIT PUSH5 0x736F6C6343 STOP ADDMOD SLT STOP CALLER "
		},
		"gasEstimates": {
			"creation": {
				"codeDepositCost": "2298000",
				"executionCost": "48837",
				"totalCost": "2346837"
			},
			"external": {
				"assetDescription()": "infinite",
				"assetName()": "infinite",
				"bidders(uint256)": "5023",
				"dispute(uint256,string)": "infinite",
				"disputedBidders(uint256)": "infinite",
				"encodedBids(address)": "2882",
				"getAllDisputers()": "infinite",
				"getAllWinners()": "infinite",
				"getAuctionInfo()": "infinite",
				"registerAuctionInfo(string,string)": "infinite",
				"registerBidder()": "53103",
				"reset()": "infinite",
				"resetEncodedBids()": "infinite",
				"submitEncodedBid(bytes32)": "29090",
				"submitWinner(uint256,string)": "infinite",
				"winners(uint256)": "infinite"
			},
			"internal": {
				"addWinner(uint256,string memory)": "infinite",
				"clearWinners()": "infinite",
				"computeHash(uint256,string memory)": "infinite",
				"isDiputeBidGreaterThanOneWinnerBid(uint256)": "infinite",
				"setUpPhasesTimePeriods()": "infinite"
			}
		},
		"methodIdentifiers": {
			"assetDescription()": "938626c2",
			"assetName()": "c9230c5d",
			"bidders(uint256)": "cff29dfd",
			"dispute(uint256,string)": "66c85dee",
			"disputedBidders(uint256)": "8f772f96",
			"encodedBids(address)": "3817df4c",
			"getAllDisputers()": "35abd160",
			"getAllWinners()": "dc6b8627",
			"getAuctionInfo()": "d94a3505",
			"registerAuctionInfo(string,string)": "a2ebc656",
			"registerBidder()": "f356733c",
			"reset()": "d826f88f",
			"resetEncodedBids()": "40bd5937",
			"submitEncodedBid(bytes32)": "ec5d0ab2",
			"submitWinner(uint256,string)": "1744e03b",
			"winners(uint256)": "a2fb1175"
		}
	},
	"abi": [
		{
			"inputs": [],
			"name": "assetDescription",
			"outputs": [
				{
					"internalType": "string",
					"name": "",
					"type": "string"
				}
			],
			"stateMutability": "view",
			"type": "function"
		},
		{
			"inputs": [],
			"name": "assetName",
			"outputs": [
				{
					"internalType": "string",
					"name": "",
					"type": "string"
				}
			],
			"stateMutability": "view",
			"type": "function"
		},
		{
			"inputs": [
				{
					"internalType": "uint256",
					"name": "",
					"type": "uint256"
				}
			],
			"name": "bidders",
			"outputs": [
				{
					"internalType": "address",
					"name": "",
					"type": "address"
				}
			],
			"stateMutability": "view",
			"type": "function"
		},
		{
			"inputs": [
				{
					"internalType": "uint256",
					"name": "inputDisputedBid",
					"type": "uint256"
				},
				{
					"internalType": "string",
					"name": "inputDisputedNonce",
					"type": "string"
				}
			],
			"name": "dispute",
			"outputs": [],
			"stateMutability": "nonpayable",
			"type": "function"
		},
		{
			"inputs": [
				{
					"internalType": "uint256",
					"name": "",
					"type": "uint256"
				}
			],
			"name": "disputedBidders",
			"outputs": [
				{
					"internalType": "uint256",
					"name": "bid",
					"type": "uint256"
				},
				{
					"internalType": "address",
					"name": "disputeAddress",
					"type": "address"
				},
				{
					"internalType": "string",
					"name": "nonce",
					"type": "string"
				}
			],
			"stateMutability": "view",
			"type": "function"
		},
		{
			"inputs": [
				{
					"internalType": "address",
					"name": "",
					"type": "address"
				}
			],
			"name": "encodedBids",
			"outputs": [
				{
					"internalType": "bytes32",
					"name": "",
					"type": "bytes32"
				}
			],
			"stateMutability": "view",
			"type": "function"
		},
		{
			"inputs": [],
			"name": "getAllDisputers",
			"outputs": [
				{
					"components": [
						{
							"internalType": "uint256",
							"name": "bid",
							"type": "uint256"
						},
						{
							"internalType": "address",
							"name": "disputeAddress",
							"type": "address"
						},
						{
							"internalType": "string",
							"name": "nonce",
							"type": "string"
						}
					],
					"internalType": "struct AKEB.DisputedBidders[]",
					"name": "",
					"type": "tuple[]"
				}
			],
			"stateMutability": "view",
			"type": "function"
		},
		{
			"inputs": [],
			"name": "getAllWinners",
			"outputs": [
				{
					"components": [
						{
							"internalType": "address",
							"name": "winnerAddress",
							"type": "address"
						},
						{
							"internalType": "uint256",
							"name": "bid",
							"type": "uint256"
						},
						{
							"internalType": "string",
							"name": "nonce",
							"type": "string"
						}
					],
					"internalType": "struct AKEB.winner[]",
					"name": "",
					"type": "tuple[]"
				}
			],
			"stateMutability": "view",
			"type": "function"
		},
		{
			"inputs": [],
			"name": "getAuctionInfo",
			"outputs": [
				{
					"internalType": "string",
					"name": "",
					"type": "string"
				},
				{
					"internalType": "string",
					"name": "",
					"type": "string"
				}
			],
			"stateMutability": "view",
			"type": "function"
		},
		{
			"inputs": [
				{
					"internalType": "string",
					"name": "assetNameInput",
					"type": "string"
				},
				{
					"internalType": "string",
					"name": "assetDescriptionInput",
					"type": "string"
				}
			],
			"name": "registerAuctionInfo",
			"outputs": [],
			"stateMutability": "nonpayable",
			"type": "function"
		},
		{
			"inputs": [],
			"name": "registerBidder",
			"outputs": [],
			"stateMutability": "nonpayable",
			"type": "function"
		},
		{
			"inputs": [],
			"name": "reset",
			"outputs": [],
			"stateMutability": "nonpayable",
			"type": "function"
		},
		{
			"inputs": [],
			"name": "resetEncodedBids",
			"outputs": [],
			"stateMutability": "nonpayable",
			"type": "function"
		},
		{
			"inputs": [
				{
					"internalType": "bytes32",
					"name": "inputEncodedBid",
					"type": "bytes32"
				}
			],
			"name": "submitEncodedBid",
			"outputs": [],
			"stateMutability": "nonpayable",
			"type": "function"
		},
		{
			"inputs": [
				{
					"internalType": "uint256",
					"name": "inputWinnerBid",
					"type": "uint256"
				},
				{
					"internalType": "string",
					"name": "inputwinnerNonce",
					"type": "string"
				}
			],
			"name": "submitWinner",
			"outputs": [],
			"stateMutability": "nonpayable",
			"type": "function"
		},
		{
			"inputs": [
				{
					"internalType": "uint256",
					"name": "",
					"type": "uint256"
				}
			],
			"name": "winners",
			"outputs": [
				{
					"internalType": "address",
					"name": "winnerAddress",
					"type": "address"
				},
				{
					"internalType": "uint256",
					"name": "bid",
					"type": "uint256"
				},
				{
					"internalType": "string",
					"name": "nonce",
					"type": "string"
				}
			],
			"stateMutability": "view",
			"type": "function"
		}
	]
}